{
	"Library.sol": {
		"Library": {
			"abi": [
				{
					"inputs": [],
					"stateMutability": "nonpayable",
					"type": "constructor"
				},
				{
					"inputs": [],
					"name": "AddBook",
					"outputs": [],
					"stateMutability": "nonpayable",
					"type": "function"
				},
				{
					"inputs": [],
					"name": "BorrowBook",
					"outputs": [],
					"stateMutability": "nonpayable",
					"type": "function"
				},
				{
					"inputs": [],
					"name": "ReturnBook",
					"outputs": [],
					"stateMutability": "nonpayable",
					"type": "function"
				},
				{
					"inputs": [],
					"name": "owner",
					"outputs": [
						{
							"internalType": "address",
							"name": "",
							"type": "address"
						}
					],
					"stateMutability": "view",
					"type": "function"
				}
			],
			"devdoc": {
				"kind": "dev",
				"methods": {},
				"version": 1
			},
			"evm": {
				"assembly": "    /* \"Library.sol\":64:642  contract Library {... */\n  mstore(0x40, 0x80)\n    /* \"Library.sol\":409:457  constructor(){... */\n  callvalue\n  dup1\n  iszero\n  tag_1\n  jumpi\n  0x00\n  dup1\n  revert\ntag_1:\n  pop\n    /* \"Library.sol\":440:450  msg.sender */\n  caller\n    /* \"Library.sol\":432:437  owner */\n  0x00\n  dup1\n    /* \"Library.sol\":432:450  owner = msg.sender */\n  0x0100\n  exp\n  dup2\n  sload\n  dup2\n  0xffffffffffffffffffffffffffffffffffffffff\n  mul\n  not\n  and\n  swap1\n  dup4\n  0xffffffffffffffffffffffffffffffffffffffff\n  and\n  mul\n  or\n  swap1\n  sstore\n  pop\n    /* \"Library.sol\":64:642  contract Library {... */\n  dataSize(sub_0)\n  dup1\n  dataOffset(sub_0)\n  0x00\n  codecopy\n  0x00\n  return\nstop\n\nsub_0: assembly {\n        /* \"Library.sol\":64:642  contract Library {... */\n      mstore(0x40, 0x80)\n      callvalue\n      dup1\n      iszero\n      tag_1\n      jumpi\n      0x00\n      dup1\n      revert\n    tag_1:\n      pop\n      jumpi(tag_2, lt(calldatasize, 0x04))\n      shr(0xe0, calldataload(0x00))\n      dup1\n      0x3a57335f\n      eq\n      tag_3\n      jumpi\n      dup1\n      0x856e2522\n      eq\n      tag_4\n      jumpi\n      dup1\n      0x8da5cb5b\n      eq\n      tag_5\n      jumpi\n      dup1\n      0xa8144c89\n      eq\n      tag_6\n      jumpi\n    tag_2:\n      0x00\n      dup1\n      revert\n        /* \"Library.sol\":603:640  function ReturnBook() public {... */\n    tag_3:\n      tag_7\n      tag_8\n      jump\t// in\n    tag_7:\n      stop\n        /* \"Library.sol\":463:527  function AddBook() public onlyOwnable{... */\n    tag_4:\n      tag_9\n      tag_10\n      jump\t// in\n    tag_9:\n      stop\n        /* \"Library.sol\":87:107  address public owner */\n    tag_5:\n      tag_11\n      tag_12\n      jump\t// in\n    tag_11:\n      mload(0x40)\n      tag_13\n      swap2\n      swap1\n      tag_14\n      jump\t// in\n    tag_13:\n      mload(0x40)\n      dup1\n      swap2\n      sub\n      swap1\n      return\n        /* \"Library.sol\":533:597  function BorrowBook() public {... */\n    tag_6:\n      tag_15\n      tag_16\n      jump\t// in\n    tag_15:\n      stop\n        /* \"Library.sol\":603:640  function ReturnBook() public {... */\n    tag_8:\n      jump\t// out\n        /* \"Library.sol\":463:527  function AddBook() public onlyOwnable{... */\n    tag_10:\n        /* \"Library.sol\":237:242  owner */\n      0x00\n      dup1\n      sload\n      swap1\n      0x0100\n      exp\n      swap1\n      div\n      0xffffffffffffffffffffffffffffffffffffffff\n      and\n        /* \"Library.sol\":223:242  msg.sender == owner */\n      0xffffffffffffffffffffffffffffffffffffffff\n      and\n        /* \"Library.sol\":223:233  msg.sender */\n      caller\n        /* \"Library.sol\":223:242  msg.sender == owner */\n      0xffffffffffffffffffffffffffffffffffffffff\n      and\n      eq\n        /* \"Library.sol\":215:273  require(msg.sender == owner, \"Current user is not owner!\") */\n      tag_19\n      jumpi\n      mload(0x40)\n      0x08c379a000000000000000000000000000000000000000000000000000000000\n      dup2\n      mstore\n      0x04\n      add\n      tag_20\n      swap1\n      tag_21\n      jump\t// in\n    tag_20:\n      mload(0x40)\n      dup1\n      swap2\n      sub\n      swap1\n      revert\n    tag_19:\n        /* \"Library.sol\":463:527  function AddBook() public onlyOwnable{... */\n      jump\t// out\n        /* \"Library.sol\":87:107  address public owner */\n    tag_12:\n      0x00\n      dup1\n      sload\n      swap1\n      0x0100\n      exp\n      swap1\n      div\n      0xffffffffffffffffffffffffffffffffffffffff\n      and\n      dup2\n      jump\t// out\n        /* \"Library.sol\":533:597  function BorrowBook() public {... */\n    tag_16:\n      jump\t// out\n        /* \"#utility.yul\":7:125   */\n    tag_25:\n        /* \"#utility.yul\":94:118   */\n      tag_27\n        /* \"#utility.yul\":112:117   */\n      dup2\n        /* \"#utility.yul\":94:118   */\n      tag_28\n      jump\t// in\n    tag_27:\n        /* \"#utility.yul\":89:92   */\n      dup3\n        /* \"#utility.yul\":82:119   */\n      mstore\n        /* \"#utility.yul\":72:125   */\n      pop\n      pop\n      jump\t// out\n        /* \"#utility.yul\":131:455   */\n    tag_29:\n      0x00\n        /* \"#utility.yul\":294:361   */\n      tag_31\n        /* \"#utility.yul\":358:360   */\n      0x1a\n        /* \"#utility.yul\":353:356   */\n      dup4\n        /* \"#utility.yul\":294:361   */\n      tag_32\n      jump\t// in\n    tag_31:\n        /* \"#utility.yul\":287:361   */\n      swap2\n      pop\n        /* \"#utility.yul\":391:419   */\n      0x43757272656e742075736572206973206e6f74206f776e657221000000000000\n        /* \"#utility.yul\":387:388   */\n      0x00\n        /* \"#utility.yul\":382:385   */\n      dup4\n        /* \"#utility.yul\":378:389   */\n      add\n        /* \"#utility.yul\":371:420   */\n      mstore\n        /* \"#utility.yul\":446:448   */\n      0x20\n        /* \"#utility.yul\":441:444   */\n      dup3\n        /* \"#utility.yul\":437:449   */\n      add\n        /* \"#utility.yul\":430:449   */\n      swap1\n      pop\n        /* \"#utility.yul\":277:455   */\n      swap2\n      swap1\n      pop\n      jump\t// out\n        /* \"#utility.yul\":461:683   */\n    tag_14:\n      0x00\n        /* \"#utility.yul\":592:594   */\n      0x20\n        /* \"#utility.yul\":581:590   */\n      dup3\n        /* \"#utility.yul\":577:595   */\n      add\n        /* \"#utility.yul\":569:595   */\n      swap1\n      pop\n        /* \"#utility.yul\":605:676   */\n      tag_34\n        /* \"#utility.yul\":673:674   */\n      0x00\n        /* \"#utility.yul\":662:671   */\n      dup4\n        /* \"#utility.yul\":658:675   */\n      add\n        /* \"#utility.yul\":649:655   */\n      dup5\n        /* \"#utility.yul\":605:676   */\n      tag_25\n      jump\t// in\n    tag_34:\n        /* \"#utility.yul\":559:683   */\n      swap3\n      swap2\n      pop\n      pop\n      jump\t// out\n        /* \"#utility.yul\":689:1108   */\n    tag_21:\n      0x00\n        /* \"#utility.yul\":893:895   */\n      0x20\n        /* \"#utility.yul\":882:891   */\n      dup3\n        /* \"#utility.yul\":878:896   */\n      add\n        /* \"#utility.yul\":870:896   */\n      swap1\n      pop\n        /* \"#utility.yul\":942:951   */\n      dup2\n        /* \"#utility.yul\":936:940   */\n      dup2\n        /* \"#utility.yul\":932:952   */\n      sub\n        /* \"#utility.yul\":928:929   */\n      0x00\n        /* \"#utility.yul\":917:926   */\n      dup4\n        /* \"#utility.yul\":913:930   */\n      add\n        /* \"#utility.yul\":906:953   */\n      mstore\n        /* \"#utility.yul\":970:1101   */\n      tag_36\n        /* \"#utility.yul\":1096:1100   */\n      dup2\n        /* \"#utility.yul\":970:1101   */\n      tag_29\n      jump\t// in\n    tag_36:\n        /* \"#utility.yul\":962:1101   */\n      swap1\n      pop\n        /* \"#utility.yul\":860:1108   */\n      swap2\n      swap1\n      pop\n      jump\t// out\n        /* \"#utility.yul\":1114:1283   */\n    tag_32:\n      0x00\n        /* \"#utility.yul\":1232:1238   */\n      dup3\n        /* \"#utility.yul\":1227:1230   */\n      dup3\n        /* \"#utility.yul\":1220:1239   */\n      mstore\n        /* \"#utility.yul\":1272:1276   */\n      0x20\n        /* \"#utility.yul\":1267:1270   */\n      dup3\n        /* \"#utility.yul\":1263:1277   */\n      add\n        /* \"#utility.yul\":1248:1277   */\n      swap1\n      pop\n        /* \"#utility.yul\":1210:1283   */\n      swap3\n      swap2\n      pop\n      pop\n      jump\t// out\n        /* \"#utility.yul\":1289:1385   */\n    tag_28:\n      0x00\n        /* \"#utility.yul\":1355:1379   */\n      tag_39\n        /* \"#utility.yul\":1373:1378   */\n      dup3\n        /* \"#utility.yul\":1355:1379   */\n      tag_40\n      jump\t// in\n    tag_39:\n        /* \"#utility.yul\":1344:1379   */\n      swap1\n      pop\n        /* \"#utility.yul\":1334:1385   */\n      swap2\n      swap1\n      pop\n      jump\t// out\n        /* \"#utility.yul\":1391:1517   */\n    tag_40:\n      0x00\n        /* \"#utility.yul\":1468:1510   */\n      0xffffffffffffffffffffffffffffffffffffffff\n        /* \"#utility.yul\":1461:1466   */\n      dup3\n        /* \"#utility.yul\":1457:1511   */\n      and\n        /* \"#utility.yul\":1446:1511   */\n      swap1\n      pop\n        /* \"#utility.yul\":1436:1517   */\n      swap2\n      swap1\n      pop\n      jump\t// out\n\n    auxdata: 0xa2646970667358221220374cca16596759224c8399851ef7223be293e4b3c265976b1207d3fedd218f2264736f6c63430008000033\n}\n",
				"bytecode": {
					"linkReferences": {},
					"object": "608060405234801561001057600080fd5b50336000806101000a81548173ffffffffffffffffffffffffffffffffffffffff021916908373ffffffffffffffffffffffffffffffffffffffff160217905550610248806100606000396000f3fe608060405234801561001057600080fd5b506004361061004c5760003560e01c80633a57335f14610051578063856e25221461005b5780638da5cb5b14610065578063a8144c8914610083575b600080fd5b61005961008d565b005b61006361008f565b005b61006d61011f565b60405161007a9190610194565b60405180910390f35b61008b610143565b005b565b60008054906101000a900473ffffffffffffffffffffffffffffffffffffffff1673ffffffffffffffffffffffffffffffffffffffff163373ffffffffffffffffffffffffffffffffffffffff161461011d576040517f08c379a0000000000000000000000000000000000000000000000000000000008152600401610114906101af565b60405180910390fd5b565b60008054906101000a900473ffffffffffffffffffffffffffffffffffffffff1681565b565b61014e816101e0565b82525050565b6000610161601a836101cf565b91507f43757272656e742075736572206973206e6f74206f776e6572210000000000006000830152602082019050919050565b60006020820190506101a96000830184610145565b92915050565b600060208201905081810360008301526101c881610154565b9050919050565b600082825260208201905092915050565b60006101eb826101f2565b9050919050565b600073ffffffffffffffffffffffffffffffffffffffff8216905091905056fea2646970667358221220374cca16596759224c8399851ef7223be293e4b3c265976b1207d3fedd218f2264736f6c63430008000033",
					"opcodes": "PUSH1 0x80 PUSH1 0x40 MSTORE CALLVALUE DUP1 ISZERO PUSH2 0x10 JUMPI PUSH1 0x0 DUP1 REVERT JUMPDEST POP CALLER PUSH1 0x0 DUP1 PUSH2 0x100 EXP DUP2 SLOAD DUP2 PUSH20 0xFFFFFFFFFFFFFFFFFFFFFFFFFFFFFFFFFFFFFFFF MUL NOT AND SWAP1 DUP4 PUSH20 0xFFFFFFFFFFFFFFFFFFFFFFFFFFFFFFFFFFFFFFFF AND MUL OR SWAP1 SSTORE POP PUSH2 0x248 DUP1 PUSH2 0x60 PUSH1 0x0 CODECOPY PUSH1 0x0 RETURN INVALID PUSH1 0x80 PUSH1 0x40 MSTORE CALLVALUE DUP1 ISZERO PUSH2 0x10 JUMPI PUSH1 0x0 DUP1 REVERT JUMPDEST POP PUSH1 0x4 CALLDATASIZE LT PUSH2 0x4C JUMPI PUSH1 0x0 CALLDATALOAD PUSH1 0xE0 SHR DUP1 PUSH4 0x3A57335F EQ PUSH2 0x51 JUMPI DUP1 PUSH4 0x856E2522 EQ PUSH2 0x5B JUMPI DUP1 PUSH4 0x8DA5CB5B EQ PUSH2 0x65 JUMPI DUP1 PUSH4 0xA8144C89 EQ PUSH2 0x83 JUMPI JUMPDEST PUSH1 0x0 DUP1 REVERT JUMPDEST PUSH2 0x59 PUSH2 0x8D JUMP JUMPDEST STOP JUMPDEST PUSH2 0x63 PUSH2 0x8F JUMP JUMPDEST STOP JUMPDEST PUSH2 0x6D PUSH2 0x11F JUMP JUMPDEST PUSH1 0x40 MLOAD PUSH2 0x7A SWAP2 SWAP1 PUSH2 0x194 JUMP JUMPDEST PUSH1 0x40 MLOAD DUP1 SWAP2 SUB SWAP1 RETURN JUMPDEST PUSH2 0x8B PUSH2 0x143 JUMP JUMPDEST STOP JUMPDEST JUMP JUMPDEST PUSH1 0x0 DUP1 SLOAD SWAP1 PUSH2 0x100 EXP SWAP1 DIV PUSH20 0xFFFFFFFFFFFFFFFFFFFFFFFFFFFFFFFFFFFFFFFF AND PUSH20 0xFFFFFFFFFFFFFFFFFFFFFFFFFFFFFFFFFFFFFFFF AND CALLER PUSH20 0xFFFFFFFFFFFFFFFFFFFFFFFFFFFFFFFFFFFFFFFF AND EQ PUSH2 0x11D JUMPI PUSH1 0x40 MLOAD PUSH32 0x8C379A000000000000000000000000000000000000000000000000000000000 DUP2 MSTORE PUSH1 0x4 ADD PUSH2 0x114 SWAP1 PUSH2 0x1AF JUMP JUMPDEST PUSH1 0x40 MLOAD DUP1 SWAP2 SUB SWAP1 REVERT JUMPDEST JUMP JUMPDEST PUSH1 0x0 DUP1 SLOAD SWAP1 PUSH2 0x100 EXP SWAP1 DIV PUSH20 0xFFFFFFFFFFFFFFFFFFFFFFFFFFFFFFFFFFFFFFFF AND DUP2 JUMP JUMPDEST JUMP JUMPDEST PUSH2 0x14E DUP2 PUSH2 0x1E0 JUMP JUMPDEST DUP3 MSTORE POP POP JUMP JUMPDEST PUSH1 0x0 PUSH2 0x161 PUSH1 0x1A DUP4 PUSH2 0x1CF JUMP JUMPDEST SWAP2 POP PUSH32 0x43757272656E742075736572206973206E6F74206F776E657221000000000000 PUSH1 0x0 DUP4 ADD MSTORE PUSH1 0x20 DUP3 ADD SWAP1 POP SWAP2 SWAP1 POP JUMP JUMPDEST PUSH1 0x0 PUSH1 0x20 DUP3 ADD SWAP1 POP PUSH2 0x1A9 PUSH1 0x0 DUP4 ADD DUP5 PUSH2 0x145 JUMP JUMPDEST SWAP3 SWAP2 POP POP JUMP JUMPDEST PUSH1 0x0 PUSH1 0x20 DUP3 ADD SWAP1 POP DUP2 DUP2 SUB PUSH1 0x0 DUP4 ADD MSTORE PUSH2 0x1C8 DUP2 PUSH2 0x154 JUMP JUMPDEST SWAP1 POP SWAP2 SWAP1 POP JUMP JUMPDEST PUSH1 0x0 DUP3 DUP3 MSTORE PUSH1 0x20 DUP3 ADD SWAP1 POP SWAP3 SWAP2 POP POP JUMP JUMPDEST PUSH1 0x0 PUSH2 0x1EB DUP3 PUSH2 0x1F2 JUMP JUMPDEST SWAP1 POP SWAP2 SWAP1 POP JUMP JUMPDEST PUSH1 0x0 PUSH20 0xFFFFFFFFFFFFFFFFFFFFFFFFFFFFFFFFFFFFFFFF DUP3 AND SWAP1 POP SWAP2 SWAP1 POP JUMP INVALID LOG2 PUSH5 0x6970667358 0x22 SLT KECCAK256 CALLDATACOPY 0x4C 0xCA AND MSIZE PUSH8 0x59224C8399851EF7 0x22 EXTCODESIZE 0xE2 SWAP4 0xE4 0xB3 0xC2 PUSH6 0x976B1207D3FE 0xDD 0x21 DUP16 0x22 PUSH5 0x736F6C6343 STOP ADDMOD STOP STOP CALLER "
				},
				"gasEstimates": {
					"creation": {
						"codeDepositCost": "116800",
						"executionCost": "21031",
						"totalCost": "137831"
					},
					"external": {
						"AddBook()": "1271",
						"BorrowBook()": "188",
						"ReturnBook()": "122",
						"owner()": "1233"
					}
				},
				"methodIdentifiers": {
					"AddBook()": "856e2522",
					"BorrowBook()": "a8144c89",
					"ReturnBook()": "3a57335f",
					"owner()": "8da5cb5b"
				}
			},
			"userdoc": {
				"kind": "user",
				"methods": {},
				"version": 1
			}
		}
	}
}