{
	"USElection.sol": {
		"USElection": {
			"abi": [
				{
					"anonymous": false,
					"inputs": [
						{
							"indexed": false,
							"internalType": "uint256",
							"name": "winner",
							"type": "uint256"
						}
					],
					"name": "LogElectionEnded",
					"type": "event"
				},
				{
					"anonymous": false,
					"inputs": [
						{
							"indexed": false,
							"internalType": "uint8",
							"name": "winner",
							"type": "uint8"
						},
						{
							"indexed": false,
							"internalType": "uint8",
							"name": "stateSeats",
							"type": "uint8"
						},
						{
							"indexed": false,
							"internalType": "string",
							"name": "state",
							"type": "string"
						}
					],
					"name": "LogStateResult",
					"type": "event"
				},
				{
					"inputs": [],
					"name": "BIDEN",
					"outputs": [
						{
							"internalType": "uint8",
							"name": "",
							"type": "uint8"
						}
					],
					"stateMutability": "view",
					"type": "function"
				},
				{
					"inputs": [],
					"name": "TRUMP",
					"outputs": [
						{
							"internalType": "uint8",
							"name": "",
							"type": "uint8"
						}
					],
					"stateMutability": "view",
					"type": "function"
				},
				{
					"inputs": [],
					"name": "currentLeader",
					"outputs": [
						{
							"internalType": "uint8",
							"name": "",
							"type": "uint8"
						}
					],
					"stateMutability": "view",
					"type": "function"
				},
				{
					"inputs": [],
					"name": "electionEnded",
					"outputs": [
						{
							"internalType": "bool",
							"name": "",
							"type": "bool"
						}
					],
					"stateMutability": "view",
					"type": "function"
				},
				{
					"inputs": [],
					"name": "endElection",
					"outputs": [],
					"stateMutability": "nonpayable",
					"type": "function"
				},
				{
					"inputs": [
						{
							"internalType": "string",
							"name": "",
							"type": "string"
						}
					],
					"name": "resultsSubmitted",
					"outputs": [
						{
							"internalType": "bool",
							"name": "",
							"type": "bool"
						}
					],
					"stateMutability": "view",
					"type": "function"
				},
				{
					"inputs": [
						{
							"internalType": "uint8",
							"name": "",
							"type": "uint8"
						}
					],
					"name": "seats",
					"outputs": [
						{
							"internalType": "uint8",
							"name": "",
							"type": "uint8"
						}
					],
					"stateMutability": "view",
					"type": "function"
				},
				{
					"inputs": [
						{
							"components": [
								{
									"internalType": "string",
									"name": "name",
									"type": "string"
								},
								{
									"internalType": "uint256",
									"name": "votesBiden",
									"type": "uint256"
								},
								{
									"internalType": "uint256",
									"name": "votesTrump",
									"type": "uint256"
								},
								{
									"internalType": "uint8",
									"name": "stateSeats",
									"type": "uint8"
								}
							],
							"internalType": "struct USElection.StateResult",
							"name": "result",
							"type": "tuple"
						}
					],
					"name": "submitStateResult",
					"outputs": [],
					"stateMutability": "nonpayable",
					"type": "function"
				}
			],
			"devdoc": {
				"kind": "dev",
				"methods": {},
				"version": 1
			},
			"evm": {
				"assembly": "    /* \"USElection.sol\":84:1674  contract USElection {... */\n  mstore(0x40, 0x80)\n  callvalue\n  dup1\n  iszero\n  tag_1\n  jumpi\n  0x00\n  dup1\n  revert\ntag_1:\n  pop\n  dataSize(sub_0)\n  dup1\n  dataOffset(sub_0)\n  0x00\n  codecopy\n  0x00\n  return\nstop\n\nsub_0: assembly {\n        /* \"USElection.sol\":84:1674  contract USElection {... */\n      mstore(0x40, 0x80)\n      callvalue\n      dup1\n      iszero\n      tag_1\n      jumpi\n      0x00\n      dup1\n      revert\n    tag_1:\n      pop\n      jumpi(tag_2, lt(calldatasize, 0x04))\n      shr(0xe0, calldataload(0x00))\n      dup1\n      0x713d87c5\n      gt\n      tag_11\n      jumpi\n      dup1\n      0x713d87c5\n      eq\n      tag_7\n      jumpi\n      dup1\n      0xac4bd53a\n      eq\n      tag_8\n      jumpi\n      dup1\n      0xc94ca9e3\n      eq\n      tag_9\n      jumpi\n      dup1\n      0xe494a883\n      eq\n      tag_10\n      jumpi\n      jump(tag_2)\n    tag_11:\n      dup1\n      0x2d78d8e5\n      eq\n      tag_3\n      jumpi\n      dup1\n      0x37ad98ec\n      eq\n      tag_4\n      jumpi\n      dup1\n      0x59f78468\n      eq\n      tag_5\n      jumpi\n      dup1\n      0x69b36bd4\n      eq\n      tag_6\n      jumpi\n    tag_2:\n      0x00\n      dup1\n      revert\n        /* \"USElection.sol\":147:178  uint8 public constant TRUMP = 2 */\n    tag_3:\n      tag_12\n      tag_13\n      jump\t// in\n    tag_12:\n      mload(0x40)\n      tag_14\n      swap2\n      swap1\n      tag_15\n      jump\t// in\n    tag_14:\n      mload(0x40)\n      dup1\n      swap2\n      sub\n      swap1\n      return\n        /* \"USElection.sol\":268:313  mapping(string=>bool) public resultsSubmitted */\n    tag_4:\n      tag_16\n      0x04\n      dup1\n      calldatasize\n      sub\n      dup2\n      add\n      swap1\n      tag_17\n      swap2\n      swap1\n      tag_18\n      jump\t// in\n    tag_17:\n      tag_19\n      jump\t// in\n    tag_16:\n      mload(0x40)\n      tag_20\n      swap2\n      swap1\n      tag_21\n      jump\t// in\n    tag_20:\n      mload(0x40)\n      dup1\n      swap2\n      sub\n      swap1\n      return\n        /* \"USElection.sol\":1533:1667  function endElection() public onlyActiveElection {... */\n    tag_5:\n      tag_22\n      tag_23\n      jump\t// in\n    tag_22:\n      stop\n        /* \"USElection.sol\":110:141  uint8 public constant BIDEN = 1 */\n    tag_6:\n      tag_24\n      tag_25\n      jump\t// in\n    tag_24:\n      mload(0x40)\n      tag_26\n      swap2\n      swap1\n      tag_15\n      jump\t// in\n    tag_26:\n      mload(0x40)\n      dup1\n      swap2\n      sub\n      swap1\n      return\n        /* \"USElection.sol\":225:261  mapping(uint8 => uint8) public seats */\n    tag_7:\n      tag_27\n      0x04\n      dup1\n      calldatasize\n      sub\n      dup2\n      add\n      swap1\n      tag_28\n      swap2\n      swap1\n      tag_29\n      jump\t// in\n    tag_28:\n      tag_30\n      jump\t// in\n    tag_27:\n      mload(0x40)\n      tag_31\n      swap2\n      swap1\n      tag_15\n      jump\t// in\n    tag_31:\n      mload(0x40)\n      dup1\n      swap2\n      sub\n      swap1\n      return\n        /* \"USElection.sol\":1305:1521  function currentLeader() public view returns(uint8) {... */\n    tag_8:\n      tag_32\n      tag_33\n      jump\t// in\n    tag_32:\n      mload(0x40)\n      tag_34\n      swap2\n      swap1\n      tag_15\n      jump\t// in\n    tag_34:\n      mload(0x40)\n      dup1\n      swap2\n      sub\n      swap1\n      return\n        /* \"USElection.sol\":189:214  bool public electionEnded */\n    tag_9:\n      tag_35\n      tag_36\n      jump\t// in\n    tag_35:\n      mload(0x40)\n      tag_37\n      swap2\n      swap1\n      tag_21\n      jump\t// in\n    tag_37:\n      mload(0x40)\n      dup1\n      swap2\n      sub\n      swap1\n      return\n        /* \"USElection.sol\":693:1299  function submitStateResult(StateResult calldata result) public onlyActiveElection {... */\n    tag_10:\n      tag_38\n      0x04\n      dup1\n      calldatasize\n      sub\n      dup2\n      add\n      swap1\n      tag_39\n      swap2\n      swap1\n      tag_40\n      jump\t// in\n    tag_39:\n      tag_41\n      jump\t// in\n    tag_38:\n      stop\n        /* \"USElection.sol\":147:178  uint8 public constant TRUMP = 2 */\n    tag_13:\n        /* \"USElection.sol\":177:178  2 */\n      0x02\n        /* \"USElection.sol\":147:178  uint8 public constant TRUMP = 2 */\n      dup2\n      jump\t// out\n        /* \"USElection.sol\":268:313  mapping(string=>bool) public resultsSubmitted */\n    tag_19:\n      0x02\n      dup2\n      dup1\n      mload\n      0x20\n      dup2\n      add\n      dup3\n      add\n      dup1\n      mload\n      dup5\n      dup3\n      mstore\n      0x20\n      dup4\n      add\n      0x20\n      dup6\n      add\n      keccak256\n      dup2\n      dup4\n      mstore\n      dup1\n      swap6\n      pop\n      pop\n      pop\n      pop\n      pop\n      pop\n      0x00\n      swap2\n      pop\n      sload\n      swap1\n      0x0100\n      exp\n      swap1\n      div\n      0xff\n      and\n      dup2\n      jump\t// out\n        /* \"USElection.sol\":1533:1667  function endElection() public onlyActiveElection {... */\n    tag_23:\n        /* \"USElection.sol\":618:631  electionEnded */\n      0x00\n      dup1\n      sload\n      swap1\n      0x0100\n      exp\n      swap1\n      div\n      0xff\n      and\n        /* \"USElection.sol\":617:631  !electionEnded */\n      iszero\n        /* \"USElection.sol\":609:666  require(!electionEnded, \"The election has ended already\") */\n      tag_43\n      jumpi\n      mload(0x40)\n      0x08c379a000000000000000000000000000000000000000000000000000000000\n      dup2\n      mstore\n      0x04\n      add\n      tag_44\n      swap1\n      tag_45\n      jump\t// in\n    tag_44:\n      mload(0x40)\n      dup1\n      swap2\n      sub\n      swap1\n      revert\n    tag_43:\n        /* \"USElection.sol\":1608:1612  true */\n      0x01\n        /* \"USElection.sol\":1592:1605  electionEnded */\n      0x00\n      dup1\n        /* \"USElection.sol\":1592:1612  electionEnded = true */\n      0x0100\n      exp\n      dup2\n      sload\n      dup2\n      0xff\n      mul\n      not\n      and\n      swap1\n      dup4\n      iszero\n      iszero\n      mul\n      or\n      swap1\n      sstore\n      pop\n        /* \"USElection.sol\":1627:1660  LogElectionEnded(currentLeader()) */\n      0xaacb23683ec1a0e9b52f9a6264edf58ad322ac62079d65ea7363a2d400f439f4\n        /* \"USElection.sol\":1644:1659  currentLeader() */\n      tag_47\n        /* \"USElection.sol\":1644:1657  currentLeader */\n      tag_33\n        /* \"USElection.sol\":1644:1659  currentLeader() */\n      jump\t// in\n    tag_47:\n        /* \"USElection.sol\":1627:1660  LogElectionEnded(currentLeader()) */\n      mload(0x40)\n      tag_48\n      swap2\n      swap1\n      tag_49\n      jump\t// in\n    tag_48:\n      mload(0x40)\n      dup1\n      swap2\n      sub\n      swap1\n      log1\n        /* \"USElection.sol\":1533:1667  function endElection() public onlyActiveElection {... */\n      jump\t// out\n        /* \"USElection.sol\":110:141  uint8 public constant BIDEN = 1 */\n    tag_25:\n        /* \"USElection.sol\":140:141  1 */\n      0x01\n        /* \"USElection.sol\":110:141  uint8 public constant BIDEN = 1 */\n      dup2\n      jump\t// out\n        /* \"USElection.sol\":225:261  mapping(uint8 => uint8) public seats */\n    tag_30:\n      mstore(0x20, 0x01)\n      dup1\n      0x00\n      mstore\n      keccak256(0x00, 0x40)\n      0x00\n      swap2\n      pop\n      sload\n      swap1\n      0x0100\n      exp\n      swap1\n      div\n      0xff\n      and\n      dup2\n      jump\t// out\n        /* \"USElection.sol\":1305:1521  function currentLeader() public view returns(uint8) {... */\n    tag_33:\n        /* \"USElection.sol\":1350:1355  uint8 */\n      0x00\n        /* \"USElection.sol\":1383:1388  seats */\n      0x01\n        /* \"USElection.sol\":1383:1395  seats[TRUMP] */\n      0x00\n        /* \"USElection.sol\":177:178  2 */\n      0x02\n        /* \"USElection.sol\":1383:1395  seats[TRUMP] */\n      0xff\n      and\n      0xff\n      and\n      dup2\n      mstore\n      0x20\n      add\n      swap1\n      dup2\n      mstore\n      0x20\n      add\n      0x00\n      keccak256\n      0x00\n      swap1\n      sload\n      swap1\n      0x0100\n      exp\n      swap1\n      div\n      0xff\n      and\n        /* \"USElection.sol\":1368:1395  seats[BIDEN] > seats[TRUMP] */\n      0xff\n      and\n        /* \"USElection.sol\":1368:1373  seats */\n      0x01\n        /* \"USElection.sol\":1368:1380  seats[BIDEN] */\n      0x00\n        /* \"USElection.sol\":140:141  1 */\n      0x01\n        /* \"USElection.sol\":1368:1380  seats[BIDEN] */\n      0xff\n      and\n      0xff\n      and\n      dup2\n      mstore\n      0x20\n      add\n      swap1\n      dup2\n      mstore\n      0x20\n      add\n      0x00\n      keccak256\n      0x00\n      swap1\n      sload\n      swap1\n      0x0100\n      exp\n      swap1\n      div\n      0xff\n      and\n        /* \"USElection.sol\":1368:1395  seats[BIDEN] > seats[TRUMP] */\n      0xff\n      and\n      gt\n        /* \"USElection.sol\":1365:1430  if(seats[BIDEN] > seats[TRUMP]) {... */\n      iszero\n      tag_51\n      jumpi\n        /* \"USElection.sol\":140:141  1 */\n      0x01\n        /* \"USElection.sol\":1409:1421  return BIDEN */\n      swap1\n      pop\n      jump(tag_50)\n        /* \"USElection.sol\":1365:1430  if(seats[BIDEN] > seats[TRUMP]) {... */\n    tag_51:\n        /* \"USElection.sol\":1455:1460  seats */\n      0x01\n        /* \"USElection.sol\":1455:1467  seats[BIDEN] */\n      0x00\n        /* \"USElection.sol\":140:141  1 */\n      0x01\n        /* \"USElection.sol\":1455:1467  seats[BIDEN] */\n      0xff\n      and\n      0xff\n      and\n      dup2\n      mstore\n      0x20\n      add\n      swap1\n      dup2\n      mstore\n      0x20\n      add\n      0x00\n      keccak256\n      0x00\n      swap1\n      sload\n      swap1\n      0x0100\n      exp\n      swap1\n      div\n      0xff\n      and\n        /* \"USElection.sol\":1440:1467  seats[TRUMP] > seats[BIDEN] */\n      0xff\n      and\n        /* \"USElection.sol\":1440:1445  seats */\n      0x01\n        /* \"USElection.sol\":1440:1452  seats[TRUMP] */\n      0x00\n        /* \"USElection.sol\":177:178  2 */\n      0x02\n        /* \"USElection.sol\":1440:1452  seats[TRUMP] */\n      0xff\n      and\n      0xff\n      and\n      dup2\n      mstore\n      0x20\n      add\n      swap1\n      dup2\n      mstore\n      0x20\n      add\n      0x00\n      keccak256\n      0x00\n      swap1\n      sload\n      swap1\n      0x0100\n      exp\n      swap1\n      div\n      0xff\n      and\n        /* \"USElection.sol\":1440:1467  seats[TRUMP] > seats[BIDEN] */\n      0xff\n      and\n      gt\n        /* \"USElection.sol\":1437:1502  if(seats[TRUMP] > seats[BIDEN]) {... */\n      iszero\n      tag_52\n      jumpi\n        /* \"USElection.sol\":177:178  2 */\n      0x02\n        /* \"USElection.sol\":1481:1493  return TRUMP */\n      swap1\n      pop\n      jump(tag_50)\n        /* \"USElection.sol\":1437:1502  if(seats[TRUMP] > seats[BIDEN]) {... */\n    tag_52:\n        /* \"USElection.sol\":1516:1517  0 */\n      0x00\n        /* \"USElection.sol\":1509:1517  return 0 */\n      swap1\n      pop\n        /* \"USElection.sol\":1305:1521  function currentLeader() public view returns(uint8) {... */\n    tag_50:\n      swap1\n      jump\t// out\n        /* \"USElection.sol\":189:214  bool public electionEnded */\n    tag_36:\n      0x00\n      dup1\n      sload\n      swap1\n      0x0100\n      exp\n      swap1\n      div\n      0xff\n      and\n      dup2\n      jump\t// out\n        /* \"USElection.sol\":693:1299  function submitStateResult(StateResult calldata result) public onlyActiveElection {... */\n    tag_41:\n        /* \"USElection.sol\":618:631  electionEnded */\n      0x00\n      dup1\n      sload\n      swap1\n      0x0100\n      exp\n      swap1\n      div\n      0xff\n      and\n        /* \"USElection.sol\":617:631  !electionEnded */\n      iszero\n        /* \"USElection.sol\":609:666  require(!electionEnded, \"The election has ended already\") */\n      tag_54\n      jumpi\n      mload(0x40)\n      0x08c379a000000000000000000000000000000000000000000000000000000000\n      dup2\n      mstore\n      0x04\n      add\n      tag_55\n      swap1\n      tag_45\n      jump\t// in\n    tag_55:\n      mload(0x40)\n      dup1\n      swap2\n      sub\n      swap1\n      revert\n    tag_54:\n        /* \"USElection.sol\":811:812  0 */\n      0x00\n        /* \"USElection.sol\":791:797  result */\n      dup2\n        /* \"USElection.sol\":791:808  result.stateSeats */\n      0x60\n      add\n      0x20\n      dup2\n      add\n      swap1\n      tag_57\n      swap2\n      swap1\n      tag_29\n      jump\t// in\n    tag_57:\n        /* \"USElection.sol\":791:812  result.stateSeats > 0 */\n      0xff\n      and\n      gt\n        /* \"USElection.sol\":783:849  require(result.stateSeats > 0, \"States must have at least 1 seat\") */\n      tag_58\n      jumpi\n      mload(0x40)\n      0x08c379a000000000000000000000000000000000000000000000000000000000\n      dup2\n      mstore\n      0x04\n      add\n      tag_59\n      swap1\n      tag_60\n      jump\t// in\n    tag_59:\n      mload(0x40)\n      dup1\n      swap2\n      sub\n      swap1\n      revert\n    tag_58:\n        /* \"USElection.sol\":886:892  result */\n      dup1\n        /* \"USElection.sol\":886:903  result.votesTrump */\n      0x40\n      add\n      calldataload\n        /* \"USElection.sol\":865:871  result */\n      dup2\n        /* \"USElection.sol\":865:882  result.votesBiden */\n      0x20\n      add\n      calldataload\n        /* \"USElection.sol\":865:903  result.votesBiden != result.votesTrump */\n      eq\n      iszero\n        /* \"USElection.sol\":857:929  require(result.votesBiden != result.votesTrump, \"There cannot be a tie\") */\n      tag_61\n      jumpi\n      mload(0x40)\n      0x08c379a000000000000000000000000000000000000000000000000000000000\n      dup2\n      mstore\n      0x04\n      add\n      tag_62\n      swap1\n      tag_63\n      jump\t// in\n    tag_62:\n      mload(0x40)\n      dup1\n      swap2\n      sub\n      swap1\n      revert\n    tag_61:\n        /* \"USElection.sol\":952:968  resultsSubmitted */\n      0x02\n        /* \"USElection.sol\":969:975  result */\n      dup2\n        /* \"USElection.sol\":969:980  result.name */\n      dup1\n      0x00\n      add\n      swap1\n      tag_64\n      swap2\n      swap1\n      tag_65\n      jump\t// in\n    tag_64:\n        /* \"USElection.sol\":952:981  resultsSubmitted[result.name] */\n      mload(0x40)\n      tag_66\n      swap3\n      swap2\n      swap1\n      tag_67\n      jump\t// in\n    tag_66:\n      swap1\n      dup2\n      mstore\n      0x20\n      add\n      mload(0x40)\n      dup1\n      swap2\n      sub\n      swap1\n      keccak256\n      0x00\n      swap1\n      sload\n      swap1\n      0x0100\n      exp\n      swap1\n      div\n      0xff\n      and\n        /* \"USElection.sol\":951:981  !resultsSubmitted[result.name] */\n      iszero\n        /* \"USElection.sol\":943:1027  require(!resultsSubmitted[result.name], \"Already submitted results for this state!\") */\n      tag_68\n      jumpi\n      mload(0x40)\n      0x08c379a000000000000000000000000000000000000000000000000000000000\n      dup2\n      mstore\n      0x04\n      add\n      tag_69\n      swap1\n      tag_70\n      jump\t// in\n    tag_69:\n      mload(0x40)\n      dup1\n      swap2\n      sub\n      swap1\n      revert\n    tag_68:\n        /* \"USElection.sol\":1035:1047  uint8 winner */\n      0x00\n        /* \"USElection.sol\":1078:1084  result */\n      dup2\n        /* \"USElection.sol\":1078:1095  result.votesTrump */\n      0x40\n      add\n      calldataload\n        /* \"USElection.sol\":1058:1064  result */\n      dup3\n        /* \"USElection.sol\":1058:1075  result.votesBiden */\n      0x20\n      add\n      calldataload\n        /* \"USElection.sol\":1058:1095  result.votesBiden > result.votesTrump */\n      gt\n        /* \"USElection.sol\":1055:1173  if(result.votesBiden > result.votesTrump) {... */\n      iszero\n      tag_71\n      jumpi\n        /* \"USElection.sol\":140:141  1 */\n      0x01\n        /* \"USElection.sol\":1109:1123  winner = BIDEN */\n      swap1\n      pop\n        /* \"USElection.sol\":1055:1173  if(result.votesBiden > result.votesTrump) {... */\n      jump(tag_72)\n    tag_71:\n        /* \"USElection.sol\":177:178  2 */\n      0x02\n        /* \"USElection.sol\":1150:1164  winner = TRUMP */\n      swap1\n      pop\n        /* \"USElection.sol\":1055:1173  if(result.votesBiden > result.votesTrump) {... */\n    tag_72:\n        /* \"USElection.sol\":1204:1210  result */\n      dup2\n        /* \"USElection.sol\":1204:1221  result.stateSeats */\n      0x60\n      add\n      0x20\n      dup2\n      add\n      swap1\n      tag_73\n      swap2\n      swap1\n      tag_29\n      jump\t// in\n    tag_73:\n        /* \"USElection.sol\":1187:1192  seats */\n      0x01\n        /* \"USElection.sol\":1187:1200  seats[winner] */\n      0x00\n        /* \"USElection.sol\":1193:1199  winner */\n      dup4\n        /* \"USElection.sol\":1187:1200  seats[winner] */\n      0xff\n      and\n      0xff\n      and\n      dup2\n      mstore\n      0x20\n      add\n      swap1\n      dup2\n      mstore\n      0x20\n      add\n      0x00\n      keccak256\n      0x00\n        /* \"USElection.sol\":1187:1221  seats[winner] += result.stateSeats */\n      dup3\n      dup3\n      dup3\n      swap1\n      sload\n      swap1\n      0x0100\n      exp\n      swap1\n      div\n      0xff\n      and\n      tag_74\n      swap2\n      swap1\n      tag_75\n      jump\t// in\n    tag_74:\n      swap3\n      pop\n      0x0100\n      exp\n      dup2\n      sload\n      dup2\n      0xff\n      mul\n      not\n      and\n      swap1\n      dup4\n      0xff\n      and\n      mul\n      or\n      swap1\n      sstore\n      pop\n        /* \"USElection.sol\":1241:1295  LogStateResult(winner, result.stateSeats, result.name) */\n      0xa2e71fe38f1afa3762cf9d2ea7bb6a4d272a90fd6f9392f3acedd3b542046b46\n        /* \"USElection.sol\":1256:1262  winner */\n      dup2\n        /* \"USElection.sol\":1264:1270  result */\n      dup4\n        /* \"USElection.sol\":1264:1281  result.stateSeats */\n      0x60\n      add\n      0x20\n      dup2\n      add\n      swap1\n      tag_76\n      swap2\n      swap1\n      tag_29\n      jump\t// in\n    tag_76:\n        /* \"USElection.sol\":1283:1289  result */\n      dup5\n        /* \"USElection.sol\":1283:1294  result.name */\n      dup1\n      0x00\n      add\n      swap1\n      tag_77\n      swap2\n      swap1\n      tag_65\n      jump\t// in\n    tag_77:\n        /* \"USElection.sol\":1241:1295  LogStateResult(winner, result.stateSeats, result.name) */\n      mload(0x40)\n      tag_78\n      swap5\n      swap4\n      swap3\n      swap2\n      swap1\n      tag_79\n      jump\t// in\n    tag_78:\n      mload(0x40)\n      dup1\n      swap2\n      sub\n      swap1\n      log1\n        /* \"USElection.sol\":775:1299  {... */\n      pop\n        /* \"USElection.sol\":693:1299  function submitStateResult(StateResult calldata result) public onlyActiveElection {... */\n      pop\n      jump\t// out\n        /* \"#utility.yul\":7:419   */\n    tag_81:\n        /* \"#utility.yul\":85:90   */\n      0x00\n        /* \"#utility.yul\":110:176   */\n      tag_83\n        /* \"#utility.yul\":126:175   */\n      tag_84\n        /* \"#utility.yul\":168:174   */\n      dup5\n        /* \"#utility.yul\":126:175   */\n      tag_85\n      jump\t// in\n    tag_84:\n        /* \"#utility.yul\":110:176   */\n      tag_86\n      jump\t// in\n    tag_83:\n        /* \"#utility.yul\":101:176   */\n      swap1\n      pop\n        /* \"#utility.yul\":199:205   */\n      dup3\n        /* \"#utility.yul\":192:197   */\n      dup2\n        /* \"#utility.yul\":185:206   */\n      mstore\n        /* \"#utility.yul\":237:241   */\n      0x20\n        /* \"#utility.yul\":230:235   */\n      dup2\n        /* \"#utility.yul\":226:242   */\n      add\n        /* \"#utility.yul\":275:278   */\n      dup5\n        /* \"#utility.yul\":266:272   */\n      dup5\n        /* \"#utility.yul\":261:264   */\n      dup5\n        /* \"#utility.yul\":257:273   */\n      add\n        /* \"#utility.yul\":254:279   */\n      gt\n        /* \"#utility.yul\":251:363   */\n      iszero\n      tag_87\n      jumpi\n        /* \"#utility.yul\":282:361   */\n      tag_88\n      tag_89\n      jump\t// in\n    tag_88:\n        /* \"#utility.yul\":251:363   */\n    tag_87:\n        /* \"#utility.yul\":372:413   */\n      tag_90\n        /* \"#utility.yul\":406:412   */\n      dup5\n        /* \"#utility.yul\":401:404   */\n      dup3\n        /* \"#utility.yul\":396:399   */\n      dup6\n        /* \"#utility.yul\":372:413   */\n      tag_91\n      jump\t// in\n    tag_90:\n        /* \"#utility.yul\":91:419   */\n      pop\n        /* \"#utility.yul\":7:419   */\n      swap4\n      swap3\n      pop\n      pop\n      pop\n      jump\t// out\n        /* \"#utility.yul\":439:779   */\n    tag_92:\n        /* \"#utility.yul\":495:500   */\n      0x00\n        /* \"#utility.yul\":544:547   */\n      dup3\n        /* \"#utility.yul\":537:541   */\n      0x1f\n        /* \"#utility.yul\":529:535   */\n      dup4\n        /* \"#utility.yul\":525:542   */\n      add\n        /* \"#utility.yul\":521:548   */\n      slt\n        /* \"#utility.yul\":511:633   */\n      tag_94\n      jumpi\n        /* \"#utility.yul\":552:631   */\n      tag_95\n      tag_96\n      jump\t// in\n    tag_95:\n        /* \"#utility.yul\":511:633   */\n    tag_94:\n        /* \"#utility.yul\":669:675   */\n      dup2\n        /* \"#utility.yul\":656:676   */\n      calldataload\n        /* \"#utility.yul\":694:773   */\n      tag_97\n        /* \"#utility.yul\":769:772   */\n      dup5\n        /* \"#utility.yul\":761:767   */\n      dup3\n        /* \"#utility.yul\":754:758   */\n      0x20\n        /* \"#utility.yul\":746:752   */\n      dup7\n        /* \"#utility.yul\":742:759   */\n      add\n        /* \"#utility.yul\":694:773   */\n      tag_81\n      jump\t// in\n    tag_97:\n        /* \"#utility.yul\":685:773   */\n      swap2\n      pop\n        /* \"#utility.yul\":501:779   */\n      pop\n        /* \"#utility.yul\":439:779   */\n      swap3\n      swap2\n      pop\n      pop\n      jump\t// out\n        /* \"#utility.yul\":822:1056   */\n    tag_98:\n        /* \"#utility.yul\":897:902   */\n      0x00\n        /* \"#utility.yul\":938:941   */\n      0x80\n        /* \"#utility.yul\":929:935   */\n      dup3\n        /* \"#utility.yul\":924:927   */\n      dup5\n        /* \"#utility.yul\":920:936   */\n      sub\n        /* \"#utility.yul\":916:942   */\n      slt\n        /* \"#utility.yul\":913:1026   */\n      iszero\n      tag_100\n      jumpi\n        /* \"#utility.yul\":945:1024   */\n      tag_101\n      tag_102\n      jump\t// in\n    tag_101:\n        /* \"#utility.yul\":913:1026   */\n    tag_100:\n        /* \"#utility.yul\":1044:1050   */\n      dup2\n        /* \"#utility.yul\":1035:1050   */\n      swap1\n      pop\n        /* \"#utility.yul\":822:1056   */\n      swap3\n      swap2\n      pop\n      pop\n      jump\t// out\n        /* \"#utility.yul\":1062:1197   */\n    tag_103:\n        /* \"#utility.yul\":1106:1111   */\n      0x00\n        /* \"#utility.yul\":1144:1150   */\n      dup2\n        /* \"#utility.yul\":1131:1151   */\n      calldataload\n        /* \"#utility.yul\":1122:1151   */\n      swap1\n      pop\n        /* \"#utility.yul\":1160:1191   */\n      tag_105\n        /* \"#utility.yul\":1185:1190   */\n      dup2\n        /* \"#utility.yul\":1160:1191   */\n      tag_106\n      jump\t// in\n    tag_105:\n        /* \"#utility.yul\":1062:1197   */\n      swap3\n      swap2\n      pop\n      pop\n      jump\t// out\n        /* \"#utility.yul\":1203:1712   */\n    tag_18:\n        /* \"#utility.yul\":1272:1278   */\n      0x00\n        /* \"#utility.yul\":1321:1323   */\n      0x20\n        /* \"#utility.yul\":1309:1318   */\n      dup3\n        /* \"#utility.yul\":1300:1307   */\n      dup5\n        /* \"#utility.yul\":1296:1319   */\n      sub\n        /* \"#utility.yul\":1292:1324   */\n      slt\n        /* \"#utility.yul\":1289:1408   */\n      iszero\n      tag_108\n      jumpi\n        /* \"#utility.yul\":1327:1406   */\n      tag_109\n      tag_110\n      jump\t// in\n    tag_109:\n        /* \"#utility.yul\":1289:1408   */\n    tag_108:\n        /* \"#utility.yul\":1475:1476   */\n      0x00\n        /* \"#utility.yul\":1464:1473   */\n      dup3\n        /* \"#utility.yul\":1460:1477   */\n      add\n        /* \"#utility.yul\":1447:1478   */\n      calldataload\n        /* \"#utility.yul\":1505:1523   */\n      0xffffffffffffffff\n        /* \"#utility.yul\":1497:1503   */\n      dup2\n        /* \"#utility.yul\":1494:1524   */\n      gt\n        /* \"#utility.yul\":1491:1608   */\n      iszero\n      tag_111\n      jumpi\n        /* \"#utility.yul\":1527:1606   */\n      tag_112\n      tag_113\n      jump\t// in\n    tag_112:\n        /* \"#utility.yul\":1491:1608   */\n    tag_111:\n        /* \"#utility.yul\":1632:1695   */\n      tag_114\n        /* \"#utility.yul\":1687:1694   */\n      dup5\n        /* \"#utility.yul\":1678:1684   */\n      dup3\n        /* \"#utility.yul\":1667:1676   */\n      dup6\n        /* \"#utility.yul\":1663:1685   */\n      add\n        /* \"#utility.yul\":1632:1695   */\n      tag_92\n      jump\t// in\n    tag_114:\n        /* \"#utility.yul\":1622:1695   */\n      swap2\n      pop\n        /* \"#utility.yul\":1418:1705   */\n      pop\n        /* \"#utility.yul\":1203:1712   */\n      swap3\n      swap2\n      pop\n      pop\n      jump\t// out\n        /* \"#utility.yul\":1718:2265   */\n    tag_40:\n        /* \"#utility.yul\":1806:1812   */\n      0x00\n        /* \"#utility.yul\":1855:1857   */\n      0x20\n        /* \"#utility.yul\":1843:1852   */\n      dup3\n        /* \"#utility.yul\":1834:1841   */\n      dup5\n        /* \"#utility.yul\":1830:1853   */\n      sub\n        /* \"#utility.yul\":1826:1858   */\n      slt\n        /* \"#utility.yul\":1823:1942   */\n      iszero\n      tag_116\n      jumpi\n        /* \"#utility.yul\":1861:1940   */\n      tag_117\n      tag_110\n      jump\t// in\n    tag_117:\n        /* \"#utility.yul\":1823:1942   */\n    tag_116:\n        /* \"#utility.yul\":2009:2010   */\n      0x00\n        /* \"#utility.yul\":1998:2007   */\n      dup3\n        /* \"#utility.yul\":1994:2011   */\n      add\n        /* \"#utility.yul\":1981:2012   */\n      calldataload\n        /* \"#utility.yul\":2039:2057   */\n      0xffffffffffffffff\n        /* \"#utility.yul\":2031:2037   */\n      dup2\n        /* \"#utility.yul\":2028:2058   */\n      gt\n        /* \"#utility.yul\":2025:2142   */\n      iszero\n      tag_118\n      jumpi\n        /* \"#utility.yul\":2061:2140   */\n      tag_119\n      tag_113\n      jump\t// in\n    tag_119:\n        /* \"#utility.yul\":2025:2142   */\n    tag_118:\n        /* \"#utility.yul\":2166:2248   */\n      tag_120\n        /* \"#utility.yul\":2240:2247   */\n      dup5\n        /* \"#utility.yul\":2231:2237   */\n      dup3\n        /* \"#utility.yul\":2220:2229   */\n      dup6\n        /* \"#utility.yul\":2216:2238   */\n      add\n        /* \"#utility.yul\":2166:2248   */\n      tag_98\n      jump\t// in\n    tag_120:\n        /* \"#utility.yul\":2156:2248   */\n      swap2\n      pop\n        /* \"#utility.yul\":1952:2258   */\n      pop\n        /* \"#utility.yul\":1718:2265   */\n      swap3\n      swap2\n      pop\n      pop\n      jump\t// out\n        /* \"#utility.yul\":2271:2596   */\n    tag_29:\n        /* \"#utility.yul\":2328:2334   */\n      0x00\n        /* \"#utility.yul\":2377:2379   */\n      0x20\n        /* \"#utility.yul\":2365:2374   */\n      dup3\n        /* \"#utility.yul\":2356:2363   */\n      dup5\n        /* \"#utility.yul\":2352:2375   */\n      sub\n        /* \"#utility.yul\":2348:2380   */\n      slt\n        /* \"#utility.yul\":2345:2464   */\n      iszero\n      tag_122\n      jumpi\n        /* \"#utility.yul\":2383:2462   */\n      tag_123\n      tag_110\n      jump\t// in\n    tag_123:\n        /* \"#utility.yul\":2345:2464   */\n    tag_122:\n        /* \"#utility.yul\":2503:2504   */\n      0x00\n        /* \"#utility.yul\":2528:2579   */\n      tag_124\n        /* \"#utility.yul\":2571:2578   */\n      dup5\n        /* \"#utility.yul\":2562:2568   */\n      dup3\n        /* \"#utility.yul\":2551:2560   */\n      dup6\n        /* \"#utility.yul\":2547:2569   */\n      add\n        /* \"#utility.yul\":2528:2579   */\n      tag_103\n      jump\t// in\n    tag_124:\n        /* \"#utility.yul\":2518:2579   */\n      swap2\n      pop\n        /* \"#utility.yul\":2474:2589   */\n      pop\n        /* \"#utility.yul\":2271:2596   */\n      swap3\n      swap2\n      pop\n      pop\n      jump\t// out\n        /* \"#utility.yul\":2602:2711   */\n    tag_125:\n        /* \"#utility.yul\":2683:2704   */\n      tag_127\n        /* \"#utility.yul\":2698:2703   */\n      dup2\n        /* \"#utility.yul\":2683:2704   */\n      tag_128\n      jump\t// in\n    tag_127:\n        /* \"#utility.yul\":2678:2681   */\n      dup3\n        /* \"#utility.yul\":2671:2705   */\n      mstore\n        /* \"#utility.yul\":2602:2711   */\n      pop\n      pop\n      jump\t// out\n        /* \"#utility.yul\":2741:3045   */\n    tag_129:\n        /* \"#utility.yul\":2839:2842   */\n      0x00\n        /* \"#utility.yul\":2860:2931   */\n      tag_131\n        /* \"#utility.yul\":2924:2930   */\n      dup4\n        /* \"#utility.yul\":2919:2922   */\n      dup6\n        /* \"#utility.yul\":2860:2931   */\n      tag_132\n      jump\t// in\n    tag_131:\n        /* \"#utility.yul\":2853:2931   */\n      swap4\n      pop\n        /* \"#utility.yul\":2941:2984   */\n      tag_133\n        /* \"#utility.yul\":2977:2983   */\n      dup4\n        /* \"#utility.yul\":2972:2975   */\n      dup6\n        /* \"#utility.yul\":2965:2970   */\n      dup5\n        /* \"#utility.yul\":2941:2984   */\n      tag_91\n      jump\t// in\n    tag_133:\n        /* \"#utility.yul\":3009:3038   */\n      tag_134\n        /* \"#utility.yul\":3031:3037   */\n      dup4\n        /* \"#utility.yul\":3009:3038   */\n      tag_135\n      jump\t// in\n    tag_134:\n        /* \"#utility.yul\":3004:3007   */\n      dup5\n        /* \"#utility.yul\":3000:3039   */\n      add\n        /* \"#utility.yul\":2993:3039   */\n      swap1\n      pop\n        /* \"#utility.yul\":2741:3045   */\n      swap4\n      swap3\n      pop\n      pop\n      pop\n      jump\t// out\n        /* \"#utility.yul\":3075:3392   */\n    tag_136:\n        /* \"#utility.yul\":3191:3194   */\n      0x00\n        /* \"#utility.yul\":3212:3301   */\n      tag_138\n        /* \"#utility.yul\":3294:3300   */\n      dup4\n        /* \"#utility.yul\":3289:3292   */\n      dup6\n        /* \"#utility.yul\":3212:3301   */\n      tag_139\n      jump\t// in\n    tag_138:\n        /* \"#utility.yul\":3205:3301   */\n      swap4\n      pop\n        /* \"#utility.yul\":3311:3354   */\n      tag_140\n        /* \"#utility.yul\":3347:3353   */\n      dup4\n        /* \"#utility.yul\":3342:3345   */\n      dup6\n        /* \"#utility.yul\":3335:3340   */\n      dup5\n        /* \"#utility.yul\":3311:3354   */\n      tag_91\n      jump\t// in\n    tag_140:\n        /* \"#utility.yul\":3379:3385   */\n      dup3\n        /* \"#utility.yul\":3374:3377   */\n      dup5\n        /* \"#utility.yul\":3370:3386   */\n      add\n        /* \"#utility.yul\":3363:3386   */\n      swap1\n      pop\n        /* \"#utility.yul\":3075:3392   */\n      swap4\n      swap3\n      pop\n      pop\n      pop\n      jump\t// out\n        /* \"#utility.yul\":3398:3764   */\n    tag_141:\n        /* \"#utility.yul\":3540:3543   */\n      0x00\n        /* \"#utility.yul\":3561:3628   */\n      tag_143\n        /* \"#utility.yul\":3625:3627   */\n      0x1e\n        /* \"#utility.yul\":3620:3623   */\n      dup4\n        /* \"#utility.yul\":3561:3628   */\n      tag_132\n      jump\t// in\n    tag_143:\n        /* \"#utility.yul\":3554:3628   */\n      swap2\n      pop\n        /* \"#utility.yul\":3637:3730   */\n      tag_144\n        /* \"#utility.yul\":3726:3729   */\n      dup3\n        /* \"#utility.yul\":3637:3730   */\n      tag_145\n      jump\t// in\n    tag_144:\n        /* \"#utility.yul\":3755:3757   */\n      0x20\n        /* \"#utility.yul\":3750:3753   */\n      dup3\n        /* \"#utility.yul\":3746:3758   */\n      add\n        /* \"#utility.yul\":3739:3758   */\n      swap1\n      pop\n        /* \"#utility.yul\":3398:3764   */\n      swap2\n      swap1\n      pop\n      jump\t// out\n        /* \"#utility.yul\":3770:4136   */\n    tag_146:\n        /* \"#utility.yul\":3912:3915   */\n      0x00\n        /* \"#utility.yul\":3933:4000   */\n      tag_148\n        /* \"#utility.yul\":3997:3999   */\n      0x29\n        /* \"#utility.yul\":3992:3995   */\n      dup4\n        /* \"#utility.yul\":3933:4000   */\n      tag_132\n      jump\t// in\n    tag_148:\n        /* \"#utility.yul\":3926:4000   */\n      swap2\n      pop\n        /* \"#utility.yul\":4009:4102   */\n      tag_149\n        /* \"#utility.yul\":4098:4101   */\n      dup3\n        /* \"#utility.yul\":4009:4102   */\n      tag_150\n      jump\t// in\n    tag_149:\n        /* \"#utility.yul\":4127:4129   */\n      0x40\n        /* \"#utility.yul\":4122:4125   */\n      dup3\n        /* \"#utility.yul\":4118:4130   */\n      add\n        /* \"#utility.yul\":4111:4130   */\n      swap1\n      pop\n        /* \"#utility.yul\":3770:4136   */\n      swap2\n      swap1\n      pop\n      jump\t// out\n        /* \"#utility.yul\":4142:4508   */\n    tag_151:\n        /* \"#utility.yul\":4284:4287   */\n      0x00\n        /* \"#utility.yul\":4305:4372   */\n      tag_153\n        /* \"#utility.yul\":4369:4371   */\n      0x15\n        /* \"#utility.yul\":4364:4367   */\n      dup4\n        /* \"#utility.yul\":4305:4372   */\n      tag_132\n      jump\t// in\n    tag_153:\n        /* \"#utility.yul\":4298:4372   */\n      swap2\n      pop\n        /* \"#utility.yul\":4381:4474   */\n      tag_154\n        /* \"#utility.yul\":4470:4473   */\n      dup3\n        /* \"#utility.yul\":4381:4474   */\n      tag_155\n      jump\t// in\n    tag_154:\n        /* \"#utility.yul\":4499:4501   */\n      0x20\n        /* \"#utility.yul\":4494:4497   */\n      dup3\n        /* \"#utility.yul\":4490:4502   */\n      add\n        /* \"#utility.yul\":4483:4502   */\n      swap1\n      pop\n        /* \"#utility.yul\":4142:4508   */\n      swap2\n      swap1\n      pop\n      jump\t// out\n        /* \"#utility.yul\":4514:4880   */\n    tag_156:\n        /* \"#utility.yul\":4656:4659   */\n      0x00\n        /* \"#utility.yul\":4677:4744   */\n      tag_158\n        /* \"#utility.yul\":4741:4743   */\n      0x20\n        /* \"#utility.yul\":4736:4739   */\n      dup4\n        /* \"#utility.yul\":4677:4744   */\n      tag_132\n      jump\t// in\n    tag_158:\n        /* \"#utility.yul\":4670:4744   */\n      swap2\n      pop\n        /* \"#utility.yul\":4753:4846   */\n      tag_159\n        /* \"#utility.yul\":4842:4845   */\n      dup3\n        /* \"#utility.yul\":4753:4846   */\n      tag_160\n      jump\t// in\n    tag_159:\n        /* \"#utility.yul\":4871:4873   */\n      0x20\n        /* \"#utility.yul\":4866:4869   */\n      dup3\n        /* \"#utility.yul\":4862:4874   */\n      add\n        /* \"#utility.yul\":4855:4874   */\n      swap1\n      pop\n        /* \"#utility.yul\":4514:4880   */\n      swap2\n      swap1\n      pop\n      jump\t// out\n        /* \"#utility.yul\":4886:5013   */\n    tag_161:\n        /* \"#utility.yul\":4971:5006   */\n      tag_163\n        /* \"#utility.yul\":5000:5005   */\n      dup2\n        /* \"#utility.yul\":4971:5006   */\n      tag_164\n      jump\t// in\n    tag_163:\n        /* \"#utility.yul\":4966:4969   */\n      dup3\n        /* \"#utility.yul\":4959:5007   */\n      mstore\n        /* \"#utility.yul\":4886:5013   */\n      pop\n      pop\n      jump\t// out\n        /* \"#utility.yul\":5019:5131   */\n    tag_165:\n        /* \"#utility.yul\":5102:5124   */\n      tag_167\n        /* \"#utility.yul\":5118:5123   */\n      dup2\n        /* \"#utility.yul\":5102:5124   */\n      tag_168\n      jump\t// in\n    tag_167:\n        /* \"#utility.yul\":5097:5100   */\n      dup3\n        /* \"#utility.yul\":5090:5125   */\n      mstore\n        /* \"#utility.yul\":5019:5131   */\n      pop\n      pop\n      jump\t// out\n        /* \"#utility.yul\":5137:5432   */\n    tag_67:\n        /* \"#utility.yul\":5279:5282   */\n      0x00\n        /* \"#utility.yul\":5301:5406   */\n      tag_170\n        /* \"#utility.yul\":5402:5405   */\n      dup3\n        /* \"#utility.yul\":5393:5399   */\n      dup5\n        /* \"#utility.yul\":5385:5391   */\n      dup7\n        /* \"#utility.yul\":5301:5406   */\n      tag_136\n      jump\t// in\n    tag_170:\n        /* \"#utility.yul\":5294:5406   */\n      swap2\n      pop\n        /* \"#utility.yul\":5423:5426   */\n      dup2\n        /* \"#utility.yul\":5416:5426   */\n      swap1\n      pop\n        /* \"#utility.yul\":5137:5432   */\n      swap4\n      swap3\n      pop\n      pop\n      pop\n      jump\t// out\n        /* \"#utility.yul\":5438:5648   */\n    tag_21:\n        /* \"#utility.yul\":5525:5529   */\n      0x00\n        /* \"#utility.yul\":5563:5565   */\n      0x20\n        /* \"#utility.yul\":5552:5561   */\n      dup3\n        /* \"#utility.yul\":5548:5566   */\n      add\n        /* \"#utility.yul\":5540:5566   */\n      swap1\n      pop\n        /* \"#utility.yul\":5576:5641   */\n      tag_172\n        /* \"#utility.yul\":5638:5639   */\n      0x00\n        /* \"#utility.yul\":5627:5636   */\n      dup4\n        /* \"#utility.yul\":5623:5640   */\n      add\n        /* \"#utility.yul\":5614:5620   */\n      dup5\n        /* \"#utility.yul\":5576:5641   */\n      tag_125\n      jump\t// in\n    tag_172:\n        /* \"#utility.yul\":5438:5648   */\n      swap3\n      swap2\n      pop\n      pop\n      jump\t// out\n        /* \"#utility.yul\":5654:6073   */\n    tag_45:\n        /* \"#utility.yul\":5820:5824   */\n      0x00\n        /* \"#utility.yul\":5858:5860   */\n      0x20\n        /* \"#utility.yul\":5847:5856   */\n      dup3\n        /* \"#utility.yul\":5843:5861   */\n      add\n        /* \"#utility.yul\":5835:5861   */\n      swap1\n      pop\n        /* \"#utility.yul\":5907:5916   */\n      dup2\n        /* \"#utility.yul\":5901:5905   */\n      dup2\n        /* \"#utility.yul\":5897:5917   */\n      sub\n        /* \"#utility.yul\":5893:5894   */\n      0x00\n        /* \"#utility.yul\":5882:5891   */\n      dup4\n        /* \"#utility.yul\":5878:5895   */\n      add\n        /* \"#utility.yul\":5871:5918   */\n      mstore\n        /* \"#utility.yul\":5935:6066   */\n      tag_174\n        /* \"#utility.yul\":6061:6065   */\n      dup2\n        /* \"#utility.yul\":5935:6066   */\n      tag_141\n      jump\t// in\n    tag_174:\n        /* \"#utility.yul\":5927:6066   */\n      swap1\n      pop\n        /* \"#utility.yul\":5654:6073   */\n      swap2\n      swap1\n      pop\n      jump\t// out\n        /* \"#utility.yul\":6079:6498   */\n    tag_70:\n        /* \"#utility.yul\":6245:6249   */\n      0x00\n        /* \"#utility.yul\":6283:6285   */\n      0x20\n        /* \"#utility.yul\":6272:6281   */\n      dup3\n        /* \"#utility.yul\":6268:6286   */\n      add\n        /* \"#utility.yul\":6260:6286   */\n      swap1\n      pop\n        /* \"#utility.yul\":6332:6341   */\n      dup2\n        /* \"#utility.yul\":6326:6330   */\n      dup2\n        /* \"#utility.yul\":6322:6342   */\n      sub\n        /* \"#utility.yul\":6318:6319   */\n      0x00\n        /* \"#utility.yul\":6307:6316   */\n      dup4\n        /* \"#utility.yul\":6303:6320   */\n      add\n        /* \"#utility.yul\":6296:6343   */\n      mstore\n        /* \"#utility.yul\":6360:6491   */\n      tag_176\n        /* \"#utility.yul\":6486:6490   */\n      dup2\n        /* \"#utility.yul\":6360:6491   */\n      tag_146\n      jump\t// in\n    tag_176:\n        /* \"#utility.yul\":6352:6491   */\n      swap1\n      pop\n        /* \"#utility.yul\":6079:6498   */\n      swap2\n      swap1\n      pop\n      jump\t// out\n        /* \"#utility.yul\":6504:6923   */\n    tag_63:\n        /* \"#utility.yul\":6670:6674   */\n      0x00\n        /* \"#utility.yul\":6708:6710   */\n      0x20\n        /* \"#utility.yul\":6697:6706   */\n      dup3\n        /* \"#utility.yul\":6693:6711   */\n      add\n        /* \"#utility.yul\":6685:6711   */\n      swap1\n      pop\n        /* \"#utility.yul\":6757:6766   */\n      dup2\n        /* \"#utility.yul\":6751:6755   */\n      dup2\n        /* \"#utility.yul\":6747:6767   */\n      sub\n        /* \"#utility.yul\":6743:6744   */\n      0x00\n        /* \"#utility.yul\":6732:6741   */\n      dup4\n        /* \"#utility.yul\":6728:6745   */\n      add\n        /* \"#utility.yul\":6721:6768   */\n      mstore\n        /* \"#utility.yul\":6785:6916   */\n      tag_178\n        /* \"#utility.yul\":6911:6915   */\n      dup2\n        /* \"#utility.yul\":6785:6916   */\n      tag_151\n      jump\t// in\n    tag_178:\n        /* \"#utility.yul\":6777:6916   */\n      swap1\n      pop\n        /* \"#utility.yul\":6504:6923   */\n      swap2\n      swap1\n      pop\n      jump\t// out\n        /* \"#utility.yul\":6929:7348   */\n    tag_60:\n        /* \"#utility.yul\":7095:7099   */\n      0x00\n        /* \"#utility.yul\":7133:7135   */\n      0x20\n        /* \"#utility.yul\":7122:7131   */\n      dup3\n        /* \"#utility.yul\":7118:7136   */\n      add\n        /* \"#utility.yul\":7110:7136   */\n      swap1\n      pop\n        /* \"#utility.yul\":7182:7191   */\n      dup2\n        /* \"#utility.yul\":7176:7180   */\n      dup2\n        /* \"#utility.yul\":7172:7192   */\n      sub\n        /* \"#utility.yul\":7168:7169   */\n      0x00\n        /* \"#utility.yul\":7157:7166   */\n      dup4\n        /* \"#utility.yul\":7153:7170   */\n      add\n        /* \"#utility.yul\":7146:7193   */\n      mstore\n        /* \"#utility.yul\":7210:7341   */\n      tag_180\n        /* \"#utility.yul\":7336:7340   */\n      dup2\n        /* \"#utility.yul\":7210:7341   */\n      tag_156\n      jump\t// in\n    tag_180:\n        /* \"#utility.yul\":7202:7341   */\n      swap1\n      pop\n        /* \"#utility.yul\":6929:7348   */\n      swap2\n      swap1\n      pop\n      jump\t// out\n        /* \"#utility.yul\":7354:7572   */\n    tag_49:\n        /* \"#utility.yul\":7445:7449   */\n      0x00\n        /* \"#utility.yul\":7483:7485   */\n      0x20\n        /* \"#utility.yul\":7472:7481   */\n      dup3\n        /* \"#utility.yul\":7468:7486   */\n      add\n        /* \"#utility.yul\":7460:7486   */\n      swap1\n      pop\n        /* \"#utility.yul\":7496:7565   */\n      tag_182\n        /* \"#utility.yul\":7562:7563   */\n      0x00\n        /* \"#utility.yul\":7551:7560   */\n      dup4\n        /* \"#utility.yul\":7547:7564   */\n      add\n        /* \"#utility.yul\":7538:7544   */\n      dup5\n        /* \"#utility.yul\":7496:7565   */\n      tag_161\n      jump\t// in\n    tag_182:\n        /* \"#utility.yul\":7354:7572   */\n      swap3\n      swap2\n      pop\n      pop\n      jump\t// out\n        /* \"#utility.yul\":7578:7792   */\n    tag_15:\n        /* \"#utility.yul\":7667:7671   */\n      0x00\n        /* \"#utility.yul\":7705:7707   */\n      0x20\n        /* \"#utility.yul\":7694:7703   */\n      dup3\n        /* \"#utility.yul\":7690:7708   */\n      add\n        /* \"#utility.yul\":7682:7708   */\n      swap1\n      pop\n        /* \"#utility.yul\":7718:7785   */\n      tag_184\n        /* \"#utility.yul\":7782:7783   */\n      0x00\n        /* \"#utility.yul\":7771:7780   */\n      dup4\n        /* \"#utility.yul\":7767:7784   */\n      add\n        /* \"#utility.yul\":7758:7764   */\n      dup5\n        /* \"#utility.yul\":7718:7785   */\n      tag_165\n      jump\t// in\n    tag_184:\n        /* \"#utility.yul\":7578:7792   */\n      swap3\n      swap2\n      pop\n      pop\n      jump\t// out\n        /* \"#utility.yul\":7798:8335   */\n    tag_79:\n        /* \"#utility.yul\":7969:7973   */\n      0x00\n        /* \"#utility.yul\":8007:8009   */\n      0x60\n        /* \"#utility.yul\":7996:8005   */\n      dup3\n        /* \"#utility.yul\":7992:8010   */\n      add\n        /* \"#utility.yul\":7984:8010   */\n      swap1\n      pop\n        /* \"#utility.yul\":8020:8087   */\n      tag_186\n        /* \"#utility.yul\":8084:8085   */\n      0x00\n        /* \"#utility.yul\":8073:8082   */\n      dup4\n        /* \"#utility.yul\":8069:8086   */\n      add\n        /* \"#utility.yul\":8060:8066   */\n      dup8\n        /* \"#utility.yul\":8020:8087   */\n      tag_165\n      jump\t// in\n    tag_186:\n        /* \"#utility.yul\":8097:8165   */\n      tag_187\n        /* \"#utility.yul\":8161:8163   */\n      0x20\n        /* \"#utility.yul\":8150:8159   */\n      dup4\n        /* \"#utility.yul\":8146:8164   */\n      add\n        /* \"#utility.yul\":8137:8143   */\n      dup7\n        /* \"#utility.yul\":8097:8165   */\n      tag_165\n      jump\t// in\n    tag_187:\n        /* \"#utility.yul\":8212:8221   */\n      dup2\n        /* \"#utility.yul\":8206:8210   */\n      dup2\n        /* \"#utility.yul\":8202:8222   */\n      sub\n        /* \"#utility.yul\":8197:8199   */\n      0x40\n        /* \"#utility.yul\":8186:8195   */\n      dup4\n        /* \"#utility.yul\":8182:8200   */\n      add\n        /* \"#utility.yul\":8175:8223   */\n      mstore\n        /* \"#utility.yul\":8240:8328   */\n      tag_188\n        /* \"#utility.yul\":8323:8327   */\n      dup2\n        /* \"#utility.yul\":8314:8320   */\n      dup5\n        /* \"#utility.yul\":8306:8312   */\n      dup7\n        /* \"#utility.yul\":8240:8328   */\n      tag_129\n      jump\t// in\n    tag_188:\n        /* \"#utility.yul\":8232:8328   */\n      swap1\n      pop\n        /* \"#utility.yul\":7798:8335   */\n      swap6\n      swap5\n      pop\n      pop\n      pop\n      pop\n      pop\n      jump\t// out\n        /* \"#utility.yul\":8341:9066   */\n    tag_65:\n        /* \"#utility.yul\":8419:8423   */\n      0x00\n        /* \"#utility.yul\":8425:8431   */\n      dup1\n        /* \"#utility.yul\":8481:8492   */\n      dup4\n        /* \"#utility.yul\":8468:8493   */\n      calldataload\n        /* \"#utility.yul\":8581:8582   */\n      0x01\n        /* \"#utility.yul\":8575:8579   */\n      0x20\n        /* \"#utility.yul\":8571:8583   */\n      sub\n        /* \"#utility.yul\":8560:8568   */\n      dup5\n        /* \"#utility.yul\":8544:8558   */\n      calldatasize\n        /* \"#utility.yul\":8540:8569   */\n      sub\n        /* \"#utility.yul\":8536:8584   */\n      sub\n        /* \"#utility.yul\":8516:8534   */\n      dup2\n        /* \"#utility.yul\":8512:8585   */\n      slt\n        /* \"#utility.yul\":8502:8670   */\n      tag_190\n      jumpi\n        /* \"#utility.yul\":8589:8668   */\n      tag_191\n      tag_192\n      jump\t// in\n    tag_191:\n        /* \"#utility.yul\":8502:8670   */\n    tag_190:\n        /* \"#utility.yul\":8701:8719   */\n      dup1\n        /* \"#utility.yul\":8691:8699   */\n      dup5\n        /* \"#utility.yul\":8687:8720   */\n      add\n        /* \"#utility.yul\":8679:8720   */\n      swap3\n      pop\n        /* \"#utility.yul\":8753:8757   */\n      dup3\n        /* \"#utility.yul\":8740:8758   */\n      calldataload\n        /* \"#utility.yul\":8730:8758   */\n      swap2\n      pop\n        /* \"#utility.yul\":8781:8799   */\n      0xffffffffffffffff\n        /* \"#utility.yul\":8773:8779   */\n      dup3\n        /* \"#utility.yul\":8770:8800   */\n      gt\n        /* \"#utility.yul\":8767:8884   */\n      iszero\n      tag_193\n      jumpi\n        /* \"#utility.yul\":8803:8882   */\n      tag_194\n      tag_195\n      jump\t// in\n    tag_194:\n        /* \"#utility.yul\":8767:8884   */\n    tag_193:\n        /* \"#utility.yul\":8911:8913   */\n      0x20\n        /* \"#utility.yul\":8905:8909   */\n      dup4\n        /* \"#utility.yul\":8901:8914   */\n      add\n        /* \"#utility.yul\":8893:8914   */\n      swap3\n      pop\n        /* \"#utility.yul\":8968:8972   */\n      0x01\n        /* \"#utility.yul\":8960:8966   */\n      dup3\n        /* \"#utility.yul\":8956:8973   */\n      mul\n        /* \"#utility.yul\":8940:8954   */\n      calldatasize\n        /* \"#utility.yul\":8936:8974   */\n      sub\n        /* \"#utility.yul\":8930:8934   */\n      dup4\n        /* \"#utility.yul\":8926:8975   */\n      sgt\n        /* \"#utility.yul\":8923:9059   */\n      iszero\n      tag_196\n      jumpi\n        /* \"#utility.yul\":8978:9057   */\n      tag_197\n      tag_198\n      jump\t// in\n    tag_197:\n        /* \"#utility.yul\":8923:9059   */\n    tag_196:\n        /* \"#utility.yul\":8432:9066   */\n      pop\n        /* \"#utility.yul\":8341:9066   */\n      swap3\n      pop\n      swap3\n      swap1\n      pop\n      jump\t// out\n        /* \"#utility.yul\":9072:9201   */\n    tag_86:\n        /* \"#utility.yul\":9106:9112   */\n      0x00\n        /* \"#utility.yul\":9133:9153   */\n      tag_200\n      tag_201\n      jump\t// in\n    tag_200:\n        /* \"#utility.yul\":9123:9153   */\n      swap1\n      pop\n        /* \"#utility.yul\":9162:9195   */\n      tag_202\n        /* \"#utility.yul\":9190:9194   */\n      dup3\n        /* \"#utility.yul\":9182:9188   */\n      dup3\n        /* \"#utility.yul\":9162:9195   */\n      tag_203\n      jump\t// in\n    tag_202:\n        /* \"#utility.yul\":9072:9201   */\n      swap2\n      swap1\n      pop\n      jump\t// out\n        /* \"#utility.yul\":9207:9282   */\n    tag_201:\n        /* \"#utility.yul\":9240:9246   */\n      0x00\n        /* \"#utility.yul\":9273:9275   */\n      0x40\n        /* \"#utility.yul\":9267:9276   */\n      mload\n        /* \"#utility.yul\":9257:9276   */\n      swap1\n      pop\n        /* \"#utility.yul\":9207:9282   */\n      swap1\n      jump\t// out\n        /* \"#utility.yul\":9288:9596   */\n    tag_85:\n        /* \"#utility.yul\":9350:9354   */\n      0x00\n        /* \"#utility.yul\":9440:9458   */\n      0xffffffffffffffff\n        /* \"#utility.yul\":9432:9438   */\n      dup3\n        /* \"#utility.yul\":9429:9459   */\n      gt\n        /* \"#utility.yul\":9426:9482   */\n      iszero\n      tag_206\n      jumpi\n        /* \"#utility.yul\":9462:9480   */\n      tag_207\n      tag_208\n      jump\t// in\n    tag_207:\n        /* \"#utility.yul\":9426:9482   */\n    tag_206:\n        /* \"#utility.yul\":9500:9529   */\n      tag_209\n        /* \"#utility.yul\":9522:9528   */\n      dup3\n        /* \"#utility.yul\":9500:9529   */\n      tag_135\n      jump\t// in\n    tag_209:\n        /* \"#utility.yul\":9492:9529   */\n      swap1\n      pop\n        /* \"#utility.yul\":9584:9588   */\n      0x20\n        /* \"#utility.yul\":9578:9582   */\n      dup2\n        /* \"#utility.yul\":9574:9589   */\n      add\n        /* \"#utility.yul\":9566:9589   */\n      swap1\n      pop\n        /* \"#utility.yul\":9288:9596   */\n      swap2\n      swap1\n      pop\n      jump\t// out\n        /* \"#utility.yul\":9602:9771   */\n    tag_132:\n        /* \"#utility.yul\":9686:9697   */\n      0x00\n        /* \"#utility.yul\":9720:9726   */\n      dup3\n        /* \"#utility.yul\":9715:9718   */\n      dup3\n        /* \"#utility.yul\":9708:9727   */\n      mstore\n        /* \"#utility.yul\":9760:9764   */\n      0x20\n        /* \"#utility.yul\":9755:9758   */\n      dup3\n        /* \"#utility.yul\":9751:9765   */\n      add\n        /* \"#utility.yul\":9736:9765   */\n      swap1\n      pop\n        /* \"#utility.yul\":9602:9771   */\n      swap3\n      swap2\n      pop\n      pop\n      jump\t// out\n        /* \"#utility.yul\":9777:9925   */\n    tag_139:\n        /* \"#utility.yul\":9879:9890   */\n      0x00\n        /* \"#utility.yul\":9916:9919   */\n      dup2\n        /* \"#utility.yul\":9901:9919   */\n      swap1\n      pop\n        /* \"#utility.yul\":9777:9925   */\n      swap3\n      swap2\n      pop\n      pop\n      jump\t// out\n        /* \"#utility.yul\":9931:10168   */\n    tag_75:\n        /* \"#utility.yul\":9969:9972   */\n      0x00\n        /* \"#utility.yul\":9988:10006   */\n      tag_213\n        /* \"#utility.yul\":10004:10005   */\n      dup3\n        /* \"#utility.yul\":9988:10006   */\n      tag_168\n      jump\t// in\n    tag_213:\n        /* \"#utility.yul\":9983:10006   */\n      swap2\n      pop\n        /* \"#utility.yul\":10020:10038   */\n      tag_214\n        /* \"#utility.yul\":10036:10037   */\n      dup4\n        /* \"#utility.yul\":10020:10038   */\n      tag_168\n      jump\t// in\n    tag_214:\n        /* \"#utility.yul\":10015:10038   */\n      swap3\n      pop\n        /* \"#utility.yul\":10110:10111   */\n      dup3\n        /* \"#utility.yul\":10104:10108   */\n      0xff\n        /* \"#utility.yul\":10100:10112   */\n      sub\n        /* \"#utility.yul\":10097:10098   */\n      dup3\n        /* \"#utility.yul\":10094:10113   */\n      gt\n        /* \"#utility.yul\":10091:10136   */\n      iszero\n      tag_215\n      jumpi\n        /* \"#utility.yul\":10116:10134   */\n      tag_216\n      tag_217\n      jump\t// in\n    tag_216:\n        /* \"#utility.yul\":10091:10136   */\n    tag_215:\n        /* \"#utility.yul\":10160:10161   */\n      dup3\n        /* \"#utility.yul\":10157:10158   */\n      dup3\n        /* \"#utility.yul\":10153:10162   */\n      add\n        /* \"#utility.yul\":10146:10162   */\n      swap1\n      pop\n        /* \"#utility.yul\":9931:10168   */\n      swap3\n      swap2\n      pop\n      pop\n      jump\t// out\n        /* \"#utility.yul\":10174:10264   */\n    tag_128:\n        /* \"#utility.yul\":10208:10215   */\n      0x00\n        /* \"#utility.yul\":10251:10256   */\n      dup2\n        /* \"#utility.yul\":10244:10257   */\n      iszero\n        /* \"#utility.yul\":10237:10258   */\n      iszero\n        /* \"#utility.yul\":10226:10258   */\n      swap1\n      pop\n        /* \"#utility.yul\":10174:10264   */\n      swap2\n      swap1\n      pop\n      jump\t// out\n        /* \"#utility.yul\":10270:10356   */\n    tag_168:\n        /* \"#utility.yul\":10305:10312   */\n      0x00\n        /* \"#utility.yul\":10345:10349   */\n      0xff\n        /* \"#utility.yul\":10338:10343   */\n      dup3\n        /* \"#utility.yul\":10334:10350   */\n      and\n        /* \"#utility.yul\":10323:10350   */\n      swap1\n      pop\n        /* \"#utility.yul\":10270:10356   */\n      swap2\n      swap1\n      pop\n      jump\t// out\n        /* \"#utility.yul\":10362:10471   */\n    tag_164:\n        /* \"#utility.yul\":10410:10419   */\n      0x00\n        /* \"#utility.yul\":10443:10465   */\n      tag_221\n        /* \"#utility.yul\":10459:10464   */\n      dup3\n        /* \"#utility.yul\":10443:10465   */\n      tag_168\n      jump\t// in\n    tag_221:\n        /* \"#utility.yul\":10430:10465   */\n      swap1\n      pop\n        /* \"#utility.yul\":10362:10471   */\n      swap2\n      swap1\n      pop\n      jump\t// out\n        /* \"#utility.yul\":10477:10631   */\n    tag_91:\n        /* \"#utility.yul\":10561:10567   */\n      dup3\n        /* \"#utility.yul\":10556:10559   */\n      dup2\n        /* \"#utility.yul\":10551:10554   */\n      dup4\n        /* \"#utility.yul\":10538:10568   */\n      calldatacopy\n        /* \"#utility.yul\":10623:10624   */\n      0x00\n        /* \"#utility.yul\":10614:10620   */\n      dup4\n        /* \"#utility.yul\":10609:10612   */\n      dup4\n        /* \"#utility.yul\":10605:10621   */\n      add\n        /* \"#utility.yul\":10598:10625   */\n      mstore\n        /* \"#utility.yul\":10477:10631   */\n      pop\n      pop\n      pop\n      jump\t// out\n        /* \"#utility.yul\":10637:10918   */\n    tag_203:\n        /* \"#utility.yul\":10720:10747   */\n      tag_224\n        /* \"#utility.yul\":10742:10746   */\n      dup3\n        /* \"#utility.yul\":10720:10747   */\n      tag_135\n      jump\t// in\n    tag_224:\n        /* \"#utility.yul\":10712:10718   */\n      dup2\n        /* \"#utility.yul\":10708:10748   */\n      add\n        /* \"#utility.yul\":10850:10856   */\n      dup2\n        /* \"#utility.yul\":10838:10848   */\n      dup2\n        /* \"#utility.yul\":10835:10857   */\n      lt\n        /* \"#utility.yul\":10814:10832   */\n      0xffffffffffffffff\n        /* \"#utility.yul\":10802:10812   */\n      dup3\n        /* \"#utility.yul\":10799:10833   */\n      gt\n        /* \"#utility.yul\":10796:10858   */\n      or\n        /* \"#utility.yul\":10793:10881   */\n      iszero\n      tag_225\n      jumpi\n        /* \"#utility.yul\":10861:10879   */\n      tag_226\n      tag_208\n      jump\t// in\n    tag_226:\n        /* \"#utility.yul\":10793:10881   */\n    tag_225:\n        /* \"#utility.yul\":10901:10911   */\n      dup1\n        /* \"#utility.yul\":10897:10899   */\n      0x40\n        /* \"#utility.yul\":10890:10912   */\n      mstore\n        /* \"#utility.yul\":10680:10918   */\n      pop\n        /* \"#utility.yul\":10637:10918   */\n      pop\n      pop\n      jump\t// out\n        /* \"#utility.yul\":10924:11104   */\n    tag_217:\n        /* \"#utility.yul\":10972:11049   */\n      0x4e487b7100000000000000000000000000000000000000000000000000000000\n        /* \"#utility.yul\":10969:10970   */\n      0x00\n        /* \"#utility.yul\":10962:11050   */\n      mstore\n        /* \"#utility.yul\":11069:11073   */\n      0x11\n        /* \"#utility.yul\":11066:11067   */\n      0x04\n        /* \"#utility.yul\":11059:11074   */\n      mstore\n        /* \"#utility.yul\":11093:11097   */\n      0x24\n        /* \"#utility.yul\":11090:11091   */\n      0x00\n        /* \"#utility.yul\":11083:11098   */\n      revert\n        /* \"#utility.yul\":11110:11290   */\n    tag_208:\n        /* \"#utility.yul\":11158:11235   */\n      0x4e487b7100000000000000000000000000000000000000000000000000000000\n        /* \"#utility.yul\":11155:11156   */\n      0x00\n        /* \"#utility.yul\":11148:11236   */\n      mstore\n        /* \"#utility.yul\":11255:11259   */\n      0x41\n        /* \"#utility.yul\":11252:11253   */\n      0x04\n        /* \"#utility.yul\":11245:11260   */\n      mstore\n        /* \"#utility.yul\":11279:11283   */\n      0x24\n        /* \"#utility.yul\":11276:11277   */\n      0x00\n        /* \"#utility.yul\":11269:11284   */\n      revert\n        /* \"#utility.yul\":11296:11413   */\n    tag_96:\n        /* \"#utility.yul\":11405:11406   */\n      0x00\n        /* \"#utility.yul\":11402:11403   */\n      dup1\n        /* \"#utility.yul\":11395:11407   */\n      revert\n        /* \"#utility.yul\":11419:11536   */\n    tag_195:\n        /* \"#utility.yul\":11528:11529   */\n      0x00\n        /* \"#utility.yul\":11525:11526   */\n      dup1\n        /* \"#utility.yul\":11518:11530   */\n      revert\n        /* \"#utility.yul\":11542:11659   */\n    tag_102:\n        /* \"#utility.yul\":11651:11652   */\n      0x00\n        /* \"#utility.yul\":11648:11649   */\n      dup1\n        /* \"#utility.yul\":11641:11653   */\n      revert\n        /* \"#utility.yul\":11665:11782   */\n    tag_192:\n        /* \"#utility.yul\":11774:11775   */\n      0x00\n        /* \"#utility.yul\":11771:11772   */\n      dup1\n        /* \"#utility.yul\":11764:11776   */\n      revert\n        /* \"#utility.yul\":11788:11905   */\n    tag_198:\n        /* \"#utility.yul\":11897:11898   */\n      0x00\n        /* \"#utility.yul\":11894:11895   */\n      dup1\n        /* \"#utility.yul\":11887:11899   */\n      revert\n        /* \"#utility.yul\":11911:12028   */\n    tag_89:\n        /* \"#utility.yul\":12020:12021   */\n      0x00\n        /* \"#utility.yul\":12017:12018   */\n      dup1\n        /* \"#utility.yul\":12010:12022   */\n      revert\n        /* \"#utility.yul\":12034:12151   */\n    tag_113:\n        /* \"#utility.yul\":12143:12144   */\n      0x00\n        /* \"#utility.yul\":12140:12141   */\n      dup1\n        /* \"#utility.yul\":12133:12145   */\n      revert\n        /* \"#utility.yul\":12157:12274   */\n    tag_110:\n        /* \"#utility.yul\":12266:12267   */\n      0x00\n        /* \"#utility.yul\":12263:12264   */\n      dup1\n        /* \"#utility.yul\":12256:12268   */\n      revert\n        /* \"#utility.yul\":12280:12382   */\n    tag_135:\n        /* \"#utility.yul\":12321:12327   */\n      0x00\n        /* \"#utility.yul\":12372:12374   */\n      0x1f\n        /* \"#utility.yul\":12368:12375   */\n      not\n        /* \"#utility.yul\":12363:12365   */\n      0x1f\n        /* \"#utility.yul\":12356:12361   */\n      dup4\n        /* \"#utility.yul\":12352:12366   */\n      add\n        /* \"#utility.yul\":12348:12376   */\n      and\n        /* \"#utility.yul\":12338:12376   */\n      swap1\n      pop\n        /* \"#utility.yul\":12280:12382   */\n      swap2\n      swap1\n      pop\n      jump\t// out\n        /* \"#utility.yul\":12388:12568   */\n    tag_145:\n        /* \"#utility.yul\":12528:12560   */\n      0x54686520656c656374696f6e2068617320656e64656420616c72656164790000\n        /* \"#utility.yul\":12524:12525   */\n      0x00\n        /* \"#utility.yul\":12516:12522   */\n      dup3\n        /* \"#utility.yul\":12512:12526   */\n      add\n        /* \"#utility.yul\":12505:12561   */\n      mstore\n        /* \"#utility.yul\":12388:12568   */\n      pop\n      jump\t// out\n        /* \"#utility.yul\":12574:12802   */\n    tag_150:\n        /* \"#utility.yul\":12714:12748   */\n      0x416c7265616479207375626d697474656420726573756c747320666f72207468\n        /* \"#utility.yul\":12710:12711   */\n      0x00\n        /* \"#utility.yul\":12702:12708   */\n      dup3\n        /* \"#utility.yul\":12698:12712   */\n      add\n        /* \"#utility.yul\":12691:12749   */\n      mstore\n        /* \"#utility.yul\":12783:12794   */\n      0x6973207374617465210000000000000000000000000000000000000000000000\n        /* \"#utility.yul\":12778:12780   */\n      0x20\n        /* \"#utility.yul\":12770:12776   */\n      dup3\n        /* \"#utility.yul\":12766:12781   */\n      add\n        /* \"#utility.yul\":12759:12795   */\n      mstore\n        /* \"#utility.yul\":12574:12802   */\n      pop\n      jump\t// out\n        /* \"#utility.yul\":12808:12979   */\n    tag_155:\n        /* \"#utility.yul\":12948:12971   */\n      0x54686572652063616e6e6f742062652061207469650000000000000000000000\n        /* \"#utility.yul\":12944:12945   */\n      0x00\n        /* \"#utility.yul\":12936:12942   */\n      dup3\n        /* \"#utility.yul\":12932:12946   */\n      add\n        /* \"#utility.yul\":12925:12972   */\n      mstore\n        /* \"#utility.yul\":12808:12979   */\n      pop\n      jump\t// out\n        /* \"#utility.yul\":12985:13167   */\n    tag_160:\n        /* \"#utility.yul\":13125:13159   */\n      0x537461746573206d7573742068617665206174206c6561737420312073656174\n        /* \"#utility.yul\":13121:13122   */\n      0x00\n        /* \"#utility.yul\":13113:13119   */\n      dup3\n        /* \"#utility.yul\":13109:13123   */\n      add\n        /* \"#utility.yul\":13102:13160   */\n      mstore\n        /* \"#utility.yul\":12985:13167   */\n      pop\n      jump\t// out\n        /* \"#utility.yul\":13173:13291   */\n    tag_106:\n        /* \"#utility.yul\":13244:13266   */\n      tag_243\n        /* \"#utility.yul\":13260:13265   */\n      dup2\n        /* \"#utility.yul\":13244:13266   */\n      tag_168\n      jump\t// in\n    tag_243:\n        /* \"#utility.yul\":13237:13242   */\n      dup2\n        /* \"#utility.yul\":13234:13267   */\n      eq\n        /* \"#utility.yul\":13224:13285   */\n      tag_244\n      jumpi\n        /* \"#utility.yul\":13281:13282   */\n      0x00\n        /* \"#utility.yul\":13278:13279   */\n      dup1\n        /* \"#utility.yul\":13271:13283   */\n      revert\n        /* \"#utility.yul\":13224:13285   */\n    tag_244:\n        /* \"#utility.yul\":13173:13291   */\n      pop\n      jump\t// out\n\n    auxdata: 0xa26469706673582212205737c572678be9f302901d7f5d7fc53d696d26cae9ffb54c325ad88cb2f9b53d64736f6c63430008070033\n}\n",
				"bytecode": {
					"linkReferences": {},
					"object": "608060405234801561001057600080fd5b50610c82806100206000396000f3fe608060405234801561001057600080fd5b50600436106100885760003560e01c8063713d87c51161005b578063713d87c514610103578063ac4bd53a14610133578063c94ca9e314610151578063e494a8831461016f57610088565b80632d78d8e51461008d57806337ad98ec146100ab57806359f78468146100db57806369b36bd4146100e5575b600080fd5b61009561018b565b6040516100a29190610902565b60405180910390f35b6100c560048036038101906100c09190610669565b610190565b6040516100d2919061084c565b60405180910390f35b6100e36101c6565b005b6100ed61026e565b6040516100fa9190610902565b60405180910390f35b61011d600480360381019061011891906106fb565b610273565b60405161012a9190610902565b60405180910390f35b61013b610293565b6040516101489190610902565b60405180910390f35b610159610367565b604051610166919061084c565b60405180910390f35b610189600480360381019061018491906106b2565b610378565b005b600281565b6002818051602081018201805184825260208301602085012081835280955050505050506000915054906101000a900460ff1681565b60008054906101000a900460ff1615610214576040517f08c379a000000000000000000000000000000000000000000000000000000000815260040161020b90610867565b60405180910390fd5b60016000806101000a81548160ff0219169083151502179055507faacb23683ec1a0e9b52f9a6264edf58ad322ac62079d65ea7363a2d400f439f4610257610293565b60405161026491906108e7565b60405180910390a1565b600181565b60016020528060005260406000206000915054906101000a900460ff1681565b600060016000600260ff1660ff16815260200190815260200160002060009054906101000a900460ff1660ff1660016000600160ff1660ff16815260200190815260200160002060009054906101000a900460ff1660ff1611156102fa5760019050610364565b60016000600160ff1660ff16815260200190815260200160002060009054906101000a900460ff1660ff1660016000600260ff1660ff16815260200190815260200160002060009054906101000a900460ff1660ff16111561035f5760029050610364565b600090505b90565b60008054906101000a900460ff1681565b60008054906101000a900460ff16156103c6576040517f08c379a00000000000000000000000000000000000000000000000000000000081526004016103bd90610867565b60405180910390fd5b60008160600160208101906103db91906106fb565b60ff161161041e576040517f08c379a0000000000000000000000000000000000000000000000000000000008152600401610415906108c7565b60405180910390fd5b806040013581602001351415610469576040517f08c379a0000000000000000000000000000000000000000000000000000000008152600401610460906108a7565b60405180910390fd5b600281806000019061047b919061095d565b604051610489929190610833565b908152602001604051809103902060009054906101000a900460ff16156104e5576040517f08c379a00000000000000000000000000000000000000000000000000000000081526004016104dc90610887565b60405180910390fd5b60008160400135826020013511156105005760019050610505565b600290505b81606001602081019061051891906106fb565b600160008360ff1660ff16815260200190815260200160002060008282829054906101000a900460ff1661054c9190610a32565b92506101000a81548160ff021916908360ff1602179055507fa2e71fe38f1afa3762cf9d2ea7bb6a4d272a90fd6f9392f3acedd3b542046b468183606001602081019061059991906106fb565b8480600001906105a9919061095d565b6040516105b9949392919061091d565b60405180910390a15050565b60006105d86105d3846109e5565b6109c0565b9050828152602081018484840111156105f4576105f3610b4b565b5b6105ff848285610a94565b509392505050565b600082601f83011261061c5761061b610b32565b5b813561062c8482602086016105c5565b91505092915050565b60006080828403121561064b5761064a610b3c565b5b81905092915050565b60008135905061066381610c35565b92915050565b60006020828403121561067f5761067e610b55565b5b600082013567ffffffffffffffff81111561069d5761069c610b50565b5b6106a984828501610607565b91505092915050565b6000602082840312156106c8576106c7610b55565b5b600082013567ffffffffffffffff8111156106e6576106e5610b50565b5b6106f284828501610635565b91505092915050565b60006020828403121561071157610710610b55565b5b600061071f84828501610654565b91505092915050565b61073181610a69565b82525050565b60006107438385610a16565b9350610750838584610a94565b61075983610b5a565b840190509392505050565b60006107708385610a27565b935061077d838584610a94565b82840190509392505050565b6000610796601e83610a16565b91506107a182610b6b565b602082019050919050565b60006107b9602983610a16565b91506107c482610b94565b604082019050919050565b60006107dc601583610a16565b91506107e782610be3565b602082019050919050565b60006107ff602083610a16565b915061080a82610c0c565b602082019050919050565b61081e81610a82565b82525050565b61082d81610a75565b82525050565b6000610840828486610764565b91508190509392505050565b60006020820190506108616000830184610728565b92915050565b6000602082019050818103600083015261088081610789565b9050919050565b600060208201905081810360008301526108a0816107ac565b9050919050565b600060208201905081810360008301526108c0816107cf565b9050919050565b600060208201905081810360008301526108e0816107f2565b9050919050565b60006020820190506108fc6000830184610815565b92915050565b60006020820190506109176000830184610824565b92915050565b60006060820190506109326000830187610824565b61093f6020830186610824565b8181036040830152610952818486610737565b905095945050505050565b6000808335600160200384360303811261097a57610979610b41565b5b80840192508235915067ffffffffffffffff82111561099c5761099b610b37565b5b6020830192506001820236038313156109b8576109b7610b46565b5b509250929050565b60006109ca6109db565b90506109d68282610aa3565b919050565b6000604051905090565b600067ffffffffffffffff821115610a00576109ff610b03565b5b610a0982610b5a565b9050602081019050919050565b600082825260208201905092915050565b600081905092915050565b6000610a3d82610a75565b9150610a4883610a75565b92508260ff03821115610a5e57610a5d610ad4565b5b828201905092915050565b60008115159050919050565b600060ff82169050919050565b6000610a8d82610a75565b9050919050565b82818337600083830152505050565b610aac82610b5a565b810181811067ffffffffffffffff82111715610acb57610aca610b03565b5b80604052505050565b7f4e487b7100000000000000000000000000000000000000000000000000000000600052601160045260246000fd5b7f4e487b7100000000000000000000000000000000000000000000000000000000600052604160045260246000fd5b600080fd5b600080fd5b600080fd5b600080fd5b600080fd5b600080fd5b600080fd5b600080fd5b6000601f19601f8301169050919050565b7f54686520656c656374696f6e2068617320656e64656420616c72656164790000600082015250565b7f416c7265616479207375626d697474656420726573756c747320666f7220746860008201527f6973207374617465210000000000000000000000000000000000000000000000602082015250565b7f54686572652063616e6e6f742062652061207469650000000000000000000000600082015250565b7f537461746573206d7573742068617665206174206c6561737420312073656174600082015250565b610c3e81610a75565b8114610c4957600080fd5b5056fea26469706673582212205737c572678be9f302901d7f5d7fc53d696d26cae9ffb54c325ad88cb2f9b53d64736f6c63430008070033",
					"opcodes": "PUSH1 0x80 PUSH1 0x40 MSTORE CALLVALUE DUP1 ISZERO PUSH2 0x10 JUMPI PUSH1 0x0 DUP1 REVERT JUMPDEST POP PUSH2 0xC82 DUP1 PUSH2 0x20 PUSH1 0x0 CODECOPY PUSH1 0x0 RETURN INVALID PUSH1 0x80 PUSH1 0x40 MSTORE CALLVALUE DUP1 ISZERO PUSH2 0x10 JUMPI PUSH1 0x0 DUP1 REVERT JUMPDEST POP PUSH1 0x4 CALLDATASIZE LT PUSH2 0x88 JUMPI PUSH1 0x0 CALLDATALOAD PUSH1 0xE0 SHR DUP1 PUSH4 0x713D87C5 GT PUSH2 0x5B JUMPI DUP1 PUSH4 0x713D87C5 EQ PUSH2 0x103 JUMPI DUP1 PUSH4 0xAC4BD53A EQ PUSH2 0x133 JUMPI DUP1 PUSH4 0xC94CA9E3 EQ PUSH2 0x151 JUMPI DUP1 PUSH4 0xE494A883 EQ PUSH2 0x16F JUMPI PUSH2 0x88 JUMP JUMPDEST DUP1 PUSH4 0x2D78D8E5 EQ PUSH2 0x8D JUMPI DUP1 PUSH4 0x37AD98EC EQ PUSH2 0xAB JUMPI DUP1 PUSH4 0x59F78468 EQ PUSH2 0xDB JUMPI DUP1 PUSH4 0x69B36BD4 EQ PUSH2 0xE5 JUMPI JUMPDEST PUSH1 0x0 DUP1 REVERT JUMPDEST PUSH2 0x95 PUSH2 0x18B JUMP JUMPDEST PUSH1 0x40 MLOAD PUSH2 0xA2 SWAP2 SWAP1 PUSH2 0x902 JUMP JUMPDEST PUSH1 0x40 MLOAD DUP1 SWAP2 SUB SWAP1 RETURN JUMPDEST PUSH2 0xC5 PUSH1 0x4 DUP1 CALLDATASIZE SUB DUP2 ADD SWAP1 PUSH2 0xC0 SWAP2 SWAP1 PUSH2 0x669 JUMP JUMPDEST PUSH2 0x190 JUMP JUMPDEST PUSH1 0x40 MLOAD PUSH2 0xD2 SWAP2 SWAP1 PUSH2 0x84C JUMP JUMPDEST PUSH1 0x40 MLOAD DUP1 SWAP2 SUB SWAP1 RETURN JUMPDEST PUSH2 0xE3 PUSH2 0x1C6 JUMP JUMPDEST STOP JUMPDEST PUSH2 0xED PUSH2 0x26E JUMP JUMPDEST PUSH1 0x40 MLOAD PUSH2 0xFA SWAP2 SWAP1 PUSH2 0x902 JUMP JUMPDEST PUSH1 0x40 MLOAD DUP1 SWAP2 SUB SWAP1 RETURN JUMPDEST PUSH2 0x11D PUSH1 0x4 DUP1 CALLDATASIZE SUB DUP2 ADD SWAP1 PUSH2 0x118 SWAP2 SWAP1 PUSH2 0x6FB JUMP JUMPDEST PUSH2 0x273 JUMP JUMPDEST PUSH1 0x40 MLOAD PUSH2 0x12A SWAP2 SWAP1 PUSH2 0x902 JUMP JUMPDEST PUSH1 0x40 MLOAD DUP1 SWAP2 SUB SWAP1 RETURN JUMPDEST PUSH2 0x13B PUSH2 0x293 JUMP JUMPDEST PUSH1 0x40 MLOAD PUSH2 0x148 SWAP2 SWAP1 PUSH2 0x902 JUMP JUMPDEST PUSH1 0x40 MLOAD DUP1 SWAP2 SUB SWAP1 RETURN JUMPDEST PUSH2 0x159 PUSH2 0x367 JUMP JUMPDEST PUSH1 0x40 MLOAD PUSH2 0x166 SWAP2 SWAP1 PUSH2 0x84C JUMP JUMPDEST PUSH1 0x40 MLOAD DUP1 SWAP2 SUB SWAP1 RETURN JUMPDEST PUSH2 0x189 PUSH1 0x4 DUP1 CALLDATASIZE SUB DUP2 ADD SWAP1 PUSH2 0x184 SWAP2 SWAP1 PUSH2 0x6B2 JUMP JUMPDEST PUSH2 0x378 JUMP JUMPDEST STOP JUMPDEST PUSH1 0x2 DUP2 JUMP JUMPDEST PUSH1 0x2 DUP2 DUP1 MLOAD PUSH1 0x20 DUP2 ADD DUP3 ADD DUP1 MLOAD DUP5 DUP3 MSTORE PUSH1 0x20 DUP4 ADD PUSH1 0x20 DUP6 ADD KECCAK256 DUP2 DUP4 MSTORE DUP1 SWAP6 POP POP POP POP POP POP PUSH1 0x0 SWAP2 POP SLOAD SWAP1 PUSH2 0x100 EXP SWAP1 DIV PUSH1 0xFF AND DUP2 JUMP JUMPDEST PUSH1 0x0 DUP1 SLOAD SWAP1 PUSH2 0x100 EXP SWAP1 DIV PUSH1 0xFF AND ISZERO PUSH2 0x214 JUMPI PUSH1 0x40 MLOAD PUSH32 0x8C379A000000000000000000000000000000000000000000000000000000000 DUP2 MSTORE PUSH1 0x4 ADD PUSH2 0x20B SWAP1 PUSH2 0x867 JUMP JUMPDEST PUSH1 0x40 MLOAD DUP1 SWAP2 SUB SWAP1 REVERT JUMPDEST PUSH1 0x1 PUSH1 0x0 DUP1 PUSH2 0x100 EXP DUP2 SLOAD DUP2 PUSH1 0xFF MUL NOT AND SWAP1 DUP4 ISZERO ISZERO MUL OR SWAP1 SSTORE POP PUSH32 0xAACB23683EC1A0E9B52F9A6264EDF58AD322AC62079D65EA7363A2D400F439F4 PUSH2 0x257 PUSH2 0x293 JUMP JUMPDEST PUSH1 0x40 MLOAD PUSH2 0x264 SWAP2 SWAP1 PUSH2 0x8E7 JUMP JUMPDEST PUSH1 0x40 MLOAD DUP1 SWAP2 SUB SWAP1 LOG1 JUMP JUMPDEST PUSH1 0x1 DUP2 JUMP JUMPDEST PUSH1 0x1 PUSH1 0x20 MSTORE DUP1 PUSH1 0x0 MSTORE PUSH1 0x40 PUSH1 0x0 KECCAK256 PUSH1 0x0 SWAP2 POP SLOAD SWAP1 PUSH2 0x100 EXP SWAP1 DIV PUSH1 0xFF AND DUP2 JUMP JUMPDEST PUSH1 0x0 PUSH1 0x1 PUSH1 0x0 PUSH1 0x2 PUSH1 0xFF AND PUSH1 0xFF AND DUP2 MSTORE PUSH1 0x20 ADD SWAP1 DUP2 MSTORE PUSH1 0x20 ADD PUSH1 0x0 KECCAK256 PUSH1 0x0 SWAP1 SLOAD SWAP1 PUSH2 0x100 EXP SWAP1 DIV PUSH1 0xFF AND PUSH1 0xFF AND PUSH1 0x1 PUSH1 0x0 PUSH1 0x1 PUSH1 0xFF AND PUSH1 0xFF AND DUP2 MSTORE PUSH1 0x20 ADD SWAP1 DUP2 MSTORE PUSH1 0x20 ADD PUSH1 0x0 KECCAK256 PUSH1 0x0 SWAP1 SLOAD SWAP1 PUSH2 0x100 EXP SWAP1 DIV PUSH1 0xFF AND PUSH1 0xFF AND GT ISZERO PUSH2 0x2FA JUMPI PUSH1 0x1 SWAP1 POP PUSH2 0x364 JUMP JUMPDEST PUSH1 0x1 PUSH1 0x0 PUSH1 0x1 PUSH1 0xFF AND PUSH1 0xFF AND DUP2 MSTORE PUSH1 0x20 ADD SWAP1 DUP2 MSTORE PUSH1 0x20 ADD PUSH1 0x0 KECCAK256 PUSH1 0x0 SWAP1 SLOAD SWAP1 PUSH2 0x100 EXP SWAP1 DIV PUSH1 0xFF AND PUSH1 0xFF AND PUSH1 0x1 PUSH1 0x0 PUSH1 0x2 PUSH1 0xFF AND PUSH1 0xFF AND DUP2 MSTORE PUSH1 0x20 ADD SWAP1 DUP2 MSTORE PUSH1 0x20 ADD PUSH1 0x0 KECCAK256 PUSH1 0x0 SWAP1 SLOAD SWAP1 PUSH2 0x100 EXP SWAP1 DIV PUSH1 0xFF AND PUSH1 0xFF AND GT ISZERO PUSH2 0x35F JUMPI PUSH1 0x2 SWAP1 POP PUSH2 0x364 JUMP JUMPDEST PUSH1 0x0 SWAP1 POP JUMPDEST SWAP1 JUMP JUMPDEST PUSH1 0x0 DUP1 SLOAD SWAP1 PUSH2 0x100 EXP SWAP1 DIV PUSH1 0xFF AND DUP2 JUMP JUMPDEST PUSH1 0x0 DUP1 SLOAD SWAP1 PUSH2 0x100 EXP SWAP1 DIV PUSH1 0xFF AND ISZERO PUSH2 0x3C6 JUMPI PUSH1 0x40 MLOAD PUSH32 0x8C379A000000000000000000000000000000000000000000000000000000000 DUP2 MSTORE PUSH1 0x4 ADD PUSH2 0x3BD SWAP1 PUSH2 0x867 JUMP JUMPDEST PUSH1 0x40 MLOAD DUP1 SWAP2 SUB SWAP1 REVERT JUMPDEST PUSH1 0x0 DUP2 PUSH1 0x60 ADD PUSH1 0x20 DUP2 ADD SWAP1 PUSH2 0x3DB SWAP2 SWAP1 PUSH2 0x6FB JUMP JUMPDEST PUSH1 0xFF AND GT PUSH2 0x41E JUMPI PUSH1 0x40 MLOAD PUSH32 0x8C379A000000000000000000000000000000000000000000000000000000000 DUP2 MSTORE PUSH1 0x4 ADD PUSH2 0x415 SWAP1 PUSH2 0x8C7 JUMP JUMPDEST PUSH1 0x40 MLOAD DUP1 SWAP2 SUB SWAP1 REVERT JUMPDEST DUP1 PUSH1 0x40 ADD CALLDATALOAD DUP2 PUSH1 0x20 ADD CALLDATALOAD EQ ISZERO PUSH2 0x469 JUMPI PUSH1 0x40 MLOAD PUSH32 0x8C379A000000000000000000000000000000000000000000000000000000000 DUP2 MSTORE PUSH1 0x4 ADD PUSH2 0x460 SWAP1 PUSH2 0x8A7 JUMP JUMPDEST PUSH1 0x40 MLOAD DUP1 SWAP2 SUB SWAP1 REVERT JUMPDEST PUSH1 0x2 DUP2 DUP1 PUSH1 0x0 ADD SWAP1 PUSH2 0x47B SWAP2 SWAP1 PUSH2 0x95D JUMP JUMPDEST PUSH1 0x40 MLOAD PUSH2 0x489 SWAP3 SWAP2 SWAP1 PUSH2 0x833 JUMP JUMPDEST SWAP1 DUP2 MSTORE PUSH1 0x20 ADD PUSH1 0x40 MLOAD DUP1 SWAP2 SUB SWAP1 KECCAK256 PUSH1 0x0 SWAP1 SLOAD SWAP1 PUSH2 0x100 EXP SWAP1 DIV PUSH1 0xFF AND ISZERO PUSH2 0x4E5 JUMPI PUSH1 0x40 MLOAD PUSH32 0x8C379A000000000000000000000000000000000000000000000000000000000 DUP2 MSTORE PUSH1 0x4 ADD PUSH2 0x4DC SWAP1 PUSH2 0x887 JUMP JUMPDEST PUSH1 0x40 MLOAD DUP1 SWAP2 SUB SWAP1 REVERT JUMPDEST PUSH1 0x0 DUP2 PUSH1 0x40 ADD CALLDATALOAD DUP3 PUSH1 0x20 ADD CALLDATALOAD GT ISZERO PUSH2 0x500 JUMPI PUSH1 0x1 SWAP1 POP PUSH2 0x505 JUMP JUMPDEST PUSH1 0x2 SWAP1 POP JUMPDEST DUP2 PUSH1 0x60 ADD PUSH1 0x20 DUP2 ADD SWAP1 PUSH2 0x518 SWAP2 SWAP1 PUSH2 0x6FB JUMP JUMPDEST PUSH1 0x1 PUSH1 0x0 DUP4 PUSH1 0xFF AND PUSH1 0xFF AND DUP2 MSTORE PUSH1 0x20 ADD SWAP1 DUP2 MSTORE PUSH1 0x20 ADD PUSH1 0x0 KECCAK256 PUSH1 0x0 DUP3 DUP3 DUP3 SWAP1 SLOAD SWAP1 PUSH2 0x100 EXP SWAP1 DIV PUSH1 0xFF AND PUSH2 0x54C SWAP2 SWAP1 PUSH2 0xA32 JUMP JUMPDEST SWAP3 POP PUSH2 0x100 EXP DUP2 SLOAD DUP2 PUSH1 0xFF MUL NOT AND SWAP1 DUP4 PUSH1 0xFF AND MUL OR SWAP1 SSTORE POP PUSH32 0xA2E71FE38F1AFA3762CF9D2EA7BB6A4D272A90FD6F9392F3ACEDD3B542046B46 DUP2 DUP4 PUSH1 0x60 ADD PUSH1 0x20 DUP2 ADD SWAP1 PUSH2 0x599 SWAP2 SWAP1 PUSH2 0x6FB JUMP JUMPDEST DUP5 DUP1 PUSH1 0x0 ADD SWAP1 PUSH2 0x5A9 SWAP2 SWAP1 PUSH2 0x95D JUMP JUMPDEST PUSH1 0x40 MLOAD PUSH2 0x5B9 SWAP5 SWAP4 SWAP3 SWAP2 SWAP1 PUSH2 0x91D JUMP JUMPDEST PUSH1 0x40 MLOAD DUP1 SWAP2 SUB SWAP1 LOG1 POP POP JUMP JUMPDEST PUSH1 0x0 PUSH2 0x5D8 PUSH2 0x5D3 DUP5 PUSH2 0x9E5 JUMP JUMPDEST PUSH2 0x9C0 JUMP JUMPDEST SWAP1 POP DUP3 DUP2 MSTORE PUSH1 0x20 DUP2 ADD DUP5 DUP5 DUP5 ADD GT ISZERO PUSH2 0x5F4 JUMPI PUSH2 0x5F3 PUSH2 0xB4B JUMP JUMPDEST JUMPDEST PUSH2 0x5FF DUP5 DUP3 DUP6 PUSH2 0xA94 JUMP JUMPDEST POP SWAP4 SWAP3 POP POP POP JUMP JUMPDEST PUSH1 0x0 DUP3 PUSH1 0x1F DUP4 ADD SLT PUSH2 0x61C JUMPI PUSH2 0x61B PUSH2 0xB32 JUMP JUMPDEST JUMPDEST DUP2 CALLDATALOAD PUSH2 0x62C DUP5 DUP3 PUSH1 0x20 DUP7 ADD PUSH2 0x5C5 JUMP JUMPDEST SWAP2 POP POP SWAP3 SWAP2 POP POP JUMP JUMPDEST PUSH1 0x0 PUSH1 0x80 DUP3 DUP5 SUB SLT ISZERO PUSH2 0x64B JUMPI PUSH2 0x64A PUSH2 0xB3C JUMP JUMPDEST JUMPDEST DUP2 SWAP1 POP SWAP3 SWAP2 POP POP JUMP JUMPDEST PUSH1 0x0 DUP2 CALLDATALOAD SWAP1 POP PUSH2 0x663 DUP2 PUSH2 0xC35 JUMP JUMPDEST SWAP3 SWAP2 POP POP JUMP JUMPDEST PUSH1 0x0 PUSH1 0x20 DUP3 DUP5 SUB SLT ISZERO PUSH2 0x67F JUMPI PUSH2 0x67E PUSH2 0xB55 JUMP JUMPDEST JUMPDEST PUSH1 0x0 DUP3 ADD CALLDATALOAD PUSH8 0xFFFFFFFFFFFFFFFF DUP2 GT ISZERO PUSH2 0x69D JUMPI PUSH2 0x69C PUSH2 0xB50 JUMP JUMPDEST JUMPDEST PUSH2 0x6A9 DUP5 DUP3 DUP6 ADD PUSH2 0x607 JUMP JUMPDEST SWAP2 POP POP SWAP3 SWAP2 POP POP JUMP JUMPDEST PUSH1 0x0 PUSH1 0x20 DUP3 DUP5 SUB SLT ISZERO PUSH2 0x6C8 JUMPI PUSH2 0x6C7 PUSH2 0xB55 JUMP JUMPDEST JUMPDEST PUSH1 0x0 DUP3 ADD CALLDATALOAD PUSH8 0xFFFFFFFFFFFFFFFF DUP2 GT ISZERO PUSH2 0x6E6 JUMPI PUSH2 0x6E5 PUSH2 0xB50 JUMP JUMPDEST JUMPDEST PUSH2 0x6F2 DUP5 DUP3 DUP6 ADD PUSH2 0x635 JUMP JUMPDEST SWAP2 POP POP SWAP3 SWAP2 POP POP JUMP JUMPDEST PUSH1 0x0 PUSH1 0x20 DUP3 DUP5 SUB SLT ISZERO PUSH2 0x711 JUMPI PUSH2 0x710 PUSH2 0xB55 JUMP JUMPDEST JUMPDEST PUSH1 0x0 PUSH2 0x71F DUP5 DUP3 DUP6 ADD PUSH2 0x654 JUMP JUMPDEST SWAP2 POP POP SWAP3 SWAP2 POP POP JUMP JUMPDEST PUSH2 0x731 DUP2 PUSH2 0xA69 JUMP JUMPDEST DUP3 MSTORE POP POP JUMP JUMPDEST PUSH1 0x0 PUSH2 0x743 DUP4 DUP6 PUSH2 0xA16 JUMP JUMPDEST SWAP4 POP PUSH2 0x750 DUP4 DUP6 DUP5 PUSH2 0xA94 JUMP JUMPDEST PUSH2 0x759 DUP4 PUSH2 0xB5A JUMP JUMPDEST DUP5 ADD SWAP1 POP SWAP4 SWAP3 POP POP POP JUMP JUMPDEST PUSH1 0x0 PUSH2 0x770 DUP4 DUP6 PUSH2 0xA27 JUMP JUMPDEST SWAP4 POP PUSH2 0x77D DUP4 DUP6 DUP5 PUSH2 0xA94 JUMP JUMPDEST DUP3 DUP5 ADD SWAP1 POP SWAP4 SWAP3 POP POP POP JUMP JUMPDEST PUSH1 0x0 PUSH2 0x796 PUSH1 0x1E DUP4 PUSH2 0xA16 JUMP JUMPDEST SWAP2 POP PUSH2 0x7A1 DUP3 PUSH2 0xB6B JUMP JUMPDEST PUSH1 0x20 DUP3 ADD SWAP1 POP SWAP2 SWAP1 POP JUMP JUMPDEST PUSH1 0x0 PUSH2 0x7B9 PUSH1 0x29 DUP4 PUSH2 0xA16 JUMP JUMPDEST SWAP2 POP PUSH2 0x7C4 DUP3 PUSH2 0xB94 JUMP JUMPDEST PUSH1 0x40 DUP3 ADD SWAP1 POP SWAP2 SWAP1 POP JUMP JUMPDEST PUSH1 0x0 PUSH2 0x7DC PUSH1 0x15 DUP4 PUSH2 0xA16 JUMP JUMPDEST SWAP2 POP PUSH2 0x7E7 DUP3 PUSH2 0xBE3 JUMP JUMPDEST PUSH1 0x20 DUP3 ADD SWAP1 POP SWAP2 SWAP1 POP JUMP JUMPDEST PUSH1 0x0 PUSH2 0x7FF PUSH1 0x20 DUP4 PUSH2 0xA16 JUMP JUMPDEST SWAP2 POP PUSH2 0x80A DUP3 PUSH2 0xC0C JUMP JUMPDEST PUSH1 0x20 DUP3 ADD SWAP1 POP SWAP2 SWAP1 POP JUMP JUMPDEST PUSH2 0x81E DUP2 PUSH2 0xA82 JUMP JUMPDEST DUP3 MSTORE POP POP JUMP JUMPDEST PUSH2 0x82D DUP2 PUSH2 0xA75 JUMP JUMPDEST DUP3 MSTORE POP POP JUMP JUMPDEST PUSH1 0x0 PUSH2 0x840 DUP3 DUP5 DUP7 PUSH2 0x764 JUMP JUMPDEST SWAP2 POP DUP2 SWAP1 POP SWAP4 SWAP3 POP POP POP JUMP JUMPDEST PUSH1 0x0 PUSH1 0x20 DUP3 ADD SWAP1 POP PUSH2 0x861 PUSH1 0x0 DUP4 ADD DUP5 PUSH2 0x728 JUMP JUMPDEST SWAP3 SWAP2 POP POP JUMP JUMPDEST PUSH1 0x0 PUSH1 0x20 DUP3 ADD SWAP1 POP DUP2 DUP2 SUB PUSH1 0x0 DUP4 ADD MSTORE PUSH2 0x880 DUP2 PUSH2 0x789 JUMP JUMPDEST SWAP1 POP SWAP2 SWAP1 POP JUMP JUMPDEST PUSH1 0x0 PUSH1 0x20 DUP3 ADD SWAP1 POP DUP2 DUP2 SUB PUSH1 0x0 DUP4 ADD MSTORE PUSH2 0x8A0 DUP2 PUSH2 0x7AC JUMP JUMPDEST SWAP1 POP SWAP2 SWAP1 POP JUMP JUMPDEST PUSH1 0x0 PUSH1 0x20 DUP3 ADD SWAP1 POP DUP2 DUP2 SUB PUSH1 0x0 DUP4 ADD MSTORE PUSH2 0x8C0 DUP2 PUSH2 0x7CF JUMP JUMPDEST SWAP1 POP SWAP2 SWAP1 POP JUMP JUMPDEST PUSH1 0x0 PUSH1 0x20 DUP3 ADD SWAP1 POP DUP2 DUP2 SUB PUSH1 0x0 DUP4 ADD MSTORE PUSH2 0x8E0 DUP2 PUSH2 0x7F2 JUMP JUMPDEST SWAP1 POP SWAP2 SWAP1 POP JUMP JUMPDEST PUSH1 0x0 PUSH1 0x20 DUP3 ADD SWAP1 POP PUSH2 0x8FC PUSH1 0x0 DUP4 ADD DUP5 PUSH2 0x815 JUMP JUMPDEST SWAP3 SWAP2 POP POP JUMP JUMPDEST PUSH1 0x0 PUSH1 0x20 DUP3 ADD SWAP1 POP PUSH2 0x917 PUSH1 0x0 DUP4 ADD DUP5 PUSH2 0x824 JUMP JUMPDEST SWAP3 SWAP2 POP POP JUMP JUMPDEST PUSH1 0x0 PUSH1 0x60 DUP3 ADD SWAP1 POP PUSH2 0x932 PUSH1 0x0 DUP4 ADD DUP8 PUSH2 0x824 JUMP JUMPDEST PUSH2 0x93F PUSH1 0x20 DUP4 ADD DUP7 PUSH2 0x824 JUMP JUMPDEST DUP2 DUP2 SUB PUSH1 0x40 DUP4 ADD MSTORE PUSH2 0x952 DUP2 DUP5 DUP7 PUSH2 0x737 JUMP JUMPDEST SWAP1 POP SWAP6 SWAP5 POP POP POP POP POP JUMP JUMPDEST PUSH1 0x0 DUP1 DUP4 CALLDATALOAD PUSH1 0x1 PUSH1 0x20 SUB DUP5 CALLDATASIZE SUB SUB DUP2 SLT PUSH2 0x97A JUMPI PUSH2 0x979 PUSH2 0xB41 JUMP JUMPDEST JUMPDEST DUP1 DUP5 ADD SWAP3 POP DUP3 CALLDATALOAD SWAP2 POP PUSH8 0xFFFFFFFFFFFFFFFF DUP3 GT ISZERO PUSH2 0x99C JUMPI PUSH2 0x99B PUSH2 0xB37 JUMP JUMPDEST JUMPDEST PUSH1 0x20 DUP4 ADD SWAP3 POP PUSH1 0x1 DUP3 MUL CALLDATASIZE SUB DUP4 SGT ISZERO PUSH2 0x9B8 JUMPI PUSH2 0x9B7 PUSH2 0xB46 JUMP JUMPDEST JUMPDEST POP SWAP3 POP SWAP3 SWAP1 POP JUMP JUMPDEST PUSH1 0x0 PUSH2 0x9CA PUSH2 0x9DB JUMP JUMPDEST SWAP1 POP PUSH2 0x9D6 DUP3 DUP3 PUSH2 0xAA3 JUMP JUMPDEST SWAP2 SWAP1 POP JUMP JUMPDEST PUSH1 0x0 PUSH1 0x40 MLOAD SWAP1 POP SWAP1 JUMP JUMPDEST PUSH1 0x0 PUSH8 0xFFFFFFFFFFFFFFFF DUP3 GT ISZERO PUSH2 0xA00 JUMPI PUSH2 0x9FF PUSH2 0xB03 JUMP JUMPDEST JUMPDEST PUSH2 0xA09 DUP3 PUSH2 0xB5A JUMP JUMPDEST SWAP1 POP PUSH1 0x20 DUP2 ADD SWAP1 POP SWAP2 SWAP1 POP JUMP JUMPDEST PUSH1 0x0 DUP3 DUP3 MSTORE PUSH1 0x20 DUP3 ADD SWAP1 POP SWAP3 SWAP2 POP POP JUMP JUMPDEST PUSH1 0x0 DUP2 SWAP1 POP SWAP3 SWAP2 POP POP JUMP JUMPDEST PUSH1 0x0 PUSH2 0xA3D DUP3 PUSH2 0xA75 JUMP JUMPDEST SWAP2 POP PUSH2 0xA48 DUP4 PUSH2 0xA75 JUMP JUMPDEST SWAP3 POP DUP3 PUSH1 0xFF SUB DUP3 GT ISZERO PUSH2 0xA5E JUMPI PUSH2 0xA5D PUSH2 0xAD4 JUMP JUMPDEST JUMPDEST DUP3 DUP3 ADD SWAP1 POP SWAP3 SWAP2 POP POP JUMP JUMPDEST PUSH1 0x0 DUP2 ISZERO ISZERO SWAP1 POP SWAP2 SWAP1 POP JUMP JUMPDEST PUSH1 0x0 PUSH1 0xFF DUP3 AND SWAP1 POP SWAP2 SWAP1 POP JUMP JUMPDEST PUSH1 0x0 PUSH2 0xA8D DUP3 PUSH2 0xA75 JUMP JUMPDEST SWAP1 POP SWAP2 SWAP1 POP JUMP JUMPDEST DUP3 DUP2 DUP4 CALLDATACOPY PUSH1 0x0 DUP4 DUP4 ADD MSTORE POP POP POP JUMP JUMPDEST PUSH2 0xAAC DUP3 PUSH2 0xB5A JUMP JUMPDEST DUP2 ADD DUP2 DUP2 LT PUSH8 0xFFFFFFFFFFFFFFFF DUP3 GT OR ISZERO PUSH2 0xACB JUMPI PUSH2 0xACA PUSH2 0xB03 JUMP JUMPDEST JUMPDEST DUP1 PUSH1 0x40 MSTORE POP POP POP JUMP JUMPDEST PUSH32 0x4E487B7100000000000000000000000000000000000000000000000000000000 PUSH1 0x0 MSTORE PUSH1 0x11 PUSH1 0x4 MSTORE PUSH1 0x24 PUSH1 0x0 REVERT JUMPDEST PUSH32 0x4E487B7100000000000000000000000000000000000000000000000000000000 PUSH1 0x0 MSTORE PUSH1 0x41 PUSH1 0x4 MSTORE PUSH1 0x24 PUSH1 0x0 REVERT JUMPDEST PUSH1 0x0 DUP1 REVERT JUMPDEST PUSH1 0x0 DUP1 REVERT JUMPDEST PUSH1 0x0 DUP1 REVERT JUMPDEST PUSH1 0x0 DUP1 REVERT JUMPDEST PUSH1 0x0 DUP1 REVERT JUMPDEST PUSH1 0x0 DUP1 REVERT JUMPDEST PUSH1 0x0 DUP1 REVERT JUMPDEST PUSH1 0x0 DUP1 REVERT JUMPDEST PUSH1 0x0 PUSH1 0x1F NOT PUSH1 0x1F DUP4 ADD AND SWAP1 POP SWAP2 SWAP1 POP JUMP JUMPDEST PUSH32 0x54686520656C656374696F6E2068617320656E64656420616C72656164790000 PUSH1 0x0 DUP3 ADD MSTORE POP JUMP JUMPDEST PUSH32 0x416C7265616479207375626D697474656420726573756C747320666F72207468 PUSH1 0x0 DUP3 ADD MSTORE PUSH32 0x6973207374617465210000000000000000000000000000000000000000000000 PUSH1 0x20 DUP3 ADD MSTORE POP JUMP JUMPDEST PUSH32 0x54686572652063616E6E6F742062652061207469650000000000000000000000 PUSH1 0x0 DUP3 ADD MSTORE POP JUMP JUMPDEST PUSH32 0x537461746573206D7573742068617665206174206C6561737420312073656174 PUSH1 0x0 DUP3 ADD MSTORE POP JUMP JUMPDEST PUSH2 0xC3E DUP2 PUSH2 0xA75 JUMP JUMPDEST DUP2 EQ PUSH2 0xC49 JUMPI PUSH1 0x0 DUP1 REVERT JUMPDEST POP JUMP INVALID LOG2 PUSH5 0x6970667358 0x22 SLT KECCAK256 JUMPI CALLDATACOPY 0xC5 PUSH19 0x678BE9F302901D7F5D7FC53D696D26CAE9FFB5 0x4C ORIGIN GAS 0xD8 DUP13 0xB2 0xF9 0xB5 RETURNDATASIZE PUSH5 0x736F6C6343 STOP ADDMOD SMOD STOP CALLER "
				},
				"gasEstimates": {
					"creation": {
						"codeDepositCost": "640400",
						"executionCost": "676",
						"totalCost": "641076"
					},
					"external": {
						"BIDEN()": "402",
						"TRUMP()": "336",
						"currentLeader()": "9356",
						"electionEnded()": "2512",
						"endElection()": "36875",
						"resultsSubmitted(string)": "infinite",
						"seats(uint8)": "infinite",
						"submitStateResult((string,uint256,uint256,uint8))": "infinite"
					}
				},
				"methodIdentifiers": {
					"BIDEN()": "69b36bd4",
					"TRUMP()": "2d78d8e5",
					"currentLeader()": "ac4bd53a",
					"electionEnded()": "c94ca9e3",
					"endElection()": "59f78468",
					"resultsSubmitted(string)": "37ad98ec",
					"seats(uint8)": "713d87c5",
					"submitStateResult((string,uint256,uint256,uint8))": "e494a883"
				}
			},
			"userdoc": {
				"kind": "user",
				"methods": {},
				"version": 1
			}
		}
	}
}