{
	"USElection.sol": {
		"USElection": {
			"abi": [
				{
					"anonymous": false,
					"inputs": [
						{
							"indexed": false,
							"internalType": "uint256",
							"name": "winner",
							"type": "uint256"
						}
					],
					"name": "LogElectionEnded",
					"type": "event"
				},
				{
					"anonymous": false,
					"inputs": [
						{
							"indexed": false,
							"internalType": "uint8",
							"name": "winner",
							"type": "uint8"
						},
						{
							"indexed": false,
							"internalType": "uint8",
							"name": "stateSeats",
							"type": "uint8"
						},
						{
							"indexed": false,
							"internalType": "string",
							"name": "state",
							"type": "string"
						}
					],
					"name": "LogStateResult",
					"type": "event"
				},
				{
					"inputs": [],
					"name": "BIDEN",
					"outputs": [
						{
							"internalType": "uint8",
							"name": "",
							"type": "uint8"
						}
					],
					"stateMutability": "view",
					"type": "function"
				},
				{
					"inputs": [],
					"name": "TRUMP",
					"outputs": [
						{
							"internalType": "uint8",
							"name": "",
							"type": "uint8"
						}
					],
					"stateMutability": "view",
					"type": "function"
				},
				{
					"inputs": [],
					"name": "currentLeader",
					"outputs": [
						{
							"internalType": "uint8",
							"name": "",
							"type": "uint8"
						}
					],
					"stateMutability": "view",
					"type": "function"
				},
				{
					"inputs": [],
					"name": "electionEnded",
					"outputs": [
						{
							"internalType": "bool",
							"name": "",
							"type": "bool"
						}
					],
					"stateMutability": "view",
					"type": "function"
				},
				{
					"inputs": [],
					"name": "endElection",
					"outputs": [],
					"stateMutability": "nonpayable",
					"type": "function"
				},
				{
					"inputs": [],
					"name": "owner",
					"outputs": [
						{
							"internalType": "address",
							"name": "",
							"type": "address"
						}
					],
					"stateMutability": "view",
					"type": "function"
				},
				{
					"inputs": [
						{
							"internalType": "string",
							"name": "",
							"type": "string"
						}
					],
					"name": "resultsSubmitted",
					"outputs": [
						{
							"internalType": "bool",
							"name": "",
							"type": "bool"
						}
					],
					"stateMutability": "view",
					"type": "function"
				},
				{
					"inputs": [
						{
							"internalType": "uint8",
							"name": "",
							"type": "uint8"
						}
					],
					"name": "seats",
					"outputs": [
						{
							"internalType": "uint8",
							"name": "",
							"type": "uint8"
						}
					],
					"stateMutability": "view",
					"type": "function"
				},
				{
					"inputs": [
						{
							"components": [
								{
									"internalType": "string",
									"name": "name",
									"type": "string"
								},
								{
									"internalType": "uint256",
									"name": "votesBiden",
									"type": "uint256"
								},
								{
									"internalType": "uint256",
									"name": "votesTrump",
									"type": "uint256"
								},
								{
									"internalType": "uint8",
									"name": "stateSeats",
									"type": "uint8"
								}
							],
							"internalType": "struct USElection.StateResult",
							"name": "result",
							"type": "tuple"
						}
					],
					"name": "submitStateResult",
					"outputs": [],
					"stateMutability": "nonpayable",
					"type": "function"
				}
			],
			"devdoc": {
				"kind": "dev",
				"methods": {},
				"version": 1
			},
			"evm": {
				"assembly": "    /* \"USElection.sol\":88:1739  contract USElection is Ownable{... */\n  mstore(0x40, 0x80)\n  callvalue\n  dup1\n  iszero\n  tag_1\n  jumpi\n  0x00\n  dup1\n  revert\ntag_1:\n  pop\n    /* \"Ownable.sol\":254:264  msg.sender */\n  caller\n    /* \"Ownable.sol\":246:251  owner */\n  0x00\n  dup1\n    /* \"Ownable.sol\":246:264  owner = msg.sender */\n  0x0100\n  exp\n  dup2\n  sload\n  dup2\n  0xffffffffffffffffffffffffffffffffffffffff\n  mul\n  not\n  and\n  swap1\n  dup4\n  0xffffffffffffffffffffffffffffffffffffffff\n  and\n  mul\n  or\n  swap1\n  sstore\n  pop\n    /* \"USElection.sol\":88:1739  contract USElection is Ownable{... */\n  dataSize(sub_0)\n  dup1\n  dataOffset(sub_0)\n  0x00\n  codecopy\n  0x00\n  return\nstop\n\nsub_0: assembly {\n        /* \"USElection.sol\":88:1739  contract USElection is Ownable{... */\n      mstore(0x40, 0x80)\n      callvalue\n      dup1\n      iszero\n      tag_1\n      jumpi\n      0x00\n      dup1\n      revert\n    tag_1:\n      pop\n      jumpi(tag_2, lt(calldatasize, 0x04))\n      shr(0xe0, calldataload(0x00))\n      dup1\n      0x713d87c5\n      gt\n      tag_12\n      jumpi\n      dup1\n      0x713d87c5\n      eq\n      tag_7\n      jumpi\n      dup1\n      0x8da5cb5b\n      eq\n      tag_8\n      jumpi\n      dup1\n      0xac4bd53a\n      eq\n      tag_9\n      jumpi\n      dup1\n      0xc94ca9e3\n      eq\n      tag_10\n      jumpi\n      dup1\n      0xe494a883\n      eq\n      tag_11\n      jumpi\n      jump(tag_2)\n    tag_12:\n      dup1\n      0x2d78d8e5\n      eq\n      tag_3\n      jumpi\n      dup1\n      0x37ad98ec\n      eq\n      tag_4\n      jumpi\n      dup1\n      0x59f78468\n      eq\n      tag_5\n      jumpi\n      dup1\n      0x69b36bd4\n      eq\n      tag_6\n      jumpi\n    tag_2:\n      0x00\n      dup1\n      revert\n        /* \"USElection.sol\":161:192  uint8 public constant TRUMP = 2 */\n    tag_3:\n      tag_13\n      tag_14\n      jump\t// in\n    tag_13:\n      mload(0x40)\n      tag_15\n      swap2\n      swap1\n      tag_16\n      jump\t// in\n    tag_15:\n      mload(0x40)\n      dup1\n      swap2\n      sub\n      swap1\n      return\n        /* \"USElection.sol\":282:327  mapping(string=>bool) public resultsSubmitted */\n    tag_4:\n      tag_17\n      0x04\n      dup1\n      calldatasize\n      sub\n      dup2\n      add\n      swap1\n      tag_18\n      swap2\n      swap1\n      tag_19\n      jump\t// in\n    tag_18:\n      tag_20\n      jump\t// in\n    tag_17:\n      mload(0x40)\n      tag_21\n      swap2\n      swap1\n      tag_22\n      jump\t// in\n    tag_21:\n      mload(0x40)\n      dup1\n      swap2\n      sub\n      swap1\n      return\n        /* \"USElection.sol\":1598:1732  function endElection() public onlyActiveElection {... */\n    tag_5:\n      tag_23\n      tag_24\n      jump\t// in\n    tag_23:\n      stop\n        /* \"USElection.sol\":124:155  uint8 public constant BIDEN = 1 */\n    tag_6:\n      tag_25\n      tag_26\n      jump\t// in\n    tag_25:\n      mload(0x40)\n      tag_27\n      swap2\n      swap1\n      tag_16\n      jump\t// in\n    tag_27:\n      mload(0x40)\n      dup1\n      swap2\n      sub\n      swap1\n      return\n        /* \"USElection.sol\":239:275  mapping(uint8 => uint8) public seats */\n    tag_7:\n      tag_28\n      0x04\n      dup1\n      calldatasize\n      sub\n      dup2\n      add\n      swap1\n      tag_29\n      swap2\n      swap1\n      tag_30\n      jump\t// in\n    tag_29:\n      tag_31\n      jump\t// in\n    tag_28:\n      mload(0x40)\n      tag_32\n      swap2\n      swap1\n      tag_16\n      jump\t// in\n    tag_32:\n      mload(0x40)\n      dup1\n      swap2\n      sub\n      swap1\n      return\n        /* \"Ownable.sol\":86:106  address public owner */\n    tag_8:\n      tag_33\n      tag_34\n      jump\t// in\n    tag_33:\n      mload(0x40)\n      tag_35\n      swap2\n      swap1\n      tag_36\n      jump\t// in\n    tag_35:\n      mload(0x40)\n      dup1\n      swap2\n      sub\n      swap1\n      return\n        /* \"USElection.sol\":1370:1586  function currentLeader() public view returns(uint8) {... */\n    tag_9:\n      tag_37\n      tag_38\n      jump\t// in\n    tag_37:\n      mload(0x40)\n      tag_39\n      swap2\n      swap1\n      tag_16\n      jump\t// in\n    tag_39:\n      mload(0x40)\n      dup1\n      swap2\n      sub\n      swap1\n      return\n        /* \"USElection.sol\":203:228  bool public electionEnded */\n    tag_10:\n      tag_40\n      tag_41\n      jump\t// in\n    tag_40:\n      mload(0x40)\n      tag_42\n      swap2\n      swap1\n      tag_22\n      jump\t// in\n    tag_42:\n      mload(0x40)\n      dup1\n      swap2\n      sub\n      swap1\n      return\n        /* \"USElection.sol\":707:1364  function  submitStateResult(StateResult calldata result) public onlyActiveElection{... */\n    tag_11:\n      tag_43\n      0x04\n      dup1\n      calldatasize\n      sub\n      dup2\n      add\n      swap1\n      tag_44\n      swap2\n      swap1\n      tag_45\n      jump\t// in\n    tag_44:\n      tag_46\n      jump\t// in\n    tag_43:\n      stop\n        /* \"USElection.sol\":161:192  uint8 public constant TRUMP = 2 */\n    tag_14:\n        /* \"USElection.sol\":191:192  2 */\n      0x02\n        /* \"USElection.sol\":161:192  uint8 public constant TRUMP = 2 */\n      dup2\n      jump\t// out\n        /* \"USElection.sol\":282:327  mapping(string=>bool) public resultsSubmitted */\n    tag_20:\n      0x02\n      dup2\n      dup1\n      mload\n      0x20\n      dup2\n      add\n      dup3\n      add\n      dup1\n      mload\n      dup5\n      dup3\n      mstore\n      0x20\n      dup4\n      add\n      0x20\n      dup6\n      add\n      keccak256\n      dup2\n      dup4\n      mstore\n      dup1\n      swap6\n      pop\n      pop\n      pop\n      pop\n      pop\n      pop\n      0x00\n      swap2\n      pop\n      sload\n      swap1\n      0x0100\n      exp\n      swap1\n      div\n      0xff\n      and\n      dup2\n      jump\t// out\n        /* \"USElection.sol\":1598:1732  function endElection() public onlyActiveElection {... */\n    tag_24:\n        /* \"USElection.sol\":632:645  electionEnded */\n      0x00\n      0x14\n      swap1\n      sload\n      swap1\n      0x0100\n      exp\n      swap1\n      div\n      0xff\n      and\n        /* \"USElection.sol\":631:645  !electionEnded */\n      iszero\n        /* \"USElection.sol\":623:680  require(!electionEnded, \"The election has ended already\") */\n      tag_48\n      jumpi\n      mload(0x40)\n      0x08c379a000000000000000000000000000000000000000000000000000000000\n      dup2\n      mstore\n      0x04\n      add\n      tag_49\n      swap1\n      tag_50\n      jump\t// in\n    tag_49:\n      mload(0x40)\n      dup1\n      swap2\n      sub\n      swap1\n      revert\n    tag_48:\n        /* \"USElection.sol\":1673:1677  true */\n      0x01\n        /* \"USElection.sol\":1657:1670  electionEnded */\n      0x00\n      0x14\n        /* \"USElection.sol\":1657:1677  electionEnded = true */\n      0x0100\n      exp\n      dup2\n      sload\n      dup2\n      0xff\n      mul\n      not\n      and\n      swap1\n      dup4\n      iszero\n      iszero\n      mul\n      or\n      swap1\n      sstore\n      pop\n        /* \"USElection.sol\":1692:1725  LogElectionEnded(currentLeader()) */\n      0xaacb23683ec1a0e9b52f9a6264edf58ad322ac62079d65ea7363a2d400f439f4\n        /* \"USElection.sol\":1709:1724  currentLeader() */\n      tag_52\n        /* \"USElection.sol\":1709:1722  currentLeader */\n      tag_38\n        /* \"USElection.sol\":1709:1724  currentLeader() */\n      jump\t// in\n    tag_52:\n        /* \"USElection.sol\":1692:1725  LogElectionEnded(currentLeader()) */\n      mload(0x40)\n      tag_53\n      swap2\n      swap1\n      tag_54\n      jump\t// in\n    tag_53:\n      mload(0x40)\n      dup1\n      swap2\n      sub\n      swap1\n      log1\n        /* \"USElection.sol\":1598:1732  function endElection() public onlyActiveElection {... */\n      jump\t// out\n        /* \"USElection.sol\":124:155  uint8 public constant BIDEN = 1 */\n    tag_26:\n        /* \"USElection.sol\":154:155  1 */\n      0x01\n        /* \"USElection.sol\":124:155  uint8 public constant BIDEN = 1 */\n      dup2\n      jump\t// out\n        /* \"USElection.sol\":239:275  mapping(uint8 => uint8) public seats */\n    tag_31:\n      mstore(0x20, 0x01)\n      dup1\n      0x00\n      mstore\n      keccak256(0x00, 0x40)\n      0x00\n      swap2\n      pop\n      sload\n      swap1\n      0x0100\n      exp\n      swap1\n      div\n      0xff\n      and\n      dup2\n      jump\t// out\n        /* \"Ownable.sol\":86:106  address public owner */\n    tag_34:\n      0x00\n      dup1\n      sload\n      swap1\n      0x0100\n      exp\n      swap1\n      div\n      0xffffffffffffffffffffffffffffffffffffffff\n      and\n      dup2\n      jump\t// out\n        /* \"USElection.sol\":1370:1586  function currentLeader() public view returns(uint8) {... */\n    tag_38:\n        /* \"USElection.sol\":1415:1420  uint8 */\n      0x00\n        /* \"USElection.sol\":1448:1453  seats */\n      0x01\n        /* \"USElection.sol\":1448:1460  seats[TRUMP] */\n      0x00\n        /* \"USElection.sol\":191:192  2 */\n      0x02\n        /* \"USElection.sol\":1448:1460  seats[TRUMP] */\n      0xff\n      and\n      0xff\n      and\n      dup2\n      mstore\n      0x20\n      add\n      swap1\n      dup2\n      mstore\n      0x20\n      add\n      0x00\n      keccak256\n      0x00\n      swap1\n      sload\n      swap1\n      0x0100\n      exp\n      swap1\n      div\n      0xff\n      and\n        /* \"USElection.sol\":1433:1460  seats[BIDEN] > seats[TRUMP] */\n      0xff\n      and\n        /* \"USElection.sol\":1433:1438  seats */\n      0x01\n        /* \"USElection.sol\":1433:1445  seats[BIDEN] */\n      0x00\n        /* \"USElection.sol\":154:155  1 */\n      0x01\n        /* \"USElection.sol\":1433:1445  seats[BIDEN] */\n      0xff\n      and\n      0xff\n      and\n      dup2\n      mstore\n      0x20\n      add\n      swap1\n      dup2\n      mstore\n      0x20\n      add\n      0x00\n      keccak256\n      0x00\n      swap1\n      sload\n      swap1\n      0x0100\n      exp\n      swap1\n      div\n      0xff\n      and\n        /* \"USElection.sol\":1433:1460  seats[BIDEN] > seats[TRUMP] */\n      0xff\n      and\n      gt\n        /* \"USElection.sol\":1430:1495  if(seats[BIDEN] > seats[TRUMP]) {... */\n      iszero\n      tag_56\n      jumpi\n        /* \"USElection.sol\":154:155  1 */\n      0x01\n        /* \"USElection.sol\":1474:1486  return BIDEN */\n      swap1\n      pop\n      jump(tag_55)\n        /* \"USElection.sol\":1430:1495  if(seats[BIDEN] > seats[TRUMP]) {... */\n    tag_56:\n        /* \"USElection.sol\":1520:1525  seats */\n      0x01\n        /* \"USElection.sol\":1520:1532  seats[BIDEN] */\n      0x00\n        /* \"USElection.sol\":154:155  1 */\n      0x01\n        /* \"USElection.sol\":1520:1532  seats[BIDEN] */\n      0xff\n      and\n      0xff\n      and\n      dup2\n      mstore\n      0x20\n      add\n      swap1\n      dup2\n      mstore\n      0x20\n      add\n      0x00\n      keccak256\n      0x00\n      swap1\n      sload\n      swap1\n      0x0100\n      exp\n      swap1\n      div\n      0xff\n      and\n        /* \"USElection.sol\":1505:1532  seats[TRUMP] > seats[BIDEN] */\n      0xff\n      and\n        /* \"USElection.sol\":1505:1510  seats */\n      0x01\n        /* \"USElection.sol\":1505:1517  seats[TRUMP] */\n      0x00\n        /* \"USElection.sol\":191:192  2 */\n      0x02\n        /* \"USElection.sol\":1505:1517  seats[TRUMP] */\n      0xff\n      and\n      0xff\n      and\n      dup2\n      mstore\n      0x20\n      add\n      swap1\n      dup2\n      mstore\n      0x20\n      add\n      0x00\n      keccak256\n      0x00\n      swap1\n      sload\n      swap1\n      0x0100\n      exp\n      swap1\n      div\n      0xff\n      and\n        /* \"USElection.sol\":1505:1532  seats[TRUMP] > seats[BIDEN] */\n      0xff\n      and\n      gt\n        /* \"USElection.sol\":1502:1567  if(seats[TRUMP] > seats[BIDEN]) {... */\n      iszero\n      tag_57\n      jumpi\n        /* \"USElection.sol\":191:192  2 */\n      0x02\n        /* \"USElection.sol\":1546:1558  return TRUMP */\n      swap1\n      pop\n      jump(tag_55)\n        /* \"USElection.sol\":1502:1567  if(seats[TRUMP] > seats[BIDEN]) {... */\n    tag_57:\n        /* \"USElection.sol\":1581:1582  0 */\n      0x00\n        /* \"USElection.sol\":1574:1582  return 0 */\n      swap1\n      pop\n        /* \"USElection.sol\":1370:1586  function currentLeader() public view returns(uint8) {... */\n    tag_55:\n      swap1\n      jump\t// out\n        /* \"USElection.sol\":203:228  bool public electionEnded */\n    tag_41:\n      0x00\n      0x14\n      swap1\n      sload\n      swap1\n      0x0100\n      exp\n      swap1\n      div\n      0xff\n      and\n      dup2\n      jump\t// out\n        /* \"USElection.sol\":707:1364  function  submitStateResult(StateResult calldata result) public onlyActiveElection{... */\n    tag_46:\n        /* \"USElection.sol\":632:645  electionEnded */\n      0x00\n      0x14\n      swap1\n      sload\n      swap1\n      0x0100\n      exp\n      swap1\n      div\n      0xff\n      and\n        /* \"USElection.sol\":631:645  !electionEnded */\n      iszero\n        /* \"USElection.sol\":623:680  require(!electionEnded, \"The election has ended already\") */\n      tag_59\n      jumpi\n      mload(0x40)\n      0x08c379a000000000000000000000000000000000000000000000000000000000\n      dup2\n      mstore\n      0x04\n      add\n      tag_60\n      swap1\n      tag_50\n      jump\t// in\n    tag_60:\n      mload(0x40)\n      dup1\n      swap2\n      sub\n      swap1\n      revert\n    tag_59:\n        /* \"USElection.sol\":825:826  0 */\n      0x00\n        /* \"USElection.sol\":805:811  result */\n      dup2\n        /* \"USElection.sol\":805:822  result.stateSeats */\n      0x60\n      add\n      0x20\n      dup2\n      add\n      swap1\n      tag_62\n      swap2\n      swap1\n      tag_30\n      jump\t// in\n    tag_62:\n        /* \"USElection.sol\":805:826  result.stateSeats > 0 */\n      0xff\n      and\n      gt\n        /* \"USElection.sol\":797:863  require(result.stateSeats > 0, \"States must have at least 1 seat\") */\n      tag_63\n      jumpi\n      mload(0x40)\n      0x08c379a000000000000000000000000000000000000000000000000000000000\n      dup2\n      mstore\n      0x04\n      add\n      tag_64\n      swap1\n      tag_65\n      jump\t// in\n    tag_64:\n      mload(0x40)\n      dup1\n      swap2\n      sub\n      swap1\n      revert\n    tag_63:\n        /* \"USElection.sol\":900:906  result */\n      dup1\n        /* \"USElection.sol\":900:917  result.votesTrump */\n      0x40\n      add\n      calldataload\n        /* \"USElection.sol\":879:885  result */\n      dup2\n        /* \"USElection.sol\":879:896  result.votesBiden */\n      0x20\n      add\n      calldataload\n        /* \"USElection.sol\":879:917  result.votesBiden != result.votesTrump */\n      eq\n      iszero\n        /* \"USElection.sol\":871:943  require(result.votesBiden != result.votesTrump, \"There cannot be a tie\") */\n      tag_66\n      jumpi\n      mload(0x40)\n      0x08c379a000000000000000000000000000000000000000000000000000000000\n      dup2\n      mstore\n      0x04\n      add\n      tag_67\n      swap1\n      tag_68\n      jump\t// in\n    tag_67:\n      mload(0x40)\n      dup1\n      swap2\n      sub\n      swap1\n      revert\n    tag_66:\n        /* \"USElection.sol\":966:982  resultsSubmitted */\n      0x02\n        /* \"USElection.sol\":983:989  result */\n      dup2\n        /* \"USElection.sol\":983:994  result.name */\n      dup1\n      0x00\n      add\n      swap1\n      tag_69\n      swap2\n      swap1\n      tag_70\n      jump\t// in\n    tag_69:\n        /* \"USElection.sol\":966:995  resultsSubmitted[result.name] */\n      mload(0x40)\n      tag_71\n      swap3\n      swap2\n      swap1\n      tag_72\n      jump\t// in\n    tag_71:\n      swap1\n      dup2\n      mstore\n      0x20\n      add\n      mload(0x40)\n      dup1\n      swap2\n      sub\n      swap1\n      keccak256\n      0x00\n      swap1\n      sload\n      swap1\n      0x0100\n      exp\n      swap1\n      div\n      0xff\n      and\n        /* \"USElection.sol\":965:995  !resultsSubmitted[result.name] */\n      iszero\n        /* \"USElection.sol\":957:1041  require(!resultsSubmitted[result.name], \"Already submitted results for this state!\") */\n      tag_73\n      jumpi\n      mload(0x40)\n      0x08c379a000000000000000000000000000000000000000000000000000000000\n      dup2\n      mstore\n      0x04\n      add\n      tag_74\n      swap1\n      tag_75\n      jump\t// in\n    tag_74:\n      mload(0x40)\n      dup1\n      swap2\n      sub\n      swap1\n      revert\n    tag_73:\n        /* \"USElection.sol\":1050:1062  uint8 winner */\n      0x00\n        /* \"USElection.sol\":1093:1099  result */\n      dup2\n        /* \"USElection.sol\":1093:1110  result.votesTrump */\n      0x40\n      add\n      calldataload\n        /* \"USElection.sol\":1073:1079  result */\n      dup3\n        /* \"USElection.sol\":1073:1090  result.votesBiden */\n      0x20\n      add\n      calldataload\n        /* \"USElection.sol\":1073:1110  result.votesBiden > result.votesTrump */\n      gt\n        /* \"USElection.sol\":1070:1188  if(result.votesBiden > result.votesTrump) {... */\n      iszero\n      tag_76\n      jumpi\n        /* \"USElection.sol\":154:155  1 */\n      0x01\n        /* \"USElection.sol\":1124:1138  winner = BIDEN */\n      swap1\n      pop\n        /* \"USElection.sol\":1070:1188  if(result.votesBiden > result.votesTrump) {... */\n      jump(tag_77)\n    tag_76:\n        /* \"USElection.sol\":191:192  2 */\n      0x02\n        /* \"USElection.sol\":1165:1179  winner = TRUMP */\n      swap1\n      pop\n        /* \"USElection.sol\":1070:1188  if(result.votesBiden > result.votesTrump) {... */\n    tag_77:\n        /* \"USElection.sol\":1219:1225  result */\n      dup2\n        /* \"USElection.sol\":1219:1236  result.stateSeats */\n      0x60\n      add\n      0x20\n      dup2\n      add\n      swap1\n      tag_78\n      swap2\n      swap1\n      tag_30\n      jump\t// in\n    tag_78:\n        /* \"USElection.sol\":1202:1207  seats */\n      0x01\n        /* \"USElection.sol\":1202:1215  seats[winner] */\n      0x00\n        /* \"USElection.sol\":1208:1214  winner */\n      dup4\n        /* \"USElection.sol\":1202:1215  seats[winner] */\n      0xff\n      and\n      0xff\n      and\n      dup2\n      mstore\n      0x20\n      add\n      swap1\n      dup2\n      mstore\n      0x20\n      add\n      0x00\n      keccak256\n      0x00\n        /* \"USElection.sol\":1202:1236  seats[winner] += result.stateSeats */\n      dup3\n      dup3\n      dup3\n      swap1\n      sload\n      swap1\n      0x0100\n      exp\n      swap1\n      div\n      0xff\n      and\n      tag_79\n      swap2\n      swap1\n      tag_80\n      jump\t// in\n    tag_79:\n      swap3\n      pop\n      0x0100\n      exp\n      dup2\n      sload\n      dup2\n      0xff\n      mul\n      not\n      and\n      swap1\n      dup4\n      0xff\n      and\n      mul\n      or\n      swap1\n      sstore\n      pop\n        /* \"USElection.sol\":1282:1286  true */\n      0x01\n        /* \"USElection.sol\":1250:1266  resultsSubmitted */\n      0x02\n        /* \"USElection.sol\":1267:1273  result */\n      dup4\n        /* \"USElection.sol\":1267:1278  result.name */\n      dup1\n      0x00\n      add\n      swap1\n      tag_81\n      swap2\n      swap1\n      tag_70\n      jump\t// in\n    tag_81:\n        /* \"USElection.sol\":1250:1279  resultsSubmitted[result.name] */\n      mload(0x40)\n      tag_82\n      swap3\n      swap2\n      swap1\n      tag_72\n      jump\t// in\n    tag_82:\n      swap1\n      dup2\n      mstore\n      0x20\n      add\n      mload(0x40)\n      dup1\n      swap2\n      sub\n      swap1\n      keccak256\n      0x00\n        /* \"USElection.sol\":1250:1286  resultsSubmitted[result.name] = true */\n      0x0100\n      exp\n      dup2\n      sload\n      dup2\n      0xff\n      mul\n      not\n      and\n      swap1\n      dup4\n      iszero\n      iszero\n      mul\n      or\n      swap1\n      sstore\n      pop\n        /* \"USElection.sol\":1306:1360  LogStateResult(winner, result.stateSeats, result.name) */\n      0xa2e71fe38f1afa3762cf9d2ea7bb6a4d272a90fd6f9392f3acedd3b542046b46\n        /* \"USElection.sol\":1321:1327  winner */\n      dup2\n        /* \"USElection.sol\":1329:1335  result */\n      dup4\n        /* \"USElection.sol\":1329:1346  result.stateSeats */\n      0x60\n      add\n      0x20\n      dup2\n      add\n      swap1\n      tag_83\n      swap2\n      swap1\n      tag_30\n      jump\t// in\n    tag_83:\n        /* \"USElection.sol\":1348:1354  result */\n      dup5\n        /* \"USElection.sol\":1348:1359  result.name */\n      dup1\n      0x00\n      add\n      swap1\n      tag_84\n      swap2\n      swap1\n      tag_70\n      jump\t// in\n    tag_84:\n        /* \"USElection.sol\":1306:1360  LogStateResult(winner, result.stateSeats, result.name) */\n      mload(0x40)\n      tag_85\n      swap5\n      swap4\n      swap3\n      swap2\n      swap1\n      tag_86\n      jump\t// in\n    tag_85:\n      mload(0x40)\n      dup1\n      swap2\n      sub\n      swap1\n      log1\n        /* \"USElection.sol\":690:691  _ */\n      pop\n        /* \"USElection.sol\":707:1364  function  submitStateResult(StateResult calldata result) public onlyActiveElection{... */\n      pop\n      jump\t// out\n        /* \"#utility.yul\":7:351   */\n    tag_88:\n      0x00\n        /* \"#utility.yul\":110:175   */\n      tag_90\n        /* \"#utility.yul\":125:174   */\n      tag_91\n        /* \"#utility.yul\":167:173   */\n      dup5\n        /* \"#utility.yul\":125:174   */\n      tag_92\n      jump\t// in\n    tag_91:\n        /* \"#utility.yul\":110:175   */\n      tag_93\n      jump\t// in\n    tag_90:\n        /* \"#utility.yul\":101:175   */\n      swap1\n      pop\n        /* \"#utility.yul\":198:204   */\n      dup3\n        /* \"#utility.yul\":191:196   */\n      dup2\n        /* \"#utility.yul\":184:205   */\n      mstore\n        /* \"#utility.yul\":236:240   */\n      0x20\n        /* \"#utility.yul\":229:234   */\n      dup2\n        /* \"#utility.yul\":225:241   */\n      add\n        /* \"#utility.yul\":274:277   */\n      dup5\n        /* \"#utility.yul\":265:271   */\n      dup5\n        /* \"#utility.yul\":260:263   */\n      dup5\n        /* \"#utility.yul\":256:272   */\n      add\n        /* \"#utility.yul\":253:278   */\n      gt\n        /* \"#utility.yul\":250:252   */\n      iszero\n      tag_94\n      jumpi\n        /* \"#utility.yul\":291:292   */\n      0x00\n        /* \"#utility.yul\":288:289   */\n      dup1\n        /* \"#utility.yul\":281:293   */\n      revert\n        /* \"#utility.yul\":250:252   */\n    tag_94:\n        /* \"#utility.yul\":304:345   */\n      tag_95\n        /* \"#utility.yul\":338:344   */\n      dup5\n        /* \"#utility.yul\":333:336   */\n      dup3\n        /* \"#utility.yul\":328:331   */\n      dup6\n        /* \"#utility.yul\":304:345   */\n      tag_96\n      jump\t// in\n    tag_95:\n        /* \"#utility.yul\":91:351   */\n      pop\n      swap4\n      swap3\n      pop\n      pop\n      pop\n      jump\t// out\n        /* \"#utility.yul\":371:644   */\n    tag_97:\n      0x00\n        /* \"#utility.yul\":476:479   */\n      dup3\n        /* \"#utility.yul\":469:473   */\n      0x1f\n        /* \"#utility.yul\":461:467   */\n      dup4\n        /* \"#utility.yul\":457:474   */\n      add\n        /* \"#utility.yul\":453:480   */\n      slt\n        /* \"#utility.yul\":443:445   */\n      tag_99\n      jumpi\n        /* \"#utility.yul\":494:495   */\n      0x00\n        /* \"#utility.yul\":491:492   */\n      dup1\n        /* \"#utility.yul\":484:496   */\n      revert\n        /* \"#utility.yul\":443:445   */\n    tag_99:\n        /* \"#utility.yul\":534:540   */\n      dup2\n        /* \"#utility.yul\":521:541   */\n      calldataload\n        /* \"#utility.yul\":559:638   */\n      tag_100\n        /* \"#utility.yul\":634:637   */\n      dup5\n        /* \"#utility.yul\":626:632   */\n      dup3\n        /* \"#utility.yul\":619:623   */\n      0x20\n        /* \"#utility.yul\":611:617   */\n      dup7\n        /* \"#utility.yul\":607:624   */\n      add\n        /* \"#utility.yul\":559:638   */\n      tag_88\n      jump\t// in\n    tag_100:\n        /* \"#utility.yul\":550:638   */\n      swap2\n      pop\n        /* \"#utility.yul\":433:644   */\n      pop\n      swap3\n      swap2\n      pop\n      pop\n      jump\t// out\n        /* \"#utility.yul\":687:854   */\n    tag_101:\n      0x00\n        /* \"#utility.yul\":803:806   */\n      0x80\n        /* \"#utility.yul\":794:800   */\n      dup3\n        /* \"#utility.yul\":789:792   */\n      dup5\n        /* \"#utility.yul\":785:801   */\n      sub\n        /* \"#utility.yul\":781:807   */\n      slt\n        /* \"#utility.yul\":778:780   */\n      iszero\n      tag_103\n      jumpi\n        /* \"#utility.yul\":820:821   */\n      0x00\n        /* \"#utility.yul\":817:818   */\n      dup1\n        /* \"#utility.yul\":810:822   */\n      revert\n        /* \"#utility.yul\":778:780   */\n    tag_103:\n        /* \"#utility.yul\":842:848   */\n      dup2\n        /* \"#utility.yul\":833:848   */\n      swap1\n      pop\n        /* \"#utility.yul\":768:854   */\n      swap3\n      swap2\n      pop\n      pop\n      jump\t// out\n        /* \"#utility.yul\":860:995   */\n    tag_104:\n      0x00\n        /* \"#utility.yul\":942:948   */\n      dup2\n        /* \"#utility.yul\":929:949   */\n      calldataload\n        /* \"#utility.yul\":920:949   */\n      swap1\n      pop\n        /* \"#utility.yul\":958:989   */\n      tag_106\n        /* \"#utility.yul\":983:988   */\n      dup2\n        /* \"#utility.yul\":958:989   */\n      tag_107\n      jump\t// in\n    tag_106:\n        /* \"#utility.yul\":910:995   */\n      swap3\n      swap2\n      pop\n      pop\n      jump\t// out\n        /* \"#utility.yul\":1001:1376   */\n    tag_19:\n      0x00\n        /* \"#utility.yul\":1119:1121   */\n      0x20\n        /* \"#utility.yul\":1107:1116   */\n      dup3\n        /* \"#utility.yul\":1098:1105   */\n      dup5\n        /* \"#utility.yul\":1094:1117   */\n      sub\n        /* \"#utility.yul\":1090:1122   */\n      slt\n        /* \"#utility.yul\":1087:1089   */\n      iszero\n      tag_109\n      jumpi\n        /* \"#utility.yul\":1135:1136   */\n      0x00\n        /* \"#utility.yul\":1132:1133   */\n      dup1\n        /* \"#utility.yul\":1125:1137   */\n      revert\n        /* \"#utility.yul\":1087:1089   */\n    tag_109:\n        /* \"#utility.yul\":1206:1207   */\n      0x00\n        /* \"#utility.yul\":1195:1204   */\n      dup3\n        /* \"#utility.yul\":1191:1208   */\n      add\n        /* \"#utility.yul\":1178:1209   */\n      calldataload\n        /* \"#utility.yul\":1236:1254   */\n      0xffffffffffffffff\n        /* \"#utility.yul\":1228:1234   */\n      dup2\n        /* \"#utility.yul\":1225:1255   */\n      gt\n        /* \"#utility.yul\":1222:1224   */\n      iszero\n      tag_110\n      jumpi\n        /* \"#utility.yul\":1268:1269   */\n      0x00\n        /* \"#utility.yul\":1265:1266   */\n      dup1\n        /* \"#utility.yul\":1258:1270   */\n      revert\n        /* \"#utility.yul\":1222:1224   */\n    tag_110:\n        /* \"#utility.yul\":1296:1359   */\n      tag_111\n        /* \"#utility.yul\":1351:1358   */\n      dup5\n        /* \"#utility.yul\":1342:1348   */\n      dup3\n        /* \"#utility.yul\":1331:1340   */\n      dup6\n        /* \"#utility.yul\":1327:1349   */\n      add\n        /* \"#utility.yul\":1296:1359   */\n      tag_97\n      jump\t// in\n    tag_111:\n        /* \"#utility.yul\":1286:1359   */\n      swap2\n      pop\n        /* \"#utility.yul\":1149:1369   */\n      pop\n        /* \"#utility.yul\":1077:1376   */\n      swap3\n      swap2\n      pop\n      pop\n      jump\t// out\n        /* \"#utility.yul\":1382:1795   */\n    tag_45:\n      0x00\n        /* \"#utility.yul\":1519:1521   */\n      0x20\n        /* \"#utility.yul\":1507:1516   */\n      dup3\n        /* \"#utility.yul\":1498:1505   */\n      dup5\n        /* \"#utility.yul\":1494:1517   */\n      sub\n        /* \"#utility.yul\":1490:1522   */\n      slt\n        /* \"#utility.yul\":1487:1489   */\n      iszero\n      tag_113\n      jumpi\n        /* \"#utility.yul\":1535:1536   */\n      0x00\n        /* \"#utility.yul\":1532:1533   */\n      dup1\n        /* \"#utility.yul\":1525:1537   */\n      revert\n        /* \"#utility.yul\":1487:1489   */\n    tag_113:\n        /* \"#utility.yul\":1606:1607   */\n      0x00\n        /* \"#utility.yul\":1595:1604   */\n      dup3\n        /* \"#utility.yul\":1591:1608   */\n      add\n        /* \"#utility.yul\":1578:1609   */\n      calldataload\n        /* \"#utility.yul\":1636:1654   */\n      0xffffffffffffffff\n        /* \"#utility.yul\":1628:1634   */\n      dup2\n        /* \"#utility.yul\":1625:1655   */\n      gt\n        /* \"#utility.yul\":1622:1624   */\n      iszero\n      tag_114\n      jumpi\n        /* \"#utility.yul\":1668:1669   */\n      0x00\n        /* \"#utility.yul\":1665:1666   */\n      dup1\n        /* \"#utility.yul\":1658:1670   */\n      revert\n        /* \"#utility.yul\":1622:1624   */\n    tag_114:\n        /* \"#utility.yul\":1696:1778   */\n      tag_115\n        /* \"#utility.yul\":1770:1777   */\n      dup5\n        /* \"#utility.yul\":1761:1767   */\n      dup3\n        /* \"#utility.yul\":1750:1759   */\n      dup6\n        /* \"#utility.yul\":1746:1768   */\n      add\n        /* \"#utility.yul\":1696:1778   */\n      tag_101\n      jump\t// in\n    tag_115:\n        /* \"#utility.yul\":1686:1778   */\n      swap2\n      pop\n        /* \"#utility.yul\":1549:1788   */\n      pop\n        /* \"#utility.yul\":1477:1795   */\n      swap3\n      swap2\n      pop\n      pop\n      jump\t// out\n        /* \"#utility.yul\":1801:2059   */\n    tag_30:\n      0x00\n        /* \"#utility.yul\":1907:1909   */\n      0x20\n        /* \"#utility.yul\":1895:1904   */\n      dup3\n        /* \"#utility.yul\":1886:1893   */\n      dup5\n        /* \"#utility.yul\":1882:1905   */\n      sub\n        /* \"#utility.yul\":1878:1910   */\n      slt\n        /* \"#utility.yul\":1875:1877   */\n      iszero\n      tag_117\n      jumpi\n        /* \"#utility.yul\":1923:1924   */\n      0x00\n        /* \"#utility.yul\":1920:1921   */\n      dup1\n        /* \"#utility.yul\":1913:1925   */\n      revert\n        /* \"#utility.yul\":1875:1877   */\n    tag_117:\n        /* \"#utility.yul\":1966:1967   */\n      0x00\n        /* \"#utility.yul\":1991:2042   */\n      tag_118\n        /* \"#utility.yul\":2034:2041   */\n      dup5\n        /* \"#utility.yul\":2025:2031   */\n      dup3\n        /* \"#utility.yul\":2014:2023   */\n      dup6\n        /* \"#utility.yul\":2010:2032   */\n      add\n        /* \"#utility.yul\":1991:2042   */\n      tag_104\n      jump\t// in\n    tag_118:\n        /* \"#utility.yul\":1981:2042   */\n      swap2\n      pop\n        /* \"#utility.yul\":1937:2052   */\n      pop\n        /* \"#utility.yul\":1865:2059   */\n      swap3\n      swap2\n      pop\n      pop\n      jump\t// out\n        /* \"#utility.yul\":2065:2183   */\n    tag_119:\n        /* \"#utility.yul\":2152:2176   */\n      tag_121\n        /* \"#utility.yul\":2170:2175   */\n      dup2\n        /* \"#utility.yul\":2152:2176   */\n      tag_122\n      jump\t// in\n    tag_121:\n        /* \"#utility.yul\":2147:2150   */\n      dup3\n        /* \"#utility.yul\":2140:2177   */\n      mstore\n        /* \"#utility.yul\":2130:2183   */\n      pop\n      pop\n      jump\t// out\n        /* \"#utility.yul\":2189:2298   */\n    tag_123:\n        /* \"#utility.yul\":2270:2291   */\n      tag_125\n        /* \"#utility.yul\":2285:2290   */\n      dup2\n        /* \"#utility.yul\":2270:2291   */\n      tag_126\n      jump\t// in\n    tag_125:\n        /* \"#utility.yul\":2265:2268   */\n      dup3\n        /* \"#utility.yul\":2258:2292   */\n      mstore\n        /* \"#utility.yul\":2248:2298   */\n      pop\n      pop\n      jump\t// out\n        /* \"#utility.yul\":2328:2632   */\n    tag_127:\n      0x00\n        /* \"#utility.yul\":2447:2518   */\n      tag_129\n        /* \"#utility.yul\":2511:2517   */\n      dup4\n        /* \"#utility.yul\":2506:2509   */\n      dup6\n        /* \"#utility.yul\":2447:2518   */\n      tag_130\n      jump\t// in\n    tag_129:\n        /* \"#utility.yul\":2440:2518   */\n      swap4\n      pop\n        /* \"#utility.yul\":2528:2571   */\n      tag_131\n        /* \"#utility.yul\":2564:2570   */\n      dup4\n        /* \"#utility.yul\":2559:2562   */\n      dup6\n        /* \"#utility.yul\":2552:2557   */\n      dup5\n        /* \"#utility.yul\":2528:2571   */\n      tag_96\n      jump\t// in\n    tag_131:\n        /* \"#utility.yul\":2596:2625   */\n      tag_132\n        /* \"#utility.yul\":2618:2624   */\n      dup4\n        /* \"#utility.yul\":2596:2625   */\n      tag_133\n      jump\t// in\n    tag_132:\n        /* \"#utility.yul\":2591:2594   */\n      dup5\n        /* \"#utility.yul\":2587:2626   */\n      add\n        /* \"#utility.yul\":2580:2626   */\n      swap1\n      pop\n        /* \"#utility.yul\":2430:2632   */\n      swap4\n      swap3\n      pop\n      pop\n      pop\n      jump\t// out\n        /* \"#utility.yul\":2662:2979   */\n    tag_134:\n      0x00\n        /* \"#utility.yul\":2799:2888   */\n      tag_136\n        /* \"#utility.yul\":2881:2887   */\n      dup4\n        /* \"#utility.yul\":2876:2879   */\n      dup6\n        /* \"#utility.yul\":2799:2888   */\n      tag_137\n      jump\t// in\n    tag_136:\n        /* \"#utility.yul\":2792:2888   */\n      swap4\n      pop\n        /* \"#utility.yul\":2898:2941   */\n      tag_138\n        /* \"#utility.yul\":2934:2940   */\n      dup4\n        /* \"#utility.yul\":2929:2932   */\n      dup6\n        /* \"#utility.yul\":2922:2927   */\n      dup5\n        /* \"#utility.yul\":2898:2941   */\n      tag_96\n      jump\t// in\n    tag_138:\n        /* \"#utility.yul\":2966:2972   */\n      dup3\n        /* \"#utility.yul\":2961:2964   */\n      dup5\n        /* \"#utility.yul\":2957:2973   */\n      add\n        /* \"#utility.yul\":2950:2973   */\n      swap1\n      pop\n        /* \"#utility.yul\":2782:2979   */\n      swap4\n      swap3\n      pop\n      pop\n      pop\n      jump\t// out\n        /* \"#utility.yul\":2985:3313   */\n    tag_139:\n      0x00\n        /* \"#utility.yul\":3148:3215   */\n      tag_141\n        /* \"#utility.yul\":3212:3214   */\n      0x1e\n        /* \"#utility.yul\":3207:3210   */\n      dup4\n        /* \"#utility.yul\":3148:3215   */\n      tag_130\n      jump\t// in\n    tag_141:\n        /* \"#utility.yul\":3141:3215   */\n      swap2\n      pop\n        /* \"#utility.yul\":3245:3277   */\n      0x54686520656c656374696f6e2068617320656e64656420616c72656164790000\n        /* \"#utility.yul\":3241:3242   */\n      0x00\n        /* \"#utility.yul\":3236:3239   */\n      dup4\n        /* \"#utility.yul\":3232:3243   */\n      add\n        /* \"#utility.yul\":3225:3278   */\n      mstore\n        /* \"#utility.yul\":3304:3306   */\n      0x20\n        /* \"#utility.yul\":3299:3302   */\n      dup3\n        /* \"#utility.yul\":3295:3307   */\n      add\n        /* \"#utility.yul\":3288:3307   */\n      swap1\n      pop\n        /* \"#utility.yul\":3131:3313   */\n      swap2\n      swap1\n      pop\n      jump\t// out\n        /* \"#utility.yul\":3319:3692   */\n    tag_142:\n      0x00\n        /* \"#utility.yul\":3482:3549   */\n      tag_144\n        /* \"#utility.yul\":3546:3548   */\n      0x29\n        /* \"#utility.yul\":3541:3544   */\n      dup4\n        /* \"#utility.yul\":3482:3549   */\n      tag_130\n      jump\t// in\n    tag_144:\n        /* \"#utility.yul\":3475:3549   */\n      swap2\n      pop\n        /* \"#utility.yul\":3579:3613   */\n      0x416c7265616479207375626d697474656420726573756c747320666f72207468\n        /* \"#utility.yul\":3575:3576   */\n      0x00\n        /* \"#utility.yul\":3570:3573   */\n      dup4\n        /* \"#utility.yul\":3566:3577   */\n      add\n        /* \"#utility.yul\":3559:3614   */\n      mstore\n        /* \"#utility.yul\":3645:3656   */\n      0x6973207374617465210000000000000000000000000000000000000000000000\n        /* \"#utility.yul\":3640:3642   */\n      0x20\n        /* \"#utility.yul\":3635:3638   */\n      dup4\n        /* \"#utility.yul\":3631:3643   */\n      add\n        /* \"#utility.yul\":3624:3657   */\n      mstore\n        /* \"#utility.yul\":3683:3685   */\n      0x40\n        /* \"#utility.yul\":3678:3681   */\n      dup3\n        /* \"#utility.yul\":3674:3686   */\n      add\n        /* \"#utility.yul\":3667:3686   */\n      swap1\n      pop\n        /* \"#utility.yul\":3465:3692   */\n      swap2\n      swap1\n      pop\n      jump\t// out\n        /* \"#utility.yul\":3698:4017   */\n    tag_145:\n      0x00\n        /* \"#utility.yul\":3861:3928   */\n      tag_147\n        /* \"#utility.yul\":3925:3927   */\n      0x15\n        /* \"#utility.yul\":3920:3923   */\n      dup4\n        /* \"#utility.yul\":3861:3928   */\n      tag_130\n      jump\t// in\n    tag_147:\n        /* \"#utility.yul\":3854:3928   */\n      swap2\n      pop\n        /* \"#utility.yul\":3958:3981   */\n      0x54686572652063616e6e6f742062652061207469650000000000000000000000\n        /* \"#utility.yul\":3954:3955   */\n      0x00\n        /* \"#utility.yul\":3949:3952   */\n      dup4\n        /* \"#utility.yul\":3945:3956   */\n      add\n        /* \"#utility.yul\":3938:3982   */\n      mstore\n        /* \"#utility.yul\":4008:4010   */\n      0x20\n        /* \"#utility.yul\":4003:4006   */\n      dup3\n        /* \"#utility.yul\":3999:4011   */\n      add\n        /* \"#utility.yul\":3992:4011   */\n      swap1\n      pop\n        /* \"#utility.yul\":3844:4017   */\n      swap2\n      swap1\n      pop\n      jump\t// out\n        /* \"#utility.yul\":4023:4353   */\n    tag_148:\n      0x00\n        /* \"#utility.yul\":4186:4253   */\n      tag_150\n        /* \"#utility.yul\":4250:4252   */\n      0x20\n        /* \"#utility.yul\":4245:4248   */\n      dup4\n        /* \"#utility.yul\":4186:4253   */\n      tag_130\n      jump\t// in\n    tag_150:\n        /* \"#utility.yul\":4179:4253   */\n      swap2\n      pop\n        /* \"#utility.yul\":4283:4317   */\n      0x537461746573206d7573742068617665206174206c6561737420312073656174\n        /* \"#utility.yul\":4279:4280   */\n      0x00\n        /* \"#utility.yul\":4274:4277   */\n      dup4\n        /* \"#utility.yul\":4270:4281   */\n      add\n        /* \"#utility.yul\":4263:4318   */\n      mstore\n        /* \"#utility.yul\":4344:4346   */\n      0x20\n        /* \"#utility.yul\":4339:4342   */\n      dup3\n        /* \"#utility.yul\":4335:4347   */\n      add\n        /* \"#utility.yul\":4328:4347   */\n      swap1\n      pop\n        /* \"#utility.yul\":4169:4353   */\n      swap2\n      swap1\n      pop\n      jump\t// out\n        /* \"#utility.yul\":4359:4486   */\n    tag_151:\n        /* \"#utility.yul\":4444:4479   */\n      tag_153\n        /* \"#utility.yul\":4473:4478   */\n      dup2\n        /* \"#utility.yul\":4444:4479   */\n      tag_154\n      jump\t// in\n    tag_153:\n        /* \"#utility.yul\":4439:4442   */\n      dup3\n        /* \"#utility.yul\":4432:4480   */\n      mstore\n        /* \"#utility.yul\":4422:4486   */\n      pop\n      pop\n      jump\t// out\n        /* \"#utility.yul\":4492:4604   */\n    tag_155:\n        /* \"#utility.yul\":4575:4597   */\n      tag_157\n        /* \"#utility.yul\":4591:4596   */\n      dup2\n        /* \"#utility.yul\":4575:4597   */\n      tag_158\n      jump\t// in\n    tag_157:\n        /* \"#utility.yul\":4570:4573   */\n      dup3\n        /* \"#utility.yul\":4563:4598   */\n      mstore\n        /* \"#utility.yul\":4553:4604   */\n      pop\n      pop\n      jump\t// out\n        /* \"#utility.yul\":4610:4905   */\n    tag_72:\n      0x00\n        /* \"#utility.yul\":4774:4879   */\n      tag_160\n        /* \"#utility.yul\":4875:4878   */\n      dup3\n        /* \"#utility.yul\":4866:4872   */\n      dup5\n        /* \"#utility.yul\":4858:4864   */\n      dup7\n        /* \"#utility.yul\":4774:4879   */\n      tag_134\n      jump\t// in\n    tag_160:\n        /* \"#utility.yul\":4767:4879   */\n      swap2\n      pop\n        /* \"#utility.yul\":4896:4899   */\n      dup2\n        /* \"#utility.yul\":4889:4899   */\n      swap1\n      pop\n        /* \"#utility.yul\":4756:4905   */\n      swap4\n      swap3\n      pop\n      pop\n      pop\n      jump\t// out\n        /* \"#utility.yul\":4911:5133   */\n    tag_36:\n      0x00\n        /* \"#utility.yul\":5042:5044   */\n      0x20\n        /* \"#utility.yul\":5031:5040   */\n      dup3\n        /* \"#utility.yul\":5027:5045   */\n      add\n        /* \"#utility.yul\":5019:5045   */\n      swap1\n      pop\n        /* \"#utility.yul\":5055:5126   */\n      tag_162\n        /* \"#utility.yul\":5123:5124   */\n      0x00\n        /* \"#utility.yul\":5112:5121   */\n      dup4\n        /* \"#utility.yul\":5108:5125   */\n      add\n        /* \"#utility.yul\":5099:5105   */\n      dup5\n        /* \"#utility.yul\":5055:5126   */\n      tag_119\n      jump\t// in\n    tag_162:\n        /* \"#utility.yul\":5009:5133   */\n      swap3\n      swap2\n      pop\n      pop\n      jump\t// out\n        /* \"#utility.yul\":5139:5349   */\n    tag_22:\n      0x00\n        /* \"#utility.yul\":5264:5266   */\n      0x20\n        /* \"#utility.yul\":5253:5262   */\n      dup3\n        /* \"#utility.yul\":5249:5267   */\n      add\n        /* \"#utility.yul\":5241:5267   */\n      swap1\n      pop\n        /* \"#utility.yul\":5277:5342   */\n      tag_164\n        /* \"#utility.yul\":5339:5340   */\n      0x00\n        /* \"#utility.yul\":5328:5337   */\n      dup4\n        /* \"#utility.yul\":5324:5341   */\n      add\n        /* \"#utility.yul\":5315:5321   */\n      dup5\n        /* \"#utility.yul\":5277:5342   */\n      tag_123\n      jump\t// in\n    tag_164:\n        /* \"#utility.yul\":5231:5349   */\n      swap3\n      swap2\n      pop\n      pop\n      jump\t// out\n        /* \"#utility.yul\":5355:5774   */\n    tag_50:\n      0x00\n        /* \"#utility.yul\":5559:5561   */\n      0x20\n        /* \"#utility.yul\":5548:5557   */\n      dup3\n        /* \"#utility.yul\":5544:5562   */\n      add\n        /* \"#utility.yul\":5536:5562   */\n      swap1\n      pop\n        /* \"#utility.yul\":5608:5617   */\n      dup2\n        /* \"#utility.yul\":5602:5606   */\n      dup2\n        /* \"#utility.yul\":5598:5618   */\n      sub\n        /* \"#utility.yul\":5594:5595   */\n      0x00\n        /* \"#utility.yul\":5583:5592   */\n      dup4\n        /* \"#utility.yul\":5579:5596   */\n      add\n        /* \"#utility.yul\":5572:5619   */\n      mstore\n        /* \"#utility.yul\":5636:5767   */\n      tag_166\n        /* \"#utility.yul\":5762:5766   */\n      dup2\n        /* \"#utility.yul\":5636:5767   */\n      tag_139\n      jump\t// in\n    tag_166:\n        /* \"#utility.yul\":5628:5767   */\n      swap1\n      pop\n        /* \"#utility.yul\":5526:5774   */\n      swap2\n      swap1\n      pop\n      jump\t// out\n        /* \"#utility.yul\":5780:6199   */\n    tag_75:\n      0x00\n        /* \"#utility.yul\":5984:5986   */\n      0x20\n        /* \"#utility.yul\":5973:5982   */\n      dup3\n        /* \"#utility.yul\":5969:5987   */\n      add\n        /* \"#utility.yul\":5961:5987   */\n      swap1\n      pop\n        /* \"#utility.yul\":6033:6042   */\n      dup2\n        /* \"#utility.yul\":6027:6031   */\n      dup2\n        /* \"#utility.yul\":6023:6043   */\n      sub\n        /* \"#utility.yul\":6019:6020   */\n      0x00\n        /* \"#utility.yul\":6008:6017   */\n      dup4\n        /* \"#utility.yul\":6004:6021   */\n      add\n        /* \"#utility.yul\":5997:6044   */\n      mstore\n        /* \"#utility.yul\":6061:6192   */\n      tag_168\n        /* \"#utility.yul\":6187:6191   */\n      dup2\n        /* \"#utility.yul\":6061:6192   */\n      tag_142\n      jump\t// in\n    tag_168:\n        /* \"#utility.yul\":6053:6192   */\n      swap1\n      pop\n        /* \"#utility.yul\":5951:6199   */\n      swap2\n      swap1\n      pop\n      jump\t// out\n        /* \"#utility.yul\":6205:6624   */\n    tag_68:\n      0x00\n        /* \"#utility.yul\":6409:6411   */\n      0x20\n        /* \"#utility.yul\":6398:6407   */\n      dup3\n        /* \"#utility.yul\":6394:6412   */\n      add\n        /* \"#utility.yul\":6386:6412   */\n      swap1\n      pop\n        /* \"#utility.yul\":6458:6467   */\n      dup2\n        /* \"#utility.yul\":6452:6456   */\n      dup2\n        /* \"#utility.yul\":6448:6468   */\n      sub\n        /* \"#utility.yul\":6444:6445   */\n      0x00\n        /* \"#utility.yul\":6433:6442   */\n      dup4\n        /* \"#utility.yul\":6429:6446   */\n      add\n        /* \"#utility.yul\":6422:6469   */\n      mstore\n        /* \"#utility.yul\":6486:6617   */\n      tag_170\n        /* \"#utility.yul\":6612:6616   */\n      dup2\n        /* \"#utility.yul\":6486:6617   */\n      tag_145\n      jump\t// in\n    tag_170:\n        /* \"#utility.yul\":6478:6617   */\n      swap1\n      pop\n        /* \"#utility.yul\":6376:6624   */\n      swap2\n      swap1\n      pop\n      jump\t// out\n        /* \"#utility.yul\":6630:7049   */\n    tag_65:\n      0x00\n        /* \"#utility.yul\":6834:6836   */\n      0x20\n        /* \"#utility.yul\":6823:6832   */\n      dup3\n        /* \"#utility.yul\":6819:6837   */\n      add\n        /* \"#utility.yul\":6811:6837   */\n      swap1\n      pop\n        /* \"#utility.yul\":6883:6892   */\n      dup2\n        /* \"#utility.yul\":6877:6881   */\n      dup2\n        /* \"#utility.yul\":6873:6893   */\n      sub\n        /* \"#utility.yul\":6869:6870   */\n      0x00\n        /* \"#utility.yul\":6858:6867   */\n      dup4\n        /* \"#utility.yul\":6854:6871   */\n      add\n        /* \"#utility.yul\":6847:6894   */\n      mstore\n        /* \"#utility.yul\":6911:7042   */\n      tag_172\n        /* \"#utility.yul\":7037:7041   */\n      dup2\n        /* \"#utility.yul\":6911:7042   */\n      tag_148\n      jump\t// in\n    tag_172:\n        /* \"#utility.yul\":6903:7042   */\n      swap1\n      pop\n        /* \"#utility.yul\":6801:7049   */\n      swap2\n      swap1\n      pop\n      jump\t// out\n        /* \"#utility.yul\":7055:7273   */\n    tag_54:\n      0x00\n        /* \"#utility.yul\":7184:7186   */\n      0x20\n        /* \"#utility.yul\":7173:7182   */\n      dup3\n        /* \"#utility.yul\":7169:7187   */\n      add\n        /* \"#utility.yul\":7161:7187   */\n      swap1\n      pop\n        /* \"#utility.yul\":7197:7266   */\n      tag_174\n        /* \"#utility.yul\":7263:7264   */\n      0x00\n        /* \"#utility.yul\":7252:7261   */\n      dup4\n        /* \"#utility.yul\":7248:7265   */\n      add\n        /* \"#utility.yul\":7239:7245   */\n      dup5\n        /* \"#utility.yul\":7197:7266   */\n      tag_151\n      jump\t// in\n    tag_174:\n        /* \"#utility.yul\":7151:7273   */\n      swap3\n      swap2\n      pop\n      pop\n      jump\t// out\n        /* \"#utility.yul\":7279:7493   */\n    tag_16:\n      0x00\n        /* \"#utility.yul\":7406:7408   */\n      0x20\n        /* \"#utility.yul\":7395:7404   */\n      dup3\n        /* \"#utility.yul\":7391:7409   */\n      add\n        /* \"#utility.yul\":7383:7409   */\n      swap1\n      pop\n        /* \"#utility.yul\":7419:7486   */\n      tag_176\n        /* \"#utility.yul\":7483:7484   */\n      0x00\n        /* \"#utility.yul\":7472:7481   */\n      dup4\n        /* \"#utility.yul\":7468:7485   */\n      add\n        /* \"#utility.yul\":7459:7465   */\n      dup5\n        /* \"#utility.yul\":7419:7486   */\n      tag_155\n      jump\t// in\n    tag_176:\n        /* \"#utility.yul\":7373:7493   */\n      swap3\n      swap2\n      pop\n      pop\n      jump\t// out\n        /* \"#utility.yul\":7499:8036   */\n    tag_86:\n      0x00\n        /* \"#utility.yul\":7708:7710   */\n      0x60\n        /* \"#utility.yul\":7697:7706   */\n      dup3\n        /* \"#utility.yul\":7693:7711   */\n      add\n        /* \"#utility.yul\":7685:7711   */\n      swap1\n      pop\n        /* \"#utility.yul\":7721:7788   */\n      tag_178\n        /* \"#utility.yul\":7785:7786   */\n      0x00\n        /* \"#utility.yul\":7774:7783   */\n      dup4\n        /* \"#utility.yul\":7770:7787   */\n      add\n        /* \"#utility.yul\":7761:7767   */\n      dup8\n        /* \"#utility.yul\":7721:7788   */\n      tag_155\n      jump\t// in\n    tag_178:\n        /* \"#utility.yul\":7798:7866   */\n      tag_179\n        /* \"#utility.yul\":7862:7864   */\n      0x20\n        /* \"#utility.yul\":7851:7860   */\n      dup4\n        /* \"#utility.yul\":7847:7865   */\n      add\n        /* \"#utility.yul\":7838:7844   */\n      dup7\n        /* \"#utility.yul\":7798:7866   */\n      tag_155\n      jump\t// in\n    tag_179:\n        /* \"#utility.yul\":7913:7922   */\n      dup2\n        /* \"#utility.yul\":7907:7911   */\n      dup2\n        /* \"#utility.yul\":7903:7923   */\n      sub\n        /* \"#utility.yul\":7898:7900   */\n      0x40\n        /* \"#utility.yul\":7887:7896   */\n      dup4\n        /* \"#utility.yul\":7883:7901   */\n      add\n        /* \"#utility.yul\":7876:7924   */\n      mstore\n        /* \"#utility.yul\":7941:8029   */\n      tag_180\n        /* \"#utility.yul\":8024:8028   */\n      dup2\n        /* \"#utility.yul\":8015:8021   */\n      dup5\n        /* \"#utility.yul\":8007:8013   */\n      dup7\n        /* \"#utility.yul\":7941:8029   */\n      tag_127\n      jump\t// in\n    tag_180:\n        /* \"#utility.yul\":7933:8029   */\n      swap1\n      pop\n        /* \"#utility.yul\":7675:8036   */\n      swap6\n      swap5\n      pop\n      pop\n      pop\n      pop\n      pop\n      jump\t// out\n        /* \"#utility.yul\":8042:8566   */\n    tag_70:\n      0x00\n      dup1\n        /* \"#utility.yul\":8182:8193   */\n      dup4\n        /* \"#utility.yul\":8169:8194   */\n      calldataload\n        /* \"#utility.yul\":8282:8283   */\n      0x01\n        /* \"#utility.yul\":8276:8280   */\n      0x20\n        /* \"#utility.yul\":8272:8284   */\n      sub\n        /* \"#utility.yul\":8261:8269   */\n      dup5\n        /* \"#utility.yul\":8245:8259   */\n      calldatasize\n        /* \"#utility.yul\":8241:8270   */\n      sub\n        /* \"#utility.yul\":8237:8285   */\n      sub\n        /* \"#utility.yul\":8217:8235   */\n      dup2\n        /* \"#utility.yul\":8213:8286   */\n      slt\n        /* \"#utility.yul\":8203:8205   */\n      tag_182\n      jumpi\n        /* \"#utility.yul\":8300:8301   */\n      0x00\n        /* \"#utility.yul\":8297:8298   */\n      dup1\n        /* \"#utility.yul\":8290:8302   */\n      revert\n        /* \"#utility.yul\":8203:8205   */\n    tag_182:\n        /* \"#utility.yul\":8335:8353   */\n      dup1\n        /* \"#utility.yul\":8325:8333   */\n      dup5\n        /* \"#utility.yul\":8321:8354   */\n      add\n        /* \"#utility.yul\":8313:8354   */\n      swap3\n      pop\n        /* \"#utility.yul\":8387:8391   */\n      dup3\n        /* \"#utility.yul\":8374:8392   */\n      calldataload\n        /* \"#utility.yul\":8364:8392   */\n      swap2\n      pop\n        /* \"#utility.yul\":8415:8433   */\n      0xffffffffffffffff\n        /* \"#utility.yul\":8407:8413   */\n      dup3\n        /* \"#utility.yul\":8404:8434   */\n      gt\n        /* \"#utility.yul\":8401:8403   */\n      iszero\n      tag_183\n      jumpi\n        /* \"#utility.yul\":8447:8448   */\n      0x00\n        /* \"#utility.yul\":8444:8445   */\n      dup1\n        /* \"#utility.yul\":8437:8449   */\n      revert\n        /* \"#utility.yul\":8401:8403   */\n    tag_183:\n        /* \"#utility.yul\":8478:8480   */\n      0x20\n        /* \"#utility.yul\":8472:8476   */\n      dup4\n        /* \"#utility.yul\":8468:8481   */\n      add\n        /* \"#utility.yul\":8460:8481   */\n      swap3\n      pop\n        /* \"#utility.yul\":8535:8539   */\n      0x01\n        /* \"#utility.yul\":8527:8533   */\n      dup3\n        /* \"#utility.yul\":8523:8540   */\n      mul\n        /* \"#utility.yul\":8507:8521   */\n      calldatasize\n        /* \"#utility.yul\":8503:8541   */\n      sub\n        /* \"#utility.yul\":8497:8501   */\n      dup4\n        /* \"#utility.yul\":8493:8542   */\n      sgt\n        /* \"#utility.yul\":8490:8492   */\n      iszero\n      tag_184\n      jumpi\n        /* \"#utility.yul\":8555:8556   */\n      0x00\n        /* \"#utility.yul\":8552:8553   */\n      dup1\n        /* \"#utility.yul\":8545:8557   */\n      revert\n        /* \"#utility.yul\":8490:8492   */\n    tag_184:\n        /* \"#utility.yul\":8133:8566   */\n      pop\n      swap3\n      pop\n      swap3\n      swap1\n      pop\n      jump\t// out\n        /* \"#utility.yul\":8572:8855   */\n    tag_93:\n      0x00\n        /* \"#utility.yul\":8638:8640   */\n      0x40\n        /* \"#utility.yul\":8632:8641   */\n      mload\n        /* \"#utility.yul\":8622:8641   */\n      swap1\n      pop\n        /* \"#utility.yul\":8680:8684   */\n      dup2\n        /* \"#utility.yul\":8672:8678   */\n      dup2\n        /* \"#utility.yul\":8668:8685   */\n      add\n        /* \"#utility.yul\":8787:8793   */\n      dup2\n        /* \"#utility.yul\":8775:8785   */\n      dup2\n        /* \"#utility.yul\":8772:8794   */\n      lt\n        /* \"#utility.yul\":8751:8769   */\n      0xffffffffffffffff\n        /* \"#utility.yul\":8739:8749   */\n      dup3\n        /* \"#utility.yul\":8736:8770   */\n      gt\n        /* \"#utility.yul\":8733:8795   */\n      or\n        /* \"#utility.yul\":8730:8732   */\n      iszero\n      tag_186\n      jumpi\n        /* \"#utility.yul\":8798:8816   */\n      tag_187\n      tag_188\n      jump\t// in\n    tag_187:\n        /* \"#utility.yul\":8730:8732   */\n    tag_186:\n        /* \"#utility.yul\":8838:8848   */\n      dup1\n        /* \"#utility.yul\":8834:8836   */\n      0x40\n        /* \"#utility.yul\":8827:8849   */\n      mstore\n        /* \"#utility.yul\":8612:8855   */\n      pop\n      swap2\n      swap1\n      pop\n      jump\t// out\n        /* \"#utility.yul\":8861:9193   */\n    tag_92:\n      0x00\n        /* \"#utility.yul\":9013:9031   */\n      0xffffffffffffffff\n        /* \"#utility.yul\":9005:9011   */\n      dup3\n        /* \"#utility.yul\":9002:9032   */\n      gt\n        /* \"#utility.yul\":8999:9001   */\n      iszero\n      tag_190\n      jumpi\n        /* \"#utility.yul\":9035:9053   */\n      tag_191\n      tag_188\n      jump\t// in\n    tag_191:\n        /* \"#utility.yul\":8999:9001   */\n    tag_190:\n        /* \"#utility.yul\":9120:9124   */\n      0x1f\n        /* \"#utility.yul\":9116:9125   */\n      not\n        /* \"#utility.yul\":9109:9113   */\n      0x1f\n        /* \"#utility.yul\":9101:9107   */\n      dup4\n        /* \"#utility.yul\":9097:9114   */\n      add\n        /* \"#utility.yul\":9093:9126   */\n      and\n        /* \"#utility.yul\":9085:9126   */\n      swap1\n      pop\n        /* \"#utility.yul\":9181:9185   */\n      0x20\n        /* \"#utility.yul\":9175:9179   */\n      dup2\n        /* \"#utility.yul\":9171:9186   */\n      add\n        /* \"#utility.yul\":9163:9186   */\n      swap1\n      pop\n        /* \"#utility.yul\":8928:9193   */\n      swap2\n      swap1\n      pop\n      jump\t// out\n        /* \"#utility.yul\":9199:9368   */\n    tag_130:\n      0x00\n        /* \"#utility.yul\":9317:9323   */\n      dup3\n        /* \"#utility.yul\":9312:9315   */\n      dup3\n        /* \"#utility.yul\":9305:9324   */\n      mstore\n        /* \"#utility.yul\":9357:9361   */\n      0x20\n        /* \"#utility.yul\":9352:9355   */\n      dup3\n        /* \"#utility.yul\":9348:9362   */\n      add\n        /* \"#utility.yul\":9333:9362   */\n      swap1\n      pop\n        /* \"#utility.yul\":9295:9368   */\n      swap3\n      swap2\n      pop\n      pop\n      jump\t// out\n        /* \"#utility.yul\":9374:9522   */\n    tag_137:\n      0x00\n        /* \"#utility.yul\":9513:9516   */\n      dup2\n        /* \"#utility.yul\":9498:9516   */\n      swap1\n      pop\n        /* \"#utility.yul\":9488:9522   */\n      swap3\n      swap2\n      pop\n      pop\n      jump\t// out\n        /* \"#utility.yul\":9528:9765   */\n    tag_80:\n      0x00\n        /* \"#utility.yul\":9585:9603   */\n      tag_195\n        /* \"#utility.yul\":9601:9602   */\n      dup3\n        /* \"#utility.yul\":9585:9603   */\n      tag_158\n      jump\t// in\n    tag_195:\n        /* \"#utility.yul\":9580:9603   */\n      swap2\n      pop\n        /* \"#utility.yul\":9617:9635   */\n      tag_196\n        /* \"#utility.yul\":9633:9634   */\n      dup4\n        /* \"#utility.yul\":9617:9635   */\n      tag_158\n      jump\t// in\n    tag_196:\n        /* \"#utility.yul\":9612:9635   */\n      swap3\n      pop\n        /* \"#utility.yul\":9707:9708   */\n      dup3\n        /* \"#utility.yul\":9701:9705   */\n      0xff\n        /* \"#utility.yul\":9697:9709   */\n      sub\n        /* \"#utility.yul\":9694:9695   */\n      dup3\n        /* \"#utility.yul\":9691:9710   */\n      gt\n        /* \"#utility.yul\":9688:9690   */\n      iszero\n      tag_197\n      jumpi\n        /* \"#utility.yul\":9713:9731   */\n      tag_198\n      tag_199\n      jump\t// in\n    tag_198:\n        /* \"#utility.yul\":9688:9690   */\n    tag_197:\n        /* \"#utility.yul\":9757:9758   */\n      dup3\n        /* \"#utility.yul\":9754:9755   */\n      dup3\n        /* \"#utility.yul\":9750:9759   */\n      add\n        /* \"#utility.yul\":9743:9759   */\n      swap1\n      pop\n        /* \"#utility.yul\":9570:9765   */\n      swap3\n      swap2\n      pop\n      pop\n      jump\t// out\n        /* \"#utility.yul\":9771:9867   */\n    tag_122:\n      0x00\n        /* \"#utility.yul\":9837:9861   */\n      tag_201\n        /* \"#utility.yul\":9855:9860   */\n      dup3\n        /* \"#utility.yul\":9837:9861   */\n      tag_202\n      jump\t// in\n    tag_201:\n        /* \"#utility.yul\":9826:9861   */\n      swap1\n      pop\n        /* \"#utility.yul\":9816:9867   */\n      swap2\n      swap1\n      pop\n      jump\t// out\n        /* \"#utility.yul\":9873:9963   */\n    tag_126:\n      0x00\n        /* \"#utility.yul\":9950:9955   */\n      dup2\n        /* \"#utility.yul\":9943:9956   */\n      iszero\n        /* \"#utility.yul\":9936:9957   */\n      iszero\n        /* \"#utility.yul\":9925:9957   */\n      swap1\n      pop\n        /* \"#utility.yul\":9915:9963   */\n      swap2\n      swap1\n      pop\n      jump\t// out\n        /* \"#utility.yul\":9969:10095   */\n    tag_202:\n      0x00\n        /* \"#utility.yul\":10046:10088   */\n      0xffffffffffffffffffffffffffffffffffffffff\n        /* \"#utility.yul\":10039:10044   */\n      dup3\n        /* \"#utility.yul\":10035:10089   */\n      and\n        /* \"#utility.yul\":10024:10089   */\n      swap1\n      pop\n        /* \"#utility.yul\":10014:10095   */\n      swap2\n      swap1\n      pop\n      jump\t// out\n        /* \"#utility.yul\":10101:10187   */\n    tag_158:\n      0x00\n        /* \"#utility.yul\":10176:10180   */\n      0xff\n        /* \"#utility.yul\":10169:10174   */\n      dup3\n        /* \"#utility.yul\":10165:10181   */\n      and\n        /* \"#utility.yul\":10154:10181   */\n      swap1\n      pop\n        /* \"#utility.yul\":10144:10187   */\n      swap2\n      swap1\n      pop\n      jump\t// out\n        /* \"#utility.yul\":10193:10302   */\n    tag_154:\n      0x00\n        /* \"#utility.yul\":10274:10296   */\n      tag_207\n        /* \"#utility.yul\":10290:10295   */\n      dup3\n        /* \"#utility.yul\":10274:10296   */\n      tag_158\n      jump\t// in\n    tag_207:\n        /* \"#utility.yul\":10261:10296   */\n      swap1\n      pop\n        /* \"#utility.yul\":10251:10302   */\n      swap2\n      swap1\n      pop\n      jump\t// out\n        /* \"#utility.yul\":10308:10462   */\n    tag_96:\n        /* \"#utility.yul\":10392:10398   */\n      dup3\n        /* \"#utility.yul\":10387:10390   */\n      dup2\n        /* \"#utility.yul\":10382:10385   */\n      dup4\n        /* \"#utility.yul\":10369:10399   */\n      calldatacopy\n        /* \"#utility.yul\":10454:10455   */\n      0x00\n        /* \"#utility.yul\":10445:10451   */\n      dup4\n        /* \"#utility.yul\":10440:10443   */\n      dup4\n        /* \"#utility.yul\":10436:10452   */\n      add\n        /* \"#utility.yul\":10429:10456   */\n      mstore\n        /* \"#utility.yul\":10359:10462   */\n      pop\n      pop\n      pop\n      jump\t// out\n        /* \"#utility.yul\":10468:10648   */\n    tag_199:\n        /* \"#utility.yul\":10516:10593   */\n      0x4e487b7100000000000000000000000000000000000000000000000000000000\n        /* \"#utility.yul\":10513:10514   */\n      0x00\n        /* \"#utility.yul\":10506:10594   */\n      mstore\n        /* \"#utility.yul\":10613:10617   */\n      0x11\n        /* \"#utility.yul\":10610:10611   */\n      0x04\n        /* \"#utility.yul\":10603:10618   */\n      mstore\n        /* \"#utility.yul\":10637:10641   */\n      0x24\n        /* \"#utility.yul\":10634:10635   */\n      0x00\n        /* \"#utility.yul\":10627:10642   */\n      revert\n        /* \"#utility.yul\":10654:10834   */\n    tag_188:\n        /* \"#utility.yul\":10702:10779   */\n      0x4e487b7100000000000000000000000000000000000000000000000000000000\n        /* \"#utility.yul\":10699:10700   */\n      0x00\n        /* \"#utility.yul\":10692:10780   */\n      mstore\n        /* \"#utility.yul\":10799:10803   */\n      0x41\n        /* \"#utility.yul\":10796:10797   */\n      0x04\n        /* \"#utility.yul\":10789:10804   */\n      mstore\n        /* \"#utility.yul\":10823:10827   */\n      0x24\n        /* \"#utility.yul\":10820:10821   */\n      0x00\n        /* \"#utility.yul\":10813:10828   */\n      revert\n        /* \"#utility.yul\":10840:10942   */\n    tag_133:\n      0x00\n        /* \"#utility.yul\":10932:10934   */\n      0x1f\n        /* \"#utility.yul\":10928:10935   */\n      not\n        /* \"#utility.yul\":10923:10925   */\n      0x1f\n        /* \"#utility.yul\":10916:10921   */\n      dup4\n        /* \"#utility.yul\":10912:10926   */\n      add\n        /* \"#utility.yul\":10908:10936   */\n      and\n        /* \"#utility.yul\":10898:10936   */\n      swap1\n      pop\n        /* \"#utility.yul\":10888:10942   */\n      swap2\n      swap1\n      pop\n      jump\t// out\n        /* \"#utility.yul\":10948:11066   */\n    tag_107:\n        /* \"#utility.yul\":11019:11041   */\n      tag_213\n        /* \"#utility.yul\":11035:11040   */\n      dup2\n        /* \"#utility.yul\":11019:11041   */\n      tag_158\n      jump\t// in\n    tag_213:\n        /* \"#utility.yul\":11012:11017   */\n      dup2\n        /* \"#utility.yul\":11009:11042   */\n      eq\n        /* \"#utility.yul\":10999:11001   */\n      tag_214\n      jumpi\n        /* \"#utility.yul\":11056:11057   */\n      0x00\n        /* \"#utility.yul\":11053:11054   */\n      dup1\n        /* \"#utility.yul\":11046:11058   */\n      revert\n        /* \"#utility.yul\":10999:11001   */\n    tag_214:\n        /* \"#utility.yul\":10989:11066   */\n      pop\n      jump\t// out\n\n    auxdata: 0xa264697066735822122058c973f695e3104a4750a71c2b9a9bb98ad550b5a2558dcfeb370f3787296ee764736f6c63430008000033\n}\n",
				"bytecode": {
					"linkReferences": {},
					"object": "608060405234801561001057600080fd5b50336000806101000a81548173ffffffffffffffffffffffffffffffffffffffff021916908373ffffffffffffffffffffffffffffffffffffffff160217905550610ccf806100606000396000f3fe608060405234801561001057600080fd5b50600436106100935760003560e01c8063713d87c511610066578063713d87c51461010e5780638da5cb5b1461013e578063ac4bd53a1461015c578063c94ca9e31461017a578063e494a8831461019857610093565b80632d78d8e51461009857806337ad98ec146100b657806359f78468146100e657806369b36bd4146100f0575b600080fd5b6100a06101b4565b6040516100ad9190610a41565b60405180910390f35b6100d060048036038101906100cb91906106f8565b6101b9565b6040516100dd919061098b565b60405180910390f35b6100ee6101ef565b005b6100f861029a565b6040516101059190610a41565b60405180910390f35b6101286004803603810190610123919061077a565b61029f565b6040516101359190610a41565b60405180910390f35b6101466102bf565b6040516101539190610970565b60405180910390f35b6101646102e3565b6040516101719190610a41565b60405180910390f35b6101826103b7565b60405161018f919061098b565b60405180910390f35b6101b260048036038101906101ad9190610739565b6103ca565b005b600281565b6002818051602081018201805184825260208301602085012081835280955050505050506000915054906101000a900460ff1681565b600060149054906101000a900460ff161561023f576040517f08c379a0000000000000000000000000000000000000000000000000000000008152600401610236906109a6565b60405180910390fd5b6001600060146101000a81548160ff0219169083151502179055507faacb23683ec1a0e9b52f9a6264edf58ad322ac62079d65ea7363a2d400f439f46102836102e3565b6040516102909190610a26565b60405180910390a1565b600181565b60016020528060005260406000206000915054906101000a900460ff1681565b60008054906101000a900473ffffffffffffffffffffffffffffffffffffffff1681565b600060016000600260ff1660ff16815260200190815260200160002060009054906101000a900460ff1660ff1660016000600160ff1660ff16815260200190815260200160002060009054906101000a900460ff1660ff16111561034a57600190506103b4565b60016000600160ff1660ff16815260200190815260200160002060009054906101000a900460ff1660ff1660016000600260ff1660ff16815260200190815260200160002060009054906101000a900460ff1660ff1611156103af57600290506103b4565b600090505b90565b600060149054906101000a900460ff1681565b600060149054906101000a900460ff161561041a576040517f08c379a0000000000000000000000000000000000000000000000000000000008152600401610411906109a6565b60405180910390fd5b600081606001602081019061042f919061077a565b60ff1611610472576040517f08c379a000000000000000000000000000000000000000000000000000000000815260040161046990610a06565b60405180910390fd5b8060400135816020013514156104bd576040517f08c379a00000000000000000000000000000000000000000000000000000000081526004016104b4906109e6565b60405180910390fd5b60028180600001906104cf9190610a9c565b6040516104dd929190610957565b908152602001604051809103902060009054906101000a900460ff1615610539576040517f08c379a0000000000000000000000000000000000000000000000000000000008152600401610530906109c6565b60405180910390fd5b60008160400135826020013511156105545760019050610559565b600290505b81606001602081019061056c919061077a565b600160008360ff1660ff16815260200190815260200160002060008282829054906101000a900460ff166105a09190610b70565b92506101000a81548160ff021916908360ff160217905550600160028380600001906105cc9190610a9c565b6040516105da929190610957565b908152602001604051809103902060006101000a81548160ff0219169083151502179055507fa2e71fe38f1afa3762cf9d2ea7bb6a4d272a90fd6f9392f3acedd3b542046b4681836060016020810190610634919061077a565b8480600001906106449190610a9c565b6040516106549493929190610a5c565b60405180910390a15050565b600061067361066e84610b24565b610af3565b90508281526020810184848401111561068b57600080fd5b610696848285610c04565b509392505050565b600082601f8301126106af57600080fd5b81356106bf848260208601610660565b91505092915050565b6000608082840312156106da57600080fd5b81905092915050565b6000813590506106f281610c82565b92915050565b60006020828403121561070a57600080fd5b600082013567ffffffffffffffff81111561072457600080fd5b6107308482850161069e565b91505092915050565b60006020828403121561074b57600080fd5b600082013567ffffffffffffffff81111561076557600080fd5b610771848285016106c8565b91505092915050565b60006020828403121561078c57600080fd5b600061079a848285016106e3565b91505092915050565b6107ac81610ba7565b82525050565b6107bb81610bb9565b82525050565b60006107cd8385610b54565b93506107da838584610c04565b6107e383610c71565b840190509392505050565b60006107fa8385610b65565b9350610807838584610c04565b82840190509392505050565b6000610820601e83610b54565b91507f54686520656c656374696f6e2068617320656e64656420616c726561647900006000830152602082019050919050565b6000610860602983610b54565b91507f416c7265616479207375626d697474656420726573756c747320666f7220746860008301527f69732073746174652100000000000000000000000000000000000000000000006020830152604082019050919050565b60006108c6601583610b54565b91507f54686572652063616e6e6f7420626520612074696500000000000000000000006000830152602082019050919050565b6000610906602083610b54565b91507f537461746573206d7573742068617665206174206c65617374203120736561746000830152602082019050919050565b61094281610bf2565b82525050565b61095181610be5565b82525050565b60006109648284866107ee565b91508190509392505050565b600060208201905061098560008301846107a3565b92915050565b60006020820190506109a060008301846107b2565b92915050565b600060208201905081810360008301526109bf81610813565b9050919050565b600060208201905081810360008301526109df81610853565b9050919050565b600060208201905081810360008301526109ff816108b9565b9050919050565b60006020820190508181036000830152610a1f816108f9565b9050919050565b6000602082019050610a3b6000830184610939565b92915050565b6000602082019050610a566000830184610948565b92915050565b6000606082019050610a716000830187610948565b610a7e6020830186610948565b8181036040830152610a918184866107c1565b905095945050505050565b60008083356001602003843603038112610ab557600080fd5b80840192508235915067ffffffffffffffff821115610ad357600080fd5b602083019250600182023603831315610aeb57600080fd5b509250929050565b6000604051905081810181811067ffffffffffffffff82111715610b1a57610b19610c42565b5b8060405250919050565b600067ffffffffffffffff821115610b3f57610b3e610c42565b5b601f19601f8301169050602081019050919050565b600082825260208201905092915050565b600081905092915050565b6000610b7b82610be5565b9150610b8683610be5565b92508260ff03821115610b9c57610b9b610c13565b5b828201905092915050565b6000610bb282610bc5565b9050919050565b60008115159050919050565b600073ffffffffffffffffffffffffffffffffffffffff82169050919050565b600060ff82169050919050565b6000610bfd82610be5565b9050919050565b82818337600083830152505050565b7f4e487b7100000000000000000000000000000000000000000000000000000000600052601160045260246000fd5b7f4e487b7100000000000000000000000000000000000000000000000000000000600052604160045260246000fd5b6000601f19601f8301169050919050565b610c8b81610be5565b8114610c9657600080fd5b5056fea264697066735822122058c973f695e3104a4750a71c2b9a9bb98ad550b5a2558dcfeb370f3787296ee764736f6c63430008000033",
					"opcodes": "PUSH1 0x80 PUSH1 0x40 MSTORE CALLVALUE DUP1 ISZERO PUSH2 0x10 JUMPI PUSH1 0x0 DUP1 REVERT JUMPDEST POP CALLER PUSH1 0x0 DUP1 PUSH2 0x100 EXP DUP2 SLOAD DUP2 PUSH20 0xFFFFFFFFFFFFFFFFFFFFFFFFFFFFFFFFFFFFFFFF MUL NOT AND SWAP1 DUP4 PUSH20 0xFFFFFFFFFFFFFFFFFFFFFFFFFFFFFFFFFFFFFFFF AND MUL OR SWAP1 SSTORE POP PUSH2 0xCCF DUP1 PUSH2 0x60 PUSH1 0x0 CODECOPY PUSH1 0x0 RETURN INVALID PUSH1 0x80 PUSH1 0x40 MSTORE CALLVALUE DUP1 ISZERO PUSH2 0x10 JUMPI PUSH1 0x0 DUP1 REVERT JUMPDEST POP PUSH1 0x4 CALLDATASIZE LT PUSH2 0x93 JUMPI PUSH1 0x0 CALLDATALOAD PUSH1 0xE0 SHR DUP1 PUSH4 0x713D87C5 GT PUSH2 0x66 JUMPI DUP1 PUSH4 0x713D87C5 EQ PUSH2 0x10E JUMPI DUP1 PUSH4 0x8DA5CB5B EQ PUSH2 0x13E JUMPI DUP1 PUSH4 0xAC4BD53A EQ PUSH2 0x15C JUMPI DUP1 PUSH4 0xC94CA9E3 EQ PUSH2 0x17A JUMPI DUP1 PUSH4 0xE494A883 EQ PUSH2 0x198 JUMPI PUSH2 0x93 JUMP JUMPDEST DUP1 PUSH4 0x2D78D8E5 EQ PUSH2 0x98 JUMPI DUP1 PUSH4 0x37AD98EC EQ PUSH2 0xB6 JUMPI DUP1 PUSH4 0x59F78468 EQ PUSH2 0xE6 JUMPI DUP1 PUSH4 0x69B36BD4 EQ PUSH2 0xF0 JUMPI JUMPDEST PUSH1 0x0 DUP1 REVERT JUMPDEST PUSH2 0xA0 PUSH2 0x1B4 JUMP JUMPDEST PUSH1 0x40 MLOAD PUSH2 0xAD SWAP2 SWAP1 PUSH2 0xA41 JUMP JUMPDEST PUSH1 0x40 MLOAD DUP1 SWAP2 SUB SWAP1 RETURN JUMPDEST PUSH2 0xD0 PUSH1 0x4 DUP1 CALLDATASIZE SUB DUP2 ADD SWAP1 PUSH2 0xCB SWAP2 SWAP1 PUSH2 0x6F8 JUMP JUMPDEST PUSH2 0x1B9 JUMP JUMPDEST PUSH1 0x40 MLOAD PUSH2 0xDD SWAP2 SWAP1 PUSH2 0x98B JUMP JUMPDEST PUSH1 0x40 MLOAD DUP1 SWAP2 SUB SWAP1 RETURN JUMPDEST PUSH2 0xEE PUSH2 0x1EF JUMP JUMPDEST STOP JUMPDEST PUSH2 0xF8 PUSH2 0x29A JUMP JUMPDEST PUSH1 0x40 MLOAD PUSH2 0x105 SWAP2 SWAP1 PUSH2 0xA41 JUMP JUMPDEST PUSH1 0x40 MLOAD DUP1 SWAP2 SUB SWAP1 RETURN JUMPDEST PUSH2 0x128 PUSH1 0x4 DUP1 CALLDATASIZE SUB DUP2 ADD SWAP1 PUSH2 0x123 SWAP2 SWAP1 PUSH2 0x77A JUMP JUMPDEST PUSH2 0x29F JUMP JUMPDEST PUSH1 0x40 MLOAD PUSH2 0x135 SWAP2 SWAP1 PUSH2 0xA41 JUMP JUMPDEST PUSH1 0x40 MLOAD DUP1 SWAP2 SUB SWAP1 RETURN JUMPDEST PUSH2 0x146 PUSH2 0x2BF JUMP JUMPDEST PUSH1 0x40 MLOAD PUSH2 0x153 SWAP2 SWAP1 PUSH2 0x970 JUMP JUMPDEST PUSH1 0x40 MLOAD DUP1 SWAP2 SUB SWAP1 RETURN JUMPDEST PUSH2 0x164 PUSH2 0x2E3 JUMP JUMPDEST PUSH1 0x40 MLOAD PUSH2 0x171 SWAP2 SWAP1 PUSH2 0xA41 JUMP JUMPDEST PUSH1 0x40 MLOAD DUP1 SWAP2 SUB SWAP1 RETURN JUMPDEST PUSH2 0x182 PUSH2 0x3B7 JUMP JUMPDEST PUSH1 0x40 MLOAD PUSH2 0x18F SWAP2 SWAP1 PUSH2 0x98B JUMP JUMPDEST PUSH1 0x40 MLOAD DUP1 SWAP2 SUB SWAP1 RETURN JUMPDEST PUSH2 0x1B2 PUSH1 0x4 DUP1 CALLDATASIZE SUB DUP2 ADD SWAP1 PUSH2 0x1AD SWAP2 SWAP1 PUSH2 0x739 JUMP JUMPDEST PUSH2 0x3CA JUMP JUMPDEST STOP JUMPDEST PUSH1 0x2 DUP2 JUMP JUMPDEST PUSH1 0x2 DUP2 DUP1 MLOAD PUSH1 0x20 DUP2 ADD DUP3 ADD DUP1 MLOAD DUP5 DUP3 MSTORE PUSH1 0x20 DUP4 ADD PUSH1 0x20 DUP6 ADD KECCAK256 DUP2 DUP4 MSTORE DUP1 SWAP6 POP POP POP POP POP POP PUSH1 0x0 SWAP2 POP SLOAD SWAP1 PUSH2 0x100 EXP SWAP1 DIV PUSH1 0xFF AND DUP2 JUMP JUMPDEST PUSH1 0x0 PUSH1 0x14 SWAP1 SLOAD SWAP1 PUSH2 0x100 EXP SWAP1 DIV PUSH1 0xFF AND ISZERO PUSH2 0x23F JUMPI PUSH1 0x40 MLOAD PUSH32 0x8C379A000000000000000000000000000000000000000000000000000000000 DUP2 MSTORE PUSH1 0x4 ADD PUSH2 0x236 SWAP1 PUSH2 0x9A6 JUMP JUMPDEST PUSH1 0x40 MLOAD DUP1 SWAP2 SUB SWAP1 REVERT JUMPDEST PUSH1 0x1 PUSH1 0x0 PUSH1 0x14 PUSH2 0x100 EXP DUP2 SLOAD DUP2 PUSH1 0xFF MUL NOT AND SWAP1 DUP4 ISZERO ISZERO MUL OR SWAP1 SSTORE POP PUSH32 0xAACB23683EC1A0E9B52F9A6264EDF58AD322AC62079D65EA7363A2D400F439F4 PUSH2 0x283 PUSH2 0x2E3 JUMP JUMPDEST PUSH1 0x40 MLOAD PUSH2 0x290 SWAP2 SWAP1 PUSH2 0xA26 JUMP JUMPDEST PUSH1 0x40 MLOAD DUP1 SWAP2 SUB SWAP1 LOG1 JUMP JUMPDEST PUSH1 0x1 DUP2 JUMP JUMPDEST PUSH1 0x1 PUSH1 0x20 MSTORE DUP1 PUSH1 0x0 MSTORE PUSH1 0x40 PUSH1 0x0 KECCAK256 PUSH1 0x0 SWAP2 POP SLOAD SWAP1 PUSH2 0x100 EXP SWAP1 DIV PUSH1 0xFF AND DUP2 JUMP JUMPDEST PUSH1 0x0 DUP1 SLOAD SWAP1 PUSH2 0x100 EXP SWAP1 DIV PUSH20 0xFFFFFFFFFFFFFFFFFFFFFFFFFFFFFFFFFFFFFFFF AND DUP2 JUMP JUMPDEST PUSH1 0x0 PUSH1 0x1 PUSH1 0x0 PUSH1 0x2 PUSH1 0xFF AND PUSH1 0xFF AND DUP2 MSTORE PUSH1 0x20 ADD SWAP1 DUP2 MSTORE PUSH1 0x20 ADD PUSH1 0x0 KECCAK256 PUSH1 0x0 SWAP1 SLOAD SWAP1 PUSH2 0x100 EXP SWAP1 DIV PUSH1 0xFF AND PUSH1 0xFF AND PUSH1 0x1 PUSH1 0x0 PUSH1 0x1 PUSH1 0xFF AND PUSH1 0xFF AND DUP2 MSTORE PUSH1 0x20 ADD SWAP1 DUP2 MSTORE PUSH1 0x20 ADD PUSH1 0x0 KECCAK256 PUSH1 0x0 SWAP1 SLOAD SWAP1 PUSH2 0x100 EXP SWAP1 DIV PUSH1 0xFF AND PUSH1 0xFF AND GT ISZERO PUSH2 0x34A JUMPI PUSH1 0x1 SWAP1 POP PUSH2 0x3B4 JUMP JUMPDEST PUSH1 0x1 PUSH1 0x0 PUSH1 0x1 PUSH1 0xFF AND PUSH1 0xFF AND DUP2 MSTORE PUSH1 0x20 ADD SWAP1 DUP2 MSTORE PUSH1 0x20 ADD PUSH1 0x0 KECCAK256 PUSH1 0x0 SWAP1 SLOAD SWAP1 PUSH2 0x100 EXP SWAP1 DIV PUSH1 0xFF AND PUSH1 0xFF AND PUSH1 0x1 PUSH1 0x0 PUSH1 0x2 PUSH1 0xFF AND PUSH1 0xFF AND DUP2 MSTORE PUSH1 0x20 ADD SWAP1 DUP2 MSTORE PUSH1 0x20 ADD PUSH1 0x0 KECCAK256 PUSH1 0x0 SWAP1 SLOAD SWAP1 PUSH2 0x100 EXP SWAP1 DIV PUSH1 0xFF AND PUSH1 0xFF AND GT ISZERO PUSH2 0x3AF JUMPI PUSH1 0x2 SWAP1 POP PUSH2 0x3B4 JUMP JUMPDEST PUSH1 0x0 SWAP1 POP JUMPDEST SWAP1 JUMP JUMPDEST PUSH1 0x0 PUSH1 0x14 SWAP1 SLOAD SWAP1 PUSH2 0x100 EXP SWAP1 DIV PUSH1 0xFF AND DUP2 JUMP JUMPDEST PUSH1 0x0 PUSH1 0x14 SWAP1 SLOAD SWAP1 PUSH2 0x100 EXP SWAP1 DIV PUSH1 0xFF AND ISZERO PUSH2 0x41A JUMPI PUSH1 0x40 MLOAD PUSH32 0x8C379A000000000000000000000000000000000000000000000000000000000 DUP2 MSTORE PUSH1 0x4 ADD PUSH2 0x411 SWAP1 PUSH2 0x9A6 JUMP JUMPDEST PUSH1 0x40 MLOAD DUP1 SWAP2 SUB SWAP1 REVERT JUMPDEST PUSH1 0x0 DUP2 PUSH1 0x60 ADD PUSH1 0x20 DUP2 ADD SWAP1 PUSH2 0x42F SWAP2 SWAP1 PUSH2 0x77A JUMP JUMPDEST PUSH1 0xFF AND GT PUSH2 0x472 JUMPI PUSH1 0x40 MLOAD PUSH32 0x8C379A000000000000000000000000000000000000000000000000000000000 DUP2 MSTORE PUSH1 0x4 ADD PUSH2 0x469 SWAP1 PUSH2 0xA06 JUMP JUMPDEST PUSH1 0x40 MLOAD DUP1 SWAP2 SUB SWAP1 REVERT JUMPDEST DUP1 PUSH1 0x40 ADD CALLDATALOAD DUP2 PUSH1 0x20 ADD CALLDATALOAD EQ ISZERO PUSH2 0x4BD JUMPI PUSH1 0x40 MLOAD PUSH32 0x8C379A000000000000000000000000000000000000000000000000000000000 DUP2 MSTORE PUSH1 0x4 ADD PUSH2 0x4B4 SWAP1 PUSH2 0x9E6 JUMP JUMPDEST PUSH1 0x40 MLOAD DUP1 SWAP2 SUB SWAP1 REVERT JUMPDEST PUSH1 0x2 DUP2 DUP1 PUSH1 0x0 ADD SWAP1 PUSH2 0x4CF SWAP2 SWAP1 PUSH2 0xA9C JUMP JUMPDEST PUSH1 0x40 MLOAD PUSH2 0x4DD SWAP3 SWAP2 SWAP1 PUSH2 0x957 JUMP JUMPDEST SWAP1 DUP2 MSTORE PUSH1 0x20 ADD PUSH1 0x40 MLOAD DUP1 SWAP2 SUB SWAP1 KECCAK256 PUSH1 0x0 SWAP1 SLOAD SWAP1 PUSH2 0x100 EXP SWAP1 DIV PUSH1 0xFF AND ISZERO PUSH2 0x539 JUMPI PUSH1 0x40 MLOAD PUSH32 0x8C379A000000000000000000000000000000000000000000000000000000000 DUP2 MSTORE PUSH1 0x4 ADD PUSH2 0x530 SWAP1 PUSH2 0x9C6 JUMP JUMPDEST PUSH1 0x40 MLOAD DUP1 SWAP2 SUB SWAP1 REVERT JUMPDEST PUSH1 0x0 DUP2 PUSH1 0x40 ADD CALLDATALOAD DUP3 PUSH1 0x20 ADD CALLDATALOAD GT ISZERO PUSH2 0x554 JUMPI PUSH1 0x1 SWAP1 POP PUSH2 0x559 JUMP JUMPDEST PUSH1 0x2 SWAP1 POP JUMPDEST DUP2 PUSH1 0x60 ADD PUSH1 0x20 DUP2 ADD SWAP1 PUSH2 0x56C SWAP2 SWAP1 PUSH2 0x77A JUMP JUMPDEST PUSH1 0x1 PUSH1 0x0 DUP4 PUSH1 0xFF AND PUSH1 0xFF AND DUP2 MSTORE PUSH1 0x20 ADD SWAP1 DUP2 MSTORE PUSH1 0x20 ADD PUSH1 0x0 KECCAK256 PUSH1 0x0 DUP3 DUP3 DUP3 SWAP1 SLOAD SWAP1 PUSH2 0x100 EXP SWAP1 DIV PUSH1 0xFF AND PUSH2 0x5A0 SWAP2 SWAP1 PUSH2 0xB70 JUMP JUMPDEST SWAP3 POP PUSH2 0x100 EXP DUP2 SLOAD DUP2 PUSH1 0xFF MUL NOT AND SWAP1 DUP4 PUSH1 0xFF AND MUL OR SWAP1 SSTORE POP PUSH1 0x1 PUSH1 0x2 DUP4 DUP1 PUSH1 0x0 ADD SWAP1 PUSH2 0x5CC SWAP2 SWAP1 PUSH2 0xA9C JUMP JUMPDEST PUSH1 0x40 MLOAD PUSH2 0x5DA SWAP3 SWAP2 SWAP1 PUSH2 0x957 JUMP JUMPDEST SWAP1 DUP2 MSTORE PUSH1 0x20 ADD PUSH1 0x40 MLOAD DUP1 SWAP2 SUB SWAP1 KECCAK256 PUSH1 0x0 PUSH2 0x100 EXP DUP2 SLOAD DUP2 PUSH1 0xFF MUL NOT AND SWAP1 DUP4 ISZERO ISZERO MUL OR SWAP1 SSTORE POP PUSH32 0xA2E71FE38F1AFA3762CF9D2EA7BB6A4D272A90FD6F9392F3ACEDD3B542046B46 DUP2 DUP4 PUSH1 0x60 ADD PUSH1 0x20 DUP2 ADD SWAP1 PUSH2 0x634 SWAP2 SWAP1 PUSH2 0x77A JUMP JUMPDEST DUP5 DUP1 PUSH1 0x0 ADD SWAP1 PUSH2 0x644 SWAP2 SWAP1 PUSH2 0xA9C JUMP JUMPDEST PUSH1 0x40 MLOAD PUSH2 0x654 SWAP5 SWAP4 SWAP3 SWAP2 SWAP1 PUSH2 0xA5C JUMP JUMPDEST PUSH1 0x40 MLOAD DUP1 SWAP2 SUB SWAP1 LOG1 POP POP JUMP JUMPDEST PUSH1 0x0 PUSH2 0x673 PUSH2 0x66E DUP5 PUSH2 0xB24 JUMP JUMPDEST PUSH2 0xAF3 JUMP JUMPDEST SWAP1 POP DUP3 DUP2 MSTORE PUSH1 0x20 DUP2 ADD DUP5 DUP5 DUP5 ADD GT ISZERO PUSH2 0x68B JUMPI PUSH1 0x0 DUP1 REVERT JUMPDEST PUSH2 0x696 DUP5 DUP3 DUP6 PUSH2 0xC04 JUMP JUMPDEST POP SWAP4 SWAP3 POP POP POP JUMP JUMPDEST PUSH1 0x0 DUP3 PUSH1 0x1F DUP4 ADD SLT PUSH2 0x6AF JUMPI PUSH1 0x0 DUP1 REVERT JUMPDEST DUP2 CALLDATALOAD PUSH2 0x6BF DUP5 DUP3 PUSH1 0x20 DUP7 ADD PUSH2 0x660 JUMP JUMPDEST SWAP2 POP POP SWAP3 SWAP2 POP POP JUMP JUMPDEST PUSH1 0x0 PUSH1 0x80 DUP3 DUP5 SUB SLT ISZERO PUSH2 0x6DA JUMPI PUSH1 0x0 DUP1 REVERT JUMPDEST DUP2 SWAP1 POP SWAP3 SWAP2 POP POP JUMP JUMPDEST PUSH1 0x0 DUP2 CALLDATALOAD SWAP1 POP PUSH2 0x6F2 DUP2 PUSH2 0xC82 JUMP JUMPDEST SWAP3 SWAP2 POP POP JUMP JUMPDEST PUSH1 0x0 PUSH1 0x20 DUP3 DUP5 SUB SLT ISZERO PUSH2 0x70A JUMPI PUSH1 0x0 DUP1 REVERT JUMPDEST PUSH1 0x0 DUP3 ADD CALLDATALOAD PUSH8 0xFFFFFFFFFFFFFFFF DUP2 GT ISZERO PUSH2 0x724 JUMPI PUSH1 0x0 DUP1 REVERT JUMPDEST PUSH2 0x730 DUP5 DUP3 DUP6 ADD PUSH2 0x69E JUMP JUMPDEST SWAP2 POP POP SWAP3 SWAP2 POP POP JUMP JUMPDEST PUSH1 0x0 PUSH1 0x20 DUP3 DUP5 SUB SLT ISZERO PUSH2 0x74B JUMPI PUSH1 0x0 DUP1 REVERT JUMPDEST PUSH1 0x0 DUP3 ADD CALLDATALOAD PUSH8 0xFFFFFFFFFFFFFFFF DUP2 GT ISZERO PUSH2 0x765 JUMPI PUSH1 0x0 DUP1 REVERT JUMPDEST PUSH2 0x771 DUP5 DUP3 DUP6 ADD PUSH2 0x6C8 JUMP JUMPDEST SWAP2 POP POP SWAP3 SWAP2 POP POP JUMP JUMPDEST PUSH1 0x0 PUSH1 0x20 DUP3 DUP5 SUB SLT ISZERO PUSH2 0x78C JUMPI PUSH1 0x0 DUP1 REVERT JUMPDEST PUSH1 0x0 PUSH2 0x79A DUP5 DUP3 DUP6 ADD PUSH2 0x6E3 JUMP JUMPDEST SWAP2 POP POP SWAP3 SWAP2 POP POP JUMP JUMPDEST PUSH2 0x7AC DUP2 PUSH2 0xBA7 JUMP JUMPDEST DUP3 MSTORE POP POP JUMP JUMPDEST PUSH2 0x7BB DUP2 PUSH2 0xBB9 JUMP JUMPDEST DUP3 MSTORE POP POP JUMP JUMPDEST PUSH1 0x0 PUSH2 0x7CD DUP4 DUP6 PUSH2 0xB54 JUMP JUMPDEST SWAP4 POP PUSH2 0x7DA DUP4 DUP6 DUP5 PUSH2 0xC04 JUMP JUMPDEST PUSH2 0x7E3 DUP4 PUSH2 0xC71 JUMP JUMPDEST DUP5 ADD SWAP1 POP SWAP4 SWAP3 POP POP POP JUMP JUMPDEST PUSH1 0x0 PUSH2 0x7FA DUP4 DUP6 PUSH2 0xB65 JUMP JUMPDEST SWAP4 POP PUSH2 0x807 DUP4 DUP6 DUP5 PUSH2 0xC04 JUMP JUMPDEST DUP3 DUP5 ADD SWAP1 POP SWAP4 SWAP3 POP POP POP JUMP JUMPDEST PUSH1 0x0 PUSH2 0x820 PUSH1 0x1E DUP4 PUSH2 0xB54 JUMP JUMPDEST SWAP2 POP PUSH32 0x54686520656C656374696F6E2068617320656E64656420616C72656164790000 PUSH1 0x0 DUP4 ADD MSTORE PUSH1 0x20 DUP3 ADD SWAP1 POP SWAP2 SWAP1 POP JUMP JUMPDEST PUSH1 0x0 PUSH2 0x860 PUSH1 0x29 DUP4 PUSH2 0xB54 JUMP JUMPDEST SWAP2 POP PUSH32 0x416C7265616479207375626D697474656420726573756C747320666F72207468 PUSH1 0x0 DUP4 ADD MSTORE PUSH32 0x6973207374617465210000000000000000000000000000000000000000000000 PUSH1 0x20 DUP4 ADD MSTORE PUSH1 0x40 DUP3 ADD SWAP1 POP SWAP2 SWAP1 POP JUMP JUMPDEST PUSH1 0x0 PUSH2 0x8C6 PUSH1 0x15 DUP4 PUSH2 0xB54 JUMP JUMPDEST SWAP2 POP PUSH32 0x54686572652063616E6E6F742062652061207469650000000000000000000000 PUSH1 0x0 DUP4 ADD MSTORE PUSH1 0x20 DUP3 ADD SWAP1 POP SWAP2 SWAP1 POP JUMP JUMPDEST PUSH1 0x0 PUSH2 0x906 PUSH1 0x20 DUP4 PUSH2 0xB54 JUMP JUMPDEST SWAP2 POP PUSH32 0x537461746573206D7573742068617665206174206C6561737420312073656174 PUSH1 0x0 DUP4 ADD MSTORE PUSH1 0x20 DUP3 ADD SWAP1 POP SWAP2 SWAP1 POP JUMP JUMPDEST PUSH2 0x942 DUP2 PUSH2 0xBF2 JUMP JUMPDEST DUP3 MSTORE POP POP JUMP JUMPDEST PUSH2 0x951 DUP2 PUSH2 0xBE5 JUMP JUMPDEST DUP3 MSTORE POP POP JUMP JUMPDEST PUSH1 0x0 PUSH2 0x964 DUP3 DUP5 DUP7 PUSH2 0x7EE JUMP JUMPDEST SWAP2 POP DUP2 SWAP1 POP SWAP4 SWAP3 POP POP POP JUMP JUMPDEST PUSH1 0x0 PUSH1 0x20 DUP3 ADD SWAP1 POP PUSH2 0x985 PUSH1 0x0 DUP4 ADD DUP5 PUSH2 0x7A3 JUMP JUMPDEST SWAP3 SWAP2 POP POP JUMP JUMPDEST PUSH1 0x0 PUSH1 0x20 DUP3 ADD SWAP1 POP PUSH2 0x9A0 PUSH1 0x0 DUP4 ADD DUP5 PUSH2 0x7B2 JUMP JUMPDEST SWAP3 SWAP2 POP POP JUMP JUMPDEST PUSH1 0x0 PUSH1 0x20 DUP3 ADD SWAP1 POP DUP2 DUP2 SUB PUSH1 0x0 DUP4 ADD MSTORE PUSH2 0x9BF DUP2 PUSH2 0x813 JUMP JUMPDEST SWAP1 POP SWAP2 SWAP1 POP JUMP JUMPDEST PUSH1 0x0 PUSH1 0x20 DUP3 ADD SWAP1 POP DUP2 DUP2 SUB PUSH1 0x0 DUP4 ADD MSTORE PUSH2 0x9DF DUP2 PUSH2 0x853 JUMP JUMPDEST SWAP1 POP SWAP2 SWAP1 POP JUMP JUMPDEST PUSH1 0x0 PUSH1 0x20 DUP3 ADD SWAP1 POP DUP2 DUP2 SUB PUSH1 0x0 DUP4 ADD MSTORE PUSH2 0x9FF DUP2 PUSH2 0x8B9 JUMP JUMPDEST SWAP1 POP SWAP2 SWAP1 POP JUMP JUMPDEST PUSH1 0x0 PUSH1 0x20 DUP3 ADD SWAP1 POP DUP2 DUP2 SUB PUSH1 0x0 DUP4 ADD MSTORE PUSH2 0xA1F DUP2 PUSH2 0x8F9 JUMP JUMPDEST SWAP1 POP SWAP2 SWAP1 POP JUMP JUMPDEST PUSH1 0x0 PUSH1 0x20 DUP3 ADD SWAP1 POP PUSH2 0xA3B PUSH1 0x0 DUP4 ADD DUP5 PUSH2 0x939 JUMP JUMPDEST SWAP3 SWAP2 POP POP JUMP JUMPDEST PUSH1 0x0 PUSH1 0x20 DUP3 ADD SWAP1 POP PUSH2 0xA56 PUSH1 0x0 DUP4 ADD DUP5 PUSH2 0x948 JUMP JUMPDEST SWAP3 SWAP2 POP POP JUMP JUMPDEST PUSH1 0x0 PUSH1 0x60 DUP3 ADD SWAP1 POP PUSH2 0xA71 PUSH1 0x0 DUP4 ADD DUP8 PUSH2 0x948 JUMP JUMPDEST PUSH2 0xA7E PUSH1 0x20 DUP4 ADD DUP7 PUSH2 0x948 JUMP JUMPDEST DUP2 DUP2 SUB PUSH1 0x40 DUP4 ADD MSTORE PUSH2 0xA91 DUP2 DUP5 DUP7 PUSH2 0x7C1 JUMP JUMPDEST SWAP1 POP SWAP6 SWAP5 POP POP POP POP POP JUMP JUMPDEST PUSH1 0x0 DUP1 DUP4 CALLDATALOAD PUSH1 0x1 PUSH1 0x20 SUB DUP5 CALLDATASIZE SUB SUB DUP2 SLT PUSH2 0xAB5 JUMPI PUSH1 0x0 DUP1 REVERT JUMPDEST DUP1 DUP5 ADD SWAP3 POP DUP3 CALLDATALOAD SWAP2 POP PUSH8 0xFFFFFFFFFFFFFFFF DUP3 GT ISZERO PUSH2 0xAD3 JUMPI PUSH1 0x0 DUP1 REVERT JUMPDEST PUSH1 0x20 DUP4 ADD SWAP3 POP PUSH1 0x1 DUP3 MUL CALLDATASIZE SUB DUP4 SGT ISZERO PUSH2 0xAEB JUMPI PUSH1 0x0 DUP1 REVERT JUMPDEST POP SWAP3 POP SWAP3 SWAP1 POP JUMP JUMPDEST PUSH1 0x0 PUSH1 0x40 MLOAD SWAP1 POP DUP2 DUP2 ADD DUP2 DUP2 LT PUSH8 0xFFFFFFFFFFFFFFFF DUP3 GT OR ISZERO PUSH2 0xB1A JUMPI PUSH2 0xB19 PUSH2 0xC42 JUMP JUMPDEST JUMPDEST DUP1 PUSH1 0x40 MSTORE POP SWAP2 SWAP1 POP JUMP JUMPDEST PUSH1 0x0 PUSH8 0xFFFFFFFFFFFFFFFF DUP3 GT ISZERO PUSH2 0xB3F JUMPI PUSH2 0xB3E PUSH2 0xC42 JUMP JUMPDEST JUMPDEST PUSH1 0x1F NOT PUSH1 0x1F DUP4 ADD AND SWAP1 POP PUSH1 0x20 DUP2 ADD SWAP1 POP SWAP2 SWAP1 POP JUMP JUMPDEST PUSH1 0x0 DUP3 DUP3 MSTORE PUSH1 0x20 DUP3 ADD SWAP1 POP SWAP3 SWAP2 POP POP JUMP JUMPDEST PUSH1 0x0 DUP2 SWAP1 POP SWAP3 SWAP2 POP POP JUMP JUMPDEST PUSH1 0x0 PUSH2 0xB7B DUP3 PUSH2 0xBE5 JUMP JUMPDEST SWAP2 POP PUSH2 0xB86 DUP4 PUSH2 0xBE5 JUMP JUMPDEST SWAP3 POP DUP3 PUSH1 0xFF SUB DUP3 GT ISZERO PUSH2 0xB9C JUMPI PUSH2 0xB9B PUSH2 0xC13 JUMP JUMPDEST JUMPDEST DUP3 DUP3 ADD SWAP1 POP SWAP3 SWAP2 POP POP JUMP JUMPDEST PUSH1 0x0 PUSH2 0xBB2 DUP3 PUSH2 0xBC5 JUMP JUMPDEST SWAP1 POP SWAP2 SWAP1 POP JUMP JUMPDEST PUSH1 0x0 DUP2 ISZERO ISZERO SWAP1 POP SWAP2 SWAP1 POP JUMP JUMPDEST PUSH1 0x0 PUSH20 0xFFFFFFFFFFFFFFFFFFFFFFFFFFFFFFFFFFFFFFFF DUP3 AND SWAP1 POP SWAP2 SWAP1 POP JUMP JUMPDEST PUSH1 0x0 PUSH1 0xFF DUP3 AND SWAP1 POP SWAP2 SWAP1 POP JUMP JUMPDEST PUSH1 0x0 PUSH2 0xBFD DUP3 PUSH2 0xBE5 JUMP JUMPDEST SWAP1 POP SWAP2 SWAP1 POP JUMP JUMPDEST DUP3 DUP2 DUP4 CALLDATACOPY PUSH1 0x0 DUP4 DUP4 ADD MSTORE POP POP POP JUMP JUMPDEST PUSH32 0x4E487B7100000000000000000000000000000000000000000000000000000000 PUSH1 0x0 MSTORE PUSH1 0x11 PUSH1 0x4 MSTORE PUSH1 0x24 PUSH1 0x0 REVERT JUMPDEST PUSH32 0x4E487B7100000000000000000000000000000000000000000000000000000000 PUSH1 0x0 MSTORE PUSH1 0x41 PUSH1 0x4 MSTORE PUSH1 0x24 PUSH1 0x0 REVERT JUMPDEST PUSH1 0x0 PUSH1 0x1F NOT PUSH1 0x1F DUP4 ADD AND SWAP1 POP SWAP2 SWAP1 POP JUMP JUMPDEST PUSH2 0xC8B DUP2 PUSH2 0xBE5 JUMP JUMPDEST DUP2 EQ PUSH2 0xC96 JUMPI PUSH1 0x0 DUP1 REVERT JUMPDEST POP JUMP INVALID LOG2 PUSH5 0x6970667358 0x22 SLT KECCAK256 PC 0xC9 PUSH20 0xF695E3104A4750A71C2B9A9BB98AD550B5A2558D 0xCF 0xEB CALLDATACOPY 0xF CALLDATACOPY DUP8 0x29 PUSH15 0xE764736F6C63430008000033000000 "
				},
				"gasEstimates": {
					"creation": {
						"codeDepositCost": "655800",
						"executionCost": "21555",
						"totalCost": "677355"
					},
					"external": {
						"BIDEN()": "402",
						"TRUMP()": "336",
						"currentLeader()": "4178",
						"electionEnded()": "1287",
						"endElection()": "27078",
						"owner()": "1233",
						"resultsSubmitted(string)": "infinite",
						"seats(uint8)": "infinite",
						"submitStateResult((string,uint256,uint256,uint8))": "infinite"
					}
				},
				"methodIdentifiers": {
					"BIDEN()": "69b36bd4",
					"TRUMP()": "2d78d8e5",
					"currentLeader()": "ac4bd53a",
					"electionEnded()": "c94ca9e3",
					"endElection()": "59f78468",
					"owner()": "8da5cb5b",
					"resultsSubmitted(string)": "37ad98ec",
					"seats(uint8)": "713d87c5",
					"submitStateResult((string,uint256,uint256,uint8))": "e494a883"
				}
			},
			"userdoc": {
				"kind": "user",
				"methods": {},
				"version": 1
			}
		}
	}
}