{
	"Library.sol": {
		"Library": {
			"abi": [
				{
					"inputs": [],
					"stateMutability": "nonpayable",
					"type": "constructor"
				},
				{
					"inputs": [
						{
							"internalType": "string",
							"name": "bookName",
							"type": "string"
						},
						{
							"internalType": "uint256",
							"name": "quantity",
							"type": "uint256"
						}
					],
					"name": "AddBook",
					"outputs": [],
					"stateMutability": "nonpayable",
					"type": "function"
				},
				{
					"inputs": [
						{
							"internalType": "uint256",
							"name": "",
							"type": "uint256"
						},
						{
							"internalType": "uint256",
							"name": "",
							"type": "uint256"
						}
					],
					"name": "BookBorrowHistory",
					"outputs": [
						{
							"internalType": "address",
							"name": "",
							"type": "address"
						}
					],
					"stateMutability": "view",
					"type": "function"
				},
				{
					"inputs": [
						{
							"internalType": "uint256",
							"name": "bookId",
							"type": "uint256"
						}
					],
					"name": "BorrowBook",
					"outputs": [],
					"stateMutability": "nonpayable",
					"type": "function"
				},
				{
					"inputs": [
						{
							"internalType": "uint256",
							"name": "bookId",
							"type": "uint256"
						}
					],
					"name": "BorrowHistory",
					"outputs": [
						{
							"internalType": "address[]",
							"name": "",
							"type": "address[]"
						}
					],
					"stateMutability": "view",
					"type": "function"
				},
				{
					"inputs": [
						{
							"internalType": "address",
							"name": "",
							"type": "address"
						},
						{
							"internalType": "uint256",
							"name": "",
							"type": "uint256"
						}
					],
					"name": "ClientBorrowList",
					"outputs": [
						{
							"internalType": "uint256",
							"name": "",
							"type": "uint256"
						}
					],
					"stateMutability": "view",
					"type": "function"
				},
				{
					"inputs": [
						{
							"internalType": "uint256",
							"name": "",
							"type": "uint256"
						}
					],
					"name": "LibraryArchive",
					"outputs": [
						{
							"internalType": "uint256",
							"name": "id",
							"type": "uint256"
						},
						{
							"internalType": "string",
							"name": "name",
							"type": "string"
						},
						{
							"internalType": "uint256",
							"name": "quantity",
							"type": "uint256"
						},
						{
							"internalType": "bool",
							"name": "exists",
							"type": "bool"
						}
					],
					"stateMutability": "view",
					"type": "function"
				},
				{
					"inputs": [
						{
							"internalType": "uint256",
							"name": "bookId",
							"type": "uint256"
						}
					],
					"name": "ReturnBook",
					"outputs": [],
					"stateMutability": "nonpayable",
					"type": "function"
				},
				{
					"inputs": [],
					"name": "owner",
					"outputs": [
						{
							"internalType": "address",
							"name": "",
							"type": "address"
						}
					],
					"stateMutability": "view",
					"type": "function"
				}
			],
			"devdoc": {
				"kind": "dev",
				"methods": {},
				"version": 1
			},
			"evm": {
				"assembly": "    /* \"Library.sol\":88:2829  contract Library is Helpers{... */\n  mstore(0x40, 0x80)\n    /* \"Library.sol\":710:758  constructor(){... */\n  callvalue\n  dup1\n  iszero\n  tag_1\n  jumpi\n  0x00\n  dup1\n  revert\ntag_1:\n  pop\n    /* \"Library.sol\":741:751  msg.sender */\n  caller\n    /* \"Library.sol\":733:738  owner */\n  0x00\n  dup1\n    /* \"Library.sol\":733:751  owner = msg.sender */\n  0x0100\n  exp\n  dup2\n  sload\n  dup2\n  0xffffffffffffffffffffffffffffffffffffffff\n  mul\n  not\n  and\n  swap1\n  dup4\n  0xffffffffffffffffffffffffffffffffffffffff\n  and\n  mul\n  or\n  swap1\n  sstore\n  pop\n    /* \"Library.sol\":88:2829  contract Library is Helpers{... */\n  dataSize(sub_0)\n  dup1\n  dataOffset(sub_0)\n  0x00\n  codecopy\n  0x00\n  return\nstop\n\nsub_0: assembly {\n        /* \"Library.sol\":88:2829  contract Library is Helpers{... */\n      mstore(0x40, 0x80)\n      callvalue\n      dup1\n      iszero\n      tag_1\n      jumpi\n      0x00\n      dup1\n      revert\n    tag_1:\n      pop\n      jumpi(tag_2, lt(calldatasize, 0x04))\n      shr(0xe0, calldataload(0x00))\n      dup1\n      0x8da5cb5b\n      gt\n      tag_11\n      jumpi\n      dup1\n      0x8da5cb5b\n      eq\n      tag_7\n      jumpi\n      dup1\n      0x9649faa3\n      eq\n      tag_8\n      jumpi\n      dup1\n      0xb8dd17db\n      eq\n      tag_9\n      jumpi\n      dup1\n      0xe7e58ee9\n      eq\n      tag_10\n      jumpi\n      jump(tag_2)\n    tag_11:\n      dup1\n      0x265be2e2\n      eq\n      tag_3\n      jumpi\n      dup1\n      0x27e4671c\n      eq\n      tag_4\n      jumpi\n      dup1\n      0x2b3819fe\n      eq\n      tag_5\n      jumpi\n      dup1\n      0x84ab2e1a\n      eq\n      tag_6\n      jumpi\n    tag_2:\n      0x00\n      dup1\n      revert\n        /* \"Library.sol\":764:1334  function AddBook(string calldata bookName, uint quantity) public onlyOwnable{... */\n    tag_3:\n      tag_12\n      0x04\n      dup1\n      calldatasize\n      sub\n      dup2\n      add\n      swap1\n      tag_13\n      swap2\n      swap1\n      tag_14\n      jump\t// in\n    tag_13:\n      tag_15\n      jump\t// in\n    tag_12:\n      stop\n        /* \"Library.sol\":274:302  Book[] public LibraryArchive */\n    tag_4:\n      tag_16\n      0x04\n      dup1\n      calldatasize\n      sub\n      dup2\n      add\n      swap1\n      tag_17\n      swap2\n      swap1\n      tag_18\n      jump\t// in\n    tag_17:\n      tag_19\n      jump\t// in\n    tag_16:\n      mload(0x40)\n      tag_20\n      swap5\n      swap4\n      swap3\n      swap2\n      swap1\n      tag_21\n      jump\t// in\n    tag_20:\n      mload(0x40)\n      dup1\n      swap2\n      sub\n      swap1\n      return\n        /* \"Library.sol\":405:455  mapping(address => uint[]) public ClientBorrowList */\n    tag_5:\n      tag_22\n      0x04\n      dup1\n      calldatasize\n      sub\n      dup2\n      add\n      swap1\n      tag_23\n      swap2\n      swap1\n      tag_24\n      jump\t// in\n    tag_23:\n      tag_25\n      jump\t// in\n    tag_22:\n      mload(0x40)\n      tag_26\n      swap2\n      swap1\n      tag_27\n      jump\t// in\n    tag_26:\n      mload(0x40)\n      dup1\n      swap2\n      sub\n      swap1\n      return\n        /* \"Library.sol\":347:398  mapping(uint => address[]) public BookBorrowHistory */\n    tag_6:\n      tag_28\n      0x04\n      dup1\n      calldatasize\n      sub\n      dup2\n      add\n      swap1\n      tag_29\n      swap2\n      swap1\n      tag_30\n      jump\t// in\n    tag_29:\n      tag_31\n      jump\t// in\n    tag_28:\n      mload(0x40)\n      tag_32\n      swap2\n      swap1\n      tag_33\n      jump\t// in\n    tag_32:\n      mload(0x40)\n      dup1\n      swap2\n      sub\n      swap1\n      return\n        /* \"Library.sol\":121:141  address public owner */\n    tag_7:\n      tag_34\n      tag_35\n      jump\t// in\n    tag_34:\n      mload(0x40)\n      tag_36\n      swap2\n      swap1\n      tag_33\n      jump\t// in\n    tag_36:\n      mload(0x40)\n      dup1\n      swap2\n      sub\n      swap1\n      return\n        /* \"Library.sol\":1340:1955  function BorrowBook(uint bookId) public shouldExist(bookId){    ... */\n    tag_8:\n      tag_37\n      0x04\n      dup1\n      calldatasize\n      sub\n      dup2\n      add\n      swap1\n      tag_38\n      swap2\n      swap1\n      tag_18\n      jump\t// in\n    tag_38:\n      tag_39\n      jump\t// in\n    tag_37:\n      stop\n        /* \"Library.sol\":1961:2390  function ReturnBook(uint bookId) public shouldExist(bookId){... */\n    tag_9:\n      tag_40\n      0x04\n      dup1\n      calldatasize\n      sub\n      dup2\n      add\n      swap1\n      tag_41\n      swap2\n      swap1\n      tag_18\n      jump\t// in\n    tag_41:\n      tag_42\n      jump\t// in\n    tag_40:\n      stop\n        /* \"Library.sol\":2396:2539  function BorrowHistory(uint bookId) public view shouldExist(bookId) returns (address[] memory){... */\n    tag_10:\n      tag_43\n      0x04\n      dup1\n      calldatasize\n      sub\n      dup2\n      add\n      swap1\n      tag_44\n      swap2\n      swap1\n      tag_18\n      jump\t// in\n    tag_44:\n      tag_45\n      jump\t// in\n    tag_43:\n      mload(0x40)\n      tag_46\n      swap2\n      swap1\n      tag_47\n      jump\t// in\n    tag_46:\n      mload(0x40)\n      dup1\n      swap2\n      sub\n      swap1\n      return\n        /* \"Library.sol\":764:1334  function AddBook(string calldata bookName, uint quantity) public onlyOwnable{... */\n    tag_15:\n        /* \"Library.sol\":516:521  owner */\n      0x00\n      dup1\n      sload\n      swap1\n      0x0100\n      exp\n      swap1\n      div\n      0xffffffffffffffffffffffffffffffffffffffff\n      and\n        /* \"Library.sol\":502:521  msg.sender == owner */\n      0xffffffffffffffffffffffffffffffffffffffff\n      and\n        /* \"Library.sol\":502:512  msg.sender */\n      caller\n        /* \"Library.sol\":502:521  msg.sender == owner */\n      0xffffffffffffffffffffffffffffffffffffffff\n      and\n      eq\n        /* \"Library.sol\":494:552  require(msg.sender == owner, \"Current user is not owner!\") */\n      tag_49\n      jumpi\n      mload(0x40)\n      0x08c379a000000000000000000000000000000000000000000000000000000000\n      dup2\n      mstore\n      0x04\n      add\n      tag_50\n      swap1\n      tag_51\n      jump\t// in\n    tag_50:\n      mload(0x40)\n      dup1\n      swap2\n      sub\n      swap1\n      revert\n    tag_49:\n        /* \"Library.sol\":853:882  LibraryContainsBook(bookName) */\n      tag_53\n        /* \"Library.sol\":873:881  bookName */\n      dup4\n      dup4\n        /* \"Library.sol\":853:872  LibraryContainsBook */\n      tag_54\n        /* \"Library.sol\":853:882  LibraryContainsBook(bookName) */\n      jump\t// in\n    tag_53:\n        /* \"Library.sol\":853:911  LibraryContainsBook(bookName) || BookIndex[counter].exists */\n      dup1\n      tag_55\n      jumpi\n      pop\n        /* \"Library.sol\":886:895  BookIndex */\n      0x03\n        /* \"Library.sol\":886:904  BookIndex[counter] */\n      0x00\n        /* \"Library.sol\":896:903  counter */\n      sload(0x01)\n        /* \"Library.sol\":886:904  BookIndex[counter] */\n      dup2\n      mstore\n      0x20\n      add\n      swap1\n      dup2\n      mstore\n      0x20\n      add\n      0x00\n      keccak256\n        /* \"Library.sol\":886:911  BookIndex[counter].exists */\n      0x03\n      add\n      0x00\n      swap1\n      sload\n      swap1\n      0x0100\n      exp\n      swap1\n      div\n      0xff\n      and\n        /* \"Library.sol\":853:911  LibraryContainsBook(bookName) || BookIndex[counter].exists */\n    tag_55:\n        /* \"Library.sol\":850:979  if(LibraryContainsBook(bookName) || BookIndex[counter].exists){... */\n      iszero\n      tag_56\n      jumpi\n        /* \"Library.sol\":926:968  revert(\"This book exists in the library!\") */\n      mload(0x40)\n      0x08c379a000000000000000000000000000000000000000000000000000000000\n      dup2\n      mstore\n      0x04\n      add\n      tag_57\n      swap1\n      tag_58\n      jump\t// in\n    tag_57:\n      mload(0x40)\n      dup1\n      swap2\n      sub\n      swap1\n      revert\n        /* \"Library.sol\":850:979  if(LibraryContainsBook(bookName) || BookIndex[counter].exists){... */\n    tag_56:\n        /* \"Library.sol\":1002:1003  1 */\n      0x01\n        /* \"Library.sol\":991:999  quantity */\n      dup2\n        /* \"Library.sol\":991:1003  quantity < 1 */\n      lt\n        /* \"Library.sol\":988:1070  if(quantity < 1){... */\n      iszero\n      tag_59\n      jumpi\n        /* \"Library.sol\":1018:1059  revert(\"Quantity cannot be less than 1!\") */\n      mload(0x40)\n      0x08c379a000000000000000000000000000000000000000000000000000000000\n      dup2\n      mstore\n      0x04\n      add\n      tag_60\n      swap1\n      tag_61\n      jump\t// in\n    tag_60:\n      mload(0x40)\n      dup1\n      swap2\n      sub\n      swap1\n      revert\n        /* \"Library.sol\":988:1070  if(quantity < 1){... */\n    tag_59:\n        /* \"Library.sol\":1080:1099  Book memory newBook */\n      tag_62\n      tag_63\n      jump\t// in\n    tag_62:\n        /* \"Library.sol\":1122:1129  counter */\n      sload(0x01)\n        /* \"Library.sol\":1109:1116  newBook */\n      dup2\n        /* \"Library.sol\":1109:1119  newBook.id */\n      0x00\n      add\n        /* \"Library.sol\":1109:1129  newBook.id = counter */\n      dup2\n      dup2\n      mstore\n      pop\n      pop\n        /* \"Library.sol\":1154:1162  bookName */\n      dup4\n      dup4\n        /* \"Library.sol\":1139:1162  newBook.name = bookName */\n      dup1\n      dup1\n      0x1f\n      add\n      0x20\n      dup1\n      swap2\n      div\n      mul\n      0x20\n      add\n      mload(0x40)\n      swap1\n      dup2\n      add\n      0x40\n      mstore\n      dup1\n      swap4\n      swap3\n      swap2\n      swap1\n      dup2\n      dup2\n      mstore\n      0x20\n      add\n      dup4\n      dup4\n      dup1\n      dup3\n      dup5\n      calldatacopy\n      0x00\n      dup2\n      dup5\n      add\n      mstore\n      not(0x1f)\n      0x1f\n      dup3\n      add\n      and\n      swap1\n      pop\n      dup1\n      dup4\n      add\n      swap3\n      pop\n      pop\n      pop\n      pop\n      pop\n      pop\n      pop\n        /* \"Library.sol\":1139:1146  newBook */\n      dup2\n        /* \"Library.sol\":1139:1151  newBook.name */\n      0x20\n      add\n        /* \"Library.sol\":1139:1162  newBook.name = bookName */\n      dup2\n      swap1\n      mstore\n      pop\n        /* \"Library.sol\":1191:1199  quantity */\n      dup2\n        /* \"Library.sol\":1172:1179  newBook */\n      dup2\n        /* \"Library.sol\":1172:1188  newBook.quantity */\n      0x40\n      add\n        /* \"Library.sol\":1172:1199  newBook.quantity = quantity */\n      dup2\n      dup2\n      mstore\n      pop\n      pop\n        /* \"Library.sol\":1226:1230  true */\n      0x01\n        /* \"Library.sol\":1209:1216  newBook */\n      dup2\n        /* \"Library.sol\":1209:1223  newBook.exists */\n      0x60\n      add\n        /* \"Library.sol\":1209:1230  newBook.exists = true */\n      swap1\n      iszero\n      iszero\n      swap1\n      dup2\n      iszero\n      iszero\n      dup2\n      mstore\n      pop\n      pop\n        /* \"Library.sol\":1262:1269  newBook */\n      dup1\n        /* \"Library.sol\":1241:1250  BookIndex */\n      0x03\n        /* \"Library.sol\":1241:1259  BookIndex[counter] */\n      0x00\n        /* \"Library.sol\":1251:1258  counter */\n      sload(0x01)\n        /* \"Library.sol\":1241:1259  BookIndex[counter] */\n      dup2\n      mstore\n      0x20\n      add\n      swap1\n      dup2\n      mstore\n      0x20\n      add\n      0x00\n      keccak256\n        /* \"Library.sol\":1241:1269  BookIndex[counter] = newBook */\n      0x00\n      dup3\n      add\n      mload\n      dup2\n      0x00\n      add\n      sstore\n      0x20\n      dup3\n      add\n      mload\n      dup2\n      0x01\n      add\n      swap1\n      dup1\n      mload\n      swap1\n      0x20\n      add\n      swap1\n      tag_64\n      swap3\n      swap2\n      swap1\n      tag_65\n      jump\t// in\n    tag_64:\n      pop\n      0x40\n      dup3\n      add\n      mload\n      dup2\n      0x02\n      add\n      sstore\n      0x60\n      dup3\n      add\n      mload\n      dup2\n      0x03\n      add\n      exp(0x0100, 0x00)\n      dup2\n      sload\n      dup2\n      0xff\n      mul\n      not\n      and\n      swap1\n      dup4\n      iszero\n      iszero\n      mul\n      or\n      swap1\n      sstore\n      pop\n      swap1\n      pop\n      pop\n        /* \"Library.sol\":1279:1293  LibraryArchive */\n      0x02\n        /* \"Library.sol\":1299:1306  newBook */\n      dup2\n        /* \"Library.sol\":1279:1307  LibraryArchive.push(newBook) */\n      swap1\n      dup1\n      0x01\n      dup2\n      sload\n      add\n      dup1\n      dup3\n      sstore\n      dup1\n      swap2\n      pop\n      pop\n      0x01\n      swap1\n      sub\n      swap1\n      0x00\n      mstore\n      keccak256(0x00, 0x20)\n      swap1\n      0x04\n      mul\n      add\n      0x00\n      swap1\n      swap2\n      swap1\n      swap2\n      swap1\n      swap2\n      pop\n      0x00\n      dup3\n      add\n      mload\n      dup2\n      0x00\n      add\n      sstore\n      0x20\n      dup3\n      add\n      mload\n      dup2\n      0x01\n      add\n      swap1\n      dup1\n      mload\n      swap1\n      0x20\n      add\n      swap1\n      tag_67\n      swap3\n      swap2\n      swap1\n      tag_65\n      jump\t// in\n    tag_67:\n      pop\n      0x40\n      dup3\n      add\n      mload\n      dup2\n      0x02\n      add\n      sstore\n      0x60\n      dup3\n      add\n      mload\n      dup2\n      0x03\n      add\n      exp(0x0100, 0x00)\n      dup2\n      sload\n      dup2\n      0xff\n      mul\n      not\n      and\n      swap1\n      dup4\n      iszero\n      iszero\n      mul\n      or\n      swap1\n      sstore\n      pop\n      pop\n      pop\n        /* \"Library.sol\":1318:1325  counter */\n      0x01\n      0x00\n        /* \"Library.sol\":1318:1327  counter++ */\n      dup2\n      sload\n      dup1\n      swap3\n      swap2\n      swap1\n      tag_68\n      swap1\n      tag_69\n      jump\t// in\n    tag_68:\n      swap2\n      swap1\n      pop\n      sstore\n      pop\n        /* \"Library.sol\":562:563  _ */\n      pop\n        /* \"Library.sol\":764:1334  function AddBook(string calldata bookName, uint quantity) public onlyOwnable{... */\n      pop\n      pop\n      pop\n      jump\t// out\n        /* \"Library.sol\":274:302  Book[] public LibraryArchive */\n    tag_19:\n      0x02\n      dup2\n      dup2\n      sload\n      dup2\n      lt\n      tag_70\n      jumpi\n      0x00\n      dup1\n      revert\n    tag_70:\n      swap1\n      0x00\n      mstore\n      keccak256(0x00, 0x20)\n      swap1\n      0x04\n      mul\n      add\n      0x00\n      swap2\n      pop\n      swap1\n      pop\n      dup1\n      0x00\n      add\n      sload\n      swap1\n      dup1\n      0x01\n      add\n      dup1\n      sload\n      tag_72\n      swap1\n      tag_73\n      jump\t// in\n    tag_72:\n      dup1\n      0x1f\n      add\n      0x20\n      dup1\n      swap2\n      div\n      mul\n      0x20\n      add\n      mload(0x40)\n      swap1\n      dup2\n      add\n      0x40\n      mstore\n      dup1\n      swap3\n      swap2\n      swap1\n      dup2\n      dup2\n      mstore\n      0x20\n      add\n      dup3\n      dup1\n      sload\n      tag_74\n      swap1\n      tag_73\n      jump\t// in\n    tag_74:\n      dup1\n      iszero\n      tag_75\n      jumpi\n      dup1\n      0x1f\n      lt\n      tag_76\n      jumpi\n      0x0100\n      dup1\n      dup4\n      sload\n      div\n      mul\n      dup4\n      mstore\n      swap2\n      0x20\n      add\n      swap2\n      jump(tag_75)\n    tag_76:\n      dup3\n      add\n      swap2\n      swap1\n      0x00\n      mstore\n      keccak256(0x00, 0x20)\n      swap1\n    tag_77:\n      dup2\n      sload\n      dup2\n      mstore\n      swap1\n      0x01\n      add\n      swap1\n      0x20\n      add\n      dup1\n      dup4\n      gt\n      tag_77\n      jumpi\n      dup3\n      swap1\n      sub\n      0x1f\n      and\n      dup3\n      add\n      swap2\n    tag_75:\n      pop\n      pop\n      pop\n      pop\n      pop\n      swap1\n      dup1\n      0x02\n      add\n      sload\n      swap1\n      dup1\n      0x03\n      add\n      0x00\n      swap1\n      sload\n      swap1\n      0x0100\n      exp\n      swap1\n      div\n      0xff\n      and\n      swap1\n      pop\n      dup5\n      jump\t// out\n        /* \"Library.sol\":405:455  mapping(address => uint[]) public ClientBorrowList */\n    tag_25:\n      mstore(0x20, 0x05)\n      dup2\n      0x00\n      mstore\n      keccak256(0x00, 0x40)\n      dup2\n      dup2\n      sload\n      dup2\n      lt\n      tag_78\n      jumpi\n      0x00\n      dup1\n      revert\n    tag_78:\n      swap1\n      0x00\n      mstore\n      keccak256(0x00, 0x20)\n      add\n      0x00\n      swap2\n      pop\n      swap2\n      pop\n      pop\n      sload\n      dup2\n      jump\t// out\n        /* \"Library.sol\":347:398  mapping(uint => address[]) public BookBorrowHistory */\n    tag_31:\n      mstore(0x20, 0x04)\n      dup2\n      0x00\n      mstore\n      keccak256(0x00, 0x40)\n      dup2\n      dup2\n      sload\n      dup2\n      lt\n      tag_80\n      jumpi\n      0x00\n      dup1\n      revert\n    tag_80:\n      swap1\n      0x00\n      mstore\n      keccak256(0x00, 0x20)\n      add\n      0x00\n      swap2\n      pop\n      swap2\n      pop\n      swap1\n      sload\n      swap1\n      0x0100\n      exp\n      swap1\n      div\n      0xffffffffffffffffffffffffffffffffffffffff\n      and\n      dup2\n      jump\t// out\n        /* \"Library.sol\":121:141  address public owner */\n    tag_35:\n      0x00\n      dup1\n      sload\n      swap1\n      0x0100\n      exp\n      swap1\n      div\n      0xffffffffffffffffffffffffffffffffffffffff\n      and\n      dup2\n      jump\t// out\n        /* \"Library.sol\":1340:1955  function BorrowBook(uint bookId) public shouldExist(bookId){    ... */\n    tag_39:\n        /* \"Library.sol\":1392:1398  bookId */\n      dup1\n        /* \"Library.sol\":627:636  BookIndex */\n      0x03\n        /* \"Library.sol\":627:644  BookIndex[bookId] */\n      0x00\n        /* \"Library.sol\":637:643  bookId */\n      dup3\n        /* \"Library.sol\":627:644  BookIndex[bookId] */\n      dup2\n      mstore\n      0x20\n      add\n      swap1\n      dup2\n      mstore\n      0x20\n      add\n      0x00\n      keccak256\n        /* \"Library.sol\":627:651  BookIndex[bookId].exists */\n      0x03\n      add\n      0x00\n      swap1\n      sload\n      swap1\n      0x0100\n      exp\n      swap1\n      div\n      0xff\n      and\n        /* \"Library.sol\":619:686  require(BookIndex[bookId].exists,\"Book does not exist in library!\") */\n      tag_83\n      jumpi\n      mload(0x40)\n      0x08c379a000000000000000000000000000000000000000000000000000000000\n      dup2\n      mstore\n      0x04\n      add\n      tag_84\n      swap1\n      tag_85\n      jump\t// in\n    tag_84:\n      mload(0x40)\n      dup1\n      swap2\n      sub\n      swap1\n      revert\n    tag_83:\n        /* \"Library.sol\":1444:1445  0 */\n      0x00\n        /* \"Library.sol\":1416:1425  BookIndex */\n      0x03\n        /* \"Library.sol\":1416:1433  BookIndex[bookId] */\n      0x00\n        /* \"Library.sol\":1426:1432  bookId */\n      dup5\n        /* \"Library.sol\":1416:1433  BookIndex[bookId] */\n      dup2\n      mstore\n      0x20\n      add\n      swap1\n      dup2\n      mstore\n      0x20\n      add\n      0x00\n      keccak256\n        /* \"Library.sol\":1416:1442  BookIndex[bookId].quantity */\n      0x02\n      add\n      sload\n        /* \"Library.sol\":1416:1445  BookIndex[bookId].quantity==0 */\n      eq\n        /* \"Library.sol\":1413:1517  if(BookIndex[bookId].quantity==0){... */\n      iszero\n      tag_87\n      jumpi\n        /* \"Library.sol\":1460:1506  revert(\"This book is out of stock currently!\") */\n      mload(0x40)\n      0x08c379a000000000000000000000000000000000000000000000000000000000\n      dup2\n      mstore\n      0x04\n      add\n      tag_88\n      swap1\n      tag_89\n      jump\t// in\n    tag_88:\n      mload(0x40)\n      dup1\n      swap2\n      sub\n      swap1\n      revert\n        /* \"Library.sol\":1413:1517  if(BookIndex[bookId].quantity==0){... */\n    tag_87:\n        /* \"Library.sol\":1533:1590  intArrContainsValue(bookId, ClientBorrowList[msg.sender]) */\n      tag_90\n        /* \"Library.sol\":1553:1559  bookId */\n      dup3\n        /* \"Library.sol\":1561:1577  ClientBorrowList */\n      0x05\n        /* \"Library.sol\":1561:1589  ClientBorrowList[msg.sender] */\n      0x00\n        /* \"Library.sol\":1578:1588  msg.sender */\n      caller\n        /* \"Library.sol\":1561:1589  ClientBorrowList[msg.sender] */\n      0xffffffffffffffffffffffffffffffffffffffff\n      and\n      0xffffffffffffffffffffffffffffffffffffffff\n      and\n      dup2\n      mstore\n      0x20\n      add\n      swap1\n      dup2\n      mstore\n      0x20\n      add\n      0x00\n      keccak256\n        /* \"Library.sol\":1533:1590  intArrContainsValue(bookId, ClientBorrowList[msg.sender]) */\n      dup1\n      sload\n      dup1\n      0x20\n      mul\n      0x20\n      add\n      mload(0x40)\n      swap1\n      dup2\n      add\n      0x40\n      mstore\n      dup1\n      swap3\n      swap2\n      swap1\n      dup2\n      dup2\n      mstore\n      0x20\n      add\n      dup3\n      dup1\n      sload\n      dup1\n      iszero\n      tag_91\n      jumpi\n      0x20\n      mul\n      dup3\n      add\n      swap2\n      swap1\n      0x00\n      mstore\n      keccak256(0x00, 0x20)\n      swap1\n    tag_92:\n      dup2\n      sload\n      dup2\n      mstore\n      0x20\n      add\n      swap1\n      0x01\n      add\n      swap1\n      dup1\n      dup4\n      gt\n      tag_92\n      jumpi\n    tag_91:\n      pop\n      pop\n      pop\n      pop\n      pop\n        /* \"Library.sol\":1533:1552  intArrContainsValue */\n      tag_93\n        /* \"Library.sol\":1533:1590  intArrContainsValue(bookId, ClientBorrowList[msg.sender]) */\n      jump\t// in\n    tag_90:\n        /* \"Library.sol\":1530:1660  if(intArrContainsValue(bookId, ClientBorrowList[msg.sender])){... */\n      iszero\n      tag_94\n      jumpi\n        /* \"Library.sol\":1605:1649  revert(\"You've already borrowed that book!\") */\n      mload(0x40)\n      0x08c379a000000000000000000000000000000000000000000000000000000000\n      dup2\n      mstore\n      0x04\n      add\n      tag_95\n      swap1\n      tag_96\n      jump\t// in\n    tag_95:\n      mload(0x40)\n      dup1\n      swap2\n      sub\n      swap1\n      revert\n        /* \"Library.sol\":1530:1660  if(intArrContainsValue(bookId, ClientBorrowList[msg.sender])){... */\n    tag_94:\n        /* \"Library.sol\":1670:1686  ClientBorrowList */\n      0x05\n        /* \"Library.sol\":1670:1698  ClientBorrowList[msg.sender] */\n      0x00\n        /* \"Library.sol\":1687:1697  msg.sender */\n      caller\n        /* \"Library.sol\":1670:1698  ClientBorrowList[msg.sender] */\n      0xffffffffffffffffffffffffffffffffffffffff\n      and\n      0xffffffffffffffffffffffffffffffffffffffff\n      and\n      dup2\n      mstore\n      0x20\n      add\n      swap1\n      dup2\n      mstore\n      0x20\n      add\n      0x00\n      keccak256\n        /* \"Library.sol\":1704:1710  bookId */\n      dup3\n        /* \"Library.sol\":1670:1711  ClientBorrowList[msg.sender].push(bookId) */\n      swap1\n      dup1\n      0x01\n      dup2\n      sload\n      add\n      dup1\n      dup3\n      sstore\n      dup1\n      swap2\n      pop\n      pop\n      0x01\n      swap1\n      sub\n      swap1\n      0x00\n      mstore\n      keccak256(0x00, 0x20)\n      add\n      0x00\n      swap1\n      swap2\n      swap1\n      swap2\n      swap1\n      swap2\n      pop\n      sstore\n        /* \"Library.sol\":1727:1789  addressArrContainsValue(msg.sender, BookBorrowHistory[bookId]) */\n      tag_98\n        /* \"Library.sol\":1751:1761  msg.sender */\n      caller\n        /* \"Library.sol\":1763:1780  BookBorrowHistory */\n      0x04\n        /* \"Library.sol\":1763:1788  BookBorrowHistory[bookId] */\n      0x00\n        /* \"Library.sol\":1781:1787  bookId */\n      dup6\n        /* \"Library.sol\":1763:1788  BookBorrowHistory[bookId] */\n      dup2\n      mstore\n      0x20\n      add\n      swap1\n      dup2\n      mstore\n      0x20\n      add\n      0x00\n      keccak256\n        /* \"Library.sol\":1727:1789  addressArrContainsValue(msg.sender, BookBorrowHistory[bookId]) */\n      dup1\n      sload\n      dup1\n      0x20\n      mul\n      0x20\n      add\n      mload(0x40)\n      swap1\n      dup2\n      add\n      0x40\n      mstore\n      dup1\n      swap3\n      swap2\n      swap1\n      dup2\n      dup2\n      mstore\n      0x20\n      add\n      dup3\n      dup1\n      sload\n      dup1\n      iszero\n      tag_99\n      jumpi\n      0x20\n      mul\n      dup3\n      add\n      swap2\n      swap1\n      0x00\n      mstore\n      keccak256(0x00, 0x20)\n      swap1\n    tag_100:\n      dup2\n      0x00\n      swap1\n      sload\n      swap1\n      0x0100\n      exp\n      swap1\n      div\n      0xffffffffffffffffffffffffffffffffffffffff\n      and\n      0xffffffffffffffffffffffffffffffffffffffff\n      and\n      dup2\n      mstore\n      0x20\n      add\n      swap1\n      0x01\n      add\n      swap1\n      dup1\n      dup4\n      gt\n      tag_100\n      jumpi\n    tag_99:\n      pop\n      pop\n      pop\n      pop\n      pop\n        /* \"Library.sol\":1727:1750  addressArrContainsValue */\n      tag_101\n        /* \"Library.sol\":1727:1789  addressArrContainsValue(msg.sender, BookBorrowHistory[bookId]) */\n      jump\t// in\n    tag_98:\n        /* \"Library.sol\":1723:1865  if(!addressArrContainsValue(msg.sender, BookBorrowHistory[bookId])){... */\n      tag_102\n      jumpi\n        /* \"Library.sol\":1804:1821  BookBorrowHistory */\n      0x04\n        /* \"Library.sol\":1804:1829  BookBorrowHistory[bookId] */\n      0x00\n        /* \"Library.sol\":1822:1828  bookId */\n      dup4\n        /* \"Library.sol\":1804:1829  BookBorrowHistory[bookId] */\n      dup2\n      mstore\n      0x20\n      add\n      swap1\n      dup2\n      mstore\n      0x20\n      add\n      0x00\n      keccak256\n        /* \"Library.sol\":1835:1845  msg.sender */\n      caller\n        /* \"Library.sol\":1804:1846  BookBorrowHistory[bookId].push(msg.sender) */\n      swap1\n      dup1\n      0x01\n      dup2\n      sload\n      add\n      dup1\n      dup3\n      sstore\n      dup1\n      swap2\n      pop\n      pop\n      0x01\n      swap1\n      sub\n      swap1\n      0x00\n      mstore\n      keccak256(0x00, 0x20)\n      add\n      0x00\n      swap1\n      swap2\n      swap1\n      swap2\n      swap1\n      swap2\n      0x0100\n      exp\n      dup2\n      sload\n      dup2\n      0xffffffffffffffffffffffffffffffffffffffff\n      mul\n      not\n      and\n      swap1\n      dup4\n      0xffffffffffffffffffffffffffffffffffffffff\n      and\n      mul\n      or\n      swap1\n      sstore\n      pop\n        /* \"Library.sol\":1723:1865  if(!addressArrContainsValue(msg.sender, BookBorrowHistory[bookId])){... */\n    tag_102:\n        /* \"Library.sol\":1875:1884  BookIndex */\n      0x03\n        /* \"Library.sol\":1875:1892  BookIndex[bookId] */\n      0x00\n        /* \"Library.sol\":1885:1891  bookId */\n      dup4\n        /* \"Library.sol\":1875:1892  BookIndex[bookId] */\n      dup2\n      mstore\n      0x20\n      add\n      swap1\n      dup2\n      mstore\n      0x20\n      add\n      0x00\n      keccak256\n        /* \"Library.sol\":1875:1901  BookIndex[bookId].quantity */\n      0x02\n      add\n      0x00\n        /* \"Library.sol\":1875:1904  BookIndex[bookId].quantity -- */\n      dup2\n      sload\n      dup1\n      swap3\n      swap2\n      swap1\n      tag_104\n      swap1\n      tag_105\n      jump\t// in\n    tag_104:\n      swap2\n      swap1\n      pop\n      sstore\n      pop\n        /* \"Library.sol\":1914:1928  LibraryArchive */\n      0x02\n        /* \"Library.sol\":1929:1935  bookId */\n      dup3\n        /* \"Library.sol\":1914:1936  LibraryArchive[bookId] */\n      dup2\n      sload\n      dup2\n      lt\n      tag_106\n      jumpi\n      mstore(0x00, 0x4e487b7100000000000000000000000000000000000000000000000000000000)\n      mstore(0x04, 0x32)\n      revert(0x00, 0x24)\n    tag_106:\n      swap1\n      0x00\n      mstore\n      keccak256(0x00, 0x20)\n      swap1\n      0x04\n      mul\n      add\n        /* \"Library.sol\":1914:1945  LibraryArchive[bookId].quantity */\n      0x02\n      add\n      0x00\n        /* \"Library.sol\":1914:1948  LibraryArchive[bookId].quantity -- */\n      dup2\n      sload\n      dup1\n      swap3\n      swap2\n      swap1\n      tag_108\n      swap1\n      tag_105\n      jump\t// in\n    tag_108:\n      swap2\n      swap1\n      pop\n      sstore\n      pop\n        /* \"Library.sol\":1340:1955  function BorrowBook(uint bookId) public shouldExist(bookId){    ... */\n      pop\n      pop\n      jump\t// out\n        /* \"Library.sol\":1961:2390  function ReturnBook(uint bookId) public shouldExist(bookId){... */\n    tag_42:\n        /* \"Library.sol\":2013:2019  bookId */\n      dup1\n        /* \"Library.sol\":627:636  BookIndex */\n      0x03\n        /* \"Library.sol\":627:644  BookIndex[bookId] */\n      0x00\n        /* \"Library.sol\":637:643  bookId */\n      dup3\n        /* \"Library.sol\":627:644  BookIndex[bookId] */\n      dup2\n      mstore\n      0x20\n      add\n      swap1\n      dup2\n      mstore\n      0x20\n      add\n      0x00\n      keccak256\n        /* \"Library.sol\":627:651  BookIndex[bookId].exists */\n      0x03\n      add\n      0x00\n      swap1\n      sload\n      swap1\n      0x0100\n      exp\n      swap1\n      div\n      0xff\n      and\n        /* \"Library.sol\":619:686  require(BookIndex[bookId].exists,\"Book does not exist in library!\") */\n      tag_110\n      jumpi\n      mload(0x40)\n      0x08c379a000000000000000000000000000000000000000000000000000000000\n      dup2\n      mstore\n      0x04\n      add\n      tag_111\n      swap1\n      tag_85\n      jump\t// in\n    tag_111:\n      mload(0x40)\n      dup1\n      swap2\n      sub\n      swap1\n      revert\n    tag_110:\n        /* \"Library.sol\":2034:2091  intArrContainsValue(bookId, ClientBorrowList[msg.sender]) */\n      tag_113\n        /* \"Library.sol\":2054:2060  bookId */\n      dup3\n        /* \"Library.sol\":2062:2078  ClientBorrowList */\n      0x05\n        /* \"Library.sol\":2062:2090  ClientBorrowList[msg.sender] */\n      0x00\n        /* \"Library.sol\":2079:2089  msg.sender */\n      caller\n        /* \"Library.sol\":2062:2090  ClientBorrowList[msg.sender] */\n      0xffffffffffffffffffffffffffffffffffffffff\n      and\n      0xffffffffffffffffffffffffffffffffffffffff\n      and\n      dup2\n      mstore\n      0x20\n      add\n      swap1\n      dup2\n      mstore\n      0x20\n      add\n      0x00\n      keccak256\n        /* \"Library.sol\":2034:2091  intArrContainsValue(bookId, ClientBorrowList[msg.sender]) */\n      dup1\n      sload\n      dup1\n      0x20\n      mul\n      0x20\n      add\n      mload(0x40)\n      swap1\n      dup2\n      add\n      0x40\n      mstore\n      dup1\n      swap3\n      swap2\n      swap1\n      dup2\n      dup2\n      mstore\n      0x20\n      add\n      dup3\n      dup1\n      sload\n      dup1\n      iszero\n      tag_114\n      jumpi\n      0x20\n      mul\n      dup3\n      add\n      swap2\n      swap1\n      0x00\n      mstore\n      keccak256(0x00, 0x20)\n      swap1\n    tag_115:\n      dup2\n      sload\n      dup2\n      mstore\n      0x20\n      add\n      swap1\n      0x01\n      add\n      swap1\n      dup1\n      dup4\n      gt\n      tag_115\n      jumpi\n    tag_114:\n      pop\n      pop\n      pop\n      pop\n      pop\n        /* \"Library.sol\":2034:2053  intArrContainsValue */\n      tag_93\n        /* \"Library.sol\":2034:2091  intArrContainsValue(bookId, ClientBorrowList[msg.sender]) */\n      jump\t// in\n    tag_113:\n        /* \"Library.sol\":2030:2157  if(!intArrContainsValue(bookId, ClientBorrowList[msg.sender])){... */\n      tag_116\n      jumpi\n        /* \"Library.sol\":2106:2146  revert(\"You havent borrowed that book!\") */\n      mload(0x40)\n      0x08c379a000000000000000000000000000000000000000000000000000000000\n      dup2\n      mstore\n      0x04\n      add\n      tag_117\n      swap1\n      tag_118\n      jump\t// in\n    tag_117:\n      mload(0x40)\n      dup1\n      swap2\n      sub\n      swap1\n      revert\n        /* \"Library.sol\":2030:2157  if(!intArrContainsValue(bookId, ClientBorrowList[msg.sender])){... */\n    tag_116:\n        /* \"Library.sol\":2243:2300  removeIntArrElement(ClientBorrowList[msg.sender], bookId) */\n      tag_119\n        /* \"Library.sol\":2263:2279  ClientBorrowList */\n      0x05\n        /* \"Library.sol\":2263:2291  ClientBorrowList[msg.sender] */\n      0x00\n        /* \"Library.sol\":2280:2290  msg.sender */\n      caller\n        /* \"Library.sol\":2263:2291  ClientBorrowList[msg.sender] */\n      0xffffffffffffffffffffffffffffffffffffffff\n      and\n      0xffffffffffffffffffffffffffffffffffffffff\n      and\n      dup2\n      mstore\n      0x20\n      add\n      swap1\n      dup2\n      mstore\n      0x20\n      add\n      0x00\n      keccak256\n        /* \"Library.sol\":2293:2299  bookId */\n      dup4\n        /* \"Library.sol\":2243:2262  removeIntArrElement */\n      tag_120\n        /* \"Library.sol\":2243:2300  removeIntArrElement(ClientBorrowList[msg.sender], bookId) */\n      jump\t// in\n    tag_119:\n        /* \"Library.sol\":2310:2319  BookIndex */\n      0x03\n        /* \"Library.sol\":2310:2327  BookIndex[bookId] */\n      0x00\n        /* \"Library.sol\":2320:2326  bookId */\n      dup4\n        /* \"Library.sol\":2310:2327  BookIndex[bookId] */\n      dup2\n      mstore\n      0x20\n      add\n      swap1\n      dup2\n      mstore\n      0x20\n      add\n      0x00\n      keccak256\n        /* \"Library.sol\":2310:2336  BookIndex[bookId].quantity */\n      0x02\n      add\n      0x00\n        /* \"Library.sol\":2310:2339  BookIndex[bookId].quantity ++ */\n      dup2\n      sload\n      dup1\n      swap3\n      swap2\n      swap1\n      tag_121\n      swap1\n      tag_69\n      jump\t// in\n    tag_121:\n      swap2\n      swap1\n      pop\n      sstore\n      pop\n        /* \"Library.sol\":2349:2363  LibraryArchive */\n      0x02\n        /* \"Library.sol\":2364:2370  bookId */\n      dup3\n        /* \"Library.sol\":2349:2371  LibraryArchive[bookId] */\n      dup2\n      sload\n      dup2\n      lt\n      tag_122\n      jumpi\n      mstore(0x00, 0x4e487b7100000000000000000000000000000000000000000000000000000000)\n      mstore(0x04, 0x32)\n      revert(0x00, 0x24)\n    tag_122:\n      swap1\n      0x00\n      mstore\n      keccak256(0x00, 0x20)\n      swap1\n      0x04\n      mul\n      add\n        /* \"Library.sol\":2349:2380  LibraryArchive[bookId].quantity */\n      0x02\n      add\n      0x00\n        /* \"Library.sol\":2349:2383  LibraryArchive[bookId].quantity ++ */\n      dup2\n      sload\n      dup1\n      swap3\n      swap2\n      swap1\n      tag_124\n      swap1\n      tag_69\n      jump\t// in\n    tag_124:\n      swap2\n      swap1\n      pop\n      sstore\n      pop\n        /* \"Library.sol\":1961:2390  function ReturnBook(uint bookId) public shouldExist(bookId){... */\n      pop\n      pop\n      jump\t// out\n        /* \"Library.sol\":2396:2539  function BorrowHistory(uint bookId) public view shouldExist(bookId) returns (address[] memory){... */\n    tag_45:\n        /* \"Library.sol\":2473:2489  address[] memory */\n      0x60\n        /* \"Library.sol\":2456:2462  bookId */\n      dup2\n        /* \"Library.sol\":627:636  BookIndex */\n      0x03\n        /* \"Library.sol\":627:644  BookIndex[bookId] */\n      0x00\n        /* \"Library.sol\":637:643  bookId */\n      dup3\n        /* \"Library.sol\":627:644  BookIndex[bookId] */\n      dup2\n      mstore\n      0x20\n      add\n      swap1\n      dup2\n      mstore\n      0x20\n      add\n      0x00\n      keccak256\n        /* \"Library.sol\":627:651  BookIndex[bookId].exists */\n      0x03\n      add\n      0x00\n      swap1\n      sload\n      swap1\n      0x0100\n      exp\n      swap1\n      div\n      0xff\n      and\n        /* \"Library.sol\":619:686  require(BookIndex[bookId].exists,\"Book does not exist in library!\") */\n      tag_126\n      jumpi\n      mload(0x40)\n      0x08c379a000000000000000000000000000000000000000000000000000000000\n      dup2\n      mstore\n      0x04\n      add\n      tag_127\n      swap1\n      tag_85\n      jump\t// in\n    tag_127:\n      mload(0x40)\n      dup1\n      swap2\n      sub\n      swap1\n      revert\n    tag_126:\n        /* \"Library.sol\":2507:2524  BookBorrowHistory */\n      0x04\n        /* \"Library.sol\":2507:2532  BookBorrowHistory[bookId] */\n      0x00\n        /* \"Library.sol\":2525:2531  bookId */\n      dup5\n        /* \"Library.sol\":2507:2532  BookBorrowHistory[bookId] */\n      dup2\n      mstore\n      0x20\n      add\n      swap1\n      dup2\n      mstore\n      0x20\n      add\n      0x00\n      keccak256\n        /* \"Library.sol\":2500:2532  return BookBorrowHistory[bookId] */\n      dup1\n      sload\n      dup1\n      0x20\n      mul\n      0x20\n      add\n      mload(0x40)\n      swap1\n      dup2\n      add\n      0x40\n      mstore\n      dup1\n      swap3\n      swap2\n      swap1\n      dup2\n      dup2\n      mstore\n      0x20\n      add\n      dup3\n      dup1\n      sload\n      dup1\n      iszero\n      tag_129\n      jumpi\n      0x20\n      mul\n      dup3\n      add\n      swap2\n      swap1\n      0x00\n      mstore\n      keccak256(0x00, 0x20)\n      swap1\n    tag_130:\n      dup2\n      0x00\n      swap1\n      sload\n      swap1\n      0x0100\n      exp\n      swap1\n      div\n      0xffffffffffffffffffffffffffffffffffffffff\n      and\n      0xffffffffffffffffffffffffffffffffffffffff\n      and\n      dup2\n      mstore\n      0x20\n      add\n      swap1\n      0x01\n      add\n      swap1\n      dup1\n      dup4\n      gt\n      tag_130\n      jumpi\n    tag_129:\n      pop\n      pop\n      pop\n      pop\n      pop\n      swap2\n      pop\n        /* \"Library.sol\":2396:2539  function BorrowHistory(uint bookId) public view shouldExist(bookId) returns (address[] memory){... */\n      pop\n      swap2\n      swap1\n      pop\n      jump\t// out\n        /* \"Library.sol\":2545:2826  function LibraryContainsBook(string calldata bookName) private view returns (bool){... */\n    tag_54:\n        /* \"Library.sol\":2622:2626  bool */\n      0x00\n        /* \"Library.sol\":2641:2647  uint i */\n      dup1\n        /* \"Library.sol\":2648:2649  0 */\n      0x00\n        /* \"Library.sol\":2641:2649  uint i=0 */\n      swap1\n      pop\n        /* \"Library.sol\":2637:2798  for(uint i=0;i<LibraryArchive.length;i++){... */\n    tag_132:\n        /* \"Library.sol\":2652:2666  LibraryArchive */\n      0x02\n        /* \"Library.sol\":2652:2673  LibraryArchive.length */\n      dup1\n      sload\n      swap1\n      pop\n        /* \"Library.sol\":2650:2651  i */\n      dup2\n        /* \"Library.sol\":2650:2673  i<LibraryArchive.length */\n      lt\n        /* \"Library.sol\":2637:2798  for(uint i=0;i<LibraryArchive.length;i++){... */\n      iszero\n      tag_133\n      jumpi\n        /* \"Library.sol\":2695:2743  compareStrings(LibraryArchive[i].name, bookName) */\n      tag_135\n        /* \"Library.sol\":2710:2724  LibraryArchive */\n      0x02\n        /* \"Library.sol\":2725:2726  i */\n      dup3\n        /* \"Library.sol\":2710:2727  LibraryArchive[i] */\n      dup2\n      sload\n      dup2\n      lt\n      tag_136\n      jumpi\n      mstore(0x00, 0x4e487b7100000000000000000000000000000000000000000000000000000000)\n      mstore(0x04, 0x32)\n      revert(0x00, 0x24)\n    tag_136:\n      swap1\n      0x00\n      mstore\n      keccak256(0x00, 0x20)\n      swap1\n      0x04\n      mul\n      add\n        /* \"Library.sol\":2710:2732  LibraryArchive[i].name */\n      0x01\n      add\n        /* \"Library.sol\":2695:2743  compareStrings(LibraryArchive[i].name, bookName) */\n      dup1\n      sload\n      tag_138\n      swap1\n      tag_73\n      jump\t// in\n    tag_138:\n      dup1\n      0x1f\n      add\n      0x20\n      dup1\n      swap2\n      div\n      mul\n      0x20\n      add\n      mload(0x40)\n      swap1\n      dup2\n      add\n      0x40\n      mstore\n      dup1\n      swap3\n      swap2\n      swap1\n      dup2\n      dup2\n      mstore\n      0x20\n      add\n      dup3\n      dup1\n      sload\n      tag_139\n      swap1\n      tag_73\n      jump\t// in\n    tag_139:\n      dup1\n      iszero\n      tag_140\n      jumpi\n      dup1\n      0x1f\n      lt\n      tag_141\n      jumpi\n      0x0100\n      dup1\n      dup4\n      sload\n      div\n      mul\n      dup4\n      mstore\n      swap2\n      0x20\n      add\n      swap2\n      jump(tag_140)\n    tag_141:\n      dup3\n      add\n      swap2\n      swap1\n      0x00\n      mstore\n      keccak256(0x00, 0x20)\n      swap1\n    tag_142:\n      dup2\n      sload\n      dup2\n      mstore\n      swap1\n      0x01\n      add\n      swap1\n      0x20\n      add\n      dup1\n      dup4\n      gt\n      tag_142\n      jumpi\n      dup3\n      swap1\n      sub\n      0x1f\n      and\n      dup3\n      add\n      swap2\n    tag_140:\n      pop\n      pop\n      pop\n      pop\n      pop\n        /* \"Library.sol\":2734:2742  bookName */\n      dup6\n      dup6\n        /* \"Library.sol\":2695:2743  compareStrings(LibraryArchive[i].name, bookName) */\n      dup1\n      dup1\n      0x1f\n      add\n      0x20\n      dup1\n      swap2\n      div\n      mul\n      0x20\n      add\n      mload(0x40)\n      swap1\n      dup2\n      add\n      0x40\n      mstore\n      dup1\n      swap4\n      swap3\n      swap2\n      swap1\n      dup2\n      dup2\n      mstore\n      0x20\n      add\n      dup4\n      dup4\n      dup1\n      dup3\n      dup5\n      calldatacopy\n      0x00\n      dup2\n      dup5\n      add\n      mstore\n      not(0x1f)\n      0x1f\n      dup3\n      add\n      and\n      swap1\n      pop\n      dup1\n      dup4\n      add\n      swap3\n      pop\n      pop\n      pop\n      pop\n      pop\n      pop\n      pop\n        /* \"Library.sol\":2695:2709  compareStrings */\n      tag_143\n        /* \"Library.sol\":2695:2743  compareStrings(LibraryArchive[i].name, bookName) */\n      jump\t// in\n    tag_135:\n        /* \"Library.sol\":2692:2788  if(compareStrings(LibraryArchive[i].name, bookName)){... */\n      iszero\n      tag_144\n      jumpi\n        /* \"Library.sol\":2769:2773  true */\n      0x01\n        /* \"Library.sol\":2762:2773  return true */\n      swap2\n      pop\n      pop\n      jump(tag_131)\n        /* \"Library.sol\":2692:2788  if(compareStrings(LibraryArchive[i].name, bookName)){... */\n    tag_144:\n        /* \"Library.sol\":2674:2677  i++ */\n      dup1\n      dup1\n      tag_145\n      swap1\n      tag_69\n      jump\t// in\n    tag_145:\n      swap2\n      pop\n      pop\n        /* \"Library.sol\":2637:2798  for(uint i=0;i<LibraryArchive.length;i++){... */\n      jump(tag_132)\n    tag_133:\n      pop\n        /* \"Library.sol\":2814:2819  false */\n      0x00\n        /* \"Library.sol\":2807:2819  return false */\n      swap1\n      pop\n        /* \"Library.sol\":2545:2826  function LibraryContainsBook(string calldata bookName) private view returns (bool){... */\n    tag_131:\n      swap3\n      swap2\n      pop\n      pop\n      jump\t// out\n        /* \"Helpers.sol\":86:350  function intArrContainsValue(uint value, uint[] memory array) internal pure returns(bool){   ... */\n    tag_93:\n        /* \"Helpers.sol\":170:174  bool */\n      0x00\n        /* \"Helpers.sol\":193:199  uint i */\n      dup1\n        /* \"Helpers.sol\":200:201  0 */\n      0x00\n        /* \"Helpers.sol\":193:201  uint i=0 */\n      swap1\n      pop\n        /* \"Helpers.sol\":188:322  for (uint i=0; i < array.length; i++) {... */\n    tag_147:\n        /* \"Helpers.sol\":207:212  array */\n      dup3\n        /* \"Helpers.sol\":207:219  array.length */\n      mload\n        /* \"Helpers.sol\":203:204  i */\n      dup2\n        /* \"Helpers.sol\":203:219  i < array.length */\n      lt\n        /* \"Helpers.sol\":188:322  for (uint i=0; i < array.length; i++) {... */\n      iszero\n      tag_148\n      jumpi\n        /* \"Helpers.sol\":253:258  array */\n      dup3\n        /* \"Helpers.sol\":259:260  i */\n      dup2\n        /* \"Helpers.sol\":253:261  array[i] */\n      dup2\n      mload\n      dup2\n      lt\n      tag_150\n      jumpi\n      mstore(0x00, 0x4e487b7100000000000000000000000000000000000000000000000000000000)\n      mstore(0x04, 0x32)\n      revert(0x00, 0x24)\n    tag_150:\n      0x20\n      mul\n      0x20\n      add\n      add\n      mload\n        /* \"Helpers.sol\":244:249  value */\n      dup5\n        /* \"Helpers.sol\":244:261  value == array[i] */\n      eq\n        /* \"Helpers.sol\":240:312  if (value == array[i]) {     ... */\n      iszero\n      tag_151\n      jumpi\n        /* \"Helpers.sol\":293:297  true */\n      0x01\n        /* \"Helpers.sol\":286:297  return true */\n      swap2\n      pop\n      pop\n      jump(tag_146)\n        /* \"Helpers.sol\":240:312  if (value == array[i]) {     ... */\n    tag_151:\n        /* \"Helpers.sol\":221:224  i++ */\n      dup1\n      dup1\n      tag_152\n      swap1\n      tag_69\n      jump\t// in\n    tag_152:\n      swap2\n      pop\n      pop\n        /* \"Helpers.sol\":188:322  for (uint i=0; i < array.length; i++) {... */\n      jump(tag_147)\n    tag_148:\n      pop\n        /* \"Helpers.sol\":338:343  false */\n      0x00\n        /* \"Helpers.sol\":331:343  return false */\n      swap1\n      pop\n        /* \"Helpers.sol\":86:350  function intArrContainsValue(uint value, uint[] memory array) internal pure returns(bool){   ... */\n    tag_146:\n      swap3\n      swap2\n      pop\n      pop\n      jump\t// out\n        /* \"Helpers.sol\":356:630  function addressArrContainsValue(address value, address[] memory array) internal pure returns(bool){   ... */\n    tag_101:\n        /* \"Helpers.sol\":450:454  bool */\n      0x00\n        /* \"Helpers.sol\":473:479  uint i */\n      dup1\n        /* \"Helpers.sol\":480:481  0 */\n      0x00\n        /* \"Helpers.sol\":473:481  uint i=0 */\n      swap1\n      pop\n        /* \"Helpers.sol\":468:602  for (uint i=0; i < array.length; i++) {... */\n    tag_154:\n        /* \"Helpers.sol\":487:492  array */\n      dup3\n        /* \"Helpers.sol\":487:499  array.length */\n      mload\n        /* \"Helpers.sol\":483:484  i */\n      dup2\n        /* \"Helpers.sol\":483:499  i < array.length */\n      lt\n        /* \"Helpers.sol\":468:602  for (uint i=0; i < array.length; i++) {... */\n      iszero\n      tag_155\n      jumpi\n        /* \"Helpers.sol\":533:538  array */\n      dup3\n        /* \"Helpers.sol\":539:540  i */\n      dup2\n        /* \"Helpers.sol\":533:541  array[i] */\n      dup2\n      mload\n      dup2\n      lt\n      tag_157\n      jumpi\n      mstore(0x00, 0x4e487b7100000000000000000000000000000000000000000000000000000000)\n      mstore(0x04, 0x32)\n      revert(0x00, 0x24)\n    tag_157:\n      0x20\n      mul\n      0x20\n      add\n      add\n      mload\n        /* \"Helpers.sol\":524:541  value == array[i] */\n      0xffffffffffffffffffffffffffffffffffffffff\n      and\n        /* \"Helpers.sol\":524:529  value */\n      dup5\n        /* \"Helpers.sol\":524:541  value == array[i] */\n      0xffffffffffffffffffffffffffffffffffffffff\n      and\n      eq\n        /* \"Helpers.sol\":520:592  if (value == array[i]) {     ... */\n      iszero\n      tag_158\n      jumpi\n        /* \"Helpers.sol\":573:577  true */\n      0x01\n        /* \"Helpers.sol\":566:577  return true */\n      swap2\n      pop\n      pop\n      jump(tag_153)\n        /* \"Helpers.sol\":520:592  if (value == array[i]) {     ... */\n    tag_158:\n        /* \"Helpers.sol\":501:504  i++ */\n      dup1\n      dup1\n      tag_159\n      swap1\n      tag_69\n      jump\t// in\n    tag_159:\n      swap2\n      pop\n      pop\n        /* \"Helpers.sol\":468:602  for (uint i=0; i < array.length; i++) {... */\n      jump(tag_154)\n    tag_155:\n      pop\n        /* \"Helpers.sol\":618:623  false */\n      0x00\n        /* \"Helpers.sol\":611:623  return false */\n      swap1\n      pop\n        /* \"Helpers.sol\":356:630  function addressArrContainsValue(address value, address[] memory array) internal pure returns(bool){   ... */\n    tag_153:\n      swap3\n      swap2\n      pop\n      pop\n      jump\t// out\n        /* \"Helpers.sol\":636:899  function removeIntArrElement(uint[] storage array, uint id) internal{... */\n    tag_120:\n        /* \"Helpers.sol\":720:726  uint i */\n      0x00\n        /* \"Helpers.sol\":715:893  for (uint i=0; i < array.length; i++) {... */\n    tag_161:\n        /* \"Helpers.sol\":734:739  array */\n      dup3\n        /* \"Helpers.sol\":734:746  array.length */\n      dup1\n      sload\n      swap1\n      pop\n        /* \"Helpers.sol\":730:731  i */\n      dup2\n        /* \"Helpers.sol\":730:746  i < array.length */\n      lt\n        /* \"Helpers.sol\":715:893  for (uint i=0; i < array.length; i++) {... */\n      iszero\n      tag_162\n      jumpi\n        /* \"Helpers.sol\":777:782  array */\n      dup3\n        /* \"Helpers.sol\":783:784  i */\n      dup2\n        /* \"Helpers.sol\":777:785  array[i] */\n      dup2\n      sload\n      dup2\n      lt\n      tag_164\n      jumpi\n      mstore(0x00, 0x4e487b7100000000000000000000000000000000000000000000000000000000)\n      mstore(0x04, 0x32)\n      revert(0x00, 0x24)\n    tag_164:\n      swap1\n      0x00\n      mstore\n      keccak256(0x00, 0x20)\n      add\n      sload\n        /* \"Helpers.sol\":771:773  id */\n      dup3\n        /* \"Helpers.sol\":771:785  id == array[i] */\n      eq\n        /* \"Helpers.sol\":767:883  if (id == array[i]) {... */\n      iszero\n      tag_166\n      jumpi\n        /* \"Helpers.sol\":816:821  array */\n      dup3\n        /* \"Helpers.sol\":837:838  1 */\n      0x01\n        /* \"Helpers.sol\":822:827  array */\n      dup5\n        /* \"Helpers.sol\":822:834  array.length */\n      dup1\n      sload\n      swap1\n      pop\n        /* \"Helpers.sol\":822:838  array.length - 1 */\n      tag_167\n      swap2\n      swap1\n      tag_168\n      jump\t// in\n    tag_167:\n        /* \"Helpers.sol\":816:839  array[array.length - 1] */\n      dup2\n      sload\n      dup2\n      lt\n      tag_169\n      jumpi\n      mstore(0x00, 0x4e487b7100000000000000000000000000000000000000000000000000000000)\n      mstore(0x04, 0x32)\n      revert(0x00, 0x24)\n    tag_169:\n      swap1\n      0x00\n      mstore\n      keccak256(0x00, 0x20)\n      add\n      sload\n        /* \"Helpers.sol\":805:810  array */\n      dup4\n        /* \"Helpers.sol\":811:812  i */\n      dup3\n        /* \"Helpers.sol\":805:813  array[i] */\n      dup2\n      sload\n      dup2\n      lt\n      tag_171\n      jumpi\n      mstore(0x00, 0x4e487b7100000000000000000000000000000000000000000000000000000000)\n      mstore(0x04, 0x32)\n      revert(0x00, 0x24)\n    tag_171:\n      swap1\n      0x00\n      mstore\n      keccak256(0x00, 0x20)\n      add\n        /* \"Helpers.sol\":805:839  array[i] = array[array.length - 1] */\n      dup2\n      swap1\n      sstore\n      pop\n        /* \"Helpers.sol\":857:862  array */\n      dup3\n        /* \"Helpers.sol\":857:868  array.pop() */\n      dup1\n      sload\n      dup1\n      tag_173\n      jumpi\n      mstore(0x00, 0x4e487b7100000000000000000000000000000000000000000000000000000000)\n      mstore(0x04, 0x31)\n      revert(0x00, 0x24)\n    tag_173:\n      0x01\n      swap1\n      sub\n      dup2\n      dup2\n      swap1\n      0x00\n      mstore\n      keccak256(0x00, 0x20)\n      add\n      0x00\n      swap1\n      sstore\n      swap1\n      sstore\n        /* \"Helpers.sol\":767:883  if (id == array[i]) {... */\n    tag_166:\n        /* \"Helpers.sol\":748:751  i++ */\n      dup1\n      dup1\n      tag_175\n      swap1\n      tag_69\n      jump\t// in\n    tag_175:\n      swap2\n      pop\n      pop\n        /* \"Helpers.sol\":715:893  for (uint i=0; i < array.length; i++) {... */\n      jump(tag_161)\n    tag_162:\n      pop\n        /* \"Helpers.sol\":636:899  function removeIntArrElement(uint[] storage array, uint id) internal{... */\n      pop\n      pop\n      jump\t// out\n        /* \"Helpers.sol\":905:1086  function compareStrings(string memory a, string memory b) internal pure returns (bool) {... */\n    tag_143:\n        /* \"Helpers.sol\":986:990  bool */\n      0x00\n        /* \"Helpers.sol\":1074:1075  b */\n      dup2\n        /* \"Helpers.sol\":1056:1077  abi.encodePacked((b)) */\n      add(0x20, mload(0x40))\n      tag_177\n      swap2\n      swap1\n      tag_178\n      jump\t// in\n    tag_177:\n      mload(0x40)\n      0x20\n      dup2\n      dup4\n      sub\n      sub\n      dup2\n      mstore\n      swap1\n      0x40\n      mstore\n        /* \"Helpers.sol\":1046:1078  keccak256(abi.encodePacked((b))) */\n      dup1\n      mload\n      swap1\n      0x20\n      add\n      keccak256\n        /* \"Helpers.sol\":1038:1039  a */\n      dup4\n        /* \"Helpers.sol\":1020:1041  abi.encodePacked((a)) */\n      add(0x20, mload(0x40))\n      tag_179\n      swap2\n      swap1\n      tag_178\n      jump\t// in\n    tag_179:\n      mload(0x40)\n      0x20\n      dup2\n      dup4\n      sub\n      sub\n      dup2\n      mstore\n      swap1\n      0x40\n      mstore\n        /* \"Helpers.sol\":1010:1042  keccak256(abi.encodePacked((a))) */\n      dup1\n      mload\n      swap1\n      0x20\n      add\n      keccak256\n        /* \"Helpers.sol\":1010:1078  keccak256(abi.encodePacked((a))) == keccak256(abi.encodePacked((b))) */\n      eq\n        /* \"Helpers.sol\":1002:1079  return (keccak256(abi.encodePacked((a))) == keccak256(abi.encodePacked((b)))) */\n      swap1\n      pop\n        /* \"Helpers.sol\":905:1086  function compareStrings(string memory a, string memory b) internal pure returns (bool) {... */\n      swap3\n      swap2\n      pop\n      pop\n      jump\t// out\n    tag_63:\n      mload(0x40)\n      dup1\n      0x80\n      add\n      0x40\n      mstore\n      dup1\n      0x00\n      dup2\n      mstore\n      0x20\n      add\n      0x60\n      dup2\n      mstore\n      0x20\n      add\n      0x00\n      dup2\n      mstore\n      0x20\n      add\n      iszero(iszero(0x00))\n      dup2\n      mstore\n      pop\n      swap1\n      jump\t// out\n    tag_65:\n      dup3\n      dup1\n      sload\n      tag_180\n      swap1\n      tag_73\n      jump\t// in\n    tag_180:\n      swap1\n      0x00\n      mstore\n      keccak256(0x00, 0x20)\n      swap1\n      0x1f\n      add\n      0x20\n      swap1\n      div\n      dup2\n      add\n      swap3\n      dup3\n      tag_182\n      jumpi\n      0x00\n      dup6\n      sstore\n      jump(tag_181)\n    tag_182:\n      dup3\n      0x1f\n      lt\n      tag_183\n      jumpi\n      dup1\n      mload\n      not(0xff)\n      and\n      dup4\n      dup1\n      add\n      or\n      dup6\n      sstore\n      jump(tag_181)\n    tag_183:\n      dup3\n      dup1\n      add\n      0x01\n      add\n      dup6\n      sstore\n      dup3\n      iszero\n      tag_181\n      jumpi\n      swap2\n      dup3\n      add\n    tag_184:\n      dup3\n      dup2\n      gt\n      iszero\n      tag_185\n      jumpi\n      dup3\n      mload\n      dup3\n      sstore\n      swap2\n      0x20\n      add\n      swap2\n      swap1\n      0x01\n      add\n      swap1\n      jump(tag_184)\n    tag_185:\n    tag_181:\n      pop\n      swap1\n      pop\n      tag_186\n      swap2\n      swap1\n      tag_187\n      jump\t// in\n    tag_186:\n      pop\n      swap1\n      jump\t// out\n    tag_187:\n    tag_188:\n      dup1\n      dup3\n      gt\n      iszero\n      tag_189\n      jumpi\n      0x00\n      dup2\n      0x00\n      swap1\n      sstore\n      pop\n      0x01\n      add\n      jump(tag_188)\n    tag_189:\n      pop\n      swap1\n      jump\t// out\n        /* \"#utility.yul\":7:146   */\n    tag_191:\n      0x00\n        /* \"#utility.yul\":91:97   */\n      dup2\n        /* \"#utility.yul\":78:98   */\n      calldataload\n        /* \"#utility.yul\":69:98   */\n      swap1\n      pop\n        /* \"#utility.yul\":107:140   */\n      tag_193\n        /* \"#utility.yul\":134:139   */\n      dup2\n        /* \"#utility.yul\":107:140   */\n      tag_194\n      jump\t// in\n    tag_193:\n        /* \"#utility.yul\":59:146   */\n      swap3\n      swap2\n      pop\n      pop\n      jump\t// out\n        /* \"#utility.yul\":166:518   */\n    tag_195:\n      0x00\n      dup1\n        /* \"#utility.yul\":284:287   */\n      dup4\n        /* \"#utility.yul\":277:281   */\n      0x1f\n        /* \"#utility.yul\":269:275   */\n      dup5\n        /* \"#utility.yul\":265:282   */\n      add\n        /* \"#utility.yul\":261:288   */\n      slt\n        /* \"#utility.yul\":251:253   */\n      tag_197\n      jumpi\n        /* \"#utility.yul\":302:303   */\n      0x00\n        /* \"#utility.yul\":299:300   */\n      dup1\n        /* \"#utility.yul\":292:304   */\n      revert\n        /* \"#utility.yul\":251:253   */\n    tag_197:\n        /* \"#utility.yul\":338:344   */\n      dup3\n        /* \"#utility.yul\":325:345   */\n      calldataload\n        /* \"#utility.yul\":315:345   */\n      swap1\n      pop\n        /* \"#utility.yul\":368:386   */\n      0xffffffffffffffff\n        /* \"#utility.yul\":360:366   */\n      dup2\n        /* \"#utility.yul\":357:387   */\n      gt\n        /* \"#utility.yul\":354:356   */\n      iszero\n      tag_198\n      jumpi\n        /* \"#utility.yul\":400:401   */\n      0x00\n        /* \"#utility.yul\":397:398   */\n      dup1\n        /* \"#utility.yul\":390:402   */\n      revert\n        /* \"#utility.yul\":354:356   */\n    tag_198:\n        /* \"#utility.yul\":437:441   */\n      0x20\n        /* \"#utility.yul\":429:435   */\n      dup4\n        /* \"#utility.yul\":425:442   */\n      add\n        /* \"#utility.yul\":413:442   */\n      swap2\n      pop\n        /* \"#utility.yul\":491:494   */\n      dup4\n        /* \"#utility.yul\":483:487   */\n      0x01\n        /* \"#utility.yul\":475:481   */\n      dup3\n        /* \"#utility.yul\":471:488   */\n      mul\n        /* \"#utility.yul\":461:469   */\n      dup4\n        /* \"#utility.yul\":457:489   */\n      add\n        /* \"#utility.yul\":454:495   */\n      gt\n        /* \"#utility.yul\":451:453   */\n      iszero\n      tag_199\n      jumpi\n        /* \"#utility.yul\":508:509   */\n      0x00\n        /* \"#utility.yul\":505:506   */\n      dup1\n        /* \"#utility.yul\":498:510   */\n      revert\n        /* \"#utility.yul\":451:453   */\n    tag_199:\n        /* \"#utility.yul\":241:518   */\n      swap3\n      pop\n      swap3\n      swap1\n      pop\n      jump\t// out\n        /* \"#utility.yul\":524:663   */\n    tag_200:\n      0x00\n        /* \"#utility.yul\":608:614   */\n      dup2\n        /* \"#utility.yul\":595:615   */\n      calldataload\n        /* \"#utility.yul\":586:615   */\n      swap1\n      pop\n        /* \"#utility.yul\":624:657   */\n      tag_202\n        /* \"#utility.yul\":651:656   */\n      dup2\n        /* \"#utility.yul\":624:657   */\n      tag_203\n      jump\t// in\n    tag_202:\n        /* \"#utility.yul\":576:663   */\n      swap3\n      swap2\n      pop\n      pop\n      jump\t// out\n        /* \"#utility.yul\":669:1076   */\n    tag_24:\n      0x00\n      dup1\n        /* \"#utility.yul\":794:796   */\n      0x40\n        /* \"#utility.yul\":782:791   */\n      dup4\n        /* \"#utility.yul\":773:780   */\n      dup6\n        /* \"#utility.yul\":769:792   */\n      sub\n        /* \"#utility.yul\":765:797   */\n      slt\n        /* \"#utility.yul\":762:764   */\n      iszero\n      tag_205\n      jumpi\n        /* \"#utility.yul\":810:811   */\n      0x00\n        /* \"#utility.yul\":807:808   */\n      dup1\n        /* \"#utility.yul\":800:812   */\n      revert\n        /* \"#utility.yul\":762:764   */\n    tag_205:\n        /* \"#utility.yul\":853:854   */\n      0x00\n        /* \"#utility.yul\":878:931   */\n      tag_206\n        /* \"#utility.yul\":923:930   */\n      dup6\n        /* \"#utility.yul\":914:920   */\n      dup3\n        /* \"#utility.yul\":903:912   */\n      dup7\n        /* \"#utility.yul\":899:921   */\n      add\n        /* \"#utility.yul\":878:931   */\n      tag_191\n      jump\t// in\n    tag_206:\n        /* \"#utility.yul\":868:931   */\n      swap3\n      pop\n        /* \"#utility.yul\":824:941   */\n      pop\n        /* \"#utility.yul\":980:982   */\n      0x20\n        /* \"#utility.yul\":1006:1059   */\n      tag_207\n        /* \"#utility.yul\":1051:1058   */\n      dup6\n        /* \"#utility.yul\":1042:1048   */\n      dup3\n        /* \"#utility.yul\":1031:1040   */\n      dup7\n        /* \"#utility.yul\":1027:1049   */\n      add\n        /* \"#utility.yul\":1006:1059   */\n      tag_200\n      jump\t// in\n    tag_207:\n        /* \"#utility.yul\":996:1059   */\n      swap2\n      pop\n        /* \"#utility.yul\":951:1069   */\n      pop\n        /* \"#utility.yul\":752:1076   */\n      swap3\n      pop\n      swap3\n      swap1\n      pop\n      jump\t// out\n        /* \"#utility.yul\":1082:1622   */\n    tag_14:\n      0x00\n      dup1\n      0x00\n        /* \"#utility.yul\":1227:1229   */\n      0x40\n        /* \"#utility.yul\":1215:1224   */\n      dup5\n        /* \"#utility.yul\":1206:1213   */\n      dup7\n        /* \"#utility.yul\":1202:1225   */\n      sub\n        /* \"#utility.yul\":1198:1230   */\n      slt\n        /* \"#utility.yul\":1195:1197   */\n      iszero\n      tag_209\n      jumpi\n        /* \"#utility.yul\":1243:1244   */\n      0x00\n        /* \"#utility.yul\":1240:1241   */\n      dup1\n        /* \"#utility.yul\":1233:1245   */\n      revert\n        /* \"#utility.yul\":1195:1197   */\n    tag_209:\n        /* \"#utility.yul\":1314:1315   */\n      0x00\n        /* \"#utility.yul\":1303:1312   */\n      dup5\n        /* \"#utility.yul\":1299:1316   */\n      add\n        /* \"#utility.yul\":1286:1317   */\n      calldataload\n        /* \"#utility.yul\":1344:1362   */\n      0xffffffffffffffff\n        /* \"#utility.yul\":1336:1342   */\n      dup2\n        /* \"#utility.yul\":1333:1363   */\n      gt\n        /* \"#utility.yul\":1330:1332   */\n      iszero\n      tag_210\n      jumpi\n        /* \"#utility.yul\":1376:1377   */\n      0x00\n        /* \"#utility.yul\":1373:1374   */\n      dup1\n        /* \"#utility.yul\":1366:1378   */\n      revert\n        /* \"#utility.yul\":1330:1332   */\n    tag_210:\n        /* \"#utility.yul\":1412:1477   */\n      tag_211\n        /* \"#utility.yul\":1469:1476   */\n      dup7\n        /* \"#utility.yul\":1460:1466   */\n      dup3\n        /* \"#utility.yul\":1449:1458   */\n      dup8\n        /* \"#utility.yul\":1445:1467   */\n      add\n        /* \"#utility.yul\":1412:1477   */\n      tag_195\n      jump\t// in\n    tag_211:\n        /* \"#utility.yul\":1394:1477   */\n      swap4\n      pop\n      swap4\n      pop\n        /* \"#utility.yul\":1257:1487   */\n      pop\n        /* \"#utility.yul\":1526:1528   */\n      0x20\n        /* \"#utility.yul\":1552:1605   */\n      tag_212\n        /* \"#utility.yul\":1597:1604   */\n      dup7\n        /* \"#utility.yul\":1588:1594   */\n      dup3\n        /* \"#utility.yul\":1577:1586   */\n      dup8\n        /* \"#utility.yul\":1573:1595   */\n      add\n        /* \"#utility.yul\":1552:1605   */\n      tag_200\n      jump\t// in\n    tag_212:\n        /* \"#utility.yul\":1542:1605   */\n      swap2\n      pop\n        /* \"#utility.yul\":1497:1615   */\n      pop\n        /* \"#utility.yul\":1185:1622   */\n      swap3\n      pop\n      swap3\n      pop\n      swap3\n      jump\t// out\n        /* \"#utility.yul\":1628:1890   */\n    tag_18:\n      0x00\n        /* \"#utility.yul\":1736:1738   */\n      0x20\n        /* \"#utility.yul\":1724:1733   */\n      dup3\n        /* \"#utility.yul\":1715:1722   */\n      dup5\n        /* \"#utility.yul\":1711:1734   */\n      sub\n        /* \"#utility.yul\":1707:1739   */\n      slt\n        /* \"#utility.yul\":1704:1706   */\n      iszero\n      tag_214\n      jumpi\n        /* \"#utility.yul\":1752:1753   */\n      0x00\n        /* \"#utility.yul\":1749:1750   */\n      dup1\n        /* \"#utility.yul\":1742:1754   */\n      revert\n        /* \"#utility.yul\":1704:1706   */\n    tag_214:\n        /* \"#utility.yul\":1795:1796   */\n      0x00\n        /* \"#utility.yul\":1820:1873   */\n      tag_215\n        /* \"#utility.yul\":1865:1872   */\n      dup5\n        /* \"#utility.yul\":1856:1862   */\n      dup3\n        /* \"#utility.yul\":1845:1854   */\n      dup6\n        /* \"#utility.yul\":1841:1863   */\n      add\n        /* \"#utility.yul\":1820:1873   */\n      tag_200\n      jump\t// in\n    tag_215:\n        /* \"#utility.yul\":1810:1873   */\n      swap2\n      pop\n        /* \"#utility.yul\":1766:1883   */\n      pop\n        /* \"#utility.yul\":1694:1890   */\n      swap3\n      swap2\n      pop\n      pop\n      jump\t// out\n        /* \"#utility.yul\":1896:2303   */\n    tag_30:\n      0x00\n      dup1\n        /* \"#utility.yul\":2021:2023   */\n      0x40\n        /* \"#utility.yul\":2009:2018   */\n      dup4\n        /* \"#utility.yul\":2000:2007   */\n      dup6\n        /* \"#utility.yul\":1996:2019   */\n      sub\n        /* \"#utility.yul\":1992:2024   */\n      slt\n        /* \"#utility.yul\":1989:1991   */\n      iszero\n      tag_217\n      jumpi\n        /* \"#utility.yul\":2037:2038   */\n      0x00\n        /* \"#utility.yul\":2034:2035   */\n      dup1\n        /* \"#utility.yul\":2027:2039   */\n      revert\n        /* \"#utility.yul\":1989:1991   */\n    tag_217:\n        /* \"#utility.yul\":2080:2081   */\n      0x00\n        /* \"#utility.yul\":2105:2158   */\n      tag_218\n        /* \"#utility.yul\":2150:2157   */\n      dup6\n        /* \"#utility.yul\":2141:2147   */\n      dup3\n        /* \"#utility.yul\":2130:2139   */\n      dup7\n        /* \"#utility.yul\":2126:2148   */\n      add\n        /* \"#utility.yul\":2105:2158   */\n      tag_200\n      jump\t// in\n    tag_218:\n        /* \"#utility.yul\":2095:2158   */\n      swap3\n      pop\n        /* \"#utility.yul\":2051:2168   */\n      pop\n        /* \"#utility.yul\":2207:2209   */\n      0x20\n        /* \"#utility.yul\":2233:2286   */\n      tag_219\n        /* \"#utility.yul\":2278:2285   */\n      dup6\n        /* \"#utility.yul\":2269:2275   */\n      dup3\n        /* \"#utility.yul\":2258:2267   */\n      dup7\n        /* \"#utility.yul\":2254:2276   */\n      add\n        /* \"#utility.yul\":2233:2286   */\n      tag_200\n      jump\t// in\n    tag_219:\n        /* \"#utility.yul\":2223:2286   */\n      swap2\n      pop\n        /* \"#utility.yul\":2178:2296   */\n      pop\n        /* \"#utility.yul\":1979:2303   */\n      swap3\n      pop\n      swap3\n      swap1\n      pop\n      jump\t// out\n        /* \"#utility.yul\":2309:2488   */\n    tag_220:\n      0x00\n        /* \"#utility.yul\":2399:2445   */\n      tag_222\n        /* \"#utility.yul\":2441:2444   */\n      dup4\n        /* \"#utility.yul\":2433:2439   */\n      dup4\n        /* \"#utility.yul\":2399:2445   */\n      tag_223\n      jump\t// in\n    tag_222:\n        /* \"#utility.yul\":2477:2481   */\n      0x20\n        /* \"#utility.yul\":2472:2475   */\n      dup4\n        /* \"#utility.yul\":2468:2482   */\n      add\n        /* \"#utility.yul\":2454:2482   */\n      swap1\n      pop\n        /* \"#utility.yul\":2389:2488   */\n      swap3\n      swap2\n      pop\n      pop\n      jump\t// out\n        /* \"#utility.yul\":2494:2602   */\n    tag_223:\n        /* \"#utility.yul\":2571:2595   */\n      tag_225\n        /* \"#utility.yul\":2589:2594   */\n      dup2\n        /* \"#utility.yul\":2571:2595   */\n      tag_226\n      jump\t// in\n    tag_225:\n        /* \"#utility.yul\":2566:2569   */\n      dup3\n        /* \"#utility.yul\":2559:2596   */\n      mstore\n        /* \"#utility.yul\":2549:2602   */\n      pop\n      pop\n      jump\t// out\n        /* \"#utility.yul\":2608:2726   */\n    tag_227:\n        /* \"#utility.yul\":2695:2719   */\n      tag_229\n        /* \"#utility.yul\":2713:2718   */\n      dup2\n        /* \"#utility.yul\":2695:2719   */\n      tag_226\n      jump\t// in\n    tag_229:\n        /* \"#utility.yul\":2690:2693   */\n      dup3\n        /* \"#utility.yul\":2683:2720   */\n      mstore\n        /* \"#utility.yul\":2673:2726   */\n      pop\n      pop\n      jump\t// out\n        /* \"#utility.yul\":2762:3494   */\n    tag_230:\n      0x00\n        /* \"#utility.yul\":2910:2964   */\n      tag_232\n        /* \"#utility.yul\":2958:2963   */\n      dup3\n        /* \"#utility.yul\":2910:2964   */\n      tag_233\n      jump\t// in\n    tag_232:\n        /* \"#utility.yul\":2980:3066   */\n      tag_234\n        /* \"#utility.yul\":3059:3065   */\n      dup2\n        /* \"#utility.yul\":3054:3057   */\n      dup6\n        /* \"#utility.yul\":2980:3066   */\n      tag_235\n      jump\t// in\n    tag_234:\n        /* \"#utility.yul\":2973:3066   */\n      swap4\n      pop\n        /* \"#utility.yul\":3090:3146   */\n      tag_236\n        /* \"#utility.yul\":3140:3145   */\n      dup4\n        /* \"#utility.yul\":3090:3146   */\n      tag_237\n      jump\t// in\n    tag_236:\n        /* \"#utility.yul\":3169:3176   */\n      dup1\n        /* \"#utility.yul\":3200:3201   */\n      0x00\n        /* \"#utility.yul\":3185:3469   */\n    tag_238:\n        /* \"#utility.yul\":3210:3216   */\n      dup4\n        /* \"#utility.yul\":3207:3208   */\n      dup2\n        /* \"#utility.yul\":3204:3217   */\n      lt\n        /* \"#utility.yul\":3185:3469   */\n      iszero\n      tag_240\n      jumpi\n        /* \"#utility.yul\":3286:3292   */\n      dup2\n        /* \"#utility.yul\":3280:3293   */\n      mload\n        /* \"#utility.yul\":3313:3376   */\n      tag_241\n        /* \"#utility.yul\":3372:3375   */\n      dup9\n        /* \"#utility.yul\":3357:3370   */\n      dup3\n        /* \"#utility.yul\":3313:3376   */\n      tag_220\n      jump\t// in\n    tag_241:\n        /* \"#utility.yul\":3306:3376   */\n      swap8\n      pop\n        /* \"#utility.yul\":3399:3459   */\n      tag_242\n        /* \"#utility.yul\":3452:3458   */\n      dup4\n        /* \"#utility.yul\":3399:3459   */\n      tag_243\n      jump\t// in\n    tag_242:\n        /* \"#utility.yul\":3389:3459   */\n      swap3\n      pop\n        /* \"#utility.yul\":3245:3469   */\n      pop\n        /* \"#utility.yul\":3232:3233   */\n      0x01\n        /* \"#utility.yul\":3229:3230   */\n      dup2\n        /* \"#utility.yul\":3225:3234   */\n      add\n        /* \"#utility.yul\":3220:3234   */\n      swap1\n      pop\n        /* \"#utility.yul\":3185:3469   */\n      jump(tag_238)\n    tag_240:\n        /* \"#utility.yul\":3189:3203   */\n      pop\n        /* \"#utility.yul\":3485:3488   */\n      dup6\n        /* \"#utility.yul\":3478:3488   */\n      swap4\n      pop\n        /* \"#utility.yul\":2886:3494   */\n      pop\n      pop\n      pop\n      swap3\n      swap2\n      pop\n      pop\n      jump\t// out\n        /* \"#utility.yul\":3500:3609   */\n    tag_244:\n        /* \"#utility.yul\":3581:3602   */\n      tag_246\n        /* \"#utility.yul\":3596:3601   */\n      dup2\n        /* \"#utility.yul\":3581:3602   */\n      tag_247\n      jump\t// in\n    tag_246:\n        /* \"#utility.yul\":3576:3579   */\n      dup3\n        /* \"#utility.yul\":3569:3603   */\n      mstore\n        /* \"#utility.yul\":3559:3609   */\n      pop\n      pop\n      jump\t// out\n        /* \"#utility.yul\":3615:3979   */\n    tag_248:\n      0x00\n        /* \"#utility.yul\":3731:3770   */\n      tag_250\n        /* \"#utility.yul\":3764:3769   */\n      dup3\n        /* \"#utility.yul\":3731:3770   */\n      tag_251\n      jump\t// in\n    tag_250:\n        /* \"#utility.yul\":3786:3857   */\n      tag_252\n        /* \"#utility.yul\":3850:3856   */\n      dup2\n        /* \"#utility.yul\":3845:3848   */\n      dup6\n        /* \"#utility.yul\":3786:3857   */\n      tag_253\n      jump\t// in\n    tag_252:\n        /* \"#utility.yul\":3779:3857   */\n      swap4\n      pop\n        /* \"#utility.yul\":3866:3918   */\n      tag_254\n        /* \"#utility.yul\":3911:3917   */\n      dup2\n        /* \"#utility.yul\":3906:3909   */\n      dup6\n        /* \"#utility.yul\":3899:3903   */\n      0x20\n        /* \"#utility.yul\":3892:3897   */\n      dup7\n        /* \"#utility.yul\":3888:3904   */\n      add\n        /* \"#utility.yul\":3866:3918   */\n      tag_255\n      jump\t// in\n    tag_254:\n        /* \"#utility.yul\":3943:3972   */\n      tag_256\n        /* \"#utility.yul\":3965:3971   */\n      dup2\n        /* \"#utility.yul\":3943:3972   */\n      tag_257\n      jump\t// in\n    tag_256:\n        /* \"#utility.yul\":3938:3941   */\n      dup5\n        /* \"#utility.yul\":3934:3973   */\n      add\n        /* \"#utility.yul\":3927:3973   */\n      swap2\n      pop\n        /* \"#utility.yul\":3707:3979   */\n      pop\n      swap3\n      swap2\n      pop\n      pop\n      jump\t// out\n        /* \"#utility.yul\":3985:4362   */\n    tag_258:\n      0x00\n        /* \"#utility.yul\":4119:4158   */\n      tag_260\n        /* \"#utility.yul\":4152:4157   */\n      dup3\n        /* \"#utility.yul\":4119:4158   */\n      tag_251\n      jump\t// in\n    tag_260:\n        /* \"#utility.yul\":4174:4263   */\n      tag_261\n        /* \"#utility.yul\":4256:4262   */\n      dup2\n        /* \"#utility.yul\":4251:4254   */\n      dup6\n        /* \"#utility.yul\":4174:4263   */\n      tag_262\n      jump\t// in\n    tag_261:\n        /* \"#utility.yul\":4167:4263   */\n      swap4\n      pop\n        /* \"#utility.yul\":4272:4324   */\n      tag_263\n        /* \"#utility.yul\":4317:4323   */\n      dup2\n        /* \"#utility.yul\":4312:4315   */\n      dup6\n        /* \"#utility.yul\":4305:4309   */\n      0x20\n        /* \"#utility.yul\":4298:4303   */\n      dup7\n        /* \"#utility.yul\":4294:4310   */\n      add\n        /* \"#utility.yul\":4272:4324   */\n      tag_255\n      jump\t// in\n    tag_263:\n        /* \"#utility.yul\":4349:4355   */\n      dup1\n        /* \"#utility.yul\":4344:4347   */\n      dup5\n        /* \"#utility.yul\":4340:4356   */\n      add\n        /* \"#utility.yul\":4333:4356   */\n      swap2\n      pop\n        /* \"#utility.yul\":4095:4362   */\n      pop\n      swap3\n      swap2\n      pop\n      pop\n      jump\t// out\n        /* \"#utility.yul\":4368:4698   */\n    tag_264:\n      0x00\n        /* \"#utility.yul\":4531:4598   */\n      tag_266\n        /* \"#utility.yul\":4595:4597   */\n      0x20\n        /* \"#utility.yul\":4590:4593   */\n      dup4\n        /* \"#utility.yul\":4531:4598   */\n      tag_253\n      jump\t// in\n    tag_266:\n        /* \"#utility.yul\":4524:4598   */\n      swap2\n      pop\n        /* \"#utility.yul\":4628:4662   */\n      0x5468697320626f6f6b2065786973747320696e20746865206c69627261727921\n        /* \"#utility.yul\":4624:4625   */\n      0x00\n        /* \"#utility.yul\":4619:4622   */\n      dup4\n        /* \"#utility.yul\":4615:4626   */\n      add\n        /* \"#utility.yul\":4608:4663   */\n      mstore\n        /* \"#utility.yul\":4689:4691   */\n      0x20\n        /* \"#utility.yul\":4684:4687   */\n      dup3\n        /* \"#utility.yul\":4680:4692   */\n      add\n        /* \"#utility.yul\":4673:4692   */\n      swap1\n      pop\n        /* \"#utility.yul\":4514:4698   */\n      swap2\n      swap1\n      pop\n      jump\t// out\n        /* \"#utility.yul\":4704:5032   */\n    tag_267:\n      0x00\n        /* \"#utility.yul\":4867:4934   */\n      tag_269\n        /* \"#utility.yul\":4931:4933   */\n      0x1e\n        /* \"#utility.yul\":4926:4929   */\n      dup4\n        /* \"#utility.yul\":4867:4934   */\n      tag_253\n      jump\t// in\n    tag_269:\n        /* \"#utility.yul\":4860:4934   */\n      swap2\n      pop\n        /* \"#utility.yul\":4964:4996   */\n      0x596f7520686176656e7420626f72726f776564207468617420626f6f6b210000\n        /* \"#utility.yul\":4960:4961   */\n      0x00\n        /* \"#utility.yul\":4955:4958   */\n      dup4\n        /* \"#utility.yul\":4951:4962   */\n      add\n        /* \"#utility.yul\":4944:4997   */\n      mstore\n        /* \"#utility.yul\":5023:5025   */\n      0x20\n        /* \"#utility.yul\":5018:5021   */\n      dup3\n        /* \"#utility.yul\":5014:5026   */\n      add\n        /* \"#utility.yul\":5007:5026   */\n      swap1\n      pop\n        /* \"#utility.yul\":4850:5032   */\n      swap2\n      swap1\n      pop\n      jump\t// out\n        /* \"#utility.yul\":5038:5404   */\n    tag_270:\n      0x00\n        /* \"#utility.yul\":5201:5268   */\n      tag_272\n        /* \"#utility.yul\":5265:5267   */\n      0x22\n        /* \"#utility.yul\":5260:5263   */\n      dup4\n        /* \"#utility.yul\":5201:5268   */\n      tag_253\n      jump\t// in\n    tag_272:\n        /* \"#utility.yul\":5194:5268   */\n      swap2\n      pop\n        /* \"#utility.yul\":5298:5332   */\n      0x596f7527766520616c726561647920626f72726f776564207468617420626f6f\n        /* \"#utility.yul\":5294:5295   */\n      0x00\n        /* \"#utility.yul\":5289:5292   */\n      dup4\n        /* \"#utility.yul\":5285:5296   */\n      add\n        /* \"#utility.yul\":5278:5333   */\n      mstore\n        /* \"#utility.yul\":5364:5368   */\n      0x6b21000000000000000000000000000000000000000000000000000000000000\n        /* \"#utility.yul\":5359:5361   */\n      0x20\n        /* \"#utility.yul\":5354:5357   */\n      dup4\n        /* \"#utility.yul\":5350:5362   */\n      add\n        /* \"#utility.yul\":5343:5369   */\n      mstore\n        /* \"#utility.yul\":5395:5397   */\n      0x40\n        /* \"#utility.yul\":5390:5393   */\n      dup3\n        /* \"#utility.yul\":5386:5398   */\n      add\n        /* \"#utility.yul\":5379:5398   */\n      swap1\n      pop\n        /* \"#utility.yul\":5184:5404   */\n      swap2\n      swap1\n      pop\n      jump\t// out\n        /* \"#utility.yul\":5410:5734   */\n    tag_273:\n      0x00\n        /* \"#utility.yul\":5573:5640   */\n      tag_275\n        /* \"#utility.yul\":5637:5639   */\n      0x1a\n        /* \"#utility.yul\":5632:5635   */\n      dup4\n        /* \"#utility.yul\":5573:5640   */\n      tag_253\n      jump\t// in\n    tag_275:\n        /* \"#utility.yul\":5566:5640   */\n      swap2\n      pop\n        /* \"#utility.yul\":5670:5698   */\n      0x43757272656e742075736572206973206e6f74206f776e657221000000000000\n        /* \"#utility.yul\":5666:5667   */\n      0x00\n        /* \"#utility.yul\":5661:5664   */\n      dup4\n        /* \"#utility.yul\":5657:5668   */\n      add\n        /* \"#utility.yul\":5650:5699   */\n      mstore\n        /* \"#utility.yul\":5725:5727   */\n      0x20\n        /* \"#utility.yul\":5720:5723   */\n      dup3\n        /* \"#utility.yul\":5716:5728   */\n      add\n        /* \"#utility.yul\":5709:5728   */\n      swap1\n      pop\n        /* \"#utility.yul\":5556:5734   */\n      swap2\n      swap1\n      pop\n      jump\t// out\n        /* \"#utility.yul\":5740:6108   */\n    tag_276:\n      0x00\n        /* \"#utility.yul\":5903:5970   */\n      tag_278\n        /* \"#utility.yul\":5967:5969   */\n      0x24\n        /* \"#utility.yul\":5962:5965   */\n      dup4\n        /* \"#utility.yul\":5903:5970   */\n      tag_253\n      jump\t// in\n    tag_278:\n        /* \"#utility.yul\":5896:5970   */\n      swap2\n      pop\n        /* \"#utility.yul\":6000:6034   */\n      0x5468697320626f6f6b206973206f7574206f662073746f636b2063757272656e\n        /* \"#utility.yul\":5996:5997   */\n      0x00\n        /* \"#utility.yul\":5991:5994   */\n      dup4\n        /* \"#utility.yul\":5987:5998   */\n      add\n        /* \"#utility.yul\":5980:6035   */\n      mstore\n        /* \"#utility.yul\":6066:6072   */\n      0x746c792100000000000000000000000000000000000000000000000000000000\n        /* \"#utility.yul\":6061:6063   */\n      0x20\n        /* \"#utility.yul\":6056:6059   */\n      dup4\n        /* \"#utility.yul\":6052:6064   */\n      add\n        /* \"#utility.yul\":6045:6073   */\n      mstore\n        /* \"#utility.yul\":6099:6101   */\n      0x40\n        /* \"#utility.yul\":6094:6097   */\n      dup3\n        /* \"#utility.yul\":6090:6102   */\n      add\n        /* \"#utility.yul\":6083:6102   */\n      swap1\n      pop\n        /* \"#utility.yul\":5886:6108   */\n      swap2\n      swap1\n      pop\n      jump\t// out\n        /* \"#utility.yul\":6114:6443   */\n    tag_279:\n      0x00\n        /* \"#utility.yul\":6277:6344   */\n      tag_281\n        /* \"#utility.yul\":6341:6343   */\n      0x1f\n        /* \"#utility.yul\":6336:6339   */\n      dup4\n        /* \"#utility.yul\":6277:6344   */\n      tag_253\n      jump\t// in\n    tag_281:\n        /* \"#utility.yul\":6270:6344   */\n      swap2\n      pop\n        /* \"#utility.yul\":6374:6407   */\n      0x426f6f6b20646f6573206e6f7420657869737420696e206c6962726172792100\n        /* \"#utility.yul\":6370:6371   */\n      0x00\n        /* \"#utility.yul\":6365:6368   */\n      dup4\n        /* \"#utility.yul\":6361:6372   */\n      add\n        /* \"#utility.yul\":6354:6408   */\n      mstore\n        /* \"#utility.yul\":6434:6436   */\n      0x20\n        /* \"#utility.yul\":6429:6432   */\n      dup3\n        /* \"#utility.yul\":6425:6437   */\n      add\n        /* \"#utility.yul\":6418:6437   */\n      swap1\n      pop\n        /* \"#utility.yul\":6260:6443   */\n      swap2\n      swap1\n      pop\n      jump\t// out\n        /* \"#utility.yul\":6449:6778   */\n    tag_282:\n      0x00\n        /* \"#utility.yul\":6612:6679   */\n      tag_284\n        /* \"#utility.yul\":6676:6678   */\n      0x1f\n        /* \"#utility.yul\":6671:6674   */\n      dup4\n        /* \"#utility.yul\":6612:6679   */\n      tag_253\n      jump\t// in\n    tag_284:\n        /* \"#utility.yul\":6605:6679   */\n      swap2\n      pop\n        /* \"#utility.yul\":6709:6742   */\n      0x5175616e746974792063616e6e6f74206265206c657373207468616e20312100\n        /* \"#utility.yul\":6705:6706   */\n      0x00\n        /* \"#utility.yul\":6700:6703   */\n      dup4\n        /* \"#utility.yul\":6696:6707   */\n      add\n        /* \"#utility.yul\":6689:6743   */\n      mstore\n        /* \"#utility.yul\":6769:6771   */\n      0x20\n        /* \"#utility.yul\":6764:6767   */\n      dup3\n        /* \"#utility.yul\":6760:6772   */\n      add\n        /* \"#utility.yul\":6753:6772   */\n      swap1\n      pop\n        /* \"#utility.yul\":6595:6778   */\n      swap2\n      swap1\n      pop\n      jump\t// out\n        /* \"#utility.yul\":6784:6902   */\n    tag_285:\n        /* \"#utility.yul\":6871:6895   */\n      tag_287\n        /* \"#utility.yul\":6889:6894   */\n      dup2\n        /* \"#utility.yul\":6871:6895   */\n      tag_288\n      jump\t// in\n    tag_287:\n        /* \"#utility.yul\":6866:6869   */\n      dup3\n        /* \"#utility.yul\":6859:6896   */\n      mstore\n        /* \"#utility.yul\":6849:6902   */\n      pop\n      pop\n      jump\t// out\n        /* \"#utility.yul\":6908:7183   */\n    tag_178:\n      0x00\n        /* \"#utility.yul\":7062:7157   */\n      tag_290\n        /* \"#utility.yul\":7153:7156   */\n      dup3\n        /* \"#utility.yul\":7144:7150   */\n      dup5\n        /* \"#utility.yul\":7062:7157   */\n      tag_258\n      jump\t// in\n    tag_290:\n        /* \"#utility.yul\":7055:7157   */\n      swap2\n      pop\n        /* \"#utility.yul\":7174:7177   */\n      dup2\n        /* \"#utility.yul\":7167:7177   */\n      swap1\n      pop\n        /* \"#utility.yul\":7044:7183   */\n      swap3\n      swap2\n      pop\n      pop\n      jump\t// out\n        /* \"#utility.yul\":7189:7411   */\n    tag_33:\n      0x00\n        /* \"#utility.yul\":7320:7322   */\n      0x20\n        /* \"#utility.yul\":7309:7318   */\n      dup3\n        /* \"#utility.yul\":7305:7323   */\n      add\n        /* \"#utility.yul\":7297:7323   */\n      swap1\n      pop\n        /* \"#utility.yul\":7333:7404   */\n      tag_292\n        /* \"#utility.yul\":7401:7402   */\n      0x00\n        /* \"#utility.yul\":7390:7399   */\n      dup4\n        /* \"#utility.yul\":7386:7403   */\n      add\n        /* \"#utility.yul\":7377:7383   */\n      dup5\n        /* \"#utility.yul\":7333:7404   */\n      tag_227\n      jump\t// in\n    tag_292:\n        /* \"#utility.yul\":7287:7411   */\n      swap3\n      swap2\n      pop\n      pop\n      jump\t// out\n        /* \"#utility.yul\":7417:7790   */\n    tag_47:\n      0x00\n        /* \"#utility.yul\":7598:7600   */\n      0x20\n        /* \"#utility.yul\":7587:7596   */\n      dup3\n        /* \"#utility.yul\":7583:7601   */\n      add\n        /* \"#utility.yul\":7575:7601   */\n      swap1\n      pop\n        /* \"#utility.yul\":7647:7656   */\n      dup2\n        /* \"#utility.yul\":7641:7645   */\n      dup2\n        /* \"#utility.yul\":7637:7657   */\n      sub\n        /* \"#utility.yul\":7633:7634   */\n      0x00\n        /* \"#utility.yul\":7622:7631   */\n      dup4\n        /* \"#utility.yul\":7618:7635   */\n      add\n        /* \"#utility.yul\":7611:7658   */\n      mstore\n        /* \"#utility.yul\":7675:7783   */\n      tag_294\n        /* \"#utility.yul\":7778:7782   */\n      dup2\n        /* \"#utility.yul\":7769:7775   */\n      dup5\n        /* \"#utility.yul\":7675:7783   */\n      tag_230\n      jump\t// in\n    tag_294:\n        /* \"#utility.yul\":7667:7783   */\n      swap1\n      pop\n        /* \"#utility.yul\":7565:7790   */\n      swap3\n      swap2\n      pop\n      pop\n      jump\t// out\n        /* \"#utility.yul\":7796:8215   */\n    tag_58:\n      0x00\n        /* \"#utility.yul\":8000:8002   */\n      0x20\n        /* \"#utility.yul\":7989:7998   */\n      dup3\n        /* \"#utility.yul\":7985:8003   */\n      add\n        /* \"#utility.yul\":7977:8003   */\n      swap1\n      pop\n        /* \"#utility.yul\":8049:8058   */\n      dup2\n        /* \"#utility.yul\":8043:8047   */\n      dup2\n        /* \"#utility.yul\":8039:8059   */\n      sub\n        /* \"#utility.yul\":8035:8036   */\n      0x00\n        /* \"#utility.yul\":8024:8033   */\n      dup4\n        /* \"#utility.yul\":8020:8037   */\n      add\n        /* \"#utility.yul\":8013:8060   */\n      mstore\n        /* \"#utility.yul\":8077:8208   */\n      tag_296\n        /* \"#utility.yul\":8203:8207   */\n      dup2\n        /* \"#utility.yul\":8077:8208   */\n      tag_264\n      jump\t// in\n    tag_296:\n        /* \"#utility.yul\":8069:8208   */\n      swap1\n      pop\n        /* \"#utility.yul\":7967:8215   */\n      swap2\n      swap1\n      pop\n      jump\t// out\n        /* \"#utility.yul\":8221:8640   */\n    tag_118:\n      0x00\n        /* \"#utility.yul\":8425:8427   */\n      0x20\n        /* \"#utility.yul\":8414:8423   */\n      dup3\n        /* \"#utility.yul\":8410:8428   */\n      add\n        /* \"#utility.yul\":8402:8428   */\n      swap1\n      pop\n        /* \"#utility.yul\":8474:8483   */\n      dup2\n        /* \"#utility.yul\":8468:8472   */\n      dup2\n        /* \"#utility.yul\":8464:8484   */\n      sub\n        /* \"#utility.yul\":8460:8461   */\n      0x00\n        /* \"#utility.yul\":8449:8458   */\n      dup4\n        /* \"#utility.yul\":8445:8462   */\n      add\n        /* \"#utility.yul\":8438:8485   */\n      mstore\n        /* \"#utility.yul\":8502:8633   */\n      tag_298\n        /* \"#utility.yul\":8628:8632   */\n      dup2\n        /* \"#utility.yul\":8502:8633   */\n      tag_267\n      jump\t// in\n    tag_298:\n        /* \"#utility.yul\":8494:8633   */\n      swap1\n      pop\n        /* \"#utility.yul\":8392:8640   */\n      swap2\n      swap1\n      pop\n      jump\t// out\n        /* \"#utility.yul\":8646:9065   */\n    tag_96:\n      0x00\n        /* \"#utility.yul\":8850:8852   */\n      0x20\n        /* \"#utility.yul\":8839:8848   */\n      dup3\n        /* \"#utility.yul\":8835:8853   */\n      add\n        /* \"#utility.yul\":8827:8853   */\n      swap1\n      pop\n        /* \"#utility.yul\":8899:8908   */\n      dup2\n        /* \"#utility.yul\":8893:8897   */\n      dup2\n        /* \"#utility.yul\":8889:8909   */\n      sub\n        /* \"#utility.yul\":8885:8886   */\n      0x00\n        /* \"#utility.yul\":8874:8883   */\n      dup4\n        /* \"#utility.yul\":8870:8887   */\n      add\n        /* \"#utility.yul\":8863:8910   */\n      mstore\n        /* \"#utility.yul\":8927:9058   */\n      tag_300\n        /* \"#utility.yul\":9053:9057   */\n      dup2\n        /* \"#utility.yul\":8927:9058   */\n      tag_270\n      jump\t// in\n    tag_300:\n        /* \"#utility.yul\":8919:9058   */\n      swap1\n      pop\n        /* \"#utility.yul\":8817:9065   */\n      swap2\n      swap1\n      pop\n      jump\t// out\n        /* \"#utility.yul\":9071:9490   */\n    tag_51:\n      0x00\n        /* \"#utility.yul\":9275:9277   */\n      0x20\n        /* \"#utility.yul\":9264:9273   */\n      dup3\n        /* \"#utility.yul\":9260:9278   */\n      add\n        /* \"#utility.yul\":9252:9278   */\n      swap1\n      pop\n        /* \"#utility.yul\":9324:9333   */\n      dup2\n        /* \"#utility.yul\":9318:9322   */\n      dup2\n        /* \"#utility.yul\":9314:9334   */\n      sub\n        /* \"#utility.yul\":9310:9311   */\n      0x00\n        /* \"#utility.yul\":9299:9308   */\n      dup4\n        /* \"#utility.yul\":9295:9312   */\n      add\n        /* \"#utility.yul\":9288:9335   */\n      mstore\n        /* \"#utility.yul\":9352:9483   */\n      tag_302\n        /* \"#utility.yul\":9478:9482   */\n      dup2\n        /* \"#utility.yul\":9352:9483   */\n      tag_273\n      jump\t// in\n    tag_302:\n        /* \"#utility.yul\":9344:9483   */\n      swap1\n      pop\n        /* \"#utility.yul\":9242:9490   */\n      swap2\n      swap1\n      pop\n      jump\t// out\n        /* \"#utility.yul\":9496:9915   */\n    tag_89:\n      0x00\n        /* \"#utility.yul\":9700:9702   */\n      0x20\n        /* \"#utility.yul\":9689:9698   */\n      dup3\n        /* \"#utility.yul\":9685:9703   */\n      add\n        /* \"#utility.yul\":9677:9703   */\n      swap1\n      pop\n        /* \"#utility.yul\":9749:9758   */\n      dup2\n        /* \"#utility.yul\":9743:9747   */\n      dup2\n        /* \"#utility.yul\":9739:9759   */\n      sub\n        /* \"#utility.yul\":9735:9736   */\n      0x00\n        /* \"#utility.yul\":9724:9733   */\n      dup4\n        /* \"#utility.yul\":9720:9737   */\n      add\n        /* \"#utility.yul\":9713:9760   */\n      mstore\n        /* \"#utility.yul\":9777:9908   */\n      tag_304\n        /* \"#utility.yul\":9903:9907   */\n      dup2\n        /* \"#utility.yul\":9777:9908   */\n      tag_276\n      jump\t// in\n    tag_304:\n        /* \"#utility.yul\":9769:9908   */\n      swap1\n      pop\n        /* \"#utility.yul\":9667:9915   */\n      swap2\n      swap1\n      pop\n      jump\t// out\n        /* \"#utility.yul\":9921:10340   */\n    tag_85:\n      0x00\n        /* \"#utility.yul\":10125:10127   */\n      0x20\n        /* \"#utility.yul\":10114:10123   */\n      dup3\n        /* \"#utility.yul\":10110:10128   */\n      add\n        /* \"#utility.yul\":10102:10128   */\n      swap1\n      pop\n        /* \"#utility.yul\":10174:10183   */\n      dup2\n        /* \"#utility.yul\":10168:10172   */\n      dup2\n        /* \"#utility.yul\":10164:10184   */\n      sub\n        /* \"#utility.yul\":10160:10161   */\n      0x00\n        /* \"#utility.yul\":10149:10158   */\n      dup4\n        /* \"#utility.yul\":10145:10162   */\n      add\n        /* \"#utility.yul\":10138:10185   */\n      mstore\n        /* \"#utility.yul\":10202:10333   */\n      tag_306\n        /* \"#utility.yul\":10328:10332   */\n      dup2\n        /* \"#utility.yul\":10202:10333   */\n      tag_279\n      jump\t// in\n    tag_306:\n        /* \"#utility.yul\":10194:10333   */\n      swap1\n      pop\n        /* \"#utility.yul\":10092:10340   */\n      swap2\n      swap1\n      pop\n      jump\t// out\n        /* \"#utility.yul\":10346:10765   */\n    tag_61:\n      0x00\n        /* \"#utility.yul\":10550:10552   */\n      0x20\n        /* \"#utility.yul\":10539:10548   */\n      dup3\n        /* \"#utility.yul\":10535:10553   */\n      add\n        /* \"#utility.yul\":10527:10553   */\n      swap1\n      pop\n        /* \"#utility.yul\":10599:10608   */\n      dup2\n        /* \"#utility.yul\":10593:10597   */\n      dup2\n        /* \"#utility.yul\":10589:10609   */\n      sub\n        /* \"#utility.yul\":10585:10586   */\n      0x00\n        /* \"#utility.yul\":10574:10583   */\n      dup4\n        /* \"#utility.yul\":10570:10587   */\n      add\n        /* \"#utility.yul\":10563:10610   */\n      mstore\n        /* \"#utility.yul\":10627:10758   */\n      tag_308\n        /* \"#utility.yul\":10753:10757   */\n      dup2\n        /* \"#utility.yul\":10627:10758   */\n      tag_282\n      jump\t// in\n    tag_308:\n        /* \"#utility.yul\":10619:10758   */\n      swap1\n      pop\n        /* \"#utility.yul\":10517:10765   */\n      swap2\n      swap1\n      pop\n      jump\t// out\n        /* \"#utility.yul\":10771:10993   */\n    tag_27:\n      0x00\n        /* \"#utility.yul\":10902:10904   */\n      0x20\n        /* \"#utility.yul\":10891:10900   */\n      dup3\n        /* \"#utility.yul\":10887:10905   */\n      add\n        /* \"#utility.yul\":10879:10905   */\n      swap1\n      pop\n        /* \"#utility.yul\":10915:10986   */\n      tag_310\n        /* \"#utility.yul\":10983:10984   */\n      0x00\n        /* \"#utility.yul\":10972:10981   */\n      dup4\n        /* \"#utility.yul\":10968:10985   */\n      add\n        /* \"#utility.yul\":10959:10965   */\n      dup5\n        /* \"#utility.yul\":10915:10986   */\n      tag_285\n      jump\t// in\n    tag_310:\n        /* \"#utility.yul\":10869:10993   */\n      swap3\n      swap2\n      pop\n      pop\n      jump\t// out\n        /* \"#utility.yul\":10999:11631   */\n    tag_21:\n      0x00\n        /* \"#utility.yul\":11228:11231   */\n      0x80\n        /* \"#utility.yul\":11217:11226   */\n      dup3\n        /* \"#utility.yul\":11213:11232   */\n      add\n        /* \"#utility.yul\":11205:11232   */\n      swap1\n      pop\n        /* \"#utility.yul\":11242:11313   */\n      tag_312\n        /* \"#utility.yul\":11310:11311   */\n      0x00\n        /* \"#utility.yul\":11299:11308   */\n      dup4\n        /* \"#utility.yul\":11295:11312   */\n      add\n        /* \"#utility.yul\":11286:11292   */\n      dup8\n        /* \"#utility.yul\":11242:11313   */\n      tag_285\n      jump\t// in\n    tag_312:\n        /* \"#utility.yul\":11360:11369   */\n      dup2\n        /* \"#utility.yul\":11354:11358   */\n      dup2\n        /* \"#utility.yul\":11350:11370   */\n      sub\n        /* \"#utility.yul\":11345:11347   */\n      0x20\n        /* \"#utility.yul\":11334:11343   */\n      dup4\n        /* \"#utility.yul\":11330:11348   */\n      add\n        /* \"#utility.yul\":11323:11371   */\n      mstore\n        /* \"#utility.yul\":11388:11466   */\n      tag_313\n        /* \"#utility.yul\":11461:11465   */\n      dup2\n        /* \"#utility.yul\":11452:11458   */\n      dup7\n        /* \"#utility.yul\":11388:11466   */\n      tag_248\n      jump\t// in\n    tag_313:\n        /* \"#utility.yul\":11380:11466   */\n      swap1\n      pop\n        /* \"#utility.yul\":11476:11548   */\n      tag_314\n        /* \"#utility.yul\":11544:11546   */\n      0x40\n        /* \"#utility.yul\":11533:11542   */\n      dup4\n        /* \"#utility.yul\":11529:11547   */\n      add\n        /* \"#utility.yul\":11520:11526   */\n      dup6\n        /* \"#utility.yul\":11476:11548   */\n      tag_285\n      jump\t// in\n    tag_314:\n        /* \"#utility.yul\":11558:11624   */\n      tag_315\n        /* \"#utility.yul\":11620:11622   */\n      0x60\n        /* \"#utility.yul\":11609:11618   */\n      dup4\n        /* \"#utility.yul\":11605:11623   */\n      add\n        /* \"#utility.yul\":11596:11602   */\n      dup5\n        /* \"#utility.yul\":11558:11624   */\n      tag_244\n      jump\t// in\n    tag_315:\n        /* \"#utility.yul\":11195:11631   */\n      swap6\n      swap5\n      pop\n      pop\n      pop\n      pop\n      pop\n      jump\t// out\n        /* \"#utility.yul\":11637:11769   */\n    tag_237:\n      0x00\n        /* \"#utility.yul\":11727:11730   */\n      dup2\n        /* \"#utility.yul\":11719:11730   */\n      swap1\n      pop\n        /* \"#utility.yul\":11757:11761   */\n      0x20\n        /* \"#utility.yul\":11752:11755   */\n      dup3\n        /* \"#utility.yul\":11748:11762   */\n      add\n        /* \"#utility.yul\":11740:11762   */\n      swap1\n      pop\n        /* \"#utility.yul\":11709:11769   */\n      swap2\n      swap1\n      pop\n      jump\t// out\n        /* \"#utility.yul\":11775:11889   */\n    tag_233:\n      0x00\n        /* \"#utility.yul\":11876:11881   */\n      dup2\n        /* \"#utility.yul\":11870:11882   */\n      mload\n        /* \"#utility.yul\":11860:11882   */\n      swap1\n      pop\n        /* \"#utility.yul\":11849:11889   */\n      swap2\n      swap1\n      pop\n      jump\t// out\n        /* \"#utility.yul\":11895:11994   */\n    tag_251:\n      0x00\n        /* \"#utility.yul\":11981:11986   */\n      dup2\n        /* \"#utility.yul\":11975:11987   */\n      mload\n        /* \"#utility.yul\":11965:11987   */\n      swap1\n      pop\n        /* \"#utility.yul\":11954:11994   */\n      swap2\n      swap1\n      pop\n      jump\t// out\n        /* \"#utility.yul\":12000:12113   */\n    tag_243:\n      0x00\n        /* \"#utility.yul\":12102:12106   */\n      0x20\n        /* \"#utility.yul\":12097:12100   */\n      dup3\n        /* \"#utility.yul\":12093:12107   */\n      add\n        /* \"#utility.yul\":12085:12107   */\n      swap1\n      pop\n        /* \"#utility.yul\":12075:12113   */\n      swap2\n      swap1\n      pop\n      jump\t// out\n        /* \"#utility.yul\":12119:12303   */\n    tag_235:\n      0x00\n        /* \"#utility.yul\":12252:12258   */\n      dup3\n        /* \"#utility.yul\":12247:12250   */\n      dup3\n        /* \"#utility.yul\":12240:12259   */\n      mstore\n        /* \"#utility.yul\":12292:12296   */\n      0x20\n        /* \"#utility.yul\":12287:12290   */\n      dup3\n        /* \"#utility.yul\":12283:12297   */\n      add\n        /* \"#utility.yul\":12268:12297   */\n      swap1\n      pop\n        /* \"#utility.yul\":12230:12303   */\n      swap3\n      swap2\n      pop\n      pop\n      jump\t// out\n        /* \"#utility.yul\":12309:12478   */\n    tag_253:\n      0x00\n        /* \"#utility.yul\":12427:12433   */\n      dup3\n        /* \"#utility.yul\":12422:12425   */\n      dup3\n        /* \"#utility.yul\":12415:12434   */\n      mstore\n        /* \"#utility.yul\":12467:12471   */\n      0x20\n        /* \"#utility.yul\":12462:12465   */\n      dup3\n        /* \"#utility.yul\":12458:12472   */\n      add\n        /* \"#utility.yul\":12443:12472   */\n      swap1\n      pop\n        /* \"#utility.yul\":12405:12478   */\n      swap3\n      swap2\n      pop\n      pop\n      jump\t// out\n        /* \"#utility.yul\":12484:12632   */\n    tag_262:\n      0x00\n        /* \"#utility.yul\":12623:12626   */\n      dup2\n        /* \"#utility.yul\":12608:12626   */\n      swap1\n      pop\n        /* \"#utility.yul\":12598:12632   */\n      swap3\n      swap2\n      pop\n      pop\n      jump\t// out\n        /* \"#utility.yul\":12638:12829   */\n    tag_168:\n      0x00\n        /* \"#utility.yul\":12698:12718   */\n      tag_324\n        /* \"#utility.yul\":12716:12717   */\n      dup3\n        /* \"#utility.yul\":12698:12718   */\n      tag_288\n      jump\t// in\n    tag_324:\n        /* \"#utility.yul\":12693:12718   */\n      swap2\n      pop\n        /* \"#utility.yul\":12732:12752   */\n      tag_325\n        /* \"#utility.yul\":12750:12751   */\n      dup4\n        /* \"#utility.yul\":12732:12752   */\n      tag_288\n      jump\t// in\n    tag_325:\n        /* \"#utility.yul\":12727:12752   */\n      swap3\n      pop\n        /* \"#utility.yul\":12771:12772   */\n      dup3\n        /* \"#utility.yul\":12768:12769   */\n      dup3\n        /* \"#utility.yul\":12765:12773   */\n      lt\n        /* \"#utility.yul\":12762:12764   */\n      iszero\n      tag_326\n      jumpi\n        /* \"#utility.yul\":12776:12794   */\n      tag_327\n      tag_328\n      jump\t// in\n    tag_327:\n        /* \"#utility.yul\":12762:12764   */\n    tag_326:\n        /* \"#utility.yul\":12821:12822   */\n      dup3\n        /* \"#utility.yul\":12818:12819   */\n      dup3\n        /* \"#utility.yul\":12814:12823   */\n      sub\n        /* \"#utility.yul\":12806:12823   */\n      swap1\n      pop\n        /* \"#utility.yul\":12683:12829   */\n      swap3\n      swap2\n      pop\n      pop\n      jump\t// out\n        /* \"#utility.yul\":12835:12931   */\n    tag_226:\n      0x00\n        /* \"#utility.yul\":12901:12925   */\n      tag_330\n        /* \"#utility.yul\":12919:12924   */\n      dup3\n        /* \"#utility.yul\":12901:12925   */\n      tag_331\n      jump\t// in\n    tag_330:\n        /* \"#utility.yul\":12890:12925   */\n      swap1\n      pop\n        /* \"#utility.yul\":12880:12931   */\n      swap2\n      swap1\n      pop\n      jump\t// out\n        /* \"#utility.yul\":12937:13027   */\n    tag_247:\n      0x00\n        /* \"#utility.yul\":13014:13019   */\n      dup2\n        /* \"#utility.yul\":13007:13020   */\n      iszero\n        /* \"#utility.yul\":13000:13021   */\n      iszero\n        /* \"#utility.yul\":12989:13021   */\n      swap1\n      pop\n        /* \"#utility.yul\":12979:13027   */\n      swap2\n      swap1\n      pop\n      jump\t// out\n        /* \"#utility.yul\":13033:13159   */\n    tag_331:\n      0x00\n        /* \"#utility.yul\":13110:13152   */\n      0xffffffffffffffffffffffffffffffffffffffff\n        /* \"#utility.yul\":13103:13108   */\n      dup3\n        /* \"#utility.yul\":13099:13153   */\n      and\n        /* \"#utility.yul\":13088:13153   */\n      swap1\n      pop\n        /* \"#utility.yul\":13078:13159   */\n      swap2\n      swap1\n      pop\n      jump\t// out\n        /* \"#utility.yul\":13165:13242   */\n    tag_288:\n      0x00\n        /* \"#utility.yul\":13231:13236   */\n      dup2\n        /* \"#utility.yul\":13220:13236   */\n      swap1\n      pop\n        /* \"#utility.yul\":13210:13242   */\n      swap2\n      swap1\n      pop\n      jump\t// out\n        /* \"#utility.yul\":13248:13555   */\n    tag_255:\n        /* \"#utility.yul\":13316:13317   */\n      0x00\n        /* \"#utility.yul\":13326:13439   */\n    tag_336:\n        /* \"#utility.yul\":13340:13346   */\n      dup4\n        /* \"#utility.yul\":13337:13338   */\n      dup2\n        /* \"#utility.yul\":13334:13347   */\n      lt\n        /* \"#utility.yul\":13326:13439   */\n      iszero\n      tag_338\n      jumpi\n        /* \"#utility.yul\":13425:13426   */\n      dup1\n        /* \"#utility.yul\":13420:13423   */\n      dup3\n        /* \"#utility.yul\":13416:13427   */\n      add\n        /* \"#utility.yul\":13410:13428   */\n      mload\n        /* \"#utility.yul\":13406:13407   */\n      dup2\n        /* \"#utility.yul\":13401:13404   */\n      dup5\n        /* \"#utility.yul\":13397:13408   */\n      add\n        /* \"#utility.yul\":13390:13429   */\n      mstore\n        /* \"#utility.yul\":13362:13364   */\n      0x20\n        /* \"#utility.yul\":13359:13360   */\n      dup2\n        /* \"#utility.yul\":13355:13365   */\n      add\n        /* \"#utility.yul\":13350:13365   */\n      swap1\n      pop\n        /* \"#utility.yul\":13326:13439   */\n      jump(tag_336)\n    tag_338:\n        /* \"#utility.yul\":13457:13463   */\n      dup4\n        /* \"#utility.yul\":13454:13455   */\n      dup2\n        /* \"#utility.yul\":13451:13464   */\n      gt\n        /* \"#utility.yul\":13448:13450   */\n      iszero\n      tag_339\n      jumpi\n        /* \"#utility.yul\":13537:13538   */\n      0x00\n        /* \"#utility.yul\":13528:13534   */\n      dup5\n        /* \"#utility.yul\":13523:13526   */\n      dup5\n        /* \"#utility.yul\":13519:13535   */\n      add\n        /* \"#utility.yul\":13512:13539   */\n      mstore\n        /* \"#utility.yul\":13448:13450   */\n    tag_339:\n        /* \"#utility.yul\":13297:13555   */\n      pop\n      pop\n      pop\n      pop\n      jump\t// out\n        /* \"#utility.yul\":13561:13732   */\n    tag_105:\n      0x00\n        /* \"#utility.yul\":13623:13647   */\n      tag_341\n        /* \"#utility.yul\":13641:13646   */\n      dup3\n        /* \"#utility.yul\":13623:13647   */\n      tag_288\n      jump\t// in\n    tag_341:\n        /* \"#utility.yul\":13614:13647   */\n      swap2\n      pop\n        /* \"#utility.yul\":13669:13673   */\n      0x00\n        /* \"#utility.yul\":13662:13667   */\n      dup3\n        /* \"#utility.yul\":13659:13674   */\n      eq\n        /* \"#utility.yul\":13656:13658   */\n      iszero\n      tag_342\n      jumpi\n        /* \"#utility.yul\":13677:13695   */\n      tag_343\n      tag_328\n      jump\t// in\n    tag_343:\n        /* \"#utility.yul\":13656:13658   */\n    tag_342:\n        /* \"#utility.yul\":13724:13725   */\n      0x01\n        /* \"#utility.yul\":13717:13722   */\n      dup3\n        /* \"#utility.yul\":13713:13726   */\n      sub\n        /* \"#utility.yul\":13706:13726   */\n      swap1\n      pop\n        /* \"#utility.yul\":13604:13732   */\n      swap2\n      swap1\n      pop\n      jump\t// out\n        /* \"#utility.yul\":13738:14058   */\n    tag_73:\n      0x00\n        /* \"#utility.yul\":13819:13820   */\n      0x02\n        /* \"#utility.yul\":13813:13817   */\n      dup3\n        /* \"#utility.yul\":13809:13821   */\n      div\n        /* \"#utility.yul\":13799:13821   */\n      swap1\n      pop\n        /* \"#utility.yul\":13866:13867   */\n      0x01\n        /* \"#utility.yul\":13860:13864   */\n      dup3\n        /* \"#utility.yul\":13856:13868   */\n      and\n        /* \"#utility.yul\":13887:13905   */\n      dup1\n        /* \"#utility.yul\":13877:13879   */\n      tag_345\n      jumpi\n        /* \"#utility.yul\":13943:13947   */\n      0x7f\n        /* \"#utility.yul\":13935:13941   */\n      dup3\n        /* \"#utility.yul\":13931:13948   */\n      and\n        /* \"#utility.yul\":13921:13948   */\n      swap2\n      pop\n        /* \"#utility.yul\":13877:13879   */\n    tag_345:\n        /* \"#utility.yul\":14005:14007   */\n      0x20\n        /* \"#utility.yul\":13997:14003   */\n      dup3\n        /* \"#utility.yul\":13994:14008   */\n      lt\n        /* \"#utility.yul\":13974:13992   */\n      dup2\n        /* \"#utility.yul\":13971:14009   */\n      eq\n        /* \"#utility.yul\":13968:13970   */\n      iszero\n      tag_346\n      jumpi\n        /* \"#utility.yul\":14024:14042   */\n      tag_347\n      tag_348\n      jump\t// in\n    tag_347:\n        /* \"#utility.yul\":13968:13970   */\n    tag_346:\n        /* \"#utility.yul\":13789:14058   */\n      pop\n      swap2\n      swap1\n      pop\n      jump\t// out\n        /* \"#utility.yul\":14064:14297   */\n    tag_69:\n      0x00\n        /* \"#utility.yul\":14126:14150   */\n      tag_350\n        /* \"#utility.yul\":14144:14149   */\n      dup3\n        /* \"#utility.yul\":14126:14150   */\n      tag_288\n      jump\t// in\n    tag_350:\n        /* \"#utility.yul\":14117:14150   */\n      swap2\n      pop\n        /* \"#utility.yul\":14172:14238   */\n      0xffffffffffffffffffffffffffffffffffffffffffffffffffffffffffffffff\n        /* \"#utility.yul\":14165:14170   */\n      dup3\n        /* \"#utility.yul\":14162:14239   */\n      eq\n        /* \"#utility.yul\":14159:14161   */\n      iszero\n      tag_351\n      jumpi\n        /* \"#utility.yul\":14242:14260   */\n      tag_352\n      tag_328\n      jump\t// in\n    tag_352:\n        /* \"#utility.yul\":14159:14161   */\n    tag_351:\n        /* \"#utility.yul\":14289:14290   */\n      0x01\n        /* \"#utility.yul\":14282:14287   */\n      dup3\n        /* \"#utility.yul\":14278:14291   */\n      add\n        /* \"#utility.yul\":14271:14291   */\n      swap1\n      pop\n        /* \"#utility.yul\":14107:14297   */\n      swap2\n      swap1\n      pop\n      jump\t// out\n        /* \"#utility.yul\":14303:14483   */\n    tag_328:\n        /* \"#utility.yul\":14351:14428   */\n      0x4e487b7100000000000000000000000000000000000000000000000000000000\n        /* \"#utility.yul\":14348:14349   */\n      0x00\n        /* \"#utility.yul\":14341:14429   */\n      mstore\n        /* \"#utility.yul\":14448:14452   */\n      0x11\n        /* \"#utility.yul\":14445:14446   */\n      0x04\n        /* \"#utility.yul\":14438:14453   */\n      mstore\n        /* \"#utility.yul\":14472:14476   */\n      0x24\n        /* \"#utility.yul\":14469:14470   */\n      0x00\n        /* \"#utility.yul\":14462:14477   */\n      revert\n        /* \"#utility.yul\":14489:14669   */\n    tag_348:\n        /* \"#utility.yul\":14537:14614   */\n      0x4e487b7100000000000000000000000000000000000000000000000000000000\n        /* \"#utility.yul\":14534:14535   */\n      0x00\n        /* \"#utility.yul\":14527:14615   */\n      mstore\n        /* \"#utility.yul\":14634:14638   */\n      0x22\n        /* \"#utility.yul\":14631:14632   */\n      0x04\n        /* \"#utility.yul\":14624:14639   */\n      mstore\n        /* \"#utility.yul\":14658:14662   */\n      0x24\n        /* \"#utility.yul\":14655:14656   */\n      0x00\n        /* \"#utility.yul\":14648:14663   */\n      revert\n        /* \"#utility.yul\":14675:14777   */\n    tag_257:\n      0x00\n        /* \"#utility.yul\":14767:14769   */\n      0x1f\n        /* \"#utility.yul\":14763:14770   */\n      not\n        /* \"#utility.yul\":14758:14760   */\n      0x1f\n        /* \"#utility.yul\":14751:14756   */\n      dup4\n        /* \"#utility.yul\":14747:14761   */\n      add\n        /* \"#utility.yul\":14743:14771   */\n      and\n        /* \"#utility.yul\":14733:14771   */\n      swap1\n      pop\n        /* \"#utility.yul\":14723:14777   */\n      swap2\n      swap1\n      pop\n      jump\t// out\n        /* \"#utility.yul\":14783:14905   */\n    tag_194:\n        /* \"#utility.yul\":14856:14880   */\n      tag_357\n        /* \"#utility.yul\":14874:14879   */\n      dup2\n        /* \"#utility.yul\":14856:14880   */\n      tag_226\n      jump\t// in\n    tag_357:\n        /* \"#utility.yul\":14849:14854   */\n      dup2\n        /* \"#utility.yul\":14846:14881   */\n      eq\n        /* \"#utility.yul\":14836:14838   */\n      tag_358\n      jumpi\n        /* \"#utility.yul\":14895:14896   */\n      0x00\n        /* \"#utility.yul\":14892:14893   */\n      dup1\n        /* \"#utility.yul\":14885:14897   */\n      revert\n        /* \"#utility.yul\":14836:14838   */\n    tag_358:\n        /* \"#utility.yul\":14826:14905   */\n      pop\n      jump\t// out\n        /* \"#utility.yul\":14911:15033   */\n    tag_203:\n        /* \"#utility.yul\":14984:15008   */\n      tag_360\n        /* \"#utility.yul\":15002:15007   */\n      dup2\n        /* \"#utility.yul\":14984:15008   */\n      tag_288\n      jump\t// in\n    tag_360:\n        /* \"#utility.yul\":14977:14982   */\n      dup2\n        /* \"#utility.yul\":14974:15009   */\n      eq\n        /* \"#utility.yul\":14964:14966   */\n      tag_361\n      jumpi\n        /* \"#utility.yul\":15023:15024   */\n      0x00\n        /* \"#utility.yul\":15020:15021   */\n      dup1\n        /* \"#utility.yul\":15013:15025   */\n      revert\n        /* \"#utility.yul\":14964:14966   */\n    tag_361:\n        /* \"#utility.yul\":14954:15033   */\n      pop\n      jump\t// out\n\n    auxdata: 0xa2646970667358221220237499b449cfe5ab8becbf63b5e1c0de5c28a7a31ca36d9c5bf9e2db16a8015964736f6c63430008000033\n}\n",
				"bytecode": {
					"linkReferences": {},
					"object": "608060405234801561001057600080fd5b50336000806101000a81548173ffffffffffffffffffffffffffffffffffffffff021916908373ffffffffffffffffffffffffffffffffffffffff160217905550611a91806100606000396000f3fe608060405234801561001057600080fd5b50600436106100885760003560e01c80638da5cb5b1161005b5780638da5cb5b1461013c5780639649faa31461015a578063b8dd17db14610176578063e7e58ee91461019257610088565b8063265be2e21461008d57806327e4671c146100a95780632b3819fe146100dc57806384ab2e1a1461010c575b600080fd5b6100a760048036038101906100a2919061128a565b6101c2565b005b6100c360048036038101906100be91906112e2565b61048e565b6040516100d394939291906117be565b60405180910390f35b6100f660048036038101906100f1919061124e565b610563565b60405161010391906117a3565b60405180910390f35b6101266004803603810190610121919061130b565b610594565b6040516101339190611686565b60405180910390f35b6101446105e2565b6040516101519190611686565b60405180910390f35b610174600480360381019061016f91906112e2565b610606565b005b610190600480360381019061018b91906112e2565b6109ac565b005b6101ac60048036038101906101a791906112e2565b610bbf565b6040516101b991906116a1565b60405180910390f35b60008054906101000a900473ffffffffffffffffffffffffffffffffffffffff1673ffffffffffffffffffffffffffffffffffffffff163373ffffffffffffffffffffffffffffffffffffffff1614610250576040517f08c379a000000000000000000000000000000000000000000000000000000000815260040161024790611723565b60405180910390fd5b61025a8383610cc5565b80610287575060036000600154815260200190815260200160002060030160009054906101000a900460ff165b156102c7576040517f08c379a00000000000000000000000000000000000000000000000000000000081526004016102be906116c3565b60405180910390fd5b600181101561030b576040517f08c379a000000000000000000000000000000000000000000000000000000000815260040161030290611783565b60405180910390fd5b61031361110d565b60015481600001818152505083838080601f016020809104026020016040519081016040528093929190818152602001838380828437600081840152601f19601f820116905080830192505050505050508160200181905250818160400181815250506001816060019015159081151581525050806003600060015481526020019081526020016000206000820151816000015560208201518160010190805190602001906103c3929190611137565b506040820151816002015560608201518160030160006101000a81548160ff0219169083151502179055509050506002819080600181540180825580915050600190039060005260206000209060040201600090919091909150600082015181600001556020820151816001019080519060200190610443929190611137565b506040820151816002015560608201518160030160006101000a81548160ff02191690831515021790555050506001600081548092919061048390611975565b919050555050505050565b6002818154811061049e57600080fd5b90600052602060002090600402016000915090508060000154908060010180546104c790611943565b80601f01602080910402602001604051908101604052809291908181526020018280546104f390611943565b80156105405780601f1061051557610100808354040283529160200191610540565b820191906000526020600020905b81548152906001019060200180831161052357829003601f168201915b5050505050908060020154908060030160009054906101000a900460ff16905084565b6005602052816000526040600020818154811061057f57600080fd5b90600052602060002001600091509150505481565b600460205281600052604060002081815481106105b057600080fd5b906000526020600020016000915091509054906101000a900473ffffffffffffffffffffffffffffffffffffffff1681565b60008054906101000a900473ffffffffffffffffffffffffffffffffffffffff1681565b806003600082815260200190815260200160002060030160009054906101000a900460ff1661066a576040517f08c379a000000000000000000000000000000000000000000000000000000000815260040161066190611763565b60405180910390fd5b6000600360008481526020019081526020016000206002015414156106c4576040517f08c379a00000000000000000000000000000000000000000000000000000000081526004016106bb90611743565b60405180910390fd5b61075b82600560003373ffffffffffffffffffffffffffffffffffffffff1673ffffffffffffffffffffffffffffffffffffffff16815260200190815260200160002080548060200260200160405190810160405280929190818152602001828054801561075157602002820191906000526020600020905b81548152602001906001019080831161073d575b5050505050610e29565b1561079b576040517f08c379a000000000000000000000000000000000000000000000000000000000815260040161079290611703565b60405180910390fd5b600560003373ffffffffffffffffffffffffffffffffffffffff1673ffffffffffffffffffffffffffffffffffffffff1681526020019081526020016000208290806001815401808255809150506001900390600052602060002001600090919091909150556108a2336004600085815260200190815260200160002080548060200260200160405190810160405280929190818152602001828054801561089857602002820191906000526020600020905b8160009054906101000a900473ffffffffffffffffffffffffffffffffffffffff1673ffffffffffffffffffffffffffffffffffffffff168152602001906001019080831161084e575b5050505050610eab565b61091b5760046000838152602001908152602001600020339080600181540180825580915050600190039060005260206000200160009091909190916101000a81548173ffffffffffffffffffffffffffffffffffffffff021916908373ffffffffffffffffffffffffffffffffffffffff1602179055505b60036000838152602001908152602001600020600201600081548092919061094290611919565b919050555060028281548110610981577f4e487b7100000000000000000000000000000000000000000000000000000000600052603260045260246000fd5b906000526020600020906004020160020160008154809291906109a390611919565b91905055505050565b806003600082815260200190815260200160002060030160009054906101000a900460ff16610a10576040517f08c379a0000000000000000000000000000000000000000000000000000000008152600401610a0790611763565b60405180910390fd5b610aa782600560003373ffffffffffffffffffffffffffffffffffffffff1673ffffffffffffffffffffffffffffffffffffffff168152602001908152602001600020805480602002602001604051908101604052809291908181526020018280548015610a9d57602002820191906000526020600020905b815481526020019060010190808311610a89575b5050505050610e29565b610ae6576040517f08c379a0000000000000000000000000000000000000000000000000000000008152600401610add906116e3565b60405180910390fd5b610b2e600560003373ffffffffffffffffffffffffffffffffffffffff1673ffffffffffffffffffffffffffffffffffffffff16815260200190815260200160002083610f59565b600360008381526020019081526020016000206002016000815480929190610b5590611975565b919050555060028281548110610b94577f4e487b7100000000000000000000000000000000000000000000000000000000600052603260045260246000fd5b90600052602060002090600402016002016000815480929190610bb690611975565b91905055505050565b6060816003600082815260200190815260200160002060030160009054906101000a900460ff16610c25576040517f08c379a0000000000000000000000000000000000000000000000000000000008152600401610c1c90611763565b60405180910390fd5b60046000848152602001908152602001600020805480602002602001604051908101604052809291908181526020018280548015610cb857602002820191906000526020600020905b8160009054906101000a900473ffffffffffffffffffffffffffffffffffffffff1673ffffffffffffffffffffffffffffffffffffffff1681526020019060010190808311610c6e575b5050505050915050919050565b600080600090505b600280549050811015610e1d57610dfb60028281548110610d17577f4e487b7100000000000000000000000000000000000000000000000000000000600052603260045260246000fd5b90600052602060002090600402016001018054610d3390611943565b80601f0160208091040260200160405190810160405280929190818152602001828054610d5f90611943565b8015610dac5780601f10610d8157610100808354040283529160200191610dac565b820191906000526020600020905b815481529060010190602001808311610d8f57829003601f168201915b505050505085858080601f016020809104026020016040519081016040528093929190818152602001838380828437600081840152601f19601f820116905080830192505050505050506110b4565b15610e0a576001915050610e23565b8080610e1590611975565b915050610ccd565b50600090505b92915050565b600080600090505b8251811015610e9f57828181518110610e73577f4e487b7100000000000000000000000000000000000000000000000000000000600052603260045260246000fd5b6020026020010151841415610e8c576001915050610ea5565b8080610e9790611975565b915050610e31565b50600090505b92915050565b600080600090505b8251811015610f4d57828181518110610ef5577f4e487b7100000000000000000000000000000000000000000000000000000000600052603260045260246000fd5b602002602001015173ffffffffffffffffffffffffffffffffffffffff168473ffffffffffffffffffffffffffffffffffffffff161415610f3a576001915050610f53565b8080610f4590611975565b915050610eb3565b50600090505b92915050565b60005b82805490508110156110af57828181548110610fa1577f4e487b7100000000000000000000000000000000000000000000000000000000600052603260045260246000fd5b906000526020600020015482141561109c578260018480549050610fc5919061186a565b81548110610ffc577f4e487b7100000000000000000000000000000000000000000000000000000000600052603260045260246000fd5b9060005260206000200154838281548110611040577f4e487b7100000000000000000000000000000000000000000000000000000000600052603260045260246000fd5b906000526020600020018190555082805480611085577f4e487b7100000000000000000000000000000000000000000000000000000000600052603160045260246000fd5b600190038181906000526020600020016000905590555b80806110a790611975565b915050610f5c565b505050565b6000816040516020016110c7919061166f565b60405160208183030381529060405280519060200120836040516020016110ee919061166f565b6040516020818303038152906040528051906020012014905092915050565b60405180608001604052806000815260200160608152602001600081526020016000151581525090565b82805461114390611943565b90600052602060002090601f01602090048101928261116557600085556111ac565b82601f1061117e57805160ff19168380011785556111ac565b828001600101855582156111ac579182015b828111156111ab578251825591602001919060010190611190565b5b5090506111b991906111bd565b5090565b5b808211156111d65760008160009055506001016111be565b5090565b6000813590506111e981611a2d565b92915050565b60008083601f84011261120157600080fd5b8235905067ffffffffffffffff81111561121a57600080fd5b60208301915083600182028301111561123257600080fd5b9250929050565b60008135905061124881611a44565b92915050565b6000806040838503121561126157600080fd5b600061126f858286016111da565b925050602061128085828601611239565b9150509250929050565b60008060006040848603121561129f57600080fd5b600084013567ffffffffffffffff8111156112b957600080fd5b6112c5868287016111ef565b935093505060206112d886828701611239565b9150509250925092565b6000602082840312156112f457600080fd5b600061130284828501611239565b91505092915050565b6000806040838503121561131e57600080fd5b600061132c85828601611239565b925050602061133d85828601611239565b9150509250929050565b6000611353838361135f565b60208301905092915050565b6113688161189e565b82525050565b6113778161189e565b82525050565b60006113888261181a565b611392818561183d565b935061139d8361180a565b8060005b838110156113ce5781516113b58882611347565b97506113c083611830565b9250506001810190506113a1565b5085935050505092915050565b6113e4816118b0565b82525050565b60006113f582611825565b6113ff818561184e565b935061140f8185602086016118e6565b61141881611a1c565b840191505092915050565b600061142e82611825565b611438818561185f565b93506114488185602086016118e6565b80840191505092915050565b600061146160208361184e565b91507f5468697320626f6f6b2065786973747320696e20746865206c696272617279216000830152602082019050919050565b60006114a1601e8361184e565b91507f596f7520686176656e7420626f72726f776564207468617420626f6f6b2100006000830152602082019050919050565b60006114e160228361184e565b91507f596f7527766520616c726561647920626f72726f776564207468617420626f6f60008301527f6b210000000000000000000000000000000000000000000000000000000000006020830152604082019050919050565b6000611547601a8361184e565b91507f43757272656e742075736572206973206e6f74206f776e6572210000000000006000830152602082019050919050565b600061158760248361184e565b91507f5468697320626f6f6b206973206f7574206f662073746f636b2063757272656e60008301527f746c7921000000000000000000000000000000000000000000000000000000006020830152604082019050919050565b60006115ed601f8361184e565b91507f426f6f6b20646f6573206e6f7420657869737420696e206c69627261727921006000830152602082019050919050565b600061162d601f8361184e565b91507f5175616e746974792063616e6e6f74206265206c657373207468616e203121006000830152602082019050919050565b611669816118dc565b82525050565b600061167b8284611423565b915081905092915050565b600060208201905061169b600083018461136e565b92915050565b600060208201905081810360008301526116bb818461137d565b905092915050565b600060208201905081810360008301526116dc81611454565b9050919050565b600060208201905081810360008301526116fc81611494565b9050919050565b6000602082019050818103600083015261171c816114d4565b9050919050565b6000602082019050818103600083015261173c8161153a565b9050919050565b6000602082019050818103600083015261175c8161157a565b9050919050565b6000602082019050818103600083015261177c816115e0565b9050919050565b6000602082019050818103600083015261179c81611620565b9050919050565b60006020820190506117b86000830184611660565b92915050565b60006080820190506117d36000830187611660565b81810360208301526117e581866113ea565b90506117f46040830185611660565b61180160608301846113db565b95945050505050565b6000819050602082019050919050565b600081519050919050565b600081519050919050565b6000602082019050919050565b600082825260208201905092915050565b600082825260208201905092915050565b600081905092915050565b6000611875826118dc565b9150611880836118dc565b925082821015611893576118926119be565b5b828203905092915050565b60006118a9826118bc565b9050919050565b60008115159050919050565b600073ffffffffffffffffffffffffffffffffffffffff82169050919050565b6000819050919050565b60005b838110156119045780820151818401526020810190506118e9565b83811115611913576000848401525b50505050565b6000611924826118dc565b91506000821415611938576119376119be565b5b600182039050919050565b6000600282049050600182168061195b57607f821691505b6020821081141561196f5761196e6119ed565b5b50919050565b6000611980826118dc565b91507fffffffffffffffffffffffffffffffffffffffffffffffffffffffffffffffff8214156119b3576119b26119be565b5b600182019050919050565b7f4e487b7100000000000000000000000000000000000000000000000000000000600052601160045260246000fd5b7f4e487b7100000000000000000000000000000000000000000000000000000000600052602260045260246000fd5b6000601f19601f8301169050919050565b611a368161189e565b8114611a4157600080fd5b50565b611a4d816118dc565b8114611a5857600080fd5b5056fea2646970667358221220237499b449cfe5ab8becbf63b5e1c0de5c28a7a31ca36d9c5bf9e2db16a8015964736f6c63430008000033",
					"opcodes": "PUSH1 0x80 PUSH1 0x40 MSTORE CALLVALUE DUP1 ISZERO PUSH2 0x10 JUMPI PUSH1 0x0 DUP1 REVERT JUMPDEST POP CALLER PUSH1 0x0 DUP1 PUSH2 0x100 EXP DUP2 SLOAD DUP2 PUSH20 0xFFFFFFFFFFFFFFFFFFFFFFFFFFFFFFFFFFFFFFFF MUL NOT AND SWAP1 DUP4 PUSH20 0xFFFFFFFFFFFFFFFFFFFFFFFFFFFFFFFFFFFFFFFF AND MUL OR SWAP1 SSTORE POP PUSH2 0x1A91 DUP1 PUSH2 0x60 PUSH1 0x0 CODECOPY PUSH1 0x0 RETURN INVALID PUSH1 0x80 PUSH1 0x40 MSTORE CALLVALUE DUP1 ISZERO PUSH2 0x10 JUMPI PUSH1 0x0 DUP1 REVERT JUMPDEST POP PUSH1 0x4 CALLDATASIZE LT PUSH2 0x88 JUMPI PUSH1 0x0 CALLDATALOAD PUSH1 0xE0 SHR DUP1 PUSH4 0x8DA5CB5B GT PUSH2 0x5B JUMPI DUP1 PUSH4 0x8DA5CB5B EQ PUSH2 0x13C JUMPI DUP1 PUSH4 0x9649FAA3 EQ PUSH2 0x15A JUMPI DUP1 PUSH4 0xB8DD17DB EQ PUSH2 0x176 JUMPI DUP1 PUSH4 0xE7E58EE9 EQ PUSH2 0x192 JUMPI PUSH2 0x88 JUMP JUMPDEST DUP1 PUSH4 0x265BE2E2 EQ PUSH2 0x8D JUMPI DUP1 PUSH4 0x27E4671C EQ PUSH2 0xA9 JUMPI DUP1 PUSH4 0x2B3819FE EQ PUSH2 0xDC JUMPI DUP1 PUSH4 0x84AB2E1A EQ PUSH2 0x10C JUMPI JUMPDEST PUSH1 0x0 DUP1 REVERT JUMPDEST PUSH2 0xA7 PUSH1 0x4 DUP1 CALLDATASIZE SUB DUP2 ADD SWAP1 PUSH2 0xA2 SWAP2 SWAP1 PUSH2 0x128A JUMP JUMPDEST PUSH2 0x1C2 JUMP JUMPDEST STOP JUMPDEST PUSH2 0xC3 PUSH1 0x4 DUP1 CALLDATASIZE SUB DUP2 ADD SWAP1 PUSH2 0xBE SWAP2 SWAP1 PUSH2 0x12E2 JUMP JUMPDEST PUSH2 0x48E JUMP JUMPDEST PUSH1 0x40 MLOAD PUSH2 0xD3 SWAP5 SWAP4 SWAP3 SWAP2 SWAP1 PUSH2 0x17BE JUMP JUMPDEST PUSH1 0x40 MLOAD DUP1 SWAP2 SUB SWAP1 RETURN JUMPDEST PUSH2 0xF6 PUSH1 0x4 DUP1 CALLDATASIZE SUB DUP2 ADD SWAP1 PUSH2 0xF1 SWAP2 SWAP1 PUSH2 0x124E JUMP JUMPDEST PUSH2 0x563 JUMP JUMPDEST PUSH1 0x40 MLOAD PUSH2 0x103 SWAP2 SWAP1 PUSH2 0x17A3 JUMP JUMPDEST PUSH1 0x40 MLOAD DUP1 SWAP2 SUB SWAP1 RETURN JUMPDEST PUSH2 0x126 PUSH1 0x4 DUP1 CALLDATASIZE SUB DUP2 ADD SWAP1 PUSH2 0x121 SWAP2 SWAP1 PUSH2 0x130B JUMP JUMPDEST PUSH2 0x594 JUMP JUMPDEST PUSH1 0x40 MLOAD PUSH2 0x133 SWAP2 SWAP1 PUSH2 0x1686 JUMP JUMPDEST PUSH1 0x40 MLOAD DUP1 SWAP2 SUB SWAP1 RETURN JUMPDEST PUSH2 0x144 PUSH2 0x5E2 JUMP JUMPDEST PUSH1 0x40 MLOAD PUSH2 0x151 SWAP2 SWAP1 PUSH2 0x1686 JUMP JUMPDEST PUSH1 0x40 MLOAD DUP1 SWAP2 SUB SWAP1 RETURN JUMPDEST PUSH2 0x174 PUSH1 0x4 DUP1 CALLDATASIZE SUB DUP2 ADD SWAP1 PUSH2 0x16F SWAP2 SWAP1 PUSH2 0x12E2 JUMP JUMPDEST PUSH2 0x606 JUMP JUMPDEST STOP JUMPDEST PUSH2 0x190 PUSH1 0x4 DUP1 CALLDATASIZE SUB DUP2 ADD SWAP1 PUSH2 0x18B SWAP2 SWAP1 PUSH2 0x12E2 JUMP JUMPDEST PUSH2 0x9AC JUMP JUMPDEST STOP JUMPDEST PUSH2 0x1AC PUSH1 0x4 DUP1 CALLDATASIZE SUB DUP2 ADD SWAP1 PUSH2 0x1A7 SWAP2 SWAP1 PUSH2 0x12E2 JUMP JUMPDEST PUSH2 0xBBF JUMP JUMPDEST PUSH1 0x40 MLOAD PUSH2 0x1B9 SWAP2 SWAP1 PUSH2 0x16A1 JUMP JUMPDEST PUSH1 0x40 MLOAD DUP1 SWAP2 SUB SWAP1 RETURN JUMPDEST PUSH1 0x0 DUP1 SLOAD SWAP1 PUSH2 0x100 EXP SWAP1 DIV PUSH20 0xFFFFFFFFFFFFFFFFFFFFFFFFFFFFFFFFFFFFFFFF AND PUSH20 0xFFFFFFFFFFFFFFFFFFFFFFFFFFFFFFFFFFFFFFFF AND CALLER PUSH20 0xFFFFFFFFFFFFFFFFFFFFFFFFFFFFFFFFFFFFFFFF AND EQ PUSH2 0x250 JUMPI PUSH1 0x40 MLOAD PUSH32 0x8C379A000000000000000000000000000000000000000000000000000000000 DUP2 MSTORE PUSH1 0x4 ADD PUSH2 0x247 SWAP1 PUSH2 0x1723 JUMP JUMPDEST PUSH1 0x40 MLOAD DUP1 SWAP2 SUB SWAP1 REVERT JUMPDEST PUSH2 0x25A DUP4 DUP4 PUSH2 0xCC5 JUMP JUMPDEST DUP1 PUSH2 0x287 JUMPI POP PUSH1 0x3 PUSH1 0x0 PUSH1 0x1 SLOAD DUP2 MSTORE PUSH1 0x20 ADD SWAP1 DUP2 MSTORE PUSH1 0x20 ADD PUSH1 0x0 KECCAK256 PUSH1 0x3 ADD PUSH1 0x0 SWAP1 SLOAD SWAP1 PUSH2 0x100 EXP SWAP1 DIV PUSH1 0xFF AND JUMPDEST ISZERO PUSH2 0x2C7 JUMPI PUSH1 0x40 MLOAD PUSH32 0x8C379A000000000000000000000000000000000000000000000000000000000 DUP2 MSTORE PUSH1 0x4 ADD PUSH2 0x2BE SWAP1 PUSH2 0x16C3 JUMP JUMPDEST PUSH1 0x40 MLOAD DUP1 SWAP2 SUB SWAP1 REVERT JUMPDEST PUSH1 0x1 DUP2 LT ISZERO PUSH2 0x30B JUMPI PUSH1 0x40 MLOAD PUSH32 0x8C379A000000000000000000000000000000000000000000000000000000000 DUP2 MSTORE PUSH1 0x4 ADD PUSH2 0x302 SWAP1 PUSH2 0x1783 JUMP JUMPDEST PUSH1 0x40 MLOAD DUP1 SWAP2 SUB SWAP1 REVERT JUMPDEST PUSH2 0x313 PUSH2 0x110D JUMP JUMPDEST PUSH1 0x1 SLOAD DUP2 PUSH1 0x0 ADD DUP2 DUP2 MSTORE POP POP DUP4 DUP4 DUP1 DUP1 PUSH1 0x1F ADD PUSH1 0x20 DUP1 SWAP2 DIV MUL PUSH1 0x20 ADD PUSH1 0x40 MLOAD SWAP1 DUP2 ADD PUSH1 0x40 MSTORE DUP1 SWAP4 SWAP3 SWAP2 SWAP1 DUP2 DUP2 MSTORE PUSH1 0x20 ADD DUP4 DUP4 DUP1 DUP3 DUP5 CALLDATACOPY PUSH1 0x0 DUP2 DUP5 ADD MSTORE PUSH1 0x1F NOT PUSH1 0x1F DUP3 ADD AND SWAP1 POP DUP1 DUP4 ADD SWAP3 POP POP POP POP POP POP POP DUP2 PUSH1 0x20 ADD DUP2 SWAP1 MSTORE POP DUP2 DUP2 PUSH1 0x40 ADD DUP2 DUP2 MSTORE POP POP PUSH1 0x1 DUP2 PUSH1 0x60 ADD SWAP1 ISZERO ISZERO SWAP1 DUP2 ISZERO ISZERO DUP2 MSTORE POP POP DUP1 PUSH1 0x3 PUSH1 0x0 PUSH1 0x1 SLOAD DUP2 MSTORE PUSH1 0x20 ADD SWAP1 DUP2 MSTORE PUSH1 0x20 ADD PUSH1 0x0 KECCAK256 PUSH1 0x0 DUP3 ADD MLOAD DUP2 PUSH1 0x0 ADD SSTORE PUSH1 0x20 DUP3 ADD MLOAD DUP2 PUSH1 0x1 ADD SWAP1 DUP1 MLOAD SWAP1 PUSH1 0x20 ADD SWAP1 PUSH2 0x3C3 SWAP3 SWAP2 SWAP1 PUSH2 0x1137 JUMP JUMPDEST POP PUSH1 0x40 DUP3 ADD MLOAD DUP2 PUSH1 0x2 ADD SSTORE PUSH1 0x60 DUP3 ADD MLOAD DUP2 PUSH1 0x3 ADD PUSH1 0x0 PUSH2 0x100 EXP DUP2 SLOAD DUP2 PUSH1 0xFF MUL NOT AND SWAP1 DUP4 ISZERO ISZERO MUL OR SWAP1 SSTORE POP SWAP1 POP POP PUSH1 0x2 DUP2 SWAP1 DUP1 PUSH1 0x1 DUP2 SLOAD ADD DUP1 DUP3 SSTORE DUP1 SWAP2 POP POP PUSH1 0x1 SWAP1 SUB SWAP1 PUSH1 0x0 MSTORE PUSH1 0x20 PUSH1 0x0 KECCAK256 SWAP1 PUSH1 0x4 MUL ADD PUSH1 0x0 SWAP1 SWAP2 SWAP1 SWAP2 SWAP1 SWAP2 POP PUSH1 0x0 DUP3 ADD MLOAD DUP2 PUSH1 0x0 ADD SSTORE PUSH1 0x20 DUP3 ADD MLOAD DUP2 PUSH1 0x1 ADD SWAP1 DUP1 MLOAD SWAP1 PUSH1 0x20 ADD SWAP1 PUSH2 0x443 SWAP3 SWAP2 SWAP1 PUSH2 0x1137 JUMP JUMPDEST POP PUSH1 0x40 DUP3 ADD MLOAD DUP2 PUSH1 0x2 ADD SSTORE PUSH1 0x60 DUP3 ADD MLOAD DUP2 PUSH1 0x3 ADD PUSH1 0x0 PUSH2 0x100 EXP DUP2 SLOAD DUP2 PUSH1 0xFF MUL NOT AND SWAP1 DUP4 ISZERO ISZERO MUL OR SWAP1 SSTORE POP POP POP PUSH1 0x1 PUSH1 0x0 DUP2 SLOAD DUP1 SWAP3 SWAP2 SWAP1 PUSH2 0x483 SWAP1 PUSH2 0x1975 JUMP JUMPDEST SWAP2 SWAP1 POP SSTORE POP POP POP POP POP JUMP JUMPDEST PUSH1 0x2 DUP2 DUP2 SLOAD DUP2 LT PUSH2 0x49E JUMPI PUSH1 0x0 DUP1 REVERT JUMPDEST SWAP1 PUSH1 0x0 MSTORE PUSH1 0x20 PUSH1 0x0 KECCAK256 SWAP1 PUSH1 0x4 MUL ADD PUSH1 0x0 SWAP2 POP SWAP1 POP DUP1 PUSH1 0x0 ADD SLOAD SWAP1 DUP1 PUSH1 0x1 ADD DUP1 SLOAD PUSH2 0x4C7 SWAP1 PUSH2 0x1943 JUMP JUMPDEST DUP1 PUSH1 0x1F ADD PUSH1 0x20 DUP1 SWAP2 DIV MUL PUSH1 0x20 ADD PUSH1 0x40 MLOAD SWAP1 DUP2 ADD PUSH1 0x40 MSTORE DUP1 SWAP3 SWAP2 SWAP1 DUP2 DUP2 MSTORE PUSH1 0x20 ADD DUP3 DUP1 SLOAD PUSH2 0x4F3 SWAP1 PUSH2 0x1943 JUMP JUMPDEST DUP1 ISZERO PUSH2 0x540 JUMPI DUP1 PUSH1 0x1F LT PUSH2 0x515 JUMPI PUSH2 0x100 DUP1 DUP4 SLOAD DIV MUL DUP4 MSTORE SWAP2 PUSH1 0x20 ADD SWAP2 PUSH2 0x540 JUMP JUMPDEST DUP3 ADD SWAP2 SWAP1 PUSH1 0x0 MSTORE PUSH1 0x20 PUSH1 0x0 KECCAK256 SWAP1 JUMPDEST DUP2 SLOAD DUP2 MSTORE SWAP1 PUSH1 0x1 ADD SWAP1 PUSH1 0x20 ADD DUP1 DUP4 GT PUSH2 0x523 JUMPI DUP3 SWAP1 SUB PUSH1 0x1F AND DUP3 ADD SWAP2 JUMPDEST POP POP POP POP POP SWAP1 DUP1 PUSH1 0x2 ADD SLOAD SWAP1 DUP1 PUSH1 0x3 ADD PUSH1 0x0 SWAP1 SLOAD SWAP1 PUSH2 0x100 EXP SWAP1 DIV PUSH1 0xFF AND SWAP1 POP DUP5 JUMP JUMPDEST PUSH1 0x5 PUSH1 0x20 MSTORE DUP2 PUSH1 0x0 MSTORE PUSH1 0x40 PUSH1 0x0 KECCAK256 DUP2 DUP2 SLOAD DUP2 LT PUSH2 0x57F JUMPI PUSH1 0x0 DUP1 REVERT JUMPDEST SWAP1 PUSH1 0x0 MSTORE PUSH1 0x20 PUSH1 0x0 KECCAK256 ADD PUSH1 0x0 SWAP2 POP SWAP2 POP POP SLOAD DUP2 JUMP JUMPDEST PUSH1 0x4 PUSH1 0x20 MSTORE DUP2 PUSH1 0x0 MSTORE PUSH1 0x40 PUSH1 0x0 KECCAK256 DUP2 DUP2 SLOAD DUP2 LT PUSH2 0x5B0 JUMPI PUSH1 0x0 DUP1 REVERT JUMPDEST SWAP1 PUSH1 0x0 MSTORE PUSH1 0x20 PUSH1 0x0 KECCAK256 ADD PUSH1 0x0 SWAP2 POP SWAP2 POP SWAP1 SLOAD SWAP1 PUSH2 0x100 EXP SWAP1 DIV PUSH20 0xFFFFFFFFFFFFFFFFFFFFFFFFFFFFFFFFFFFFFFFF AND DUP2 JUMP JUMPDEST PUSH1 0x0 DUP1 SLOAD SWAP1 PUSH2 0x100 EXP SWAP1 DIV PUSH20 0xFFFFFFFFFFFFFFFFFFFFFFFFFFFFFFFFFFFFFFFF AND DUP2 JUMP JUMPDEST DUP1 PUSH1 0x3 PUSH1 0x0 DUP3 DUP2 MSTORE PUSH1 0x20 ADD SWAP1 DUP2 MSTORE PUSH1 0x20 ADD PUSH1 0x0 KECCAK256 PUSH1 0x3 ADD PUSH1 0x0 SWAP1 SLOAD SWAP1 PUSH2 0x100 EXP SWAP1 DIV PUSH1 0xFF AND PUSH2 0x66A JUMPI PUSH1 0x40 MLOAD PUSH32 0x8C379A000000000000000000000000000000000000000000000000000000000 DUP2 MSTORE PUSH1 0x4 ADD PUSH2 0x661 SWAP1 PUSH2 0x1763 JUMP JUMPDEST PUSH1 0x40 MLOAD DUP1 SWAP2 SUB SWAP1 REVERT JUMPDEST PUSH1 0x0 PUSH1 0x3 PUSH1 0x0 DUP5 DUP2 MSTORE PUSH1 0x20 ADD SWAP1 DUP2 MSTORE PUSH1 0x20 ADD PUSH1 0x0 KECCAK256 PUSH1 0x2 ADD SLOAD EQ ISZERO PUSH2 0x6C4 JUMPI PUSH1 0x40 MLOAD PUSH32 0x8C379A000000000000000000000000000000000000000000000000000000000 DUP2 MSTORE PUSH1 0x4 ADD PUSH2 0x6BB SWAP1 PUSH2 0x1743 JUMP JUMPDEST PUSH1 0x40 MLOAD DUP1 SWAP2 SUB SWAP1 REVERT JUMPDEST PUSH2 0x75B DUP3 PUSH1 0x5 PUSH1 0x0 CALLER PUSH20 0xFFFFFFFFFFFFFFFFFFFFFFFFFFFFFFFFFFFFFFFF AND PUSH20 0xFFFFFFFFFFFFFFFFFFFFFFFFFFFFFFFFFFFFFFFF AND DUP2 MSTORE PUSH1 0x20 ADD SWAP1 DUP2 MSTORE PUSH1 0x20 ADD PUSH1 0x0 KECCAK256 DUP1 SLOAD DUP1 PUSH1 0x20 MUL PUSH1 0x20 ADD PUSH1 0x40 MLOAD SWAP1 DUP2 ADD PUSH1 0x40 MSTORE DUP1 SWAP3 SWAP2 SWAP1 DUP2 DUP2 MSTORE PUSH1 0x20 ADD DUP3 DUP1 SLOAD DUP1 ISZERO PUSH2 0x751 JUMPI PUSH1 0x20 MUL DUP3 ADD SWAP2 SWAP1 PUSH1 0x0 MSTORE PUSH1 0x20 PUSH1 0x0 KECCAK256 SWAP1 JUMPDEST DUP2 SLOAD DUP2 MSTORE PUSH1 0x20 ADD SWAP1 PUSH1 0x1 ADD SWAP1 DUP1 DUP4 GT PUSH2 0x73D JUMPI JUMPDEST POP POP POP POP POP PUSH2 0xE29 JUMP JUMPDEST ISZERO PUSH2 0x79B JUMPI PUSH1 0x40 MLOAD PUSH32 0x8C379A000000000000000000000000000000000000000000000000000000000 DUP2 MSTORE PUSH1 0x4 ADD PUSH2 0x792 SWAP1 PUSH2 0x1703 JUMP JUMPDEST PUSH1 0x40 MLOAD DUP1 SWAP2 SUB SWAP1 REVERT JUMPDEST PUSH1 0x5 PUSH1 0x0 CALLER PUSH20 0xFFFFFFFFFFFFFFFFFFFFFFFFFFFFFFFFFFFFFFFF AND PUSH20 0xFFFFFFFFFFFFFFFFFFFFFFFFFFFFFFFFFFFFFFFF AND DUP2 MSTORE PUSH1 0x20 ADD SWAP1 DUP2 MSTORE PUSH1 0x20 ADD PUSH1 0x0 KECCAK256 DUP3 SWAP1 DUP1 PUSH1 0x1 DUP2 SLOAD ADD DUP1 DUP3 SSTORE DUP1 SWAP2 POP POP PUSH1 0x1 SWAP1 SUB SWAP1 PUSH1 0x0 MSTORE PUSH1 0x20 PUSH1 0x0 KECCAK256 ADD PUSH1 0x0 SWAP1 SWAP2 SWAP1 SWAP2 SWAP1 SWAP2 POP SSTORE PUSH2 0x8A2 CALLER PUSH1 0x4 PUSH1 0x0 DUP6 DUP2 MSTORE PUSH1 0x20 ADD SWAP1 DUP2 MSTORE PUSH1 0x20 ADD PUSH1 0x0 KECCAK256 DUP1 SLOAD DUP1 PUSH1 0x20 MUL PUSH1 0x20 ADD PUSH1 0x40 MLOAD SWAP1 DUP2 ADD PUSH1 0x40 MSTORE DUP1 SWAP3 SWAP2 SWAP1 DUP2 DUP2 MSTORE PUSH1 0x20 ADD DUP3 DUP1 SLOAD DUP1 ISZERO PUSH2 0x898 JUMPI PUSH1 0x20 MUL DUP3 ADD SWAP2 SWAP1 PUSH1 0x0 MSTORE PUSH1 0x20 PUSH1 0x0 KECCAK256 SWAP1 JUMPDEST DUP2 PUSH1 0x0 SWAP1 SLOAD SWAP1 PUSH2 0x100 EXP SWAP1 DIV PUSH20 0xFFFFFFFFFFFFFFFFFFFFFFFFFFFFFFFFFFFFFFFF AND PUSH20 0xFFFFFFFFFFFFFFFFFFFFFFFFFFFFFFFFFFFFFFFF AND DUP2 MSTORE PUSH1 0x20 ADD SWAP1 PUSH1 0x1 ADD SWAP1 DUP1 DUP4 GT PUSH2 0x84E JUMPI JUMPDEST POP POP POP POP POP PUSH2 0xEAB JUMP JUMPDEST PUSH2 0x91B JUMPI PUSH1 0x4 PUSH1 0x0 DUP4 DUP2 MSTORE PUSH1 0x20 ADD SWAP1 DUP2 MSTORE PUSH1 0x20 ADD PUSH1 0x0 KECCAK256 CALLER SWAP1 DUP1 PUSH1 0x1 DUP2 SLOAD ADD DUP1 DUP3 SSTORE DUP1 SWAP2 POP POP PUSH1 0x1 SWAP1 SUB SWAP1 PUSH1 0x0 MSTORE PUSH1 0x20 PUSH1 0x0 KECCAK256 ADD PUSH1 0x0 SWAP1 SWAP2 SWAP1 SWAP2 SWAP1 SWAP2 PUSH2 0x100 EXP DUP2 SLOAD DUP2 PUSH20 0xFFFFFFFFFFFFFFFFFFFFFFFFFFFFFFFFFFFFFFFF MUL NOT AND SWAP1 DUP4 PUSH20 0xFFFFFFFFFFFFFFFFFFFFFFFFFFFFFFFFFFFFFFFF AND MUL OR SWAP1 SSTORE POP JUMPDEST PUSH1 0x3 PUSH1 0x0 DUP4 DUP2 MSTORE PUSH1 0x20 ADD SWAP1 DUP2 MSTORE PUSH1 0x20 ADD PUSH1 0x0 KECCAK256 PUSH1 0x2 ADD PUSH1 0x0 DUP2 SLOAD DUP1 SWAP3 SWAP2 SWAP1 PUSH2 0x942 SWAP1 PUSH2 0x1919 JUMP JUMPDEST SWAP2 SWAP1 POP SSTORE POP PUSH1 0x2 DUP3 DUP2 SLOAD DUP2 LT PUSH2 0x981 JUMPI PUSH32 0x4E487B7100000000000000000000000000000000000000000000000000000000 PUSH1 0x0 MSTORE PUSH1 0x32 PUSH1 0x4 MSTORE PUSH1 0x24 PUSH1 0x0 REVERT JUMPDEST SWAP1 PUSH1 0x0 MSTORE PUSH1 0x20 PUSH1 0x0 KECCAK256 SWAP1 PUSH1 0x4 MUL ADD PUSH1 0x2 ADD PUSH1 0x0 DUP2 SLOAD DUP1 SWAP3 SWAP2 SWAP1 PUSH2 0x9A3 SWAP1 PUSH2 0x1919 JUMP JUMPDEST SWAP2 SWAP1 POP SSTORE POP POP POP JUMP JUMPDEST DUP1 PUSH1 0x3 PUSH1 0x0 DUP3 DUP2 MSTORE PUSH1 0x20 ADD SWAP1 DUP2 MSTORE PUSH1 0x20 ADD PUSH1 0x0 KECCAK256 PUSH1 0x3 ADD PUSH1 0x0 SWAP1 SLOAD SWAP1 PUSH2 0x100 EXP SWAP1 DIV PUSH1 0xFF AND PUSH2 0xA10 JUMPI PUSH1 0x40 MLOAD PUSH32 0x8C379A000000000000000000000000000000000000000000000000000000000 DUP2 MSTORE PUSH1 0x4 ADD PUSH2 0xA07 SWAP1 PUSH2 0x1763 JUMP JUMPDEST PUSH1 0x40 MLOAD DUP1 SWAP2 SUB SWAP1 REVERT JUMPDEST PUSH2 0xAA7 DUP3 PUSH1 0x5 PUSH1 0x0 CALLER PUSH20 0xFFFFFFFFFFFFFFFFFFFFFFFFFFFFFFFFFFFFFFFF AND PUSH20 0xFFFFFFFFFFFFFFFFFFFFFFFFFFFFFFFFFFFFFFFF AND DUP2 MSTORE PUSH1 0x20 ADD SWAP1 DUP2 MSTORE PUSH1 0x20 ADD PUSH1 0x0 KECCAK256 DUP1 SLOAD DUP1 PUSH1 0x20 MUL PUSH1 0x20 ADD PUSH1 0x40 MLOAD SWAP1 DUP2 ADD PUSH1 0x40 MSTORE DUP1 SWAP3 SWAP2 SWAP1 DUP2 DUP2 MSTORE PUSH1 0x20 ADD DUP3 DUP1 SLOAD DUP1 ISZERO PUSH2 0xA9D JUMPI PUSH1 0x20 MUL DUP3 ADD SWAP2 SWAP1 PUSH1 0x0 MSTORE PUSH1 0x20 PUSH1 0x0 KECCAK256 SWAP1 JUMPDEST DUP2 SLOAD DUP2 MSTORE PUSH1 0x20 ADD SWAP1 PUSH1 0x1 ADD SWAP1 DUP1 DUP4 GT PUSH2 0xA89 JUMPI JUMPDEST POP POP POP POP POP PUSH2 0xE29 JUMP JUMPDEST PUSH2 0xAE6 JUMPI PUSH1 0x40 MLOAD PUSH32 0x8C379A000000000000000000000000000000000000000000000000000000000 DUP2 MSTORE PUSH1 0x4 ADD PUSH2 0xADD SWAP1 PUSH2 0x16E3 JUMP JUMPDEST PUSH1 0x40 MLOAD DUP1 SWAP2 SUB SWAP1 REVERT JUMPDEST PUSH2 0xB2E PUSH1 0x5 PUSH1 0x0 CALLER PUSH20 0xFFFFFFFFFFFFFFFFFFFFFFFFFFFFFFFFFFFFFFFF AND PUSH20 0xFFFFFFFFFFFFFFFFFFFFFFFFFFFFFFFFFFFFFFFF AND DUP2 MSTORE PUSH1 0x20 ADD SWAP1 DUP2 MSTORE PUSH1 0x20 ADD PUSH1 0x0 KECCAK256 DUP4 PUSH2 0xF59 JUMP JUMPDEST PUSH1 0x3 PUSH1 0x0 DUP4 DUP2 MSTORE PUSH1 0x20 ADD SWAP1 DUP2 MSTORE PUSH1 0x20 ADD PUSH1 0x0 KECCAK256 PUSH1 0x2 ADD PUSH1 0x0 DUP2 SLOAD DUP1 SWAP3 SWAP2 SWAP1 PUSH2 0xB55 SWAP1 PUSH2 0x1975 JUMP JUMPDEST SWAP2 SWAP1 POP SSTORE POP PUSH1 0x2 DUP3 DUP2 SLOAD DUP2 LT PUSH2 0xB94 JUMPI PUSH32 0x4E487B7100000000000000000000000000000000000000000000000000000000 PUSH1 0x0 MSTORE PUSH1 0x32 PUSH1 0x4 MSTORE PUSH1 0x24 PUSH1 0x0 REVERT JUMPDEST SWAP1 PUSH1 0x0 MSTORE PUSH1 0x20 PUSH1 0x0 KECCAK256 SWAP1 PUSH1 0x4 MUL ADD PUSH1 0x2 ADD PUSH1 0x0 DUP2 SLOAD DUP1 SWAP3 SWAP2 SWAP1 PUSH2 0xBB6 SWAP1 PUSH2 0x1975 JUMP JUMPDEST SWAP2 SWAP1 POP SSTORE POP POP POP JUMP JUMPDEST PUSH1 0x60 DUP2 PUSH1 0x3 PUSH1 0x0 DUP3 DUP2 MSTORE PUSH1 0x20 ADD SWAP1 DUP2 MSTORE PUSH1 0x20 ADD PUSH1 0x0 KECCAK256 PUSH1 0x3 ADD PUSH1 0x0 SWAP1 SLOAD SWAP1 PUSH2 0x100 EXP SWAP1 DIV PUSH1 0xFF AND PUSH2 0xC25 JUMPI PUSH1 0x40 MLOAD PUSH32 0x8C379A000000000000000000000000000000000000000000000000000000000 DUP2 MSTORE PUSH1 0x4 ADD PUSH2 0xC1C SWAP1 PUSH2 0x1763 JUMP JUMPDEST PUSH1 0x40 MLOAD DUP1 SWAP2 SUB SWAP1 REVERT JUMPDEST PUSH1 0x4 PUSH1 0x0 DUP5 DUP2 MSTORE PUSH1 0x20 ADD SWAP1 DUP2 MSTORE PUSH1 0x20 ADD PUSH1 0x0 KECCAK256 DUP1 SLOAD DUP1 PUSH1 0x20 MUL PUSH1 0x20 ADD PUSH1 0x40 MLOAD SWAP1 DUP2 ADD PUSH1 0x40 MSTORE DUP1 SWAP3 SWAP2 SWAP1 DUP2 DUP2 MSTORE PUSH1 0x20 ADD DUP3 DUP1 SLOAD DUP1 ISZERO PUSH2 0xCB8 JUMPI PUSH1 0x20 MUL DUP3 ADD SWAP2 SWAP1 PUSH1 0x0 MSTORE PUSH1 0x20 PUSH1 0x0 KECCAK256 SWAP1 JUMPDEST DUP2 PUSH1 0x0 SWAP1 SLOAD SWAP1 PUSH2 0x100 EXP SWAP1 DIV PUSH20 0xFFFFFFFFFFFFFFFFFFFFFFFFFFFFFFFFFFFFFFFF AND PUSH20 0xFFFFFFFFFFFFFFFFFFFFFFFFFFFFFFFFFFFFFFFF AND DUP2 MSTORE PUSH1 0x20 ADD SWAP1 PUSH1 0x1 ADD SWAP1 DUP1 DUP4 GT PUSH2 0xC6E JUMPI JUMPDEST POP POP POP POP POP SWAP2 POP POP SWAP2 SWAP1 POP JUMP JUMPDEST PUSH1 0x0 DUP1 PUSH1 0x0 SWAP1 POP JUMPDEST PUSH1 0x2 DUP1 SLOAD SWAP1 POP DUP2 LT ISZERO PUSH2 0xE1D JUMPI PUSH2 0xDFB PUSH1 0x2 DUP3 DUP2 SLOAD DUP2 LT PUSH2 0xD17 JUMPI PUSH32 0x4E487B7100000000000000000000000000000000000000000000000000000000 PUSH1 0x0 MSTORE PUSH1 0x32 PUSH1 0x4 MSTORE PUSH1 0x24 PUSH1 0x0 REVERT JUMPDEST SWAP1 PUSH1 0x0 MSTORE PUSH1 0x20 PUSH1 0x0 KECCAK256 SWAP1 PUSH1 0x4 MUL ADD PUSH1 0x1 ADD DUP1 SLOAD PUSH2 0xD33 SWAP1 PUSH2 0x1943 JUMP JUMPDEST DUP1 PUSH1 0x1F ADD PUSH1 0x20 DUP1 SWAP2 DIV MUL PUSH1 0x20 ADD PUSH1 0x40 MLOAD SWAP1 DUP2 ADD PUSH1 0x40 MSTORE DUP1 SWAP3 SWAP2 SWAP1 DUP2 DUP2 MSTORE PUSH1 0x20 ADD DUP3 DUP1 SLOAD PUSH2 0xD5F SWAP1 PUSH2 0x1943 JUMP JUMPDEST DUP1 ISZERO PUSH2 0xDAC JUMPI DUP1 PUSH1 0x1F LT PUSH2 0xD81 JUMPI PUSH2 0x100 DUP1 DUP4 SLOAD DIV MUL DUP4 MSTORE SWAP2 PUSH1 0x20 ADD SWAP2 PUSH2 0xDAC JUMP JUMPDEST DUP3 ADD SWAP2 SWAP1 PUSH1 0x0 MSTORE PUSH1 0x20 PUSH1 0x0 KECCAK256 SWAP1 JUMPDEST DUP2 SLOAD DUP2 MSTORE SWAP1 PUSH1 0x1 ADD SWAP1 PUSH1 0x20 ADD DUP1 DUP4 GT PUSH2 0xD8F JUMPI DUP3 SWAP1 SUB PUSH1 0x1F AND DUP3 ADD SWAP2 JUMPDEST POP POP POP POP POP DUP6 DUP6 DUP1 DUP1 PUSH1 0x1F ADD PUSH1 0x20 DUP1 SWAP2 DIV MUL PUSH1 0x20 ADD PUSH1 0x40 MLOAD SWAP1 DUP2 ADD PUSH1 0x40 MSTORE DUP1 SWAP4 SWAP3 SWAP2 SWAP1 DUP2 DUP2 MSTORE PUSH1 0x20 ADD DUP4 DUP4 DUP1 DUP3 DUP5 CALLDATACOPY PUSH1 0x0 DUP2 DUP5 ADD MSTORE PUSH1 0x1F NOT PUSH1 0x1F DUP3 ADD AND SWAP1 POP DUP1 DUP4 ADD SWAP3 POP POP POP POP POP POP POP PUSH2 0x10B4 JUMP JUMPDEST ISZERO PUSH2 0xE0A JUMPI PUSH1 0x1 SWAP2 POP POP PUSH2 0xE23 JUMP JUMPDEST DUP1 DUP1 PUSH2 0xE15 SWAP1 PUSH2 0x1975 JUMP JUMPDEST SWAP2 POP POP PUSH2 0xCCD JUMP JUMPDEST POP PUSH1 0x0 SWAP1 POP JUMPDEST SWAP3 SWAP2 POP POP JUMP JUMPDEST PUSH1 0x0 DUP1 PUSH1 0x0 SWAP1 POP JUMPDEST DUP3 MLOAD DUP2 LT ISZERO PUSH2 0xE9F JUMPI DUP3 DUP2 DUP2 MLOAD DUP2 LT PUSH2 0xE73 JUMPI PUSH32 0x4E487B7100000000000000000000000000000000000000000000000000000000 PUSH1 0x0 MSTORE PUSH1 0x32 PUSH1 0x4 MSTORE PUSH1 0x24 PUSH1 0x0 REVERT JUMPDEST PUSH1 0x20 MUL PUSH1 0x20 ADD ADD MLOAD DUP5 EQ ISZERO PUSH2 0xE8C JUMPI PUSH1 0x1 SWAP2 POP POP PUSH2 0xEA5 JUMP JUMPDEST DUP1 DUP1 PUSH2 0xE97 SWAP1 PUSH2 0x1975 JUMP JUMPDEST SWAP2 POP POP PUSH2 0xE31 JUMP JUMPDEST POP PUSH1 0x0 SWAP1 POP JUMPDEST SWAP3 SWAP2 POP POP JUMP JUMPDEST PUSH1 0x0 DUP1 PUSH1 0x0 SWAP1 POP JUMPDEST DUP3 MLOAD DUP2 LT ISZERO PUSH2 0xF4D JUMPI DUP3 DUP2 DUP2 MLOAD DUP2 LT PUSH2 0xEF5 JUMPI PUSH32 0x4E487B7100000000000000000000000000000000000000000000000000000000 PUSH1 0x0 MSTORE PUSH1 0x32 PUSH1 0x4 MSTORE PUSH1 0x24 PUSH1 0x0 REVERT JUMPDEST PUSH1 0x20 MUL PUSH1 0x20 ADD ADD MLOAD PUSH20 0xFFFFFFFFFFFFFFFFFFFFFFFFFFFFFFFFFFFFFFFF AND DUP5 PUSH20 0xFFFFFFFFFFFFFFFFFFFFFFFFFFFFFFFFFFFFFFFF AND EQ ISZERO PUSH2 0xF3A JUMPI PUSH1 0x1 SWAP2 POP POP PUSH2 0xF53 JUMP JUMPDEST DUP1 DUP1 PUSH2 0xF45 SWAP1 PUSH2 0x1975 JUMP JUMPDEST SWAP2 POP POP PUSH2 0xEB3 JUMP JUMPDEST POP PUSH1 0x0 SWAP1 POP JUMPDEST SWAP3 SWAP2 POP POP JUMP JUMPDEST PUSH1 0x0 JUMPDEST DUP3 DUP1 SLOAD SWAP1 POP DUP2 LT ISZERO PUSH2 0x10AF JUMPI DUP3 DUP2 DUP2 SLOAD DUP2 LT PUSH2 0xFA1 JUMPI PUSH32 0x4E487B7100000000000000000000000000000000000000000000000000000000 PUSH1 0x0 MSTORE PUSH1 0x32 PUSH1 0x4 MSTORE PUSH1 0x24 PUSH1 0x0 REVERT JUMPDEST SWAP1 PUSH1 0x0 MSTORE PUSH1 0x20 PUSH1 0x0 KECCAK256 ADD SLOAD DUP3 EQ ISZERO PUSH2 0x109C JUMPI DUP3 PUSH1 0x1 DUP5 DUP1 SLOAD SWAP1 POP PUSH2 0xFC5 SWAP2 SWAP1 PUSH2 0x186A JUMP JUMPDEST DUP2 SLOAD DUP2 LT PUSH2 0xFFC JUMPI PUSH32 0x4E487B7100000000000000000000000000000000000000000000000000000000 PUSH1 0x0 MSTORE PUSH1 0x32 PUSH1 0x4 MSTORE PUSH1 0x24 PUSH1 0x0 REVERT JUMPDEST SWAP1 PUSH1 0x0 MSTORE PUSH1 0x20 PUSH1 0x0 KECCAK256 ADD SLOAD DUP4 DUP3 DUP2 SLOAD DUP2 LT PUSH2 0x1040 JUMPI PUSH32 0x4E487B7100000000000000000000000000000000000000000000000000000000 PUSH1 0x0 MSTORE PUSH1 0x32 PUSH1 0x4 MSTORE PUSH1 0x24 PUSH1 0x0 REVERT JUMPDEST SWAP1 PUSH1 0x0 MSTORE PUSH1 0x20 PUSH1 0x0 KECCAK256 ADD DUP2 SWAP1 SSTORE POP DUP3 DUP1 SLOAD DUP1 PUSH2 0x1085 JUMPI PUSH32 0x4E487B7100000000000000000000000000000000000000000000000000000000 PUSH1 0x0 MSTORE PUSH1 0x31 PUSH1 0x4 MSTORE PUSH1 0x24 PUSH1 0x0 REVERT JUMPDEST PUSH1 0x1 SWAP1 SUB DUP2 DUP2 SWAP1 PUSH1 0x0 MSTORE PUSH1 0x20 PUSH1 0x0 KECCAK256 ADD PUSH1 0x0 SWAP1 SSTORE SWAP1 SSTORE JUMPDEST DUP1 DUP1 PUSH2 0x10A7 SWAP1 PUSH2 0x1975 JUMP JUMPDEST SWAP2 POP POP PUSH2 0xF5C JUMP JUMPDEST POP POP POP JUMP JUMPDEST PUSH1 0x0 DUP2 PUSH1 0x40 MLOAD PUSH1 0x20 ADD PUSH2 0x10C7 SWAP2 SWAP1 PUSH2 0x166F JUMP JUMPDEST PUSH1 0x40 MLOAD PUSH1 0x20 DUP2 DUP4 SUB SUB DUP2 MSTORE SWAP1 PUSH1 0x40 MSTORE DUP1 MLOAD SWAP1 PUSH1 0x20 ADD KECCAK256 DUP4 PUSH1 0x40 MLOAD PUSH1 0x20 ADD PUSH2 0x10EE SWAP2 SWAP1 PUSH2 0x166F JUMP JUMPDEST PUSH1 0x40 MLOAD PUSH1 0x20 DUP2 DUP4 SUB SUB DUP2 MSTORE SWAP1 PUSH1 0x40 MSTORE DUP1 MLOAD SWAP1 PUSH1 0x20 ADD KECCAK256 EQ SWAP1 POP SWAP3 SWAP2 POP POP JUMP JUMPDEST PUSH1 0x40 MLOAD DUP1 PUSH1 0x80 ADD PUSH1 0x40 MSTORE DUP1 PUSH1 0x0 DUP2 MSTORE PUSH1 0x20 ADD PUSH1 0x60 DUP2 MSTORE PUSH1 0x20 ADD PUSH1 0x0 DUP2 MSTORE PUSH1 0x20 ADD PUSH1 0x0 ISZERO ISZERO DUP2 MSTORE POP SWAP1 JUMP JUMPDEST DUP3 DUP1 SLOAD PUSH2 0x1143 SWAP1 PUSH2 0x1943 JUMP JUMPDEST SWAP1 PUSH1 0x0 MSTORE PUSH1 0x20 PUSH1 0x0 KECCAK256 SWAP1 PUSH1 0x1F ADD PUSH1 0x20 SWAP1 DIV DUP2 ADD SWAP3 DUP3 PUSH2 0x1165 JUMPI PUSH1 0x0 DUP6 SSTORE PUSH2 0x11AC JUMP JUMPDEST DUP3 PUSH1 0x1F LT PUSH2 0x117E JUMPI DUP1 MLOAD PUSH1 0xFF NOT AND DUP4 DUP1 ADD OR DUP6 SSTORE PUSH2 0x11AC JUMP JUMPDEST DUP3 DUP1 ADD PUSH1 0x1 ADD DUP6 SSTORE DUP3 ISZERO PUSH2 0x11AC JUMPI SWAP2 DUP3 ADD JUMPDEST DUP3 DUP2 GT ISZERO PUSH2 0x11AB JUMPI DUP3 MLOAD DUP3 SSTORE SWAP2 PUSH1 0x20 ADD SWAP2 SWAP1 PUSH1 0x1 ADD SWAP1 PUSH2 0x1190 JUMP JUMPDEST JUMPDEST POP SWAP1 POP PUSH2 0x11B9 SWAP2 SWAP1 PUSH2 0x11BD JUMP JUMPDEST POP SWAP1 JUMP JUMPDEST JUMPDEST DUP1 DUP3 GT ISZERO PUSH2 0x11D6 JUMPI PUSH1 0x0 DUP2 PUSH1 0x0 SWAP1 SSTORE POP PUSH1 0x1 ADD PUSH2 0x11BE JUMP JUMPDEST POP SWAP1 JUMP JUMPDEST PUSH1 0x0 DUP2 CALLDATALOAD SWAP1 POP PUSH2 0x11E9 DUP2 PUSH2 0x1A2D JUMP JUMPDEST SWAP3 SWAP2 POP POP JUMP JUMPDEST PUSH1 0x0 DUP1 DUP4 PUSH1 0x1F DUP5 ADD SLT PUSH2 0x1201 JUMPI PUSH1 0x0 DUP1 REVERT JUMPDEST DUP3 CALLDATALOAD SWAP1 POP PUSH8 0xFFFFFFFFFFFFFFFF DUP2 GT ISZERO PUSH2 0x121A JUMPI PUSH1 0x0 DUP1 REVERT JUMPDEST PUSH1 0x20 DUP4 ADD SWAP2 POP DUP4 PUSH1 0x1 DUP3 MUL DUP4 ADD GT ISZERO PUSH2 0x1232 JUMPI PUSH1 0x0 DUP1 REVERT JUMPDEST SWAP3 POP SWAP3 SWAP1 POP JUMP JUMPDEST PUSH1 0x0 DUP2 CALLDATALOAD SWAP1 POP PUSH2 0x1248 DUP2 PUSH2 0x1A44 JUMP JUMPDEST SWAP3 SWAP2 POP POP JUMP JUMPDEST PUSH1 0x0 DUP1 PUSH1 0x40 DUP4 DUP6 SUB SLT ISZERO PUSH2 0x1261 JUMPI PUSH1 0x0 DUP1 REVERT JUMPDEST PUSH1 0x0 PUSH2 0x126F DUP6 DUP3 DUP7 ADD PUSH2 0x11DA JUMP JUMPDEST SWAP3 POP POP PUSH1 0x20 PUSH2 0x1280 DUP6 DUP3 DUP7 ADD PUSH2 0x1239 JUMP JUMPDEST SWAP2 POP POP SWAP3 POP SWAP3 SWAP1 POP JUMP JUMPDEST PUSH1 0x0 DUP1 PUSH1 0x0 PUSH1 0x40 DUP5 DUP7 SUB SLT ISZERO PUSH2 0x129F JUMPI PUSH1 0x0 DUP1 REVERT JUMPDEST PUSH1 0x0 DUP5 ADD CALLDATALOAD PUSH8 0xFFFFFFFFFFFFFFFF DUP2 GT ISZERO PUSH2 0x12B9 JUMPI PUSH1 0x0 DUP1 REVERT JUMPDEST PUSH2 0x12C5 DUP7 DUP3 DUP8 ADD PUSH2 0x11EF JUMP JUMPDEST SWAP4 POP SWAP4 POP POP PUSH1 0x20 PUSH2 0x12D8 DUP7 DUP3 DUP8 ADD PUSH2 0x1239 JUMP JUMPDEST SWAP2 POP POP SWAP3 POP SWAP3 POP SWAP3 JUMP JUMPDEST PUSH1 0x0 PUSH1 0x20 DUP3 DUP5 SUB SLT ISZERO PUSH2 0x12F4 JUMPI PUSH1 0x0 DUP1 REVERT JUMPDEST PUSH1 0x0 PUSH2 0x1302 DUP5 DUP3 DUP6 ADD PUSH2 0x1239 JUMP JUMPDEST SWAP2 POP POP SWAP3 SWAP2 POP POP JUMP JUMPDEST PUSH1 0x0 DUP1 PUSH1 0x40 DUP4 DUP6 SUB SLT ISZERO PUSH2 0x131E JUMPI PUSH1 0x0 DUP1 REVERT JUMPDEST PUSH1 0x0 PUSH2 0x132C DUP6 DUP3 DUP7 ADD PUSH2 0x1239 JUMP JUMPDEST SWAP3 POP POP PUSH1 0x20 PUSH2 0x133D DUP6 DUP3 DUP7 ADD PUSH2 0x1239 JUMP JUMPDEST SWAP2 POP POP SWAP3 POP SWAP3 SWAP1 POP JUMP JUMPDEST PUSH1 0x0 PUSH2 0x1353 DUP4 DUP4 PUSH2 0x135F JUMP JUMPDEST PUSH1 0x20 DUP4 ADD SWAP1 POP SWAP3 SWAP2 POP POP JUMP JUMPDEST PUSH2 0x1368 DUP2 PUSH2 0x189E JUMP JUMPDEST DUP3 MSTORE POP POP JUMP JUMPDEST PUSH2 0x1377 DUP2 PUSH2 0x189E JUMP JUMPDEST DUP3 MSTORE POP POP JUMP JUMPDEST PUSH1 0x0 PUSH2 0x1388 DUP3 PUSH2 0x181A JUMP JUMPDEST PUSH2 0x1392 DUP2 DUP6 PUSH2 0x183D JUMP JUMPDEST SWAP4 POP PUSH2 0x139D DUP4 PUSH2 0x180A JUMP JUMPDEST DUP1 PUSH1 0x0 JUMPDEST DUP4 DUP2 LT ISZERO PUSH2 0x13CE JUMPI DUP2 MLOAD PUSH2 0x13B5 DUP9 DUP3 PUSH2 0x1347 JUMP JUMPDEST SWAP8 POP PUSH2 0x13C0 DUP4 PUSH2 0x1830 JUMP JUMPDEST SWAP3 POP POP PUSH1 0x1 DUP2 ADD SWAP1 POP PUSH2 0x13A1 JUMP JUMPDEST POP DUP6 SWAP4 POP POP POP POP SWAP3 SWAP2 POP POP JUMP JUMPDEST PUSH2 0x13E4 DUP2 PUSH2 0x18B0 JUMP JUMPDEST DUP3 MSTORE POP POP JUMP JUMPDEST PUSH1 0x0 PUSH2 0x13F5 DUP3 PUSH2 0x1825 JUMP JUMPDEST PUSH2 0x13FF DUP2 DUP6 PUSH2 0x184E JUMP JUMPDEST SWAP4 POP PUSH2 0x140F DUP2 DUP6 PUSH1 0x20 DUP7 ADD PUSH2 0x18E6 JUMP JUMPDEST PUSH2 0x1418 DUP2 PUSH2 0x1A1C JUMP JUMPDEST DUP5 ADD SWAP2 POP POP SWAP3 SWAP2 POP POP JUMP JUMPDEST PUSH1 0x0 PUSH2 0x142E DUP3 PUSH2 0x1825 JUMP JUMPDEST PUSH2 0x1438 DUP2 DUP6 PUSH2 0x185F JUMP JUMPDEST SWAP4 POP PUSH2 0x1448 DUP2 DUP6 PUSH1 0x20 DUP7 ADD PUSH2 0x18E6 JUMP JUMPDEST DUP1 DUP5 ADD SWAP2 POP POP SWAP3 SWAP2 POP POP JUMP JUMPDEST PUSH1 0x0 PUSH2 0x1461 PUSH1 0x20 DUP4 PUSH2 0x184E JUMP JUMPDEST SWAP2 POP PUSH32 0x5468697320626F6F6B2065786973747320696E20746865206C69627261727921 PUSH1 0x0 DUP4 ADD MSTORE PUSH1 0x20 DUP3 ADD SWAP1 POP SWAP2 SWAP1 POP JUMP JUMPDEST PUSH1 0x0 PUSH2 0x14A1 PUSH1 0x1E DUP4 PUSH2 0x184E JUMP JUMPDEST SWAP2 POP PUSH32 0x596F7520686176656E7420626F72726F776564207468617420626F6F6B210000 PUSH1 0x0 DUP4 ADD MSTORE PUSH1 0x20 DUP3 ADD SWAP1 POP SWAP2 SWAP1 POP JUMP JUMPDEST PUSH1 0x0 PUSH2 0x14E1 PUSH1 0x22 DUP4 PUSH2 0x184E JUMP JUMPDEST SWAP2 POP PUSH32 0x596F7527766520616C726561647920626F72726F776564207468617420626F6F PUSH1 0x0 DUP4 ADD MSTORE PUSH32 0x6B21000000000000000000000000000000000000000000000000000000000000 PUSH1 0x20 DUP4 ADD MSTORE PUSH1 0x40 DUP3 ADD SWAP1 POP SWAP2 SWAP1 POP JUMP JUMPDEST PUSH1 0x0 PUSH2 0x1547 PUSH1 0x1A DUP4 PUSH2 0x184E JUMP JUMPDEST SWAP2 POP PUSH32 0x43757272656E742075736572206973206E6F74206F776E657221000000000000 PUSH1 0x0 DUP4 ADD MSTORE PUSH1 0x20 DUP3 ADD SWAP1 POP SWAP2 SWAP1 POP JUMP JUMPDEST PUSH1 0x0 PUSH2 0x1587 PUSH1 0x24 DUP4 PUSH2 0x184E JUMP JUMPDEST SWAP2 POP PUSH32 0x5468697320626F6F6B206973206F7574206F662073746F636B2063757272656E PUSH1 0x0 DUP4 ADD MSTORE PUSH32 0x746C792100000000000000000000000000000000000000000000000000000000 PUSH1 0x20 DUP4 ADD MSTORE PUSH1 0x40 DUP3 ADD SWAP1 POP SWAP2 SWAP1 POP JUMP JUMPDEST PUSH1 0x0 PUSH2 0x15ED PUSH1 0x1F DUP4 PUSH2 0x184E JUMP JUMPDEST SWAP2 POP PUSH32 0x426F6F6B20646F6573206E6F7420657869737420696E206C6962726172792100 PUSH1 0x0 DUP4 ADD MSTORE PUSH1 0x20 DUP3 ADD SWAP1 POP SWAP2 SWAP1 POP JUMP JUMPDEST PUSH1 0x0 PUSH2 0x162D PUSH1 0x1F DUP4 PUSH2 0x184E JUMP JUMPDEST SWAP2 POP PUSH32 0x5175616E746974792063616E6E6F74206265206C657373207468616E20312100 PUSH1 0x0 DUP4 ADD MSTORE PUSH1 0x20 DUP3 ADD SWAP1 POP SWAP2 SWAP1 POP JUMP JUMPDEST PUSH2 0x1669 DUP2 PUSH2 0x18DC JUMP JUMPDEST DUP3 MSTORE POP POP JUMP JUMPDEST PUSH1 0x0 PUSH2 0x167B DUP3 DUP5 PUSH2 0x1423 JUMP JUMPDEST SWAP2 POP DUP2 SWAP1 POP SWAP3 SWAP2 POP POP JUMP JUMPDEST PUSH1 0x0 PUSH1 0x20 DUP3 ADD SWAP1 POP PUSH2 0x169B PUSH1 0x0 DUP4 ADD DUP5 PUSH2 0x136E JUMP JUMPDEST SWAP3 SWAP2 POP POP JUMP JUMPDEST PUSH1 0x0 PUSH1 0x20 DUP3 ADD SWAP1 POP DUP2 DUP2 SUB PUSH1 0x0 DUP4 ADD MSTORE PUSH2 0x16BB DUP2 DUP5 PUSH2 0x137D JUMP JUMPDEST SWAP1 POP SWAP3 SWAP2 POP POP JUMP JUMPDEST PUSH1 0x0 PUSH1 0x20 DUP3 ADD SWAP1 POP DUP2 DUP2 SUB PUSH1 0x0 DUP4 ADD MSTORE PUSH2 0x16DC DUP2 PUSH2 0x1454 JUMP JUMPDEST SWAP1 POP SWAP2 SWAP1 POP JUMP JUMPDEST PUSH1 0x0 PUSH1 0x20 DUP3 ADD SWAP1 POP DUP2 DUP2 SUB PUSH1 0x0 DUP4 ADD MSTORE PUSH2 0x16FC DUP2 PUSH2 0x1494 JUMP JUMPDEST SWAP1 POP SWAP2 SWAP1 POP JUMP JUMPDEST PUSH1 0x0 PUSH1 0x20 DUP3 ADD SWAP1 POP DUP2 DUP2 SUB PUSH1 0x0 DUP4 ADD MSTORE PUSH2 0x171C DUP2 PUSH2 0x14D4 JUMP JUMPDEST SWAP1 POP SWAP2 SWAP1 POP JUMP JUMPDEST PUSH1 0x0 PUSH1 0x20 DUP3 ADD SWAP1 POP DUP2 DUP2 SUB PUSH1 0x0 DUP4 ADD MSTORE PUSH2 0x173C DUP2 PUSH2 0x153A JUMP JUMPDEST SWAP1 POP SWAP2 SWAP1 POP JUMP JUMPDEST PUSH1 0x0 PUSH1 0x20 DUP3 ADD SWAP1 POP DUP2 DUP2 SUB PUSH1 0x0 DUP4 ADD MSTORE PUSH2 0x175C DUP2 PUSH2 0x157A JUMP JUMPDEST SWAP1 POP SWAP2 SWAP1 POP JUMP JUMPDEST PUSH1 0x0 PUSH1 0x20 DUP3 ADD SWAP1 POP DUP2 DUP2 SUB PUSH1 0x0 DUP4 ADD MSTORE PUSH2 0x177C DUP2 PUSH2 0x15E0 JUMP JUMPDEST SWAP1 POP SWAP2 SWAP1 POP JUMP JUMPDEST PUSH1 0x0 PUSH1 0x20 DUP3 ADD SWAP1 POP DUP2 DUP2 SUB PUSH1 0x0 DUP4 ADD MSTORE PUSH2 0x179C DUP2 PUSH2 0x1620 JUMP JUMPDEST SWAP1 POP SWAP2 SWAP1 POP JUMP JUMPDEST PUSH1 0x0 PUSH1 0x20 DUP3 ADD SWAP1 POP PUSH2 0x17B8 PUSH1 0x0 DUP4 ADD DUP5 PUSH2 0x1660 JUMP JUMPDEST SWAP3 SWAP2 POP POP JUMP JUMPDEST PUSH1 0x0 PUSH1 0x80 DUP3 ADD SWAP1 POP PUSH2 0x17D3 PUSH1 0x0 DUP4 ADD DUP8 PUSH2 0x1660 JUMP JUMPDEST DUP2 DUP2 SUB PUSH1 0x20 DUP4 ADD MSTORE PUSH2 0x17E5 DUP2 DUP7 PUSH2 0x13EA JUMP JUMPDEST SWAP1 POP PUSH2 0x17F4 PUSH1 0x40 DUP4 ADD DUP6 PUSH2 0x1660 JUMP JUMPDEST PUSH2 0x1801 PUSH1 0x60 DUP4 ADD DUP5 PUSH2 0x13DB JUMP JUMPDEST SWAP6 SWAP5 POP POP POP POP POP JUMP JUMPDEST PUSH1 0x0 DUP2 SWAP1 POP PUSH1 0x20 DUP3 ADD SWAP1 POP SWAP2 SWAP1 POP JUMP JUMPDEST PUSH1 0x0 DUP2 MLOAD SWAP1 POP SWAP2 SWAP1 POP JUMP JUMPDEST PUSH1 0x0 DUP2 MLOAD SWAP1 POP SWAP2 SWAP1 POP JUMP JUMPDEST PUSH1 0x0 PUSH1 0x20 DUP3 ADD SWAP1 POP SWAP2 SWAP1 POP JUMP JUMPDEST PUSH1 0x0 DUP3 DUP3 MSTORE PUSH1 0x20 DUP3 ADD SWAP1 POP SWAP3 SWAP2 POP POP JUMP JUMPDEST PUSH1 0x0 DUP3 DUP3 MSTORE PUSH1 0x20 DUP3 ADD SWAP1 POP SWAP3 SWAP2 POP POP JUMP JUMPDEST PUSH1 0x0 DUP2 SWAP1 POP SWAP3 SWAP2 POP POP JUMP JUMPDEST PUSH1 0x0 PUSH2 0x1875 DUP3 PUSH2 0x18DC JUMP JUMPDEST SWAP2 POP PUSH2 0x1880 DUP4 PUSH2 0x18DC JUMP JUMPDEST SWAP3 POP DUP3 DUP3 LT ISZERO PUSH2 0x1893 JUMPI PUSH2 0x1892 PUSH2 0x19BE JUMP JUMPDEST JUMPDEST DUP3 DUP3 SUB SWAP1 POP SWAP3 SWAP2 POP POP JUMP JUMPDEST PUSH1 0x0 PUSH2 0x18A9 DUP3 PUSH2 0x18BC JUMP JUMPDEST SWAP1 POP SWAP2 SWAP1 POP JUMP JUMPDEST PUSH1 0x0 DUP2 ISZERO ISZERO SWAP1 POP SWAP2 SWAP1 POP JUMP JUMPDEST PUSH1 0x0 PUSH20 0xFFFFFFFFFFFFFFFFFFFFFFFFFFFFFFFFFFFFFFFF DUP3 AND SWAP1 POP SWAP2 SWAP1 POP JUMP JUMPDEST PUSH1 0x0 DUP2 SWAP1 POP SWAP2 SWAP1 POP JUMP JUMPDEST PUSH1 0x0 JUMPDEST DUP4 DUP2 LT ISZERO PUSH2 0x1904 JUMPI DUP1 DUP3 ADD MLOAD DUP2 DUP5 ADD MSTORE PUSH1 0x20 DUP2 ADD SWAP1 POP PUSH2 0x18E9 JUMP JUMPDEST DUP4 DUP2 GT ISZERO PUSH2 0x1913 JUMPI PUSH1 0x0 DUP5 DUP5 ADD MSTORE JUMPDEST POP POP POP POP JUMP JUMPDEST PUSH1 0x0 PUSH2 0x1924 DUP3 PUSH2 0x18DC JUMP JUMPDEST SWAP2 POP PUSH1 0x0 DUP3 EQ ISZERO PUSH2 0x1938 JUMPI PUSH2 0x1937 PUSH2 0x19BE JUMP JUMPDEST JUMPDEST PUSH1 0x1 DUP3 SUB SWAP1 POP SWAP2 SWAP1 POP JUMP JUMPDEST PUSH1 0x0 PUSH1 0x2 DUP3 DIV SWAP1 POP PUSH1 0x1 DUP3 AND DUP1 PUSH2 0x195B JUMPI PUSH1 0x7F DUP3 AND SWAP2 POP JUMPDEST PUSH1 0x20 DUP3 LT DUP2 EQ ISZERO PUSH2 0x196F JUMPI PUSH2 0x196E PUSH2 0x19ED JUMP JUMPDEST JUMPDEST POP SWAP2 SWAP1 POP JUMP JUMPDEST PUSH1 0x0 PUSH2 0x1980 DUP3 PUSH2 0x18DC JUMP JUMPDEST SWAP2 POP PUSH32 0xFFFFFFFFFFFFFFFFFFFFFFFFFFFFFFFFFFFFFFFFFFFFFFFFFFFFFFFFFFFFFFFF DUP3 EQ ISZERO PUSH2 0x19B3 JUMPI PUSH2 0x19B2 PUSH2 0x19BE JUMP JUMPDEST JUMPDEST PUSH1 0x1 DUP3 ADD SWAP1 POP SWAP2 SWAP1 POP JUMP JUMPDEST PUSH32 0x4E487B7100000000000000000000000000000000000000000000000000000000 PUSH1 0x0 MSTORE PUSH1 0x11 PUSH1 0x4 MSTORE PUSH1 0x24 PUSH1 0x0 REVERT JUMPDEST PUSH32 0x4E487B7100000000000000000000000000000000000000000000000000000000 PUSH1 0x0 MSTORE PUSH1 0x22 PUSH1 0x4 MSTORE PUSH1 0x24 PUSH1 0x0 REVERT JUMPDEST PUSH1 0x0 PUSH1 0x1F NOT PUSH1 0x1F DUP4 ADD AND SWAP1 POP SWAP2 SWAP1 POP JUMP JUMPDEST PUSH2 0x1A36 DUP2 PUSH2 0x189E JUMP JUMPDEST DUP2 EQ PUSH2 0x1A41 JUMPI PUSH1 0x0 DUP1 REVERT JUMPDEST POP JUMP JUMPDEST PUSH2 0x1A4D DUP2 PUSH2 0x18DC JUMP JUMPDEST DUP2 EQ PUSH2 0x1A58 JUMPI PUSH1 0x0 DUP1 REVERT JUMPDEST POP JUMP INVALID LOG2 PUSH5 0x6970667358 0x22 SLT KECCAK256 0x23 PUSH21 0x99B449CFE5AB8BECBF63B5E1C0DE5C28A7A31CA36D SWAP13 JUMPDEST 0xF9 0xE2 0xDB AND 0xA8 ADD MSIZE PUSH5 0x736F6C6343 STOP ADDMOD STOP STOP CALLER "
				},
				"gasEstimates": {
					"creation": {
						"codeDepositCost": "1360200",
						"executionCost": "22283",
						"totalCost": "1382483"
					},
					"external": {
						"AddBook(string,uint256)": "infinite",
						"BookBorrowHistory(uint256,uint256)": "infinite",
						"BorrowBook(uint256)": "infinite",
						"BorrowHistory(uint256)": "infinite",
						"ClientBorrowList(address,uint256)": "infinite",
						"LibraryArchive(uint256)": "infinite",
						"ReturnBook(uint256)": "infinite",
						"owner()": "1211"
					},
					"internal": {
						"LibraryContainsBook(string calldata)": "infinite"
					}
				},
				"methodIdentifiers": {
					"AddBook(string,uint256)": "265be2e2",
					"BookBorrowHistory(uint256,uint256)": "84ab2e1a",
					"BorrowBook(uint256)": "9649faa3",
					"BorrowHistory(uint256)": "e7e58ee9",
					"ClientBorrowList(address,uint256)": "2b3819fe",
					"LibraryArchive(uint256)": "27e4671c",
					"ReturnBook(uint256)": "b8dd17db",
					"owner()": "8da5cb5b"
				}
			},
			"userdoc": {
				"kind": "user",
				"methods": {},
				"version": 1
			}
		}
	}
}