{
	"Library.sol": {
		"Library": {
			"abi": [
				{
					"inputs": [],
					"stateMutability": "nonpayable",
					"type": "constructor"
				},
				{
					"inputs": [
						{
							"internalType": "string",
							"name": "bookName",
							"type": "string"
						},
						{
							"internalType": "uint256",
							"name": "quantity",
							"type": "uint256"
						}
					],
					"name": "AddBook",
					"outputs": [],
					"stateMutability": "nonpayable",
					"type": "function"
				},
				{
					"inputs": [
						{
							"internalType": "uint256",
							"name": "",
							"type": "uint256"
						},
						{
							"internalType": "uint256",
							"name": "",
							"type": "uint256"
						}
					],
					"name": "BookBorrowerHistory",
					"outputs": [
						{
							"internalType": "address",
							"name": "",
							"type": "address"
						}
					],
					"stateMutability": "view",
					"type": "function"
				},
				{
					"inputs": [
						{
							"internalType": "uint256",
							"name": "",
							"type": "uint256"
						}
					],
					"name": "BookList",
					"outputs": [
						{
							"internalType": "uint256",
							"name": "id",
							"type": "uint256"
						},
						{
							"internalType": "string",
							"name": "name",
							"type": "string"
						},
						{
							"internalType": "uint256",
							"name": "quantity",
							"type": "uint256"
						},
						{
							"internalType": "bool",
							"name": "exists",
							"type": "bool"
						}
					],
					"stateMutability": "view",
					"type": "function"
				},
				{
					"inputs": [
						{
							"internalType": "uint256",
							"name": "bookId",
							"type": "uint256"
						}
					],
					"name": "BorrowBook",
					"outputs": [],
					"stateMutability": "nonpayable",
					"type": "function"
				},
				{
					"inputs": [
						{
							"internalType": "address",
							"name": "",
							"type": "address"
						},
						{
							"internalType": "uint256",
							"name": "",
							"type": "uint256"
						}
					],
					"name": "ClientBorrowList",
					"outputs": [
						{
							"internalType": "uint256",
							"name": "",
							"type": "uint256"
						}
					],
					"stateMutability": "view",
					"type": "function"
				},
				{
					"inputs": [
						{
							"internalType": "uint256",
							"name": "bookId",
							"type": "uint256"
						}
					],
					"name": "ReturnBook",
					"outputs": [],
					"stateMutability": "nonpayable",
					"type": "function"
				},
				{
					"inputs": [],
					"name": "owner",
					"outputs": [
						{
							"internalType": "address",
							"name": "",
							"type": "address"
						}
					],
					"stateMutability": "view",
					"type": "function"
				}
			],
			"devdoc": {
				"kind": "dev",
				"methods": {},
				"version": 1
			},
			"evm": {
				"assembly": "    /* \"Library.sol\":88:1998  contract Library is Helpers{... */\n  mstore(0x40, 0x80)\n    /* \"Library.sol\":681:729  constructor(){... */\n  callvalue\n  dup1\n  iszero\n  tag_1\n  jumpi\n  0x00\n  dup1\n  revert\ntag_1:\n  pop\n    /* \"Library.sol\":712:722  msg.sender */\n  caller\n    /* \"Library.sol\":704:709  owner */\n  0x00\n  dup1\n    /* \"Library.sol\":704:722  owner = msg.sender */\n  0x0100\n  exp\n  dup2\n  sload\n  dup2\n  0xffffffffffffffffffffffffffffffffffffffff\n  mul\n  not\n  and\n  swap1\n  dup4\n  0xffffffffffffffffffffffffffffffffffffffff\n  and\n  mul\n  or\n  swap1\n  sstore\n  pop\n    /* \"Library.sol\":88:1998  contract Library is Helpers{... */\n  dataSize(sub_0)\n  dup1\n  dataOffset(sub_0)\n  0x00\n  codecopy\n  0x00\n  return\nstop\n\nsub_0: assembly {\n        /* \"Library.sol\":88:1998  contract Library is Helpers{... */\n      mstore(0x40, 0x80)\n      callvalue\n      dup1\n      iszero\n      tag_1\n      jumpi\n      0x00\n      dup1\n      revert\n    tag_1:\n      pop\n      jumpi(tag_2, lt(calldatasize, 0x04))\n      shr(0xe0, calldataload(0x00))\n      dup1\n      0x71e25e5a\n      gt\n      tag_10\n      jumpi\n      dup1\n      0x71e25e5a\n      eq\n      tag_6\n      jumpi\n      dup1\n      0x8da5cb5b\n      eq\n      tag_7\n      jumpi\n      dup1\n      0x9649faa3\n      eq\n      tag_8\n      jumpi\n      dup1\n      0xb8dd17db\n      eq\n      tag_9\n      jumpi\n      jump(tag_2)\n    tag_10:\n      dup1\n      0x18413898\n      eq\n      tag_3\n      jumpi\n      dup1\n      0x265be2e2\n      eq\n      tag_4\n      jumpi\n      dup1\n      0x2b3819fe\n      eq\n      tag_5\n      jumpi\n    tag_2:\n      0x00\n      dup1\n      revert\n        /* \"Library.sol\":318:371  mapping(uint => address[]) public BookBorrowerHistory */\n    tag_3:\n      tag_11\n      0x04\n      dup1\n      calldatasize\n      sub\n      dup2\n      add\n      swap1\n      tag_12\n      swap2\n      swap1\n      tag_13\n      jump\t// in\n    tag_12:\n      tag_14\n      jump\t// in\n    tag_11:\n      mload(0x40)\n      tag_15\n      swap2\n      swap1\n      tag_16\n      jump\t// in\n    tag_15:\n      mload(0x40)\n      dup1\n      swap2\n      sub\n      swap1\n      return\n        /* \"Library.sol\":735:1029  function AddBook(string calldata bookName, uint quantity) public onlyOwnable bookExists(counter){... */\n    tag_4:\n      tag_17\n      0x04\n      dup1\n      calldatasize\n      sub\n      dup2\n      add\n      swap1\n      tag_18\n      swap2\n      swap1\n      tag_19\n      jump\t// in\n    tag_18:\n      tag_20\n      jump\t// in\n    tag_17:\n      stop\n        /* \"Library.sol\":378:428  mapping(address => uint[]) public ClientBorrowList */\n    tag_5:\n      tag_21\n      0x04\n      dup1\n      calldatasize\n      sub\n      dup2\n      add\n      swap1\n      tag_22\n      swap2\n      swap1\n      tag_23\n      jump\t// in\n    tag_22:\n      tag_24\n      jump\t// in\n    tag_21:\n      mload(0x40)\n      tag_25\n      swap2\n      swap1\n      tag_26\n      jump\t// in\n    tag_25:\n      mload(0x40)\n      dup1\n      swap2\n      sub\n      swap1\n      return\n        /* \"Library.sol\":274:311  mapping(uint => Book) public BookList */\n    tag_6:\n      tag_27\n      0x04\n      dup1\n      calldatasize\n      sub\n      dup2\n      add\n      swap1\n      tag_28\n      swap2\n      swap1\n      tag_29\n      jump\t// in\n    tag_28:\n      tag_30\n      jump\t// in\n    tag_27:\n      mload(0x40)\n      tag_31\n      swap5\n      swap4\n      swap3\n      swap2\n      swap1\n      tag_32\n      jump\t// in\n    tag_31:\n      mload(0x40)\n      dup1\n      swap2\n      sub\n      swap1\n      return\n        /* \"Library.sol\":121:141  address public owner */\n    tag_7:\n      tag_33\n      tag_34\n      jump\t// in\n    tag_33:\n      mload(0x40)\n      tag_35\n      swap2\n      swap1\n      tag_16\n      jump\t// in\n    tag_35:\n      mload(0x40)\n      dup1\n      swap2\n      sub\n      swap1\n      return\n        /* \"Library.sol\":1035:1607  function BorrowBook(uint bookId) public bookExists(bookId){    ... */\n    tag_8:\n      tag_36\n      0x04\n      dup1\n      calldatasize\n      sub\n      dup2\n      add\n      swap1\n      tag_37\n      swap2\n      swap1\n      tag_29\n      jump\t// in\n    tag_37:\n      tag_38\n      jump\t// in\n    tag_36:\n      stop\n        /* \"Library.sol\":1613:1996  function ReturnBook(uint bookId) public bookExists(bookId){... */\n    tag_9:\n      tag_39\n      0x04\n      dup1\n      calldatasize\n      sub\n      dup2\n      add\n      swap1\n      tag_40\n      swap2\n      swap1\n      tag_29\n      jump\t// in\n    tag_40:\n      tag_41\n      jump\t// in\n    tag_39:\n      stop\n        /* \"Library.sol\":318:371  mapping(uint => address[]) public BookBorrowerHistory */\n    tag_14:\n      mstore(0x20, 0x03)\n      dup2\n      0x00\n      mstore\n      keccak256(0x00, 0x40)\n      dup2\n      dup2\n      sload\n      dup2\n      lt\n      tag_42\n      jumpi\n      0x00\n      dup1\n      revert\n    tag_42:\n      swap1\n      0x00\n      mstore\n      keccak256(0x00, 0x20)\n      add\n      0x00\n      swap2\n      pop\n      swap2\n      pop\n      swap1\n      sload\n      swap1\n      0x0100\n      exp\n      swap1\n      div\n      0xffffffffffffffffffffffffffffffffffffffff\n      and\n      dup2\n      jump\t// out\n        /* \"Library.sol\":735:1029  function AddBook(string calldata bookName, uint quantity) public onlyOwnable bookExists(counter){... */\n    tag_20:\n        /* \"Library.sol\":489:494  owner */\n      0x00\n      dup1\n      sload\n      swap1\n      0x0100\n      exp\n      swap1\n      div\n      0xffffffffffffffffffffffffffffffffffffffff\n      and\n        /* \"Library.sol\":475:494  msg.sender == owner */\n      0xffffffffffffffffffffffffffffffffffffffff\n      and\n        /* \"Library.sol\":475:485  msg.sender */\n      caller\n        /* \"Library.sol\":475:494  msg.sender == owner */\n      0xffffffffffffffffffffffffffffffffffffffff\n      and\n      eq\n        /* \"Library.sol\":467:525  require(msg.sender == owner, \"Current user is not owner!\") */\n      tag_45\n      jumpi\n      mload(0x40)\n      0x08c379a000000000000000000000000000000000000000000000000000000000\n      dup2\n      mstore\n      0x04\n      add\n      tag_46\n      swap1\n      tag_47\n      jump\t// in\n    tag_46:\n      mload(0x40)\n      dup1\n      swap2\n      sub\n      swap1\n      revert\n    tag_45:\n        /* \"Library.sol\":823:830  counter */\n      sload(0x01)\n        /* \"Library.sol\":599:607  BookList */\n      0x02\n        /* \"Library.sol\":599:615  BookList[bookId] */\n      0x00\n        /* \"Library.sol\":608:614  bookId */\n      dup3\n        /* \"Library.sol\":599:615  BookList[bookId] */\n      dup2\n      mstore\n      0x20\n      add\n      swap1\n      dup2\n      mstore\n      0x20\n      add\n      0x00\n      keccak256\n        /* \"Library.sol\":599:622  BookList[bookId].exists */\n      0x03\n      add\n      0x00\n      swap1\n      sload\n      swap1\n      0x0100\n      exp\n      swap1\n      div\n      0xff\n      and\n        /* \"Library.sol\":591:657  require(BookList[bookId].exists,\"Book does not exist in library!\") */\n      tag_49\n      jumpi\n      mload(0x40)\n      0x08c379a000000000000000000000000000000000000000000000000000000000\n      dup2\n      mstore\n      0x04\n      add\n      tag_50\n      swap1\n      tag_51\n      jump\t// in\n    tag_50:\n      mload(0x40)\n      dup1\n      swap2\n      sub\n      swap1\n      revert\n    tag_49:\n        /* \"Library.sol\":865:872  counter */\n      sload(0x01)\n        /* \"Library.sol\":842:850  BookList */\n      0x02\n        /* \"Library.sol\":842:859  BookList[counter] */\n      0x00\n        /* \"Library.sol\":851:858  counter */\n      sload(0x01)\n        /* \"Library.sol\":842:859  BookList[counter] */\n      dup2\n      mstore\n      0x20\n      add\n      swap1\n      dup2\n      mstore\n      0x20\n      add\n      0x00\n      keccak256\n        /* \"Library.sol\":842:862  BookList[counter].id */\n      0x00\n      add\n        /* \"Library.sol\":842:872  BookList[counter].id = counter */\n      dup2\n      swap1\n      sstore\n      pop\n        /* \"Library.sol\":907:915  bookName */\n      dup4\n      dup4\n        /* \"Library.sol\":882:890  BookList */\n      0x02\n        /* \"Library.sol\":882:899  BookList[counter] */\n      0x00\n        /* \"Library.sol\":891:898  counter */\n      sload(0x01)\n        /* \"Library.sol\":882:899  BookList[counter] */\n      dup2\n      mstore\n      0x20\n      add\n      swap1\n      dup2\n      mstore\n      0x20\n      add\n      0x00\n      keccak256\n        /* \"Library.sol\":882:904  BookList[counter].name */\n      0x01\n      add\n        /* \"Library.sol\":882:915  BookList[counter].name = bookName */\n      swap2\n      swap1\n      tag_53\n      swap3\n      swap2\n      swap1\n      tag_54\n      jump\t// in\n    tag_53:\n      pop\n        /* \"Library.sol\":954:962  quantity */\n      dup2\n        /* \"Library.sol\":925:933  BookList */\n      0x02\n        /* \"Library.sol\":925:942  BookList[counter] */\n      0x00\n        /* \"Library.sol\":934:941  counter */\n      sload(0x01)\n        /* \"Library.sol\":925:942  BookList[counter] */\n      dup2\n      mstore\n      0x20\n      add\n      swap1\n      dup2\n      mstore\n      0x20\n      add\n      0x00\n      keccak256\n        /* \"Library.sol\":925:951  BookList[counter].quantity */\n      0x02\n      add\n        /* \"Library.sol\":925:962  BookList[counter].quantity = quantity */\n      dup2\n      swap1\n      sstore\n      pop\n        /* \"Library.sol\":999:1003  true */\n      0x01\n        /* \"Library.sol\":972:980  BookList */\n      0x02\n        /* \"Library.sol\":972:989  BookList[counter] */\n      0x00\n        /* \"Library.sol\":981:988  counter */\n      sload(0x01)\n        /* \"Library.sol\":972:989  BookList[counter] */\n      dup2\n      mstore\n      0x20\n      add\n      swap1\n      dup2\n      mstore\n      0x20\n      add\n      0x00\n      keccak256\n        /* \"Library.sol\":972:996  BookList[counter].exists */\n      0x03\n      add\n      0x00\n        /* \"Library.sol\":972:1003  BookList[counter].exists = true */\n      0x0100\n      exp\n      dup2\n      sload\n      dup2\n      0xff\n      mul\n      not\n      and\n      swap1\n      dup4\n      iszero\n      iszero\n      mul\n      or\n      swap1\n      sstore\n      pop\n        /* \"Library.sol\":1013:1020  counter */\n      0x01\n      0x00\n        /* \"Library.sol\":1013:1022  counter++ */\n      dup2\n      sload\n      dup1\n      swap3\n      swap2\n      swap1\n      tag_55\n      swap1\n      tag_56\n      jump\t// in\n    tag_55:\n      swap2\n      swap1\n      pop\n      sstore\n      pop\n        /* \"Library.sol\":535:536  _ */\n      pop\n        /* \"Library.sol\":735:1029  function AddBook(string calldata bookName, uint quantity) public onlyOwnable bookExists(counter){... */\n      pop\n      pop\n      pop\n      jump\t// out\n        /* \"Library.sol\":378:428  mapping(address => uint[]) public ClientBorrowList */\n    tag_24:\n      mstore(0x20, 0x04)\n      dup2\n      0x00\n      mstore\n      keccak256(0x00, 0x40)\n      dup2\n      dup2\n      sload\n      dup2\n      lt\n      tag_57\n      jumpi\n      0x00\n      dup1\n      revert\n    tag_57:\n      swap1\n      0x00\n      mstore\n      keccak256(0x00, 0x20)\n      add\n      0x00\n      swap2\n      pop\n      swap2\n      pop\n      pop\n      sload\n      dup2\n      jump\t// out\n        /* \"Library.sol\":274:311  mapping(uint => Book) public BookList */\n    tag_30:\n      mstore(0x20, 0x02)\n      dup1\n      0x00\n      mstore\n      keccak256(0x00, 0x40)\n      0x00\n      swap2\n      pop\n      swap1\n      pop\n      dup1\n      0x00\n      add\n      sload\n      swap1\n      dup1\n      0x01\n      add\n      dup1\n      sload\n      tag_59\n      swap1\n      tag_60\n      jump\t// in\n    tag_59:\n      dup1\n      0x1f\n      add\n      0x20\n      dup1\n      swap2\n      div\n      mul\n      0x20\n      add\n      mload(0x40)\n      swap1\n      dup2\n      add\n      0x40\n      mstore\n      dup1\n      swap3\n      swap2\n      swap1\n      dup2\n      dup2\n      mstore\n      0x20\n      add\n      dup3\n      dup1\n      sload\n      tag_61\n      swap1\n      tag_60\n      jump\t// in\n    tag_61:\n      dup1\n      iszero\n      tag_62\n      jumpi\n      dup1\n      0x1f\n      lt\n      tag_63\n      jumpi\n      0x0100\n      dup1\n      dup4\n      sload\n      div\n      mul\n      dup4\n      mstore\n      swap2\n      0x20\n      add\n      swap2\n      jump(tag_62)\n    tag_63:\n      dup3\n      add\n      swap2\n      swap1\n      0x00\n      mstore\n      keccak256(0x00, 0x20)\n      swap1\n    tag_64:\n      dup2\n      sload\n      dup2\n      mstore\n      swap1\n      0x01\n      add\n      swap1\n      0x20\n      add\n      dup1\n      dup4\n      gt\n      tag_64\n      jumpi\n      dup3\n      swap1\n      sub\n      0x1f\n      and\n      dup3\n      add\n      swap2\n    tag_62:\n      pop\n      pop\n      pop\n      pop\n      pop\n      swap1\n      dup1\n      0x02\n      add\n      sload\n      swap1\n      dup1\n      0x03\n      add\n      0x00\n      swap1\n      sload\n      swap1\n      0x0100\n      exp\n      swap1\n      div\n      0xff\n      and\n      swap1\n      pop\n      dup5\n      jump\t// out\n        /* \"Library.sol\":121:141  address public owner */\n    tag_34:\n      0x00\n      dup1\n      sload\n      swap1\n      0x0100\n      exp\n      swap1\n      div\n      0xffffffffffffffffffffffffffffffffffffffff\n      and\n      dup2\n      jump\t// out\n        /* \"Library.sol\":1035:1607  function BorrowBook(uint bookId) public bookExists(bookId){    ... */\n    tag_38:\n        /* \"Library.sol\":1086:1092  bookId */\n      dup1\n        /* \"Library.sol\":599:607  BookList */\n      0x02\n        /* \"Library.sol\":599:615  BookList[bookId] */\n      0x00\n        /* \"Library.sol\":608:614  bookId */\n      dup3\n        /* \"Library.sol\":599:615  BookList[bookId] */\n      dup2\n      mstore\n      0x20\n      add\n      swap1\n      dup2\n      mstore\n      0x20\n      add\n      0x00\n      keccak256\n        /* \"Library.sol\":599:622  BookList[bookId].exists */\n      0x03\n      add\n      0x00\n      swap1\n      sload\n      swap1\n      0x0100\n      exp\n      swap1\n      div\n      0xff\n      and\n        /* \"Library.sol\":591:657  require(BookList[bookId].exists,\"Book does not exist in library!\") */\n      tag_66\n      jumpi\n      mload(0x40)\n      0x08c379a000000000000000000000000000000000000000000000000000000000\n      dup2\n      mstore\n      0x04\n      add\n      tag_67\n      swap1\n      tag_51\n      jump\t// in\n    tag_67:\n      mload(0x40)\n      dup1\n      swap2\n      sub\n      swap1\n      revert\n    tag_66:\n        /* \"Library.sol\":1137:1138  0 */\n      0x00\n        /* \"Library.sol\":1110:1118  BookList */\n      0x02\n        /* \"Library.sol\":1110:1126  BookList[bookId] */\n      0x00\n        /* \"Library.sol\":1119:1125  bookId */\n      dup5\n        /* \"Library.sol\":1110:1126  BookList[bookId] */\n      dup2\n      mstore\n      0x20\n      add\n      swap1\n      dup2\n      mstore\n      0x20\n      add\n      0x00\n      keccak256\n        /* \"Library.sol\":1110:1135  BookList[bookId].quantity */\n      0x02\n      add\n      sload\n        /* \"Library.sol\":1110:1138  BookList[bookId].quantity==0 */\n      eq\n        /* \"Library.sol\":1107:1210  if(BookList[bookId].quantity==0){... */\n      iszero\n      tag_69\n      jumpi\n        /* \"Library.sol\":1153:1199  revert(\"This book is out of stock currently!\") */\n      mload(0x40)\n      0x08c379a000000000000000000000000000000000000000000000000000000000\n      dup2\n      mstore\n      0x04\n      add\n      tag_70\n      swap1\n      tag_71\n      jump\t// in\n    tag_70:\n      mload(0x40)\n      dup1\n      swap2\n      sub\n      swap1\n      revert\n        /* \"Library.sol\":1107:1210  if(BookList[bookId].quantity==0){... */\n    tag_69:\n        /* \"Library.sol\":1226:1283  intArrContainsValue(bookId, ClientBorrowList[msg.sender]) */\n      tag_72\n        /* \"Library.sol\":1246:1252  bookId */\n      dup3\n        /* \"Library.sol\":1254:1270  ClientBorrowList */\n      0x04\n        /* \"Library.sol\":1254:1282  ClientBorrowList[msg.sender] */\n      0x00\n        /* \"Library.sol\":1271:1281  msg.sender */\n      caller\n        /* \"Library.sol\":1254:1282  ClientBorrowList[msg.sender] */\n      0xffffffffffffffffffffffffffffffffffffffff\n      and\n      0xffffffffffffffffffffffffffffffffffffffff\n      and\n      dup2\n      mstore\n      0x20\n      add\n      swap1\n      dup2\n      mstore\n      0x20\n      add\n      0x00\n      keccak256\n        /* \"Library.sol\":1226:1283  intArrContainsValue(bookId, ClientBorrowList[msg.sender]) */\n      dup1\n      sload\n      dup1\n      0x20\n      mul\n      0x20\n      add\n      mload(0x40)\n      swap1\n      dup2\n      add\n      0x40\n      mstore\n      dup1\n      swap3\n      swap2\n      swap1\n      dup2\n      dup2\n      mstore\n      0x20\n      add\n      dup3\n      dup1\n      sload\n      dup1\n      iszero\n      tag_73\n      jumpi\n      0x20\n      mul\n      dup3\n      add\n      swap2\n      swap1\n      0x00\n      mstore\n      keccak256(0x00, 0x20)\n      swap1\n    tag_74:\n      dup2\n      sload\n      dup2\n      mstore\n      0x20\n      add\n      swap1\n      0x01\n      add\n      swap1\n      dup1\n      dup4\n      gt\n      tag_74\n      jumpi\n    tag_73:\n      pop\n      pop\n      pop\n      pop\n      pop\n        /* \"Library.sol\":1226:1245  intArrContainsValue */\n      tag_75\n        /* \"Library.sol\":1226:1283  intArrContainsValue(bookId, ClientBorrowList[msg.sender]) */\n      jump\t// in\n    tag_72:\n        /* \"Library.sol\":1223:1353  if(intArrContainsValue(bookId, ClientBorrowList[msg.sender])){... */\n      iszero\n      tag_76\n      jumpi\n        /* \"Library.sol\":1298:1342  revert(\"You've already borrowed that book!\") */\n      mload(0x40)\n      0x08c379a000000000000000000000000000000000000000000000000000000000\n      dup2\n      mstore\n      0x04\n      add\n      tag_77\n      swap1\n      tag_78\n      jump\t// in\n    tag_77:\n      mload(0x40)\n      dup1\n      swap2\n      sub\n      swap1\n      revert\n        /* \"Library.sol\":1223:1353  if(intArrContainsValue(bookId, ClientBorrowList[msg.sender])){... */\n    tag_76:\n        /* \"Library.sol\":1363:1379  ClientBorrowList */\n      0x04\n        /* \"Library.sol\":1363:1391  ClientBorrowList[msg.sender] */\n      0x00\n        /* \"Library.sol\":1380:1390  msg.sender */\n      caller\n        /* \"Library.sol\":1363:1391  ClientBorrowList[msg.sender] */\n      0xffffffffffffffffffffffffffffffffffffffff\n      and\n      0xffffffffffffffffffffffffffffffffffffffff\n      and\n      dup2\n      mstore\n      0x20\n      add\n      swap1\n      dup2\n      mstore\n      0x20\n      add\n      0x00\n      keccak256\n        /* \"Library.sol\":1397:1403  bookId */\n      dup3\n        /* \"Library.sol\":1363:1404  ClientBorrowList[msg.sender].push(bookId) */\n      swap1\n      dup1\n      0x01\n      dup2\n      sload\n      add\n      dup1\n      dup3\n      sstore\n      dup1\n      swap2\n      pop\n      pop\n      0x01\n      swap1\n      sub\n      swap1\n      0x00\n      mstore\n      keccak256(0x00, 0x20)\n      add\n      0x00\n      swap1\n      swap2\n      swap1\n      swap2\n      swap1\n      swap2\n      pop\n      sstore\n        /* \"Library.sol\":1420:1484  addressArrContainsValue(msg.sender, BookBorrowerHistory[bookId]) */\n      tag_80\n        /* \"Library.sol\":1444:1454  msg.sender */\n      caller\n        /* \"Library.sol\":1456:1475  BookBorrowerHistory */\n      0x03\n        /* \"Library.sol\":1456:1483  BookBorrowerHistory[bookId] */\n      0x00\n        /* \"Library.sol\":1476:1482  bookId */\n      dup6\n        /* \"Library.sol\":1456:1483  BookBorrowerHistory[bookId] */\n      dup2\n      mstore\n      0x20\n      add\n      swap1\n      dup2\n      mstore\n      0x20\n      add\n      0x00\n      keccak256\n        /* \"Library.sol\":1420:1484  addressArrContainsValue(msg.sender, BookBorrowerHistory[bookId]) */\n      dup1\n      sload\n      dup1\n      0x20\n      mul\n      0x20\n      add\n      mload(0x40)\n      swap1\n      dup2\n      add\n      0x40\n      mstore\n      dup1\n      swap3\n      swap2\n      swap1\n      dup2\n      dup2\n      mstore\n      0x20\n      add\n      dup3\n      dup1\n      sload\n      dup1\n      iszero\n      tag_81\n      jumpi\n      0x20\n      mul\n      dup3\n      add\n      swap2\n      swap1\n      0x00\n      mstore\n      keccak256(0x00, 0x20)\n      swap1\n    tag_82:\n      dup2\n      0x00\n      swap1\n      sload\n      swap1\n      0x0100\n      exp\n      swap1\n      div\n      0xffffffffffffffffffffffffffffffffffffffff\n      and\n      0xffffffffffffffffffffffffffffffffffffffff\n      and\n      dup2\n      mstore\n      0x20\n      add\n      swap1\n      0x01\n      add\n      swap1\n      dup1\n      dup4\n      gt\n      tag_82\n      jumpi\n    tag_81:\n      pop\n      pop\n      pop\n      pop\n      pop\n        /* \"Library.sol\":1420:1443  addressArrContainsValue */\n      tag_83\n        /* \"Library.sol\":1420:1484  addressArrContainsValue(msg.sender, BookBorrowerHistory[bookId]) */\n      jump\t// in\n    tag_80:\n        /* \"Library.sol\":1416:1562  if(!addressArrContainsValue(msg.sender, BookBorrowerHistory[bookId])){... */\n      tag_84\n      jumpi\n        /* \"Library.sol\":1499:1518  BookBorrowerHistory */\n      0x03\n        /* \"Library.sol\":1499:1526  BookBorrowerHistory[bookId] */\n      0x00\n        /* \"Library.sol\":1519:1525  bookId */\n      dup4\n        /* \"Library.sol\":1499:1526  BookBorrowerHistory[bookId] */\n      dup2\n      mstore\n      0x20\n      add\n      swap1\n      dup2\n      mstore\n      0x20\n      add\n      0x00\n      keccak256\n        /* \"Library.sol\":1532:1542  msg.sender */\n      caller\n        /* \"Library.sol\":1499:1543  BookBorrowerHistory[bookId].push(msg.sender) */\n      swap1\n      dup1\n      0x01\n      dup2\n      sload\n      add\n      dup1\n      dup3\n      sstore\n      dup1\n      swap2\n      pop\n      pop\n      0x01\n      swap1\n      sub\n      swap1\n      0x00\n      mstore\n      keccak256(0x00, 0x20)\n      add\n      0x00\n      swap1\n      swap2\n      swap1\n      swap2\n      swap1\n      swap2\n      0x0100\n      exp\n      dup2\n      sload\n      dup2\n      0xffffffffffffffffffffffffffffffffffffffff\n      mul\n      not\n      and\n      swap1\n      dup4\n      0xffffffffffffffffffffffffffffffffffffffff\n      and\n      mul\n      or\n      swap1\n      sstore\n      pop\n        /* \"Library.sol\":1416:1562  if(!addressArrContainsValue(msg.sender, BookBorrowerHistory[bookId])){... */\n    tag_84:\n        /* \"Library.sol\":1572:1580  BookList */\n      0x02\n        /* \"Library.sol\":1572:1588  BookList[bookId] */\n      0x00\n        /* \"Library.sol\":1581:1587  bookId */\n      dup4\n        /* \"Library.sol\":1572:1588  BookList[bookId] */\n      dup2\n      mstore\n      0x20\n      add\n      swap1\n      dup2\n      mstore\n      0x20\n      add\n      0x00\n      keccak256\n        /* \"Library.sol\":1572:1597  BookList[bookId].quantity */\n      0x02\n      add\n      0x00\n        /* \"Library.sol\":1572:1600  BookList[bookId].quantity -- */\n      dup2\n      sload\n      dup1\n      swap3\n      swap2\n      swap1\n      tag_86\n      swap1\n      tag_87\n      jump\t// in\n    tag_86:\n      swap2\n      swap1\n      pop\n      sstore\n      pop\n        /* \"Library.sol\":1035:1607  function BorrowBook(uint bookId) public bookExists(bookId){    ... */\n      pop\n      pop\n      jump\t// out\n        /* \"Library.sol\":1613:1996  function ReturnBook(uint bookId) public bookExists(bookId){... */\n    tag_41:\n        /* \"Library.sol\":1664:1670  bookId */\n      dup1\n        /* \"Library.sol\":599:607  BookList */\n      0x02\n        /* \"Library.sol\":599:615  BookList[bookId] */\n      0x00\n        /* \"Library.sol\":608:614  bookId */\n      dup3\n        /* \"Library.sol\":599:615  BookList[bookId] */\n      dup2\n      mstore\n      0x20\n      add\n      swap1\n      dup2\n      mstore\n      0x20\n      add\n      0x00\n      keccak256\n        /* \"Library.sol\":599:622  BookList[bookId].exists */\n      0x03\n      add\n      0x00\n      swap1\n      sload\n      swap1\n      0x0100\n      exp\n      swap1\n      div\n      0xff\n      and\n        /* \"Library.sol\":591:657  require(BookList[bookId].exists,\"Book does not exist in library!\") */\n      tag_89\n      jumpi\n      mload(0x40)\n      0x08c379a000000000000000000000000000000000000000000000000000000000\n      dup2\n      mstore\n      0x04\n      add\n      tag_90\n      swap1\n      tag_51\n      jump\t// in\n    tag_90:\n      mload(0x40)\n      dup1\n      swap2\n      sub\n      swap1\n      revert\n    tag_89:\n        /* \"Library.sol\":1685:1742  intArrContainsValue(bookId, ClientBorrowList[msg.sender]) */\n      tag_92\n        /* \"Library.sol\":1705:1711  bookId */\n      dup3\n        /* \"Library.sol\":1713:1729  ClientBorrowList */\n      0x04\n        /* \"Library.sol\":1713:1741  ClientBorrowList[msg.sender] */\n      0x00\n        /* \"Library.sol\":1730:1740  msg.sender */\n      caller\n        /* \"Library.sol\":1713:1741  ClientBorrowList[msg.sender] */\n      0xffffffffffffffffffffffffffffffffffffffff\n      and\n      0xffffffffffffffffffffffffffffffffffffffff\n      and\n      dup2\n      mstore\n      0x20\n      add\n      swap1\n      dup2\n      mstore\n      0x20\n      add\n      0x00\n      keccak256\n        /* \"Library.sol\":1685:1742  intArrContainsValue(bookId, ClientBorrowList[msg.sender]) */\n      dup1\n      sload\n      dup1\n      0x20\n      mul\n      0x20\n      add\n      mload(0x40)\n      swap1\n      dup2\n      add\n      0x40\n      mstore\n      dup1\n      swap3\n      swap2\n      swap1\n      dup2\n      dup2\n      mstore\n      0x20\n      add\n      dup3\n      dup1\n      sload\n      dup1\n      iszero\n      tag_93\n      jumpi\n      0x20\n      mul\n      dup3\n      add\n      swap2\n      swap1\n      0x00\n      mstore\n      keccak256(0x00, 0x20)\n      swap1\n    tag_94:\n      dup2\n      sload\n      dup2\n      mstore\n      0x20\n      add\n      swap1\n      0x01\n      add\n      swap1\n      dup1\n      dup4\n      gt\n      tag_94\n      jumpi\n    tag_93:\n      pop\n      pop\n      pop\n      pop\n      pop\n        /* \"Library.sol\":1685:1704  intArrContainsValue */\n      tag_75\n        /* \"Library.sol\":1685:1742  intArrContainsValue(bookId, ClientBorrowList[msg.sender]) */\n      jump\t// in\n    tag_92:\n        /* \"Library.sol\":1681:1808  if(!intArrContainsValue(bookId, ClientBorrowList[msg.sender])){... */\n      tag_95\n      jumpi\n        /* \"Library.sol\":1757:1797  revert(\"You havent borrowed that book!\") */\n      mload(0x40)\n      0x08c379a000000000000000000000000000000000000000000000000000000000\n      dup2\n      mstore\n      0x04\n      add\n      tag_96\n      swap1\n      tag_97\n      jump\t// in\n    tag_96:\n      mload(0x40)\n      dup1\n      swap2\n      sub\n      swap1\n      revert\n        /* \"Library.sol\":1681:1808  if(!intArrContainsValue(bookId, ClientBorrowList[msg.sender])){... */\n    tag_95:\n        /* \"Library.sol\":1894:1951  removeIntArrElement(ClientBorrowList[msg.sender], bookId) */\n      tag_98\n        /* \"Library.sol\":1914:1930  ClientBorrowList */\n      0x04\n        /* \"Library.sol\":1914:1942  ClientBorrowList[msg.sender] */\n      0x00\n        /* \"Library.sol\":1931:1941  msg.sender */\n      caller\n        /* \"Library.sol\":1914:1942  ClientBorrowList[msg.sender] */\n      0xffffffffffffffffffffffffffffffffffffffff\n      and\n      0xffffffffffffffffffffffffffffffffffffffff\n      and\n      dup2\n      mstore\n      0x20\n      add\n      swap1\n      dup2\n      mstore\n      0x20\n      add\n      0x00\n      keccak256\n        /* \"Library.sol\":1944:1950  bookId */\n      dup4\n        /* \"Library.sol\":1894:1913  removeIntArrElement */\n      tag_99\n        /* \"Library.sol\":1894:1951  removeIntArrElement(ClientBorrowList[msg.sender], bookId) */\n      jump\t// in\n    tag_98:\n        /* \"Library.sol\":1961:1969  BookList */\n      0x02\n        /* \"Library.sol\":1961:1977  BookList[bookId] */\n      0x00\n        /* \"Library.sol\":1970:1976  bookId */\n      dup4\n        /* \"Library.sol\":1961:1977  BookList[bookId] */\n      dup2\n      mstore\n      0x20\n      add\n      swap1\n      dup2\n      mstore\n      0x20\n      add\n      0x00\n      keccak256\n        /* \"Library.sol\":1961:1986  BookList[bookId].quantity */\n      0x02\n      add\n      0x00\n        /* \"Library.sol\":1961:1989  BookList[bookId].quantity ++ */\n      dup2\n      sload\n      dup1\n      swap3\n      swap2\n      swap1\n      tag_100\n      swap1\n      tag_56\n      jump\t// in\n    tag_100:\n      swap2\n      swap1\n      pop\n      sstore\n      pop\n        /* \"Library.sol\":1613:1996  function ReturnBook(uint bookId) public bookExists(bookId){... */\n      pop\n      pop\n      jump\t// out\n        /* \"Helpers.sol\":86:350  function intArrContainsValue(uint value, uint[] memory array) internal pure returns(bool){   ... */\n    tag_75:\n        /* \"Helpers.sol\":170:174  bool */\n      0x00\n        /* \"Helpers.sol\":193:199  uint i */\n      dup1\n        /* \"Helpers.sol\":200:201  0 */\n      0x00\n        /* \"Helpers.sol\":193:201  uint i=0 */\n      swap1\n      pop\n        /* \"Helpers.sol\":188:322  for (uint i=0; i < array.length; i++) {... */\n    tag_102:\n        /* \"Helpers.sol\":207:212  array */\n      dup3\n        /* \"Helpers.sol\":207:219  array.length */\n      mload\n        /* \"Helpers.sol\":203:204  i */\n      dup2\n        /* \"Helpers.sol\":203:219  i < array.length */\n      lt\n        /* \"Helpers.sol\":188:322  for (uint i=0; i < array.length; i++) {... */\n      iszero\n      tag_103\n      jumpi\n        /* \"Helpers.sol\":253:258  array */\n      dup3\n        /* \"Helpers.sol\":259:260  i */\n      dup2\n        /* \"Helpers.sol\":253:261  array[i] */\n      dup2\n      mload\n      dup2\n      lt\n      tag_105\n      jumpi\n      mstore(0x00, 0x4e487b7100000000000000000000000000000000000000000000000000000000)\n      mstore(0x04, 0x32)\n      revert(0x00, 0x24)\n    tag_105:\n      0x20\n      mul\n      0x20\n      add\n      add\n      mload\n        /* \"Helpers.sol\":244:249  value */\n      dup5\n        /* \"Helpers.sol\":244:261  value == array[i] */\n      eq\n        /* \"Helpers.sol\":240:312  if (value == array[i]) {     ... */\n      iszero\n      tag_106\n      jumpi\n        /* \"Helpers.sol\":293:297  true */\n      0x01\n        /* \"Helpers.sol\":286:297  return true */\n      swap2\n      pop\n      pop\n      jump(tag_101)\n        /* \"Helpers.sol\":240:312  if (value == array[i]) {     ... */\n    tag_106:\n        /* \"Helpers.sol\":221:224  i++ */\n      dup1\n      dup1\n      tag_107\n      swap1\n      tag_56\n      jump\t// in\n    tag_107:\n      swap2\n      pop\n      pop\n        /* \"Helpers.sol\":188:322  for (uint i=0; i < array.length; i++) {... */\n      jump(tag_102)\n    tag_103:\n      pop\n        /* \"Helpers.sol\":338:343  false */\n      0x00\n        /* \"Helpers.sol\":331:343  return false */\n      swap1\n      pop\n        /* \"Helpers.sol\":86:350  function intArrContainsValue(uint value, uint[] memory array) internal pure returns(bool){   ... */\n    tag_101:\n      swap3\n      swap2\n      pop\n      pop\n      jump\t// out\n        /* \"Helpers.sol\":356:630  function addressArrContainsValue(address value, address[] memory array) internal pure returns(bool){   ... */\n    tag_83:\n        /* \"Helpers.sol\":450:454  bool */\n      0x00\n        /* \"Helpers.sol\":473:479  uint i */\n      dup1\n        /* \"Helpers.sol\":480:481  0 */\n      0x00\n        /* \"Helpers.sol\":473:481  uint i=0 */\n      swap1\n      pop\n        /* \"Helpers.sol\":468:602  for (uint i=0; i < array.length; i++) {... */\n    tag_109:\n        /* \"Helpers.sol\":487:492  array */\n      dup3\n        /* \"Helpers.sol\":487:499  array.length */\n      mload\n        /* \"Helpers.sol\":483:484  i */\n      dup2\n        /* \"Helpers.sol\":483:499  i < array.length */\n      lt\n        /* \"Helpers.sol\":468:602  for (uint i=0; i < array.length; i++) {... */\n      iszero\n      tag_110\n      jumpi\n        /* \"Helpers.sol\":533:538  array */\n      dup3\n        /* \"Helpers.sol\":539:540  i */\n      dup2\n        /* \"Helpers.sol\":533:541  array[i] */\n      dup2\n      mload\n      dup2\n      lt\n      tag_112\n      jumpi\n      mstore(0x00, 0x4e487b7100000000000000000000000000000000000000000000000000000000)\n      mstore(0x04, 0x32)\n      revert(0x00, 0x24)\n    tag_112:\n      0x20\n      mul\n      0x20\n      add\n      add\n      mload\n        /* \"Helpers.sol\":524:541  value == array[i] */\n      0xffffffffffffffffffffffffffffffffffffffff\n      and\n        /* \"Helpers.sol\":524:529  value */\n      dup5\n        /* \"Helpers.sol\":524:541  value == array[i] */\n      0xffffffffffffffffffffffffffffffffffffffff\n      and\n      eq\n        /* \"Helpers.sol\":520:592  if (value == array[i]) {     ... */\n      iszero\n      tag_113\n      jumpi\n        /* \"Helpers.sol\":573:577  true */\n      0x01\n        /* \"Helpers.sol\":566:577  return true */\n      swap2\n      pop\n      pop\n      jump(tag_108)\n        /* \"Helpers.sol\":520:592  if (value == array[i]) {     ... */\n    tag_113:\n        /* \"Helpers.sol\":501:504  i++ */\n      dup1\n      dup1\n      tag_114\n      swap1\n      tag_56\n      jump\t// in\n    tag_114:\n      swap2\n      pop\n      pop\n        /* \"Helpers.sol\":468:602  for (uint i=0; i < array.length; i++) {... */\n      jump(tag_109)\n    tag_110:\n      pop\n        /* \"Helpers.sol\":618:623  false */\n      0x00\n        /* \"Helpers.sol\":611:623  return false */\n      swap1\n      pop\n        /* \"Helpers.sol\":356:630  function addressArrContainsValue(address value, address[] memory array) internal pure returns(bool){   ... */\n    tag_108:\n      swap3\n      swap2\n      pop\n      pop\n      jump\t// out\n        /* \"Helpers.sol\":636:899  function removeIntArrElement(uint[] storage array, uint id) internal{... */\n    tag_99:\n        /* \"Helpers.sol\":720:726  uint i */\n      0x00\n        /* \"Helpers.sol\":715:893  for (uint i=0; i < array.length; i++) {... */\n    tag_116:\n        /* \"Helpers.sol\":734:739  array */\n      dup3\n        /* \"Helpers.sol\":734:746  array.length */\n      dup1\n      sload\n      swap1\n      pop\n        /* \"Helpers.sol\":730:731  i */\n      dup2\n        /* \"Helpers.sol\":730:746  i < array.length */\n      lt\n        /* \"Helpers.sol\":715:893  for (uint i=0; i < array.length; i++) {... */\n      iszero\n      tag_117\n      jumpi\n        /* \"Helpers.sol\":777:782  array */\n      dup3\n        /* \"Helpers.sol\":783:784  i */\n      dup2\n        /* \"Helpers.sol\":777:785  array[i] */\n      dup2\n      sload\n      dup2\n      lt\n      tag_119\n      jumpi\n      mstore(0x00, 0x4e487b7100000000000000000000000000000000000000000000000000000000)\n      mstore(0x04, 0x32)\n      revert(0x00, 0x24)\n    tag_119:\n      swap1\n      0x00\n      mstore\n      keccak256(0x00, 0x20)\n      add\n      sload\n        /* \"Helpers.sol\":771:773  id */\n      dup3\n        /* \"Helpers.sol\":771:785  id == array[i] */\n      eq\n        /* \"Helpers.sol\":767:883  if (id == array[i]) {... */\n      iszero\n      tag_121\n      jumpi\n        /* \"Helpers.sol\":816:821  array */\n      dup3\n        /* \"Helpers.sol\":837:838  1 */\n      0x01\n        /* \"Helpers.sol\":822:827  array */\n      dup5\n        /* \"Helpers.sol\":822:834  array.length */\n      dup1\n      sload\n      swap1\n      pop\n        /* \"Helpers.sol\":822:838  array.length - 1 */\n      tag_122\n      swap2\n      swap1\n      tag_123\n      jump\t// in\n    tag_122:\n        /* \"Helpers.sol\":816:839  array[array.length - 1] */\n      dup2\n      sload\n      dup2\n      lt\n      tag_124\n      jumpi\n      mstore(0x00, 0x4e487b7100000000000000000000000000000000000000000000000000000000)\n      mstore(0x04, 0x32)\n      revert(0x00, 0x24)\n    tag_124:\n      swap1\n      0x00\n      mstore\n      keccak256(0x00, 0x20)\n      add\n      sload\n        /* \"Helpers.sol\":805:810  array */\n      dup4\n        /* \"Helpers.sol\":811:812  i */\n      dup3\n        /* \"Helpers.sol\":805:813  array[i] */\n      dup2\n      sload\n      dup2\n      lt\n      tag_126\n      jumpi\n      mstore(0x00, 0x4e487b7100000000000000000000000000000000000000000000000000000000)\n      mstore(0x04, 0x32)\n      revert(0x00, 0x24)\n    tag_126:\n      swap1\n      0x00\n      mstore\n      keccak256(0x00, 0x20)\n      add\n        /* \"Helpers.sol\":805:839  array[i] = array[array.length - 1] */\n      dup2\n      swap1\n      sstore\n      pop\n        /* \"Helpers.sol\":857:862  array */\n      dup3\n        /* \"Helpers.sol\":857:868  array.pop() */\n      dup1\n      sload\n      dup1\n      tag_128\n      jumpi\n      mstore(0x00, 0x4e487b7100000000000000000000000000000000000000000000000000000000)\n      mstore(0x04, 0x31)\n      revert(0x00, 0x24)\n    tag_128:\n      0x01\n      swap1\n      sub\n      dup2\n      dup2\n      swap1\n      0x00\n      mstore\n      keccak256(0x00, 0x20)\n      add\n      0x00\n      swap1\n      sstore\n      swap1\n      sstore\n        /* \"Helpers.sol\":767:883  if (id == array[i]) {... */\n    tag_121:\n        /* \"Helpers.sol\":748:751  i++ */\n      dup1\n      dup1\n      tag_130\n      swap1\n      tag_56\n      jump\t// in\n    tag_130:\n      swap2\n      pop\n      pop\n        /* \"Helpers.sol\":715:893  for (uint i=0; i < array.length; i++) {... */\n      jump(tag_116)\n    tag_117:\n      pop\n        /* \"Helpers.sol\":636:899  function removeIntArrElement(uint[] storage array, uint id) internal{... */\n      pop\n      pop\n      jump\t// out\n    tag_54:\n      dup3\n      dup1\n      sload\n      tag_131\n      swap1\n      tag_60\n      jump\t// in\n    tag_131:\n      swap1\n      0x00\n      mstore\n      keccak256(0x00, 0x20)\n      swap1\n      0x1f\n      add\n      0x20\n      swap1\n      div\n      dup2\n      add\n      swap3\n      dup3\n      tag_133\n      jumpi\n      0x00\n      dup6\n      sstore\n      jump(tag_132)\n    tag_133:\n      dup3\n      0x1f\n      lt\n      tag_134\n      jumpi\n      dup1\n      calldataload\n      not(0xff)\n      and\n      dup4\n      dup1\n      add\n      or\n      dup6\n      sstore\n      jump(tag_132)\n    tag_134:\n      dup3\n      dup1\n      add\n      0x01\n      add\n      dup6\n      sstore\n      dup3\n      iszero\n      tag_132\n      jumpi\n      swap2\n      dup3\n      add\n    tag_135:\n      dup3\n      dup2\n      gt\n      iszero\n      tag_136\n      jumpi\n      dup3\n      calldataload\n      dup3\n      sstore\n      swap2\n      0x20\n      add\n      swap2\n      swap1\n      0x01\n      add\n      swap1\n      jump(tag_135)\n    tag_136:\n    tag_132:\n      pop\n      swap1\n      pop\n      tag_137\n      swap2\n      swap1\n      tag_138\n      jump\t// in\n    tag_137:\n      pop\n      swap1\n      jump\t// out\n    tag_138:\n    tag_139:\n      dup1\n      dup3\n      gt\n      iszero\n      tag_140\n      jumpi\n      0x00\n      dup2\n      0x00\n      swap1\n      sstore\n      pop\n      0x01\n      add\n      jump(tag_139)\n    tag_140:\n      pop\n      swap1\n      jump\t// out\n        /* \"#utility.yul\":7:146   */\n    tag_142:\n      0x00\n        /* \"#utility.yul\":91:97   */\n      dup2\n        /* \"#utility.yul\":78:98   */\n      calldataload\n        /* \"#utility.yul\":69:98   */\n      swap1\n      pop\n        /* \"#utility.yul\":107:140   */\n      tag_144\n        /* \"#utility.yul\":134:139   */\n      dup2\n        /* \"#utility.yul\":107:140   */\n      tag_145\n      jump\t// in\n    tag_144:\n        /* \"#utility.yul\":59:146   */\n      swap3\n      swap2\n      pop\n      pop\n      jump\t// out\n        /* \"#utility.yul\":166:518   */\n    tag_146:\n      0x00\n      dup1\n        /* \"#utility.yul\":284:287   */\n      dup4\n        /* \"#utility.yul\":277:281   */\n      0x1f\n        /* \"#utility.yul\":269:275   */\n      dup5\n        /* \"#utility.yul\":265:282   */\n      add\n        /* \"#utility.yul\":261:288   */\n      slt\n        /* \"#utility.yul\":251:253   */\n      tag_148\n      jumpi\n        /* \"#utility.yul\":302:303   */\n      0x00\n        /* \"#utility.yul\":299:300   */\n      dup1\n        /* \"#utility.yul\":292:304   */\n      revert\n        /* \"#utility.yul\":251:253   */\n    tag_148:\n        /* \"#utility.yul\":338:344   */\n      dup3\n        /* \"#utility.yul\":325:345   */\n      calldataload\n        /* \"#utility.yul\":315:345   */\n      swap1\n      pop\n        /* \"#utility.yul\":368:386   */\n      0xffffffffffffffff\n        /* \"#utility.yul\":360:366   */\n      dup2\n        /* \"#utility.yul\":357:387   */\n      gt\n        /* \"#utility.yul\":354:356   */\n      iszero\n      tag_149\n      jumpi\n        /* \"#utility.yul\":400:401   */\n      0x00\n        /* \"#utility.yul\":397:398   */\n      dup1\n        /* \"#utility.yul\":390:402   */\n      revert\n        /* \"#utility.yul\":354:356   */\n    tag_149:\n        /* \"#utility.yul\":437:441   */\n      0x20\n        /* \"#utility.yul\":429:435   */\n      dup4\n        /* \"#utility.yul\":425:442   */\n      add\n        /* \"#utility.yul\":413:442   */\n      swap2\n      pop\n        /* \"#utility.yul\":491:494   */\n      dup4\n        /* \"#utility.yul\":483:487   */\n      0x01\n        /* \"#utility.yul\":475:481   */\n      dup3\n        /* \"#utility.yul\":471:488   */\n      mul\n        /* \"#utility.yul\":461:469   */\n      dup4\n        /* \"#utility.yul\":457:489   */\n      add\n        /* \"#utility.yul\":454:495   */\n      gt\n        /* \"#utility.yul\":451:453   */\n      iszero\n      tag_150\n      jumpi\n        /* \"#utility.yul\":508:509   */\n      0x00\n        /* \"#utility.yul\":505:506   */\n      dup1\n        /* \"#utility.yul\":498:510   */\n      revert\n        /* \"#utility.yul\":451:453   */\n    tag_150:\n        /* \"#utility.yul\":241:518   */\n      swap3\n      pop\n      swap3\n      swap1\n      pop\n      jump\t// out\n        /* \"#utility.yul\":524:663   */\n    tag_151:\n      0x00\n        /* \"#utility.yul\":608:614   */\n      dup2\n        /* \"#utility.yul\":595:615   */\n      calldataload\n        /* \"#utility.yul\":586:615   */\n      swap1\n      pop\n        /* \"#utility.yul\":624:657   */\n      tag_153\n        /* \"#utility.yul\":651:656   */\n      dup2\n        /* \"#utility.yul\":624:657   */\n      tag_154\n      jump\t// in\n    tag_153:\n        /* \"#utility.yul\":576:663   */\n      swap3\n      swap2\n      pop\n      pop\n      jump\t// out\n        /* \"#utility.yul\":669:1076   */\n    tag_23:\n      0x00\n      dup1\n        /* \"#utility.yul\":794:796   */\n      0x40\n        /* \"#utility.yul\":782:791   */\n      dup4\n        /* \"#utility.yul\":773:780   */\n      dup6\n        /* \"#utility.yul\":769:792   */\n      sub\n        /* \"#utility.yul\":765:797   */\n      slt\n        /* \"#utility.yul\":762:764   */\n      iszero\n      tag_156\n      jumpi\n        /* \"#utility.yul\":810:811   */\n      0x00\n        /* \"#utility.yul\":807:808   */\n      dup1\n        /* \"#utility.yul\":800:812   */\n      revert\n        /* \"#utility.yul\":762:764   */\n    tag_156:\n        /* \"#utility.yul\":853:854   */\n      0x00\n        /* \"#utility.yul\":878:931   */\n      tag_157\n        /* \"#utility.yul\":923:930   */\n      dup6\n        /* \"#utility.yul\":914:920   */\n      dup3\n        /* \"#utility.yul\":903:912   */\n      dup7\n        /* \"#utility.yul\":899:921   */\n      add\n        /* \"#utility.yul\":878:931   */\n      tag_142\n      jump\t// in\n    tag_157:\n        /* \"#utility.yul\":868:931   */\n      swap3\n      pop\n        /* \"#utility.yul\":824:941   */\n      pop\n        /* \"#utility.yul\":980:982   */\n      0x20\n        /* \"#utility.yul\":1006:1059   */\n      tag_158\n        /* \"#utility.yul\":1051:1058   */\n      dup6\n        /* \"#utility.yul\":1042:1048   */\n      dup3\n        /* \"#utility.yul\":1031:1040   */\n      dup7\n        /* \"#utility.yul\":1027:1049   */\n      add\n        /* \"#utility.yul\":1006:1059   */\n      tag_151\n      jump\t// in\n    tag_158:\n        /* \"#utility.yul\":996:1059   */\n      swap2\n      pop\n        /* \"#utility.yul\":951:1069   */\n      pop\n        /* \"#utility.yul\":752:1076   */\n      swap3\n      pop\n      swap3\n      swap1\n      pop\n      jump\t// out\n        /* \"#utility.yul\":1082:1622   */\n    tag_19:\n      0x00\n      dup1\n      0x00\n        /* \"#utility.yul\":1227:1229   */\n      0x40\n        /* \"#utility.yul\":1215:1224   */\n      dup5\n        /* \"#utility.yul\":1206:1213   */\n      dup7\n        /* \"#utility.yul\":1202:1225   */\n      sub\n        /* \"#utility.yul\":1198:1230   */\n      slt\n        /* \"#utility.yul\":1195:1197   */\n      iszero\n      tag_160\n      jumpi\n        /* \"#utility.yul\":1243:1244   */\n      0x00\n        /* \"#utility.yul\":1240:1241   */\n      dup1\n        /* \"#utility.yul\":1233:1245   */\n      revert\n        /* \"#utility.yul\":1195:1197   */\n    tag_160:\n        /* \"#utility.yul\":1314:1315   */\n      0x00\n        /* \"#utility.yul\":1303:1312   */\n      dup5\n        /* \"#utility.yul\":1299:1316   */\n      add\n        /* \"#utility.yul\":1286:1317   */\n      calldataload\n        /* \"#utility.yul\":1344:1362   */\n      0xffffffffffffffff\n        /* \"#utility.yul\":1336:1342   */\n      dup2\n        /* \"#utility.yul\":1333:1363   */\n      gt\n        /* \"#utility.yul\":1330:1332   */\n      iszero\n      tag_161\n      jumpi\n        /* \"#utility.yul\":1376:1377   */\n      0x00\n        /* \"#utility.yul\":1373:1374   */\n      dup1\n        /* \"#utility.yul\":1366:1378   */\n      revert\n        /* \"#utility.yul\":1330:1332   */\n    tag_161:\n        /* \"#utility.yul\":1412:1477   */\n      tag_162\n        /* \"#utility.yul\":1469:1476   */\n      dup7\n        /* \"#utility.yul\":1460:1466   */\n      dup3\n        /* \"#utility.yul\":1449:1458   */\n      dup8\n        /* \"#utility.yul\":1445:1467   */\n      add\n        /* \"#utility.yul\":1412:1477   */\n      tag_146\n      jump\t// in\n    tag_162:\n        /* \"#utility.yul\":1394:1477   */\n      swap4\n      pop\n      swap4\n      pop\n        /* \"#utility.yul\":1257:1487   */\n      pop\n        /* \"#utility.yul\":1526:1528   */\n      0x20\n        /* \"#utility.yul\":1552:1605   */\n      tag_163\n        /* \"#utility.yul\":1597:1604   */\n      dup7\n        /* \"#utility.yul\":1588:1594   */\n      dup3\n        /* \"#utility.yul\":1577:1586   */\n      dup8\n        /* \"#utility.yul\":1573:1595   */\n      add\n        /* \"#utility.yul\":1552:1605   */\n      tag_151\n      jump\t// in\n    tag_163:\n        /* \"#utility.yul\":1542:1605   */\n      swap2\n      pop\n        /* \"#utility.yul\":1497:1615   */\n      pop\n        /* \"#utility.yul\":1185:1622   */\n      swap3\n      pop\n      swap3\n      pop\n      swap3\n      jump\t// out\n        /* \"#utility.yul\":1628:1890   */\n    tag_29:\n      0x00\n        /* \"#utility.yul\":1736:1738   */\n      0x20\n        /* \"#utility.yul\":1724:1733   */\n      dup3\n        /* \"#utility.yul\":1715:1722   */\n      dup5\n        /* \"#utility.yul\":1711:1734   */\n      sub\n        /* \"#utility.yul\":1707:1739   */\n      slt\n        /* \"#utility.yul\":1704:1706   */\n      iszero\n      tag_165\n      jumpi\n        /* \"#utility.yul\":1752:1753   */\n      0x00\n        /* \"#utility.yul\":1749:1750   */\n      dup1\n        /* \"#utility.yul\":1742:1754   */\n      revert\n        /* \"#utility.yul\":1704:1706   */\n    tag_165:\n        /* \"#utility.yul\":1795:1796   */\n      0x00\n        /* \"#utility.yul\":1820:1873   */\n      tag_166\n        /* \"#utility.yul\":1865:1872   */\n      dup5\n        /* \"#utility.yul\":1856:1862   */\n      dup3\n        /* \"#utility.yul\":1845:1854   */\n      dup6\n        /* \"#utility.yul\":1841:1863   */\n      add\n        /* \"#utility.yul\":1820:1873   */\n      tag_151\n      jump\t// in\n    tag_166:\n        /* \"#utility.yul\":1810:1873   */\n      swap2\n      pop\n        /* \"#utility.yul\":1766:1883   */\n      pop\n        /* \"#utility.yul\":1694:1890   */\n      swap3\n      swap2\n      pop\n      pop\n      jump\t// out\n        /* \"#utility.yul\":1896:2303   */\n    tag_13:\n      0x00\n      dup1\n        /* \"#utility.yul\":2021:2023   */\n      0x40\n        /* \"#utility.yul\":2009:2018   */\n      dup4\n        /* \"#utility.yul\":2000:2007   */\n      dup6\n        /* \"#utility.yul\":1996:2019   */\n      sub\n        /* \"#utility.yul\":1992:2024   */\n      slt\n        /* \"#utility.yul\":1989:1991   */\n      iszero\n      tag_168\n      jumpi\n        /* \"#utility.yul\":2037:2038   */\n      0x00\n        /* \"#utility.yul\":2034:2035   */\n      dup1\n        /* \"#utility.yul\":2027:2039   */\n      revert\n        /* \"#utility.yul\":1989:1991   */\n    tag_168:\n        /* \"#utility.yul\":2080:2081   */\n      0x00\n        /* \"#utility.yul\":2105:2158   */\n      tag_169\n        /* \"#utility.yul\":2150:2157   */\n      dup6\n        /* \"#utility.yul\":2141:2147   */\n      dup3\n        /* \"#utility.yul\":2130:2139   */\n      dup7\n        /* \"#utility.yul\":2126:2148   */\n      add\n        /* \"#utility.yul\":2105:2158   */\n      tag_151\n      jump\t// in\n    tag_169:\n        /* \"#utility.yul\":2095:2158   */\n      swap3\n      pop\n        /* \"#utility.yul\":2051:2168   */\n      pop\n        /* \"#utility.yul\":2207:2209   */\n      0x20\n        /* \"#utility.yul\":2233:2286   */\n      tag_170\n        /* \"#utility.yul\":2278:2285   */\n      dup6\n        /* \"#utility.yul\":2269:2275   */\n      dup3\n        /* \"#utility.yul\":2258:2267   */\n      dup7\n        /* \"#utility.yul\":2254:2276   */\n      add\n        /* \"#utility.yul\":2233:2286   */\n      tag_151\n      jump\t// in\n    tag_170:\n        /* \"#utility.yul\":2223:2286   */\n      swap2\n      pop\n        /* \"#utility.yul\":2178:2296   */\n      pop\n        /* \"#utility.yul\":1979:2303   */\n      swap3\n      pop\n      swap3\n      swap1\n      pop\n      jump\t// out\n        /* \"#utility.yul\":2309:2427   */\n    tag_171:\n        /* \"#utility.yul\":2396:2420   */\n      tag_173\n        /* \"#utility.yul\":2414:2419   */\n      dup2\n        /* \"#utility.yul\":2396:2420   */\n      tag_174\n      jump\t// in\n    tag_173:\n        /* \"#utility.yul\":2391:2394   */\n      dup3\n        /* \"#utility.yul\":2384:2421   */\n      mstore\n        /* \"#utility.yul\":2374:2427   */\n      pop\n      pop\n      jump\t// out\n        /* \"#utility.yul\":2433:2542   */\n    tag_175:\n        /* \"#utility.yul\":2514:2535   */\n      tag_177\n        /* \"#utility.yul\":2529:2534   */\n      dup2\n        /* \"#utility.yul\":2514:2535   */\n      tag_178\n      jump\t// in\n    tag_177:\n        /* \"#utility.yul\":2509:2512   */\n      dup3\n        /* \"#utility.yul\":2502:2536   */\n      mstore\n        /* \"#utility.yul\":2492:2542   */\n      pop\n      pop\n      jump\t// out\n        /* \"#utility.yul\":2548:2912   */\n    tag_179:\n      0x00\n        /* \"#utility.yul\":2664:2703   */\n      tag_181\n        /* \"#utility.yul\":2697:2702   */\n      dup3\n        /* \"#utility.yul\":2664:2703   */\n      tag_182\n      jump\t// in\n    tag_181:\n        /* \"#utility.yul\":2719:2790   */\n      tag_183\n        /* \"#utility.yul\":2783:2789   */\n      dup2\n        /* \"#utility.yul\":2778:2781   */\n      dup6\n        /* \"#utility.yul\":2719:2790   */\n      tag_184\n      jump\t// in\n    tag_183:\n        /* \"#utility.yul\":2712:2790   */\n      swap4\n      pop\n        /* \"#utility.yul\":2799:2851   */\n      tag_185\n        /* \"#utility.yul\":2844:2850   */\n      dup2\n        /* \"#utility.yul\":2839:2842   */\n      dup6\n        /* \"#utility.yul\":2832:2836   */\n      0x20\n        /* \"#utility.yul\":2825:2830   */\n      dup7\n        /* \"#utility.yul\":2821:2837   */\n      add\n        /* \"#utility.yul\":2799:2851   */\n      tag_186\n      jump\t// in\n    tag_185:\n        /* \"#utility.yul\":2876:2905   */\n      tag_187\n        /* \"#utility.yul\":2898:2904   */\n      dup2\n        /* \"#utility.yul\":2876:2905   */\n      tag_188\n      jump\t// in\n    tag_187:\n        /* \"#utility.yul\":2871:2874   */\n      dup5\n        /* \"#utility.yul\":2867:2906   */\n      add\n        /* \"#utility.yul\":2860:2906   */\n      swap2\n      pop\n        /* \"#utility.yul\":2640:2912   */\n      pop\n      swap3\n      swap2\n      pop\n      pop\n      jump\t// out\n        /* \"#utility.yul\":2918:3246   */\n    tag_189:\n      0x00\n        /* \"#utility.yul\":3081:3148   */\n      tag_191\n        /* \"#utility.yul\":3145:3147   */\n      0x1e\n        /* \"#utility.yul\":3140:3143   */\n      dup4\n        /* \"#utility.yul\":3081:3148   */\n      tag_184\n      jump\t// in\n    tag_191:\n        /* \"#utility.yul\":3074:3148   */\n      swap2\n      pop\n        /* \"#utility.yul\":3178:3210   */\n      0x596f7520686176656e7420626f72726f776564207468617420626f6f6b210000\n        /* \"#utility.yul\":3174:3175   */\n      0x00\n        /* \"#utility.yul\":3169:3172   */\n      dup4\n        /* \"#utility.yul\":3165:3176   */\n      add\n        /* \"#utility.yul\":3158:3211   */\n      mstore\n        /* \"#utility.yul\":3237:3239   */\n      0x20\n        /* \"#utility.yul\":3232:3235   */\n      dup3\n        /* \"#utility.yul\":3228:3240   */\n      add\n        /* \"#utility.yul\":3221:3240   */\n      swap1\n      pop\n        /* \"#utility.yul\":3064:3246   */\n      swap2\n      swap1\n      pop\n      jump\t// out\n        /* \"#utility.yul\":3252:3618   */\n    tag_192:\n      0x00\n        /* \"#utility.yul\":3415:3482   */\n      tag_194\n        /* \"#utility.yul\":3479:3481   */\n      0x22\n        /* \"#utility.yul\":3474:3477   */\n      dup4\n        /* \"#utility.yul\":3415:3482   */\n      tag_184\n      jump\t// in\n    tag_194:\n        /* \"#utility.yul\":3408:3482   */\n      swap2\n      pop\n        /* \"#utility.yul\":3512:3546   */\n      0x596f7527766520616c726561647920626f72726f776564207468617420626f6f\n        /* \"#utility.yul\":3508:3509   */\n      0x00\n        /* \"#utility.yul\":3503:3506   */\n      dup4\n        /* \"#utility.yul\":3499:3510   */\n      add\n        /* \"#utility.yul\":3492:3547   */\n      mstore\n        /* \"#utility.yul\":3578:3582   */\n      0x6b21000000000000000000000000000000000000000000000000000000000000\n        /* \"#utility.yul\":3573:3575   */\n      0x20\n        /* \"#utility.yul\":3568:3571   */\n      dup4\n        /* \"#utility.yul\":3564:3576   */\n      add\n        /* \"#utility.yul\":3557:3583   */\n      mstore\n        /* \"#utility.yul\":3609:3611   */\n      0x40\n        /* \"#utility.yul\":3604:3607   */\n      dup3\n        /* \"#utility.yul\":3600:3612   */\n      add\n        /* \"#utility.yul\":3593:3612   */\n      swap1\n      pop\n        /* \"#utility.yul\":3398:3618   */\n      swap2\n      swap1\n      pop\n      jump\t// out\n        /* \"#utility.yul\":3624:3948   */\n    tag_195:\n      0x00\n        /* \"#utility.yul\":3787:3854   */\n      tag_197\n        /* \"#utility.yul\":3851:3853   */\n      0x1a\n        /* \"#utility.yul\":3846:3849   */\n      dup4\n        /* \"#utility.yul\":3787:3854   */\n      tag_184\n      jump\t// in\n    tag_197:\n        /* \"#utility.yul\":3780:3854   */\n      swap2\n      pop\n        /* \"#utility.yul\":3884:3912   */\n      0x43757272656e742075736572206973206e6f74206f776e657221000000000000\n        /* \"#utility.yul\":3880:3881   */\n      0x00\n        /* \"#utility.yul\":3875:3878   */\n      dup4\n        /* \"#utility.yul\":3871:3882   */\n      add\n        /* \"#utility.yul\":3864:3913   */\n      mstore\n        /* \"#utility.yul\":3939:3941   */\n      0x20\n        /* \"#utility.yul\":3934:3937   */\n      dup3\n        /* \"#utility.yul\":3930:3942   */\n      add\n        /* \"#utility.yul\":3923:3942   */\n      swap1\n      pop\n        /* \"#utility.yul\":3770:3948   */\n      swap2\n      swap1\n      pop\n      jump\t// out\n        /* \"#utility.yul\":3954:4322   */\n    tag_198:\n      0x00\n        /* \"#utility.yul\":4117:4184   */\n      tag_200\n        /* \"#utility.yul\":4181:4183   */\n      0x24\n        /* \"#utility.yul\":4176:4179   */\n      dup4\n        /* \"#utility.yul\":4117:4184   */\n      tag_184\n      jump\t// in\n    tag_200:\n        /* \"#utility.yul\":4110:4184   */\n      swap2\n      pop\n        /* \"#utility.yul\":4214:4248   */\n      0x5468697320626f6f6b206973206f7574206f662073746f636b2063757272656e\n        /* \"#utility.yul\":4210:4211   */\n      0x00\n        /* \"#utility.yul\":4205:4208   */\n      dup4\n        /* \"#utility.yul\":4201:4212   */\n      add\n        /* \"#utility.yul\":4194:4249   */\n      mstore\n        /* \"#utility.yul\":4280:4286   */\n      0x746c792100000000000000000000000000000000000000000000000000000000\n        /* \"#utility.yul\":4275:4277   */\n      0x20\n        /* \"#utility.yul\":4270:4273   */\n      dup4\n        /* \"#utility.yul\":4266:4278   */\n      add\n        /* \"#utility.yul\":4259:4287   */\n      mstore\n        /* \"#utility.yul\":4313:4315   */\n      0x40\n        /* \"#utility.yul\":4308:4311   */\n      dup3\n        /* \"#utility.yul\":4304:4316   */\n      add\n        /* \"#utility.yul\":4297:4316   */\n      swap1\n      pop\n        /* \"#utility.yul\":4100:4322   */\n      swap2\n      swap1\n      pop\n      jump\t// out\n        /* \"#utility.yul\":4328:4657   */\n    tag_201:\n      0x00\n        /* \"#utility.yul\":4491:4558   */\n      tag_203\n        /* \"#utility.yul\":4555:4557   */\n      0x1f\n        /* \"#utility.yul\":4550:4553   */\n      dup4\n        /* \"#utility.yul\":4491:4558   */\n      tag_184\n      jump\t// in\n    tag_203:\n        /* \"#utility.yul\":4484:4558   */\n      swap2\n      pop\n        /* \"#utility.yul\":4588:4621   */\n      0x426f6f6b20646f6573206e6f7420657869737420696e206c6962726172792100\n        /* \"#utility.yul\":4584:4585   */\n      0x00\n        /* \"#utility.yul\":4579:4582   */\n      dup4\n        /* \"#utility.yul\":4575:4586   */\n      add\n        /* \"#utility.yul\":4568:4622   */\n      mstore\n        /* \"#utility.yul\":4648:4650   */\n      0x20\n        /* \"#utility.yul\":4643:4646   */\n      dup3\n        /* \"#utility.yul\":4639:4651   */\n      add\n        /* \"#utility.yul\":4632:4651   */\n      swap1\n      pop\n        /* \"#utility.yul\":4474:4657   */\n      swap2\n      swap1\n      pop\n      jump\t// out\n        /* \"#utility.yul\":4663:4781   */\n    tag_204:\n        /* \"#utility.yul\":4750:4774   */\n      tag_206\n        /* \"#utility.yul\":4768:4773   */\n      dup2\n        /* \"#utility.yul\":4750:4774   */\n      tag_207\n      jump\t// in\n    tag_206:\n        /* \"#utility.yul\":4745:4748   */\n      dup3\n        /* \"#utility.yul\":4738:4775   */\n      mstore\n        /* \"#utility.yul\":4728:4781   */\n      pop\n      pop\n      jump\t// out\n        /* \"#utility.yul\":4787:5009   */\n    tag_16:\n      0x00\n        /* \"#utility.yul\":4918:4920   */\n      0x20\n        /* \"#utility.yul\":4907:4916   */\n      dup3\n        /* \"#utility.yul\":4903:4921   */\n      add\n        /* \"#utility.yul\":4895:4921   */\n      swap1\n      pop\n        /* \"#utility.yul\":4931:5002   */\n      tag_209\n        /* \"#utility.yul\":4999:5000   */\n      0x00\n        /* \"#utility.yul\":4988:4997   */\n      dup4\n        /* \"#utility.yul\":4984:5001   */\n      add\n        /* \"#utility.yul\":4975:4981   */\n      dup5\n        /* \"#utility.yul\":4931:5002   */\n      tag_171\n      jump\t// in\n    tag_209:\n        /* \"#utility.yul\":4885:5009   */\n      swap3\n      swap2\n      pop\n      pop\n      jump\t// out\n        /* \"#utility.yul\":5015:5434   */\n    tag_97:\n      0x00\n        /* \"#utility.yul\":5219:5221   */\n      0x20\n        /* \"#utility.yul\":5208:5217   */\n      dup3\n        /* \"#utility.yul\":5204:5222   */\n      add\n        /* \"#utility.yul\":5196:5222   */\n      swap1\n      pop\n        /* \"#utility.yul\":5268:5277   */\n      dup2\n        /* \"#utility.yul\":5262:5266   */\n      dup2\n        /* \"#utility.yul\":5258:5278   */\n      sub\n        /* \"#utility.yul\":5254:5255   */\n      0x00\n        /* \"#utility.yul\":5243:5252   */\n      dup4\n        /* \"#utility.yul\":5239:5256   */\n      add\n        /* \"#utility.yul\":5232:5279   */\n      mstore\n        /* \"#utility.yul\":5296:5427   */\n      tag_211\n        /* \"#utility.yul\":5422:5426   */\n      dup2\n        /* \"#utility.yul\":5296:5427   */\n      tag_189\n      jump\t// in\n    tag_211:\n        /* \"#utility.yul\":5288:5427   */\n      swap1\n      pop\n        /* \"#utility.yul\":5186:5434   */\n      swap2\n      swap1\n      pop\n      jump\t// out\n        /* \"#utility.yul\":5440:5859   */\n    tag_78:\n      0x00\n        /* \"#utility.yul\":5644:5646   */\n      0x20\n        /* \"#utility.yul\":5633:5642   */\n      dup3\n        /* \"#utility.yul\":5629:5647   */\n      add\n        /* \"#utility.yul\":5621:5647   */\n      swap1\n      pop\n        /* \"#utility.yul\":5693:5702   */\n      dup2\n        /* \"#utility.yul\":5687:5691   */\n      dup2\n        /* \"#utility.yul\":5683:5703   */\n      sub\n        /* \"#utility.yul\":5679:5680   */\n      0x00\n        /* \"#utility.yul\":5668:5677   */\n      dup4\n        /* \"#utility.yul\":5664:5681   */\n      add\n        /* \"#utility.yul\":5657:5704   */\n      mstore\n        /* \"#utility.yul\":5721:5852   */\n      tag_213\n        /* \"#utility.yul\":5847:5851   */\n      dup2\n        /* \"#utility.yul\":5721:5852   */\n      tag_192\n      jump\t// in\n    tag_213:\n        /* \"#utility.yul\":5713:5852   */\n      swap1\n      pop\n        /* \"#utility.yul\":5611:5859   */\n      swap2\n      swap1\n      pop\n      jump\t// out\n        /* \"#utility.yul\":5865:6284   */\n    tag_47:\n      0x00\n        /* \"#utility.yul\":6069:6071   */\n      0x20\n        /* \"#utility.yul\":6058:6067   */\n      dup3\n        /* \"#utility.yul\":6054:6072   */\n      add\n        /* \"#utility.yul\":6046:6072   */\n      swap1\n      pop\n        /* \"#utility.yul\":6118:6127   */\n      dup2\n        /* \"#utility.yul\":6112:6116   */\n      dup2\n        /* \"#utility.yul\":6108:6128   */\n      sub\n        /* \"#utility.yul\":6104:6105   */\n      0x00\n        /* \"#utility.yul\":6093:6102   */\n      dup4\n        /* \"#utility.yul\":6089:6106   */\n      add\n        /* \"#utility.yul\":6082:6129   */\n      mstore\n        /* \"#utility.yul\":6146:6277   */\n      tag_215\n        /* \"#utility.yul\":6272:6276   */\n      dup2\n        /* \"#utility.yul\":6146:6277   */\n      tag_195\n      jump\t// in\n    tag_215:\n        /* \"#utility.yul\":6138:6277   */\n      swap1\n      pop\n        /* \"#utility.yul\":6036:6284   */\n      swap2\n      swap1\n      pop\n      jump\t// out\n        /* \"#utility.yul\":6290:6709   */\n    tag_71:\n      0x00\n        /* \"#utility.yul\":6494:6496   */\n      0x20\n        /* \"#utility.yul\":6483:6492   */\n      dup3\n        /* \"#utility.yul\":6479:6497   */\n      add\n        /* \"#utility.yul\":6471:6497   */\n      swap1\n      pop\n        /* \"#utility.yul\":6543:6552   */\n      dup2\n        /* \"#utility.yul\":6537:6541   */\n      dup2\n        /* \"#utility.yul\":6533:6553   */\n      sub\n        /* \"#utility.yul\":6529:6530   */\n      0x00\n        /* \"#utility.yul\":6518:6527   */\n      dup4\n        /* \"#utility.yul\":6514:6531   */\n      add\n        /* \"#utility.yul\":6507:6554   */\n      mstore\n        /* \"#utility.yul\":6571:6702   */\n      tag_217\n        /* \"#utility.yul\":6697:6701   */\n      dup2\n        /* \"#utility.yul\":6571:6702   */\n      tag_198\n      jump\t// in\n    tag_217:\n        /* \"#utility.yul\":6563:6702   */\n      swap1\n      pop\n        /* \"#utility.yul\":6461:6709   */\n      swap2\n      swap1\n      pop\n      jump\t// out\n        /* \"#utility.yul\":6715:7134   */\n    tag_51:\n      0x00\n        /* \"#utility.yul\":6919:6921   */\n      0x20\n        /* \"#utility.yul\":6908:6917   */\n      dup3\n        /* \"#utility.yul\":6904:6922   */\n      add\n        /* \"#utility.yul\":6896:6922   */\n      swap1\n      pop\n        /* \"#utility.yul\":6968:6977   */\n      dup2\n        /* \"#utility.yul\":6962:6966   */\n      dup2\n        /* \"#utility.yul\":6958:6978   */\n      sub\n        /* \"#utility.yul\":6954:6955   */\n      0x00\n        /* \"#utility.yul\":6943:6952   */\n      dup4\n        /* \"#utility.yul\":6939:6956   */\n      add\n        /* \"#utility.yul\":6932:6979   */\n      mstore\n        /* \"#utility.yul\":6996:7127   */\n      tag_219\n        /* \"#utility.yul\":7122:7126   */\n      dup2\n        /* \"#utility.yul\":6996:7127   */\n      tag_201\n      jump\t// in\n    tag_219:\n        /* \"#utility.yul\":6988:7127   */\n      swap1\n      pop\n        /* \"#utility.yul\":6886:7134   */\n      swap2\n      swap1\n      pop\n      jump\t// out\n        /* \"#utility.yul\":7140:7362   */\n    tag_26:\n      0x00\n        /* \"#utility.yul\":7271:7273   */\n      0x20\n        /* \"#utility.yul\":7260:7269   */\n      dup3\n        /* \"#utility.yul\":7256:7274   */\n      add\n        /* \"#utility.yul\":7248:7274   */\n      swap1\n      pop\n        /* \"#utility.yul\":7284:7355   */\n      tag_221\n        /* \"#utility.yul\":7352:7353   */\n      0x00\n        /* \"#utility.yul\":7341:7350   */\n      dup4\n        /* \"#utility.yul\":7337:7354   */\n      add\n        /* \"#utility.yul\":7328:7334   */\n      dup5\n        /* \"#utility.yul\":7284:7355   */\n      tag_204\n      jump\t// in\n    tag_221:\n        /* \"#utility.yul\":7238:7362   */\n      swap3\n      swap2\n      pop\n      pop\n      jump\t// out\n        /* \"#utility.yul\":7368:8000   */\n    tag_32:\n      0x00\n        /* \"#utility.yul\":7597:7600   */\n      0x80\n        /* \"#utility.yul\":7586:7595   */\n      dup3\n        /* \"#utility.yul\":7582:7601   */\n      add\n        /* \"#utility.yul\":7574:7601   */\n      swap1\n      pop\n        /* \"#utility.yul\":7611:7682   */\n      tag_223\n        /* \"#utility.yul\":7679:7680   */\n      0x00\n        /* \"#utility.yul\":7668:7677   */\n      dup4\n        /* \"#utility.yul\":7664:7681   */\n      add\n        /* \"#utility.yul\":7655:7661   */\n      dup8\n        /* \"#utility.yul\":7611:7682   */\n      tag_204\n      jump\t// in\n    tag_223:\n        /* \"#utility.yul\":7729:7738   */\n      dup2\n        /* \"#utility.yul\":7723:7727   */\n      dup2\n        /* \"#utility.yul\":7719:7739   */\n      sub\n        /* \"#utility.yul\":7714:7716   */\n      0x20\n        /* \"#utility.yul\":7703:7712   */\n      dup4\n        /* \"#utility.yul\":7699:7717   */\n      add\n        /* \"#utility.yul\":7692:7740   */\n      mstore\n        /* \"#utility.yul\":7757:7835   */\n      tag_224\n        /* \"#utility.yul\":7830:7834   */\n      dup2\n        /* \"#utility.yul\":7821:7827   */\n      dup7\n        /* \"#utility.yul\":7757:7835   */\n      tag_179\n      jump\t// in\n    tag_224:\n        /* \"#utility.yul\":7749:7835   */\n      swap1\n      pop\n        /* \"#utility.yul\":7845:7917   */\n      tag_225\n        /* \"#utility.yul\":7913:7915   */\n      0x40\n        /* \"#utility.yul\":7902:7911   */\n      dup4\n        /* \"#utility.yul\":7898:7916   */\n      add\n        /* \"#utility.yul\":7889:7895   */\n      dup6\n        /* \"#utility.yul\":7845:7917   */\n      tag_204\n      jump\t// in\n    tag_225:\n        /* \"#utility.yul\":7927:7993   */\n      tag_226\n        /* \"#utility.yul\":7989:7991   */\n      0x60\n        /* \"#utility.yul\":7978:7987   */\n      dup4\n        /* \"#utility.yul\":7974:7992   */\n      add\n        /* \"#utility.yul\":7965:7971   */\n      dup5\n        /* \"#utility.yul\":7927:7993   */\n      tag_175\n      jump\t// in\n    tag_226:\n        /* \"#utility.yul\":7564:8000   */\n      swap6\n      swap5\n      pop\n      pop\n      pop\n      pop\n      pop\n      jump\t// out\n        /* \"#utility.yul\":8006:8105   */\n    tag_182:\n      0x00\n        /* \"#utility.yul\":8092:8097   */\n      dup2\n        /* \"#utility.yul\":8086:8098   */\n      mload\n        /* \"#utility.yul\":8076:8098   */\n      swap1\n      pop\n        /* \"#utility.yul\":8065:8105   */\n      swap2\n      swap1\n      pop\n      jump\t// out\n        /* \"#utility.yul\":8111:8280   */\n    tag_184:\n      0x00\n        /* \"#utility.yul\":8229:8235   */\n      dup3\n        /* \"#utility.yul\":8224:8227   */\n      dup3\n        /* \"#utility.yul\":8217:8236   */\n      mstore\n        /* \"#utility.yul\":8269:8273   */\n      0x20\n        /* \"#utility.yul\":8264:8267   */\n      dup3\n        /* \"#utility.yul\":8260:8274   */\n      add\n        /* \"#utility.yul\":8245:8274   */\n      swap1\n      pop\n        /* \"#utility.yul\":8207:8280   */\n      swap3\n      swap2\n      pop\n      pop\n      jump\t// out\n        /* \"#utility.yul\":8286:8477   */\n    tag_123:\n      0x00\n        /* \"#utility.yul\":8346:8366   */\n      tag_230\n        /* \"#utility.yul\":8364:8365   */\n      dup3\n        /* \"#utility.yul\":8346:8366   */\n      tag_207\n      jump\t// in\n    tag_230:\n        /* \"#utility.yul\":8341:8366   */\n      swap2\n      pop\n        /* \"#utility.yul\":8380:8400   */\n      tag_231\n        /* \"#utility.yul\":8398:8399   */\n      dup4\n        /* \"#utility.yul\":8380:8400   */\n      tag_207\n      jump\t// in\n    tag_231:\n        /* \"#utility.yul\":8375:8400   */\n      swap3\n      pop\n        /* \"#utility.yul\":8419:8420   */\n      dup3\n        /* \"#utility.yul\":8416:8417   */\n      dup3\n        /* \"#utility.yul\":8413:8421   */\n      lt\n        /* \"#utility.yul\":8410:8412   */\n      iszero\n      tag_232\n      jumpi\n        /* \"#utility.yul\":8424:8442   */\n      tag_233\n      tag_234\n      jump\t// in\n    tag_233:\n        /* \"#utility.yul\":8410:8412   */\n    tag_232:\n        /* \"#utility.yul\":8469:8470   */\n      dup3\n        /* \"#utility.yul\":8466:8467   */\n      dup3\n        /* \"#utility.yul\":8462:8471   */\n      sub\n        /* \"#utility.yul\":8454:8471   */\n      swap1\n      pop\n        /* \"#utility.yul\":8331:8477   */\n      swap3\n      swap2\n      pop\n      pop\n      jump\t// out\n        /* \"#utility.yul\":8483:8579   */\n    tag_174:\n      0x00\n        /* \"#utility.yul\":8549:8573   */\n      tag_236\n        /* \"#utility.yul\":8567:8572   */\n      dup3\n        /* \"#utility.yul\":8549:8573   */\n      tag_237\n      jump\t// in\n    tag_236:\n        /* \"#utility.yul\":8538:8573   */\n      swap1\n      pop\n        /* \"#utility.yul\":8528:8579   */\n      swap2\n      swap1\n      pop\n      jump\t// out\n        /* \"#utility.yul\":8585:8675   */\n    tag_178:\n      0x00\n        /* \"#utility.yul\":8662:8667   */\n      dup2\n        /* \"#utility.yul\":8655:8668   */\n      iszero\n        /* \"#utility.yul\":8648:8669   */\n      iszero\n        /* \"#utility.yul\":8637:8669   */\n      swap1\n      pop\n        /* \"#utility.yul\":8627:8675   */\n      swap2\n      swap1\n      pop\n      jump\t// out\n        /* \"#utility.yul\":8681:8807   */\n    tag_237:\n      0x00\n        /* \"#utility.yul\":8758:8800   */\n      0xffffffffffffffffffffffffffffffffffffffff\n        /* \"#utility.yul\":8751:8756   */\n      dup3\n        /* \"#utility.yul\":8747:8801   */\n      and\n        /* \"#utility.yul\":8736:8801   */\n      swap1\n      pop\n        /* \"#utility.yul\":8726:8807   */\n      swap2\n      swap1\n      pop\n      jump\t// out\n        /* \"#utility.yul\":8813:8890   */\n    tag_207:\n      0x00\n        /* \"#utility.yul\":8879:8884   */\n      dup2\n        /* \"#utility.yul\":8868:8884   */\n      swap1\n      pop\n        /* \"#utility.yul\":8858:8890   */\n      swap2\n      swap1\n      pop\n      jump\t// out\n        /* \"#utility.yul\":8896:9203   */\n    tag_186:\n        /* \"#utility.yul\":8964:8965   */\n      0x00\n        /* \"#utility.yul\":8974:9087   */\n    tag_242:\n        /* \"#utility.yul\":8988:8994   */\n      dup4\n        /* \"#utility.yul\":8985:8986   */\n      dup2\n        /* \"#utility.yul\":8982:8995   */\n      lt\n        /* \"#utility.yul\":8974:9087   */\n      iszero\n      tag_244\n      jumpi\n        /* \"#utility.yul\":9073:9074   */\n      dup1\n        /* \"#utility.yul\":9068:9071   */\n      dup3\n        /* \"#utility.yul\":9064:9075   */\n      add\n        /* \"#utility.yul\":9058:9076   */\n      mload\n        /* \"#utility.yul\":9054:9055   */\n      dup2\n        /* \"#utility.yul\":9049:9052   */\n      dup5\n        /* \"#utility.yul\":9045:9056   */\n      add\n        /* \"#utility.yul\":9038:9077   */\n      mstore\n        /* \"#utility.yul\":9010:9012   */\n      0x20\n        /* \"#utility.yul\":9007:9008   */\n      dup2\n        /* \"#utility.yul\":9003:9013   */\n      add\n        /* \"#utility.yul\":8998:9013   */\n      swap1\n      pop\n        /* \"#utility.yul\":8974:9087   */\n      jump(tag_242)\n    tag_244:\n        /* \"#utility.yul\":9105:9111   */\n      dup4\n        /* \"#utility.yul\":9102:9103   */\n      dup2\n        /* \"#utility.yul\":9099:9112   */\n      gt\n        /* \"#utility.yul\":9096:9098   */\n      iszero\n      tag_245\n      jumpi\n        /* \"#utility.yul\":9185:9186   */\n      0x00\n        /* \"#utility.yul\":9176:9182   */\n      dup5\n        /* \"#utility.yul\":9171:9174   */\n      dup5\n        /* \"#utility.yul\":9167:9183   */\n      add\n        /* \"#utility.yul\":9160:9187   */\n      mstore\n        /* \"#utility.yul\":9096:9098   */\n    tag_245:\n        /* \"#utility.yul\":8945:9203   */\n      pop\n      pop\n      pop\n      pop\n      jump\t// out\n        /* \"#utility.yul\":9209:9380   */\n    tag_87:\n      0x00\n        /* \"#utility.yul\":9271:9295   */\n      tag_247\n        /* \"#utility.yul\":9289:9294   */\n      dup3\n        /* \"#utility.yul\":9271:9295   */\n      tag_207\n      jump\t// in\n    tag_247:\n        /* \"#utility.yul\":9262:9295   */\n      swap2\n      pop\n        /* \"#utility.yul\":9317:9321   */\n      0x00\n        /* \"#utility.yul\":9310:9315   */\n      dup3\n        /* \"#utility.yul\":9307:9322   */\n      eq\n        /* \"#utility.yul\":9304:9306   */\n      iszero\n      tag_248\n      jumpi\n        /* \"#utility.yul\":9325:9343   */\n      tag_249\n      tag_234\n      jump\t// in\n    tag_249:\n        /* \"#utility.yul\":9304:9306   */\n    tag_248:\n        /* \"#utility.yul\":9372:9373   */\n      0x01\n        /* \"#utility.yul\":9365:9370   */\n      dup3\n        /* \"#utility.yul\":9361:9374   */\n      sub\n        /* \"#utility.yul\":9354:9374   */\n      swap1\n      pop\n        /* \"#utility.yul\":9252:9380   */\n      swap2\n      swap1\n      pop\n      jump\t// out\n        /* \"#utility.yul\":9386:9706   */\n    tag_60:\n      0x00\n        /* \"#utility.yul\":9467:9468   */\n      0x02\n        /* \"#utility.yul\":9461:9465   */\n      dup3\n        /* \"#utility.yul\":9457:9469   */\n      div\n        /* \"#utility.yul\":9447:9469   */\n      swap1\n      pop\n        /* \"#utility.yul\":9514:9515   */\n      0x01\n        /* \"#utility.yul\":9508:9512   */\n      dup3\n        /* \"#utility.yul\":9504:9516   */\n      and\n        /* \"#utility.yul\":9535:9553   */\n      dup1\n        /* \"#utility.yul\":9525:9527   */\n      tag_251\n      jumpi\n        /* \"#utility.yul\":9591:9595   */\n      0x7f\n        /* \"#utility.yul\":9583:9589   */\n      dup3\n        /* \"#utility.yul\":9579:9596   */\n      and\n        /* \"#utility.yul\":9569:9596   */\n      swap2\n      pop\n        /* \"#utility.yul\":9525:9527   */\n    tag_251:\n        /* \"#utility.yul\":9653:9655   */\n      0x20\n        /* \"#utility.yul\":9645:9651   */\n      dup3\n        /* \"#utility.yul\":9642:9656   */\n      lt\n        /* \"#utility.yul\":9622:9640   */\n      dup2\n        /* \"#utility.yul\":9619:9657   */\n      eq\n        /* \"#utility.yul\":9616:9618   */\n      iszero\n      tag_252\n      jumpi\n        /* \"#utility.yul\":9672:9690   */\n      tag_253\n      tag_254\n      jump\t// in\n    tag_253:\n        /* \"#utility.yul\":9616:9618   */\n    tag_252:\n        /* \"#utility.yul\":9437:9706   */\n      pop\n      swap2\n      swap1\n      pop\n      jump\t// out\n        /* \"#utility.yul\":9712:9945   */\n    tag_56:\n      0x00\n        /* \"#utility.yul\":9774:9798   */\n      tag_256\n        /* \"#utility.yul\":9792:9797   */\n      dup3\n        /* \"#utility.yul\":9774:9798   */\n      tag_207\n      jump\t// in\n    tag_256:\n        /* \"#utility.yul\":9765:9798   */\n      swap2\n      pop\n        /* \"#utility.yul\":9820:9886   */\n      0xffffffffffffffffffffffffffffffffffffffffffffffffffffffffffffffff\n        /* \"#utility.yul\":9813:9818   */\n      dup3\n        /* \"#utility.yul\":9810:9887   */\n      eq\n        /* \"#utility.yul\":9807:9809   */\n      iszero\n      tag_257\n      jumpi\n        /* \"#utility.yul\":9890:9908   */\n      tag_258\n      tag_234\n      jump\t// in\n    tag_258:\n        /* \"#utility.yul\":9807:9809   */\n    tag_257:\n        /* \"#utility.yul\":9937:9938   */\n      0x01\n        /* \"#utility.yul\":9930:9935   */\n      dup3\n        /* \"#utility.yul\":9926:9939   */\n      add\n        /* \"#utility.yul\":9919:9939   */\n      swap1\n      pop\n        /* \"#utility.yul\":9755:9945   */\n      swap2\n      swap1\n      pop\n      jump\t// out\n        /* \"#utility.yul\":9951:10131   */\n    tag_234:\n        /* \"#utility.yul\":9999:10076   */\n      0x4e487b7100000000000000000000000000000000000000000000000000000000\n        /* \"#utility.yul\":9996:9997   */\n      0x00\n        /* \"#utility.yul\":9989:10077   */\n      mstore\n        /* \"#utility.yul\":10096:10100   */\n      0x11\n        /* \"#utility.yul\":10093:10094   */\n      0x04\n        /* \"#utility.yul\":10086:10101   */\n      mstore\n        /* \"#utility.yul\":10120:10124   */\n      0x24\n        /* \"#utility.yul\":10117:10118   */\n      0x00\n        /* \"#utility.yul\":10110:10125   */\n      revert\n        /* \"#utility.yul\":10137:10317   */\n    tag_254:\n        /* \"#utility.yul\":10185:10262   */\n      0x4e487b7100000000000000000000000000000000000000000000000000000000\n        /* \"#utility.yul\":10182:10183   */\n      0x00\n        /* \"#utility.yul\":10175:10263   */\n      mstore\n        /* \"#utility.yul\":10282:10286   */\n      0x22\n        /* \"#utility.yul\":10279:10280   */\n      0x04\n        /* \"#utility.yul\":10272:10287   */\n      mstore\n        /* \"#utility.yul\":10306:10310   */\n      0x24\n        /* \"#utility.yul\":10303:10304   */\n      0x00\n        /* \"#utility.yul\":10296:10311   */\n      revert\n        /* \"#utility.yul\":10323:10425   */\n    tag_188:\n      0x00\n        /* \"#utility.yul\":10415:10417   */\n      0x1f\n        /* \"#utility.yul\":10411:10418   */\n      not\n        /* \"#utility.yul\":10406:10408   */\n      0x1f\n        /* \"#utility.yul\":10399:10404   */\n      dup4\n        /* \"#utility.yul\":10395:10409   */\n      add\n        /* \"#utility.yul\":10391:10419   */\n      and\n        /* \"#utility.yul\":10381:10419   */\n      swap1\n      pop\n        /* \"#utility.yul\":10371:10425   */\n      swap2\n      swap1\n      pop\n      jump\t// out\n        /* \"#utility.yul\":10431:10553   */\n    tag_145:\n        /* \"#utility.yul\":10504:10528   */\n      tag_263\n        /* \"#utility.yul\":10522:10527   */\n      dup2\n        /* \"#utility.yul\":10504:10528   */\n      tag_174\n      jump\t// in\n    tag_263:\n        /* \"#utility.yul\":10497:10502   */\n      dup2\n        /* \"#utility.yul\":10494:10529   */\n      eq\n        /* \"#utility.yul\":10484:10486   */\n      tag_264\n      jumpi\n        /* \"#utility.yul\":10543:10544   */\n      0x00\n        /* \"#utility.yul\":10540:10541   */\n      dup1\n        /* \"#utility.yul\":10533:10545   */\n      revert\n        /* \"#utility.yul\":10484:10486   */\n    tag_264:\n        /* \"#utility.yul\":10474:10553   */\n      pop\n      jump\t// out\n        /* \"#utility.yul\":10559:10681   */\n    tag_154:\n        /* \"#utility.yul\":10632:10656   */\n      tag_266\n        /* \"#utility.yul\":10650:10655   */\n      dup2\n        /* \"#utility.yul\":10632:10656   */\n      tag_207\n      jump\t// in\n    tag_266:\n        /* \"#utility.yul\":10625:10630   */\n      dup2\n        /* \"#utility.yul\":10622:10657   */\n      eq\n        /* \"#utility.yul\":10612:10614   */\n      tag_267\n      jumpi\n        /* \"#utility.yul\":10671:10672   */\n      0x00\n        /* \"#utility.yul\":10668:10669   */\n      dup1\n        /* \"#utility.yul\":10661:10673   */\n      revert\n        /* \"#utility.yul\":10612:10614   */\n    tag_267:\n        /* \"#utility.yul\":10602:10681   */\n      pop\n      jump\t// out\n\n    auxdata: 0xa264697066735822122084b4f955c740c82685b89afc1b5f81e571717cd6f663eee7177174f58752265d64736f6c63430008000033\n}\n",
				"bytecode": {
					"linkReferences": {},
					"object": "608060405234801561001057600080fd5b50336000806101000a81548173ffffffffffffffffffffffffffffffffffffffff021916908373ffffffffffffffffffffffffffffffffffffffff16021790555061137f806100606000396000f3fe608060405234801561001057600080fd5b506004361061007d5760003560e01c806371e25e5a1161005b57806371e25e5a146100fe5780638da5cb5b146101315780639649faa31461014f578063b8dd17db1461016b5761007d565b80631841389814610082578063265be2e2146100b25780632b3819fe146100ce575b600080fd5b61009c60048036038101906100979190610dec565b610187565b6040516100a9919061101a565b60405180910390f35b6100cc60048036038101906100c79190610d6b565b6101d5565b005b6100e860048036038101906100e39190610d2f565b61037c565b6040516100f591906110d5565b60405180910390f35b61011860048036038101906101139190610dc3565b6103ad565b60405161012894939291906110f0565b60405180910390f35b610139610472565b604051610146919061101a565b60405180910390f35b61016960048036038101906101649190610dc3565b610496565b005b61018560048036038101906101809190610dc3565b6107db565b005b600360205281600052604060002081815481106101a357600080fd5b906000526020600020016000915091509054906101000a900473ffffffffffffffffffffffffffffffffffffffff1681565b60008054906101000a900473ffffffffffffffffffffffffffffffffffffffff1673ffffffffffffffffffffffffffffffffffffffff163373ffffffffffffffffffffffffffffffffffffffff1614610263576040517f08c379a000000000000000000000000000000000000000000000000000000000815260040161025a90611075565b60405180910390fd5b6001546002600082815260200190815260200160002060030160009054906101000a900460ff166102c9576040517f08c379a00000000000000000000000000000000000000000000000000000000081526004016102c0906110b5565b60405180910390fd5b600154600260006001548152602001908152602001600020600001819055508383600260006001548152602001908152602001600020600101919061030f929190610c18565b508160026000600154815260200190815260200160002060020181905550600160026000600154815260200190815260200160002060030160006101000a81548160ff0219169083151502179055506001600081548092919061037190611263565b919050555050505050565b6004602052816000526040600020818154811061039857600080fd5b90600052602060002001600091509150505481565b60026020528060005260406000206000915090508060000154908060010180546103d690611231565b80601f016020809104026020016040519081016040528092919081815260200182805461040290611231565b801561044f5780601f106104245761010080835404028352916020019161044f565b820191906000526020600020905b81548152906001019060200180831161043257829003601f168201915b5050505050908060020154908060030160009054906101000a900460ff16905084565b60008054906101000a900473ffffffffffffffffffffffffffffffffffffffff1681565b806002600082815260200190815260200160002060030160009054906101000a900460ff166104fa576040517f08c379a00000000000000000000000000000000000000000000000000000000081526004016104f1906110b5565b60405180910390fd5b600060026000848152602001908152602001600020600201541415610554576040517f08c379a000000000000000000000000000000000000000000000000000000000815260040161054b90611095565b60405180910390fd5b6105eb82600460003373ffffffffffffffffffffffffffffffffffffffff1673ffffffffffffffffffffffffffffffffffffffff1681526020019081526020016000208054806020026020016040519081016040528092919081815260200182805480156105e157602002820191906000526020600020905b8154815260200190600101908083116105cd575b505050505061098d565b1561062b576040517f08c379a000000000000000000000000000000000000000000000000000000000815260040161062290611055565b60405180910390fd5b600460003373ffffffffffffffffffffffffffffffffffffffff1673ffffffffffffffffffffffffffffffffffffffff168152602001908152602001600020829080600181540180825580915050600190039060005260206000200160009091909190915055610732336003600085815260200190815260200160002080548060200260200160405190810160405280929190818152602001828054801561072857602002820191906000526020600020905b8160009054906101000a900473ffffffffffffffffffffffffffffffffffffffff1673ffffffffffffffffffffffffffffffffffffffff16815260200190600101908083116106de575b5050505050610a0f565b6107ab5760036000838152602001908152602001600020339080600181540180825580915050600190039060005260206000200160009091909190916101000a81548173ffffffffffffffffffffffffffffffffffffffff021916908373ffffffffffffffffffffffffffffffffffffffff1602179055505b6002600083815260200190815260200160002060020160008154809291906107d290611207565b91905055505050565b806002600082815260200190815260200160002060030160009054906101000a900460ff1661083f576040517f08c379a0000000000000000000000000000000000000000000000000000000008152600401610836906110b5565b60405180910390fd5b6108d682600460003373ffffffffffffffffffffffffffffffffffffffff1673ffffffffffffffffffffffffffffffffffffffff1681526020019081526020016000208054806020026020016040519081016040528092919081815260200182805480156108cc57602002820191906000526020600020905b8154815260200190600101908083116108b8575b505050505061098d565b610915576040517f08c379a000000000000000000000000000000000000000000000000000000000815260040161090c90611035565b60405180910390fd5b61095d600460003373ffffffffffffffffffffffffffffffffffffffff1673ffffffffffffffffffffffffffffffffffffffff16815260200190815260200160002083610abd565b60026000838152602001908152602001600020600201600081548092919061098490611263565b91905055505050565b600080600090505b8251811015610a03578281815181106109d7577f4e487b7100000000000000000000000000000000000000000000000000000000600052603260045260246000fd5b60200260200101518414156109f0576001915050610a09565b80806109fb90611263565b915050610995565b50600090505b92915050565b600080600090505b8251811015610ab157828181518110610a59577f4e487b7100000000000000000000000000000000000000000000000000000000600052603260045260246000fd5b602002602001015173ffffffffffffffffffffffffffffffffffffffff168473ffffffffffffffffffffffffffffffffffffffff161415610a9e576001915050610ab7565b8080610aa990611263565b915050610a17565b50600090505b92915050565b60005b8280549050811015610c1357828181548110610b05577f4e487b7100000000000000000000000000000000000000000000000000000000600052603260045260246000fd5b9060005260206000200154821415610c00578260018480549050610b299190611158565b81548110610b60577f4e487b7100000000000000000000000000000000000000000000000000000000600052603260045260246000fd5b9060005260206000200154838281548110610ba4577f4e487b7100000000000000000000000000000000000000000000000000000000600052603260045260246000fd5b906000526020600020018190555082805480610be9577f4e487b7100000000000000000000000000000000000000000000000000000000600052603160045260246000fd5b600190038181906000526020600020016000905590555b8080610c0b90611263565b915050610ac0565b505050565b828054610c2490611231565b90600052602060002090601f016020900481019282610c465760008555610c8d565b82601f10610c5f57803560ff1916838001178555610c8d565b82800160010185558215610c8d579182015b82811115610c8c578235825591602001919060010190610c71565b5b509050610c9a9190610c9e565b5090565b5b80821115610cb7576000816000905550600101610c9f565b5090565b600081359050610cca8161131b565b92915050565b60008083601f840112610ce257600080fd5b8235905067ffffffffffffffff811115610cfb57600080fd5b602083019150836001820283011115610d1357600080fd5b9250929050565b600081359050610d2981611332565b92915050565b60008060408385031215610d4257600080fd5b6000610d5085828601610cbb565b9250506020610d6185828601610d1a565b9150509250929050565b600080600060408486031215610d8057600080fd5b600084013567ffffffffffffffff811115610d9a57600080fd5b610da686828701610cd0565b93509350506020610db986828701610d1a565b9150509250925092565b600060208284031215610dd557600080fd5b6000610de384828501610d1a565b91505092915050565b60008060408385031215610dff57600080fd5b6000610e0d85828601610d1a565b9250506020610e1e85828601610d1a565b9150509250929050565b610e318161118c565b82525050565b610e408161119e565b82525050565b6000610e518261113c565b610e5b8185611147565b9350610e6b8185602086016111d4565b610e748161130a565b840191505092915050565b6000610e8c601e83611147565b91507f596f7520686176656e7420626f72726f776564207468617420626f6f6b2100006000830152602082019050919050565b6000610ecc602283611147565b91507f596f7527766520616c726561647920626f72726f776564207468617420626f6f60008301527f6b210000000000000000000000000000000000000000000000000000000000006020830152604082019050919050565b6000610f32601a83611147565b91507f43757272656e742075736572206973206e6f74206f776e6572210000000000006000830152602082019050919050565b6000610f72602483611147565b91507f5468697320626f6f6b206973206f7574206f662073746f636b2063757272656e60008301527f746c7921000000000000000000000000000000000000000000000000000000006020830152604082019050919050565b6000610fd8601f83611147565b91507f426f6f6b20646f6573206e6f7420657869737420696e206c69627261727921006000830152602082019050919050565b611014816111ca565b82525050565b600060208201905061102f6000830184610e28565b92915050565b6000602082019050818103600083015261104e81610e7f565b9050919050565b6000602082019050818103600083015261106e81610ebf565b9050919050565b6000602082019050818103600083015261108e81610f25565b9050919050565b600060208201905081810360008301526110ae81610f65565b9050919050565b600060208201905081810360008301526110ce81610fcb565b9050919050565b60006020820190506110ea600083018461100b565b92915050565b6000608082019050611105600083018761100b565b81810360208301526111178186610e46565b9050611126604083018561100b565b6111336060830184610e37565b95945050505050565b600081519050919050565b600082825260208201905092915050565b6000611163826111ca565b915061116e836111ca565b925082821015611181576111806112ac565b5b828203905092915050565b6000611197826111aa565b9050919050565b60008115159050919050565b600073ffffffffffffffffffffffffffffffffffffffff82169050919050565b6000819050919050565b60005b838110156111f25780820151818401526020810190506111d7565b83811115611201576000848401525b50505050565b6000611212826111ca565b91506000821415611226576112256112ac565b5b600182039050919050565b6000600282049050600182168061124957607f821691505b6020821081141561125d5761125c6112db565b5b50919050565b600061126e826111ca565b91507fffffffffffffffffffffffffffffffffffffffffffffffffffffffffffffffff8214156112a1576112a06112ac565b5b600182019050919050565b7f4e487b7100000000000000000000000000000000000000000000000000000000600052601160045260246000fd5b7f4e487b7100000000000000000000000000000000000000000000000000000000600052602260045260246000fd5b6000601f19601f8301169050919050565b6113248161118c565b811461132f57600080fd5b50565b61133b816111ca565b811461134657600080fd5b5056fea264697066735822122084b4f955c740c82685b89afc1b5f81e571717cd6f663eee7177174f58752265d64736f6c63430008000033",
					"opcodes": "PUSH1 0x80 PUSH1 0x40 MSTORE CALLVALUE DUP1 ISZERO PUSH2 0x10 JUMPI PUSH1 0x0 DUP1 REVERT JUMPDEST POP CALLER PUSH1 0x0 DUP1 PUSH2 0x100 EXP DUP2 SLOAD DUP2 PUSH20 0xFFFFFFFFFFFFFFFFFFFFFFFFFFFFFFFFFFFFFFFF MUL NOT AND SWAP1 DUP4 PUSH20 0xFFFFFFFFFFFFFFFFFFFFFFFFFFFFFFFFFFFFFFFF AND MUL OR SWAP1 SSTORE POP PUSH2 0x137F DUP1 PUSH2 0x60 PUSH1 0x0 CODECOPY PUSH1 0x0 RETURN INVALID PUSH1 0x80 PUSH1 0x40 MSTORE CALLVALUE DUP1 ISZERO PUSH2 0x10 JUMPI PUSH1 0x0 DUP1 REVERT JUMPDEST POP PUSH1 0x4 CALLDATASIZE LT PUSH2 0x7D JUMPI PUSH1 0x0 CALLDATALOAD PUSH1 0xE0 SHR DUP1 PUSH4 0x71E25E5A GT PUSH2 0x5B JUMPI DUP1 PUSH4 0x71E25E5A EQ PUSH2 0xFE JUMPI DUP1 PUSH4 0x8DA5CB5B EQ PUSH2 0x131 JUMPI DUP1 PUSH4 0x9649FAA3 EQ PUSH2 0x14F JUMPI DUP1 PUSH4 0xB8DD17DB EQ PUSH2 0x16B JUMPI PUSH2 0x7D JUMP JUMPDEST DUP1 PUSH4 0x18413898 EQ PUSH2 0x82 JUMPI DUP1 PUSH4 0x265BE2E2 EQ PUSH2 0xB2 JUMPI DUP1 PUSH4 0x2B3819FE EQ PUSH2 0xCE JUMPI JUMPDEST PUSH1 0x0 DUP1 REVERT JUMPDEST PUSH2 0x9C PUSH1 0x4 DUP1 CALLDATASIZE SUB DUP2 ADD SWAP1 PUSH2 0x97 SWAP2 SWAP1 PUSH2 0xDEC JUMP JUMPDEST PUSH2 0x187 JUMP JUMPDEST PUSH1 0x40 MLOAD PUSH2 0xA9 SWAP2 SWAP1 PUSH2 0x101A JUMP JUMPDEST PUSH1 0x40 MLOAD DUP1 SWAP2 SUB SWAP1 RETURN JUMPDEST PUSH2 0xCC PUSH1 0x4 DUP1 CALLDATASIZE SUB DUP2 ADD SWAP1 PUSH2 0xC7 SWAP2 SWAP1 PUSH2 0xD6B JUMP JUMPDEST PUSH2 0x1D5 JUMP JUMPDEST STOP JUMPDEST PUSH2 0xE8 PUSH1 0x4 DUP1 CALLDATASIZE SUB DUP2 ADD SWAP1 PUSH2 0xE3 SWAP2 SWAP1 PUSH2 0xD2F JUMP JUMPDEST PUSH2 0x37C JUMP JUMPDEST PUSH1 0x40 MLOAD PUSH2 0xF5 SWAP2 SWAP1 PUSH2 0x10D5 JUMP JUMPDEST PUSH1 0x40 MLOAD DUP1 SWAP2 SUB SWAP1 RETURN JUMPDEST PUSH2 0x118 PUSH1 0x4 DUP1 CALLDATASIZE SUB DUP2 ADD SWAP1 PUSH2 0x113 SWAP2 SWAP1 PUSH2 0xDC3 JUMP JUMPDEST PUSH2 0x3AD JUMP JUMPDEST PUSH1 0x40 MLOAD PUSH2 0x128 SWAP5 SWAP4 SWAP3 SWAP2 SWAP1 PUSH2 0x10F0 JUMP JUMPDEST PUSH1 0x40 MLOAD DUP1 SWAP2 SUB SWAP1 RETURN JUMPDEST PUSH2 0x139 PUSH2 0x472 JUMP JUMPDEST PUSH1 0x40 MLOAD PUSH2 0x146 SWAP2 SWAP1 PUSH2 0x101A JUMP JUMPDEST PUSH1 0x40 MLOAD DUP1 SWAP2 SUB SWAP1 RETURN JUMPDEST PUSH2 0x169 PUSH1 0x4 DUP1 CALLDATASIZE SUB DUP2 ADD SWAP1 PUSH2 0x164 SWAP2 SWAP1 PUSH2 0xDC3 JUMP JUMPDEST PUSH2 0x496 JUMP JUMPDEST STOP JUMPDEST PUSH2 0x185 PUSH1 0x4 DUP1 CALLDATASIZE SUB DUP2 ADD SWAP1 PUSH2 0x180 SWAP2 SWAP1 PUSH2 0xDC3 JUMP JUMPDEST PUSH2 0x7DB JUMP JUMPDEST STOP JUMPDEST PUSH1 0x3 PUSH1 0x20 MSTORE DUP2 PUSH1 0x0 MSTORE PUSH1 0x40 PUSH1 0x0 KECCAK256 DUP2 DUP2 SLOAD DUP2 LT PUSH2 0x1A3 JUMPI PUSH1 0x0 DUP1 REVERT JUMPDEST SWAP1 PUSH1 0x0 MSTORE PUSH1 0x20 PUSH1 0x0 KECCAK256 ADD PUSH1 0x0 SWAP2 POP SWAP2 POP SWAP1 SLOAD SWAP1 PUSH2 0x100 EXP SWAP1 DIV PUSH20 0xFFFFFFFFFFFFFFFFFFFFFFFFFFFFFFFFFFFFFFFF AND DUP2 JUMP JUMPDEST PUSH1 0x0 DUP1 SLOAD SWAP1 PUSH2 0x100 EXP SWAP1 DIV PUSH20 0xFFFFFFFFFFFFFFFFFFFFFFFFFFFFFFFFFFFFFFFF AND PUSH20 0xFFFFFFFFFFFFFFFFFFFFFFFFFFFFFFFFFFFFFFFF AND CALLER PUSH20 0xFFFFFFFFFFFFFFFFFFFFFFFFFFFFFFFFFFFFFFFF AND EQ PUSH2 0x263 JUMPI PUSH1 0x40 MLOAD PUSH32 0x8C379A000000000000000000000000000000000000000000000000000000000 DUP2 MSTORE PUSH1 0x4 ADD PUSH2 0x25A SWAP1 PUSH2 0x1075 JUMP JUMPDEST PUSH1 0x40 MLOAD DUP1 SWAP2 SUB SWAP1 REVERT JUMPDEST PUSH1 0x1 SLOAD PUSH1 0x2 PUSH1 0x0 DUP3 DUP2 MSTORE PUSH1 0x20 ADD SWAP1 DUP2 MSTORE PUSH1 0x20 ADD PUSH1 0x0 KECCAK256 PUSH1 0x3 ADD PUSH1 0x0 SWAP1 SLOAD SWAP1 PUSH2 0x100 EXP SWAP1 DIV PUSH1 0xFF AND PUSH2 0x2C9 JUMPI PUSH1 0x40 MLOAD PUSH32 0x8C379A000000000000000000000000000000000000000000000000000000000 DUP2 MSTORE PUSH1 0x4 ADD PUSH2 0x2C0 SWAP1 PUSH2 0x10B5 JUMP JUMPDEST PUSH1 0x40 MLOAD DUP1 SWAP2 SUB SWAP1 REVERT JUMPDEST PUSH1 0x1 SLOAD PUSH1 0x2 PUSH1 0x0 PUSH1 0x1 SLOAD DUP2 MSTORE PUSH1 0x20 ADD SWAP1 DUP2 MSTORE PUSH1 0x20 ADD PUSH1 0x0 KECCAK256 PUSH1 0x0 ADD DUP2 SWAP1 SSTORE POP DUP4 DUP4 PUSH1 0x2 PUSH1 0x0 PUSH1 0x1 SLOAD DUP2 MSTORE PUSH1 0x20 ADD SWAP1 DUP2 MSTORE PUSH1 0x20 ADD PUSH1 0x0 KECCAK256 PUSH1 0x1 ADD SWAP2 SWAP1 PUSH2 0x30F SWAP3 SWAP2 SWAP1 PUSH2 0xC18 JUMP JUMPDEST POP DUP2 PUSH1 0x2 PUSH1 0x0 PUSH1 0x1 SLOAD DUP2 MSTORE PUSH1 0x20 ADD SWAP1 DUP2 MSTORE PUSH1 0x20 ADD PUSH1 0x0 KECCAK256 PUSH1 0x2 ADD DUP2 SWAP1 SSTORE POP PUSH1 0x1 PUSH1 0x2 PUSH1 0x0 PUSH1 0x1 SLOAD DUP2 MSTORE PUSH1 0x20 ADD SWAP1 DUP2 MSTORE PUSH1 0x20 ADD PUSH1 0x0 KECCAK256 PUSH1 0x3 ADD PUSH1 0x0 PUSH2 0x100 EXP DUP2 SLOAD DUP2 PUSH1 0xFF MUL NOT AND SWAP1 DUP4 ISZERO ISZERO MUL OR SWAP1 SSTORE POP PUSH1 0x1 PUSH1 0x0 DUP2 SLOAD DUP1 SWAP3 SWAP2 SWAP1 PUSH2 0x371 SWAP1 PUSH2 0x1263 JUMP JUMPDEST SWAP2 SWAP1 POP SSTORE POP POP POP POP POP JUMP JUMPDEST PUSH1 0x4 PUSH1 0x20 MSTORE DUP2 PUSH1 0x0 MSTORE PUSH1 0x40 PUSH1 0x0 KECCAK256 DUP2 DUP2 SLOAD DUP2 LT PUSH2 0x398 JUMPI PUSH1 0x0 DUP1 REVERT JUMPDEST SWAP1 PUSH1 0x0 MSTORE PUSH1 0x20 PUSH1 0x0 KECCAK256 ADD PUSH1 0x0 SWAP2 POP SWAP2 POP POP SLOAD DUP2 JUMP JUMPDEST PUSH1 0x2 PUSH1 0x20 MSTORE DUP1 PUSH1 0x0 MSTORE PUSH1 0x40 PUSH1 0x0 KECCAK256 PUSH1 0x0 SWAP2 POP SWAP1 POP DUP1 PUSH1 0x0 ADD SLOAD SWAP1 DUP1 PUSH1 0x1 ADD DUP1 SLOAD PUSH2 0x3D6 SWAP1 PUSH2 0x1231 JUMP JUMPDEST DUP1 PUSH1 0x1F ADD PUSH1 0x20 DUP1 SWAP2 DIV MUL PUSH1 0x20 ADD PUSH1 0x40 MLOAD SWAP1 DUP2 ADD PUSH1 0x40 MSTORE DUP1 SWAP3 SWAP2 SWAP1 DUP2 DUP2 MSTORE PUSH1 0x20 ADD DUP3 DUP1 SLOAD PUSH2 0x402 SWAP1 PUSH2 0x1231 JUMP JUMPDEST DUP1 ISZERO PUSH2 0x44F JUMPI DUP1 PUSH1 0x1F LT PUSH2 0x424 JUMPI PUSH2 0x100 DUP1 DUP4 SLOAD DIV MUL DUP4 MSTORE SWAP2 PUSH1 0x20 ADD SWAP2 PUSH2 0x44F JUMP JUMPDEST DUP3 ADD SWAP2 SWAP1 PUSH1 0x0 MSTORE PUSH1 0x20 PUSH1 0x0 KECCAK256 SWAP1 JUMPDEST DUP2 SLOAD DUP2 MSTORE SWAP1 PUSH1 0x1 ADD SWAP1 PUSH1 0x20 ADD DUP1 DUP4 GT PUSH2 0x432 JUMPI DUP3 SWAP1 SUB PUSH1 0x1F AND DUP3 ADD SWAP2 JUMPDEST POP POP POP POP POP SWAP1 DUP1 PUSH1 0x2 ADD SLOAD SWAP1 DUP1 PUSH1 0x3 ADD PUSH1 0x0 SWAP1 SLOAD SWAP1 PUSH2 0x100 EXP SWAP1 DIV PUSH1 0xFF AND SWAP1 POP DUP5 JUMP JUMPDEST PUSH1 0x0 DUP1 SLOAD SWAP1 PUSH2 0x100 EXP SWAP1 DIV PUSH20 0xFFFFFFFFFFFFFFFFFFFFFFFFFFFFFFFFFFFFFFFF AND DUP2 JUMP JUMPDEST DUP1 PUSH1 0x2 PUSH1 0x0 DUP3 DUP2 MSTORE PUSH1 0x20 ADD SWAP1 DUP2 MSTORE PUSH1 0x20 ADD PUSH1 0x0 KECCAK256 PUSH1 0x3 ADD PUSH1 0x0 SWAP1 SLOAD SWAP1 PUSH2 0x100 EXP SWAP1 DIV PUSH1 0xFF AND PUSH2 0x4FA JUMPI PUSH1 0x40 MLOAD PUSH32 0x8C379A000000000000000000000000000000000000000000000000000000000 DUP2 MSTORE PUSH1 0x4 ADD PUSH2 0x4F1 SWAP1 PUSH2 0x10B5 JUMP JUMPDEST PUSH1 0x40 MLOAD DUP1 SWAP2 SUB SWAP1 REVERT JUMPDEST PUSH1 0x0 PUSH1 0x2 PUSH1 0x0 DUP5 DUP2 MSTORE PUSH1 0x20 ADD SWAP1 DUP2 MSTORE PUSH1 0x20 ADD PUSH1 0x0 KECCAK256 PUSH1 0x2 ADD SLOAD EQ ISZERO PUSH2 0x554 JUMPI PUSH1 0x40 MLOAD PUSH32 0x8C379A000000000000000000000000000000000000000000000000000000000 DUP2 MSTORE PUSH1 0x4 ADD PUSH2 0x54B SWAP1 PUSH2 0x1095 JUMP JUMPDEST PUSH1 0x40 MLOAD DUP1 SWAP2 SUB SWAP1 REVERT JUMPDEST PUSH2 0x5EB DUP3 PUSH1 0x4 PUSH1 0x0 CALLER PUSH20 0xFFFFFFFFFFFFFFFFFFFFFFFFFFFFFFFFFFFFFFFF AND PUSH20 0xFFFFFFFFFFFFFFFFFFFFFFFFFFFFFFFFFFFFFFFF AND DUP2 MSTORE PUSH1 0x20 ADD SWAP1 DUP2 MSTORE PUSH1 0x20 ADD PUSH1 0x0 KECCAK256 DUP1 SLOAD DUP1 PUSH1 0x20 MUL PUSH1 0x20 ADD PUSH1 0x40 MLOAD SWAP1 DUP2 ADD PUSH1 0x40 MSTORE DUP1 SWAP3 SWAP2 SWAP1 DUP2 DUP2 MSTORE PUSH1 0x20 ADD DUP3 DUP1 SLOAD DUP1 ISZERO PUSH2 0x5E1 JUMPI PUSH1 0x20 MUL DUP3 ADD SWAP2 SWAP1 PUSH1 0x0 MSTORE PUSH1 0x20 PUSH1 0x0 KECCAK256 SWAP1 JUMPDEST DUP2 SLOAD DUP2 MSTORE PUSH1 0x20 ADD SWAP1 PUSH1 0x1 ADD SWAP1 DUP1 DUP4 GT PUSH2 0x5CD JUMPI JUMPDEST POP POP POP POP POP PUSH2 0x98D JUMP JUMPDEST ISZERO PUSH2 0x62B JUMPI PUSH1 0x40 MLOAD PUSH32 0x8C379A000000000000000000000000000000000000000000000000000000000 DUP2 MSTORE PUSH1 0x4 ADD PUSH2 0x622 SWAP1 PUSH2 0x1055 JUMP JUMPDEST PUSH1 0x40 MLOAD DUP1 SWAP2 SUB SWAP1 REVERT JUMPDEST PUSH1 0x4 PUSH1 0x0 CALLER PUSH20 0xFFFFFFFFFFFFFFFFFFFFFFFFFFFFFFFFFFFFFFFF AND PUSH20 0xFFFFFFFFFFFFFFFFFFFFFFFFFFFFFFFFFFFFFFFF AND DUP2 MSTORE PUSH1 0x20 ADD SWAP1 DUP2 MSTORE PUSH1 0x20 ADD PUSH1 0x0 KECCAK256 DUP3 SWAP1 DUP1 PUSH1 0x1 DUP2 SLOAD ADD DUP1 DUP3 SSTORE DUP1 SWAP2 POP POP PUSH1 0x1 SWAP1 SUB SWAP1 PUSH1 0x0 MSTORE PUSH1 0x20 PUSH1 0x0 KECCAK256 ADD PUSH1 0x0 SWAP1 SWAP2 SWAP1 SWAP2 SWAP1 SWAP2 POP SSTORE PUSH2 0x732 CALLER PUSH1 0x3 PUSH1 0x0 DUP6 DUP2 MSTORE PUSH1 0x20 ADD SWAP1 DUP2 MSTORE PUSH1 0x20 ADD PUSH1 0x0 KECCAK256 DUP1 SLOAD DUP1 PUSH1 0x20 MUL PUSH1 0x20 ADD PUSH1 0x40 MLOAD SWAP1 DUP2 ADD PUSH1 0x40 MSTORE DUP1 SWAP3 SWAP2 SWAP1 DUP2 DUP2 MSTORE PUSH1 0x20 ADD DUP3 DUP1 SLOAD DUP1 ISZERO PUSH2 0x728 JUMPI PUSH1 0x20 MUL DUP3 ADD SWAP2 SWAP1 PUSH1 0x0 MSTORE PUSH1 0x20 PUSH1 0x0 KECCAK256 SWAP1 JUMPDEST DUP2 PUSH1 0x0 SWAP1 SLOAD SWAP1 PUSH2 0x100 EXP SWAP1 DIV PUSH20 0xFFFFFFFFFFFFFFFFFFFFFFFFFFFFFFFFFFFFFFFF AND PUSH20 0xFFFFFFFFFFFFFFFFFFFFFFFFFFFFFFFFFFFFFFFF AND DUP2 MSTORE PUSH1 0x20 ADD SWAP1 PUSH1 0x1 ADD SWAP1 DUP1 DUP4 GT PUSH2 0x6DE JUMPI JUMPDEST POP POP POP POP POP PUSH2 0xA0F JUMP JUMPDEST PUSH2 0x7AB JUMPI PUSH1 0x3 PUSH1 0x0 DUP4 DUP2 MSTORE PUSH1 0x20 ADD SWAP1 DUP2 MSTORE PUSH1 0x20 ADD PUSH1 0x0 KECCAK256 CALLER SWAP1 DUP1 PUSH1 0x1 DUP2 SLOAD ADD DUP1 DUP3 SSTORE DUP1 SWAP2 POP POP PUSH1 0x1 SWAP1 SUB SWAP1 PUSH1 0x0 MSTORE PUSH1 0x20 PUSH1 0x0 KECCAK256 ADD PUSH1 0x0 SWAP1 SWAP2 SWAP1 SWAP2 SWAP1 SWAP2 PUSH2 0x100 EXP DUP2 SLOAD DUP2 PUSH20 0xFFFFFFFFFFFFFFFFFFFFFFFFFFFFFFFFFFFFFFFF MUL NOT AND SWAP1 DUP4 PUSH20 0xFFFFFFFFFFFFFFFFFFFFFFFFFFFFFFFFFFFFFFFF AND MUL OR SWAP1 SSTORE POP JUMPDEST PUSH1 0x2 PUSH1 0x0 DUP4 DUP2 MSTORE PUSH1 0x20 ADD SWAP1 DUP2 MSTORE PUSH1 0x20 ADD PUSH1 0x0 KECCAK256 PUSH1 0x2 ADD PUSH1 0x0 DUP2 SLOAD DUP1 SWAP3 SWAP2 SWAP1 PUSH2 0x7D2 SWAP1 PUSH2 0x1207 JUMP JUMPDEST SWAP2 SWAP1 POP SSTORE POP POP POP JUMP JUMPDEST DUP1 PUSH1 0x2 PUSH1 0x0 DUP3 DUP2 MSTORE PUSH1 0x20 ADD SWAP1 DUP2 MSTORE PUSH1 0x20 ADD PUSH1 0x0 KECCAK256 PUSH1 0x3 ADD PUSH1 0x0 SWAP1 SLOAD SWAP1 PUSH2 0x100 EXP SWAP1 DIV PUSH1 0xFF AND PUSH2 0x83F JUMPI PUSH1 0x40 MLOAD PUSH32 0x8C379A000000000000000000000000000000000000000000000000000000000 DUP2 MSTORE PUSH1 0x4 ADD PUSH2 0x836 SWAP1 PUSH2 0x10B5 JUMP JUMPDEST PUSH1 0x40 MLOAD DUP1 SWAP2 SUB SWAP1 REVERT JUMPDEST PUSH2 0x8D6 DUP3 PUSH1 0x4 PUSH1 0x0 CALLER PUSH20 0xFFFFFFFFFFFFFFFFFFFFFFFFFFFFFFFFFFFFFFFF AND PUSH20 0xFFFFFFFFFFFFFFFFFFFFFFFFFFFFFFFFFFFFFFFF AND DUP2 MSTORE PUSH1 0x20 ADD SWAP1 DUP2 MSTORE PUSH1 0x20 ADD PUSH1 0x0 KECCAK256 DUP1 SLOAD DUP1 PUSH1 0x20 MUL PUSH1 0x20 ADD PUSH1 0x40 MLOAD SWAP1 DUP2 ADD PUSH1 0x40 MSTORE DUP1 SWAP3 SWAP2 SWAP1 DUP2 DUP2 MSTORE PUSH1 0x20 ADD DUP3 DUP1 SLOAD DUP1 ISZERO PUSH2 0x8CC JUMPI PUSH1 0x20 MUL DUP3 ADD SWAP2 SWAP1 PUSH1 0x0 MSTORE PUSH1 0x20 PUSH1 0x0 KECCAK256 SWAP1 JUMPDEST DUP2 SLOAD DUP2 MSTORE PUSH1 0x20 ADD SWAP1 PUSH1 0x1 ADD SWAP1 DUP1 DUP4 GT PUSH2 0x8B8 JUMPI JUMPDEST POP POP POP POP POP PUSH2 0x98D JUMP JUMPDEST PUSH2 0x915 JUMPI PUSH1 0x40 MLOAD PUSH32 0x8C379A000000000000000000000000000000000000000000000000000000000 DUP2 MSTORE PUSH1 0x4 ADD PUSH2 0x90C SWAP1 PUSH2 0x1035 JUMP JUMPDEST PUSH1 0x40 MLOAD DUP1 SWAP2 SUB SWAP1 REVERT JUMPDEST PUSH2 0x95D PUSH1 0x4 PUSH1 0x0 CALLER PUSH20 0xFFFFFFFFFFFFFFFFFFFFFFFFFFFFFFFFFFFFFFFF AND PUSH20 0xFFFFFFFFFFFFFFFFFFFFFFFFFFFFFFFFFFFFFFFF AND DUP2 MSTORE PUSH1 0x20 ADD SWAP1 DUP2 MSTORE PUSH1 0x20 ADD PUSH1 0x0 KECCAK256 DUP4 PUSH2 0xABD JUMP JUMPDEST PUSH1 0x2 PUSH1 0x0 DUP4 DUP2 MSTORE PUSH1 0x20 ADD SWAP1 DUP2 MSTORE PUSH1 0x20 ADD PUSH1 0x0 KECCAK256 PUSH1 0x2 ADD PUSH1 0x0 DUP2 SLOAD DUP1 SWAP3 SWAP2 SWAP1 PUSH2 0x984 SWAP1 PUSH2 0x1263 JUMP JUMPDEST SWAP2 SWAP1 POP SSTORE POP POP POP JUMP JUMPDEST PUSH1 0x0 DUP1 PUSH1 0x0 SWAP1 POP JUMPDEST DUP3 MLOAD DUP2 LT ISZERO PUSH2 0xA03 JUMPI DUP3 DUP2 DUP2 MLOAD DUP2 LT PUSH2 0x9D7 JUMPI PUSH32 0x4E487B7100000000000000000000000000000000000000000000000000000000 PUSH1 0x0 MSTORE PUSH1 0x32 PUSH1 0x4 MSTORE PUSH1 0x24 PUSH1 0x0 REVERT JUMPDEST PUSH1 0x20 MUL PUSH1 0x20 ADD ADD MLOAD DUP5 EQ ISZERO PUSH2 0x9F0 JUMPI PUSH1 0x1 SWAP2 POP POP PUSH2 0xA09 JUMP JUMPDEST DUP1 DUP1 PUSH2 0x9FB SWAP1 PUSH2 0x1263 JUMP JUMPDEST SWAP2 POP POP PUSH2 0x995 JUMP JUMPDEST POP PUSH1 0x0 SWAP1 POP JUMPDEST SWAP3 SWAP2 POP POP JUMP JUMPDEST PUSH1 0x0 DUP1 PUSH1 0x0 SWAP1 POP JUMPDEST DUP3 MLOAD DUP2 LT ISZERO PUSH2 0xAB1 JUMPI DUP3 DUP2 DUP2 MLOAD DUP2 LT PUSH2 0xA59 JUMPI PUSH32 0x4E487B7100000000000000000000000000000000000000000000000000000000 PUSH1 0x0 MSTORE PUSH1 0x32 PUSH1 0x4 MSTORE PUSH1 0x24 PUSH1 0x0 REVERT JUMPDEST PUSH1 0x20 MUL PUSH1 0x20 ADD ADD MLOAD PUSH20 0xFFFFFFFFFFFFFFFFFFFFFFFFFFFFFFFFFFFFFFFF AND DUP5 PUSH20 0xFFFFFFFFFFFFFFFFFFFFFFFFFFFFFFFFFFFFFFFF AND EQ ISZERO PUSH2 0xA9E JUMPI PUSH1 0x1 SWAP2 POP POP PUSH2 0xAB7 JUMP JUMPDEST DUP1 DUP1 PUSH2 0xAA9 SWAP1 PUSH2 0x1263 JUMP JUMPDEST SWAP2 POP POP PUSH2 0xA17 JUMP JUMPDEST POP PUSH1 0x0 SWAP1 POP JUMPDEST SWAP3 SWAP2 POP POP JUMP JUMPDEST PUSH1 0x0 JUMPDEST DUP3 DUP1 SLOAD SWAP1 POP DUP2 LT ISZERO PUSH2 0xC13 JUMPI DUP3 DUP2 DUP2 SLOAD DUP2 LT PUSH2 0xB05 JUMPI PUSH32 0x4E487B7100000000000000000000000000000000000000000000000000000000 PUSH1 0x0 MSTORE PUSH1 0x32 PUSH1 0x4 MSTORE PUSH1 0x24 PUSH1 0x0 REVERT JUMPDEST SWAP1 PUSH1 0x0 MSTORE PUSH1 0x20 PUSH1 0x0 KECCAK256 ADD SLOAD DUP3 EQ ISZERO PUSH2 0xC00 JUMPI DUP3 PUSH1 0x1 DUP5 DUP1 SLOAD SWAP1 POP PUSH2 0xB29 SWAP2 SWAP1 PUSH2 0x1158 JUMP JUMPDEST DUP2 SLOAD DUP2 LT PUSH2 0xB60 JUMPI PUSH32 0x4E487B7100000000000000000000000000000000000000000000000000000000 PUSH1 0x0 MSTORE PUSH1 0x32 PUSH1 0x4 MSTORE PUSH1 0x24 PUSH1 0x0 REVERT JUMPDEST SWAP1 PUSH1 0x0 MSTORE PUSH1 0x20 PUSH1 0x0 KECCAK256 ADD SLOAD DUP4 DUP3 DUP2 SLOAD DUP2 LT PUSH2 0xBA4 JUMPI PUSH32 0x4E487B7100000000000000000000000000000000000000000000000000000000 PUSH1 0x0 MSTORE PUSH1 0x32 PUSH1 0x4 MSTORE PUSH1 0x24 PUSH1 0x0 REVERT JUMPDEST SWAP1 PUSH1 0x0 MSTORE PUSH1 0x20 PUSH1 0x0 KECCAK256 ADD DUP2 SWAP1 SSTORE POP DUP3 DUP1 SLOAD DUP1 PUSH2 0xBE9 JUMPI PUSH32 0x4E487B7100000000000000000000000000000000000000000000000000000000 PUSH1 0x0 MSTORE PUSH1 0x31 PUSH1 0x4 MSTORE PUSH1 0x24 PUSH1 0x0 REVERT JUMPDEST PUSH1 0x1 SWAP1 SUB DUP2 DUP2 SWAP1 PUSH1 0x0 MSTORE PUSH1 0x20 PUSH1 0x0 KECCAK256 ADD PUSH1 0x0 SWAP1 SSTORE SWAP1 SSTORE JUMPDEST DUP1 DUP1 PUSH2 0xC0B SWAP1 PUSH2 0x1263 JUMP JUMPDEST SWAP2 POP POP PUSH2 0xAC0 JUMP JUMPDEST POP POP POP JUMP JUMPDEST DUP3 DUP1 SLOAD PUSH2 0xC24 SWAP1 PUSH2 0x1231 JUMP JUMPDEST SWAP1 PUSH1 0x0 MSTORE PUSH1 0x20 PUSH1 0x0 KECCAK256 SWAP1 PUSH1 0x1F ADD PUSH1 0x20 SWAP1 DIV DUP2 ADD SWAP3 DUP3 PUSH2 0xC46 JUMPI PUSH1 0x0 DUP6 SSTORE PUSH2 0xC8D JUMP JUMPDEST DUP3 PUSH1 0x1F LT PUSH2 0xC5F JUMPI DUP1 CALLDATALOAD PUSH1 0xFF NOT AND DUP4 DUP1 ADD OR DUP6 SSTORE PUSH2 0xC8D JUMP JUMPDEST DUP3 DUP1 ADD PUSH1 0x1 ADD DUP6 SSTORE DUP3 ISZERO PUSH2 0xC8D JUMPI SWAP2 DUP3 ADD JUMPDEST DUP3 DUP2 GT ISZERO PUSH2 0xC8C JUMPI DUP3 CALLDATALOAD DUP3 SSTORE SWAP2 PUSH1 0x20 ADD SWAP2 SWAP1 PUSH1 0x1 ADD SWAP1 PUSH2 0xC71 JUMP JUMPDEST JUMPDEST POP SWAP1 POP PUSH2 0xC9A SWAP2 SWAP1 PUSH2 0xC9E JUMP JUMPDEST POP SWAP1 JUMP JUMPDEST JUMPDEST DUP1 DUP3 GT ISZERO PUSH2 0xCB7 JUMPI PUSH1 0x0 DUP2 PUSH1 0x0 SWAP1 SSTORE POP PUSH1 0x1 ADD PUSH2 0xC9F JUMP JUMPDEST POP SWAP1 JUMP JUMPDEST PUSH1 0x0 DUP2 CALLDATALOAD SWAP1 POP PUSH2 0xCCA DUP2 PUSH2 0x131B JUMP JUMPDEST SWAP3 SWAP2 POP POP JUMP JUMPDEST PUSH1 0x0 DUP1 DUP4 PUSH1 0x1F DUP5 ADD SLT PUSH2 0xCE2 JUMPI PUSH1 0x0 DUP1 REVERT JUMPDEST DUP3 CALLDATALOAD SWAP1 POP PUSH8 0xFFFFFFFFFFFFFFFF DUP2 GT ISZERO PUSH2 0xCFB JUMPI PUSH1 0x0 DUP1 REVERT JUMPDEST PUSH1 0x20 DUP4 ADD SWAP2 POP DUP4 PUSH1 0x1 DUP3 MUL DUP4 ADD GT ISZERO PUSH2 0xD13 JUMPI PUSH1 0x0 DUP1 REVERT JUMPDEST SWAP3 POP SWAP3 SWAP1 POP JUMP JUMPDEST PUSH1 0x0 DUP2 CALLDATALOAD SWAP1 POP PUSH2 0xD29 DUP2 PUSH2 0x1332 JUMP JUMPDEST SWAP3 SWAP2 POP POP JUMP JUMPDEST PUSH1 0x0 DUP1 PUSH1 0x40 DUP4 DUP6 SUB SLT ISZERO PUSH2 0xD42 JUMPI PUSH1 0x0 DUP1 REVERT JUMPDEST PUSH1 0x0 PUSH2 0xD50 DUP6 DUP3 DUP7 ADD PUSH2 0xCBB JUMP JUMPDEST SWAP3 POP POP PUSH1 0x20 PUSH2 0xD61 DUP6 DUP3 DUP7 ADD PUSH2 0xD1A JUMP JUMPDEST SWAP2 POP POP SWAP3 POP SWAP3 SWAP1 POP JUMP JUMPDEST PUSH1 0x0 DUP1 PUSH1 0x0 PUSH1 0x40 DUP5 DUP7 SUB SLT ISZERO PUSH2 0xD80 JUMPI PUSH1 0x0 DUP1 REVERT JUMPDEST PUSH1 0x0 DUP5 ADD CALLDATALOAD PUSH8 0xFFFFFFFFFFFFFFFF DUP2 GT ISZERO PUSH2 0xD9A JUMPI PUSH1 0x0 DUP1 REVERT JUMPDEST PUSH2 0xDA6 DUP7 DUP3 DUP8 ADD PUSH2 0xCD0 JUMP JUMPDEST SWAP4 POP SWAP4 POP POP PUSH1 0x20 PUSH2 0xDB9 DUP7 DUP3 DUP8 ADD PUSH2 0xD1A JUMP JUMPDEST SWAP2 POP POP SWAP3 POP SWAP3 POP SWAP3 JUMP JUMPDEST PUSH1 0x0 PUSH1 0x20 DUP3 DUP5 SUB SLT ISZERO PUSH2 0xDD5 JUMPI PUSH1 0x0 DUP1 REVERT JUMPDEST PUSH1 0x0 PUSH2 0xDE3 DUP5 DUP3 DUP6 ADD PUSH2 0xD1A JUMP JUMPDEST SWAP2 POP POP SWAP3 SWAP2 POP POP JUMP JUMPDEST PUSH1 0x0 DUP1 PUSH1 0x40 DUP4 DUP6 SUB SLT ISZERO PUSH2 0xDFF JUMPI PUSH1 0x0 DUP1 REVERT JUMPDEST PUSH1 0x0 PUSH2 0xE0D DUP6 DUP3 DUP7 ADD PUSH2 0xD1A JUMP JUMPDEST SWAP3 POP POP PUSH1 0x20 PUSH2 0xE1E DUP6 DUP3 DUP7 ADD PUSH2 0xD1A JUMP JUMPDEST SWAP2 POP POP SWAP3 POP SWAP3 SWAP1 POP JUMP JUMPDEST PUSH2 0xE31 DUP2 PUSH2 0x118C JUMP JUMPDEST DUP3 MSTORE POP POP JUMP JUMPDEST PUSH2 0xE40 DUP2 PUSH2 0x119E JUMP JUMPDEST DUP3 MSTORE POP POP JUMP JUMPDEST PUSH1 0x0 PUSH2 0xE51 DUP3 PUSH2 0x113C JUMP JUMPDEST PUSH2 0xE5B DUP2 DUP6 PUSH2 0x1147 JUMP JUMPDEST SWAP4 POP PUSH2 0xE6B DUP2 DUP6 PUSH1 0x20 DUP7 ADD PUSH2 0x11D4 JUMP JUMPDEST PUSH2 0xE74 DUP2 PUSH2 0x130A JUMP JUMPDEST DUP5 ADD SWAP2 POP POP SWAP3 SWAP2 POP POP JUMP JUMPDEST PUSH1 0x0 PUSH2 0xE8C PUSH1 0x1E DUP4 PUSH2 0x1147 JUMP JUMPDEST SWAP2 POP PUSH32 0x596F7520686176656E7420626F72726F776564207468617420626F6F6B210000 PUSH1 0x0 DUP4 ADD MSTORE PUSH1 0x20 DUP3 ADD SWAP1 POP SWAP2 SWAP1 POP JUMP JUMPDEST PUSH1 0x0 PUSH2 0xECC PUSH1 0x22 DUP4 PUSH2 0x1147 JUMP JUMPDEST SWAP2 POP PUSH32 0x596F7527766520616C726561647920626F72726F776564207468617420626F6F PUSH1 0x0 DUP4 ADD MSTORE PUSH32 0x6B21000000000000000000000000000000000000000000000000000000000000 PUSH1 0x20 DUP4 ADD MSTORE PUSH1 0x40 DUP3 ADD SWAP1 POP SWAP2 SWAP1 POP JUMP JUMPDEST PUSH1 0x0 PUSH2 0xF32 PUSH1 0x1A DUP4 PUSH2 0x1147 JUMP JUMPDEST SWAP2 POP PUSH32 0x43757272656E742075736572206973206E6F74206F776E657221000000000000 PUSH1 0x0 DUP4 ADD MSTORE PUSH1 0x20 DUP3 ADD SWAP1 POP SWAP2 SWAP1 POP JUMP JUMPDEST PUSH1 0x0 PUSH2 0xF72 PUSH1 0x24 DUP4 PUSH2 0x1147 JUMP JUMPDEST SWAP2 POP PUSH32 0x5468697320626F6F6B206973206F7574206F662073746F636B2063757272656E PUSH1 0x0 DUP4 ADD MSTORE PUSH32 0x746C792100000000000000000000000000000000000000000000000000000000 PUSH1 0x20 DUP4 ADD MSTORE PUSH1 0x40 DUP3 ADD SWAP1 POP SWAP2 SWAP1 POP JUMP JUMPDEST PUSH1 0x0 PUSH2 0xFD8 PUSH1 0x1F DUP4 PUSH2 0x1147 JUMP JUMPDEST SWAP2 POP PUSH32 0x426F6F6B20646F6573206E6F7420657869737420696E206C6962726172792100 PUSH1 0x0 DUP4 ADD MSTORE PUSH1 0x20 DUP3 ADD SWAP1 POP SWAP2 SWAP1 POP JUMP JUMPDEST PUSH2 0x1014 DUP2 PUSH2 0x11CA JUMP JUMPDEST DUP3 MSTORE POP POP JUMP JUMPDEST PUSH1 0x0 PUSH1 0x20 DUP3 ADD SWAP1 POP PUSH2 0x102F PUSH1 0x0 DUP4 ADD DUP5 PUSH2 0xE28 JUMP JUMPDEST SWAP3 SWAP2 POP POP JUMP JUMPDEST PUSH1 0x0 PUSH1 0x20 DUP3 ADD SWAP1 POP DUP2 DUP2 SUB PUSH1 0x0 DUP4 ADD MSTORE PUSH2 0x104E DUP2 PUSH2 0xE7F JUMP JUMPDEST SWAP1 POP SWAP2 SWAP1 POP JUMP JUMPDEST PUSH1 0x0 PUSH1 0x20 DUP3 ADD SWAP1 POP DUP2 DUP2 SUB PUSH1 0x0 DUP4 ADD MSTORE PUSH2 0x106E DUP2 PUSH2 0xEBF JUMP JUMPDEST SWAP1 POP SWAP2 SWAP1 POP JUMP JUMPDEST PUSH1 0x0 PUSH1 0x20 DUP3 ADD SWAP1 POP DUP2 DUP2 SUB PUSH1 0x0 DUP4 ADD MSTORE PUSH2 0x108E DUP2 PUSH2 0xF25 JUMP JUMPDEST SWAP1 POP SWAP2 SWAP1 POP JUMP JUMPDEST PUSH1 0x0 PUSH1 0x20 DUP3 ADD SWAP1 POP DUP2 DUP2 SUB PUSH1 0x0 DUP4 ADD MSTORE PUSH2 0x10AE DUP2 PUSH2 0xF65 JUMP JUMPDEST SWAP1 POP SWAP2 SWAP1 POP JUMP JUMPDEST PUSH1 0x0 PUSH1 0x20 DUP3 ADD SWAP1 POP DUP2 DUP2 SUB PUSH1 0x0 DUP4 ADD MSTORE PUSH2 0x10CE DUP2 PUSH2 0xFCB JUMP JUMPDEST SWAP1 POP SWAP2 SWAP1 POP JUMP JUMPDEST PUSH1 0x0 PUSH1 0x20 DUP3 ADD SWAP1 POP PUSH2 0x10EA PUSH1 0x0 DUP4 ADD DUP5 PUSH2 0x100B JUMP JUMPDEST SWAP3 SWAP2 POP POP JUMP JUMPDEST PUSH1 0x0 PUSH1 0x80 DUP3 ADD SWAP1 POP PUSH2 0x1105 PUSH1 0x0 DUP4 ADD DUP8 PUSH2 0x100B JUMP JUMPDEST DUP2 DUP2 SUB PUSH1 0x20 DUP4 ADD MSTORE PUSH2 0x1117 DUP2 DUP7 PUSH2 0xE46 JUMP JUMPDEST SWAP1 POP PUSH2 0x1126 PUSH1 0x40 DUP4 ADD DUP6 PUSH2 0x100B JUMP JUMPDEST PUSH2 0x1133 PUSH1 0x60 DUP4 ADD DUP5 PUSH2 0xE37 JUMP JUMPDEST SWAP6 SWAP5 POP POP POP POP POP JUMP JUMPDEST PUSH1 0x0 DUP2 MLOAD SWAP1 POP SWAP2 SWAP1 POP JUMP JUMPDEST PUSH1 0x0 DUP3 DUP3 MSTORE PUSH1 0x20 DUP3 ADD SWAP1 POP SWAP3 SWAP2 POP POP JUMP JUMPDEST PUSH1 0x0 PUSH2 0x1163 DUP3 PUSH2 0x11CA JUMP JUMPDEST SWAP2 POP PUSH2 0x116E DUP4 PUSH2 0x11CA JUMP JUMPDEST SWAP3 POP DUP3 DUP3 LT ISZERO PUSH2 0x1181 JUMPI PUSH2 0x1180 PUSH2 0x12AC JUMP JUMPDEST JUMPDEST DUP3 DUP3 SUB SWAP1 POP SWAP3 SWAP2 POP POP JUMP JUMPDEST PUSH1 0x0 PUSH2 0x1197 DUP3 PUSH2 0x11AA JUMP JUMPDEST SWAP1 POP SWAP2 SWAP1 POP JUMP JUMPDEST PUSH1 0x0 DUP2 ISZERO ISZERO SWAP1 POP SWAP2 SWAP1 POP JUMP JUMPDEST PUSH1 0x0 PUSH20 0xFFFFFFFFFFFFFFFFFFFFFFFFFFFFFFFFFFFFFFFF DUP3 AND SWAP1 POP SWAP2 SWAP1 POP JUMP JUMPDEST PUSH1 0x0 DUP2 SWAP1 POP SWAP2 SWAP1 POP JUMP JUMPDEST PUSH1 0x0 JUMPDEST DUP4 DUP2 LT ISZERO PUSH2 0x11F2 JUMPI DUP1 DUP3 ADD MLOAD DUP2 DUP5 ADD MSTORE PUSH1 0x20 DUP2 ADD SWAP1 POP PUSH2 0x11D7 JUMP JUMPDEST DUP4 DUP2 GT ISZERO PUSH2 0x1201 JUMPI PUSH1 0x0 DUP5 DUP5 ADD MSTORE JUMPDEST POP POP POP POP JUMP JUMPDEST PUSH1 0x0 PUSH2 0x1212 DUP3 PUSH2 0x11CA JUMP JUMPDEST SWAP2 POP PUSH1 0x0 DUP3 EQ ISZERO PUSH2 0x1226 JUMPI PUSH2 0x1225 PUSH2 0x12AC JUMP JUMPDEST JUMPDEST PUSH1 0x1 DUP3 SUB SWAP1 POP SWAP2 SWAP1 POP JUMP JUMPDEST PUSH1 0x0 PUSH1 0x2 DUP3 DIV SWAP1 POP PUSH1 0x1 DUP3 AND DUP1 PUSH2 0x1249 JUMPI PUSH1 0x7F DUP3 AND SWAP2 POP JUMPDEST PUSH1 0x20 DUP3 LT DUP2 EQ ISZERO PUSH2 0x125D JUMPI PUSH2 0x125C PUSH2 0x12DB JUMP JUMPDEST JUMPDEST POP SWAP2 SWAP1 POP JUMP JUMPDEST PUSH1 0x0 PUSH2 0x126E DUP3 PUSH2 0x11CA JUMP JUMPDEST SWAP2 POP PUSH32 0xFFFFFFFFFFFFFFFFFFFFFFFFFFFFFFFFFFFFFFFFFFFFFFFFFFFFFFFFFFFFFFFF DUP3 EQ ISZERO PUSH2 0x12A1 JUMPI PUSH2 0x12A0 PUSH2 0x12AC JUMP JUMPDEST JUMPDEST PUSH1 0x1 DUP3 ADD SWAP1 POP SWAP2 SWAP1 POP JUMP JUMPDEST PUSH32 0x4E487B7100000000000000000000000000000000000000000000000000000000 PUSH1 0x0 MSTORE PUSH1 0x11 PUSH1 0x4 MSTORE PUSH1 0x24 PUSH1 0x0 REVERT JUMPDEST PUSH32 0x4E487B7100000000000000000000000000000000000000000000000000000000 PUSH1 0x0 MSTORE PUSH1 0x22 PUSH1 0x4 MSTORE PUSH1 0x24 PUSH1 0x0 REVERT JUMPDEST PUSH1 0x0 PUSH1 0x1F NOT PUSH1 0x1F DUP4 ADD AND SWAP1 POP SWAP2 SWAP1 POP JUMP JUMPDEST PUSH2 0x1324 DUP2 PUSH2 0x118C JUMP JUMPDEST DUP2 EQ PUSH2 0x132F JUMPI PUSH1 0x0 DUP1 REVERT JUMPDEST POP JUMP JUMPDEST PUSH2 0x133B DUP2 PUSH2 0x11CA JUMP JUMPDEST DUP2 EQ PUSH2 0x1346 JUMPI PUSH1 0x0 DUP1 REVERT JUMPDEST POP JUMP INVALID LOG2 PUSH5 0x6970667358 0x22 SLT KECCAK256 DUP5 0xB4 0xF9 SSTORE 0xC7 BLOCKHASH 0xC8 0x26 DUP6 0xB8 SWAP11 0xFC SHL 0x5F DUP2 0xE5 PUSH18 0x717CD6F663EEE7177174F58752265D64736F PUSH13 0x63430008000033000000000000 "
				},
				"gasEstimates": {
					"creation": {
						"codeDepositCost": "998200",
						"executionCost": "21900",
						"totalCost": "1020100"
					},
					"external": {
						"AddBook(string,uint256)": "infinite",
						"BookBorrowerHistory(uint256,uint256)": "infinite",
						"BookList(uint256)": "infinite",
						"BorrowBook(uint256)": "infinite",
						"ClientBorrowList(address,uint256)": "infinite",
						"ReturnBook(uint256)": "infinite",
						"owner()": "1233"
					}
				},
				"methodIdentifiers": {
					"AddBook(string,uint256)": "265be2e2",
					"BookBorrowerHistory(uint256,uint256)": "18413898",
					"BookList(uint256)": "71e25e5a",
					"BorrowBook(uint256)": "9649faa3",
					"ClientBorrowList(address,uint256)": "2b3819fe",
					"ReturnBook(uint256)": "b8dd17db",
					"owner()": "8da5cb5b"
				}
			},
			"userdoc": {
				"kind": "user",
				"methods": {},
				"version": 1
			}
		}
	}
}