{
	"Library.sol": {
		"Library": {
			"abi": [
				{
					"inputs": [],
					"stateMutability": "nonpayable",
					"type": "constructor"
				},
				{
					"inputs": [
						{
							"internalType": "string",
							"name": "bookName",
							"type": "string"
						},
						{
							"internalType": "uint256",
							"name": "quantity",
							"type": "uint256"
						}
					],
					"name": "AddBook",
					"outputs": [],
					"stateMutability": "nonpayable",
					"type": "function"
				},
				{
					"inputs": [
						{
							"internalType": "uint256",
							"name": "",
							"type": "uint256"
						},
						{
							"internalType": "uint256",
							"name": "",
							"type": "uint256"
						}
					],
					"name": "BookBorrowerHistory",
					"outputs": [
						{
							"internalType": "address",
							"name": "",
							"type": "address"
						}
					],
					"stateMutability": "view",
					"type": "function"
				},
				{
					"inputs": [
						{
							"internalType": "uint256",
							"name": "",
							"type": "uint256"
						}
					],
					"name": "BookList",
					"outputs": [
						{
							"internalType": "uint256",
							"name": "id",
							"type": "uint256"
						},
						{
							"internalType": "string",
							"name": "name",
							"type": "string"
						},
						{
							"internalType": "uint256",
							"name": "quantity",
							"type": "uint256"
						},
						{
							"internalType": "bool",
							"name": "exists",
							"type": "bool"
						}
					],
					"stateMutability": "view",
					"type": "function"
				},
				{
					"inputs": [
						{
							"internalType": "uint256",
							"name": "bookId",
							"type": "uint256"
						}
					],
					"name": "BorrowBook",
					"outputs": [],
					"stateMutability": "nonpayable",
					"type": "function"
				},
				{
					"inputs": [
						{
							"internalType": "address",
							"name": "",
							"type": "address"
						},
						{
							"internalType": "uint256",
							"name": "",
							"type": "uint256"
						}
					],
					"name": "ClientBorrowList",
					"outputs": [
						{
							"internalType": "uint256",
							"name": "",
							"type": "uint256"
						}
					],
					"stateMutability": "view",
					"type": "function"
				},
				{
					"inputs": [
						{
							"internalType": "uint256",
							"name": "bookId",
							"type": "uint256"
						}
					],
					"name": "ReturnBook",
					"outputs": [],
					"stateMutability": "nonpayable",
					"type": "function"
				},
				{
					"inputs": [],
					"name": "owner",
					"outputs": [
						{
							"internalType": "address",
							"name": "",
							"type": "address"
						}
					],
					"stateMutability": "view",
					"type": "function"
				}
			],
			"devdoc": {
				"kind": "dev",
				"methods": {},
				"version": 1
			},
			"evm": {
				"assembly": "    /* \"Library.sol\":88:2105  contract Library is Helpers{... */\n  mstore(0x40, 0x80)\n    /* \"Library.sol\":681:729  constructor(){... */\n  callvalue\n  dup1\n  iszero\n  tag_1\n  jumpi\n  0x00\n  dup1\n  revert\ntag_1:\n  pop\n    /* \"Library.sol\":712:722  msg.sender */\n  caller\n    /* \"Library.sol\":704:709  owner */\n  0x00\n  dup1\n    /* \"Library.sol\":704:722  owner = msg.sender */\n  0x0100\n  exp\n  dup2\n  sload\n  dup2\n  0xffffffffffffffffffffffffffffffffffffffff\n  mul\n  not\n  and\n  swap1\n  dup4\n  0xffffffffffffffffffffffffffffffffffffffff\n  and\n  mul\n  or\n  swap1\n  sstore\n  pop\n    /* \"Library.sol\":88:2105  contract Library is Helpers{... */\n  dataSize(sub_0)\n  dup1\n  dataOffset(sub_0)\n  0x00\n  codecopy\n  0x00\n  return\nstop\n\nsub_0: assembly {\n        /* \"Library.sol\":88:2105  contract Library is Helpers{... */\n      mstore(0x40, 0x80)\n      callvalue\n      dup1\n      iszero\n      tag_1\n      jumpi\n      0x00\n      dup1\n      revert\n    tag_1:\n      pop\n      jumpi(tag_2, lt(calldatasize, 0x04))\n      shr(0xe0, calldataload(0x00))\n      dup1\n      0x71e25e5a\n      gt\n      tag_10\n      jumpi\n      dup1\n      0x71e25e5a\n      eq\n      tag_6\n      jumpi\n      dup1\n      0x8da5cb5b\n      eq\n      tag_7\n      jumpi\n      dup1\n      0x9649faa3\n      eq\n      tag_8\n      jumpi\n      dup1\n      0xb8dd17db\n      eq\n      tag_9\n      jumpi\n      jump(tag_2)\n    tag_10:\n      dup1\n      0x18413898\n      eq\n      tag_3\n      jumpi\n      dup1\n      0x265be2e2\n      eq\n      tag_4\n      jumpi\n      dup1\n      0x2b3819fe\n      eq\n      tag_5\n      jumpi\n    tag_2:\n      0x00\n      dup1\n      revert\n        /* \"Library.sol\":318:371  mapping(uint => address[]) public BookBorrowerHistory */\n    tag_3:\n      tag_11\n      0x04\n      dup1\n      calldatasize\n      sub\n      dup2\n      add\n      swap1\n      tag_12\n      swap2\n      swap1\n      tag_13\n      jump\t// in\n    tag_12:\n      tag_14\n      jump\t// in\n    tag_11:\n      mload(0x40)\n      tag_15\n      swap2\n      swap1\n      tag_16\n      jump\t// in\n    tag_15:\n      mload(0x40)\n      dup1\n      swap2\n      sub\n      swap1\n      return\n        /* \"Library.sol\":735:1136  function AddBook(string calldata bookName, uint quantity) public onlyOwnable bookExists(counter){... */\n    tag_4:\n      tag_17\n      0x04\n      dup1\n      calldatasize\n      sub\n      dup2\n      add\n      swap1\n      tag_18\n      swap2\n      swap1\n      tag_19\n      jump\t// in\n    tag_18:\n      tag_20\n      jump\t// in\n    tag_17:\n      stop\n        /* \"Library.sol\":378:428  mapping(address => uint[]) public ClientBorrowList */\n    tag_5:\n      tag_21\n      0x04\n      dup1\n      calldatasize\n      sub\n      dup2\n      add\n      swap1\n      tag_22\n      swap2\n      swap1\n      tag_23\n      jump\t// in\n    tag_22:\n      tag_24\n      jump\t// in\n    tag_21:\n      mload(0x40)\n      tag_25\n      swap2\n      swap1\n      tag_26\n      jump\t// in\n    tag_25:\n      mload(0x40)\n      dup1\n      swap2\n      sub\n      swap1\n      return\n        /* \"Library.sol\":274:311  mapping(uint => Book) public BookList */\n    tag_6:\n      tag_27\n      0x04\n      dup1\n      calldatasize\n      sub\n      dup2\n      add\n      swap1\n      tag_28\n      swap2\n      swap1\n      tag_29\n      jump\t// in\n    tag_28:\n      tag_30\n      jump\t// in\n    tag_27:\n      mload(0x40)\n      tag_31\n      swap5\n      swap4\n      swap3\n      swap2\n      swap1\n      tag_32\n      jump\t// in\n    tag_31:\n      mload(0x40)\n      dup1\n      swap2\n      sub\n      swap1\n      return\n        /* \"Library.sol\":121:141  address public owner */\n    tag_7:\n      tag_33\n      tag_34\n      jump\t// in\n    tag_33:\n      mload(0x40)\n      tag_35\n      swap2\n      swap1\n      tag_16\n      jump\t// in\n    tag_35:\n      mload(0x40)\n      dup1\n      swap2\n      sub\n      swap1\n      return\n        /* \"Library.sol\":1142:1714  function BorrowBook(uint bookId) public bookExists(bookId){    ... */\n    tag_8:\n      tag_36\n      0x04\n      dup1\n      calldatasize\n      sub\n      dup2\n      add\n      swap1\n      tag_37\n      swap2\n      swap1\n      tag_29\n      jump\t// in\n    tag_37:\n      tag_38\n      jump\t// in\n    tag_36:\n      stop\n        /* \"Library.sol\":1720:2103  function ReturnBook(uint bookId) public bookExists(bookId){... */\n    tag_9:\n      tag_39\n      0x04\n      dup1\n      calldatasize\n      sub\n      dup2\n      add\n      swap1\n      tag_40\n      swap2\n      swap1\n      tag_29\n      jump\t// in\n    tag_40:\n      tag_41\n      jump\t// in\n    tag_39:\n      stop\n        /* \"Library.sol\":318:371  mapping(uint => address[]) public BookBorrowerHistory */\n    tag_14:\n      mstore(0x20, 0x03)\n      dup2\n      0x00\n      mstore\n      keccak256(0x00, 0x40)\n      dup2\n      dup2\n      sload\n      dup2\n      lt\n      tag_42\n      jumpi\n      0x00\n      dup1\n      revert\n    tag_42:\n      swap1\n      0x00\n      mstore\n      keccak256(0x00, 0x20)\n      add\n      0x00\n      swap2\n      pop\n      swap2\n      pop\n      swap1\n      sload\n      swap1\n      0x0100\n      exp\n      swap1\n      div\n      0xffffffffffffffffffffffffffffffffffffffff\n      and\n      dup2\n      jump\t// out\n        /* \"Library.sol\":735:1136  function AddBook(string calldata bookName, uint quantity) public onlyOwnable bookExists(counter){... */\n    tag_20:\n        /* \"Library.sol\":489:494  owner */\n      0x00\n      dup1\n      sload\n      swap1\n      0x0100\n      exp\n      swap1\n      div\n      0xffffffffffffffffffffffffffffffffffffffff\n      and\n        /* \"Library.sol\":475:494  msg.sender == owner */\n      0xffffffffffffffffffffffffffffffffffffffff\n      and\n        /* \"Library.sol\":475:485  msg.sender */\n      caller\n        /* \"Library.sol\":475:494  msg.sender == owner */\n      0xffffffffffffffffffffffffffffffffffffffff\n      and\n      eq\n        /* \"Library.sol\":467:525  require(msg.sender == owner, \"Current user is not owner!\") */\n      tag_45\n      jumpi\n      mload(0x40)\n      0x08c379a000000000000000000000000000000000000000000000000000000000\n      dup2\n      mstore\n      0x04\n      add\n      tag_46\n      swap1\n      tag_47\n      jump\t// in\n    tag_46:\n      mload(0x40)\n      dup1\n      swap2\n      sub\n      swap1\n      revert\n    tag_45:\n        /* \"Library.sol\":823:830  counter */\n      sload(0x01)\n        /* \"Library.sol\":599:607  BookList */\n      0x02\n        /* \"Library.sol\":599:615  BookList[bookId] */\n      0x00\n        /* \"Library.sol\":608:614  bookId */\n      dup3\n        /* \"Library.sol\":599:615  BookList[bookId] */\n      dup2\n      mstore\n      0x20\n      add\n      swap1\n      dup2\n      mstore\n      0x20\n      add\n      0x00\n      keccak256\n        /* \"Library.sol\":599:622  BookList[bookId].exists */\n      0x03\n      add\n      0x00\n      swap1\n      sload\n      swap1\n      0x0100\n      exp\n      swap1\n      div\n      0xff\n      and\n        /* \"Library.sol\":591:657  require(BookList[bookId].exists,\"Book does not exist in library!\") */\n      tag_49\n      jumpi\n      mload(0x40)\n      0x08c379a000000000000000000000000000000000000000000000000000000000\n      dup2\n      mstore\n      0x04\n      add\n      tag_50\n      swap1\n      tag_51\n      jump\t// in\n    tag_50:\n      mload(0x40)\n      dup1\n      swap2\n      sub\n      swap1\n      revert\n    tag_49:\n        /* \"Library.sol\":844:852  BookList */\n      0x02\n        /* \"Library.sol\":844:861  BookList[counter] */\n      0x00\n        /* \"Library.sol\":853:860  counter */\n      sload(0x01)\n        /* \"Library.sol\":844:861  BookList[counter] */\n      dup2\n      mstore\n      0x20\n      add\n      swap1\n      dup2\n      mstore\n      0x20\n      add\n      0x00\n      keccak256\n        /* \"Library.sol\":844:868  BookList[counter].exists */\n      0x03\n      add\n      0x00\n      swap1\n      sload\n      swap1\n      0x0100\n      exp\n      swap1\n      div\n      0xff\n      and\n        /* \"Library.sol\":841:939  if(BookList[counter].exists){... */\n      iszero\n      tag_53\n      jumpi\n        /* \"Library.sol\":883:928  revert(\"Book already exists in the Library!\") */\n      mload(0x40)\n      0x08c379a000000000000000000000000000000000000000000000000000000000\n      dup2\n      mstore\n      0x04\n      add\n      tag_54\n      swap1\n      tag_55\n      jump\t// in\n    tag_54:\n      mload(0x40)\n      dup1\n      swap2\n      sub\n      swap1\n      revert\n        /* \"Library.sol\":841:939  if(BookList[counter].exists){... */\n    tag_53:\n        /* \"Library.sol\":972:979  counter */\n      sload(0x01)\n        /* \"Library.sol\":949:957  BookList */\n      0x02\n        /* \"Library.sol\":949:966  BookList[counter] */\n      0x00\n        /* \"Library.sol\":958:965  counter */\n      sload(0x01)\n        /* \"Library.sol\":949:966  BookList[counter] */\n      dup2\n      mstore\n      0x20\n      add\n      swap1\n      dup2\n      mstore\n      0x20\n      add\n      0x00\n      keccak256\n        /* \"Library.sol\":949:969  BookList[counter].id */\n      0x00\n      add\n        /* \"Library.sol\":949:979  BookList[counter].id = counter */\n      dup2\n      swap1\n      sstore\n      pop\n        /* \"Library.sol\":1014:1022  bookName */\n      dup4\n      dup4\n        /* \"Library.sol\":989:997  BookList */\n      0x02\n        /* \"Library.sol\":989:1006  BookList[counter] */\n      0x00\n        /* \"Library.sol\":998:1005  counter */\n      sload(0x01)\n        /* \"Library.sol\":989:1006  BookList[counter] */\n      dup2\n      mstore\n      0x20\n      add\n      swap1\n      dup2\n      mstore\n      0x20\n      add\n      0x00\n      keccak256\n        /* \"Library.sol\":989:1011  BookList[counter].name */\n      0x01\n      add\n        /* \"Library.sol\":989:1022  BookList[counter].name = bookName */\n      swap2\n      swap1\n      tag_56\n      swap3\n      swap2\n      swap1\n      tag_57\n      jump\t// in\n    tag_56:\n      pop\n        /* \"Library.sol\":1061:1069  quantity */\n      dup2\n        /* \"Library.sol\":1032:1040  BookList */\n      0x02\n        /* \"Library.sol\":1032:1049  BookList[counter] */\n      0x00\n        /* \"Library.sol\":1041:1048  counter */\n      sload(0x01)\n        /* \"Library.sol\":1032:1049  BookList[counter] */\n      dup2\n      mstore\n      0x20\n      add\n      swap1\n      dup2\n      mstore\n      0x20\n      add\n      0x00\n      keccak256\n        /* \"Library.sol\":1032:1058  BookList[counter].quantity */\n      0x02\n      add\n        /* \"Library.sol\":1032:1069  BookList[counter].quantity = quantity */\n      dup2\n      swap1\n      sstore\n      pop\n        /* \"Library.sol\":1106:1110  true */\n      0x01\n        /* \"Library.sol\":1079:1087  BookList */\n      0x02\n        /* \"Library.sol\":1079:1096  BookList[counter] */\n      0x00\n        /* \"Library.sol\":1088:1095  counter */\n      sload(0x01)\n        /* \"Library.sol\":1079:1096  BookList[counter] */\n      dup2\n      mstore\n      0x20\n      add\n      swap1\n      dup2\n      mstore\n      0x20\n      add\n      0x00\n      keccak256\n        /* \"Library.sol\":1079:1103  BookList[counter].exists */\n      0x03\n      add\n      0x00\n        /* \"Library.sol\":1079:1110  BookList[counter].exists = true */\n      0x0100\n      exp\n      dup2\n      sload\n      dup2\n      0xff\n      mul\n      not\n      and\n      swap1\n      dup4\n      iszero\n      iszero\n      mul\n      or\n      swap1\n      sstore\n      pop\n        /* \"Library.sol\":1120:1127  counter */\n      0x01\n      0x00\n        /* \"Library.sol\":1120:1129  counter++ */\n      dup2\n      sload\n      dup1\n      swap3\n      swap2\n      swap1\n      tag_58\n      swap1\n      tag_59\n      jump\t// in\n    tag_58:\n      swap2\n      swap1\n      pop\n      sstore\n      pop\n        /* \"Library.sol\":535:536  _ */\n      pop\n        /* \"Library.sol\":735:1136  function AddBook(string calldata bookName, uint quantity) public onlyOwnable bookExists(counter){... */\n      pop\n      pop\n      pop\n      jump\t// out\n        /* \"Library.sol\":378:428  mapping(address => uint[]) public ClientBorrowList */\n    tag_24:\n      mstore(0x20, 0x04)\n      dup2\n      0x00\n      mstore\n      keccak256(0x00, 0x40)\n      dup2\n      dup2\n      sload\n      dup2\n      lt\n      tag_60\n      jumpi\n      0x00\n      dup1\n      revert\n    tag_60:\n      swap1\n      0x00\n      mstore\n      keccak256(0x00, 0x20)\n      add\n      0x00\n      swap2\n      pop\n      swap2\n      pop\n      pop\n      sload\n      dup2\n      jump\t// out\n        /* \"Library.sol\":274:311  mapping(uint => Book) public BookList */\n    tag_30:\n      mstore(0x20, 0x02)\n      dup1\n      0x00\n      mstore\n      keccak256(0x00, 0x40)\n      0x00\n      swap2\n      pop\n      swap1\n      pop\n      dup1\n      0x00\n      add\n      sload\n      swap1\n      dup1\n      0x01\n      add\n      dup1\n      sload\n      tag_62\n      swap1\n      tag_63\n      jump\t// in\n    tag_62:\n      dup1\n      0x1f\n      add\n      0x20\n      dup1\n      swap2\n      div\n      mul\n      0x20\n      add\n      mload(0x40)\n      swap1\n      dup2\n      add\n      0x40\n      mstore\n      dup1\n      swap3\n      swap2\n      swap1\n      dup2\n      dup2\n      mstore\n      0x20\n      add\n      dup3\n      dup1\n      sload\n      tag_64\n      swap1\n      tag_63\n      jump\t// in\n    tag_64:\n      dup1\n      iszero\n      tag_65\n      jumpi\n      dup1\n      0x1f\n      lt\n      tag_66\n      jumpi\n      0x0100\n      dup1\n      dup4\n      sload\n      div\n      mul\n      dup4\n      mstore\n      swap2\n      0x20\n      add\n      swap2\n      jump(tag_65)\n    tag_66:\n      dup3\n      add\n      swap2\n      swap1\n      0x00\n      mstore\n      keccak256(0x00, 0x20)\n      swap1\n    tag_67:\n      dup2\n      sload\n      dup2\n      mstore\n      swap1\n      0x01\n      add\n      swap1\n      0x20\n      add\n      dup1\n      dup4\n      gt\n      tag_67\n      jumpi\n      dup3\n      swap1\n      sub\n      0x1f\n      and\n      dup3\n      add\n      swap2\n    tag_65:\n      pop\n      pop\n      pop\n      pop\n      pop\n      swap1\n      dup1\n      0x02\n      add\n      sload\n      swap1\n      dup1\n      0x03\n      add\n      0x00\n      swap1\n      sload\n      swap1\n      0x0100\n      exp\n      swap1\n      div\n      0xff\n      and\n      swap1\n      pop\n      dup5\n      jump\t// out\n        /* \"Library.sol\":121:141  address public owner */\n    tag_34:\n      0x00\n      dup1\n      sload\n      swap1\n      0x0100\n      exp\n      swap1\n      div\n      0xffffffffffffffffffffffffffffffffffffffff\n      and\n      dup2\n      jump\t// out\n        /* \"Library.sol\":1142:1714  function BorrowBook(uint bookId) public bookExists(bookId){    ... */\n    tag_38:\n        /* \"Library.sol\":1193:1199  bookId */\n      dup1\n        /* \"Library.sol\":599:607  BookList */\n      0x02\n        /* \"Library.sol\":599:615  BookList[bookId] */\n      0x00\n        /* \"Library.sol\":608:614  bookId */\n      dup3\n        /* \"Library.sol\":599:615  BookList[bookId] */\n      dup2\n      mstore\n      0x20\n      add\n      swap1\n      dup2\n      mstore\n      0x20\n      add\n      0x00\n      keccak256\n        /* \"Library.sol\":599:622  BookList[bookId].exists */\n      0x03\n      add\n      0x00\n      swap1\n      sload\n      swap1\n      0x0100\n      exp\n      swap1\n      div\n      0xff\n      and\n        /* \"Library.sol\":591:657  require(BookList[bookId].exists,\"Book does not exist in library!\") */\n      tag_69\n      jumpi\n      mload(0x40)\n      0x08c379a000000000000000000000000000000000000000000000000000000000\n      dup2\n      mstore\n      0x04\n      add\n      tag_70\n      swap1\n      tag_51\n      jump\t// in\n    tag_70:\n      mload(0x40)\n      dup1\n      swap2\n      sub\n      swap1\n      revert\n    tag_69:\n        /* \"Library.sol\":1244:1245  0 */\n      0x00\n        /* \"Library.sol\":1217:1225  BookList */\n      0x02\n        /* \"Library.sol\":1217:1233  BookList[bookId] */\n      0x00\n        /* \"Library.sol\":1226:1232  bookId */\n      dup5\n        /* \"Library.sol\":1217:1233  BookList[bookId] */\n      dup2\n      mstore\n      0x20\n      add\n      swap1\n      dup2\n      mstore\n      0x20\n      add\n      0x00\n      keccak256\n        /* \"Library.sol\":1217:1242  BookList[bookId].quantity */\n      0x02\n      add\n      sload\n        /* \"Library.sol\":1217:1245  BookList[bookId].quantity==0 */\n      eq\n        /* \"Library.sol\":1214:1317  if(BookList[bookId].quantity==0){... */\n      iszero\n      tag_72\n      jumpi\n        /* \"Library.sol\":1260:1306  revert(\"This book is out of stock currently!\") */\n      mload(0x40)\n      0x08c379a000000000000000000000000000000000000000000000000000000000\n      dup2\n      mstore\n      0x04\n      add\n      tag_73\n      swap1\n      tag_74\n      jump\t// in\n    tag_73:\n      mload(0x40)\n      dup1\n      swap2\n      sub\n      swap1\n      revert\n        /* \"Library.sol\":1214:1317  if(BookList[bookId].quantity==0){... */\n    tag_72:\n        /* \"Library.sol\":1333:1390  intArrContainsValue(bookId, ClientBorrowList[msg.sender]) */\n      tag_75\n        /* \"Library.sol\":1353:1359  bookId */\n      dup3\n        /* \"Library.sol\":1361:1377  ClientBorrowList */\n      0x04\n        /* \"Library.sol\":1361:1389  ClientBorrowList[msg.sender] */\n      0x00\n        /* \"Library.sol\":1378:1388  msg.sender */\n      caller\n        /* \"Library.sol\":1361:1389  ClientBorrowList[msg.sender] */\n      0xffffffffffffffffffffffffffffffffffffffff\n      and\n      0xffffffffffffffffffffffffffffffffffffffff\n      and\n      dup2\n      mstore\n      0x20\n      add\n      swap1\n      dup2\n      mstore\n      0x20\n      add\n      0x00\n      keccak256\n        /* \"Library.sol\":1333:1390  intArrContainsValue(bookId, ClientBorrowList[msg.sender]) */\n      dup1\n      sload\n      dup1\n      0x20\n      mul\n      0x20\n      add\n      mload(0x40)\n      swap1\n      dup2\n      add\n      0x40\n      mstore\n      dup1\n      swap3\n      swap2\n      swap1\n      dup2\n      dup2\n      mstore\n      0x20\n      add\n      dup3\n      dup1\n      sload\n      dup1\n      iszero\n      tag_76\n      jumpi\n      0x20\n      mul\n      dup3\n      add\n      swap2\n      swap1\n      0x00\n      mstore\n      keccak256(0x00, 0x20)\n      swap1\n    tag_77:\n      dup2\n      sload\n      dup2\n      mstore\n      0x20\n      add\n      swap1\n      0x01\n      add\n      swap1\n      dup1\n      dup4\n      gt\n      tag_77\n      jumpi\n    tag_76:\n      pop\n      pop\n      pop\n      pop\n      pop\n        /* \"Library.sol\":1333:1352  intArrContainsValue */\n      tag_78\n        /* \"Library.sol\":1333:1390  intArrContainsValue(bookId, ClientBorrowList[msg.sender]) */\n      jump\t// in\n    tag_75:\n        /* \"Library.sol\":1330:1460  if(intArrContainsValue(bookId, ClientBorrowList[msg.sender])){... */\n      iszero\n      tag_79\n      jumpi\n        /* \"Library.sol\":1405:1449  revert(\"You've already borrowed that book!\") */\n      mload(0x40)\n      0x08c379a000000000000000000000000000000000000000000000000000000000\n      dup2\n      mstore\n      0x04\n      add\n      tag_80\n      swap1\n      tag_81\n      jump\t// in\n    tag_80:\n      mload(0x40)\n      dup1\n      swap2\n      sub\n      swap1\n      revert\n        /* \"Library.sol\":1330:1460  if(intArrContainsValue(bookId, ClientBorrowList[msg.sender])){... */\n    tag_79:\n        /* \"Library.sol\":1470:1486  ClientBorrowList */\n      0x04\n        /* \"Library.sol\":1470:1498  ClientBorrowList[msg.sender] */\n      0x00\n        /* \"Library.sol\":1487:1497  msg.sender */\n      caller\n        /* \"Library.sol\":1470:1498  ClientBorrowList[msg.sender] */\n      0xffffffffffffffffffffffffffffffffffffffff\n      and\n      0xffffffffffffffffffffffffffffffffffffffff\n      and\n      dup2\n      mstore\n      0x20\n      add\n      swap1\n      dup2\n      mstore\n      0x20\n      add\n      0x00\n      keccak256\n        /* \"Library.sol\":1504:1510  bookId */\n      dup3\n        /* \"Library.sol\":1470:1511  ClientBorrowList[msg.sender].push(bookId) */\n      swap1\n      dup1\n      0x01\n      dup2\n      sload\n      add\n      dup1\n      dup3\n      sstore\n      dup1\n      swap2\n      pop\n      pop\n      0x01\n      swap1\n      sub\n      swap1\n      0x00\n      mstore\n      keccak256(0x00, 0x20)\n      add\n      0x00\n      swap1\n      swap2\n      swap1\n      swap2\n      swap1\n      swap2\n      pop\n      sstore\n        /* \"Library.sol\":1527:1591  addressArrContainsValue(msg.sender, BookBorrowerHistory[bookId]) */\n      tag_83\n        /* \"Library.sol\":1551:1561  msg.sender */\n      caller\n        /* \"Library.sol\":1563:1582  BookBorrowerHistory */\n      0x03\n        /* \"Library.sol\":1563:1590  BookBorrowerHistory[bookId] */\n      0x00\n        /* \"Library.sol\":1583:1589  bookId */\n      dup6\n        /* \"Library.sol\":1563:1590  BookBorrowerHistory[bookId] */\n      dup2\n      mstore\n      0x20\n      add\n      swap1\n      dup2\n      mstore\n      0x20\n      add\n      0x00\n      keccak256\n        /* \"Library.sol\":1527:1591  addressArrContainsValue(msg.sender, BookBorrowerHistory[bookId]) */\n      dup1\n      sload\n      dup1\n      0x20\n      mul\n      0x20\n      add\n      mload(0x40)\n      swap1\n      dup2\n      add\n      0x40\n      mstore\n      dup1\n      swap3\n      swap2\n      swap1\n      dup2\n      dup2\n      mstore\n      0x20\n      add\n      dup3\n      dup1\n      sload\n      dup1\n      iszero\n      tag_84\n      jumpi\n      0x20\n      mul\n      dup3\n      add\n      swap2\n      swap1\n      0x00\n      mstore\n      keccak256(0x00, 0x20)\n      swap1\n    tag_85:\n      dup2\n      0x00\n      swap1\n      sload\n      swap1\n      0x0100\n      exp\n      swap1\n      div\n      0xffffffffffffffffffffffffffffffffffffffff\n      and\n      0xffffffffffffffffffffffffffffffffffffffff\n      and\n      dup2\n      mstore\n      0x20\n      add\n      swap1\n      0x01\n      add\n      swap1\n      dup1\n      dup4\n      gt\n      tag_85\n      jumpi\n    tag_84:\n      pop\n      pop\n      pop\n      pop\n      pop\n        /* \"Library.sol\":1527:1550  addressArrContainsValue */\n      tag_86\n        /* \"Library.sol\":1527:1591  addressArrContainsValue(msg.sender, BookBorrowerHistory[bookId]) */\n      jump\t// in\n    tag_83:\n        /* \"Library.sol\":1523:1669  if(!addressArrContainsValue(msg.sender, BookBorrowerHistory[bookId])){... */\n      tag_87\n      jumpi\n        /* \"Library.sol\":1606:1625  BookBorrowerHistory */\n      0x03\n        /* \"Library.sol\":1606:1633  BookBorrowerHistory[bookId] */\n      0x00\n        /* \"Library.sol\":1626:1632  bookId */\n      dup4\n        /* \"Library.sol\":1606:1633  BookBorrowerHistory[bookId] */\n      dup2\n      mstore\n      0x20\n      add\n      swap1\n      dup2\n      mstore\n      0x20\n      add\n      0x00\n      keccak256\n        /* \"Library.sol\":1639:1649  msg.sender */\n      caller\n        /* \"Library.sol\":1606:1650  BookBorrowerHistory[bookId].push(msg.sender) */\n      swap1\n      dup1\n      0x01\n      dup2\n      sload\n      add\n      dup1\n      dup3\n      sstore\n      dup1\n      swap2\n      pop\n      pop\n      0x01\n      swap1\n      sub\n      swap1\n      0x00\n      mstore\n      keccak256(0x00, 0x20)\n      add\n      0x00\n      swap1\n      swap2\n      swap1\n      swap2\n      swap1\n      swap2\n      0x0100\n      exp\n      dup2\n      sload\n      dup2\n      0xffffffffffffffffffffffffffffffffffffffff\n      mul\n      not\n      and\n      swap1\n      dup4\n      0xffffffffffffffffffffffffffffffffffffffff\n      and\n      mul\n      or\n      swap1\n      sstore\n      pop\n        /* \"Library.sol\":1523:1669  if(!addressArrContainsValue(msg.sender, BookBorrowerHistory[bookId])){... */\n    tag_87:\n        /* \"Library.sol\":1679:1687  BookList */\n      0x02\n        /* \"Library.sol\":1679:1695  BookList[bookId] */\n      0x00\n        /* \"Library.sol\":1688:1694  bookId */\n      dup4\n        /* \"Library.sol\":1679:1695  BookList[bookId] */\n      dup2\n      mstore\n      0x20\n      add\n      swap1\n      dup2\n      mstore\n      0x20\n      add\n      0x00\n      keccak256\n        /* \"Library.sol\":1679:1704  BookList[bookId].quantity */\n      0x02\n      add\n      0x00\n        /* \"Library.sol\":1679:1707  BookList[bookId].quantity -- */\n      dup2\n      sload\n      dup1\n      swap3\n      swap2\n      swap1\n      tag_89\n      swap1\n      tag_90\n      jump\t// in\n    tag_89:\n      swap2\n      swap1\n      pop\n      sstore\n      pop\n        /* \"Library.sol\":1142:1714  function BorrowBook(uint bookId) public bookExists(bookId){    ... */\n      pop\n      pop\n      jump\t// out\n        /* \"Library.sol\":1720:2103  function ReturnBook(uint bookId) public bookExists(bookId){... */\n    tag_41:\n        /* \"Library.sol\":1771:1777  bookId */\n      dup1\n        /* \"Library.sol\":599:607  BookList */\n      0x02\n        /* \"Library.sol\":599:615  BookList[bookId] */\n      0x00\n        /* \"Library.sol\":608:614  bookId */\n      dup3\n        /* \"Library.sol\":599:615  BookList[bookId] */\n      dup2\n      mstore\n      0x20\n      add\n      swap1\n      dup2\n      mstore\n      0x20\n      add\n      0x00\n      keccak256\n        /* \"Library.sol\":599:622  BookList[bookId].exists */\n      0x03\n      add\n      0x00\n      swap1\n      sload\n      swap1\n      0x0100\n      exp\n      swap1\n      div\n      0xff\n      and\n        /* \"Library.sol\":591:657  require(BookList[bookId].exists,\"Book does not exist in library!\") */\n      tag_92\n      jumpi\n      mload(0x40)\n      0x08c379a000000000000000000000000000000000000000000000000000000000\n      dup2\n      mstore\n      0x04\n      add\n      tag_93\n      swap1\n      tag_51\n      jump\t// in\n    tag_93:\n      mload(0x40)\n      dup1\n      swap2\n      sub\n      swap1\n      revert\n    tag_92:\n        /* \"Library.sol\":1792:1849  intArrContainsValue(bookId, ClientBorrowList[msg.sender]) */\n      tag_95\n        /* \"Library.sol\":1812:1818  bookId */\n      dup3\n        /* \"Library.sol\":1820:1836  ClientBorrowList */\n      0x04\n        /* \"Library.sol\":1820:1848  ClientBorrowList[msg.sender] */\n      0x00\n        /* \"Library.sol\":1837:1847  msg.sender */\n      caller\n        /* \"Library.sol\":1820:1848  ClientBorrowList[msg.sender] */\n      0xffffffffffffffffffffffffffffffffffffffff\n      and\n      0xffffffffffffffffffffffffffffffffffffffff\n      and\n      dup2\n      mstore\n      0x20\n      add\n      swap1\n      dup2\n      mstore\n      0x20\n      add\n      0x00\n      keccak256\n        /* \"Library.sol\":1792:1849  intArrContainsValue(bookId, ClientBorrowList[msg.sender]) */\n      dup1\n      sload\n      dup1\n      0x20\n      mul\n      0x20\n      add\n      mload(0x40)\n      swap1\n      dup2\n      add\n      0x40\n      mstore\n      dup1\n      swap3\n      swap2\n      swap1\n      dup2\n      dup2\n      mstore\n      0x20\n      add\n      dup3\n      dup1\n      sload\n      dup1\n      iszero\n      tag_96\n      jumpi\n      0x20\n      mul\n      dup3\n      add\n      swap2\n      swap1\n      0x00\n      mstore\n      keccak256(0x00, 0x20)\n      swap1\n    tag_97:\n      dup2\n      sload\n      dup2\n      mstore\n      0x20\n      add\n      swap1\n      0x01\n      add\n      swap1\n      dup1\n      dup4\n      gt\n      tag_97\n      jumpi\n    tag_96:\n      pop\n      pop\n      pop\n      pop\n      pop\n        /* \"Library.sol\":1792:1811  intArrContainsValue */\n      tag_78\n        /* \"Library.sol\":1792:1849  intArrContainsValue(bookId, ClientBorrowList[msg.sender]) */\n      jump\t// in\n    tag_95:\n        /* \"Library.sol\":1788:1915  if(!intArrContainsValue(bookId, ClientBorrowList[msg.sender])){... */\n      tag_98\n      jumpi\n        /* \"Library.sol\":1864:1904  revert(\"You havent borrowed that book!\") */\n      mload(0x40)\n      0x08c379a000000000000000000000000000000000000000000000000000000000\n      dup2\n      mstore\n      0x04\n      add\n      tag_99\n      swap1\n      tag_100\n      jump\t// in\n    tag_99:\n      mload(0x40)\n      dup1\n      swap2\n      sub\n      swap1\n      revert\n        /* \"Library.sol\":1788:1915  if(!intArrContainsValue(bookId, ClientBorrowList[msg.sender])){... */\n    tag_98:\n        /* \"Library.sol\":2001:2058  removeIntArrElement(ClientBorrowList[msg.sender], bookId) */\n      tag_101\n        /* \"Library.sol\":2021:2037  ClientBorrowList */\n      0x04\n        /* \"Library.sol\":2021:2049  ClientBorrowList[msg.sender] */\n      0x00\n        /* \"Library.sol\":2038:2048  msg.sender */\n      caller\n        /* \"Library.sol\":2021:2049  ClientBorrowList[msg.sender] */\n      0xffffffffffffffffffffffffffffffffffffffff\n      and\n      0xffffffffffffffffffffffffffffffffffffffff\n      and\n      dup2\n      mstore\n      0x20\n      add\n      swap1\n      dup2\n      mstore\n      0x20\n      add\n      0x00\n      keccak256\n        /* \"Library.sol\":2051:2057  bookId */\n      dup4\n        /* \"Library.sol\":2001:2020  removeIntArrElement */\n      tag_102\n        /* \"Library.sol\":2001:2058  removeIntArrElement(ClientBorrowList[msg.sender], bookId) */\n      jump\t// in\n    tag_101:\n        /* \"Library.sol\":2068:2076  BookList */\n      0x02\n        /* \"Library.sol\":2068:2084  BookList[bookId] */\n      0x00\n        /* \"Library.sol\":2077:2083  bookId */\n      dup4\n        /* \"Library.sol\":2068:2084  BookList[bookId] */\n      dup2\n      mstore\n      0x20\n      add\n      swap1\n      dup2\n      mstore\n      0x20\n      add\n      0x00\n      keccak256\n        /* \"Library.sol\":2068:2093  BookList[bookId].quantity */\n      0x02\n      add\n      0x00\n        /* \"Library.sol\":2068:2096  BookList[bookId].quantity ++ */\n      dup2\n      sload\n      dup1\n      swap3\n      swap2\n      swap1\n      tag_103\n      swap1\n      tag_59\n      jump\t// in\n    tag_103:\n      swap2\n      swap1\n      pop\n      sstore\n      pop\n        /* \"Library.sol\":1720:2103  function ReturnBook(uint bookId) public bookExists(bookId){... */\n      pop\n      pop\n      jump\t// out\n        /* \"Helpers.sol\":86:350  function intArrContainsValue(uint value, uint[] memory array) internal pure returns(bool){   ... */\n    tag_78:\n        /* \"Helpers.sol\":170:174  bool */\n      0x00\n        /* \"Helpers.sol\":193:199  uint i */\n      dup1\n        /* \"Helpers.sol\":200:201  0 */\n      0x00\n        /* \"Helpers.sol\":193:201  uint i=0 */\n      swap1\n      pop\n        /* \"Helpers.sol\":188:322  for (uint i=0; i < array.length; i++) {... */\n    tag_105:\n        /* \"Helpers.sol\":207:212  array */\n      dup3\n        /* \"Helpers.sol\":207:219  array.length */\n      mload\n        /* \"Helpers.sol\":203:204  i */\n      dup2\n        /* \"Helpers.sol\":203:219  i < array.length */\n      lt\n        /* \"Helpers.sol\":188:322  for (uint i=0; i < array.length; i++) {... */\n      iszero\n      tag_106\n      jumpi\n        /* \"Helpers.sol\":253:258  array */\n      dup3\n        /* \"Helpers.sol\":259:260  i */\n      dup2\n        /* \"Helpers.sol\":253:261  array[i] */\n      dup2\n      mload\n      dup2\n      lt\n      tag_108\n      jumpi\n      mstore(0x00, 0x4e487b7100000000000000000000000000000000000000000000000000000000)\n      mstore(0x04, 0x32)\n      revert(0x00, 0x24)\n    tag_108:\n      0x20\n      mul\n      0x20\n      add\n      add\n      mload\n        /* \"Helpers.sol\":244:249  value */\n      dup5\n        /* \"Helpers.sol\":244:261  value == array[i] */\n      eq\n        /* \"Helpers.sol\":240:312  if (value == array[i]) {     ... */\n      iszero\n      tag_109\n      jumpi\n        /* \"Helpers.sol\":293:297  true */\n      0x01\n        /* \"Helpers.sol\":286:297  return true */\n      swap2\n      pop\n      pop\n      jump(tag_104)\n        /* \"Helpers.sol\":240:312  if (value == array[i]) {     ... */\n    tag_109:\n        /* \"Helpers.sol\":221:224  i++ */\n      dup1\n      dup1\n      tag_110\n      swap1\n      tag_59\n      jump\t// in\n    tag_110:\n      swap2\n      pop\n      pop\n        /* \"Helpers.sol\":188:322  for (uint i=0; i < array.length; i++) {... */\n      jump(tag_105)\n    tag_106:\n      pop\n        /* \"Helpers.sol\":338:343  false */\n      0x00\n        /* \"Helpers.sol\":331:343  return false */\n      swap1\n      pop\n        /* \"Helpers.sol\":86:350  function intArrContainsValue(uint value, uint[] memory array) internal pure returns(bool){   ... */\n    tag_104:\n      swap3\n      swap2\n      pop\n      pop\n      jump\t// out\n        /* \"Helpers.sol\":356:630  function addressArrContainsValue(address value, address[] memory array) internal pure returns(bool){   ... */\n    tag_86:\n        /* \"Helpers.sol\":450:454  bool */\n      0x00\n        /* \"Helpers.sol\":473:479  uint i */\n      dup1\n        /* \"Helpers.sol\":480:481  0 */\n      0x00\n        /* \"Helpers.sol\":473:481  uint i=0 */\n      swap1\n      pop\n        /* \"Helpers.sol\":468:602  for (uint i=0; i < array.length; i++) {... */\n    tag_112:\n        /* \"Helpers.sol\":487:492  array */\n      dup3\n        /* \"Helpers.sol\":487:499  array.length */\n      mload\n        /* \"Helpers.sol\":483:484  i */\n      dup2\n        /* \"Helpers.sol\":483:499  i < array.length */\n      lt\n        /* \"Helpers.sol\":468:602  for (uint i=0; i < array.length; i++) {... */\n      iszero\n      tag_113\n      jumpi\n        /* \"Helpers.sol\":533:538  array */\n      dup3\n        /* \"Helpers.sol\":539:540  i */\n      dup2\n        /* \"Helpers.sol\":533:541  array[i] */\n      dup2\n      mload\n      dup2\n      lt\n      tag_115\n      jumpi\n      mstore(0x00, 0x4e487b7100000000000000000000000000000000000000000000000000000000)\n      mstore(0x04, 0x32)\n      revert(0x00, 0x24)\n    tag_115:\n      0x20\n      mul\n      0x20\n      add\n      add\n      mload\n        /* \"Helpers.sol\":524:541  value == array[i] */\n      0xffffffffffffffffffffffffffffffffffffffff\n      and\n        /* \"Helpers.sol\":524:529  value */\n      dup5\n        /* \"Helpers.sol\":524:541  value == array[i] */\n      0xffffffffffffffffffffffffffffffffffffffff\n      and\n      eq\n        /* \"Helpers.sol\":520:592  if (value == array[i]) {     ... */\n      iszero\n      tag_116\n      jumpi\n        /* \"Helpers.sol\":573:577  true */\n      0x01\n        /* \"Helpers.sol\":566:577  return true */\n      swap2\n      pop\n      pop\n      jump(tag_111)\n        /* \"Helpers.sol\":520:592  if (value == array[i]) {     ... */\n    tag_116:\n        /* \"Helpers.sol\":501:504  i++ */\n      dup1\n      dup1\n      tag_117\n      swap1\n      tag_59\n      jump\t// in\n    tag_117:\n      swap2\n      pop\n      pop\n        /* \"Helpers.sol\":468:602  for (uint i=0; i < array.length; i++) {... */\n      jump(tag_112)\n    tag_113:\n      pop\n        /* \"Helpers.sol\":618:623  false */\n      0x00\n        /* \"Helpers.sol\":611:623  return false */\n      swap1\n      pop\n        /* \"Helpers.sol\":356:630  function addressArrContainsValue(address value, address[] memory array) internal pure returns(bool){   ... */\n    tag_111:\n      swap3\n      swap2\n      pop\n      pop\n      jump\t// out\n        /* \"Helpers.sol\":636:899  function removeIntArrElement(uint[] storage array, uint id) internal{... */\n    tag_102:\n        /* \"Helpers.sol\":720:726  uint i */\n      0x00\n        /* \"Helpers.sol\":715:893  for (uint i=0; i < array.length; i++) {... */\n    tag_119:\n        /* \"Helpers.sol\":734:739  array */\n      dup3\n        /* \"Helpers.sol\":734:746  array.length */\n      dup1\n      sload\n      swap1\n      pop\n        /* \"Helpers.sol\":730:731  i */\n      dup2\n        /* \"Helpers.sol\":730:746  i < array.length */\n      lt\n        /* \"Helpers.sol\":715:893  for (uint i=0; i < array.length; i++) {... */\n      iszero\n      tag_120\n      jumpi\n        /* \"Helpers.sol\":777:782  array */\n      dup3\n        /* \"Helpers.sol\":783:784  i */\n      dup2\n        /* \"Helpers.sol\":777:785  array[i] */\n      dup2\n      sload\n      dup2\n      lt\n      tag_122\n      jumpi\n      mstore(0x00, 0x4e487b7100000000000000000000000000000000000000000000000000000000)\n      mstore(0x04, 0x32)\n      revert(0x00, 0x24)\n    tag_122:\n      swap1\n      0x00\n      mstore\n      keccak256(0x00, 0x20)\n      add\n      sload\n        /* \"Helpers.sol\":771:773  id */\n      dup3\n        /* \"Helpers.sol\":771:785  id == array[i] */\n      eq\n        /* \"Helpers.sol\":767:883  if (id == array[i]) {... */\n      iszero\n      tag_124\n      jumpi\n        /* \"Helpers.sol\":816:821  array */\n      dup3\n        /* \"Helpers.sol\":837:838  1 */\n      0x01\n        /* \"Helpers.sol\":822:827  array */\n      dup5\n        /* \"Helpers.sol\":822:834  array.length */\n      dup1\n      sload\n      swap1\n      pop\n        /* \"Helpers.sol\":822:838  array.length - 1 */\n      tag_125\n      swap2\n      swap1\n      tag_126\n      jump\t// in\n    tag_125:\n        /* \"Helpers.sol\":816:839  array[array.length - 1] */\n      dup2\n      sload\n      dup2\n      lt\n      tag_127\n      jumpi\n      mstore(0x00, 0x4e487b7100000000000000000000000000000000000000000000000000000000)\n      mstore(0x04, 0x32)\n      revert(0x00, 0x24)\n    tag_127:\n      swap1\n      0x00\n      mstore\n      keccak256(0x00, 0x20)\n      add\n      sload\n        /* \"Helpers.sol\":805:810  array */\n      dup4\n        /* \"Helpers.sol\":811:812  i */\n      dup3\n        /* \"Helpers.sol\":805:813  array[i] */\n      dup2\n      sload\n      dup2\n      lt\n      tag_129\n      jumpi\n      mstore(0x00, 0x4e487b7100000000000000000000000000000000000000000000000000000000)\n      mstore(0x04, 0x32)\n      revert(0x00, 0x24)\n    tag_129:\n      swap1\n      0x00\n      mstore\n      keccak256(0x00, 0x20)\n      add\n        /* \"Helpers.sol\":805:839  array[i] = array[array.length - 1] */\n      dup2\n      swap1\n      sstore\n      pop\n        /* \"Helpers.sol\":857:862  array */\n      dup3\n        /* \"Helpers.sol\":857:868  array.pop() */\n      dup1\n      sload\n      dup1\n      tag_131\n      jumpi\n      mstore(0x00, 0x4e487b7100000000000000000000000000000000000000000000000000000000)\n      mstore(0x04, 0x31)\n      revert(0x00, 0x24)\n    tag_131:\n      0x01\n      swap1\n      sub\n      dup2\n      dup2\n      swap1\n      0x00\n      mstore\n      keccak256(0x00, 0x20)\n      add\n      0x00\n      swap1\n      sstore\n      swap1\n      sstore\n        /* \"Helpers.sol\":767:883  if (id == array[i]) {... */\n    tag_124:\n        /* \"Helpers.sol\":748:751  i++ */\n      dup1\n      dup1\n      tag_133\n      swap1\n      tag_59\n      jump\t// in\n    tag_133:\n      swap2\n      pop\n      pop\n        /* \"Helpers.sol\":715:893  for (uint i=0; i < array.length; i++) {... */\n      jump(tag_119)\n    tag_120:\n      pop\n        /* \"Helpers.sol\":636:899  function removeIntArrElement(uint[] storage array, uint id) internal{... */\n      pop\n      pop\n      jump\t// out\n    tag_57:\n      dup3\n      dup1\n      sload\n      tag_134\n      swap1\n      tag_63\n      jump\t// in\n    tag_134:\n      swap1\n      0x00\n      mstore\n      keccak256(0x00, 0x20)\n      swap1\n      0x1f\n      add\n      0x20\n      swap1\n      div\n      dup2\n      add\n      swap3\n      dup3\n      tag_136\n      jumpi\n      0x00\n      dup6\n      sstore\n      jump(tag_135)\n    tag_136:\n      dup3\n      0x1f\n      lt\n      tag_137\n      jumpi\n      dup1\n      calldataload\n      not(0xff)\n      and\n      dup4\n      dup1\n      add\n      or\n      dup6\n      sstore\n      jump(tag_135)\n    tag_137:\n      dup3\n      dup1\n      add\n      0x01\n      add\n      dup6\n      sstore\n      dup3\n      iszero\n      tag_135\n      jumpi\n      swap2\n      dup3\n      add\n    tag_138:\n      dup3\n      dup2\n      gt\n      iszero\n      tag_139\n      jumpi\n      dup3\n      calldataload\n      dup3\n      sstore\n      swap2\n      0x20\n      add\n      swap2\n      swap1\n      0x01\n      add\n      swap1\n      jump(tag_138)\n    tag_139:\n    tag_135:\n      pop\n      swap1\n      pop\n      tag_140\n      swap2\n      swap1\n      tag_141\n      jump\t// in\n    tag_140:\n      pop\n      swap1\n      jump\t// out\n    tag_141:\n    tag_142:\n      dup1\n      dup3\n      gt\n      iszero\n      tag_143\n      jumpi\n      0x00\n      dup2\n      0x00\n      swap1\n      sstore\n      pop\n      0x01\n      add\n      jump(tag_142)\n    tag_143:\n      pop\n      swap1\n      jump\t// out\n        /* \"#utility.yul\":7:146   */\n    tag_145:\n      0x00\n        /* \"#utility.yul\":91:97   */\n      dup2\n        /* \"#utility.yul\":78:98   */\n      calldataload\n        /* \"#utility.yul\":69:98   */\n      swap1\n      pop\n        /* \"#utility.yul\":107:140   */\n      tag_147\n        /* \"#utility.yul\":134:139   */\n      dup2\n        /* \"#utility.yul\":107:140   */\n      tag_148\n      jump\t// in\n    tag_147:\n        /* \"#utility.yul\":59:146   */\n      swap3\n      swap2\n      pop\n      pop\n      jump\t// out\n        /* \"#utility.yul\":166:518   */\n    tag_149:\n      0x00\n      dup1\n        /* \"#utility.yul\":284:287   */\n      dup4\n        /* \"#utility.yul\":277:281   */\n      0x1f\n        /* \"#utility.yul\":269:275   */\n      dup5\n        /* \"#utility.yul\":265:282   */\n      add\n        /* \"#utility.yul\":261:288   */\n      slt\n        /* \"#utility.yul\":251:253   */\n      tag_151\n      jumpi\n        /* \"#utility.yul\":302:303   */\n      0x00\n        /* \"#utility.yul\":299:300   */\n      dup1\n        /* \"#utility.yul\":292:304   */\n      revert\n        /* \"#utility.yul\":251:253   */\n    tag_151:\n        /* \"#utility.yul\":338:344   */\n      dup3\n        /* \"#utility.yul\":325:345   */\n      calldataload\n        /* \"#utility.yul\":315:345   */\n      swap1\n      pop\n        /* \"#utility.yul\":368:386   */\n      0xffffffffffffffff\n        /* \"#utility.yul\":360:366   */\n      dup2\n        /* \"#utility.yul\":357:387   */\n      gt\n        /* \"#utility.yul\":354:356   */\n      iszero\n      tag_152\n      jumpi\n        /* \"#utility.yul\":400:401   */\n      0x00\n        /* \"#utility.yul\":397:398   */\n      dup1\n        /* \"#utility.yul\":390:402   */\n      revert\n        /* \"#utility.yul\":354:356   */\n    tag_152:\n        /* \"#utility.yul\":437:441   */\n      0x20\n        /* \"#utility.yul\":429:435   */\n      dup4\n        /* \"#utility.yul\":425:442   */\n      add\n        /* \"#utility.yul\":413:442   */\n      swap2\n      pop\n        /* \"#utility.yul\":491:494   */\n      dup4\n        /* \"#utility.yul\":483:487   */\n      0x01\n        /* \"#utility.yul\":475:481   */\n      dup3\n        /* \"#utility.yul\":471:488   */\n      mul\n        /* \"#utility.yul\":461:469   */\n      dup4\n        /* \"#utility.yul\":457:489   */\n      add\n        /* \"#utility.yul\":454:495   */\n      gt\n        /* \"#utility.yul\":451:453   */\n      iszero\n      tag_153\n      jumpi\n        /* \"#utility.yul\":508:509   */\n      0x00\n        /* \"#utility.yul\":505:506   */\n      dup1\n        /* \"#utility.yul\":498:510   */\n      revert\n        /* \"#utility.yul\":451:453   */\n    tag_153:\n        /* \"#utility.yul\":241:518   */\n      swap3\n      pop\n      swap3\n      swap1\n      pop\n      jump\t// out\n        /* \"#utility.yul\":524:663   */\n    tag_154:\n      0x00\n        /* \"#utility.yul\":608:614   */\n      dup2\n        /* \"#utility.yul\":595:615   */\n      calldataload\n        /* \"#utility.yul\":586:615   */\n      swap1\n      pop\n        /* \"#utility.yul\":624:657   */\n      tag_156\n        /* \"#utility.yul\":651:656   */\n      dup2\n        /* \"#utility.yul\":624:657   */\n      tag_157\n      jump\t// in\n    tag_156:\n        /* \"#utility.yul\":576:663   */\n      swap3\n      swap2\n      pop\n      pop\n      jump\t// out\n        /* \"#utility.yul\":669:1076   */\n    tag_23:\n      0x00\n      dup1\n        /* \"#utility.yul\":794:796   */\n      0x40\n        /* \"#utility.yul\":782:791   */\n      dup4\n        /* \"#utility.yul\":773:780   */\n      dup6\n        /* \"#utility.yul\":769:792   */\n      sub\n        /* \"#utility.yul\":765:797   */\n      slt\n        /* \"#utility.yul\":762:764   */\n      iszero\n      tag_159\n      jumpi\n        /* \"#utility.yul\":810:811   */\n      0x00\n        /* \"#utility.yul\":807:808   */\n      dup1\n        /* \"#utility.yul\":800:812   */\n      revert\n        /* \"#utility.yul\":762:764   */\n    tag_159:\n        /* \"#utility.yul\":853:854   */\n      0x00\n        /* \"#utility.yul\":878:931   */\n      tag_160\n        /* \"#utility.yul\":923:930   */\n      dup6\n        /* \"#utility.yul\":914:920   */\n      dup3\n        /* \"#utility.yul\":903:912   */\n      dup7\n        /* \"#utility.yul\":899:921   */\n      add\n        /* \"#utility.yul\":878:931   */\n      tag_145\n      jump\t// in\n    tag_160:\n        /* \"#utility.yul\":868:931   */\n      swap3\n      pop\n        /* \"#utility.yul\":824:941   */\n      pop\n        /* \"#utility.yul\":980:982   */\n      0x20\n        /* \"#utility.yul\":1006:1059   */\n      tag_161\n        /* \"#utility.yul\":1051:1058   */\n      dup6\n        /* \"#utility.yul\":1042:1048   */\n      dup3\n        /* \"#utility.yul\":1031:1040   */\n      dup7\n        /* \"#utility.yul\":1027:1049   */\n      add\n        /* \"#utility.yul\":1006:1059   */\n      tag_154\n      jump\t// in\n    tag_161:\n        /* \"#utility.yul\":996:1059   */\n      swap2\n      pop\n        /* \"#utility.yul\":951:1069   */\n      pop\n        /* \"#utility.yul\":752:1076   */\n      swap3\n      pop\n      swap3\n      swap1\n      pop\n      jump\t// out\n        /* \"#utility.yul\":1082:1622   */\n    tag_19:\n      0x00\n      dup1\n      0x00\n        /* \"#utility.yul\":1227:1229   */\n      0x40\n        /* \"#utility.yul\":1215:1224   */\n      dup5\n        /* \"#utility.yul\":1206:1213   */\n      dup7\n        /* \"#utility.yul\":1202:1225   */\n      sub\n        /* \"#utility.yul\":1198:1230   */\n      slt\n        /* \"#utility.yul\":1195:1197   */\n      iszero\n      tag_163\n      jumpi\n        /* \"#utility.yul\":1243:1244   */\n      0x00\n        /* \"#utility.yul\":1240:1241   */\n      dup1\n        /* \"#utility.yul\":1233:1245   */\n      revert\n        /* \"#utility.yul\":1195:1197   */\n    tag_163:\n        /* \"#utility.yul\":1314:1315   */\n      0x00\n        /* \"#utility.yul\":1303:1312   */\n      dup5\n        /* \"#utility.yul\":1299:1316   */\n      add\n        /* \"#utility.yul\":1286:1317   */\n      calldataload\n        /* \"#utility.yul\":1344:1362   */\n      0xffffffffffffffff\n        /* \"#utility.yul\":1336:1342   */\n      dup2\n        /* \"#utility.yul\":1333:1363   */\n      gt\n        /* \"#utility.yul\":1330:1332   */\n      iszero\n      tag_164\n      jumpi\n        /* \"#utility.yul\":1376:1377   */\n      0x00\n        /* \"#utility.yul\":1373:1374   */\n      dup1\n        /* \"#utility.yul\":1366:1378   */\n      revert\n        /* \"#utility.yul\":1330:1332   */\n    tag_164:\n        /* \"#utility.yul\":1412:1477   */\n      tag_165\n        /* \"#utility.yul\":1469:1476   */\n      dup7\n        /* \"#utility.yul\":1460:1466   */\n      dup3\n        /* \"#utility.yul\":1449:1458   */\n      dup8\n        /* \"#utility.yul\":1445:1467   */\n      add\n        /* \"#utility.yul\":1412:1477   */\n      tag_149\n      jump\t// in\n    tag_165:\n        /* \"#utility.yul\":1394:1477   */\n      swap4\n      pop\n      swap4\n      pop\n        /* \"#utility.yul\":1257:1487   */\n      pop\n        /* \"#utility.yul\":1526:1528   */\n      0x20\n        /* \"#utility.yul\":1552:1605   */\n      tag_166\n        /* \"#utility.yul\":1597:1604   */\n      dup7\n        /* \"#utility.yul\":1588:1594   */\n      dup3\n        /* \"#utility.yul\":1577:1586   */\n      dup8\n        /* \"#utility.yul\":1573:1595   */\n      add\n        /* \"#utility.yul\":1552:1605   */\n      tag_154\n      jump\t// in\n    tag_166:\n        /* \"#utility.yul\":1542:1605   */\n      swap2\n      pop\n        /* \"#utility.yul\":1497:1615   */\n      pop\n        /* \"#utility.yul\":1185:1622   */\n      swap3\n      pop\n      swap3\n      pop\n      swap3\n      jump\t// out\n        /* \"#utility.yul\":1628:1890   */\n    tag_29:\n      0x00\n        /* \"#utility.yul\":1736:1738   */\n      0x20\n        /* \"#utility.yul\":1724:1733   */\n      dup3\n        /* \"#utility.yul\":1715:1722   */\n      dup5\n        /* \"#utility.yul\":1711:1734   */\n      sub\n        /* \"#utility.yul\":1707:1739   */\n      slt\n        /* \"#utility.yul\":1704:1706   */\n      iszero\n      tag_168\n      jumpi\n        /* \"#utility.yul\":1752:1753   */\n      0x00\n        /* \"#utility.yul\":1749:1750   */\n      dup1\n        /* \"#utility.yul\":1742:1754   */\n      revert\n        /* \"#utility.yul\":1704:1706   */\n    tag_168:\n        /* \"#utility.yul\":1795:1796   */\n      0x00\n        /* \"#utility.yul\":1820:1873   */\n      tag_169\n        /* \"#utility.yul\":1865:1872   */\n      dup5\n        /* \"#utility.yul\":1856:1862   */\n      dup3\n        /* \"#utility.yul\":1845:1854   */\n      dup6\n        /* \"#utility.yul\":1841:1863   */\n      add\n        /* \"#utility.yul\":1820:1873   */\n      tag_154\n      jump\t// in\n    tag_169:\n        /* \"#utility.yul\":1810:1873   */\n      swap2\n      pop\n        /* \"#utility.yul\":1766:1883   */\n      pop\n        /* \"#utility.yul\":1694:1890   */\n      swap3\n      swap2\n      pop\n      pop\n      jump\t// out\n        /* \"#utility.yul\":1896:2303   */\n    tag_13:\n      0x00\n      dup1\n        /* \"#utility.yul\":2021:2023   */\n      0x40\n        /* \"#utility.yul\":2009:2018   */\n      dup4\n        /* \"#utility.yul\":2000:2007   */\n      dup6\n        /* \"#utility.yul\":1996:2019   */\n      sub\n        /* \"#utility.yul\":1992:2024   */\n      slt\n        /* \"#utility.yul\":1989:1991   */\n      iszero\n      tag_171\n      jumpi\n        /* \"#utility.yul\":2037:2038   */\n      0x00\n        /* \"#utility.yul\":2034:2035   */\n      dup1\n        /* \"#utility.yul\":2027:2039   */\n      revert\n        /* \"#utility.yul\":1989:1991   */\n    tag_171:\n        /* \"#utility.yul\":2080:2081   */\n      0x00\n        /* \"#utility.yul\":2105:2158   */\n      tag_172\n        /* \"#utility.yul\":2150:2157   */\n      dup6\n        /* \"#utility.yul\":2141:2147   */\n      dup3\n        /* \"#utility.yul\":2130:2139   */\n      dup7\n        /* \"#utility.yul\":2126:2148   */\n      add\n        /* \"#utility.yul\":2105:2158   */\n      tag_154\n      jump\t// in\n    tag_172:\n        /* \"#utility.yul\":2095:2158   */\n      swap3\n      pop\n        /* \"#utility.yul\":2051:2168   */\n      pop\n        /* \"#utility.yul\":2207:2209   */\n      0x20\n        /* \"#utility.yul\":2233:2286   */\n      tag_173\n        /* \"#utility.yul\":2278:2285   */\n      dup6\n        /* \"#utility.yul\":2269:2275   */\n      dup3\n        /* \"#utility.yul\":2258:2267   */\n      dup7\n        /* \"#utility.yul\":2254:2276   */\n      add\n        /* \"#utility.yul\":2233:2286   */\n      tag_154\n      jump\t// in\n    tag_173:\n        /* \"#utility.yul\":2223:2286   */\n      swap2\n      pop\n        /* \"#utility.yul\":2178:2296   */\n      pop\n        /* \"#utility.yul\":1979:2303   */\n      swap3\n      pop\n      swap3\n      swap1\n      pop\n      jump\t// out\n        /* \"#utility.yul\":2309:2427   */\n    tag_174:\n        /* \"#utility.yul\":2396:2420   */\n      tag_176\n        /* \"#utility.yul\":2414:2419   */\n      dup2\n        /* \"#utility.yul\":2396:2420   */\n      tag_177\n      jump\t// in\n    tag_176:\n        /* \"#utility.yul\":2391:2394   */\n      dup3\n        /* \"#utility.yul\":2384:2421   */\n      mstore\n        /* \"#utility.yul\":2374:2427   */\n      pop\n      pop\n      jump\t// out\n        /* \"#utility.yul\":2433:2542   */\n    tag_178:\n        /* \"#utility.yul\":2514:2535   */\n      tag_180\n        /* \"#utility.yul\":2529:2534   */\n      dup2\n        /* \"#utility.yul\":2514:2535   */\n      tag_181\n      jump\t// in\n    tag_180:\n        /* \"#utility.yul\":2509:2512   */\n      dup3\n        /* \"#utility.yul\":2502:2536   */\n      mstore\n        /* \"#utility.yul\":2492:2542   */\n      pop\n      pop\n      jump\t// out\n        /* \"#utility.yul\":2548:2912   */\n    tag_182:\n      0x00\n        /* \"#utility.yul\":2664:2703   */\n      tag_184\n        /* \"#utility.yul\":2697:2702   */\n      dup3\n        /* \"#utility.yul\":2664:2703   */\n      tag_185\n      jump\t// in\n    tag_184:\n        /* \"#utility.yul\":2719:2790   */\n      tag_186\n        /* \"#utility.yul\":2783:2789   */\n      dup2\n        /* \"#utility.yul\":2778:2781   */\n      dup6\n        /* \"#utility.yul\":2719:2790   */\n      tag_187\n      jump\t// in\n    tag_186:\n        /* \"#utility.yul\":2712:2790   */\n      swap4\n      pop\n        /* \"#utility.yul\":2799:2851   */\n      tag_188\n        /* \"#utility.yul\":2844:2850   */\n      dup2\n        /* \"#utility.yul\":2839:2842   */\n      dup6\n        /* \"#utility.yul\":2832:2836   */\n      0x20\n        /* \"#utility.yul\":2825:2830   */\n      dup7\n        /* \"#utility.yul\":2821:2837   */\n      add\n        /* \"#utility.yul\":2799:2851   */\n      tag_189\n      jump\t// in\n    tag_188:\n        /* \"#utility.yul\":2876:2905   */\n      tag_190\n        /* \"#utility.yul\":2898:2904   */\n      dup2\n        /* \"#utility.yul\":2876:2905   */\n      tag_191\n      jump\t// in\n    tag_190:\n        /* \"#utility.yul\":2871:2874   */\n      dup5\n        /* \"#utility.yul\":2867:2906   */\n      add\n        /* \"#utility.yul\":2860:2906   */\n      swap2\n      pop\n        /* \"#utility.yul\":2640:2912   */\n      pop\n      swap3\n      swap2\n      pop\n      pop\n      jump\t// out\n        /* \"#utility.yul\":2918:3246   */\n    tag_192:\n      0x00\n        /* \"#utility.yul\":3081:3148   */\n      tag_194\n        /* \"#utility.yul\":3145:3147   */\n      0x1e\n        /* \"#utility.yul\":3140:3143   */\n      dup4\n        /* \"#utility.yul\":3081:3148   */\n      tag_187\n      jump\t// in\n    tag_194:\n        /* \"#utility.yul\":3074:3148   */\n      swap2\n      pop\n        /* \"#utility.yul\":3178:3210   */\n      0x596f7520686176656e7420626f72726f776564207468617420626f6f6b210000\n        /* \"#utility.yul\":3174:3175   */\n      0x00\n        /* \"#utility.yul\":3169:3172   */\n      dup4\n        /* \"#utility.yul\":3165:3176   */\n      add\n        /* \"#utility.yul\":3158:3211   */\n      mstore\n        /* \"#utility.yul\":3237:3239   */\n      0x20\n        /* \"#utility.yul\":3232:3235   */\n      dup3\n        /* \"#utility.yul\":3228:3240   */\n      add\n        /* \"#utility.yul\":3221:3240   */\n      swap1\n      pop\n        /* \"#utility.yul\":3064:3246   */\n      swap2\n      swap1\n      pop\n      jump\t// out\n        /* \"#utility.yul\":3252:3618   */\n    tag_195:\n      0x00\n        /* \"#utility.yul\":3415:3482   */\n      tag_197\n        /* \"#utility.yul\":3479:3481   */\n      0x22\n        /* \"#utility.yul\":3474:3477   */\n      dup4\n        /* \"#utility.yul\":3415:3482   */\n      tag_187\n      jump\t// in\n    tag_197:\n        /* \"#utility.yul\":3408:3482   */\n      swap2\n      pop\n        /* \"#utility.yul\":3512:3546   */\n      0x596f7527766520616c726561647920626f72726f776564207468617420626f6f\n        /* \"#utility.yul\":3508:3509   */\n      0x00\n        /* \"#utility.yul\":3503:3506   */\n      dup4\n        /* \"#utility.yul\":3499:3510   */\n      add\n        /* \"#utility.yul\":3492:3547   */\n      mstore\n        /* \"#utility.yul\":3578:3582   */\n      0x6b21000000000000000000000000000000000000000000000000000000000000\n        /* \"#utility.yul\":3573:3575   */\n      0x20\n        /* \"#utility.yul\":3568:3571   */\n      dup4\n        /* \"#utility.yul\":3564:3576   */\n      add\n        /* \"#utility.yul\":3557:3583   */\n      mstore\n        /* \"#utility.yul\":3609:3611   */\n      0x40\n        /* \"#utility.yul\":3604:3607   */\n      dup3\n        /* \"#utility.yul\":3600:3612   */\n      add\n        /* \"#utility.yul\":3593:3612   */\n      swap1\n      pop\n        /* \"#utility.yul\":3398:3618   */\n      swap2\n      swap1\n      pop\n      jump\t// out\n        /* \"#utility.yul\":3624:3948   */\n    tag_198:\n      0x00\n        /* \"#utility.yul\":3787:3854   */\n      tag_200\n        /* \"#utility.yul\":3851:3853   */\n      0x1a\n        /* \"#utility.yul\":3846:3849   */\n      dup4\n        /* \"#utility.yul\":3787:3854   */\n      tag_187\n      jump\t// in\n    tag_200:\n        /* \"#utility.yul\":3780:3854   */\n      swap2\n      pop\n        /* \"#utility.yul\":3884:3912   */\n      0x43757272656e742075736572206973206e6f74206f776e657221000000000000\n        /* \"#utility.yul\":3880:3881   */\n      0x00\n        /* \"#utility.yul\":3875:3878   */\n      dup4\n        /* \"#utility.yul\":3871:3882   */\n      add\n        /* \"#utility.yul\":3864:3913   */\n      mstore\n        /* \"#utility.yul\":3939:3941   */\n      0x20\n        /* \"#utility.yul\":3934:3937   */\n      dup3\n        /* \"#utility.yul\":3930:3942   */\n      add\n        /* \"#utility.yul\":3923:3942   */\n      swap1\n      pop\n        /* \"#utility.yul\":3770:3948   */\n      swap2\n      swap1\n      pop\n      jump\t// out\n        /* \"#utility.yul\":3954:4322   */\n    tag_201:\n      0x00\n        /* \"#utility.yul\":4117:4184   */\n      tag_203\n        /* \"#utility.yul\":4181:4183   */\n      0x24\n        /* \"#utility.yul\":4176:4179   */\n      dup4\n        /* \"#utility.yul\":4117:4184   */\n      tag_187\n      jump\t// in\n    tag_203:\n        /* \"#utility.yul\":4110:4184   */\n      swap2\n      pop\n        /* \"#utility.yul\":4214:4248   */\n      0x5468697320626f6f6b206973206f7574206f662073746f636b2063757272656e\n        /* \"#utility.yul\":4210:4211   */\n      0x00\n        /* \"#utility.yul\":4205:4208   */\n      dup4\n        /* \"#utility.yul\":4201:4212   */\n      add\n        /* \"#utility.yul\":4194:4249   */\n      mstore\n        /* \"#utility.yul\":4280:4286   */\n      0x746c792100000000000000000000000000000000000000000000000000000000\n        /* \"#utility.yul\":4275:4277   */\n      0x20\n        /* \"#utility.yul\":4270:4273   */\n      dup4\n        /* \"#utility.yul\":4266:4278   */\n      add\n        /* \"#utility.yul\":4259:4287   */\n      mstore\n        /* \"#utility.yul\":4313:4315   */\n      0x40\n        /* \"#utility.yul\":4308:4311   */\n      dup3\n        /* \"#utility.yul\":4304:4316   */\n      add\n        /* \"#utility.yul\":4297:4316   */\n      swap1\n      pop\n        /* \"#utility.yul\":4100:4322   */\n      swap2\n      swap1\n      pop\n      jump\t// out\n        /* \"#utility.yul\":4328:4695   */\n    tag_204:\n      0x00\n        /* \"#utility.yul\":4491:4558   */\n      tag_206\n        /* \"#utility.yul\":4555:4557   */\n      0x23\n        /* \"#utility.yul\":4550:4553   */\n      dup4\n        /* \"#utility.yul\":4491:4558   */\n      tag_187\n      jump\t// in\n    tag_206:\n        /* \"#utility.yul\":4484:4558   */\n      swap2\n      pop\n        /* \"#utility.yul\":4588:4622   */\n      0x426f6f6b20616c72656164792065786973747320696e20746865204c69627261\n        /* \"#utility.yul\":4584:4585   */\n      0x00\n        /* \"#utility.yul\":4579:4582   */\n      dup4\n        /* \"#utility.yul\":4575:4586   */\n      add\n        /* \"#utility.yul\":4568:4623   */\n      mstore\n        /* \"#utility.yul\":4654:4659   */\n      0x7279210000000000000000000000000000000000000000000000000000000000\n        /* \"#utility.yul\":4649:4651   */\n      0x20\n        /* \"#utility.yul\":4644:4647   */\n      dup4\n        /* \"#utility.yul\":4640:4652   */\n      add\n        /* \"#utility.yul\":4633:4660   */\n      mstore\n        /* \"#utility.yul\":4686:4688   */\n      0x40\n        /* \"#utility.yul\":4681:4684   */\n      dup3\n        /* \"#utility.yul\":4677:4689   */\n      add\n        /* \"#utility.yul\":4670:4689   */\n      swap1\n      pop\n        /* \"#utility.yul\":4474:4695   */\n      swap2\n      swap1\n      pop\n      jump\t// out\n        /* \"#utility.yul\":4701:5030   */\n    tag_207:\n      0x00\n        /* \"#utility.yul\":4864:4931   */\n      tag_209\n        /* \"#utility.yul\":4928:4930   */\n      0x1f\n        /* \"#utility.yul\":4923:4926   */\n      dup4\n        /* \"#utility.yul\":4864:4931   */\n      tag_187\n      jump\t// in\n    tag_209:\n        /* \"#utility.yul\":4857:4931   */\n      swap2\n      pop\n        /* \"#utility.yul\":4961:4994   */\n      0x426f6f6b20646f6573206e6f7420657869737420696e206c6962726172792100\n        /* \"#utility.yul\":4957:4958   */\n      0x00\n        /* \"#utility.yul\":4952:4955   */\n      dup4\n        /* \"#utility.yul\":4948:4959   */\n      add\n        /* \"#utility.yul\":4941:4995   */\n      mstore\n        /* \"#utility.yul\":5021:5023   */\n      0x20\n        /* \"#utility.yul\":5016:5019   */\n      dup3\n        /* \"#utility.yul\":5012:5024   */\n      add\n        /* \"#utility.yul\":5005:5024   */\n      swap1\n      pop\n        /* \"#utility.yul\":4847:5030   */\n      swap2\n      swap1\n      pop\n      jump\t// out\n        /* \"#utility.yul\":5036:5154   */\n    tag_210:\n        /* \"#utility.yul\":5123:5147   */\n      tag_212\n        /* \"#utility.yul\":5141:5146   */\n      dup2\n        /* \"#utility.yul\":5123:5147   */\n      tag_213\n      jump\t// in\n    tag_212:\n        /* \"#utility.yul\":5118:5121   */\n      dup3\n        /* \"#utility.yul\":5111:5148   */\n      mstore\n        /* \"#utility.yul\":5101:5154   */\n      pop\n      pop\n      jump\t// out\n        /* \"#utility.yul\":5160:5382   */\n    tag_16:\n      0x00\n        /* \"#utility.yul\":5291:5293   */\n      0x20\n        /* \"#utility.yul\":5280:5289   */\n      dup3\n        /* \"#utility.yul\":5276:5294   */\n      add\n        /* \"#utility.yul\":5268:5294   */\n      swap1\n      pop\n        /* \"#utility.yul\":5304:5375   */\n      tag_215\n        /* \"#utility.yul\":5372:5373   */\n      0x00\n        /* \"#utility.yul\":5361:5370   */\n      dup4\n        /* \"#utility.yul\":5357:5374   */\n      add\n        /* \"#utility.yul\":5348:5354   */\n      dup5\n        /* \"#utility.yul\":5304:5375   */\n      tag_174\n      jump\t// in\n    tag_215:\n        /* \"#utility.yul\":5258:5382   */\n      swap3\n      swap2\n      pop\n      pop\n      jump\t// out\n        /* \"#utility.yul\":5388:5807   */\n    tag_100:\n      0x00\n        /* \"#utility.yul\":5592:5594   */\n      0x20\n        /* \"#utility.yul\":5581:5590   */\n      dup3\n        /* \"#utility.yul\":5577:5595   */\n      add\n        /* \"#utility.yul\":5569:5595   */\n      swap1\n      pop\n        /* \"#utility.yul\":5641:5650   */\n      dup2\n        /* \"#utility.yul\":5635:5639   */\n      dup2\n        /* \"#utility.yul\":5631:5651   */\n      sub\n        /* \"#utility.yul\":5627:5628   */\n      0x00\n        /* \"#utility.yul\":5616:5625   */\n      dup4\n        /* \"#utility.yul\":5612:5629   */\n      add\n        /* \"#utility.yul\":5605:5652   */\n      mstore\n        /* \"#utility.yul\":5669:5800   */\n      tag_217\n        /* \"#utility.yul\":5795:5799   */\n      dup2\n        /* \"#utility.yul\":5669:5800   */\n      tag_192\n      jump\t// in\n    tag_217:\n        /* \"#utility.yul\":5661:5800   */\n      swap1\n      pop\n        /* \"#utility.yul\":5559:5807   */\n      swap2\n      swap1\n      pop\n      jump\t// out\n        /* \"#utility.yul\":5813:6232   */\n    tag_81:\n      0x00\n        /* \"#utility.yul\":6017:6019   */\n      0x20\n        /* \"#utility.yul\":6006:6015   */\n      dup3\n        /* \"#utility.yul\":6002:6020   */\n      add\n        /* \"#utility.yul\":5994:6020   */\n      swap1\n      pop\n        /* \"#utility.yul\":6066:6075   */\n      dup2\n        /* \"#utility.yul\":6060:6064   */\n      dup2\n        /* \"#utility.yul\":6056:6076   */\n      sub\n        /* \"#utility.yul\":6052:6053   */\n      0x00\n        /* \"#utility.yul\":6041:6050   */\n      dup4\n        /* \"#utility.yul\":6037:6054   */\n      add\n        /* \"#utility.yul\":6030:6077   */\n      mstore\n        /* \"#utility.yul\":6094:6225   */\n      tag_219\n        /* \"#utility.yul\":6220:6224   */\n      dup2\n        /* \"#utility.yul\":6094:6225   */\n      tag_195\n      jump\t// in\n    tag_219:\n        /* \"#utility.yul\":6086:6225   */\n      swap1\n      pop\n        /* \"#utility.yul\":5984:6232   */\n      swap2\n      swap1\n      pop\n      jump\t// out\n        /* \"#utility.yul\":6238:6657   */\n    tag_47:\n      0x00\n        /* \"#utility.yul\":6442:6444   */\n      0x20\n        /* \"#utility.yul\":6431:6440   */\n      dup3\n        /* \"#utility.yul\":6427:6445   */\n      add\n        /* \"#utility.yul\":6419:6445   */\n      swap1\n      pop\n        /* \"#utility.yul\":6491:6500   */\n      dup2\n        /* \"#utility.yul\":6485:6489   */\n      dup2\n        /* \"#utility.yul\":6481:6501   */\n      sub\n        /* \"#utility.yul\":6477:6478   */\n      0x00\n        /* \"#utility.yul\":6466:6475   */\n      dup4\n        /* \"#utility.yul\":6462:6479   */\n      add\n        /* \"#utility.yul\":6455:6502   */\n      mstore\n        /* \"#utility.yul\":6519:6650   */\n      tag_221\n        /* \"#utility.yul\":6645:6649   */\n      dup2\n        /* \"#utility.yul\":6519:6650   */\n      tag_198\n      jump\t// in\n    tag_221:\n        /* \"#utility.yul\":6511:6650   */\n      swap1\n      pop\n        /* \"#utility.yul\":6409:6657   */\n      swap2\n      swap1\n      pop\n      jump\t// out\n        /* \"#utility.yul\":6663:7082   */\n    tag_74:\n      0x00\n        /* \"#utility.yul\":6867:6869   */\n      0x20\n        /* \"#utility.yul\":6856:6865   */\n      dup3\n        /* \"#utility.yul\":6852:6870   */\n      add\n        /* \"#utility.yul\":6844:6870   */\n      swap1\n      pop\n        /* \"#utility.yul\":6916:6925   */\n      dup2\n        /* \"#utility.yul\":6910:6914   */\n      dup2\n        /* \"#utility.yul\":6906:6926   */\n      sub\n        /* \"#utility.yul\":6902:6903   */\n      0x00\n        /* \"#utility.yul\":6891:6900   */\n      dup4\n        /* \"#utility.yul\":6887:6904   */\n      add\n        /* \"#utility.yul\":6880:6927   */\n      mstore\n        /* \"#utility.yul\":6944:7075   */\n      tag_223\n        /* \"#utility.yul\":7070:7074   */\n      dup2\n        /* \"#utility.yul\":6944:7075   */\n      tag_201\n      jump\t// in\n    tag_223:\n        /* \"#utility.yul\":6936:7075   */\n      swap1\n      pop\n        /* \"#utility.yul\":6834:7082   */\n      swap2\n      swap1\n      pop\n      jump\t// out\n        /* \"#utility.yul\":7088:7507   */\n    tag_55:\n      0x00\n        /* \"#utility.yul\":7292:7294   */\n      0x20\n        /* \"#utility.yul\":7281:7290   */\n      dup3\n        /* \"#utility.yul\":7277:7295   */\n      add\n        /* \"#utility.yul\":7269:7295   */\n      swap1\n      pop\n        /* \"#utility.yul\":7341:7350   */\n      dup2\n        /* \"#utility.yul\":7335:7339   */\n      dup2\n        /* \"#utility.yul\":7331:7351   */\n      sub\n        /* \"#utility.yul\":7327:7328   */\n      0x00\n        /* \"#utility.yul\":7316:7325   */\n      dup4\n        /* \"#utility.yul\":7312:7329   */\n      add\n        /* \"#utility.yul\":7305:7352   */\n      mstore\n        /* \"#utility.yul\":7369:7500   */\n      tag_225\n        /* \"#utility.yul\":7495:7499   */\n      dup2\n        /* \"#utility.yul\":7369:7500   */\n      tag_204\n      jump\t// in\n    tag_225:\n        /* \"#utility.yul\":7361:7500   */\n      swap1\n      pop\n        /* \"#utility.yul\":7259:7507   */\n      swap2\n      swap1\n      pop\n      jump\t// out\n        /* \"#utility.yul\":7513:7932   */\n    tag_51:\n      0x00\n        /* \"#utility.yul\":7717:7719   */\n      0x20\n        /* \"#utility.yul\":7706:7715   */\n      dup3\n        /* \"#utility.yul\":7702:7720   */\n      add\n        /* \"#utility.yul\":7694:7720   */\n      swap1\n      pop\n        /* \"#utility.yul\":7766:7775   */\n      dup2\n        /* \"#utility.yul\":7760:7764   */\n      dup2\n        /* \"#utility.yul\":7756:7776   */\n      sub\n        /* \"#utility.yul\":7752:7753   */\n      0x00\n        /* \"#utility.yul\":7741:7750   */\n      dup4\n        /* \"#utility.yul\":7737:7754   */\n      add\n        /* \"#utility.yul\":7730:7777   */\n      mstore\n        /* \"#utility.yul\":7794:7925   */\n      tag_227\n        /* \"#utility.yul\":7920:7924   */\n      dup2\n        /* \"#utility.yul\":7794:7925   */\n      tag_207\n      jump\t// in\n    tag_227:\n        /* \"#utility.yul\":7786:7925   */\n      swap1\n      pop\n        /* \"#utility.yul\":7684:7932   */\n      swap2\n      swap1\n      pop\n      jump\t// out\n        /* \"#utility.yul\":7938:8160   */\n    tag_26:\n      0x00\n        /* \"#utility.yul\":8069:8071   */\n      0x20\n        /* \"#utility.yul\":8058:8067   */\n      dup3\n        /* \"#utility.yul\":8054:8072   */\n      add\n        /* \"#utility.yul\":8046:8072   */\n      swap1\n      pop\n        /* \"#utility.yul\":8082:8153   */\n      tag_229\n        /* \"#utility.yul\":8150:8151   */\n      0x00\n        /* \"#utility.yul\":8139:8148   */\n      dup4\n        /* \"#utility.yul\":8135:8152   */\n      add\n        /* \"#utility.yul\":8126:8132   */\n      dup5\n        /* \"#utility.yul\":8082:8153   */\n      tag_210\n      jump\t// in\n    tag_229:\n        /* \"#utility.yul\":8036:8160   */\n      swap3\n      swap2\n      pop\n      pop\n      jump\t// out\n        /* \"#utility.yul\":8166:8798   */\n    tag_32:\n      0x00\n        /* \"#utility.yul\":8395:8398   */\n      0x80\n        /* \"#utility.yul\":8384:8393   */\n      dup3\n        /* \"#utility.yul\":8380:8399   */\n      add\n        /* \"#utility.yul\":8372:8399   */\n      swap1\n      pop\n        /* \"#utility.yul\":8409:8480   */\n      tag_231\n        /* \"#utility.yul\":8477:8478   */\n      0x00\n        /* \"#utility.yul\":8466:8475   */\n      dup4\n        /* \"#utility.yul\":8462:8479   */\n      add\n        /* \"#utility.yul\":8453:8459   */\n      dup8\n        /* \"#utility.yul\":8409:8480   */\n      tag_210\n      jump\t// in\n    tag_231:\n        /* \"#utility.yul\":8527:8536   */\n      dup2\n        /* \"#utility.yul\":8521:8525   */\n      dup2\n        /* \"#utility.yul\":8517:8537   */\n      sub\n        /* \"#utility.yul\":8512:8514   */\n      0x20\n        /* \"#utility.yul\":8501:8510   */\n      dup4\n        /* \"#utility.yul\":8497:8515   */\n      add\n        /* \"#utility.yul\":8490:8538   */\n      mstore\n        /* \"#utility.yul\":8555:8633   */\n      tag_232\n        /* \"#utility.yul\":8628:8632   */\n      dup2\n        /* \"#utility.yul\":8619:8625   */\n      dup7\n        /* \"#utility.yul\":8555:8633   */\n      tag_182\n      jump\t// in\n    tag_232:\n        /* \"#utility.yul\":8547:8633   */\n      swap1\n      pop\n        /* \"#utility.yul\":8643:8715   */\n      tag_233\n        /* \"#utility.yul\":8711:8713   */\n      0x40\n        /* \"#utility.yul\":8700:8709   */\n      dup4\n        /* \"#utility.yul\":8696:8714   */\n      add\n        /* \"#utility.yul\":8687:8693   */\n      dup6\n        /* \"#utility.yul\":8643:8715   */\n      tag_210\n      jump\t// in\n    tag_233:\n        /* \"#utility.yul\":8725:8791   */\n      tag_234\n        /* \"#utility.yul\":8787:8789   */\n      0x60\n        /* \"#utility.yul\":8776:8785   */\n      dup4\n        /* \"#utility.yul\":8772:8790   */\n      add\n        /* \"#utility.yul\":8763:8769   */\n      dup5\n        /* \"#utility.yul\":8725:8791   */\n      tag_178\n      jump\t// in\n    tag_234:\n        /* \"#utility.yul\":8362:8798   */\n      swap6\n      swap5\n      pop\n      pop\n      pop\n      pop\n      pop\n      jump\t// out\n        /* \"#utility.yul\":8804:8903   */\n    tag_185:\n      0x00\n        /* \"#utility.yul\":8890:8895   */\n      dup2\n        /* \"#utility.yul\":8884:8896   */\n      mload\n        /* \"#utility.yul\":8874:8896   */\n      swap1\n      pop\n        /* \"#utility.yul\":8863:8903   */\n      swap2\n      swap1\n      pop\n      jump\t// out\n        /* \"#utility.yul\":8909:9078   */\n    tag_187:\n      0x00\n        /* \"#utility.yul\":9027:9033   */\n      dup3\n        /* \"#utility.yul\":9022:9025   */\n      dup3\n        /* \"#utility.yul\":9015:9034   */\n      mstore\n        /* \"#utility.yul\":9067:9071   */\n      0x20\n        /* \"#utility.yul\":9062:9065   */\n      dup3\n        /* \"#utility.yul\":9058:9072   */\n      add\n        /* \"#utility.yul\":9043:9072   */\n      swap1\n      pop\n        /* \"#utility.yul\":9005:9078   */\n      swap3\n      swap2\n      pop\n      pop\n      jump\t// out\n        /* \"#utility.yul\":9084:9275   */\n    tag_126:\n      0x00\n        /* \"#utility.yul\":9144:9164   */\n      tag_238\n        /* \"#utility.yul\":9162:9163   */\n      dup3\n        /* \"#utility.yul\":9144:9164   */\n      tag_213\n      jump\t// in\n    tag_238:\n        /* \"#utility.yul\":9139:9164   */\n      swap2\n      pop\n        /* \"#utility.yul\":9178:9198   */\n      tag_239\n        /* \"#utility.yul\":9196:9197   */\n      dup4\n        /* \"#utility.yul\":9178:9198   */\n      tag_213\n      jump\t// in\n    tag_239:\n        /* \"#utility.yul\":9173:9198   */\n      swap3\n      pop\n        /* \"#utility.yul\":9217:9218   */\n      dup3\n        /* \"#utility.yul\":9214:9215   */\n      dup3\n        /* \"#utility.yul\":9211:9219   */\n      lt\n        /* \"#utility.yul\":9208:9210   */\n      iszero\n      tag_240\n      jumpi\n        /* \"#utility.yul\":9222:9240   */\n      tag_241\n      tag_242\n      jump\t// in\n    tag_241:\n        /* \"#utility.yul\":9208:9210   */\n    tag_240:\n        /* \"#utility.yul\":9267:9268   */\n      dup3\n        /* \"#utility.yul\":9264:9265   */\n      dup3\n        /* \"#utility.yul\":9260:9269   */\n      sub\n        /* \"#utility.yul\":9252:9269   */\n      swap1\n      pop\n        /* \"#utility.yul\":9129:9275   */\n      swap3\n      swap2\n      pop\n      pop\n      jump\t// out\n        /* \"#utility.yul\":9281:9377   */\n    tag_177:\n      0x00\n        /* \"#utility.yul\":9347:9371   */\n      tag_244\n        /* \"#utility.yul\":9365:9370   */\n      dup3\n        /* \"#utility.yul\":9347:9371   */\n      tag_245\n      jump\t// in\n    tag_244:\n        /* \"#utility.yul\":9336:9371   */\n      swap1\n      pop\n        /* \"#utility.yul\":9326:9377   */\n      swap2\n      swap1\n      pop\n      jump\t// out\n        /* \"#utility.yul\":9383:9473   */\n    tag_181:\n      0x00\n        /* \"#utility.yul\":9460:9465   */\n      dup2\n        /* \"#utility.yul\":9453:9466   */\n      iszero\n        /* \"#utility.yul\":9446:9467   */\n      iszero\n        /* \"#utility.yul\":9435:9467   */\n      swap1\n      pop\n        /* \"#utility.yul\":9425:9473   */\n      swap2\n      swap1\n      pop\n      jump\t// out\n        /* \"#utility.yul\":9479:9605   */\n    tag_245:\n      0x00\n        /* \"#utility.yul\":9556:9598   */\n      0xffffffffffffffffffffffffffffffffffffffff\n        /* \"#utility.yul\":9549:9554   */\n      dup3\n        /* \"#utility.yul\":9545:9599   */\n      and\n        /* \"#utility.yul\":9534:9599   */\n      swap1\n      pop\n        /* \"#utility.yul\":9524:9605   */\n      swap2\n      swap1\n      pop\n      jump\t// out\n        /* \"#utility.yul\":9611:9688   */\n    tag_213:\n      0x00\n        /* \"#utility.yul\":9677:9682   */\n      dup2\n        /* \"#utility.yul\":9666:9682   */\n      swap1\n      pop\n        /* \"#utility.yul\":9656:9688   */\n      swap2\n      swap1\n      pop\n      jump\t// out\n        /* \"#utility.yul\":9694:10001   */\n    tag_189:\n        /* \"#utility.yul\":9762:9763   */\n      0x00\n        /* \"#utility.yul\":9772:9885   */\n    tag_250:\n        /* \"#utility.yul\":9786:9792   */\n      dup4\n        /* \"#utility.yul\":9783:9784   */\n      dup2\n        /* \"#utility.yul\":9780:9793   */\n      lt\n        /* \"#utility.yul\":9772:9885   */\n      iszero\n      tag_252\n      jumpi\n        /* \"#utility.yul\":9871:9872   */\n      dup1\n        /* \"#utility.yul\":9866:9869   */\n      dup3\n        /* \"#utility.yul\":9862:9873   */\n      add\n        /* \"#utility.yul\":9856:9874   */\n      mload\n        /* \"#utility.yul\":9852:9853   */\n      dup2\n        /* \"#utility.yul\":9847:9850   */\n      dup5\n        /* \"#utility.yul\":9843:9854   */\n      add\n        /* \"#utility.yul\":9836:9875   */\n      mstore\n        /* \"#utility.yul\":9808:9810   */\n      0x20\n        /* \"#utility.yul\":9805:9806   */\n      dup2\n        /* \"#utility.yul\":9801:9811   */\n      add\n        /* \"#utility.yul\":9796:9811   */\n      swap1\n      pop\n        /* \"#utility.yul\":9772:9885   */\n      jump(tag_250)\n    tag_252:\n        /* \"#utility.yul\":9903:9909   */\n      dup4\n        /* \"#utility.yul\":9900:9901   */\n      dup2\n        /* \"#utility.yul\":9897:9910   */\n      gt\n        /* \"#utility.yul\":9894:9896   */\n      iszero\n      tag_253\n      jumpi\n        /* \"#utility.yul\":9983:9984   */\n      0x00\n        /* \"#utility.yul\":9974:9980   */\n      dup5\n        /* \"#utility.yul\":9969:9972   */\n      dup5\n        /* \"#utility.yul\":9965:9981   */\n      add\n        /* \"#utility.yul\":9958:9985   */\n      mstore\n        /* \"#utility.yul\":9894:9896   */\n    tag_253:\n        /* \"#utility.yul\":9743:10001   */\n      pop\n      pop\n      pop\n      pop\n      jump\t// out\n        /* \"#utility.yul\":10007:10178   */\n    tag_90:\n      0x00\n        /* \"#utility.yul\":10069:10093   */\n      tag_255\n        /* \"#utility.yul\":10087:10092   */\n      dup3\n        /* \"#utility.yul\":10069:10093   */\n      tag_213\n      jump\t// in\n    tag_255:\n        /* \"#utility.yul\":10060:10093   */\n      swap2\n      pop\n        /* \"#utility.yul\":10115:10119   */\n      0x00\n        /* \"#utility.yul\":10108:10113   */\n      dup3\n        /* \"#utility.yul\":10105:10120   */\n      eq\n        /* \"#utility.yul\":10102:10104   */\n      iszero\n      tag_256\n      jumpi\n        /* \"#utility.yul\":10123:10141   */\n      tag_257\n      tag_242\n      jump\t// in\n    tag_257:\n        /* \"#utility.yul\":10102:10104   */\n    tag_256:\n        /* \"#utility.yul\":10170:10171   */\n      0x01\n        /* \"#utility.yul\":10163:10168   */\n      dup3\n        /* \"#utility.yul\":10159:10172   */\n      sub\n        /* \"#utility.yul\":10152:10172   */\n      swap1\n      pop\n        /* \"#utility.yul\":10050:10178   */\n      swap2\n      swap1\n      pop\n      jump\t// out\n        /* \"#utility.yul\":10184:10504   */\n    tag_63:\n      0x00\n        /* \"#utility.yul\":10265:10266   */\n      0x02\n        /* \"#utility.yul\":10259:10263   */\n      dup3\n        /* \"#utility.yul\":10255:10267   */\n      div\n        /* \"#utility.yul\":10245:10267   */\n      swap1\n      pop\n        /* \"#utility.yul\":10312:10313   */\n      0x01\n        /* \"#utility.yul\":10306:10310   */\n      dup3\n        /* \"#utility.yul\":10302:10314   */\n      and\n        /* \"#utility.yul\":10333:10351   */\n      dup1\n        /* \"#utility.yul\":10323:10325   */\n      tag_259\n      jumpi\n        /* \"#utility.yul\":10389:10393   */\n      0x7f\n        /* \"#utility.yul\":10381:10387   */\n      dup3\n        /* \"#utility.yul\":10377:10394   */\n      and\n        /* \"#utility.yul\":10367:10394   */\n      swap2\n      pop\n        /* \"#utility.yul\":10323:10325   */\n    tag_259:\n        /* \"#utility.yul\":10451:10453   */\n      0x20\n        /* \"#utility.yul\":10443:10449   */\n      dup3\n        /* \"#utility.yul\":10440:10454   */\n      lt\n        /* \"#utility.yul\":10420:10438   */\n      dup2\n        /* \"#utility.yul\":10417:10455   */\n      eq\n        /* \"#utility.yul\":10414:10416   */\n      iszero\n      tag_260\n      jumpi\n        /* \"#utility.yul\":10470:10488   */\n      tag_261\n      tag_262\n      jump\t// in\n    tag_261:\n        /* \"#utility.yul\":10414:10416   */\n    tag_260:\n        /* \"#utility.yul\":10235:10504   */\n      pop\n      swap2\n      swap1\n      pop\n      jump\t// out\n        /* \"#utility.yul\":10510:10743   */\n    tag_59:\n      0x00\n        /* \"#utility.yul\":10572:10596   */\n      tag_264\n        /* \"#utility.yul\":10590:10595   */\n      dup3\n        /* \"#utility.yul\":10572:10596   */\n      tag_213\n      jump\t// in\n    tag_264:\n        /* \"#utility.yul\":10563:10596   */\n      swap2\n      pop\n        /* \"#utility.yul\":10618:10684   */\n      0xffffffffffffffffffffffffffffffffffffffffffffffffffffffffffffffff\n        /* \"#utility.yul\":10611:10616   */\n      dup3\n        /* \"#utility.yul\":10608:10685   */\n      eq\n        /* \"#utility.yul\":10605:10607   */\n      iszero\n      tag_265\n      jumpi\n        /* \"#utility.yul\":10688:10706   */\n      tag_266\n      tag_242\n      jump\t// in\n    tag_266:\n        /* \"#utility.yul\":10605:10607   */\n    tag_265:\n        /* \"#utility.yul\":10735:10736   */\n      0x01\n        /* \"#utility.yul\":10728:10733   */\n      dup3\n        /* \"#utility.yul\":10724:10737   */\n      add\n        /* \"#utility.yul\":10717:10737   */\n      swap1\n      pop\n        /* \"#utility.yul\":10553:10743   */\n      swap2\n      swap1\n      pop\n      jump\t// out\n        /* \"#utility.yul\":10749:10929   */\n    tag_242:\n        /* \"#utility.yul\":10797:10874   */\n      0x4e487b7100000000000000000000000000000000000000000000000000000000\n        /* \"#utility.yul\":10794:10795   */\n      0x00\n        /* \"#utility.yul\":10787:10875   */\n      mstore\n        /* \"#utility.yul\":10894:10898   */\n      0x11\n        /* \"#utility.yul\":10891:10892   */\n      0x04\n        /* \"#utility.yul\":10884:10899   */\n      mstore\n        /* \"#utility.yul\":10918:10922   */\n      0x24\n        /* \"#utility.yul\":10915:10916   */\n      0x00\n        /* \"#utility.yul\":10908:10923   */\n      revert\n        /* \"#utility.yul\":10935:11115   */\n    tag_262:\n        /* \"#utility.yul\":10983:11060   */\n      0x4e487b7100000000000000000000000000000000000000000000000000000000\n        /* \"#utility.yul\":10980:10981   */\n      0x00\n        /* \"#utility.yul\":10973:11061   */\n      mstore\n        /* \"#utility.yul\":11080:11084   */\n      0x22\n        /* \"#utility.yul\":11077:11078   */\n      0x04\n        /* \"#utility.yul\":11070:11085   */\n      mstore\n        /* \"#utility.yul\":11104:11108   */\n      0x24\n        /* \"#utility.yul\":11101:11102   */\n      0x00\n        /* \"#utility.yul\":11094:11109   */\n      revert\n        /* \"#utility.yul\":11121:11223   */\n    tag_191:\n      0x00\n        /* \"#utility.yul\":11213:11215   */\n      0x1f\n        /* \"#utility.yul\":11209:11216   */\n      not\n        /* \"#utility.yul\":11204:11206   */\n      0x1f\n        /* \"#utility.yul\":11197:11202   */\n      dup4\n        /* \"#utility.yul\":11193:11207   */\n      add\n        /* \"#utility.yul\":11189:11217   */\n      and\n        /* \"#utility.yul\":11179:11217   */\n      swap1\n      pop\n        /* \"#utility.yul\":11169:11223   */\n      swap2\n      swap1\n      pop\n      jump\t// out\n        /* \"#utility.yul\":11229:11351   */\n    tag_148:\n        /* \"#utility.yul\":11302:11326   */\n      tag_271\n        /* \"#utility.yul\":11320:11325   */\n      dup2\n        /* \"#utility.yul\":11302:11326   */\n      tag_177\n      jump\t// in\n    tag_271:\n        /* \"#utility.yul\":11295:11300   */\n      dup2\n        /* \"#utility.yul\":11292:11327   */\n      eq\n        /* \"#utility.yul\":11282:11284   */\n      tag_272\n      jumpi\n        /* \"#utility.yul\":11341:11342   */\n      0x00\n        /* \"#utility.yul\":11338:11339   */\n      dup1\n        /* \"#utility.yul\":11331:11343   */\n      revert\n        /* \"#utility.yul\":11282:11284   */\n    tag_272:\n        /* \"#utility.yul\":11272:11351   */\n      pop\n      jump\t// out\n        /* \"#utility.yul\":11357:11479   */\n    tag_157:\n        /* \"#utility.yul\":11430:11454   */\n      tag_274\n        /* \"#utility.yul\":11448:11453   */\n      dup2\n        /* \"#utility.yul\":11430:11454   */\n      tag_213\n      jump\t// in\n    tag_274:\n        /* \"#utility.yul\":11423:11428   */\n      dup2\n        /* \"#utility.yul\":11420:11455   */\n      eq\n        /* \"#utility.yul\":11410:11412   */\n      tag_275\n      jumpi\n        /* \"#utility.yul\":11469:11470   */\n      0x00\n        /* \"#utility.yul\":11466:11467   */\n      dup1\n        /* \"#utility.yul\":11459:11471   */\n      revert\n        /* \"#utility.yul\":11410:11412   */\n    tag_275:\n        /* \"#utility.yul\":11400:11479   */\n      pop\n      jump\t// out\n\n    auxdata: 0xa26469706673582212209b9327657f002c118847a17c3c041d5f4cedc69afd5077d96370572d366b632264736f6c63430008000033\n}\n",
				"bytecode": {
					"linkReferences": {},
					"object": "608060405234801561001057600080fd5b50336000806101000a81548173ffffffffffffffffffffffffffffffffffffffff021916908373ffffffffffffffffffffffffffffffffffffffff16021790555061146b806100606000396000f3fe608060405234801561001057600080fd5b506004361061007d5760003560e01c806371e25e5a1161005b57806371e25e5a146100fe5780638da5cb5b146101315780639649faa31461014f578063b8dd17db1461016b5761007d565b80631841389814610082578063265be2e2146100b25780632b3819fe146100ce575b600080fd5b61009c60048036038101906100979190610e52565b610187565b6040516100a991906110e6565b60405180910390f35b6100cc60048036038101906100c79190610dd1565b6101d5565b005b6100e860048036038101906100e39190610d95565b6103e2565b6040516100f591906111c1565b60405180910390f35b61011860048036038101906101139190610e29565b610413565b60405161012894939291906111dc565b60405180910390f35b6101396104d8565b60405161014691906110e6565b60405180910390f35b61016960048036038101906101649190610e29565b6104fc565b005b61018560048036038101906101809190610e29565b610841565b005b600360205281600052604060002081815481106101a357600080fd5b906000526020600020016000915091509054906101000a900473ffffffffffffffffffffffffffffffffffffffff1681565b60008054906101000a900473ffffffffffffffffffffffffffffffffffffffff1673ffffffffffffffffffffffffffffffffffffffff163373ffffffffffffffffffffffffffffffffffffffff1614610263576040517f08c379a000000000000000000000000000000000000000000000000000000000815260040161025a90611141565b60405180910390fd5b6001546002600082815260200190815260200160002060030160009054906101000a900460ff166102c9576040517f08c379a00000000000000000000000000000000000000000000000000000000081526004016102c0906111a1565b60405180910390fd5b60026000600154815260200190815260200160002060030160009054906101000a900460ff161561032f576040517f08c379a000000000000000000000000000000000000000000000000000000000815260040161032690611181565b60405180910390fd5b6001546002600060015481526020019081526020016000206000018190555083836002600060015481526020019081526020016000206001019190610375929190610c7e565b508160026000600154815260200190815260200160002060020181905550600160026000600154815260200190815260200160002060030160006101000a81548160ff021916908315150217905550600160008154809291906103d79061134f565b919050555050505050565b600460205281600052604060002081815481106103fe57600080fd5b90600052602060002001600091509150505481565b600260205280600052604060002060009150905080600001549080600101805461043c9061131d565b80601f01602080910402602001604051908101604052809291908181526020018280546104689061131d565b80156104b55780601f1061048a576101008083540402835291602001916104b5565b820191906000526020600020905b81548152906001019060200180831161049857829003601f168201915b5050505050908060020154908060030160009054906101000a900460ff16905084565b60008054906101000a900473ffffffffffffffffffffffffffffffffffffffff1681565b806002600082815260200190815260200160002060030160009054906101000a900460ff16610560576040517f08c379a0000000000000000000000000000000000000000000000000000000008152600401610557906111a1565b60405180910390fd5b6000600260008481526020019081526020016000206002015414156105ba576040517f08c379a00000000000000000000000000000000000000000000000000000000081526004016105b190611161565b60405180910390fd5b61065182600460003373ffffffffffffffffffffffffffffffffffffffff1673ffffffffffffffffffffffffffffffffffffffff16815260200190815260200160002080548060200260200160405190810160405280929190818152602001828054801561064757602002820191906000526020600020905b815481526020019060010190808311610633575b50505050506109f3565b15610691576040517f08c379a000000000000000000000000000000000000000000000000000000000815260040161068890611121565b60405180910390fd5b600460003373ffffffffffffffffffffffffffffffffffffffff1673ffffffffffffffffffffffffffffffffffffffff168152602001908152602001600020829080600181540180825580915050600190039060005260206000200160009091909190915055610798336003600085815260200190815260200160002080548060200260200160405190810160405280929190818152602001828054801561078e57602002820191906000526020600020905b8160009054906101000a900473ffffffffffffffffffffffffffffffffffffffff1673ffffffffffffffffffffffffffffffffffffffff1681526020019060010190808311610744575b5050505050610a75565b6108115760036000838152602001908152602001600020339080600181540180825580915050600190039060005260206000200160009091909190916101000a81548173ffffffffffffffffffffffffffffffffffffffff021916908373ffffffffffffffffffffffffffffffffffffffff1602179055505b600260008381526020019081526020016000206002016000815480929190610838906112f3565b91905055505050565b806002600082815260200190815260200160002060030160009054906101000a900460ff166108a5576040517f08c379a000000000000000000000000000000000000000000000000000000000815260040161089c906111a1565b60405180910390fd5b61093c82600460003373ffffffffffffffffffffffffffffffffffffffff1673ffffffffffffffffffffffffffffffffffffffff16815260200190815260200160002080548060200260200160405190810160405280929190818152602001828054801561093257602002820191906000526020600020905b81548152602001906001019080831161091e575b50505050506109f3565b61097b576040517f08c379a000000000000000000000000000000000000000000000000000000000815260040161097290611101565b60405180910390fd5b6109c3600460003373ffffffffffffffffffffffffffffffffffffffff1673ffffffffffffffffffffffffffffffffffffffff16815260200190815260200160002083610b23565b6002600083815260200190815260200160002060020160008154809291906109ea9061134f565b91905055505050565b600080600090505b8251811015610a6957828181518110610a3d577f4e487b7100000000000000000000000000000000000000000000000000000000600052603260045260246000fd5b6020026020010151841415610a56576001915050610a6f565b8080610a619061134f565b9150506109fb565b50600090505b92915050565b600080600090505b8251811015610b1757828181518110610abf577f4e487b7100000000000000000000000000000000000000000000000000000000600052603260045260246000fd5b602002602001015173ffffffffffffffffffffffffffffffffffffffff168473ffffffffffffffffffffffffffffffffffffffff161415610b04576001915050610b1d565b8080610b0f9061134f565b915050610a7d565b50600090505b92915050565b60005b8280549050811015610c7957828181548110610b6b577f4e487b7100000000000000000000000000000000000000000000000000000000600052603260045260246000fd5b9060005260206000200154821415610c66578260018480549050610b8f9190611244565b81548110610bc6577f4e487b7100000000000000000000000000000000000000000000000000000000600052603260045260246000fd5b9060005260206000200154838281548110610c0a577f4e487b7100000000000000000000000000000000000000000000000000000000600052603260045260246000fd5b906000526020600020018190555082805480610c4f577f4e487b7100000000000000000000000000000000000000000000000000000000600052603160045260246000fd5b600190038181906000526020600020016000905590555b8080610c719061134f565b915050610b26565b505050565b828054610c8a9061131d565b90600052602060002090601f016020900481019282610cac5760008555610cf3565b82601f10610cc557803560ff1916838001178555610cf3565b82800160010185558215610cf3579182015b82811115610cf2578235825591602001919060010190610cd7565b5b509050610d009190610d04565b5090565b5b80821115610d1d576000816000905550600101610d05565b5090565b600081359050610d3081611407565b92915050565b60008083601f840112610d4857600080fd5b8235905067ffffffffffffffff811115610d6157600080fd5b602083019150836001820283011115610d7957600080fd5b9250929050565b600081359050610d8f8161141e565b92915050565b60008060408385031215610da857600080fd5b6000610db685828601610d21565b9250506020610dc785828601610d80565b9150509250929050565b600080600060408486031215610de657600080fd5b600084013567ffffffffffffffff811115610e0057600080fd5b610e0c86828701610d36565b93509350506020610e1f86828701610d80565b9150509250925092565b600060208284031215610e3b57600080fd5b6000610e4984828501610d80565b91505092915050565b60008060408385031215610e6557600080fd5b6000610e7385828601610d80565b9250506020610e8485828601610d80565b9150509250929050565b610e9781611278565b82525050565b610ea68161128a565b82525050565b6000610eb782611228565b610ec18185611233565b9350610ed18185602086016112c0565b610eda816113f6565b840191505092915050565b6000610ef2601e83611233565b91507f596f7520686176656e7420626f72726f776564207468617420626f6f6b2100006000830152602082019050919050565b6000610f32602283611233565b91507f596f7527766520616c726561647920626f72726f776564207468617420626f6f60008301527f6b210000000000000000000000000000000000000000000000000000000000006020830152604082019050919050565b6000610f98601a83611233565b91507f43757272656e742075736572206973206e6f74206f776e6572210000000000006000830152602082019050919050565b6000610fd8602483611233565b91507f5468697320626f6f6b206973206f7574206f662073746f636b2063757272656e60008301527f746c7921000000000000000000000000000000000000000000000000000000006020830152604082019050919050565b600061103e602383611233565b91507f426f6f6b20616c72656164792065786973747320696e20746865204c6962726160008301527f72792100000000000000000000000000000000000000000000000000000000006020830152604082019050919050565b60006110a4601f83611233565b91507f426f6f6b20646f6573206e6f7420657869737420696e206c69627261727921006000830152602082019050919050565b6110e0816112b6565b82525050565b60006020820190506110fb6000830184610e8e565b92915050565b6000602082019050818103600083015261111a81610ee5565b9050919050565b6000602082019050818103600083015261113a81610f25565b9050919050565b6000602082019050818103600083015261115a81610f8b565b9050919050565b6000602082019050818103600083015261117a81610fcb565b9050919050565b6000602082019050818103600083015261119a81611031565b9050919050565b600060208201905081810360008301526111ba81611097565b9050919050565b60006020820190506111d660008301846110d7565b92915050565b60006080820190506111f160008301876110d7565b81810360208301526112038186610eac565b905061121260408301856110d7565b61121f6060830184610e9d565b95945050505050565b600081519050919050565b600082825260208201905092915050565b600061124f826112b6565b915061125a836112b6565b92508282101561126d5761126c611398565b5b828203905092915050565b600061128382611296565b9050919050565b60008115159050919050565b600073ffffffffffffffffffffffffffffffffffffffff82169050919050565b6000819050919050565b60005b838110156112de5780820151818401526020810190506112c3565b838111156112ed576000848401525b50505050565b60006112fe826112b6565b9150600082141561131257611311611398565b5b600182039050919050565b6000600282049050600182168061133557607f821691505b60208210811415611349576113486113c7565b5b50919050565b600061135a826112b6565b91507fffffffffffffffffffffffffffffffffffffffffffffffffffffffffffffffff82141561138d5761138c611398565b5b600182019050919050565b7f4e487b7100000000000000000000000000000000000000000000000000000000600052601160045260246000fd5b7f4e487b7100000000000000000000000000000000000000000000000000000000600052602260045260246000fd5b6000601f19601f8301169050919050565b61141081611278565b811461141b57600080fd5b50565b611427816112b6565b811461143257600080fd5b5056fea26469706673582212209b9327657f002c118847a17c3c041d5f4cedc69afd5077d96370572d366b632264736f6c63430008000033",
					"opcodes": "PUSH1 0x80 PUSH1 0x40 MSTORE CALLVALUE DUP1 ISZERO PUSH2 0x10 JUMPI PUSH1 0x0 DUP1 REVERT JUMPDEST POP CALLER PUSH1 0x0 DUP1 PUSH2 0x100 EXP DUP2 SLOAD DUP2 PUSH20 0xFFFFFFFFFFFFFFFFFFFFFFFFFFFFFFFFFFFFFFFF MUL NOT AND SWAP1 DUP4 PUSH20 0xFFFFFFFFFFFFFFFFFFFFFFFFFFFFFFFFFFFFFFFF AND MUL OR SWAP1 SSTORE POP PUSH2 0x146B DUP1 PUSH2 0x60 PUSH1 0x0 CODECOPY PUSH1 0x0 RETURN INVALID PUSH1 0x80 PUSH1 0x40 MSTORE CALLVALUE DUP1 ISZERO PUSH2 0x10 JUMPI PUSH1 0x0 DUP1 REVERT JUMPDEST POP PUSH1 0x4 CALLDATASIZE LT PUSH2 0x7D JUMPI PUSH1 0x0 CALLDATALOAD PUSH1 0xE0 SHR DUP1 PUSH4 0x71E25E5A GT PUSH2 0x5B JUMPI DUP1 PUSH4 0x71E25E5A EQ PUSH2 0xFE JUMPI DUP1 PUSH4 0x8DA5CB5B EQ PUSH2 0x131 JUMPI DUP1 PUSH4 0x9649FAA3 EQ PUSH2 0x14F JUMPI DUP1 PUSH4 0xB8DD17DB EQ PUSH2 0x16B JUMPI PUSH2 0x7D JUMP JUMPDEST DUP1 PUSH4 0x18413898 EQ PUSH2 0x82 JUMPI DUP1 PUSH4 0x265BE2E2 EQ PUSH2 0xB2 JUMPI DUP1 PUSH4 0x2B3819FE EQ PUSH2 0xCE JUMPI JUMPDEST PUSH1 0x0 DUP1 REVERT JUMPDEST PUSH2 0x9C PUSH1 0x4 DUP1 CALLDATASIZE SUB DUP2 ADD SWAP1 PUSH2 0x97 SWAP2 SWAP1 PUSH2 0xE52 JUMP JUMPDEST PUSH2 0x187 JUMP JUMPDEST PUSH1 0x40 MLOAD PUSH2 0xA9 SWAP2 SWAP1 PUSH2 0x10E6 JUMP JUMPDEST PUSH1 0x40 MLOAD DUP1 SWAP2 SUB SWAP1 RETURN JUMPDEST PUSH2 0xCC PUSH1 0x4 DUP1 CALLDATASIZE SUB DUP2 ADD SWAP1 PUSH2 0xC7 SWAP2 SWAP1 PUSH2 0xDD1 JUMP JUMPDEST PUSH2 0x1D5 JUMP JUMPDEST STOP JUMPDEST PUSH2 0xE8 PUSH1 0x4 DUP1 CALLDATASIZE SUB DUP2 ADD SWAP1 PUSH2 0xE3 SWAP2 SWAP1 PUSH2 0xD95 JUMP JUMPDEST PUSH2 0x3E2 JUMP JUMPDEST PUSH1 0x40 MLOAD PUSH2 0xF5 SWAP2 SWAP1 PUSH2 0x11C1 JUMP JUMPDEST PUSH1 0x40 MLOAD DUP1 SWAP2 SUB SWAP1 RETURN JUMPDEST PUSH2 0x118 PUSH1 0x4 DUP1 CALLDATASIZE SUB DUP2 ADD SWAP1 PUSH2 0x113 SWAP2 SWAP1 PUSH2 0xE29 JUMP JUMPDEST PUSH2 0x413 JUMP JUMPDEST PUSH1 0x40 MLOAD PUSH2 0x128 SWAP5 SWAP4 SWAP3 SWAP2 SWAP1 PUSH2 0x11DC JUMP JUMPDEST PUSH1 0x40 MLOAD DUP1 SWAP2 SUB SWAP1 RETURN JUMPDEST PUSH2 0x139 PUSH2 0x4D8 JUMP JUMPDEST PUSH1 0x40 MLOAD PUSH2 0x146 SWAP2 SWAP1 PUSH2 0x10E6 JUMP JUMPDEST PUSH1 0x40 MLOAD DUP1 SWAP2 SUB SWAP1 RETURN JUMPDEST PUSH2 0x169 PUSH1 0x4 DUP1 CALLDATASIZE SUB DUP2 ADD SWAP1 PUSH2 0x164 SWAP2 SWAP1 PUSH2 0xE29 JUMP JUMPDEST PUSH2 0x4FC JUMP JUMPDEST STOP JUMPDEST PUSH2 0x185 PUSH1 0x4 DUP1 CALLDATASIZE SUB DUP2 ADD SWAP1 PUSH2 0x180 SWAP2 SWAP1 PUSH2 0xE29 JUMP JUMPDEST PUSH2 0x841 JUMP JUMPDEST STOP JUMPDEST PUSH1 0x3 PUSH1 0x20 MSTORE DUP2 PUSH1 0x0 MSTORE PUSH1 0x40 PUSH1 0x0 KECCAK256 DUP2 DUP2 SLOAD DUP2 LT PUSH2 0x1A3 JUMPI PUSH1 0x0 DUP1 REVERT JUMPDEST SWAP1 PUSH1 0x0 MSTORE PUSH1 0x20 PUSH1 0x0 KECCAK256 ADD PUSH1 0x0 SWAP2 POP SWAP2 POP SWAP1 SLOAD SWAP1 PUSH2 0x100 EXP SWAP1 DIV PUSH20 0xFFFFFFFFFFFFFFFFFFFFFFFFFFFFFFFFFFFFFFFF AND DUP2 JUMP JUMPDEST PUSH1 0x0 DUP1 SLOAD SWAP1 PUSH2 0x100 EXP SWAP1 DIV PUSH20 0xFFFFFFFFFFFFFFFFFFFFFFFFFFFFFFFFFFFFFFFF AND PUSH20 0xFFFFFFFFFFFFFFFFFFFFFFFFFFFFFFFFFFFFFFFF AND CALLER PUSH20 0xFFFFFFFFFFFFFFFFFFFFFFFFFFFFFFFFFFFFFFFF AND EQ PUSH2 0x263 JUMPI PUSH1 0x40 MLOAD PUSH32 0x8C379A000000000000000000000000000000000000000000000000000000000 DUP2 MSTORE PUSH1 0x4 ADD PUSH2 0x25A SWAP1 PUSH2 0x1141 JUMP JUMPDEST PUSH1 0x40 MLOAD DUP1 SWAP2 SUB SWAP1 REVERT JUMPDEST PUSH1 0x1 SLOAD PUSH1 0x2 PUSH1 0x0 DUP3 DUP2 MSTORE PUSH1 0x20 ADD SWAP1 DUP2 MSTORE PUSH1 0x20 ADD PUSH1 0x0 KECCAK256 PUSH1 0x3 ADD PUSH1 0x0 SWAP1 SLOAD SWAP1 PUSH2 0x100 EXP SWAP1 DIV PUSH1 0xFF AND PUSH2 0x2C9 JUMPI PUSH1 0x40 MLOAD PUSH32 0x8C379A000000000000000000000000000000000000000000000000000000000 DUP2 MSTORE PUSH1 0x4 ADD PUSH2 0x2C0 SWAP1 PUSH2 0x11A1 JUMP JUMPDEST PUSH1 0x40 MLOAD DUP1 SWAP2 SUB SWAP1 REVERT JUMPDEST PUSH1 0x2 PUSH1 0x0 PUSH1 0x1 SLOAD DUP2 MSTORE PUSH1 0x20 ADD SWAP1 DUP2 MSTORE PUSH1 0x20 ADD PUSH1 0x0 KECCAK256 PUSH1 0x3 ADD PUSH1 0x0 SWAP1 SLOAD SWAP1 PUSH2 0x100 EXP SWAP1 DIV PUSH1 0xFF AND ISZERO PUSH2 0x32F JUMPI PUSH1 0x40 MLOAD PUSH32 0x8C379A000000000000000000000000000000000000000000000000000000000 DUP2 MSTORE PUSH1 0x4 ADD PUSH2 0x326 SWAP1 PUSH2 0x1181 JUMP JUMPDEST PUSH1 0x40 MLOAD DUP1 SWAP2 SUB SWAP1 REVERT JUMPDEST PUSH1 0x1 SLOAD PUSH1 0x2 PUSH1 0x0 PUSH1 0x1 SLOAD DUP2 MSTORE PUSH1 0x20 ADD SWAP1 DUP2 MSTORE PUSH1 0x20 ADD PUSH1 0x0 KECCAK256 PUSH1 0x0 ADD DUP2 SWAP1 SSTORE POP DUP4 DUP4 PUSH1 0x2 PUSH1 0x0 PUSH1 0x1 SLOAD DUP2 MSTORE PUSH1 0x20 ADD SWAP1 DUP2 MSTORE PUSH1 0x20 ADD PUSH1 0x0 KECCAK256 PUSH1 0x1 ADD SWAP2 SWAP1 PUSH2 0x375 SWAP3 SWAP2 SWAP1 PUSH2 0xC7E JUMP JUMPDEST POP DUP2 PUSH1 0x2 PUSH1 0x0 PUSH1 0x1 SLOAD DUP2 MSTORE PUSH1 0x20 ADD SWAP1 DUP2 MSTORE PUSH1 0x20 ADD PUSH1 0x0 KECCAK256 PUSH1 0x2 ADD DUP2 SWAP1 SSTORE POP PUSH1 0x1 PUSH1 0x2 PUSH1 0x0 PUSH1 0x1 SLOAD DUP2 MSTORE PUSH1 0x20 ADD SWAP1 DUP2 MSTORE PUSH1 0x20 ADD PUSH1 0x0 KECCAK256 PUSH1 0x3 ADD PUSH1 0x0 PUSH2 0x100 EXP DUP2 SLOAD DUP2 PUSH1 0xFF MUL NOT AND SWAP1 DUP4 ISZERO ISZERO MUL OR SWAP1 SSTORE POP PUSH1 0x1 PUSH1 0x0 DUP2 SLOAD DUP1 SWAP3 SWAP2 SWAP1 PUSH2 0x3D7 SWAP1 PUSH2 0x134F JUMP JUMPDEST SWAP2 SWAP1 POP SSTORE POP POP POP POP POP JUMP JUMPDEST PUSH1 0x4 PUSH1 0x20 MSTORE DUP2 PUSH1 0x0 MSTORE PUSH1 0x40 PUSH1 0x0 KECCAK256 DUP2 DUP2 SLOAD DUP2 LT PUSH2 0x3FE JUMPI PUSH1 0x0 DUP1 REVERT JUMPDEST SWAP1 PUSH1 0x0 MSTORE PUSH1 0x20 PUSH1 0x0 KECCAK256 ADD PUSH1 0x0 SWAP2 POP SWAP2 POP POP SLOAD DUP2 JUMP JUMPDEST PUSH1 0x2 PUSH1 0x20 MSTORE DUP1 PUSH1 0x0 MSTORE PUSH1 0x40 PUSH1 0x0 KECCAK256 PUSH1 0x0 SWAP2 POP SWAP1 POP DUP1 PUSH1 0x0 ADD SLOAD SWAP1 DUP1 PUSH1 0x1 ADD DUP1 SLOAD PUSH2 0x43C SWAP1 PUSH2 0x131D JUMP JUMPDEST DUP1 PUSH1 0x1F ADD PUSH1 0x20 DUP1 SWAP2 DIV MUL PUSH1 0x20 ADD PUSH1 0x40 MLOAD SWAP1 DUP2 ADD PUSH1 0x40 MSTORE DUP1 SWAP3 SWAP2 SWAP1 DUP2 DUP2 MSTORE PUSH1 0x20 ADD DUP3 DUP1 SLOAD PUSH2 0x468 SWAP1 PUSH2 0x131D JUMP JUMPDEST DUP1 ISZERO PUSH2 0x4B5 JUMPI DUP1 PUSH1 0x1F LT PUSH2 0x48A JUMPI PUSH2 0x100 DUP1 DUP4 SLOAD DIV MUL DUP4 MSTORE SWAP2 PUSH1 0x20 ADD SWAP2 PUSH2 0x4B5 JUMP JUMPDEST DUP3 ADD SWAP2 SWAP1 PUSH1 0x0 MSTORE PUSH1 0x20 PUSH1 0x0 KECCAK256 SWAP1 JUMPDEST DUP2 SLOAD DUP2 MSTORE SWAP1 PUSH1 0x1 ADD SWAP1 PUSH1 0x20 ADD DUP1 DUP4 GT PUSH2 0x498 JUMPI DUP3 SWAP1 SUB PUSH1 0x1F AND DUP3 ADD SWAP2 JUMPDEST POP POP POP POP POP SWAP1 DUP1 PUSH1 0x2 ADD SLOAD SWAP1 DUP1 PUSH1 0x3 ADD PUSH1 0x0 SWAP1 SLOAD SWAP1 PUSH2 0x100 EXP SWAP1 DIV PUSH1 0xFF AND SWAP1 POP DUP5 JUMP JUMPDEST PUSH1 0x0 DUP1 SLOAD SWAP1 PUSH2 0x100 EXP SWAP1 DIV PUSH20 0xFFFFFFFFFFFFFFFFFFFFFFFFFFFFFFFFFFFFFFFF AND DUP2 JUMP JUMPDEST DUP1 PUSH1 0x2 PUSH1 0x0 DUP3 DUP2 MSTORE PUSH1 0x20 ADD SWAP1 DUP2 MSTORE PUSH1 0x20 ADD PUSH1 0x0 KECCAK256 PUSH1 0x3 ADD PUSH1 0x0 SWAP1 SLOAD SWAP1 PUSH2 0x100 EXP SWAP1 DIV PUSH1 0xFF AND PUSH2 0x560 JUMPI PUSH1 0x40 MLOAD PUSH32 0x8C379A000000000000000000000000000000000000000000000000000000000 DUP2 MSTORE PUSH1 0x4 ADD PUSH2 0x557 SWAP1 PUSH2 0x11A1 JUMP JUMPDEST PUSH1 0x40 MLOAD DUP1 SWAP2 SUB SWAP1 REVERT JUMPDEST PUSH1 0x0 PUSH1 0x2 PUSH1 0x0 DUP5 DUP2 MSTORE PUSH1 0x20 ADD SWAP1 DUP2 MSTORE PUSH1 0x20 ADD PUSH1 0x0 KECCAK256 PUSH1 0x2 ADD SLOAD EQ ISZERO PUSH2 0x5BA JUMPI PUSH1 0x40 MLOAD PUSH32 0x8C379A000000000000000000000000000000000000000000000000000000000 DUP2 MSTORE PUSH1 0x4 ADD PUSH2 0x5B1 SWAP1 PUSH2 0x1161 JUMP JUMPDEST PUSH1 0x40 MLOAD DUP1 SWAP2 SUB SWAP1 REVERT JUMPDEST PUSH2 0x651 DUP3 PUSH1 0x4 PUSH1 0x0 CALLER PUSH20 0xFFFFFFFFFFFFFFFFFFFFFFFFFFFFFFFFFFFFFFFF AND PUSH20 0xFFFFFFFFFFFFFFFFFFFFFFFFFFFFFFFFFFFFFFFF AND DUP2 MSTORE PUSH1 0x20 ADD SWAP1 DUP2 MSTORE PUSH1 0x20 ADD PUSH1 0x0 KECCAK256 DUP1 SLOAD DUP1 PUSH1 0x20 MUL PUSH1 0x20 ADD PUSH1 0x40 MLOAD SWAP1 DUP2 ADD PUSH1 0x40 MSTORE DUP1 SWAP3 SWAP2 SWAP1 DUP2 DUP2 MSTORE PUSH1 0x20 ADD DUP3 DUP1 SLOAD DUP1 ISZERO PUSH2 0x647 JUMPI PUSH1 0x20 MUL DUP3 ADD SWAP2 SWAP1 PUSH1 0x0 MSTORE PUSH1 0x20 PUSH1 0x0 KECCAK256 SWAP1 JUMPDEST DUP2 SLOAD DUP2 MSTORE PUSH1 0x20 ADD SWAP1 PUSH1 0x1 ADD SWAP1 DUP1 DUP4 GT PUSH2 0x633 JUMPI JUMPDEST POP POP POP POP POP PUSH2 0x9F3 JUMP JUMPDEST ISZERO PUSH2 0x691 JUMPI PUSH1 0x40 MLOAD PUSH32 0x8C379A000000000000000000000000000000000000000000000000000000000 DUP2 MSTORE PUSH1 0x4 ADD PUSH2 0x688 SWAP1 PUSH2 0x1121 JUMP JUMPDEST PUSH1 0x40 MLOAD DUP1 SWAP2 SUB SWAP1 REVERT JUMPDEST PUSH1 0x4 PUSH1 0x0 CALLER PUSH20 0xFFFFFFFFFFFFFFFFFFFFFFFFFFFFFFFFFFFFFFFF AND PUSH20 0xFFFFFFFFFFFFFFFFFFFFFFFFFFFFFFFFFFFFFFFF AND DUP2 MSTORE PUSH1 0x20 ADD SWAP1 DUP2 MSTORE PUSH1 0x20 ADD PUSH1 0x0 KECCAK256 DUP3 SWAP1 DUP1 PUSH1 0x1 DUP2 SLOAD ADD DUP1 DUP3 SSTORE DUP1 SWAP2 POP POP PUSH1 0x1 SWAP1 SUB SWAP1 PUSH1 0x0 MSTORE PUSH1 0x20 PUSH1 0x0 KECCAK256 ADD PUSH1 0x0 SWAP1 SWAP2 SWAP1 SWAP2 SWAP1 SWAP2 POP SSTORE PUSH2 0x798 CALLER PUSH1 0x3 PUSH1 0x0 DUP6 DUP2 MSTORE PUSH1 0x20 ADD SWAP1 DUP2 MSTORE PUSH1 0x20 ADD PUSH1 0x0 KECCAK256 DUP1 SLOAD DUP1 PUSH1 0x20 MUL PUSH1 0x20 ADD PUSH1 0x40 MLOAD SWAP1 DUP2 ADD PUSH1 0x40 MSTORE DUP1 SWAP3 SWAP2 SWAP1 DUP2 DUP2 MSTORE PUSH1 0x20 ADD DUP3 DUP1 SLOAD DUP1 ISZERO PUSH2 0x78E JUMPI PUSH1 0x20 MUL DUP3 ADD SWAP2 SWAP1 PUSH1 0x0 MSTORE PUSH1 0x20 PUSH1 0x0 KECCAK256 SWAP1 JUMPDEST DUP2 PUSH1 0x0 SWAP1 SLOAD SWAP1 PUSH2 0x100 EXP SWAP1 DIV PUSH20 0xFFFFFFFFFFFFFFFFFFFFFFFFFFFFFFFFFFFFFFFF AND PUSH20 0xFFFFFFFFFFFFFFFFFFFFFFFFFFFFFFFFFFFFFFFF AND DUP2 MSTORE PUSH1 0x20 ADD SWAP1 PUSH1 0x1 ADD SWAP1 DUP1 DUP4 GT PUSH2 0x744 JUMPI JUMPDEST POP POP POP POP POP PUSH2 0xA75 JUMP JUMPDEST PUSH2 0x811 JUMPI PUSH1 0x3 PUSH1 0x0 DUP4 DUP2 MSTORE PUSH1 0x20 ADD SWAP1 DUP2 MSTORE PUSH1 0x20 ADD PUSH1 0x0 KECCAK256 CALLER SWAP1 DUP1 PUSH1 0x1 DUP2 SLOAD ADD DUP1 DUP3 SSTORE DUP1 SWAP2 POP POP PUSH1 0x1 SWAP1 SUB SWAP1 PUSH1 0x0 MSTORE PUSH1 0x20 PUSH1 0x0 KECCAK256 ADD PUSH1 0x0 SWAP1 SWAP2 SWAP1 SWAP2 SWAP1 SWAP2 PUSH2 0x100 EXP DUP2 SLOAD DUP2 PUSH20 0xFFFFFFFFFFFFFFFFFFFFFFFFFFFFFFFFFFFFFFFF MUL NOT AND SWAP1 DUP4 PUSH20 0xFFFFFFFFFFFFFFFFFFFFFFFFFFFFFFFFFFFFFFFF AND MUL OR SWAP1 SSTORE POP JUMPDEST PUSH1 0x2 PUSH1 0x0 DUP4 DUP2 MSTORE PUSH1 0x20 ADD SWAP1 DUP2 MSTORE PUSH1 0x20 ADD PUSH1 0x0 KECCAK256 PUSH1 0x2 ADD PUSH1 0x0 DUP2 SLOAD DUP1 SWAP3 SWAP2 SWAP1 PUSH2 0x838 SWAP1 PUSH2 0x12F3 JUMP JUMPDEST SWAP2 SWAP1 POP SSTORE POP POP POP JUMP JUMPDEST DUP1 PUSH1 0x2 PUSH1 0x0 DUP3 DUP2 MSTORE PUSH1 0x20 ADD SWAP1 DUP2 MSTORE PUSH1 0x20 ADD PUSH1 0x0 KECCAK256 PUSH1 0x3 ADD PUSH1 0x0 SWAP1 SLOAD SWAP1 PUSH2 0x100 EXP SWAP1 DIV PUSH1 0xFF AND PUSH2 0x8A5 JUMPI PUSH1 0x40 MLOAD PUSH32 0x8C379A000000000000000000000000000000000000000000000000000000000 DUP2 MSTORE PUSH1 0x4 ADD PUSH2 0x89C SWAP1 PUSH2 0x11A1 JUMP JUMPDEST PUSH1 0x40 MLOAD DUP1 SWAP2 SUB SWAP1 REVERT JUMPDEST PUSH2 0x93C DUP3 PUSH1 0x4 PUSH1 0x0 CALLER PUSH20 0xFFFFFFFFFFFFFFFFFFFFFFFFFFFFFFFFFFFFFFFF AND PUSH20 0xFFFFFFFFFFFFFFFFFFFFFFFFFFFFFFFFFFFFFFFF AND DUP2 MSTORE PUSH1 0x20 ADD SWAP1 DUP2 MSTORE PUSH1 0x20 ADD PUSH1 0x0 KECCAK256 DUP1 SLOAD DUP1 PUSH1 0x20 MUL PUSH1 0x20 ADD PUSH1 0x40 MLOAD SWAP1 DUP2 ADD PUSH1 0x40 MSTORE DUP1 SWAP3 SWAP2 SWAP1 DUP2 DUP2 MSTORE PUSH1 0x20 ADD DUP3 DUP1 SLOAD DUP1 ISZERO PUSH2 0x932 JUMPI PUSH1 0x20 MUL DUP3 ADD SWAP2 SWAP1 PUSH1 0x0 MSTORE PUSH1 0x20 PUSH1 0x0 KECCAK256 SWAP1 JUMPDEST DUP2 SLOAD DUP2 MSTORE PUSH1 0x20 ADD SWAP1 PUSH1 0x1 ADD SWAP1 DUP1 DUP4 GT PUSH2 0x91E JUMPI JUMPDEST POP POP POP POP POP PUSH2 0x9F3 JUMP JUMPDEST PUSH2 0x97B JUMPI PUSH1 0x40 MLOAD PUSH32 0x8C379A000000000000000000000000000000000000000000000000000000000 DUP2 MSTORE PUSH1 0x4 ADD PUSH2 0x972 SWAP1 PUSH2 0x1101 JUMP JUMPDEST PUSH1 0x40 MLOAD DUP1 SWAP2 SUB SWAP1 REVERT JUMPDEST PUSH2 0x9C3 PUSH1 0x4 PUSH1 0x0 CALLER PUSH20 0xFFFFFFFFFFFFFFFFFFFFFFFFFFFFFFFFFFFFFFFF AND PUSH20 0xFFFFFFFFFFFFFFFFFFFFFFFFFFFFFFFFFFFFFFFF AND DUP2 MSTORE PUSH1 0x20 ADD SWAP1 DUP2 MSTORE PUSH1 0x20 ADD PUSH1 0x0 KECCAK256 DUP4 PUSH2 0xB23 JUMP JUMPDEST PUSH1 0x2 PUSH1 0x0 DUP4 DUP2 MSTORE PUSH1 0x20 ADD SWAP1 DUP2 MSTORE PUSH1 0x20 ADD PUSH1 0x0 KECCAK256 PUSH1 0x2 ADD PUSH1 0x0 DUP2 SLOAD DUP1 SWAP3 SWAP2 SWAP1 PUSH2 0x9EA SWAP1 PUSH2 0x134F JUMP JUMPDEST SWAP2 SWAP1 POP SSTORE POP POP POP JUMP JUMPDEST PUSH1 0x0 DUP1 PUSH1 0x0 SWAP1 POP JUMPDEST DUP3 MLOAD DUP2 LT ISZERO PUSH2 0xA69 JUMPI DUP3 DUP2 DUP2 MLOAD DUP2 LT PUSH2 0xA3D JUMPI PUSH32 0x4E487B7100000000000000000000000000000000000000000000000000000000 PUSH1 0x0 MSTORE PUSH1 0x32 PUSH1 0x4 MSTORE PUSH1 0x24 PUSH1 0x0 REVERT JUMPDEST PUSH1 0x20 MUL PUSH1 0x20 ADD ADD MLOAD DUP5 EQ ISZERO PUSH2 0xA56 JUMPI PUSH1 0x1 SWAP2 POP POP PUSH2 0xA6F JUMP JUMPDEST DUP1 DUP1 PUSH2 0xA61 SWAP1 PUSH2 0x134F JUMP JUMPDEST SWAP2 POP POP PUSH2 0x9FB JUMP JUMPDEST POP PUSH1 0x0 SWAP1 POP JUMPDEST SWAP3 SWAP2 POP POP JUMP JUMPDEST PUSH1 0x0 DUP1 PUSH1 0x0 SWAP1 POP JUMPDEST DUP3 MLOAD DUP2 LT ISZERO PUSH2 0xB17 JUMPI DUP3 DUP2 DUP2 MLOAD DUP2 LT PUSH2 0xABF JUMPI PUSH32 0x4E487B7100000000000000000000000000000000000000000000000000000000 PUSH1 0x0 MSTORE PUSH1 0x32 PUSH1 0x4 MSTORE PUSH1 0x24 PUSH1 0x0 REVERT JUMPDEST PUSH1 0x20 MUL PUSH1 0x20 ADD ADD MLOAD PUSH20 0xFFFFFFFFFFFFFFFFFFFFFFFFFFFFFFFFFFFFFFFF AND DUP5 PUSH20 0xFFFFFFFFFFFFFFFFFFFFFFFFFFFFFFFFFFFFFFFF AND EQ ISZERO PUSH2 0xB04 JUMPI PUSH1 0x1 SWAP2 POP POP PUSH2 0xB1D JUMP JUMPDEST DUP1 DUP1 PUSH2 0xB0F SWAP1 PUSH2 0x134F JUMP JUMPDEST SWAP2 POP POP PUSH2 0xA7D JUMP JUMPDEST POP PUSH1 0x0 SWAP1 POP JUMPDEST SWAP3 SWAP2 POP POP JUMP JUMPDEST PUSH1 0x0 JUMPDEST DUP3 DUP1 SLOAD SWAP1 POP DUP2 LT ISZERO PUSH2 0xC79 JUMPI DUP3 DUP2 DUP2 SLOAD DUP2 LT PUSH2 0xB6B JUMPI PUSH32 0x4E487B7100000000000000000000000000000000000000000000000000000000 PUSH1 0x0 MSTORE PUSH1 0x32 PUSH1 0x4 MSTORE PUSH1 0x24 PUSH1 0x0 REVERT JUMPDEST SWAP1 PUSH1 0x0 MSTORE PUSH1 0x20 PUSH1 0x0 KECCAK256 ADD SLOAD DUP3 EQ ISZERO PUSH2 0xC66 JUMPI DUP3 PUSH1 0x1 DUP5 DUP1 SLOAD SWAP1 POP PUSH2 0xB8F SWAP2 SWAP1 PUSH2 0x1244 JUMP JUMPDEST DUP2 SLOAD DUP2 LT PUSH2 0xBC6 JUMPI PUSH32 0x4E487B7100000000000000000000000000000000000000000000000000000000 PUSH1 0x0 MSTORE PUSH1 0x32 PUSH1 0x4 MSTORE PUSH1 0x24 PUSH1 0x0 REVERT JUMPDEST SWAP1 PUSH1 0x0 MSTORE PUSH1 0x20 PUSH1 0x0 KECCAK256 ADD SLOAD DUP4 DUP3 DUP2 SLOAD DUP2 LT PUSH2 0xC0A JUMPI PUSH32 0x4E487B7100000000000000000000000000000000000000000000000000000000 PUSH1 0x0 MSTORE PUSH1 0x32 PUSH1 0x4 MSTORE PUSH1 0x24 PUSH1 0x0 REVERT JUMPDEST SWAP1 PUSH1 0x0 MSTORE PUSH1 0x20 PUSH1 0x0 KECCAK256 ADD DUP2 SWAP1 SSTORE POP DUP3 DUP1 SLOAD DUP1 PUSH2 0xC4F JUMPI PUSH32 0x4E487B7100000000000000000000000000000000000000000000000000000000 PUSH1 0x0 MSTORE PUSH1 0x31 PUSH1 0x4 MSTORE PUSH1 0x24 PUSH1 0x0 REVERT JUMPDEST PUSH1 0x1 SWAP1 SUB DUP2 DUP2 SWAP1 PUSH1 0x0 MSTORE PUSH1 0x20 PUSH1 0x0 KECCAK256 ADD PUSH1 0x0 SWAP1 SSTORE SWAP1 SSTORE JUMPDEST DUP1 DUP1 PUSH2 0xC71 SWAP1 PUSH2 0x134F JUMP JUMPDEST SWAP2 POP POP PUSH2 0xB26 JUMP JUMPDEST POP POP POP JUMP JUMPDEST DUP3 DUP1 SLOAD PUSH2 0xC8A SWAP1 PUSH2 0x131D JUMP JUMPDEST SWAP1 PUSH1 0x0 MSTORE PUSH1 0x20 PUSH1 0x0 KECCAK256 SWAP1 PUSH1 0x1F ADD PUSH1 0x20 SWAP1 DIV DUP2 ADD SWAP3 DUP3 PUSH2 0xCAC JUMPI PUSH1 0x0 DUP6 SSTORE PUSH2 0xCF3 JUMP JUMPDEST DUP3 PUSH1 0x1F LT PUSH2 0xCC5 JUMPI DUP1 CALLDATALOAD PUSH1 0xFF NOT AND DUP4 DUP1 ADD OR DUP6 SSTORE PUSH2 0xCF3 JUMP JUMPDEST DUP3 DUP1 ADD PUSH1 0x1 ADD DUP6 SSTORE DUP3 ISZERO PUSH2 0xCF3 JUMPI SWAP2 DUP3 ADD JUMPDEST DUP3 DUP2 GT ISZERO PUSH2 0xCF2 JUMPI DUP3 CALLDATALOAD DUP3 SSTORE SWAP2 PUSH1 0x20 ADD SWAP2 SWAP1 PUSH1 0x1 ADD SWAP1 PUSH2 0xCD7 JUMP JUMPDEST JUMPDEST POP SWAP1 POP PUSH2 0xD00 SWAP2 SWAP1 PUSH2 0xD04 JUMP JUMPDEST POP SWAP1 JUMP JUMPDEST JUMPDEST DUP1 DUP3 GT ISZERO PUSH2 0xD1D JUMPI PUSH1 0x0 DUP2 PUSH1 0x0 SWAP1 SSTORE POP PUSH1 0x1 ADD PUSH2 0xD05 JUMP JUMPDEST POP SWAP1 JUMP JUMPDEST PUSH1 0x0 DUP2 CALLDATALOAD SWAP1 POP PUSH2 0xD30 DUP2 PUSH2 0x1407 JUMP JUMPDEST SWAP3 SWAP2 POP POP JUMP JUMPDEST PUSH1 0x0 DUP1 DUP4 PUSH1 0x1F DUP5 ADD SLT PUSH2 0xD48 JUMPI PUSH1 0x0 DUP1 REVERT JUMPDEST DUP3 CALLDATALOAD SWAP1 POP PUSH8 0xFFFFFFFFFFFFFFFF DUP2 GT ISZERO PUSH2 0xD61 JUMPI PUSH1 0x0 DUP1 REVERT JUMPDEST PUSH1 0x20 DUP4 ADD SWAP2 POP DUP4 PUSH1 0x1 DUP3 MUL DUP4 ADD GT ISZERO PUSH2 0xD79 JUMPI PUSH1 0x0 DUP1 REVERT JUMPDEST SWAP3 POP SWAP3 SWAP1 POP JUMP JUMPDEST PUSH1 0x0 DUP2 CALLDATALOAD SWAP1 POP PUSH2 0xD8F DUP2 PUSH2 0x141E JUMP JUMPDEST SWAP3 SWAP2 POP POP JUMP JUMPDEST PUSH1 0x0 DUP1 PUSH1 0x40 DUP4 DUP6 SUB SLT ISZERO PUSH2 0xDA8 JUMPI PUSH1 0x0 DUP1 REVERT JUMPDEST PUSH1 0x0 PUSH2 0xDB6 DUP6 DUP3 DUP7 ADD PUSH2 0xD21 JUMP JUMPDEST SWAP3 POP POP PUSH1 0x20 PUSH2 0xDC7 DUP6 DUP3 DUP7 ADD PUSH2 0xD80 JUMP JUMPDEST SWAP2 POP POP SWAP3 POP SWAP3 SWAP1 POP JUMP JUMPDEST PUSH1 0x0 DUP1 PUSH1 0x0 PUSH1 0x40 DUP5 DUP7 SUB SLT ISZERO PUSH2 0xDE6 JUMPI PUSH1 0x0 DUP1 REVERT JUMPDEST PUSH1 0x0 DUP5 ADD CALLDATALOAD PUSH8 0xFFFFFFFFFFFFFFFF DUP2 GT ISZERO PUSH2 0xE00 JUMPI PUSH1 0x0 DUP1 REVERT JUMPDEST PUSH2 0xE0C DUP7 DUP3 DUP8 ADD PUSH2 0xD36 JUMP JUMPDEST SWAP4 POP SWAP4 POP POP PUSH1 0x20 PUSH2 0xE1F DUP7 DUP3 DUP8 ADD PUSH2 0xD80 JUMP JUMPDEST SWAP2 POP POP SWAP3 POP SWAP3 POP SWAP3 JUMP JUMPDEST PUSH1 0x0 PUSH1 0x20 DUP3 DUP5 SUB SLT ISZERO PUSH2 0xE3B JUMPI PUSH1 0x0 DUP1 REVERT JUMPDEST PUSH1 0x0 PUSH2 0xE49 DUP5 DUP3 DUP6 ADD PUSH2 0xD80 JUMP JUMPDEST SWAP2 POP POP SWAP3 SWAP2 POP POP JUMP JUMPDEST PUSH1 0x0 DUP1 PUSH1 0x40 DUP4 DUP6 SUB SLT ISZERO PUSH2 0xE65 JUMPI PUSH1 0x0 DUP1 REVERT JUMPDEST PUSH1 0x0 PUSH2 0xE73 DUP6 DUP3 DUP7 ADD PUSH2 0xD80 JUMP JUMPDEST SWAP3 POP POP PUSH1 0x20 PUSH2 0xE84 DUP6 DUP3 DUP7 ADD PUSH2 0xD80 JUMP JUMPDEST SWAP2 POP POP SWAP3 POP SWAP3 SWAP1 POP JUMP JUMPDEST PUSH2 0xE97 DUP2 PUSH2 0x1278 JUMP JUMPDEST DUP3 MSTORE POP POP JUMP JUMPDEST PUSH2 0xEA6 DUP2 PUSH2 0x128A JUMP JUMPDEST DUP3 MSTORE POP POP JUMP JUMPDEST PUSH1 0x0 PUSH2 0xEB7 DUP3 PUSH2 0x1228 JUMP JUMPDEST PUSH2 0xEC1 DUP2 DUP6 PUSH2 0x1233 JUMP JUMPDEST SWAP4 POP PUSH2 0xED1 DUP2 DUP6 PUSH1 0x20 DUP7 ADD PUSH2 0x12C0 JUMP JUMPDEST PUSH2 0xEDA DUP2 PUSH2 0x13F6 JUMP JUMPDEST DUP5 ADD SWAP2 POP POP SWAP3 SWAP2 POP POP JUMP JUMPDEST PUSH1 0x0 PUSH2 0xEF2 PUSH1 0x1E DUP4 PUSH2 0x1233 JUMP JUMPDEST SWAP2 POP PUSH32 0x596F7520686176656E7420626F72726F776564207468617420626F6F6B210000 PUSH1 0x0 DUP4 ADD MSTORE PUSH1 0x20 DUP3 ADD SWAP1 POP SWAP2 SWAP1 POP JUMP JUMPDEST PUSH1 0x0 PUSH2 0xF32 PUSH1 0x22 DUP4 PUSH2 0x1233 JUMP JUMPDEST SWAP2 POP PUSH32 0x596F7527766520616C726561647920626F72726F776564207468617420626F6F PUSH1 0x0 DUP4 ADD MSTORE PUSH32 0x6B21000000000000000000000000000000000000000000000000000000000000 PUSH1 0x20 DUP4 ADD MSTORE PUSH1 0x40 DUP3 ADD SWAP1 POP SWAP2 SWAP1 POP JUMP JUMPDEST PUSH1 0x0 PUSH2 0xF98 PUSH1 0x1A DUP4 PUSH2 0x1233 JUMP JUMPDEST SWAP2 POP PUSH32 0x43757272656E742075736572206973206E6F74206F776E657221000000000000 PUSH1 0x0 DUP4 ADD MSTORE PUSH1 0x20 DUP3 ADD SWAP1 POP SWAP2 SWAP1 POP JUMP JUMPDEST PUSH1 0x0 PUSH2 0xFD8 PUSH1 0x24 DUP4 PUSH2 0x1233 JUMP JUMPDEST SWAP2 POP PUSH32 0x5468697320626F6F6B206973206F7574206F662073746F636B2063757272656E PUSH1 0x0 DUP4 ADD MSTORE PUSH32 0x746C792100000000000000000000000000000000000000000000000000000000 PUSH1 0x20 DUP4 ADD MSTORE PUSH1 0x40 DUP3 ADD SWAP1 POP SWAP2 SWAP1 POP JUMP JUMPDEST PUSH1 0x0 PUSH2 0x103E PUSH1 0x23 DUP4 PUSH2 0x1233 JUMP JUMPDEST SWAP2 POP PUSH32 0x426F6F6B20616C72656164792065786973747320696E20746865204C69627261 PUSH1 0x0 DUP4 ADD MSTORE PUSH32 0x7279210000000000000000000000000000000000000000000000000000000000 PUSH1 0x20 DUP4 ADD MSTORE PUSH1 0x40 DUP3 ADD SWAP1 POP SWAP2 SWAP1 POP JUMP JUMPDEST PUSH1 0x0 PUSH2 0x10A4 PUSH1 0x1F DUP4 PUSH2 0x1233 JUMP JUMPDEST SWAP2 POP PUSH32 0x426F6F6B20646F6573206E6F7420657869737420696E206C6962726172792100 PUSH1 0x0 DUP4 ADD MSTORE PUSH1 0x20 DUP3 ADD SWAP1 POP SWAP2 SWAP1 POP JUMP JUMPDEST PUSH2 0x10E0 DUP2 PUSH2 0x12B6 JUMP JUMPDEST DUP3 MSTORE POP POP JUMP JUMPDEST PUSH1 0x0 PUSH1 0x20 DUP3 ADD SWAP1 POP PUSH2 0x10FB PUSH1 0x0 DUP4 ADD DUP5 PUSH2 0xE8E JUMP JUMPDEST SWAP3 SWAP2 POP POP JUMP JUMPDEST PUSH1 0x0 PUSH1 0x20 DUP3 ADD SWAP1 POP DUP2 DUP2 SUB PUSH1 0x0 DUP4 ADD MSTORE PUSH2 0x111A DUP2 PUSH2 0xEE5 JUMP JUMPDEST SWAP1 POP SWAP2 SWAP1 POP JUMP JUMPDEST PUSH1 0x0 PUSH1 0x20 DUP3 ADD SWAP1 POP DUP2 DUP2 SUB PUSH1 0x0 DUP4 ADD MSTORE PUSH2 0x113A DUP2 PUSH2 0xF25 JUMP JUMPDEST SWAP1 POP SWAP2 SWAP1 POP JUMP JUMPDEST PUSH1 0x0 PUSH1 0x20 DUP3 ADD SWAP1 POP DUP2 DUP2 SUB PUSH1 0x0 DUP4 ADD MSTORE PUSH2 0x115A DUP2 PUSH2 0xF8B JUMP JUMPDEST SWAP1 POP SWAP2 SWAP1 POP JUMP JUMPDEST PUSH1 0x0 PUSH1 0x20 DUP3 ADD SWAP1 POP DUP2 DUP2 SUB PUSH1 0x0 DUP4 ADD MSTORE PUSH2 0x117A DUP2 PUSH2 0xFCB JUMP JUMPDEST SWAP1 POP SWAP2 SWAP1 POP JUMP JUMPDEST PUSH1 0x0 PUSH1 0x20 DUP3 ADD SWAP1 POP DUP2 DUP2 SUB PUSH1 0x0 DUP4 ADD MSTORE PUSH2 0x119A DUP2 PUSH2 0x1031 JUMP JUMPDEST SWAP1 POP SWAP2 SWAP1 POP JUMP JUMPDEST PUSH1 0x0 PUSH1 0x20 DUP3 ADD SWAP1 POP DUP2 DUP2 SUB PUSH1 0x0 DUP4 ADD MSTORE PUSH2 0x11BA DUP2 PUSH2 0x1097 JUMP JUMPDEST SWAP1 POP SWAP2 SWAP1 POP JUMP JUMPDEST PUSH1 0x0 PUSH1 0x20 DUP3 ADD SWAP1 POP PUSH2 0x11D6 PUSH1 0x0 DUP4 ADD DUP5 PUSH2 0x10D7 JUMP JUMPDEST SWAP3 SWAP2 POP POP JUMP JUMPDEST PUSH1 0x0 PUSH1 0x80 DUP3 ADD SWAP1 POP PUSH2 0x11F1 PUSH1 0x0 DUP4 ADD DUP8 PUSH2 0x10D7 JUMP JUMPDEST DUP2 DUP2 SUB PUSH1 0x20 DUP4 ADD MSTORE PUSH2 0x1203 DUP2 DUP7 PUSH2 0xEAC JUMP JUMPDEST SWAP1 POP PUSH2 0x1212 PUSH1 0x40 DUP4 ADD DUP6 PUSH2 0x10D7 JUMP JUMPDEST PUSH2 0x121F PUSH1 0x60 DUP4 ADD DUP5 PUSH2 0xE9D JUMP JUMPDEST SWAP6 SWAP5 POP POP POP POP POP JUMP JUMPDEST PUSH1 0x0 DUP2 MLOAD SWAP1 POP SWAP2 SWAP1 POP JUMP JUMPDEST PUSH1 0x0 DUP3 DUP3 MSTORE PUSH1 0x20 DUP3 ADD SWAP1 POP SWAP3 SWAP2 POP POP JUMP JUMPDEST PUSH1 0x0 PUSH2 0x124F DUP3 PUSH2 0x12B6 JUMP JUMPDEST SWAP2 POP PUSH2 0x125A DUP4 PUSH2 0x12B6 JUMP JUMPDEST SWAP3 POP DUP3 DUP3 LT ISZERO PUSH2 0x126D JUMPI PUSH2 0x126C PUSH2 0x1398 JUMP JUMPDEST JUMPDEST DUP3 DUP3 SUB SWAP1 POP SWAP3 SWAP2 POP POP JUMP JUMPDEST PUSH1 0x0 PUSH2 0x1283 DUP3 PUSH2 0x1296 JUMP JUMPDEST SWAP1 POP SWAP2 SWAP1 POP JUMP JUMPDEST PUSH1 0x0 DUP2 ISZERO ISZERO SWAP1 POP SWAP2 SWAP1 POP JUMP JUMPDEST PUSH1 0x0 PUSH20 0xFFFFFFFFFFFFFFFFFFFFFFFFFFFFFFFFFFFFFFFF DUP3 AND SWAP1 POP SWAP2 SWAP1 POP JUMP JUMPDEST PUSH1 0x0 DUP2 SWAP1 POP SWAP2 SWAP1 POP JUMP JUMPDEST PUSH1 0x0 JUMPDEST DUP4 DUP2 LT ISZERO PUSH2 0x12DE JUMPI DUP1 DUP3 ADD MLOAD DUP2 DUP5 ADD MSTORE PUSH1 0x20 DUP2 ADD SWAP1 POP PUSH2 0x12C3 JUMP JUMPDEST DUP4 DUP2 GT ISZERO PUSH2 0x12ED JUMPI PUSH1 0x0 DUP5 DUP5 ADD MSTORE JUMPDEST POP POP POP POP JUMP JUMPDEST PUSH1 0x0 PUSH2 0x12FE DUP3 PUSH2 0x12B6 JUMP JUMPDEST SWAP2 POP PUSH1 0x0 DUP3 EQ ISZERO PUSH2 0x1312 JUMPI PUSH2 0x1311 PUSH2 0x1398 JUMP JUMPDEST JUMPDEST PUSH1 0x1 DUP3 SUB SWAP1 POP SWAP2 SWAP1 POP JUMP JUMPDEST PUSH1 0x0 PUSH1 0x2 DUP3 DIV SWAP1 POP PUSH1 0x1 DUP3 AND DUP1 PUSH2 0x1335 JUMPI PUSH1 0x7F DUP3 AND SWAP2 POP JUMPDEST PUSH1 0x20 DUP3 LT DUP2 EQ ISZERO PUSH2 0x1349 JUMPI PUSH2 0x1348 PUSH2 0x13C7 JUMP JUMPDEST JUMPDEST POP SWAP2 SWAP1 POP JUMP JUMPDEST PUSH1 0x0 PUSH2 0x135A DUP3 PUSH2 0x12B6 JUMP JUMPDEST SWAP2 POP PUSH32 0xFFFFFFFFFFFFFFFFFFFFFFFFFFFFFFFFFFFFFFFFFFFFFFFFFFFFFFFFFFFFFFFF DUP3 EQ ISZERO PUSH2 0x138D JUMPI PUSH2 0x138C PUSH2 0x1398 JUMP JUMPDEST JUMPDEST PUSH1 0x1 DUP3 ADD SWAP1 POP SWAP2 SWAP1 POP JUMP JUMPDEST PUSH32 0x4E487B7100000000000000000000000000000000000000000000000000000000 PUSH1 0x0 MSTORE PUSH1 0x11 PUSH1 0x4 MSTORE PUSH1 0x24 PUSH1 0x0 REVERT JUMPDEST PUSH32 0x4E487B7100000000000000000000000000000000000000000000000000000000 PUSH1 0x0 MSTORE PUSH1 0x22 PUSH1 0x4 MSTORE PUSH1 0x24 PUSH1 0x0 REVERT JUMPDEST PUSH1 0x0 PUSH1 0x1F NOT PUSH1 0x1F DUP4 ADD AND SWAP1 POP SWAP2 SWAP1 POP JUMP JUMPDEST PUSH2 0x1410 DUP2 PUSH2 0x1278 JUMP JUMPDEST DUP2 EQ PUSH2 0x141B JUMPI PUSH1 0x0 DUP1 REVERT JUMPDEST POP JUMP JUMPDEST PUSH2 0x1427 DUP2 PUSH2 0x12B6 JUMP JUMPDEST DUP2 EQ PUSH2 0x1432 JUMPI PUSH1 0x0 DUP1 REVERT JUMPDEST POP JUMP INVALID LOG2 PUSH5 0x6970667358 0x22 SLT KECCAK256 SWAP12 SWAP4 0x27 PUSH6 0x7F002C118847 LOG1 PUSH29 0x3C041D5F4CEDC69AFD5077D96370572D366B632264736F6C6343000800 STOP CALLER "
				},
				"gasEstimates": {
					"creation": {
						"codeDepositCost": "1045400",
						"executionCost": "21953",
						"totalCost": "1067353"
					},
					"external": {
						"AddBook(string,uint256)": "infinite",
						"BookBorrowerHistory(uint256,uint256)": "infinite",
						"BookList(uint256)": "infinite",
						"BorrowBook(uint256)": "infinite",
						"ClientBorrowList(address,uint256)": "infinite",
						"ReturnBook(uint256)": "infinite",
						"owner()": "1233"
					}
				},
				"methodIdentifiers": {
					"AddBook(string,uint256)": "265be2e2",
					"BookBorrowerHistory(uint256,uint256)": "18413898",
					"BookList(uint256)": "71e25e5a",
					"BorrowBook(uint256)": "9649faa3",
					"ClientBorrowList(address,uint256)": "2b3819fe",
					"ReturnBook(uint256)": "b8dd17db",
					"owner()": "8da5cb5b"
				}
			},
			"userdoc": {
				"kind": "user",
				"methods": {},
				"version": 1
			}
		}
	}
}