{
	"Library.sol": {
		"Library": {
			"abi": [
				{
					"inputs": [],
					"stateMutability": "nonpayable",
					"type": "constructor"
				},
				{
					"inputs": [
						{
							"components": [
								{
									"internalType": "uint256",
									"name": "id",
									"type": "uint256"
								},
								{
									"internalType": "string",
									"name": "name",
									"type": "string"
								},
								{
									"internalType": "uint256",
									"name": "quantity",
									"type": "uint256"
								},
								{
									"internalType": "bool",
									"name": "exists",
									"type": "bool"
								}
							],
							"internalType": "struct Library.Book",
							"name": "book",
							"type": "tuple"
						}
					],
					"name": "AddBook",
					"outputs": [],
					"stateMutability": "nonpayable",
					"type": "function"
				},
				{
					"inputs": [
						{
							"internalType": "string",
							"name": "bookName",
							"type": "string"
						}
					],
					"name": "BorrowBook",
					"outputs": [],
					"stateMutability": "nonpayable",
					"type": "function"
				},
				{
					"inputs": [
						{
							"internalType": "string",
							"name": "a",
							"type": "string"
						},
						{
							"internalType": "string",
							"name": "b",
							"type": "string"
						}
					],
					"name": "compareStrings",
					"outputs": [
						{
							"internalType": "bool",
							"name": "",
							"type": "bool"
						}
					],
					"stateMutability": "view",
					"type": "function"
				},
				{
					"inputs": [
						{
							"internalType": "uint256",
							"name": "",
							"type": "uint256"
						}
					],
					"name": "firstArray",
					"outputs": [
						{
							"internalType": "uint256",
							"name": "",
							"type": "uint256"
						}
					],
					"stateMutability": "view",
					"type": "function"
				},
				{
					"inputs": [],
					"name": "getLength",
					"outputs": [
						{
							"internalType": "uint256",
							"name": "",
							"type": "uint256"
						}
					],
					"stateMutability": "view",
					"type": "function"
				},
				{
					"inputs": [],
					"name": "owner",
					"outputs": [
						{
							"internalType": "address",
							"name": "",
							"type": "address"
						}
					],
					"stateMutability": "view",
					"type": "function"
				},
				{
					"inputs": [
						{
							"internalType": "uint256",
							"name": "i",
							"type": "uint256"
						}
					],
					"name": "removeItem",
					"outputs": [],
					"stateMutability": "nonpayable",
					"type": "function"
				}
			],
			"devdoc": {
				"kind": "dev",
				"methods": {},
				"version": 1
			},
			"evm": {
				"assembly": "    /* \"Library.sol\":88:1913  contract Library is Helpers{... */\n  mstore(0x40, 0x80)\n    /* \"Helpers.sol\":86:124  uint[] public firstArray = [1,2,3,4,5] */\n  mload(0x40)\n  dup1\n  0xa0\n  add\n  0x40\n  mstore\n  dup1\n    /* \"Helpers.sol\":114:115  1 */\n  0x01\n    /* \"Helpers.sol\":86:124  uint[] public firstArray = [1,2,3,4,5] */\n  0xff\n  and\n  dup2\n  mstore\n  0x20\n  add\n    /* \"Helpers.sol\":116:117  2 */\n  0x02\n    /* \"Helpers.sol\":86:124  uint[] public firstArray = [1,2,3,4,5] */\n  0xff\n  and\n  dup2\n  mstore\n  0x20\n  add\n    /* \"Helpers.sol\":118:119  3 */\n  0x03\n    /* \"Helpers.sol\":86:124  uint[] public firstArray = [1,2,3,4,5] */\n  0xff\n  and\n  dup2\n  mstore\n  0x20\n  add\n    /* \"Helpers.sol\":120:121  4 */\n  0x04\n    /* \"Helpers.sol\":86:124  uint[] public firstArray = [1,2,3,4,5] */\n  0xff\n  and\n  dup2\n  mstore\n  0x20\n  add\n    /* \"Helpers.sol\":122:123  5 */\n  0x05\n    /* \"Helpers.sol\":86:124  uint[] public firstArray = [1,2,3,4,5] */\n  0xff\n  and\n  dup2\n  mstore\n  pop\n  0x00\n  swap1\n  0x05\n  tag_1\n  swap3\n  swap2\n  swap1\n  tag_2\n  jump\t// in\ntag_1:\n  pop\n    /* \"Library.sol\":531:579  constructor(){... */\n  callvalue\n  dup1\n  iszero\n  tag_3\n  jumpi\n  0x00\n  dup1\n  revert\ntag_3:\n  pop\n    /* \"Library.sol\":562:572  msg.sender */\n  caller\n    /* \"Library.sol\":554:559  owner */\n  0x01\n  0x00\n    /* \"Library.sol\":554:572  owner = msg.sender */\n  0x0100\n  exp\n  dup2\n  sload\n  dup2\n  0xffffffffffffffffffffffffffffffffffffffff\n  mul\n  not\n  and\n  swap1\n  dup4\n  0xffffffffffffffffffffffffffffffffffffffff\n  and\n  mul\n  or\n  swap1\n  sstore\n  pop\n    /* \"Library.sol\":88:1913  contract Library is Helpers{... */\n  jump(tag_6)\ntag_2:\n  dup3\n  dup1\n  sload\n  dup3\n  dup3\n  sstore\n  swap1\n  0x00\n  mstore\n  keccak256(0x00, 0x20)\n  swap1\n  dup2\n  add\n  swap3\n  dup3\n  iszero\n  tag_7\n  jumpi\n  swap2\n  0x20\n  mul\n  dup3\n  add\ntag_8:\n  dup3\n  dup2\n  gt\n  iszero\n  tag_9\n  jumpi\n  dup3\n  mload\n  dup3\n  swap1\n  0xff\n  and\n  swap1\n  sstore\n  swap2\n  0x20\n  add\n  swap2\n  swap1\n  0x01\n  add\n  swap1\n  jump(tag_8)\ntag_9:\ntag_7:\n  pop\n  swap1\n  pop\n  tag_10\n  swap2\n  swap1\n  tag_11\n  jump\t// in\ntag_10:\n  pop\n  swap1\n  jump\t// out\ntag_11:\ntag_12:\n  dup1\n  dup3\n  gt\n  iszero\n  tag_13\n  jumpi\n  0x00\n  dup2\n  0x00\n  swap1\n  sstore\n  pop\n  0x01\n  add\n  jump(tag_12)\ntag_13:\n  pop\n  swap1\n  jump\t// out\ntag_6:\n  dataSize(sub_0)\n  dup1\n  dataOffset(sub_0)\n  0x00\n  codecopy\n  0x00\n  return\nstop\n\nsub_0: assembly {\n        /* \"Library.sol\":88:1913  contract Library is Helpers{... */\n      mstore(0x40, 0x80)\n      callvalue\n      dup1\n      iszero\n      tag_1\n      jumpi\n      0x00\n      dup1\n      revert\n    tag_1:\n      pop\n      jumpi(tag_2, lt(calldatasize, 0x04))\n      shr(0xe0, calldataload(0x00))\n      dup1\n      0x71329171\n      gt\n      tag_10\n      jumpi\n      dup1\n      0x71329171\n      eq\n      tag_6\n      jumpi\n      dup1\n      0x8da5cb5b\n      eq\n      tag_7\n      jumpi\n      dup1\n      0xbe1c766b\n      eq\n      tag_8\n      jumpi\n      dup1\n      0xbed34bba\n      eq\n      tag_9\n      jumpi\n      jump(tag_2)\n    tag_10:\n      dup1\n      0x5811a3b9\n      eq\n      tag_3\n      jumpi\n      dup1\n      0x5b87081f\n      eq\n      tag_4\n      jumpi\n      dup1\n      0x5d16b308\n      eq\n      tag_5\n      jumpi\n    tag_2:\n      0x00\n      dup1\n      revert\n        /* \"Helpers.sol\":86:124  uint[] public firstArray = [1,2,3,4,5] */\n    tag_3:\n      tag_11\n      0x04\n      dup1\n      calldatasize\n      sub\n      dup2\n      add\n      swap1\n      tag_12\n      swap2\n      swap1\n      tag_13\n      jump\t// in\n    tag_12:\n      tag_14\n      jump\t// in\n    tag_11:\n      mload(0x40)\n      tag_15\n      swap2\n      swap1\n      tag_16\n      jump\t// in\n    tag_15:\n      mload(0x40)\n      dup1\n      swap2\n      sub\n      swap1\n      return\n        /* \"Library.sol\":1007:1492  function BorrowBook(string calldata bookName) public{        ... */\n    tag_4:\n      tag_17\n      0x04\n      dup1\n      calldatasize\n      sub\n      dup2\n      add\n      swap1\n      tag_18\n      swap2\n      swap1\n      tag_19\n      jump\t// in\n    tag_18:\n      tag_20\n      jump\t// in\n    tag_17:\n      stop\n        /* \"Library.sol\":585:1001  function AddBook(Book calldata book) public onlyOwnable{... */\n    tag_5:\n      tag_21\n      0x04\n      dup1\n      calldatasize\n      sub\n      dup2\n      add\n      swap1\n      tag_22\n      swap2\n      swap1\n      tag_23\n      jump\t// in\n    tag_22:\n      tag_24\n      jump\t// in\n    tag_21:\n      stop\n        /* \"Helpers.sol\":131:200  function removeItem(uint i) public{... */\n    tag_6:\n      tag_25\n      0x04\n      dup1\n      calldatasize\n      sub\n      dup2\n      add\n      swap1\n      tag_26\n      swap2\n      swap1\n      tag_13\n      jump\t// in\n    tag_26:\n      tag_27\n      jump\t// in\n    tag_25:\n      stop\n        /* \"Library.sol\":121:141  address public owner */\n    tag_7:\n      tag_28\n      tag_29\n      jump\t// in\n    tag_28:\n      mload(0x40)\n      tag_30\n      swap2\n      swap1\n      tag_31\n      jump\t// in\n    tag_30:\n      mload(0x40)\n      dup1\n      swap2\n      sub\n      swap1\n      return\n        /* \"Helpers.sol\":206:291  function getLength() public view returns(uint){... */\n    tag_8:\n      tag_32\n      tag_33\n      jump\t// in\n    tag_32:\n      mload(0x40)\n      tag_34\n      swap2\n      swap1\n      tag_16\n      jump\t// in\n    tag_34:\n      mload(0x40)\n      dup1\n      swap2\n      sub\n      swap1\n      return\n        /* \"Helpers.sol\":1001:1180  function compareStrings(string memory a, string memory b) public view returns (bool) {... */\n    tag_9:\n      tag_35\n      0x04\n      dup1\n      calldatasize\n      sub\n      dup2\n      add\n      swap1\n      tag_36\n      swap2\n      swap1\n      tag_37\n      jump\t// in\n    tag_36:\n      tag_38\n      jump\t// in\n    tag_35:\n      mload(0x40)\n      tag_39\n      swap2\n      swap1\n      tag_40\n      jump\t// in\n    tag_39:\n      mload(0x40)\n      dup1\n      swap2\n      sub\n      swap1\n      return\n        /* \"Helpers.sol\":86:124  uint[] public firstArray = [1,2,3,4,5] */\n    tag_14:\n      0x00\n      dup2\n      dup2\n      sload\n      dup2\n      lt\n      tag_41\n      jumpi\n      0x00\n      dup1\n      revert\n    tag_41:\n      swap1\n      0x00\n      mstore\n      keccak256(0x00, 0x20)\n      add\n      0x00\n      swap2\n      pop\n      swap1\n      pop\n      sload\n      dup2\n      jump\t// out\n        /* \"Library.sol\":1007:1492  function BorrowBook(string calldata bookName) public{        ... */\n    tag_20:\n        /* \"Library.sol\":1080:1142  StringArrContainsValue(bookName, ClientBorrowList[msg.sender]) */\n      tag_44\n        /* \"Library.sol\":1103:1111  bookName */\n      dup3\n      dup3\n        /* \"Library.sol\":1113:1129  ClientBorrowList */\n      0x05\n        /* \"Library.sol\":1113:1141  ClientBorrowList[msg.sender] */\n      0x00\n        /* \"Library.sol\":1130:1140  msg.sender */\n      caller\n        /* \"Library.sol\":1113:1141  ClientBorrowList[msg.sender] */\n      0xffffffffffffffffffffffffffffffffffffffff\n      and\n      0xffffffffffffffffffffffffffffffffffffffff\n      and\n      dup2\n      mstore\n      0x20\n      add\n      swap1\n      dup2\n      mstore\n      0x20\n      add\n      0x00\n      keccak256\n        /* \"Library.sol\":1080:1142  StringArrContainsValue(bookName, ClientBorrowList[msg.sender]) */\n      dup1\n      sload\n      dup1\n      0x20\n      mul\n      0x20\n      add\n      mload(0x40)\n      swap1\n      dup2\n      add\n      0x40\n      mstore\n      dup1\n      swap3\n      swap2\n      swap1\n      dup2\n      dup2\n      mstore\n      0x20\n      add\n      0x00\n      swap1\n    tag_45:\n      dup3\n      dup3\n      lt\n      iszero\n      tag_46\n      jumpi\n      dup4\n      dup3\n      swap1\n      0x00\n      mstore\n      keccak256(0x00, 0x20)\n      add\n      dup1\n      sload\n      tag_48\n      swap1\n      tag_49\n      jump\t// in\n    tag_48:\n      dup1\n      0x1f\n      add\n      0x20\n      dup1\n      swap2\n      div\n      mul\n      0x20\n      add\n      mload(0x40)\n      swap1\n      dup2\n      add\n      0x40\n      mstore\n      dup1\n      swap3\n      swap2\n      swap1\n      dup2\n      dup2\n      mstore\n      0x20\n      add\n      dup3\n      dup1\n      sload\n      tag_50\n      swap1\n      tag_49\n      jump\t// in\n    tag_50:\n      dup1\n      iszero\n      tag_51\n      jumpi\n      dup1\n      0x1f\n      lt\n      tag_52\n      jumpi\n      0x0100\n      dup1\n      dup4\n      sload\n      div\n      mul\n      dup4\n      mstore\n      swap2\n      0x20\n      add\n      swap2\n      jump(tag_51)\n    tag_52:\n      dup3\n      add\n      swap2\n      swap1\n      0x00\n      mstore\n      keccak256(0x00, 0x20)\n      swap1\n    tag_53:\n      dup2\n      sload\n      dup2\n      mstore\n      swap1\n      0x01\n      add\n      swap1\n      0x20\n      add\n      dup1\n      dup4\n      gt\n      tag_53\n      jumpi\n      dup3\n      swap1\n      sub\n      0x1f\n      and\n      dup3\n      add\n      swap2\n    tag_51:\n      pop\n      pop\n      pop\n      pop\n      pop\n      dup2\n      mstore\n      0x20\n      add\n      swap1\n      0x01\n      add\n      swap1\n      jump(tag_45)\n    tag_46:\n      pop\n      pop\n      pop\n      pop\n        /* \"Library.sol\":1080:1102  StringArrContainsValue */\n      tag_54\n        /* \"Library.sol\":1080:1142  StringArrContainsValue(bookName, ClientBorrowList[msg.sender]) */\n      jump\t// in\n    tag_44:\n        /* \"Library.sol\":1077:1218  if(StringArrContainsValue(bookName, ClientBorrowList[msg.sender])){... */\n      iszero\n      tag_55\n      jumpi\n        /* \"Library.sol\":1157:1207  revert(\"This book already exists in the Library!\") */\n      mload(0x40)\n      0x08c379a000000000000000000000000000000000000000000000000000000000\n      dup2\n      mstore\n      0x04\n      add\n      tag_56\n      swap1\n      tag_57\n      jump\t// in\n    tag_56:\n      mload(0x40)\n      dup1\n      swap2\n      sub\n      swap1\n      revert\n        /* \"Library.sol\":1077:1218  if(StringArrContainsValue(bookName, ClientBorrowList[msg.sender])){... */\n    tag_55:\n        /* \"Library.sol\":1260:1261  0 */\n      0x00\n        /* \"Library.sol\":1231:1239  BookList */\n      0x03\n        /* \"Library.sol\":1240:1248  bookName */\n      dup4\n      dup4\n        /* \"Library.sol\":1231:1249  BookList[bookName] */\n      mload(0x40)\n      tag_58\n      swap3\n      swap2\n      swap1\n      tag_59\n      jump\t// in\n    tag_58:\n      swap1\n      dup2\n      mstore\n      0x20\n      add\n      mload(0x40)\n      dup1\n      swap2\n      sub\n      swap1\n      keccak256\n        /* \"Library.sol\":1231:1258  BookList[bookName].quantity */\n      0x02\n      add\n      sload\n        /* \"Library.sol\":1231:1261  BookList[bookName].quantity==0 */\n      eq\n        /* \"Library.sol\":1228:1333  if(BookList[bookName].quantity==0){... */\n      iszero\n      tag_60\n      jumpi\n        /* \"Library.sol\":1276:1322  revert(\"This book is out of stock currently!\") */\n      mload(0x40)\n      0x08c379a000000000000000000000000000000000000000000000000000000000\n      dup2\n      mstore\n      0x04\n      add\n      tag_61\n      swap1\n      tag_62\n      jump\t// in\n    tag_61:\n      mload(0x40)\n      dup1\n      swap2\n      sub\n      swap1\n      revert\n        /* \"Library.sol\":1228:1333  if(BookList[bookName].quantity==0){... */\n    tag_60:\n        /* \"Library.sol\":1007:1492  function BorrowBook(string calldata bookName) public{        ... */\n      pop\n      pop\n      jump\t// out\n        /* \"Library.sol\":585:1001  function AddBook(Book calldata book) public onlyOwnable{... */\n    tag_24:\n        /* \"Library.sol\":471:476  owner */\n      0x01\n      0x00\n      swap1\n      sload\n      swap1\n      0x0100\n      exp\n      swap1\n      div\n      0xffffffffffffffffffffffffffffffffffffffff\n      and\n        /* \"Library.sol\":457:476  msg.sender == owner */\n      0xffffffffffffffffffffffffffffffffffffffff\n      and\n        /* \"Library.sol\":457:467  msg.sender */\n      caller\n        /* \"Library.sol\":457:476  msg.sender == owner */\n      0xffffffffffffffffffffffffffffffffffffffff\n      and\n      eq\n        /* \"Library.sol\":449:507  require(msg.sender == owner, \"Current user is not owner!\") */\n      tag_64\n      jumpi\n      mload(0x40)\n      0x08c379a000000000000000000000000000000000000000000000000000000000\n      dup2\n      mstore\n      0x04\n      add\n      tag_65\n      swap1\n      tag_66\n      jump\t// in\n    tag_65:\n      mload(0x40)\n      dup1\n      swap2\n      sub\n      swap1\n      revert\n    tag_64:\n        /* \"Library.sol\":650:672  string memory bookName */\n      0x00\n        /* \"Library.sol\":675:679  book */\n      dup2\n        /* \"Library.sol\":675:684  book.name */\n      dup1\n      0x20\n      add\n      swap1\n      tag_68\n      swap2\n      swap1\n      tag_69\n      jump\t// in\n    tag_68:\n        /* \"Library.sol\":650:684  string memory bookName = book.name */\n      dup1\n      dup1\n      0x1f\n      add\n      0x20\n      dup1\n      swap2\n      div\n      mul\n      0x20\n      add\n      mload(0x40)\n      swap1\n      dup2\n      add\n      0x40\n      mstore\n      dup1\n      swap4\n      swap3\n      swap2\n      swap1\n      dup2\n      dup2\n      mstore\n      0x20\n      add\n      dup4\n      dup4\n      dup1\n      dup3\n      dup5\n      calldatacopy\n      0x00\n      dup2\n      dup5\n      add\n      mstore\n      not(0x1f)\n      0x1f\n      dup3\n      add\n      and\n      swap1\n      pop\n      dup1\n      dup4\n      add\n      swap3\n      pop\n      pop\n      pop\n      pop\n      pop\n      pop\n      pop\n      swap1\n      pop\n        /* \"Library.sol\":698:706  BookList */\n      0x03\n        /* \"Library.sol\":707:715  bookName */\n      dup2\n        /* \"Library.sol\":698:716  BookList[bookName] */\n      mload(0x40)\n      tag_70\n      swap2\n      swap1\n      tag_71\n      jump\t// in\n    tag_70:\n      swap1\n      dup2\n      mstore\n      0x20\n      add\n      mload(0x40)\n      dup1\n      swap2\n      sub\n      swap1\n      keccak256\n        /* \"Library.sol\":698:723  BookList[bookName].exists */\n      0x03\n      add\n      0x00\n      swap1\n      sload\n      swap1\n      0x0100\n      exp\n      swap1\n      div\n      0xff\n      and\n        /* \"Library.sol\":695:794  if(BookList[bookName].exists){... */\n      iszero\n      tag_72\n      jumpi\n        /* \"Library.sol\":738:783  revert(\"Book already exists in the Library!\") */\n      mload(0x40)\n      0x08c379a000000000000000000000000000000000000000000000000000000000\n      dup2\n      mstore\n      0x04\n      add\n      tag_73\n      swap1\n      tag_74\n      jump\t// in\n    tag_73:\n      mload(0x40)\n      dup1\n      swap2\n      sub\n      swap1\n      revert\n        /* \"Library.sol\":695:794  if(BookList[bookName].exists){... */\n    tag_72:\n        /* \"Library.sol\":828:835  counter */\n      sload(0x02)\n        /* \"Library.sol\":804:812  BookList */\n      0x03\n        /* \"Library.sol\":813:821  bookName */\n      dup3\n        /* \"Library.sol\":804:822  BookList[bookName] */\n      mload(0x40)\n      tag_75\n      swap2\n      swap1\n      tag_71\n      jump\t// in\n    tag_75:\n      swap1\n      dup2\n      mstore\n      0x20\n      add\n      mload(0x40)\n      dup1\n      swap2\n      sub\n      swap1\n      keccak256\n        /* \"Library.sol\":804:825  BookList[bookName].id */\n      0x00\n      add\n        /* \"Library.sol\":804:835  BookList[bookName].id = counter */\n      dup2\n      swap1\n      sstore\n      pop\n        /* \"Library.sol\":871:875  book */\n      dup2\n        /* \"Library.sol\":871:880  book.name */\n      dup1\n      0x20\n      add\n      swap1\n      tag_76\n      swap2\n      swap1\n      tag_69\n      jump\t// in\n    tag_76:\n        /* \"Library.sol\":845:853  BookList */\n      0x03\n        /* \"Library.sol\":854:862  bookName */\n      dup4\n        /* \"Library.sol\":845:863  BookList[bookName] */\n      mload(0x40)\n      tag_77\n      swap2\n      swap1\n      tag_71\n      jump\t// in\n    tag_77:\n      swap1\n      dup2\n      mstore\n      0x20\n      add\n      mload(0x40)\n      dup1\n      swap2\n      sub\n      swap1\n      keccak256\n        /* \"Library.sol\":845:868  BookList[bookName].name */\n      0x01\n      add\n        /* \"Library.sol\":845:880  BookList[bookName].name = book.name */\n      swap2\n      swap1\n      tag_78\n      swap3\n      swap2\n      swap1\n      tag_79\n      jump\t// in\n    tag_78:\n      pop\n        /* \"Library.sol\":920:924  book */\n      dup2\n        /* \"Library.sol\":920:933  book.quantity */\n      0x40\n      add\n      calldataload\n        /* \"Library.sol\":890:898  BookList */\n      0x03\n        /* \"Library.sol\":899:907  bookName */\n      dup3\n        /* \"Library.sol\":890:908  BookList[bookName] */\n      mload(0x40)\n      tag_80\n      swap2\n      swap1\n      tag_71\n      jump\t// in\n    tag_80:\n      swap1\n      dup2\n      mstore\n      0x20\n      add\n      mload(0x40)\n      dup1\n      swap2\n      sub\n      swap1\n      keccak256\n        /* \"Library.sol\":890:917  BookList[bookName].quantity */\n      0x02\n      add\n        /* \"Library.sol\":890:933  BookList[bookName].quantity = book.quantity */\n      dup2\n      swap1\n      sstore\n      pop\n        /* \"Library.sol\":971:975  true */\n      0x01\n        /* \"Library.sol\":943:951  BookList */\n      0x03\n        /* \"Library.sol\":952:960  bookName */\n      dup3\n        /* \"Library.sol\":943:961  BookList[bookName] */\n      mload(0x40)\n      tag_81\n      swap2\n      swap1\n      tag_71\n      jump\t// in\n    tag_81:\n      swap1\n      dup2\n      mstore\n      0x20\n      add\n      mload(0x40)\n      dup1\n      swap2\n      sub\n      swap1\n      keccak256\n        /* \"Library.sol\":943:968  BookList[bookName].exists */\n      0x03\n      add\n      0x00\n        /* \"Library.sol\":943:975  BookList[bookName].exists = true */\n      0x0100\n      exp\n      dup2\n      sload\n      dup2\n      0xff\n      mul\n      not\n      and\n      swap1\n      dup4\n      iszero\n      iszero\n      mul\n      or\n      swap1\n      sstore\n      pop\n        /* \"Library.sol\":985:992  counter */\n      0x02\n      0x00\n        /* \"Library.sol\":985:994  counter++ */\n      dup2\n      sload\n      dup1\n      swap3\n      swap2\n      swap1\n      tag_82\n      swap1\n      tag_83\n      jump\t// in\n    tag_82:\n      swap2\n      swap1\n      pop\n      sstore\n      pop\n        /* \"Library.sol\":517:518  _ */\n      pop\n        /* \"Library.sol\":585:1001  function AddBook(Book calldata book) public onlyOwnable{... */\n      pop\n      jump\t// out\n        /* \"Helpers.sol\":131:200  function removeItem(uint i) public{... */\n    tag_27:\n        /* \"Helpers.sol\":180:190  firstArray */\n      0x00\n        /* \"Helpers.sol\":191:192  i */\n      dup2\n        /* \"Helpers.sol\":180:193  firstArray[i] */\n      dup2\n      sload\n      dup2\n      lt\n      tag_85\n      jumpi\n      mstore(0x00, 0x4e487b7100000000000000000000000000000000000000000000000000000000)\n      mstore(0x04, 0x32)\n      revert(0x00, 0x24)\n    tag_85:\n      swap1\n      0x00\n      mstore\n      keccak256(0x00, 0x20)\n      add\n        /* \"Helpers.sol\":173:193  delete firstArray[i] */\n      0x00\n      swap1\n      sstore\n        /* \"Helpers.sol\":131:200  function removeItem(uint i) public{... */\n      pop\n      jump\t// out\n        /* \"Library.sol\":121:141  address public owner */\n    tag_29:\n      0x01\n      0x00\n      swap1\n      sload\n      swap1\n      0x0100\n      exp\n      swap1\n      div\n      0xffffffffffffffffffffffffffffffffffffffff\n      and\n      dup2\n      jump\t// out\n        /* \"Helpers.sol\":206:291  function getLength() public view returns(uint){... */\n    tag_33:\n        /* \"Helpers.sol\":247:251  uint */\n      0x00\n        /* \"Helpers.sol\":267:277  firstArray */\n      dup1\n        /* \"Helpers.sol\":267:284  firstArray.length */\n      dup1\n      sload\n      swap1\n      pop\n        /* \"Helpers.sol\":260:284  return firstArray.length */\n      swap1\n      pop\n        /* \"Helpers.sol\":206:291  function getLength() public view returns(uint){... */\n      swap1\n      jump\t// out\n        /* \"Helpers.sol\":1001:1180  function compareStrings(string memory a, string memory b) public view returns (bool) {... */\n    tag_38:\n        /* \"Helpers.sol\":1080:1084  bool */\n      0x00\n        /* \"Helpers.sol\":1168:1169  b */\n      dup2\n        /* \"Helpers.sol\":1150:1171  abi.encodePacked((b)) */\n      add(0x20, mload(0x40))\n      tag_89\n      swap2\n      swap1\n      tag_71\n      jump\t// in\n    tag_89:\n      mload(0x40)\n      0x20\n      dup2\n      dup4\n      sub\n      sub\n      dup2\n      mstore\n      swap1\n      0x40\n      mstore\n        /* \"Helpers.sol\":1140:1172  keccak256(abi.encodePacked((b))) */\n      dup1\n      mload\n      swap1\n      0x20\n      add\n      keccak256\n        /* \"Helpers.sol\":1132:1133  a */\n      dup4\n        /* \"Helpers.sol\":1114:1135  abi.encodePacked((a)) */\n      add(0x20, mload(0x40))\n      tag_90\n      swap2\n      swap1\n      tag_71\n      jump\t// in\n    tag_90:\n      mload(0x40)\n      0x20\n      dup2\n      dup4\n      sub\n      sub\n      dup2\n      mstore\n      swap1\n      0x40\n      mstore\n        /* \"Helpers.sol\":1104:1136  keccak256(abi.encodePacked((a))) */\n      dup1\n      mload\n      swap1\n      0x20\n      add\n      keccak256\n        /* \"Helpers.sol\":1104:1172  keccak256(abi.encodePacked((a))) == keccak256(abi.encodePacked((b))) */\n      eq\n        /* \"Helpers.sol\":1096:1173  return (keccak256(abi.encodePacked((a))) == keccak256(abi.encodePacked((b)))) */\n      swap1\n      pop\n        /* \"Helpers.sol\":1001:1180  function compareStrings(string memory a, string memory b) public view returns (bool) {... */\n      swap3\n      swap2\n      pop\n      pop\n      jump\t// out\n        /* \"Helpers.sol\":671:965  function StringArrContainsValue(string calldata value, string[] memory array) internal view returns(bool){   ... */\n    tag_54:\n        /* \"Helpers.sol\":771:775  bool */\n      0x00\n        /* \"Helpers.sol\":794:800  uint i */\n      dup1\n        /* \"Helpers.sol\":801:802  0 */\n      0x00\n        /* \"Helpers.sol\":794:802  uint i=0 */\n      swap1\n      pop\n        /* \"Helpers.sol\":789:937  for (uint i=0; i < array.length; i++) {... */\n    tag_92:\n        /* \"Helpers.sol\":808:813  array */\n      dup3\n        /* \"Helpers.sol\":808:820  array.length */\n      mload\n        /* \"Helpers.sol\":804:805  i */\n      dup2\n        /* \"Helpers.sol\":804:820  i < array.length */\n      lt\n        /* \"Helpers.sol\":789:937  for (uint i=0; i < array.length; i++) {... */\n      iszero\n      tag_93\n      jumpi\n        /* \"Helpers.sol\":845:876  compareStrings(value, array[i]) */\n      tag_95\n        /* \"Helpers.sol\":860:865  value */\n      dup6\n      dup6\n        /* \"Helpers.sol\":845:876  compareStrings(value, array[i]) */\n      dup1\n      dup1\n      0x1f\n      add\n      0x20\n      dup1\n      swap2\n      div\n      mul\n      0x20\n      add\n      mload(0x40)\n      swap1\n      dup2\n      add\n      0x40\n      mstore\n      dup1\n      swap4\n      swap3\n      swap2\n      swap1\n      dup2\n      dup2\n      mstore\n      0x20\n      add\n      dup4\n      dup4\n      dup1\n      dup3\n      dup5\n      calldatacopy\n      0x00\n      dup2\n      dup5\n      add\n      mstore\n      not(0x1f)\n      0x1f\n      dup3\n      add\n      and\n      swap1\n      pop\n      dup1\n      dup4\n      add\n      swap3\n      pop\n      pop\n      pop\n      pop\n      pop\n      pop\n      pop\n        /* \"Helpers.sol\":867:872  array */\n      dup5\n        /* \"Helpers.sol\":873:874  i */\n      dup4\n        /* \"Helpers.sol\":867:875  array[i] */\n      dup2\n      mload\n      dup2\n      lt\n      tag_96\n      jumpi\n      mstore(0x00, 0x4e487b7100000000000000000000000000000000000000000000000000000000)\n      mstore(0x04, 0x32)\n      revert(0x00, 0x24)\n    tag_96:\n      0x20\n      mul\n      0x20\n      add\n      add\n      mload\n        /* \"Helpers.sol\":845:859  compareStrings */\n      tag_38\n        /* \"Helpers.sol\":845:876  compareStrings(value, array[i]) */\n      jump\t// in\n    tag_95:\n        /* \"Helpers.sol\":841:927  if (compareStrings(value, array[i])) {     ... */\n      iszero\n      tag_97\n      jumpi\n        /* \"Helpers.sol\":908:912  true */\n      0x01\n        /* \"Helpers.sol\":901:912  return true */\n      swap2\n      pop\n      pop\n      jump(tag_91)\n        /* \"Helpers.sol\":841:927  if (compareStrings(value, array[i])) {     ... */\n    tag_97:\n        /* \"Helpers.sol\":822:825  i++ */\n      dup1\n      dup1\n      tag_98\n      swap1\n      tag_83\n      jump\t// in\n    tag_98:\n      swap2\n      pop\n      pop\n        /* \"Helpers.sol\":789:937  for (uint i=0; i < array.length; i++) {... */\n      jump(tag_92)\n    tag_93:\n      pop\n        /* \"Helpers.sol\":953:958  false */\n      0x00\n        /* \"Helpers.sol\":946:958  return false */\n      swap1\n      pop\n        /* \"Helpers.sol\":671:965  function StringArrContainsValue(string calldata value, string[] memory array) internal view returns(bool){   ... */\n    tag_91:\n      swap4\n      swap3\n      pop\n      pop\n      pop\n      jump\t// out\n    tag_79:\n      dup3\n      dup1\n      sload\n      tag_99\n      swap1\n      tag_49\n      jump\t// in\n    tag_99:\n      swap1\n      0x00\n      mstore\n      keccak256(0x00, 0x20)\n      swap1\n      0x1f\n      add\n      0x20\n      swap1\n      div\n      dup2\n      add\n      swap3\n      dup3\n      tag_101\n      jumpi\n      0x00\n      dup6\n      sstore\n      jump(tag_100)\n    tag_101:\n      dup3\n      0x1f\n      lt\n      tag_102\n      jumpi\n      dup1\n      calldataload\n      not(0xff)\n      and\n      dup4\n      dup1\n      add\n      or\n      dup6\n      sstore\n      jump(tag_100)\n    tag_102:\n      dup3\n      dup1\n      add\n      0x01\n      add\n      dup6\n      sstore\n      dup3\n      iszero\n      tag_100\n      jumpi\n      swap2\n      dup3\n      add\n    tag_103:\n      dup3\n      dup2\n      gt\n      iszero\n      tag_104\n      jumpi\n      dup3\n      calldataload\n      dup3\n      sstore\n      swap2\n      0x20\n      add\n      swap2\n      swap1\n      0x01\n      add\n      swap1\n      jump(tag_103)\n    tag_104:\n    tag_100:\n      pop\n      swap1\n      pop\n      tag_105\n      swap2\n      swap1\n      tag_106\n      jump\t// in\n    tag_105:\n      pop\n      swap1\n      jump\t// out\n    tag_106:\n    tag_107:\n      dup1\n      dup3\n      gt\n      iszero\n      tag_108\n      jumpi\n      0x00\n      dup2\n      0x00\n      swap1\n      sstore\n      pop\n      0x01\n      add\n      jump(tag_107)\n    tag_108:\n      pop\n      swap1\n      jump\t// out\n        /* \"#utility.yul\":7:351   */\n    tag_110:\n      0x00\n        /* \"#utility.yul\":110:175   */\n      tag_112\n        /* \"#utility.yul\":125:174   */\n      tag_113\n        /* \"#utility.yul\":167:173   */\n      dup5\n        /* \"#utility.yul\":125:174   */\n      tag_114\n      jump\t// in\n    tag_113:\n        /* \"#utility.yul\":110:175   */\n      tag_115\n      jump\t// in\n    tag_112:\n        /* \"#utility.yul\":101:175   */\n      swap1\n      pop\n        /* \"#utility.yul\":198:204   */\n      dup3\n        /* \"#utility.yul\":191:196   */\n      dup2\n        /* \"#utility.yul\":184:205   */\n      mstore\n        /* \"#utility.yul\":236:240   */\n      0x20\n        /* \"#utility.yul\":229:234   */\n      dup2\n        /* \"#utility.yul\":225:241   */\n      add\n        /* \"#utility.yul\":274:277   */\n      dup5\n        /* \"#utility.yul\":265:271   */\n      dup5\n        /* \"#utility.yul\":260:263   */\n      dup5\n        /* \"#utility.yul\":256:272   */\n      add\n        /* \"#utility.yul\":253:278   */\n      gt\n        /* \"#utility.yul\":250:252   */\n      iszero\n      tag_116\n      jumpi\n        /* \"#utility.yul\":291:292   */\n      0x00\n        /* \"#utility.yul\":288:289   */\n      dup1\n        /* \"#utility.yul\":281:293   */\n      revert\n        /* \"#utility.yul\":250:252   */\n    tag_116:\n        /* \"#utility.yul\":304:345   */\n      tag_117\n        /* \"#utility.yul\":338:344   */\n      dup5\n        /* \"#utility.yul\":333:336   */\n      dup3\n        /* \"#utility.yul\":328:331   */\n      dup6\n        /* \"#utility.yul\":304:345   */\n      tag_118\n      jump\t// in\n    tag_117:\n        /* \"#utility.yul\":91:351   */\n      pop\n      swap4\n      swap3\n      pop\n      pop\n      pop\n      jump\t// out\n        /* \"#utility.yul\":371:723   */\n    tag_119:\n      0x00\n      dup1\n        /* \"#utility.yul\":489:492   */\n      dup4\n        /* \"#utility.yul\":482:486   */\n      0x1f\n        /* \"#utility.yul\":474:480   */\n      dup5\n        /* \"#utility.yul\":470:487   */\n      add\n        /* \"#utility.yul\":466:493   */\n      slt\n        /* \"#utility.yul\":456:458   */\n      tag_121\n      jumpi\n        /* \"#utility.yul\":507:508   */\n      0x00\n        /* \"#utility.yul\":504:505   */\n      dup1\n        /* \"#utility.yul\":497:509   */\n      revert\n        /* \"#utility.yul\":456:458   */\n    tag_121:\n        /* \"#utility.yul\":543:549   */\n      dup3\n        /* \"#utility.yul\":530:550   */\n      calldataload\n        /* \"#utility.yul\":520:550   */\n      swap1\n      pop\n        /* \"#utility.yul\":573:591   */\n      0xffffffffffffffff\n        /* \"#utility.yul\":565:571   */\n      dup2\n        /* \"#utility.yul\":562:592   */\n      gt\n        /* \"#utility.yul\":559:561   */\n      iszero\n      tag_122\n      jumpi\n        /* \"#utility.yul\":605:606   */\n      0x00\n        /* \"#utility.yul\":602:603   */\n      dup1\n        /* \"#utility.yul\":595:607   */\n      revert\n        /* \"#utility.yul\":559:561   */\n    tag_122:\n        /* \"#utility.yul\":642:646   */\n      0x20\n        /* \"#utility.yul\":634:640   */\n      dup4\n        /* \"#utility.yul\":630:647   */\n      add\n        /* \"#utility.yul\":618:647   */\n      swap2\n      pop\n        /* \"#utility.yul\":696:699   */\n      dup4\n        /* \"#utility.yul\":688:692   */\n      0x01\n        /* \"#utility.yul\":680:686   */\n      dup3\n        /* \"#utility.yul\":676:693   */\n      mul\n        /* \"#utility.yul\":666:674   */\n      dup4\n        /* \"#utility.yul\":662:694   */\n      add\n        /* \"#utility.yul\":659:700   */\n      gt\n        /* \"#utility.yul\":656:658   */\n      iszero\n      tag_123\n      jumpi\n        /* \"#utility.yul\":713:714   */\n      0x00\n        /* \"#utility.yul\":710:711   */\n      dup1\n        /* \"#utility.yul\":703:715   */\n      revert\n        /* \"#utility.yul\":656:658   */\n    tag_123:\n        /* \"#utility.yul\":446:723   */\n      swap3\n      pop\n      swap3\n      swap1\n      pop\n      jump\t// out\n        /* \"#utility.yul\":743:1016   */\n    tag_124:\n      0x00\n        /* \"#utility.yul\":848:851   */\n      dup3\n        /* \"#utility.yul\":841:845   */\n      0x1f\n        /* \"#utility.yul\":833:839   */\n      dup4\n        /* \"#utility.yul\":829:846   */\n      add\n        /* \"#utility.yul\":825:852   */\n      slt\n        /* \"#utility.yul\":815:817   */\n      tag_126\n      jumpi\n        /* \"#utility.yul\":866:867   */\n      0x00\n        /* \"#utility.yul\":863:864   */\n      dup1\n        /* \"#utility.yul\":856:868   */\n      revert\n        /* \"#utility.yul\":815:817   */\n    tag_126:\n        /* \"#utility.yul\":906:912   */\n      dup2\n        /* \"#utility.yul\":893:913   */\n      calldataload\n        /* \"#utility.yul\":931:1010   */\n      tag_127\n        /* \"#utility.yul\":1006:1009   */\n      dup5\n        /* \"#utility.yul\":998:1004   */\n      dup3\n        /* \"#utility.yul\":991:995   */\n      0x20\n        /* \"#utility.yul\":983:989   */\n      dup7\n        /* \"#utility.yul\":979:996   */\n      add\n        /* \"#utility.yul\":931:1010   */\n      tag_110\n      jump\t// in\n    tag_127:\n        /* \"#utility.yul\":922:1010   */\n      swap2\n      pop\n        /* \"#utility.yul\":805:1016   */\n      pop\n      swap3\n      swap2\n      pop\n      pop\n      jump\t// out\n        /* \"#utility.yul\":1049:1210   */\n    tag_128:\n      0x00\n        /* \"#utility.yul\":1159:1162   */\n      0x80\n        /* \"#utility.yul\":1150:1156   */\n      dup3\n        /* \"#utility.yul\":1145:1148   */\n      dup5\n        /* \"#utility.yul\":1141:1157   */\n      sub\n        /* \"#utility.yul\":1137:1163   */\n      slt\n        /* \"#utility.yul\":1134:1136   */\n      iszero\n      tag_130\n      jumpi\n        /* \"#utility.yul\":1176:1177   */\n      0x00\n        /* \"#utility.yul\":1173:1174   */\n      dup1\n        /* \"#utility.yul\":1166:1178   */\n      revert\n        /* \"#utility.yul\":1134:1136   */\n    tag_130:\n        /* \"#utility.yul\":1198:1204   */\n      dup2\n        /* \"#utility.yul\":1189:1204   */\n      swap1\n      pop\n        /* \"#utility.yul\":1124:1210   */\n      swap3\n      swap2\n      pop\n      pop\n      jump\t// out\n        /* \"#utility.yul\":1216:1355   */\n    tag_131:\n      0x00\n        /* \"#utility.yul\":1300:1306   */\n      dup2\n        /* \"#utility.yul\":1287:1307   */\n      calldataload\n        /* \"#utility.yul\":1278:1307   */\n      swap1\n      pop\n        /* \"#utility.yul\":1316:1349   */\n      tag_133\n        /* \"#utility.yul\":1343:1348   */\n      dup2\n        /* \"#utility.yul\":1316:1349   */\n      tag_134\n      jump\t// in\n    tag_133:\n        /* \"#utility.yul\":1268:1355   */\n      swap3\n      swap2\n      pop\n      pop\n      jump\t// out\n        /* \"#utility.yul\":1361:1756   */\n    tag_19:\n      0x00\n      dup1\n        /* \"#utility.yul\":1489:1491   */\n      0x20\n        /* \"#utility.yul\":1477:1486   */\n      dup4\n        /* \"#utility.yul\":1468:1475   */\n      dup6\n        /* \"#utility.yul\":1464:1487   */\n      sub\n        /* \"#utility.yul\":1460:1492   */\n      slt\n        /* \"#utility.yul\":1457:1459   */\n      iszero\n      tag_136\n      jumpi\n        /* \"#utility.yul\":1505:1506   */\n      0x00\n        /* \"#utility.yul\":1502:1503   */\n      dup1\n        /* \"#utility.yul\":1495:1507   */\n      revert\n        /* \"#utility.yul\":1457:1459   */\n    tag_136:\n        /* \"#utility.yul\":1576:1577   */\n      0x00\n        /* \"#utility.yul\":1565:1574   */\n      dup4\n        /* \"#utility.yul\":1561:1578   */\n      add\n        /* \"#utility.yul\":1548:1579   */\n      calldataload\n        /* \"#utility.yul\":1606:1624   */\n      0xffffffffffffffff\n        /* \"#utility.yul\":1598:1604   */\n      dup2\n        /* \"#utility.yul\":1595:1625   */\n      gt\n        /* \"#utility.yul\":1592:1594   */\n      iszero\n      tag_137\n      jumpi\n        /* \"#utility.yul\":1638:1639   */\n      0x00\n        /* \"#utility.yul\":1635:1636   */\n      dup1\n        /* \"#utility.yul\":1628:1640   */\n      revert\n        /* \"#utility.yul\":1592:1594   */\n    tag_137:\n        /* \"#utility.yul\":1674:1739   */\n      tag_138\n        /* \"#utility.yul\":1731:1738   */\n      dup6\n        /* \"#utility.yul\":1722:1728   */\n      dup3\n        /* \"#utility.yul\":1711:1720   */\n      dup7\n        /* \"#utility.yul\":1707:1729   */\n      add\n        /* \"#utility.yul\":1674:1739   */\n      tag_119\n      jump\t// in\n    tag_138:\n        /* \"#utility.yul\":1656:1739   */\n      swap3\n      pop\n      swap3\n      pop\n        /* \"#utility.yul\":1519:1749   */\n      pop\n        /* \"#utility.yul\":1447:1756   */\n      swap3\n      pop\n      swap3\n      swap1\n      pop\n      jump\t// out\n        /* \"#utility.yul\":1762:2395   */\n    tag_37:\n      0x00\n      dup1\n        /* \"#utility.yul\":1907:1909   */\n      0x40\n        /* \"#utility.yul\":1895:1904   */\n      dup4\n        /* \"#utility.yul\":1886:1893   */\n      dup6\n        /* \"#utility.yul\":1882:1905   */\n      sub\n        /* \"#utility.yul\":1878:1910   */\n      slt\n        /* \"#utility.yul\":1875:1877   */\n      iszero\n      tag_140\n      jumpi\n        /* \"#utility.yul\":1923:1924   */\n      0x00\n        /* \"#utility.yul\":1920:1921   */\n      dup1\n        /* \"#utility.yul\":1913:1925   */\n      revert\n        /* \"#utility.yul\":1875:1877   */\n    tag_140:\n        /* \"#utility.yul\":1994:1995   */\n      0x00\n        /* \"#utility.yul\":1983:1992   */\n      dup4\n        /* \"#utility.yul\":1979:1996   */\n      add\n        /* \"#utility.yul\":1966:1997   */\n      calldataload\n        /* \"#utility.yul\":2024:2042   */\n      0xffffffffffffffff\n        /* \"#utility.yul\":2016:2022   */\n      dup2\n        /* \"#utility.yul\":2013:2043   */\n      gt\n        /* \"#utility.yul\":2010:2012   */\n      iszero\n      tag_141\n      jumpi\n        /* \"#utility.yul\":2056:2057   */\n      0x00\n        /* \"#utility.yul\":2053:2054   */\n      dup1\n        /* \"#utility.yul\":2046:2058   */\n      revert\n        /* \"#utility.yul\":2010:2012   */\n    tag_141:\n        /* \"#utility.yul\":2084:2147   */\n      tag_142\n        /* \"#utility.yul\":2139:2146   */\n      dup6\n        /* \"#utility.yul\":2130:2136   */\n      dup3\n        /* \"#utility.yul\":2119:2128   */\n      dup7\n        /* \"#utility.yul\":2115:2137   */\n      add\n        /* \"#utility.yul\":2084:2147   */\n      tag_124\n      jump\t// in\n    tag_142:\n        /* \"#utility.yul\":2074:2147   */\n      swap3\n      pop\n        /* \"#utility.yul\":1937:2157   */\n      pop\n        /* \"#utility.yul\":2224:2226   */\n      0x20\n        /* \"#utility.yul\":2213:2222   */\n      dup4\n        /* \"#utility.yul\":2209:2227   */\n      add\n        /* \"#utility.yul\":2196:2228   */\n      calldataload\n        /* \"#utility.yul\":2255:2273   */\n      0xffffffffffffffff\n        /* \"#utility.yul\":2247:2253   */\n      dup2\n        /* \"#utility.yul\":2244:2274   */\n      gt\n        /* \"#utility.yul\":2241:2243   */\n      iszero\n      tag_143\n      jumpi\n        /* \"#utility.yul\":2287:2288   */\n      0x00\n        /* \"#utility.yul\":2284:2285   */\n      dup1\n        /* \"#utility.yul\":2277:2289   */\n      revert\n        /* \"#utility.yul\":2241:2243   */\n    tag_143:\n        /* \"#utility.yul\":2315:2378   */\n      tag_144\n        /* \"#utility.yul\":2370:2377   */\n      dup6\n        /* \"#utility.yul\":2361:2367   */\n      dup3\n        /* \"#utility.yul\":2350:2359   */\n      dup7\n        /* \"#utility.yul\":2346:2368   */\n      add\n        /* \"#utility.yul\":2315:2378   */\n      tag_124\n      jump\t// in\n    tag_144:\n        /* \"#utility.yul\":2305:2378   */\n      swap2\n      pop\n        /* \"#utility.yul\":2167:2388   */\n      pop\n        /* \"#utility.yul\":1865:2395   */\n      swap3\n      pop\n      swap3\n      swap1\n      pop\n      jump\t// out\n        /* \"#utility.yul\":2401:2802   */\n    tag_23:\n      0x00\n        /* \"#utility.yul\":2532:2534   */\n      0x20\n        /* \"#utility.yul\":2520:2529   */\n      dup3\n        /* \"#utility.yul\":2511:2518   */\n      dup5\n        /* \"#utility.yul\":2507:2530   */\n      sub\n        /* \"#utility.yul\":2503:2535   */\n      slt\n        /* \"#utility.yul\":2500:2502   */\n      iszero\n      tag_146\n      jumpi\n        /* \"#utility.yul\":2548:2549   */\n      0x00\n        /* \"#utility.yul\":2545:2546   */\n      dup1\n        /* \"#utility.yul\":2538:2550   */\n      revert\n        /* \"#utility.yul\":2500:2502   */\n    tag_146:\n        /* \"#utility.yul\":2619:2620   */\n      0x00\n        /* \"#utility.yul\":2608:2617   */\n      dup3\n        /* \"#utility.yul\":2604:2621   */\n      add\n        /* \"#utility.yul\":2591:2622   */\n      calldataload\n        /* \"#utility.yul\":2649:2667   */\n      0xffffffffffffffff\n        /* \"#utility.yul\":2641:2647   */\n      dup2\n        /* \"#utility.yul\":2638:2668   */\n      gt\n        /* \"#utility.yul\":2635:2637   */\n      iszero\n      tag_147\n      jumpi\n        /* \"#utility.yul\":2681:2682   */\n      0x00\n        /* \"#utility.yul\":2678:2679   */\n      dup1\n        /* \"#utility.yul\":2671:2683   */\n      revert\n        /* \"#utility.yul\":2635:2637   */\n    tag_147:\n        /* \"#utility.yul\":2709:2785   */\n      tag_148\n        /* \"#utility.yul\":2777:2784   */\n      dup5\n        /* \"#utility.yul\":2768:2774   */\n      dup3\n        /* \"#utility.yul\":2757:2766   */\n      dup6\n        /* \"#utility.yul\":2753:2775   */\n      add\n        /* \"#utility.yul\":2709:2785   */\n      tag_128\n      jump\t// in\n    tag_148:\n        /* \"#utility.yul\":2699:2785   */\n      swap2\n      pop\n        /* \"#utility.yul\":2562:2795   */\n      pop\n        /* \"#utility.yul\":2490:2802   */\n      swap3\n      swap2\n      pop\n      pop\n      jump\t// out\n        /* \"#utility.yul\":2808:3070   */\n    tag_13:\n      0x00\n        /* \"#utility.yul\":2916:2918   */\n      0x20\n        /* \"#utility.yul\":2904:2913   */\n      dup3\n        /* \"#utility.yul\":2895:2902   */\n      dup5\n        /* \"#utility.yul\":2891:2914   */\n      sub\n        /* \"#utility.yul\":2887:2919   */\n      slt\n        /* \"#utility.yul\":2884:2886   */\n      iszero\n      tag_150\n      jumpi\n        /* \"#utility.yul\":2932:2933   */\n      0x00\n        /* \"#utility.yul\":2929:2930   */\n      dup1\n        /* \"#utility.yul\":2922:2934   */\n      revert\n        /* \"#utility.yul\":2884:2886   */\n    tag_150:\n        /* \"#utility.yul\":2975:2976   */\n      0x00\n        /* \"#utility.yul\":3000:3053   */\n      tag_151\n        /* \"#utility.yul\":3045:3052   */\n      dup5\n        /* \"#utility.yul\":3036:3042   */\n      dup3\n        /* \"#utility.yul\":3025:3034   */\n      dup6\n        /* \"#utility.yul\":3021:3043   */\n      add\n        /* \"#utility.yul\":3000:3053   */\n      tag_131\n      jump\t// in\n    tag_151:\n        /* \"#utility.yul\":2990:3053   */\n      swap2\n      pop\n        /* \"#utility.yul\":2946:3063   */\n      pop\n        /* \"#utility.yul\":2874:3070   */\n      swap3\n      swap2\n      pop\n      pop\n      jump\t// out\n        /* \"#utility.yul\":3076:3194   */\n    tag_152:\n        /* \"#utility.yul\":3163:3187   */\n      tag_154\n        /* \"#utility.yul\":3181:3186   */\n      dup2\n        /* \"#utility.yul\":3163:3187   */\n      tag_155\n      jump\t// in\n    tag_154:\n        /* \"#utility.yul\":3158:3161   */\n      dup3\n        /* \"#utility.yul\":3151:3188   */\n      mstore\n        /* \"#utility.yul\":3141:3194   */\n      pop\n      pop\n      jump\t// out\n        /* \"#utility.yul\":3200:3309   */\n    tag_156:\n        /* \"#utility.yul\":3281:3302   */\n      tag_158\n        /* \"#utility.yul\":3296:3301   */\n      dup2\n        /* \"#utility.yul\":3281:3302   */\n      tag_159\n      jump\t// in\n    tag_158:\n        /* \"#utility.yul\":3276:3279   */\n      dup3\n        /* \"#utility.yul\":3269:3303   */\n      mstore\n        /* \"#utility.yul\":3259:3309   */\n      pop\n      pop\n      jump\t// out\n        /* \"#utility.yul\":3339:3656   */\n    tag_160:\n      0x00\n        /* \"#utility.yul\":3476:3565   */\n      tag_162\n        /* \"#utility.yul\":3558:3564   */\n      dup4\n        /* \"#utility.yul\":3553:3556   */\n      dup6\n        /* \"#utility.yul\":3476:3565   */\n      tag_163\n      jump\t// in\n    tag_162:\n        /* \"#utility.yul\":3469:3565   */\n      swap4\n      pop\n        /* \"#utility.yul\":3575:3618   */\n      tag_164\n        /* \"#utility.yul\":3611:3617   */\n      dup4\n        /* \"#utility.yul\":3606:3609   */\n      dup6\n        /* \"#utility.yul\":3599:3604   */\n      dup5\n        /* \"#utility.yul\":3575:3618   */\n      tag_118\n      jump\t// in\n    tag_164:\n        /* \"#utility.yul\":3643:3649   */\n      dup3\n        /* \"#utility.yul\":3638:3641   */\n      dup5\n        /* \"#utility.yul\":3634:3650   */\n      add\n        /* \"#utility.yul\":3627:3650   */\n      swap1\n      pop\n        /* \"#utility.yul\":3459:3656   */\n      swap4\n      swap3\n      pop\n      pop\n      pop\n      jump\t// out\n        /* \"#utility.yul\":3662:4039   */\n    tag_165:\n      0x00\n        /* \"#utility.yul\":3796:3835   */\n      tag_167\n        /* \"#utility.yul\":3829:3834   */\n      dup3\n        /* \"#utility.yul\":3796:3835   */\n      tag_168\n      jump\t// in\n    tag_167:\n        /* \"#utility.yul\":3851:3940   */\n      tag_169\n        /* \"#utility.yul\":3933:3939   */\n      dup2\n        /* \"#utility.yul\":3928:3931   */\n      dup6\n        /* \"#utility.yul\":3851:3940   */\n      tag_163\n      jump\t// in\n    tag_169:\n        /* \"#utility.yul\":3844:3940   */\n      swap4\n      pop\n        /* \"#utility.yul\":3949:4001   */\n      tag_170\n        /* \"#utility.yul\":3994:4000   */\n      dup2\n        /* \"#utility.yul\":3989:3992   */\n      dup6\n        /* \"#utility.yul\":3982:3986   */\n      0x20\n        /* \"#utility.yul\":3975:3980   */\n      dup7\n        /* \"#utility.yul\":3971:3987   */\n      add\n        /* \"#utility.yul\":3949:4001   */\n      tag_171\n      jump\t// in\n    tag_170:\n        /* \"#utility.yul\":4026:4032   */\n      dup1\n        /* \"#utility.yul\":4021:4024   */\n      dup5\n        /* \"#utility.yul\":4017:4033   */\n      add\n        /* \"#utility.yul\":4010:4033   */\n      swap2\n      pop\n        /* \"#utility.yul\":3772:4039   */\n      pop\n      swap3\n      swap2\n      pop\n      pop\n      jump\t// out\n        /* \"#utility.yul\":4045:4417   */\n    tag_172:\n      0x00\n        /* \"#utility.yul\":4208:4275   */\n      tag_174\n        /* \"#utility.yul\":4272:4274   */\n      0x28\n        /* \"#utility.yul\":4267:4270   */\n      dup4\n        /* \"#utility.yul\":4208:4275   */\n      tag_175\n      jump\t// in\n    tag_174:\n        /* \"#utility.yul\":4201:4275   */\n      swap2\n      pop\n        /* \"#utility.yul\":4305:4339   */\n      0x5468697320626f6f6b20616c72656164792065786973747320696e2074686520\n        /* \"#utility.yul\":4301:4302   */\n      0x00\n        /* \"#utility.yul\":4296:4299   */\n      dup4\n        /* \"#utility.yul\":4292:4303   */\n      add\n        /* \"#utility.yul\":4285:4340   */\n      mstore\n        /* \"#utility.yul\":4371:4381   */\n      0x4c69627261727921000000000000000000000000000000000000000000000000\n        /* \"#utility.yul\":4366:4368   */\n      0x20\n        /* \"#utility.yul\":4361:4364   */\n      dup4\n        /* \"#utility.yul\":4357:4369   */\n      add\n        /* \"#utility.yul\":4350:4382   */\n      mstore\n        /* \"#utility.yul\":4408:4410   */\n      0x40\n        /* \"#utility.yul\":4403:4406   */\n      dup3\n        /* \"#utility.yul\":4399:4411   */\n      add\n        /* \"#utility.yul\":4392:4411   */\n      swap1\n      pop\n        /* \"#utility.yul\":4191:4417   */\n      swap2\n      swap1\n      pop\n      jump\t// out\n        /* \"#utility.yul\":4423:4747   */\n    tag_176:\n      0x00\n        /* \"#utility.yul\":4586:4653   */\n      tag_178\n        /* \"#utility.yul\":4650:4652   */\n      0x1a\n        /* \"#utility.yul\":4645:4648   */\n      dup4\n        /* \"#utility.yul\":4586:4653   */\n      tag_175\n      jump\t// in\n    tag_178:\n        /* \"#utility.yul\":4579:4653   */\n      swap2\n      pop\n        /* \"#utility.yul\":4683:4711   */\n      0x43757272656e742075736572206973206e6f74206f776e657221000000000000\n        /* \"#utility.yul\":4679:4680   */\n      0x00\n        /* \"#utility.yul\":4674:4677   */\n      dup4\n        /* \"#utility.yul\":4670:4681   */\n      add\n        /* \"#utility.yul\":4663:4712   */\n      mstore\n        /* \"#utility.yul\":4738:4740   */\n      0x20\n        /* \"#utility.yul\":4733:4736   */\n      dup3\n        /* \"#utility.yul\":4729:4741   */\n      add\n        /* \"#utility.yul\":4722:4741   */\n      swap1\n      pop\n        /* \"#utility.yul\":4569:4747   */\n      swap2\n      swap1\n      pop\n      jump\t// out\n        /* \"#utility.yul\":4753:5121   */\n    tag_179:\n      0x00\n        /* \"#utility.yul\":4916:4983   */\n      tag_181\n        /* \"#utility.yul\":4980:4982   */\n      0x24\n        /* \"#utility.yul\":4975:4978   */\n      dup4\n        /* \"#utility.yul\":4916:4983   */\n      tag_175\n      jump\t// in\n    tag_181:\n        /* \"#utility.yul\":4909:4983   */\n      swap2\n      pop\n        /* \"#utility.yul\":5013:5047   */\n      0x5468697320626f6f6b206973206f7574206f662073746f636b2063757272656e\n        /* \"#utility.yul\":5009:5010   */\n      0x00\n        /* \"#utility.yul\":5004:5007   */\n      dup4\n        /* \"#utility.yul\":5000:5011   */\n      add\n        /* \"#utility.yul\":4993:5048   */\n      mstore\n        /* \"#utility.yul\":5079:5085   */\n      0x746c792100000000000000000000000000000000000000000000000000000000\n        /* \"#utility.yul\":5074:5076   */\n      0x20\n        /* \"#utility.yul\":5069:5072   */\n      dup4\n        /* \"#utility.yul\":5065:5077   */\n      add\n        /* \"#utility.yul\":5058:5086   */\n      mstore\n        /* \"#utility.yul\":5112:5114   */\n      0x40\n        /* \"#utility.yul\":5107:5110   */\n      dup3\n        /* \"#utility.yul\":5103:5115   */\n      add\n        /* \"#utility.yul\":5096:5115   */\n      swap1\n      pop\n        /* \"#utility.yul\":4899:5121   */\n      swap2\n      swap1\n      pop\n      jump\t// out\n        /* \"#utility.yul\":5127:5494   */\n    tag_182:\n      0x00\n        /* \"#utility.yul\":5290:5357   */\n      tag_184\n        /* \"#utility.yul\":5354:5356   */\n      0x23\n        /* \"#utility.yul\":5349:5352   */\n      dup4\n        /* \"#utility.yul\":5290:5357   */\n      tag_175\n      jump\t// in\n    tag_184:\n        /* \"#utility.yul\":5283:5357   */\n      swap2\n      pop\n        /* \"#utility.yul\":5387:5421   */\n      0x426f6f6b20616c72656164792065786973747320696e20746865204c69627261\n        /* \"#utility.yul\":5383:5384   */\n      0x00\n        /* \"#utility.yul\":5378:5381   */\n      dup4\n        /* \"#utility.yul\":5374:5385   */\n      add\n        /* \"#utility.yul\":5367:5422   */\n      mstore\n        /* \"#utility.yul\":5453:5458   */\n      0x7279210000000000000000000000000000000000000000000000000000000000\n        /* \"#utility.yul\":5448:5450   */\n      0x20\n        /* \"#utility.yul\":5443:5446   */\n      dup4\n        /* \"#utility.yul\":5439:5451   */\n      add\n        /* \"#utility.yul\":5432:5459   */\n      mstore\n        /* \"#utility.yul\":5485:5487   */\n      0x40\n        /* \"#utility.yul\":5480:5483   */\n      dup3\n        /* \"#utility.yul\":5476:5488   */\n      add\n        /* \"#utility.yul\":5469:5488   */\n      swap1\n      pop\n        /* \"#utility.yul\":5273:5494   */\n      swap2\n      swap1\n      pop\n      jump\t// out\n        /* \"#utility.yul\":5500:5618   */\n    tag_185:\n        /* \"#utility.yul\":5587:5611   */\n      tag_187\n        /* \"#utility.yul\":5605:5610   */\n      dup2\n        /* \"#utility.yul\":5587:5611   */\n      tag_188\n      jump\t// in\n    tag_187:\n        /* \"#utility.yul\":5582:5585   */\n      dup3\n        /* \"#utility.yul\":5575:5612   */\n      mstore\n        /* \"#utility.yul\":5565:5618   */\n      pop\n      pop\n      jump\t// out\n        /* \"#utility.yul\":5624:5919   */\n    tag_59:\n      0x00\n        /* \"#utility.yul\":5788:5893   */\n      tag_190\n        /* \"#utility.yul\":5889:5892   */\n      dup3\n        /* \"#utility.yul\":5880:5886   */\n      dup5\n        /* \"#utility.yul\":5872:5878   */\n      dup7\n        /* \"#utility.yul\":5788:5893   */\n      tag_160\n      jump\t// in\n    tag_190:\n        /* \"#utility.yul\":5781:5893   */\n      swap2\n      pop\n        /* \"#utility.yul\":5910:5913   */\n      dup2\n        /* \"#utility.yul\":5903:5913   */\n      swap1\n      pop\n        /* \"#utility.yul\":5770:5919   */\n      swap4\n      swap3\n      pop\n      pop\n      pop\n      jump\t// out\n        /* \"#utility.yul\":5925:6200   */\n    tag_71:\n      0x00\n        /* \"#utility.yul\":6079:6174   */\n      tag_192\n        /* \"#utility.yul\":6170:6173   */\n      dup3\n        /* \"#utility.yul\":6161:6167   */\n      dup5\n        /* \"#utility.yul\":6079:6174   */\n      tag_165\n      jump\t// in\n    tag_192:\n        /* \"#utility.yul\":6072:6174   */\n      swap2\n      pop\n        /* \"#utility.yul\":6191:6194   */\n      dup2\n        /* \"#utility.yul\":6184:6194   */\n      swap1\n      pop\n        /* \"#utility.yul\":6061:6200   */\n      swap3\n      swap2\n      pop\n      pop\n      jump\t// out\n        /* \"#utility.yul\":6206:6428   */\n    tag_31:\n      0x00\n        /* \"#utility.yul\":6337:6339   */\n      0x20\n        /* \"#utility.yul\":6326:6335   */\n      dup3\n        /* \"#utility.yul\":6322:6340   */\n      add\n        /* \"#utility.yul\":6314:6340   */\n      swap1\n      pop\n        /* \"#utility.yul\":6350:6421   */\n      tag_194\n        /* \"#utility.yul\":6418:6419   */\n      0x00\n        /* \"#utility.yul\":6407:6416   */\n      dup4\n        /* \"#utility.yul\":6403:6420   */\n      add\n        /* \"#utility.yul\":6394:6400   */\n      dup5\n        /* \"#utility.yul\":6350:6421   */\n      tag_152\n      jump\t// in\n    tag_194:\n        /* \"#utility.yul\":6304:6428   */\n      swap3\n      swap2\n      pop\n      pop\n      jump\t// out\n        /* \"#utility.yul\":6434:6644   */\n    tag_40:\n      0x00\n        /* \"#utility.yul\":6559:6561   */\n      0x20\n        /* \"#utility.yul\":6548:6557   */\n      dup3\n        /* \"#utility.yul\":6544:6562   */\n      add\n        /* \"#utility.yul\":6536:6562   */\n      swap1\n      pop\n        /* \"#utility.yul\":6572:6637   */\n      tag_196\n        /* \"#utility.yul\":6634:6635   */\n      0x00\n        /* \"#utility.yul\":6623:6632   */\n      dup4\n        /* \"#utility.yul\":6619:6636   */\n      add\n        /* \"#utility.yul\":6610:6616   */\n      dup5\n        /* \"#utility.yul\":6572:6637   */\n      tag_156\n      jump\t// in\n    tag_196:\n        /* \"#utility.yul\":6526:6644   */\n      swap3\n      swap2\n      pop\n      pop\n      jump\t// out\n        /* \"#utility.yul\":6650:7069   */\n    tag_57:\n      0x00\n        /* \"#utility.yul\":6854:6856   */\n      0x20\n        /* \"#utility.yul\":6843:6852   */\n      dup3\n        /* \"#utility.yul\":6839:6857   */\n      add\n        /* \"#utility.yul\":6831:6857   */\n      swap1\n      pop\n        /* \"#utility.yul\":6903:6912   */\n      dup2\n        /* \"#utility.yul\":6897:6901   */\n      dup2\n        /* \"#utility.yul\":6893:6913   */\n      sub\n        /* \"#utility.yul\":6889:6890   */\n      0x00\n        /* \"#utility.yul\":6878:6887   */\n      dup4\n        /* \"#utility.yul\":6874:6891   */\n      add\n        /* \"#utility.yul\":6867:6914   */\n      mstore\n        /* \"#utility.yul\":6931:7062   */\n      tag_198\n        /* \"#utility.yul\":7057:7061   */\n      dup2\n        /* \"#utility.yul\":6931:7062   */\n      tag_172\n      jump\t// in\n    tag_198:\n        /* \"#utility.yul\":6923:7062   */\n      swap1\n      pop\n        /* \"#utility.yul\":6821:7069   */\n      swap2\n      swap1\n      pop\n      jump\t// out\n        /* \"#utility.yul\":7075:7494   */\n    tag_66:\n      0x00\n        /* \"#utility.yul\":7279:7281   */\n      0x20\n        /* \"#utility.yul\":7268:7277   */\n      dup3\n        /* \"#utility.yul\":7264:7282   */\n      add\n        /* \"#utility.yul\":7256:7282   */\n      swap1\n      pop\n        /* \"#utility.yul\":7328:7337   */\n      dup2\n        /* \"#utility.yul\":7322:7326   */\n      dup2\n        /* \"#utility.yul\":7318:7338   */\n      sub\n        /* \"#utility.yul\":7314:7315   */\n      0x00\n        /* \"#utility.yul\":7303:7312   */\n      dup4\n        /* \"#utility.yul\":7299:7316   */\n      add\n        /* \"#utility.yul\":7292:7339   */\n      mstore\n        /* \"#utility.yul\":7356:7487   */\n      tag_200\n        /* \"#utility.yul\":7482:7486   */\n      dup2\n        /* \"#utility.yul\":7356:7487   */\n      tag_176\n      jump\t// in\n    tag_200:\n        /* \"#utility.yul\":7348:7487   */\n      swap1\n      pop\n        /* \"#utility.yul\":7246:7494   */\n      swap2\n      swap1\n      pop\n      jump\t// out\n        /* \"#utility.yul\":7500:7919   */\n    tag_62:\n      0x00\n        /* \"#utility.yul\":7704:7706   */\n      0x20\n        /* \"#utility.yul\":7693:7702   */\n      dup3\n        /* \"#utility.yul\":7689:7707   */\n      add\n        /* \"#utility.yul\":7681:7707   */\n      swap1\n      pop\n        /* \"#utility.yul\":7753:7762   */\n      dup2\n        /* \"#utility.yul\":7747:7751   */\n      dup2\n        /* \"#utility.yul\":7743:7763   */\n      sub\n        /* \"#utility.yul\":7739:7740   */\n      0x00\n        /* \"#utility.yul\":7728:7737   */\n      dup4\n        /* \"#utility.yul\":7724:7741   */\n      add\n        /* \"#utility.yul\":7717:7764   */\n      mstore\n        /* \"#utility.yul\":7781:7912   */\n      tag_202\n        /* \"#utility.yul\":7907:7911   */\n      dup2\n        /* \"#utility.yul\":7781:7912   */\n      tag_179\n      jump\t// in\n    tag_202:\n        /* \"#utility.yul\":7773:7912   */\n      swap1\n      pop\n        /* \"#utility.yul\":7671:7919   */\n      swap2\n      swap1\n      pop\n      jump\t// out\n        /* \"#utility.yul\":7925:8344   */\n    tag_74:\n      0x00\n        /* \"#utility.yul\":8129:8131   */\n      0x20\n        /* \"#utility.yul\":8118:8127   */\n      dup3\n        /* \"#utility.yul\":8114:8132   */\n      add\n        /* \"#utility.yul\":8106:8132   */\n      swap1\n      pop\n        /* \"#utility.yul\":8178:8187   */\n      dup2\n        /* \"#utility.yul\":8172:8176   */\n      dup2\n        /* \"#utility.yul\":8168:8188   */\n      sub\n        /* \"#utility.yul\":8164:8165   */\n      0x00\n        /* \"#utility.yul\":8153:8162   */\n      dup4\n        /* \"#utility.yul\":8149:8166   */\n      add\n        /* \"#utility.yul\":8142:8189   */\n      mstore\n        /* \"#utility.yul\":8206:8337   */\n      tag_204\n        /* \"#utility.yul\":8332:8336   */\n      dup2\n        /* \"#utility.yul\":8206:8337   */\n      tag_182\n      jump\t// in\n    tag_204:\n        /* \"#utility.yul\":8198:8337   */\n      swap1\n      pop\n        /* \"#utility.yul\":8096:8344   */\n      swap2\n      swap1\n      pop\n      jump\t// out\n        /* \"#utility.yul\":8350:8572   */\n    tag_16:\n      0x00\n        /* \"#utility.yul\":8481:8483   */\n      0x20\n        /* \"#utility.yul\":8470:8479   */\n      dup3\n        /* \"#utility.yul\":8466:8484   */\n      add\n        /* \"#utility.yul\":8458:8484   */\n      swap1\n      pop\n        /* \"#utility.yul\":8494:8565   */\n      tag_206\n        /* \"#utility.yul\":8562:8563   */\n      0x00\n        /* \"#utility.yul\":8551:8560   */\n      dup4\n        /* \"#utility.yul\":8547:8564   */\n      add\n        /* \"#utility.yul\":8538:8544   */\n      dup5\n        /* \"#utility.yul\":8494:8565   */\n      tag_185\n      jump\t// in\n    tag_206:\n        /* \"#utility.yul\":8448:8572   */\n      swap3\n      swap2\n      pop\n      pop\n      jump\t// out\n        /* \"#utility.yul\":8578:9102   */\n    tag_69:\n      0x00\n      dup1\n        /* \"#utility.yul\":8718:8729   */\n      dup4\n        /* \"#utility.yul\":8705:8730   */\n      calldataload\n        /* \"#utility.yul\":8818:8819   */\n      0x01\n        /* \"#utility.yul\":8812:8816   */\n      0x20\n        /* \"#utility.yul\":8808:8820   */\n      sub\n        /* \"#utility.yul\":8797:8805   */\n      dup5\n        /* \"#utility.yul\":8781:8795   */\n      calldatasize\n        /* \"#utility.yul\":8777:8806   */\n      sub\n        /* \"#utility.yul\":8773:8821   */\n      sub\n        /* \"#utility.yul\":8753:8771   */\n      dup2\n        /* \"#utility.yul\":8749:8822   */\n      slt\n        /* \"#utility.yul\":8739:8741   */\n      tag_208\n      jumpi\n        /* \"#utility.yul\":8836:8837   */\n      0x00\n        /* \"#utility.yul\":8833:8834   */\n      dup1\n        /* \"#utility.yul\":8826:8838   */\n      revert\n        /* \"#utility.yul\":8739:8741   */\n    tag_208:\n        /* \"#utility.yul\":8871:8889   */\n      dup1\n        /* \"#utility.yul\":8861:8869   */\n      dup5\n        /* \"#utility.yul\":8857:8890   */\n      add\n        /* \"#utility.yul\":8849:8890   */\n      swap3\n      pop\n        /* \"#utility.yul\":8923:8927   */\n      dup3\n        /* \"#utility.yul\":8910:8928   */\n      calldataload\n        /* \"#utility.yul\":8900:8928   */\n      swap2\n      pop\n        /* \"#utility.yul\":8951:8969   */\n      0xffffffffffffffff\n        /* \"#utility.yul\":8943:8949   */\n      dup3\n        /* \"#utility.yul\":8940:8970   */\n      gt\n        /* \"#utility.yul\":8937:8939   */\n      iszero\n      tag_209\n      jumpi\n        /* \"#utility.yul\":8983:8984   */\n      0x00\n        /* \"#utility.yul\":8980:8981   */\n      dup1\n        /* \"#utility.yul\":8973:8985   */\n      revert\n        /* \"#utility.yul\":8937:8939   */\n    tag_209:\n        /* \"#utility.yul\":9014:9016   */\n      0x20\n        /* \"#utility.yul\":9008:9012   */\n      dup4\n        /* \"#utility.yul\":9004:9017   */\n      add\n        /* \"#utility.yul\":8996:9017   */\n      swap3\n      pop\n        /* \"#utility.yul\":9071:9075   */\n      0x01\n        /* \"#utility.yul\":9063:9069   */\n      dup3\n        /* \"#utility.yul\":9059:9076   */\n      mul\n        /* \"#utility.yul\":9043:9057   */\n      calldatasize\n        /* \"#utility.yul\":9039:9077   */\n      sub\n        /* \"#utility.yul\":9033:9037   */\n      dup4\n        /* \"#utility.yul\":9029:9078   */\n      sgt\n        /* \"#utility.yul\":9026:9028   */\n      iszero\n      tag_210\n      jumpi\n        /* \"#utility.yul\":9091:9092   */\n      0x00\n        /* \"#utility.yul\":9088:9089   */\n      dup1\n        /* \"#utility.yul\":9081:9093   */\n      revert\n        /* \"#utility.yul\":9026:9028   */\n    tag_210:\n        /* \"#utility.yul\":8669:9102   */\n      pop\n      swap3\n      pop\n      swap3\n      swap1\n      pop\n      jump\t// out\n        /* \"#utility.yul\":9108:9391   */\n    tag_115:\n      0x00\n        /* \"#utility.yul\":9174:9176   */\n      0x40\n        /* \"#utility.yul\":9168:9177   */\n      mload\n        /* \"#utility.yul\":9158:9177   */\n      swap1\n      pop\n        /* \"#utility.yul\":9216:9220   */\n      dup2\n        /* \"#utility.yul\":9208:9214   */\n      dup2\n        /* \"#utility.yul\":9204:9221   */\n      add\n        /* \"#utility.yul\":9323:9329   */\n      dup2\n        /* \"#utility.yul\":9311:9321   */\n      dup2\n        /* \"#utility.yul\":9308:9330   */\n      lt\n        /* \"#utility.yul\":9287:9305   */\n      0xffffffffffffffff\n        /* \"#utility.yul\":9275:9285   */\n      dup3\n        /* \"#utility.yul\":9272:9306   */\n      gt\n        /* \"#utility.yul\":9269:9331   */\n      or\n        /* \"#utility.yul\":9266:9268   */\n      iszero\n      tag_212\n      jumpi\n        /* \"#utility.yul\":9334:9352   */\n      tag_213\n      tag_214\n      jump\t// in\n    tag_213:\n        /* \"#utility.yul\":9266:9268   */\n    tag_212:\n        /* \"#utility.yul\":9374:9384   */\n      dup1\n        /* \"#utility.yul\":9370:9372   */\n      0x40\n        /* \"#utility.yul\":9363:9385   */\n      mstore\n        /* \"#utility.yul\":9148:9391   */\n      pop\n      swap2\n      swap1\n      pop\n      jump\t// out\n        /* \"#utility.yul\":9397:9729   */\n    tag_114:\n      0x00\n        /* \"#utility.yul\":9549:9567   */\n      0xffffffffffffffff\n        /* \"#utility.yul\":9541:9547   */\n      dup3\n        /* \"#utility.yul\":9538:9568   */\n      gt\n        /* \"#utility.yul\":9535:9537   */\n      iszero\n      tag_216\n      jumpi\n        /* \"#utility.yul\":9571:9589   */\n      tag_217\n      tag_214\n      jump\t// in\n    tag_217:\n        /* \"#utility.yul\":9535:9537   */\n    tag_216:\n        /* \"#utility.yul\":9656:9660   */\n      0x1f\n        /* \"#utility.yul\":9652:9661   */\n      not\n        /* \"#utility.yul\":9645:9649   */\n      0x1f\n        /* \"#utility.yul\":9637:9643   */\n      dup4\n        /* \"#utility.yul\":9633:9650   */\n      add\n        /* \"#utility.yul\":9629:9662   */\n      and\n        /* \"#utility.yul\":9621:9662   */\n      swap1\n      pop\n        /* \"#utility.yul\":9717:9721   */\n      0x20\n        /* \"#utility.yul\":9711:9715   */\n      dup2\n        /* \"#utility.yul\":9707:9722   */\n      add\n        /* \"#utility.yul\":9699:9722   */\n      swap1\n      pop\n        /* \"#utility.yul\":9464:9729   */\n      swap2\n      swap1\n      pop\n      jump\t// out\n        /* \"#utility.yul\":9735:9834   */\n    tag_168:\n      0x00\n        /* \"#utility.yul\":9821:9826   */\n      dup2\n        /* \"#utility.yul\":9815:9827   */\n      mload\n        /* \"#utility.yul\":9805:9827   */\n      swap1\n      pop\n        /* \"#utility.yul\":9794:9834   */\n      swap2\n      swap1\n      pop\n      jump\t// out\n        /* \"#utility.yul\":9840:10009   */\n    tag_175:\n      0x00\n        /* \"#utility.yul\":9958:9964   */\n      dup3\n        /* \"#utility.yul\":9953:9956   */\n      dup3\n        /* \"#utility.yul\":9946:9965   */\n      mstore\n        /* \"#utility.yul\":9998:10002   */\n      0x20\n        /* \"#utility.yul\":9993:9996   */\n      dup3\n        /* \"#utility.yul\":9989:10003   */\n      add\n        /* \"#utility.yul\":9974:10003   */\n      swap1\n      pop\n        /* \"#utility.yul\":9936:10009   */\n      swap3\n      swap2\n      pop\n      pop\n      jump\t// out\n        /* \"#utility.yul\":10015:10163   */\n    tag_163:\n      0x00\n        /* \"#utility.yul\":10154:10157   */\n      dup2\n        /* \"#utility.yul\":10139:10157   */\n      swap1\n      pop\n        /* \"#utility.yul\":10129:10163   */\n      swap3\n      swap2\n      pop\n      pop\n      jump\t// out\n        /* \"#utility.yul\":10169:10265   */\n    tag_155:\n      0x00\n        /* \"#utility.yul\":10235:10259   */\n      tag_222\n        /* \"#utility.yul\":10253:10258   */\n      dup3\n        /* \"#utility.yul\":10235:10259   */\n      tag_223\n      jump\t// in\n    tag_222:\n        /* \"#utility.yul\":10224:10259   */\n      swap1\n      pop\n        /* \"#utility.yul\":10214:10265   */\n      swap2\n      swap1\n      pop\n      jump\t// out\n        /* \"#utility.yul\":10271:10361   */\n    tag_159:\n      0x00\n        /* \"#utility.yul\":10348:10353   */\n      dup2\n        /* \"#utility.yul\":10341:10354   */\n      iszero\n        /* \"#utility.yul\":10334:10355   */\n      iszero\n        /* \"#utility.yul\":10323:10355   */\n      swap1\n      pop\n        /* \"#utility.yul\":10313:10361   */\n      swap2\n      swap1\n      pop\n      jump\t// out\n        /* \"#utility.yul\":10367:10493   */\n    tag_223:\n      0x00\n        /* \"#utility.yul\":10444:10486   */\n      0xffffffffffffffffffffffffffffffffffffffff\n        /* \"#utility.yul\":10437:10442   */\n      dup3\n        /* \"#utility.yul\":10433:10487   */\n      and\n        /* \"#utility.yul\":10422:10487   */\n      swap1\n      pop\n        /* \"#utility.yul\":10412:10493   */\n      swap2\n      swap1\n      pop\n      jump\t// out\n        /* \"#utility.yul\":10499:10576   */\n    tag_188:\n      0x00\n        /* \"#utility.yul\":10565:10570   */\n      dup2\n        /* \"#utility.yul\":10554:10570   */\n      swap1\n      pop\n        /* \"#utility.yul\":10544:10576   */\n      swap2\n      swap1\n      pop\n      jump\t// out\n        /* \"#utility.yul\":10582:10736   */\n    tag_118:\n        /* \"#utility.yul\":10666:10672   */\n      dup3\n        /* \"#utility.yul\":10661:10664   */\n      dup2\n        /* \"#utility.yul\":10656:10659   */\n      dup4\n        /* \"#utility.yul\":10643:10673   */\n      calldatacopy\n        /* \"#utility.yul\":10728:10729   */\n      0x00\n        /* \"#utility.yul\":10719:10725   */\n      dup4\n        /* \"#utility.yul\":10714:10717   */\n      dup4\n        /* \"#utility.yul\":10710:10726   */\n      add\n        /* \"#utility.yul\":10703:10730   */\n      mstore\n        /* \"#utility.yul\":10633:10736   */\n      pop\n      pop\n      pop\n      jump\t// out\n        /* \"#utility.yul\":10742:11049   */\n    tag_171:\n        /* \"#utility.yul\":10810:10811   */\n      0x00\n        /* \"#utility.yul\":10820:10933   */\n    tag_229:\n        /* \"#utility.yul\":10834:10840   */\n      dup4\n        /* \"#utility.yul\":10831:10832   */\n      dup2\n        /* \"#utility.yul\":10828:10841   */\n      lt\n        /* \"#utility.yul\":10820:10933   */\n      iszero\n      tag_231\n      jumpi\n        /* \"#utility.yul\":10919:10920   */\n      dup1\n        /* \"#utility.yul\":10914:10917   */\n      dup3\n        /* \"#utility.yul\":10910:10921   */\n      add\n        /* \"#utility.yul\":10904:10922   */\n      mload\n        /* \"#utility.yul\":10900:10901   */\n      dup2\n        /* \"#utility.yul\":10895:10898   */\n      dup5\n        /* \"#utility.yul\":10891:10902   */\n      add\n        /* \"#utility.yul\":10884:10923   */\n      mstore\n        /* \"#utility.yul\":10856:10858   */\n      0x20\n        /* \"#utility.yul\":10853:10854   */\n      dup2\n        /* \"#utility.yul\":10849:10859   */\n      add\n        /* \"#utility.yul\":10844:10859   */\n      swap1\n      pop\n        /* \"#utility.yul\":10820:10933   */\n      jump(tag_229)\n    tag_231:\n        /* \"#utility.yul\":10951:10957   */\n      dup4\n        /* \"#utility.yul\":10948:10949   */\n      dup2\n        /* \"#utility.yul\":10945:10958   */\n      gt\n        /* \"#utility.yul\":10942:10944   */\n      iszero\n      tag_232\n      jumpi\n        /* \"#utility.yul\":11031:11032   */\n      0x00\n        /* \"#utility.yul\":11022:11028   */\n      dup5\n        /* \"#utility.yul\":11017:11020   */\n      dup5\n        /* \"#utility.yul\":11013:11029   */\n      add\n        /* \"#utility.yul\":11006:11033   */\n      mstore\n        /* \"#utility.yul\":10942:10944   */\n    tag_232:\n        /* \"#utility.yul\":10791:11049   */\n      pop\n      pop\n      pop\n      pop\n      jump\t// out\n        /* \"#utility.yul\":11055:11375   */\n    tag_49:\n      0x00\n        /* \"#utility.yul\":11136:11137   */\n      0x02\n        /* \"#utility.yul\":11130:11134   */\n      dup3\n        /* \"#utility.yul\":11126:11138   */\n      div\n        /* \"#utility.yul\":11116:11138   */\n      swap1\n      pop\n        /* \"#utility.yul\":11183:11184   */\n      0x01\n        /* \"#utility.yul\":11177:11181   */\n      dup3\n        /* \"#utility.yul\":11173:11185   */\n      and\n        /* \"#utility.yul\":11204:11222   */\n      dup1\n        /* \"#utility.yul\":11194:11196   */\n      tag_234\n      jumpi\n        /* \"#utility.yul\":11260:11264   */\n      0x7f\n        /* \"#utility.yul\":11252:11258   */\n      dup3\n        /* \"#utility.yul\":11248:11265   */\n      and\n        /* \"#utility.yul\":11238:11265   */\n      swap2\n      pop\n        /* \"#utility.yul\":11194:11196   */\n    tag_234:\n        /* \"#utility.yul\":11322:11324   */\n      0x20\n        /* \"#utility.yul\":11314:11320   */\n      dup3\n        /* \"#utility.yul\":11311:11325   */\n      lt\n        /* \"#utility.yul\":11291:11309   */\n      dup2\n        /* \"#utility.yul\":11288:11326   */\n      eq\n        /* \"#utility.yul\":11285:11287   */\n      iszero\n      tag_235\n      jumpi\n        /* \"#utility.yul\":11341:11359   */\n      tag_236\n      tag_237\n      jump\t// in\n    tag_236:\n        /* \"#utility.yul\":11285:11287   */\n    tag_235:\n        /* \"#utility.yul\":11106:11375   */\n      pop\n      swap2\n      swap1\n      pop\n      jump\t// out\n        /* \"#utility.yul\":11381:11614   */\n    tag_83:\n      0x00\n        /* \"#utility.yul\":11443:11467   */\n      tag_239\n        /* \"#utility.yul\":11461:11466   */\n      dup3\n        /* \"#utility.yul\":11443:11467   */\n      tag_188\n      jump\t// in\n    tag_239:\n        /* \"#utility.yul\":11434:11467   */\n      swap2\n      pop\n        /* \"#utility.yul\":11489:11555   */\n      0xffffffffffffffffffffffffffffffffffffffffffffffffffffffffffffffff\n        /* \"#utility.yul\":11482:11487   */\n      dup3\n        /* \"#utility.yul\":11479:11556   */\n      eq\n        /* \"#utility.yul\":11476:11478   */\n      iszero\n      tag_240\n      jumpi\n        /* \"#utility.yul\":11559:11577   */\n      tag_241\n      tag_242\n      jump\t// in\n    tag_241:\n        /* \"#utility.yul\":11476:11478   */\n    tag_240:\n        /* \"#utility.yul\":11606:11607   */\n      0x01\n        /* \"#utility.yul\":11599:11604   */\n      dup3\n        /* \"#utility.yul\":11595:11608   */\n      add\n        /* \"#utility.yul\":11588:11608   */\n      swap1\n      pop\n        /* \"#utility.yul\":11424:11614   */\n      swap2\n      swap1\n      pop\n      jump\t// out\n        /* \"#utility.yul\":11620:11800   */\n    tag_242:\n        /* \"#utility.yul\":11668:11745   */\n      0x4e487b7100000000000000000000000000000000000000000000000000000000\n        /* \"#utility.yul\":11665:11666   */\n      0x00\n        /* \"#utility.yul\":11658:11746   */\n      mstore\n        /* \"#utility.yul\":11765:11769   */\n      0x11\n        /* \"#utility.yul\":11762:11763   */\n      0x04\n        /* \"#utility.yul\":11755:11770   */\n      mstore\n        /* \"#utility.yul\":11789:11793   */\n      0x24\n        /* \"#utility.yul\":11786:11787   */\n      0x00\n        /* \"#utility.yul\":11779:11794   */\n      revert\n        /* \"#utility.yul\":11806:11986   */\n    tag_237:\n        /* \"#utility.yul\":11854:11931   */\n      0x4e487b7100000000000000000000000000000000000000000000000000000000\n        /* \"#utility.yul\":11851:11852   */\n      0x00\n        /* \"#utility.yul\":11844:11932   */\n      mstore\n        /* \"#utility.yul\":11951:11955   */\n      0x22\n        /* \"#utility.yul\":11948:11949   */\n      0x04\n        /* \"#utility.yul\":11941:11956   */\n      mstore\n        /* \"#utility.yul\":11975:11979   */\n      0x24\n        /* \"#utility.yul\":11972:11973   */\n      0x00\n        /* \"#utility.yul\":11965:11980   */\n      revert\n        /* \"#utility.yul\":11992:12172   */\n    tag_214:\n        /* \"#utility.yul\":12040:12117   */\n      0x4e487b7100000000000000000000000000000000000000000000000000000000\n        /* \"#utility.yul\":12037:12038   */\n      0x00\n        /* \"#utility.yul\":12030:12118   */\n      mstore\n        /* \"#utility.yul\":12137:12141   */\n      0x41\n        /* \"#utility.yul\":12134:12135   */\n      0x04\n        /* \"#utility.yul\":12127:12142   */\n      mstore\n        /* \"#utility.yul\":12161:12165   */\n      0x24\n        /* \"#utility.yul\":12158:12159   */\n      0x00\n        /* \"#utility.yul\":12151:12166   */\n      revert\n        /* \"#utility.yul\":12178:12300   */\n    tag_134:\n        /* \"#utility.yul\":12251:12275   */\n      tag_247\n        /* \"#utility.yul\":12269:12274   */\n      dup2\n        /* \"#utility.yul\":12251:12275   */\n      tag_188\n      jump\t// in\n    tag_247:\n        /* \"#utility.yul\":12244:12249   */\n      dup2\n        /* \"#utility.yul\":12241:12276   */\n      eq\n        /* \"#utility.yul\":12231:12233   */\n      tag_248\n      jumpi\n        /* \"#utility.yul\":12290:12291   */\n      0x00\n        /* \"#utility.yul\":12287:12288   */\n      dup1\n        /* \"#utility.yul\":12280:12292   */\n      revert\n        /* \"#utility.yul\":12231:12233   */\n    tag_248:\n        /* \"#utility.yul\":12221:12300   */\n      pop\n      jump\t// out\n\n    auxdata: 0xa2646970667358221220d56ca921d159d92648e990a410d27ee49bdda8021920fc4453631aa7976f0eed64736f6c63430008000033\n}\n",
				"bytecode": {
					"linkReferences": {},
					"object": "60806040526040518060a00160405280600160ff168152602001600260ff168152602001600360ff168152602001600460ff168152602001600560ff16815250600090600561004f9291906100a3565b5034801561005c57600080fd5b5033600160006101000a81548173ffffffffffffffffffffffffffffffffffffffff021916908373ffffffffffffffffffffffffffffffffffffffff160217905550610112565b8280548282559060005260206000209081019282156100e4579160200282015b828111156100e3578251829060ff169055916020019190600101906100c3565b5b5090506100f191906100f5565b5090565b5b8082111561010e5760008160009055506001016100f6565b5090565b610f8f806101216000396000f3fe608060405234801561001057600080fd5b506004361061007d5760003560e01c8063713291711161005b57806371329171146100ea5780638da5cb5b14610106578063be1c766b14610124578063bed34bba146101425761007d565b80635811a3b9146100825780635b87081f146100b25780635d16b308146100ce575b600080fd5b61009c600480360381019061009791906109b2565b610172565b6040516100a99190610cb6565b60405180910390f35b6100cc60048036038101906100c791906108c0565b610196565b005b6100e860048036038101906100e39190610971565b61035a565b005b61010460048036038101906100ff91906109b2565b610597565b005b61010e6105e2565b60405161011b9190610c00565b60405180910390f35b61012c610608565b6040516101399190610cb6565b60405180910390f35b61015c60048036038101906101579190610905565b610614565b6040516101699190610c1b565b60405180910390f35b6000818154811061018257600080fd5b906000526020600020016000915090505481565b6102af8282600560003373ffffffffffffffffffffffffffffffffffffffff1673ffffffffffffffffffffffffffffffffffffffff168152602001908152602001600020805480602002602001604051908101604052809291908181526020016000905b828210156102a657838290600052602060002001805461021990610e3a565b80601f016020809104026020016040519081016040528092919081815260200182805461024590610e3a565b80156102925780601f1061026757610100808354040283529160200191610292565b820191906000526020600020905b81548152906001019060200180831161027557829003601f168201915b5050505050815260200190600101906101fa565b5050505061066d565b156102ef576040517f08c379a00000000000000000000000000000000000000000000000000000000081526004016102e690610c36565b60405180910390fd5b600060038383604051610303929190610bd0565b9081526020016040518091039020600201541415610356576040517f08c379a000000000000000000000000000000000000000000000000000000000815260040161034d90610c76565b60405180910390fd5b5050565b600160009054906101000a900473ffffffffffffffffffffffffffffffffffffffff1673ffffffffffffffffffffffffffffffffffffffff163373ffffffffffffffffffffffffffffffffffffffff16146103ea576040517f08c379a00000000000000000000000000000000000000000000000000000000081526004016103e190610c56565b60405180910390fd5b60008180602001906103fc9190610cd1565b8080601f016020809104026020016040519081016040528093929190818152602001838380828437600081840152601f19601f8201169050808301925050505050505090506003816040516104519190610be9565b908152602001604051809103902060030160009054906101000a900460ff16156104b0576040517f08c379a00000000000000000000000000000000000000000000000000000000081526004016104a790610c96565b60405180910390fd5b6002546003826040516104c39190610be9565b9081526020016040518091039020600001819055508180602001906104e89190610cd1565b6003836040516104f89190610be9565b9081526020016040518091039020600101919061051692919061073b565b50816040013560038260405161052c9190610be9565b90815260200160405180910390206002018190555060016003826040516105539190610be9565b908152602001604051809103902060030160006101000a81548160ff0219169083151502179055506002600081548092919061058e90610e6c565b91905055505050565b600081815481106105d1577f4e487b7100000000000000000000000000000000000000000000000000000000600052603260045260246000fd5b906000526020600020016000905550565b600160009054906101000a900473ffffffffffffffffffffffffffffffffffffffff1681565b60008080549050905090565b6000816040516020016106279190610be9565b604051602081830303815290604052805190602001208360405160200161064e9190610be9565b6040516020818303038152906040528051906020012014905092915050565b600080600090505b825181101561072e5761070c85858080601f016020809104026020016040519081016040528093929190818152602001838380828437600081840152601f19601f820116905080830192505050505050508483815181106106ff577f4e487b7100000000000000000000000000000000000000000000000000000000600052603260045260246000fd5b6020026020010151610614565b1561071b576001915050610734565b808061072690610e6c565b915050610675565b50600090505b9392505050565b82805461074790610e3a565b90600052602060002090601f01602090048101928261076957600085556107b0565b82601f1061078257803560ff19168380011785556107b0565b828001600101855582156107b0579182015b828111156107af578235825591602001919060010190610794565b5b5090506107bd91906107c1565b5090565b5b808211156107da5760008160009055506001016107c2565b5090565b60006107f16107ec84610d59565b610d28565b90508281526020810184848401111561080957600080fd5b610814848285610df8565b509392505050565b60008083601f84011261082e57600080fd5b8235905067ffffffffffffffff81111561084757600080fd5b60208301915083600182028301111561085f57600080fd5b9250929050565b600082601f83011261087757600080fd5b81356108878482602086016107de565b91505092915050565b6000608082840312156108a257600080fd5b81905092915050565b6000813590506108ba81610f42565b92915050565b600080602083850312156108d357600080fd5b600083013567ffffffffffffffff8111156108ed57600080fd5b6108f98582860161081c565b92509250509250929050565b6000806040838503121561091857600080fd5b600083013567ffffffffffffffff81111561093257600080fd5b61093e85828601610866565b925050602083013567ffffffffffffffff81111561095b57600080fd5b61096785828601610866565b9150509250929050565b60006020828403121561098357600080fd5b600082013567ffffffffffffffff81111561099d57600080fd5b6109a984828501610890565b91505092915050565b6000602082840312156109c457600080fd5b60006109d2848285016108ab565b91505092915050565b6109e481610db0565b82525050565b6109f381610dc2565b82525050565b6000610a058385610da5565b9350610a12838584610df8565b82840190509392505050565b6000610a2982610d89565b610a338185610da5565b9350610a43818560208601610e07565b80840191505092915050565b6000610a5c602883610d94565b91507f5468697320626f6f6b20616c72656164792065786973747320696e207468652060008301527f4c696272617279210000000000000000000000000000000000000000000000006020830152604082019050919050565b6000610ac2601a83610d94565b91507f43757272656e742075736572206973206e6f74206f776e6572210000000000006000830152602082019050919050565b6000610b02602483610d94565b91507f5468697320626f6f6b206973206f7574206f662073746f636b2063757272656e60008301527f746c7921000000000000000000000000000000000000000000000000000000006020830152604082019050919050565b6000610b68602383610d94565b91507f426f6f6b20616c72656164792065786973747320696e20746865204c6962726160008301527f72792100000000000000000000000000000000000000000000000000000000006020830152604082019050919050565b610bca81610dee565b82525050565b6000610bdd8284866109f9565b91508190509392505050565b6000610bf58284610a1e565b915081905092915050565b6000602082019050610c1560008301846109db565b92915050565b6000602082019050610c3060008301846109ea565b92915050565b60006020820190508181036000830152610c4f81610a4f565b9050919050565b60006020820190508181036000830152610c6f81610ab5565b9050919050565b60006020820190508181036000830152610c8f81610af5565b9050919050565b60006020820190508181036000830152610caf81610b5b565b9050919050565b6000602082019050610ccb6000830184610bc1565b92915050565b60008083356001602003843603038112610cea57600080fd5b80840192508235915067ffffffffffffffff821115610d0857600080fd5b602083019250600182023603831315610d2057600080fd5b509250929050565b6000604051905081810181811067ffffffffffffffff82111715610d4f57610d4e610f13565b5b8060405250919050565b600067ffffffffffffffff821115610d7457610d73610f13565b5b601f19601f8301169050602081019050919050565b600081519050919050565b600082825260208201905092915050565b600081905092915050565b6000610dbb82610dce565b9050919050565b60008115159050919050565b600073ffffffffffffffffffffffffffffffffffffffff82169050919050565b6000819050919050565b82818337600083830152505050565b60005b83811015610e25578082015181840152602081019050610e0a565b83811115610e34576000848401525b50505050565b60006002820490506001821680610e5257607f821691505b60208210811415610e6657610e65610ee4565b5b50919050565b6000610e7782610dee565b91507fffffffffffffffffffffffffffffffffffffffffffffffffffffffffffffffff821415610eaa57610ea9610eb5565b5b600182019050919050565b7f4e487b7100000000000000000000000000000000000000000000000000000000600052601160045260246000fd5b7f4e487b7100000000000000000000000000000000000000000000000000000000600052602260045260246000fd5b7f4e487b7100000000000000000000000000000000000000000000000000000000600052604160045260246000fd5b610f4b81610dee565b8114610f5657600080fd5b5056fea2646970667358221220d56ca921d159d92648e990a410d27ee49bdda8021920fc4453631aa7976f0eed64736f6c63430008000033",
					"opcodes": "PUSH1 0x80 PUSH1 0x40 MSTORE PUSH1 0x40 MLOAD DUP1 PUSH1 0xA0 ADD PUSH1 0x40 MSTORE DUP1 PUSH1 0x1 PUSH1 0xFF AND DUP2 MSTORE PUSH1 0x20 ADD PUSH1 0x2 PUSH1 0xFF AND DUP2 MSTORE PUSH1 0x20 ADD PUSH1 0x3 PUSH1 0xFF AND DUP2 MSTORE PUSH1 0x20 ADD PUSH1 0x4 PUSH1 0xFF AND DUP2 MSTORE PUSH1 0x20 ADD PUSH1 0x5 PUSH1 0xFF AND DUP2 MSTORE POP PUSH1 0x0 SWAP1 PUSH1 0x5 PUSH2 0x4F SWAP3 SWAP2 SWAP1 PUSH2 0xA3 JUMP JUMPDEST POP CALLVALUE DUP1 ISZERO PUSH2 0x5C JUMPI PUSH1 0x0 DUP1 REVERT JUMPDEST POP CALLER PUSH1 0x1 PUSH1 0x0 PUSH2 0x100 EXP DUP2 SLOAD DUP2 PUSH20 0xFFFFFFFFFFFFFFFFFFFFFFFFFFFFFFFFFFFFFFFF MUL NOT AND SWAP1 DUP4 PUSH20 0xFFFFFFFFFFFFFFFFFFFFFFFFFFFFFFFFFFFFFFFF AND MUL OR SWAP1 SSTORE POP PUSH2 0x112 JUMP JUMPDEST DUP3 DUP1 SLOAD DUP3 DUP3 SSTORE SWAP1 PUSH1 0x0 MSTORE PUSH1 0x20 PUSH1 0x0 KECCAK256 SWAP1 DUP2 ADD SWAP3 DUP3 ISZERO PUSH2 0xE4 JUMPI SWAP2 PUSH1 0x20 MUL DUP3 ADD JUMPDEST DUP3 DUP2 GT ISZERO PUSH2 0xE3 JUMPI DUP3 MLOAD DUP3 SWAP1 PUSH1 0xFF AND SWAP1 SSTORE SWAP2 PUSH1 0x20 ADD SWAP2 SWAP1 PUSH1 0x1 ADD SWAP1 PUSH2 0xC3 JUMP JUMPDEST JUMPDEST POP SWAP1 POP PUSH2 0xF1 SWAP2 SWAP1 PUSH2 0xF5 JUMP JUMPDEST POP SWAP1 JUMP JUMPDEST JUMPDEST DUP1 DUP3 GT ISZERO PUSH2 0x10E JUMPI PUSH1 0x0 DUP2 PUSH1 0x0 SWAP1 SSTORE POP PUSH1 0x1 ADD PUSH2 0xF6 JUMP JUMPDEST POP SWAP1 JUMP JUMPDEST PUSH2 0xF8F DUP1 PUSH2 0x121 PUSH1 0x0 CODECOPY PUSH1 0x0 RETURN INVALID PUSH1 0x80 PUSH1 0x40 MSTORE CALLVALUE DUP1 ISZERO PUSH2 0x10 JUMPI PUSH1 0x0 DUP1 REVERT JUMPDEST POP PUSH1 0x4 CALLDATASIZE LT PUSH2 0x7D JUMPI PUSH1 0x0 CALLDATALOAD PUSH1 0xE0 SHR DUP1 PUSH4 0x71329171 GT PUSH2 0x5B JUMPI DUP1 PUSH4 0x71329171 EQ PUSH2 0xEA JUMPI DUP1 PUSH4 0x8DA5CB5B EQ PUSH2 0x106 JUMPI DUP1 PUSH4 0xBE1C766B EQ PUSH2 0x124 JUMPI DUP1 PUSH4 0xBED34BBA EQ PUSH2 0x142 JUMPI PUSH2 0x7D JUMP JUMPDEST DUP1 PUSH4 0x5811A3B9 EQ PUSH2 0x82 JUMPI DUP1 PUSH4 0x5B87081F EQ PUSH2 0xB2 JUMPI DUP1 PUSH4 0x5D16B308 EQ PUSH2 0xCE JUMPI JUMPDEST PUSH1 0x0 DUP1 REVERT JUMPDEST PUSH2 0x9C PUSH1 0x4 DUP1 CALLDATASIZE SUB DUP2 ADD SWAP1 PUSH2 0x97 SWAP2 SWAP1 PUSH2 0x9B2 JUMP JUMPDEST PUSH2 0x172 JUMP JUMPDEST PUSH1 0x40 MLOAD PUSH2 0xA9 SWAP2 SWAP1 PUSH2 0xCB6 JUMP JUMPDEST PUSH1 0x40 MLOAD DUP1 SWAP2 SUB SWAP1 RETURN JUMPDEST PUSH2 0xCC PUSH1 0x4 DUP1 CALLDATASIZE SUB DUP2 ADD SWAP1 PUSH2 0xC7 SWAP2 SWAP1 PUSH2 0x8C0 JUMP JUMPDEST PUSH2 0x196 JUMP JUMPDEST STOP JUMPDEST PUSH2 0xE8 PUSH1 0x4 DUP1 CALLDATASIZE SUB DUP2 ADD SWAP1 PUSH2 0xE3 SWAP2 SWAP1 PUSH2 0x971 JUMP JUMPDEST PUSH2 0x35A JUMP JUMPDEST STOP JUMPDEST PUSH2 0x104 PUSH1 0x4 DUP1 CALLDATASIZE SUB DUP2 ADD SWAP1 PUSH2 0xFF SWAP2 SWAP1 PUSH2 0x9B2 JUMP JUMPDEST PUSH2 0x597 JUMP JUMPDEST STOP JUMPDEST PUSH2 0x10E PUSH2 0x5E2 JUMP JUMPDEST PUSH1 0x40 MLOAD PUSH2 0x11B SWAP2 SWAP1 PUSH2 0xC00 JUMP JUMPDEST PUSH1 0x40 MLOAD DUP1 SWAP2 SUB SWAP1 RETURN JUMPDEST PUSH2 0x12C PUSH2 0x608 JUMP JUMPDEST PUSH1 0x40 MLOAD PUSH2 0x139 SWAP2 SWAP1 PUSH2 0xCB6 JUMP JUMPDEST PUSH1 0x40 MLOAD DUP1 SWAP2 SUB SWAP1 RETURN JUMPDEST PUSH2 0x15C PUSH1 0x4 DUP1 CALLDATASIZE SUB DUP2 ADD SWAP1 PUSH2 0x157 SWAP2 SWAP1 PUSH2 0x905 JUMP JUMPDEST PUSH2 0x614 JUMP JUMPDEST PUSH1 0x40 MLOAD PUSH2 0x169 SWAP2 SWAP1 PUSH2 0xC1B JUMP JUMPDEST PUSH1 0x40 MLOAD DUP1 SWAP2 SUB SWAP1 RETURN JUMPDEST PUSH1 0x0 DUP2 DUP2 SLOAD DUP2 LT PUSH2 0x182 JUMPI PUSH1 0x0 DUP1 REVERT JUMPDEST SWAP1 PUSH1 0x0 MSTORE PUSH1 0x20 PUSH1 0x0 KECCAK256 ADD PUSH1 0x0 SWAP2 POP SWAP1 POP SLOAD DUP2 JUMP JUMPDEST PUSH2 0x2AF DUP3 DUP3 PUSH1 0x5 PUSH1 0x0 CALLER PUSH20 0xFFFFFFFFFFFFFFFFFFFFFFFFFFFFFFFFFFFFFFFF AND PUSH20 0xFFFFFFFFFFFFFFFFFFFFFFFFFFFFFFFFFFFFFFFF AND DUP2 MSTORE PUSH1 0x20 ADD SWAP1 DUP2 MSTORE PUSH1 0x20 ADD PUSH1 0x0 KECCAK256 DUP1 SLOAD DUP1 PUSH1 0x20 MUL PUSH1 0x20 ADD PUSH1 0x40 MLOAD SWAP1 DUP2 ADD PUSH1 0x40 MSTORE DUP1 SWAP3 SWAP2 SWAP1 DUP2 DUP2 MSTORE PUSH1 0x20 ADD PUSH1 0x0 SWAP1 JUMPDEST DUP3 DUP3 LT ISZERO PUSH2 0x2A6 JUMPI DUP4 DUP3 SWAP1 PUSH1 0x0 MSTORE PUSH1 0x20 PUSH1 0x0 KECCAK256 ADD DUP1 SLOAD PUSH2 0x219 SWAP1 PUSH2 0xE3A JUMP JUMPDEST DUP1 PUSH1 0x1F ADD PUSH1 0x20 DUP1 SWAP2 DIV MUL PUSH1 0x20 ADD PUSH1 0x40 MLOAD SWAP1 DUP2 ADD PUSH1 0x40 MSTORE DUP1 SWAP3 SWAP2 SWAP1 DUP2 DUP2 MSTORE PUSH1 0x20 ADD DUP3 DUP1 SLOAD PUSH2 0x245 SWAP1 PUSH2 0xE3A JUMP JUMPDEST DUP1 ISZERO PUSH2 0x292 JUMPI DUP1 PUSH1 0x1F LT PUSH2 0x267 JUMPI PUSH2 0x100 DUP1 DUP4 SLOAD DIV MUL DUP4 MSTORE SWAP2 PUSH1 0x20 ADD SWAP2 PUSH2 0x292 JUMP JUMPDEST DUP3 ADD SWAP2 SWAP1 PUSH1 0x0 MSTORE PUSH1 0x20 PUSH1 0x0 KECCAK256 SWAP1 JUMPDEST DUP2 SLOAD DUP2 MSTORE SWAP1 PUSH1 0x1 ADD SWAP1 PUSH1 0x20 ADD DUP1 DUP4 GT PUSH2 0x275 JUMPI DUP3 SWAP1 SUB PUSH1 0x1F AND DUP3 ADD SWAP2 JUMPDEST POP POP POP POP POP DUP2 MSTORE PUSH1 0x20 ADD SWAP1 PUSH1 0x1 ADD SWAP1 PUSH2 0x1FA JUMP JUMPDEST POP POP POP POP PUSH2 0x66D JUMP JUMPDEST ISZERO PUSH2 0x2EF JUMPI PUSH1 0x40 MLOAD PUSH32 0x8C379A000000000000000000000000000000000000000000000000000000000 DUP2 MSTORE PUSH1 0x4 ADD PUSH2 0x2E6 SWAP1 PUSH2 0xC36 JUMP JUMPDEST PUSH1 0x40 MLOAD DUP1 SWAP2 SUB SWAP1 REVERT JUMPDEST PUSH1 0x0 PUSH1 0x3 DUP4 DUP4 PUSH1 0x40 MLOAD PUSH2 0x303 SWAP3 SWAP2 SWAP1 PUSH2 0xBD0 JUMP JUMPDEST SWAP1 DUP2 MSTORE PUSH1 0x20 ADD PUSH1 0x40 MLOAD DUP1 SWAP2 SUB SWAP1 KECCAK256 PUSH1 0x2 ADD SLOAD EQ ISZERO PUSH2 0x356 JUMPI PUSH1 0x40 MLOAD PUSH32 0x8C379A000000000000000000000000000000000000000000000000000000000 DUP2 MSTORE PUSH1 0x4 ADD PUSH2 0x34D SWAP1 PUSH2 0xC76 JUMP JUMPDEST PUSH1 0x40 MLOAD DUP1 SWAP2 SUB SWAP1 REVERT JUMPDEST POP POP JUMP JUMPDEST PUSH1 0x1 PUSH1 0x0 SWAP1 SLOAD SWAP1 PUSH2 0x100 EXP SWAP1 DIV PUSH20 0xFFFFFFFFFFFFFFFFFFFFFFFFFFFFFFFFFFFFFFFF AND PUSH20 0xFFFFFFFFFFFFFFFFFFFFFFFFFFFFFFFFFFFFFFFF AND CALLER PUSH20 0xFFFFFFFFFFFFFFFFFFFFFFFFFFFFFFFFFFFFFFFF AND EQ PUSH2 0x3EA JUMPI PUSH1 0x40 MLOAD PUSH32 0x8C379A000000000000000000000000000000000000000000000000000000000 DUP2 MSTORE PUSH1 0x4 ADD PUSH2 0x3E1 SWAP1 PUSH2 0xC56 JUMP JUMPDEST PUSH1 0x40 MLOAD DUP1 SWAP2 SUB SWAP1 REVERT JUMPDEST PUSH1 0x0 DUP2 DUP1 PUSH1 0x20 ADD SWAP1 PUSH2 0x3FC SWAP2 SWAP1 PUSH2 0xCD1 JUMP JUMPDEST DUP1 DUP1 PUSH1 0x1F ADD PUSH1 0x20 DUP1 SWAP2 DIV MUL PUSH1 0x20 ADD PUSH1 0x40 MLOAD SWAP1 DUP2 ADD PUSH1 0x40 MSTORE DUP1 SWAP4 SWAP3 SWAP2 SWAP1 DUP2 DUP2 MSTORE PUSH1 0x20 ADD DUP4 DUP4 DUP1 DUP3 DUP5 CALLDATACOPY PUSH1 0x0 DUP2 DUP5 ADD MSTORE PUSH1 0x1F NOT PUSH1 0x1F DUP3 ADD AND SWAP1 POP DUP1 DUP4 ADD SWAP3 POP POP POP POP POP POP POP SWAP1 POP PUSH1 0x3 DUP2 PUSH1 0x40 MLOAD PUSH2 0x451 SWAP2 SWAP1 PUSH2 0xBE9 JUMP JUMPDEST SWAP1 DUP2 MSTORE PUSH1 0x20 ADD PUSH1 0x40 MLOAD DUP1 SWAP2 SUB SWAP1 KECCAK256 PUSH1 0x3 ADD PUSH1 0x0 SWAP1 SLOAD SWAP1 PUSH2 0x100 EXP SWAP1 DIV PUSH1 0xFF AND ISZERO PUSH2 0x4B0 JUMPI PUSH1 0x40 MLOAD PUSH32 0x8C379A000000000000000000000000000000000000000000000000000000000 DUP2 MSTORE PUSH1 0x4 ADD PUSH2 0x4A7 SWAP1 PUSH2 0xC96 JUMP JUMPDEST PUSH1 0x40 MLOAD DUP1 SWAP2 SUB SWAP1 REVERT JUMPDEST PUSH1 0x2 SLOAD PUSH1 0x3 DUP3 PUSH1 0x40 MLOAD PUSH2 0x4C3 SWAP2 SWAP1 PUSH2 0xBE9 JUMP JUMPDEST SWAP1 DUP2 MSTORE PUSH1 0x20 ADD PUSH1 0x40 MLOAD DUP1 SWAP2 SUB SWAP1 KECCAK256 PUSH1 0x0 ADD DUP2 SWAP1 SSTORE POP DUP2 DUP1 PUSH1 0x20 ADD SWAP1 PUSH2 0x4E8 SWAP2 SWAP1 PUSH2 0xCD1 JUMP JUMPDEST PUSH1 0x3 DUP4 PUSH1 0x40 MLOAD PUSH2 0x4F8 SWAP2 SWAP1 PUSH2 0xBE9 JUMP JUMPDEST SWAP1 DUP2 MSTORE PUSH1 0x20 ADD PUSH1 0x40 MLOAD DUP1 SWAP2 SUB SWAP1 KECCAK256 PUSH1 0x1 ADD SWAP2 SWAP1 PUSH2 0x516 SWAP3 SWAP2 SWAP1 PUSH2 0x73B JUMP JUMPDEST POP DUP2 PUSH1 0x40 ADD CALLDATALOAD PUSH1 0x3 DUP3 PUSH1 0x40 MLOAD PUSH2 0x52C SWAP2 SWAP1 PUSH2 0xBE9 JUMP JUMPDEST SWAP1 DUP2 MSTORE PUSH1 0x20 ADD PUSH1 0x40 MLOAD DUP1 SWAP2 SUB SWAP1 KECCAK256 PUSH1 0x2 ADD DUP2 SWAP1 SSTORE POP PUSH1 0x1 PUSH1 0x3 DUP3 PUSH1 0x40 MLOAD PUSH2 0x553 SWAP2 SWAP1 PUSH2 0xBE9 JUMP JUMPDEST SWAP1 DUP2 MSTORE PUSH1 0x20 ADD PUSH1 0x40 MLOAD DUP1 SWAP2 SUB SWAP1 KECCAK256 PUSH1 0x3 ADD PUSH1 0x0 PUSH2 0x100 EXP DUP2 SLOAD DUP2 PUSH1 0xFF MUL NOT AND SWAP1 DUP4 ISZERO ISZERO MUL OR SWAP1 SSTORE POP PUSH1 0x2 PUSH1 0x0 DUP2 SLOAD DUP1 SWAP3 SWAP2 SWAP1 PUSH2 0x58E SWAP1 PUSH2 0xE6C JUMP JUMPDEST SWAP2 SWAP1 POP SSTORE POP POP POP JUMP JUMPDEST PUSH1 0x0 DUP2 DUP2 SLOAD DUP2 LT PUSH2 0x5D1 JUMPI PUSH32 0x4E487B7100000000000000000000000000000000000000000000000000000000 PUSH1 0x0 MSTORE PUSH1 0x32 PUSH1 0x4 MSTORE PUSH1 0x24 PUSH1 0x0 REVERT JUMPDEST SWAP1 PUSH1 0x0 MSTORE PUSH1 0x20 PUSH1 0x0 KECCAK256 ADD PUSH1 0x0 SWAP1 SSTORE POP JUMP JUMPDEST PUSH1 0x1 PUSH1 0x0 SWAP1 SLOAD SWAP1 PUSH2 0x100 EXP SWAP1 DIV PUSH20 0xFFFFFFFFFFFFFFFFFFFFFFFFFFFFFFFFFFFFFFFF AND DUP2 JUMP JUMPDEST PUSH1 0x0 DUP1 DUP1 SLOAD SWAP1 POP SWAP1 POP SWAP1 JUMP JUMPDEST PUSH1 0x0 DUP2 PUSH1 0x40 MLOAD PUSH1 0x20 ADD PUSH2 0x627 SWAP2 SWAP1 PUSH2 0xBE9 JUMP JUMPDEST PUSH1 0x40 MLOAD PUSH1 0x20 DUP2 DUP4 SUB SUB DUP2 MSTORE SWAP1 PUSH1 0x40 MSTORE DUP1 MLOAD SWAP1 PUSH1 0x20 ADD KECCAK256 DUP4 PUSH1 0x40 MLOAD PUSH1 0x20 ADD PUSH2 0x64E SWAP2 SWAP1 PUSH2 0xBE9 JUMP JUMPDEST PUSH1 0x40 MLOAD PUSH1 0x20 DUP2 DUP4 SUB SUB DUP2 MSTORE SWAP1 PUSH1 0x40 MSTORE DUP1 MLOAD SWAP1 PUSH1 0x20 ADD KECCAK256 EQ SWAP1 POP SWAP3 SWAP2 POP POP JUMP JUMPDEST PUSH1 0x0 DUP1 PUSH1 0x0 SWAP1 POP JUMPDEST DUP3 MLOAD DUP2 LT ISZERO PUSH2 0x72E JUMPI PUSH2 0x70C DUP6 DUP6 DUP1 DUP1 PUSH1 0x1F ADD PUSH1 0x20 DUP1 SWAP2 DIV MUL PUSH1 0x20 ADD PUSH1 0x40 MLOAD SWAP1 DUP2 ADD PUSH1 0x40 MSTORE DUP1 SWAP4 SWAP3 SWAP2 SWAP1 DUP2 DUP2 MSTORE PUSH1 0x20 ADD DUP4 DUP4 DUP1 DUP3 DUP5 CALLDATACOPY PUSH1 0x0 DUP2 DUP5 ADD MSTORE PUSH1 0x1F NOT PUSH1 0x1F DUP3 ADD AND SWAP1 POP DUP1 DUP4 ADD SWAP3 POP POP POP POP POP POP POP DUP5 DUP4 DUP2 MLOAD DUP2 LT PUSH2 0x6FF JUMPI PUSH32 0x4E487B7100000000000000000000000000000000000000000000000000000000 PUSH1 0x0 MSTORE PUSH1 0x32 PUSH1 0x4 MSTORE PUSH1 0x24 PUSH1 0x0 REVERT JUMPDEST PUSH1 0x20 MUL PUSH1 0x20 ADD ADD MLOAD PUSH2 0x614 JUMP JUMPDEST ISZERO PUSH2 0x71B JUMPI PUSH1 0x1 SWAP2 POP POP PUSH2 0x734 JUMP JUMPDEST DUP1 DUP1 PUSH2 0x726 SWAP1 PUSH2 0xE6C JUMP JUMPDEST SWAP2 POP POP PUSH2 0x675 JUMP JUMPDEST POP PUSH1 0x0 SWAP1 POP JUMPDEST SWAP4 SWAP3 POP POP POP JUMP JUMPDEST DUP3 DUP1 SLOAD PUSH2 0x747 SWAP1 PUSH2 0xE3A JUMP JUMPDEST SWAP1 PUSH1 0x0 MSTORE PUSH1 0x20 PUSH1 0x0 KECCAK256 SWAP1 PUSH1 0x1F ADD PUSH1 0x20 SWAP1 DIV DUP2 ADD SWAP3 DUP3 PUSH2 0x769 JUMPI PUSH1 0x0 DUP6 SSTORE PUSH2 0x7B0 JUMP JUMPDEST DUP3 PUSH1 0x1F LT PUSH2 0x782 JUMPI DUP1 CALLDATALOAD PUSH1 0xFF NOT AND DUP4 DUP1 ADD OR DUP6 SSTORE PUSH2 0x7B0 JUMP JUMPDEST DUP3 DUP1 ADD PUSH1 0x1 ADD DUP6 SSTORE DUP3 ISZERO PUSH2 0x7B0 JUMPI SWAP2 DUP3 ADD JUMPDEST DUP3 DUP2 GT ISZERO PUSH2 0x7AF JUMPI DUP3 CALLDATALOAD DUP3 SSTORE SWAP2 PUSH1 0x20 ADD SWAP2 SWAP1 PUSH1 0x1 ADD SWAP1 PUSH2 0x794 JUMP JUMPDEST JUMPDEST POP SWAP1 POP PUSH2 0x7BD SWAP2 SWAP1 PUSH2 0x7C1 JUMP JUMPDEST POP SWAP1 JUMP JUMPDEST JUMPDEST DUP1 DUP3 GT ISZERO PUSH2 0x7DA JUMPI PUSH1 0x0 DUP2 PUSH1 0x0 SWAP1 SSTORE POP PUSH1 0x1 ADD PUSH2 0x7C2 JUMP JUMPDEST POP SWAP1 JUMP JUMPDEST PUSH1 0x0 PUSH2 0x7F1 PUSH2 0x7EC DUP5 PUSH2 0xD59 JUMP JUMPDEST PUSH2 0xD28 JUMP JUMPDEST SWAP1 POP DUP3 DUP2 MSTORE PUSH1 0x20 DUP2 ADD DUP5 DUP5 DUP5 ADD GT ISZERO PUSH2 0x809 JUMPI PUSH1 0x0 DUP1 REVERT JUMPDEST PUSH2 0x814 DUP5 DUP3 DUP6 PUSH2 0xDF8 JUMP JUMPDEST POP SWAP4 SWAP3 POP POP POP JUMP JUMPDEST PUSH1 0x0 DUP1 DUP4 PUSH1 0x1F DUP5 ADD SLT PUSH2 0x82E JUMPI PUSH1 0x0 DUP1 REVERT JUMPDEST DUP3 CALLDATALOAD SWAP1 POP PUSH8 0xFFFFFFFFFFFFFFFF DUP2 GT ISZERO PUSH2 0x847 JUMPI PUSH1 0x0 DUP1 REVERT JUMPDEST PUSH1 0x20 DUP4 ADD SWAP2 POP DUP4 PUSH1 0x1 DUP3 MUL DUP4 ADD GT ISZERO PUSH2 0x85F JUMPI PUSH1 0x0 DUP1 REVERT JUMPDEST SWAP3 POP SWAP3 SWAP1 POP JUMP JUMPDEST PUSH1 0x0 DUP3 PUSH1 0x1F DUP4 ADD SLT PUSH2 0x877 JUMPI PUSH1 0x0 DUP1 REVERT JUMPDEST DUP2 CALLDATALOAD PUSH2 0x887 DUP5 DUP3 PUSH1 0x20 DUP7 ADD PUSH2 0x7DE JUMP JUMPDEST SWAP2 POP POP SWAP3 SWAP2 POP POP JUMP JUMPDEST PUSH1 0x0 PUSH1 0x80 DUP3 DUP5 SUB SLT ISZERO PUSH2 0x8A2 JUMPI PUSH1 0x0 DUP1 REVERT JUMPDEST DUP2 SWAP1 POP SWAP3 SWAP2 POP POP JUMP JUMPDEST PUSH1 0x0 DUP2 CALLDATALOAD SWAP1 POP PUSH2 0x8BA DUP2 PUSH2 0xF42 JUMP JUMPDEST SWAP3 SWAP2 POP POP JUMP JUMPDEST PUSH1 0x0 DUP1 PUSH1 0x20 DUP4 DUP6 SUB SLT ISZERO PUSH2 0x8D3 JUMPI PUSH1 0x0 DUP1 REVERT JUMPDEST PUSH1 0x0 DUP4 ADD CALLDATALOAD PUSH8 0xFFFFFFFFFFFFFFFF DUP2 GT ISZERO PUSH2 0x8ED JUMPI PUSH1 0x0 DUP1 REVERT JUMPDEST PUSH2 0x8F9 DUP6 DUP3 DUP7 ADD PUSH2 0x81C JUMP JUMPDEST SWAP3 POP SWAP3 POP POP SWAP3 POP SWAP3 SWAP1 POP JUMP JUMPDEST PUSH1 0x0 DUP1 PUSH1 0x40 DUP4 DUP6 SUB SLT ISZERO PUSH2 0x918 JUMPI PUSH1 0x0 DUP1 REVERT JUMPDEST PUSH1 0x0 DUP4 ADD CALLDATALOAD PUSH8 0xFFFFFFFFFFFFFFFF DUP2 GT ISZERO PUSH2 0x932 JUMPI PUSH1 0x0 DUP1 REVERT JUMPDEST PUSH2 0x93E DUP6 DUP3 DUP7 ADD PUSH2 0x866 JUMP JUMPDEST SWAP3 POP POP PUSH1 0x20 DUP4 ADD CALLDATALOAD PUSH8 0xFFFFFFFFFFFFFFFF DUP2 GT ISZERO PUSH2 0x95B JUMPI PUSH1 0x0 DUP1 REVERT JUMPDEST PUSH2 0x967 DUP6 DUP3 DUP7 ADD PUSH2 0x866 JUMP JUMPDEST SWAP2 POP POP SWAP3 POP SWAP3 SWAP1 POP JUMP JUMPDEST PUSH1 0x0 PUSH1 0x20 DUP3 DUP5 SUB SLT ISZERO PUSH2 0x983 JUMPI PUSH1 0x0 DUP1 REVERT JUMPDEST PUSH1 0x0 DUP3 ADD CALLDATALOAD PUSH8 0xFFFFFFFFFFFFFFFF DUP2 GT ISZERO PUSH2 0x99D JUMPI PUSH1 0x0 DUP1 REVERT JUMPDEST PUSH2 0x9A9 DUP5 DUP3 DUP6 ADD PUSH2 0x890 JUMP JUMPDEST SWAP2 POP POP SWAP3 SWAP2 POP POP JUMP JUMPDEST PUSH1 0x0 PUSH1 0x20 DUP3 DUP5 SUB SLT ISZERO PUSH2 0x9C4 JUMPI PUSH1 0x0 DUP1 REVERT JUMPDEST PUSH1 0x0 PUSH2 0x9D2 DUP5 DUP3 DUP6 ADD PUSH2 0x8AB JUMP JUMPDEST SWAP2 POP POP SWAP3 SWAP2 POP POP JUMP JUMPDEST PUSH2 0x9E4 DUP2 PUSH2 0xDB0 JUMP JUMPDEST DUP3 MSTORE POP POP JUMP JUMPDEST PUSH2 0x9F3 DUP2 PUSH2 0xDC2 JUMP JUMPDEST DUP3 MSTORE POP POP JUMP JUMPDEST PUSH1 0x0 PUSH2 0xA05 DUP4 DUP6 PUSH2 0xDA5 JUMP JUMPDEST SWAP4 POP PUSH2 0xA12 DUP4 DUP6 DUP5 PUSH2 0xDF8 JUMP JUMPDEST DUP3 DUP5 ADD SWAP1 POP SWAP4 SWAP3 POP POP POP JUMP JUMPDEST PUSH1 0x0 PUSH2 0xA29 DUP3 PUSH2 0xD89 JUMP JUMPDEST PUSH2 0xA33 DUP2 DUP6 PUSH2 0xDA5 JUMP JUMPDEST SWAP4 POP PUSH2 0xA43 DUP2 DUP6 PUSH1 0x20 DUP7 ADD PUSH2 0xE07 JUMP JUMPDEST DUP1 DUP5 ADD SWAP2 POP POP SWAP3 SWAP2 POP POP JUMP JUMPDEST PUSH1 0x0 PUSH2 0xA5C PUSH1 0x28 DUP4 PUSH2 0xD94 JUMP JUMPDEST SWAP2 POP PUSH32 0x5468697320626F6F6B20616C72656164792065786973747320696E2074686520 PUSH1 0x0 DUP4 ADD MSTORE PUSH32 0x4C69627261727921000000000000000000000000000000000000000000000000 PUSH1 0x20 DUP4 ADD MSTORE PUSH1 0x40 DUP3 ADD SWAP1 POP SWAP2 SWAP1 POP JUMP JUMPDEST PUSH1 0x0 PUSH2 0xAC2 PUSH1 0x1A DUP4 PUSH2 0xD94 JUMP JUMPDEST SWAP2 POP PUSH32 0x43757272656E742075736572206973206E6F74206F776E657221000000000000 PUSH1 0x0 DUP4 ADD MSTORE PUSH1 0x20 DUP3 ADD SWAP1 POP SWAP2 SWAP1 POP JUMP JUMPDEST PUSH1 0x0 PUSH2 0xB02 PUSH1 0x24 DUP4 PUSH2 0xD94 JUMP JUMPDEST SWAP2 POP PUSH32 0x5468697320626F6F6B206973206F7574206F662073746F636B2063757272656E PUSH1 0x0 DUP4 ADD MSTORE PUSH32 0x746C792100000000000000000000000000000000000000000000000000000000 PUSH1 0x20 DUP4 ADD MSTORE PUSH1 0x40 DUP3 ADD SWAP1 POP SWAP2 SWAP1 POP JUMP JUMPDEST PUSH1 0x0 PUSH2 0xB68 PUSH1 0x23 DUP4 PUSH2 0xD94 JUMP JUMPDEST SWAP2 POP PUSH32 0x426F6F6B20616C72656164792065786973747320696E20746865204C69627261 PUSH1 0x0 DUP4 ADD MSTORE PUSH32 0x7279210000000000000000000000000000000000000000000000000000000000 PUSH1 0x20 DUP4 ADD MSTORE PUSH1 0x40 DUP3 ADD SWAP1 POP SWAP2 SWAP1 POP JUMP JUMPDEST PUSH2 0xBCA DUP2 PUSH2 0xDEE JUMP JUMPDEST DUP3 MSTORE POP POP JUMP JUMPDEST PUSH1 0x0 PUSH2 0xBDD DUP3 DUP5 DUP7 PUSH2 0x9F9 JUMP JUMPDEST SWAP2 POP DUP2 SWAP1 POP SWAP4 SWAP3 POP POP POP JUMP JUMPDEST PUSH1 0x0 PUSH2 0xBF5 DUP3 DUP5 PUSH2 0xA1E JUMP JUMPDEST SWAP2 POP DUP2 SWAP1 POP SWAP3 SWAP2 POP POP JUMP JUMPDEST PUSH1 0x0 PUSH1 0x20 DUP3 ADD SWAP1 POP PUSH2 0xC15 PUSH1 0x0 DUP4 ADD DUP5 PUSH2 0x9DB JUMP JUMPDEST SWAP3 SWAP2 POP POP JUMP JUMPDEST PUSH1 0x0 PUSH1 0x20 DUP3 ADD SWAP1 POP PUSH2 0xC30 PUSH1 0x0 DUP4 ADD DUP5 PUSH2 0x9EA JUMP JUMPDEST SWAP3 SWAP2 POP POP JUMP JUMPDEST PUSH1 0x0 PUSH1 0x20 DUP3 ADD SWAP1 POP DUP2 DUP2 SUB PUSH1 0x0 DUP4 ADD MSTORE PUSH2 0xC4F DUP2 PUSH2 0xA4F JUMP JUMPDEST SWAP1 POP SWAP2 SWAP1 POP JUMP JUMPDEST PUSH1 0x0 PUSH1 0x20 DUP3 ADD SWAP1 POP DUP2 DUP2 SUB PUSH1 0x0 DUP4 ADD MSTORE PUSH2 0xC6F DUP2 PUSH2 0xAB5 JUMP JUMPDEST SWAP1 POP SWAP2 SWAP1 POP JUMP JUMPDEST PUSH1 0x0 PUSH1 0x20 DUP3 ADD SWAP1 POP DUP2 DUP2 SUB PUSH1 0x0 DUP4 ADD MSTORE PUSH2 0xC8F DUP2 PUSH2 0xAF5 JUMP JUMPDEST SWAP1 POP SWAP2 SWAP1 POP JUMP JUMPDEST PUSH1 0x0 PUSH1 0x20 DUP3 ADD SWAP1 POP DUP2 DUP2 SUB PUSH1 0x0 DUP4 ADD MSTORE PUSH2 0xCAF DUP2 PUSH2 0xB5B JUMP JUMPDEST SWAP1 POP SWAP2 SWAP1 POP JUMP JUMPDEST PUSH1 0x0 PUSH1 0x20 DUP3 ADD SWAP1 POP PUSH2 0xCCB PUSH1 0x0 DUP4 ADD DUP5 PUSH2 0xBC1 JUMP JUMPDEST SWAP3 SWAP2 POP POP JUMP JUMPDEST PUSH1 0x0 DUP1 DUP4 CALLDATALOAD PUSH1 0x1 PUSH1 0x20 SUB DUP5 CALLDATASIZE SUB SUB DUP2 SLT PUSH2 0xCEA JUMPI PUSH1 0x0 DUP1 REVERT JUMPDEST DUP1 DUP5 ADD SWAP3 POP DUP3 CALLDATALOAD SWAP2 POP PUSH8 0xFFFFFFFFFFFFFFFF DUP3 GT ISZERO PUSH2 0xD08 JUMPI PUSH1 0x0 DUP1 REVERT JUMPDEST PUSH1 0x20 DUP4 ADD SWAP3 POP PUSH1 0x1 DUP3 MUL CALLDATASIZE SUB DUP4 SGT ISZERO PUSH2 0xD20 JUMPI PUSH1 0x0 DUP1 REVERT JUMPDEST POP SWAP3 POP SWAP3 SWAP1 POP JUMP JUMPDEST PUSH1 0x0 PUSH1 0x40 MLOAD SWAP1 POP DUP2 DUP2 ADD DUP2 DUP2 LT PUSH8 0xFFFFFFFFFFFFFFFF DUP3 GT OR ISZERO PUSH2 0xD4F JUMPI PUSH2 0xD4E PUSH2 0xF13 JUMP JUMPDEST JUMPDEST DUP1 PUSH1 0x40 MSTORE POP SWAP2 SWAP1 POP JUMP JUMPDEST PUSH1 0x0 PUSH8 0xFFFFFFFFFFFFFFFF DUP3 GT ISZERO PUSH2 0xD74 JUMPI PUSH2 0xD73 PUSH2 0xF13 JUMP JUMPDEST JUMPDEST PUSH1 0x1F NOT PUSH1 0x1F DUP4 ADD AND SWAP1 POP PUSH1 0x20 DUP2 ADD SWAP1 POP SWAP2 SWAP1 POP JUMP JUMPDEST PUSH1 0x0 DUP2 MLOAD SWAP1 POP SWAP2 SWAP1 POP JUMP JUMPDEST PUSH1 0x0 DUP3 DUP3 MSTORE PUSH1 0x20 DUP3 ADD SWAP1 POP SWAP3 SWAP2 POP POP JUMP JUMPDEST PUSH1 0x0 DUP2 SWAP1 POP SWAP3 SWAP2 POP POP JUMP JUMPDEST PUSH1 0x0 PUSH2 0xDBB DUP3 PUSH2 0xDCE JUMP JUMPDEST SWAP1 POP SWAP2 SWAP1 POP JUMP JUMPDEST PUSH1 0x0 DUP2 ISZERO ISZERO SWAP1 POP SWAP2 SWAP1 POP JUMP JUMPDEST PUSH1 0x0 PUSH20 0xFFFFFFFFFFFFFFFFFFFFFFFFFFFFFFFFFFFFFFFF DUP3 AND SWAP1 POP SWAP2 SWAP1 POP JUMP JUMPDEST PUSH1 0x0 DUP2 SWAP1 POP SWAP2 SWAP1 POP JUMP JUMPDEST DUP3 DUP2 DUP4 CALLDATACOPY PUSH1 0x0 DUP4 DUP4 ADD MSTORE POP POP POP JUMP JUMPDEST PUSH1 0x0 JUMPDEST DUP4 DUP2 LT ISZERO PUSH2 0xE25 JUMPI DUP1 DUP3 ADD MLOAD DUP2 DUP5 ADD MSTORE PUSH1 0x20 DUP2 ADD SWAP1 POP PUSH2 0xE0A JUMP JUMPDEST DUP4 DUP2 GT ISZERO PUSH2 0xE34 JUMPI PUSH1 0x0 DUP5 DUP5 ADD MSTORE JUMPDEST POP POP POP POP JUMP JUMPDEST PUSH1 0x0 PUSH1 0x2 DUP3 DIV SWAP1 POP PUSH1 0x1 DUP3 AND DUP1 PUSH2 0xE52 JUMPI PUSH1 0x7F DUP3 AND SWAP2 POP JUMPDEST PUSH1 0x20 DUP3 LT DUP2 EQ ISZERO PUSH2 0xE66 JUMPI PUSH2 0xE65 PUSH2 0xEE4 JUMP JUMPDEST JUMPDEST POP SWAP2 SWAP1 POP JUMP JUMPDEST PUSH1 0x0 PUSH2 0xE77 DUP3 PUSH2 0xDEE JUMP JUMPDEST SWAP2 POP PUSH32 0xFFFFFFFFFFFFFFFFFFFFFFFFFFFFFFFFFFFFFFFFFFFFFFFFFFFFFFFFFFFFFFFF DUP3 EQ ISZERO PUSH2 0xEAA JUMPI PUSH2 0xEA9 PUSH2 0xEB5 JUMP JUMPDEST JUMPDEST PUSH1 0x1 DUP3 ADD SWAP1 POP SWAP2 SWAP1 POP JUMP JUMPDEST PUSH32 0x4E487B7100000000000000000000000000000000000000000000000000000000 PUSH1 0x0 MSTORE PUSH1 0x11 PUSH1 0x4 MSTORE PUSH1 0x24 PUSH1 0x0 REVERT JUMPDEST PUSH32 0x4E487B7100000000000000000000000000000000000000000000000000000000 PUSH1 0x0 MSTORE PUSH1 0x22 PUSH1 0x4 MSTORE PUSH1 0x24 PUSH1 0x0 REVERT JUMPDEST PUSH32 0x4E487B7100000000000000000000000000000000000000000000000000000000 PUSH1 0x0 MSTORE PUSH1 0x41 PUSH1 0x4 MSTORE PUSH1 0x24 PUSH1 0x0 REVERT JUMPDEST PUSH2 0xF4B DUP2 PUSH2 0xDEE JUMP JUMPDEST DUP2 EQ PUSH2 0xF56 JUMPI PUSH1 0x0 DUP1 REVERT JUMPDEST POP JUMP INVALID LOG2 PUSH5 0x6970667358 0x22 SLT KECCAK256 0xD5 PUSH13 0xA921D159D92648E990A410D27E 0xE4 SWAP12 0xDD 0xA8 MUL NOT KECCAK256 0xFC DIFFICULTY MSTORE8 PUSH4 0x1AA7976F 0xE 0xED PUSH5 0x736F6C6343 STOP ADDMOD STOP STOP CALLER "
				},
				"gasEstimates": {
					"creation": {
						"codeDepositCost": "796600",
						"executionCost": "infinite",
						"totalCost": "infinite"
					},
					"external": {
						"AddBook((uint256,string,uint256,bool))": "infinite",
						"BorrowBook(string)": "infinite",
						"compareStrings(string,string)": "infinite",
						"firstArray(uint256)": "infinite",
						"getLength()": "1189",
						"owner()": "1236",
						"removeItem(uint256)": "6295"
					}
				},
				"methodIdentifiers": {
					"AddBook((uint256,string,uint256,bool))": "5d16b308",
					"BorrowBook(string)": "5b87081f",
					"compareStrings(string,string)": "bed34bba",
					"firstArray(uint256)": "5811a3b9",
					"getLength()": "be1c766b",
					"owner()": "8da5cb5b",
					"removeItem(uint256)": "71329171"
				}
			},
			"userdoc": {
				"kind": "user",
				"methods": {},
				"version": 1
			}
		}
	}
}