{
	"Helpers.sol": {
		"Helpers": {
			"abi": [
				{
					"inputs": [
						{
							"internalType": "string",
							"name": "a",
							"type": "string"
						},
						{
							"internalType": "string",
							"name": "b",
							"type": "string"
						}
					],
					"name": "compareStrings",
					"outputs": [
						{
							"internalType": "bool",
							"name": "",
							"type": "bool"
						}
					],
					"stateMutability": "view",
					"type": "function"
				},
				{
					"inputs": [
						{
							"internalType": "uint256",
							"name": "",
							"type": "uint256"
						}
					],
					"name": "firstArray",
					"outputs": [
						{
							"internalType": "uint256",
							"name": "",
							"type": "uint256"
						}
					],
					"stateMutability": "view",
					"type": "function"
				},
				{
					"inputs": [],
					"name": "getLength",
					"outputs": [
						{
							"internalType": "uint256",
							"name": "",
							"type": "uint256"
						}
					],
					"stateMutability": "view",
					"type": "function"
				},
				{
					"inputs": [
						{
							"internalType": "uint256",
							"name": "i",
							"type": "uint256"
						}
					],
					"name": "removeItem",
					"outputs": [],
					"stateMutability": "nonpayable",
					"type": "function"
				}
			],
			"devdoc": {
				"kind": "dev",
				"methods": {},
				"version": 1
			},
			"evm": {
				"assembly": "    /* \"Helpers.sol\":64:1182  contract Helpers{... */\n  mstore(0x40, 0x80)\n    /* \"Helpers.sol\":86:124  uint[] public firstArray = [1,2,3,4,5] */\n  mload(0x40)\n  dup1\n  0xa0\n  add\n  0x40\n  mstore\n  dup1\n    /* \"Helpers.sol\":114:115  1 */\n  0x01\n    /* \"Helpers.sol\":86:124  uint[] public firstArray = [1,2,3,4,5] */\n  0xff\n  and\n  dup2\n  mstore\n  0x20\n  add\n    /* \"Helpers.sol\":116:117  2 */\n  0x02\n    /* \"Helpers.sol\":86:124  uint[] public firstArray = [1,2,3,4,5] */\n  0xff\n  and\n  dup2\n  mstore\n  0x20\n  add\n    /* \"Helpers.sol\":118:119  3 */\n  0x03\n    /* \"Helpers.sol\":86:124  uint[] public firstArray = [1,2,3,4,5] */\n  0xff\n  and\n  dup2\n  mstore\n  0x20\n  add\n    /* \"Helpers.sol\":120:121  4 */\n  0x04\n    /* \"Helpers.sol\":86:124  uint[] public firstArray = [1,2,3,4,5] */\n  0xff\n  and\n  dup2\n  mstore\n  0x20\n  add\n    /* \"Helpers.sol\":122:123  5 */\n  0x05\n    /* \"Helpers.sol\":86:124  uint[] public firstArray = [1,2,3,4,5] */\n  0xff\n  and\n  dup2\n  mstore\n  pop\n  0x00\n  swap1\n  0x05\n  tag_1\n  swap3\n  swap2\n  swap1\n  tag_2\n  jump\t// in\ntag_1:\n  pop\n    /* \"Helpers.sol\":64:1182  contract Helpers{... */\n  callvalue\n  dup1\n  iszero\n  tag_3\n  jumpi\n  0x00\n  dup1\n  revert\ntag_3:\n  pop\n  jump(tag_4)\ntag_2:\n  dup3\n  dup1\n  sload\n  dup3\n  dup3\n  sstore\n  swap1\n  0x00\n  mstore\n  keccak256(0x00, 0x20)\n  swap1\n  dup2\n  add\n  swap3\n  dup3\n  iszero\n  tag_5\n  jumpi\n  swap2\n  0x20\n  mul\n  dup3\n  add\ntag_6:\n  dup3\n  dup2\n  gt\n  iszero\n  tag_7\n  jumpi\n  dup3\n  mload\n  dup3\n  swap1\n  0xff\n  and\n  swap1\n  sstore\n  swap2\n  0x20\n  add\n  swap2\n  swap1\n  0x01\n  add\n  swap1\n  jump(tag_6)\ntag_7:\ntag_5:\n  pop\n  swap1\n  pop\n  tag_8\n  swap2\n  swap1\n  tag_9\n  jump\t// in\ntag_8:\n  pop\n  swap1\n  jump\t// out\ntag_9:\ntag_10:\n  dup1\n  dup3\n  gt\n  iszero\n  tag_11\n  jumpi\n  0x00\n  dup2\n  0x00\n  swap1\n  sstore\n  pop\n  0x01\n  add\n  jump(tag_10)\ntag_11:\n  pop\n  swap1\n  jump\t// out\ntag_4:\n  dataSize(sub_0)\n  dup1\n  dataOffset(sub_0)\n  0x00\n  codecopy\n  0x00\n  return\nstop\n\nsub_0: assembly {\n        /* \"Helpers.sol\":64:1182  contract Helpers{... */\n      mstore(0x40, 0x80)\n      callvalue\n      dup1\n      iszero\n      tag_1\n      jumpi\n      0x00\n      dup1\n      revert\n    tag_1:\n      pop\n      jumpi(tag_2, lt(calldatasize, 0x04))\n      shr(0xe0, calldataload(0x00))\n      dup1\n      0x5811a3b9\n      eq\n      tag_3\n      jumpi\n      dup1\n      0x71329171\n      eq\n      tag_4\n      jumpi\n      dup1\n      0xbe1c766b\n      eq\n      tag_5\n      jumpi\n      dup1\n      0xbed34bba\n      eq\n      tag_6\n      jumpi\n    tag_2:\n      0x00\n      dup1\n      revert\n        /* \"Helpers.sol\":86:124  uint[] public firstArray = [1,2,3,4,5] */\n    tag_3:\n      tag_7\n      0x04\n      dup1\n      calldatasize\n      sub\n      dup2\n      add\n      swap1\n      tag_8\n      swap2\n      swap1\n      tag_9\n      jump\t// in\n    tag_8:\n      tag_10\n      jump\t// in\n    tag_7:\n      mload(0x40)\n      tag_11\n      swap2\n      swap1\n      tag_12\n      jump\t// in\n    tag_11:\n      mload(0x40)\n      dup1\n      swap2\n      sub\n      swap1\n      return\n        /* \"Helpers.sol\":131:200  function removeItem(uint i) public{... */\n    tag_4:\n      tag_13\n      0x04\n      dup1\n      calldatasize\n      sub\n      dup2\n      add\n      swap1\n      tag_14\n      swap2\n      swap1\n      tag_9\n      jump\t// in\n    tag_14:\n      tag_15\n      jump\t// in\n    tag_13:\n      stop\n        /* \"Helpers.sol\":206:291  function getLength() public view returns(uint){... */\n    tag_5:\n      tag_16\n      tag_17\n      jump\t// in\n    tag_16:\n      mload(0x40)\n      tag_18\n      swap2\n      swap1\n      tag_12\n      jump\t// in\n    tag_18:\n      mload(0x40)\n      dup1\n      swap2\n      sub\n      swap1\n      return\n        /* \"Helpers.sol\":1001:1180  function compareStrings(string memory a, string memory b) public view returns (bool) {... */\n    tag_6:\n      tag_19\n      0x04\n      dup1\n      calldatasize\n      sub\n      dup2\n      add\n      swap1\n      tag_20\n      swap2\n      swap1\n      tag_21\n      jump\t// in\n    tag_20:\n      tag_22\n      jump\t// in\n    tag_19:\n      mload(0x40)\n      tag_23\n      swap2\n      swap1\n      tag_24\n      jump\t// in\n    tag_23:\n      mload(0x40)\n      dup1\n      swap2\n      sub\n      swap1\n      return\n        /* \"Helpers.sol\":86:124  uint[] public firstArray = [1,2,3,4,5] */\n    tag_10:\n      0x00\n      dup2\n      dup2\n      sload\n      dup2\n      lt\n      tag_25\n      jumpi\n      0x00\n      dup1\n      revert\n    tag_25:\n      swap1\n      0x00\n      mstore\n      keccak256(0x00, 0x20)\n      add\n      0x00\n      swap2\n      pop\n      swap1\n      pop\n      sload\n      dup2\n      jump\t// out\n        /* \"Helpers.sol\":131:200  function removeItem(uint i) public{... */\n    tag_15:\n        /* \"Helpers.sol\":180:190  firstArray */\n      0x00\n        /* \"Helpers.sol\":191:192  i */\n      dup2\n        /* \"Helpers.sol\":180:193  firstArray[i] */\n      dup2\n      sload\n      dup2\n      lt\n      tag_28\n      jumpi\n      mstore(0x00, 0x4e487b7100000000000000000000000000000000000000000000000000000000)\n      mstore(0x04, 0x32)\n      revert(0x00, 0x24)\n    tag_28:\n      swap1\n      0x00\n      mstore\n      keccak256(0x00, 0x20)\n      add\n        /* \"Helpers.sol\":173:193  delete firstArray[i] */\n      0x00\n      swap1\n      sstore\n        /* \"Helpers.sol\":131:200  function removeItem(uint i) public{... */\n      pop\n      jump\t// out\n        /* \"Helpers.sol\":206:291  function getLength() public view returns(uint){... */\n    tag_17:\n        /* \"Helpers.sol\":247:251  uint */\n      0x00\n        /* \"Helpers.sol\":267:277  firstArray */\n      dup1\n        /* \"Helpers.sol\":267:284  firstArray.length */\n      dup1\n      sload\n      swap1\n      pop\n        /* \"Helpers.sol\":260:284  return firstArray.length */\n      swap1\n      pop\n        /* \"Helpers.sol\":206:291  function getLength() public view returns(uint){... */\n      swap1\n      jump\t// out\n        /* \"Helpers.sol\":1001:1180  function compareStrings(string memory a, string memory b) public view returns (bool) {... */\n    tag_22:\n        /* \"Helpers.sol\":1080:1084  bool */\n      0x00\n        /* \"Helpers.sol\":1168:1169  b */\n      dup2\n        /* \"Helpers.sol\":1150:1171  abi.encodePacked((b)) */\n      add(0x20, mload(0x40))\n      tag_32\n      swap2\n      swap1\n      tag_33\n      jump\t// in\n    tag_32:\n      mload(0x40)\n      0x20\n      dup2\n      dup4\n      sub\n      sub\n      dup2\n      mstore\n      swap1\n      0x40\n      mstore\n        /* \"Helpers.sol\":1140:1172  keccak256(abi.encodePacked((b))) */\n      dup1\n      mload\n      swap1\n      0x20\n      add\n      keccak256\n        /* \"Helpers.sol\":1132:1133  a */\n      dup4\n        /* \"Helpers.sol\":1114:1135  abi.encodePacked((a)) */\n      add(0x20, mload(0x40))\n      tag_34\n      swap2\n      swap1\n      tag_33\n      jump\t// in\n    tag_34:\n      mload(0x40)\n      0x20\n      dup2\n      dup4\n      sub\n      sub\n      dup2\n      mstore\n      swap1\n      0x40\n      mstore\n        /* \"Helpers.sol\":1104:1136  keccak256(abi.encodePacked((a))) */\n      dup1\n      mload\n      swap1\n      0x20\n      add\n      keccak256\n        /* \"Helpers.sol\":1104:1172  keccak256(abi.encodePacked((a))) == keccak256(abi.encodePacked((b))) */\n      eq\n        /* \"Helpers.sol\":1096:1173  return (keccak256(abi.encodePacked((a))) == keccak256(abi.encodePacked((b)))) */\n      swap1\n      pop\n        /* \"Helpers.sol\":1001:1180  function compareStrings(string memory a, string memory b) public view returns (bool) {... */\n      swap3\n      swap2\n      pop\n      pop\n      jump\t// out\n        /* \"#utility.yul\":7:351   */\n    tag_36:\n      0x00\n        /* \"#utility.yul\":110:175   */\n      tag_38\n        /* \"#utility.yul\":125:174   */\n      tag_39\n        /* \"#utility.yul\":167:173   */\n      dup5\n        /* \"#utility.yul\":125:174   */\n      tag_40\n      jump\t// in\n    tag_39:\n        /* \"#utility.yul\":110:175   */\n      tag_41\n      jump\t// in\n    tag_38:\n        /* \"#utility.yul\":101:175   */\n      swap1\n      pop\n        /* \"#utility.yul\":198:204   */\n      dup3\n        /* \"#utility.yul\":191:196   */\n      dup2\n        /* \"#utility.yul\":184:205   */\n      mstore\n        /* \"#utility.yul\":236:240   */\n      0x20\n        /* \"#utility.yul\":229:234   */\n      dup2\n        /* \"#utility.yul\":225:241   */\n      add\n        /* \"#utility.yul\":274:277   */\n      dup5\n        /* \"#utility.yul\":265:271   */\n      dup5\n        /* \"#utility.yul\":260:263   */\n      dup5\n        /* \"#utility.yul\":256:272   */\n      add\n        /* \"#utility.yul\":253:278   */\n      gt\n        /* \"#utility.yul\":250:252   */\n      iszero\n      tag_42\n      jumpi\n        /* \"#utility.yul\":291:292   */\n      0x00\n        /* \"#utility.yul\":288:289   */\n      dup1\n        /* \"#utility.yul\":281:293   */\n      revert\n        /* \"#utility.yul\":250:252   */\n    tag_42:\n        /* \"#utility.yul\":304:345   */\n      tag_43\n        /* \"#utility.yul\":338:344   */\n      dup5\n        /* \"#utility.yul\":333:336   */\n      dup3\n        /* \"#utility.yul\":328:331   */\n      dup6\n        /* \"#utility.yul\":304:345   */\n      tag_44\n      jump\t// in\n    tag_43:\n        /* \"#utility.yul\":91:351   */\n      pop\n      swap4\n      swap3\n      pop\n      pop\n      pop\n      jump\t// out\n        /* \"#utility.yul\":371:644   */\n    tag_45:\n      0x00\n        /* \"#utility.yul\":476:479   */\n      dup3\n        /* \"#utility.yul\":469:473   */\n      0x1f\n        /* \"#utility.yul\":461:467   */\n      dup4\n        /* \"#utility.yul\":457:474   */\n      add\n        /* \"#utility.yul\":453:480   */\n      slt\n        /* \"#utility.yul\":443:445   */\n      tag_47\n      jumpi\n        /* \"#utility.yul\":494:495   */\n      0x00\n        /* \"#utility.yul\":491:492   */\n      dup1\n        /* \"#utility.yul\":484:496   */\n      revert\n        /* \"#utility.yul\":443:445   */\n    tag_47:\n        /* \"#utility.yul\":534:540   */\n      dup2\n        /* \"#utility.yul\":521:541   */\n      calldataload\n        /* \"#utility.yul\":559:638   */\n      tag_48\n        /* \"#utility.yul\":634:637   */\n      dup5\n        /* \"#utility.yul\":626:632   */\n      dup3\n        /* \"#utility.yul\":619:623   */\n      0x20\n        /* \"#utility.yul\":611:617   */\n      dup7\n        /* \"#utility.yul\":607:624   */\n      add\n        /* \"#utility.yul\":559:638   */\n      tag_36\n      jump\t// in\n    tag_48:\n        /* \"#utility.yul\":550:638   */\n      swap2\n      pop\n        /* \"#utility.yul\":433:644   */\n      pop\n      swap3\n      swap2\n      pop\n      pop\n      jump\t// out\n        /* \"#utility.yul\":650:789   */\n    tag_49:\n      0x00\n        /* \"#utility.yul\":734:740   */\n      dup2\n        /* \"#utility.yul\":721:741   */\n      calldataload\n        /* \"#utility.yul\":712:741   */\n      swap1\n      pop\n        /* \"#utility.yul\":750:783   */\n      tag_51\n        /* \"#utility.yul\":777:782   */\n      dup2\n        /* \"#utility.yul\":750:783   */\n      tag_52\n      jump\t// in\n    tag_51:\n        /* \"#utility.yul\":702:789   */\n      swap3\n      swap2\n      pop\n      pop\n      jump\t// out\n        /* \"#utility.yul\":795:1428   */\n    tag_21:\n      0x00\n      dup1\n        /* \"#utility.yul\":940:942   */\n      0x40\n        /* \"#utility.yul\":928:937   */\n      dup4\n        /* \"#utility.yul\":919:926   */\n      dup6\n        /* \"#utility.yul\":915:938   */\n      sub\n        /* \"#utility.yul\":911:943   */\n      slt\n        /* \"#utility.yul\":908:910   */\n      iszero\n      tag_54\n      jumpi\n        /* \"#utility.yul\":956:957   */\n      0x00\n        /* \"#utility.yul\":953:954   */\n      dup1\n        /* \"#utility.yul\":946:958   */\n      revert\n        /* \"#utility.yul\":908:910   */\n    tag_54:\n        /* \"#utility.yul\":1027:1028   */\n      0x00\n        /* \"#utility.yul\":1016:1025   */\n      dup4\n        /* \"#utility.yul\":1012:1029   */\n      add\n        /* \"#utility.yul\":999:1030   */\n      calldataload\n        /* \"#utility.yul\":1057:1075   */\n      0xffffffffffffffff\n        /* \"#utility.yul\":1049:1055   */\n      dup2\n        /* \"#utility.yul\":1046:1076   */\n      gt\n        /* \"#utility.yul\":1043:1045   */\n      iszero\n      tag_55\n      jumpi\n        /* \"#utility.yul\":1089:1090   */\n      0x00\n        /* \"#utility.yul\":1086:1087   */\n      dup1\n        /* \"#utility.yul\":1079:1091   */\n      revert\n        /* \"#utility.yul\":1043:1045   */\n    tag_55:\n        /* \"#utility.yul\":1117:1180   */\n      tag_56\n        /* \"#utility.yul\":1172:1179   */\n      dup6\n        /* \"#utility.yul\":1163:1169   */\n      dup3\n        /* \"#utility.yul\":1152:1161   */\n      dup7\n        /* \"#utility.yul\":1148:1170   */\n      add\n        /* \"#utility.yul\":1117:1180   */\n      tag_45\n      jump\t// in\n    tag_56:\n        /* \"#utility.yul\":1107:1180   */\n      swap3\n      pop\n        /* \"#utility.yul\":970:1190   */\n      pop\n        /* \"#utility.yul\":1257:1259   */\n      0x20\n        /* \"#utility.yul\":1246:1255   */\n      dup4\n        /* \"#utility.yul\":1242:1260   */\n      add\n        /* \"#utility.yul\":1229:1261   */\n      calldataload\n        /* \"#utility.yul\":1288:1306   */\n      0xffffffffffffffff\n        /* \"#utility.yul\":1280:1286   */\n      dup2\n        /* \"#utility.yul\":1277:1307   */\n      gt\n        /* \"#utility.yul\":1274:1276   */\n      iszero\n      tag_57\n      jumpi\n        /* \"#utility.yul\":1320:1321   */\n      0x00\n        /* \"#utility.yul\":1317:1318   */\n      dup1\n        /* \"#utility.yul\":1310:1322   */\n      revert\n        /* \"#utility.yul\":1274:1276   */\n    tag_57:\n        /* \"#utility.yul\":1348:1411   */\n      tag_58\n        /* \"#utility.yul\":1403:1410   */\n      dup6\n        /* \"#utility.yul\":1394:1400   */\n      dup3\n        /* \"#utility.yul\":1383:1392   */\n      dup7\n        /* \"#utility.yul\":1379:1401   */\n      add\n        /* \"#utility.yul\":1348:1411   */\n      tag_45\n      jump\t// in\n    tag_58:\n        /* \"#utility.yul\":1338:1411   */\n      swap2\n      pop\n        /* \"#utility.yul\":1200:1421   */\n      pop\n        /* \"#utility.yul\":898:1428   */\n      swap3\n      pop\n      swap3\n      swap1\n      pop\n      jump\t// out\n        /* \"#utility.yul\":1434:1696   */\n    tag_9:\n      0x00\n        /* \"#utility.yul\":1542:1544   */\n      0x20\n        /* \"#utility.yul\":1530:1539   */\n      dup3\n        /* \"#utility.yul\":1521:1528   */\n      dup5\n        /* \"#utility.yul\":1517:1540   */\n      sub\n        /* \"#utility.yul\":1513:1545   */\n      slt\n        /* \"#utility.yul\":1510:1512   */\n      iszero\n      tag_60\n      jumpi\n        /* \"#utility.yul\":1558:1559   */\n      0x00\n        /* \"#utility.yul\":1555:1556   */\n      dup1\n        /* \"#utility.yul\":1548:1560   */\n      revert\n        /* \"#utility.yul\":1510:1512   */\n    tag_60:\n        /* \"#utility.yul\":1601:1602   */\n      0x00\n        /* \"#utility.yul\":1626:1679   */\n      tag_61\n        /* \"#utility.yul\":1671:1678   */\n      dup5\n        /* \"#utility.yul\":1662:1668   */\n      dup3\n        /* \"#utility.yul\":1651:1660   */\n      dup6\n        /* \"#utility.yul\":1647:1669   */\n      add\n        /* \"#utility.yul\":1626:1679   */\n      tag_49\n      jump\t// in\n    tag_61:\n        /* \"#utility.yul\":1616:1679   */\n      swap2\n      pop\n        /* \"#utility.yul\":1572:1689   */\n      pop\n        /* \"#utility.yul\":1500:1696   */\n      swap3\n      swap2\n      pop\n      pop\n      jump\t// out\n        /* \"#utility.yul\":1702:1811   */\n    tag_62:\n        /* \"#utility.yul\":1783:1804   */\n      tag_64\n        /* \"#utility.yul\":1798:1803   */\n      dup2\n        /* \"#utility.yul\":1783:1804   */\n      tag_65\n      jump\t// in\n    tag_64:\n        /* \"#utility.yul\":1778:1781   */\n      dup3\n        /* \"#utility.yul\":1771:1805   */\n      mstore\n        /* \"#utility.yul\":1761:1811   */\n      pop\n      pop\n      jump\t// out\n        /* \"#utility.yul\":1817:2194   */\n    tag_66:\n      0x00\n        /* \"#utility.yul\":1951:1990   */\n      tag_68\n        /* \"#utility.yul\":1984:1989   */\n      dup3\n        /* \"#utility.yul\":1951:1990   */\n      tag_69\n      jump\t// in\n    tag_68:\n        /* \"#utility.yul\":2006:2095   */\n      tag_70\n        /* \"#utility.yul\":2088:2094   */\n      dup2\n        /* \"#utility.yul\":2083:2086   */\n      dup6\n        /* \"#utility.yul\":2006:2095   */\n      tag_71\n      jump\t// in\n    tag_70:\n        /* \"#utility.yul\":1999:2095   */\n      swap4\n      pop\n        /* \"#utility.yul\":2104:2156   */\n      tag_72\n        /* \"#utility.yul\":2149:2155   */\n      dup2\n        /* \"#utility.yul\":2144:2147   */\n      dup6\n        /* \"#utility.yul\":2137:2141   */\n      0x20\n        /* \"#utility.yul\":2130:2135   */\n      dup7\n        /* \"#utility.yul\":2126:2142   */\n      add\n        /* \"#utility.yul\":2104:2156   */\n      tag_73\n      jump\t// in\n    tag_72:\n        /* \"#utility.yul\":2181:2187   */\n      dup1\n        /* \"#utility.yul\":2176:2179   */\n      dup5\n        /* \"#utility.yul\":2172:2188   */\n      add\n        /* \"#utility.yul\":2165:2188   */\n      swap2\n      pop\n        /* \"#utility.yul\":1927:2194   */\n      pop\n      swap3\n      swap2\n      pop\n      pop\n      jump\t// out\n        /* \"#utility.yul\":2200:2318   */\n    tag_74:\n        /* \"#utility.yul\":2287:2311   */\n      tag_76\n        /* \"#utility.yul\":2305:2310   */\n      dup2\n        /* \"#utility.yul\":2287:2311   */\n      tag_77\n      jump\t// in\n    tag_76:\n        /* \"#utility.yul\":2282:2285   */\n      dup3\n        /* \"#utility.yul\":2275:2312   */\n      mstore\n        /* \"#utility.yul\":2265:2318   */\n      pop\n      pop\n      jump\t// out\n        /* \"#utility.yul\":2324:2599   */\n    tag_33:\n      0x00\n        /* \"#utility.yul\":2478:2573   */\n      tag_79\n        /* \"#utility.yul\":2569:2572   */\n      dup3\n        /* \"#utility.yul\":2560:2566   */\n      dup5\n        /* \"#utility.yul\":2478:2573   */\n      tag_66\n      jump\t// in\n    tag_79:\n        /* \"#utility.yul\":2471:2573   */\n      swap2\n      pop\n        /* \"#utility.yul\":2590:2593   */\n      dup2\n        /* \"#utility.yul\":2583:2593   */\n      swap1\n      pop\n        /* \"#utility.yul\":2460:2599   */\n      swap3\n      swap2\n      pop\n      pop\n      jump\t// out\n        /* \"#utility.yul\":2605:2815   */\n    tag_24:\n      0x00\n        /* \"#utility.yul\":2730:2732   */\n      0x20\n        /* \"#utility.yul\":2719:2728   */\n      dup3\n        /* \"#utility.yul\":2715:2733   */\n      add\n        /* \"#utility.yul\":2707:2733   */\n      swap1\n      pop\n        /* \"#utility.yul\":2743:2808   */\n      tag_81\n        /* \"#utility.yul\":2805:2806   */\n      0x00\n        /* \"#utility.yul\":2794:2803   */\n      dup4\n        /* \"#utility.yul\":2790:2807   */\n      add\n        /* \"#utility.yul\":2781:2787   */\n      dup5\n        /* \"#utility.yul\":2743:2808   */\n      tag_62\n      jump\t// in\n    tag_81:\n        /* \"#utility.yul\":2697:2815   */\n      swap3\n      swap2\n      pop\n      pop\n      jump\t// out\n        /* \"#utility.yul\":2821:3043   */\n    tag_12:\n      0x00\n        /* \"#utility.yul\":2952:2954   */\n      0x20\n        /* \"#utility.yul\":2941:2950   */\n      dup3\n        /* \"#utility.yul\":2937:2955   */\n      add\n        /* \"#utility.yul\":2929:2955   */\n      swap1\n      pop\n        /* \"#utility.yul\":2965:3036   */\n      tag_83\n        /* \"#utility.yul\":3033:3034   */\n      0x00\n        /* \"#utility.yul\":3022:3031   */\n      dup4\n        /* \"#utility.yul\":3018:3035   */\n      add\n        /* \"#utility.yul\":3009:3015   */\n      dup5\n        /* \"#utility.yul\":2965:3036   */\n      tag_74\n      jump\t// in\n    tag_83:\n        /* \"#utility.yul\":2919:3043   */\n      swap3\n      swap2\n      pop\n      pop\n      jump\t// out\n        /* \"#utility.yul\":3049:3332   */\n    tag_41:\n      0x00\n        /* \"#utility.yul\":3115:3117   */\n      0x40\n        /* \"#utility.yul\":3109:3118   */\n      mload\n        /* \"#utility.yul\":3099:3118   */\n      swap1\n      pop\n        /* \"#utility.yul\":3157:3161   */\n      dup2\n        /* \"#utility.yul\":3149:3155   */\n      dup2\n        /* \"#utility.yul\":3145:3162   */\n      add\n        /* \"#utility.yul\":3264:3270   */\n      dup2\n        /* \"#utility.yul\":3252:3262   */\n      dup2\n        /* \"#utility.yul\":3249:3271   */\n      lt\n        /* \"#utility.yul\":3228:3246   */\n      0xffffffffffffffff\n        /* \"#utility.yul\":3216:3226   */\n      dup3\n        /* \"#utility.yul\":3213:3247   */\n      gt\n        /* \"#utility.yul\":3210:3272   */\n      or\n        /* \"#utility.yul\":3207:3209   */\n      iszero\n      tag_85\n      jumpi\n        /* \"#utility.yul\":3275:3293   */\n      tag_86\n      tag_87\n      jump\t// in\n    tag_86:\n        /* \"#utility.yul\":3207:3209   */\n    tag_85:\n        /* \"#utility.yul\":3315:3325   */\n      dup1\n        /* \"#utility.yul\":3311:3313   */\n      0x40\n        /* \"#utility.yul\":3304:3326   */\n      mstore\n        /* \"#utility.yul\":3089:3332   */\n      pop\n      swap2\n      swap1\n      pop\n      jump\t// out\n        /* \"#utility.yul\":3338:3670   */\n    tag_40:\n      0x00\n        /* \"#utility.yul\":3490:3508   */\n      0xffffffffffffffff\n        /* \"#utility.yul\":3482:3488   */\n      dup3\n        /* \"#utility.yul\":3479:3509   */\n      gt\n        /* \"#utility.yul\":3476:3478   */\n      iszero\n      tag_89\n      jumpi\n        /* \"#utility.yul\":3512:3530   */\n      tag_90\n      tag_87\n      jump\t// in\n    tag_90:\n        /* \"#utility.yul\":3476:3478   */\n    tag_89:\n        /* \"#utility.yul\":3597:3601   */\n      0x1f\n        /* \"#utility.yul\":3593:3602   */\n      not\n        /* \"#utility.yul\":3586:3590   */\n      0x1f\n        /* \"#utility.yul\":3578:3584   */\n      dup4\n        /* \"#utility.yul\":3574:3591   */\n      add\n        /* \"#utility.yul\":3570:3603   */\n      and\n        /* \"#utility.yul\":3562:3603   */\n      swap1\n      pop\n        /* \"#utility.yul\":3658:3662   */\n      0x20\n        /* \"#utility.yul\":3652:3656   */\n      dup2\n        /* \"#utility.yul\":3648:3663   */\n      add\n        /* \"#utility.yul\":3640:3663   */\n      swap1\n      pop\n        /* \"#utility.yul\":3405:3670   */\n      swap2\n      swap1\n      pop\n      jump\t// out\n        /* \"#utility.yul\":3676:3775   */\n    tag_69:\n      0x00\n        /* \"#utility.yul\":3762:3767   */\n      dup2\n        /* \"#utility.yul\":3756:3768   */\n      mload\n        /* \"#utility.yul\":3746:3768   */\n      swap1\n      pop\n        /* \"#utility.yul\":3735:3775   */\n      swap2\n      swap1\n      pop\n      jump\t// out\n        /* \"#utility.yul\":3781:3929   */\n    tag_71:\n      0x00\n        /* \"#utility.yul\":3920:3923   */\n      dup2\n        /* \"#utility.yul\":3905:3923   */\n      swap1\n      pop\n        /* \"#utility.yul\":3895:3929   */\n      swap3\n      swap2\n      pop\n      pop\n      jump\t// out\n        /* \"#utility.yul\":3935:4025   */\n    tag_65:\n      0x00\n        /* \"#utility.yul\":4012:4017   */\n      dup2\n        /* \"#utility.yul\":4005:4018   */\n      iszero\n        /* \"#utility.yul\":3998:4019   */\n      iszero\n        /* \"#utility.yul\":3987:4019   */\n      swap1\n      pop\n        /* \"#utility.yul\":3977:4025   */\n      swap2\n      swap1\n      pop\n      jump\t// out\n        /* \"#utility.yul\":4031:4108   */\n    tag_77:\n      0x00\n        /* \"#utility.yul\":4097:4102   */\n      dup2\n        /* \"#utility.yul\":4086:4102   */\n      swap1\n      pop\n        /* \"#utility.yul\":4076:4108   */\n      swap2\n      swap1\n      pop\n      jump\t// out\n        /* \"#utility.yul\":4114:4268   */\n    tag_44:\n        /* \"#utility.yul\":4198:4204   */\n      dup3\n        /* \"#utility.yul\":4193:4196   */\n      dup2\n        /* \"#utility.yul\":4188:4191   */\n      dup4\n        /* \"#utility.yul\":4175:4205   */\n      calldatacopy\n        /* \"#utility.yul\":4260:4261   */\n      0x00\n        /* \"#utility.yul\":4251:4257   */\n      dup4\n        /* \"#utility.yul\":4246:4249   */\n      dup4\n        /* \"#utility.yul\":4242:4258   */\n      add\n        /* \"#utility.yul\":4235:4262   */\n      mstore\n        /* \"#utility.yul\":4165:4268   */\n      pop\n      pop\n      pop\n      jump\t// out\n        /* \"#utility.yul\":4274:4581   */\n    tag_73:\n        /* \"#utility.yul\":4342:4343   */\n      0x00\n        /* \"#utility.yul\":4352:4465   */\n    tag_97:\n        /* \"#utility.yul\":4366:4372   */\n      dup4\n        /* \"#utility.yul\":4363:4364   */\n      dup2\n        /* \"#utility.yul\":4360:4373   */\n      lt\n        /* \"#utility.yul\":4352:4465   */\n      iszero\n      tag_99\n      jumpi\n        /* \"#utility.yul\":4451:4452   */\n      dup1\n        /* \"#utility.yul\":4446:4449   */\n      dup3\n        /* \"#utility.yul\":4442:4453   */\n      add\n        /* \"#utility.yul\":4436:4454   */\n      mload\n        /* \"#utility.yul\":4432:4433   */\n      dup2\n        /* \"#utility.yul\":4427:4430   */\n      dup5\n        /* \"#utility.yul\":4423:4434   */\n      add\n        /* \"#utility.yul\":4416:4455   */\n      mstore\n        /* \"#utility.yul\":4388:4390   */\n      0x20\n        /* \"#utility.yul\":4385:4386   */\n      dup2\n        /* \"#utility.yul\":4381:4391   */\n      add\n        /* \"#utility.yul\":4376:4391   */\n      swap1\n      pop\n        /* \"#utility.yul\":4352:4465   */\n      jump(tag_97)\n    tag_99:\n        /* \"#utility.yul\":4483:4489   */\n      dup4\n        /* \"#utility.yul\":4480:4481   */\n      dup2\n        /* \"#utility.yul\":4477:4490   */\n      gt\n        /* \"#utility.yul\":4474:4476   */\n      iszero\n      tag_100\n      jumpi\n        /* \"#utility.yul\":4563:4564   */\n      0x00\n        /* \"#utility.yul\":4554:4560   */\n      dup5\n        /* \"#utility.yul\":4549:4552   */\n      dup5\n        /* \"#utility.yul\":4545:4561   */\n      add\n        /* \"#utility.yul\":4538:4565   */\n      mstore\n        /* \"#utility.yul\":4474:4476   */\n    tag_100:\n        /* \"#utility.yul\":4323:4581   */\n      pop\n      pop\n      pop\n      pop\n      jump\t// out\n        /* \"#utility.yul\":4587:4767   */\n    tag_87:\n        /* \"#utility.yul\":4635:4712   */\n      0x4e487b7100000000000000000000000000000000000000000000000000000000\n        /* \"#utility.yul\":4632:4633   */\n      0x00\n        /* \"#utility.yul\":4625:4713   */\n      mstore\n        /* \"#utility.yul\":4732:4736   */\n      0x41\n        /* \"#utility.yul\":4729:4730   */\n      0x04\n        /* \"#utility.yul\":4722:4737   */\n      mstore\n        /* \"#utility.yul\":4756:4760   */\n      0x24\n        /* \"#utility.yul\":4753:4754   */\n      0x00\n        /* \"#utility.yul\":4746:4761   */\n      revert\n        /* \"#utility.yul\":4773:4895   */\n    tag_52:\n        /* \"#utility.yul\":4846:4870   */\n      tag_103\n        /* \"#utility.yul\":4864:4869   */\n      dup2\n        /* \"#utility.yul\":4846:4870   */\n      tag_77\n      jump\t// in\n    tag_103:\n        /* \"#utility.yul\":4839:4844   */\n      dup2\n        /* \"#utility.yul\":4836:4871   */\n      eq\n        /* \"#utility.yul\":4826:4828   */\n      tag_104\n      jumpi\n        /* \"#utility.yul\":4885:4886   */\n      0x00\n        /* \"#utility.yul\":4882:4883   */\n      dup1\n        /* \"#utility.yul\":4875:4887   */\n      revert\n        /* \"#utility.yul\":4826:4828   */\n    tag_104:\n        /* \"#utility.yul\":4816:4895   */\n      pop\n      jump\t// out\n\n    auxdata: 0xa2646970667358221220d050d1cc1f504c0aae2475bad7294f6e511bd81539ee26136b6efd5b206d6b7064736f6c63430008000033\n}\n",
				"bytecode": {
					"linkReferences": {},
					"object": "60806040526040518060a00160405280600160ff168152602001600260ff168152602001600360ff168152602001600460ff168152602001600560ff16815250600090600561004f929190610062565b5034801561005c57600080fd5b506100d1565b8280548282559060005260206000209081019282156100a3579160200282015b828111156100a2578251829060ff16905591602001919060010190610082565b5b5090506100b091906100b4565b5090565b5b808211156100cd5760008160009055506001016100b5565b5090565b6104b8806100e06000396000f3fe608060405234801561001057600080fd5b506004361061004c5760003560e01c80635811a3b9146100515780637132917114610081578063be1c766b1461009d578063bed34bba146100bb575b600080fd5b61006b600480360381019061006691906102a8565b6100eb565b6040516100789190610352565b60405180910390f35b61009b600480360381019061009691906102a8565b61010f565b005b6100a561015a565b6040516100b29190610352565b60405180910390f35b6100d560048036038101906100d0919061023c565b610166565b6040516100e29190610337565b60405180910390f35b600081815481106100fb57600080fd5b906000526020600020016000915090505481565b60008181548110610149577f4e487b7100000000000000000000000000000000000000000000000000000000600052603260045260246000fd5b906000526020600020016000905550565b60008080549050905090565b6000816040516020016101799190610320565b60405160208183030381529060405280519060200120836040516020016101a09190610320565b6040516020818303038152906040528051906020012014905092915050565b60006101d26101cd8461039e565b61036d565b9050828152602081018484840111156101ea57600080fd5b6101f58482856103fa565b509392505050565b600082601f83011261020e57600080fd5b813561021e8482602086016101bf565b91505092915050565b6000813590506102368161046b565b92915050565b6000806040838503121561024f57600080fd5b600083013567ffffffffffffffff81111561026957600080fd5b610275858286016101fd565b925050602083013567ffffffffffffffff81111561029257600080fd5b61029e858286016101fd565b9150509250929050565b6000602082840312156102ba57600080fd5b60006102c884828501610227565b91505092915050565b6102da816103e4565b82525050565b60006102eb826103ce565b6102f581856103d9565b9350610305818560208601610409565b80840191505092915050565b61031a816103f0565b82525050565b600061032c82846102e0565b915081905092915050565b600060208201905061034c60008301846102d1565b92915050565b60006020820190506103676000830184610311565b92915050565b6000604051905081810181811067ffffffffffffffff821117156103945761039361043c565b5b8060405250919050565b600067ffffffffffffffff8211156103b9576103b861043c565b5b601f19601f8301169050602081019050919050565b600081519050919050565b600081905092915050565b60008115159050919050565b6000819050919050565b82818337600083830152505050565b60005b8381101561042757808201518184015260208101905061040c565b83811115610436576000848401525b50505050565b7f4e487b7100000000000000000000000000000000000000000000000000000000600052604160045260246000fd5b610474816103f0565b811461047f57600080fd5b5056fea2646970667358221220d050d1cc1f504c0aae2475bad7294f6e511bd81539ee26136b6efd5b206d6b7064736f6c63430008000033",
					"opcodes": "PUSH1 0x80 PUSH1 0x40 MSTORE PUSH1 0x40 MLOAD DUP1 PUSH1 0xA0 ADD PUSH1 0x40 MSTORE DUP1 PUSH1 0x1 PUSH1 0xFF AND DUP2 MSTORE PUSH1 0x20 ADD PUSH1 0x2 PUSH1 0xFF AND DUP2 MSTORE PUSH1 0x20 ADD PUSH1 0x3 PUSH1 0xFF AND DUP2 MSTORE PUSH1 0x20 ADD PUSH1 0x4 PUSH1 0xFF AND DUP2 MSTORE PUSH1 0x20 ADD PUSH1 0x5 PUSH1 0xFF AND DUP2 MSTORE POP PUSH1 0x0 SWAP1 PUSH1 0x5 PUSH2 0x4F SWAP3 SWAP2 SWAP1 PUSH2 0x62 JUMP JUMPDEST POP CALLVALUE DUP1 ISZERO PUSH2 0x5C JUMPI PUSH1 0x0 DUP1 REVERT JUMPDEST POP PUSH2 0xD1 JUMP JUMPDEST DUP3 DUP1 SLOAD DUP3 DUP3 SSTORE SWAP1 PUSH1 0x0 MSTORE PUSH1 0x20 PUSH1 0x0 KECCAK256 SWAP1 DUP2 ADD SWAP3 DUP3 ISZERO PUSH2 0xA3 JUMPI SWAP2 PUSH1 0x20 MUL DUP3 ADD JUMPDEST DUP3 DUP2 GT ISZERO PUSH2 0xA2 JUMPI DUP3 MLOAD DUP3 SWAP1 PUSH1 0xFF AND SWAP1 SSTORE SWAP2 PUSH1 0x20 ADD SWAP2 SWAP1 PUSH1 0x1 ADD SWAP1 PUSH2 0x82 JUMP JUMPDEST JUMPDEST POP SWAP1 POP PUSH2 0xB0 SWAP2 SWAP1 PUSH2 0xB4 JUMP JUMPDEST POP SWAP1 JUMP JUMPDEST JUMPDEST DUP1 DUP3 GT ISZERO PUSH2 0xCD JUMPI PUSH1 0x0 DUP2 PUSH1 0x0 SWAP1 SSTORE POP PUSH1 0x1 ADD PUSH2 0xB5 JUMP JUMPDEST POP SWAP1 JUMP JUMPDEST PUSH2 0x4B8 DUP1 PUSH2 0xE0 PUSH1 0x0 CODECOPY PUSH1 0x0 RETURN INVALID PUSH1 0x80 PUSH1 0x40 MSTORE CALLVALUE DUP1 ISZERO PUSH2 0x10 JUMPI PUSH1 0x0 DUP1 REVERT JUMPDEST POP PUSH1 0x4 CALLDATASIZE LT PUSH2 0x4C JUMPI PUSH1 0x0 CALLDATALOAD PUSH1 0xE0 SHR DUP1 PUSH4 0x5811A3B9 EQ PUSH2 0x51 JUMPI DUP1 PUSH4 0x71329171 EQ PUSH2 0x81 JUMPI DUP1 PUSH4 0xBE1C766B EQ PUSH2 0x9D JUMPI DUP1 PUSH4 0xBED34BBA EQ PUSH2 0xBB JUMPI JUMPDEST PUSH1 0x0 DUP1 REVERT JUMPDEST PUSH2 0x6B PUSH1 0x4 DUP1 CALLDATASIZE SUB DUP2 ADD SWAP1 PUSH2 0x66 SWAP2 SWAP1 PUSH2 0x2A8 JUMP JUMPDEST PUSH2 0xEB JUMP JUMPDEST PUSH1 0x40 MLOAD PUSH2 0x78 SWAP2 SWAP1 PUSH2 0x352 JUMP JUMPDEST PUSH1 0x40 MLOAD DUP1 SWAP2 SUB SWAP1 RETURN JUMPDEST PUSH2 0x9B PUSH1 0x4 DUP1 CALLDATASIZE SUB DUP2 ADD SWAP1 PUSH2 0x96 SWAP2 SWAP1 PUSH2 0x2A8 JUMP JUMPDEST PUSH2 0x10F JUMP JUMPDEST STOP JUMPDEST PUSH2 0xA5 PUSH2 0x15A JUMP JUMPDEST PUSH1 0x40 MLOAD PUSH2 0xB2 SWAP2 SWAP1 PUSH2 0x352 JUMP JUMPDEST PUSH1 0x40 MLOAD DUP1 SWAP2 SUB SWAP1 RETURN JUMPDEST PUSH2 0xD5 PUSH1 0x4 DUP1 CALLDATASIZE SUB DUP2 ADD SWAP1 PUSH2 0xD0 SWAP2 SWAP1 PUSH2 0x23C JUMP JUMPDEST PUSH2 0x166 JUMP JUMPDEST PUSH1 0x40 MLOAD PUSH2 0xE2 SWAP2 SWAP1 PUSH2 0x337 JUMP JUMPDEST PUSH1 0x40 MLOAD DUP1 SWAP2 SUB SWAP1 RETURN JUMPDEST PUSH1 0x0 DUP2 DUP2 SLOAD DUP2 LT PUSH2 0xFB JUMPI PUSH1 0x0 DUP1 REVERT JUMPDEST SWAP1 PUSH1 0x0 MSTORE PUSH1 0x20 PUSH1 0x0 KECCAK256 ADD PUSH1 0x0 SWAP2 POP SWAP1 POP SLOAD DUP2 JUMP JUMPDEST PUSH1 0x0 DUP2 DUP2 SLOAD DUP2 LT PUSH2 0x149 JUMPI PUSH32 0x4E487B7100000000000000000000000000000000000000000000000000000000 PUSH1 0x0 MSTORE PUSH1 0x32 PUSH1 0x4 MSTORE PUSH1 0x24 PUSH1 0x0 REVERT JUMPDEST SWAP1 PUSH1 0x0 MSTORE PUSH1 0x20 PUSH1 0x0 KECCAK256 ADD PUSH1 0x0 SWAP1 SSTORE POP JUMP JUMPDEST PUSH1 0x0 DUP1 DUP1 SLOAD SWAP1 POP SWAP1 POP SWAP1 JUMP JUMPDEST PUSH1 0x0 DUP2 PUSH1 0x40 MLOAD PUSH1 0x20 ADD PUSH2 0x179 SWAP2 SWAP1 PUSH2 0x320 JUMP JUMPDEST PUSH1 0x40 MLOAD PUSH1 0x20 DUP2 DUP4 SUB SUB DUP2 MSTORE SWAP1 PUSH1 0x40 MSTORE DUP1 MLOAD SWAP1 PUSH1 0x20 ADD KECCAK256 DUP4 PUSH1 0x40 MLOAD PUSH1 0x20 ADD PUSH2 0x1A0 SWAP2 SWAP1 PUSH2 0x320 JUMP JUMPDEST PUSH1 0x40 MLOAD PUSH1 0x20 DUP2 DUP4 SUB SUB DUP2 MSTORE SWAP1 PUSH1 0x40 MSTORE DUP1 MLOAD SWAP1 PUSH1 0x20 ADD KECCAK256 EQ SWAP1 POP SWAP3 SWAP2 POP POP JUMP JUMPDEST PUSH1 0x0 PUSH2 0x1D2 PUSH2 0x1CD DUP5 PUSH2 0x39E JUMP JUMPDEST PUSH2 0x36D JUMP JUMPDEST SWAP1 POP DUP3 DUP2 MSTORE PUSH1 0x20 DUP2 ADD DUP5 DUP5 DUP5 ADD GT ISZERO PUSH2 0x1EA JUMPI PUSH1 0x0 DUP1 REVERT JUMPDEST PUSH2 0x1F5 DUP5 DUP3 DUP6 PUSH2 0x3FA JUMP JUMPDEST POP SWAP4 SWAP3 POP POP POP JUMP JUMPDEST PUSH1 0x0 DUP3 PUSH1 0x1F DUP4 ADD SLT PUSH2 0x20E JUMPI PUSH1 0x0 DUP1 REVERT JUMPDEST DUP2 CALLDATALOAD PUSH2 0x21E DUP5 DUP3 PUSH1 0x20 DUP7 ADD PUSH2 0x1BF JUMP JUMPDEST SWAP2 POP POP SWAP3 SWAP2 POP POP JUMP JUMPDEST PUSH1 0x0 DUP2 CALLDATALOAD SWAP1 POP PUSH2 0x236 DUP2 PUSH2 0x46B JUMP JUMPDEST SWAP3 SWAP2 POP POP JUMP JUMPDEST PUSH1 0x0 DUP1 PUSH1 0x40 DUP4 DUP6 SUB SLT ISZERO PUSH2 0x24F JUMPI PUSH1 0x0 DUP1 REVERT JUMPDEST PUSH1 0x0 DUP4 ADD CALLDATALOAD PUSH8 0xFFFFFFFFFFFFFFFF DUP2 GT ISZERO PUSH2 0x269 JUMPI PUSH1 0x0 DUP1 REVERT JUMPDEST PUSH2 0x275 DUP6 DUP3 DUP7 ADD PUSH2 0x1FD JUMP JUMPDEST SWAP3 POP POP PUSH1 0x20 DUP4 ADD CALLDATALOAD PUSH8 0xFFFFFFFFFFFFFFFF DUP2 GT ISZERO PUSH2 0x292 JUMPI PUSH1 0x0 DUP1 REVERT JUMPDEST PUSH2 0x29E DUP6 DUP3 DUP7 ADD PUSH2 0x1FD JUMP JUMPDEST SWAP2 POP POP SWAP3 POP SWAP3 SWAP1 POP JUMP JUMPDEST PUSH1 0x0 PUSH1 0x20 DUP3 DUP5 SUB SLT ISZERO PUSH2 0x2BA JUMPI PUSH1 0x0 DUP1 REVERT JUMPDEST PUSH1 0x0 PUSH2 0x2C8 DUP5 DUP3 DUP6 ADD PUSH2 0x227 JUMP JUMPDEST SWAP2 POP POP SWAP3 SWAP2 POP POP JUMP JUMPDEST PUSH2 0x2DA DUP2 PUSH2 0x3E4 JUMP JUMPDEST DUP3 MSTORE POP POP JUMP JUMPDEST PUSH1 0x0 PUSH2 0x2EB DUP3 PUSH2 0x3CE JUMP JUMPDEST PUSH2 0x2F5 DUP2 DUP6 PUSH2 0x3D9 JUMP JUMPDEST SWAP4 POP PUSH2 0x305 DUP2 DUP6 PUSH1 0x20 DUP7 ADD PUSH2 0x409 JUMP JUMPDEST DUP1 DUP5 ADD SWAP2 POP POP SWAP3 SWAP2 POP POP JUMP JUMPDEST PUSH2 0x31A DUP2 PUSH2 0x3F0 JUMP JUMPDEST DUP3 MSTORE POP POP JUMP JUMPDEST PUSH1 0x0 PUSH2 0x32C DUP3 DUP5 PUSH2 0x2E0 JUMP JUMPDEST SWAP2 POP DUP2 SWAP1 POP SWAP3 SWAP2 POP POP JUMP JUMPDEST PUSH1 0x0 PUSH1 0x20 DUP3 ADD SWAP1 POP PUSH2 0x34C PUSH1 0x0 DUP4 ADD DUP5 PUSH2 0x2D1 JUMP JUMPDEST SWAP3 SWAP2 POP POP JUMP JUMPDEST PUSH1 0x0 PUSH1 0x20 DUP3 ADD SWAP1 POP PUSH2 0x367 PUSH1 0x0 DUP4 ADD DUP5 PUSH2 0x311 JUMP JUMPDEST SWAP3 SWAP2 POP POP JUMP JUMPDEST PUSH1 0x0 PUSH1 0x40 MLOAD SWAP1 POP DUP2 DUP2 ADD DUP2 DUP2 LT PUSH8 0xFFFFFFFFFFFFFFFF DUP3 GT OR ISZERO PUSH2 0x394 JUMPI PUSH2 0x393 PUSH2 0x43C JUMP JUMPDEST JUMPDEST DUP1 PUSH1 0x40 MSTORE POP SWAP2 SWAP1 POP JUMP JUMPDEST PUSH1 0x0 PUSH8 0xFFFFFFFFFFFFFFFF DUP3 GT ISZERO PUSH2 0x3B9 JUMPI PUSH2 0x3B8 PUSH2 0x43C JUMP JUMPDEST JUMPDEST PUSH1 0x1F NOT PUSH1 0x1F DUP4 ADD AND SWAP1 POP PUSH1 0x20 DUP2 ADD SWAP1 POP SWAP2 SWAP1 POP JUMP JUMPDEST PUSH1 0x0 DUP2 MLOAD SWAP1 POP SWAP2 SWAP1 POP JUMP JUMPDEST PUSH1 0x0 DUP2 SWAP1 POP SWAP3 SWAP2 POP POP JUMP JUMPDEST PUSH1 0x0 DUP2 ISZERO ISZERO SWAP1 POP SWAP2 SWAP1 POP JUMP JUMPDEST PUSH1 0x0 DUP2 SWAP1 POP SWAP2 SWAP1 POP JUMP JUMPDEST DUP3 DUP2 DUP4 CALLDATACOPY PUSH1 0x0 DUP4 DUP4 ADD MSTORE POP POP POP JUMP JUMPDEST PUSH1 0x0 JUMPDEST DUP4 DUP2 LT ISZERO PUSH2 0x427 JUMPI DUP1 DUP3 ADD MLOAD DUP2 DUP5 ADD MSTORE PUSH1 0x20 DUP2 ADD SWAP1 POP PUSH2 0x40C JUMP JUMPDEST DUP4 DUP2 GT ISZERO PUSH2 0x436 JUMPI PUSH1 0x0 DUP5 DUP5 ADD MSTORE JUMPDEST POP POP POP POP JUMP JUMPDEST PUSH32 0x4E487B7100000000000000000000000000000000000000000000000000000000 PUSH1 0x0 MSTORE PUSH1 0x41 PUSH1 0x4 MSTORE PUSH1 0x24 PUSH1 0x0 REVERT JUMPDEST PUSH2 0x474 DUP2 PUSH2 0x3F0 JUMP JUMPDEST DUP2 EQ PUSH2 0x47F JUMPI PUSH1 0x0 DUP1 REVERT JUMPDEST POP JUMP INVALID LOG2 PUSH5 0x6970667358 0x22 SLT KECCAK256 0xD0 POP 0xD1 0xCC 0x1F POP 0x4C EXP 0xAE 0x24 PUSH22 0xBAD7294F6E511BD81539EE26136B6EFD5B206D6B7064 PUSH20 0x6F6C634300080000330000000000000000000000 "
				},
				"gasEstimates": {
					"creation": {
						"codeDepositCost": "241600",
						"executionCost": "infinite",
						"totalCost": "infinite"
					},
					"external": {
						"compareStrings(string,string)": "infinite",
						"firstArray(uint256)": "infinite",
						"getLength()": "1167",
						"removeItem(uint256)": "6295"
					},
					"internal": {
						"StringArrContainsValue(string calldata,string memory[] memory)": "infinite"
					}
				},
				"methodIdentifiers": {
					"compareStrings(string,string)": "bed34bba",
					"firstArray(uint256)": "5811a3b9",
					"getLength()": "be1c766b",
					"removeItem(uint256)": "71329171"
				}
			},
			"userdoc": {
				"kind": "user",
				"methods": {},
				"version": 1
			}
		}
	}
}