{
	"Library.sol": {
		"Library": {
			"abi": [
				{
					"inputs": [],
					"stateMutability": "nonpayable",
					"type": "constructor"
				},
				{
					"inputs": [
						{
							"components": [
								{
									"internalType": "uint256",
									"name": "id",
									"type": "uint256"
								},
								{
									"internalType": "string",
									"name": "name",
									"type": "string"
								},
								{
									"internalType": "uint256",
									"name": "quantity",
									"type": "uint256"
								},
								{
									"internalType": "bool",
									"name": "exists",
									"type": "bool"
								}
							],
							"internalType": "struct Library.Book",
							"name": "book",
							"type": "tuple"
						}
					],
					"name": "AddBook",
					"outputs": [],
					"stateMutability": "nonpayable",
					"type": "function"
				},
				{
					"inputs": [
						{
							"internalType": "string",
							"name": "bookName",
							"type": "string"
						}
					],
					"name": "BorrowBook",
					"outputs": [],
					"stateMutability": "nonpayable",
					"type": "function"
				},
				{
					"inputs": [
						{
							"internalType": "string",
							"name": "a",
							"type": "string"
						},
						{
							"internalType": "string",
							"name": "b",
							"type": "string"
						}
					],
					"name": "compareStrings",
					"outputs": [
						{
							"internalType": "bool",
							"name": "",
							"type": "bool"
						}
					],
					"stateMutability": "view",
					"type": "function"
				},
				{
					"inputs": [
						{
							"internalType": "uint256",
							"name": "",
							"type": "uint256"
						}
					],
					"name": "firstArray",
					"outputs": [
						{
							"internalType": "uint256",
							"name": "",
							"type": "uint256"
						}
					],
					"stateMutability": "view",
					"type": "function"
				},
				{
					"inputs": [],
					"name": "getLength",
					"outputs": [
						{
							"internalType": "uint256",
							"name": "",
							"type": "uint256"
						}
					],
					"stateMutability": "view",
					"type": "function"
				},
				{
					"inputs": [],
					"name": "owner",
					"outputs": [
						{
							"internalType": "address",
							"name": "",
							"type": "address"
						}
					],
					"stateMutability": "view",
					"type": "function"
				},
				{
					"inputs": [
						{
							"internalType": "uint256",
							"name": "i",
							"type": "uint256"
						}
					],
					"name": "removeItem",
					"outputs": [],
					"stateMutability": "nonpayable",
					"type": "function"
				}
			],
			"devdoc": {
				"kind": "dev",
				"methods": {},
				"version": 1
			},
			"evm": {
				"assembly": "    /* \"Library.sol\":88:1904  contract Library is Helpers{... */\n  mstore(0x40, 0x80)\n    /* \"Helpers.sol\":86:124  uint[] public firstArray = [1,2,3,4,5] */\n  mload(0x40)\n  dup1\n  0xa0\n  add\n  0x40\n  mstore\n  dup1\n    /* \"Helpers.sol\":114:115  1 */\n  0x01\n    /* \"Helpers.sol\":86:124  uint[] public firstArray = [1,2,3,4,5] */\n  0xff\n  and\n  dup2\n  mstore\n  0x20\n  add\n    /* \"Helpers.sol\":116:117  2 */\n  0x02\n    /* \"Helpers.sol\":86:124  uint[] public firstArray = [1,2,3,4,5] */\n  0xff\n  and\n  dup2\n  mstore\n  0x20\n  add\n    /* \"Helpers.sol\":118:119  3 */\n  0x03\n    /* \"Helpers.sol\":86:124  uint[] public firstArray = [1,2,3,4,5] */\n  0xff\n  and\n  dup2\n  mstore\n  0x20\n  add\n    /* \"Helpers.sol\":120:121  4 */\n  0x04\n    /* \"Helpers.sol\":86:124  uint[] public firstArray = [1,2,3,4,5] */\n  0xff\n  and\n  dup2\n  mstore\n  0x20\n  add\n    /* \"Helpers.sol\":122:123  5 */\n  0x05\n    /* \"Helpers.sol\":86:124  uint[] public firstArray = [1,2,3,4,5] */\n  0xff\n  and\n  dup2\n  mstore\n  pop\n  0x00\n  swap1\n  0x05\n  tag_1\n  swap3\n  swap2\n  swap1\n  tag_2\n  jump\t// in\ntag_1:\n  pop\n    /* \"Library.sol\":531:579  constructor(){... */\n  callvalue\n  dup1\n  iszero\n  tag_3\n  jumpi\n  0x00\n  dup1\n  revert\ntag_3:\n  pop\n    /* \"Library.sol\":562:572  msg.sender */\n  caller\n    /* \"Library.sol\":554:559  owner */\n  0x01\n  0x00\n    /* \"Library.sol\":554:572  owner = msg.sender */\n  0x0100\n  exp\n  dup2\n  sload\n  dup2\n  0xffffffffffffffffffffffffffffffffffffffff\n  mul\n  not\n  and\n  swap1\n  dup4\n  0xffffffffffffffffffffffffffffffffffffffff\n  and\n  mul\n  or\n  swap1\n  sstore\n  pop\n    /* \"Library.sol\":88:1904  contract Library is Helpers{... */\n  jump(tag_6)\ntag_2:\n  dup3\n  dup1\n  sload\n  dup3\n  dup3\n  sstore\n  swap1\n  0x00\n  mstore\n  keccak256(0x00, 0x20)\n  swap1\n  dup2\n  add\n  swap3\n  dup3\n  iszero\n  tag_7\n  jumpi\n  swap2\n  0x20\n  mul\n  dup3\n  add\ntag_8:\n  dup3\n  dup2\n  gt\n  iszero\n  tag_9\n  jumpi\n  dup3\n  mload\n  dup3\n  swap1\n  0xff\n  and\n  swap1\n  sstore\n  swap2\n  0x20\n  add\n  swap2\n  swap1\n  0x01\n  add\n  swap1\n  jump(tag_8)\ntag_9:\ntag_7:\n  pop\n  swap1\n  pop\n  tag_10\n  swap2\n  swap1\n  tag_11\n  jump\t// in\ntag_10:\n  pop\n  swap1\n  jump\t// out\ntag_11:\ntag_12:\n  dup1\n  dup3\n  gt\n  iszero\n  tag_13\n  jumpi\n  0x00\n  dup2\n  0x00\n  swap1\n  sstore\n  pop\n  0x01\n  add\n  jump(tag_12)\ntag_13:\n  pop\n  swap1\n  jump\t// out\ntag_6:\n  dataSize(sub_0)\n  dup1\n  dataOffset(sub_0)\n  0x00\n  codecopy\n  0x00\n  return\nstop\n\nsub_0: assembly {\n        /* \"Library.sol\":88:1904  contract Library is Helpers{... */\n      mstore(0x40, 0x80)\n      callvalue\n      dup1\n      iszero\n      tag_1\n      jumpi\n      0x00\n      dup1\n      revert\n    tag_1:\n      pop\n      jumpi(tag_2, lt(calldatasize, 0x04))\n      shr(0xe0, calldataload(0x00))\n      dup1\n      0x71329171\n      gt\n      tag_10\n      jumpi\n      dup1\n      0x71329171\n      eq\n      tag_6\n      jumpi\n      dup1\n      0x8da5cb5b\n      eq\n      tag_7\n      jumpi\n      dup1\n      0xbe1c766b\n      eq\n      tag_8\n      jumpi\n      dup1\n      0xbed34bba\n      eq\n      tag_9\n      jumpi\n      jump(tag_2)\n    tag_10:\n      dup1\n      0x5811a3b9\n      eq\n      tag_3\n      jumpi\n      dup1\n      0x5b87081f\n      eq\n      tag_4\n      jumpi\n      dup1\n      0x5d16b308\n      eq\n      tag_5\n      jumpi\n    tag_2:\n      0x00\n      dup1\n      revert\n        /* \"Helpers.sol\":86:124  uint[] public firstArray = [1,2,3,4,5] */\n    tag_3:\n      tag_11\n      0x04\n      dup1\n      calldatasize\n      sub\n      dup2\n      add\n      swap1\n      tag_12\n      swap2\n      swap1\n      tag_13\n      jump\t// in\n    tag_12:\n      tag_14\n      jump\t// in\n    tag_11:\n      mload(0x40)\n      tag_15\n      swap2\n      swap1\n      tag_16\n      jump\t// in\n    tag_15:\n      mload(0x40)\n      dup1\n      swap2\n      sub\n      swap1\n      return\n        /* \"Library.sol\":1007:1483  function BorrowBook(string calldata bookName) public{        ... */\n    tag_4:\n      tag_17\n      0x04\n      dup1\n      calldatasize\n      sub\n      dup2\n      add\n      swap1\n      tag_18\n      swap2\n      swap1\n      tag_19\n      jump\t// in\n    tag_18:\n      tag_20\n      jump\t// in\n    tag_17:\n      stop\n        /* \"Library.sol\":585:1001  function AddBook(Book calldata book) public onlyOwnable{... */\n    tag_5:\n      tag_21\n      0x04\n      dup1\n      calldatasize\n      sub\n      dup2\n      add\n      swap1\n      tag_22\n      swap2\n      swap1\n      tag_23\n      jump\t// in\n    tag_22:\n      tag_24\n      jump\t// in\n    tag_21:\n      stop\n        /* \"Helpers.sol\":131:200  function removeItem(uint i) public{... */\n    tag_6:\n      tag_25\n      0x04\n      dup1\n      calldatasize\n      sub\n      dup2\n      add\n      swap1\n      tag_26\n      swap2\n      swap1\n      tag_13\n      jump\t// in\n    tag_26:\n      tag_27\n      jump\t// in\n    tag_25:\n      stop\n        /* \"Library.sol\":121:141  address public owner */\n    tag_7:\n      tag_28\n      tag_29\n      jump\t// in\n    tag_28:\n      mload(0x40)\n      tag_30\n      swap2\n      swap1\n      tag_31\n      jump\t// in\n    tag_30:\n      mload(0x40)\n      dup1\n      swap2\n      sub\n      swap1\n      return\n        /* \"Helpers.sol\":206:291  function getLength() public view returns(uint){... */\n    tag_8:\n      tag_32\n      tag_33\n      jump\t// in\n    tag_32:\n      mload(0x40)\n      tag_34\n      swap2\n      swap1\n      tag_16\n      jump\t// in\n    tag_34:\n      mload(0x40)\n      dup1\n      swap2\n      sub\n      swap1\n      return\n        /* \"Helpers.sol\":1001:1180  function compareStrings(string memory a, string memory b) public view returns (bool) {... */\n    tag_9:\n      tag_35\n      0x04\n      dup1\n      calldatasize\n      sub\n      dup2\n      add\n      swap1\n      tag_36\n      swap2\n      swap1\n      tag_37\n      jump\t// in\n    tag_36:\n      tag_38\n      jump\t// in\n    tag_35:\n      mload(0x40)\n      tag_39\n      swap2\n      swap1\n      tag_40\n      jump\t// in\n    tag_39:\n      mload(0x40)\n      dup1\n      swap2\n      sub\n      swap1\n      return\n        /* \"Helpers.sol\":86:124  uint[] public firstArray = [1,2,3,4,5] */\n    tag_14:\n      0x00\n      dup2\n      dup2\n      sload\n      dup2\n      lt\n      tag_41\n      jumpi\n      0x00\n      dup1\n      revert\n    tag_41:\n      swap1\n      0x00\n      mstore\n      keccak256(0x00, 0x20)\n      add\n      0x00\n      swap2\n      pop\n      swap1\n      pop\n      sload\n      dup2\n      jump\t// out\n        /* \"Library.sol\":1007:1483  function BorrowBook(string calldata bookName) public{        ... */\n    tag_20:\n        /* \"Library.sol\":1080:1142  StringArrContainsValue(bookName, ClientBorrowList[msg.sender]) */\n      tag_44\n        /* \"Library.sol\":1103:1111  bookName */\n      dup3\n      dup3\n        /* \"Library.sol\":1113:1129  ClientBorrowList */\n      0x05\n        /* \"Library.sol\":1113:1141  ClientBorrowList[msg.sender] */\n      0x00\n        /* \"Library.sol\":1130:1140  msg.sender */\n      caller\n        /* \"Library.sol\":1113:1141  ClientBorrowList[msg.sender] */\n      0xffffffffffffffffffffffffffffffffffffffff\n      and\n      0xffffffffffffffffffffffffffffffffffffffff\n      and\n      dup2\n      mstore\n      0x20\n      add\n      swap1\n      dup2\n      mstore\n      0x20\n      add\n      0x00\n      keccak256\n        /* \"Library.sol\":1080:1142  StringArrContainsValue(bookName, ClientBorrowList[msg.sender]) */\n      dup1\n      sload\n      dup1\n      0x20\n      mul\n      0x20\n      add\n      mload(0x40)\n      swap1\n      dup2\n      add\n      0x40\n      mstore\n      dup1\n      swap3\n      swap2\n      swap1\n      dup2\n      dup2\n      mstore\n      0x20\n      add\n      0x00\n      swap1\n    tag_45:\n      dup3\n      dup3\n      lt\n      iszero\n      tag_46\n      jumpi\n      dup4\n      dup3\n      swap1\n      0x00\n      mstore\n      keccak256(0x00, 0x20)\n      add\n      dup1\n      sload\n      tag_48\n      swap1\n      tag_49\n      jump\t// in\n    tag_48:\n      dup1\n      0x1f\n      add\n      0x20\n      dup1\n      swap2\n      div\n      mul\n      0x20\n      add\n      mload(0x40)\n      swap1\n      dup2\n      add\n      0x40\n      mstore\n      dup1\n      swap3\n      swap2\n      swap1\n      dup2\n      dup2\n      mstore\n      0x20\n      add\n      dup3\n      dup1\n      sload\n      tag_50\n      swap1\n      tag_49\n      jump\t// in\n    tag_50:\n      dup1\n      iszero\n      tag_51\n      jumpi\n      dup1\n      0x1f\n      lt\n      tag_52\n      jumpi\n      0x0100\n      dup1\n      dup4\n      sload\n      div\n      mul\n      dup4\n      mstore\n      swap2\n      0x20\n      add\n      swap2\n      jump(tag_51)\n    tag_52:\n      dup3\n      add\n      swap2\n      swap1\n      0x00\n      mstore\n      keccak256(0x00, 0x20)\n      swap1\n    tag_53:\n      dup2\n      sload\n      dup2\n      mstore\n      swap1\n      0x01\n      add\n      swap1\n      0x20\n      add\n      dup1\n      dup4\n      gt\n      tag_53\n      jumpi\n      dup3\n      swap1\n      sub\n      0x1f\n      and\n      dup3\n      add\n      swap2\n    tag_51:\n      pop\n      pop\n      pop\n      pop\n      pop\n      dup2\n      mstore\n      0x20\n      add\n      swap1\n      0x01\n      add\n      swap1\n      jump(tag_45)\n    tag_46:\n      pop\n      pop\n      pop\n      pop\n        /* \"Library.sol\":1080:1102  StringArrContainsValue */\n      tag_54\n        /* \"Library.sol\":1080:1142  StringArrContainsValue(bookName, ClientBorrowList[msg.sender]) */\n      jump\t// in\n    tag_44:\n        /* \"Library.sol\":1077:1218  if(StringArrContainsValue(bookName, ClientBorrowList[msg.sender])){... */\n      iszero\n      tag_55\n      jumpi\n        /* \"Library.sol\":1157:1207  revert(\"This book already exists in the Library!\") */\n      mload(0x40)\n      0x08c379a000000000000000000000000000000000000000000000000000000000\n      dup2\n      mstore\n      0x04\n      add\n      tag_56\n      swap1\n      tag_57\n      jump\t// in\n    tag_56:\n      mload(0x40)\n      dup1\n      swap2\n      sub\n      swap1\n      revert\n        /* \"Library.sol\":1077:1218  if(StringArrContainsValue(bookName, ClientBorrowList[msg.sender])){... */\n    tag_55:\n        /* \"Library.sol\":1007:1483  function BorrowBook(string calldata bookName) public{        ... */\n      pop\n      pop\n      jump\t// out\n        /* \"Library.sol\":585:1001  function AddBook(Book calldata book) public onlyOwnable{... */\n    tag_24:\n        /* \"Library.sol\":471:476  owner */\n      0x01\n      0x00\n      swap1\n      sload\n      swap1\n      0x0100\n      exp\n      swap1\n      div\n      0xffffffffffffffffffffffffffffffffffffffff\n      and\n        /* \"Library.sol\":457:476  msg.sender == owner */\n      0xffffffffffffffffffffffffffffffffffffffff\n      and\n        /* \"Library.sol\":457:467  msg.sender */\n      caller\n        /* \"Library.sol\":457:476  msg.sender == owner */\n      0xffffffffffffffffffffffffffffffffffffffff\n      and\n      eq\n        /* \"Library.sol\":449:507  require(msg.sender == owner, \"Current user is not owner!\") */\n      tag_59\n      jumpi\n      mload(0x40)\n      0x08c379a000000000000000000000000000000000000000000000000000000000\n      dup2\n      mstore\n      0x04\n      add\n      tag_60\n      swap1\n      tag_61\n      jump\t// in\n    tag_60:\n      mload(0x40)\n      dup1\n      swap2\n      sub\n      swap1\n      revert\n    tag_59:\n        /* \"Library.sol\":650:672  string memory bookName */\n      0x00\n        /* \"Library.sol\":675:679  book */\n      dup2\n        /* \"Library.sol\":675:684  book.name */\n      dup1\n      0x20\n      add\n      swap1\n      tag_63\n      swap2\n      swap1\n      tag_64\n      jump\t// in\n    tag_63:\n        /* \"Library.sol\":650:684  string memory bookName = book.name */\n      dup1\n      dup1\n      0x1f\n      add\n      0x20\n      dup1\n      swap2\n      div\n      mul\n      0x20\n      add\n      mload(0x40)\n      swap1\n      dup2\n      add\n      0x40\n      mstore\n      dup1\n      swap4\n      swap3\n      swap2\n      swap1\n      dup2\n      dup2\n      mstore\n      0x20\n      add\n      dup4\n      dup4\n      dup1\n      dup3\n      dup5\n      calldatacopy\n      0x00\n      dup2\n      dup5\n      add\n      mstore\n      not(0x1f)\n      0x1f\n      dup3\n      add\n      and\n      swap1\n      pop\n      dup1\n      dup4\n      add\n      swap3\n      pop\n      pop\n      pop\n      pop\n      pop\n      pop\n      pop\n      swap1\n      pop\n        /* \"Library.sol\":698:706  BookList */\n      0x03\n        /* \"Library.sol\":707:715  bookName */\n      dup2\n        /* \"Library.sol\":698:716  BookList[bookName] */\n      mload(0x40)\n      tag_65\n      swap2\n      swap1\n      tag_66\n      jump\t// in\n    tag_65:\n      swap1\n      dup2\n      mstore\n      0x20\n      add\n      mload(0x40)\n      dup1\n      swap2\n      sub\n      swap1\n      keccak256\n        /* \"Library.sol\":698:723  BookList[bookName].exists */\n      0x03\n      add\n      0x00\n      swap1\n      sload\n      swap1\n      0x0100\n      exp\n      swap1\n      div\n      0xff\n      and\n        /* \"Library.sol\":695:794  if(BookList[bookName].exists){... */\n      iszero\n      tag_67\n      jumpi\n        /* \"Library.sol\":738:783  revert(\"Book already exists in the Library!\") */\n      mload(0x40)\n      0x08c379a000000000000000000000000000000000000000000000000000000000\n      dup2\n      mstore\n      0x04\n      add\n      tag_68\n      swap1\n      tag_69\n      jump\t// in\n    tag_68:\n      mload(0x40)\n      dup1\n      swap2\n      sub\n      swap1\n      revert\n        /* \"Library.sol\":695:794  if(BookList[bookName].exists){... */\n    tag_67:\n        /* \"Library.sol\":828:835  counter */\n      sload(0x02)\n        /* \"Library.sol\":804:812  BookList */\n      0x03\n        /* \"Library.sol\":813:821  bookName */\n      dup3\n        /* \"Library.sol\":804:822  BookList[bookName] */\n      mload(0x40)\n      tag_70\n      swap2\n      swap1\n      tag_66\n      jump\t// in\n    tag_70:\n      swap1\n      dup2\n      mstore\n      0x20\n      add\n      mload(0x40)\n      dup1\n      swap2\n      sub\n      swap1\n      keccak256\n        /* \"Library.sol\":804:825  BookList[bookName].id */\n      0x00\n      add\n        /* \"Library.sol\":804:835  BookList[bookName].id = counter */\n      dup2\n      swap1\n      sstore\n      pop\n        /* \"Library.sol\":871:875  book */\n      dup2\n        /* \"Library.sol\":871:880  book.name */\n      dup1\n      0x20\n      add\n      swap1\n      tag_71\n      swap2\n      swap1\n      tag_64\n      jump\t// in\n    tag_71:\n        /* \"Library.sol\":845:853  BookList */\n      0x03\n        /* \"Library.sol\":854:862  bookName */\n      dup4\n        /* \"Library.sol\":845:863  BookList[bookName] */\n      mload(0x40)\n      tag_72\n      swap2\n      swap1\n      tag_66\n      jump\t// in\n    tag_72:\n      swap1\n      dup2\n      mstore\n      0x20\n      add\n      mload(0x40)\n      dup1\n      swap2\n      sub\n      swap1\n      keccak256\n        /* \"Library.sol\":845:868  BookList[bookName].name */\n      0x01\n      add\n        /* \"Library.sol\":845:880  BookList[bookName].name = book.name */\n      swap2\n      swap1\n      tag_73\n      swap3\n      swap2\n      swap1\n      tag_74\n      jump\t// in\n    tag_73:\n      pop\n        /* \"Library.sol\":920:924  book */\n      dup2\n        /* \"Library.sol\":920:933  book.quantity */\n      0x40\n      add\n      calldataload\n        /* \"Library.sol\":890:898  BookList */\n      0x03\n        /* \"Library.sol\":899:907  bookName */\n      dup3\n        /* \"Library.sol\":890:908  BookList[bookName] */\n      mload(0x40)\n      tag_75\n      swap2\n      swap1\n      tag_66\n      jump\t// in\n    tag_75:\n      swap1\n      dup2\n      mstore\n      0x20\n      add\n      mload(0x40)\n      dup1\n      swap2\n      sub\n      swap1\n      keccak256\n        /* \"Library.sol\":890:917  BookList[bookName].quantity */\n      0x02\n      add\n        /* \"Library.sol\":890:933  BookList[bookName].quantity = book.quantity */\n      dup2\n      swap1\n      sstore\n      pop\n        /* \"Library.sol\":971:975  true */\n      0x01\n        /* \"Library.sol\":943:951  BookList */\n      0x03\n        /* \"Library.sol\":952:960  bookName */\n      dup3\n        /* \"Library.sol\":943:961  BookList[bookName] */\n      mload(0x40)\n      tag_76\n      swap2\n      swap1\n      tag_66\n      jump\t// in\n    tag_76:\n      swap1\n      dup2\n      mstore\n      0x20\n      add\n      mload(0x40)\n      dup1\n      swap2\n      sub\n      swap1\n      keccak256\n        /* \"Library.sol\":943:968  BookList[bookName].exists */\n      0x03\n      add\n      0x00\n        /* \"Library.sol\":943:975  BookList[bookName].exists = true */\n      0x0100\n      exp\n      dup2\n      sload\n      dup2\n      0xff\n      mul\n      not\n      and\n      swap1\n      dup4\n      iszero\n      iszero\n      mul\n      or\n      swap1\n      sstore\n      pop\n        /* \"Library.sol\":985:992  counter */\n      0x02\n      0x00\n        /* \"Library.sol\":985:994  counter++ */\n      dup2\n      sload\n      dup1\n      swap3\n      swap2\n      swap1\n      tag_77\n      swap1\n      tag_78\n      jump\t// in\n    tag_77:\n      swap2\n      swap1\n      pop\n      sstore\n      pop\n        /* \"Library.sol\":517:518  _ */\n      pop\n        /* \"Library.sol\":585:1001  function AddBook(Book calldata book) public onlyOwnable{... */\n      pop\n      jump\t// out\n        /* \"Helpers.sol\":131:200  function removeItem(uint i) public{... */\n    tag_27:\n        /* \"Helpers.sol\":180:190  firstArray */\n      0x00\n        /* \"Helpers.sol\":191:192  i */\n      dup2\n        /* \"Helpers.sol\":180:193  firstArray[i] */\n      dup2\n      sload\n      dup2\n      lt\n      tag_80\n      jumpi\n      mstore(0x00, 0x4e487b7100000000000000000000000000000000000000000000000000000000)\n      mstore(0x04, 0x32)\n      revert(0x00, 0x24)\n    tag_80:\n      swap1\n      0x00\n      mstore\n      keccak256(0x00, 0x20)\n      add\n        /* \"Helpers.sol\":173:193  delete firstArray[i] */\n      0x00\n      swap1\n      sstore\n        /* \"Helpers.sol\":131:200  function removeItem(uint i) public{... */\n      pop\n      jump\t// out\n        /* \"Library.sol\":121:141  address public owner */\n    tag_29:\n      0x01\n      0x00\n      swap1\n      sload\n      swap1\n      0x0100\n      exp\n      swap1\n      div\n      0xffffffffffffffffffffffffffffffffffffffff\n      and\n      dup2\n      jump\t// out\n        /* \"Helpers.sol\":206:291  function getLength() public view returns(uint){... */\n    tag_33:\n        /* \"Helpers.sol\":247:251  uint */\n      0x00\n        /* \"Helpers.sol\":267:277  firstArray */\n      dup1\n        /* \"Helpers.sol\":267:284  firstArray.length */\n      dup1\n      sload\n      swap1\n      pop\n        /* \"Helpers.sol\":260:284  return firstArray.length */\n      swap1\n      pop\n        /* \"Helpers.sol\":206:291  function getLength() public view returns(uint){... */\n      swap1\n      jump\t// out\n        /* \"Helpers.sol\":1001:1180  function compareStrings(string memory a, string memory b) public view returns (bool) {... */\n    tag_38:\n        /* \"Helpers.sol\":1080:1084  bool */\n      0x00\n        /* \"Helpers.sol\":1168:1169  b */\n      dup2\n        /* \"Helpers.sol\":1150:1171  abi.encodePacked((b)) */\n      add(0x20, mload(0x40))\n      tag_84\n      swap2\n      swap1\n      tag_66\n      jump\t// in\n    tag_84:\n      mload(0x40)\n      0x20\n      dup2\n      dup4\n      sub\n      sub\n      dup2\n      mstore\n      swap1\n      0x40\n      mstore\n        /* \"Helpers.sol\":1140:1172  keccak256(abi.encodePacked((b))) */\n      dup1\n      mload\n      swap1\n      0x20\n      add\n      keccak256\n        /* \"Helpers.sol\":1132:1133  a */\n      dup4\n        /* \"Helpers.sol\":1114:1135  abi.encodePacked((a)) */\n      add(0x20, mload(0x40))\n      tag_85\n      swap2\n      swap1\n      tag_66\n      jump\t// in\n    tag_85:\n      mload(0x40)\n      0x20\n      dup2\n      dup4\n      sub\n      sub\n      dup2\n      mstore\n      swap1\n      0x40\n      mstore\n        /* \"Helpers.sol\":1104:1136  keccak256(abi.encodePacked((a))) */\n      dup1\n      mload\n      swap1\n      0x20\n      add\n      keccak256\n        /* \"Helpers.sol\":1104:1172  keccak256(abi.encodePacked((a))) == keccak256(abi.encodePacked((b))) */\n      eq\n        /* \"Helpers.sol\":1096:1173  return (keccak256(abi.encodePacked((a))) == keccak256(abi.encodePacked((b)))) */\n      swap1\n      pop\n        /* \"Helpers.sol\":1001:1180  function compareStrings(string memory a, string memory b) public view returns (bool) {... */\n      swap3\n      swap2\n      pop\n      pop\n      jump\t// out\n        /* \"Helpers.sol\":671:965  function StringArrContainsValue(string calldata value, string[] memory array) internal view returns(bool){   ... */\n    tag_54:\n        /* \"Helpers.sol\":771:775  bool */\n      0x00\n        /* \"Helpers.sol\":794:800  uint i */\n      dup1\n        /* \"Helpers.sol\":801:802  0 */\n      0x00\n        /* \"Helpers.sol\":794:802  uint i=0 */\n      swap1\n      pop\n        /* \"Helpers.sol\":789:937  for (uint i=0; i < array.length; i++) {... */\n    tag_87:\n        /* \"Helpers.sol\":808:813  array */\n      dup3\n        /* \"Helpers.sol\":808:820  array.length */\n      mload\n        /* \"Helpers.sol\":804:805  i */\n      dup2\n        /* \"Helpers.sol\":804:820  i < array.length */\n      lt\n        /* \"Helpers.sol\":789:937  for (uint i=0; i < array.length; i++) {... */\n      iszero\n      tag_88\n      jumpi\n        /* \"Helpers.sol\":845:876  compareStrings(value, array[i]) */\n      tag_90\n        /* \"Helpers.sol\":860:865  value */\n      dup6\n      dup6\n        /* \"Helpers.sol\":845:876  compareStrings(value, array[i]) */\n      dup1\n      dup1\n      0x1f\n      add\n      0x20\n      dup1\n      swap2\n      div\n      mul\n      0x20\n      add\n      mload(0x40)\n      swap1\n      dup2\n      add\n      0x40\n      mstore\n      dup1\n      swap4\n      swap3\n      swap2\n      swap1\n      dup2\n      dup2\n      mstore\n      0x20\n      add\n      dup4\n      dup4\n      dup1\n      dup3\n      dup5\n      calldatacopy\n      0x00\n      dup2\n      dup5\n      add\n      mstore\n      not(0x1f)\n      0x1f\n      dup3\n      add\n      and\n      swap1\n      pop\n      dup1\n      dup4\n      add\n      swap3\n      pop\n      pop\n      pop\n      pop\n      pop\n      pop\n      pop\n        /* \"Helpers.sol\":867:872  array */\n      dup5\n        /* \"Helpers.sol\":873:874  i */\n      dup4\n        /* \"Helpers.sol\":867:875  array[i] */\n      dup2\n      mload\n      dup2\n      lt\n      tag_91\n      jumpi\n      mstore(0x00, 0x4e487b7100000000000000000000000000000000000000000000000000000000)\n      mstore(0x04, 0x32)\n      revert(0x00, 0x24)\n    tag_91:\n      0x20\n      mul\n      0x20\n      add\n      add\n      mload\n        /* \"Helpers.sol\":845:859  compareStrings */\n      tag_38\n        /* \"Helpers.sol\":845:876  compareStrings(value, array[i]) */\n      jump\t// in\n    tag_90:\n        /* \"Helpers.sol\":841:927  if (compareStrings(value, array[i])) {     ... */\n      iszero\n      tag_92\n      jumpi\n        /* \"Helpers.sol\":908:912  true */\n      0x01\n        /* \"Helpers.sol\":901:912  return true */\n      swap2\n      pop\n      pop\n      jump(tag_86)\n        /* \"Helpers.sol\":841:927  if (compareStrings(value, array[i])) {     ... */\n    tag_92:\n        /* \"Helpers.sol\":822:825  i++ */\n      dup1\n      dup1\n      tag_93\n      swap1\n      tag_78\n      jump\t// in\n    tag_93:\n      swap2\n      pop\n      pop\n        /* \"Helpers.sol\":789:937  for (uint i=0; i < array.length; i++) {... */\n      jump(tag_87)\n    tag_88:\n      pop\n        /* \"Helpers.sol\":953:958  false */\n      0x00\n        /* \"Helpers.sol\":946:958  return false */\n      swap1\n      pop\n        /* \"Helpers.sol\":671:965  function StringArrContainsValue(string calldata value, string[] memory array) internal view returns(bool){   ... */\n    tag_86:\n      swap4\n      swap3\n      pop\n      pop\n      pop\n      jump\t// out\n    tag_74:\n      dup3\n      dup1\n      sload\n      tag_94\n      swap1\n      tag_49\n      jump\t// in\n    tag_94:\n      swap1\n      0x00\n      mstore\n      keccak256(0x00, 0x20)\n      swap1\n      0x1f\n      add\n      0x20\n      swap1\n      div\n      dup2\n      add\n      swap3\n      dup3\n      tag_96\n      jumpi\n      0x00\n      dup6\n      sstore\n      jump(tag_95)\n    tag_96:\n      dup3\n      0x1f\n      lt\n      tag_97\n      jumpi\n      dup1\n      calldataload\n      not(0xff)\n      and\n      dup4\n      dup1\n      add\n      or\n      dup6\n      sstore\n      jump(tag_95)\n    tag_97:\n      dup3\n      dup1\n      add\n      0x01\n      add\n      dup6\n      sstore\n      dup3\n      iszero\n      tag_95\n      jumpi\n      swap2\n      dup3\n      add\n    tag_98:\n      dup3\n      dup2\n      gt\n      iszero\n      tag_99\n      jumpi\n      dup3\n      calldataload\n      dup3\n      sstore\n      swap2\n      0x20\n      add\n      swap2\n      swap1\n      0x01\n      add\n      swap1\n      jump(tag_98)\n    tag_99:\n    tag_95:\n      pop\n      swap1\n      pop\n      tag_100\n      swap2\n      swap1\n      tag_101\n      jump\t// in\n    tag_100:\n      pop\n      swap1\n      jump\t// out\n    tag_101:\n    tag_102:\n      dup1\n      dup3\n      gt\n      iszero\n      tag_103\n      jumpi\n      0x00\n      dup2\n      0x00\n      swap1\n      sstore\n      pop\n      0x01\n      add\n      jump(tag_102)\n    tag_103:\n      pop\n      swap1\n      jump\t// out\n        /* \"#utility.yul\":7:351   */\n    tag_105:\n      0x00\n        /* \"#utility.yul\":110:175   */\n      tag_107\n        /* \"#utility.yul\":125:174   */\n      tag_108\n        /* \"#utility.yul\":167:173   */\n      dup5\n        /* \"#utility.yul\":125:174   */\n      tag_109\n      jump\t// in\n    tag_108:\n        /* \"#utility.yul\":110:175   */\n      tag_110\n      jump\t// in\n    tag_107:\n        /* \"#utility.yul\":101:175   */\n      swap1\n      pop\n        /* \"#utility.yul\":198:204   */\n      dup3\n        /* \"#utility.yul\":191:196   */\n      dup2\n        /* \"#utility.yul\":184:205   */\n      mstore\n        /* \"#utility.yul\":236:240   */\n      0x20\n        /* \"#utility.yul\":229:234   */\n      dup2\n        /* \"#utility.yul\":225:241   */\n      add\n        /* \"#utility.yul\":274:277   */\n      dup5\n        /* \"#utility.yul\":265:271   */\n      dup5\n        /* \"#utility.yul\":260:263   */\n      dup5\n        /* \"#utility.yul\":256:272   */\n      add\n        /* \"#utility.yul\":253:278   */\n      gt\n        /* \"#utility.yul\":250:252   */\n      iszero\n      tag_111\n      jumpi\n        /* \"#utility.yul\":291:292   */\n      0x00\n        /* \"#utility.yul\":288:289   */\n      dup1\n        /* \"#utility.yul\":281:293   */\n      revert\n        /* \"#utility.yul\":250:252   */\n    tag_111:\n        /* \"#utility.yul\":304:345   */\n      tag_112\n        /* \"#utility.yul\":338:344   */\n      dup5\n        /* \"#utility.yul\":333:336   */\n      dup3\n        /* \"#utility.yul\":328:331   */\n      dup6\n        /* \"#utility.yul\":304:345   */\n      tag_113\n      jump\t// in\n    tag_112:\n        /* \"#utility.yul\":91:351   */\n      pop\n      swap4\n      swap3\n      pop\n      pop\n      pop\n      jump\t// out\n        /* \"#utility.yul\":371:723   */\n    tag_114:\n      0x00\n      dup1\n        /* \"#utility.yul\":489:492   */\n      dup4\n        /* \"#utility.yul\":482:486   */\n      0x1f\n        /* \"#utility.yul\":474:480   */\n      dup5\n        /* \"#utility.yul\":470:487   */\n      add\n        /* \"#utility.yul\":466:493   */\n      slt\n        /* \"#utility.yul\":456:458   */\n      tag_116\n      jumpi\n        /* \"#utility.yul\":507:508   */\n      0x00\n        /* \"#utility.yul\":504:505   */\n      dup1\n        /* \"#utility.yul\":497:509   */\n      revert\n        /* \"#utility.yul\":456:458   */\n    tag_116:\n        /* \"#utility.yul\":543:549   */\n      dup3\n        /* \"#utility.yul\":530:550   */\n      calldataload\n        /* \"#utility.yul\":520:550   */\n      swap1\n      pop\n        /* \"#utility.yul\":573:591   */\n      0xffffffffffffffff\n        /* \"#utility.yul\":565:571   */\n      dup2\n        /* \"#utility.yul\":562:592   */\n      gt\n        /* \"#utility.yul\":559:561   */\n      iszero\n      tag_117\n      jumpi\n        /* \"#utility.yul\":605:606   */\n      0x00\n        /* \"#utility.yul\":602:603   */\n      dup1\n        /* \"#utility.yul\":595:607   */\n      revert\n        /* \"#utility.yul\":559:561   */\n    tag_117:\n        /* \"#utility.yul\":642:646   */\n      0x20\n        /* \"#utility.yul\":634:640   */\n      dup4\n        /* \"#utility.yul\":630:647   */\n      add\n        /* \"#utility.yul\":618:647   */\n      swap2\n      pop\n        /* \"#utility.yul\":696:699   */\n      dup4\n        /* \"#utility.yul\":688:692   */\n      0x01\n        /* \"#utility.yul\":680:686   */\n      dup3\n        /* \"#utility.yul\":676:693   */\n      mul\n        /* \"#utility.yul\":666:674   */\n      dup4\n        /* \"#utility.yul\":662:694   */\n      add\n        /* \"#utility.yul\":659:700   */\n      gt\n        /* \"#utility.yul\":656:658   */\n      iszero\n      tag_118\n      jumpi\n        /* \"#utility.yul\":713:714   */\n      0x00\n        /* \"#utility.yul\":710:711   */\n      dup1\n        /* \"#utility.yul\":703:715   */\n      revert\n        /* \"#utility.yul\":656:658   */\n    tag_118:\n        /* \"#utility.yul\":446:723   */\n      swap3\n      pop\n      swap3\n      swap1\n      pop\n      jump\t// out\n        /* \"#utility.yul\":743:1016   */\n    tag_119:\n      0x00\n        /* \"#utility.yul\":848:851   */\n      dup3\n        /* \"#utility.yul\":841:845   */\n      0x1f\n        /* \"#utility.yul\":833:839   */\n      dup4\n        /* \"#utility.yul\":829:846   */\n      add\n        /* \"#utility.yul\":825:852   */\n      slt\n        /* \"#utility.yul\":815:817   */\n      tag_121\n      jumpi\n        /* \"#utility.yul\":866:867   */\n      0x00\n        /* \"#utility.yul\":863:864   */\n      dup1\n        /* \"#utility.yul\":856:868   */\n      revert\n        /* \"#utility.yul\":815:817   */\n    tag_121:\n        /* \"#utility.yul\":906:912   */\n      dup2\n        /* \"#utility.yul\":893:913   */\n      calldataload\n        /* \"#utility.yul\":931:1010   */\n      tag_122\n        /* \"#utility.yul\":1006:1009   */\n      dup5\n        /* \"#utility.yul\":998:1004   */\n      dup3\n        /* \"#utility.yul\":991:995   */\n      0x20\n        /* \"#utility.yul\":983:989   */\n      dup7\n        /* \"#utility.yul\":979:996   */\n      add\n        /* \"#utility.yul\":931:1010   */\n      tag_105\n      jump\t// in\n    tag_122:\n        /* \"#utility.yul\":922:1010   */\n      swap2\n      pop\n        /* \"#utility.yul\":805:1016   */\n      pop\n      swap3\n      swap2\n      pop\n      pop\n      jump\t// out\n        /* \"#utility.yul\":1049:1210   */\n    tag_123:\n      0x00\n        /* \"#utility.yul\":1159:1162   */\n      0x80\n        /* \"#utility.yul\":1150:1156   */\n      dup3\n        /* \"#utility.yul\":1145:1148   */\n      dup5\n        /* \"#utility.yul\":1141:1157   */\n      sub\n        /* \"#utility.yul\":1137:1163   */\n      slt\n        /* \"#utility.yul\":1134:1136   */\n      iszero\n      tag_125\n      jumpi\n        /* \"#utility.yul\":1176:1177   */\n      0x00\n        /* \"#utility.yul\":1173:1174   */\n      dup1\n        /* \"#utility.yul\":1166:1178   */\n      revert\n        /* \"#utility.yul\":1134:1136   */\n    tag_125:\n        /* \"#utility.yul\":1198:1204   */\n      dup2\n        /* \"#utility.yul\":1189:1204   */\n      swap1\n      pop\n        /* \"#utility.yul\":1124:1210   */\n      swap3\n      swap2\n      pop\n      pop\n      jump\t// out\n        /* \"#utility.yul\":1216:1355   */\n    tag_126:\n      0x00\n        /* \"#utility.yul\":1300:1306   */\n      dup2\n        /* \"#utility.yul\":1287:1307   */\n      calldataload\n        /* \"#utility.yul\":1278:1307   */\n      swap1\n      pop\n        /* \"#utility.yul\":1316:1349   */\n      tag_128\n        /* \"#utility.yul\":1343:1348   */\n      dup2\n        /* \"#utility.yul\":1316:1349   */\n      tag_129\n      jump\t// in\n    tag_128:\n        /* \"#utility.yul\":1268:1355   */\n      swap3\n      swap2\n      pop\n      pop\n      jump\t// out\n        /* \"#utility.yul\":1361:1756   */\n    tag_19:\n      0x00\n      dup1\n        /* \"#utility.yul\":1489:1491   */\n      0x20\n        /* \"#utility.yul\":1477:1486   */\n      dup4\n        /* \"#utility.yul\":1468:1475   */\n      dup6\n        /* \"#utility.yul\":1464:1487   */\n      sub\n        /* \"#utility.yul\":1460:1492   */\n      slt\n        /* \"#utility.yul\":1457:1459   */\n      iszero\n      tag_131\n      jumpi\n        /* \"#utility.yul\":1505:1506   */\n      0x00\n        /* \"#utility.yul\":1502:1503   */\n      dup1\n        /* \"#utility.yul\":1495:1507   */\n      revert\n        /* \"#utility.yul\":1457:1459   */\n    tag_131:\n        /* \"#utility.yul\":1576:1577   */\n      0x00\n        /* \"#utility.yul\":1565:1574   */\n      dup4\n        /* \"#utility.yul\":1561:1578   */\n      add\n        /* \"#utility.yul\":1548:1579   */\n      calldataload\n        /* \"#utility.yul\":1606:1624   */\n      0xffffffffffffffff\n        /* \"#utility.yul\":1598:1604   */\n      dup2\n        /* \"#utility.yul\":1595:1625   */\n      gt\n        /* \"#utility.yul\":1592:1594   */\n      iszero\n      tag_132\n      jumpi\n        /* \"#utility.yul\":1638:1639   */\n      0x00\n        /* \"#utility.yul\":1635:1636   */\n      dup1\n        /* \"#utility.yul\":1628:1640   */\n      revert\n        /* \"#utility.yul\":1592:1594   */\n    tag_132:\n        /* \"#utility.yul\":1674:1739   */\n      tag_133\n        /* \"#utility.yul\":1731:1738   */\n      dup6\n        /* \"#utility.yul\":1722:1728   */\n      dup3\n        /* \"#utility.yul\":1711:1720   */\n      dup7\n        /* \"#utility.yul\":1707:1729   */\n      add\n        /* \"#utility.yul\":1674:1739   */\n      tag_114\n      jump\t// in\n    tag_133:\n        /* \"#utility.yul\":1656:1739   */\n      swap3\n      pop\n      swap3\n      pop\n        /* \"#utility.yul\":1519:1749   */\n      pop\n        /* \"#utility.yul\":1447:1756   */\n      swap3\n      pop\n      swap3\n      swap1\n      pop\n      jump\t// out\n        /* \"#utility.yul\":1762:2395   */\n    tag_37:\n      0x00\n      dup1\n        /* \"#utility.yul\":1907:1909   */\n      0x40\n        /* \"#utility.yul\":1895:1904   */\n      dup4\n        /* \"#utility.yul\":1886:1893   */\n      dup6\n        /* \"#utility.yul\":1882:1905   */\n      sub\n        /* \"#utility.yul\":1878:1910   */\n      slt\n        /* \"#utility.yul\":1875:1877   */\n      iszero\n      tag_135\n      jumpi\n        /* \"#utility.yul\":1923:1924   */\n      0x00\n        /* \"#utility.yul\":1920:1921   */\n      dup1\n        /* \"#utility.yul\":1913:1925   */\n      revert\n        /* \"#utility.yul\":1875:1877   */\n    tag_135:\n        /* \"#utility.yul\":1994:1995   */\n      0x00\n        /* \"#utility.yul\":1983:1992   */\n      dup4\n        /* \"#utility.yul\":1979:1996   */\n      add\n        /* \"#utility.yul\":1966:1997   */\n      calldataload\n        /* \"#utility.yul\":2024:2042   */\n      0xffffffffffffffff\n        /* \"#utility.yul\":2016:2022   */\n      dup2\n        /* \"#utility.yul\":2013:2043   */\n      gt\n        /* \"#utility.yul\":2010:2012   */\n      iszero\n      tag_136\n      jumpi\n        /* \"#utility.yul\":2056:2057   */\n      0x00\n        /* \"#utility.yul\":2053:2054   */\n      dup1\n        /* \"#utility.yul\":2046:2058   */\n      revert\n        /* \"#utility.yul\":2010:2012   */\n    tag_136:\n        /* \"#utility.yul\":2084:2147   */\n      tag_137\n        /* \"#utility.yul\":2139:2146   */\n      dup6\n        /* \"#utility.yul\":2130:2136   */\n      dup3\n        /* \"#utility.yul\":2119:2128   */\n      dup7\n        /* \"#utility.yul\":2115:2137   */\n      add\n        /* \"#utility.yul\":2084:2147   */\n      tag_119\n      jump\t// in\n    tag_137:\n        /* \"#utility.yul\":2074:2147   */\n      swap3\n      pop\n        /* \"#utility.yul\":1937:2157   */\n      pop\n        /* \"#utility.yul\":2224:2226   */\n      0x20\n        /* \"#utility.yul\":2213:2222   */\n      dup4\n        /* \"#utility.yul\":2209:2227   */\n      add\n        /* \"#utility.yul\":2196:2228   */\n      calldataload\n        /* \"#utility.yul\":2255:2273   */\n      0xffffffffffffffff\n        /* \"#utility.yul\":2247:2253   */\n      dup2\n        /* \"#utility.yul\":2244:2274   */\n      gt\n        /* \"#utility.yul\":2241:2243   */\n      iszero\n      tag_138\n      jumpi\n        /* \"#utility.yul\":2287:2288   */\n      0x00\n        /* \"#utility.yul\":2284:2285   */\n      dup1\n        /* \"#utility.yul\":2277:2289   */\n      revert\n        /* \"#utility.yul\":2241:2243   */\n    tag_138:\n        /* \"#utility.yul\":2315:2378   */\n      tag_139\n        /* \"#utility.yul\":2370:2377   */\n      dup6\n        /* \"#utility.yul\":2361:2367   */\n      dup3\n        /* \"#utility.yul\":2350:2359   */\n      dup7\n        /* \"#utility.yul\":2346:2368   */\n      add\n        /* \"#utility.yul\":2315:2378   */\n      tag_119\n      jump\t// in\n    tag_139:\n        /* \"#utility.yul\":2305:2378   */\n      swap2\n      pop\n        /* \"#utility.yul\":2167:2388   */\n      pop\n        /* \"#utility.yul\":1865:2395   */\n      swap3\n      pop\n      swap3\n      swap1\n      pop\n      jump\t// out\n        /* \"#utility.yul\":2401:2802   */\n    tag_23:\n      0x00\n        /* \"#utility.yul\":2532:2534   */\n      0x20\n        /* \"#utility.yul\":2520:2529   */\n      dup3\n        /* \"#utility.yul\":2511:2518   */\n      dup5\n        /* \"#utility.yul\":2507:2530   */\n      sub\n        /* \"#utility.yul\":2503:2535   */\n      slt\n        /* \"#utility.yul\":2500:2502   */\n      iszero\n      tag_141\n      jumpi\n        /* \"#utility.yul\":2548:2549   */\n      0x00\n        /* \"#utility.yul\":2545:2546   */\n      dup1\n        /* \"#utility.yul\":2538:2550   */\n      revert\n        /* \"#utility.yul\":2500:2502   */\n    tag_141:\n        /* \"#utility.yul\":2619:2620   */\n      0x00\n        /* \"#utility.yul\":2608:2617   */\n      dup3\n        /* \"#utility.yul\":2604:2621   */\n      add\n        /* \"#utility.yul\":2591:2622   */\n      calldataload\n        /* \"#utility.yul\":2649:2667   */\n      0xffffffffffffffff\n        /* \"#utility.yul\":2641:2647   */\n      dup2\n        /* \"#utility.yul\":2638:2668   */\n      gt\n        /* \"#utility.yul\":2635:2637   */\n      iszero\n      tag_142\n      jumpi\n        /* \"#utility.yul\":2681:2682   */\n      0x00\n        /* \"#utility.yul\":2678:2679   */\n      dup1\n        /* \"#utility.yul\":2671:2683   */\n      revert\n        /* \"#utility.yul\":2635:2637   */\n    tag_142:\n        /* \"#utility.yul\":2709:2785   */\n      tag_143\n        /* \"#utility.yul\":2777:2784   */\n      dup5\n        /* \"#utility.yul\":2768:2774   */\n      dup3\n        /* \"#utility.yul\":2757:2766   */\n      dup6\n        /* \"#utility.yul\":2753:2775   */\n      add\n        /* \"#utility.yul\":2709:2785   */\n      tag_123\n      jump\t// in\n    tag_143:\n        /* \"#utility.yul\":2699:2785   */\n      swap2\n      pop\n        /* \"#utility.yul\":2562:2795   */\n      pop\n        /* \"#utility.yul\":2490:2802   */\n      swap3\n      swap2\n      pop\n      pop\n      jump\t// out\n        /* \"#utility.yul\":2808:3070   */\n    tag_13:\n      0x00\n        /* \"#utility.yul\":2916:2918   */\n      0x20\n        /* \"#utility.yul\":2904:2913   */\n      dup3\n        /* \"#utility.yul\":2895:2902   */\n      dup5\n        /* \"#utility.yul\":2891:2914   */\n      sub\n        /* \"#utility.yul\":2887:2919   */\n      slt\n        /* \"#utility.yul\":2884:2886   */\n      iszero\n      tag_145\n      jumpi\n        /* \"#utility.yul\":2932:2933   */\n      0x00\n        /* \"#utility.yul\":2929:2930   */\n      dup1\n        /* \"#utility.yul\":2922:2934   */\n      revert\n        /* \"#utility.yul\":2884:2886   */\n    tag_145:\n        /* \"#utility.yul\":2975:2976   */\n      0x00\n        /* \"#utility.yul\":3000:3053   */\n      tag_146\n        /* \"#utility.yul\":3045:3052   */\n      dup5\n        /* \"#utility.yul\":3036:3042   */\n      dup3\n        /* \"#utility.yul\":3025:3034   */\n      dup6\n        /* \"#utility.yul\":3021:3043   */\n      add\n        /* \"#utility.yul\":3000:3053   */\n      tag_126\n      jump\t// in\n    tag_146:\n        /* \"#utility.yul\":2990:3053   */\n      swap2\n      pop\n        /* \"#utility.yul\":2946:3063   */\n      pop\n        /* \"#utility.yul\":2874:3070   */\n      swap3\n      swap2\n      pop\n      pop\n      jump\t// out\n        /* \"#utility.yul\":3076:3194   */\n    tag_147:\n        /* \"#utility.yul\":3163:3187   */\n      tag_149\n        /* \"#utility.yul\":3181:3186   */\n      dup2\n        /* \"#utility.yul\":3163:3187   */\n      tag_150\n      jump\t// in\n    tag_149:\n        /* \"#utility.yul\":3158:3161   */\n      dup3\n        /* \"#utility.yul\":3151:3188   */\n      mstore\n        /* \"#utility.yul\":3141:3194   */\n      pop\n      pop\n      jump\t// out\n        /* \"#utility.yul\":3200:3309   */\n    tag_151:\n        /* \"#utility.yul\":3281:3302   */\n      tag_153\n        /* \"#utility.yul\":3296:3301   */\n      dup2\n        /* \"#utility.yul\":3281:3302   */\n      tag_154\n      jump\t// in\n    tag_153:\n        /* \"#utility.yul\":3276:3279   */\n      dup3\n        /* \"#utility.yul\":3269:3303   */\n      mstore\n        /* \"#utility.yul\":3259:3309   */\n      pop\n      pop\n      jump\t// out\n        /* \"#utility.yul\":3315:3692   */\n    tag_155:\n      0x00\n        /* \"#utility.yul\":3449:3488   */\n      tag_157\n        /* \"#utility.yul\":3482:3487   */\n      dup3\n        /* \"#utility.yul\":3449:3488   */\n      tag_158\n      jump\t// in\n    tag_157:\n        /* \"#utility.yul\":3504:3593   */\n      tag_159\n        /* \"#utility.yul\":3586:3592   */\n      dup2\n        /* \"#utility.yul\":3581:3584   */\n      dup6\n        /* \"#utility.yul\":3504:3593   */\n      tag_160\n      jump\t// in\n    tag_159:\n        /* \"#utility.yul\":3497:3593   */\n      swap4\n      pop\n        /* \"#utility.yul\":3602:3654   */\n      tag_161\n        /* \"#utility.yul\":3647:3653   */\n      dup2\n        /* \"#utility.yul\":3642:3645   */\n      dup6\n        /* \"#utility.yul\":3635:3639   */\n      0x20\n        /* \"#utility.yul\":3628:3633   */\n      dup7\n        /* \"#utility.yul\":3624:3640   */\n      add\n        /* \"#utility.yul\":3602:3654   */\n      tag_162\n      jump\t// in\n    tag_161:\n        /* \"#utility.yul\":3679:3685   */\n      dup1\n        /* \"#utility.yul\":3674:3677   */\n      dup5\n        /* \"#utility.yul\":3670:3686   */\n      add\n        /* \"#utility.yul\":3663:3686   */\n      swap2\n      pop\n        /* \"#utility.yul\":3425:3692   */\n      pop\n      swap3\n      swap2\n      pop\n      pop\n      jump\t// out\n        /* \"#utility.yul\":3698:4070   */\n    tag_163:\n      0x00\n        /* \"#utility.yul\":3861:3928   */\n      tag_165\n        /* \"#utility.yul\":3925:3927   */\n      0x28\n        /* \"#utility.yul\":3920:3923   */\n      dup4\n        /* \"#utility.yul\":3861:3928   */\n      tag_166\n      jump\t// in\n    tag_165:\n        /* \"#utility.yul\":3854:3928   */\n      swap2\n      pop\n        /* \"#utility.yul\":3958:3992   */\n      0x5468697320626f6f6b20616c72656164792065786973747320696e2074686520\n        /* \"#utility.yul\":3954:3955   */\n      0x00\n        /* \"#utility.yul\":3949:3952   */\n      dup4\n        /* \"#utility.yul\":3945:3956   */\n      add\n        /* \"#utility.yul\":3938:3993   */\n      mstore\n        /* \"#utility.yul\":4024:4034   */\n      0x4c69627261727921000000000000000000000000000000000000000000000000\n        /* \"#utility.yul\":4019:4021   */\n      0x20\n        /* \"#utility.yul\":4014:4017   */\n      dup4\n        /* \"#utility.yul\":4010:4022   */\n      add\n        /* \"#utility.yul\":4003:4035   */\n      mstore\n        /* \"#utility.yul\":4061:4063   */\n      0x40\n        /* \"#utility.yul\":4056:4059   */\n      dup3\n        /* \"#utility.yul\":4052:4064   */\n      add\n        /* \"#utility.yul\":4045:4064   */\n      swap1\n      pop\n        /* \"#utility.yul\":3844:4070   */\n      swap2\n      swap1\n      pop\n      jump\t// out\n        /* \"#utility.yul\":4076:4400   */\n    tag_167:\n      0x00\n        /* \"#utility.yul\":4239:4306   */\n      tag_169\n        /* \"#utility.yul\":4303:4305   */\n      0x1a\n        /* \"#utility.yul\":4298:4301   */\n      dup4\n        /* \"#utility.yul\":4239:4306   */\n      tag_166\n      jump\t// in\n    tag_169:\n        /* \"#utility.yul\":4232:4306   */\n      swap2\n      pop\n        /* \"#utility.yul\":4336:4364   */\n      0x43757272656e742075736572206973206e6f74206f776e657221000000000000\n        /* \"#utility.yul\":4332:4333   */\n      0x00\n        /* \"#utility.yul\":4327:4330   */\n      dup4\n        /* \"#utility.yul\":4323:4334   */\n      add\n        /* \"#utility.yul\":4316:4365   */\n      mstore\n        /* \"#utility.yul\":4391:4393   */\n      0x20\n        /* \"#utility.yul\":4386:4389   */\n      dup3\n        /* \"#utility.yul\":4382:4394   */\n      add\n        /* \"#utility.yul\":4375:4394   */\n      swap1\n      pop\n        /* \"#utility.yul\":4222:4400   */\n      swap2\n      swap1\n      pop\n      jump\t// out\n        /* \"#utility.yul\":4406:4773   */\n    tag_170:\n      0x00\n        /* \"#utility.yul\":4569:4636   */\n      tag_172\n        /* \"#utility.yul\":4633:4635   */\n      0x23\n        /* \"#utility.yul\":4628:4631   */\n      dup4\n        /* \"#utility.yul\":4569:4636   */\n      tag_166\n      jump\t// in\n    tag_172:\n        /* \"#utility.yul\":4562:4636   */\n      swap2\n      pop\n        /* \"#utility.yul\":4666:4700   */\n      0x426f6f6b20616c72656164792065786973747320696e20746865204c69627261\n        /* \"#utility.yul\":4662:4663   */\n      0x00\n        /* \"#utility.yul\":4657:4660   */\n      dup4\n        /* \"#utility.yul\":4653:4664   */\n      add\n        /* \"#utility.yul\":4646:4701   */\n      mstore\n        /* \"#utility.yul\":4732:4737   */\n      0x7279210000000000000000000000000000000000000000000000000000000000\n        /* \"#utility.yul\":4727:4729   */\n      0x20\n        /* \"#utility.yul\":4722:4725   */\n      dup4\n        /* \"#utility.yul\":4718:4730   */\n      add\n        /* \"#utility.yul\":4711:4738   */\n      mstore\n        /* \"#utility.yul\":4764:4766   */\n      0x40\n        /* \"#utility.yul\":4759:4762   */\n      dup3\n        /* \"#utility.yul\":4755:4767   */\n      add\n        /* \"#utility.yul\":4748:4767   */\n      swap1\n      pop\n        /* \"#utility.yul\":4552:4773   */\n      swap2\n      swap1\n      pop\n      jump\t// out\n        /* \"#utility.yul\":4779:4897   */\n    tag_173:\n        /* \"#utility.yul\":4866:4890   */\n      tag_175\n        /* \"#utility.yul\":4884:4889   */\n      dup2\n        /* \"#utility.yul\":4866:4890   */\n      tag_176\n      jump\t// in\n    tag_175:\n        /* \"#utility.yul\":4861:4864   */\n      dup3\n        /* \"#utility.yul\":4854:4891   */\n      mstore\n        /* \"#utility.yul\":4844:4897   */\n      pop\n      pop\n      jump\t// out\n        /* \"#utility.yul\":4903:5178   */\n    tag_66:\n      0x00\n        /* \"#utility.yul\":5057:5152   */\n      tag_178\n        /* \"#utility.yul\":5148:5151   */\n      dup3\n        /* \"#utility.yul\":5139:5145   */\n      dup5\n        /* \"#utility.yul\":5057:5152   */\n      tag_155\n      jump\t// in\n    tag_178:\n        /* \"#utility.yul\":5050:5152   */\n      swap2\n      pop\n        /* \"#utility.yul\":5169:5172   */\n      dup2\n        /* \"#utility.yul\":5162:5172   */\n      swap1\n      pop\n        /* \"#utility.yul\":5039:5178   */\n      swap3\n      swap2\n      pop\n      pop\n      jump\t// out\n        /* \"#utility.yul\":5184:5406   */\n    tag_31:\n      0x00\n        /* \"#utility.yul\":5315:5317   */\n      0x20\n        /* \"#utility.yul\":5304:5313   */\n      dup3\n        /* \"#utility.yul\":5300:5318   */\n      add\n        /* \"#utility.yul\":5292:5318   */\n      swap1\n      pop\n        /* \"#utility.yul\":5328:5399   */\n      tag_180\n        /* \"#utility.yul\":5396:5397   */\n      0x00\n        /* \"#utility.yul\":5385:5394   */\n      dup4\n        /* \"#utility.yul\":5381:5398   */\n      add\n        /* \"#utility.yul\":5372:5378   */\n      dup5\n        /* \"#utility.yul\":5328:5399   */\n      tag_147\n      jump\t// in\n    tag_180:\n        /* \"#utility.yul\":5282:5406   */\n      swap3\n      swap2\n      pop\n      pop\n      jump\t// out\n        /* \"#utility.yul\":5412:5622   */\n    tag_40:\n      0x00\n        /* \"#utility.yul\":5537:5539   */\n      0x20\n        /* \"#utility.yul\":5526:5535   */\n      dup3\n        /* \"#utility.yul\":5522:5540   */\n      add\n        /* \"#utility.yul\":5514:5540   */\n      swap1\n      pop\n        /* \"#utility.yul\":5550:5615   */\n      tag_182\n        /* \"#utility.yul\":5612:5613   */\n      0x00\n        /* \"#utility.yul\":5601:5610   */\n      dup4\n        /* \"#utility.yul\":5597:5614   */\n      add\n        /* \"#utility.yul\":5588:5594   */\n      dup5\n        /* \"#utility.yul\":5550:5615   */\n      tag_151\n      jump\t// in\n    tag_182:\n        /* \"#utility.yul\":5504:5622   */\n      swap3\n      swap2\n      pop\n      pop\n      jump\t// out\n        /* \"#utility.yul\":5628:6047   */\n    tag_57:\n      0x00\n        /* \"#utility.yul\":5832:5834   */\n      0x20\n        /* \"#utility.yul\":5821:5830   */\n      dup3\n        /* \"#utility.yul\":5817:5835   */\n      add\n        /* \"#utility.yul\":5809:5835   */\n      swap1\n      pop\n        /* \"#utility.yul\":5881:5890   */\n      dup2\n        /* \"#utility.yul\":5875:5879   */\n      dup2\n        /* \"#utility.yul\":5871:5891   */\n      sub\n        /* \"#utility.yul\":5867:5868   */\n      0x00\n        /* \"#utility.yul\":5856:5865   */\n      dup4\n        /* \"#utility.yul\":5852:5869   */\n      add\n        /* \"#utility.yul\":5845:5892   */\n      mstore\n        /* \"#utility.yul\":5909:6040   */\n      tag_184\n        /* \"#utility.yul\":6035:6039   */\n      dup2\n        /* \"#utility.yul\":5909:6040   */\n      tag_163\n      jump\t// in\n    tag_184:\n        /* \"#utility.yul\":5901:6040   */\n      swap1\n      pop\n        /* \"#utility.yul\":5799:6047   */\n      swap2\n      swap1\n      pop\n      jump\t// out\n        /* \"#utility.yul\":6053:6472   */\n    tag_61:\n      0x00\n        /* \"#utility.yul\":6257:6259   */\n      0x20\n        /* \"#utility.yul\":6246:6255   */\n      dup3\n        /* \"#utility.yul\":6242:6260   */\n      add\n        /* \"#utility.yul\":6234:6260   */\n      swap1\n      pop\n        /* \"#utility.yul\":6306:6315   */\n      dup2\n        /* \"#utility.yul\":6300:6304   */\n      dup2\n        /* \"#utility.yul\":6296:6316   */\n      sub\n        /* \"#utility.yul\":6292:6293   */\n      0x00\n        /* \"#utility.yul\":6281:6290   */\n      dup4\n        /* \"#utility.yul\":6277:6294   */\n      add\n        /* \"#utility.yul\":6270:6317   */\n      mstore\n        /* \"#utility.yul\":6334:6465   */\n      tag_186\n        /* \"#utility.yul\":6460:6464   */\n      dup2\n        /* \"#utility.yul\":6334:6465   */\n      tag_167\n      jump\t// in\n    tag_186:\n        /* \"#utility.yul\":6326:6465   */\n      swap1\n      pop\n        /* \"#utility.yul\":6224:6472   */\n      swap2\n      swap1\n      pop\n      jump\t// out\n        /* \"#utility.yul\":6478:6897   */\n    tag_69:\n      0x00\n        /* \"#utility.yul\":6682:6684   */\n      0x20\n        /* \"#utility.yul\":6671:6680   */\n      dup3\n        /* \"#utility.yul\":6667:6685   */\n      add\n        /* \"#utility.yul\":6659:6685   */\n      swap1\n      pop\n        /* \"#utility.yul\":6731:6740   */\n      dup2\n        /* \"#utility.yul\":6725:6729   */\n      dup2\n        /* \"#utility.yul\":6721:6741   */\n      sub\n        /* \"#utility.yul\":6717:6718   */\n      0x00\n        /* \"#utility.yul\":6706:6715   */\n      dup4\n        /* \"#utility.yul\":6702:6719   */\n      add\n        /* \"#utility.yul\":6695:6742   */\n      mstore\n        /* \"#utility.yul\":6759:6890   */\n      tag_188\n        /* \"#utility.yul\":6885:6889   */\n      dup2\n        /* \"#utility.yul\":6759:6890   */\n      tag_170\n      jump\t// in\n    tag_188:\n        /* \"#utility.yul\":6751:6890   */\n      swap1\n      pop\n        /* \"#utility.yul\":6649:6897   */\n      swap2\n      swap1\n      pop\n      jump\t// out\n        /* \"#utility.yul\":6903:7125   */\n    tag_16:\n      0x00\n        /* \"#utility.yul\":7034:7036   */\n      0x20\n        /* \"#utility.yul\":7023:7032   */\n      dup3\n        /* \"#utility.yul\":7019:7037   */\n      add\n        /* \"#utility.yul\":7011:7037   */\n      swap1\n      pop\n        /* \"#utility.yul\":7047:7118   */\n      tag_190\n        /* \"#utility.yul\":7115:7116   */\n      0x00\n        /* \"#utility.yul\":7104:7113   */\n      dup4\n        /* \"#utility.yul\":7100:7117   */\n      add\n        /* \"#utility.yul\":7091:7097   */\n      dup5\n        /* \"#utility.yul\":7047:7118   */\n      tag_173\n      jump\t// in\n    tag_190:\n        /* \"#utility.yul\":7001:7125   */\n      swap3\n      swap2\n      pop\n      pop\n      jump\t// out\n        /* \"#utility.yul\":7131:7655   */\n    tag_64:\n      0x00\n      dup1\n        /* \"#utility.yul\":7271:7282   */\n      dup4\n        /* \"#utility.yul\":7258:7283   */\n      calldataload\n        /* \"#utility.yul\":7371:7372   */\n      0x01\n        /* \"#utility.yul\":7365:7369   */\n      0x20\n        /* \"#utility.yul\":7361:7373   */\n      sub\n        /* \"#utility.yul\":7350:7358   */\n      dup5\n        /* \"#utility.yul\":7334:7348   */\n      calldatasize\n        /* \"#utility.yul\":7330:7359   */\n      sub\n        /* \"#utility.yul\":7326:7374   */\n      sub\n        /* \"#utility.yul\":7306:7324   */\n      dup2\n        /* \"#utility.yul\":7302:7375   */\n      slt\n        /* \"#utility.yul\":7292:7294   */\n      tag_192\n      jumpi\n        /* \"#utility.yul\":7389:7390   */\n      0x00\n        /* \"#utility.yul\":7386:7387   */\n      dup1\n        /* \"#utility.yul\":7379:7391   */\n      revert\n        /* \"#utility.yul\":7292:7294   */\n    tag_192:\n        /* \"#utility.yul\":7424:7442   */\n      dup1\n        /* \"#utility.yul\":7414:7422   */\n      dup5\n        /* \"#utility.yul\":7410:7443   */\n      add\n        /* \"#utility.yul\":7402:7443   */\n      swap3\n      pop\n        /* \"#utility.yul\":7476:7480   */\n      dup3\n        /* \"#utility.yul\":7463:7481   */\n      calldataload\n        /* \"#utility.yul\":7453:7481   */\n      swap2\n      pop\n        /* \"#utility.yul\":7504:7522   */\n      0xffffffffffffffff\n        /* \"#utility.yul\":7496:7502   */\n      dup3\n        /* \"#utility.yul\":7493:7523   */\n      gt\n        /* \"#utility.yul\":7490:7492   */\n      iszero\n      tag_193\n      jumpi\n        /* \"#utility.yul\":7536:7537   */\n      0x00\n        /* \"#utility.yul\":7533:7534   */\n      dup1\n        /* \"#utility.yul\":7526:7538   */\n      revert\n        /* \"#utility.yul\":7490:7492   */\n    tag_193:\n        /* \"#utility.yul\":7567:7569   */\n      0x20\n        /* \"#utility.yul\":7561:7565   */\n      dup4\n        /* \"#utility.yul\":7557:7570   */\n      add\n        /* \"#utility.yul\":7549:7570   */\n      swap3\n      pop\n        /* \"#utility.yul\":7624:7628   */\n      0x01\n        /* \"#utility.yul\":7616:7622   */\n      dup3\n        /* \"#utility.yul\":7612:7629   */\n      mul\n        /* \"#utility.yul\":7596:7610   */\n      calldatasize\n        /* \"#utility.yul\":7592:7630   */\n      sub\n        /* \"#utility.yul\":7586:7590   */\n      dup4\n        /* \"#utility.yul\":7582:7631   */\n      sgt\n        /* \"#utility.yul\":7579:7581   */\n      iszero\n      tag_194\n      jumpi\n        /* \"#utility.yul\":7644:7645   */\n      0x00\n        /* \"#utility.yul\":7641:7642   */\n      dup1\n        /* \"#utility.yul\":7634:7646   */\n      revert\n        /* \"#utility.yul\":7579:7581   */\n    tag_194:\n        /* \"#utility.yul\":7222:7655   */\n      pop\n      swap3\n      pop\n      swap3\n      swap1\n      pop\n      jump\t// out\n        /* \"#utility.yul\":7661:7944   */\n    tag_110:\n      0x00\n        /* \"#utility.yul\":7727:7729   */\n      0x40\n        /* \"#utility.yul\":7721:7730   */\n      mload\n        /* \"#utility.yul\":7711:7730   */\n      swap1\n      pop\n        /* \"#utility.yul\":7769:7773   */\n      dup2\n        /* \"#utility.yul\":7761:7767   */\n      dup2\n        /* \"#utility.yul\":7757:7774   */\n      add\n        /* \"#utility.yul\":7876:7882   */\n      dup2\n        /* \"#utility.yul\":7864:7874   */\n      dup2\n        /* \"#utility.yul\":7861:7883   */\n      lt\n        /* \"#utility.yul\":7840:7858   */\n      0xffffffffffffffff\n        /* \"#utility.yul\":7828:7838   */\n      dup3\n        /* \"#utility.yul\":7825:7859   */\n      gt\n        /* \"#utility.yul\":7822:7884   */\n      or\n        /* \"#utility.yul\":7819:7821   */\n      iszero\n      tag_196\n      jumpi\n        /* \"#utility.yul\":7887:7905   */\n      tag_197\n      tag_198\n      jump\t// in\n    tag_197:\n        /* \"#utility.yul\":7819:7821   */\n    tag_196:\n        /* \"#utility.yul\":7927:7937   */\n      dup1\n        /* \"#utility.yul\":7923:7925   */\n      0x40\n        /* \"#utility.yul\":7916:7938   */\n      mstore\n        /* \"#utility.yul\":7701:7944   */\n      pop\n      swap2\n      swap1\n      pop\n      jump\t// out\n        /* \"#utility.yul\":7950:8282   */\n    tag_109:\n      0x00\n        /* \"#utility.yul\":8102:8120   */\n      0xffffffffffffffff\n        /* \"#utility.yul\":8094:8100   */\n      dup3\n        /* \"#utility.yul\":8091:8121   */\n      gt\n        /* \"#utility.yul\":8088:8090   */\n      iszero\n      tag_200\n      jumpi\n        /* \"#utility.yul\":8124:8142   */\n      tag_201\n      tag_198\n      jump\t// in\n    tag_201:\n        /* \"#utility.yul\":8088:8090   */\n    tag_200:\n        /* \"#utility.yul\":8209:8213   */\n      0x1f\n        /* \"#utility.yul\":8205:8214   */\n      not\n        /* \"#utility.yul\":8198:8202   */\n      0x1f\n        /* \"#utility.yul\":8190:8196   */\n      dup4\n        /* \"#utility.yul\":8186:8203   */\n      add\n        /* \"#utility.yul\":8182:8215   */\n      and\n        /* \"#utility.yul\":8174:8215   */\n      swap1\n      pop\n        /* \"#utility.yul\":8270:8274   */\n      0x20\n        /* \"#utility.yul\":8264:8268   */\n      dup2\n        /* \"#utility.yul\":8260:8275   */\n      add\n        /* \"#utility.yul\":8252:8275   */\n      swap1\n      pop\n        /* \"#utility.yul\":8017:8282   */\n      swap2\n      swap1\n      pop\n      jump\t// out\n        /* \"#utility.yul\":8288:8387   */\n    tag_158:\n      0x00\n        /* \"#utility.yul\":8374:8379   */\n      dup2\n        /* \"#utility.yul\":8368:8380   */\n      mload\n        /* \"#utility.yul\":8358:8380   */\n      swap1\n      pop\n        /* \"#utility.yul\":8347:8387   */\n      swap2\n      swap1\n      pop\n      jump\t// out\n        /* \"#utility.yul\":8393:8562   */\n    tag_166:\n      0x00\n        /* \"#utility.yul\":8511:8517   */\n      dup3\n        /* \"#utility.yul\":8506:8509   */\n      dup3\n        /* \"#utility.yul\":8499:8518   */\n      mstore\n        /* \"#utility.yul\":8551:8555   */\n      0x20\n        /* \"#utility.yul\":8546:8549   */\n      dup3\n        /* \"#utility.yul\":8542:8556   */\n      add\n        /* \"#utility.yul\":8527:8556   */\n      swap1\n      pop\n        /* \"#utility.yul\":8489:8562   */\n      swap3\n      swap2\n      pop\n      pop\n      jump\t// out\n        /* \"#utility.yul\":8568:8716   */\n    tag_160:\n      0x00\n        /* \"#utility.yul\":8707:8710   */\n      dup2\n        /* \"#utility.yul\":8692:8710   */\n      swap1\n      pop\n        /* \"#utility.yul\":8682:8716   */\n      swap3\n      swap2\n      pop\n      pop\n      jump\t// out\n        /* \"#utility.yul\":8722:8818   */\n    tag_150:\n      0x00\n        /* \"#utility.yul\":8788:8812   */\n      tag_206\n        /* \"#utility.yul\":8806:8811   */\n      dup3\n        /* \"#utility.yul\":8788:8812   */\n      tag_207\n      jump\t// in\n    tag_206:\n        /* \"#utility.yul\":8777:8812   */\n      swap1\n      pop\n        /* \"#utility.yul\":8767:8818   */\n      swap2\n      swap1\n      pop\n      jump\t// out\n        /* \"#utility.yul\":8824:8914   */\n    tag_154:\n      0x00\n        /* \"#utility.yul\":8901:8906   */\n      dup2\n        /* \"#utility.yul\":8894:8907   */\n      iszero\n        /* \"#utility.yul\":8887:8908   */\n      iszero\n        /* \"#utility.yul\":8876:8908   */\n      swap1\n      pop\n        /* \"#utility.yul\":8866:8914   */\n      swap2\n      swap1\n      pop\n      jump\t// out\n        /* \"#utility.yul\":8920:9046   */\n    tag_207:\n      0x00\n        /* \"#utility.yul\":8997:9039   */\n      0xffffffffffffffffffffffffffffffffffffffff\n        /* \"#utility.yul\":8990:8995   */\n      dup3\n        /* \"#utility.yul\":8986:9040   */\n      and\n        /* \"#utility.yul\":8975:9040   */\n      swap1\n      pop\n        /* \"#utility.yul\":8965:9046   */\n      swap2\n      swap1\n      pop\n      jump\t// out\n        /* \"#utility.yul\":9052:9129   */\n    tag_176:\n      0x00\n        /* \"#utility.yul\":9118:9123   */\n      dup2\n        /* \"#utility.yul\":9107:9123   */\n      swap1\n      pop\n        /* \"#utility.yul\":9097:9129   */\n      swap2\n      swap1\n      pop\n      jump\t// out\n        /* \"#utility.yul\":9135:9289   */\n    tag_113:\n        /* \"#utility.yul\":9219:9225   */\n      dup3\n        /* \"#utility.yul\":9214:9217   */\n      dup2\n        /* \"#utility.yul\":9209:9212   */\n      dup4\n        /* \"#utility.yul\":9196:9226   */\n      calldatacopy\n        /* \"#utility.yul\":9281:9282   */\n      0x00\n        /* \"#utility.yul\":9272:9278   */\n      dup4\n        /* \"#utility.yul\":9267:9270   */\n      dup4\n        /* \"#utility.yul\":9263:9279   */\n      add\n        /* \"#utility.yul\":9256:9283   */\n      mstore\n        /* \"#utility.yul\":9186:9289   */\n      pop\n      pop\n      pop\n      jump\t// out\n        /* \"#utility.yul\":9295:9602   */\n    tag_162:\n        /* \"#utility.yul\":9363:9364   */\n      0x00\n        /* \"#utility.yul\":9373:9486   */\n    tag_213:\n        /* \"#utility.yul\":9387:9393   */\n      dup4\n        /* \"#utility.yul\":9384:9385   */\n      dup2\n        /* \"#utility.yul\":9381:9394   */\n      lt\n        /* \"#utility.yul\":9373:9486   */\n      iszero\n      tag_215\n      jumpi\n        /* \"#utility.yul\":9472:9473   */\n      dup1\n        /* \"#utility.yul\":9467:9470   */\n      dup3\n        /* \"#utility.yul\":9463:9474   */\n      add\n        /* \"#utility.yul\":9457:9475   */\n      mload\n        /* \"#utility.yul\":9453:9454   */\n      dup2\n        /* \"#utility.yul\":9448:9451   */\n      dup5\n        /* \"#utility.yul\":9444:9455   */\n      add\n        /* \"#utility.yul\":9437:9476   */\n      mstore\n        /* \"#utility.yul\":9409:9411   */\n      0x20\n        /* \"#utility.yul\":9406:9407   */\n      dup2\n        /* \"#utility.yul\":9402:9412   */\n      add\n        /* \"#utility.yul\":9397:9412   */\n      swap1\n      pop\n        /* \"#utility.yul\":9373:9486   */\n      jump(tag_213)\n    tag_215:\n        /* \"#utility.yul\":9504:9510   */\n      dup4\n        /* \"#utility.yul\":9501:9502   */\n      dup2\n        /* \"#utility.yul\":9498:9511   */\n      gt\n        /* \"#utility.yul\":9495:9497   */\n      iszero\n      tag_216\n      jumpi\n        /* \"#utility.yul\":9584:9585   */\n      0x00\n        /* \"#utility.yul\":9575:9581   */\n      dup5\n        /* \"#utility.yul\":9570:9573   */\n      dup5\n        /* \"#utility.yul\":9566:9582   */\n      add\n        /* \"#utility.yul\":9559:9586   */\n      mstore\n        /* \"#utility.yul\":9495:9497   */\n    tag_216:\n        /* \"#utility.yul\":9344:9602   */\n      pop\n      pop\n      pop\n      pop\n      jump\t// out\n        /* \"#utility.yul\":9608:9928   */\n    tag_49:\n      0x00\n        /* \"#utility.yul\":9689:9690   */\n      0x02\n        /* \"#utility.yul\":9683:9687   */\n      dup3\n        /* \"#utility.yul\":9679:9691   */\n      div\n        /* \"#utility.yul\":9669:9691   */\n      swap1\n      pop\n        /* \"#utility.yul\":9736:9737   */\n      0x01\n        /* \"#utility.yul\":9730:9734   */\n      dup3\n        /* \"#utility.yul\":9726:9738   */\n      and\n        /* \"#utility.yul\":9757:9775   */\n      dup1\n        /* \"#utility.yul\":9747:9749   */\n      tag_218\n      jumpi\n        /* \"#utility.yul\":9813:9817   */\n      0x7f\n        /* \"#utility.yul\":9805:9811   */\n      dup3\n        /* \"#utility.yul\":9801:9818   */\n      and\n        /* \"#utility.yul\":9791:9818   */\n      swap2\n      pop\n        /* \"#utility.yul\":9747:9749   */\n    tag_218:\n        /* \"#utility.yul\":9875:9877   */\n      0x20\n        /* \"#utility.yul\":9867:9873   */\n      dup3\n        /* \"#utility.yul\":9864:9878   */\n      lt\n        /* \"#utility.yul\":9844:9862   */\n      dup2\n        /* \"#utility.yul\":9841:9879   */\n      eq\n        /* \"#utility.yul\":9838:9840   */\n      iszero\n      tag_219\n      jumpi\n        /* \"#utility.yul\":9894:9912   */\n      tag_220\n      tag_221\n      jump\t// in\n    tag_220:\n        /* \"#utility.yul\":9838:9840   */\n    tag_219:\n        /* \"#utility.yul\":9659:9928   */\n      pop\n      swap2\n      swap1\n      pop\n      jump\t// out\n        /* \"#utility.yul\":9934:10167   */\n    tag_78:\n      0x00\n        /* \"#utility.yul\":9996:10020   */\n      tag_223\n        /* \"#utility.yul\":10014:10019   */\n      dup3\n        /* \"#utility.yul\":9996:10020   */\n      tag_176\n      jump\t// in\n    tag_223:\n        /* \"#utility.yul\":9987:10020   */\n      swap2\n      pop\n        /* \"#utility.yul\":10042:10108   */\n      0xffffffffffffffffffffffffffffffffffffffffffffffffffffffffffffffff\n        /* \"#utility.yul\":10035:10040   */\n      dup3\n        /* \"#utility.yul\":10032:10109   */\n      eq\n        /* \"#utility.yul\":10029:10031   */\n      iszero\n      tag_224\n      jumpi\n        /* \"#utility.yul\":10112:10130   */\n      tag_225\n      tag_226\n      jump\t// in\n    tag_225:\n        /* \"#utility.yul\":10029:10031   */\n    tag_224:\n        /* \"#utility.yul\":10159:10160   */\n      0x01\n        /* \"#utility.yul\":10152:10157   */\n      dup3\n        /* \"#utility.yul\":10148:10161   */\n      add\n        /* \"#utility.yul\":10141:10161   */\n      swap1\n      pop\n        /* \"#utility.yul\":9977:10167   */\n      swap2\n      swap1\n      pop\n      jump\t// out\n        /* \"#utility.yul\":10173:10353   */\n    tag_226:\n        /* \"#utility.yul\":10221:10298   */\n      0x4e487b7100000000000000000000000000000000000000000000000000000000\n        /* \"#utility.yul\":10218:10219   */\n      0x00\n        /* \"#utility.yul\":10211:10299   */\n      mstore\n        /* \"#utility.yul\":10318:10322   */\n      0x11\n        /* \"#utility.yul\":10315:10316   */\n      0x04\n        /* \"#utility.yul\":10308:10323   */\n      mstore\n        /* \"#utility.yul\":10342:10346   */\n      0x24\n        /* \"#utility.yul\":10339:10340   */\n      0x00\n        /* \"#utility.yul\":10332:10347   */\n      revert\n        /* \"#utility.yul\":10359:10539   */\n    tag_221:\n        /* \"#utility.yul\":10407:10484   */\n      0x4e487b7100000000000000000000000000000000000000000000000000000000\n        /* \"#utility.yul\":10404:10405   */\n      0x00\n        /* \"#utility.yul\":10397:10485   */\n      mstore\n        /* \"#utility.yul\":10504:10508   */\n      0x22\n        /* \"#utility.yul\":10501:10502   */\n      0x04\n        /* \"#utility.yul\":10494:10509   */\n      mstore\n        /* \"#utility.yul\":10528:10532   */\n      0x24\n        /* \"#utility.yul\":10525:10526   */\n      0x00\n        /* \"#utility.yul\":10518:10533   */\n      revert\n        /* \"#utility.yul\":10545:10725   */\n    tag_198:\n        /* \"#utility.yul\":10593:10670   */\n      0x4e487b7100000000000000000000000000000000000000000000000000000000\n        /* \"#utility.yul\":10590:10591   */\n      0x00\n        /* \"#utility.yul\":10583:10671   */\n      mstore\n        /* \"#utility.yul\":10690:10694   */\n      0x41\n        /* \"#utility.yul\":10687:10688   */\n      0x04\n        /* \"#utility.yul\":10680:10695   */\n      mstore\n        /* \"#utility.yul\":10714:10718   */\n      0x24\n        /* \"#utility.yul\":10711:10712   */\n      0x00\n        /* \"#utility.yul\":10704:10719   */\n      revert\n        /* \"#utility.yul\":10731:10853   */\n    tag_129:\n        /* \"#utility.yul\":10804:10828   */\n      tag_231\n        /* \"#utility.yul\":10822:10827   */\n      dup2\n        /* \"#utility.yul\":10804:10828   */\n      tag_176\n      jump\t// in\n    tag_231:\n        /* \"#utility.yul\":10797:10802   */\n      dup2\n        /* \"#utility.yul\":10794:10829   */\n      eq\n        /* \"#utility.yul\":10784:10786   */\n      tag_232\n      jumpi\n        /* \"#utility.yul\":10843:10844   */\n      0x00\n        /* \"#utility.yul\":10840:10841   */\n      dup1\n        /* \"#utility.yul\":10833:10845   */\n      revert\n        /* \"#utility.yul\":10784:10786   */\n    tag_232:\n        /* \"#utility.yul\":10774:10853   */\n      pop\n      jump\t// out\n\n    auxdata: 0xa26469706673582212203fdce8c5ba7e21a6b39e05a83baedfa3402813bf921a6de11a609d2ae9a64e7364736f6c63430008000033\n}\n",
				"bytecode": {
					"linkReferences": {},
					"object": "60806040526040518060a00160405280600160ff168152602001600260ff168152602001600360ff168152602001600460ff168152602001600560ff16815250600090600561004f9291906100a3565b5034801561005c57600080fd5b5033600160006101000a81548173ffffffffffffffffffffffffffffffffffffffff021916908373ffffffffffffffffffffffffffffffffffffffff160217905550610112565b8280548282559060005260206000209081019282156100e4579160200282015b828111156100e3578251829060ff169055916020019190600101906100c3565b5b5090506100f191906100f5565b5090565b5b8082111561010e5760008160009055506001016100f6565b5090565b610e64806101216000396000f3fe608060405234801561001057600080fd5b506004361061007d5760003560e01c8063713291711161005b57806371329171146100ea5780638da5cb5b14610106578063be1c766b14610124578063bed34bba146101425761007d565b80635811a3b9146100825780635b87081f146100b25780635d16b308146100ce575b600080fd5b61009c6004803603810190610097919061094b565b610172565b6040516100a99190610b8b565b60405180910390f35b6100cc60048036038101906100c79190610859565b610196565b005b6100e860048036038101906100e3919061090a565b6102f3565b005b61010460048036038101906100ff919061094b565b610530565b005b61010e61057b565b60405161011b9190610af5565b60405180910390f35b61012c6105a1565b6040516101399190610b8b565b60405180910390f35b61015c6004803603810190610157919061089e565b6105ad565b6040516101699190610b10565b60405180910390f35b6000818154811061018257600080fd5b906000526020600020016000915090505481565b6102af8282600560003373ffffffffffffffffffffffffffffffffffffffff1673ffffffffffffffffffffffffffffffffffffffff168152602001908152602001600020805480602002602001604051908101604052809291908181526020016000905b828210156102a657838290600052602060002001805461021990610d0f565b80601f016020809104026020016040519081016040528092919081815260200182805461024590610d0f565b80156102925780601f1061026757610100808354040283529160200191610292565b820191906000526020600020905b81548152906001019060200180831161027557829003601f168201915b5050505050815260200190600101906101fa565b50505050610606565b156102ef576040517f08c379a00000000000000000000000000000000000000000000000000000000081526004016102e690610b2b565b60405180910390fd5b5050565b600160009054906101000a900473ffffffffffffffffffffffffffffffffffffffff1673ffffffffffffffffffffffffffffffffffffffff163373ffffffffffffffffffffffffffffffffffffffff1614610383576040517f08c379a000000000000000000000000000000000000000000000000000000000815260040161037a90610b4b565b60405180910390fd5b60008180602001906103959190610ba6565b8080601f016020809104026020016040519081016040528093929190818152602001838380828437600081840152601f19601f8201169050808301925050505050505090506003816040516103ea9190610ade565b908152602001604051809103902060030160009054906101000a900460ff1615610449576040517f08c379a000000000000000000000000000000000000000000000000000000000815260040161044090610b6b565b60405180910390fd5b60025460038260405161045c9190610ade565b9081526020016040518091039020600001819055508180602001906104819190610ba6565b6003836040516104919190610ade565b908152602001604051809103902060010191906104af9291906106d4565b5081604001356003826040516104c59190610ade565b90815260200160405180910390206002018190555060016003826040516104ec9190610ade565b908152602001604051809103902060030160006101000a81548160ff0219169083151502179055506002600081548092919061052790610d41565b91905055505050565b6000818154811061056a577f4e487b7100000000000000000000000000000000000000000000000000000000600052603260045260246000fd5b906000526020600020016000905550565b600160009054906101000a900473ffffffffffffffffffffffffffffffffffffffff1681565b60008080549050905090565b6000816040516020016105c09190610ade565b60405160208183030381529060405280519060200120836040516020016105e79190610ade565b6040516020818303038152906040528051906020012014905092915050565b600080600090505b82518110156106c7576106a585858080601f016020809104026020016040519081016040528093929190818152602001838380828437600081840152601f19601f82011690508083019250505050505050848381518110610698577f4e487b7100000000000000000000000000000000000000000000000000000000600052603260045260246000fd5b60200260200101516105ad565b156106b45760019150506106cd565b80806106bf90610d41565b91505061060e565b50600090505b9392505050565b8280546106e090610d0f565b90600052602060002090601f0160209004810192826107025760008555610749565b82601f1061071b57803560ff1916838001178555610749565b82800160010185558215610749579182015b8281111561074857823582559160200191906001019061072d565b5b509050610756919061075a565b5090565b5b8082111561077357600081600090555060010161075b565b5090565b600061078a61078584610c2e565b610bfd565b9050828152602081018484840111156107a257600080fd5b6107ad848285610ccd565b509392505050565b60008083601f8401126107c757600080fd5b8235905067ffffffffffffffff8111156107e057600080fd5b6020830191508360018202830111156107f857600080fd5b9250929050565b600082601f83011261081057600080fd5b8135610820848260208601610777565b91505092915050565b60006080828403121561083b57600080fd5b81905092915050565b60008135905061085381610e17565b92915050565b6000806020838503121561086c57600080fd5b600083013567ffffffffffffffff81111561088657600080fd5b610892858286016107b5565b92509250509250929050565b600080604083850312156108b157600080fd5b600083013567ffffffffffffffff8111156108cb57600080fd5b6108d7858286016107ff565b925050602083013567ffffffffffffffff8111156108f457600080fd5b610900858286016107ff565b9150509250929050565b60006020828403121561091c57600080fd5b600082013567ffffffffffffffff81111561093657600080fd5b61094284828501610829565b91505092915050565b60006020828403121561095d57600080fd5b600061096b84828501610844565b91505092915050565b61097d81610c85565b82525050565b61098c81610c97565b82525050565b600061099d82610c5e565b6109a78185610c7a565b93506109b7818560208601610cdc565b80840191505092915050565b60006109d0602883610c69565b91507f5468697320626f6f6b20616c72656164792065786973747320696e207468652060008301527f4c696272617279210000000000000000000000000000000000000000000000006020830152604082019050919050565b6000610a36601a83610c69565b91507f43757272656e742075736572206973206e6f74206f776e6572210000000000006000830152602082019050919050565b6000610a76602383610c69565b91507f426f6f6b20616c72656164792065786973747320696e20746865204c6962726160008301527f72792100000000000000000000000000000000000000000000000000000000006020830152604082019050919050565b610ad881610cc3565b82525050565b6000610aea8284610992565b915081905092915050565b6000602082019050610b0a6000830184610974565b92915050565b6000602082019050610b256000830184610983565b92915050565b60006020820190508181036000830152610b44816109c3565b9050919050565b60006020820190508181036000830152610b6481610a29565b9050919050565b60006020820190508181036000830152610b8481610a69565b9050919050565b6000602082019050610ba06000830184610acf565b92915050565b60008083356001602003843603038112610bbf57600080fd5b80840192508235915067ffffffffffffffff821115610bdd57600080fd5b602083019250600182023603831315610bf557600080fd5b509250929050565b6000604051905081810181811067ffffffffffffffff82111715610c2457610c23610de8565b5b8060405250919050565b600067ffffffffffffffff821115610c4957610c48610de8565b5b601f19601f8301169050602081019050919050565b600081519050919050565b600082825260208201905092915050565b600081905092915050565b6000610c9082610ca3565b9050919050565b60008115159050919050565b600073ffffffffffffffffffffffffffffffffffffffff82169050919050565b6000819050919050565b82818337600083830152505050565b60005b83811015610cfa578082015181840152602081019050610cdf565b83811115610d09576000848401525b50505050565b60006002820490506001821680610d2757607f821691505b60208210811415610d3b57610d3a610db9565b5b50919050565b6000610d4c82610cc3565b91507fffffffffffffffffffffffffffffffffffffffffffffffffffffffffffffffff821415610d7f57610d7e610d8a565b5b600182019050919050565b7f4e487b7100000000000000000000000000000000000000000000000000000000600052601160045260246000fd5b7f4e487b7100000000000000000000000000000000000000000000000000000000600052602260045260246000fd5b7f4e487b7100000000000000000000000000000000000000000000000000000000600052604160045260246000fd5b610e2081610cc3565b8114610e2b57600080fd5b5056fea26469706673582212203fdce8c5ba7e21a6b39e05a83baedfa3402813bf921a6de11a609d2ae9a64e7364736f6c63430008000033",
					"opcodes": "PUSH1 0x80 PUSH1 0x40 MSTORE PUSH1 0x40 MLOAD DUP1 PUSH1 0xA0 ADD PUSH1 0x40 MSTORE DUP1 PUSH1 0x1 PUSH1 0xFF AND DUP2 MSTORE PUSH1 0x20 ADD PUSH1 0x2 PUSH1 0xFF AND DUP2 MSTORE PUSH1 0x20 ADD PUSH1 0x3 PUSH1 0xFF AND DUP2 MSTORE PUSH1 0x20 ADD PUSH1 0x4 PUSH1 0xFF AND DUP2 MSTORE PUSH1 0x20 ADD PUSH1 0x5 PUSH1 0xFF AND DUP2 MSTORE POP PUSH1 0x0 SWAP1 PUSH1 0x5 PUSH2 0x4F SWAP3 SWAP2 SWAP1 PUSH2 0xA3 JUMP JUMPDEST POP CALLVALUE DUP1 ISZERO PUSH2 0x5C JUMPI PUSH1 0x0 DUP1 REVERT JUMPDEST POP CALLER PUSH1 0x1 PUSH1 0x0 PUSH2 0x100 EXP DUP2 SLOAD DUP2 PUSH20 0xFFFFFFFFFFFFFFFFFFFFFFFFFFFFFFFFFFFFFFFF MUL NOT AND SWAP1 DUP4 PUSH20 0xFFFFFFFFFFFFFFFFFFFFFFFFFFFFFFFFFFFFFFFF AND MUL OR SWAP1 SSTORE POP PUSH2 0x112 JUMP JUMPDEST DUP3 DUP1 SLOAD DUP3 DUP3 SSTORE SWAP1 PUSH1 0x0 MSTORE PUSH1 0x20 PUSH1 0x0 KECCAK256 SWAP1 DUP2 ADD SWAP3 DUP3 ISZERO PUSH2 0xE4 JUMPI SWAP2 PUSH1 0x20 MUL DUP3 ADD JUMPDEST DUP3 DUP2 GT ISZERO PUSH2 0xE3 JUMPI DUP3 MLOAD DUP3 SWAP1 PUSH1 0xFF AND SWAP1 SSTORE SWAP2 PUSH1 0x20 ADD SWAP2 SWAP1 PUSH1 0x1 ADD SWAP1 PUSH2 0xC3 JUMP JUMPDEST JUMPDEST POP SWAP1 POP PUSH2 0xF1 SWAP2 SWAP1 PUSH2 0xF5 JUMP JUMPDEST POP SWAP1 JUMP JUMPDEST JUMPDEST DUP1 DUP3 GT ISZERO PUSH2 0x10E JUMPI PUSH1 0x0 DUP2 PUSH1 0x0 SWAP1 SSTORE POP PUSH1 0x1 ADD PUSH2 0xF6 JUMP JUMPDEST POP SWAP1 JUMP JUMPDEST PUSH2 0xE64 DUP1 PUSH2 0x121 PUSH1 0x0 CODECOPY PUSH1 0x0 RETURN INVALID PUSH1 0x80 PUSH1 0x40 MSTORE CALLVALUE DUP1 ISZERO PUSH2 0x10 JUMPI PUSH1 0x0 DUP1 REVERT JUMPDEST POP PUSH1 0x4 CALLDATASIZE LT PUSH2 0x7D JUMPI PUSH1 0x0 CALLDATALOAD PUSH1 0xE0 SHR DUP1 PUSH4 0x71329171 GT PUSH2 0x5B JUMPI DUP1 PUSH4 0x71329171 EQ PUSH2 0xEA JUMPI DUP1 PUSH4 0x8DA5CB5B EQ PUSH2 0x106 JUMPI DUP1 PUSH4 0xBE1C766B EQ PUSH2 0x124 JUMPI DUP1 PUSH4 0xBED34BBA EQ PUSH2 0x142 JUMPI PUSH2 0x7D JUMP JUMPDEST DUP1 PUSH4 0x5811A3B9 EQ PUSH2 0x82 JUMPI DUP1 PUSH4 0x5B87081F EQ PUSH2 0xB2 JUMPI DUP1 PUSH4 0x5D16B308 EQ PUSH2 0xCE JUMPI JUMPDEST PUSH1 0x0 DUP1 REVERT JUMPDEST PUSH2 0x9C PUSH1 0x4 DUP1 CALLDATASIZE SUB DUP2 ADD SWAP1 PUSH2 0x97 SWAP2 SWAP1 PUSH2 0x94B JUMP JUMPDEST PUSH2 0x172 JUMP JUMPDEST PUSH1 0x40 MLOAD PUSH2 0xA9 SWAP2 SWAP1 PUSH2 0xB8B JUMP JUMPDEST PUSH1 0x40 MLOAD DUP1 SWAP2 SUB SWAP1 RETURN JUMPDEST PUSH2 0xCC PUSH1 0x4 DUP1 CALLDATASIZE SUB DUP2 ADD SWAP1 PUSH2 0xC7 SWAP2 SWAP1 PUSH2 0x859 JUMP JUMPDEST PUSH2 0x196 JUMP JUMPDEST STOP JUMPDEST PUSH2 0xE8 PUSH1 0x4 DUP1 CALLDATASIZE SUB DUP2 ADD SWAP1 PUSH2 0xE3 SWAP2 SWAP1 PUSH2 0x90A JUMP JUMPDEST PUSH2 0x2F3 JUMP JUMPDEST STOP JUMPDEST PUSH2 0x104 PUSH1 0x4 DUP1 CALLDATASIZE SUB DUP2 ADD SWAP1 PUSH2 0xFF SWAP2 SWAP1 PUSH2 0x94B JUMP JUMPDEST PUSH2 0x530 JUMP JUMPDEST STOP JUMPDEST PUSH2 0x10E PUSH2 0x57B JUMP JUMPDEST PUSH1 0x40 MLOAD PUSH2 0x11B SWAP2 SWAP1 PUSH2 0xAF5 JUMP JUMPDEST PUSH1 0x40 MLOAD DUP1 SWAP2 SUB SWAP1 RETURN JUMPDEST PUSH2 0x12C PUSH2 0x5A1 JUMP JUMPDEST PUSH1 0x40 MLOAD PUSH2 0x139 SWAP2 SWAP1 PUSH2 0xB8B JUMP JUMPDEST PUSH1 0x40 MLOAD DUP1 SWAP2 SUB SWAP1 RETURN JUMPDEST PUSH2 0x15C PUSH1 0x4 DUP1 CALLDATASIZE SUB DUP2 ADD SWAP1 PUSH2 0x157 SWAP2 SWAP1 PUSH2 0x89E JUMP JUMPDEST PUSH2 0x5AD JUMP JUMPDEST PUSH1 0x40 MLOAD PUSH2 0x169 SWAP2 SWAP1 PUSH2 0xB10 JUMP JUMPDEST PUSH1 0x40 MLOAD DUP1 SWAP2 SUB SWAP1 RETURN JUMPDEST PUSH1 0x0 DUP2 DUP2 SLOAD DUP2 LT PUSH2 0x182 JUMPI PUSH1 0x0 DUP1 REVERT JUMPDEST SWAP1 PUSH1 0x0 MSTORE PUSH1 0x20 PUSH1 0x0 KECCAK256 ADD PUSH1 0x0 SWAP2 POP SWAP1 POP SLOAD DUP2 JUMP JUMPDEST PUSH2 0x2AF DUP3 DUP3 PUSH1 0x5 PUSH1 0x0 CALLER PUSH20 0xFFFFFFFFFFFFFFFFFFFFFFFFFFFFFFFFFFFFFFFF AND PUSH20 0xFFFFFFFFFFFFFFFFFFFFFFFFFFFFFFFFFFFFFFFF AND DUP2 MSTORE PUSH1 0x20 ADD SWAP1 DUP2 MSTORE PUSH1 0x20 ADD PUSH1 0x0 KECCAK256 DUP1 SLOAD DUP1 PUSH1 0x20 MUL PUSH1 0x20 ADD PUSH1 0x40 MLOAD SWAP1 DUP2 ADD PUSH1 0x40 MSTORE DUP1 SWAP3 SWAP2 SWAP1 DUP2 DUP2 MSTORE PUSH1 0x20 ADD PUSH1 0x0 SWAP1 JUMPDEST DUP3 DUP3 LT ISZERO PUSH2 0x2A6 JUMPI DUP4 DUP3 SWAP1 PUSH1 0x0 MSTORE PUSH1 0x20 PUSH1 0x0 KECCAK256 ADD DUP1 SLOAD PUSH2 0x219 SWAP1 PUSH2 0xD0F JUMP JUMPDEST DUP1 PUSH1 0x1F ADD PUSH1 0x20 DUP1 SWAP2 DIV MUL PUSH1 0x20 ADD PUSH1 0x40 MLOAD SWAP1 DUP2 ADD PUSH1 0x40 MSTORE DUP1 SWAP3 SWAP2 SWAP1 DUP2 DUP2 MSTORE PUSH1 0x20 ADD DUP3 DUP1 SLOAD PUSH2 0x245 SWAP1 PUSH2 0xD0F JUMP JUMPDEST DUP1 ISZERO PUSH2 0x292 JUMPI DUP1 PUSH1 0x1F LT PUSH2 0x267 JUMPI PUSH2 0x100 DUP1 DUP4 SLOAD DIV MUL DUP4 MSTORE SWAP2 PUSH1 0x20 ADD SWAP2 PUSH2 0x292 JUMP JUMPDEST DUP3 ADD SWAP2 SWAP1 PUSH1 0x0 MSTORE PUSH1 0x20 PUSH1 0x0 KECCAK256 SWAP1 JUMPDEST DUP2 SLOAD DUP2 MSTORE SWAP1 PUSH1 0x1 ADD SWAP1 PUSH1 0x20 ADD DUP1 DUP4 GT PUSH2 0x275 JUMPI DUP3 SWAP1 SUB PUSH1 0x1F AND DUP3 ADD SWAP2 JUMPDEST POP POP POP POP POP DUP2 MSTORE PUSH1 0x20 ADD SWAP1 PUSH1 0x1 ADD SWAP1 PUSH2 0x1FA JUMP JUMPDEST POP POP POP POP PUSH2 0x606 JUMP JUMPDEST ISZERO PUSH2 0x2EF JUMPI PUSH1 0x40 MLOAD PUSH32 0x8C379A000000000000000000000000000000000000000000000000000000000 DUP2 MSTORE PUSH1 0x4 ADD PUSH2 0x2E6 SWAP1 PUSH2 0xB2B JUMP JUMPDEST PUSH1 0x40 MLOAD DUP1 SWAP2 SUB SWAP1 REVERT JUMPDEST POP POP JUMP JUMPDEST PUSH1 0x1 PUSH1 0x0 SWAP1 SLOAD SWAP1 PUSH2 0x100 EXP SWAP1 DIV PUSH20 0xFFFFFFFFFFFFFFFFFFFFFFFFFFFFFFFFFFFFFFFF AND PUSH20 0xFFFFFFFFFFFFFFFFFFFFFFFFFFFFFFFFFFFFFFFF AND CALLER PUSH20 0xFFFFFFFFFFFFFFFFFFFFFFFFFFFFFFFFFFFFFFFF AND EQ PUSH2 0x383 JUMPI PUSH1 0x40 MLOAD PUSH32 0x8C379A000000000000000000000000000000000000000000000000000000000 DUP2 MSTORE PUSH1 0x4 ADD PUSH2 0x37A SWAP1 PUSH2 0xB4B JUMP JUMPDEST PUSH1 0x40 MLOAD DUP1 SWAP2 SUB SWAP1 REVERT JUMPDEST PUSH1 0x0 DUP2 DUP1 PUSH1 0x20 ADD SWAP1 PUSH2 0x395 SWAP2 SWAP1 PUSH2 0xBA6 JUMP JUMPDEST DUP1 DUP1 PUSH1 0x1F ADD PUSH1 0x20 DUP1 SWAP2 DIV MUL PUSH1 0x20 ADD PUSH1 0x40 MLOAD SWAP1 DUP2 ADD PUSH1 0x40 MSTORE DUP1 SWAP4 SWAP3 SWAP2 SWAP1 DUP2 DUP2 MSTORE PUSH1 0x20 ADD DUP4 DUP4 DUP1 DUP3 DUP5 CALLDATACOPY PUSH1 0x0 DUP2 DUP5 ADD MSTORE PUSH1 0x1F NOT PUSH1 0x1F DUP3 ADD AND SWAP1 POP DUP1 DUP4 ADD SWAP3 POP POP POP POP POP POP POP SWAP1 POP PUSH1 0x3 DUP2 PUSH1 0x40 MLOAD PUSH2 0x3EA SWAP2 SWAP1 PUSH2 0xADE JUMP JUMPDEST SWAP1 DUP2 MSTORE PUSH1 0x20 ADD PUSH1 0x40 MLOAD DUP1 SWAP2 SUB SWAP1 KECCAK256 PUSH1 0x3 ADD PUSH1 0x0 SWAP1 SLOAD SWAP1 PUSH2 0x100 EXP SWAP1 DIV PUSH1 0xFF AND ISZERO PUSH2 0x449 JUMPI PUSH1 0x40 MLOAD PUSH32 0x8C379A000000000000000000000000000000000000000000000000000000000 DUP2 MSTORE PUSH1 0x4 ADD PUSH2 0x440 SWAP1 PUSH2 0xB6B JUMP JUMPDEST PUSH1 0x40 MLOAD DUP1 SWAP2 SUB SWAP1 REVERT JUMPDEST PUSH1 0x2 SLOAD PUSH1 0x3 DUP3 PUSH1 0x40 MLOAD PUSH2 0x45C SWAP2 SWAP1 PUSH2 0xADE JUMP JUMPDEST SWAP1 DUP2 MSTORE PUSH1 0x20 ADD PUSH1 0x40 MLOAD DUP1 SWAP2 SUB SWAP1 KECCAK256 PUSH1 0x0 ADD DUP2 SWAP1 SSTORE POP DUP2 DUP1 PUSH1 0x20 ADD SWAP1 PUSH2 0x481 SWAP2 SWAP1 PUSH2 0xBA6 JUMP JUMPDEST PUSH1 0x3 DUP4 PUSH1 0x40 MLOAD PUSH2 0x491 SWAP2 SWAP1 PUSH2 0xADE JUMP JUMPDEST SWAP1 DUP2 MSTORE PUSH1 0x20 ADD PUSH1 0x40 MLOAD DUP1 SWAP2 SUB SWAP1 KECCAK256 PUSH1 0x1 ADD SWAP2 SWAP1 PUSH2 0x4AF SWAP3 SWAP2 SWAP1 PUSH2 0x6D4 JUMP JUMPDEST POP DUP2 PUSH1 0x40 ADD CALLDATALOAD PUSH1 0x3 DUP3 PUSH1 0x40 MLOAD PUSH2 0x4C5 SWAP2 SWAP1 PUSH2 0xADE JUMP JUMPDEST SWAP1 DUP2 MSTORE PUSH1 0x20 ADD PUSH1 0x40 MLOAD DUP1 SWAP2 SUB SWAP1 KECCAK256 PUSH1 0x2 ADD DUP2 SWAP1 SSTORE POP PUSH1 0x1 PUSH1 0x3 DUP3 PUSH1 0x40 MLOAD PUSH2 0x4EC SWAP2 SWAP1 PUSH2 0xADE JUMP JUMPDEST SWAP1 DUP2 MSTORE PUSH1 0x20 ADD PUSH1 0x40 MLOAD DUP1 SWAP2 SUB SWAP1 KECCAK256 PUSH1 0x3 ADD PUSH1 0x0 PUSH2 0x100 EXP DUP2 SLOAD DUP2 PUSH1 0xFF MUL NOT AND SWAP1 DUP4 ISZERO ISZERO MUL OR SWAP1 SSTORE POP PUSH1 0x2 PUSH1 0x0 DUP2 SLOAD DUP1 SWAP3 SWAP2 SWAP1 PUSH2 0x527 SWAP1 PUSH2 0xD41 JUMP JUMPDEST SWAP2 SWAP1 POP SSTORE POP POP POP JUMP JUMPDEST PUSH1 0x0 DUP2 DUP2 SLOAD DUP2 LT PUSH2 0x56A JUMPI PUSH32 0x4E487B7100000000000000000000000000000000000000000000000000000000 PUSH1 0x0 MSTORE PUSH1 0x32 PUSH1 0x4 MSTORE PUSH1 0x24 PUSH1 0x0 REVERT JUMPDEST SWAP1 PUSH1 0x0 MSTORE PUSH1 0x20 PUSH1 0x0 KECCAK256 ADD PUSH1 0x0 SWAP1 SSTORE POP JUMP JUMPDEST PUSH1 0x1 PUSH1 0x0 SWAP1 SLOAD SWAP1 PUSH2 0x100 EXP SWAP1 DIV PUSH20 0xFFFFFFFFFFFFFFFFFFFFFFFFFFFFFFFFFFFFFFFF AND DUP2 JUMP JUMPDEST PUSH1 0x0 DUP1 DUP1 SLOAD SWAP1 POP SWAP1 POP SWAP1 JUMP JUMPDEST PUSH1 0x0 DUP2 PUSH1 0x40 MLOAD PUSH1 0x20 ADD PUSH2 0x5C0 SWAP2 SWAP1 PUSH2 0xADE JUMP JUMPDEST PUSH1 0x40 MLOAD PUSH1 0x20 DUP2 DUP4 SUB SUB DUP2 MSTORE SWAP1 PUSH1 0x40 MSTORE DUP1 MLOAD SWAP1 PUSH1 0x20 ADD KECCAK256 DUP4 PUSH1 0x40 MLOAD PUSH1 0x20 ADD PUSH2 0x5E7 SWAP2 SWAP1 PUSH2 0xADE JUMP JUMPDEST PUSH1 0x40 MLOAD PUSH1 0x20 DUP2 DUP4 SUB SUB DUP2 MSTORE SWAP1 PUSH1 0x40 MSTORE DUP1 MLOAD SWAP1 PUSH1 0x20 ADD KECCAK256 EQ SWAP1 POP SWAP3 SWAP2 POP POP JUMP JUMPDEST PUSH1 0x0 DUP1 PUSH1 0x0 SWAP1 POP JUMPDEST DUP3 MLOAD DUP2 LT ISZERO PUSH2 0x6C7 JUMPI PUSH2 0x6A5 DUP6 DUP6 DUP1 DUP1 PUSH1 0x1F ADD PUSH1 0x20 DUP1 SWAP2 DIV MUL PUSH1 0x20 ADD PUSH1 0x40 MLOAD SWAP1 DUP2 ADD PUSH1 0x40 MSTORE DUP1 SWAP4 SWAP3 SWAP2 SWAP1 DUP2 DUP2 MSTORE PUSH1 0x20 ADD DUP4 DUP4 DUP1 DUP3 DUP5 CALLDATACOPY PUSH1 0x0 DUP2 DUP5 ADD MSTORE PUSH1 0x1F NOT PUSH1 0x1F DUP3 ADD AND SWAP1 POP DUP1 DUP4 ADD SWAP3 POP POP POP POP POP POP POP DUP5 DUP4 DUP2 MLOAD DUP2 LT PUSH2 0x698 JUMPI PUSH32 0x4E487B7100000000000000000000000000000000000000000000000000000000 PUSH1 0x0 MSTORE PUSH1 0x32 PUSH1 0x4 MSTORE PUSH1 0x24 PUSH1 0x0 REVERT JUMPDEST PUSH1 0x20 MUL PUSH1 0x20 ADD ADD MLOAD PUSH2 0x5AD JUMP JUMPDEST ISZERO PUSH2 0x6B4 JUMPI PUSH1 0x1 SWAP2 POP POP PUSH2 0x6CD JUMP JUMPDEST DUP1 DUP1 PUSH2 0x6BF SWAP1 PUSH2 0xD41 JUMP JUMPDEST SWAP2 POP POP PUSH2 0x60E JUMP JUMPDEST POP PUSH1 0x0 SWAP1 POP JUMPDEST SWAP4 SWAP3 POP POP POP JUMP JUMPDEST DUP3 DUP1 SLOAD PUSH2 0x6E0 SWAP1 PUSH2 0xD0F JUMP JUMPDEST SWAP1 PUSH1 0x0 MSTORE PUSH1 0x20 PUSH1 0x0 KECCAK256 SWAP1 PUSH1 0x1F ADD PUSH1 0x20 SWAP1 DIV DUP2 ADD SWAP3 DUP3 PUSH2 0x702 JUMPI PUSH1 0x0 DUP6 SSTORE PUSH2 0x749 JUMP JUMPDEST DUP3 PUSH1 0x1F LT PUSH2 0x71B JUMPI DUP1 CALLDATALOAD PUSH1 0xFF NOT AND DUP4 DUP1 ADD OR DUP6 SSTORE PUSH2 0x749 JUMP JUMPDEST DUP3 DUP1 ADD PUSH1 0x1 ADD DUP6 SSTORE DUP3 ISZERO PUSH2 0x749 JUMPI SWAP2 DUP3 ADD JUMPDEST DUP3 DUP2 GT ISZERO PUSH2 0x748 JUMPI DUP3 CALLDATALOAD DUP3 SSTORE SWAP2 PUSH1 0x20 ADD SWAP2 SWAP1 PUSH1 0x1 ADD SWAP1 PUSH2 0x72D JUMP JUMPDEST JUMPDEST POP SWAP1 POP PUSH2 0x756 SWAP2 SWAP1 PUSH2 0x75A JUMP JUMPDEST POP SWAP1 JUMP JUMPDEST JUMPDEST DUP1 DUP3 GT ISZERO PUSH2 0x773 JUMPI PUSH1 0x0 DUP2 PUSH1 0x0 SWAP1 SSTORE POP PUSH1 0x1 ADD PUSH2 0x75B JUMP JUMPDEST POP SWAP1 JUMP JUMPDEST PUSH1 0x0 PUSH2 0x78A PUSH2 0x785 DUP5 PUSH2 0xC2E JUMP JUMPDEST PUSH2 0xBFD JUMP JUMPDEST SWAP1 POP DUP3 DUP2 MSTORE PUSH1 0x20 DUP2 ADD DUP5 DUP5 DUP5 ADD GT ISZERO PUSH2 0x7A2 JUMPI PUSH1 0x0 DUP1 REVERT JUMPDEST PUSH2 0x7AD DUP5 DUP3 DUP6 PUSH2 0xCCD JUMP JUMPDEST POP SWAP4 SWAP3 POP POP POP JUMP JUMPDEST PUSH1 0x0 DUP1 DUP4 PUSH1 0x1F DUP5 ADD SLT PUSH2 0x7C7 JUMPI PUSH1 0x0 DUP1 REVERT JUMPDEST DUP3 CALLDATALOAD SWAP1 POP PUSH8 0xFFFFFFFFFFFFFFFF DUP2 GT ISZERO PUSH2 0x7E0 JUMPI PUSH1 0x0 DUP1 REVERT JUMPDEST PUSH1 0x20 DUP4 ADD SWAP2 POP DUP4 PUSH1 0x1 DUP3 MUL DUP4 ADD GT ISZERO PUSH2 0x7F8 JUMPI PUSH1 0x0 DUP1 REVERT JUMPDEST SWAP3 POP SWAP3 SWAP1 POP JUMP JUMPDEST PUSH1 0x0 DUP3 PUSH1 0x1F DUP4 ADD SLT PUSH2 0x810 JUMPI PUSH1 0x0 DUP1 REVERT JUMPDEST DUP2 CALLDATALOAD PUSH2 0x820 DUP5 DUP3 PUSH1 0x20 DUP7 ADD PUSH2 0x777 JUMP JUMPDEST SWAP2 POP POP SWAP3 SWAP2 POP POP JUMP JUMPDEST PUSH1 0x0 PUSH1 0x80 DUP3 DUP5 SUB SLT ISZERO PUSH2 0x83B JUMPI PUSH1 0x0 DUP1 REVERT JUMPDEST DUP2 SWAP1 POP SWAP3 SWAP2 POP POP JUMP JUMPDEST PUSH1 0x0 DUP2 CALLDATALOAD SWAP1 POP PUSH2 0x853 DUP2 PUSH2 0xE17 JUMP JUMPDEST SWAP3 SWAP2 POP POP JUMP JUMPDEST PUSH1 0x0 DUP1 PUSH1 0x20 DUP4 DUP6 SUB SLT ISZERO PUSH2 0x86C JUMPI PUSH1 0x0 DUP1 REVERT JUMPDEST PUSH1 0x0 DUP4 ADD CALLDATALOAD PUSH8 0xFFFFFFFFFFFFFFFF DUP2 GT ISZERO PUSH2 0x886 JUMPI PUSH1 0x0 DUP1 REVERT JUMPDEST PUSH2 0x892 DUP6 DUP3 DUP7 ADD PUSH2 0x7B5 JUMP JUMPDEST SWAP3 POP SWAP3 POP POP SWAP3 POP SWAP3 SWAP1 POP JUMP JUMPDEST PUSH1 0x0 DUP1 PUSH1 0x40 DUP4 DUP6 SUB SLT ISZERO PUSH2 0x8B1 JUMPI PUSH1 0x0 DUP1 REVERT JUMPDEST PUSH1 0x0 DUP4 ADD CALLDATALOAD PUSH8 0xFFFFFFFFFFFFFFFF DUP2 GT ISZERO PUSH2 0x8CB JUMPI PUSH1 0x0 DUP1 REVERT JUMPDEST PUSH2 0x8D7 DUP6 DUP3 DUP7 ADD PUSH2 0x7FF JUMP JUMPDEST SWAP3 POP POP PUSH1 0x20 DUP4 ADD CALLDATALOAD PUSH8 0xFFFFFFFFFFFFFFFF DUP2 GT ISZERO PUSH2 0x8F4 JUMPI PUSH1 0x0 DUP1 REVERT JUMPDEST PUSH2 0x900 DUP6 DUP3 DUP7 ADD PUSH2 0x7FF JUMP JUMPDEST SWAP2 POP POP SWAP3 POP SWAP3 SWAP1 POP JUMP JUMPDEST PUSH1 0x0 PUSH1 0x20 DUP3 DUP5 SUB SLT ISZERO PUSH2 0x91C JUMPI PUSH1 0x0 DUP1 REVERT JUMPDEST PUSH1 0x0 DUP3 ADD CALLDATALOAD PUSH8 0xFFFFFFFFFFFFFFFF DUP2 GT ISZERO PUSH2 0x936 JUMPI PUSH1 0x0 DUP1 REVERT JUMPDEST PUSH2 0x942 DUP5 DUP3 DUP6 ADD PUSH2 0x829 JUMP JUMPDEST SWAP2 POP POP SWAP3 SWAP2 POP POP JUMP JUMPDEST PUSH1 0x0 PUSH1 0x20 DUP3 DUP5 SUB SLT ISZERO PUSH2 0x95D JUMPI PUSH1 0x0 DUP1 REVERT JUMPDEST PUSH1 0x0 PUSH2 0x96B DUP5 DUP3 DUP6 ADD PUSH2 0x844 JUMP JUMPDEST SWAP2 POP POP SWAP3 SWAP2 POP POP JUMP JUMPDEST PUSH2 0x97D DUP2 PUSH2 0xC85 JUMP JUMPDEST DUP3 MSTORE POP POP JUMP JUMPDEST PUSH2 0x98C DUP2 PUSH2 0xC97 JUMP JUMPDEST DUP3 MSTORE POP POP JUMP JUMPDEST PUSH1 0x0 PUSH2 0x99D DUP3 PUSH2 0xC5E JUMP JUMPDEST PUSH2 0x9A7 DUP2 DUP6 PUSH2 0xC7A JUMP JUMPDEST SWAP4 POP PUSH2 0x9B7 DUP2 DUP6 PUSH1 0x20 DUP7 ADD PUSH2 0xCDC JUMP JUMPDEST DUP1 DUP5 ADD SWAP2 POP POP SWAP3 SWAP2 POP POP JUMP JUMPDEST PUSH1 0x0 PUSH2 0x9D0 PUSH1 0x28 DUP4 PUSH2 0xC69 JUMP JUMPDEST SWAP2 POP PUSH32 0x5468697320626F6F6B20616C72656164792065786973747320696E2074686520 PUSH1 0x0 DUP4 ADD MSTORE PUSH32 0x4C69627261727921000000000000000000000000000000000000000000000000 PUSH1 0x20 DUP4 ADD MSTORE PUSH1 0x40 DUP3 ADD SWAP1 POP SWAP2 SWAP1 POP JUMP JUMPDEST PUSH1 0x0 PUSH2 0xA36 PUSH1 0x1A DUP4 PUSH2 0xC69 JUMP JUMPDEST SWAP2 POP PUSH32 0x43757272656E742075736572206973206E6F74206F776E657221000000000000 PUSH1 0x0 DUP4 ADD MSTORE PUSH1 0x20 DUP3 ADD SWAP1 POP SWAP2 SWAP1 POP JUMP JUMPDEST PUSH1 0x0 PUSH2 0xA76 PUSH1 0x23 DUP4 PUSH2 0xC69 JUMP JUMPDEST SWAP2 POP PUSH32 0x426F6F6B20616C72656164792065786973747320696E20746865204C69627261 PUSH1 0x0 DUP4 ADD MSTORE PUSH32 0x7279210000000000000000000000000000000000000000000000000000000000 PUSH1 0x20 DUP4 ADD MSTORE PUSH1 0x40 DUP3 ADD SWAP1 POP SWAP2 SWAP1 POP JUMP JUMPDEST PUSH2 0xAD8 DUP2 PUSH2 0xCC3 JUMP JUMPDEST DUP3 MSTORE POP POP JUMP JUMPDEST PUSH1 0x0 PUSH2 0xAEA DUP3 DUP5 PUSH2 0x992 JUMP JUMPDEST SWAP2 POP DUP2 SWAP1 POP SWAP3 SWAP2 POP POP JUMP JUMPDEST PUSH1 0x0 PUSH1 0x20 DUP3 ADD SWAP1 POP PUSH2 0xB0A PUSH1 0x0 DUP4 ADD DUP5 PUSH2 0x974 JUMP JUMPDEST SWAP3 SWAP2 POP POP JUMP JUMPDEST PUSH1 0x0 PUSH1 0x20 DUP3 ADD SWAP1 POP PUSH2 0xB25 PUSH1 0x0 DUP4 ADD DUP5 PUSH2 0x983 JUMP JUMPDEST SWAP3 SWAP2 POP POP JUMP JUMPDEST PUSH1 0x0 PUSH1 0x20 DUP3 ADD SWAP1 POP DUP2 DUP2 SUB PUSH1 0x0 DUP4 ADD MSTORE PUSH2 0xB44 DUP2 PUSH2 0x9C3 JUMP JUMPDEST SWAP1 POP SWAP2 SWAP1 POP JUMP JUMPDEST PUSH1 0x0 PUSH1 0x20 DUP3 ADD SWAP1 POP DUP2 DUP2 SUB PUSH1 0x0 DUP4 ADD MSTORE PUSH2 0xB64 DUP2 PUSH2 0xA29 JUMP JUMPDEST SWAP1 POP SWAP2 SWAP1 POP JUMP JUMPDEST PUSH1 0x0 PUSH1 0x20 DUP3 ADD SWAP1 POP DUP2 DUP2 SUB PUSH1 0x0 DUP4 ADD MSTORE PUSH2 0xB84 DUP2 PUSH2 0xA69 JUMP JUMPDEST SWAP1 POP SWAP2 SWAP1 POP JUMP JUMPDEST PUSH1 0x0 PUSH1 0x20 DUP3 ADD SWAP1 POP PUSH2 0xBA0 PUSH1 0x0 DUP4 ADD DUP5 PUSH2 0xACF JUMP JUMPDEST SWAP3 SWAP2 POP POP JUMP JUMPDEST PUSH1 0x0 DUP1 DUP4 CALLDATALOAD PUSH1 0x1 PUSH1 0x20 SUB DUP5 CALLDATASIZE SUB SUB DUP2 SLT PUSH2 0xBBF JUMPI PUSH1 0x0 DUP1 REVERT JUMPDEST DUP1 DUP5 ADD SWAP3 POP DUP3 CALLDATALOAD SWAP2 POP PUSH8 0xFFFFFFFFFFFFFFFF DUP3 GT ISZERO PUSH2 0xBDD JUMPI PUSH1 0x0 DUP1 REVERT JUMPDEST PUSH1 0x20 DUP4 ADD SWAP3 POP PUSH1 0x1 DUP3 MUL CALLDATASIZE SUB DUP4 SGT ISZERO PUSH2 0xBF5 JUMPI PUSH1 0x0 DUP1 REVERT JUMPDEST POP SWAP3 POP SWAP3 SWAP1 POP JUMP JUMPDEST PUSH1 0x0 PUSH1 0x40 MLOAD SWAP1 POP DUP2 DUP2 ADD DUP2 DUP2 LT PUSH8 0xFFFFFFFFFFFFFFFF DUP3 GT OR ISZERO PUSH2 0xC24 JUMPI PUSH2 0xC23 PUSH2 0xDE8 JUMP JUMPDEST JUMPDEST DUP1 PUSH1 0x40 MSTORE POP SWAP2 SWAP1 POP JUMP JUMPDEST PUSH1 0x0 PUSH8 0xFFFFFFFFFFFFFFFF DUP3 GT ISZERO PUSH2 0xC49 JUMPI PUSH2 0xC48 PUSH2 0xDE8 JUMP JUMPDEST JUMPDEST PUSH1 0x1F NOT PUSH1 0x1F DUP4 ADD AND SWAP1 POP PUSH1 0x20 DUP2 ADD SWAP1 POP SWAP2 SWAP1 POP JUMP JUMPDEST PUSH1 0x0 DUP2 MLOAD SWAP1 POP SWAP2 SWAP1 POP JUMP JUMPDEST PUSH1 0x0 DUP3 DUP3 MSTORE PUSH1 0x20 DUP3 ADD SWAP1 POP SWAP3 SWAP2 POP POP JUMP JUMPDEST PUSH1 0x0 DUP2 SWAP1 POP SWAP3 SWAP2 POP POP JUMP JUMPDEST PUSH1 0x0 PUSH2 0xC90 DUP3 PUSH2 0xCA3 JUMP JUMPDEST SWAP1 POP SWAP2 SWAP1 POP JUMP JUMPDEST PUSH1 0x0 DUP2 ISZERO ISZERO SWAP1 POP SWAP2 SWAP1 POP JUMP JUMPDEST PUSH1 0x0 PUSH20 0xFFFFFFFFFFFFFFFFFFFFFFFFFFFFFFFFFFFFFFFF DUP3 AND SWAP1 POP SWAP2 SWAP1 POP JUMP JUMPDEST PUSH1 0x0 DUP2 SWAP1 POP SWAP2 SWAP1 POP JUMP JUMPDEST DUP3 DUP2 DUP4 CALLDATACOPY PUSH1 0x0 DUP4 DUP4 ADD MSTORE POP POP POP JUMP JUMPDEST PUSH1 0x0 JUMPDEST DUP4 DUP2 LT ISZERO PUSH2 0xCFA JUMPI DUP1 DUP3 ADD MLOAD DUP2 DUP5 ADD MSTORE PUSH1 0x20 DUP2 ADD SWAP1 POP PUSH2 0xCDF JUMP JUMPDEST DUP4 DUP2 GT ISZERO PUSH2 0xD09 JUMPI PUSH1 0x0 DUP5 DUP5 ADD MSTORE JUMPDEST POP POP POP POP JUMP JUMPDEST PUSH1 0x0 PUSH1 0x2 DUP3 DIV SWAP1 POP PUSH1 0x1 DUP3 AND DUP1 PUSH2 0xD27 JUMPI PUSH1 0x7F DUP3 AND SWAP2 POP JUMPDEST PUSH1 0x20 DUP3 LT DUP2 EQ ISZERO PUSH2 0xD3B JUMPI PUSH2 0xD3A PUSH2 0xDB9 JUMP JUMPDEST JUMPDEST POP SWAP2 SWAP1 POP JUMP JUMPDEST PUSH1 0x0 PUSH2 0xD4C DUP3 PUSH2 0xCC3 JUMP JUMPDEST SWAP2 POP PUSH32 0xFFFFFFFFFFFFFFFFFFFFFFFFFFFFFFFFFFFFFFFFFFFFFFFFFFFFFFFFFFFFFFFF DUP3 EQ ISZERO PUSH2 0xD7F JUMPI PUSH2 0xD7E PUSH2 0xD8A JUMP JUMPDEST JUMPDEST PUSH1 0x1 DUP3 ADD SWAP1 POP SWAP2 SWAP1 POP JUMP JUMPDEST PUSH32 0x4E487B7100000000000000000000000000000000000000000000000000000000 PUSH1 0x0 MSTORE PUSH1 0x11 PUSH1 0x4 MSTORE PUSH1 0x24 PUSH1 0x0 REVERT JUMPDEST PUSH32 0x4E487B7100000000000000000000000000000000000000000000000000000000 PUSH1 0x0 MSTORE PUSH1 0x22 PUSH1 0x4 MSTORE PUSH1 0x24 PUSH1 0x0 REVERT JUMPDEST PUSH32 0x4E487B7100000000000000000000000000000000000000000000000000000000 PUSH1 0x0 MSTORE PUSH1 0x41 PUSH1 0x4 MSTORE PUSH1 0x24 PUSH1 0x0 REVERT JUMPDEST PUSH2 0xE20 DUP2 PUSH2 0xCC3 JUMP JUMPDEST DUP2 EQ PUSH2 0xE2B JUMPI PUSH1 0x0 DUP1 REVERT JUMPDEST POP JUMP INVALID LOG2 PUSH5 0x6970667358 0x22 SLT KECCAK256 EXTCODEHASH 0xDC 0xE8 0xC5 0xBA PUSH31 0x21A6B39E05A83BAEDFA3402813BF921A6DE11A609D2AE9A64E7364736F6C63 NUMBER STOP ADDMOD STOP STOP CALLER "
				},
				"gasEstimates": {
					"creation": {
						"codeDepositCost": "736800",
						"executionCost": "infinite",
						"totalCost": "infinite"
					},
					"external": {
						"AddBook((uint256,string,uint256,bool))": "infinite",
						"BorrowBook(string)": "infinite",
						"compareStrings(string,string)": "infinite",
						"firstArray(uint256)": "infinite",
						"getLength()": "1189",
						"owner()": "1236",
						"removeItem(uint256)": "6295"
					}
				},
				"methodIdentifiers": {
					"AddBook((uint256,string,uint256,bool))": "5d16b308",
					"BorrowBook(string)": "5b87081f",
					"compareStrings(string,string)": "bed34bba",
					"firstArray(uint256)": "5811a3b9",
					"getLength()": "be1c766b",
					"owner()": "8da5cb5b",
					"removeItem(uint256)": "71329171"
				}
			},
			"userdoc": {
				"kind": "user",
				"methods": {},
				"version": 1
			}
		}
	}
}