{
	"Library.sol": {
		"Library": {
			"abi": [
				{
					"inputs": [],
					"stateMutability": "nonpayable",
					"type": "constructor"
				},
				{
					"inputs": [
						{
							"internalType": "string",
							"name": "bookName",
							"type": "string"
						},
						{
							"internalType": "uint256",
							"name": "quantity",
							"type": "uint256"
						}
					],
					"name": "AddBook",
					"outputs": [],
					"stateMutability": "nonpayable",
					"type": "function"
				},
				{
					"inputs": [
						{
							"internalType": "uint256",
							"name": "",
							"type": "uint256"
						},
						{
							"internalType": "uint256",
							"name": "",
							"type": "uint256"
						}
					],
					"name": "BookBorrowHistory",
					"outputs": [
						{
							"internalType": "address",
							"name": "",
							"type": "address"
						}
					],
					"stateMutability": "view",
					"type": "function"
				},
				{
					"inputs": [
						{
							"internalType": "uint256",
							"name": "bookId",
							"type": "uint256"
						}
					],
					"name": "BorrowBook",
					"outputs": [],
					"stateMutability": "nonpayable",
					"type": "function"
				},
				{
					"inputs": [
						{
							"internalType": "address",
							"name": "",
							"type": "address"
						},
						{
							"internalType": "uint256",
							"name": "",
							"type": "uint256"
						}
					],
					"name": "ClientBorrowList",
					"outputs": [
						{
							"internalType": "uint256",
							"name": "",
							"type": "uint256"
						}
					],
					"stateMutability": "view",
					"type": "function"
				},
				{
					"inputs": [
						{
							"internalType": "uint256",
							"name": "",
							"type": "uint256"
						}
					],
					"name": "LibraryArchive",
					"outputs": [
						{
							"internalType": "uint256",
							"name": "id",
							"type": "uint256"
						},
						{
							"internalType": "string",
							"name": "name",
							"type": "string"
						},
						{
							"internalType": "uint256",
							"name": "quantity",
							"type": "uint256"
						},
						{
							"internalType": "bool",
							"name": "exists",
							"type": "bool"
						}
					],
					"stateMutability": "view",
					"type": "function"
				},
				{
					"inputs": [
						{
							"internalType": "uint256",
							"name": "bookId",
							"type": "uint256"
						}
					],
					"name": "ReturnBook",
					"outputs": [],
					"stateMutability": "nonpayable",
					"type": "function"
				},
				{
					"inputs": [],
					"name": "owner",
					"outputs": [
						{
							"internalType": "address",
							"name": "",
							"type": "address"
						}
					],
					"stateMutability": "view",
					"type": "function"
				}
			],
			"devdoc": {
				"kind": "dev",
				"methods": {},
				"version": 1
			},
			"evm": {
				"assembly": "    /* \"Library.sol\":88:2861  contract Library is Helpers{... */\n  mstore(0x40, 0x80)\n    /* \"Library.sol\":710:758  constructor(){... */\n  callvalue\n  dup1\n  iszero\n  tag_1\n  jumpi\n  0x00\n  dup1\n  revert\ntag_1:\n  pop\n    /* \"Library.sol\":741:751  msg.sender */\n  caller\n    /* \"Library.sol\":733:738  owner */\n  0x00\n  dup1\n    /* \"Library.sol\":733:751  owner = msg.sender */\n  0x0100\n  exp\n  dup2\n  sload\n  dup2\n  0xffffffffffffffffffffffffffffffffffffffff\n  mul\n  not\n  and\n  swap1\n  dup4\n  0xffffffffffffffffffffffffffffffffffffffff\n  and\n  mul\n  or\n  swap1\n  sstore\n  pop\n    /* \"Library.sol\":88:2861  contract Library is Helpers{... */\n  dataSize(sub_0)\n  dup1\n  dataOffset(sub_0)\n  0x00\n  codecopy\n  0x00\n  return\nstop\n\nsub_0: assembly {\n        /* \"Library.sol\":88:2861  contract Library is Helpers{... */\n      mstore(0x40, 0x80)\n      callvalue\n      dup1\n      iszero\n      tag_1\n      jumpi\n      0x00\n      dup1\n      revert\n    tag_1:\n      pop\n      jumpi(tag_2, lt(calldatasize, 0x04))\n      shr(0xe0, calldataload(0x00))\n      dup1\n      0x84ab2e1a\n      gt\n      tag_10\n      jumpi\n      dup1\n      0x84ab2e1a\n      eq\n      tag_6\n      jumpi\n      dup1\n      0x8da5cb5b\n      eq\n      tag_7\n      jumpi\n      dup1\n      0x9649faa3\n      eq\n      tag_8\n      jumpi\n      dup1\n      0xb8dd17db\n      eq\n      tag_9\n      jumpi\n      jump(tag_2)\n    tag_10:\n      dup1\n      0x265be2e2\n      eq\n      tag_3\n      jumpi\n      dup1\n      0x27e4671c\n      eq\n      tag_4\n      jumpi\n      dup1\n      0x2b3819fe\n      eq\n      tag_5\n      jumpi\n    tag_2:\n      0x00\n      dup1\n      revert\n        /* \"Library.sol\":764:1516  function AddBook(string calldata bookName, uint quantity) public onlyOwnable{... */\n    tag_3:\n      tag_11\n      0x04\n      dup1\n      calldatasize\n      sub\n      dup2\n      add\n      swap1\n      tag_12\n      swap2\n      swap1\n      tag_13\n      jump\t// in\n    tag_12:\n      tag_14\n      jump\t// in\n    tag_11:\n      stop\n        /* \"Library.sol\":274:302  Book[] public LibraryArchive */\n    tag_4:\n      tag_15\n      0x04\n      dup1\n      calldatasize\n      sub\n      dup2\n      add\n      swap1\n      tag_16\n      swap2\n      swap1\n      tag_17\n      jump\t// in\n    tag_16:\n      tag_18\n      jump\t// in\n    tag_15:\n      mload(0x40)\n      tag_19\n      swap5\n      swap4\n      swap3\n      swap2\n      swap1\n      tag_20\n      jump\t// in\n    tag_19:\n      mload(0x40)\n      dup1\n      swap2\n      sub\n      swap1\n      return\n        /* \"Library.sol\":405:455  mapping(address => uint[]) public ClientBorrowList */\n    tag_5:\n      tag_21\n      0x04\n      dup1\n      calldatasize\n      sub\n      dup2\n      add\n      swap1\n      tag_22\n      swap2\n      swap1\n      tag_23\n      jump\t// in\n    tag_22:\n      tag_24\n      jump\t// in\n    tag_21:\n      mload(0x40)\n      tag_25\n      swap2\n      swap1\n      tag_26\n      jump\t// in\n    tag_25:\n      mload(0x40)\n      dup1\n      swap2\n      sub\n      swap1\n      return\n        /* \"Library.sol\":347:398  mapping(uint => address[]) public BookBorrowHistory */\n    tag_6:\n      tag_27\n      0x04\n      dup1\n      calldatasize\n      sub\n      dup2\n      add\n      swap1\n      tag_28\n      swap2\n      swap1\n      tag_29\n      jump\t// in\n    tag_28:\n      tag_30\n      jump\t// in\n    tag_27:\n      mload(0x40)\n      tag_31\n      swap2\n      swap1\n      tag_32\n      jump\t// in\n    tag_31:\n      mload(0x40)\n      dup1\n      swap2\n      sub\n      swap1\n      return\n        /* \"Library.sol\":121:141  address public owner */\n    tag_7:\n      tag_33\n      tag_34\n      jump\t// in\n    tag_33:\n      mload(0x40)\n      tag_35\n      swap2\n      swap1\n      tag_32\n      jump\t// in\n    tag_35:\n      mload(0x40)\n      dup1\n      swap2\n      sub\n      swap1\n      return\n        /* \"Library.sol\":1522:2137  function BorrowBook(uint bookId) public shouldExist(bookId){    ... */\n    tag_8:\n      tag_36\n      0x04\n      dup1\n      calldatasize\n      sub\n      dup2\n      add\n      swap1\n      tag_37\n      swap2\n      swap1\n      tag_17\n      jump\t// in\n    tag_37:\n      tag_38\n      jump\t// in\n    tag_36:\n      stop\n        /* \"Library.sol\":2143:2572  function ReturnBook(uint bookId) public shouldExist(bookId){... */\n    tag_9:\n      tag_39\n      0x04\n      dup1\n      calldatasize\n      sub\n      dup2\n      add\n      swap1\n      tag_40\n      swap2\n      swap1\n      tag_17\n      jump\t// in\n    tag_40:\n      tag_41\n      jump\t// in\n    tag_39:\n      stop\n        /* \"Library.sol\":764:1516  function AddBook(string calldata bookName, uint quantity) public onlyOwnable{... */\n    tag_14:\n        /* \"Library.sol\":516:521  owner */\n      0x00\n      dup1\n      sload\n      swap1\n      0x0100\n      exp\n      swap1\n      div\n      0xffffffffffffffffffffffffffffffffffffffff\n      and\n        /* \"Library.sol\":502:521  msg.sender == owner */\n      0xffffffffffffffffffffffffffffffffffffffff\n      and\n        /* \"Library.sol\":502:512  msg.sender */\n      caller\n        /* \"Library.sol\":502:521  msg.sender == owner */\n      0xffffffffffffffffffffffffffffffffffffffff\n      and\n      eq\n        /* \"Library.sol\":494:552  require(msg.sender == owner, \"Current user is not owner!\") */\n      tag_43\n      jumpi\n      mload(0x40)\n      0x08c379a000000000000000000000000000000000000000000000000000000000\n      dup2\n      mstore\n      0x04\n      add\n      tag_44\n      swap1\n      tag_45\n      jump\t// in\n    tag_44:\n      mload(0x40)\n      dup1\n      swap2\n      sub\n      swap1\n      revert\n    tag_43:\n        /* \"Library.sol\":853:882  LibraryContainsBook(bookName) */\n      tag_47\n        /* \"Library.sol\":873:881  bookName */\n      dup4\n      dup4\n        /* \"Library.sol\":853:872  LibraryContainsBook */\n      tag_48\n        /* \"Library.sol\":853:882  LibraryContainsBook(bookName) */\n      jump\t// in\n    tag_47:\n        /* \"Library.sol\":853:911  LibraryContainsBook(bookName) || BookIndex[counter].exists */\n      dup1\n      tag_49\n      jumpi\n      pop\n        /* \"Library.sol\":886:895  BookIndex */\n      0x03\n        /* \"Library.sol\":886:904  BookIndex[counter] */\n      0x00\n        /* \"Library.sol\":896:903  counter */\n      sload(0x01)\n        /* \"Library.sol\":886:904  BookIndex[counter] */\n      dup2\n      mstore\n      0x20\n      add\n      swap1\n      dup2\n      mstore\n      0x20\n      add\n      0x00\n      keccak256\n        /* \"Library.sol\":886:911  BookIndex[counter].exists */\n      0x03\n      add\n      0x00\n      swap1\n      sload\n      swap1\n      0x0100\n      exp\n      swap1\n      div\n      0xff\n      and\n        /* \"Library.sol\":853:911  LibraryContainsBook(bookName) || BookIndex[counter].exists */\n    tag_49:\n        /* \"Library.sol\":850:979  if(LibraryContainsBook(bookName) || BookIndex[counter].exists){... */\n      iszero\n      tag_50\n      jumpi\n        /* \"Library.sol\":926:968  revert(\"This book exists in the library!\") */\n      mload(0x40)\n      0x08c379a000000000000000000000000000000000000000000000000000000000\n      dup2\n      mstore\n      0x04\n      add\n      tag_51\n      swap1\n      tag_52\n      jump\t// in\n    tag_51:\n      mload(0x40)\n      dup1\n      swap2\n      sub\n      swap1\n      revert\n        /* \"Library.sol\":850:979  if(LibraryContainsBook(bookName) || BookIndex[counter].exists){... */\n    tag_50:\n        /* \"Library.sol\":1002:1003  1 */\n      0x01\n        /* \"Library.sol\":991:999  quantity */\n      dup2\n        /* \"Library.sol\":991:1003  quantity < 1 */\n      lt\n        /* \"Library.sol\":988:1070  if(quantity < 1){... */\n      iszero\n      tag_53\n      jumpi\n        /* \"Library.sol\":1018:1059  revert(\"Quantity cannot be less than 1!\") */\n      mload(0x40)\n      0x08c379a000000000000000000000000000000000000000000000000000000000\n      dup2\n      mstore\n      0x04\n      add\n      tag_54\n      swap1\n      tag_55\n      jump\t// in\n    tag_54:\n      mload(0x40)\n      dup1\n      swap2\n      sub\n      swap1\n      revert\n        /* \"Library.sol\":988:1070  if(quantity < 1){... */\n    tag_53:\n        /* \"Library.sol\":1079:1102  bytes memory byteString */\n      0x00\n        /* \"Library.sol\":1111:1119  bookName */\n      dup4\n      dup4\n        /* \"Library.sol\":1079:1120  bytes memory byteString = bytes(bookName) */\n      dup1\n      dup1\n      0x1f\n      add\n      0x20\n      dup1\n      swap2\n      div\n      mul\n      0x20\n      add\n      mload(0x40)\n      swap1\n      dup2\n      add\n      0x40\n      mstore\n      dup1\n      swap4\n      swap3\n      swap2\n      swap1\n      dup2\n      dup2\n      mstore\n      0x20\n      add\n      dup4\n      dup4\n      dup1\n      dup3\n      dup5\n      calldatacopy\n      0x00\n      dup2\n      dup5\n      add\n      mstore\n      not(0x1f)\n      0x1f\n      dup3\n      add\n      and\n      swap1\n      pop\n      dup1\n      dup4\n      add\n      swap3\n      pop\n      pop\n      pop\n      pop\n      pop\n      pop\n      pop\n      swap1\n      pop\n        /* \"Library.sol\":1170:1171  0 */\n      0x00\n        /* \"Library.sol\":1149:1159  byteString */\n      dup2\n        /* \"Library.sol\":1149:1166  byteString.length */\n      mload\n        /* \"Library.sol\":1149:1171  byteString.length == 0 */\n      eq\n        /* \"Library.sol\":1145:1252  if (byteString.length == 0) {... */\n      iszero\n      tag_56\n      jumpi\n        /* \"Library.sol\":1187:1229  revert(\"This book exists in the library!\") */\n      mload(0x40)\n      0x08c379a000000000000000000000000000000000000000000000000000000000\n      dup2\n      mstore\n      0x04\n      add\n      tag_57\n      swap1\n      tag_52\n      jump\t// in\n    tag_57:\n      mload(0x40)\n      dup1\n      swap2\n      sub\n      swap1\n      revert\n        /* \"Library.sol\":1145:1252  if (byteString.length == 0) {... */\n    tag_56:\n        /* \"Library.sol\":1262:1281  Book memory newBook */\n      tag_58\n      tag_59\n      jump\t// in\n    tag_58:\n        /* \"Library.sol\":1304:1311  counter */\n      sload(0x01)\n        /* \"Library.sol\":1291:1298  newBook */\n      dup2\n        /* \"Library.sol\":1291:1301  newBook.id */\n      0x00\n      add\n        /* \"Library.sol\":1291:1311  newBook.id = counter */\n      dup2\n      dup2\n      mstore\n      pop\n      pop\n        /* \"Library.sol\":1336:1344  bookName */\n      dup5\n      dup5\n        /* \"Library.sol\":1321:1344  newBook.name = bookName */\n      dup1\n      dup1\n      0x1f\n      add\n      0x20\n      dup1\n      swap2\n      div\n      mul\n      0x20\n      add\n      mload(0x40)\n      swap1\n      dup2\n      add\n      0x40\n      mstore\n      dup1\n      swap4\n      swap3\n      swap2\n      swap1\n      dup2\n      dup2\n      mstore\n      0x20\n      add\n      dup4\n      dup4\n      dup1\n      dup3\n      dup5\n      calldatacopy\n      0x00\n      dup2\n      dup5\n      add\n      mstore\n      not(0x1f)\n      0x1f\n      dup3\n      add\n      and\n      swap1\n      pop\n      dup1\n      dup4\n      add\n      swap3\n      pop\n      pop\n      pop\n      pop\n      pop\n      pop\n      pop\n        /* \"Library.sol\":1321:1328  newBook */\n      dup2\n        /* \"Library.sol\":1321:1333  newBook.name */\n      0x20\n      add\n        /* \"Library.sol\":1321:1344  newBook.name = bookName */\n      dup2\n      swap1\n      mstore\n      pop\n        /* \"Library.sol\":1373:1381  quantity */\n      dup3\n        /* \"Library.sol\":1354:1361  newBook */\n      dup2\n        /* \"Library.sol\":1354:1370  newBook.quantity */\n      0x40\n      add\n        /* \"Library.sol\":1354:1381  newBook.quantity = quantity */\n      dup2\n      dup2\n      mstore\n      pop\n      pop\n        /* \"Library.sol\":1408:1412  true */\n      0x01\n        /* \"Library.sol\":1391:1398  newBook */\n      dup2\n        /* \"Library.sol\":1391:1405  newBook.exists */\n      0x60\n      add\n        /* \"Library.sol\":1391:1412  newBook.exists = true */\n      swap1\n      iszero\n      iszero\n      swap1\n      dup2\n      iszero\n      iszero\n      dup2\n      mstore\n      pop\n      pop\n        /* \"Library.sol\":1444:1451  newBook */\n      dup1\n        /* \"Library.sol\":1423:1432  BookIndex */\n      0x03\n        /* \"Library.sol\":1423:1441  BookIndex[counter] */\n      0x00\n        /* \"Library.sol\":1433:1440  counter */\n      sload(0x01)\n        /* \"Library.sol\":1423:1441  BookIndex[counter] */\n      dup2\n      mstore\n      0x20\n      add\n      swap1\n      dup2\n      mstore\n      0x20\n      add\n      0x00\n      keccak256\n        /* \"Library.sol\":1423:1451  BookIndex[counter] = newBook */\n      0x00\n      dup3\n      add\n      mload\n      dup2\n      0x00\n      add\n      sstore\n      0x20\n      dup3\n      add\n      mload\n      dup2\n      0x01\n      add\n      swap1\n      dup1\n      mload\n      swap1\n      0x20\n      add\n      swap1\n      tag_60\n      swap3\n      swap2\n      swap1\n      tag_61\n      jump\t// in\n    tag_60:\n      pop\n      0x40\n      dup3\n      add\n      mload\n      dup2\n      0x02\n      add\n      sstore\n      0x60\n      dup3\n      add\n      mload\n      dup2\n      0x03\n      add\n      exp(0x0100, 0x00)\n      dup2\n      sload\n      dup2\n      0xff\n      mul\n      not\n      and\n      swap1\n      dup4\n      iszero\n      iszero\n      mul\n      or\n      swap1\n      sstore\n      pop\n      swap1\n      pop\n      pop\n        /* \"Library.sol\":1461:1475  LibraryArchive */\n      0x02\n        /* \"Library.sol\":1481:1488  newBook */\n      dup2\n        /* \"Library.sol\":1461:1489  LibraryArchive.push(newBook) */\n      swap1\n      dup1\n      0x01\n      dup2\n      sload\n      add\n      dup1\n      dup3\n      sstore\n      dup1\n      swap2\n      pop\n      pop\n      0x01\n      swap1\n      sub\n      swap1\n      0x00\n      mstore\n      keccak256(0x00, 0x20)\n      swap1\n      0x04\n      mul\n      add\n      0x00\n      swap1\n      swap2\n      swap1\n      swap2\n      swap1\n      swap2\n      pop\n      0x00\n      dup3\n      add\n      mload\n      dup2\n      0x00\n      add\n      sstore\n      0x20\n      dup3\n      add\n      mload\n      dup2\n      0x01\n      add\n      swap1\n      dup1\n      mload\n      swap1\n      0x20\n      add\n      swap1\n      tag_63\n      swap3\n      swap2\n      swap1\n      tag_61\n      jump\t// in\n    tag_63:\n      pop\n      0x40\n      dup3\n      add\n      mload\n      dup2\n      0x02\n      add\n      sstore\n      0x60\n      dup3\n      add\n      mload\n      dup2\n      0x03\n      add\n      exp(0x0100, 0x00)\n      dup2\n      sload\n      dup2\n      0xff\n      mul\n      not\n      and\n      swap1\n      dup4\n      iszero\n      iszero\n      mul\n      or\n      swap1\n      sstore\n      pop\n      pop\n      pop\n        /* \"Library.sol\":1500:1507  counter */\n      0x01\n      0x00\n        /* \"Library.sol\":1500:1509  counter++ */\n      dup2\n      sload\n      dup1\n      swap3\n      swap2\n      swap1\n      tag_64\n      swap1\n      tag_65\n      jump\t// in\n    tag_64:\n      swap2\n      swap1\n      pop\n      sstore\n      pop\n        /* \"Library.sol\":562:563  _ */\n      pop\n      pop\n        /* \"Library.sol\":764:1516  function AddBook(string calldata bookName, uint quantity) public onlyOwnable{... */\n      pop\n      pop\n      pop\n      jump\t// out\n        /* \"Library.sol\":274:302  Book[] public LibraryArchive */\n    tag_18:\n      0x02\n      dup2\n      dup2\n      sload\n      dup2\n      lt\n      tag_66\n      jumpi\n      0x00\n      dup1\n      revert\n    tag_66:\n      swap1\n      0x00\n      mstore\n      keccak256(0x00, 0x20)\n      swap1\n      0x04\n      mul\n      add\n      0x00\n      swap2\n      pop\n      swap1\n      pop\n      dup1\n      0x00\n      add\n      sload\n      swap1\n      dup1\n      0x01\n      add\n      dup1\n      sload\n      tag_68\n      swap1\n      tag_69\n      jump\t// in\n    tag_68:\n      dup1\n      0x1f\n      add\n      0x20\n      dup1\n      swap2\n      div\n      mul\n      0x20\n      add\n      mload(0x40)\n      swap1\n      dup2\n      add\n      0x40\n      mstore\n      dup1\n      swap3\n      swap2\n      swap1\n      dup2\n      dup2\n      mstore\n      0x20\n      add\n      dup3\n      dup1\n      sload\n      tag_70\n      swap1\n      tag_69\n      jump\t// in\n    tag_70:\n      dup1\n      iszero\n      tag_71\n      jumpi\n      dup1\n      0x1f\n      lt\n      tag_72\n      jumpi\n      0x0100\n      dup1\n      dup4\n      sload\n      div\n      mul\n      dup4\n      mstore\n      swap2\n      0x20\n      add\n      swap2\n      jump(tag_71)\n    tag_72:\n      dup3\n      add\n      swap2\n      swap1\n      0x00\n      mstore\n      keccak256(0x00, 0x20)\n      swap1\n    tag_73:\n      dup2\n      sload\n      dup2\n      mstore\n      swap1\n      0x01\n      add\n      swap1\n      0x20\n      add\n      dup1\n      dup4\n      gt\n      tag_73\n      jumpi\n      dup3\n      swap1\n      sub\n      0x1f\n      and\n      dup3\n      add\n      swap2\n    tag_71:\n      pop\n      pop\n      pop\n      pop\n      pop\n      swap1\n      dup1\n      0x02\n      add\n      sload\n      swap1\n      dup1\n      0x03\n      add\n      0x00\n      swap1\n      sload\n      swap1\n      0x0100\n      exp\n      swap1\n      div\n      0xff\n      and\n      swap1\n      pop\n      dup5\n      jump\t// out\n        /* \"Library.sol\":405:455  mapping(address => uint[]) public ClientBorrowList */\n    tag_24:\n      mstore(0x20, 0x05)\n      dup2\n      0x00\n      mstore\n      keccak256(0x00, 0x40)\n      dup2\n      dup2\n      sload\n      dup2\n      lt\n      tag_74\n      jumpi\n      0x00\n      dup1\n      revert\n    tag_74:\n      swap1\n      0x00\n      mstore\n      keccak256(0x00, 0x20)\n      add\n      0x00\n      swap2\n      pop\n      swap2\n      pop\n      pop\n      sload\n      dup2\n      jump\t// out\n        /* \"Library.sol\":347:398  mapping(uint => address[]) public BookBorrowHistory */\n    tag_30:\n      mstore(0x20, 0x04)\n      dup2\n      0x00\n      mstore\n      keccak256(0x00, 0x40)\n      dup2\n      dup2\n      sload\n      dup2\n      lt\n      tag_76\n      jumpi\n      0x00\n      dup1\n      revert\n    tag_76:\n      swap1\n      0x00\n      mstore\n      keccak256(0x00, 0x20)\n      add\n      0x00\n      swap2\n      pop\n      swap2\n      pop\n      swap1\n      sload\n      swap1\n      0x0100\n      exp\n      swap1\n      div\n      0xffffffffffffffffffffffffffffffffffffffff\n      and\n      dup2\n      jump\t// out\n        /* \"Library.sol\":121:141  address public owner */\n    tag_34:\n      0x00\n      dup1\n      sload\n      swap1\n      0x0100\n      exp\n      swap1\n      div\n      0xffffffffffffffffffffffffffffffffffffffff\n      and\n      dup2\n      jump\t// out\n        /* \"Library.sol\":1522:2137  function BorrowBook(uint bookId) public shouldExist(bookId){    ... */\n    tag_38:\n        /* \"Library.sol\":1574:1580  bookId */\n      dup1\n        /* \"Library.sol\":627:636  BookIndex */\n      0x03\n        /* \"Library.sol\":627:644  BookIndex[bookId] */\n      0x00\n        /* \"Library.sol\":637:643  bookId */\n      dup3\n        /* \"Library.sol\":627:644  BookIndex[bookId] */\n      dup2\n      mstore\n      0x20\n      add\n      swap1\n      dup2\n      mstore\n      0x20\n      add\n      0x00\n      keccak256\n        /* \"Library.sol\":627:651  BookIndex[bookId].exists */\n      0x03\n      add\n      0x00\n      swap1\n      sload\n      swap1\n      0x0100\n      exp\n      swap1\n      div\n      0xff\n      and\n        /* \"Library.sol\":619:686  require(BookIndex[bookId].exists,\"Book does not exist in library!\") */\n      tag_79\n      jumpi\n      mload(0x40)\n      0x08c379a000000000000000000000000000000000000000000000000000000000\n      dup2\n      mstore\n      0x04\n      add\n      tag_80\n      swap1\n      tag_81\n      jump\t// in\n    tag_80:\n      mload(0x40)\n      dup1\n      swap2\n      sub\n      swap1\n      revert\n    tag_79:\n        /* \"Library.sol\":1626:1627  0 */\n      0x00\n        /* \"Library.sol\":1598:1607  BookIndex */\n      0x03\n        /* \"Library.sol\":1598:1615  BookIndex[bookId] */\n      0x00\n        /* \"Library.sol\":1608:1614  bookId */\n      dup5\n        /* \"Library.sol\":1598:1615  BookIndex[bookId] */\n      dup2\n      mstore\n      0x20\n      add\n      swap1\n      dup2\n      mstore\n      0x20\n      add\n      0x00\n      keccak256\n        /* \"Library.sol\":1598:1624  BookIndex[bookId].quantity */\n      0x02\n      add\n      sload\n        /* \"Library.sol\":1598:1627  BookIndex[bookId].quantity==0 */\n      eq\n        /* \"Library.sol\":1595:1699  if(BookIndex[bookId].quantity==0){... */\n      iszero\n      tag_83\n      jumpi\n        /* \"Library.sol\":1642:1688  revert(\"This book is out of stock currently!\") */\n      mload(0x40)\n      0x08c379a000000000000000000000000000000000000000000000000000000000\n      dup2\n      mstore\n      0x04\n      add\n      tag_84\n      swap1\n      tag_85\n      jump\t// in\n    tag_84:\n      mload(0x40)\n      dup1\n      swap2\n      sub\n      swap1\n      revert\n        /* \"Library.sol\":1595:1699  if(BookIndex[bookId].quantity==0){... */\n    tag_83:\n        /* \"Library.sol\":1715:1772  intArrContainsValue(bookId, ClientBorrowList[msg.sender]) */\n      tag_86\n        /* \"Library.sol\":1735:1741  bookId */\n      dup3\n        /* \"Library.sol\":1743:1759  ClientBorrowList */\n      0x05\n        /* \"Library.sol\":1743:1771  ClientBorrowList[msg.sender] */\n      0x00\n        /* \"Library.sol\":1760:1770  msg.sender */\n      caller\n        /* \"Library.sol\":1743:1771  ClientBorrowList[msg.sender] */\n      0xffffffffffffffffffffffffffffffffffffffff\n      and\n      0xffffffffffffffffffffffffffffffffffffffff\n      and\n      dup2\n      mstore\n      0x20\n      add\n      swap1\n      dup2\n      mstore\n      0x20\n      add\n      0x00\n      keccak256\n        /* \"Library.sol\":1715:1772  intArrContainsValue(bookId, ClientBorrowList[msg.sender]) */\n      dup1\n      sload\n      dup1\n      0x20\n      mul\n      0x20\n      add\n      mload(0x40)\n      swap1\n      dup2\n      add\n      0x40\n      mstore\n      dup1\n      swap3\n      swap2\n      swap1\n      dup2\n      dup2\n      mstore\n      0x20\n      add\n      dup3\n      dup1\n      sload\n      dup1\n      iszero\n      tag_87\n      jumpi\n      0x20\n      mul\n      dup3\n      add\n      swap2\n      swap1\n      0x00\n      mstore\n      keccak256(0x00, 0x20)\n      swap1\n    tag_88:\n      dup2\n      sload\n      dup2\n      mstore\n      0x20\n      add\n      swap1\n      0x01\n      add\n      swap1\n      dup1\n      dup4\n      gt\n      tag_88\n      jumpi\n    tag_87:\n      pop\n      pop\n      pop\n      pop\n      pop\n        /* \"Library.sol\":1715:1734  intArrContainsValue */\n      tag_89\n        /* \"Library.sol\":1715:1772  intArrContainsValue(bookId, ClientBorrowList[msg.sender]) */\n      jump\t// in\n    tag_86:\n        /* \"Library.sol\":1712:1842  if(intArrContainsValue(bookId, ClientBorrowList[msg.sender])){... */\n      iszero\n      tag_90\n      jumpi\n        /* \"Library.sol\":1787:1831  revert(\"You've already borrowed that book!\") */\n      mload(0x40)\n      0x08c379a000000000000000000000000000000000000000000000000000000000\n      dup2\n      mstore\n      0x04\n      add\n      tag_91\n      swap1\n      tag_92\n      jump\t// in\n    tag_91:\n      mload(0x40)\n      dup1\n      swap2\n      sub\n      swap1\n      revert\n        /* \"Library.sol\":1712:1842  if(intArrContainsValue(bookId, ClientBorrowList[msg.sender])){... */\n    tag_90:\n        /* \"Library.sol\":1852:1868  ClientBorrowList */\n      0x05\n        /* \"Library.sol\":1852:1880  ClientBorrowList[msg.sender] */\n      0x00\n        /* \"Library.sol\":1869:1879  msg.sender */\n      caller\n        /* \"Library.sol\":1852:1880  ClientBorrowList[msg.sender] */\n      0xffffffffffffffffffffffffffffffffffffffff\n      and\n      0xffffffffffffffffffffffffffffffffffffffff\n      and\n      dup2\n      mstore\n      0x20\n      add\n      swap1\n      dup2\n      mstore\n      0x20\n      add\n      0x00\n      keccak256\n        /* \"Library.sol\":1886:1892  bookId */\n      dup3\n        /* \"Library.sol\":1852:1893  ClientBorrowList[msg.sender].push(bookId) */\n      swap1\n      dup1\n      0x01\n      dup2\n      sload\n      add\n      dup1\n      dup3\n      sstore\n      dup1\n      swap2\n      pop\n      pop\n      0x01\n      swap1\n      sub\n      swap1\n      0x00\n      mstore\n      keccak256(0x00, 0x20)\n      add\n      0x00\n      swap1\n      swap2\n      swap1\n      swap2\n      swap1\n      swap2\n      pop\n      sstore\n        /* \"Library.sol\":1909:1971  addressArrContainsValue(msg.sender, BookBorrowHistory[bookId]) */\n      tag_94\n        /* \"Library.sol\":1933:1943  msg.sender */\n      caller\n        /* \"Library.sol\":1945:1962  BookBorrowHistory */\n      0x04\n        /* \"Library.sol\":1945:1970  BookBorrowHistory[bookId] */\n      0x00\n        /* \"Library.sol\":1963:1969  bookId */\n      dup6\n        /* \"Library.sol\":1945:1970  BookBorrowHistory[bookId] */\n      dup2\n      mstore\n      0x20\n      add\n      swap1\n      dup2\n      mstore\n      0x20\n      add\n      0x00\n      keccak256\n        /* \"Library.sol\":1909:1971  addressArrContainsValue(msg.sender, BookBorrowHistory[bookId]) */\n      dup1\n      sload\n      dup1\n      0x20\n      mul\n      0x20\n      add\n      mload(0x40)\n      swap1\n      dup2\n      add\n      0x40\n      mstore\n      dup1\n      swap3\n      swap2\n      swap1\n      dup2\n      dup2\n      mstore\n      0x20\n      add\n      dup3\n      dup1\n      sload\n      dup1\n      iszero\n      tag_95\n      jumpi\n      0x20\n      mul\n      dup3\n      add\n      swap2\n      swap1\n      0x00\n      mstore\n      keccak256(0x00, 0x20)\n      swap1\n    tag_96:\n      dup2\n      0x00\n      swap1\n      sload\n      swap1\n      0x0100\n      exp\n      swap1\n      div\n      0xffffffffffffffffffffffffffffffffffffffff\n      and\n      0xffffffffffffffffffffffffffffffffffffffff\n      and\n      dup2\n      mstore\n      0x20\n      add\n      swap1\n      0x01\n      add\n      swap1\n      dup1\n      dup4\n      gt\n      tag_96\n      jumpi\n    tag_95:\n      pop\n      pop\n      pop\n      pop\n      pop\n        /* \"Library.sol\":1909:1932  addressArrContainsValue */\n      tag_97\n        /* \"Library.sol\":1909:1971  addressArrContainsValue(msg.sender, BookBorrowHistory[bookId]) */\n      jump\t// in\n    tag_94:\n        /* \"Library.sol\":1905:2047  if(!addressArrContainsValue(msg.sender, BookBorrowHistory[bookId])){... */\n      tag_98\n      jumpi\n        /* \"Library.sol\":1986:2003  BookBorrowHistory */\n      0x04\n        /* \"Library.sol\":1986:2011  BookBorrowHistory[bookId] */\n      0x00\n        /* \"Library.sol\":2004:2010  bookId */\n      dup4\n        /* \"Library.sol\":1986:2011  BookBorrowHistory[bookId] */\n      dup2\n      mstore\n      0x20\n      add\n      swap1\n      dup2\n      mstore\n      0x20\n      add\n      0x00\n      keccak256\n        /* \"Library.sol\":2017:2027  msg.sender */\n      caller\n        /* \"Library.sol\":1986:2028  BookBorrowHistory[bookId].push(msg.sender) */\n      swap1\n      dup1\n      0x01\n      dup2\n      sload\n      add\n      dup1\n      dup3\n      sstore\n      dup1\n      swap2\n      pop\n      pop\n      0x01\n      swap1\n      sub\n      swap1\n      0x00\n      mstore\n      keccak256(0x00, 0x20)\n      add\n      0x00\n      swap1\n      swap2\n      swap1\n      swap2\n      swap1\n      swap2\n      0x0100\n      exp\n      dup2\n      sload\n      dup2\n      0xffffffffffffffffffffffffffffffffffffffff\n      mul\n      not\n      and\n      swap1\n      dup4\n      0xffffffffffffffffffffffffffffffffffffffff\n      and\n      mul\n      or\n      swap1\n      sstore\n      pop\n        /* \"Library.sol\":1905:2047  if(!addressArrContainsValue(msg.sender, BookBorrowHistory[bookId])){... */\n    tag_98:\n        /* \"Library.sol\":2057:2066  BookIndex */\n      0x03\n        /* \"Library.sol\":2057:2074  BookIndex[bookId] */\n      0x00\n        /* \"Library.sol\":2067:2073  bookId */\n      dup4\n        /* \"Library.sol\":2057:2074  BookIndex[bookId] */\n      dup2\n      mstore\n      0x20\n      add\n      swap1\n      dup2\n      mstore\n      0x20\n      add\n      0x00\n      keccak256\n        /* \"Library.sol\":2057:2083  BookIndex[bookId].quantity */\n      0x02\n      add\n      0x00\n        /* \"Library.sol\":2057:2086  BookIndex[bookId].quantity -- */\n      dup2\n      sload\n      dup1\n      swap3\n      swap2\n      swap1\n      tag_100\n      swap1\n      tag_101\n      jump\t// in\n    tag_100:\n      swap2\n      swap1\n      pop\n      sstore\n      pop\n        /* \"Library.sol\":2096:2110  LibraryArchive */\n      0x02\n        /* \"Library.sol\":2111:2117  bookId */\n      dup3\n        /* \"Library.sol\":2096:2118  LibraryArchive[bookId] */\n      dup2\n      sload\n      dup2\n      lt\n      tag_102\n      jumpi\n      mstore(0x00, 0x4e487b7100000000000000000000000000000000000000000000000000000000)\n      mstore(0x04, 0x32)\n      revert(0x00, 0x24)\n    tag_102:\n      swap1\n      0x00\n      mstore\n      keccak256(0x00, 0x20)\n      swap1\n      0x04\n      mul\n      add\n        /* \"Library.sol\":2096:2127  LibraryArchive[bookId].quantity */\n      0x02\n      add\n      0x00\n        /* \"Library.sol\":2096:2130  LibraryArchive[bookId].quantity -- */\n      dup2\n      sload\n      dup1\n      swap3\n      swap2\n      swap1\n      tag_104\n      swap1\n      tag_101\n      jump\t// in\n    tag_104:\n      swap2\n      swap1\n      pop\n      sstore\n      pop\n        /* \"Library.sol\":1522:2137  function BorrowBook(uint bookId) public shouldExist(bookId){    ... */\n      pop\n      pop\n      jump\t// out\n        /* \"Library.sol\":2143:2572  function ReturnBook(uint bookId) public shouldExist(bookId){... */\n    tag_41:\n        /* \"Library.sol\":2195:2201  bookId */\n      dup1\n        /* \"Library.sol\":627:636  BookIndex */\n      0x03\n        /* \"Library.sol\":627:644  BookIndex[bookId] */\n      0x00\n        /* \"Library.sol\":637:643  bookId */\n      dup3\n        /* \"Library.sol\":627:644  BookIndex[bookId] */\n      dup2\n      mstore\n      0x20\n      add\n      swap1\n      dup2\n      mstore\n      0x20\n      add\n      0x00\n      keccak256\n        /* \"Library.sol\":627:651  BookIndex[bookId].exists */\n      0x03\n      add\n      0x00\n      swap1\n      sload\n      swap1\n      0x0100\n      exp\n      swap1\n      div\n      0xff\n      and\n        /* \"Library.sol\":619:686  require(BookIndex[bookId].exists,\"Book does not exist in library!\") */\n      tag_106\n      jumpi\n      mload(0x40)\n      0x08c379a000000000000000000000000000000000000000000000000000000000\n      dup2\n      mstore\n      0x04\n      add\n      tag_107\n      swap1\n      tag_81\n      jump\t// in\n    tag_107:\n      mload(0x40)\n      dup1\n      swap2\n      sub\n      swap1\n      revert\n    tag_106:\n        /* \"Library.sol\":2216:2273  intArrContainsValue(bookId, ClientBorrowList[msg.sender]) */\n      tag_109\n        /* \"Library.sol\":2236:2242  bookId */\n      dup3\n        /* \"Library.sol\":2244:2260  ClientBorrowList */\n      0x05\n        /* \"Library.sol\":2244:2272  ClientBorrowList[msg.sender] */\n      0x00\n        /* \"Library.sol\":2261:2271  msg.sender */\n      caller\n        /* \"Library.sol\":2244:2272  ClientBorrowList[msg.sender] */\n      0xffffffffffffffffffffffffffffffffffffffff\n      and\n      0xffffffffffffffffffffffffffffffffffffffff\n      and\n      dup2\n      mstore\n      0x20\n      add\n      swap1\n      dup2\n      mstore\n      0x20\n      add\n      0x00\n      keccak256\n        /* \"Library.sol\":2216:2273  intArrContainsValue(bookId, ClientBorrowList[msg.sender]) */\n      dup1\n      sload\n      dup1\n      0x20\n      mul\n      0x20\n      add\n      mload(0x40)\n      swap1\n      dup2\n      add\n      0x40\n      mstore\n      dup1\n      swap3\n      swap2\n      swap1\n      dup2\n      dup2\n      mstore\n      0x20\n      add\n      dup3\n      dup1\n      sload\n      dup1\n      iszero\n      tag_110\n      jumpi\n      0x20\n      mul\n      dup3\n      add\n      swap2\n      swap1\n      0x00\n      mstore\n      keccak256(0x00, 0x20)\n      swap1\n    tag_111:\n      dup2\n      sload\n      dup2\n      mstore\n      0x20\n      add\n      swap1\n      0x01\n      add\n      swap1\n      dup1\n      dup4\n      gt\n      tag_111\n      jumpi\n    tag_110:\n      pop\n      pop\n      pop\n      pop\n      pop\n        /* \"Library.sol\":2216:2235  intArrContainsValue */\n      tag_89\n        /* \"Library.sol\":2216:2273  intArrContainsValue(bookId, ClientBorrowList[msg.sender]) */\n      jump\t// in\n    tag_109:\n        /* \"Library.sol\":2212:2339  if(!intArrContainsValue(bookId, ClientBorrowList[msg.sender])){... */\n      tag_112\n      jumpi\n        /* \"Library.sol\":2288:2328  revert(\"You havent borrowed that book!\") */\n      mload(0x40)\n      0x08c379a000000000000000000000000000000000000000000000000000000000\n      dup2\n      mstore\n      0x04\n      add\n      tag_113\n      swap1\n      tag_114\n      jump\t// in\n    tag_113:\n      mload(0x40)\n      dup1\n      swap2\n      sub\n      swap1\n      revert\n        /* \"Library.sol\":2212:2339  if(!intArrContainsValue(bookId, ClientBorrowList[msg.sender])){... */\n    tag_112:\n        /* \"Library.sol\":2425:2482  removeIntArrElement(ClientBorrowList[msg.sender], bookId) */\n      tag_115\n        /* \"Library.sol\":2445:2461  ClientBorrowList */\n      0x05\n        /* \"Library.sol\":2445:2473  ClientBorrowList[msg.sender] */\n      0x00\n        /* \"Library.sol\":2462:2472  msg.sender */\n      caller\n        /* \"Library.sol\":2445:2473  ClientBorrowList[msg.sender] */\n      0xffffffffffffffffffffffffffffffffffffffff\n      and\n      0xffffffffffffffffffffffffffffffffffffffff\n      and\n      dup2\n      mstore\n      0x20\n      add\n      swap1\n      dup2\n      mstore\n      0x20\n      add\n      0x00\n      keccak256\n        /* \"Library.sol\":2475:2481  bookId */\n      dup4\n        /* \"Library.sol\":2425:2444  removeIntArrElement */\n      tag_116\n        /* \"Library.sol\":2425:2482  removeIntArrElement(ClientBorrowList[msg.sender], bookId) */\n      jump\t// in\n    tag_115:\n        /* \"Library.sol\":2492:2501  BookIndex */\n      0x03\n        /* \"Library.sol\":2492:2509  BookIndex[bookId] */\n      0x00\n        /* \"Library.sol\":2502:2508  bookId */\n      dup4\n        /* \"Library.sol\":2492:2509  BookIndex[bookId] */\n      dup2\n      mstore\n      0x20\n      add\n      swap1\n      dup2\n      mstore\n      0x20\n      add\n      0x00\n      keccak256\n        /* \"Library.sol\":2492:2518  BookIndex[bookId].quantity */\n      0x02\n      add\n      0x00\n        /* \"Library.sol\":2492:2521  BookIndex[bookId].quantity ++ */\n      dup2\n      sload\n      dup1\n      swap3\n      swap2\n      swap1\n      tag_117\n      swap1\n      tag_65\n      jump\t// in\n    tag_117:\n      swap2\n      swap1\n      pop\n      sstore\n      pop\n        /* \"Library.sol\":2531:2545  LibraryArchive */\n      0x02\n        /* \"Library.sol\":2546:2552  bookId */\n      dup3\n        /* \"Library.sol\":2531:2553  LibraryArchive[bookId] */\n      dup2\n      sload\n      dup2\n      lt\n      tag_118\n      jumpi\n      mstore(0x00, 0x4e487b7100000000000000000000000000000000000000000000000000000000)\n      mstore(0x04, 0x32)\n      revert(0x00, 0x24)\n    tag_118:\n      swap1\n      0x00\n      mstore\n      keccak256(0x00, 0x20)\n      swap1\n      0x04\n      mul\n      add\n        /* \"Library.sol\":2531:2562  LibraryArchive[bookId].quantity */\n      0x02\n      add\n      0x00\n        /* \"Library.sol\":2531:2565  LibraryArchive[bookId].quantity ++ */\n      dup2\n      sload\n      dup1\n      swap3\n      swap2\n      swap1\n      tag_120\n      swap1\n      tag_65\n      jump\t// in\n    tag_120:\n      swap2\n      swap1\n      pop\n      sstore\n      pop\n        /* \"Library.sol\":2143:2572  function ReturnBook(uint bookId) public shouldExist(bookId){... */\n      pop\n      pop\n      jump\t// out\n        /* \"Library.sol\":2578:2859  function LibraryContainsBook(string calldata bookName) private view returns (bool){... */\n    tag_48:\n        /* \"Library.sol\":2655:2659  bool */\n      0x00\n        /* \"Library.sol\":2674:2680  uint i */\n      dup1\n        /* \"Library.sol\":2681:2682  0 */\n      0x00\n        /* \"Library.sol\":2674:2682  uint i=0 */\n      swap1\n      pop\n        /* \"Library.sol\":2670:2831  for(uint i=0;i<LibraryArchive.length;i++){... */\n    tag_122:\n        /* \"Library.sol\":2685:2699  LibraryArchive */\n      0x02\n        /* \"Library.sol\":2685:2706  LibraryArchive.length */\n      dup1\n      sload\n      swap1\n      pop\n        /* \"Library.sol\":2683:2684  i */\n      dup2\n        /* \"Library.sol\":2683:2706  i<LibraryArchive.length */\n      lt\n        /* \"Library.sol\":2670:2831  for(uint i=0;i<LibraryArchive.length;i++){... */\n      iszero\n      tag_123\n      jumpi\n        /* \"Library.sol\":2728:2776  compareStrings(LibraryArchive[i].name, bookName) */\n      tag_125\n        /* \"Library.sol\":2743:2757  LibraryArchive */\n      0x02\n        /* \"Library.sol\":2758:2759  i */\n      dup3\n        /* \"Library.sol\":2743:2760  LibraryArchive[i] */\n      dup2\n      sload\n      dup2\n      lt\n      tag_126\n      jumpi\n      mstore(0x00, 0x4e487b7100000000000000000000000000000000000000000000000000000000)\n      mstore(0x04, 0x32)\n      revert(0x00, 0x24)\n    tag_126:\n      swap1\n      0x00\n      mstore\n      keccak256(0x00, 0x20)\n      swap1\n      0x04\n      mul\n      add\n        /* \"Library.sol\":2743:2765  LibraryArchive[i].name */\n      0x01\n      add\n        /* \"Library.sol\":2728:2776  compareStrings(LibraryArchive[i].name, bookName) */\n      dup1\n      sload\n      tag_128\n      swap1\n      tag_69\n      jump\t// in\n    tag_128:\n      dup1\n      0x1f\n      add\n      0x20\n      dup1\n      swap2\n      div\n      mul\n      0x20\n      add\n      mload(0x40)\n      swap1\n      dup2\n      add\n      0x40\n      mstore\n      dup1\n      swap3\n      swap2\n      swap1\n      dup2\n      dup2\n      mstore\n      0x20\n      add\n      dup3\n      dup1\n      sload\n      tag_129\n      swap1\n      tag_69\n      jump\t// in\n    tag_129:\n      dup1\n      iszero\n      tag_130\n      jumpi\n      dup1\n      0x1f\n      lt\n      tag_131\n      jumpi\n      0x0100\n      dup1\n      dup4\n      sload\n      div\n      mul\n      dup4\n      mstore\n      swap2\n      0x20\n      add\n      swap2\n      jump(tag_130)\n    tag_131:\n      dup3\n      add\n      swap2\n      swap1\n      0x00\n      mstore\n      keccak256(0x00, 0x20)\n      swap1\n    tag_132:\n      dup2\n      sload\n      dup2\n      mstore\n      swap1\n      0x01\n      add\n      swap1\n      0x20\n      add\n      dup1\n      dup4\n      gt\n      tag_132\n      jumpi\n      dup3\n      swap1\n      sub\n      0x1f\n      and\n      dup3\n      add\n      swap2\n    tag_130:\n      pop\n      pop\n      pop\n      pop\n      pop\n        /* \"Library.sol\":2767:2775  bookName */\n      dup6\n      dup6\n        /* \"Library.sol\":2728:2776  compareStrings(LibraryArchive[i].name, bookName) */\n      dup1\n      dup1\n      0x1f\n      add\n      0x20\n      dup1\n      swap2\n      div\n      mul\n      0x20\n      add\n      mload(0x40)\n      swap1\n      dup2\n      add\n      0x40\n      mstore\n      dup1\n      swap4\n      swap3\n      swap2\n      swap1\n      dup2\n      dup2\n      mstore\n      0x20\n      add\n      dup4\n      dup4\n      dup1\n      dup3\n      dup5\n      calldatacopy\n      0x00\n      dup2\n      dup5\n      add\n      mstore\n      not(0x1f)\n      0x1f\n      dup3\n      add\n      and\n      swap1\n      pop\n      dup1\n      dup4\n      add\n      swap3\n      pop\n      pop\n      pop\n      pop\n      pop\n      pop\n      pop\n        /* \"Library.sol\":2728:2742  compareStrings */\n      tag_133\n        /* \"Library.sol\":2728:2776  compareStrings(LibraryArchive[i].name, bookName) */\n      jump\t// in\n    tag_125:\n        /* \"Library.sol\":2725:2821  if(compareStrings(LibraryArchive[i].name, bookName)){... */\n      iszero\n      tag_134\n      jumpi\n        /* \"Library.sol\":2802:2806  true */\n      0x01\n        /* \"Library.sol\":2795:2806  return true */\n      swap2\n      pop\n      pop\n      jump(tag_121)\n        /* \"Library.sol\":2725:2821  if(compareStrings(LibraryArchive[i].name, bookName)){... */\n    tag_134:\n        /* \"Library.sol\":2707:2710  i++ */\n      dup1\n      dup1\n      tag_135\n      swap1\n      tag_65\n      jump\t// in\n    tag_135:\n      swap2\n      pop\n      pop\n        /* \"Library.sol\":2670:2831  for(uint i=0;i<LibraryArchive.length;i++){... */\n      jump(tag_122)\n    tag_123:\n      pop\n        /* \"Library.sol\":2847:2852  false */\n      0x00\n        /* \"Library.sol\":2840:2852  return false */\n      swap1\n      pop\n        /* \"Library.sol\":2578:2859  function LibraryContainsBook(string calldata bookName) private view returns (bool){... */\n    tag_121:\n      swap3\n      swap2\n      pop\n      pop\n      jump\t// out\n        /* \"Helpers.sol\":86:350  function intArrContainsValue(uint value, uint[] memory array) internal pure returns(bool){   ... */\n    tag_89:\n        /* \"Helpers.sol\":170:174  bool */\n      0x00\n        /* \"Helpers.sol\":193:199  uint i */\n      dup1\n        /* \"Helpers.sol\":200:201  0 */\n      0x00\n        /* \"Helpers.sol\":193:201  uint i=0 */\n      swap1\n      pop\n        /* \"Helpers.sol\":188:322  for (uint i=0; i < array.length; i++) {... */\n    tag_137:\n        /* \"Helpers.sol\":207:212  array */\n      dup3\n        /* \"Helpers.sol\":207:219  array.length */\n      mload\n        /* \"Helpers.sol\":203:204  i */\n      dup2\n        /* \"Helpers.sol\":203:219  i < array.length */\n      lt\n        /* \"Helpers.sol\":188:322  for (uint i=0; i < array.length; i++) {... */\n      iszero\n      tag_138\n      jumpi\n        /* \"Helpers.sol\":253:258  array */\n      dup3\n        /* \"Helpers.sol\":259:260  i */\n      dup2\n        /* \"Helpers.sol\":253:261  array[i] */\n      dup2\n      mload\n      dup2\n      lt\n      tag_140\n      jumpi\n      mstore(0x00, 0x4e487b7100000000000000000000000000000000000000000000000000000000)\n      mstore(0x04, 0x32)\n      revert(0x00, 0x24)\n    tag_140:\n      0x20\n      mul\n      0x20\n      add\n      add\n      mload\n        /* \"Helpers.sol\":244:249  value */\n      dup5\n        /* \"Helpers.sol\":244:261  value == array[i] */\n      eq\n        /* \"Helpers.sol\":240:312  if (value == array[i]) {     ... */\n      iszero\n      tag_141\n      jumpi\n        /* \"Helpers.sol\":293:297  true */\n      0x01\n        /* \"Helpers.sol\":286:297  return true */\n      swap2\n      pop\n      pop\n      jump(tag_136)\n        /* \"Helpers.sol\":240:312  if (value == array[i]) {     ... */\n    tag_141:\n        /* \"Helpers.sol\":221:224  i++ */\n      dup1\n      dup1\n      tag_142\n      swap1\n      tag_65\n      jump\t// in\n    tag_142:\n      swap2\n      pop\n      pop\n        /* \"Helpers.sol\":188:322  for (uint i=0; i < array.length; i++) {... */\n      jump(tag_137)\n    tag_138:\n      pop\n        /* \"Helpers.sol\":338:343  false */\n      0x00\n        /* \"Helpers.sol\":331:343  return false */\n      swap1\n      pop\n        /* \"Helpers.sol\":86:350  function intArrContainsValue(uint value, uint[] memory array) internal pure returns(bool){   ... */\n    tag_136:\n      swap3\n      swap2\n      pop\n      pop\n      jump\t// out\n        /* \"Helpers.sol\":356:630  function addressArrContainsValue(address value, address[] memory array) internal pure returns(bool){   ... */\n    tag_97:\n        /* \"Helpers.sol\":450:454  bool */\n      0x00\n        /* \"Helpers.sol\":473:479  uint i */\n      dup1\n        /* \"Helpers.sol\":480:481  0 */\n      0x00\n        /* \"Helpers.sol\":473:481  uint i=0 */\n      swap1\n      pop\n        /* \"Helpers.sol\":468:602  for (uint i=0; i < array.length; i++) {... */\n    tag_144:\n        /* \"Helpers.sol\":487:492  array */\n      dup3\n        /* \"Helpers.sol\":487:499  array.length */\n      mload\n        /* \"Helpers.sol\":483:484  i */\n      dup2\n        /* \"Helpers.sol\":483:499  i < array.length */\n      lt\n        /* \"Helpers.sol\":468:602  for (uint i=0; i < array.length; i++) {... */\n      iszero\n      tag_145\n      jumpi\n        /* \"Helpers.sol\":533:538  array */\n      dup3\n        /* \"Helpers.sol\":539:540  i */\n      dup2\n        /* \"Helpers.sol\":533:541  array[i] */\n      dup2\n      mload\n      dup2\n      lt\n      tag_147\n      jumpi\n      mstore(0x00, 0x4e487b7100000000000000000000000000000000000000000000000000000000)\n      mstore(0x04, 0x32)\n      revert(0x00, 0x24)\n    tag_147:\n      0x20\n      mul\n      0x20\n      add\n      add\n      mload\n        /* \"Helpers.sol\":524:541  value == array[i] */\n      0xffffffffffffffffffffffffffffffffffffffff\n      and\n        /* \"Helpers.sol\":524:529  value */\n      dup5\n        /* \"Helpers.sol\":524:541  value == array[i] */\n      0xffffffffffffffffffffffffffffffffffffffff\n      and\n      eq\n        /* \"Helpers.sol\":520:592  if (value == array[i]) {     ... */\n      iszero\n      tag_148\n      jumpi\n        /* \"Helpers.sol\":573:577  true */\n      0x01\n        /* \"Helpers.sol\":566:577  return true */\n      swap2\n      pop\n      pop\n      jump(tag_143)\n        /* \"Helpers.sol\":520:592  if (value == array[i]) {     ... */\n    tag_148:\n        /* \"Helpers.sol\":501:504  i++ */\n      dup1\n      dup1\n      tag_149\n      swap1\n      tag_65\n      jump\t// in\n    tag_149:\n      swap2\n      pop\n      pop\n        /* \"Helpers.sol\":468:602  for (uint i=0; i < array.length; i++) {... */\n      jump(tag_144)\n    tag_145:\n      pop\n        /* \"Helpers.sol\":618:623  false */\n      0x00\n        /* \"Helpers.sol\":611:623  return false */\n      swap1\n      pop\n        /* \"Helpers.sol\":356:630  function addressArrContainsValue(address value, address[] memory array) internal pure returns(bool){   ... */\n    tag_143:\n      swap3\n      swap2\n      pop\n      pop\n      jump\t// out\n        /* \"Helpers.sol\":636:899  function removeIntArrElement(uint[] storage array, uint id) internal{... */\n    tag_116:\n        /* \"Helpers.sol\":720:726  uint i */\n      0x00\n        /* \"Helpers.sol\":715:893  for (uint i=0; i < array.length; i++) {... */\n    tag_151:\n        /* \"Helpers.sol\":734:739  array */\n      dup3\n        /* \"Helpers.sol\":734:746  array.length */\n      dup1\n      sload\n      swap1\n      pop\n        /* \"Helpers.sol\":730:731  i */\n      dup2\n        /* \"Helpers.sol\":730:746  i < array.length */\n      lt\n        /* \"Helpers.sol\":715:893  for (uint i=0; i < array.length; i++) {... */\n      iszero\n      tag_152\n      jumpi\n        /* \"Helpers.sol\":777:782  array */\n      dup3\n        /* \"Helpers.sol\":783:784  i */\n      dup2\n        /* \"Helpers.sol\":777:785  array[i] */\n      dup2\n      sload\n      dup2\n      lt\n      tag_154\n      jumpi\n      mstore(0x00, 0x4e487b7100000000000000000000000000000000000000000000000000000000)\n      mstore(0x04, 0x32)\n      revert(0x00, 0x24)\n    tag_154:\n      swap1\n      0x00\n      mstore\n      keccak256(0x00, 0x20)\n      add\n      sload\n        /* \"Helpers.sol\":771:773  id */\n      dup3\n        /* \"Helpers.sol\":771:785  id == array[i] */\n      eq\n        /* \"Helpers.sol\":767:883  if (id == array[i]) {... */\n      iszero\n      tag_156\n      jumpi\n        /* \"Helpers.sol\":816:821  array */\n      dup3\n        /* \"Helpers.sol\":837:838  1 */\n      0x01\n        /* \"Helpers.sol\":822:827  array */\n      dup5\n        /* \"Helpers.sol\":822:834  array.length */\n      dup1\n      sload\n      swap1\n      pop\n        /* \"Helpers.sol\":822:838  array.length - 1 */\n      tag_157\n      swap2\n      swap1\n      tag_158\n      jump\t// in\n    tag_157:\n        /* \"Helpers.sol\":816:839  array[array.length - 1] */\n      dup2\n      sload\n      dup2\n      lt\n      tag_159\n      jumpi\n      mstore(0x00, 0x4e487b7100000000000000000000000000000000000000000000000000000000)\n      mstore(0x04, 0x32)\n      revert(0x00, 0x24)\n    tag_159:\n      swap1\n      0x00\n      mstore\n      keccak256(0x00, 0x20)\n      add\n      sload\n        /* \"Helpers.sol\":805:810  array */\n      dup4\n        /* \"Helpers.sol\":811:812  i */\n      dup3\n        /* \"Helpers.sol\":805:813  array[i] */\n      dup2\n      sload\n      dup2\n      lt\n      tag_161\n      jumpi\n      mstore(0x00, 0x4e487b7100000000000000000000000000000000000000000000000000000000)\n      mstore(0x04, 0x32)\n      revert(0x00, 0x24)\n    tag_161:\n      swap1\n      0x00\n      mstore\n      keccak256(0x00, 0x20)\n      add\n        /* \"Helpers.sol\":805:839  array[i] = array[array.length - 1] */\n      dup2\n      swap1\n      sstore\n      pop\n        /* \"Helpers.sol\":857:862  array */\n      dup3\n        /* \"Helpers.sol\":857:868  array.pop() */\n      dup1\n      sload\n      dup1\n      tag_163\n      jumpi\n      mstore(0x00, 0x4e487b7100000000000000000000000000000000000000000000000000000000)\n      mstore(0x04, 0x31)\n      revert(0x00, 0x24)\n    tag_163:\n      0x01\n      swap1\n      sub\n      dup2\n      dup2\n      swap1\n      0x00\n      mstore\n      keccak256(0x00, 0x20)\n      add\n      0x00\n      swap1\n      sstore\n      swap1\n      sstore\n        /* \"Helpers.sol\":767:883  if (id == array[i]) {... */\n    tag_156:\n        /* \"Helpers.sol\":748:751  i++ */\n      dup1\n      dup1\n      tag_165\n      swap1\n      tag_65\n      jump\t// in\n    tag_165:\n      swap2\n      pop\n      pop\n        /* \"Helpers.sol\":715:893  for (uint i=0; i < array.length; i++) {... */\n      jump(tag_151)\n    tag_152:\n      pop\n        /* \"Helpers.sol\":636:899  function removeIntArrElement(uint[] storage array, uint id) internal{... */\n      pop\n      pop\n      jump\t// out\n        /* \"Helpers.sol\":905:1086  function compareStrings(string memory a, string memory b) internal pure returns (bool) {... */\n    tag_133:\n        /* \"Helpers.sol\":986:990  bool */\n      0x00\n        /* \"Helpers.sol\":1074:1075  b */\n      dup2\n        /* \"Helpers.sol\":1056:1077  abi.encodePacked((b)) */\n      add(0x20, mload(0x40))\n      tag_167\n      swap2\n      swap1\n      tag_168\n      jump\t// in\n    tag_167:\n      mload(0x40)\n      0x20\n      dup2\n      dup4\n      sub\n      sub\n      dup2\n      mstore\n      swap1\n      0x40\n      mstore\n        /* \"Helpers.sol\":1046:1078  keccak256(abi.encodePacked((b))) */\n      dup1\n      mload\n      swap1\n      0x20\n      add\n      keccak256\n        /* \"Helpers.sol\":1038:1039  a */\n      dup4\n        /* \"Helpers.sol\":1020:1041  abi.encodePacked((a)) */\n      add(0x20, mload(0x40))\n      tag_169\n      swap2\n      swap1\n      tag_168\n      jump\t// in\n    tag_169:\n      mload(0x40)\n      0x20\n      dup2\n      dup4\n      sub\n      sub\n      dup2\n      mstore\n      swap1\n      0x40\n      mstore\n        /* \"Helpers.sol\":1010:1042  keccak256(abi.encodePacked((a))) */\n      dup1\n      mload\n      swap1\n      0x20\n      add\n      keccak256\n        /* \"Helpers.sol\":1010:1078  keccak256(abi.encodePacked((a))) == keccak256(abi.encodePacked((b))) */\n      eq\n        /* \"Helpers.sol\":1002:1079  return (keccak256(abi.encodePacked((a))) == keccak256(abi.encodePacked((b)))) */\n      swap1\n      pop\n        /* \"Helpers.sol\":905:1086  function compareStrings(string memory a, string memory b) internal pure returns (bool) {... */\n      swap3\n      swap2\n      pop\n      pop\n      jump\t// out\n    tag_59:\n      mload(0x40)\n      dup1\n      0x80\n      add\n      0x40\n      mstore\n      dup1\n      0x00\n      dup2\n      mstore\n      0x20\n      add\n      0x60\n      dup2\n      mstore\n      0x20\n      add\n      0x00\n      dup2\n      mstore\n      0x20\n      add\n      iszero(iszero(0x00))\n      dup2\n      mstore\n      pop\n      swap1\n      jump\t// out\n    tag_61:\n      dup3\n      dup1\n      sload\n      tag_170\n      swap1\n      tag_69\n      jump\t// in\n    tag_170:\n      swap1\n      0x00\n      mstore\n      keccak256(0x00, 0x20)\n      swap1\n      0x1f\n      add\n      0x20\n      swap1\n      div\n      dup2\n      add\n      swap3\n      dup3\n      tag_172\n      jumpi\n      0x00\n      dup6\n      sstore\n      jump(tag_171)\n    tag_172:\n      dup3\n      0x1f\n      lt\n      tag_173\n      jumpi\n      dup1\n      mload\n      not(0xff)\n      and\n      dup4\n      dup1\n      add\n      or\n      dup6\n      sstore\n      jump(tag_171)\n    tag_173:\n      dup3\n      dup1\n      add\n      0x01\n      add\n      dup6\n      sstore\n      dup3\n      iszero\n      tag_171\n      jumpi\n      swap2\n      dup3\n      add\n    tag_174:\n      dup3\n      dup2\n      gt\n      iszero\n      tag_175\n      jumpi\n      dup3\n      mload\n      dup3\n      sstore\n      swap2\n      0x20\n      add\n      swap2\n      swap1\n      0x01\n      add\n      swap1\n      jump(tag_174)\n    tag_175:\n    tag_171:\n      pop\n      swap1\n      pop\n      tag_176\n      swap2\n      swap1\n      tag_177\n      jump\t// in\n    tag_176:\n      pop\n      swap1\n      jump\t// out\n    tag_177:\n    tag_178:\n      dup1\n      dup3\n      gt\n      iszero\n      tag_179\n      jumpi\n      0x00\n      dup2\n      0x00\n      swap1\n      sstore\n      pop\n      0x01\n      add\n      jump(tag_178)\n    tag_179:\n      pop\n      swap1\n      jump\t// out\n        /* \"#utility.yul\":7:146   */\n    tag_181:\n      0x00\n        /* \"#utility.yul\":91:97   */\n      dup2\n        /* \"#utility.yul\":78:98   */\n      calldataload\n        /* \"#utility.yul\":69:98   */\n      swap1\n      pop\n        /* \"#utility.yul\":107:140   */\n      tag_183\n        /* \"#utility.yul\":134:139   */\n      dup2\n        /* \"#utility.yul\":107:140   */\n      tag_184\n      jump\t// in\n    tag_183:\n        /* \"#utility.yul\":59:146   */\n      swap3\n      swap2\n      pop\n      pop\n      jump\t// out\n        /* \"#utility.yul\":166:518   */\n    tag_185:\n      0x00\n      dup1\n        /* \"#utility.yul\":284:287   */\n      dup4\n        /* \"#utility.yul\":277:281   */\n      0x1f\n        /* \"#utility.yul\":269:275   */\n      dup5\n        /* \"#utility.yul\":265:282   */\n      add\n        /* \"#utility.yul\":261:288   */\n      slt\n        /* \"#utility.yul\":251:253   */\n      tag_187\n      jumpi\n        /* \"#utility.yul\":302:303   */\n      0x00\n        /* \"#utility.yul\":299:300   */\n      dup1\n        /* \"#utility.yul\":292:304   */\n      revert\n        /* \"#utility.yul\":251:253   */\n    tag_187:\n        /* \"#utility.yul\":338:344   */\n      dup3\n        /* \"#utility.yul\":325:345   */\n      calldataload\n        /* \"#utility.yul\":315:345   */\n      swap1\n      pop\n        /* \"#utility.yul\":368:386   */\n      0xffffffffffffffff\n        /* \"#utility.yul\":360:366   */\n      dup2\n        /* \"#utility.yul\":357:387   */\n      gt\n        /* \"#utility.yul\":354:356   */\n      iszero\n      tag_188\n      jumpi\n        /* \"#utility.yul\":400:401   */\n      0x00\n        /* \"#utility.yul\":397:398   */\n      dup1\n        /* \"#utility.yul\":390:402   */\n      revert\n        /* \"#utility.yul\":354:356   */\n    tag_188:\n        /* \"#utility.yul\":437:441   */\n      0x20\n        /* \"#utility.yul\":429:435   */\n      dup4\n        /* \"#utility.yul\":425:442   */\n      add\n        /* \"#utility.yul\":413:442   */\n      swap2\n      pop\n        /* \"#utility.yul\":491:494   */\n      dup4\n        /* \"#utility.yul\":483:487   */\n      0x01\n        /* \"#utility.yul\":475:481   */\n      dup3\n        /* \"#utility.yul\":471:488   */\n      mul\n        /* \"#utility.yul\":461:469   */\n      dup4\n        /* \"#utility.yul\":457:489   */\n      add\n        /* \"#utility.yul\":454:495   */\n      gt\n        /* \"#utility.yul\":451:453   */\n      iszero\n      tag_189\n      jumpi\n        /* \"#utility.yul\":508:509   */\n      0x00\n        /* \"#utility.yul\":505:506   */\n      dup1\n        /* \"#utility.yul\":498:510   */\n      revert\n        /* \"#utility.yul\":451:453   */\n    tag_189:\n        /* \"#utility.yul\":241:518   */\n      swap3\n      pop\n      swap3\n      swap1\n      pop\n      jump\t// out\n        /* \"#utility.yul\":524:663   */\n    tag_190:\n      0x00\n        /* \"#utility.yul\":608:614   */\n      dup2\n        /* \"#utility.yul\":595:615   */\n      calldataload\n        /* \"#utility.yul\":586:615   */\n      swap1\n      pop\n        /* \"#utility.yul\":624:657   */\n      tag_192\n        /* \"#utility.yul\":651:656   */\n      dup2\n        /* \"#utility.yul\":624:657   */\n      tag_193\n      jump\t// in\n    tag_192:\n        /* \"#utility.yul\":576:663   */\n      swap3\n      swap2\n      pop\n      pop\n      jump\t// out\n        /* \"#utility.yul\":669:1076   */\n    tag_23:\n      0x00\n      dup1\n        /* \"#utility.yul\":794:796   */\n      0x40\n        /* \"#utility.yul\":782:791   */\n      dup4\n        /* \"#utility.yul\":773:780   */\n      dup6\n        /* \"#utility.yul\":769:792   */\n      sub\n        /* \"#utility.yul\":765:797   */\n      slt\n        /* \"#utility.yul\":762:764   */\n      iszero\n      tag_195\n      jumpi\n        /* \"#utility.yul\":810:811   */\n      0x00\n        /* \"#utility.yul\":807:808   */\n      dup1\n        /* \"#utility.yul\":800:812   */\n      revert\n        /* \"#utility.yul\":762:764   */\n    tag_195:\n        /* \"#utility.yul\":853:854   */\n      0x00\n        /* \"#utility.yul\":878:931   */\n      tag_196\n        /* \"#utility.yul\":923:930   */\n      dup6\n        /* \"#utility.yul\":914:920   */\n      dup3\n        /* \"#utility.yul\":903:912   */\n      dup7\n        /* \"#utility.yul\":899:921   */\n      add\n        /* \"#utility.yul\":878:931   */\n      tag_181\n      jump\t// in\n    tag_196:\n        /* \"#utility.yul\":868:931   */\n      swap3\n      pop\n        /* \"#utility.yul\":824:941   */\n      pop\n        /* \"#utility.yul\":980:982   */\n      0x20\n        /* \"#utility.yul\":1006:1059   */\n      tag_197\n        /* \"#utility.yul\":1051:1058   */\n      dup6\n        /* \"#utility.yul\":1042:1048   */\n      dup3\n        /* \"#utility.yul\":1031:1040   */\n      dup7\n        /* \"#utility.yul\":1027:1049   */\n      add\n        /* \"#utility.yul\":1006:1059   */\n      tag_190\n      jump\t// in\n    tag_197:\n        /* \"#utility.yul\":996:1059   */\n      swap2\n      pop\n        /* \"#utility.yul\":951:1069   */\n      pop\n        /* \"#utility.yul\":752:1076   */\n      swap3\n      pop\n      swap3\n      swap1\n      pop\n      jump\t// out\n        /* \"#utility.yul\":1082:1622   */\n    tag_13:\n      0x00\n      dup1\n      0x00\n        /* \"#utility.yul\":1227:1229   */\n      0x40\n        /* \"#utility.yul\":1215:1224   */\n      dup5\n        /* \"#utility.yul\":1206:1213   */\n      dup7\n        /* \"#utility.yul\":1202:1225   */\n      sub\n        /* \"#utility.yul\":1198:1230   */\n      slt\n        /* \"#utility.yul\":1195:1197   */\n      iszero\n      tag_199\n      jumpi\n        /* \"#utility.yul\":1243:1244   */\n      0x00\n        /* \"#utility.yul\":1240:1241   */\n      dup1\n        /* \"#utility.yul\":1233:1245   */\n      revert\n        /* \"#utility.yul\":1195:1197   */\n    tag_199:\n        /* \"#utility.yul\":1314:1315   */\n      0x00\n        /* \"#utility.yul\":1303:1312   */\n      dup5\n        /* \"#utility.yul\":1299:1316   */\n      add\n        /* \"#utility.yul\":1286:1317   */\n      calldataload\n        /* \"#utility.yul\":1344:1362   */\n      0xffffffffffffffff\n        /* \"#utility.yul\":1336:1342   */\n      dup2\n        /* \"#utility.yul\":1333:1363   */\n      gt\n        /* \"#utility.yul\":1330:1332   */\n      iszero\n      tag_200\n      jumpi\n        /* \"#utility.yul\":1376:1377   */\n      0x00\n        /* \"#utility.yul\":1373:1374   */\n      dup1\n        /* \"#utility.yul\":1366:1378   */\n      revert\n        /* \"#utility.yul\":1330:1332   */\n    tag_200:\n        /* \"#utility.yul\":1412:1477   */\n      tag_201\n        /* \"#utility.yul\":1469:1476   */\n      dup7\n        /* \"#utility.yul\":1460:1466   */\n      dup3\n        /* \"#utility.yul\":1449:1458   */\n      dup8\n        /* \"#utility.yul\":1445:1467   */\n      add\n        /* \"#utility.yul\":1412:1477   */\n      tag_185\n      jump\t// in\n    tag_201:\n        /* \"#utility.yul\":1394:1477   */\n      swap4\n      pop\n      swap4\n      pop\n        /* \"#utility.yul\":1257:1487   */\n      pop\n        /* \"#utility.yul\":1526:1528   */\n      0x20\n        /* \"#utility.yul\":1552:1605   */\n      tag_202\n        /* \"#utility.yul\":1597:1604   */\n      dup7\n        /* \"#utility.yul\":1588:1594   */\n      dup3\n        /* \"#utility.yul\":1577:1586   */\n      dup8\n        /* \"#utility.yul\":1573:1595   */\n      add\n        /* \"#utility.yul\":1552:1605   */\n      tag_190\n      jump\t// in\n    tag_202:\n        /* \"#utility.yul\":1542:1605   */\n      swap2\n      pop\n        /* \"#utility.yul\":1497:1615   */\n      pop\n        /* \"#utility.yul\":1185:1622   */\n      swap3\n      pop\n      swap3\n      pop\n      swap3\n      jump\t// out\n        /* \"#utility.yul\":1628:1890   */\n    tag_17:\n      0x00\n        /* \"#utility.yul\":1736:1738   */\n      0x20\n        /* \"#utility.yul\":1724:1733   */\n      dup3\n        /* \"#utility.yul\":1715:1722   */\n      dup5\n        /* \"#utility.yul\":1711:1734   */\n      sub\n        /* \"#utility.yul\":1707:1739   */\n      slt\n        /* \"#utility.yul\":1704:1706   */\n      iszero\n      tag_204\n      jumpi\n        /* \"#utility.yul\":1752:1753   */\n      0x00\n        /* \"#utility.yul\":1749:1750   */\n      dup1\n        /* \"#utility.yul\":1742:1754   */\n      revert\n        /* \"#utility.yul\":1704:1706   */\n    tag_204:\n        /* \"#utility.yul\":1795:1796   */\n      0x00\n        /* \"#utility.yul\":1820:1873   */\n      tag_205\n        /* \"#utility.yul\":1865:1872   */\n      dup5\n        /* \"#utility.yul\":1856:1862   */\n      dup3\n        /* \"#utility.yul\":1845:1854   */\n      dup6\n        /* \"#utility.yul\":1841:1863   */\n      add\n        /* \"#utility.yul\":1820:1873   */\n      tag_190\n      jump\t// in\n    tag_205:\n        /* \"#utility.yul\":1810:1873   */\n      swap2\n      pop\n        /* \"#utility.yul\":1766:1883   */\n      pop\n        /* \"#utility.yul\":1694:1890   */\n      swap3\n      swap2\n      pop\n      pop\n      jump\t// out\n        /* \"#utility.yul\":1896:2303   */\n    tag_29:\n      0x00\n      dup1\n        /* \"#utility.yul\":2021:2023   */\n      0x40\n        /* \"#utility.yul\":2009:2018   */\n      dup4\n        /* \"#utility.yul\":2000:2007   */\n      dup6\n        /* \"#utility.yul\":1996:2019   */\n      sub\n        /* \"#utility.yul\":1992:2024   */\n      slt\n        /* \"#utility.yul\":1989:1991   */\n      iszero\n      tag_207\n      jumpi\n        /* \"#utility.yul\":2037:2038   */\n      0x00\n        /* \"#utility.yul\":2034:2035   */\n      dup1\n        /* \"#utility.yul\":2027:2039   */\n      revert\n        /* \"#utility.yul\":1989:1991   */\n    tag_207:\n        /* \"#utility.yul\":2080:2081   */\n      0x00\n        /* \"#utility.yul\":2105:2158   */\n      tag_208\n        /* \"#utility.yul\":2150:2157   */\n      dup6\n        /* \"#utility.yul\":2141:2147   */\n      dup3\n        /* \"#utility.yul\":2130:2139   */\n      dup7\n        /* \"#utility.yul\":2126:2148   */\n      add\n        /* \"#utility.yul\":2105:2158   */\n      tag_190\n      jump\t// in\n    tag_208:\n        /* \"#utility.yul\":2095:2158   */\n      swap3\n      pop\n        /* \"#utility.yul\":2051:2168   */\n      pop\n        /* \"#utility.yul\":2207:2209   */\n      0x20\n        /* \"#utility.yul\":2233:2286   */\n      tag_209\n        /* \"#utility.yul\":2278:2285   */\n      dup6\n        /* \"#utility.yul\":2269:2275   */\n      dup3\n        /* \"#utility.yul\":2258:2267   */\n      dup7\n        /* \"#utility.yul\":2254:2276   */\n      add\n        /* \"#utility.yul\":2233:2286   */\n      tag_190\n      jump\t// in\n    tag_209:\n        /* \"#utility.yul\":2223:2286   */\n      swap2\n      pop\n        /* \"#utility.yul\":2178:2296   */\n      pop\n        /* \"#utility.yul\":1979:2303   */\n      swap3\n      pop\n      swap3\n      swap1\n      pop\n      jump\t// out\n        /* \"#utility.yul\":2309:2427   */\n    tag_210:\n        /* \"#utility.yul\":2396:2420   */\n      tag_212\n        /* \"#utility.yul\":2414:2419   */\n      dup2\n        /* \"#utility.yul\":2396:2420   */\n      tag_213\n      jump\t// in\n    tag_212:\n        /* \"#utility.yul\":2391:2394   */\n      dup3\n        /* \"#utility.yul\":2384:2421   */\n      mstore\n        /* \"#utility.yul\":2374:2427   */\n      pop\n      pop\n      jump\t// out\n        /* \"#utility.yul\":2433:2542   */\n    tag_214:\n        /* \"#utility.yul\":2514:2535   */\n      tag_216\n        /* \"#utility.yul\":2529:2534   */\n      dup2\n        /* \"#utility.yul\":2514:2535   */\n      tag_217\n      jump\t// in\n    tag_216:\n        /* \"#utility.yul\":2509:2512   */\n      dup3\n        /* \"#utility.yul\":2502:2536   */\n      mstore\n        /* \"#utility.yul\":2492:2542   */\n      pop\n      pop\n      jump\t// out\n        /* \"#utility.yul\":2548:2912   */\n    tag_218:\n      0x00\n        /* \"#utility.yul\":2664:2703   */\n      tag_220\n        /* \"#utility.yul\":2697:2702   */\n      dup3\n        /* \"#utility.yul\":2664:2703   */\n      tag_221\n      jump\t// in\n    tag_220:\n        /* \"#utility.yul\":2719:2790   */\n      tag_222\n        /* \"#utility.yul\":2783:2789   */\n      dup2\n        /* \"#utility.yul\":2778:2781   */\n      dup6\n        /* \"#utility.yul\":2719:2790   */\n      tag_223\n      jump\t// in\n    tag_222:\n        /* \"#utility.yul\":2712:2790   */\n      swap4\n      pop\n        /* \"#utility.yul\":2799:2851   */\n      tag_224\n        /* \"#utility.yul\":2844:2850   */\n      dup2\n        /* \"#utility.yul\":2839:2842   */\n      dup6\n        /* \"#utility.yul\":2832:2836   */\n      0x20\n        /* \"#utility.yul\":2825:2830   */\n      dup7\n        /* \"#utility.yul\":2821:2837   */\n      add\n        /* \"#utility.yul\":2799:2851   */\n      tag_225\n      jump\t// in\n    tag_224:\n        /* \"#utility.yul\":2876:2905   */\n      tag_226\n        /* \"#utility.yul\":2898:2904   */\n      dup2\n        /* \"#utility.yul\":2876:2905   */\n      tag_227\n      jump\t// in\n    tag_226:\n        /* \"#utility.yul\":2871:2874   */\n      dup5\n        /* \"#utility.yul\":2867:2906   */\n      add\n        /* \"#utility.yul\":2860:2906   */\n      swap2\n      pop\n        /* \"#utility.yul\":2640:2912   */\n      pop\n      swap3\n      swap2\n      pop\n      pop\n      jump\t// out\n        /* \"#utility.yul\":2918:3295   */\n    tag_228:\n      0x00\n        /* \"#utility.yul\":3052:3091   */\n      tag_230\n        /* \"#utility.yul\":3085:3090   */\n      dup3\n        /* \"#utility.yul\":3052:3091   */\n      tag_221\n      jump\t// in\n    tag_230:\n        /* \"#utility.yul\":3107:3196   */\n      tag_231\n        /* \"#utility.yul\":3189:3195   */\n      dup2\n        /* \"#utility.yul\":3184:3187   */\n      dup6\n        /* \"#utility.yul\":3107:3196   */\n      tag_232\n      jump\t// in\n    tag_231:\n        /* \"#utility.yul\":3100:3196   */\n      swap4\n      pop\n        /* \"#utility.yul\":3205:3257   */\n      tag_233\n        /* \"#utility.yul\":3250:3256   */\n      dup2\n        /* \"#utility.yul\":3245:3248   */\n      dup6\n        /* \"#utility.yul\":3238:3242   */\n      0x20\n        /* \"#utility.yul\":3231:3236   */\n      dup7\n        /* \"#utility.yul\":3227:3243   */\n      add\n        /* \"#utility.yul\":3205:3257   */\n      tag_225\n      jump\t// in\n    tag_233:\n        /* \"#utility.yul\":3282:3288   */\n      dup1\n        /* \"#utility.yul\":3277:3280   */\n      dup5\n        /* \"#utility.yul\":3273:3289   */\n      add\n        /* \"#utility.yul\":3266:3289   */\n      swap2\n      pop\n        /* \"#utility.yul\":3028:3295   */\n      pop\n      swap3\n      swap2\n      pop\n      pop\n      jump\t// out\n        /* \"#utility.yul\":3301:3631   */\n    tag_234:\n      0x00\n        /* \"#utility.yul\":3464:3531   */\n      tag_236\n        /* \"#utility.yul\":3528:3530   */\n      0x20\n        /* \"#utility.yul\":3523:3526   */\n      dup4\n        /* \"#utility.yul\":3464:3531   */\n      tag_223\n      jump\t// in\n    tag_236:\n        /* \"#utility.yul\":3457:3531   */\n      swap2\n      pop\n        /* \"#utility.yul\":3561:3595   */\n      0x5468697320626f6f6b2065786973747320696e20746865206c69627261727921\n        /* \"#utility.yul\":3557:3558   */\n      0x00\n        /* \"#utility.yul\":3552:3555   */\n      dup4\n        /* \"#utility.yul\":3548:3559   */\n      add\n        /* \"#utility.yul\":3541:3596   */\n      mstore\n        /* \"#utility.yul\":3622:3624   */\n      0x20\n        /* \"#utility.yul\":3617:3620   */\n      dup3\n        /* \"#utility.yul\":3613:3625   */\n      add\n        /* \"#utility.yul\":3606:3625   */\n      swap1\n      pop\n        /* \"#utility.yul\":3447:3631   */\n      swap2\n      swap1\n      pop\n      jump\t// out\n        /* \"#utility.yul\":3637:3965   */\n    tag_237:\n      0x00\n        /* \"#utility.yul\":3800:3867   */\n      tag_239\n        /* \"#utility.yul\":3864:3866   */\n      0x1e\n        /* \"#utility.yul\":3859:3862   */\n      dup4\n        /* \"#utility.yul\":3800:3867   */\n      tag_223\n      jump\t// in\n    tag_239:\n        /* \"#utility.yul\":3793:3867   */\n      swap2\n      pop\n        /* \"#utility.yul\":3897:3929   */\n      0x596f7520686176656e7420626f72726f776564207468617420626f6f6b210000\n        /* \"#utility.yul\":3893:3894   */\n      0x00\n        /* \"#utility.yul\":3888:3891   */\n      dup4\n        /* \"#utility.yul\":3884:3895   */\n      add\n        /* \"#utility.yul\":3877:3930   */\n      mstore\n        /* \"#utility.yul\":3956:3958   */\n      0x20\n        /* \"#utility.yul\":3951:3954   */\n      dup3\n        /* \"#utility.yul\":3947:3959   */\n      add\n        /* \"#utility.yul\":3940:3959   */\n      swap1\n      pop\n        /* \"#utility.yul\":3783:3965   */\n      swap2\n      swap1\n      pop\n      jump\t// out\n        /* \"#utility.yul\":3971:4337   */\n    tag_240:\n      0x00\n        /* \"#utility.yul\":4134:4201   */\n      tag_242\n        /* \"#utility.yul\":4198:4200   */\n      0x22\n        /* \"#utility.yul\":4193:4196   */\n      dup4\n        /* \"#utility.yul\":4134:4201   */\n      tag_223\n      jump\t// in\n    tag_242:\n        /* \"#utility.yul\":4127:4201   */\n      swap2\n      pop\n        /* \"#utility.yul\":4231:4265   */\n      0x596f7527766520616c726561647920626f72726f776564207468617420626f6f\n        /* \"#utility.yul\":4227:4228   */\n      0x00\n        /* \"#utility.yul\":4222:4225   */\n      dup4\n        /* \"#utility.yul\":4218:4229   */\n      add\n        /* \"#utility.yul\":4211:4266   */\n      mstore\n        /* \"#utility.yul\":4297:4301   */\n      0x6b21000000000000000000000000000000000000000000000000000000000000\n        /* \"#utility.yul\":4292:4294   */\n      0x20\n        /* \"#utility.yul\":4287:4290   */\n      dup4\n        /* \"#utility.yul\":4283:4295   */\n      add\n        /* \"#utility.yul\":4276:4302   */\n      mstore\n        /* \"#utility.yul\":4328:4330   */\n      0x40\n        /* \"#utility.yul\":4323:4326   */\n      dup3\n        /* \"#utility.yul\":4319:4331   */\n      add\n        /* \"#utility.yul\":4312:4331   */\n      swap1\n      pop\n        /* \"#utility.yul\":4117:4337   */\n      swap2\n      swap1\n      pop\n      jump\t// out\n        /* \"#utility.yul\":4343:4667   */\n    tag_243:\n      0x00\n        /* \"#utility.yul\":4506:4573   */\n      tag_245\n        /* \"#utility.yul\":4570:4572   */\n      0x1a\n        /* \"#utility.yul\":4565:4568   */\n      dup4\n        /* \"#utility.yul\":4506:4573   */\n      tag_223\n      jump\t// in\n    tag_245:\n        /* \"#utility.yul\":4499:4573   */\n      swap2\n      pop\n        /* \"#utility.yul\":4603:4631   */\n      0x43757272656e742075736572206973206e6f74206f776e657221000000000000\n        /* \"#utility.yul\":4599:4600   */\n      0x00\n        /* \"#utility.yul\":4594:4597   */\n      dup4\n        /* \"#utility.yul\":4590:4601   */\n      add\n        /* \"#utility.yul\":4583:4632   */\n      mstore\n        /* \"#utility.yul\":4658:4660   */\n      0x20\n        /* \"#utility.yul\":4653:4656   */\n      dup3\n        /* \"#utility.yul\":4649:4661   */\n      add\n        /* \"#utility.yul\":4642:4661   */\n      swap1\n      pop\n        /* \"#utility.yul\":4489:4667   */\n      swap2\n      swap1\n      pop\n      jump\t// out\n        /* \"#utility.yul\":4673:5041   */\n    tag_246:\n      0x00\n        /* \"#utility.yul\":4836:4903   */\n      tag_248\n        /* \"#utility.yul\":4900:4902   */\n      0x24\n        /* \"#utility.yul\":4895:4898   */\n      dup4\n        /* \"#utility.yul\":4836:4903   */\n      tag_223\n      jump\t// in\n    tag_248:\n        /* \"#utility.yul\":4829:4903   */\n      swap2\n      pop\n        /* \"#utility.yul\":4933:4967   */\n      0x5468697320626f6f6b206973206f7574206f662073746f636b2063757272656e\n        /* \"#utility.yul\":4929:4930   */\n      0x00\n        /* \"#utility.yul\":4924:4927   */\n      dup4\n        /* \"#utility.yul\":4920:4931   */\n      add\n        /* \"#utility.yul\":4913:4968   */\n      mstore\n        /* \"#utility.yul\":4999:5005   */\n      0x746c792100000000000000000000000000000000000000000000000000000000\n        /* \"#utility.yul\":4994:4996   */\n      0x20\n        /* \"#utility.yul\":4989:4992   */\n      dup4\n        /* \"#utility.yul\":4985:4997   */\n      add\n        /* \"#utility.yul\":4978:5006   */\n      mstore\n        /* \"#utility.yul\":5032:5034   */\n      0x40\n        /* \"#utility.yul\":5027:5030   */\n      dup3\n        /* \"#utility.yul\":5023:5035   */\n      add\n        /* \"#utility.yul\":5016:5035   */\n      swap1\n      pop\n        /* \"#utility.yul\":4819:5041   */\n      swap2\n      swap1\n      pop\n      jump\t// out\n        /* \"#utility.yul\":5047:5376   */\n    tag_249:\n      0x00\n        /* \"#utility.yul\":5210:5277   */\n      tag_251\n        /* \"#utility.yul\":5274:5276   */\n      0x1f\n        /* \"#utility.yul\":5269:5272   */\n      dup4\n        /* \"#utility.yul\":5210:5277   */\n      tag_223\n      jump\t// in\n    tag_251:\n        /* \"#utility.yul\":5203:5277   */\n      swap2\n      pop\n        /* \"#utility.yul\":5307:5340   */\n      0x426f6f6b20646f6573206e6f7420657869737420696e206c6962726172792100\n        /* \"#utility.yul\":5303:5304   */\n      0x00\n        /* \"#utility.yul\":5298:5301   */\n      dup4\n        /* \"#utility.yul\":5294:5305   */\n      add\n        /* \"#utility.yul\":5287:5341   */\n      mstore\n        /* \"#utility.yul\":5367:5369   */\n      0x20\n        /* \"#utility.yul\":5362:5365   */\n      dup3\n        /* \"#utility.yul\":5358:5370   */\n      add\n        /* \"#utility.yul\":5351:5370   */\n      swap1\n      pop\n        /* \"#utility.yul\":5193:5376   */\n      swap2\n      swap1\n      pop\n      jump\t// out\n        /* \"#utility.yul\":5382:5711   */\n    tag_252:\n      0x00\n        /* \"#utility.yul\":5545:5612   */\n      tag_254\n        /* \"#utility.yul\":5609:5611   */\n      0x1f\n        /* \"#utility.yul\":5604:5607   */\n      dup4\n        /* \"#utility.yul\":5545:5612   */\n      tag_223\n      jump\t// in\n    tag_254:\n        /* \"#utility.yul\":5538:5612   */\n      swap2\n      pop\n        /* \"#utility.yul\":5642:5675   */\n      0x5175616e746974792063616e6e6f74206265206c657373207468616e20312100\n        /* \"#utility.yul\":5638:5639   */\n      0x00\n        /* \"#utility.yul\":5633:5636   */\n      dup4\n        /* \"#utility.yul\":5629:5640   */\n      add\n        /* \"#utility.yul\":5622:5676   */\n      mstore\n        /* \"#utility.yul\":5702:5704   */\n      0x20\n        /* \"#utility.yul\":5697:5700   */\n      dup3\n        /* \"#utility.yul\":5693:5705   */\n      add\n        /* \"#utility.yul\":5686:5705   */\n      swap1\n      pop\n        /* \"#utility.yul\":5528:5711   */\n      swap2\n      swap1\n      pop\n      jump\t// out\n        /* \"#utility.yul\":5717:5835   */\n    tag_255:\n        /* \"#utility.yul\":5804:5828   */\n      tag_257\n        /* \"#utility.yul\":5822:5827   */\n      dup2\n        /* \"#utility.yul\":5804:5828   */\n      tag_258\n      jump\t// in\n    tag_257:\n        /* \"#utility.yul\":5799:5802   */\n      dup3\n        /* \"#utility.yul\":5792:5829   */\n      mstore\n        /* \"#utility.yul\":5782:5835   */\n      pop\n      pop\n      jump\t// out\n        /* \"#utility.yul\":5841:6116   */\n    tag_168:\n      0x00\n        /* \"#utility.yul\":5995:6090   */\n      tag_260\n        /* \"#utility.yul\":6086:6089   */\n      dup3\n        /* \"#utility.yul\":6077:6083   */\n      dup5\n        /* \"#utility.yul\":5995:6090   */\n      tag_228\n      jump\t// in\n    tag_260:\n        /* \"#utility.yul\":5988:6090   */\n      swap2\n      pop\n        /* \"#utility.yul\":6107:6110   */\n      dup2\n        /* \"#utility.yul\":6100:6110   */\n      swap1\n      pop\n        /* \"#utility.yul\":5977:6116   */\n      swap3\n      swap2\n      pop\n      pop\n      jump\t// out\n        /* \"#utility.yul\":6122:6344   */\n    tag_32:\n      0x00\n        /* \"#utility.yul\":6253:6255   */\n      0x20\n        /* \"#utility.yul\":6242:6251   */\n      dup3\n        /* \"#utility.yul\":6238:6256   */\n      add\n        /* \"#utility.yul\":6230:6256   */\n      swap1\n      pop\n        /* \"#utility.yul\":6266:6337   */\n      tag_262\n        /* \"#utility.yul\":6334:6335   */\n      0x00\n        /* \"#utility.yul\":6323:6332   */\n      dup4\n        /* \"#utility.yul\":6319:6336   */\n      add\n        /* \"#utility.yul\":6310:6316   */\n      dup5\n        /* \"#utility.yul\":6266:6337   */\n      tag_210\n      jump\t// in\n    tag_262:\n        /* \"#utility.yul\":6220:6344   */\n      swap3\n      swap2\n      pop\n      pop\n      jump\t// out\n        /* \"#utility.yul\":6350:6769   */\n    tag_52:\n      0x00\n        /* \"#utility.yul\":6554:6556   */\n      0x20\n        /* \"#utility.yul\":6543:6552   */\n      dup3\n        /* \"#utility.yul\":6539:6557   */\n      add\n        /* \"#utility.yul\":6531:6557   */\n      swap1\n      pop\n        /* \"#utility.yul\":6603:6612   */\n      dup2\n        /* \"#utility.yul\":6597:6601   */\n      dup2\n        /* \"#utility.yul\":6593:6613   */\n      sub\n        /* \"#utility.yul\":6589:6590   */\n      0x00\n        /* \"#utility.yul\":6578:6587   */\n      dup4\n        /* \"#utility.yul\":6574:6591   */\n      add\n        /* \"#utility.yul\":6567:6614   */\n      mstore\n        /* \"#utility.yul\":6631:6762   */\n      tag_264\n        /* \"#utility.yul\":6757:6761   */\n      dup2\n        /* \"#utility.yul\":6631:6762   */\n      tag_234\n      jump\t// in\n    tag_264:\n        /* \"#utility.yul\":6623:6762   */\n      swap1\n      pop\n        /* \"#utility.yul\":6521:6769   */\n      swap2\n      swap1\n      pop\n      jump\t// out\n        /* \"#utility.yul\":6775:7194   */\n    tag_114:\n      0x00\n        /* \"#utility.yul\":6979:6981   */\n      0x20\n        /* \"#utility.yul\":6968:6977   */\n      dup3\n        /* \"#utility.yul\":6964:6982   */\n      add\n        /* \"#utility.yul\":6956:6982   */\n      swap1\n      pop\n        /* \"#utility.yul\":7028:7037   */\n      dup2\n        /* \"#utility.yul\":7022:7026   */\n      dup2\n        /* \"#utility.yul\":7018:7038   */\n      sub\n        /* \"#utility.yul\":7014:7015   */\n      0x00\n        /* \"#utility.yul\":7003:7012   */\n      dup4\n        /* \"#utility.yul\":6999:7016   */\n      add\n        /* \"#utility.yul\":6992:7039   */\n      mstore\n        /* \"#utility.yul\":7056:7187   */\n      tag_266\n        /* \"#utility.yul\":7182:7186   */\n      dup2\n        /* \"#utility.yul\":7056:7187   */\n      tag_237\n      jump\t// in\n    tag_266:\n        /* \"#utility.yul\":7048:7187   */\n      swap1\n      pop\n        /* \"#utility.yul\":6946:7194   */\n      swap2\n      swap1\n      pop\n      jump\t// out\n        /* \"#utility.yul\":7200:7619   */\n    tag_92:\n      0x00\n        /* \"#utility.yul\":7404:7406   */\n      0x20\n        /* \"#utility.yul\":7393:7402   */\n      dup3\n        /* \"#utility.yul\":7389:7407   */\n      add\n        /* \"#utility.yul\":7381:7407   */\n      swap1\n      pop\n        /* \"#utility.yul\":7453:7462   */\n      dup2\n        /* \"#utility.yul\":7447:7451   */\n      dup2\n        /* \"#utility.yul\":7443:7463   */\n      sub\n        /* \"#utility.yul\":7439:7440   */\n      0x00\n        /* \"#utility.yul\":7428:7437   */\n      dup4\n        /* \"#utility.yul\":7424:7441   */\n      add\n        /* \"#utility.yul\":7417:7464   */\n      mstore\n        /* \"#utility.yul\":7481:7612   */\n      tag_268\n        /* \"#utility.yul\":7607:7611   */\n      dup2\n        /* \"#utility.yul\":7481:7612   */\n      tag_240\n      jump\t// in\n    tag_268:\n        /* \"#utility.yul\":7473:7612   */\n      swap1\n      pop\n        /* \"#utility.yul\":7371:7619   */\n      swap2\n      swap1\n      pop\n      jump\t// out\n        /* \"#utility.yul\":7625:8044   */\n    tag_45:\n      0x00\n        /* \"#utility.yul\":7829:7831   */\n      0x20\n        /* \"#utility.yul\":7818:7827   */\n      dup3\n        /* \"#utility.yul\":7814:7832   */\n      add\n        /* \"#utility.yul\":7806:7832   */\n      swap1\n      pop\n        /* \"#utility.yul\":7878:7887   */\n      dup2\n        /* \"#utility.yul\":7872:7876   */\n      dup2\n        /* \"#utility.yul\":7868:7888   */\n      sub\n        /* \"#utility.yul\":7864:7865   */\n      0x00\n        /* \"#utility.yul\":7853:7862   */\n      dup4\n        /* \"#utility.yul\":7849:7866   */\n      add\n        /* \"#utility.yul\":7842:7889   */\n      mstore\n        /* \"#utility.yul\":7906:8037   */\n      tag_270\n        /* \"#utility.yul\":8032:8036   */\n      dup2\n        /* \"#utility.yul\":7906:8037   */\n      tag_243\n      jump\t// in\n    tag_270:\n        /* \"#utility.yul\":7898:8037   */\n      swap1\n      pop\n        /* \"#utility.yul\":7796:8044   */\n      swap2\n      swap1\n      pop\n      jump\t// out\n        /* \"#utility.yul\":8050:8469   */\n    tag_85:\n      0x00\n        /* \"#utility.yul\":8254:8256   */\n      0x20\n        /* \"#utility.yul\":8243:8252   */\n      dup3\n        /* \"#utility.yul\":8239:8257   */\n      add\n        /* \"#utility.yul\":8231:8257   */\n      swap1\n      pop\n        /* \"#utility.yul\":8303:8312   */\n      dup2\n        /* \"#utility.yul\":8297:8301   */\n      dup2\n        /* \"#utility.yul\":8293:8313   */\n      sub\n        /* \"#utility.yul\":8289:8290   */\n      0x00\n        /* \"#utility.yul\":8278:8287   */\n      dup4\n        /* \"#utility.yul\":8274:8291   */\n      add\n        /* \"#utility.yul\":8267:8314   */\n      mstore\n        /* \"#utility.yul\":8331:8462   */\n      tag_272\n        /* \"#utility.yul\":8457:8461   */\n      dup2\n        /* \"#utility.yul\":8331:8462   */\n      tag_246\n      jump\t// in\n    tag_272:\n        /* \"#utility.yul\":8323:8462   */\n      swap1\n      pop\n        /* \"#utility.yul\":8221:8469   */\n      swap2\n      swap1\n      pop\n      jump\t// out\n        /* \"#utility.yul\":8475:8894   */\n    tag_81:\n      0x00\n        /* \"#utility.yul\":8679:8681   */\n      0x20\n        /* \"#utility.yul\":8668:8677   */\n      dup3\n        /* \"#utility.yul\":8664:8682   */\n      add\n        /* \"#utility.yul\":8656:8682   */\n      swap1\n      pop\n        /* \"#utility.yul\":8728:8737   */\n      dup2\n        /* \"#utility.yul\":8722:8726   */\n      dup2\n        /* \"#utility.yul\":8718:8738   */\n      sub\n        /* \"#utility.yul\":8714:8715   */\n      0x00\n        /* \"#utility.yul\":8703:8712   */\n      dup4\n        /* \"#utility.yul\":8699:8716   */\n      add\n        /* \"#utility.yul\":8692:8739   */\n      mstore\n        /* \"#utility.yul\":8756:8887   */\n      tag_274\n        /* \"#utility.yul\":8882:8886   */\n      dup2\n        /* \"#utility.yul\":8756:8887   */\n      tag_249\n      jump\t// in\n    tag_274:\n        /* \"#utility.yul\":8748:8887   */\n      swap1\n      pop\n        /* \"#utility.yul\":8646:8894   */\n      swap2\n      swap1\n      pop\n      jump\t// out\n        /* \"#utility.yul\":8900:9319   */\n    tag_55:\n      0x00\n        /* \"#utility.yul\":9104:9106   */\n      0x20\n        /* \"#utility.yul\":9093:9102   */\n      dup3\n        /* \"#utility.yul\":9089:9107   */\n      add\n        /* \"#utility.yul\":9081:9107   */\n      swap1\n      pop\n        /* \"#utility.yul\":9153:9162   */\n      dup2\n        /* \"#utility.yul\":9147:9151   */\n      dup2\n        /* \"#utility.yul\":9143:9163   */\n      sub\n        /* \"#utility.yul\":9139:9140   */\n      0x00\n        /* \"#utility.yul\":9128:9137   */\n      dup4\n        /* \"#utility.yul\":9124:9141   */\n      add\n        /* \"#utility.yul\":9117:9164   */\n      mstore\n        /* \"#utility.yul\":9181:9312   */\n      tag_276\n        /* \"#utility.yul\":9307:9311   */\n      dup2\n        /* \"#utility.yul\":9181:9312   */\n      tag_252\n      jump\t// in\n    tag_276:\n        /* \"#utility.yul\":9173:9312   */\n      swap1\n      pop\n        /* \"#utility.yul\":9071:9319   */\n      swap2\n      swap1\n      pop\n      jump\t// out\n        /* \"#utility.yul\":9325:9547   */\n    tag_26:\n      0x00\n        /* \"#utility.yul\":9456:9458   */\n      0x20\n        /* \"#utility.yul\":9445:9454   */\n      dup3\n        /* \"#utility.yul\":9441:9459   */\n      add\n        /* \"#utility.yul\":9433:9459   */\n      swap1\n      pop\n        /* \"#utility.yul\":9469:9540   */\n      tag_278\n        /* \"#utility.yul\":9537:9538   */\n      0x00\n        /* \"#utility.yul\":9526:9535   */\n      dup4\n        /* \"#utility.yul\":9522:9539   */\n      add\n        /* \"#utility.yul\":9513:9519   */\n      dup5\n        /* \"#utility.yul\":9469:9540   */\n      tag_255\n      jump\t// in\n    tag_278:\n        /* \"#utility.yul\":9423:9547   */\n      swap3\n      swap2\n      pop\n      pop\n      jump\t// out\n        /* \"#utility.yul\":9553:10185   */\n    tag_20:\n      0x00\n        /* \"#utility.yul\":9782:9785   */\n      0x80\n        /* \"#utility.yul\":9771:9780   */\n      dup3\n        /* \"#utility.yul\":9767:9786   */\n      add\n        /* \"#utility.yul\":9759:9786   */\n      swap1\n      pop\n        /* \"#utility.yul\":9796:9867   */\n      tag_280\n        /* \"#utility.yul\":9864:9865   */\n      0x00\n        /* \"#utility.yul\":9853:9862   */\n      dup4\n        /* \"#utility.yul\":9849:9866   */\n      add\n        /* \"#utility.yul\":9840:9846   */\n      dup8\n        /* \"#utility.yul\":9796:9867   */\n      tag_255\n      jump\t// in\n    tag_280:\n        /* \"#utility.yul\":9914:9923   */\n      dup2\n        /* \"#utility.yul\":9908:9912   */\n      dup2\n        /* \"#utility.yul\":9904:9924   */\n      sub\n        /* \"#utility.yul\":9899:9901   */\n      0x20\n        /* \"#utility.yul\":9888:9897   */\n      dup4\n        /* \"#utility.yul\":9884:9902   */\n      add\n        /* \"#utility.yul\":9877:9925   */\n      mstore\n        /* \"#utility.yul\":9942:10020   */\n      tag_281\n        /* \"#utility.yul\":10015:10019   */\n      dup2\n        /* \"#utility.yul\":10006:10012   */\n      dup7\n        /* \"#utility.yul\":9942:10020   */\n      tag_218\n      jump\t// in\n    tag_281:\n        /* \"#utility.yul\":9934:10020   */\n      swap1\n      pop\n        /* \"#utility.yul\":10030:10102   */\n      tag_282\n        /* \"#utility.yul\":10098:10100   */\n      0x40\n        /* \"#utility.yul\":10087:10096   */\n      dup4\n        /* \"#utility.yul\":10083:10101   */\n      add\n        /* \"#utility.yul\":10074:10080   */\n      dup6\n        /* \"#utility.yul\":10030:10102   */\n      tag_255\n      jump\t// in\n    tag_282:\n        /* \"#utility.yul\":10112:10178   */\n      tag_283\n        /* \"#utility.yul\":10174:10176   */\n      0x60\n        /* \"#utility.yul\":10163:10172   */\n      dup4\n        /* \"#utility.yul\":10159:10177   */\n      add\n        /* \"#utility.yul\":10150:10156   */\n      dup5\n        /* \"#utility.yul\":10112:10178   */\n      tag_214\n      jump\t// in\n    tag_283:\n        /* \"#utility.yul\":9749:10185   */\n      swap6\n      swap5\n      pop\n      pop\n      pop\n      pop\n      pop\n      jump\t// out\n        /* \"#utility.yul\":10191:10290   */\n    tag_221:\n      0x00\n        /* \"#utility.yul\":10277:10282   */\n      dup2\n        /* \"#utility.yul\":10271:10283   */\n      mload\n        /* \"#utility.yul\":10261:10283   */\n      swap1\n      pop\n        /* \"#utility.yul\":10250:10290   */\n      swap2\n      swap1\n      pop\n      jump\t// out\n        /* \"#utility.yul\":10296:10465   */\n    tag_223:\n      0x00\n        /* \"#utility.yul\":10414:10420   */\n      dup3\n        /* \"#utility.yul\":10409:10412   */\n      dup3\n        /* \"#utility.yul\":10402:10421   */\n      mstore\n        /* \"#utility.yul\":10454:10458   */\n      0x20\n        /* \"#utility.yul\":10449:10452   */\n      dup3\n        /* \"#utility.yul\":10445:10459   */\n      add\n        /* \"#utility.yul\":10430:10459   */\n      swap1\n      pop\n        /* \"#utility.yul\":10392:10465   */\n      swap3\n      swap2\n      pop\n      pop\n      jump\t// out\n        /* \"#utility.yul\":10471:10619   */\n    tag_232:\n      0x00\n        /* \"#utility.yul\":10610:10613   */\n      dup2\n        /* \"#utility.yul\":10595:10613   */\n      swap1\n      pop\n        /* \"#utility.yul\":10585:10619   */\n      swap3\n      swap2\n      pop\n      pop\n      jump\t// out\n        /* \"#utility.yul\":10625:10816   */\n    tag_158:\n      0x00\n        /* \"#utility.yul\":10685:10705   */\n      tag_288\n        /* \"#utility.yul\":10703:10704   */\n      dup3\n        /* \"#utility.yul\":10685:10705   */\n      tag_258\n      jump\t// in\n    tag_288:\n        /* \"#utility.yul\":10680:10705   */\n      swap2\n      pop\n        /* \"#utility.yul\":10719:10739   */\n      tag_289\n        /* \"#utility.yul\":10737:10738   */\n      dup4\n        /* \"#utility.yul\":10719:10739   */\n      tag_258\n      jump\t// in\n    tag_289:\n        /* \"#utility.yul\":10714:10739   */\n      swap3\n      pop\n        /* \"#utility.yul\":10758:10759   */\n      dup3\n        /* \"#utility.yul\":10755:10756   */\n      dup3\n        /* \"#utility.yul\":10752:10760   */\n      lt\n        /* \"#utility.yul\":10749:10751   */\n      iszero\n      tag_290\n      jumpi\n        /* \"#utility.yul\":10763:10781   */\n      tag_291\n      tag_292\n      jump\t// in\n    tag_291:\n        /* \"#utility.yul\":10749:10751   */\n    tag_290:\n        /* \"#utility.yul\":10808:10809   */\n      dup3\n        /* \"#utility.yul\":10805:10806   */\n      dup3\n        /* \"#utility.yul\":10801:10810   */\n      sub\n        /* \"#utility.yul\":10793:10810   */\n      swap1\n      pop\n        /* \"#utility.yul\":10670:10816   */\n      swap3\n      swap2\n      pop\n      pop\n      jump\t// out\n        /* \"#utility.yul\":10822:10918   */\n    tag_213:\n      0x00\n        /* \"#utility.yul\":10888:10912   */\n      tag_294\n        /* \"#utility.yul\":10906:10911   */\n      dup3\n        /* \"#utility.yul\":10888:10912   */\n      tag_295\n      jump\t// in\n    tag_294:\n        /* \"#utility.yul\":10877:10912   */\n      swap1\n      pop\n        /* \"#utility.yul\":10867:10918   */\n      swap2\n      swap1\n      pop\n      jump\t// out\n        /* \"#utility.yul\":10924:11014   */\n    tag_217:\n      0x00\n        /* \"#utility.yul\":11001:11006   */\n      dup2\n        /* \"#utility.yul\":10994:11007   */\n      iszero\n        /* \"#utility.yul\":10987:11008   */\n      iszero\n        /* \"#utility.yul\":10976:11008   */\n      swap1\n      pop\n        /* \"#utility.yul\":10966:11014   */\n      swap2\n      swap1\n      pop\n      jump\t// out\n        /* \"#utility.yul\":11020:11146   */\n    tag_295:\n      0x00\n        /* \"#utility.yul\":11097:11139   */\n      0xffffffffffffffffffffffffffffffffffffffff\n        /* \"#utility.yul\":11090:11095   */\n      dup3\n        /* \"#utility.yul\":11086:11140   */\n      and\n        /* \"#utility.yul\":11075:11140   */\n      swap1\n      pop\n        /* \"#utility.yul\":11065:11146   */\n      swap2\n      swap1\n      pop\n      jump\t// out\n        /* \"#utility.yul\":11152:11229   */\n    tag_258:\n      0x00\n        /* \"#utility.yul\":11218:11223   */\n      dup2\n        /* \"#utility.yul\":11207:11223   */\n      swap1\n      pop\n        /* \"#utility.yul\":11197:11229   */\n      swap2\n      swap1\n      pop\n      jump\t// out\n        /* \"#utility.yul\":11235:11542   */\n    tag_225:\n        /* \"#utility.yul\":11303:11304   */\n      0x00\n        /* \"#utility.yul\":11313:11426   */\n    tag_300:\n        /* \"#utility.yul\":11327:11333   */\n      dup4\n        /* \"#utility.yul\":11324:11325   */\n      dup2\n        /* \"#utility.yul\":11321:11334   */\n      lt\n        /* \"#utility.yul\":11313:11426   */\n      iszero\n      tag_302\n      jumpi\n        /* \"#utility.yul\":11412:11413   */\n      dup1\n        /* \"#utility.yul\":11407:11410   */\n      dup3\n        /* \"#utility.yul\":11403:11414   */\n      add\n        /* \"#utility.yul\":11397:11415   */\n      mload\n        /* \"#utility.yul\":11393:11394   */\n      dup2\n        /* \"#utility.yul\":11388:11391   */\n      dup5\n        /* \"#utility.yul\":11384:11395   */\n      add\n        /* \"#utility.yul\":11377:11416   */\n      mstore\n        /* \"#utility.yul\":11349:11351   */\n      0x20\n        /* \"#utility.yul\":11346:11347   */\n      dup2\n        /* \"#utility.yul\":11342:11352   */\n      add\n        /* \"#utility.yul\":11337:11352   */\n      swap1\n      pop\n        /* \"#utility.yul\":11313:11426   */\n      jump(tag_300)\n    tag_302:\n        /* \"#utility.yul\":11444:11450   */\n      dup4\n        /* \"#utility.yul\":11441:11442   */\n      dup2\n        /* \"#utility.yul\":11438:11451   */\n      gt\n        /* \"#utility.yul\":11435:11437   */\n      iszero\n      tag_303\n      jumpi\n        /* \"#utility.yul\":11524:11525   */\n      0x00\n        /* \"#utility.yul\":11515:11521   */\n      dup5\n        /* \"#utility.yul\":11510:11513   */\n      dup5\n        /* \"#utility.yul\":11506:11522   */\n      add\n        /* \"#utility.yul\":11499:11526   */\n      mstore\n        /* \"#utility.yul\":11435:11437   */\n    tag_303:\n        /* \"#utility.yul\":11284:11542   */\n      pop\n      pop\n      pop\n      pop\n      jump\t// out\n        /* \"#utility.yul\":11548:11719   */\n    tag_101:\n      0x00\n        /* \"#utility.yul\":11610:11634   */\n      tag_305\n        /* \"#utility.yul\":11628:11633   */\n      dup3\n        /* \"#utility.yul\":11610:11634   */\n      tag_258\n      jump\t// in\n    tag_305:\n        /* \"#utility.yul\":11601:11634   */\n      swap2\n      pop\n        /* \"#utility.yul\":11656:11660   */\n      0x00\n        /* \"#utility.yul\":11649:11654   */\n      dup3\n        /* \"#utility.yul\":11646:11661   */\n      eq\n        /* \"#utility.yul\":11643:11645   */\n      iszero\n      tag_306\n      jumpi\n        /* \"#utility.yul\":11664:11682   */\n      tag_307\n      tag_292\n      jump\t// in\n    tag_307:\n        /* \"#utility.yul\":11643:11645   */\n    tag_306:\n        /* \"#utility.yul\":11711:11712   */\n      0x01\n        /* \"#utility.yul\":11704:11709   */\n      dup3\n        /* \"#utility.yul\":11700:11713   */\n      sub\n        /* \"#utility.yul\":11693:11713   */\n      swap1\n      pop\n        /* \"#utility.yul\":11591:11719   */\n      swap2\n      swap1\n      pop\n      jump\t// out\n        /* \"#utility.yul\":11725:12045   */\n    tag_69:\n      0x00\n        /* \"#utility.yul\":11806:11807   */\n      0x02\n        /* \"#utility.yul\":11800:11804   */\n      dup3\n        /* \"#utility.yul\":11796:11808   */\n      div\n        /* \"#utility.yul\":11786:11808   */\n      swap1\n      pop\n        /* \"#utility.yul\":11853:11854   */\n      0x01\n        /* \"#utility.yul\":11847:11851   */\n      dup3\n        /* \"#utility.yul\":11843:11855   */\n      and\n        /* \"#utility.yul\":11874:11892   */\n      dup1\n        /* \"#utility.yul\":11864:11866   */\n      tag_309\n      jumpi\n        /* \"#utility.yul\":11930:11934   */\n      0x7f\n        /* \"#utility.yul\":11922:11928   */\n      dup3\n        /* \"#utility.yul\":11918:11935   */\n      and\n        /* \"#utility.yul\":11908:11935   */\n      swap2\n      pop\n        /* \"#utility.yul\":11864:11866   */\n    tag_309:\n        /* \"#utility.yul\":11992:11994   */\n      0x20\n        /* \"#utility.yul\":11984:11990   */\n      dup3\n        /* \"#utility.yul\":11981:11995   */\n      lt\n        /* \"#utility.yul\":11961:11979   */\n      dup2\n        /* \"#utility.yul\":11958:11996   */\n      eq\n        /* \"#utility.yul\":11955:11957   */\n      iszero\n      tag_310\n      jumpi\n        /* \"#utility.yul\":12011:12029   */\n      tag_311\n      tag_312\n      jump\t// in\n    tag_311:\n        /* \"#utility.yul\":11955:11957   */\n    tag_310:\n        /* \"#utility.yul\":11776:12045   */\n      pop\n      swap2\n      swap1\n      pop\n      jump\t// out\n        /* \"#utility.yul\":12051:12284   */\n    tag_65:\n      0x00\n        /* \"#utility.yul\":12113:12137   */\n      tag_314\n        /* \"#utility.yul\":12131:12136   */\n      dup3\n        /* \"#utility.yul\":12113:12137   */\n      tag_258\n      jump\t// in\n    tag_314:\n        /* \"#utility.yul\":12104:12137   */\n      swap2\n      pop\n        /* \"#utility.yul\":12159:12225   */\n      0xffffffffffffffffffffffffffffffffffffffffffffffffffffffffffffffff\n        /* \"#utility.yul\":12152:12157   */\n      dup3\n        /* \"#utility.yul\":12149:12226   */\n      eq\n        /* \"#utility.yul\":12146:12148   */\n      iszero\n      tag_315\n      jumpi\n        /* \"#utility.yul\":12229:12247   */\n      tag_316\n      tag_292\n      jump\t// in\n    tag_316:\n        /* \"#utility.yul\":12146:12148   */\n    tag_315:\n        /* \"#utility.yul\":12276:12277   */\n      0x01\n        /* \"#utility.yul\":12269:12274   */\n      dup3\n        /* \"#utility.yul\":12265:12278   */\n      add\n        /* \"#utility.yul\":12258:12278   */\n      swap1\n      pop\n        /* \"#utility.yul\":12094:12284   */\n      swap2\n      swap1\n      pop\n      jump\t// out\n        /* \"#utility.yul\":12290:12470   */\n    tag_292:\n        /* \"#utility.yul\":12338:12415   */\n      0x4e487b7100000000000000000000000000000000000000000000000000000000\n        /* \"#utility.yul\":12335:12336   */\n      0x00\n        /* \"#utility.yul\":12328:12416   */\n      mstore\n        /* \"#utility.yul\":12435:12439   */\n      0x11\n        /* \"#utility.yul\":12432:12433   */\n      0x04\n        /* \"#utility.yul\":12425:12440   */\n      mstore\n        /* \"#utility.yul\":12459:12463   */\n      0x24\n        /* \"#utility.yul\":12456:12457   */\n      0x00\n        /* \"#utility.yul\":12449:12464   */\n      revert\n        /* \"#utility.yul\":12476:12656   */\n    tag_312:\n        /* \"#utility.yul\":12524:12601   */\n      0x4e487b7100000000000000000000000000000000000000000000000000000000\n        /* \"#utility.yul\":12521:12522   */\n      0x00\n        /* \"#utility.yul\":12514:12602   */\n      mstore\n        /* \"#utility.yul\":12621:12625   */\n      0x22\n        /* \"#utility.yul\":12618:12619   */\n      0x04\n        /* \"#utility.yul\":12611:12626   */\n      mstore\n        /* \"#utility.yul\":12645:12649   */\n      0x24\n        /* \"#utility.yul\":12642:12643   */\n      0x00\n        /* \"#utility.yul\":12635:12650   */\n      revert\n        /* \"#utility.yul\":12662:12764   */\n    tag_227:\n      0x00\n        /* \"#utility.yul\":12754:12756   */\n      0x1f\n        /* \"#utility.yul\":12750:12757   */\n      not\n        /* \"#utility.yul\":12745:12747   */\n      0x1f\n        /* \"#utility.yul\":12738:12743   */\n      dup4\n        /* \"#utility.yul\":12734:12748   */\n      add\n        /* \"#utility.yul\":12730:12758   */\n      and\n        /* \"#utility.yul\":12720:12758   */\n      swap1\n      pop\n        /* \"#utility.yul\":12710:12764   */\n      swap2\n      swap1\n      pop\n      jump\t// out\n        /* \"#utility.yul\":12770:12892   */\n    tag_184:\n        /* \"#utility.yul\":12843:12867   */\n      tag_321\n        /* \"#utility.yul\":12861:12866   */\n      dup2\n        /* \"#utility.yul\":12843:12867   */\n      tag_213\n      jump\t// in\n    tag_321:\n        /* \"#utility.yul\":12836:12841   */\n      dup2\n        /* \"#utility.yul\":12833:12868   */\n      eq\n        /* \"#utility.yul\":12823:12825   */\n      tag_322\n      jumpi\n        /* \"#utility.yul\":12882:12883   */\n      0x00\n        /* \"#utility.yul\":12879:12880   */\n      dup1\n        /* \"#utility.yul\":12872:12884   */\n      revert\n        /* \"#utility.yul\":12823:12825   */\n    tag_322:\n        /* \"#utility.yul\":12813:12892   */\n      pop\n      jump\t// out\n        /* \"#utility.yul\":12898:13020   */\n    tag_193:\n        /* \"#utility.yul\":12971:12995   */\n      tag_324\n        /* \"#utility.yul\":12989:12994   */\n      dup2\n        /* \"#utility.yul\":12971:12995   */\n      tag_258\n      jump\t// in\n    tag_324:\n        /* \"#utility.yul\":12964:12969   */\n      dup2\n        /* \"#utility.yul\":12961:12996   */\n      eq\n        /* \"#utility.yul\":12951:12953   */\n      tag_325\n      jumpi\n        /* \"#utility.yul\":13010:13011   */\n      0x00\n        /* \"#utility.yul\":13007:13008   */\n      dup1\n        /* \"#utility.yul\":13000:13012   */\n      revert\n        /* \"#utility.yul\":12951:12953   */\n    tag_325:\n        /* \"#utility.yul\":12941:13020   */\n      pop\n      jump\t// out\n\n    auxdata: 0xa2646970667358221220f00f86ff6727354a706892e740e8880f5abbbcd82920160639e31647a39dade764736f6c63430008000033\n}\n",
				"bytecode": {
					"linkReferences": {},
					"object": "608060405234801561001057600080fd5b50336000806101000a81548173ffffffffffffffffffffffffffffffffffffffff021916908373ffffffffffffffffffffffffffffffffffffffff1602179055506118ff806100606000396000f3fe608060405234801561001057600080fd5b506004361061007d5760003560e01c806384ab2e1a1161005b57806384ab2e1a146101015780638da5cb5b146101315780639649faa31461014f578063b8dd17db1461016b5761007d565b8063265be2e21461008257806327e4671c1461009e5780632b3819fe146100d1575b600080fd5b61009c600480360381019061009791906111d8565b610187565b005b6100b860048036038101906100b39190611230565b6104e2565b6040516100c89493929190611665565b60405180910390f35b6100eb60048036038101906100e6919061119c565b6105b7565b6040516100f8919061164a565b60405180910390f35b61011b60048036038101906101169190611259565b6105e8565b604051610128919061154f565b60405180910390f35b610139610636565b604051610146919061154f565b60405180910390f35b61016960048036038101906101649190611230565b61065a565b005b61018560048036038101906101809190611230565b610a00565b005b60008054906101000a900473ffffffffffffffffffffffffffffffffffffffff1673ffffffffffffffffffffffffffffffffffffffff163373ffffffffffffffffffffffffffffffffffffffff1614610215576040517f08c379a000000000000000000000000000000000000000000000000000000000815260040161020c906115ca565b60405180910390fd5b61021f8383610c13565b8061024c575060036000600154815260200190815260200160002060030160009054906101000a900460ff165b1561028c576040517f08c379a00000000000000000000000000000000000000000000000000000000081526004016102839061156a565b60405180910390fd5b60018110156102d0576040517f08c379a00000000000000000000000000000000000000000000000000000000081526004016102c79061162a565b60405180910390fd5b600083838080601f016020809104026020016040519081016040528093929190818152602001838380828437600081840152601f19601f82011690508083019250505050505050905060008151141561035e576040517f08c379a00000000000000000000000000000000000000000000000000000000081526004016103559061156a565b60405180910390fd5b61036661105b565b60015481600001818152505084848080601f016020809104026020016040519081016040528093929190818152602001838380828437600081840152601f19601f82011690508083019250505050505050816020018190525082816040018181525050600181606001901515908115158152505080600360006001548152602001908152602001600020600082015181600001556020820151816001019080519060200190610416929190611085565b506040820151816002015560608201518160030160006101000a81548160ff0219169083151502179055509050506002819080600181540180825580915050600190039060005260206000209060040201600090919091909150600082015181600001556020820151816001019080519060200190610496929190611085565b506040820151816002015560608201518160030160006101000a81548160ff0219169083151502179055505050600160008154809291906104d6906117e3565b91905055505050505050565b600281815481106104f257600080fd5b906000526020600020906004020160009150905080600001549080600101805461051b906117b1565b80601f0160208091040260200160405190810160405280929190818152602001828054610547906117b1565b80156105945780601f1061056957610100808354040283529160200191610594565b820191906000526020600020905b81548152906001019060200180831161057757829003601f168201915b5050505050908060020154908060030160009054906101000a900460ff16905084565b600560205281600052604060002081815481106105d357600080fd5b90600052602060002001600091509150505481565b6004602052816000526040600020818154811061060457600080fd5b906000526020600020016000915091509054906101000a900473ffffffffffffffffffffffffffffffffffffffff1681565b60008054906101000a900473ffffffffffffffffffffffffffffffffffffffff1681565b806003600082815260200190815260200160002060030160009054906101000a900460ff166106be576040517f08c379a00000000000000000000000000000000000000000000000000000000081526004016106b59061160a565b60405180910390fd5b600060036000848152602001908152602001600020600201541415610718576040517f08c379a000000000000000000000000000000000000000000000000000000000815260040161070f906115ea565b60405180910390fd5b6107af82600560003373ffffffffffffffffffffffffffffffffffffffff1673ffffffffffffffffffffffffffffffffffffffff1681526020019081526020016000208054806020026020016040519081016040528092919081815260200182805480156107a557602002820191906000526020600020905b815481526020019060010190808311610791575b5050505050610d77565b156107ef576040517f08c379a00000000000000000000000000000000000000000000000000000000081526004016107e6906115aa565b60405180910390fd5b600560003373ffffffffffffffffffffffffffffffffffffffff1673ffffffffffffffffffffffffffffffffffffffff1681526020019081526020016000208290806001815401808255809150506001900390600052602060002001600090919091909150556108f633600460008581526020019081526020016000208054806020026020016040519081016040528092919081815260200182805480156108ec57602002820191906000526020600020905b8160009054906101000a900473ffffffffffffffffffffffffffffffffffffffff1673ffffffffffffffffffffffffffffffffffffffff16815260200190600101908083116108a2575b5050505050610df9565b61096f5760046000838152602001908152602001600020339080600181540180825580915050600190039060005260206000200160009091909190916101000a81548173ffffffffffffffffffffffffffffffffffffffff021916908373ffffffffffffffffffffffffffffffffffffffff1602179055505b60036000838152602001908152602001600020600201600081548092919061099690611787565b9190505550600282815481106109d5577f4e487b7100000000000000000000000000000000000000000000000000000000600052603260045260246000fd5b906000526020600020906004020160020160008154809291906109f790611787565b91905055505050565b806003600082815260200190815260200160002060030160009054906101000a900460ff16610a64576040517f08c379a0000000000000000000000000000000000000000000000000000000008152600401610a5b9061160a565b60405180910390fd5b610afb82600560003373ffffffffffffffffffffffffffffffffffffffff1673ffffffffffffffffffffffffffffffffffffffff168152602001908152602001600020805480602002602001604051908101604052809291908181526020018280548015610af157602002820191906000526020600020905b815481526020019060010190808311610add575b5050505050610d77565b610b3a576040517f08c379a0000000000000000000000000000000000000000000000000000000008152600401610b319061158a565b60405180910390fd5b610b82600560003373ffffffffffffffffffffffffffffffffffffffff1673ffffffffffffffffffffffffffffffffffffffff16815260200190815260200160002083610ea7565b600360008381526020019081526020016000206002016000815480929190610ba9906117e3565b919050555060028281548110610be8577f4e487b7100000000000000000000000000000000000000000000000000000000600052603260045260246000fd5b90600052602060002090600402016002016000815480929190610c0a906117e3565b91905055505050565b600080600090505b600280549050811015610d6b57610d4960028281548110610c65577f4e487b7100000000000000000000000000000000000000000000000000000000600052603260045260246000fd5b90600052602060002090600402016001018054610c81906117b1565b80601f0160208091040260200160405190810160405280929190818152602001828054610cad906117b1565b8015610cfa5780601f10610ccf57610100808354040283529160200191610cfa565b820191906000526020600020905b815481529060010190602001808311610cdd57829003601f168201915b505050505085858080601f016020809104026020016040519081016040528093929190818152602001838380828437600081840152601f19601f82011690508083019250505050505050611002565b15610d58576001915050610d71565b8080610d63906117e3565b915050610c1b565b50600090505b92915050565b600080600090505b8251811015610ded57828181518110610dc1577f4e487b7100000000000000000000000000000000000000000000000000000000600052603260045260246000fd5b6020026020010151841415610dda576001915050610df3565b8080610de5906117e3565b915050610d7f565b50600090505b92915050565b600080600090505b8251811015610e9b57828181518110610e43577f4e487b7100000000000000000000000000000000000000000000000000000000600052603260045260246000fd5b602002602001015173ffffffffffffffffffffffffffffffffffffffff168473ffffffffffffffffffffffffffffffffffffffff161415610e88576001915050610ea1565b8080610e93906117e3565b915050610e01565b50600090505b92915050565b60005b8280549050811015610ffd57828181548110610eef577f4e487b7100000000000000000000000000000000000000000000000000000000600052603260045260246000fd5b9060005260206000200154821415610fea578260018480549050610f1391906116d8565b81548110610f4a577f4e487b7100000000000000000000000000000000000000000000000000000000600052603260045260246000fd5b9060005260206000200154838281548110610f8e577f4e487b7100000000000000000000000000000000000000000000000000000000600052603260045260246000fd5b906000526020600020018190555082805480610fd3577f4e487b7100000000000000000000000000000000000000000000000000000000600052603160045260246000fd5b600190038181906000526020600020016000905590555b8080610ff5906117e3565b915050610eaa565b505050565b6000816040516020016110159190611538565b604051602081830303815290604052805190602001208360405160200161103c9190611538565b6040516020818303038152906040528051906020012014905092915050565b60405180608001604052806000815260200160608152602001600081526020016000151581525090565b828054611091906117b1565b90600052602060002090601f0160209004810192826110b357600085556110fa565b82601f106110cc57805160ff19168380011785556110fa565b828001600101855582156110fa579182015b828111156110f95782518255916020019190600101906110de565b5b509050611107919061110b565b5090565b5b8082111561112457600081600090555060010161110c565b5090565b6000813590506111378161189b565b92915050565b60008083601f84011261114f57600080fd5b8235905067ffffffffffffffff81111561116857600080fd5b60208301915083600182028301111561118057600080fd5b9250929050565b600081359050611196816118b2565b92915050565b600080604083850312156111af57600080fd5b60006111bd85828601611128565b92505060206111ce85828601611187565b9150509250929050565b6000806000604084860312156111ed57600080fd5b600084013567ffffffffffffffff81111561120757600080fd5b6112138682870161113d565b9350935050602061122686828701611187565b9150509250925092565b60006020828403121561124257600080fd5b600061125084828501611187565b91505092915050565b6000806040838503121561126c57600080fd5b600061127a85828601611187565b925050602061128b85828601611187565b9150509250929050565b61129e8161170c565b82525050565b6112ad8161171e565b82525050565b60006112be826116b1565b6112c881856116bc565b93506112d8818560208601611754565b6112e18161188a565b840191505092915050565b60006112f7826116b1565b61130181856116cd565b9350611311818560208601611754565b80840191505092915050565b600061132a6020836116bc565b91507f5468697320626f6f6b2065786973747320696e20746865206c696272617279216000830152602082019050919050565b600061136a601e836116bc565b91507f596f7520686176656e7420626f72726f776564207468617420626f6f6b2100006000830152602082019050919050565b60006113aa6022836116bc565b91507f596f7527766520616c726561647920626f72726f776564207468617420626f6f60008301527f6b210000000000000000000000000000000000000000000000000000000000006020830152604082019050919050565b6000611410601a836116bc565b91507f43757272656e742075736572206973206e6f74206f776e6572210000000000006000830152602082019050919050565b60006114506024836116bc565b91507f5468697320626f6f6b206973206f7574206f662073746f636b2063757272656e60008301527f746c7921000000000000000000000000000000000000000000000000000000006020830152604082019050919050565b60006114b6601f836116bc565b91507f426f6f6b20646f6573206e6f7420657869737420696e206c69627261727921006000830152602082019050919050565b60006114f6601f836116bc565b91507f5175616e746974792063616e6e6f74206265206c657373207468616e203121006000830152602082019050919050565b6115328161174a565b82525050565b600061154482846112ec565b915081905092915050565b60006020820190506115646000830184611295565b92915050565b600060208201905081810360008301526115838161131d565b9050919050565b600060208201905081810360008301526115a38161135d565b9050919050565b600060208201905081810360008301526115c38161139d565b9050919050565b600060208201905081810360008301526115e381611403565b9050919050565b6000602082019050818103600083015261160381611443565b9050919050565b60006020820190508181036000830152611623816114a9565b9050919050565b60006020820190508181036000830152611643816114e9565b9050919050565b600060208201905061165f6000830184611529565b92915050565b600060808201905061167a6000830187611529565b818103602083015261168c81866112b3565b905061169b6040830185611529565b6116a860608301846112a4565b95945050505050565b600081519050919050565b600082825260208201905092915050565b600081905092915050565b60006116e38261174a565b91506116ee8361174a565b9250828210156117015761170061182c565b5b828203905092915050565b60006117178261172a565b9050919050565b60008115159050919050565b600073ffffffffffffffffffffffffffffffffffffffff82169050919050565b6000819050919050565b60005b83811015611772578082015181840152602081019050611757565b83811115611781576000848401525b50505050565b60006117928261174a565b915060008214156117a6576117a561182c565b5b600182039050919050565b600060028204905060018216806117c957607f821691505b602082108114156117dd576117dc61185b565b5b50919050565b60006117ee8261174a565b91507fffffffffffffffffffffffffffffffffffffffffffffffffffffffffffffffff8214156118215761182061182c565b5b600182019050919050565b7f4e487b7100000000000000000000000000000000000000000000000000000000600052601160045260246000fd5b7f4e487b7100000000000000000000000000000000000000000000000000000000600052602260045260246000fd5b6000601f19601f8301169050919050565b6118a48161170c565b81146118af57600080fd5b50565b6118bb8161174a565b81146118c657600080fd5b5056fea2646970667358221220f00f86ff6727354a706892e740e8880f5abbbcd82920160639e31647a39dade764736f6c63430008000033",
					"opcodes": "PUSH1 0x80 PUSH1 0x40 MSTORE CALLVALUE DUP1 ISZERO PUSH2 0x10 JUMPI PUSH1 0x0 DUP1 REVERT JUMPDEST POP CALLER PUSH1 0x0 DUP1 PUSH2 0x100 EXP DUP2 SLOAD DUP2 PUSH20 0xFFFFFFFFFFFFFFFFFFFFFFFFFFFFFFFFFFFFFFFF MUL NOT AND SWAP1 DUP4 PUSH20 0xFFFFFFFFFFFFFFFFFFFFFFFFFFFFFFFFFFFFFFFF AND MUL OR SWAP1 SSTORE POP PUSH2 0x18FF DUP1 PUSH2 0x60 PUSH1 0x0 CODECOPY PUSH1 0x0 RETURN INVALID PUSH1 0x80 PUSH1 0x40 MSTORE CALLVALUE DUP1 ISZERO PUSH2 0x10 JUMPI PUSH1 0x0 DUP1 REVERT JUMPDEST POP PUSH1 0x4 CALLDATASIZE LT PUSH2 0x7D JUMPI PUSH1 0x0 CALLDATALOAD PUSH1 0xE0 SHR DUP1 PUSH4 0x84AB2E1A GT PUSH2 0x5B JUMPI DUP1 PUSH4 0x84AB2E1A EQ PUSH2 0x101 JUMPI DUP1 PUSH4 0x8DA5CB5B EQ PUSH2 0x131 JUMPI DUP1 PUSH4 0x9649FAA3 EQ PUSH2 0x14F JUMPI DUP1 PUSH4 0xB8DD17DB EQ PUSH2 0x16B JUMPI PUSH2 0x7D JUMP JUMPDEST DUP1 PUSH4 0x265BE2E2 EQ PUSH2 0x82 JUMPI DUP1 PUSH4 0x27E4671C EQ PUSH2 0x9E JUMPI DUP1 PUSH4 0x2B3819FE EQ PUSH2 0xD1 JUMPI JUMPDEST PUSH1 0x0 DUP1 REVERT JUMPDEST PUSH2 0x9C PUSH1 0x4 DUP1 CALLDATASIZE SUB DUP2 ADD SWAP1 PUSH2 0x97 SWAP2 SWAP1 PUSH2 0x11D8 JUMP JUMPDEST PUSH2 0x187 JUMP JUMPDEST STOP JUMPDEST PUSH2 0xB8 PUSH1 0x4 DUP1 CALLDATASIZE SUB DUP2 ADD SWAP1 PUSH2 0xB3 SWAP2 SWAP1 PUSH2 0x1230 JUMP JUMPDEST PUSH2 0x4E2 JUMP JUMPDEST PUSH1 0x40 MLOAD PUSH2 0xC8 SWAP5 SWAP4 SWAP3 SWAP2 SWAP1 PUSH2 0x1665 JUMP JUMPDEST PUSH1 0x40 MLOAD DUP1 SWAP2 SUB SWAP1 RETURN JUMPDEST PUSH2 0xEB PUSH1 0x4 DUP1 CALLDATASIZE SUB DUP2 ADD SWAP1 PUSH2 0xE6 SWAP2 SWAP1 PUSH2 0x119C JUMP JUMPDEST PUSH2 0x5B7 JUMP JUMPDEST PUSH1 0x40 MLOAD PUSH2 0xF8 SWAP2 SWAP1 PUSH2 0x164A JUMP JUMPDEST PUSH1 0x40 MLOAD DUP1 SWAP2 SUB SWAP1 RETURN JUMPDEST PUSH2 0x11B PUSH1 0x4 DUP1 CALLDATASIZE SUB DUP2 ADD SWAP1 PUSH2 0x116 SWAP2 SWAP1 PUSH2 0x1259 JUMP JUMPDEST PUSH2 0x5E8 JUMP JUMPDEST PUSH1 0x40 MLOAD PUSH2 0x128 SWAP2 SWAP1 PUSH2 0x154F JUMP JUMPDEST PUSH1 0x40 MLOAD DUP1 SWAP2 SUB SWAP1 RETURN JUMPDEST PUSH2 0x139 PUSH2 0x636 JUMP JUMPDEST PUSH1 0x40 MLOAD PUSH2 0x146 SWAP2 SWAP1 PUSH2 0x154F JUMP JUMPDEST PUSH1 0x40 MLOAD DUP1 SWAP2 SUB SWAP1 RETURN JUMPDEST PUSH2 0x169 PUSH1 0x4 DUP1 CALLDATASIZE SUB DUP2 ADD SWAP1 PUSH2 0x164 SWAP2 SWAP1 PUSH2 0x1230 JUMP JUMPDEST PUSH2 0x65A JUMP JUMPDEST STOP JUMPDEST PUSH2 0x185 PUSH1 0x4 DUP1 CALLDATASIZE SUB DUP2 ADD SWAP1 PUSH2 0x180 SWAP2 SWAP1 PUSH2 0x1230 JUMP JUMPDEST PUSH2 0xA00 JUMP JUMPDEST STOP JUMPDEST PUSH1 0x0 DUP1 SLOAD SWAP1 PUSH2 0x100 EXP SWAP1 DIV PUSH20 0xFFFFFFFFFFFFFFFFFFFFFFFFFFFFFFFFFFFFFFFF AND PUSH20 0xFFFFFFFFFFFFFFFFFFFFFFFFFFFFFFFFFFFFFFFF AND CALLER PUSH20 0xFFFFFFFFFFFFFFFFFFFFFFFFFFFFFFFFFFFFFFFF AND EQ PUSH2 0x215 JUMPI PUSH1 0x40 MLOAD PUSH32 0x8C379A000000000000000000000000000000000000000000000000000000000 DUP2 MSTORE PUSH1 0x4 ADD PUSH2 0x20C SWAP1 PUSH2 0x15CA JUMP JUMPDEST PUSH1 0x40 MLOAD DUP1 SWAP2 SUB SWAP1 REVERT JUMPDEST PUSH2 0x21F DUP4 DUP4 PUSH2 0xC13 JUMP JUMPDEST DUP1 PUSH2 0x24C JUMPI POP PUSH1 0x3 PUSH1 0x0 PUSH1 0x1 SLOAD DUP2 MSTORE PUSH1 0x20 ADD SWAP1 DUP2 MSTORE PUSH1 0x20 ADD PUSH1 0x0 KECCAK256 PUSH1 0x3 ADD PUSH1 0x0 SWAP1 SLOAD SWAP1 PUSH2 0x100 EXP SWAP1 DIV PUSH1 0xFF AND JUMPDEST ISZERO PUSH2 0x28C JUMPI PUSH1 0x40 MLOAD PUSH32 0x8C379A000000000000000000000000000000000000000000000000000000000 DUP2 MSTORE PUSH1 0x4 ADD PUSH2 0x283 SWAP1 PUSH2 0x156A JUMP JUMPDEST PUSH1 0x40 MLOAD DUP1 SWAP2 SUB SWAP1 REVERT JUMPDEST PUSH1 0x1 DUP2 LT ISZERO PUSH2 0x2D0 JUMPI PUSH1 0x40 MLOAD PUSH32 0x8C379A000000000000000000000000000000000000000000000000000000000 DUP2 MSTORE PUSH1 0x4 ADD PUSH2 0x2C7 SWAP1 PUSH2 0x162A JUMP JUMPDEST PUSH1 0x40 MLOAD DUP1 SWAP2 SUB SWAP1 REVERT JUMPDEST PUSH1 0x0 DUP4 DUP4 DUP1 DUP1 PUSH1 0x1F ADD PUSH1 0x20 DUP1 SWAP2 DIV MUL PUSH1 0x20 ADD PUSH1 0x40 MLOAD SWAP1 DUP2 ADD PUSH1 0x40 MSTORE DUP1 SWAP4 SWAP3 SWAP2 SWAP1 DUP2 DUP2 MSTORE PUSH1 0x20 ADD DUP4 DUP4 DUP1 DUP3 DUP5 CALLDATACOPY PUSH1 0x0 DUP2 DUP5 ADD MSTORE PUSH1 0x1F NOT PUSH1 0x1F DUP3 ADD AND SWAP1 POP DUP1 DUP4 ADD SWAP3 POP POP POP POP POP POP POP SWAP1 POP PUSH1 0x0 DUP2 MLOAD EQ ISZERO PUSH2 0x35E JUMPI PUSH1 0x40 MLOAD PUSH32 0x8C379A000000000000000000000000000000000000000000000000000000000 DUP2 MSTORE PUSH1 0x4 ADD PUSH2 0x355 SWAP1 PUSH2 0x156A JUMP JUMPDEST PUSH1 0x40 MLOAD DUP1 SWAP2 SUB SWAP1 REVERT JUMPDEST PUSH2 0x366 PUSH2 0x105B JUMP JUMPDEST PUSH1 0x1 SLOAD DUP2 PUSH1 0x0 ADD DUP2 DUP2 MSTORE POP POP DUP5 DUP5 DUP1 DUP1 PUSH1 0x1F ADD PUSH1 0x20 DUP1 SWAP2 DIV MUL PUSH1 0x20 ADD PUSH1 0x40 MLOAD SWAP1 DUP2 ADD PUSH1 0x40 MSTORE DUP1 SWAP4 SWAP3 SWAP2 SWAP1 DUP2 DUP2 MSTORE PUSH1 0x20 ADD DUP4 DUP4 DUP1 DUP3 DUP5 CALLDATACOPY PUSH1 0x0 DUP2 DUP5 ADD MSTORE PUSH1 0x1F NOT PUSH1 0x1F DUP3 ADD AND SWAP1 POP DUP1 DUP4 ADD SWAP3 POP POP POP POP POP POP POP DUP2 PUSH1 0x20 ADD DUP2 SWAP1 MSTORE POP DUP3 DUP2 PUSH1 0x40 ADD DUP2 DUP2 MSTORE POP POP PUSH1 0x1 DUP2 PUSH1 0x60 ADD SWAP1 ISZERO ISZERO SWAP1 DUP2 ISZERO ISZERO DUP2 MSTORE POP POP DUP1 PUSH1 0x3 PUSH1 0x0 PUSH1 0x1 SLOAD DUP2 MSTORE PUSH1 0x20 ADD SWAP1 DUP2 MSTORE PUSH1 0x20 ADD PUSH1 0x0 KECCAK256 PUSH1 0x0 DUP3 ADD MLOAD DUP2 PUSH1 0x0 ADD SSTORE PUSH1 0x20 DUP3 ADD MLOAD DUP2 PUSH1 0x1 ADD SWAP1 DUP1 MLOAD SWAP1 PUSH1 0x20 ADD SWAP1 PUSH2 0x416 SWAP3 SWAP2 SWAP1 PUSH2 0x1085 JUMP JUMPDEST POP PUSH1 0x40 DUP3 ADD MLOAD DUP2 PUSH1 0x2 ADD SSTORE PUSH1 0x60 DUP3 ADD MLOAD DUP2 PUSH1 0x3 ADD PUSH1 0x0 PUSH2 0x100 EXP DUP2 SLOAD DUP2 PUSH1 0xFF MUL NOT AND SWAP1 DUP4 ISZERO ISZERO MUL OR SWAP1 SSTORE POP SWAP1 POP POP PUSH1 0x2 DUP2 SWAP1 DUP1 PUSH1 0x1 DUP2 SLOAD ADD DUP1 DUP3 SSTORE DUP1 SWAP2 POP POP PUSH1 0x1 SWAP1 SUB SWAP1 PUSH1 0x0 MSTORE PUSH1 0x20 PUSH1 0x0 KECCAK256 SWAP1 PUSH1 0x4 MUL ADD PUSH1 0x0 SWAP1 SWAP2 SWAP1 SWAP2 SWAP1 SWAP2 POP PUSH1 0x0 DUP3 ADD MLOAD DUP2 PUSH1 0x0 ADD SSTORE PUSH1 0x20 DUP3 ADD MLOAD DUP2 PUSH1 0x1 ADD SWAP1 DUP1 MLOAD SWAP1 PUSH1 0x20 ADD SWAP1 PUSH2 0x496 SWAP3 SWAP2 SWAP1 PUSH2 0x1085 JUMP JUMPDEST POP PUSH1 0x40 DUP3 ADD MLOAD DUP2 PUSH1 0x2 ADD SSTORE PUSH1 0x60 DUP3 ADD MLOAD DUP2 PUSH1 0x3 ADD PUSH1 0x0 PUSH2 0x100 EXP DUP2 SLOAD DUP2 PUSH1 0xFF MUL NOT AND SWAP1 DUP4 ISZERO ISZERO MUL OR SWAP1 SSTORE POP POP POP PUSH1 0x1 PUSH1 0x0 DUP2 SLOAD DUP1 SWAP3 SWAP2 SWAP1 PUSH2 0x4D6 SWAP1 PUSH2 0x17E3 JUMP JUMPDEST SWAP2 SWAP1 POP SSTORE POP POP POP POP POP POP JUMP JUMPDEST PUSH1 0x2 DUP2 DUP2 SLOAD DUP2 LT PUSH2 0x4F2 JUMPI PUSH1 0x0 DUP1 REVERT JUMPDEST SWAP1 PUSH1 0x0 MSTORE PUSH1 0x20 PUSH1 0x0 KECCAK256 SWAP1 PUSH1 0x4 MUL ADD PUSH1 0x0 SWAP2 POP SWAP1 POP DUP1 PUSH1 0x0 ADD SLOAD SWAP1 DUP1 PUSH1 0x1 ADD DUP1 SLOAD PUSH2 0x51B SWAP1 PUSH2 0x17B1 JUMP JUMPDEST DUP1 PUSH1 0x1F ADD PUSH1 0x20 DUP1 SWAP2 DIV MUL PUSH1 0x20 ADD PUSH1 0x40 MLOAD SWAP1 DUP2 ADD PUSH1 0x40 MSTORE DUP1 SWAP3 SWAP2 SWAP1 DUP2 DUP2 MSTORE PUSH1 0x20 ADD DUP3 DUP1 SLOAD PUSH2 0x547 SWAP1 PUSH2 0x17B1 JUMP JUMPDEST DUP1 ISZERO PUSH2 0x594 JUMPI DUP1 PUSH1 0x1F LT PUSH2 0x569 JUMPI PUSH2 0x100 DUP1 DUP4 SLOAD DIV MUL DUP4 MSTORE SWAP2 PUSH1 0x20 ADD SWAP2 PUSH2 0x594 JUMP JUMPDEST DUP3 ADD SWAP2 SWAP1 PUSH1 0x0 MSTORE PUSH1 0x20 PUSH1 0x0 KECCAK256 SWAP1 JUMPDEST DUP2 SLOAD DUP2 MSTORE SWAP1 PUSH1 0x1 ADD SWAP1 PUSH1 0x20 ADD DUP1 DUP4 GT PUSH2 0x577 JUMPI DUP3 SWAP1 SUB PUSH1 0x1F AND DUP3 ADD SWAP2 JUMPDEST POP POP POP POP POP SWAP1 DUP1 PUSH1 0x2 ADD SLOAD SWAP1 DUP1 PUSH1 0x3 ADD PUSH1 0x0 SWAP1 SLOAD SWAP1 PUSH2 0x100 EXP SWAP1 DIV PUSH1 0xFF AND SWAP1 POP DUP5 JUMP JUMPDEST PUSH1 0x5 PUSH1 0x20 MSTORE DUP2 PUSH1 0x0 MSTORE PUSH1 0x40 PUSH1 0x0 KECCAK256 DUP2 DUP2 SLOAD DUP2 LT PUSH2 0x5D3 JUMPI PUSH1 0x0 DUP1 REVERT JUMPDEST SWAP1 PUSH1 0x0 MSTORE PUSH1 0x20 PUSH1 0x0 KECCAK256 ADD PUSH1 0x0 SWAP2 POP SWAP2 POP POP SLOAD DUP2 JUMP JUMPDEST PUSH1 0x4 PUSH1 0x20 MSTORE DUP2 PUSH1 0x0 MSTORE PUSH1 0x40 PUSH1 0x0 KECCAK256 DUP2 DUP2 SLOAD DUP2 LT PUSH2 0x604 JUMPI PUSH1 0x0 DUP1 REVERT JUMPDEST SWAP1 PUSH1 0x0 MSTORE PUSH1 0x20 PUSH1 0x0 KECCAK256 ADD PUSH1 0x0 SWAP2 POP SWAP2 POP SWAP1 SLOAD SWAP1 PUSH2 0x100 EXP SWAP1 DIV PUSH20 0xFFFFFFFFFFFFFFFFFFFFFFFFFFFFFFFFFFFFFFFF AND DUP2 JUMP JUMPDEST PUSH1 0x0 DUP1 SLOAD SWAP1 PUSH2 0x100 EXP SWAP1 DIV PUSH20 0xFFFFFFFFFFFFFFFFFFFFFFFFFFFFFFFFFFFFFFFF AND DUP2 JUMP JUMPDEST DUP1 PUSH1 0x3 PUSH1 0x0 DUP3 DUP2 MSTORE PUSH1 0x20 ADD SWAP1 DUP2 MSTORE PUSH1 0x20 ADD PUSH1 0x0 KECCAK256 PUSH1 0x3 ADD PUSH1 0x0 SWAP1 SLOAD SWAP1 PUSH2 0x100 EXP SWAP1 DIV PUSH1 0xFF AND PUSH2 0x6BE JUMPI PUSH1 0x40 MLOAD PUSH32 0x8C379A000000000000000000000000000000000000000000000000000000000 DUP2 MSTORE PUSH1 0x4 ADD PUSH2 0x6B5 SWAP1 PUSH2 0x160A JUMP JUMPDEST PUSH1 0x40 MLOAD DUP1 SWAP2 SUB SWAP1 REVERT JUMPDEST PUSH1 0x0 PUSH1 0x3 PUSH1 0x0 DUP5 DUP2 MSTORE PUSH1 0x20 ADD SWAP1 DUP2 MSTORE PUSH1 0x20 ADD PUSH1 0x0 KECCAK256 PUSH1 0x2 ADD SLOAD EQ ISZERO PUSH2 0x718 JUMPI PUSH1 0x40 MLOAD PUSH32 0x8C379A000000000000000000000000000000000000000000000000000000000 DUP2 MSTORE PUSH1 0x4 ADD PUSH2 0x70F SWAP1 PUSH2 0x15EA JUMP JUMPDEST PUSH1 0x40 MLOAD DUP1 SWAP2 SUB SWAP1 REVERT JUMPDEST PUSH2 0x7AF DUP3 PUSH1 0x5 PUSH1 0x0 CALLER PUSH20 0xFFFFFFFFFFFFFFFFFFFFFFFFFFFFFFFFFFFFFFFF AND PUSH20 0xFFFFFFFFFFFFFFFFFFFFFFFFFFFFFFFFFFFFFFFF AND DUP2 MSTORE PUSH1 0x20 ADD SWAP1 DUP2 MSTORE PUSH1 0x20 ADD PUSH1 0x0 KECCAK256 DUP1 SLOAD DUP1 PUSH1 0x20 MUL PUSH1 0x20 ADD PUSH1 0x40 MLOAD SWAP1 DUP2 ADD PUSH1 0x40 MSTORE DUP1 SWAP3 SWAP2 SWAP1 DUP2 DUP2 MSTORE PUSH1 0x20 ADD DUP3 DUP1 SLOAD DUP1 ISZERO PUSH2 0x7A5 JUMPI PUSH1 0x20 MUL DUP3 ADD SWAP2 SWAP1 PUSH1 0x0 MSTORE PUSH1 0x20 PUSH1 0x0 KECCAK256 SWAP1 JUMPDEST DUP2 SLOAD DUP2 MSTORE PUSH1 0x20 ADD SWAP1 PUSH1 0x1 ADD SWAP1 DUP1 DUP4 GT PUSH2 0x791 JUMPI JUMPDEST POP POP POP POP POP PUSH2 0xD77 JUMP JUMPDEST ISZERO PUSH2 0x7EF JUMPI PUSH1 0x40 MLOAD PUSH32 0x8C379A000000000000000000000000000000000000000000000000000000000 DUP2 MSTORE PUSH1 0x4 ADD PUSH2 0x7E6 SWAP1 PUSH2 0x15AA JUMP JUMPDEST PUSH1 0x40 MLOAD DUP1 SWAP2 SUB SWAP1 REVERT JUMPDEST PUSH1 0x5 PUSH1 0x0 CALLER PUSH20 0xFFFFFFFFFFFFFFFFFFFFFFFFFFFFFFFFFFFFFFFF AND PUSH20 0xFFFFFFFFFFFFFFFFFFFFFFFFFFFFFFFFFFFFFFFF AND DUP2 MSTORE PUSH1 0x20 ADD SWAP1 DUP2 MSTORE PUSH1 0x20 ADD PUSH1 0x0 KECCAK256 DUP3 SWAP1 DUP1 PUSH1 0x1 DUP2 SLOAD ADD DUP1 DUP3 SSTORE DUP1 SWAP2 POP POP PUSH1 0x1 SWAP1 SUB SWAP1 PUSH1 0x0 MSTORE PUSH1 0x20 PUSH1 0x0 KECCAK256 ADD PUSH1 0x0 SWAP1 SWAP2 SWAP1 SWAP2 SWAP1 SWAP2 POP SSTORE PUSH2 0x8F6 CALLER PUSH1 0x4 PUSH1 0x0 DUP6 DUP2 MSTORE PUSH1 0x20 ADD SWAP1 DUP2 MSTORE PUSH1 0x20 ADD PUSH1 0x0 KECCAK256 DUP1 SLOAD DUP1 PUSH1 0x20 MUL PUSH1 0x20 ADD PUSH1 0x40 MLOAD SWAP1 DUP2 ADD PUSH1 0x40 MSTORE DUP1 SWAP3 SWAP2 SWAP1 DUP2 DUP2 MSTORE PUSH1 0x20 ADD DUP3 DUP1 SLOAD DUP1 ISZERO PUSH2 0x8EC JUMPI PUSH1 0x20 MUL DUP3 ADD SWAP2 SWAP1 PUSH1 0x0 MSTORE PUSH1 0x20 PUSH1 0x0 KECCAK256 SWAP1 JUMPDEST DUP2 PUSH1 0x0 SWAP1 SLOAD SWAP1 PUSH2 0x100 EXP SWAP1 DIV PUSH20 0xFFFFFFFFFFFFFFFFFFFFFFFFFFFFFFFFFFFFFFFF AND PUSH20 0xFFFFFFFFFFFFFFFFFFFFFFFFFFFFFFFFFFFFFFFF AND DUP2 MSTORE PUSH1 0x20 ADD SWAP1 PUSH1 0x1 ADD SWAP1 DUP1 DUP4 GT PUSH2 0x8A2 JUMPI JUMPDEST POP POP POP POP POP PUSH2 0xDF9 JUMP JUMPDEST PUSH2 0x96F JUMPI PUSH1 0x4 PUSH1 0x0 DUP4 DUP2 MSTORE PUSH1 0x20 ADD SWAP1 DUP2 MSTORE PUSH1 0x20 ADD PUSH1 0x0 KECCAK256 CALLER SWAP1 DUP1 PUSH1 0x1 DUP2 SLOAD ADD DUP1 DUP3 SSTORE DUP1 SWAP2 POP POP PUSH1 0x1 SWAP1 SUB SWAP1 PUSH1 0x0 MSTORE PUSH1 0x20 PUSH1 0x0 KECCAK256 ADD PUSH1 0x0 SWAP1 SWAP2 SWAP1 SWAP2 SWAP1 SWAP2 PUSH2 0x100 EXP DUP2 SLOAD DUP2 PUSH20 0xFFFFFFFFFFFFFFFFFFFFFFFFFFFFFFFFFFFFFFFF MUL NOT AND SWAP1 DUP4 PUSH20 0xFFFFFFFFFFFFFFFFFFFFFFFFFFFFFFFFFFFFFFFF AND MUL OR SWAP1 SSTORE POP JUMPDEST PUSH1 0x3 PUSH1 0x0 DUP4 DUP2 MSTORE PUSH1 0x20 ADD SWAP1 DUP2 MSTORE PUSH1 0x20 ADD PUSH1 0x0 KECCAK256 PUSH1 0x2 ADD PUSH1 0x0 DUP2 SLOAD DUP1 SWAP3 SWAP2 SWAP1 PUSH2 0x996 SWAP1 PUSH2 0x1787 JUMP JUMPDEST SWAP2 SWAP1 POP SSTORE POP PUSH1 0x2 DUP3 DUP2 SLOAD DUP2 LT PUSH2 0x9D5 JUMPI PUSH32 0x4E487B7100000000000000000000000000000000000000000000000000000000 PUSH1 0x0 MSTORE PUSH1 0x32 PUSH1 0x4 MSTORE PUSH1 0x24 PUSH1 0x0 REVERT JUMPDEST SWAP1 PUSH1 0x0 MSTORE PUSH1 0x20 PUSH1 0x0 KECCAK256 SWAP1 PUSH1 0x4 MUL ADD PUSH1 0x2 ADD PUSH1 0x0 DUP2 SLOAD DUP1 SWAP3 SWAP2 SWAP1 PUSH2 0x9F7 SWAP1 PUSH2 0x1787 JUMP JUMPDEST SWAP2 SWAP1 POP SSTORE POP POP POP JUMP JUMPDEST DUP1 PUSH1 0x3 PUSH1 0x0 DUP3 DUP2 MSTORE PUSH1 0x20 ADD SWAP1 DUP2 MSTORE PUSH1 0x20 ADD PUSH1 0x0 KECCAK256 PUSH1 0x3 ADD PUSH1 0x0 SWAP1 SLOAD SWAP1 PUSH2 0x100 EXP SWAP1 DIV PUSH1 0xFF AND PUSH2 0xA64 JUMPI PUSH1 0x40 MLOAD PUSH32 0x8C379A000000000000000000000000000000000000000000000000000000000 DUP2 MSTORE PUSH1 0x4 ADD PUSH2 0xA5B SWAP1 PUSH2 0x160A JUMP JUMPDEST PUSH1 0x40 MLOAD DUP1 SWAP2 SUB SWAP1 REVERT JUMPDEST PUSH2 0xAFB DUP3 PUSH1 0x5 PUSH1 0x0 CALLER PUSH20 0xFFFFFFFFFFFFFFFFFFFFFFFFFFFFFFFFFFFFFFFF AND PUSH20 0xFFFFFFFFFFFFFFFFFFFFFFFFFFFFFFFFFFFFFFFF AND DUP2 MSTORE PUSH1 0x20 ADD SWAP1 DUP2 MSTORE PUSH1 0x20 ADD PUSH1 0x0 KECCAK256 DUP1 SLOAD DUP1 PUSH1 0x20 MUL PUSH1 0x20 ADD PUSH1 0x40 MLOAD SWAP1 DUP2 ADD PUSH1 0x40 MSTORE DUP1 SWAP3 SWAP2 SWAP1 DUP2 DUP2 MSTORE PUSH1 0x20 ADD DUP3 DUP1 SLOAD DUP1 ISZERO PUSH2 0xAF1 JUMPI PUSH1 0x20 MUL DUP3 ADD SWAP2 SWAP1 PUSH1 0x0 MSTORE PUSH1 0x20 PUSH1 0x0 KECCAK256 SWAP1 JUMPDEST DUP2 SLOAD DUP2 MSTORE PUSH1 0x20 ADD SWAP1 PUSH1 0x1 ADD SWAP1 DUP1 DUP4 GT PUSH2 0xADD JUMPI JUMPDEST POP POP POP POP POP PUSH2 0xD77 JUMP JUMPDEST PUSH2 0xB3A JUMPI PUSH1 0x40 MLOAD PUSH32 0x8C379A000000000000000000000000000000000000000000000000000000000 DUP2 MSTORE PUSH1 0x4 ADD PUSH2 0xB31 SWAP1 PUSH2 0x158A JUMP JUMPDEST PUSH1 0x40 MLOAD DUP1 SWAP2 SUB SWAP1 REVERT JUMPDEST PUSH2 0xB82 PUSH1 0x5 PUSH1 0x0 CALLER PUSH20 0xFFFFFFFFFFFFFFFFFFFFFFFFFFFFFFFFFFFFFFFF AND PUSH20 0xFFFFFFFFFFFFFFFFFFFFFFFFFFFFFFFFFFFFFFFF AND DUP2 MSTORE PUSH1 0x20 ADD SWAP1 DUP2 MSTORE PUSH1 0x20 ADD PUSH1 0x0 KECCAK256 DUP4 PUSH2 0xEA7 JUMP JUMPDEST PUSH1 0x3 PUSH1 0x0 DUP4 DUP2 MSTORE PUSH1 0x20 ADD SWAP1 DUP2 MSTORE PUSH1 0x20 ADD PUSH1 0x0 KECCAK256 PUSH1 0x2 ADD PUSH1 0x0 DUP2 SLOAD DUP1 SWAP3 SWAP2 SWAP1 PUSH2 0xBA9 SWAP1 PUSH2 0x17E3 JUMP JUMPDEST SWAP2 SWAP1 POP SSTORE POP PUSH1 0x2 DUP3 DUP2 SLOAD DUP2 LT PUSH2 0xBE8 JUMPI PUSH32 0x4E487B7100000000000000000000000000000000000000000000000000000000 PUSH1 0x0 MSTORE PUSH1 0x32 PUSH1 0x4 MSTORE PUSH1 0x24 PUSH1 0x0 REVERT JUMPDEST SWAP1 PUSH1 0x0 MSTORE PUSH1 0x20 PUSH1 0x0 KECCAK256 SWAP1 PUSH1 0x4 MUL ADD PUSH1 0x2 ADD PUSH1 0x0 DUP2 SLOAD DUP1 SWAP3 SWAP2 SWAP1 PUSH2 0xC0A SWAP1 PUSH2 0x17E3 JUMP JUMPDEST SWAP2 SWAP1 POP SSTORE POP POP POP JUMP JUMPDEST PUSH1 0x0 DUP1 PUSH1 0x0 SWAP1 POP JUMPDEST PUSH1 0x2 DUP1 SLOAD SWAP1 POP DUP2 LT ISZERO PUSH2 0xD6B JUMPI PUSH2 0xD49 PUSH1 0x2 DUP3 DUP2 SLOAD DUP2 LT PUSH2 0xC65 JUMPI PUSH32 0x4E487B7100000000000000000000000000000000000000000000000000000000 PUSH1 0x0 MSTORE PUSH1 0x32 PUSH1 0x4 MSTORE PUSH1 0x24 PUSH1 0x0 REVERT JUMPDEST SWAP1 PUSH1 0x0 MSTORE PUSH1 0x20 PUSH1 0x0 KECCAK256 SWAP1 PUSH1 0x4 MUL ADD PUSH1 0x1 ADD DUP1 SLOAD PUSH2 0xC81 SWAP1 PUSH2 0x17B1 JUMP JUMPDEST DUP1 PUSH1 0x1F ADD PUSH1 0x20 DUP1 SWAP2 DIV MUL PUSH1 0x20 ADD PUSH1 0x40 MLOAD SWAP1 DUP2 ADD PUSH1 0x40 MSTORE DUP1 SWAP3 SWAP2 SWAP1 DUP2 DUP2 MSTORE PUSH1 0x20 ADD DUP3 DUP1 SLOAD PUSH2 0xCAD SWAP1 PUSH2 0x17B1 JUMP JUMPDEST DUP1 ISZERO PUSH2 0xCFA JUMPI DUP1 PUSH1 0x1F LT PUSH2 0xCCF JUMPI PUSH2 0x100 DUP1 DUP4 SLOAD DIV MUL DUP4 MSTORE SWAP2 PUSH1 0x20 ADD SWAP2 PUSH2 0xCFA JUMP JUMPDEST DUP3 ADD SWAP2 SWAP1 PUSH1 0x0 MSTORE PUSH1 0x20 PUSH1 0x0 KECCAK256 SWAP1 JUMPDEST DUP2 SLOAD DUP2 MSTORE SWAP1 PUSH1 0x1 ADD SWAP1 PUSH1 0x20 ADD DUP1 DUP4 GT PUSH2 0xCDD JUMPI DUP3 SWAP1 SUB PUSH1 0x1F AND DUP3 ADD SWAP2 JUMPDEST POP POP POP POP POP DUP6 DUP6 DUP1 DUP1 PUSH1 0x1F ADD PUSH1 0x20 DUP1 SWAP2 DIV MUL PUSH1 0x20 ADD PUSH1 0x40 MLOAD SWAP1 DUP2 ADD PUSH1 0x40 MSTORE DUP1 SWAP4 SWAP3 SWAP2 SWAP1 DUP2 DUP2 MSTORE PUSH1 0x20 ADD DUP4 DUP4 DUP1 DUP3 DUP5 CALLDATACOPY PUSH1 0x0 DUP2 DUP5 ADD MSTORE PUSH1 0x1F NOT PUSH1 0x1F DUP3 ADD AND SWAP1 POP DUP1 DUP4 ADD SWAP3 POP POP POP POP POP POP POP PUSH2 0x1002 JUMP JUMPDEST ISZERO PUSH2 0xD58 JUMPI PUSH1 0x1 SWAP2 POP POP PUSH2 0xD71 JUMP JUMPDEST DUP1 DUP1 PUSH2 0xD63 SWAP1 PUSH2 0x17E3 JUMP JUMPDEST SWAP2 POP POP PUSH2 0xC1B JUMP JUMPDEST POP PUSH1 0x0 SWAP1 POP JUMPDEST SWAP3 SWAP2 POP POP JUMP JUMPDEST PUSH1 0x0 DUP1 PUSH1 0x0 SWAP1 POP JUMPDEST DUP3 MLOAD DUP2 LT ISZERO PUSH2 0xDED JUMPI DUP3 DUP2 DUP2 MLOAD DUP2 LT PUSH2 0xDC1 JUMPI PUSH32 0x4E487B7100000000000000000000000000000000000000000000000000000000 PUSH1 0x0 MSTORE PUSH1 0x32 PUSH1 0x4 MSTORE PUSH1 0x24 PUSH1 0x0 REVERT JUMPDEST PUSH1 0x20 MUL PUSH1 0x20 ADD ADD MLOAD DUP5 EQ ISZERO PUSH2 0xDDA JUMPI PUSH1 0x1 SWAP2 POP POP PUSH2 0xDF3 JUMP JUMPDEST DUP1 DUP1 PUSH2 0xDE5 SWAP1 PUSH2 0x17E3 JUMP JUMPDEST SWAP2 POP POP PUSH2 0xD7F JUMP JUMPDEST POP PUSH1 0x0 SWAP1 POP JUMPDEST SWAP3 SWAP2 POP POP JUMP JUMPDEST PUSH1 0x0 DUP1 PUSH1 0x0 SWAP1 POP JUMPDEST DUP3 MLOAD DUP2 LT ISZERO PUSH2 0xE9B JUMPI DUP3 DUP2 DUP2 MLOAD DUP2 LT PUSH2 0xE43 JUMPI PUSH32 0x4E487B7100000000000000000000000000000000000000000000000000000000 PUSH1 0x0 MSTORE PUSH1 0x32 PUSH1 0x4 MSTORE PUSH1 0x24 PUSH1 0x0 REVERT JUMPDEST PUSH1 0x20 MUL PUSH1 0x20 ADD ADD MLOAD PUSH20 0xFFFFFFFFFFFFFFFFFFFFFFFFFFFFFFFFFFFFFFFF AND DUP5 PUSH20 0xFFFFFFFFFFFFFFFFFFFFFFFFFFFFFFFFFFFFFFFF AND EQ ISZERO PUSH2 0xE88 JUMPI PUSH1 0x1 SWAP2 POP POP PUSH2 0xEA1 JUMP JUMPDEST DUP1 DUP1 PUSH2 0xE93 SWAP1 PUSH2 0x17E3 JUMP JUMPDEST SWAP2 POP POP PUSH2 0xE01 JUMP JUMPDEST POP PUSH1 0x0 SWAP1 POP JUMPDEST SWAP3 SWAP2 POP POP JUMP JUMPDEST PUSH1 0x0 JUMPDEST DUP3 DUP1 SLOAD SWAP1 POP DUP2 LT ISZERO PUSH2 0xFFD JUMPI DUP3 DUP2 DUP2 SLOAD DUP2 LT PUSH2 0xEEF JUMPI PUSH32 0x4E487B7100000000000000000000000000000000000000000000000000000000 PUSH1 0x0 MSTORE PUSH1 0x32 PUSH1 0x4 MSTORE PUSH1 0x24 PUSH1 0x0 REVERT JUMPDEST SWAP1 PUSH1 0x0 MSTORE PUSH1 0x20 PUSH1 0x0 KECCAK256 ADD SLOAD DUP3 EQ ISZERO PUSH2 0xFEA JUMPI DUP3 PUSH1 0x1 DUP5 DUP1 SLOAD SWAP1 POP PUSH2 0xF13 SWAP2 SWAP1 PUSH2 0x16D8 JUMP JUMPDEST DUP2 SLOAD DUP2 LT PUSH2 0xF4A JUMPI PUSH32 0x4E487B7100000000000000000000000000000000000000000000000000000000 PUSH1 0x0 MSTORE PUSH1 0x32 PUSH1 0x4 MSTORE PUSH1 0x24 PUSH1 0x0 REVERT JUMPDEST SWAP1 PUSH1 0x0 MSTORE PUSH1 0x20 PUSH1 0x0 KECCAK256 ADD SLOAD DUP4 DUP3 DUP2 SLOAD DUP2 LT PUSH2 0xF8E JUMPI PUSH32 0x4E487B7100000000000000000000000000000000000000000000000000000000 PUSH1 0x0 MSTORE PUSH1 0x32 PUSH1 0x4 MSTORE PUSH1 0x24 PUSH1 0x0 REVERT JUMPDEST SWAP1 PUSH1 0x0 MSTORE PUSH1 0x20 PUSH1 0x0 KECCAK256 ADD DUP2 SWAP1 SSTORE POP DUP3 DUP1 SLOAD DUP1 PUSH2 0xFD3 JUMPI PUSH32 0x4E487B7100000000000000000000000000000000000000000000000000000000 PUSH1 0x0 MSTORE PUSH1 0x31 PUSH1 0x4 MSTORE PUSH1 0x24 PUSH1 0x0 REVERT JUMPDEST PUSH1 0x1 SWAP1 SUB DUP2 DUP2 SWAP1 PUSH1 0x0 MSTORE PUSH1 0x20 PUSH1 0x0 KECCAK256 ADD PUSH1 0x0 SWAP1 SSTORE SWAP1 SSTORE JUMPDEST DUP1 DUP1 PUSH2 0xFF5 SWAP1 PUSH2 0x17E3 JUMP JUMPDEST SWAP2 POP POP PUSH2 0xEAA JUMP JUMPDEST POP POP POP JUMP JUMPDEST PUSH1 0x0 DUP2 PUSH1 0x40 MLOAD PUSH1 0x20 ADD PUSH2 0x1015 SWAP2 SWAP1 PUSH2 0x1538 JUMP JUMPDEST PUSH1 0x40 MLOAD PUSH1 0x20 DUP2 DUP4 SUB SUB DUP2 MSTORE SWAP1 PUSH1 0x40 MSTORE DUP1 MLOAD SWAP1 PUSH1 0x20 ADD KECCAK256 DUP4 PUSH1 0x40 MLOAD PUSH1 0x20 ADD PUSH2 0x103C SWAP2 SWAP1 PUSH2 0x1538 JUMP JUMPDEST PUSH1 0x40 MLOAD PUSH1 0x20 DUP2 DUP4 SUB SUB DUP2 MSTORE SWAP1 PUSH1 0x40 MSTORE DUP1 MLOAD SWAP1 PUSH1 0x20 ADD KECCAK256 EQ SWAP1 POP SWAP3 SWAP2 POP POP JUMP JUMPDEST PUSH1 0x40 MLOAD DUP1 PUSH1 0x80 ADD PUSH1 0x40 MSTORE DUP1 PUSH1 0x0 DUP2 MSTORE PUSH1 0x20 ADD PUSH1 0x60 DUP2 MSTORE PUSH1 0x20 ADD PUSH1 0x0 DUP2 MSTORE PUSH1 0x20 ADD PUSH1 0x0 ISZERO ISZERO DUP2 MSTORE POP SWAP1 JUMP JUMPDEST DUP3 DUP1 SLOAD PUSH2 0x1091 SWAP1 PUSH2 0x17B1 JUMP JUMPDEST SWAP1 PUSH1 0x0 MSTORE PUSH1 0x20 PUSH1 0x0 KECCAK256 SWAP1 PUSH1 0x1F ADD PUSH1 0x20 SWAP1 DIV DUP2 ADD SWAP3 DUP3 PUSH2 0x10B3 JUMPI PUSH1 0x0 DUP6 SSTORE PUSH2 0x10FA JUMP JUMPDEST DUP3 PUSH1 0x1F LT PUSH2 0x10CC JUMPI DUP1 MLOAD PUSH1 0xFF NOT AND DUP4 DUP1 ADD OR DUP6 SSTORE PUSH2 0x10FA JUMP JUMPDEST DUP3 DUP1 ADD PUSH1 0x1 ADD DUP6 SSTORE DUP3 ISZERO PUSH2 0x10FA JUMPI SWAP2 DUP3 ADD JUMPDEST DUP3 DUP2 GT ISZERO PUSH2 0x10F9 JUMPI DUP3 MLOAD DUP3 SSTORE SWAP2 PUSH1 0x20 ADD SWAP2 SWAP1 PUSH1 0x1 ADD SWAP1 PUSH2 0x10DE JUMP JUMPDEST JUMPDEST POP SWAP1 POP PUSH2 0x1107 SWAP2 SWAP1 PUSH2 0x110B JUMP JUMPDEST POP SWAP1 JUMP JUMPDEST JUMPDEST DUP1 DUP3 GT ISZERO PUSH2 0x1124 JUMPI PUSH1 0x0 DUP2 PUSH1 0x0 SWAP1 SSTORE POP PUSH1 0x1 ADD PUSH2 0x110C JUMP JUMPDEST POP SWAP1 JUMP JUMPDEST PUSH1 0x0 DUP2 CALLDATALOAD SWAP1 POP PUSH2 0x1137 DUP2 PUSH2 0x189B JUMP JUMPDEST SWAP3 SWAP2 POP POP JUMP JUMPDEST PUSH1 0x0 DUP1 DUP4 PUSH1 0x1F DUP5 ADD SLT PUSH2 0x114F JUMPI PUSH1 0x0 DUP1 REVERT JUMPDEST DUP3 CALLDATALOAD SWAP1 POP PUSH8 0xFFFFFFFFFFFFFFFF DUP2 GT ISZERO PUSH2 0x1168 JUMPI PUSH1 0x0 DUP1 REVERT JUMPDEST PUSH1 0x20 DUP4 ADD SWAP2 POP DUP4 PUSH1 0x1 DUP3 MUL DUP4 ADD GT ISZERO PUSH2 0x1180 JUMPI PUSH1 0x0 DUP1 REVERT JUMPDEST SWAP3 POP SWAP3 SWAP1 POP JUMP JUMPDEST PUSH1 0x0 DUP2 CALLDATALOAD SWAP1 POP PUSH2 0x1196 DUP2 PUSH2 0x18B2 JUMP JUMPDEST SWAP3 SWAP2 POP POP JUMP JUMPDEST PUSH1 0x0 DUP1 PUSH1 0x40 DUP4 DUP6 SUB SLT ISZERO PUSH2 0x11AF JUMPI PUSH1 0x0 DUP1 REVERT JUMPDEST PUSH1 0x0 PUSH2 0x11BD DUP6 DUP3 DUP7 ADD PUSH2 0x1128 JUMP JUMPDEST SWAP3 POP POP PUSH1 0x20 PUSH2 0x11CE DUP6 DUP3 DUP7 ADD PUSH2 0x1187 JUMP JUMPDEST SWAP2 POP POP SWAP3 POP SWAP3 SWAP1 POP JUMP JUMPDEST PUSH1 0x0 DUP1 PUSH1 0x0 PUSH1 0x40 DUP5 DUP7 SUB SLT ISZERO PUSH2 0x11ED JUMPI PUSH1 0x0 DUP1 REVERT JUMPDEST PUSH1 0x0 DUP5 ADD CALLDATALOAD PUSH8 0xFFFFFFFFFFFFFFFF DUP2 GT ISZERO PUSH2 0x1207 JUMPI PUSH1 0x0 DUP1 REVERT JUMPDEST PUSH2 0x1213 DUP7 DUP3 DUP8 ADD PUSH2 0x113D JUMP JUMPDEST SWAP4 POP SWAP4 POP POP PUSH1 0x20 PUSH2 0x1226 DUP7 DUP3 DUP8 ADD PUSH2 0x1187 JUMP JUMPDEST SWAP2 POP POP SWAP3 POP SWAP3 POP SWAP3 JUMP JUMPDEST PUSH1 0x0 PUSH1 0x20 DUP3 DUP5 SUB SLT ISZERO PUSH2 0x1242 JUMPI PUSH1 0x0 DUP1 REVERT JUMPDEST PUSH1 0x0 PUSH2 0x1250 DUP5 DUP3 DUP6 ADD PUSH2 0x1187 JUMP JUMPDEST SWAP2 POP POP SWAP3 SWAP2 POP POP JUMP JUMPDEST PUSH1 0x0 DUP1 PUSH1 0x40 DUP4 DUP6 SUB SLT ISZERO PUSH2 0x126C JUMPI PUSH1 0x0 DUP1 REVERT JUMPDEST PUSH1 0x0 PUSH2 0x127A DUP6 DUP3 DUP7 ADD PUSH2 0x1187 JUMP JUMPDEST SWAP3 POP POP PUSH1 0x20 PUSH2 0x128B DUP6 DUP3 DUP7 ADD PUSH2 0x1187 JUMP JUMPDEST SWAP2 POP POP SWAP3 POP SWAP3 SWAP1 POP JUMP JUMPDEST PUSH2 0x129E DUP2 PUSH2 0x170C JUMP JUMPDEST DUP3 MSTORE POP POP JUMP JUMPDEST PUSH2 0x12AD DUP2 PUSH2 0x171E JUMP JUMPDEST DUP3 MSTORE POP POP JUMP JUMPDEST PUSH1 0x0 PUSH2 0x12BE DUP3 PUSH2 0x16B1 JUMP JUMPDEST PUSH2 0x12C8 DUP2 DUP6 PUSH2 0x16BC JUMP JUMPDEST SWAP4 POP PUSH2 0x12D8 DUP2 DUP6 PUSH1 0x20 DUP7 ADD PUSH2 0x1754 JUMP JUMPDEST PUSH2 0x12E1 DUP2 PUSH2 0x188A JUMP JUMPDEST DUP5 ADD SWAP2 POP POP SWAP3 SWAP2 POP POP JUMP JUMPDEST PUSH1 0x0 PUSH2 0x12F7 DUP3 PUSH2 0x16B1 JUMP JUMPDEST PUSH2 0x1301 DUP2 DUP6 PUSH2 0x16CD JUMP JUMPDEST SWAP4 POP PUSH2 0x1311 DUP2 DUP6 PUSH1 0x20 DUP7 ADD PUSH2 0x1754 JUMP JUMPDEST DUP1 DUP5 ADD SWAP2 POP POP SWAP3 SWAP2 POP POP JUMP JUMPDEST PUSH1 0x0 PUSH2 0x132A PUSH1 0x20 DUP4 PUSH2 0x16BC JUMP JUMPDEST SWAP2 POP PUSH32 0x5468697320626F6F6B2065786973747320696E20746865206C69627261727921 PUSH1 0x0 DUP4 ADD MSTORE PUSH1 0x20 DUP3 ADD SWAP1 POP SWAP2 SWAP1 POP JUMP JUMPDEST PUSH1 0x0 PUSH2 0x136A PUSH1 0x1E DUP4 PUSH2 0x16BC JUMP JUMPDEST SWAP2 POP PUSH32 0x596F7520686176656E7420626F72726F776564207468617420626F6F6B210000 PUSH1 0x0 DUP4 ADD MSTORE PUSH1 0x20 DUP3 ADD SWAP1 POP SWAP2 SWAP1 POP JUMP JUMPDEST PUSH1 0x0 PUSH2 0x13AA PUSH1 0x22 DUP4 PUSH2 0x16BC JUMP JUMPDEST SWAP2 POP PUSH32 0x596F7527766520616C726561647920626F72726F776564207468617420626F6F PUSH1 0x0 DUP4 ADD MSTORE PUSH32 0x6B21000000000000000000000000000000000000000000000000000000000000 PUSH1 0x20 DUP4 ADD MSTORE PUSH1 0x40 DUP3 ADD SWAP1 POP SWAP2 SWAP1 POP JUMP JUMPDEST PUSH1 0x0 PUSH2 0x1410 PUSH1 0x1A DUP4 PUSH2 0x16BC JUMP JUMPDEST SWAP2 POP PUSH32 0x43757272656E742075736572206973206E6F74206F776E657221000000000000 PUSH1 0x0 DUP4 ADD MSTORE PUSH1 0x20 DUP3 ADD SWAP1 POP SWAP2 SWAP1 POP JUMP JUMPDEST PUSH1 0x0 PUSH2 0x1450 PUSH1 0x24 DUP4 PUSH2 0x16BC JUMP JUMPDEST SWAP2 POP PUSH32 0x5468697320626F6F6B206973206F7574206F662073746F636B2063757272656E PUSH1 0x0 DUP4 ADD MSTORE PUSH32 0x746C792100000000000000000000000000000000000000000000000000000000 PUSH1 0x20 DUP4 ADD MSTORE PUSH1 0x40 DUP3 ADD SWAP1 POP SWAP2 SWAP1 POP JUMP JUMPDEST PUSH1 0x0 PUSH2 0x14B6 PUSH1 0x1F DUP4 PUSH2 0x16BC JUMP JUMPDEST SWAP2 POP PUSH32 0x426F6F6B20646F6573206E6F7420657869737420696E206C6962726172792100 PUSH1 0x0 DUP4 ADD MSTORE PUSH1 0x20 DUP3 ADD SWAP1 POP SWAP2 SWAP1 POP JUMP JUMPDEST PUSH1 0x0 PUSH2 0x14F6 PUSH1 0x1F DUP4 PUSH2 0x16BC JUMP JUMPDEST SWAP2 POP PUSH32 0x5175616E746974792063616E6E6F74206265206C657373207468616E20312100 PUSH1 0x0 DUP4 ADD MSTORE PUSH1 0x20 DUP3 ADD SWAP1 POP SWAP2 SWAP1 POP JUMP JUMPDEST PUSH2 0x1532 DUP2 PUSH2 0x174A JUMP JUMPDEST DUP3 MSTORE POP POP JUMP JUMPDEST PUSH1 0x0 PUSH2 0x1544 DUP3 DUP5 PUSH2 0x12EC JUMP JUMPDEST SWAP2 POP DUP2 SWAP1 POP SWAP3 SWAP2 POP POP JUMP JUMPDEST PUSH1 0x0 PUSH1 0x20 DUP3 ADD SWAP1 POP PUSH2 0x1564 PUSH1 0x0 DUP4 ADD DUP5 PUSH2 0x1295 JUMP JUMPDEST SWAP3 SWAP2 POP POP JUMP JUMPDEST PUSH1 0x0 PUSH1 0x20 DUP3 ADD SWAP1 POP DUP2 DUP2 SUB PUSH1 0x0 DUP4 ADD MSTORE PUSH2 0x1583 DUP2 PUSH2 0x131D JUMP JUMPDEST SWAP1 POP SWAP2 SWAP1 POP JUMP JUMPDEST PUSH1 0x0 PUSH1 0x20 DUP3 ADD SWAP1 POP DUP2 DUP2 SUB PUSH1 0x0 DUP4 ADD MSTORE PUSH2 0x15A3 DUP2 PUSH2 0x135D JUMP JUMPDEST SWAP1 POP SWAP2 SWAP1 POP JUMP JUMPDEST PUSH1 0x0 PUSH1 0x20 DUP3 ADD SWAP1 POP DUP2 DUP2 SUB PUSH1 0x0 DUP4 ADD MSTORE PUSH2 0x15C3 DUP2 PUSH2 0x139D JUMP JUMPDEST SWAP1 POP SWAP2 SWAP1 POP JUMP JUMPDEST PUSH1 0x0 PUSH1 0x20 DUP3 ADD SWAP1 POP DUP2 DUP2 SUB PUSH1 0x0 DUP4 ADD MSTORE PUSH2 0x15E3 DUP2 PUSH2 0x1403 JUMP JUMPDEST SWAP1 POP SWAP2 SWAP1 POP JUMP JUMPDEST PUSH1 0x0 PUSH1 0x20 DUP3 ADD SWAP1 POP DUP2 DUP2 SUB PUSH1 0x0 DUP4 ADD MSTORE PUSH2 0x1603 DUP2 PUSH2 0x1443 JUMP JUMPDEST SWAP1 POP SWAP2 SWAP1 POP JUMP JUMPDEST PUSH1 0x0 PUSH1 0x20 DUP3 ADD SWAP1 POP DUP2 DUP2 SUB PUSH1 0x0 DUP4 ADD MSTORE PUSH2 0x1623 DUP2 PUSH2 0x14A9 JUMP JUMPDEST SWAP1 POP SWAP2 SWAP1 POP JUMP JUMPDEST PUSH1 0x0 PUSH1 0x20 DUP3 ADD SWAP1 POP DUP2 DUP2 SUB PUSH1 0x0 DUP4 ADD MSTORE PUSH2 0x1643 DUP2 PUSH2 0x14E9 JUMP JUMPDEST SWAP1 POP SWAP2 SWAP1 POP JUMP JUMPDEST PUSH1 0x0 PUSH1 0x20 DUP3 ADD SWAP1 POP PUSH2 0x165F PUSH1 0x0 DUP4 ADD DUP5 PUSH2 0x1529 JUMP JUMPDEST SWAP3 SWAP2 POP POP JUMP JUMPDEST PUSH1 0x0 PUSH1 0x80 DUP3 ADD SWAP1 POP PUSH2 0x167A PUSH1 0x0 DUP4 ADD DUP8 PUSH2 0x1529 JUMP JUMPDEST DUP2 DUP2 SUB PUSH1 0x20 DUP4 ADD MSTORE PUSH2 0x168C DUP2 DUP7 PUSH2 0x12B3 JUMP JUMPDEST SWAP1 POP PUSH2 0x169B PUSH1 0x40 DUP4 ADD DUP6 PUSH2 0x1529 JUMP JUMPDEST PUSH2 0x16A8 PUSH1 0x60 DUP4 ADD DUP5 PUSH2 0x12A4 JUMP JUMPDEST SWAP6 SWAP5 POP POP POP POP POP JUMP JUMPDEST PUSH1 0x0 DUP2 MLOAD SWAP1 POP SWAP2 SWAP1 POP JUMP JUMPDEST PUSH1 0x0 DUP3 DUP3 MSTORE PUSH1 0x20 DUP3 ADD SWAP1 POP SWAP3 SWAP2 POP POP JUMP JUMPDEST PUSH1 0x0 DUP2 SWAP1 POP SWAP3 SWAP2 POP POP JUMP JUMPDEST PUSH1 0x0 PUSH2 0x16E3 DUP3 PUSH2 0x174A JUMP JUMPDEST SWAP2 POP PUSH2 0x16EE DUP4 PUSH2 0x174A JUMP JUMPDEST SWAP3 POP DUP3 DUP3 LT ISZERO PUSH2 0x1701 JUMPI PUSH2 0x1700 PUSH2 0x182C JUMP JUMPDEST JUMPDEST DUP3 DUP3 SUB SWAP1 POP SWAP3 SWAP2 POP POP JUMP JUMPDEST PUSH1 0x0 PUSH2 0x1717 DUP3 PUSH2 0x172A JUMP JUMPDEST SWAP1 POP SWAP2 SWAP1 POP JUMP JUMPDEST PUSH1 0x0 DUP2 ISZERO ISZERO SWAP1 POP SWAP2 SWAP1 POP JUMP JUMPDEST PUSH1 0x0 PUSH20 0xFFFFFFFFFFFFFFFFFFFFFFFFFFFFFFFFFFFFFFFF DUP3 AND SWAP1 POP SWAP2 SWAP1 POP JUMP JUMPDEST PUSH1 0x0 DUP2 SWAP1 POP SWAP2 SWAP1 POP JUMP JUMPDEST PUSH1 0x0 JUMPDEST DUP4 DUP2 LT ISZERO PUSH2 0x1772 JUMPI DUP1 DUP3 ADD MLOAD DUP2 DUP5 ADD MSTORE PUSH1 0x20 DUP2 ADD SWAP1 POP PUSH2 0x1757 JUMP JUMPDEST DUP4 DUP2 GT ISZERO PUSH2 0x1781 JUMPI PUSH1 0x0 DUP5 DUP5 ADD MSTORE JUMPDEST POP POP POP POP JUMP JUMPDEST PUSH1 0x0 PUSH2 0x1792 DUP3 PUSH2 0x174A JUMP JUMPDEST SWAP2 POP PUSH1 0x0 DUP3 EQ ISZERO PUSH2 0x17A6 JUMPI PUSH2 0x17A5 PUSH2 0x182C JUMP JUMPDEST JUMPDEST PUSH1 0x1 DUP3 SUB SWAP1 POP SWAP2 SWAP1 POP JUMP JUMPDEST PUSH1 0x0 PUSH1 0x2 DUP3 DIV SWAP1 POP PUSH1 0x1 DUP3 AND DUP1 PUSH2 0x17C9 JUMPI PUSH1 0x7F DUP3 AND SWAP2 POP JUMPDEST PUSH1 0x20 DUP3 LT DUP2 EQ ISZERO PUSH2 0x17DD JUMPI PUSH2 0x17DC PUSH2 0x185B JUMP JUMPDEST JUMPDEST POP SWAP2 SWAP1 POP JUMP JUMPDEST PUSH1 0x0 PUSH2 0x17EE DUP3 PUSH2 0x174A JUMP JUMPDEST SWAP2 POP PUSH32 0xFFFFFFFFFFFFFFFFFFFFFFFFFFFFFFFFFFFFFFFFFFFFFFFFFFFFFFFFFFFFFFFF DUP3 EQ ISZERO PUSH2 0x1821 JUMPI PUSH2 0x1820 PUSH2 0x182C JUMP JUMPDEST JUMPDEST PUSH1 0x1 DUP3 ADD SWAP1 POP SWAP2 SWAP1 POP JUMP JUMPDEST PUSH32 0x4E487B7100000000000000000000000000000000000000000000000000000000 PUSH1 0x0 MSTORE PUSH1 0x11 PUSH1 0x4 MSTORE PUSH1 0x24 PUSH1 0x0 REVERT JUMPDEST PUSH32 0x4E487B7100000000000000000000000000000000000000000000000000000000 PUSH1 0x0 MSTORE PUSH1 0x22 PUSH1 0x4 MSTORE PUSH1 0x24 PUSH1 0x0 REVERT JUMPDEST PUSH1 0x0 PUSH1 0x1F NOT PUSH1 0x1F DUP4 ADD AND SWAP1 POP SWAP2 SWAP1 POP JUMP JUMPDEST PUSH2 0x18A4 DUP2 PUSH2 0x170C JUMP JUMPDEST DUP2 EQ PUSH2 0x18AF JUMPI PUSH1 0x0 DUP1 REVERT JUMPDEST POP JUMP JUMPDEST PUSH2 0x18BB DUP2 PUSH2 0x174A JUMP JUMPDEST DUP2 EQ PUSH2 0x18C6 JUMPI PUSH1 0x0 DUP1 REVERT JUMPDEST POP JUMP INVALID LOG2 PUSH5 0x6970667358 0x22 SLT KECCAK256 CREATE 0xF DUP7 SELFDESTRUCT PUSH8 0x27354A706892E740 0xE8 DUP9 0xF GAS 0xBB 0xBC 0xD8 0x29 KECCAK256 AND MOD CODECOPY 0xE3 AND SELFBALANCE LOG3 SWAP14 0xAD 0xE7 PUSH5 0x736F6C6343 STOP ADDMOD STOP STOP CALLER "
				},
				"gasEstimates": {
					"creation": {
						"codeDepositCost": "1279800",
						"executionCost": "22195",
						"totalCost": "1301995"
					},
					"external": {
						"AddBook(string,uint256)": "infinite",
						"BookBorrowHistory(uint256,uint256)": "infinite",
						"BorrowBook(uint256)": "infinite",
						"ClientBorrowList(address,uint256)": "infinite",
						"LibraryArchive(uint256)": "infinite",
						"ReturnBook(uint256)": "infinite",
						"owner()": "1233"
					},
					"internal": {
						"LibraryContainsBook(string calldata)": "infinite"
					}
				},
				"methodIdentifiers": {
					"AddBook(string,uint256)": "265be2e2",
					"BookBorrowHistory(uint256,uint256)": "84ab2e1a",
					"BorrowBook(uint256)": "9649faa3",
					"ClientBorrowList(address,uint256)": "2b3819fe",
					"LibraryArchive(uint256)": "27e4671c",
					"ReturnBook(uint256)": "b8dd17db",
					"owner()": "8da5cb5b"
				}
			},
			"userdoc": {
				"kind": "user",
				"methods": {},
				"version": 1
			}
		}
	}
}