{
	"USElection.sol": {
		"USElection": {
			"abi": [
				{
					"anonymous": false,
					"inputs": [
						{
							"indexed": false,
							"internalType": "uint256",
							"name": "winner",
							"type": "uint256"
						}
					],
					"name": "LogElectionEnded",
					"type": "event"
				},
				{
					"anonymous": false,
					"inputs": [
						{
							"indexed": false,
							"internalType": "uint8",
							"name": "winner",
							"type": "uint8"
						},
						{
							"indexed": false,
							"internalType": "uint8",
							"name": "stateSeats",
							"type": "uint8"
						},
						{
							"indexed": false,
							"internalType": "string",
							"name": "state",
							"type": "string"
						}
					],
					"name": "LogStateResult",
					"type": "event"
				},
				{
					"inputs": [],
					"name": "BIDEN",
					"outputs": [
						{
							"internalType": "uint8",
							"name": "",
							"type": "uint8"
						}
					],
					"stateMutability": "view",
					"type": "function"
				},
				{
					"inputs": [],
					"name": "TRUMP",
					"outputs": [
						{
							"internalType": "uint8",
							"name": "",
							"type": "uint8"
						}
					],
					"stateMutability": "view",
					"type": "function"
				},
				{
					"inputs": [],
					"name": "currentLeader",
					"outputs": [
						{
							"internalType": "uint8",
							"name": "",
							"type": "uint8"
						}
					],
					"stateMutability": "view",
					"type": "function"
				},
				{
					"inputs": [],
					"name": "electionEnded",
					"outputs": [
						{
							"internalType": "bool",
							"name": "",
							"type": "bool"
						}
					],
					"stateMutability": "view",
					"type": "function"
				},
				{
					"inputs": [],
					"name": "endElection",
					"outputs": [],
					"stateMutability": "nonpayable",
					"type": "function"
				},
				{
					"inputs": [
						{
							"internalType": "string",
							"name": "",
							"type": "string"
						}
					],
					"name": "resultsSubmitted",
					"outputs": [
						{
							"internalType": "bool",
							"name": "",
							"type": "bool"
						}
					],
					"stateMutability": "view",
					"type": "function"
				},
				{
					"inputs": [
						{
							"internalType": "uint8",
							"name": "",
							"type": "uint8"
						}
					],
					"name": "seats",
					"outputs": [
						{
							"internalType": "uint8",
							"name": "",
							"type": "uint8"
						}
					],
					"stateMutability": "view",
					"type": "function"
				},
				{
					"inputs": [
						{
							"components": [
								{
									"internalType": "string",
									"name": "name",
									"type": "string"
								},
								{
									"internalType": "uint256",
									"name": "votesBiden",
									"type": "uint256"
								},
								{
									"internalType": "uint256",
									"name": "votesTrump",
									"type": "uint256"
								},
								{
									"internalType": "uint8",
									"name": "stateSeats",
									"type": "uint8"
								}
							],
							"internalType": "struct USElection.StateResult",
							"name": "result",
							"type": "tuple"
						}
					],
					"name": "submitStateResult",
					"outputs": [],
					"stateMutability": "nonpayable",
					"type": "function"
				}
			],
			"devdoc": {
				"kind": "dev",
				"methods": {},
				"version": 1
			},
			"evm": {
				"assembly": "    /* \"USElection.sol\":84:1576  contract USElection {... */\n  mstore(0x40, 0x80)\n  callvalue\n  dup1\n  iszero\n  tag_1\n  jumpi\n  0x00\n  dup1\n  revert\ntag_1:\n  pop\n  dataSize(sub_0)\n  dup1\n  dataOffset(sub_0)\n  0x00\n  codecopy\n  0x00\n  return\nstop\n\nsub_0: assembly {\n        /* \"USElection.sol\":84:1576  contract USElection {... */\n      mstore(0x40, 0x80)\n      callvalue\n      dup1\n      iszero\n      tag_1\n      jumpi\n      0x00\n      dup1\n      revert\n    tag_1:\n      pop\n      jumpi(tag_2, lt(calldatasize, 0x04))\n      shr(0xe0, calldataload(0x00))\n      dup1\n      0x713d87c5\n      gt\n      tag_11\n      jumpi\n      dup1\n      0x713d87c5\n      eq\n      tag_7\n      jumpi\n      dup1\n      0xac4bd53a\n      eq\n      tag_8\n      jumpi\n      dup1\n      0xc94ca9e3\n      eq\n      tag_9\n      jumpi\n      dup1\n      0xe494a883\n      eq\n      tag_10\n      jumpi\n      jump(tag_2)\n    tag_11:\n      dup1\n      0x2d78d8e5\n      eq\n      tag_3\n      jumpi\n      dup1\n      0x37ad98ec\n      eq\n      tag_4\n      jumpi\n      dup1\n      0x59f78468\n      eq\n      tag_5\n      jumpi\n      dup1\n      0x69b36bd4\n      eq\n      tag_6\n      jumpi\n    tag_2:\n      0x00\n      dup1\n      revert\n        /* \"USElection.sol\":147:178  uint8 public constant TRUMP = 2 */\n    tag_3:\n      tag_12\n      tag_13\n      jump\t// in\n    tag_12:\n      mload(0x40)\n      tag_14\n      swap2\n      swap1\n      tag_15\n      jump\t// in\n    tag_14:\n      mload(0x40)\n      dup1\n      swap2\n      sub\n      swap1\n      return\n        /* \"USElection.sol\":268:313  mapping(string=>bool) public resultsSubmitted */\n    tag_4:\n      tag_16\n      0x04\n      dup1\n      calldatasize\n      sub\n      dup2\n      add\n      swap1\n      tag_17\n      swap2\n      swap1\n      tag_18\n      jump\t// in\n    tag_17:\n      tag_19\n      jump\t// in\n    tag_16:\n      mload(0x40)\n      tag_20\n      swap2\n      swap1\n      tag_21\n      jump\t// in\n    tag_20:\n      mload(0x40)\n      dup1\n      swap2\n      sub\n      swap1\n      return\n        /* \"USElection.sol\":1435:1569  function endElection() public onlyActiveElection {... */\n    tag_5:\n      tag_22\n      tag_23\n      jump\t// in\n    tag_22:\n      stop\n        /* \"USElection.sol\":110:141  uint8 public constant BIDEN = 1 */\n    tag_6:\n      tag_24\n      tag_25\n      jump\t// in\n    tag_24:\n      mload(0x40)\n      tag_26\n      swap2\n      swap1\n      tag_15\n      jump\t// in\n    tag_26:\n      mload(0x40)\n      dup1\n      swap2\n      sub\n      swap1\n      return\n        /* \"USElection.sol\":225:261  mapping(uint8 => uint8) public seats */\n    tag_7:\n      tag_27\n      0x04\n      dup1\n      calldatasize\n      sub\n      dup2\n      add\n      swap1\n      tag_28\n      swap2\n      swap1\n      tag_29\n      jump\t// in\n    tag_28:\n      tag_30\n      jump\t// in\n    tag_27:\n      mload(0x40)\n      tag_31\n      swap2\n      swap1\n      tag_15\n      jump\t// in\n    tag_31:\n      mload(0x40)\n      dup1\n      swap2\n      sub\n      swap1\n      return\n        /* \"USElection.sol\":1207:1423  function currentLeader() public view returns(uint8) {... */\n    tag_8:\n      tag_32\n      tag_33\n      jump\t// in\n    tag_32:\n      mload(0x40)\n      tag_34\n      swap2\n      swap1\n      tag_15\n      jump\t// in\n    tag_34:\n      mload(0x40)\n      dup1\n      swap2\n      sub\n      swap1\n      return\n        /* \"USElection.sol\":189:214  bool public electionEnded */\n    tag_9:\n      tag_35\n      tag_36\n      jump\t// in\n    tag_35:\n      mload(0x40)\n      tag_37\n      swap2\n      swap1\n      tag_21\n      jump\t// in\n    tag_37:\n      mload(0x40)\n      dup1\n      swap2\n      sub\n      swap1\n      return\n        /* \"USElection.sol\":693:1201  function submitStateResult(StateResult calldata result) public onlyActiveElection {... */\n    tag_10:\n      tag_38\n      0x04\n      dup1\n      calldatasize\n      sub\n      dup2\n      add\n      swap1\n      tag_39\n      swap2\n      swap1\n      tag_40\n      jump\t// in\n    tag_39:\n      tag_41\n      jump\t// in\n    tag_38:\n      stop\n        /* \"USElection.sol\":147:178  uint8 public constant TRUMP = 2 */\n    tag_13:\n        /* \"USElection.sol\":177:178  2 */\n      0x02\n        /* \"USElection.sol\":147:178  uint8 public constant TRUMP = 2 */\n      dup2\n      jump\t// out\n        /* \"USElection.sol\":268:313  mapping(string=>bool) public resultsSubmitted */\n    tag_19:\n      0x02\n      dup2\n      dup1\n      mload\n      0x20\n      dup2\n      add\n      dup3\n      add\n      dup1\n      mload\n      dup5\n      dup3\n      mstore\n      0x20\n      dup4\n      add\n      0x20\n      dup6\n      add\n      keccak256\n      dup2\n      dup4\n      mstore\n      dup1\n      swap6\n      pop\n      pop\n      pop\n      pop\n      pop\n      pop\n      0x00\n      swap2\n      pop\n      sload\n      swap1\n      0x0100\n      exp\n      swap1\n      div\n      0xff\n      and\n      dup2\n      jump\t// out\n        /* \"USElection.sol\":1435:1569  function endElection() public onlyActiveElection {... */\n    tag_23:\n        /* \"USElection.sol\":618:631  electionEnded */\n      0x00\n      dup1\n      sload\n      swap1\n      0x0100\n      exp\n      swap1\n      div\n      0xff\n      and\n        /* \"USElection.sol\":617:631  !electionEnded */\n      iszero\n        /* \"USElection.sol\":609:666  require(!electionEnded, \"The election has ended already\") */\n      tag_43\n      jumpi\n      mload(0x40)\n      0x08c379a000000000000000000000000000000000000000000000000000000000\n      dup2\n      mstore\n      0x04\n      add\n      tag_44\n      swap1\n      tag_45\n      jump\t// in\n    tag_44:\n      mload(0x40)\n      dup1\n      swap2\n      sub\n      swap1\n      revert\n    tag_43:\n        /* \"USElection.sol\":1510:1514  true */\n      0x01\n        /* \"USElection.sol\":1494:1507  electionEnded */\n      0x00\n      dup1\n        /* \"USElection.sol\":1494:1514  electionEnded = true */\n      0x0100\n      exp\n      dup2\n      sload\n      dup2\n      0xff\n      mul\n      not\n      and\n      swap1\n      dup4\n      iszero\n      iszero\n      mul\n      or\n      swap1\n      sstore\n      pop\n        /* \"USElection.sol\":1529:1562  LogElectionEnded(currentLeader()) */\n      0xaacb23683ec1a0e9b52f9a6264edf58ad322ac62079d65ea7363a2d400f439f4\n        /* \"USElection.sol\":1546:1561  currentLeader() */\n      tag_47\n        /* \"USElection.sol\":1546:1559  currentLeader */\n      tag_33\n        /* \"USElection.sol\":1546:1561  currentLeader() */\n      jump\t// in\n    tag_47:\n        /* \"USElection.sol\":1529:1562  LogElectionEnded(currentLeader()) */\n      mload(0x40)\n      tag_48\n      swap2\n      swap1\n      tag_49\n      jump\t// in\n    tag_48:\n      mload(0x40)\n      dup1\n      swap2\n      sub\n      swap1\n      log1\n        /* \"USElection.sol\":1435:1569  function endElection() public onlyActiveElection {... */\n      jump\t// out\n        /* \"USElection.sol\":110:141  uint8 public constant BIDEN = 1 */\n    tag_25:\n        /* \"USElection.sol\":140:141  1 */\n      0x01\n        /* \"USElection.sol\":110:141  uint8 public constant BIDEN = 1 */\n      dup2\n      jump\t// out\n        /* \"USElection.sol\":225:261  mapping(uint8 => uint8) public seats */\n    tag_30:\n      mstore(0x20, 0x01)\n      dup1\n      0x00\n      mstore\n      keccak256(0x00, 0x40)\n      0x00\n      swap2\n      pop\n      sload\n      swap1\n      0x0100\n      exp\n      swap1\n      div\n      0xff\n      and\n      dup2\n      jump\t// out\n        /* \"USElection.sol\":1207:1423  function currentLeader() public view returns(uint8) {... */\n    tag_33:\n        /* \"USElection.sol\":1252:1257  uint8 */\n      0x00\n        /* \"USElection.sol\":1285:1290  seats */\n      0x01\n        /* \"USElection.sol\":1285:1297  seats[TRUMP] */\n      0x00\n        /* \"USElection.sol\":177:178  2 */\n      0x02\n        /* \"USElection.sol\":1285:1297  seats[TRUMP] */\n      0xff\n      and\n      0xff\n      and\n      dup2\n      mstore\n      0x20\n      add\n      swap1\n      dup2\n      mstore\n      0x20\n      add\n      0x00\n      keccak256\n      0x00\n      swap1\n      sload\n      swap1\n      0x0100\n      exp\n      swap1\n      div\n      0xff\n      and\n        /* \"USElection.sol\":1270:1297  seats[BIDEN] > seats[TRUMP] */\n      0xff\n      and\n        /* \"USElection.sol\":1270:1275  seats */\n      0x01\n        /* \"USElection.sol\":1270:1282  seats[BIDEN] */\n      0x00\n        /* \"USElection.sol\":140:141  1 */\n      0x01\n        /* \"USElection.sol\":1270:1282  seats[BIDEN] */\n      0xff\n      and\n      0xff\n      and\n      dup2\n      mstore\n      0x20\n      add\n      swap1\n      dup2\n      mstore\n      0x20\n      add\n      0x00\n      keccak256\n      0x00\n      swap1\n      sload\n      swap1\n      0x0100\n      exp\n      swap1\n      div\n      0xff\n      and\n        /* \"USElection.sol\":1270:1297  seats[BIDEN] > seats[TRUMP] */\n      0xff\n      and\n      gt\n        /* \"USElection.sol\":1267:1332  if(seats[BIDEN] > seats[TRUMP]) {... */\n      iszero\n      tag_51\n      jumpi\n        /* \"USElection.sol\":140:141  1 */\n      0x01\n        /* \"USElection.sol\":1311:1323  return BIDEN */\n      swap1\n      pop\n      jump(tag_50)\n        /* \"USElection.sol\":1267:1332  if(seats[BIDEN] > seats[TRUMP]) {... */\n    tag_51:\n        /* \"USElection.sol\":1357:1362  seats */\n      0x01\n        /* \"USElection.sol\":1357:1369  seats[BIDEN] */\n      0x00\n        /* \"USElection.sol\":140:141  1 */\n      0x01\n        /* \"USElection.sol\":1357:1369  seats[BIDEN] */\n      0xff\n      and\n      0xff\n      and\n      dup2\n      mstore\n      0x20\n      add\n      swap1\n      dup2\n      mstore\n      0x20\n      add\n      0x00\n      keccak256\n      0x00\n      swap1\n      sload\n      swap1\n      0x0100\n      exp\n      swap1\n      div\n      0xff\n      and\n        /* \"USElection.sol\":1342:1369  seats[TRUMP] > seats[BIDEN] */\n      0xff\n      and\n        /* \"USElection.sol\":1342:1347  seats */\n      0x01\n        /* \"USElection.sol\":1342:1354  seats[TRUMP] */\n      0x00\n        /* \"USElection.sol\":177:178  2 */\n      0x02\n        /* \"USElection.sol\":1342:1354  seats[TRUMP] */\n      0xff\n      and\n      0xff\n      and\n      dup2\n      mstore\n      0x20\n      add\n      swap1\n      dup2\n      mstore\n      0x20\n      add\n      0x00\n      keccak256\n      0x00\n      swap1\n      sload\n      swap1\n      0x0100\n      exp\n      swap1\n      div\n      0xff\n      and\n        /* \"USElection.sol\":1342:1369  seats[TRUMP] > seats[BIDEN] */\n      0xff\n      and\n      gt\n        /* \"USElection.sol\":1339:1404  if(seats[TRUMP] > seats[BIDEN]) {... */\n      iszero\n      tag_52\n      jumpi\n        /* \"USElection.sol\":177:178  2 */\n      0x02\n        /* \"USElection.sol\":1383:1395  return TRUMP */\n      swap1\n      pop\n      jump(tag_50)\n        /* \"USElection.sol\":1339:1404  if(seats[TRUMP] > seats[BIDEN]) {... */\n    tag_52:\n        /* \"USElection.sol\":1418:1419  0 */\n      0x00\n        /* \"USElection.sol\":1411:1419  return 0 */\n      swap1\n      pop\n        /* \"USElection.sol\":1207:1423  function currentLeader() public view returns(uint8) {... */\n    tag_50:\n      swap1\n      jump\t// out\n        /* \"USElection.sol\":189:214  bool public electionEnded */\n    tag_36:\n      0x00\n      dup1\n      sload\n      swap1\n      0x0100\n      exp\n      swap1\n      div\n      0xff\n      and\n      dup2\n      jump\t// out\n        /* \"USElection.sol\":693:1201  function submitStateResult(StateResult calldata result) public onlyActiveElection {... */\n    tag_41:\n        /* \"USElection.sol\":618:631  electionEnded */\n      0x00\n      dup1\n      sload\n      swap1\n      0x0100\n      exp\n      swap1\n      div\n      0xff\n      and\n        /* \"USElection.sol\":617:631  !electionEnded */\n      iszero\n        /* \"USElection.sol\":609:666  require(!electionEnded, \"The election has ended already\") */\n      tag_54\n      jumpi\n      mload(0x40)\n      0x08c379a000000000000000000000000000000000000000000000000000000000\n      dup2\n      mstore\n      0x04\n      add\n      tag_55\n      swap1\n      tag_45\n      jump\t// in\n    tag_55:\n      mload(0x40)\n      dup1\n      swap2\n      sub\n      swap1\n      revert\n    tag_54:\n        /* \"USElection.sol\":811:812  0 */\n      0x00\n        /* \"USElection.sol\":791:797  result */\n      dup2\n        /* \"USElection.sol\":791:808  result.stateSeats */\n      0x60\n      add\n      0x20\n      dup2\n      add\n      swap1\n      tag_57\n      swap2\n      swap1\n      tag_29\n      jump\t// in\n    tag_57:\n        /* \"USElection.sol\":791:812  result.stateSeats > 0 */\n      0xff\n      and\n      gt\n        /* \"USElection.sol\":783:849  require(result.stateSeats > 0, \"States must have at least 1 seat\") */\n      tag_58\n      jumpi\n      mload(0x40)\n      0x08c379a000000000000000000000000000000000000000000000000000000000\n      dup2\n      mstore\n      0x04\n      add\n      tag_59\n      swap1\n      tag_60\n      jump\t// in\n    tag_59:\n      mload(0x40)\n      dup1\n      swap2\n      sub\n      swap1\n      revert\n    tag_58:\n        /* \"USElection.sol\":886:892  result */\n      dup1\n        /* \"USElection.sol\":886:903  result.votesTrump */\n      0x40\n      add\n      calldataload\n        /* \"USElection.sol\":865:871  result */\n      dup2\n        /* \"USElection.sol\":865:882  result.votesBiden */\n      0x20\n      add\n      calldataload\n        /* \"USElection.sol\":865:903  result.votesBiden != result.votesTrump */\n      eq\n      iszero\n        /* \"USElection.sol\":857:929  require(result.votesBiden != result.votesTrump, \"There cannot be a tie\") */\n      tag_61\n      jumpi\n      mload(0x40)\n      0x08c379a000000000000000000000000000000000000000000000000000000000\n      dup2\n      mstore\n      0x04\n      add\n      tag_62\n      swap1\n      tag_63\n      jump\t// in\n    tag_62:\n      mload(0x40)\n      dup1\n      swap2\n      sub\n      swap1\n      revert\n    tag_61:\n        /* \"USElection.sol\":937:949  uint8 winner */\n      0x00\n        /* \"USElection.sol\":980:986  result */\n      dup2\n        /* \"USElection.sol\":980:997  result.votesTrump */\n      0x40\n      add\n      calldataload\n        /* \"USElection.sol\":960:966  result */\n      dup3\n        /* \"USElection.sol\":960:977  result.votesBiden */\n      0x20\n      add\n      calldataload\n        /* \"USElection.sol\":960:997  result.votesBiden > result.votesTrump */\n      gt\n        /* \"USElection.sol\":957:1075  if(result.votesBiden > result.votesTrump) {... */\n      iszero\n      tag_64\n      jumpi\n        /* \"USElection.sol\":140:141  1 */\n      0x01\n        /* \"USElection.sol\":1011:1025  winner = BIDEN */\n      swap1\n      pop\n        /* \"USElection.sol\":957:1075  if(result.votesBiden > result.votesTrump) {... */\n      jump(tag_65)\n    tag_64:\n        /* \"USElection.sol\":177:178  2 */\n      0x02\n        /* \"USElection.sol\":1052:1066  winner = TRUMP */\n      swap1\n      pop\n        /* \"USElection.sol\":957:1075  if(result.votesBiden > result.votesTrump) {... */\n    tag_65:\n        /* \"USElection.sol\":1106:1112  result */\n      dup2\n        /* \"USElection.sol\":1106:1123  result.stateSeats */\n      0x60\n      add\n      0x20\n      dup2\n      add\n      swap1\n      tag_66\n      swap2\n      swap1\n      tag_29\n      jump\t// in\n    tag_66:\n        /* \"USElection.sol\":1089:1094  seats */\n      0x01\n        /* \"USElection.sol\":1089:1102  seats[winner] */\n      0x00\n        /* \"USElection.sol\":1095:1101  winner */\n      dup4\n        /* \"USElection.sol\":1089:1102  seats[winner] */\n      0xff\n      and\n      0xff\n      and\n      dup2\n      mstore\n      0x20\n      add\n      swap1\n      dup2\n      mstore\n      0x20\n      add\n      0x00\n      keccak256\n      0x00\n        /* \"USElection.sol\":1089:1123  seats[winner] += result.stateSeats */\n      dup3\n      dup3\n      dup3\n      swap1\n      sload\n      swap1\n      0x0100\n      exp\n      swap1\n      div\n      0xff\n      and\n      tag_67\n      swap2\n      swap1\n      tag_68\n      jump\t// in\n    tag_67:\n      swap3\n      pop\n      0x0100\n      exp\n      dup2\n      sload\n      dup2\n      0xff\n      mul\n      not\n      and\n      swap1\n      dup4\n      0xff\n      and\n      mul\n      or\n      swap1\n      sstore\n      pop\n        /* \"USElection.sol\":1143:1197  LogStateResult(winner, result.stateSeats, result.name) */\n      0xa2e71fe38f1afa3762cf9d2ea7bb6a4d272a90fd6f9392f3acedd3b542046b46\n        /* \"USElection.sol\":1158:1164  winner */\n      dup2\n        /* \"USElection.sol\":1166:1172  result */\n      dup4\n        /* \"USElection.sol\":1166:1183  result.stateSeats */\n      0x60\n      add\n      0x20\n      dup2\n      add\n      swap1\n      tag_69\n      swap2\n      swap1\n      tag_29\n      jump\t// in\n    tag_69:\n        /* \"USElection.sol\":1185:1191  result */\n      dup5\n        /* \"USElection.sol\":1185:1196  result.name */\n      dup1\n      0x00\n      add\n      swap1\n      tag_70\n      swap2\n      swap1\n      tag_71\n      jump\t// in\n    tag_70:\n        /* \"USElection.sol\":1143:1197  LogStateResult(winner, result.stateSeats, result.name) */\n      mload(0x40)\n      tag_72\n      swap5\n      swap4\n      swap3\n      swap2\n      swap1\n      tag_73\n      jump\t// in\n    tag_72:\n      mload(0x40)\n      dup1\n      swap2\n      sub\n      swap1\n      log1\n        /* \"USElection.sol\":775:1201  {... */\n      pop\n        /* \"USElection.sol\":693:1201  function submitStateResult(StateResult calldata result) public onlyActiveElection {... */\n      pop\n      jump\t// out\n        /* \"#utility.yul\":7:419   */\n    tag_75:\n        /* \"#utility.yul\":85:90   */\n      0x00\n        /* \"#utility.yul\":110:176   */\n      tag_77\n        /* \"#utility.yul\":126:175   */\n      tag_78\n        /* \"#utility.yul\":168:174   */\n      dup5\n        /* \"#utility.yul\":126:175   */\n      tag_79\n      jump\t// in\n    tag_78:\n        /* \"#utility.yul\":110:176   */\n      tag_80\n      jump\t// in\n    tag_77:\n        /* \"#utility.yul\":101:176   */\n      swap1\n      pop\n        /* \"#utility.yul\":199:205   */\n      dup3\n        /* \"#utility.yul\":192:197   */\n      dup2\n        /* \"#utility.yul\":185:206   */\n      mstore\n        /* \"#utility.yul\":237:241   */\n      0x20\n        /* \"#utility.yul\":230:235   */\n      dup2\n        /* \"#utility.yul\":226:242   */\n      add\n        /* \"#utility.yul\":275:278   */\n      dup5\n        /* \"#utility.yul\":266:272   */\n      dup5\n        /* \"#utility.yul\":261:264   */\n      dup5\n        /* \"#utility.yul\":257:273   */\n      add\n        /* \"#utility.yul\":254:279   */\n      gt\n        /* \"#utility.yul\":251:363   */\n      iszero\n      tag_81\n      jumpi\n        /* \"#utility.yul\":282:361   */\n      tag_82\n      tag_83\n      jump\t// in\n    tag_82:\n        /* \"#utility.yul\":251:363   */\n    tag_81:\n        /* \"#utility.yul\":372:413   */\n      tag_84\n        /* \"#utility.yul\":406:412   */\n      dup5\n        /* \"#utility.yul\":401:404   */\n      dup3\n        /* \"#utility.yul\":396:399   */\n      dup6\n        /* \"#utility.yul\":372:413   */\n      tag_85\n      jump\t// in\n    tag_84:\n        /* \"#utility.yul\":91:419   */\n      pop\n        /* \"#utility.yul\":7:419   */\n      swap4\n      swap3\n      pop\n      pop\n      pop\n      jump\t// out\n        /* \"#utility.yul\":439:779   */\n    tag_86:\n        /* \"#utility.yul\":495:500   */\n      0x00\n        /* \"#utility.yul\":544:547   */\n      dup3\n        /* \"#utility.yul\":537:541   */\n      0x1f\n        /* \"#utility.yul\":529:535   */\n      dup4\n        /* \"#utility.yul\":525:542   */\n      add\n        /* \"#utility.yul\":521:548   */\n      slt\n        /* \"#utility.yul\":511:633   */\n      tag_88\n      jumpi\n        /* \"#utility.yul\":552:631   */\n      tag_89\n      tag_90\n      jump\t// in\n    tag_89:\n        /* \"#utility.yul\":511:633   */\n    tag_88:\n        /* \"#utility.yul\":669:675   */\n      dup2\n        /* \"#utility.yul\":656:676   */\n      calldataload\n        /* \"#utility.yul\":694:773   */\n      tag_91\n        /* \"#utility.yul\":769:772   */\n      dup5\n        /* \"#utility.yul\":761:767   */\n      dup3\n        /* \"#utility.yul\":754:758   */\n      0x20\n        /* \"#utility.yul\":746:752   */\n      dup7\n        /* \"#utility.yul\":742:759   */\n      add\n        /* \"#utility.yul\":694:773   */\n      tag_75\n      jump\t// in\n    tag_91:\n        /* \"#utility.yul\":685:773   */\n      swap2\n      pop\n        /* \"#utility.yul\":501:779   */\n      pop\n        /* \"#utility.yul\":439:779   */\n      swap3\n      swap2\n      pop\n      pop\n      jump\t// out\n        /* \"#utility.yul\":822:1056   */\n    tag_92:\n        /* \"#utility.yul\":897:902   */\n      0x00\n        /* \"#utility.yul\":938:941   */\n      0x80\n        /* \"#utility.yul\":929:935   */\n      dup3\n        /* \"#utility.yul\":924:927   */\n      dup5\n        /* \"#utility.yul\":920:936   */\n      sub\n        /* \"#utility.yul\":916:942   */\n      slt\n        /* \"#utility.yul\":913:1026   */\n      iszero\n      tag_94\n      jumpi\n        /* \"#utility.yul\":945:1024   */\n      tag_95\n      tag_96\n      jump\t// in\n    tag_95:\n        /* \"#utility.yul\":913:1026   */\n    tag_94:\n        /* \"#utility.yul\":1044:1050   */\n      dup2\n        /* \"#utility.yul\":1035:1050   */\n      swap1\n      pop\n        /* \"#utility.yul\":822:1056   */\n      swap3\n      swap2\n      pop\n      pop\n      jump\t// out\n        /* \"#utility.yul\":1062:1197   */\n    tag_97:\n        /* \"#utility.yul\":1106:1111   */\n      0x00\n        /* \"#utility.yul\":1144:1150   */\n      dup2\n        /* \"#utility.yul\":1131:1151   */\n      calldataload\n        /* \"#utility.yul\":1122:1151   */\n      swap1\n      pop\n        /* \"#utility.yul\":1160:1191   */\n      tag_99\n        /* \"#utility.yul\":1185:1190   */\n      dup2\n        /* \"#utility.yul\":1160:1191   */\n      tag_100\n      jump\t// in\n    tag_99:\n        /* \"#utility.yul\":1062:1197   */\n      swap3\n      swap2\n      pop\n      pop\n      jump\t// out\n        /* \"#utility.yul\":1203:1712   */\n    tag_18:\n        /* \"#utility.yul\":1272:1278   */\n      0x00\n        /* \"#utility.yul\":1321:1323   */\n      0x20\n        /* \"#utility.yul\":1309:1318   */\n      dup3\n        /* \"#utility.yul\":1300:1307   */\n      dup5\n        /* \"#utility.yul\":1296:1319   */\n      sub\n        /* \"#utility.yul\":1292:1324   */\n      slt\n        /* \"#utility.yul\":1289:1408   */\n      iszero\n      tag_102\n      jumpi\n        /* \"#utility.yul\":1327:1406   */\n      tag_103\n      tag_104\n      jump\t// in\n    tag_103:\n        /* \"#utility.yul\":1289:1408   */\n    tag_102:\n        /* \"#utility.yul\":1475:1476   */\n      0x00\n        /* \"#utility.yul\":1464:1473   */\n      dup3\n        /* \"#utility.yul\":1460:1477   */\n      add\n        /* \"#utility.yul\":1447:1478   */\n      calldataload\n        /* \"#utility.yul\":1505:1523   */\n      0xffffffffffffffff\n        /* \"#utility.yul\":1497:1503   */\n      dup2\n        /* \"#utility.yul\":1494:1524   */\n      gt\n        /* \"#utility.yul\":1491:1608   */\n      iszero\n      tag_105\n      jumpi\n        /* \"#utility.yul\":1527:1606   */\n      tag_106\n      tag_107\n      jump\t// in\n    tag_106:\n        /* \"#utility.yul\":1491:1608   */\n    tag_105:\n        /* \"#utility.yul\":1632:1695   */\n      tag_108\n        /* \"#utility.yul\":1687:1694   */\n      dup5\n        /* \"#utility.yul\":1678:1684   */\n      dup3\n        /* \"#utility.yul\":1667:1676   */\n      dup6\n        /* \"#utility.yul\":1663:1685   */\n      add\n        /* \"#utility.yul\":1632:1695   */\n      tag_86\n      jump\t// in\n    tag_108:\n        /* \"#utility.yul\":1622:1695   */\n      swap2\n      pop\n        /* \"#utility.yul\":1418:1705   */\n      pop\n        /* \"#utility.yul\":1203:1712   */\n      swap3\n      swap2\n      pop\n      pop\n      jump\t// out\n        /* \"#utility.yul\":1718:2265   */\n    tag_40:\n        /* \"#utility.yul\":1806:1812   */\n      0x00\n        /* \"#utility.yul\":1855:1857   */\n      0x20\n        /* \"#utility.yul\":1843:1852   */\n      dup3\n        /* \"#utility.yul\":1834:1841   */\n      dup5\n        /* \"#utility.yul\":1830:1853   */\n      sub\n        /* \"#utility.yul\":1826:1858   */\n      slt\n        /* \"#utility.yul\":1823:1942   */\n      iszero\n      tag_110\n      jumpi\n        /* \"#utility.yul\":1861:1940   */\n      tag_111\n      tag_104\n      jump\t// in\n    tag_111:\n        /* \"#utility.yul\":1823:1942   */\n    tag_110:\n        /* \"#utility.yul\":2009:2010   */\n      0x00\n        /* \"#utility.yul\":1998:2007   */\n      dup3\n        /* \"#utility.yul\":1994:2011   */\n      add\n        /* \"#utility.yul\":1981:2012   */\n      calldataload\n        /* \"#utility.yul\":2039:2057   */\n      0xffffffffffffffff\n        /* \"#utility.yul\":2031:2037   */\n      dup2\n        /* \"#utility.yul\":2028:2058   */\n      gt\n        /* \"#utility.yul\":2025:2142   */\n      iszero\n      tag_112\n      jumpi\n        /* \"#utility.yul\":2061:2140   */\n      tag_113\n      tag_107\n      jump\t// in\n    tag_113:\n        /* \"#utility.yul\":2025:2142   */\n    tag_112:\n        /* \"#utility.yul\":2166:2248   */\n      tag_114\n        /* \"#utility.yul\":2240:2247   */\n      dup5\n        /* \"#utility.yul\":2231:2237   */\n      dup3\n        /* \"#utility.yul\":2220:2229   */\n      dup6\n        /* \"#utility.yul\":2216:2238   */\n      add\n        /* \"#utility.yul\":2166:2248   */\n      tag_92\n      jump\t// in\n    tag_114:\n        /* \"#utility.yul\":2156:2248   */\n      swap2\n      pop\n        /* \"#utility.yul\":1952:2258   */\n      pop\n        /* \"#utility.yul\":1718:2265   */\n      swap3\n      swap2\n      pop\n      pop\n      jump\t// out\n        /* \"#utility.yul\":2271:2596   */\n    tag_29:\n        /* \"#utility.yul\":2328:2334   */\n      0x00\n        /* \"#utility.yul\":2377:2379   */\n      0x20\n        /* \"#utility.yul\":2365:2374   */\n      dup3\n        /* \"#utility.yul\":2356:2363   */\n      dup5\n        /* \"#utility.yul\":2352:2375   */\n      sub\n        /* \"#utility.yul\":2348:2380   */\n      slt\n        /* \"#utility.yul\":2345:2464   */\n      iszero\n      tag_116\n      jumpi\n        /* \"#utility.yul\":2383:2462   */\n      tag_117\n      tag_104\n      jump\t// in\n    tag_117:\n        /* \"#utility.yul\":2345:2464   */\n    tag_116:\n        /* \"#utility.yul\":2503:2504   */\n      0x00\n        /* \"#utility.yul\":2528:2579   */\n      tag_118\n        /* \"#utility.yul\":2571:2578   */\n      dup5\n        /* \"#utility.yul\":2562:2568   */\n      dup3\n        /* \"#utility.yul\":2551:2560   */\n      dup6\n        /* \"#utility.yul\":2547:2569   */\n      add\n        /* \"#utility.yul\":2528:2579   */\n      tag_97\n      jump\t// in\n    tag_118:\n        /* \"#utility.yul\":2518:2579   */\n      swap2\n      pop\n        /* \"#utility.yul\":2474:2589   */\n      pop\n        /* \"#utility.yul\":2271:2596   */\n      swap3\n      swap2\n      pop\n      pop\n      jump\t// out\n        /* \"#utility.yul\":2602:2711   */\n    tag_119:\n        /* \"#utility.yul\":2683:2704   */\n      tag_121\n        /* \"#utility.yul\":2698:2703   */\n      dup2\n        /* \"#utility.yul\":2683:2704   */\n      tag_122\n      jump\t// in\n    tag_121:\n        /* \"#utility.yul\":2678:2681   */\n      dup3\n        /* \"#utility.yul\":2671:2705   */\n      mstore\n        /* \"#utility.yul\":2602:2711   */\n      pop\n      pop\n      jump\t// out\n        /* \"#utility.yul\":2741:3045   */\n    tag_123:\n        /* \"#utility.yul\":2839:2842   */\n      0x00\n        /* \"#utility.yul\":2860:2931   */\n      tag_125\n        /* \"#utility.yul\":2924:2930   */\n      dup4\n        /* \"#utility.yul\":2919:2922   */\n      dup6\n        /* \"#utility.yul\":2860:2931   */\n      tag_126\n      jump\t// in\n    tag_125:\n        /* \"#utility.yul\":2853:2931   */\n      swap4\n      pop\n        /* \"#utility.yul\":2941:2984   */\n      tag_127\n        /* \"#utility.yul\":2977:2983   */\n      dup4\n        /* \"#utility.yul\":2972:2975   */\n      dup6\n        /* \"#utility.yul\":2965:2970   */\n      dup5\n        /* \"#utility.yul\":2941:2984   */\n      tag_85\n      jump\t// in\n    tag_127:\n        /* \"#utility.yul\":3009:3038   */\n      tag_128\n        /* \"#utility.yul\":3031:3037   */\n      dup4\n        /* \"#utility.yul\":3009:3038   */\n      tag_129\n      jump\t// in\n    tag_128:\n        /* \"#utility.yul\":3004:3007   */\n      dup5\n        /* \"#utility.yul\":3000:3039   */\n      add\n        /* \"#utility.yul\":2993:3039   */\n      swap1\n      pop\n        /* \"#utility.yul\":2741:3045   */\n      swap4\n      swap3\n      pop\n      pop\n      pop\n      jump\t// out\n        /* \"#utility.yul\":3051:3417   */\n    tag_130:\n        /* \"#utility.yul\":3193:3196   */\n      0x00\n        /* \"#utility.yul\":3214:3281   */\n      tag_132\n        /* \"#utility.yul\":3278:3280   */\n      0x1e\n        /* \"#utility.yul\":3273:3276   */\n      dup4\n        /* \"#utility.yul\":3214:3281   */\n      tag_126\n      jump\t// in\n    tag_132:\n        /* \"#utility.yul\":3207:3281   */\n      swap2\n      pop\n        /* \"#utility.yul\":3290:3383   */\n      tag_133\n        /* \"#utility.yul\":3379:3382   */\n      dup3\n        /* \"#utility.yul\":3290:3383   */\n      tag_134\n      jump\t// in\n    tag_133:\n        /* \"#utility.yul\":3408:3410   */\n      0x20\n        /* \"#utility.yul\":3403:3406   */\n      dup3\n        /* \"#utility.yul\":3399:3411   */\n      add\n        /* \"#utility.yul\":3392:3411   */\n      swap1\n      pop\n        /* \"#utility.yul\":3051:3417   */\n      swap2\n      swap1\n      pop\n      jump\t// out\n        /* \"#utility.yul\":3423:3789   */\n    tag_135:\n        /* \"#utility.yul\":3565:3568   */\n      0x00\n        /* \"#utility.yul\":3586:3653   */\n      tag_137\n        /* \"#utility.yul\":3650:3652   */\n      0x15\n        /* \"#utility.yul\":3645:3648   */\n      dup4\n        /* \"#utility.yul\":3586:3653   */\n      tag_126\n      jump\t// in\n    tag_137:\n        /* \"#utility.yul\":3579:3653   */\n      swap2\n      pop\n        /* \"#utility.yul\":3662:3755   */\n      tag_138\n        /* \"#utility.yul\":3751:3754   */\n      dup3\n        /* \"#utility.yul\":3662:3755   */\n      tag_139\n      jump\t// in\n    tag_138:\n        /* \"#utility.yul\":3780:3782   */\n      0x20\n        /* \"#utility.yul\":3775:3778   */\n      dup3\n        /* \"#utility.yul\":3771:3783   */\n      add\n        /* \"#utility.yul\":3764:3783   */\n      swap1\n      pop\n        /* \"#utility.yul\":3423:3789   */\n      swap2\n      swap1\n      pop\n      jump\t// out\n        /* \"#utility.yul\":3795:4161   */\n    tag_140:\n        /* \"#utility.yul\":3937:3940   */\n      0x00\n        /* \"#utility.yul\":3958:4025   */\n      tag_142\n        /* \"#utility.yul\":4022:4024   */\n      0x20\n        /* \"#utility.yul\":4017:4020   */\n      dup4\n        /* \"#utility.yul\":3958:4025   */\n      tag_126\n      jump\t// in\n    tag_142:\n        /* \"#utility.yul\":3951:4025   */\n      swap2\n      pop\n        /* \"#utility.yul\":4034:4127   */\n      tag_143\n        /* \"#utility.yul\":4123:4126   */\n      dup3\n        /* \"#utility.yul\":4034:4127   */\n      tag_144\n      jump\t// in\n    tag_143:\n        /* \"#utility.yul\":4152:4154   */\n      0x20\n        /* \"#utility.yul\":4147:4150   */\n      dup3\n        /* \"#utility.yul\":4143:4155   */\n      add\n        /* \"#utility.yul\":4136:4155   */\n      swap1\n      pop\n        /* \"#utility.yul\":3795:4161   */\n      swap2\n      swap1\n      pop\n      jump\t// out\n        /* \"#utility.yul\":4167:4294   */\n    tag_145:\n        /* \"#utility.yul\":4252:4287   */\n      tag_147\n        /* \"#utility.yul\":4281:4286   */\n      dup2\n        /* \"#utility.yul\":4252:4287   */\n      tag_148\n      jump\t// in\n    tag_147:\n        /* \"#utility.yul\":4247:4250   */\n      dup3\n        /* \"#utility.yul\":4240:4288   */\n      mstore\n        /* \"#utility.yul\":4167:4294   */\n      pop\n      pop\n      jump\t// out\n        /* \"#utility.yul\":4300:4412   */\n    tag_149:\n        /* \"#utility.yul\":4383:4405   */\n      tag_151\n        /* \"#utility.yul\":4399:4404   */\n      dup2\n        /* \"#utility.yul\":4383:4405   */\n      tag_152\n      jump\t// in\n    tag_151:\n        /* \"#utility.yul\":4378:4381   */\n      dup3\n        /* \"#utility.yul\":4371:4406   */\n      mstore\n        /* \"#utility.yul\":4300:4412   */\n      pop\n      pop\n      jump\t// out\n        /* \"#utility.yul\":4418:4628   */\n    tag_21:\n        /* \"#utility.yul\":4505:4509   */\n      0x00\n        /* \"#utility.yul\":4543:4545   */\n      0x20\n        /* \"#utility.yul\":4532:4541   */\n      dup3\n        /* \"#utility.yul\":4528:4546   */\n      add\n        /* \"#utility.yul\":4520:4546   */\n      swap1\n      pop\n        /* \"#utility.yul\":4556:4621   */\n      tag_154\n        /* \"#utility.yul\":4618:4619   */\n      0x00\n        /* \"#utility.yul\":4607:4616   */\n      dup4\n        /* \"#utility.yul\":4603:4620   */\n      add\n        /* \"#utility.yul\":4594:4600   */\n      dup5\n        /* \"#utility.yul\":4556:4621   */\n      tag_119\n      jump\t// in\n    tag_154:\n        /* \"#utility.yul\":4418:4628   */\n      swap3\n      swap2\n      pop\n      pop\n      jump\t// out\n        /* \"#utility.yul\":4634:5053   */\n    tag_45:\n        /* \"#utility.yul\":4800:4804   */\n      0x00\n        /* \"#utility.yul\":4838:4840   */\n      0x20\n        /* \"#utility.yul\":4827:4836   */\n      dup3\n        /* \"#utility.yul\":4823:4841   */\n      add\n        /* \"#utility.yul\":4815:4841   */\n      swap1\n      pop\n        /* \"#utility.yul\":4887:4896   */\n      dup2\n        /* \"#utility.yul\":4881:4885   */\n      dup2\n        /* \"#utility.yul\":4877:4897   */\n      sub\n        /* \"#utility.yul\":4873:4874   */\n      0x00\n        /* \"#utility.yul\":4862:4871   */\n      dup4\n        /* \"#utility.yul\":4858:4875   */\n      add\n        /* \"#utility.yul\":4851:4898   */\n      mstore\n        /* \"#utility.yul\":4915:5046   */\n      tag_156\n        /* \"#utility.yul\":5041:5045   */\n      dup2\n        /* \"#utility.yul\":4915:5046   */\n      tag_130\n      jump\t// in\n    tag_156:\n        /* \"#utility.yul\":4907:5046   */\n      swap1\n      pop\n        /* \"#utility.yul\":4634:5053   */\n      swap2\n      swap1\n      pop\n      jump\t// out\n        /* \"#utility.yul\":5059:5478   */\n    tag_63:\n        /* \"#utility.yul\":5225:5229   */\n      0x00\n        /* \"#utility.yul\":5263:5265   */\n      0x20\n        /* \"#utility.yul\":5252:5261   */\n      dup3\n        /* \"#utility.yul\":5248:5266   */\n      add\n        /* \"#utility.yul\":5240:5266   */\n      swap1\n      pop\n        /* \"#utility.yul\":5312:5321   */\n      dup2\n        /* \"#utility.yul\":5306:5310   */\n      dup2\n        /* \"#utility.yul\":5302:5322   */\n      sub\n        /* \"#utility.yul\":5298:5299   */\n      0x00\n        /* \"#utility.yul\":5287:5296   */\n      dup4\n        /* \"#utility.yul\":5283:5300   */\n      add\n        /* \"#utility.yul\":5276:5323   */\n      mstore\n        /* \"#utility.yul\":5340:5471   */\n      tag_158\n        /* \"#utility.yul\":5466:5470   */\n      dup2\n        /* \"#utility.yul\":5340:5471   */\n      tag_135\n      jump\t// in\n    tag_158:\n        /* \"#utility.yul\":5332:5471   */\n      swap1\n      pop\n        /* \"#utility.yul\":5059:5478   */\n      swap2\n      swap1\n      pop\n      jump\t// out\n        /* \"#utility.yul\":5484:5903   */\n    tag_60:\n        /* \"#utility.yul\":5650:5654   */\n      0x00\n        /* \"#utility.yul\":5688:5690   */\n      0x20\n        /* \"#utility.yul\":5677:5686   */\n      dup3\n        /* \"#utility.yul\":5673:5691   */\n      add\n        /* \"#utility.yul\":5665:5691   */\n      swap1\n      pop\n        /* \"#utility.yul\":5737:5746   */\n      dup2\n        /* \"#utility.yul\":5731:5735   */\n      dup2\n        /* \"#utility.yul\":5727:5747   */\n      sub\n        /* \"#utility.yul\":5723:5724   */\n      0x00\n        /* \"#utility.yul\":5712:5721   */\n      dup4\n        /* \"#utility.yul\":5708:5725   */\n      add\n        /* \"#utility.yul\":5701:5748   */\n      mstore\n        /* \"#utility.yul\":5765:5896   */\n      tag_160\n        /* \"#utility.yul\":5891:5895   */\n      dup2\n        /* \"#utility.yul\":5765:5896   */\n      tag_140\n      jump\t// in\n    tag_160:\n        /* \"#utility.yul\":5757:5896   */\n      swap1\n      pop\n        /* \"#utility.yul\":5484:5903   */\n      swap2\n      swap1\n      pop\n      jump\t// out\n        /* \"#utility.yul\":5909:6127   */\n    tag_49:\n        /* \"#utility.yul\":6000:6004   */\n      0x00\n        /* \"#utility.yul\":6038:6040   */\n      0x20\n        /* \"#utility.yul\":6027:6036   */\n      dup3\n        /* \"#utility.yul\":6023:6041   */\n      add\n        /* \"#utility.yul\":6015:6041   */\n      swap1\n      pop\n        /* \"#utility.yul\":6051:6120   */\n      tag_162\n        /* \"#utility.yul\":6117:6118   */\n      0x00\n        /* \"#utility.yul\":6106:6115   */\n      dup4\n        /* \"#utility.yul\":6102:6119   */\n      add\n        /* \"#utility.yul\":6093:6099   */\n      dup5\n        /* \"#utility.yul\":6051:6120   */\n      tag_145\n      jump\t// in\n    tag_162:\n        /* \"#utility.yul\":5909:6127   */\n      swap3\n      swap2\n      pop\n      pop\n      jump\t// out\n        /* \"#utility.yul\":6133:6347   */\n    tag_15:\n        /* \"#utility.yul\":6222:6226   */\n      0x00\n        /* \"#utility.yul\":6260:6262   */\n      0x20\n        /* \"#utility.yul\":6249:6258   */\n      dup3\n        /* \"#utility.yul\":6245:6263   */\n      add\n        /* \"#utility.yul\":6237:6263   */\n      swap1\n      pop\n        /* \"#utility.yul\":6273:6340   */\n      tag_164\n        /* \"#utility.yul\":6337:6338   */\n      0x00\n        /* \"#utility.yul\":6326:6335   */\n      dup4\n        /* \"#utility.yul\":6322:6339   */\n      add\n        /* \"#utility.yul\":6313:6319   */\n      dup5\n        /* \"#utility.yul\":6273:6340   */\n      tag_149\n      jump\t// in\n    tag_164:\n        /* \"#utility.yul\":6133:6347   */\n      swap3\n      swap2\n      pop\n      pop\n      jump\t// out\n        /* \"#utility.yul\":6353:6890   */\n    tag_73:\n        /* \"#utility.yul\":6524:6528   */\n      0x00\n        /* \"#utility.yul\":6562:6564   */\n      0x60\n        /* \"#utility.yul\":6551:6560   */\n      dup3\n        /* \"#utility.yul\":6547:6565   */\n      add\n        /* \"#utility.yul\":6539:6565   */\n      swap1\n      pop\n        /* \"#utility.yul\":6575:6642   */\n      tag_166\n        /* \"#utility.yul\":6639:6640   */\n      0x00\n        /* \"#utility.yul\":6628:6637   */\n      dup4\n        /* \"#utility.yul\":6624:6641   */\n      add\n        /* \"#utility.yul\":6615:6621   */\n      dup8\n        /* \"#utility.yul\":6575:6642   */\n      tag_149\n      jump\t// in\n    tag_166:\n        /* \"#utility.yul\":6652:6720   */\n      tag_167\n        /* \"#utility.yul\":6716:6718   */\n      0x20\n        /* \"#utility.yul\":6705:6714   */\n      dup4\n        /* \"#utility.yul\":6701:6719   */\n      add\n        /* \"#utility.yul\":6692:6698   */\n      dup7\n        /* \"#utility.yul\":6652:6720   */\n      tag_149\n      jump\t// in\n    tag_167:\n        /* \"#utility.yul\":6767:6776   */\n      dup2\n        /* \"#utility.yul\":6761:6765   */\n      dup2\n        /* \"#utility.yul\":6757:6777   */\n      sub\n        /* \"#utility.yul\":6752:6754   */\n      0x40\n        /* \"#utility.yul\":6741:6750   */\n      dup4\n        /* \"#utility.yul\":6737:6755   */\n      add\n        /* \"#utility.yul\":6730:6778   */\n      mstore\n        /* \"#utility.yul\":6795:6883   */\n      tag_168\n        /* \"#utility.yul\":6878:6882   */\n      dup2\n        /* \"#utility.yul\":6869:6875   */\n      dup5\n        /* \"#utility.yul\":6861:6867   */\n      dup7\n        /* \"#utility.yul\":6795:6883   */\n      tag_123\n      jump\t// in\n    tag_168:\n        /* \"#utility.yul\":6787:6883   */\n      swap1\n      pop\n        /* \"#utility.yul\":6353:6890   */\n      swap6\n      swap5\n      pop\n      pop\n      pop\n      pop\n      pop\n      jump\t// out\n        /* \"#utility.yul\":6896:7621   */\n    tag_71:\n        /* \"#utility.yul\":6974:6978   */\n      0x00\n        /* \"#utility.yul\":6980:6986   */\n      dup1\n        /* \"#utility.yul\":7036:7047   */\n      dup4\n        /* \"#utility.yul\":7023:7048   */\n      calldataload\n        /* \"#utility.yul\":7136:7137   */\n      0x01\n        /* \"#utility.yul\":7130:7134   */\n      0x20\n        /* \"#utility.yul\":7126:7138   */\n      sub\n        /* \"#utility.yul\":7115:7123   */\n      dup5\n        /* \"#utility.yul\":7099:7113   */\n      calldatasize\n        /* \"#utility.yul\":7095:7124   */\n      sub\n        /* \"#utility.yul\":7091:7139   */\n      sub\n        /* \"#utility.yul\":7071:7089   */\n      dup2\n        /* \"#utility.yul\":7067:7140   */\n      slt\n        /* \"#utility.yul\":7057:7225   */\n      tag_170\n      jumpi\n        /* \"#utility.yul\":7144:7223   */\n      tag_171\n      tag_172\n      jump\t// in\n    tag_171:\n        /* \"#utility.yul\":7057:7225   */\n    tag_170:\n        /* \"#utility.yul\":7256:7274   */\n      dup1\n        /* \"#utility.yul\":7246:7254   */\n      dup5\n        /* \"#utility.yul\":7242:7275   */\n      add\n        /* \"#utility.yul\":7234:7275   */\n      swap3\n      pop\n        /* \"#utility.yul\":7308:7312   */\n      dup3\n        /* \"#utility.yul\":7295:7313   */\n      calldataload\n        /* \"#utility.yul\":7285:7313   */\n      swap2\n      pop\n        /* \"#utility.yul\":7336:7354   */\n      0xffffffffffffffff\n        /* \"#utility.yul\":7328:7334   */\n      dup3\n        /* \"#utility.yul\":7325:7355   */\n      gt\n        /* \"#utility.yul\":7322:7439   */\n      iszero\n      tag_173\n      jumpi\n        /* \"#utility.yul\":7358:7437   */\n      tag_174\n      tag_175\n      jump\t// in\n    tag_174:\n        /* \"#utility.yul\":7322:7439   */\n    tag_173:\n        /* \"#utility.yul\":7466:7468   */\n      0x20\n        /* \"#utility.yul\":7460:7464   */\n      dup4\n        /* \"#utility.yul\":7456:7469   */\n      add\n        /* \"#utility.yul\":7448:7469   */\n      swap3\n      pop\n        /* \"#utility.yul\":7523:7527   */\n      0x01\n        /* \"#utility.yul\":7515:7521   */\n      dup3\n        /* \"#utility.yul\":7511:7528   */\n      mul\n        /* \"#utility.yul\":7495:7509   */\n      calldatasize\n        /* \"#utility.yul\":7491:7529   */\n      sub\n        /* \"#utility.yul\":7485:7489   */\n      dup4\n        /* \"#utility.yul\":7481:7530   */\n      sgt\n        /* \"#utility.yul\":7478:7614   */\n      iszero\n      tag_176\n      jumpi\n        /* \"#utility.yul\":7533:7612   */\n      tag_177\n      tag_178\n      jump\t// in\n    tag_177:\n        /* \"#utility.yul\":7478:7614   */\n    tag_176:\n        /* \"#utility.yul\":6987:7621   */\n      pop\n        /* \"#utility.yul\":6896:7621   */\n      swap3\n      pop\n      swap3\n      swap1\n      pop\n      jump\t// out\n        /* \"#utility.yul\":7627:7756   */\n    tag_80:\n        /* \"#utility.yul\":7661:7667   */\n      0x00\n        /* \"#utility.yul\":7688:7708   */\n      tag_180\n      tag_181\n      jump\t// in\n    tag_180:\n        /* \"#utility.yul\":7678:7708   */\n      swap1\n      pop\n        /* \"#utility.yul\":7717:7750   */\n      tag_182\n        /* \"#utility.yul\":7745:7749   */\n      dup3\n        /* \"#utility.yul\":7737:7743   */\n      dup3\n        /* \"#utility.yul\":7717:7750   */\n      tag_183\n      jump\t// in\n    tag_182:\n        /* \"#utility.yul\":7627:7756   */\n      swap2\n      swap1\n      pop\n      jump\t// out\n        /* \"#utility.yul\":7762:7837   */\n    tag_181:\n        /* \"#utility.yul\":7795:7801   */\n      0x00\n        /* \"#utility.yul\":7828:7830   */\n      0x40\n        /* \"#utility.yul\":7822:7831   */\n      mload\n        /* \"#utility.yul\":7812:7831   */\n      swap1\n      pop\n        /* \"#utility.yul\":7762:7837   */\n      swap1\n      jump\t// out\n        /* \"#utility.yul\":7843:8151   */\n    tag_79:\n        /* \"#utility.yul\":7905:7909   */\n      0x00\n        /* \"#utility.yul\":7995:8013   */\n      0xffffffffffffffff\n        /* \"#utility.yul\":7987:7993   */\n      dup3\n        /* \"#utility.yul\":7984:8014   */\n      gt\n        /* \"#utility.yul\":7981:8037   */\n      iszero\n      tag_186\n      jumpi\n        /* \"#utility.yul\":8017:8035   */\n      tag_187\n      tag_188\n      jump\t// in\n    tag_187:\n        /* \"#utility.yul\":7981:8037   */\n    tag_186:\n        /* \"#utility.yul\":8055:8084   */\n      tag_189\n        /* \"#utility.yul\":8077:8083   */\n      dup3\n        /* \"#utility.yul\":8055:8084   */\n      tag_129\n      jump\t// in\n    tag_189:\n        /* \"#utility.yul\":8047:8084   */\n      swap1\n      pop\n        /* \"#utility.yul\":8139:8143   */\n      0x20\n        /* \"#utility.yul\":8133:8137   */\n      dup2\n        /* \"#utility.yul\":8129:8144   */\n      add\n        /* \"#utility.yul\":8121:8144   */\n      swap1\n      pop\n        /* \"#utility.yul\":7843:8151   */\n      swap2\n      swap1\n      pop\n      jump\t// out\n        /* \"#utility.yul\":8157:8326   */\n    tag_126:\n        /* \"#utility.yul\":8241:8252   */\n      0x00\n        /* \"#utility.yul\":8275:8281   */\n      dup3\n        /* \"#utility.yul\":8270:8273   */\n      dup3\n        /* \"#utility.yul\":8263:8282   */\n      mstore\n        /* \"#utility.yul\":8315:8319   */\n      0x20\n        /* \"#utility.yul\":8310:8313   */\n      dup3\n        /* \"#utility.yul\":8306:8320   */\n      add\n        /* \"#utility.yul\":8291:8320   */\n      swap1\n      pop\n        /* \"#utility.yul\":8157:8326   */\n      swap3\n      swap2\n      pop\n      pop\n      jump\t// out\n        /* \"#utility.yul\":8332:8569   */\n    tag_68:\n        /* \"#utility.yul\":8370:8373   */\n      0x00\n        /* \"#utility.yul\":8389:8407   */\n      tag_192\n        /* \"#utility.yul\":8405:8406   */\n      dup3\n        /* \"#utility.yul\":8389:8407   */\n      tag_152\n      jump\t// in\n    tag_192:\n        /* \"#utility.yul\":8384:8407   */\n      swap2\n      pop\n        /* \"#utility.yul\":8421:8439   */\n      tag_193\n        /* \"#utility.yul\":8437:8438   */\n      dup4\n        /* \"#utility.yul\":8421:8439   */\n      tag_152\n      jump\t// in\n    tag_193:\n        /* \"#utility.yul\":8416:8439   */\n      swap3\n      pop\n        /* \"#utility.yul\":8511:8512   */\n      dup3\n        /* \"#utility.yul\":8505:8509   */\n      0xff\n        /* \"#utility.yul\":8501:8513   */\n      sub\n        /* \"#utility.yul\":8498:8499   */\n      dup3\n        /* \"#utility.yul\":8495:8514   */\n      gt\n        /* \"#utility.yul\":8492:8537   */\n      iszero\n      tag_194\n      jumpi\n        /* \"#utility.yul\":8517:8535   */\n      tag_195\n      tag_196\n      jump\t// in\n    tag_195:\n        /* \"#utility.yul\":8492:8537   */\n    tag_194:\n        /* \"#utility.yul\":8561:8562   */\n      dup3\n        /* \"#utility.yul\":8558:8559   */\n      dup3\n        /* \"#utility.yul\":8554:8563   */\n      add\n        /* \"#utility.yul\":8547:8563   */\n      swap1\n      pop\n        /* \"#utility.yul\":8332:8569   */\n      swap3\n      swap2\n      pop\n      pop\n      jump\t// out\n        /* \"#utility.yul\":8575:8665   */\n    tag_122:\n        /* \"#utility.yul\":8609:8616   */\n      0x00\n        /* \"#utility.yul\":8652:8657   */\n      dup2\n        /* \"#utility.yul\":8645:8658   */\n      iszero\n        /* \"#utility.yul\":8638:8659   */\n      iszero\n        /* \"#utility.yul\":8627:8659   */\n      swap1\n      pop\n        /* \"#utility.yul\":8575:8665   */\n      swap2\n      swap1\n      pop\n      jump\t// out\n        /* \"#utility.yul\":8671:8757   */\n    tag_152:\n        /* \"#utility.yul\":8706:8713   */\n      0x00\n        /* \"#utility.yul\":8746:8750   */\n      0xff\n        /* \"#utility.yul\":8739:8744   */\n      dup3\n        /* \"#utility.yul\":8735:8751   */\n      and\n        /* \"#utility.yul\":8724:8751   */\n      swap1\n      pop\n        /* \"#utility.yul\":8671:8757   */\n      swap2\n      swap1\n      pop\n      jump\t// out\n        /* \"#utility.yul\":8763:8872   */\n    tag_148:\n        /* \"#utility.yul\":8811:8820   */\n      0x00\n        /* \"#utility.yul\":8844:8866   */\n      tag_200\n        /* \"#utility.yul\":8860:8865   */\n      dup3\n        /* \"#utility.yul\":8844:8866   */\n      tag_152\n      jump\t// in\n    tag_200:\n        /* \"#utility.yul\":8831:8866   */\n      swap1\n      pop\n        /* \"#utility.yul\":8763:8872   */\n      swap2\n      swap1\n      pop\n      jump\t// out\n        /* \"#utility.yul\":8878:9032   */\n    tag_85:\n        /* \"#utility.yul\":8962:8968   */\n      dup3\n        /* \"#utility.yul\":8957:8960   */\n      dup2\n        /* \"#utility.yul\":8952:8955   */\n      dup4\n        /* \"#utility.yul\":8939:8969   */\n      calldatacopy\n        /* \"#utility.yul\":9024:9025   */\n      0x00\n        /* \"#utility.yul\":9015:9021   */\n      dup4\n        /* \"#utility.yul\":9010:9013   */\n      dup4\n        /* \"#utility.yul\":9006:9022   */\n      add\n        /* \"#utility.yul\":8999:9026   */\n      mstore\n        /* \"#utility.yul\":8878:9032   */\n      pop\n      pop\n      pop\n      jump\t// out\n        /* \"#utility.yul\":9038:9319   */\n    tag_183:\n        /* \"#utility.yul\":9121:9148   */\n      tag_203\n        /* \"#utility.yul\":9143:9147   */\n      dup3\n        /* \"#utility.yul\":9121:9148   */\n      tag_129\n      jump\t// in\n    tag_203:\n        /* \"#utility.yul\":9113:9119   */\n      dup2\n        /* \"#utility.yul\":9109:9149   */\n      add\n        /* \"#utility.yul\":9251:9257   */\n      dup2\n        /* \"#utility.yul\":9239:9249   */\n      dup2\n        /* \"#utility.yul\":9236:9258   */\n      lt\n        /* \"#utility.yul\":9215:9233   */\n      0xffffffffffffffff\n        /* \"#utility.yul\":9203:9213   */\n      dup3\n        /* \"#utility.yul\":9200:9234   */\n      gt\n        /* \"#utility.yul\":9197:9259   */\n      or\n        /* \"#utility.yul\":9194:9282   */\n      iszero\n      tag_204\n      jumpi\n        /* \"#utility.yul\":9262:9280   */\n      tag_205\n      tag_188\n      jump\t// in\n    tag_205:\n        /* \"#utility.yul\":9194:9282   */\n    tag_204:\n        /* \"#utility.yul\":9302:9312   */\n      dup1\n        /* \"#utility.yul\":9298:9300   */\n      0x40\n        /* \"#utility.yul\":9291:9313   */\n      mstore\n        /* \"#utility.yul\":9081:9319   */\n      pop\n        /* \"#utility.yul\":9038:9319   */\n      pop\n      pop\n      jump\t// out\n        /* \"#utility.yul\":9325:9505   */\n    tag_196:\n        /* \"#utility.yul\":9373:9450   */\n      0x4e487b7100000000000000000000000000000000000000000000000000000000\n        /* \"#utility.yul\":9370:9371   */\n      0x00\n        /* \"#utility.yul\":9363:9451   */\n      mstore\n        /* \"#utility.yul\":9470:9474   */\n      0x11\n        /* \"#utility.yul\":9467:9468   */\n      0x04\n        /* \"#utility.yul\":9460:9475   */\n      mstore\n        /* \"#utility.yul\":9494:9498   */\n      0x24\n        /* \"#utility.yul\":9491:9492   */\n      0x00\n        /* \"#utility.yul\":9484:9499   */\n      revert\n        /* \"#utility.yul\":9511:9691   */\n    tag_188:\n        /* \"#utility.yul\":9559:9636   */\n      0x4e487b7100000000000000000000000000000000000000000000000000000000\n        /* \"#utility.yul\":9556:9557   */\n      0x00\n        /* \"#utility.yul\":9549:9637   */\n      mstore\n        /* \"#utility.yul\":9656:9660   */\n      0x41\n        /* \"#utility.yul\":9653:9654   */\n      0x04\n        /* \"#utility.yul\":9646:9661   */\n      mstore\n        /* \"#utility.yul\":9680:9684   */\n      0x24\n        /* \"#utility.yul\":9677:9678   */\n      0x00\n        /* \"#utility.yul\":9670:9685   */\n      revert\n        /* \"#utility.yul\":9697:9814   */\n    tag_90:\n        /* \"#utility.yul\":9806:9807   */\n      0x00\n        /* \"#utility.yul\":9803:9804   */\n      dup1\n        /* \"#utility.yul\":9796:9808   */\n      revert\n        /* \"#utility.yul\":9820:9937   */\n    tag_175:\n        /* \"#utility.yul\":9929:9930   */\n      0x00\n        /* \"#utility.yul\":9926:9927   */\n      dup1\n        /* \"#utility.yul\":9919:9931   */\n      revert\n        /* \"#utility.yul\":9943:10060   */\n    tag_96:\n        /* \"#utility.yul\":10052:10053   */\n      0x00\n        /* \"#utility.yul\":10049:10050   */\n      dup1\n        /* \"#utility.yul\":10042:10054   */\n      revert\n        /* \"#utility.yul\":10066:10183   */\n    tag_172:\n        /* \"#utility.yul\":10175:10176   */\n      0x00\n        /* \"#utility.yul\":10172:10173   */\n      dup1\n        /* \"#utility.yul\":10165:10177   */\n      revert\n        /* \"#utility.yul\":10189:10306   */\n    tag_178:\n        /* \"#utility.yul\":10298:10299   */\n      0x00\n        /* \"#utility.yul\":10295:10296   */\n      dup1\n        /* \"#utility.yul\":10288:10300   */\n      revert\n        /* \"#utility.yul\":10312:10429   */\n    tag_83:\n        /* \"#utility.yul\":10421:10422   */\n      0x00\n        /* \"#utility.yul\":10418:10419   */\n      dup1\n        /* \"#utility.yul\":10411:10423   */\n      revert\n        /* \"#utility.yul\":10435:10552   */\n    tag_107:\n        /* \"#utility.yul\":10544:10545   */\n      0x00\n        /* \"#utility.yul\":10541:10542   */\n      dup1\n        /* \"#utility.yul\":10534:10546   */\n      revert\n        /* \"#utility.yul\":10558:10675   */\n    tag_104:\n        /* \"#utility.yul\":10667:10668   */\n      0x00\n        /* \"#utility.yul\":10664:10665   */\n      dup1\n        /* \"#utility.yul\":10657:10669   */\n      revert\n        /* \"#utility.yul\":10681:10783   */\n    tag_129:\n        /* \"#utility.yul\":10722:10728   */\n      0x00\n        /* \"#utility.yul\":10773:10775   */\n      0x1f\n        /* \"#utility.yul\":10769:10776   */\n      not\n        /* \"#utility.yul\":10764:10766   */\n      0x1f\n        /* \"#utility.yul\":10757:10762   */\n      dup4\n        /* \"#utility.yul\":10753:10767   */\n      add\n        /* \"#utility.yul\":10749:10777   */\n      and\n        /* \"#utility.yul\":10739:10777   */\n      swap1\n      pop\n        /* \"#utility.yul\":10681:10783   */\n      swap2\n      swap1\n      pop\n      jump\t// out\n        /* \"#utility.yul\":10789:10969   */\n    tag_134:\n        /* \"#utility.yul\":10929:10961   */\n      0x54686520656c656374696f6e2068617320656e64656420616c72656164790000\n        /* \"#utility.yul\":10925:10926   */\n      0x00\n        /* \"#utility.yul\":10917:10923   */\n      dup3\n        /* \"#utility.yul\":10913:10927   */\n      add\n        /* \"#utility.yul\":10906:10962   */\n      mstore\n        /* \"#utility.yul\":10789:10969   */\n      pop\n      jump\t// out\n        /* \"#utility.yul\":10975:11146   */\n    tag_139:\n        /* \"#utility.yul\":11115:11138   */\n      0x54686572652063616e6e6f742062652061207469650000000000000000000000\n        /* \"#utility.yul\":11111:11112   */\n      0x00\n        /* \"#utility.yul\":11103:11109   */\n      dup3\n        /* \"#utility.yul\":11099:11113   */\n      add\n        /* \"#utility.yul\":11092:11139   */\n      mstore\n        /* \"#utility.yul\":10975:11146   */\n      pop\n      jump\t// out\n        /* \"#utility.yul\":11152:11334   */\n    tag_144:\n        /* \"#utility.yul\":11292:11326   */\n      0x537461746573206d7573742068617665206174206c6561737420312073656174\n        /* \"#utility.yul\":11288:11289   */\n      0x00\n        /* \"#utility.yul\":11280:11286   */\n      dup3\n        /* \"#utility.yul\":11276:11290   */\n      add\n        /* \"#utility.yul\":11269:11327   */\n      mstore\n        /* \"#utility.yul\":11152:11334   */\n      pop\n      jump\t// out\n        /* \"#utility.yul\":11340:11458   */\n    tag_100:\n        /* \"#utility.yul\":11411:11433   */\n      tag_221\n        /* \"#utility.yul\":11427:11432   */\n      dup2\n        /* \"#utility.yul\":11411:11433   */\n      tag_152\n      jump\t// in\n    tag_221:\n        /* \"#utility.yul\":11404:11409   */\n      dup2\n        /* \"#utility.yul\":11401:11434   */\n      eq\n        /* \"#utility.yul\":11391:11452   */\n      tag_222\n      jumpi\n        /* \"#utility.yul\":11448:11449   */\n      0x00\n        /* \"#utility.yul\":11445:11446   */\n      dup1\n        /* \"#utility.yul\":11438:11450   */\n      revert\n        /* \"#utility.yul\":11391:11452   */\n    tag_222:\n        /* \"#utility.yul\":11340:11458   */\n      pop\n      jump\t// out\n\n    auxdata: 0xa26469706673582212209a836124564f639196839f430378632b9df65d0e72d60a859dde745c2eccbfcd64736f6c63430008070033\n}\n",
				"bytecode": {
					"linkReferences": {},
					"object": "608060405234801561001057600080fd5b50610b2b806100206000396000f3fe608060405234801561001057600080fd5b50600436106100885760003560e01c8063713d87c51161005b578063713d87c514610103578063ac4bd53a14610133578063c94ca9e314610151578063e494a8831461016f57610088565b80632d78d8e51461008d57806337ad98ec146100ab57806359f78468146100db57806369b36bd4146100e5575b600080fd5b61009561018b565b6040516100a29190610805565b60405180910390f35b6100c560048036038101906100c091906105ed565b610190565b6040516100d2919061076f565b60405180910390f35b6100e36101c6565b005b6100ed61026e565b6040516100fa9190610805565b60405180910390f35b61011d6004803603810190610118919061067f565b610273565b60405161012a9190610805565b60405180910390f35b61013b610293565b6040516101489190610805565b60405180910390f35b610159610367565b604051610166919061076f565b60405180910390f35b61018960048036038101906101849190610636565b610378565b005b600281565b6002818051602081018201805184825260208301602085012081835280955050505050506000915054906101000a900460ff1681565b60008054906101000a900460ff1615610214576040517f08c379a000000000000000000000000000000000000000000000000000000000815260040161020b9061078a565b60405180910390fd5b60016000806101000a81548160ff0219169083151502179055507faacb23683ec1a0e9b52f9a6264edf58ad322ac62079d65ea7363a2d400f439f4610257610293565b60405161026491906107ea565b60405180910390a1565b600181565b60016020528060005260406000206000915054906101000a900460ff1681565b600060016000600260ff1660ff16815260200190815260200160002060009054906101000a900460ff1660ff1660016000600160ff1660ff16815260200190815260200160002060009054906101000a900460ff1660ff1611156102fa5760019050610364565b60016000600160ff1660ff16815260200190815260200160002060009054906101000a900460ff1660ff1660016000600260ff1660ff16815260200190815260200160002060009054906101000a900460ff1660ff16111561035f5760029050610364565b600090505b90565b60008054906101000a900460ff1681565b60008054906101000a900460ff16156103c6576040517f08c379a00000000000000000000000000000000000000000000000000000000081526004016103bd9061078a565b60405180910390fd5b60008160600160208101906103db919061067f565b60ff161161041e576040517f08c379a0000000000000000000000000000000000000000000000000000000008152600401610415906107ca565b60405180910390fd5b806040013581602001351415610469576040517f08c379a0000000000000000000000000000000000000000000000000000000008152600401610460906107aa565b60405180910390fd5b60008160400135826020013511156104845760019050610489565b600290505b81606001602081019061049c919061067f565b600160008360ff1660ff16815260200190815260200160002060008282829054906101000a900460ff166104d0919061092a565b92506101000a81548160ff021916908360ff1602179055507fa2e71fe38f1afa3762cf9d2ea7bb6a4d272a90fd6f9392f3acedd3b542046b468183606001602081019061051d919061067f565b84806000019061052d9190610860565b60405161053d9493929190610820565b60405180910390a15050565b600061055c610557846108e8565b6108c3565b90508281526020810184848401111561057857610577610a43565b5b61058384828561098c565b509392505050565b600082601f8301126105a05761059f610a2a565b5b81356105b0848260208601610549565b91505092915050565b6000608082840312156105cf576105ce610a34565b5b81905092915050565b6000813590506105e781610ade565b92915050565b60006020828403121561060357610602610a4d565b5b600082013567ffffffffffffffff81111561062157610620610a48565b5b61062d8482850161058b565b91505092915050565b60006020828403121561064c5761064b610a4d565b5b600082013567ffffffffffffffff81111561066a57610669610a48565b5b610676848285016105b9565b91505092915050565b60006020828403121561069557610694610a4d565b5b60006106a3848285016105d8565b91505092915050565b6106b581610961565b82525050565b60006106c78385610919565b93506106d483858461098c565b6106dd83610a52565b840190509392505050565b60006106f5601e83610919565b915061070082610a63565b602082019050919050565b6000610718601583610919565b915061072382610a8c565b602082019050919050565b600061073b602083610919565b915061074682610ab5565b602082019050919050565b61075a8161097a565b82525050565b6107698161096d565b82525050565b600060208201905061078460008301846106ac565b92915050565b600060208201905081810360008301526107a3816106e8565b9050919050565b600060208201905081810360008301526107c38161070b565b9050919050565b600060208201905081810360008301526107e38161072e565b9050919050565b60006020820190506107ff6000830184610751565b92915050565b600060208201905061081a6000830184610760565b92915050565b60006060820190506108356000830187610760565b6108426020830186610760565b81810360408301526108558184866106bb565b905095945050505050565b6000808335600160200384360303811261087d5761087c610a39565b5b80840192508235915067ffffffffffffffff82111561089f5761089e610a2f565b5b6020830192506001820236038313156108bb576108ba610a3e565b5b509250929050565b60006108cd6108de565b90506108d9828261099b565b919050565b6000604051905090565b600067ffffffffffffffff821115610903576109026109fb565b5b61090c82610a52565b9050602081019050919050565b600082825260208201905092915050565b60006109358261096d565b91506109408361096d565b92508260ff03821115610956576109556109cc565b5b828201905092915050565b60008115159050919050565b600060ff82169050919050565b60006109858261096d565b9050919050565b82818337600083830152505050565b6109a482610a52565b810181811067ffffffffffffffff821117156109c3576109c26109fb565b5b80604052505050565b7f4e487b7100000000000000000000000000000000000000000000000000000000600052601160045260246000fd5b7f4e487b7100000000000000000000000000000000000000000000000000000000600052604160045260246000fd5b600080fd5b600080fd5b600080fd5b600080fd5b600080fd5b600080fd5b600080fd5b600080fd5b6000601f19601f8301169050919050565b7f54686520656c656374696f6e2068617320656e64656420616c72656164790000600082015250565b7f54686572652063616e6e6f742062652061207469650000000000000000000000600082015250565b7f537461746573206d7573742068617665206174206c6561737420312073656174600082015250565b610ae78161096d565b8114610af257600080fd5b5056fea26469706673582212209a836124564f639196839f430378632b9df65d0e72d60a859dde745c2eccbfcd64736f6c63430008070033",
					"opcodes": "PUSH1 0x80 PUSH1 0x40 MSTORE CALLVALUE DUP1 ISZERO PUSH2 0x10 JUMPI PUSH1 0x0 DUP1 REVERT JUMPDEST POP PUSH2 0xB2B DUP1 PUSH2 0x20 PUSH1 0x0 CODECOPY PUSH1 0x0 RETURN INVALID PUSH1 0x80 PUSH1 0x40 MSTORE CALLVALUE DUP1 ISZERO PUSH2 0x10 JUMPI PUSH1 0x0 DUP1 REVERT JUMPDEST POP PUSH1 0x4 CALLDATASIZE LT PUSH2 0x88 JUMPI PUSH1 0x0 CALLDATALOAD PUSH1 0xE0 SHR DUP1 PUSH4 0x713D87C5 GT PUSH2 0x5B JUMPI DUP1 PUSH4 0x713D87C5 EQ PUSH2 0x103 JUMPI DUP1 PUSH4 0xAC4BD53A EQ PUSH2 0x133 JUMPI DUP1 PUSH4 0xC94CA9E3 EQ PUSH2 0x151 JUMPI DUP1 PUSH4 0xE494A883 EQ PUSH2 0x16F JUMPI PUSH2 0x88 JUMP JUMPDEST DUP1 PUSH4 0x2D78D8E5 EQ PUSH2 0x8D JUMPI DUP1 PUSH4 0x37AD98EC EQ PUSH2 0xAB JUMPI DUP1 PUSH4 0x59F78468 EQ PUSH2 0xDB JUMPI DUP1 PUSH4 0x69B36BD4 EQ PUSH2 0xE5 JUMPI JUMPDEST PUSH1 0x0 DUP1 REVERT JUMPDEST PUSH2 0x95 PUSH2 0x18B JUMP JUMPDEST PUSH1 0x40 MLOAD PUSH2 0xA2 SWAP2 SWAP1 PUSH2 0x805 JUMP JUMPDEST PUSH1 0x40 MLOAD DUP1 SWAP2 SUB SWAP1 RETURN JUMPDEST PUSH2 0xC5 PUSH1 0x4 DUP1 CALLDATASIZE SUB DUP2 ADD SWAP1 PUSH2 0xC0 SWAP2 SWAP1 PUSH2 0x5ED JUMP JUMPDEST PUSH2 0x190 JUMP JUMPDEST PUSH1 0x40 MLOAD PUSH2 0xD2 SWAP2 SWAP1 PUSH2 0x76F JUMP JUMPDEST PUSH1 0x40 MLOAD DUP1 SWAP2 SUB SWAP1 RETURN JUMPDEST PUSH2 0xE3 PUSH2 0x1C6 JUMP JUMPDEST STOP JUMPDEST PUSH2 0xED PUSH2 0x26E JUMP JUMPDEST PUSH1 0x40 MLOAD PUSH2 0xFA SWAP2 SWAP1 PUSH2 0x805 JUMP JUMPDEST PUSH1 0x40 MLOAD DUP1 SWAP2 SUB SWAP1 RETURN JUMPDEST PUSH2 0x11D PUSH1 0x4 DUP1 CALLDATASIZE SUB DUP2 ADD SWAP1 PUSH2 0x118 SWAP2 SWAP1 PUSH2 0x67F JUMP JUMPDEST PUSH2 0x273 JUMP JUMPDEST PUSH1 0x40 MLOAD PUSH2 0x12A SWAP2 SWAP1 PUSH2 0x805 JUMP JUMPDEST PUSH1 0x40 MLOAD DUP1 SWAP2 SUB SWAP1 RETURN JUMPDEST PUSH2 0x13B PUSH2 0x293 JUMP JUMPDEST PUSH1 0x40 MLOAD PUSH2 0x148 SWAP2 SWAP1 PUSH2 0x805 JUMP JUMPDEST PUSH1 0x40 MLOAD DUP1 SWAP2 SUB SWAP1 RETURN JUMPDEST PUSH2 0x159 PUSH2 0x367 JUMP JUMPDEST PUSH1 0x40 MLOAD PUSH2 0x166 SWAP2 SWAP1 PUSH2 0x76F JUMP JUMPDEST PUSH1 0x40 MLOAD DUP1 SWAP2 SUB SWAP1 RETURN JUMPDEST PUSH2 0x189 PUSH1 0x4 DUP1 CALLDATASIZE SUB DUP2 ADD SWAP1 PUSH2 0x184 SWAP2 SWAP1 PUSH2 0x636 JUMP JUMPDEST PUSH2 0x378 JUMP JUMPDEST STOP JUMPDEST PUSH1 0x2 DUP2 JUMP JUMPDEST PUSH1 0x2 DUP2 DUP1 MLOAD PUSH1 0x20 DUP2 ADD DUP3 ADD DUP1 MLOAD DUP5 DUP3 MSTORE PUSH1 0x20 DUP4 ADD PUSH1 0x20 DUP6 ADD KECCAK256 DUP2 DUP4 MSTORE DUP1 SWAP6 POP POP POP POP POP POP PUSH1 0x0 SWAP2 POP SLOAD SWAP1 PUSH2 0x100 EXP SWAP1 DIV PUSH1 0xFF AND DUP2 JUMP JUMPDEST PUSH1 0x0 DUP1 SLOAD SWAP1 PUSH2 0x100 EXP SWAP1 DIV PUSH1 0xFF AND ISZERO PUSH2 0x214 JUMPI PUSH1 0x40 MLOAD PUSH32 0x8C379A000000000000000000000000000000000000000000000000000000000 DUP2 MSTORE PUSH1 0x4 ADD PUSH2 0x20B SWAP1 PUSH2 0x78A JUMP JUMPDEST PUSH1 0x40 MLOAD DUP1 SWAP2 SUB SWAP1 REVERT JUMPDEST PUSH1 0x1 PUSH1 0x0 DUP1 PUSH2 0x100 EXP DUP2 SLOAD DUP2 PUSH1 0xFF MUL NOT AND SWAP1 DUP4 ISZERO ISZERO MUL OR SWAP1 SSTORE POP PUSH32 0xAACB23683EC1A0E9B52F9A6264EDF58AD322AC62079D65EA7363A2D400F439F4 PUSH2 0x257 PUSH2 0x293 JUMP JUMPDEST PUSH1 0x40 MLOAD PUSH2 0x264 SWAP2 SWAP1 PUSH2 0x7EA JUMP JUMPDEST PUSH1 0x40 MLOAD DUP1 SWAP2 SUB SWAP1 LOG1 JUMP JUMPDEST PUSH1 0x1 DUP2 JUMP JUMPDEST PUSH1 0x1 PUSH1 0x20 MSTORE DUP1 PUSH1 0x0 MSTORE PUSH1 0x40 PUSH1 0x0 KECCAK256 PUSH1 0x0 SWAP2 POP SLOAD SWAP1 PUSH2 0x100 EXP SWAP1 DIV PUSH1 0xFF AND DUP2 JUMP JUMPDEST PUSH1 0x0 PUSH1 0x1 PUSH1 0x0 PUSH1 0x2 PUSH1 0xFF AND PUSH1 0xFF AND DUP2 MSTORE PUSH1 0x20 ADD SWAP1 DUP2 MSTORE PUSH1 0x20 ADD PUSH1 0x0 KECCAK256 PUSH1 0x0 SWAP1 SLOAD SWAP1 PUSH2 0x100 EXP SWAP1 DIV PUSH1 0xFF AND PUSH1 0xFF AND PUSH1 0x1 PUSH1 0x0 PUSH1 0x1 PUSH1 0xFF AND PUSH1 0xFF AND DUP2 MSTORE PUSH1 0x20 ADD SWAP1 DUP2 MSTORE PUSH1 0x20 ADD PUSH1 0x0 KECCAK256 PUSH1 0x0 SWAP1 SLOAD SWAP1 PUSH2 0x100 EXP SWAP1 DIV PUSH1 0xFF AND PUSH1 0xFF AND GT ISZERO PUSH2 0x2FA JUMPI PUSH1 0x1 SWAP1 POP PUSH2 0x364 JUMP JUMPDEST PUSH1 0x1 PUSH1 0x0 PUSH1 0x1 PUSH1 0xFF AND PUSH1 0xFF AND DUP2 MSTORE PUSH1 0x20 ADD SWAP1 DUP2 MSTORE PUSH1 0x20 ADD PUSH1 0x0 KECCAK256 PUSH1 0x0 SWAP1 SLOAD SWAP1 PUSH2 0x100 EXP SWAP1 DIV PUSH1 0xFF AND PUSH1 0xFF AND PUSH1 0x1 PUSH1 0x0 PUSH1 0x2 PUSH1 0xFF AND PUSH1 0xFF AND DUP2 MSTORE PUSH1 0x20 ADD SWAP1 DUP2 MSTORE PUSH1 0x20 ADD PUSH1 0x0 KECCAK256 PUSH1 0x0 SWAP1 SLOAD SWAP1 PUSH2 0x100 EXP SWAP1 DIV PUSH1 0xFF AND PUSH1 0xFF AND GT ISZERO PUSH2 0x35F JUMPI PUSH1 0x2 SWAP1 POP PUSH2 0x364 JUMP JUMPDEST PUSH1 0x0 SWAP1 POP JUMPDEST SWAP1 JUMP JUMPDEST PUSH1 0x0 DUP1 SLOAD SWAP1 PUSH2 0x100 EXP SWAP1 DIV PUSH1 0xFF AND DUP2 JUMP JUMPDEST PUSH1 0x0 DUP1 SLOAD SWAP1 PUSH2 0x100 EXP SWAP1 DIV PUSH1 0xFF AND ISZERO PUSH2 0x3C6 JUMPI PUSH1 0x40 MLOAD PUSH32 0x8C379A000000000000000000000000000000000000000000000000000000000 DUP2 MSTORE PUSH1 0x4 ADD PUSH2 0x3BD SWAP1 PUSH2 0x78A JUMP JUMPDEST PUSH1 0x40 MLOAD DUP1 SWAP2 SUB SWAP1 REVERT JUMPDEST PUSH1 0x0 DUP2 PUSH1 0x60 ADD PUSH1 0x20 DUP2 ADD SWAP1 PUSH2 0x3DB SWAP2 SWAP1 PUSH2 0x67F JUMP JUMPDEST PUSH1 0xFF AND GT PUSH2 0x41E JUMPI PUSH1 0x40 MLOAD PUSH32 0x8C379A000000000000000000000000000000000000000000000000000000000 DUP2 MSTORE PUSH1 0x4 ADD PUSH2 0x415 SWAP1 PUSH2 0x7CA JUMP JUMPDEST PUSH1 0x40 MLOAD DUP1 SWAP2 SUB SWAP1 REVERT JUMPDEST DUP1 PUSH1 0x40 ADD CALLDATALOAD DUP2 PUSH1 0x20 ADD CALLDATALOAD EQ ISZERO PUSH2 0x469 JUMPI PUSH1 0x40 MLOAD PUSH32 0x8C379A000000000000000000000000000000000000000000000000000000000 DUP2 MSTORE PUSH1 0x4 ADD PUSH2 0x460 SWAP1 PUSH2 0x7AA JUMP JUMPDEST PUSH1 0x40 MLOAD DUP1 SWAP2 SUB SWAP1 REVERT JUMPDEST PUSH1 0x0 DUP2 PUSH1 0x40 ADD CALLDATALOAD DUP3 PUSH1 0x20 ADD CALLDATALOAD GT ISZERO PUSH2 0x484 JUMPI PUSH1 0x1 SWAP1 POP PUSH2 0x489 JUMP JUMPDEST PUSH1 0x2 SWAP1 POP JUMPDEST DUP2 PUSH1 0x60 ADD PUSH1 0x20 DUP2 ADD SWAP1 PUSH2 0x49C SWAP2 SWAP1 PUSH2 0x67F JUMP JUMPDEST PUSH1 0x1 PUSH1 0x0 DUP4 PUSH1 0xFF AND PUSH1 0xFF AND DUP2 MSTORE PUSH1 0x20 ADD SWAP1 DUP2 MSTORE PUSH1 0x20 ADD PUSH1 0x0 KECCAK256 PUSH1 0x0 DUP3 DUP3 DUP3 SWAP1 SLOAD SWAP1 PUSH2 0x100 EXP SWAP1 DIV PUSH1 0xFF AND PUSH2 0x4D0 SWAP2 SWAP1 PUSH2 0x92A JUMP JUMPDEST SWAP3 POP PUSH2 0x100 EXP DUP2 SLOAD DUP2 PUSH1 0xFF MUL NOT AND SWAP1 DUP4 PUSH1 0xFF AND MUL OR SWAP1 SSTORE POP PUSH32 0xA2E71FE38F1AFA3762CF9D2EA7BB6A4D272A90FD6F9392F3ACEDD3B542046B46 DUP2 DUP4 PUSH1 0x60 ADD PUSH1 0x20 DUP2 ADD SWAP1 PUSH2 0x51D SWAP2 SWAP1 PUSH2 0x67F JUMP JUMPDEST DUP5 DUP1 PUSH1 0x0 ADD SWAP1 PUSH2 0x52D SWAP2 SWAP1 PUSH2 0x860 JUMP JUMPDEST PUSH1 0x40 MLOAD PUSH2 0x53D SWAP5 SWAP4 SWAP3 SWAP2 SWAP1 PUSH2 0x820 JUMP JUMPDEST PUSH1 0x40 MLOAD DUP1 SWAP2 SUB SWAP1 LOG1 POP POP JUMP JUMPDEST PUSH1 0x0 PUSH2 0x55C PUSH2 0x557 DUP5 PUSH2 0x8E8 JUMP JUMPDEST PUSH2 0x8C3 JUMP JUMPDEST SWAP1 POP DUP3 DUP2 MSTORE PUSH1 0x20 DUP2 ADD DUP5 DUP5 DUP5 ADD GT ISZERO PUSH2 0x578 JUMPI PUSH2 0x577 PUSH2 0xA43 JUMP JUMPDEST JUMPDEST PUSH2 0x583 DUP5 DUP3 DUP6 PUSH2 0x98C JUMP JUMPDEST POP SWAP4 SWAP3 POP POP POP JUMP JUMPDEST PUSH1 0x0 DUP3 PUSH1 0x1F DUP4 ADD SLT PUSH2 0x5A0 JUMPI PUSH2 0x59F PUSH2 0xA2A JUMP JUMPDEST JUMPDEST DUP2 CALLDATALOAD PUSH2 0x5B0 DUP5 DUP3 PUSH1 0x20 DUP7 ADD PUSH2 0x549 JUMP JUMPDEST SWAP2 POP POP SWAP3 SWAP2 POP POP JUMP JUMPDEST PUSH1 0x0 PUSH1 0x80 DUP3 DUP5 SUB SLT ISZERO PUSH2 0x5CF JUMPI PUSH2 0x5CE PUSH2 0xA34 JUMP JUMPDEST JUMPDEST DUP2 SWAP1 POP SWAP3 SWAP2 POP POP JUMP JUMPDEST PUSH1 0x0 DUP2 CALLDATALOAD SWAP1 POP PUSH2 0x5E7 DUP2 PUSH2 0xADE JUMP JUMPDEST SWAP3 SWAP2 POP POP JUMP JUMPDEST PUSH1 0x0 PUSH1 0x20 DUP3 DUP5 SUB SLT ISZERO PUSH2 0x603 JUMPI PUSH2 0x602 PUSH2 0xA4D JUMP JUMPDEST JUMPDEST PUSH1 0x0 DUP3 ADD CALLDATALOAD PUSH8 0xFFFFFFFFFFFFFFFF DUP2 GT ISZERO PUSH2 0x621 JUMPI PUSH2 0x620 PUSH2 0xA48 JUMP JUMPDEST JUMPDEST PUSH2 0x62D DUP5 DUP3 DUP6 ADD PUSH2 0x58B JUMP JUMPDEST SWAP2 POP POP SWAP3 SWAP2 POP POP JUMP JUMPDEST PUSH1 0x0 PUSH1 0x20 DUP3 DUP5 SUB SLT ISZERO PUSH2 0x64C JUMPI PUSH2 0x64B PUSH2 0xA4D JUMP JUMPDEST JUMPDEST PUSH1 0x0 DUP3 ADD CALLDATALOAD PUSH8 0xFFFFFFFFFFFFFFFF DUP2 GT ISZERO PUSH2 0x66A JUMPI PUSH2 0x669 PUSH2 0xA48 JUMP JUMPDEST JUMPDEST PUSH2 0x676 DUP5 DUP3 DUP6 ADD PUSH2 0x5B9 JUMP JUMPDEST SWAP2 POP POP SWAP3 SWAP2 POP POP JUMP JUMPDEST PUSH1 0x0 PUSH1 0x20 DUP3 DUP5 SUB SLT ISZERO PUSH2 0x695 JUMPI PUSH2 0x694 PUSH2 0xA4D JUMP JUMPDEST JUMPDEST PUSH1 0x0 PUSH2 0x6A3 DUP5 DUP3 DUP6 ADD PUSH2 0x5D8 JUMP JUMPDEST SWAP2 POP POP SWAP3 SWAP2 POP POP JUMP JUMPDEST PUSH2 0x6B5 DUP2 PUSH2 0x961 JUMP JUMPDEST DUP3 MSTORE POP POP JUMP JUMPDEST PUSH1 0x0 PUSH2 0x6C7 DUP4 DUP6 PUSH2 0x919 JUMP JUMPDEST SWAP4 POP PUSH2 0x6D4 DUP4 DUP6 DUP5 PUSH2 0x98C JUMP JUMPDEST PUSH2 0x6DD DUP4 PUSH2 0xA52 JUMP JUMPDEST DUP5 ADD SWAP1 POP SWAP4 SWAP3 POP POP POP JUMP JUMPDEST PUSH1 0x0 PUSH2 0x6F5 PUSH1 0x1E DUP4 PUSH2 0x919 JUMP JUMPDEST SWAP2 POP PUSH2 0x700 DUP3 PUSH2 0xA63 JUMP JUMPDEST PUSH1 0x20 DUP3 ADD SWAP1 POP SWAP2 SWAP1 POP JUMP JUMPDEST PUSH1 0x0 PUSH2 0x718 PUSH1 0x15 DUP4 PUSH2 0x919 JUMP JUMPDEST SWAP2 POP PUSH2 0x723 DUP3 PUSH2 0xA8C JUMP JUMPDEST PUSH1 0x20 DUP3 ADD SWAP1 POP SWAP2 SWAP1 POP JUMP JUMPDEST PUSH1 0x0 PUSH2 0x73B PUSH1 0x20 DUP4 PUSH2 0x919 JUMP JUMPDEST SWAP2 POP PUSH2 0x746 DUP3 PUSH2 0xAB5 JUMP JUMPDEST PUSH1 0x20 DUP3 ADD SWAP1 POP SWAP2 SWAP1 POP JUMP JUMPDEST PUSH2 0x75A DUP2 PUSH2 0x97A JUMP JUMPDEST DUP3 MSTORE POP POP JUMP JUMPDEST PUSH2 0x769 DUP2 PUSH2 0x96D JUMP JUMPDEST DUP3 MSTORE POP POP JUMP JUMPDEST PUSH1 0x0 PUSH1 0x20 DUP3 ADD SWAP1 POP PUSH2 0x784 PUSH1 0x0 DUP4 ADD DUP5 PUSH2 0x6AC JUMP JUMPDEST SWAP3 SWAP2 POP POP JUMP JUMPDEST PUSH1 0x0 PUSH1 0x20 DUP3 ADD SWAP1 POP DUP2 DUP2 SUB PUSH1 0x0 DUP4 ADD MSTORE PUSH2 0x7A3 DUP2 PUSH2 0x6E8 JUMP JUMPDEST SWAP1 POP SWAP2 SWAP1 POP JUMP JUMPDEST PUSH1 0x0 PUSH1 0x20 DUP3 ADD SWAP1 POP DUP2 DUP2 SUB PUSH1 0x0 DUP4 ADD MSTORE PUSH2 0x7C3 DUP2 PUSH2 0x70B JUMP JUMPDEST SWAP1 POP SWAP2 SWAP1 POP JUMP JUMPDEST PUSH1 0x0 PUSH1 0x20 DUP3 ADD SWAP1 POP DUP2 DUP2 SUB PUSH1 0x0 DUP4 ADD MSTORE PUSH2 0x7E3 DUP2 PUSH2 0x72E JUMP JUMPDEST SWAP1 POP SWAP2 SWAP1 POP JUMP JUMPDEST PUSH1 0x0 PUSH1 0x20 DUP3 ADD SWAP1 POP PUSH2 0x7FF PUSH1 0x0 DUP4 ADD DUP5 PUSH2 0x751 JUMP JUMPDEST SWAP3 SWAP2 POP POP JUMP JUMPDEST PUSH1 0x0 PUSH1 0x20 DUP3 ADD SWAP1 POP PUSH2 0x81A PUSH1 0x0 DUP4 ADD DUP5 PUSH2 0x760 JUMP JUMPDEST SWAP3 SWAP2 POP POP JUMP JUMPDEST PUSH1 0x0 PUSH1 0x60 DUP3 ADD SWAP1 POP PUSH2 0x835 PUSH1 0x0 DUP4 ADD DUP8 PUSH2 0x760 JUMP JUMPDEST PUSH2 0x842 PUSH1 0x20 DUP4 ADD DUP7 PUSH2 0x760 JUMP JUMPDEST DUP2 DUP2 SUB PUSH1 0x40 DUP4 ADD MSTORE PUSH2 0x855 DUP2 DUP5 DUP7 PUSH2 0x6BB JUMP JUMPDEST SWAP1 POP SWAP6 SWAP5 POP POP POP POP POP JUMP JUMPDEST PUSH1 0x0 DUP1 DUP4 CALLDATALOAD PUSH1 0x1 PUSH1 0x20 SUB DUP5 CALLDATASIZE SUB SUB DUP2 SLT PUSH2 0x87D JUMPI PUSH2 0x87C PUSH2 0xA39 JUMP JUMPDEST JUMPDEST DUP1 DUP5 ADD SWAP3 POP DUP3 CALLDATALOAD SWAP2 POP PUSH8 0xFFFFFFFFFFFFFFFF DUP3 GT ISZERO PUSH2 0x89F JUMPI PUSH2 0x89E PUSH2 0xA2F JUMP JUMPDEST JUMPDEST PUSH1 0x20 DUP4 ADD SWAP3 POP PUSH1 0x1 DUP3 MUL CALLDATASIZE SUB DUP4 SGT ISZERO PUSH2 0x8BB JUMPI PUSH2 0x8BA PUSH2 0xA3E JUMP JUMPDEST JUMPDEST POP SWAP3 POP SWAP3 SWAP1 POP JUMP JUMPDEST PUSH1 0x0 PUSH2 0x8CD PUSH2 0x8DE JUMP JUMPDEST SWAP1 POP PUSH2 0x8D9 DUP3 DUP3 PUSH2 0x99B JUMP JUMPDEST SWAP2 SWAP1 POP JUMP JUMPDEST PUSH1 0x0 PUSH1 0x40 MLOAD SWAP1 POP SWAP1 JUMP JUMPDEST PUSH1 0x0 PUSH8 0xFFFFFFFFFFFFFFFF DUP3 GT ISZERO PUSH2 0x903 JUMPI PUSH2 0x902 PUSH2 0x9FB JUMP JUMPDEST JUMPDEST PUSH2 0x90C DUP3 PUSH2 0xA52 JUMP JUMPDEST SWAP1 POP PUSH1 0x20 DUP2 ADD SWAP1 POP SWAP2 SWAP1 POP JUMP JUMPDEST PUSH1 0x0 DUP3 DUP3 MSTORE PUSH1 0x20 DUP3 ADD SWAP1 POP SWAP3 SWAP2 POP POP JUMP JUMPDEST PUSH1 0x0 PUSH2 0x935 DUP3 PUSH2 0x96D JUMP JUMPDEST SWAP2 POP PUSH2 0x940 DUP4 PUSH2 0x96D JUMP JUMPDEST SWAP3 POP DUP3 PUSH1 0xFF SUB DUP3 GT ISZERO PUSH2 0x956 JUMPI PUSH2 0x955 PUSH2 0x9CC JUMP JUMPDEST JUMPDEST DUP3 DUP3 ADD SWAP1 POP SWAP3 SWAP2 POP POP JUMP JUMPDEST PUSH1 0x0 DUP2 ISZERO ISZERO SWAP1 POP SWAP2 SWAP1 POP JUMP JUMPDEST PUSH1 0x0 PUSH1 0xFF DUP3 AND SWAP1 POP SWAP2 SWAP1 POP JUMP JUMPDEST PUSH1 0x0 PUSH2 0x985 DUP3 PUSH2 0x96D JUMP JUMPDEST SWAP1 POP SWAP2 SWAP1 POP JUMP JUMPDEST DUP3 DUP2 DUP4 CALLDATACOPY PUSH1 0x0 DUP4 DUP4 ADD MSTORE POP POP POP JUMP JUMPDEST PUSH2 0x9A4 DUP3 PUSH2 0xA52 JUMP JUMPDEST DUP2 ADD DUP2 DUP2 LT PUSH8 0xFFFFFFFFFFFFFFFF DUP3 GT OR ISZERO PUSH2 0x9C3 JUMPI PUSH2 0x9C2 PUSH2 0x9FB JUMP JUMPDEST JUMPDEST DUP1 PUSH1 0x40 MSTORE POP POP POP JUMP JUMPDEST PUSH32 0x4E487B7100000000000000000000000000000000000000000000000000000000 PUSH1 0x0 MSTORE PUSH1 0x11 PUSH1 0x4 MSTORE PUSH1 0x24 PUSH1 0x0 REVERT JUMPDEST PUSH32 0x4E487B7100000000000000000000000000000000000000000000000000000000 PUSH1 0x0 MSTORE PUSH1 0x41 PUSH1 0x4 MSTORE PUSH1 0x24 PUSH1 0x0 REVERT JUMPDEST PUSH1 0x0 DUP1 REVERT JUMPDEST PUSH1 0x0 DUP1 REVERT JUMPDEST PUSH1 0x0 DUP1 REVERT JUMPDEST PUSH1 0x0 DUP1 REVERT JUMPDEST PUSH1 0x0 DUP1 REVERT JUMPDEST PUSH1 0x0 DUP1 REVERT JUMPDEST PUSH1 0x0 DUP1 REVERT JUMPDEST PUSH1 0x0 DUP1 REVERT JUMPDEST PUSH1 0x0 PUSH1 0x1F NOT PUSH1 0x1F DUP4 ADD AND SWAP1 POP SWAP2 SWAP1 POP JUMP JUMPDEST PUSH32 0x54686520656C656374696F6E2068617320656E64656420616C72656164790000 PUSH1 0x0 DUP3 ADD MSTORE POP JUMP JUMPDEST PUSH32 0x54686572652063616E6E6F742062652061207469650000000000000000000000 PUSH1 0x0 DUP3 ADD MSTORE POP JUMP JUMPDEST PUSH32 0x537461746573206D7573742068617665206174206C6561737420312073656174 PUSH1 0x0 DUP3 ADD MSTORE POP JUMP JUMPDEST PUSH2 0xAE7 DUP2 PUSH2 0x96D JUMP JUMPDEST DUP2 EQ PUSH2 0xAF2 JUMPI PUSH1 0x0 DUP1 REVERT JUMPDEST POP JUMP INVALID LOG2 PUSH5 0x6970667358 0x22 SLT KECCAK256 SWAP11 DUP4 PUSH2 0x2456 0x4F PUSH4 0x9196839F NUMBER SUB PUSH25 0x632B9DF65D0E72D60A859DDE745C2ECCBFCD64736F6C634300 ADDMOD SMOD STOP CALLER "
				},
				"gasEstimates": {
					"creation": {
						"codeDepositCost": "571800",
						"executionCost": "606",
						"totalCost": "572406"
					},
					"external": {
						"BIDEN()": "402",
						"TRUMP()": "336",
						"currentLeader()": "9356",
						"electionEnded()": "2512",
						"endElection()": "36875",
						"resultsSubmitted(string)": "infinite",
						"seats(uint8)": "infinite",
						"submitStateResult((string,uint256,uint256,uint8))": "infinite"
					}
				},
				"methodIdentifiers": {
					"BIDEN()": "69b36bd4",
					"TRUMP()": "2d78d8e5",
					"currentLeader()": "ac4bd53a",
					"electionEnded()": "c94ca9e3",
					"endElection()": "59f78468",
					"resultsSubmitted(string)": "37ad98ec",
					"seats(uint8)": "713d87c5",
					"submitStateResult((string,uint256,uint256,uint8))": "e494a883"
				}
			},
			"userdoc": {
				"kind": "user",
				"methods": {},
				"version": 1
			}
		}
	}
}