{
	"Library.sol": {
		"Library": {
			"abi": [
				{
					"inputs": [],
					"stateMutability": "nonpayable",
					"type": "constructor"
				},
				{
					"inputs": [
						{
							"components": [
								{
									"internalType": "uint256",
									"name": "id",
									"type": "uint256"
								},
								{
									"internalType": "string",
									"name": "name",
									"type": "string"
								},
								{
									"internalType": "uint256",
									"name": "quantity",
									"type": "uint256"
								},
								{
									"internalType": "bool",
									"name": "exists",
									"type": "bool"
								}
							],
							"internalType": "struct Library.Book",
							"name": "book",
							"type": "tuple"
						}
					],
					"name": "AddBook",
					"outputs": [],
					"stateMutability": "nonpayable",
					"type": "function"
				},
				{
					"inputs": [
						{
							"internalType": "uint256",
							"name": "",
							"type": "uint256"
						},
						{
							"internalType": "uint256",
							"name": "",
							"type": "uint256"
						}
					],
					"name": "BookBorrowerHistory",
					"outputs": [
						{
							"internalType": "address",
							"name": "",
							"type": "address"
						}
					],
					"stateMutability": "view",
					"type": "function"
				},
				{
					"inputs": [
						{
							"internalType": "uint256",
							"name": "",
							"type": "uint256"
						}
					],
					"name": "BookList",
					"outputs": [
						{
							"internalType": "uint256",
							"name": "id",
							"type": "uint256"
						},
						{
							"internalType": "string",
							"name": "name",
							"type": "string"
						},
						{
							"internalType": "uint256",
							"name": "quantity",
							"type": "uint256"
						},
						{
							"internalType": "bool",
							"name": "exists",
							"type": "bool"
						}
					],
					"stateMutability": "view",
					"type": "function"
				},
				{
					"inputs": [
						{
							"internalType": "uint256",
							"name": "bookId",
							"type": "uint256"
						}
					],
					"name": "BorrowBook",
					"outputs": [],
					"stateMutability": "nonpayable",
					"type": "function"
				},
				{
					"inputs": [
						{
							"internalType": "address",
							"name": "",
							"type": "address"
						},
						{
							"internalType": "uint256",
							"name": "",
							"type": "uint256"
						}
					],
					"name": "ClientBorrowList",
					"outputs": [
						{
							"internalType": "uint256",
							"name": "",
							"type": "uint256"
						}
					],
					"stateMutability": "view",
					"type": "function"
				},
				{
					"inputs": [
						{
							"internalType": "uint256",
							"name": "bookId",
							"type": "uint256"
						}
					],
					"name": "ReturnBook",
					"outputs": [],
					"stateMutability": "nonpayable",
					"type": "function"
				},
				{
					"inputs": [],
					"name": "owner",
					"outputs": [
						{
							"internalType": "address",
							"name": "",
							"type": "address"
						}
					],
					"stateMutability": "view",
					"type": "function"
				}
			],
			"devdoc": {
				"kind": "dev",
				"methods": {},
				"version": 1
			},
			"evm": {
				"assembly": "    /* \"Library.sol\":88:2070  contract Library is Helpers{... */\n  mstore(0x40, 0x80)\n    /* \"Library.sol\":681:729  constructor(){... */\n  callvalue\n  dup1\n  iszero\n  tag_1\n  jumpi\n  0x00\n  dup1\n  revert\ntag_1:\n  pop\n    /* \"Library.sol\":712:722  msg.sender */\n  caller\n    /* \"Library.sol\":704:709  owner */\n  0x00\n  dup1\n    /* \"Library.sol\":704:722  owner = msg.sender */\n  0x0100\n  exp\n  dup2\n  sload\n  dup2\n  0xffffffffffffffffffffffffffffffffffffffff\n  mul\n  not\n  and\n  swap1\n  dup4\n  0xffffffffffffffffffffffffffffffffffffffff\n  and\n  mul\n  or\n  swap1\n  sstore\n  pop\n    /* \"Library.sol\":88:2070  contract Library is Helpers{... */\n  dataSize(sub_0)\n  dup1\n  dataOffset(sub_0)\n  0x00\n  codecopy\n  0x00\n  return\nstop\n\nsub_0: assembly {\n        /* \"Library.sol\":88:2070  contract Library is Helpers{... */\n      mstore(0x40, 0x80)\n      callvalue\n      dup1\n      iszero\n      tag_1\n      jumpi\n      0x00\n      dup1\n      revert\n    tag_1:\n      pop\n      jumpi(tag_2, lt(calldatasize, 0x04))\n      shr(0xe0, calldataload(0x00))\n      dup1\n      0x71e25e5a\n      gt\n      tag_10\n      jumpi\n      dup1\n      0x71e25e5a\n      eq\n      tag_6\n      jumpi\n      dup1\n      0x8da5cb5b\n      eq\n      tag_7\n      jumpi\n      dup1\n      0x9649faa3\n      eq\n      tag_8\n      jumpi\n      dup1\n      0xb8dd17db\n      eq\n      tag_9\n      jumpi\n      jump(tag_2)\n    tag_10:\n      dup1\n      0x18413898\n      eq\n      tag_3\n      jumpi\n      dup1\n      0x2b3819fe\n      eq\n      tag_4\n      jumpi\n      dup1\n      0x5d16b308\n      eq\n      tag_5\n      jumpi\n    tag_2:\n      0x00\n      dup1\n      revert\n        /* \"Library.sol\":318:371  mapping(uint => address[]) public BookBorrowerHistory */\n    tag_3:\n      tag_11\n      0x04\n      dup1\n      calldatasize\n      sub\n      dup2\n      add\n      swap1\n      tag_12\n      swap2\n      swap1\n      tag_13\n      jump\t// in\n    tag_12:\n      tag_14\n      jump\t// in\n    tag_11:\n      mload(0x40)\n      tag_15\n      swap2\n      swap1\n      tag_16\n      jump\t// in\n    tag_15:\n      mload(0x40)\n      dup1\n      swap2\n      sub\n      swap1\n      return\n        /* \"Library.sol\":378:428  mapping(address => uint[]) public ClientBorrowList */\n    tag_4:\n      tag_17\n      0x04\n      dup1\n      calldatasize\n      sub\n      dup2\n      add\n      swap1\n      tag_18\n      swap2\n      swap1\n      tag_19\n      jump\t// in\n    tag_18:\n      tag_20\n      jump\t// in\n    tag_17:\n      mload(0x40)\n      tag_21\n      swap2\n      swap1\n      tag_22\n      jump\t// in\n    tag_21:\n      mload(0x40)\n      dup1\n      swap2\n      sub\n      swap1\n      return\n        /* \"Library.sol\":735:1101  function AddBook(Book calldata book) public onlyOwnable{... */\n    tag_5:\n      tag_23\n      0x04\n      dup1\n      calldatasize\n      sub\n      dup2\n      add\n      swap1\n      tag_24\n      swap2\n      swap1\n      tag_25\n      jump\t// in\n    tag_24:\n      tag_26\n      jump\t// in\n    tag_23:\n      stop\n        /* \"Library.sol\":274:311  mapping(uint => Book) public BookList */\n    tag_6:\n      tag_27\n      0x04\n      dup1\n      calldatasize\n      sub\n      dup2\n      add\n      swap1\n      tag_28\n      swap2\n      swap1\n      tag_29\n      jump\t// in\n    tag_28:\n      tag_30\n      jump\t// in\n    tag_27:\n      mload(0x40)\n      tag_31\n      swap5\n      swap4\n      swap3\n      swap2\n      swap1\n      tag_32\n      jump\t// in\n    tag_31:\n      mload(0x40)\n      dup1\n      swap2\n      sub\n      swap1\n      return\n        /* \"Library.sol\":121:141  address public owner */\n    tag_7:\n      tag_33\n      tag_34\n      jump\t// in\n    tag_33:\n      mload(0x40)\n      tag_35\n      swap2\n      swap1\n      tag_16\n      jump\t// in\n    tag_35:\n      mload(0x40)\n      dup1\n      swap2\n      sub\n      swap1\n      return\n        /* \"Library.sol\":1107:1679  function BorrowBook(uint bookId) public bookExists(bookId){    ... */\n    tag_8:\n      tag_36\n      0x04\n      dup1\n      calldatasize\n      sub\n      dup2\n      add\n      swap1\n      tag_37\n      swap2\n      swap1\n      tag_29\n      jump\t// in\n    tag_37:\n      tag_38\n      jump\t// in\n    tag_36:\n      stop\n        /* \"Library.sol\":1685:2068  function ReturnBook(uint bookId) public bookExists(bookId){... */\n    tag_9:\n      tag_39\n      0x04\n      dup1\n      calldatasize\n      sub\n      dup2\n      add\n      swap1\n      tag_40\n      swap2\n      swap1\n      tag_29\n      jump\t// in\n    tag_40:\n      tag_41\n      jump\t// in\n    tag_39:\n      stop\n        /* \"Library.sol\":318:371  mapping(uint => address[]) public BookBorrowerHistory */\n    tag_14:\n      mstore(0x20, 0x03)\n      dup2\n      0x00\n      mstore\n      keccak256(0x00, 0x40)\n      dup2\n      dup2\n      sload\n      dup2\n      lt\n      tag_42\n      jumpi\n      0x00\n      dup1\n      revert\n    tag_42:\n      swap1\n      0x00\n      mstore\n      keccak256(0x00, 0x20)\n      add\n      0x00\n      swap2\n      pop\n      swap2\n      pop\n      swap1\n      sload\n      swap1\n      0x0100\n      exp\n      swap1\n      div\n      0xffffffffffffffffffffffffffffffffffffffff\n      and\n      dup2\n      jump\t// out\n        /* \"Library.sol\":378:428  mapping(address => uint[]) public ClientBorrowList */\n    tag_20:\n      mstore(0x20, 0x04)\n      dup2\n      0x00\n      mstore\n      keccak256(0x00, 0x40)\n      dup2\n      dup2\n      sload\n      dup2\n      lt\n      tag_44\n      jumpi\n      0x00\n      dup1\n      revert\n    tag_44:\n      swap1\n      0x00\n      mstore\n      keccak256(0x00, 0x20)\n      add\n      0x00\n      swap2\n      pop\n      swap2\n      pop\n      pop\n      sload\n      dup2\n      jump\t// out\n        /* \"Library.sol\":735:1101  function AddBook(Book calldata book) public onlyOwnable{... */\n    tag_26:\n        /* \"Library.sol\":489:494  owner */\n      0x00\n      dup1\n      sload\n      swap1\n      0x0100\n      exp\n      swap1\n      div\n      0xffffffffffffffffffffffffffffffffffffffff\n      and\n        /* \"Library.sol\":475:494  msg.sender == owner */\n      0xffffffffffffffffffffffffffffffffffffffff\n      and\n        /* \"Library.sol\":475:485  msg.sender */\n      caller\n        /* \"Library.sol\":475:494  msg.sender == owner */\n      0xffffffffffffffffffffffffffffffffffffffff\n      and\n      eq\n        /* \"Library.sol\":467:525  require(msg.sender == owner, \"Current user is not owner!\") */\n      tag_47\n      jumpi\n      mload(0x40)\n      0x08c379a000000000000000000000000000000000000000000000000000000000\n      dup2\n      mstore\n      0x04\n      add\n      tag_48\n      swap1\n      tag_49\n      jump\t// in\n    tag_48:\n      mload(0x40)\n      dup1\n      swap2\n      sub\n      swap1\n      revert\n    tag_47:\n        /* \"Library.sol\":803:811  BookList */\n      0x02\n        /* \"Library.sol\":803:820  BookList[counter] */\n      0x00\n        /* \"Library.sol\":812:819  counter */\n      sload(0x01)\n        /* \"Library.sol\":803:820  BookList[counter] */\n      dup2\n      mstore\n      0x20\n      add\n      swap1\n      dup2\n      mstore\n      0x20\n      add\n      0x00\n      keccak256\n        /* \"Library.sol\":803:827  BookList[counter].exists */\n      0x03\n      add\n      0x00\n      swap1\n      sload\n      swap1\n      0x0100\n      exp\n      swap1\n      div\n      0xff\n      and\n        /* \"Library.sol\":800:898  if(BookList[counter].exists){... */\n      iszero\n      tag_51\n      jumpi\n        /* \"Library.sol\":842:887  revert(\"Book already exists in the Library!\") */\n      mload(0x40)\n      0x08c379a000000000000000000000000000000000000000000000000000000000\n      dup2\n      mstore\n      0x04\n      add\n      tag_52\n      swap1\n      tag_53\n      jump\t// in\n    tag_52:\n      mload(0x40)\n      dup1\n      swap2\n      sub\n      swap1\n      revert\n        /* \"Library.sol\":800:898  if(BookList[counter].exists){... */\n    tag_51:\n        /* \"Library.sol\":931:938  counter */\n      sload(0x01)\n        /* \"Library.sol\":908:916  BookList */\n      0x02\n        /* \"Library.sol\":908:925  BookList[counter] */\n      0x00\n        /* \"Library.sol\":917:924  counter */\n      sload(0x01)\n        /* \"Library.sol\":908:925  BookList[counter] */\n      dup2\n      mstore\n      0x20\n      add\n      swap1\n      dup2\n      mstore\n      0x20\n      add\n      0x00\n      keccak256\n        /* \"Library.sol\":908:928  BookList[counter].id */\n      0x00\n      add\n        /* \"Library.sol\":908:938  BookList[counter].id = counter */\n      dup2\n      swap1\n      sstore\n      pop\n        /* \"Library.sol\":973:977  book */\n      dup1\n        /* \"Library.sol\":973:982  book.name */\n      dup1\n      0x20\n      add\n      swap1\n      tag_54\n      swap2\n      swap1\n      tag_55\n      jump\t// in\n    tag_54:\n        /* \"Library.sol\":948:956  BookList */\n      0x02\n        /* \"Library.sol\":948:965  BookList[counter] */\n      0x00\n        /* \"Library.sol\":957:964  counter */\n      sload(0x01)\n        /* \"Library.sol\":948:965  BookList[counter] */\n      dup2\n      mstore\n      0x20\n      add\n      swap1\n      dup2\n      mstore\n      0x20\n      add\n      0x00\n      keccak256\n        /* \"Library.sol\":948:970  BookList[counter].name */\n      0x01\n      add\n        /* \"Library.sol\":948:982  BookList[counter].name = book.name */\n      swap2\n      swap1\n      tag_56\n      swap3\n      swap2\n      swap1\n      tag_57\n      jump\t// in\n    tag_56:\n      pop\n        /* \"Library.sol\":1021:1025  book */\n      dup1\n        /* \"Library.sol\":1021:1034  book.quantity */\n      0x40\n      add\n      calldataload\n        /* \"Library.sol\":992:1000  BookList */\n      0x02\n        /* \"Library.sol\":992:1009  BookList[counter] */\n      0x00\n        /* \"Library.sol\":1001:1008  counter */\n      sload(0x01)\n        /* \"Library.sol\":992:1009  BookList[counter] */\n      dup2\n      mstore\n      0x20\n      add\n      swap1\n      dup2\n      mstore\n      0x20\n      add\n      0x00\n      keccak256\n        /* \"Library.sol\":992:1018  BookList[counter].quantity */\n      0x02\n      add\n        /* \"Library.sol\":992:1034  BookList[counter].quantity = book.quantity */\n      dup2\n      swap1\n      sstore\n      pop\n        /* \"Library.sol\":1071:1075  true */\n      0x01\n        /* \"Library.sol\":1044:1052  BookList */\n      0x02\n        /* \"Library.sol\":1044:1061  BookList[counter] */\n      0x00\n        /* \"Library.sol\":1053:1060  counter */\n      sload(0x01)\n        /* \"Library.sol\":1044:1061  BookList[counter] */\n      dup2\n      mstore\n      0x20\n      add\n      swap1\n      dup2\n      mstore\n      0x20\n      add\n      0x00\n      keccak256\n        /* \"Library.sol\":1044:1068  BookList[counter].exists */\n      0x03\n      add\n      0x00\n        /* \"Library.sol\":1044:1075  BookList[counter].exists = true */\n      0x0100\n      exp\n      dup2\n      sload\n      dup2\n      0xff\n      mul\n      not\n      and\n      swap1\n      dup4\n      iszero\n      iszero\n      mul\n      or\n      swap1\n      sstore\n      pop\n        /* \"Library.sol\":1085:1092  counter */\n      0x01\n      0x00\n        /* \"Library.sol\":1085:1094  counter++ */\n      dup2\n      sload\n      dup1\n      swap3\n      swap2\n      swap1\n      tag_58\n      swap1\n      tag_59\n      jump\t// in\n    tag_58:\n      swap2\n      swap1\n      pop\n      sstore\n      pop\n        /* \"Library.sol\":735:1101  function AddBook(Book calldata book) public onlyOwnable{... */\n      pop\n      jump\t// out\n        /* \"Library.sol\":274:311  mapping(uint => Book) public BookList */\n    tag_30:\n      mstore(0x20, 0x02)\n      dup1\n      0x00\n      mstore\n      keccak256(0x00, 0x40)\n      0x00\n      swap2\n      pop\n      swap1\n      pop\n      dup1\n      0x00\n      add\n      sload\n      swap1\n      dup1\n      0x01\n      add\n      dup1\n      sload\n      tag_60\n      swap1\n      tag_61\n      jump\t// in\n    tag_60:\n      dup1\n      0x1f\n      add\n      0x20\n      dup1\n      swap2\n      div\n      mul\n      0x20\n      add\n      mload(0x40)\n      swap1\n      dup2\n      add\n      0x40\n      mstore\n      dup1\n      swap3\n      swap2\n      swap1\n      dup2\n      dup2\n      mstore\n      0x20\n      add\n      dup3\n      dup1\n      sload\n      tag_62\n      swap1\n      tag_61\n      jump\t// in\n    tag_62:\n      dup1\n      iszero\n      tag_63\n      jumpi\n      dup1\n      0x1f\n      lt\n      tag_64\n      jumpi\n      0x0100\n      dup1\n      dup4\n      sload\n      div\n      mul\n      dup4\n      mstore\n      swap2\n      0x20\n      add\n      swap2\n      jump(tag_63)\n    tag_64:\n      dup3\n      add\n      swap2\n      swap1\n      0x00\n      mstore\n      keccak256(0x00, 0x20)\n      swap1\n    tag_65:\n      dup2\n      sload\n      dup2\n      mstore\n      swap1\n      0x01\n      add\n      swap1\n      0x20\n      add\n      dup1\n      dup4\n      gt\n      tag_65\n      jumpi\n      dup3\n      swap1\n      sub\n      0x1f\n      and\n      dup3\n      add\n      swap2\n    tag_63:\n      pop\n      pop\n      pop\n      pop\n      pop\n      swap1\n      dup1\n      0x02\n      add\n      sload\n      swap1\n      dup1\n      0x03\n      add\n      0x00\n      swap1\n      sload\n      swap1\n      0x0100\n      exp\n      swap1\n      div\n      0xff\n      and\n      swap1\n      pop\n      dup5\n      jump\t// out\n        /* \"Library.sol\":121:141  address public owner */\n    tag_34:\n      0x00\n      dup1\n      sload\n      swap1\n      0x0100\n      exp\n      swap1\n      div\n      0xffffffffffffffffffffffffffffffffffffffff\n      and\n      dup2\n      jump\t// out\n        /* \"Library.sol\":1107:1679  function BorrowBook(uint bookId) public bookExists(bookId){    ... */\n    tag_38:\n        /* \"Library.sol\":1158:1164  bookId */\n      dup1\n        /* \"Library.sol\":599:607  BookList */\n      0x02\n        /* \"Library.sol\":599:615  BookList[bookId] */\n      0x00\n        /* \"Library.sol\":608:614  bookId */\n      dup3\n        /* \"Library.sol\":599:615  BookList[bookId] */\n      dup2\n      mstore\n      0x20\n      add\n      swap1\n      dup2\n      mstore\n      0x20\n      add\n      0x00\n      keccak256\n        /* \"Library.sol\":599:622  BookList[bookId].exists */\n      0x03\n      add\n      0x00\n      swap1\n      sload\n      swap1\n      0x0100\n      exp\n      swap1\n      div\n      0xff\n      and\n        /* \"Library.sol\":591:657  require(BookList[bookId].exists,\"Book does not exist in library!\") */\n      tag_67\n      jumpi\n      mload(0x40)\n      0x08c379a000000000000000000000000000000000000000000000000000000000\n      dup2\n      mstore\n      0x04\n      add\n      tag_68\n      swap1\n      tag_69\n      jump\t// in\n    tag_68:\n      mload(0x40)\n      dup1\n      swap2\n      sub\n      swap1\n      revert\n    tag_67:\n        /* \"Library.sol\":1209:1210  0 */\n      0x00\n        /* \"Library.sol\":1182:1190  BookList */\n      0x02\n        /* \"Library.sol\":1182:1198  BookList[bookId] */\n      0x00\n        /* \"Library.sol\":1191:1197  bookId */\n      dup5\n        /* \"Library.sol\":1182:1198  BookList[bookId] */\n      dup2\n      mstore\n      0x20\n      add\n      swap1\n      dup2\n      mstore\n      0x20\n      add\n      0x00\n      keccak256\n        /* \"Library.sol\":1182:1207  BookList[bookId].quantity */\n      0x02\n      add\n      sload\n        /* \"Library.sol\":1182:1210  BookList[bookId].quantity==0 */\n      eq\n        /* \"Library.sol\":1179:1282  if(BookList[bookId].quantity==0){... */\n      iszero\n      tag_71\n      jumpi\n        /* \"Library.sol\":1225:1271  revert(\"This book is out of stock currently!\") */\n      mload(0x40)\n      0x08c379a000000000000000000000000000000000000000000000000000000000\n      dup2\n      mstore\n      0x04\n      add\n      tag_72\n      swap1\n      tag_73\n      jump\t// in\n    tag_72:\n      mload(0x40)\n      dup1\n      swap2\n      sub\n      swap1\n      revert\n        /* \"Library.sol\":1179:1282  if(BookList[bookId].quantity==0){... */\n    tag_71:\n        /* \"Library.sol\":1298:1355  intArrContainsValue(bookId, ClientBorrowList[msg.sender]) */\n      tag_74\n        /* \"Library.sol\":1318:1324  bookId */\n      dup3\n        /* \"Library.sol\":1326:1342  ClientBorrowList */\n      0x04\n        /* \"Library.sol\":1326:1354  ClientBorrowList[msg.sender] */\n      0x00\n        /* \"Library.sol\":1343:1353  msg.sender */\n      caller\n        /* \"Library.sol\":1326:1354  ClientBorrowList[msg.sender] */\n      0xffffffffffffffffffffffffffffffffffffffff\n      and\n      0xffffffffffffffffffffffffffffffffffffffff\n      and\n      dup2\n      mstore\n      0x20\n      add\n      swap1\n      dup2\n      mstore\n      0x20\n      add\n      0x00\n      keccak256\n        /* \"Library.sol\":1298:1355  intArrContainsValue(bookId, ClientBorrowList[msg.sender]) */\n      dup1\n      sload\n      dup1\n      0x20\n      mul\n      0x20\n      add\n      mload(0x40)\n      swap1\n      dup2\n      add\n      0x40\n      mstore\n      dup1\n      swap3\n      swap2\n      swap1\n      dup2\n      dup2\n      mstore\n      0x20\n      add\n      dup3\n      dup1\n      sload\n      dup1\n      iszero\n      tag_75\n      jumpi\n      0x20\n      mul\n      dup3\n      add\n      swap2\n      swap1\n      0x00\n      mstore\n      keccak256(0x00, 0x20)\n      swap1\n    tag_76:\n      dup2\n      sload\n      dup2\n      mstore\n      0x20\n      add\n      swap1\n      0x01\n      add\n      swap1\n      dup1\n      dup4\n      gt\n      tag_76\n      jumpi\n    tag_75:\n      pop\n      pop\n      pop\n      pop\n      pop\n        /* \"Library.sol\":1298:1317  intArrContainsValue */\n      tag_77\n        /* \"Library.sol\":1298:1355  intArrContainsValue(bookId, ClientBorrowList[msg.sender]) */\n      jump\t// in\n    tag_74:\n        /* \"Library.sol\":1295:1425  if(intArrContainsValue(bookId, ClientBorrowList[msg.sender])){... */\n      iszero\n      tag_78\n      jumpi\n        /* \"Library.sol\":1370:1414  revert(\"You've already borrowed that book!\") */\n      mload(0x40)\n      0x08c379a000000000000000000000000000000000000000000000000000000000\n      dup2\n      mstore\n      0x04\n      add\n      tag_79\n      swap1\n      tag_80\n      jump\t// in\n    tag_79:\n      mload(0x40)\n      dup1\n      swap2\n      sub\n      swap1\n      revert\n        /* \"Library.sol\":1295:1425  if(intArrContainsValue(bookId, ClientBorrowList[msg.sender])){... */\n    tag_78:\n        /* \"Library.sol\":1435:1451  ClientBorrowList */\n      0x04\n        /* \"Library.sol\":1435:1463  ClientBorrowList[msg.sender] */\n      0x00\n        /* \"Library.sol\":1452:1462  msg.sender */\n      caller\n        /* \"Library.sol\":1435:1463  ClientBorrowList[msg.sender] */\n      0xffffffffffffffffffffffffffffffffffffffff\n      and\n      0xffffffffffffffffffffffffffffffffffffffff\n      and\n      dup2\n      mstore\n      0x20\n      add\n      swap1\n      dup2\n      mstore\n      0x20\n      add\n      0x00\n      keccak256\n        /* \"Library.sol\":1469:1475  bookId */\n      dup3\n        /* \"Library.sol\":1435:1476  ClientBorrowList[msg.sender].push(bookId) */\n      swap1\n      dup1\n      0x01\n      dup2\n      sload\n      add\n      dup1\n      dup3\n      sstore\n      dup1\n      swap2\n      pop\n      pop\n      0x01\n      swap1\n      sub\n      swap1\n      0x00\n      mstore\n      keccak256(0x00, 0x20)\n      add\n      0x00\n      swap1\n      swap2\n      swap1\n      swap2\n      swap1\n      swap2\n      pop\n      sstore\n        /* \"Library.sol\":1492:1556  addressArrContainsValue(msg.sender, BookBorrowerHistory[bookId]) */\n      tag_82\n        /* \"Library.sol\":1516:1526  msg.sender */\n      caller\n        /* \"Library.sol\":1528:1547  BookBorrowerHistory */\n      0x03\n        /* \"Library.sol\":1528:1555  BookBorrowerHistory[bookId] */\n      0x00\n        /* \"Library.sol\":1548:1554  bookId */\n      dup6\n        /* \"Library.sol\":1528:1555  BookBorrowerHistory[bookId] */\n      dup2\n      mstore\n      0x20\n      add\n      swap1\n      dup2\n      mstore\n      0x20\n      add\n      0x00\n      keccak256\n        /* \"Library.sol\":1492:1556  addressArrContainsValue(msg.sender, BookBorrowerHistory[bookId]) */\n      dup1\n      sload\n      dup1\n      0x20\n      mul\n      0x20\n      add\n      mload(0x40)\n      swap1\n      dup2\n      add\n      0x40\n      mstore\n      dup1\n      swap3\n      swap2\n      swap1\n      dup2\n      dup2\n      mstore\n      0x20\n      add\n      dup3\n      dup1\n      sload\n      dup1\n      iszero\n      tag_83\n      jumpi\n      0x20\n      mul\n      dup3\n      add\n      swap2\n      swap1\n      0x00\n      mstore\n      keccak256(0x00, 0x20)\n      swap1\n    tag_84:\n      dup2\n      0x00\n      swap1\n      sload\n      swap1\n      0x0100\n      exp\n      swap1\n      div\n      0xffffffffffffffffffffffffffffffffffffffff\n      and\n      0xffffffffffffffffffffffffffffffffffffffff\n      and\n      dup2\n      mstore\n      0x20\n      add\n      swap1\n      0x01\n      add\n      swap1\n      dup1\n      dup4\n      gt\n      tag_84\n      jumpi\n    tag_83:\n      pop\n      pop\n      pop\n      pop\n      pop\n        /* \"Library.sol\":1492:1515  addressArrContainsValue */\n      tag_85\n        /* \"Library.sol\":1492:1556  addressArrContainsValue(msg.sender, BookBorrowerHistory[bookId]) */\n      jump\t// in\n    tag_82:\n        /* \"Library.sol\":1488:1634  if(!addressArrContainsValue(msg.sender, BookBorrowerHistory[bookId])){... */\n      tag_86\n      jumpi\n        /* \"Library.sol\":1571:1590  BookBorrowerHistory */\n      0x03\n        /* \"Library.sol\":1571:1598  BookBorrowerHistory[bookId] */\n      0x00\n        /* \"Library.sol\":1591:1597  bookId */\n      dup4\n        /* \"Library.sol\":1571:1598  BookBorrowerHistory[bookId] */\n      dup2\n      mstore\n      0x20\n      add\n      swap1\n      dup2\n      mstore\n      0x20\n      add\n      0x00\n      keccak256\n        /* \"Library.sol\":1604:1614  msg.sender */\n      caller\n        /* \"Library.sol\":1571:1615  BookBorrowerHistory[bookId].push(msg.sender) */\n      swap1\n      dup1\n      0x01\n      dup2\n      sload\n      add\n      dup1\n      dup3\n      sstore\n      dup1\n      swap2\n      pop\n      pop\n      0x01\n      swap1\n      sub\n      swap1\n      0x00\n      mstore\n      keccak256(0x00, 0x20)\n      add\n      0x00\n      swap1\n      swap2\n      swap1\n      swap2\n      swap1\n      swap2\n      0x0100\n      exp\n      dup2\n      sload\n      dup2\n      0xffffffffffffffffffffffffffffffffffffffff\n      mul\n      not\n      and\n      swap1\n      dup4\n      0xffffffffffffffffffffffffffffffffffffffff\n      and\n      mul\n      or\n      swap1\n      sstore\n      pop\n        /* \"Library.sol\":1488:1634  if(!addressArrContainsValue(msg.sender, BookBorrowerHistory[bookId])){... */\n    tag_86:\n        /* \"Library.sol\":1644:1652  BookList */\n      0x02\n        /* \"Library.sol\":1644:1660  BookList[bookId] */\n      0x00\n        /* \"Library.sol\":1653:1659  bookId */\n      dup4\n        /* \"Library.sol\":1644:1660  BookList[bookId] */\n      dup2\n      mstore\n      0x20\n      add\n      swap1\n      dup2\n      mstore\n      0x20\n      add\n      0x00\n      keccak256\n        /* \"Library.sol\":1644:1669  BookList[bookId].quantity */\n      0x02\n      add\n      0x00\n        /* \"Library.sol\":1644:1672  BookList[bookId].quantity -- */\n      dup2\n      sload\n      dup1\n      swap3\n      swap2\n      swap1\n      tag_88\n      swap1\n      tag_89\n      jump\t// in\n    tag_88:\n      swap2\n      swap1\n      pop\n      sstore\n      pop\n        /* \"Library.sol\":1107:1679  function BorrowBook(uint bookId) public bookExists(bookId){    ... */\n      pop\n      pop\n      jump\t// out\n        /* \"Library.sol\":1685:2068  function ReturnBook(uint bookId) public bookExists(bookId){... */\n    tag_41:\n        /* \"Library.sol\":1736:1742  bookId */\n      dup1\n        /* \"Library.sol\":599:607  BookList */\n      0x02\n        /* \"Library.sol\":599:615  BookList[bookId] */\n      0x00\n        /* \"Library.sol\":608:614  bookId */\n      dup3\n        /* \"Library.sol\":599:615  BookList[bookId] */\n      dup2\n      mstore\n      0x20\n      add\n      swap1\n      dup2\n      mstore\n      0x20\n      add\n      0x00\n      keccak256\n        /* \"Library.sol\":599:622  BookList[bookId].exists */\n      0x03\n      add\n      0x00\n      swap1\n      sload\n      swap1\n      0x0100\n      exp\n      swap1\n      div\n      0xff\n      and\n        /* \"Library.sol\":591:657  require(BookList[bookId].exists,\"Book does not exist in library!\") */\n      tag_91\n      jumpi\n      mload(0x40)\n      0x08c379a000000000000000000000000000000000000000000000000000000000\n      dup2\n      mstore\n      0x04\n      add\n      tag_92\n      swap1\n      tag_69\n      jump\t// in\n    tag_92:\n      mload(0x40)\n      dup1\n      swap2\n      sub\n      swap1\n      revert\n    tag_91:\n        /* \"Library.sol\":1757:1814  intArrContainsValue(bookId, ClientBorrowList[msg.sender]) */\n      tag_94\n        /* \"Library.sol\":1777:1783  bookId */\n      dup3\n        /* \"Library.sol\":1785:1801  ClientBorrowList */\n      0x04\n        /* \"Library.sol\":1785:1813  ClientBorrowList[msg.sender] */\n      0x00\n        /* \"Library.sol\":1802:1812  msg.sender */\n      caller\n        /* \"Library.sol\":1785:1813  ClientBorrowList[msg.sender] */\n      0xffffffffffffffffffffffffffffffffffffffff\n      and\n      0xffffffffffffffffffffffffffffffffffffffff\n      and\n      dup2\n      mstore\n      0x20\n      add\n      swap1\n      dup2\n      mstore\n      0x20\n      add\n      0x00\n      keccak256\n        /* \"Library.sol\":1757:1814  intArrContainsValue(bookId, ClientBorrowList[msg.sender]) */\n      dup1\n      sload\n      dup1\n      0x20\n      mul\n      0x20\n      add\n      mload(0x40)\n      swap1\n      dup2\n      add\n      0x40\n      mstore\n      dup1\n      swap3\n      swap2\n      swap1\n      dup2\n      dup2\n      mstore\n      0x20\n      add\n      dup3\n      dup1\n      sload\n      dup1\n      iszero\n      tag_95\n      jumpi\n      0x20\n      mul\n      dup3\n      add\n      swap2\n      swap1\n      0x00\n      mstore\n      keccak256(0x00, 0x20)\n      swap1\n    tag_96:\n      dup2\n      sload\n      dup2\n      mstore\n      0x20\n      add\n      swap1\n      0x01\n      add\n      swap1\n      dup1\n      dup4\n      gt\n      tag_96\n      jumpi\n    tag_95:\n      pop\n      pop\n      pop\n      pop\n      pop\n        /* \"Library.sol\":1757:1776  intArrContainsValue */\n      tag_77\n        /* \"Library.sol\":1757:1814  intArrContainsValue(bookId, ClientBorrowList[msg.sender]) */\n      jump\t// in\n    tag_94:\n        /* \"Library.sol\":1753:1880  if(!intArrContainsValue(bookId, ClientBorrowList[msg.sender])){... */\n      tag_97\n      jumpi\n        /* \"Library.sol\":1829:1869  revert(\"You havent borrowed that book!\") */\n      mload(0x40)\n      0x08c379a000000000000000000000000000000000000000000000000000000000\n      dup2\n      mstore\n      0x04\n      add\n      tag_98\n      swap1\n      tag_99\n      jump\t// in\n    tag_98:\n      mload(0x40)\n      dup1\n      swap2\n      sub\n      swap1\n      revert\n        /* \"Library.sol\":1753:1880  if(!intArrContainsValue(bookId, ClientBorrowList[msg.sender])){... */\n    tag_97:\n        /* \"Library.sol\":1966:2023  removeIntArrElement(ClientBorrowList[msg.sender], bookId) */\n      tag_100\n        /* \"Library.sol\":1986:2002  ClientBorrowList */\n      0x04\n        /* \"Library.sol\":1986:2014  ClientBorrowList[msg.sender] */\n      0x00\n        /* \"Library.sol\":2003:2013  msg.sender */\n      caller\n        /* \"Library.sol\":1986:2014  ClientBorrowList[msg.sender] */\n      0xffffffffffffffffffffffffffffffffffffffff\n      and\n      0xffffffffffffffffffffffffffffffffffffffff\n      and\n      dup2\n      mstore\n      0x20\n      add\n      swap1\n      dup2\n      mstore\n      0x20\n      add\n      0x00\n      keccak256\n        /* \"Library.sol\":2016:2022  bookId */\n      dup4\n        /* \"Library.sol\":1966:1985  removeIntArrElement */\n      tag_101\n        /* \"Library.sol\":1966:2023  removeIntArrElement(ClientBorrowList[msg.sender], bookId) */\n      jump\t// in\n    tag_100:\n        /* \"Library.sol\":2033:2041  BookList */\n      0x02\n        /* \"Library.sol\":2033:2049  BookList[bookId] */\n      0x00\n        /* \"Library.sol\":2042:2048  bookId */\n      dup4\n        /* \"Library.sol\":2033:2049  BookList[bookId] */\n      dup2\n      mstore\n      0x20\n      add\n      swap1\n      dup2\n      mstore\n      0x20\n      add\n      0x00\n      keccak256\n        /* \"Library.sol\":2033:2058  BookList[bookId].quantity */\n      0x02\n      add\n      0x00\n        /* \"Library.sol\":2033:2061  BookList[bookId].quantity ++ */\n      dup2\n      sload\n      dup1\n      swap3\n      swap2\n      swap1\n      tag_102\n      swap1\n      tag_59\n      jump\t// in\n    tag_102:\n      swap2\n      swap1\n      pop\n      sstore\n      pop\n        /* \"Library.sol\":1685:2068  function ReturnBook(uint bookId) public bookExists(bookId){... */\n      pop\n      pop\n      jump\t// out\n        /* \"Helpers.sol\":86:350  function intArrContainsValue(uint value, uint[] memory array) internal pure returns(bool){   ... */\n    tag_77:\n        /* \"Helpers.sol\":170:174  bool */\n      0x00\n        /* \"Helpers.sol\":193:199  uint i */\n      dup1\n        /* \"Helpers.sol\":200:201  0 */\n      0x00\n        /* \"Helpers.sol\":193:201  uint i=0 */\n      swap1\n      pop\n        /* \"Helpers.sol\":188:322  for (uint i=0; i < array.length; i++) {... */\n    tag_104:\n        /* \"Helpers.sol\":207:212  array */\n      dup3\n        /* \"Helpers.sol\":207:219  array.length */\n      mload\n        /* \"Helpers.sol\":203:204  i */\n      dup2\n        /* \"Helpers.sol\":203:219  i < array.length */\n      lt\n        /* \"Helpers.sol\":188:322  for (uint i=0; i < array.length; i++) {... */\n      iszero\n      tag_105\n      jumpi\n        /* \"Helpers.sol\":253:258  array */\n      dup3\n        /* \"Helpers.sol\":259:260  i */\n      dup2\n        /* \"Helpers.sol\":253:261  array[i] */\n      dup2\n      mload\n      dup2\n      lt\n      tag_107\n      jumpi\n      mstore(0x00, 0x4e487b7100000000000000000000000000000000000000000000000000000000)\n      mstore(0x04, 0x32)\n      revert(0x00, 0x24)\n    tag_107:\n      0x20\n      mul\n      0x20\n      add\n      add\n      mload\n        /* \"Helpers.sol\":244:249  value */\n      dup5\n        /* \"Helpers.sol\":244:261  value == array[i] */\n      eq\n        /* \"Helpers.sol\":240:312  if (value == array[i]) {     ... */\n      iszero\n      tag_108\n      jumpi\n        /* \"Helpers.sol\":293:297  true */\n      0x01\n        /* \"Helpers.sol\":286:297  return true */\n      swap2\n      pop\n      pop\n      jump(tag_103)\n        /* \"Helpers.sol\":240:312  if (value == array[i]) {     ... */\n    tag_108:\n        /* \"Helpers.sol\":221:224  i++ */\n      dup1\n      dup1\n      tag_109\n      swap1\n      tag_59\n      jump\t// in\n    tag_109:\n      swap2\n      pop\n      pop\n        /* \"Helpers.sol\":188:322  for (uint i=0; i < array.length; i++) {... */\n      jump(tag_104)\n    tag_105:\n      pop\n        /* \"Helpers.sol\":338:343  false */\n      0x00\n        /* \"Helpers.sol\":331:343  return false */\n      swap1\n      pop\n        /* \"Helpers.sol\":86:350  function intArrContainsValue(uint value, uint[] memory array) internal pure returns(bool){   ... */\n    tag_103:\n      swap3\n      swap2\n      pop\n      pop\n      jump\t// out\n        /* \"Helpers.sol\":356:630  function addressArrContainsValue(address value, address[] memory array) internal pure returns(bool){   ... */\n    tag_85:\n        /* \"Helpers.sol\":450:454  bool */\n      0x00\n        /* \"Helpers.sol\":473:479  uint i */\n      dup1\n        /* \"Helpers.sol\":480:481  0 */\n      0x00\n        /* \"Helpers.sol\":473:481  uint i=0 */\n      swap1\n      pop\n        /* \"Helpers.sol\":468:602  for (uint i=0; i < array.length; i++) {... */\n    tag_111:\n        /* \"Helpers.sol\":487:492  array */\n      dup3\n        /* \"Helpers.sol\":487:499  array.length */\n      mload\n        /* \"Helpers.sol\":483:484  i */\n      dup2\n        /* \"Helpers.sol\":483:499  i < array.length */\n      lt\n        /* \"Helpers.sol\":468:602  for (uint i=0; i < array.length; i++) {... */\n      iszero\n      tag_112\n      jumpi\n        /* \"Helpers.sol\":533:538  array */\n      dup3\n        /* \"Helpers.sol\":539:540  i */\n      dup2\n        /* \"Helpers.sol\":533:541  array[i] */\n      dup2\n      mload\n      dup2\n      lt\n      tag_114\n      jumpi\n      mstore(0x00, 0x4e487b7100000000000000000000000000000000000000000000000000000000)\n      mstore(0x04, 0x32)\n      revert(0x00, 0x24)\n    tag_114:\n      0x20\n      mul\n      0x20\n      add\n      add\n      mload\n        /* \"Helpers.sol\":524:541  value == array[i] */\n      0xffffffffffffffffffffffffffffffffffffffff\n      and\n        /* \"Helpers.sol\":524:529  value */\n      dup5\n        /* \"Helpers.sol\":524:541  value == array[i] */\n      0xffffffffffffffffffffffffffffffffffffffff\n      and\n      eq\n        /* \"Helpers.sol\":520:592  if (value == array[i]) {     ... */\n      iszero\n      tag_115\n      jumpi\n        /* \"Helpers.sol\":573:577  true */\n      0x01\n        /* \"Helpers.sol\":566:577  return true */\n      swap2\n      pop\n      pop\n      jump(tag_110)\n        /* \"Helpers.sol\":520:592  if (value == array[i]) {     ... */\n    tag_115:\n        /* \"Helpers.sol\":501:504  i++ */\n      dup1\n      dup1\n      tag_116\n      swap1\n      tag_59\n      jump\t// in\n    tag_116:\n      swap2\n      pop\n      pop\n        /* \"Helpers.sol\":468:602  for (uint i=0; i < array.length; i++) {... */\n      jump(tag_111)\n    tag_112:\n      pop\n        /* \"Helpers.sol\":618:623  false */\n      0x00\n        /* \"Helpers.sol\":611:623  return false */\n      swap1\n      pop\n        /* \"Helpers.sol\":356:630  function addressArrContainsValue(address value, address[] memory array) internal pure returns(bool){   ... */\n    tag_110:\n      swap3\n      swap2\n      pop\n      pop\n      jump\t// out\n        /* \"Helpers.sol\":636:899  function removeIntArrElement(uint[] storage array, uint id) internal{... */\n    tag_101:\n        /* \"Helpers.sol\":720:726  uint i */\n      0x00\n        /* \"Helpers.sol\":715:893  for (uint i=0; i < array.length; i++) {... */\n    tag_118:\n        /* \"Helpers.sol\":734:739  array */\n      dup3\n        /* \"Helpers.sol\":734:746  array.length */\n      dup1\n      sload\n      swap1\n      pop\n        /* \"Helpers.sol\":730:731  i */\n      dup2\n        /* \"Helpers.sol\":730:746  i < array.length */\n      lt\n        /* \"Helpers.sol\":715:893  for (uint i=0; i < array.length; i++) {... */\n      iszero\n      tag_119\n      jumpi\n        /* \"Helpers.sol\":777:782  array */\n      dup3\n        /* \"Helpers.sol\":783:784  i */\n      dup2\n        /* \"Helpers.sol\":777:785  array[i] */\n      dup2\n      sload\n      dup2\n      lt\n      tag_121\n      jumpi\n      mstore(0x00, 0x4e487b7100000000000000000000000000000000000000000000000000000000)\n      mstore(0x04, 0x32)\n      revert(0x00, 0x24)\n    tag_121:\n      swap1\n      0x00\n      mstore\n      keccak256(0x00, 0x20)\n      add\n      sload\n        /* \"Helpers.sol\":771:773  id */\n      dup3\n        /* \"Helpers.sol\":771:785  id == array[i] */\n      eq\n        /* \"Helpers.sol\":767:883  if (id == array[i]) {... */\n      iszero\n      tag_123\n      jumpi\n        /* \"Helpers.sol\":816:821  array */\n      dup3\n        /* \"Helpers.sol\":837:838  1 */\n      0x01\n        /* \"Helpers.sol\":822:827  array */\n      dup5\n        /* \"Helpers.sol\":822:834  array.length */\n      dup1\n      sload\n      swap1\n      pop\n        /* \"Helpers.sol\":822:838  array.length - 1 */\n      tag_124\n      swap2\n      swap1\n      tag_125\n      jump\t// in\n    tag_124:\n        /* \"Helpers.sol\":816:839  array[array.length - 1] */\n      dup2\n      sload\n      dup2\n      lt\n      tag_126\n      jumpi\n      mstore(0x00, 0x4e487b7100000000000000000000000000000000000000000000000000000000)\n      mstore(0x04, 0x32)\n      revert(0x00, 0x24)\n    tag_126:\n      swap1\n      0x00\n      mstore\n      keccak256(0x00, 0x20)\n      add\n      sload\n        /* \"Helpers.sol\":805:810  array */\n      dup4\n        /* \"Helpers.sol\":811:812  i */\n      dup3\n        /* \"Helpers.sol\":805:813  array[i] */\n      dup2\n      sload\n      dup2\n      lt\n      tag_128\n      jumpi\n      mstore(0x00, 0x4e487b7100000000000000000000000000000000000000000000000000000000)\n      mstore(0x04, 0x32)\n      revert(0x00, 0x24)\n    tag_128:\n      swap1\n      0x00\n      mstore\n      keccak256(0x00, 0x20)\n      add\n        /* \"Helpers.sol\":805:839  array[i] = array[array.length - 1] */\n      dup2\n      swap1\n      sstore\n      pop\n        /* \"Helpers.sol\":857:862  array */\n      dup3\n        /* \"Helpers.sol\":857:868  array.pop() */\n      dup1\n      sload\n      dup1\n      tag_130\n      jumpi\n      mstore(0x00, 0x4e487b7100000000000000000000000000000000000000000000000000000000)\n      mstore(0x04, 0x31)\n      revert(0x00, 0x24)\n    tag_130:\n      0x01\n      swap1\n      sub\n      dup2\n      dup2\n      swap1\n      0x00\n      mstore\n      keccak256(0x00, 0x20)\n      add\n      0x00\n      swap1\n      sstore\n      swap1\n      sstore\n        /* \"Helpers.sol\":767:883  if (id == array[i]) {... */\n    tag_123:\n        /* \"Helpers.sol\":748:751  i++ */\n      dup1\n      dup1\n      tag_132\n      swap1\n      tag_59\n      jump\t// in\n    tag_132:\n      swap2\n      pop\n      pop\n        /* \"Helpers.sol\":715:893  for (uint i=0; i < array.length; i++) {... */\n      jump(tag_118)\n    tag_119:\n      pop\n        /* \"Helpers.sol\":636:899  function removeIntArrElement(uint[] storage array, uint id) internal{... */\n      pop\n      pop\n      jump\t// out\n    tag_57:\n      dup3\n      dup1\n      sload\n      tag_133\n      swap1\n      tag_61\n      jump\t// in\n    tag_133:\n      swap1\n      0x00\n      mstore\n      keccak256(0x00, 0x20)\n      swap1\n      0x1f\n      add\n      0x20\n      swap1\n      div\n      dup2\n      add\n      swap3\n      dup3\n      tag_135\n      jumpi\n      0x00\n      dup6\n      sstore\n      jump(tag_134)\n    tag_135:\n      dup3\n      0x1f\n      lt\n      tag_136\n      jumpi\n      dup1\n      calldataload\n      not(0xff)\n      and\n      dup4\n      dup1\n      add\n      or\n      dup6\n      sstore\n      jump(tag_134)\n    tag_136:\n      dup3\n      dup1\n      add\n      0x01\n      add\n      dup6\n      sstore\n      dup3\n      iszero\n      tag_134\n      jumpi\n      swap2\n      dup3\n      add\n    tag_137:\n      dup3\n      dup2\n      gt\n      iszero\n      tag_138\n      jumpi\n      dup3\n      calldataload\n      dup3\n      sstore\n      swap2\n      0x20\n      add\n      swap2\n      swap1\n      0x01\n      add\n      swap1\n      jump(tag_137)\n    tag_138:\n    tag_134:\n      pop\n      swap1\n      pop\n      tag_139\n      swap2\n      swap1\n      tag_140\n      jump\t// in\n    tag_139:\n      pop\n      swap1\n      jump\t// out\n    tag_140:\n    tag_141:\n      dup1\n      dup3\n      gt\n      iszero\n      tag_142\n      jumpi\n      0x00\n      dup2\n      0x00\n      swap1\n      sstore\n      pop\n      0x01\n      add\n      jump(tag_141)\n    tag_142:\n      pop\n      swap1\n      jump\t// out\n        /* \"#utility.yul\":7:146   */\n    tag_144:\n      0x00\n        /* \"#utility.yul\":91:97   */\n      dup2\n        /* \"#utility.yul\":78:98   */\n      calldataload\n        /* \"#utility.yul\":69:98   */\n      swap1\n      pop\n        /* \"#utility.yul\":107:140   */\n      tag_146\n        /* \"#utility.yul\":134:139   */\n      dup2\n        /* \"#utility.yul\":107:140   */\n      tag_147\n      jump\t// in\n    tag_146:\n        /* \"#utility.yul\":59:146   */\n      swap3\n      swap2\n      pop\n      pop\n      jump\t// out\n        /* \"#utility.yul\":179:340   */\n    tag_148:\n      0x00\n        /* \"#utility.yul\":289:292   */\n      0x80\n        /* \"#utility.yul\":280:286   */\n      dup3\n        /* \"#utility.yul\":275:278   */\n      dup5\n        /* \"#utility.yul\":271:287   */\n      sub\n        /* \"#utility.yul\":267:293   */\n      slt\n        /* \"#utility.yul\":264:266   */\n      iszero\n      tag_150\n      jumpi\n        /* \"#utility.yul\":306:307   */\n      0x00\n        /* \"#utility.yul\":303:304   */\n      dup1\n        /* \"#utility.yul\":296:308   */\n      revert\n        /* \"#utility.yul\":264:266   */\n    tag_150:\n        /* \"#utility.yul\":328:334   */\n      dup2\n        /* \"#utility.yul\":319:334   */\n      swap1\n      pop\n        /* \"#utility.yul\":254:340   */\n      swap3\n      swap2\n      pop\n      pop\n      jump\t// out\n        /* \"#utility.yul\":346:485   */\n    tag_151:\n      0x00\n        /* \"#utility.yul\":430:436   */\n      dup2\n        /* \"#utility.yul\":417:437   */\n      calldataload\n        /* \"#utility.yul\":408:437   */\n      swap1\n      pop\n        /* \"#utility.yul\":446:479   */\n      tag_153\n        /* \"#utility.yul\":473:478   */\n      dup2\n        /* \"#utility.yul\":446:479   */\n      tag_154\n      jump\t// in\n    tag_153:\n        /* \"#utility.yul\":398:485   */\n      swap3\n      swap2\n      pop\n      pop\n      jump\t// out\n        /* \"#utility.yul\":491:898   */\n    tag_19:\n      0x00\n      dup1\n        /* \"#utility.yul\":616:618   */\n      0x40\n        /* \"#utility.yul\":604:613   */\n      dup4\n        /* \"#utility.yul\":595:602   */\n      dup6\n        /* \"#utility.yul\":591:614   */\n      sub\n        /* \"#utility.yul\":587:619   */\n      slt\n        /* \"#utility.yul\":584:586   */\n      iszero\n      tag_156\n      jumpi\n        /* \"#utility.yul\":632:633   */\n      0x00\n        /* \"#utility.yul\":629:630   */\n      dup1\n        /* \"#utility.yul\":622:634   */\n      revert\n        /* \"#utility.yul\":584:586   */\n    tag_156:\n        /* \"#utility.yul\":675:676   */\n      0x00\n        /* \"#utility.yul\":700:753   */\n      tag_157\n        /* \"#utility.yul\":745:752   */\n      dup6\n        /* \"#utility.yul\":736:742   */\n      dup3\n        /* \"#utility.yul\":725:734   */\n      dup7\n        /* \"#utility.yul\":721:743   */\n      add\n        /* \"#utility.yul\":700:753   */\n      tag_144\n      jump\t// in\n    tag_157:\n        /* \"#utility.yul\":690:753   */\n      swap3\n      pop\n        /* \"#utility.yul\":646:763   */\n      pop\n        /* \"#utility.yul\":802:804   */\n      0x20\n        /* \"#utility.yul\":828:881   */\n      tag_158\n        /* \"#utility.yul\":873:880   */\n      dup6\n        /* \"#utility.yul\":864:870   */\n      dup3\n        /* \"#utility.yul\":853:862   */\n      dup7\n        /* \"#utility.yul\":849:871   */\n      add\n        /* \"#utility.yul\":828:881   */\n      tag_151\n      jump\t// in\n    tag_158:\n        /* \"#utility.yul\":818:881   */\n      swap2\n      pop\n        /* \"#utility.yul\":773:891   */\n      pop\n        /* \"#utility.yul\":574:898   */\n      swap3\n      pop\n      swap3\n      swap1\n      pop\n      jump\t// out\n        /* \"#utility.yul\":904:1305   */\n    tag_25:\n      0x00\n        /* \"#utility.yul\":1035:1037   */\n      0x20\n        /* \"#utility.yul\":1023:1032   */\n      dup3\n        /* \"#utility.yul\":1014:1021   */\n      dup5\n        /* \"#utility.yul\":1010:1033   */\n      sub\n        /* \"#utility.yul\":1006:1038   */\n      slt\n        /* \"#utility.yul\":1003:1005   */\n      iszero\n      tag_160\n      jumpi\n        /* \"#utility.yul\":1051:1052   */\n      0x00\n        /* \"#utility.yul\":1048:1049   */\n      dup1\n        /* \"#utility.yul\":1041:1053   */\n      revert\n        /* \"#utility.yul\":1003:1005   */\n    tag_160:\n        /* \"#utility.yul\":1122:1123   */\n      0x00\n        /* \"#utility.yul\":1111:1120   */\n      dup3\n        /* \"#utility.yul\":1107:1124   */\n      add\n        /* \"#utility.yul\":1094:1125   */\n      calldataload\n        /* \"#utility.yul\":1152:1170   */\n      0xffffffffffffffff\n        /* \"#utility.yul\":1144:1150   */\n      dup2\n        /* \"#utility.yul\":1141:1171   */\n      gt\n        /* \"#utility.yul\":1138:1140   */\n      iszero\n      tag_161\n      jumpi\n        /* \"#utility.yul\":1184:1185   */\n      0x00\n        /* \"#utility.yul\":1181:1182   */\n      dup1\n        /* \"#utility.yul\":1174:1186   */\n      revert\n        /* \"#utility.yul\":1138:1140   */\n    tag_161:\n        /* \"#utility.yul\":1212:1288   */\n      tag_162\n        /* \"#utility.yul\":1280:1287   */\n      dup5\n        /* \"#utility.yul\":1271:1277   */\n      dup3\n        /* \"#utility.yul\":1260:1269   */\n      dup6\n        /* \"#utility.yul\":1256:1278   */\n      add\n        /* \"#utility.yul\":1212:1288   */\n      tag_148\n      jump\t// in\n    tag_162:\n        /* \"#utility.yul\":1202:1288   */\n      swap2\n      pop\n        /* \"#utility.yul\":1065:1298   */\n      pop\n        /* \"#utility.yul\":993:1305   */\n      swap3\n      swap2\n      pop\n      pop\n      jump\t// out\n        /* \"#utility.yul\":1311:1573   */\n    tag_29:\n      0x00\n        /* \"#utility.yul\":1419:1421   */\n      0x20\n        /* \"#utility.yul\":1407:1416   */\n      dup3\n        /* \"#utility.yul\":1398:1405   */\n      dup5\n        /* \"#utility.yul\":1394:1417   */\n      sub\n        /* \"#utility.yul\":1390:1422   */\n      slt\n        /* \"#utility.yul\":1387:1389   */\n      iszero\n      tag_164\n      jumpi\n        /* \"#utility.yul\":1435:1436   */\n      0x00\n        /* \"#utility.yul\":1432:1433   */\n      dup1\n        /* \"#utility.yul\":1425:1437   */\n      revert\n        /* \"#utility.yul\":1387:1389   */\n    tag_164:\n        /* \"#utility.yul\":1478:1479   */\n      0x00\n        /* \"#utility.yul\":1503:1556   */\n      tag_165\n        /* \"#utility.yul\":1548:1555   */\n      dup5\n        /* \"#utility.yul\":1539:1545   */\n      dup3\n        /* \"#utility.yul\":1528:1537   */\n      dup6\n        /* \"#utility.yul\":1524:1546   */\n      add\n        /* \"#utility.yul\":1503:1556   */\n      tag_151\n      jump\t// in\n    tag_165:\n        /* \"#utility.yul\":1493:1556   */\n      swap2\n      pop\n        /* \"#utility.yul\":1449:1566   */\n      pop\n        /* \"#utility.yul\":1377:1573   */\n      swap3\n      swap2\n      pop\n      pop\n      jump\t// out\n        /* \"#utility.yul\":1579:1986   */\n    tag_13:\n      0x00\n      dup1\n        /* \"#utility.yul\":1704:1706   */\n      0x40\n        /* \"#utility.yul\":1692:1701   */\n      dup4\n        /* \"#utility.yul\":1683:1690   */\n      dup6\n        /* \"#utility.yul\":1679:1702   */\n      sub\n        /* \"#utility.yul\":1675:1707   */\n      slt\n        /* \"#utility.yul\":1672:1674   */\n      iszero\n      tag_167\n      jumpi\n        /* \"#utility.yul\":1720:1721   */\n      0x00\n        /* \"#utility.yul\":1717:1718   */\n      dup1\n        /* \"#utility.yul\":1710:1722   */\n      revert\n        /* \"#utility.yul\":1672:1674   */\n    tag_167:\n        /* \"#utility.yul\":1763:1764   */\n      0x00\n        /* \"#utility.yul\":1788:1841   */\n      tag_168\n        /* \"#utility.yul\":1833:1840   */\n      dup6\n        /* \"#utility.yul\":1824:1830   */\n      dup3\n        /* \"#utility.yul\":1813:1822   */\n      dup7\n        /* \"#utility.yul\":1809:1831   */\n      add\n        /* \"#utility.yul\":1788:1841   */\n      tag_151\n      jump\t// in\n    tag_168:\n        /* \"#utility.yul\":1778:1841   */\n      swap3\n      pop\n        /* \"#utility.yul\":1734:1851   */\n      pop\n        /* \"#utility.yul\":1890:1892   */\n      0x20\n        /* \"#utility.yul\":1916:1969   */\n      tag_169\n        /* \"#utility.yul\":1961:1968   */\n      dup6\n        /* \"#utility.yul\":1952:1958   */\n      dup3\n        /* \"#utility.yul\":1941:1950   */\n      dup7\n        /* \"#utility.yul\":1937:1959   */\n      add\n        /* \"#utility.yul\":1916:1969   */\n      tag_151\n      jump\t// in\n    tag_169:\n        /* \"#utility.yul\":1906:1969   */\n      swap2\n      pop\n        /* \"#utility.yul\":1861:1979   */\n      pop\n        /* \"#utility.yul\":1662:1986   */\n      swap3\n      pop\n      swap3\n      swap1\n      pop\n      jump\t// out\n        /* \"#utility.yul\":1992:2110   */\n    tag_170:\n        /* \"#utility.yul\":2079:2103   */\n      tag_172\n        /* \"#utility.yul\":2097:2102   */\n      dup2\n        /* \"#utility.yul\":2079:2103   */\n      tag_173\n      jump\t// in\n    tag_172:\n        /* \"#utility.yul\":2074:2077   */\n      dup3\n        /* \"#utility.yul\":2067:2104   */\n      mstore\n        /* \"#utility.yul\":2057:2110   */\n      pop\n      pop\n      jump\t// out\n        /* \"#utility.yul\":2116:2225   */\n    tag_174:\n        /* \"#utility.yul\":2197:2218   */\n      tag_176\n        /* \"#utility.yul\":2212:2217   */\n      dup2\n        /* \"#utility.yul\":2197:2218   */\n      tag_177\n      jump\t// in\n    tag_176:\n        /* \"#utility.yul\":2192:2195   */\n      dup3\n        /* \"#utility.yul\":2185:2219   */\n      mstore\n        /* \"#utility.yul\":2175:2225   */\n      pop\n      pop\n      jump\t// out\n        /* \"#utility.yul\":2231:2595   */\n    tag_178:\n      0x00\n        /* \"#utility.yul\":2347:2386   */\n      tag_180\n        /* \"#utility.yul\":2380:2385   */\n      dup3\n        /* \"#utility.yul\":2347:2386   */\n      tag_181\n      jump\t// in\n    tag_180:\n        /* \"#utility.yul\":2402:2473   */\n      tag_182\n        /* \"#utility.yul\":2466:2472   */\n      dup2\n        /* \"#utility.yul\":2461:2464   */\n      dup6\n        /* \"#utility.yul\":2402:2473   */\n      tag_183\n      jump\t// in\n    tag_182:\n        /* \"#utility.yul\":2395:2473   */\n      swap4\n      pop\n        /* \"#utility.yul\":2482:2534   */\n      tag_184\n        /* \"#utility.yul\":2527:2533   */\n      dup2\n        /* \"#utility.yul\":2522:2525   */\n      dup6\n        /* \"#utility.yul\":2515:2519   */\n      0x20\n        /* \"#utility.yul\":2508:2513   */\n      dup7\n        /* \"#utility.yul\":2504:2520   */\n      add\n        /* \"#utility.yul\":2482:2534   */\n      tag_185\n      jump\t// in\n    tag_184:\n        /* \"#utility.yul\":2559:2588   */\n      tag_186\n        /* \"#utility.yul\":2581:2587   */\n      dup2\n        /* \"#utility.yul\":2559:2588   */\n      tag_187\n      jump\t// in\n    tag_186:\n        /* \"#utility.yul\":2554:2557   */\n      dup5\n        /* \"#utility.yul\":2550:2589   */\n      add\n        /* \"#utility.yul\":2543:2589   */\n      swap2\n      pop\n        /* \"#utility.yul\":2323:2595   */\n      pop\n      swap3\n      swap2\n      pop\n      pop\n      jump\t// out\n        /* \"#utility.yul\":2601:2929   */\n    tag_188:\n      0x00\n        /* \"#utility.yul\":2764:2831   */\n      tag_190\n        /* \"#utility.yul\":2828:2830   */\n      0x1e\n        /* \"#utility.yul\":2823:2826   */\n      dup4\n        /* \"#utility.yul\":2764:2831   */\n      tag_183\n      jump\t// in\n    tag_190:\n        /* \"#utility.yul\":2757:2831   */\n      swap2\n      pop\n        /* \"#utility.yul\":2861:2893   */\n      0x596f7520686176656e7420626f72726f776564207468617420626f6f6b210000\n        /* \"#utility.yul\":2857:2858   */\n      0x00\n        /* \"#utility.yul\":2852:2855   */\n      dup4\n        /* \"#utility.yul\":2848:2859   */\n      add\n        /* \"#utility.yul\":2841:2894   */\n      mstore\n        /* \"#utility.yul\":2920:2922   */\n      0x20\n        /* \"#utility.yul\":2915:2918   */\n      dup3\n        /* \"#utility.yul\":2911:2923   */\n      add\n        /* \"#utility.yul\":2904:2923   */\n      swap1\n      pop\n        /* \"#utility.yul\":2747:2929   */\n      swap2\n      swap1\n      pop\n      jump\t// out\n        /* \"#utility.yul\":2935:3301   */\n    tag_191:\n      0x00\n        /* \"#utility.yul\":3098:3165   */\n      tag_193\n        /* \"#utility.yul\":3162:3164   */\n      0x22\n        /* \"#utility.yul\":3157:3160   */\n      dup4\n        /* \"#utility.yul\":3098:3165   */\n      tag_183\n      jump\t// in\n    tag_193:\n        /* \"#utility.yul\":3091:3165   */\n      swap2\n      pop\n        /* \"#utility.yul\":3195:3229   */\n      0x596f7527766520616c726561647920626f72726f776564207468617420626f6f\n        /* \"#utility.yul\":3191:3192   */\n      0x00\n        /* \"#utility.yul\":3186:3189   */\n      dup4\n        /* \"#utility.yul\":3182:3193   */\n      add\n        /* \"#utility.yul\":3175:3230   */\n      mstore\n        /* \"#utility.yul\":3261:3265   */\n      0x6b21000000000000000000000000000000000000000000000000000000000000\n        /* \"#utility.yul\":3256:3258   */\n      0x20\n        /* \"#utility.yul\":3251:3254   */\n      dup4\n        /* \"#utility.yul\":3247:3259   */\n      add\n        /* \"#utility.yul\":3240:3266   */\n      mstore\n        /* \"#utility.yul\":3292:3294   */\n      0x40\n        /* \"#utility.yul\":3287:3290   */\n      dup3\n        /* \"#utility.yul\":3283:3295   */\n      add\n        /* \"#utility.yul\":3276:3295   */\n      swap1\n      pop\n        /* \"#utility.yul\":3081:3301   */\n      swap2\n      swap1\n      pop\n      jump\t// out\n        /* \"#utility.yul\":3307:3631   */\n    tag_194:\n      0x00\n        /* \"#utility.yul\":3470:3537   */\n      tag_196\n        /* \"#utility.yul\":3534:3536   */\n      0x1a\n        /* \"#utility.yul\":3529:3532   */\n      dup4\n        /* \"#utility.yul\":3470:3537   */\n      tag_183\n      jump\t// in\n    tag_196:\n        /* \"#utility.yul\":3463:3537   */\n      swap2\n      pop\n        /* \"#utility.yul\":3567:3595   */\n      0x43757272656e742075736572206973206e6f74206f776e657221000000000000\n        /* \"#utility.yul\":3563:3564   */\n      0x00\n        /* \"#utility.yul\":3558:3561   */\n      dup4\n        /* \"#utility.yul\":3554:3565   */\n      add\n        /* \"#utility.yul\":3547:3596   */\n      mstore\n        /* \"#utility.yul\":3622:3624   */\n      0x20\n        /* \"#utility.yul\":3617:3620   */\n      dup3\n        /* \"#utility.yul\":3613:3625   */\n      add\n        /* \"#utility.yul\":3606:3625   */\n      swap1\n      pop\n        /* \"#utility.yul\":3453:3631   */\n      swap2\n      swap1\n      pop\n      jump\t// out\n        /* \"#utility.yul\":3637:4005   */\n    tag_197:\n      0x00\n        /* \"#utility.yul\":3800:3867   */\n      tag_199\n        /* \"#utility.yul\":3864:3866   */\n      0x24\n        /* \"#utility.yul\":3859:3862   */\n      dup4\n        /* \"#utility.yul\":3800:3867   */\n      tag_183\n      jump\t// in\n    tag_199:\n        /* \"#utility.yul\":3793:3867   */\n      swap2\n      pop\n        /* \"#utility.yul\":3897:3931   */\n      0x5468697320626f6f6b206973206f7574206f662073746f636b2063757272656e\n        /* \"#utility.yul\":3893:3894   */\n      0x00\n        /* \"#utility.yul\":3888:3891   */\n      dup4\n        /* \"#utility.yul\":3884:3895   */\n      add\n        /* \"#utility.yul\":3877:3932   */\n      mstore\n        /* \"#utility.yul\":3963:3969   */\n      0x746c792100000000000000000000000000000000000000000000000000000000\n        /* \"#utility.yul\":3958:3960   */\n      0x20\n        /* \"#utility.yul\":3953:3956   */\n      dup4\n        /* \"#utility.yul\":3949:3961   */\n      add\n        /* \"#utility.yul\":3942:3970   */\n      mstore\n        /* \"#utility.yul\":3996:3998   */\n      0x40\n        /* \"#utility.yul\":3991:3994   */\n      dup3\n        /* \"#utility.yul\":3987:3999   */\n      add\n        /* \"#utility.yul\":3980:3999   */\n      swap1\n      pop\n        /* \"#utility.yul\":3783:4005   */\n      swap2\n      swap1\n      pop\n      jump\t// out\n        /* \"#utility.yul\":4011:4378   */\n    tag_200:\n      0x00\n        /* \"#utility.yul\":4174:4241   */\n      tag_202\n        /* \"#utility.yul\":4238:4240   */\n      0x23\n        /* \"#utility.yul\":4233:4236   */\n      dup4\n        /* \"#utility.yul\":4174:4241   */\n      tag_183\n      jump\t// in\n    tag_202:\n        /* \"#utility.yul\":4167:4241   */\n      swap2\n      pop\n        /* \"#utility.yul\":4271:4305   */\n      0x426f6f6b20616c72656164792065786973747320696e20746865204c69627261\n        /* \"#utility.yul\":4267:4268   */\n      0x00\n        /* \"#utility.yul\":4262:4265   */\n      dup4\n        /* \"#utility.yul\":4258:4269   */\n      add\n        /* \"#utility.yul\":4251:4306   */\n      mstore\n        /* \"#utility.yul\":4337:4342   */\n      0x7279210000000000000000000000000000000000000000000000000000000000\n        /* \"#utility.yul\":4332:4334   */\n      0x20\n        /* \"#utility.yul\":4327:4330   */\n      dup4\n        /* \"#utility.yul\":4323:4335   */\n      add\n        /* \"#utility.yul\":4316:4343   */\n      mstore\n        /* \"#utility.yul\":4369:4371   */\n      0x40\n        /* \"#utility.yul\":4364:4367   */\n      dup3\n        /* \"#utility.yul\":4360:4372   */\n      add\n        /* \"#utility.yul\":4353:4372   */\n      swap1\n      pop\n        /* \"#utility.yul\":4157:4378   */\n      swap2\n      swap1\n      pop\n      jump\t// out\n        /* \"#utility.yul\":4384:4713   */\n    tag_203:\n      0x00\n        /* \"#utility.yul\":4547:4614   */\n      tag_205\n        /* \"#utility.yul\":4611:4613   */\n      0x1f\n        /* \"#utility.yul\":4606:4609   */\n      dup4\n        /* \"#utility.yul\":4547:4614   */\n      tag_183\n      jump\t// in\n    tag_205:\n        /* \"#utility.yul\":4540:4614   */\n      swap2\n      pop\n        /* \"#utility.yul\":4644:4677   */\n      0x426f6f6b20646f6573206e6f7420657869737420696e206c6962726172792100\n        /* \"#utility.yul\":4640:4641   */\n      0x00\n        /* \"#utility.yul\":4635:4638   */\n      dup4\n        /* \"#utility.yul\":4631:4642   */\n      add\n        /* \"#utility.yul\":4624:4678   */\n      mstore\n        /* \"#utility.yul\":4704:4706   */\n      0x20\n        /* \"#utility.yul\":4699:4702   */\n      dup3\n        /* \"#utility.yul\":4695:4707   */\n      add\n        /* \"#utility.yul\":4688:4707   */\n      swap1\n      pop\n        /* \"#utility.yul\":4530:4713   */\n      swap2\n      swap1\n      pop\n      jump\t// out\n        /* \"#utility.yul\":4719:4837   */\n    tag_206:\n        /* \"#utility.yul\":4806:4830   */\n      tag_208\n        /* \"#utility.yul\":4824:4829   */\n      dup2\n        /* \"#utility.yul\":4806:4830   */\n      tag_209\n      jump\t// in\n    tag_208:\n        /* \"#utility.yul\":4801:4804   */\n      dup3\n        /* \"#utility.yul\":4794:4831   */\n      mstore\n        /* \"#utility.yul\":4784:4837   */\n      pop\n      pop\n      jump\t// out\n        /* \"#utility.yul\":4843:5065   */\n    tag_16:\n      0x00\n        /* \"#utility.yul\":4974:4976   */\n      0x20\n        /* \"#utility.yul\":4963:4972   */\n      dup3\n        /* \"#utility.yul\":4959:4977   */\n      add\n        /* \"#utility.yul\":4951:4977   */\n      swap1\n      pop\n        /* \"#utility.yul\":4987:5058   */\n      tag_211\n        /* \"#utility.yul\":5055:5056   */\n      0x00\n        /* \"#utility.yul\":5044:5053   */\n      dup4\n        /* \"#utility.yul\":5040:5057   */\n      add\n        /* \"#utility.yul\":5031:5037   */\n      dup5\n        /* \"#utility.yul\":4987:5058   */\n      tag_170\n      jump\t// in\n    tag_211:\n        /* \"#utility.yul\":4941:5065   */\n      swap3\n      swap2\n      pop\n      pop\n      jump\t// out\n        /* \"#utility.yul\":5071:5490   */\n    tag_99:\n      0x00\n        /* \"#utility.yul\":5275:5277   */\n      0x20\n        /* \"#utility.yul\":5264:5273   */\n      dup3\n        /* \"#utility.yul\":5260:5278   */\n      add\n        /* \"#utility.yul\":5252:5278   */\n      swap1\n      pop\n        /* \"#utility.yul\":5324:5333   */\n      dup2\n        /* \"#utility.yul\":5318:5322   */\n      dup2\n        /* \"#utility.yul\":5314:5334   */\n      sub\n        /* \"#utility.yul\":5310:5311   */\n      0x00\n        /* \"#utility.yul\":5299:5308   */\n      dup4\n        /* \"#utility.yul\":5295:5312   */\n      add\n        /* \"#utility.yul\":5288:5335   */\n      mstore\n        /* \"#utility.yul\":5352:5483   */\n      tag_213\n        /* \"#utility.yul\":5478:5482   */\n      dup2\n        /* \"#utility.yul\":5352:5483   */\n      tag_188\n      jump\t// in\n    tag_213:\n        /* \"#utility.yul\":5344:5483   */\n      swap1\n      pop\n        /* \"#utility.yul\":5242:5490   */\n      swap2\n      swap1\n      pop\n      jump\t// out\n        /* \"#utility.yul\":5496:5915   */\n    tag_80:\n      0x00\n        /* \"#utility.yul\":5700:5702   */\n      0x20\n        /* \"#utility.yul\":5689:5698   */\n      dup3\n        /* \"#utility.yul\":5685:5703   */\n      add\n        /* \"#utility.yul\":5677:5703   */\n      swap1\n      pop\n        /* \"#utility.yul\":5749:5758   */\n      dup2\n        /* \"#utility.yul\":5743:5747   */\n      dup2\n        /* \"#utility.yul\":5739:5759   */\n      sub\n        /* \"#utility.yul\":5735:5736   */\n      0x00\n        /* \"#utility.yul\":5724:5733   */\n      dup4\n        /* \"#utility.yul\":5720:5737   */\n      add\n        /* \"#utility.yul\":5713:5760   */\n      mstore\n        /* \"#utility.yul\":5777:5908   */\n      tag_215\n        /* \"#utility.yul\":5903:5907   */\n      dup2\n        /* \"#utility.yul\":5777:5908   */\n      tag_191\n      jump\t// in\n    tag_215:\n        /* \"#utility.yul\":5769:5908   */\n      swap1\n      pop\n        /* \"#utility.yul\":5667:5915   */\n      swap2\n      swap1\n      pop\n      jump\t// out\n        /* \"#utility.yul\":5921:6340   */\n    tag_49:\n      0x00\n        /* \"#utility.yul\":6125:6127   */\n      0x20\n        /* \"#utility.yul\":6114:6123   */\n      dup3\n        /* \"#utility.yul\":6110:6128   */\n      add\n        /* \"#utility.yul\":6102:6128   */\n      swap1\n      pop\n        /* \"#utility.yul\":6174:6183   */\n      dup2\n        /* \"#utility.yul\":6168:6172   */\n      dup2\n        /* \"#utility.yul\":6164:6184   */\n      sub\n        /* \"#utility.yul\":6160:6161   */\n      0x00\n        /* \"#utility.yul\":6149:6158   */\n      dup4\n        /* \"#utility.yul\":6145:6162   */\n      add\n        /* \"#utility.yul\":6138:6185   */\n      mstore\n        /* \"#utility.yul\":6202:6333   */\n      tag_217\n        /* \"#utility.yul\":6328:6332   */\n      dup2\n        /* \"#utility.yul\":6202:6333   */\n      tag_194\n      jump\t// in\n    tag_217:\n        /* \"#utility.yul\":6194:6333   */\n      swap1\n      pop\n        /* \"#utility.yul\":6092:6340   */\n      swap2\n      swap1\n      pop\n      jump\t// out\n        /* \"#utility.yul\":6346:6765   */\n    tag_73:\n      0x00\n        /* \"#utility.yul\":6550:6552   */\n      0x20\n        /* \"#utility.yul\":6539:6548   */\n      dup3\n        /* \"#utility.yul\":6535:6553   */\n      add\n        /* \"#utility.yul\":6527:6553   */\n      swap1\n      pop\n        /* \"#utility.yul\":6599:6608   */\n      dup2\n        /* \"#utility.yul\":6593:6597   */\n      dup2\n        /* \"#utility.yul\":6589:6609   */\n      sub\n        /* \"#utility.yul\":6585:6586   */\n      0x00\n        /* \"#utility.yul\":6574:6583   */\n      dup4\n        /* \"#utility.yul\":6570:6587   */\n      add\n        /* \"#utility.yul\":6563:6610   */\n      mstore\n        /* \"#utility.yul\":6627:6758   */\n      tag_219\n        /* \"#utility.yul\":6753:6757   */\n      dup2\n        /* \"#utility.yul\":6627:6758   */\n      tag_197\n      jump\t// in\n    tag_219:\n        /* \"#utility.yul\":6619:6758   */\n      swap1\n      pop\n        /* \"#utility.yul\":6517:6765   */\n      swap2\n      swap1\n      pop\n      jump\t// out\n        /* \"#utility.yul\":6771:7190   */\n    tag_53:\n      0x00\n        /* \"#utility.yul\":6975:6977   */\n      0x20\n        /* \"#utility.yul\":6964:6973   */\n      dup3\n        /* \"#utility.yul\":6960:6978   */\n      add\n        /* \"#utility.yul\":6952:6978   */\n      swap1\n      pop\n        /* \"#utility.yul\":7024:7033   */\n      dup2\n        /* \"#utility.yul\":7018:7022   */\n      dup2\n        /* \"#utility.yul\":7014:7034   */\n      sub\n        /* \"#utility.yul\":7010:7011   */\n      0x00\n        /* \"#utility.yul\":6999:7008   */\n      dup4\n        /* \"#utility.yul\":6995:7012   */\n      add\n        /* \"#utility.yul\":6988:7035   */\n      mstore\n        /* \"#utility.yul\":7052:7183   */\n      tag_221\n        /* \"#utility.yul\":7178:7182   */\n      dup2\n        /* \"#utility.yul\":7052:7183   */\n      tag_200\n      jump\t// in\n    tag_221:\n        /* \"#utility.yul\":7044:7183   */\n      swap1\n      pop\n        /* \"#utility.yul\":6942:7190   */\n      swap2\n      swap1\n      pop\n      jump\t// out\n        /* \"#utility.yul\":7196:7615   */\n    tag_69:\n      0x00\n        /* \"#utility.yul\":7400:7402   */\n      0x20\n        /* \"#utility.yul\":7389:7398   */\n      dup3\n        /* \"#utility.yul\":7385:7403   */\n      add\n        /* \"#utility.yul\":7377:7403   */\n      swap1\n      pop\n        /* \"#utility.yul\":7449:7458   */\n      dup2\n        /* \"#utility.yul\":7443:7447   */\n      dup2\n        /* \"#utility.yul\":7439:7459   */\n      sub\n        /* \"#utility.yul\":7435:7436   */\n      0x00\n        /* \"#utility.yul\":7424:7433   */\n      dup4\n        /* \"#utility.yul\":7420:7437   */\n      add\n        /* \"#utility.yul\":7413:7460   */\n      mstore\n        /* \"#utility.yul\":7477:7608   */\n      tag_223\n        /* \"#utility.yul\":7603:7607   */\n      dup2\n        /* \"#utility.yul\":7477:7608   */\n      tag_203\n      jump\t// in\n    tag_223:\n        /* \"#utility.yul\":7469:7608   */\n      swap1\n      pop\n        /* \"#utility.yul\":7367:7615   */\n      swap2\n      swap1\n      pop\n      jump\t// out\n        /* \"#utility.yul\":7621:7843   */\n    tag_22:\n      0x00\n        /* \"#utility.yul\":7752:7754   */\n      0x20\n        /* \"#utility.yul\":7741:7750   */\n      dup3\n        /* \"#utility.yul\":7737:7755   */\n      add\n        /* \"#utility.yul\":7729:7755   */\n      swap1\n      pop\n        /* \"#utility.yul\":7765:7836   */\n      tag_225\n        /* \"#utility.yul\":7833:7834   */\n      0x00\n        /* \"#utility.yul\":7822:7831   */\n      dup4\n        /* \"#utility.yul\":7818:7835   */\n      add\n        /* \"#utility.yul\":7809:7815   */\n      dup5\n        /* \"#utility.yul\":7765:7836   */\n      tag_206\n      jump\t// in\n    tag_225:\n        /* \"#utility.yul\":7719:7843   */\n      swap3\n      swap2\n      pop\n      pop\n      jump\t// out\n        /* \"#utility.yul\":7849:8481   */\n    tag_32:\n      0x00\n        /* \"#utility.yul\":8078:8081   */\n      0x80\n        /* \"#utility.yul\":8067:8076   */\n      dup3\n        /* \"#utility.yul\":8063:8082   */\n      add\n        /* \"#utility.yul\":8055:8082   */\n      swap1\n      pop\n        /* \"#utility.yul\":8092:8163   */\n      tag_227\n        /* \"#utility.yul\":8160:8161   */\n      0x00\n        /* \"#utility.yul\":8149:8158   */\n      dup4\n        /* \"#utility.yul\":8145:8162   */\n      add\n        /* \"#utility.yul\":8136:8142   */\n      dup8\n        /* \"#utility.yul\":8092:8163   */\n      tag_206\n      jump\t// in\n    tag_227:\n        /* \"#utility.yul\":8210:8219   */\n      dup2\n        /* \"#utility.yul\":8204:8208   */\n      dup2\n        /* \"#utility.yul\":8200:8220   */\n      sub\n        /* \"#utility.yul\":8195:8197   */\n      0x20\n        /* \"#utility.yul\":8184:8193   */\n      dup4\n        /* \"#utility.yul\":8180:8198   */\n      add\n        /* \"#utility.yul\":8173:8221   */\n      mstore\n        /* \"#utility.yul\":8238:8316   */\n      tag_228\n        /* \"#utility.yul\":8311:8315   */\n      dup2\n        /* \"#utility.yul\":8302:8308   */\n      dup7\n        /* \"#utility.yul\":8238:8316   */\n      tag_178\n      jump\t// in\n    tag_228:\n        /* \"#utility.yul\":8230:8316   */\n      swap1\n      pop\n        /* \"#utility.yul\":8326:8398   */\n      tag_229\n        /* \"#utility.yul\":8394:8396   */\n      0x40\n        /* \"#utility.yul\":8383:8392   */\n      dup4\n        /* \"#utility.yul\":8379:8397   */\n      add\n        /* \"#utility.yul\":8370:8376   */\n      dup6\n        /* \"#utility.yul\":8326:8398   */\n      tag_206\n      jump\t// in\n    tag_229:\n        /* \"#utility.yul\":8408:8474   */\n      tag_230\n        /* \"#utility.yul\":8470:8472   */\n      0x60\n        /* \"#utility.yul\":8459:8468   */\n      dup4\n        /* \"#utility.yul\":8455:8473   */\n      add\n        /* \"#utility.yul\":8446:8452   */\n      dup5\n        /* \"#utility.yul\":8408:8474   */\n      tag_174\n      jump\t// in\n    tag_230:\n        /* \"#utility.yul\":8045:8481   */\n      swap6\n      swap5\n      pop\n      pop\n      pop\n      pop\n      pop\n      jump\t// out\n        /* \"#utility.yul\":8487:9011   */\n    tag_55:\n      0x00\n      dup1\n        /* \"#utility.yul\":8627:8638   */\n      dup4\n        /* \"#utility.yul\":8614:8639   */\n      calldataload\n        /* \"#utility.yul\":8727:8728   */\n      0x01\n        /* \"#utility.yul\":8721:8725   */\n      0x20\n        /* \"#utility.yul\":8717:8729   */\n      sub\n        /* \"#utility.yul\":8706:8714   */\n      dup5\n        /* \"#utility.yul\":8690:8704   */\n      calldatasize\n        /* \"#utility.yul\":8686:8715   */\n      sub\n        /* \"#utility.yul\":8682:8730   */\n      sub\n        /* \"#utility.yul\":8662:8680   */\n      dup2\n        /* \"#utility.yul\":8658:8731   */\n      slt\n        /* \"#utility.yul\":8648:8650   */\n      tag_232\n      jumpi\n        /* \"#utility.yul\":8745:8746   */\n      0x00\n        /* \"#utility.yul\":8742:8743   */\n      dup1\n        /* \"#utility.yul\":8735:8747   */\n      revert\n        /* \"#utility.yul\":8648:8650   */\n    tag_232:\n        /* \"#utility.yul\":8780:8798   */\n      dup1\n        /* \"#utility.yul\":8770:8778   */\n      dup5\n        /* \"#utility.yul\":8766:8799   */\n      add\n        /* \"#utility.yul\":8758:8799   */\n      swap3\n      pop\n        /* \"#utility.yul\":8832:8836   */\n      dup3\n        /* \"#utility.yul\":8819:8837   */\n      calldataload\n        /* \"#utility.yul\":8809:8837   */\n      swap2\n      pop\n        /* \"#utility.yul\":8860:8878   */\n      0xffffffffffffffff\n        /* \"#utility.yul\":8852:8858   */\n      dup3\n        /* \"#utility.yul\":8849:8879   */\n      gt\n        /* \"#utility.yul\":8846:8848   */\n      iszero\n      tag_233\n      jumpi\n        /* \"#utility.yul\":8892:8893   */\n      0x00\n        /* \"#utility.yul\":8889:8890   */\n      dup1\n        /* \"#utility.yul\":8882:8894   */\n      revert\n        /* \"#utility.yul\":8846:8848   */\n    tag_233:\n        /* \"#utility.yul\":8923:8925   */\n      0x20\n        /* \"#utility.yul\":8917:8921   */\n      dup4\n        /* \"#utility.yul\":8913:8926   */\n      add\n        /* \"#utility.yul\":8905:8926   */\n      swap3\n      pop\n        /* \"#utility.yul\":8980:8984   */\n      0x01\n        /* \"#utility.yul\":8972:8978   */\n      dup3\n        /* \"#utility.yul\":8968:8985   */\n      mul\n        /* \"#utility.yul\":8952:8966   */\n      calldatasize\n        /* \"#utility.yul\":8948:8986   */\n      sub\n        /* \"#utility.yul\":8942:8946   */\n      dup4\n        /* \"#utility.yul\":8938:8987   */\n      sgt\n        /* \"#utility.yul\":8935:8937   */\n      iszero\n      tag_234\n      jumpi\n        /* \"#utility.yul\":9000:9001   */\n      0x00\n        /* \"#utility.yul\":8997:8998   */\n      dup1\n        /* \"#utility.yul\":8990:9002   */\n      revert\n        /* \"#utility.yul\":8935:8937   */\n    tag_234:\n        /* \"#utility.yul\":8578:9011   */\n      pop\n      swap3\n      pop\n      swap3\n      swap1\n      pop\n      jump\t// out\n        /* \"#utility.yul\":9017:9116   */\n    tag_181:\n      0x00\n        /* \"#utility.yul\":9103:9108   */\n      dup2\n        /* \"#utility.yul\":9097:9109   */\n      mload\n        /* \"#utility.yul\":9087:9109   */\n      swap1\n      pop\n        /* \"#utility.yul\":9076:9116   */\n      swap2\n      swap1\n      pop\n      jump\t// out\n        /* \"#utility.yul\":9122:9291   */\n    tag_183:\n      0x00\n        /* \"#utility.yul\":9240:9246   */\n      dup3\n        /* \"#utility.yul\":9235:9238   */\n      dup3\n        /* \"#utility.yul\":9228:9247   */\n      mstore\n        /* \"#utility.yul\":9280:9284   */\n      0x20\n        /* \"#utility.yul\":9275:9278   */\n      dup3\n        /* \"#utility.yul\":9271:9285   */\n      add\n        /* \"#utility.yul\":9256:9285   */\n      swap1\n      pop\n        /* \"#utility.yul\":9218:9291   */\n      swap3\n      swap2\n      pop\n      pop\n      jump\t// out\n        /* \"#utility.yul\":9297:9488   */\n    tag_125:\n      0x00\n        /* \"#utility.yul\":9357:9377   */\n      tag_238\n        /* \"#utility.yul\":9375:9376   */\n      dup3\n        /* \"#utility.yul\":9357:9377   */\n      tag_209\n      jump\t// in\n    tag_238:\n        /* \"#utility.yul\":9352:9377   */\n      swap2\n      pop\n        /* \"#utility.yul\":9391:9411   */\n      tag_239\n        /* \"#utility.yul\":9409:9410   */\n      dup4\n        /* \"#utility.yul\":9391:9411   */\n      tag_209\n      jump\t// in\n    tag_239:\n        /* \"#utility.yul\":9386:9411   */\n      swap3\n      pop\n        /* \"#utility.yul\":9430:9431   */\n      dup3\n        /* \"#utility.yul\":9427:9428   */\n      dup3\n        /* \"#utility.yul\":9424:9432   */\n      lt\n        /* \"#utility.yul\":9421:9423   */\n      iszero\n      tag_240\n      jumpi\n        /* \"#utility.yul\":9435:9453   */\n      tag_241\n      tag_242\n      jump\t// in\n    tag_241:\n        /* \"#utility.yul\":9421:9423   */\n    tag_240:\n        /* \"#utility.yul\":9480:9481   */\n      dup3\n        /* \"#utility.yul\":9477:9478   */\n      dup3\n        /* \"#utility.yul\":9473:9482   */\n      sub\n        /* \"#utility.yul\":9465:9482   */\n      swap1\n      pop\n        /* \"#utility.yul\":9342:9488   */\n      swap3\n      swap2\n      pop\n      pop\n      jump\t// out\n        /* \"#utility.yul\":9494:9590   */\n    tag_173:\n      0x00\n        /* \"#utility.yul\":9560:9584   */\n      tag_244\n        /* \"#utility.yul\":9578:9583   */\n      dup3\n        /* \"#utility.yul\":9560:9584   */\n      tag_245\n      jump\t// in\n    tag_244:\n        /* \"#utility.yul\":9549:9584   */\n      swap1\n      pop\n        /* \"#utility.yul\":9539:9590   */\n      swap2\n      swap1\n      pop\n      jump\t// out\n        /* \"#utility.yul\":9596:9686   */\n    tag_177:\n      0x00\n        /* \"#utility.yul\":9673:9678   */\n      dup2\n        /* \"#utility.yul\":9666:9679   */\n      iszero\n        /* \"#utility.yul\":9659:9680   */\n      iszero\n        /* \"#utility.yul\":9648:9680   */\n      swap1\n      pop\n        /* \"#utility.yul\":9638:9686   */\n      swap2\n      swap1\n      pop\n      jump\t// out\n        /* \"#utility.yul\":9692:9818   */\n    tag_245:\n      0x00\n        /* \"#utility.yul\":9769:9811   */\n      0xffffffffffffffffffffffffffffffffffffffff\n        /* \"#utility.yul\":9762:9767   */\n      dup3\n        /* \"#utility.yul\":9758:9812   */\n      and\n        /* \"#utility.yul\":9747:9812   */\n      swap1\n      pop\n        /* \"#utility.yul\":9737:9818   */\n      swap2\n      swap1\n      pop\n      jump\t// out\n        /* \"#utility.yul\":9824:9901   */\n    tag_209:\n      0x00\n        /* \"#utility.yul\":9890:9895   */\n      dup2\n        /* \"#utility.yul\":9879:9895   */\n      swap1\n      pop\n        /* \"#utility.yul\":9869:9901   */\n      swap2\n      swap1\n      pop\n      jump\t// out\n        /* \"#utility.yul\":9907:10214   */\n    tag_185:\n        /* \"#utility.yul\":9975:9976   */\n      0x00\n        /* \"#utility.yul\":9985:10098   */\n    tag_250:\n        /* \"#utility.yul\":9999:10005   */\n      dup4\n        /* \"#utility.yul\":9996:9997   */\n      dup2\n        /* \"#utility.yul\":9993:10006   */\n      lt\n        /* \"#utility.yul\":9985:10098   */\n      iszero\n      tag_252\n      jumpi\n        /* \"#utility.yul\":10084:10085   */\n      dup1\n        /* \"#utility.yul\":10079:10082   */\n      dup3\n        /* \"#utility.yul\":10075:10086   */\n      add\n        /* \"#utility.yul\":10069:10087   */\n      mload\n        /* \"#utility.yul\":10065:10066   */\n      dup2\n        /* \"#utility.yul\":10060:10063   */\n      dup5\n        /* \"#utility.yul\":10056:10067   */\n      add\n        /* \"#utility.yul\":10049:10088   */\n      mstore\n        /* \"#utility.yul\":10021:10023   */\n      0x20\n        /* \"#utility.yul\":10018:10019   */\n      dup2\n        /* \"#utility.yul\":10014:10024   */\n      add\n        /* \"#utility.yul\":10009:10024   */\n      swap1\n      pop\n        /* \"#utility.yul\":9985:10098   */\n      jump(tag_250)\n    tag_252:\n        /* \"#utility.yul\":10116:10122   */\n      dup4\n        /* \"#utility.yul\":10113:10114   */\n      dup2\n        /* \"#utility.yul\":10110:10123   */\n      gt\n        /* \"#utility.yul\":10107:10109   */\n      iszero\n      tag_253\n      jumpi\n        /* \"#utility.yul\":10196:10197   */\n      0x00\n        /* \"#utility.yul\":10187:10193   */\n      dup5\n        /* \"#utility.yul\":10182:10185   */\n      dup5\n        /* \"#utility.yul\":10178:10194   */\n      add\n        /* \"#utility.yul\":10171:10198   */\n      mstore\n        /* \"#utility.yul\":10107:10109   */\n    tag_253:\n        /* \"#utility.yul\":9956:10214   */\n      pop\n      pop\n      pop\n      pop\n      jump\t// out\n        /* \"#utility.yul\":10220:10391   */\n    tag_89:\n      0x00\n        /* \"#utility.yul\":10282:10306   */\n      tag_255\n        /* \"#utility.yul\":10300:10305   */\n      dup3\n        /* \"#utility.yul\":10282:10306   */\n      tag_209\n      jump\t// in\n    tag_255:\n        /* \"#utility.yul\":10273:10306   */\n      swap2\n      pop\n        /* \"#utility.yul\":10328:10332   */\n      0x00\n        /* \"#utility.yul\":10321:10326   */\n      dup3\n        /* \"#utility.yul\":10318:10333   */\n      eq\n        /* \"#utility.yul\":10315:10317   */\n      iszero\n      tag_256\n      jumpi\n        /* \"#utility.yul\":10336:10354   */\n      tag_257\n      tag_242\n      jump\t// in\n    tag_257:\n        /* \"#utility.yul\":10315:10317   */\n    tag_256:\n        /* \"#utility.yul\":10383:10384   */\n      0x01\n        /* \"#utility.yul\":10376:10381   */\n      dup3\n        /* \"#utility.yul\":10372:10385   */\n      sub\n        /* \"#utility.yul\":10365:10385   */\n      swap1\n      pop\n        /* \"#utility.yul\":10263:10391   */\n      swap2\n      swap1\n      pop\n      jump\t// out\n        /* \"#utility.yul\":10397:10717   */\n    tag_61:\n      0x00\n        /* \"#utility.yul\":10478:10479   */\n      0x02\n        /* \"#utility.yul\":10472:10476   */\n      dup3\n        /* \"#utility.yul\":10468:10480   */\n      div\n        /* \"#utility.yul\":10458:10480   */\n      swap1\n      pop\n        /* \"#utility.yul\":10525:10526   */\n      0x01\n        /* \"#utility.yul\":10519:10523   */\n      dup3\n        /* \"#utility.yul\":10515:10527   */\n      and\n        /* \"#utility.yul\":10546:10564   */\n      dup1\n        /* \"#utility.yul\":10536:10538   */\n      tag_259\n      jumpi\n        /* \"#utility.yul\":10602:10606   */\n      0x7f\n        /* \"#utility.yul\":10594:10600   */\n      dup3\n        /* \"#utility.yul\":10590:10607   */\n      and\n        /* \"#utility.yul\":10580:10607   */\n      swap2\n      pop\n        /* \"#utility.yul\":10536:10538   */\n    tag_259:\n        /* \"#utility.yul\":10664:10666   */\n      0x20\n        /* \"#utility.yul\":10656:10662   */\n      dup3\n        /* \"#utility.yul\":10653:10667   */\n      lt\n        /* \"#utility.yul\":10633:10651   */\n      dup2\n        /* \"#utility.yul\":10630:10668   */\n      eq\n        /* \"#utility.yul\":10627:10629   */\n      iszero\n      tag_260\n      jumpi\n        /* \"#utility.yul\":10683:10701   */\n      tag_261\n      tag_262\n      jump\t// in\n    tag_261:\n        /* \"#utility.yul\":10627:10629   */\n    tag_260:\n        /* \"#utility.yul\":10448:10717   */\n      pop\n      swap2\n      swap1\n      pop\n      jump\t// out\n        /* \"#utility.yul\":10723:10956   */\n    tag_59:\n      0x00\n        /* \"#utility.yul\":10785:10809   */\n      tag_264\n        /* \"#utility.yul\":10803:10808   */\n      dup3\n        /* \"#utility.yul\":10785:10809   */\n      tag_209\n      jump\t// in\n    tag_264:\n        /* \"#utility.yul\":10776:10809   */\n      swap2\n      pop\n        /* \"#utility.yul\":10831:10897   */\n      0xffffffffffffffffffffffffffffffffffffffffffffffffffffffffffffffff\n        /* \"#utility.yul\":10824:10829   */\n      dup3\n        /* \"#utility.yul\":10821:10898   */\n      eq\n        /* \"#utility.yul\":10818:10820   */\n      iszero\n      tag_265\n      jumpi\n        /* \"#utility.yul\":10901:10919   */\n      tag_266\n      tag_242\n      jump\t// in\n    tag_266:\n        /* \"#utility.yul\":10818:10820   */\n    tag_265:\n        /* \"#utility.yul\":10948:10949   */\n      0x01\n        /* \"#utility.yul\":10941:10946   */\n      dup3\n        /* \"#utility.yul\":10937:10950   */\n      add\n        /* \"#utility.yul\":10930:10950   */\n      swap1\n      pop\n        /* \"#utility.yul\":10766:10956   */\n      swap2\n      swap1\n      pop\n      jump\t// out\n        /* \"#utility.yul\":10962:11142   */\n    tag_242:\n        /* \"#utility.yul\":11010:11087   */\n      0x4e487b7100000000000000000000000000000000000000000000000000000000\n        /* \"#utility.yul\":11007:11008   */\n      0x00\n        /* \"#utility.yul\":11000:11088   */\n      mstore\n        /* \"#utility.yul\":11107:11111   */\n      0x11\n        /* \"#utility.yul\":11104:11105   */\n      0x04\n        /* \"#utility.yul\":11097:11112   */\n      mstore\n        /* \"#utility.yul\":11131:11135   */\n      0x24\n        /* \"#utility.yul\":11128:11129   */\n      0x00\n        /* \"#utility.yul\":11121:11136   */\n      revert\n        /* \"#utility.yul\":11148:11328   */\n    tag_262:\n        /* \"#utility.yul\":11196:11273   */\n      0x4e487b7100000000000000000000000000000000000000000000000000000000\n        /* \"#utility.yul\":11193:11194   */\n      0x00\n        /* \"#utility.yul\":11186:11274   */\n      mstore\n        /* \"#utility.yul\":11293:11297   */\n      0x22\n        /* \"#utility.yul\":11290:11291   */\n      0x04\n        /* \"#utility.yul\":11283:11298   */\n      mstore\n        /* \"#utility.yul\":11317:11321   */\n      0x24\n        /* \"#utility.yul\":11314:11315   */\n      0x00\n        /* \"#utility.yul\":11307:11322   */\n      revert\n        /* \"#utility.yul\":11334:11436   */\n    tag_187:\n      0x00\n        /* \"#utility.yul\":11426:11428   */\n      0x1f\n        /* \"#utility.yul\":11422:11429   */\n      not\n        /* \"#utility.yul\":11417:11419   */\n      0x1f\n        /* \"#utility.yul\":11410:11415   */\n      dup4\n        /* \"#utility.yul\":11406:11420   */\n      add\n        /* \"#utility.yul\":11402:11430   */\n      and\n        /* \"#utility.yul\":11392:11430   */\n      swap1\n      pop\n        /* \"#utility.yul\":11382:11436   */\n      swap2\n      swap1\n      pop\n      jump\t// out\n        /* \"#utility.yul\":11442:11564   */\n    tag_147:\n        /* \"#utility.yul\":11515:11539   */\n      tag_271\n        /* \"#utility.yul\":11533:11538   */\n      dup2\n        /* \"#utility.yul\":11515:11539   */\n      tag_173\n      jump\t// in\n    tag_271:\n        /* \"#utility.yul\":11508:11513   */\n      dup2\n        /* \"#utility.yul\":11505:11540   */\n      eq\n        /* \"#utility.yul\":11495:11497   */\n      tag_272\n      jumpi\n        /* \"#utility.yul\":11554:11555   */\n      0x00\n        /* \"#utility.yul\":11551:11552   */\n      dup1\n        /* \"#utility.yul\":11544:11556   */\n      revert\n        /* \"#utility.yul\":11495:11497   */\n    tag_272:\n        /* \"#utility.yul\":11485:11564   */\n      pop\n      jump\t// out\n        /* \"#utility.yul\":11570:11692   */\n    tag_154:\n        /* \"#utility.yul\":11643:11667   */\n      tag_274\n        /* \"#utility.yul\":11661:11666   */\n      dup2\n        /* \"#utility.yul\":11643:11667   */\n      tag_209\n      jump\t// in\n    tag_274:\n        /* \"#utility.yul\":11636:11641   */\n      dup2\n        /* \"#utility.yul\":11633:11668   */\n      eq\n        /* \"#utility.yul\":11623:11625   */\n      tag_275\n      jumpi\n        /* \"#utility.yul\":11682:11683   */\n      0x00\n        /* \"#utility.yul\":11679:11680   */\n      dup1\n        /* \"#utility.yul\":11672:11684   */\n      revert\n        /* \"#utility.yul\":11623:11625   */\n    tag_275:\n        /* \"#utility.yul\":11613:11692   */\n      pop\n      jump\t// out\n\n    auxdata: 0xa2646970667358221220a9055b14cc5b044526b49a05254a3f7a5218becc5032a9219b29caf9a1a1866764736f6c63430008000033\n}\n",
				"bytecode": {
					"linkReferences": {},
					"object": "608060405234801561001057600080fd5b50336000806101000a81548173ffffffffffffffffffffffffffffffffffffffff021916908373ffffffffffffffffffffffffffffffffffffffff160217905550611425806100606000396000f3fe608060405234801561001057600080fd5b506004361061007d5760003560e01c806371e25e5a1161005b57806371e25e5a146100fe5780638da5cb5b146101315780639649faa31461014f578063b8dd17db1461016b5761007d565b806318413898146100825780632b3819fe146100b25780635d16b308146100e2575b600080fd5b61009c60048036038101906100979190610db5565b610187565b6040516100a99190611049565b60405180910390f35b6100cc60048036038101906100c79190610d0f565b6101d5565b6040516100d99190611124565b60405180910390f35b6100fc60048036038101906100f79190610d4b565b610206565b005b61011860048036038101906101139190610d8c565b6103bc565b604051610128949392919061113f565b60405180910390f35b610139610481565b6040516101469190611049565b60405180910390f35b61016960048036038101906101649190610d8c565b6104a5565b005b61018560048036038101906101809190610d8c565b6107ea565b005b600360205281600052604060002081815481106101a357600080fd5b906000526020600020016000915091509054906101000a900473ffffffffffffffffffffffffffffffffffffffff1681565b600460205281600052604060002081815481106101f157600080fd5b90600052602060002001600091509150505481565b60008054906101000a900473ffffffffffffffffffffffffffffffffffffffff1673ffffffffffffffffffffffffffffffffffffffff163373ffffffffffffffffffffffffffffffffffffffff1614610294576040517f08c379a000000000000000000000000000000000000000000000000000000000815260040161028b906110a4565b60405180910390fd5b60026000600154815260200190815260200160002060030160009054906101000a900460ff16156102fa576040517f08c379a00000000000000000000000000000000000000000000000000000000081526004016102f1906110e4565b60405180910390fd5b60015460026000600154815260200190815260200160002060000181905550808060200190610329919061118b565b600260006001548152602001908152602001600020600101919061034e929190610c27565b50806040013560026000600154815260200190815260200160002060020181905550600160026000600154815260200190815260200160002060030160006101000a81548160ff021916908315150217905550600160008154809291906103b490611309565b919050555050565b60026020528060005260406000206000915090508060000154908060010180546103e5906112d7565b80601f0160208091040260200160405190810160405280929190818152602001828054610411906112d7565b801561045e5780601f106104335761010080835404028352916020019161045e565b820191906000526020600020905b81548152906001019060200180831161044157829003601f168201915b5050505050908060020154908060030160009054906101000a900460ff16905084565b60008054906101000a900473ffffffffffffffffffffffffffffffffffffffff1681565b806002600082815260200190815260200160002060030160009054906101000a900460ff16610509576040517f08c379a000000000000000000000000000000000000000000000000000000000815260040161050090611104565b60405180910390fd5b600060026000848152602001908152602001600020600201541415610563576040517f08c379a000000000000000000000000000000000000000000000000000000000815260040161055a906110c4565b60405180910390fd5b6105fa82600460003373ffffffffffffffffffffffffffffffffffffffff1673ffffffffffffffffffffffffffffffffffffffff1681526020019081526020016000208054806020026020016040519081016040528092919081815260200182805480156105f057602002820191906000526020600020905b8154815260200190600101908083116105dc575b505050505061099c565b1561063a576040517f08c379a000000000000000000000000000000000000000000000000000000000815260040161063190611084565b60405180910390fd5b600460003373ffffffffffffffffffffffffffffffffffffffff1673ffffffffffffffffffffffffffffffffffffffff168152602001908152602001600020829080600181540180825580915050600190039060005260206000200160009091909190915055610741336003600085815260200190815260200160002080548060200260200160405190810160405280929190818152602001828054801561073757602002820191906000526020600020905b8160009054906101000a900473ffffffffffffffffffffffffffffffffffffffff1673ffffffffffffffffffffffffffffffffffffffff16815260200190600101908083116106ed575b5050505050610a1e565b6107ba5760036000838152602001908152602001600020339080600181540180825580915050600190039060005260206000200160009091909190916101000a81548173ffffffffffffffffffffffffffffffffffffffff021916908373ffffffffffffffffffffffffffffffffffffffff1602179055505b6002600083815260200190815260200160002060020160008154809291906107e1906112ad565b91905055505050565b806002600082815260200190815260200160002060030160009054906101000a900460ff1661084e576040517f08c379a000000000000000000000000000000000000000000000000000000000815260040161084590611104565b60405180910390fd5b6108e582600460003373ffffffffffffffffffffffffffffffffffffffff1673ffffffffffffffffffffffffffffffffffffffff1681526020019081526020016000208054806020026020016040519081016040528092919081815260200182805480156108db57602002820191906000526020600020905b8154815260200190600101908083116108c7575b505050505061099c565b610924576040517f08c379a000000000000000000000000000000000000000000000000000000000815260040161091b90611064565b60405180910390fd5b61096c600460003373ffffffffffffffffffffffffffffffffffffffff1673ffffffffffffffffffffffffffffffffffffffff16815260200190815260200160002083610acc565b60026000838152602001908152602001600020600201600081548092919061099390611309565b91905055505050565b600080600090505b8251811015610a12578281815181106109e6577f4e487b7100000000000000000000000000000000000000000000000000000000600052603260045260246000fd5b60200260200101518414156109ff576001915050610a18565b8080610a0a90611309565b9150506109a4565b50600090505b92915050565b600080600090505b8251811015610ac057828181518110610a68577f4e487b7100000000000000000000000000000000000000000000000000000000600052603260045260246000fd5b602002602001015173ffffffffffffffffffffffffffffffffffffffff168473ffffffffffffffffffffffffffffffffffffffff161415610aad576001915050610ac6565b8080610ab890611309565b915050610a26565b50600090505b92915050565b60005b8280549050811015610c2257828181548110610b14577f4e487b7100000000000000000000000000000000000000000000000000000000600052603260045260246000fd5b9060005260206000200154821415610c0f578260018480549050610b3891906111fe565b81548110610b6f577f4e487b7100000000000000000000000000000000000000000000000000000000600052603260045260246000fd5b9060005260206000200154838281548110610bb3577f4e487b7100000000000000000000000000000000000000000000000000000000600052603260045260246000fd5b906000526020600020018190555082805480610bf8577f4e487b7100000000000000000000000000000000000000000000000000000000600052603160045260246000fd5b600190038181906000526020600020016000905590555b8080610c1a90611309565b915050610acf565b505050565b828054610c33906112d7565b90600052602060002090601f016020900481019282610c555760008555610c9c565b82601f10610c6e57803560ff1916838001178555610c9c565b82800160010185558215610c9c579182015b82811115610c9b578235825591602001919060010190610c80565b5b509050610ca99190610cad565b5090565b5b80821115610cc6576000816000905550600101610cae565b5090565b600081359050610cd9816113c1565b92915050565b600060808284031215610cf157600080fd5b81905092915050565b600081359050610d09816113d8565b92915050565b60008060408385031215610d2257600080fd5b6000610d3085828601610cca565b9250506020610d4185828601610cfa565b9150509250929050565b600060208284031215610d5d57600080fd5b600082013567ffffffffffffffff811115610d7757600080fd5b610d8384828501610cdf565b91505092915050565b600060208284031215610d9e57600080fd5b6000610dac84828501610cfa565b91505092915050565b60008060408385031215610dc857600080fd5b6000610dd685828601610cfa565b9250506020610de785828601610cfa565b9150509250929050565b610dfa81611232565b82525050565b610e0981611244565b82525050565b6000610e1a826111e2565b610e2481856111ed565b9350610e3481856020860161127a565b610e3d816113b0565b840191505092915050565b6000610e55601e836111ed565b91507f596f7520686176656e7420626f72726f776564207468617420626f6f6b2100006000830152602082019050919050565b6000610e956022836111ed565b91507f596f7527766520616c726561647920626f72726f776564207468617420626f6f60008301527f6b210000000000000000000000000000000000000000000000000000000000006020830152604082019050919050565b6000610efb601a836111ed565b91507f43757272656e742075736572206973206e6f74206f776e6572210000000000006000830152602082019050919050565b6000610f3b6024836111ed565b91507f5468697320626f6f6b206973206f7574206f662073746f636b2063757272656e60008301527f746c7921000000000000000000000000000000000000000000000000000000006020830152604082019050919050565b6000610fa16023836111ed565b91507f426f6f6b20616c72656164792065786973747320696e20746865204c6962726160008301527f72792100000000000000000000000000000000000000000000000000000000006020830152604082019050919050565b6000611007601f836111ed565b91507f426f6f6b20646f6573206e6f7420657869737420696e206c69627261727921006000830152602082019050919050565b61104381611270565b82525050565b600060208201905061105e6000830184610df1565b92915050565b6000602082019050818103600083015261107d81610e48565b9050919050565b6000602082019050818103600083015261109d81610e88565b9050919050565b600060208201905081810360008301526110bd81610eee565b9050919050565b600060208201905081810360008301526110dd81610f2e565b9050919050565b600060208201905081810360008301526110fd81610f94565b9050919050565b6000602082019050818103600083015261111d81610ffa565b9050919050565b6000602082019050611139600083018461103a565b92915050565b6000608082019050611154600083018761103a565b81810360208301526111668186610e0f565b9050611175604083018561103a565b6111826060830184610e00565b95945050505050565b600080833560016020038436030381126111a457600080fd5b80840192508235915067ffffffffffffffff8211156111c257600080fd5b6020830192506001820236038313156111da57600080fd5b509250929050565b600081519050919050565b600082825260208201905092915050565b600061120982611270565b915061121483611270565b92508282101561122757611226611352565b5b828203905092915050565b600061123d82611250565b9050919050565b60008115159050919050565b600073ffffffffffffffffffffffffffffffffffffffff82169050919050565b6000819050919050565b60005b8381101561129857808201518184015260208101905061127d565b838111156112a7576000848401525b50505050565b60006112b882611270565b915060008214156112cc576112cb611352565b5b600182039050919050565b600060028204905060018216806112ef57607f821691505b6020821081141561130357611302611381565b5b50919050565b600061131482611270565b91507fffffffffffffffffffffffffffffffffffffffffffffffffffffffffffffffff82141561134757611346611352565b5b600182019050919050565b7f4e487b7100000000000000000000000000000000000000000000000000000000600052601160045260246000fd5b7f4e487b7100000000000000000000000000000000000000000000000000000000600052602260045260246000fd5b6000601f19601f8301169050919050565b6113ca81611232565b81146113d557600080fd5b50565b6113e181611270565b81146113ec57600080fd5b5056fea2646970667358221220a9055b14cc5b044526b49a05254a3f7a5218becc5032a9219b29caf9a1a1866764736f6c63430008000033",
					"opcodes": "PUSH1 0x80 PUSH1 0x40 MSTORE CALLVALUE DUP1 ISZERO PUSH2 0x10 JUMPI PUSH1 0x0 DUP1 REVERT JUMPDEST POP CALLER PUSH1 0x0 DUP1 PUSH2 0x100 EXP DUP2 SLOAD DUP2 PUSH20 0xFFFFFFFFFFFFFFFFFFFFFFFFFFFFFFFFFFFFFFFF MUL NOT AND SWAP1 DUP4 PUSH20 0xFFFFFFFFFFFFFFFFFFFFFFFFFFFFFFFFFFFFFFFF AND MUL OR SWAP1 SSTORE POP PUSH2 0x1425 DUP1 PUSH2 0x60 PUSH1 0x0 CODECOPY PUSH1 0x0 RETURN INVALID PUSH1 0x80 PUSH1 0x40 MSTORE CALLVALUE DUP1 ISZERO PUSH2 0x10 JUMPI PUSH1 0x0 DUP1 REVERT JUMPDEST POP PUSH1 0x4 CALLDATASIZE LT PUSH2 0x7D JUMPI PUSH1 0x0 CALLDATALOAD PUSH1 0xE0 SHR DUP1 PUSH4 0x71E25E5A GT PUSH2 0x5B JUMPI DUP1 PUSH4 0x71E25E5A EQ PUSH2 0xFE JUMPI DUP1 PUSH4 0x8DA5CB5B EQ PUSH2 0x131 JUMPI DUP1 PUSH4 0x9649FAA3 EQ PUSH2 0x14F JUMPI DUP1 PUSH4 0xB8DD17DB EQ PUSH2 0x16B JUMPI PUSH2 0x7D JUMP JUMPDEST DUP1 PUSH4 0x18413898 EQ PUSH2 0x82 JUMPI DUP1 PUSH4 0x2B3819FE EQ PUSH2 0xB2 JUMPI DUP1 PUSH4 0x5D16B308 EQ PUSH2 0xE2 JUMPI JUMPDEST PUSH1 0x0 DUP1 REVERT JUMPDEST PUSH2 0x9C PUSH1 0x4 DUP1 CALLDATASIZE SUB DUP2 ADD SWAP1 PUSH2 0x97 SWAP2 SWAP1 PUSH2 0xDB5 JUMP JUMPDEST PUSH2 0x187 JUMP JUMPDEST PUSH1 0x40 MLOAD PUSH2 0xA9 SWAP2 SWAP1 PUSH2 0x1049 JUMP JUMPDEST PUSH1 0x40 MLOAD DUP1 SWAP2 SUB SWAP1 RETURN JUMPDEST PUSH2 0xCC PUSH1 0x4 DUP1 CALLDATASIZE SUB DUP2 ADD SWAP1 PUSH2 0xC7 SWAP2 SWAP1 PUSH2 0xD0F JUMP JUMPDEST PUSH2 0x1D5 JUMP JUMPDEST PUSH1 0x40 MLOAD PUSH2 0xD9 SWAP2 SWAP1 PUSH2 0x1124 JUMP JUMPDEST PUSH1 0x40 MLOAD DUP1 SWAP2 SUB SWAP1 RETURN JUMPDEST PUSH2 0xFC PUSH1 0x4 DUP1 CALLDATASIZE SUB DUP2 ADD SWAP1 PUSH2 0xF7 SWAP2 SWAP1 PUSH2 0xD4B JUMP JUMPDEST PUSH2 0x206 JUMP JUMPDEST STOP JUMPDEST PUSH2 0x118 PUSH1 0x4 DUP1 CALLDATASIZE SUB DUP2 ADD SWAP1 PUSH2 0x113 SWAP2 SWAP1 PUSH2 0xD8C JUMP JUMPDEST PUSH2 0x3BC JUMP JUMPDEST PUSH1 0x40 MLOAD PUSH2 0x128 SWAP5 SWAP4 SWAP3 SWAP2 SWAP1 PUSH2 0x113F JUMP JUMPDEST PUSH1 0x40 MLOAD DUP1 SWAP2 SUB SWAP1 RETURN JUMPDEST PUSH2 0x139 PUSH2 0x481 JUMP JUMPDEST PUSH1 0x40 MLOAD PUSH2 0x146 SWAP2 SWAP1 PUSH2 0x1049 JUMP JUMPDEST PUSH1 0x40 MLOAD DUP1 SWAP2 SUB SWAP1 RETURN JUMPDEST PUSH2 0x169 PUSH1 0x4 DUP1 CALLDATASIZE SUB DUP2 ADD SWAP1 PUSH2 0x164 SWAP2 SWAP1 PUSH2 0xD8C JUMP JUMPDEST PUSH2 0x4A5 JUMP JUMPDEST STOP JUMPDEST PUSH2 0x185 PUSH1 0x4 DUP1 CALLDATASIZE SUB DUP2 ADD SWAP1 PUSH2 0x180 SWAP2 SWAP1 PUSH2 0xD8C JUMP JUMPDEST PUSH2 0x7EA JUMP JUMPDEST STOP JUMPDEST PUSH1 0x3 PUSH1 0x20 MSTORE DUP2 PUSH1 0x0 MSTORE PUSH1 0x40 PUSH1 0x0 KECCAK256 DUP2 DUP2 SLOAD DUP2 LT PUSH2 0x1A3 JUMPI PUSH1 0x0 DUP1 REVERT JUMPDEST SWAP1 PUSH1 0x0 MSTORE PUSH1 0x20 PUSH1 0x0 KECCAK256 ADD PUSH1 0x0 SWAP2 POP SWAP2 POP SWAP1 SLOAD SWAP1 PUSH2 0x100 EXP SWAP1 DIV PUSH20 0xFFFFFFFFFFFFFFFFFFFFFFFFFFFFFFFFFFFFFFFF AND DUP2 JUMP JUMPDEST PUSH1 0x4 PUSH1 0x20 MSTORE DUP2 PUSH1 0x0 MSTORE PUSH1 0x40 PUSH1 0x0 KECCAK256 DUP2 DUP2 SLOAD DUP2 LT PUSH2 0x1F1 JUMPI PUSH1 0x0 DUP1 REVERT JUMPDEST SWAP1 PUSH1 0x0 MSTORE PUSH1 0x20 PUSH1 0x0 KECCAK256 ADD PUSH1 0x0 SWAP2 POP SWAP2 POP POP SLOAD DUP2 JUMP JUMPDEST PUSH1 0x0 DUP1 SLOAD SWAP1 PUSH2 0x100 EXP SWAP1 DIV PUSH20 0xFFFFFFFFFFFFFFFFFFFFFFFFFFFFFFFFFFFFFFFF AND PUSH20 0xFFFFFFFFFFFFFFFFFFFFFFFFFFFFFFFFFFFFFFFF AND CALLER PUSH20 0xFFFFFFFFFFFFFFFFFFFFFFFFFFFFFFFFFFFFFFFF AND EQ PUSH2 0x294 JUMPI PUSH1 0x40 MLOAD PUSH32 0x8C379A000000000000000000000000000000000000000000000000000000000 DUP2 MSTORE PUSH1 0x4 ADD PUSH2 0x28B SWAP1 PUSH2 0x10A4 JUMP JUMPDEST PUSH1 0x40 MLOAD DUP1 SWAP2 SUB SWAP1 REVERT JUMPDEST PUSH1 0x2 PUSH1 0x0 PUSH1 0x1 SLOAD DUP2 MSTORE PUSH1 0x20 ADD SWAP1 DUP2 MSTORE PUSH1 0x20 ADD PUSH1 0x0 KECCAK256 PUSH1 0x3 ADD PUSH1 0x0 SWAP1 SLOAD SWAP1 PUSH2 0x100 EXP SWAP1 DIV PUSH1 0xFF AND ISZERO PUSH2 0x2FA JUMPI PUSH1 0x40 MLOAD PUSH32 0x8C379A000000000000000000000000000000000000000000000000000000000 DUP2 MSTORE PUSH1 0x4 ADD PUSH2 0x2F1 SWAP1 PUSH2 0x10E4 JUMP JUMPDEST PUSH1 0x40 MLOAD DUP1 SWAP2 SUB SWAP1 REVERT JUMPDEST PUSH1 0x1 SLOAD PUSH1 0x2 PUSH1 0x0 PUSH1 0x1 SLOAD DUP2 MSTORE PUSH1 0x20 ADD SWAP1 DUP2 MSTORE PUSH1 0x20 ADD PUSH1 0x0 KECCAK256 PUSH1 0x0 ADD DUP2 SWAP1 SSTORE POP DUP1 DUP1 PUSH1 0x20 ADD SWAP1 PUSH2 0x329 SWAP2 SWAP1 PUSH2 0x118B JUMP JUMPDEST PUSH1 0x2 PUSH1 0x0 PUSH1 0x1 SLOAD DUP2 MSTORE PUSH1 0x20 ADD SWAP1 DUP2 MSTORE PUSH1 0x20 ADD PUSH1 0x0 KECCAK256 PUSH1 0x1 ADD SWAP2 SWAP1 PUSH2 0x34E SWAP3 SWAP2 SWAP1 PUSH2 0xC27 JUMP JUMPDEST POP DUP1 PUSH1 0x40 ADD CALLDATALOAD PUSH1 0x2 PUSH1 0x0 PUSH1 0x1 SLOAD DUP2 MSTORE PUSH1 0x20 ADD SWAP1 DUP2 MSTORE PUSH1 0x20 ADD PUSH1 0x0 KECCAK256 PUSH1 0x2 ADD DUP2 SWAP1 SSTORE POP PUSH1 0x1 PUSH1 0x2 PUSH1 0x0 PUSH1 0x1 SLOAD DUP2 MSTORE PUSH1 0x20 ADD SWAP1 DUP2 MSTORE PUSH1 0x20 ADD PUSH1 0x0 KECCAK256 PUSH1 0x3 ADD PUSH1 0x0 PUSH2 0x100 EXP DUP2 SLOAD DUP2 PUSH1 0xFF MUL NOT AND SWAP1 DUP4 ISZERO ISZERO MUL OR SWAP1 SSTORE POP PUSH1 0x1 PUSH1 0x0 DUP2 SLOAD DUP1 SWAP3 SWAP2 SWAP1 PUSH2 0x3B4 SWAP1 PUSH2 0x1309 JUMP JUMPDEST SWAP2 SWAP1 POP SSTORE POP POP JUMP JUMPDEST PUSH1 0x2 PUSH1 0x20 MSTORE DUP1 PUSH1 0x0 MSTORE PUSH1 0x40 PUSH1 0x0 KECCAK256 PUSH1 0x0 SWAP2 POP SWAP1 POP DUP1 PUSH1 0x0 ADD SLOAD SWAP1 DUP1 PUSH1 0x1 ADD DUP1 SLOAD PUSH2 0x3E5 SWAP1 PUSH2 0x12D7 JUMP JUMPDEST DUP1 PUSH1 0x1F ADD PUSH1 0x20 DUP1 SWAP2 DIV MUL PUSH1 0x20 ADD PUSH1 0x40 MLOAD SWAP1 DUP2 ADD PUSH1 0x40 MSTORE DUP1 SWAP3 SWAP2 SWAP1 DUP2 DUP2 MSTORE PUSH1 0x20 ADD DUP3 DUP1 SLOAD PUSH2 0x411 SWAP1 PUSH2 0x12D7 JUMP JUMPDEST DUP1 ISZERO PUSH2 0x45E JUMPI DUP1 PUSH1 0x1F LT PUSH2 0x433 JUMPI PUSH2 0x100 DUP1 DUP4 SLOAD DIV MUL DUP4 MSTORE SWAP2 PUSH1 0x20 ADD SWAP2 PUSH2 0x45E JUMP JUMPDEST DUP3 ADD SWAP2 SWAP1 PUSH1 0x0 MSTORE PUSH1 0x20 PUSH1 0x0 KECCAK256 SWAP1 JUMPDEST DUP2 SLOAD DUP2 MSTORE SWAP1 PUSH1 0x1 ADD SWAP1 PUSH1 0x20 ADD DUP1 DUP4 GT PUSH2 0x441 JUMPI DUP3 SWAP1 SUB PUSH1 0x1F AND DUP3 ADD SWAP2 JUMPDEST POP POP POP POP POP SWAP1 DUP1 PUSH1 0x2 ADD SLOAD SWAP1 DUP1 PUSH1 0x3 ADD PUSH1 0x0 SWAP1 SLOAD SWAP1 PUSH2 0x100 EXP SWAP1 DIV PUSH1 0xFF AND SWAP1 POP DUP5 JUMP JUMPDEST PUSH1 0x0 DUP1 SLOAD SWAP1 PUSH2 0x100 EXP SWAP1 DIV PUSH20 0xFFFFFFFFFFFFFFFFFFFFFFFFFFFFFFFFFFFFFFFF AND DUP2 JUMP JUMPDEST DUP1 PUSH1 0x2 PUSH1 0x0 DUP3 DUP2 MSTORE PUSH1 0x20 ADD SWAP1 DUP2 MSTORE PUSH1 0x20 ADD PUSH1 0x0 KECCAK256 PUSH1 0x3 ADD PUSH1 0x0 SWAP1 SLOAD SWAP1 PUSH2 0x100 EXP SWAP1 DIV PUSH1 0xFF AND PUSH2 0x509 JUMPI PUSH1 0x40 MLOAD PUSH32 0x8C379A000000000000000000000000000000000000000000000000000000000 DUP2 MSTORE PUSH1 0x4 ADD PUSH2 0x500 SWAP1 PUSH2 0x1104 JUMP JUMPDEST PUSH1 0x40 MLOAD DUP1 SWAP2 SUB SWAP1 REVERT JUMPDEST PUSH1 0x0 PUSH1 0x2 PUSH1 0x0 DUP5 DUP2 MSTORE PUSH1 0x20 ADD SWAP1 DUP2 MSTORE PUSH1 0x20 ADD PUSH1 0x0 KECCAK256 PUSH1 0x2 ADD SLOAD EQ ISZERO PUSH2 0x563 JUMPI PUSH1 0x40 MLOAD PUSH32 0x8C379A000000000000000000000000000000000000000000000000000000000 DUP2 MSTORE PUSH1 0x4 ADD PUSH2 0x55A SWAP1 PUSH2 0x10C4 JUMP JUMPDEST PUSH1 0x40 MLOAD DUP1 SWAP2 SUB SWAP1 REVERT JUMPDEST PUSH2 0x5FA DUP3 PUSH1 0x4 PUSH1 0x0 CALLER PUSH20 0xFFFFFFFFFFFFFFFFFFFFFFFFFFFFFFFFFFFFFFFF AND PUSH20 0xFFFFFFFFFFFFFFFFFFFFFFFFFFFFFFFFFFFFFFFF AND DUP2 MSTORE PUSH1 0x20 ADD SWAP1 DUP2 MSTORE PUSH1 0x20 ADD PUSH1 0x0 KECCAK256 DUP1 SLOAD DUP1 PUSH1 0x20 MUL PUSH1 0x20 ADD PUSH1 0x40 MLOAD SWAP1 DUP2 ADD PUSH1 0x40 MSTORE DUP1 SWAP3 SWAP2 SWAP1 DUP2 DUP2 MSTORE PUSH1 0x20 ADD DUP3 DUP1 SLOAD DUP1 ISZERO PUSH2 0x5F0 JUMPI PUSH1 0x20 MUL DUP3 ADD SWAP2 SWAP1 PUSH1 0x0 MSTORE PUSH1 0x20 PUSH1 0x0 KECCAK256 SWAP1 JUMPDEST DUP2 SLOAD DUP2 MSTORE PUSH1 0x20 ADD SWAP1 PUSH1 0x1 ADD SWAP1 DUP1 DUP4 GT PUSH2 0x5DC JUMPI JUMPDEST POP POP POP POP POP PUSH2 0x99C JUMP JUMPDEST ISZERO PUSH2 0x63A JUMPI PUSH1 0x40 MLOAD PUSH32 0x8C379A000000000000000000000000000000000000000000000000000000000 DUP2 MSTORE PUSH1 0x4 ADD PUSH2 0x631 SWAP1 PUSH2 0x1084 JUMP JUMPDEST PUSH1 0x40 MLOAD DUP1 SWAP2 SUB SWAP1 REVERT JUMPDEST PUSH1 0x4 PUSH1 0x0 CALLER PUSH20 0xFFFFFFFFFFFFFFFFFFFFFFFFFFFFFFFFFFFFFFFF AND PUSH20 0xFFFFFFFFFFFFFFFFFFFFFFFFFFFFFFFFFFFFFFFF AND DUP2 MSTORE PUSH1 0x20 ADD SWAP1 DUP2 MSTORE PUSH1 0x20 ADD PUSH1 0x0 KECCAK256 DUP3 SWAP1 DUP1 PUSH1 0x1 DUP2 SLOAD ADD DUP1 DUP3 SSTORE DUP1 SWAP2 POP POP PUSH1 0x1 SWAP1 SUB SWAP1 PUSH1 0x0 MSTORE PUSH1 0x20 PUSH1 0x0 KECCAK256 ADD PUSH1 0x0 SWAP1 SWAP2 SWAP1 SWAP2 SWAP1 SWAP2 POP SSTORE PUSH2 0x741 CALLER PUSH1 0x3 PUSH1 0x0 DUP6 DUP2 MSTORE PUSH1 0x20 ADD SWAP1 DUP2 MSTORE PUSH1 0x20 ADD PUSH1 0x0 KECCAK256 DUP1 SLOAD DUP1 PUSH1 0x20 MUL PUSH1 0x20 ADD PUSH1 0x40 MLOAD SWAP1 DUP2 ADD PUSH1 0x40 MSTORE DUP1 SWAP3 SWAP2 SWAP1 DUP2 DUP2 MSTORE PUSH1 0x20 ADD DUP3 DUP1 SLOAD DUP1 ISZERO PUSH2 0x737 JUMPI PUSH1 0x20 MUL DUP3 ADD SWAP2 SWAP1 PUSH1 0x0 MSTORE PUSH1 0x20 PUSH1 0x0 KECCAK256 SWAP1 JUMPDEST DUP2 PUSH1 0x0 SWAP1 SLOAD SWAP1 PUSH2 0x100 EXP SWAP1 DIV PUSH20 0xFFFFFFFFFFFFFFFFFFFFFFFFFFFFFFFFFFFFFFFF AND PUSH20 0xFFFFFFFFFFFFFFFFFFFFFFFFFFFFFFFFFFFFFFFF AND DUP2 MSTORE PUSH1 0x20 ADD SWAP1 PUSH1 0x1 ADD SWAP1 DUP1 DUP4 GT PUSH2 0x6ED JUMPI JUMPDEST POP POP POP POP POP PUSH2 0xA1E JUMP JUMPDEST PUSH2 0x7BA JUMPI PUSH1 0x3 PUSH1 0x0 DUP4 DUP2 MSTORE PUSH1 0x20 ADD SWAP1 DUP2 MSTORE PUSH1 0x20 ADD PUSH1 0x0 KECCAK256 CALLER SWAP1 DUP1 PUSH1 0x1 DUP2 SLOAD ADD DUP1 DUP3 SSTORE DUP1 SWAP2 POP POP PUSH1 0x1 SWAP1 SUB SWAP1 PUSH1 0x0 MSTORE PUSH1 0x20 PUSH1 0x0 KECCAK256 ADD PUSH1 0x0 SWAP1 SWAP2 SWAP1 SWAP2 SWAP1 SWAP2 PUSH2 0x100 EXP DUP2 SLOAD DUP2 PUSH20 0xFFFFFFFFFFFFFFFFFFFFFFFFFFFFFFFFFFFFFFFF MUL NOT AND SWAP1 DUP4 PUSH20 0xFFFFFFFFFFFFFFFFFFFFFFFFFFFFFFFFFFFFFFFF AND MUL OR SWAP1 SSTORE POP JUMPDEST PUSH1 0x2 PUSH1 0x0 DUP4 DUP2 MSTORE PUSH1 0x20 ADD SWAP1 DUP2 MSTORE PUSH1 0x20 ADD PUSH1 0x0 KECCAK256 PUSH1 0x2 ADD PUSH1 0x0 DUP2 SLOAD DUP1 SWAP3 SWAP2 SWAP1 PUSH2 0x7E1 SWAP1 PUSH2 0x12AD JUMP JUMPDEST SWAP2 SWAP1 POP SSTORE POP POP POP JUMP JUMPDEST DUP1 PUSH1 0x2 PUSH1 0x0 DUP3 DUP2 MSTORE PUSH1 0x20 ADD SWAP1 DUP2 MSTORE PUSH1 0x20 ADD PUSH1 0x0 KECCAK256 PUSH1 0x3 ADD PUSH1 0x0 SWAP1 SLOAD SWAP1 PUSH2 0x100 EXP SWAP1 DIV PUSH1 0xFF AND PUSH2 0x84E JUMPI PUSH1 0x40 MLOAD PUSH32 0x8C379A000000000000000000000000000000000000000000000000000000000 DUP2 MSTORE PUSH1 0x4 ADD PUSH2 0x845 SWAP1 PUSH2 0x1104 JUMP JUMPDEST PUSH1 0x40 MLOAD DUP1 SWAP2 SUB SWAP1 REVERT JUMPDEST PUSH2 0x8E5 DUP3 PUSH1 0x4 PUSH1 0x0 CALLER PUSH20 0xFFFFFFFFFFFFFFFFFFFFFFFFFFFFFFFFFFFFFFFF AND PUSH20 0xFFFFFFFFFFFFFFFFFFFFFFFFFFFFFFFFFFFFFFFF AND DUP2 MSTORE PUSH1 0x20 ADD SWAP1 DUP2 MSTORE PUSH1 0x20 ADD PUSH1 0x0 KECCAK256 DUP1 SLOAD DUP1 PUSH1 0x20 MUL PUSH1 0x20 ADD PUSH1 0x40 MLOAD SWAP1 DUP2 ADD PUSH1 0x40 MSTORE DUP1 SWAP3 SWAP2 SWAP1 DUP2 DUP2 MSTORE PUSH1 0x20 ADD DUP3 DUP1 SLOAD DUP1 ISZERO PUSH2 0x8DB JUMPI PUSH1 0x20 MUL DUP3 ADD SWAP2 SWAP1 PUSH1 0x0 MSTORE PUSH1 0x20 PUSH1 0x0 KECCAK256 SWAP1 JUMPDEST DUP2 SLOAD DUP2 MSTORE PUSH1 0x20 ADD SWAP1 PUSH1 0x1 ADD SWAP1 DUP1 DUP4 GT PUSH2 0x8C7 JUMPI JUMPDEST POP POP POP POP POP PUSH2 0x99C JUMP JUMPDEST PUSH2 0x924 JUMPI PUSH1 0x40 MLOAD PUSH32 0x8C379A000000000000000000000000000000000000000000000000000000000 DUP2 MSTORE PUSH1 0x4 ADD PUSH2 0x91B SWAP1 PUSH2 0x1064 JUMP JUMPDEST PUSH1 0x40 MLOAD DUP1 SWAP2 SUB SWAP1 REVERT JUMPDEST PUSH2 0x96C PUSH1 0x4 PUSH1 0x0 CALLER PUSH20 0xFFFFFFFFFFFFFFFFFFFFFFFFFFFFFFFFFFFFFFFF AND PUSH20 0xFFFFFFFFFFFFFFFFFFFFFFFFFFFFFFFFFFFFFFFF AND DUP2 MSTORE PUSH1 0x20 ADD SWAP1 DUP2 MSTORE PUSH1 0x20 ADD PUSH1 0x0 KECCAK256 DUP4 PUSH2 0xACC JUMP JUMPDEST PUSH1 0x2 PUSH1 0x0 DUP4 DUP2 MSTORE PUSH1 0x20 ADD SWAP1 DUP2 MSTORE PUSH1 0x20 ADD PUSH1 0x0 KECCAK256 PUSH1 0x2 ADD PUSH1 0x0 DUP2 SLOAD DUP1 SWAP3 SWAP2 SWAP1 PUSH2 0x993 SWAP1 PUSH2 0x1309 JUMP JUMPDEST SWAP2 SWAP1 POP SSTORE POP POP POP JUMP JUMPDEST PUSH1 0x0 DUP1 PUSH1 0x0 SWAP1 POP JUMPDEST DUP3 MLOAD DUP2 LT ISZERO PUSH2 0xA12 JUMPI DUP3 DUP2 DUP2 MLOAD DUP2 LT PUSH2 0x9E6 JUMPI PUSH32 0x4E487B7100000000000000000000000000000000000000000000000000000000 PUSH1 0x0 MSTORE PUSH1 0x32 PUSH1 0x4 MSTORE PUSH1 0x24 PUSH1 0x0 REVERT JUMPDEST PUSH1 0x20 MUL PUSH1 0x20 ADD ADD MLOAD DUP5 EQ ISZERO PUSH2 0x9FF JUMPI PUSH1 0x1 SWAP2 POP POP PUSH2 0xA18 JUMP JUMPDEST DUP1 DUP1 PUSH2 0xA0A SWAP1 PUSH2 0x1309 JUMP JUMPDEST SWAP2 POP POP PUSH2 0x9A4 JUMP JUMPDEST POP PUSH1 0x0 SWAP1 POP JUMPDEST SWAP3 SWAP2 POP POP JUMP JUMPDEST PUSH1 0x0 DUP1 PUSH1 0x0 SWAP1 POP JUMPDEST DUP3 MLOAD DUP2 LT ISZERO PUSH2 0xAC0 JUMPI DUP3 DUP2 DUP2 MLOAD DUP2 LT PUSH2 0xA68 JUMPI PUSH32 0x4E487B7100000000000000000000000000000000000000000000000000000000 PUSH1 0x0 MSTORE PUSH1 0x32 PUSH1 0x4 MSTORE PUSH1 0x24 PUSH1 0x0 REVERT JUMPDEST PUSH1 0x20 MUL PUSH1 0x20 ADD ADD MLOAD PUSH20 0xFFFFFFFFFFFFFFFFFFFFFFFFFFFFFFFFFFFFFFFF AND DUP5 PUSH20 0xFFFFFFFFFFFFFFFFFFFFFFFFFFFFFFFFFFFFFFFF AND EQ ISZERO PUSH2 0xAAD JUMPI PUSH1 0x1 SWAP2 POP POP PUSH2 0xAC6 JUMP JUMPDEST DUP1 DUP1 PUSH2 0xAB8 SWAP1 PUSH2 0x1309 JUMP JUMPDEST SWAP2 POP POP PUSH2 0xA26 JUMP JUMPDEST POP PUSH1 0x0 SWAP1 POP JUMPDEST SWAP3 SWAP2 POP POP JUMP JUMPDEST PUSH1 0x0 JUMPDEST DUP3 DUP1 SLOAD SWAP1 POP DUP2 LT ISZERO PUSH2 0xC22 JUMPI DUP3 DUP2 DUP2 SLOAD DUP2 LT PUSH2 0xB14 JUMPI PUSH32 0x4E487B7100000000000000000000000000000000000000000000000000000000 PUSH1 0x0 MSTORE PUSH1 0x32 PUSH1 0x4 MSTORE PUSH1 0x24 PUSH1 0x0 REVERT JUMPDEST SWAP1 PUSH1 0x0 MSTORE PUSH1 0x20 PUSH1 0x0 KECCAK256 ADD SLOAD DUP3 EQ ISZERO PUSH2 0xC0F JUMPI DUP3 PUSH1 0x1 DUP5 DUP1 SLOAD SWAP1 POP PUSH2 0xB38 SWAP2 SWAP1 PUSH2 0x11FE JUMP JUMPDEST DUP2 SLOAD DUP2 LT PUSH2 0xB6F JUMPI PUSH32 0x4E487B7100000000000000000000000000000000000000000000000000000000 PUSH1 0x0 MSTORE PUSH1 0x32 PUSH1 0x4 MSTORE PUSH1 0x24 PUSH1 0x0 REVERT JUMPDEST SWAP1 PUSH1 0x0 MSTORE PUSH1 0x20 PUSH1 0x0 KECCAK256 ADD SLOAD DUP4 DUP3 DUP2 SLOAD DUP2 LT PUSH2 0xBB3 JUMPI PUSH32 0x4E487B7100000000000000000000000000000000000000000000000000000000 PUSH1 0x0 MSTORE PUSH1 0x32 PUSH1 0x4 MSTORE PUSH1 0x24 PUSH1 0x0 REVERT JUMPDEST SWAP1 PUSH1 0x0 MSTORE PUSH1 0x20 PUSH1 0x0 KECCAK256 ADD DUP2 SWAP1 SSTORE POP DUP3 DUP1 SLOAD DUP1 PUSH2 0xBF8 JUMPI PUSH32 0x4E487B7100000000000000000000000000000000000000000000000000000000 PUSH1 0x0 MSTORE PUSH1 0x31 PUSH1 0x4 MSTORE PUSH1 0x24 PUSH1 0x0 REVERT JUMPDEST PUSH1 0x1 SWAP1 SUB DUP2 DUP2 SWAP1 PUSH1 0x0 MSTORE PUSH1 0x20 PUSH1 0x0 KECCAK256 ADD PUSH1 0x0 SWAP1 SSTORE SWAP1 SSTORE JUMPDEST DUP1 DUP1 PUSH2 0xC1A SWAP1 PUSH2 0x1309 JUMP JUMPDEST SWAP2 POP POP PUSH2 0xACF JUMP JUMPDEST POP POP POP JUMP JUMPDEST DUP3 DUP1 SLOAD PUSH2 0xC33 SWAP1 PUSH2 0x12D7 JUMP JUMPDEST SWAP1 PUSH1 0x0 MSTORE PUSH1 0x20 PUSH1 0x0 KECCAK256 SWAP1 PUSH1 0x1F ADD PUSH1 0x20 SWAP1 DIV DUP2 ADD SWAP3 DUP3 PUSH2 0xC55 JUMPI PUSH1 0x0 DUP6 SSTORE PUSH2 0xC9C JUMP JUMPDEST DUP3 PUSH1 0x1F LT PUSH2 0xC6E JUMPI DUP1 CALLDATALOAD PUSH1 0xFF NOT AND DUP4 DUP1 ADD OR DUP6 SSTORE PUSH2 0xC9C JUMP JUMPDEST DUP3 DUP1 ADD PUSH1 0x1 ADD DUP6 SSTORE DUP3 ISZERO PUSH2 0xC9C JUMPI SWAP2 DUP3 ADD JUMPDEST DUP3 DUP2 GT ISZERO PUSH2 0xC9B JUMPI DUP3 CALLDATALOAD DUP3 SSTORE SWAP2 PUSH1 0x20 ADD SWAP2 SWAP1 PUSH1 0x1 ADD SWAP1 PUSH2 0xC80 JUMP JUMPDEST JUMPDEST POP SWAP1 POP PUSH2 0xCA9 SWAP2 SWAP1 PUSH2 0xCAD JUMP JUMPDEST POP SWAP1 JUMP JUMPDEST JUMPDEST DUP1 DUP3 GT ISZERO PUSH2 0xCC6 JUMPI PUSH1 0x0 DUP2 PUSH1 0x0 SWAP1 SSTORE POP PUSH1 0x1 ADD PUSH2 0xCAE JUMP JUMPDEST POP SWAP1 JUMP JUMPDEST PUSH1 0x0 DUP2 CALLDATALOAD SWAP1 POP PUSH2 0xCD9 DUP2 PUSH2 0x13C1 JUMP JUMPDEST SWAP3 SWAP2 POP POP JUMP JUMPDEST PUSH1 0x0 PUSH1 0x80 DUP3 DUP5 SUB SLT ISZERO PUSH2 0xCF1 JUMPI PUSH1 0x0 DUP1 REVERT JUMPDEST DUP2 SWAP1 POP SWAP3 SWAP2 POP POP JUMP JUMPDEST PUSH1 0x0 DUP2 CALLDATALOAD SWAP1 POP PUSH2 0xD09 DUP2 PUSH2 0x13D8 JUMP JUMPDEST SWAP3 SWAP2 POP POP JUMP JUMPDEST PUSH1 0x0 DUP1 PUSH1 0x40 DUP4 DUP6 SUB SLT ISZERO PUSH2 0xD22 JUMPI PUSH1 0x0 DUP1 REVERT JUMPDEST PUSH1 0x0 PUSH2 0xD30 DUP6 DUP3 DUP7 ADD PUSH2 0xCCA JUMP JUMPDEST SWAP3 POP POP PUSH1 0x20 PUSH2 0xD41 DUP6 DUP3 DUP7 ADD PUSH2 0xCFA JUMP JUMPDEST SWAP2 POP POP SWAP3 POP SWAP3 SWAP1 POP JUMP JUMPDEST PUSH1 0x0 PUSH1 0x20 DUP3 DUP5 SUB SLT ISZERO PUSH2 0xD5D JUMPI PUSH1 0x0 DUP1 REVERT JUMPDEST PUSH1 0x0 DUP3 ADD CALLDATALOAD PUSH8 0xFFFFFFFFFFFFFFFF DUP2 GT ISZERO PUSH2 0xD77 JUMPI PUSH1 0x0 DUP1 REVERT JUMPDEST PUSH2 0xD83 DUP5 DUP3 DUP6 ADD PUSH2 0xCDF JUMP JUMPDEST SWAP2 POP POP SWAP3 SWAP2 POP POP JUMP JUMPDEST PUSH1 0x0 PUSH1 0x20 DUP3 DUP5 SUB SLT ISZERO PUSH2 0xD9E JUMPI PUSH1 0x0 DUP1 REVERT JUMPDEST PUSH1 0x0 PUSH2 0xDAC DUP5 DUP3 DUP6 ADD PUSH2 0xCFA JUMP JUMPDEST SWAP2 POP POP SWAP3 SWAP2 POP POP JUMP JUMPDEST PUSH1 0x0 DUP1 PUSH1 0x40 DUP4 DUP6 SUB SLT ISZERO PUSH2 0xDC8 JUMPI PUSH1 0x0 DUP1 REVERT JUMPDEST PUSH1 0x0 PUSH2 0xDD6 DUP6 DUP3 DUP7 ADD PUSH2 0xCFA JUMP JUMPDEST SWAP3 POP POP PUSH1 0x20 PUSH2 0xDE7 DUP6 DUP3 DUP7 ADD PUSH2 0xCFA JUMP JUMPDEST SWAP2 POP POP SWAP3 POP SWAP3 SWAP1 POP JUMP JUMPDEST PUSH2 0xDFA DUP2 PUSH2 0x1232 JUMP JUMPDEST DUP3 MSTORE POP POP JUMP JUMPDEST PUSH2 0xE09 DUP2 PUSH2 0x1244 JUMP JUMPDEST DUP3 MSTORE POP POP JUMP JUMPDEST PUSH1 0x0 PUSH2 0xE1A DUP3 PUSH2 0x11E2 JUMP JUMPDEST PUSH2 0xE24 DUP2 DUP6 PUSH2 0x11ED JUMP JUMPDEST SWAP4 POP PUSH2 0xE34 DUP2 DUP6 PUSH1 0x20 DUP7 ADD PUSH2 0x127A JUMP JUMPDEST PUSH2 0xE3D DUP2 PUSH2 0x13B0 JUMP JUMPDEST DUP5 ADD SWAP2 POP POP SWAP3 SWAP2 POP POP JUMP JUMPDEST PUSH1 0x0 PUSH2 0xE55 PUSH1 0x1E DUP4 PUSH2 0x11ED JUMP JUMPDEST SWAP2 POP PUSH32 0x596F7520686176656E7420626F72726F776564207468617420626F6F6B210000 PUSH1 0x0 DUP4 ADD MSTORE PUSH1 0x20 DUP3 ADD SWAP1 POP SWAP2 SWAP1 POP JUMP JUMPDEST PUSH1 0x0 PUSH2 0xE95 PUSH1 0x22 DUP4 PUSH2 0x11ED JUMP JUMPDEST SWAP2 POP PUSH32 0x596F7527766520616C726561647920626F72726F776564207468617420626F6F PUSH1 0x0 DUP4 ADD MSTORE PUSH32 0x6B21000000000000000000000000000000000000000000000000000000000000 PUSH1 0x20 DUP4 ADD MSTORE PUSH1 0x40 DUP3 ADD SWAP1 POP SWAP2 SWAP1 POP JUMP JUMPDEST PUSH1 0x0 PUSH2 0xEFB PUSH1 0x1A DUP4 PUSH2 0x11ED JUMP JUMPDEST SWAP2 POP PUSH32 0x43757272656E742075736572206973206E6F74206F776E657221000000000000 PUSH1 0x0 DUP4 ADD MSTORE PUSH1 0x20 DUP3 ADD SWAP1 POP SWAP2 SWAP1 POP JUMP JUMPDEST PUSH1 0x0 PUSH2 0xF3B PUSH1 0x24 DUP4 PUSH2 0x11ED JUMP JUMPDEST SWAP2 POP PUSH32 0x5468697320626F6F6B206973206F7574206F662073746F636B2063757272656E PUSH1 0x0 DUP4 ADD MSTORE PUSH32 0x746C792100000000000000000000000000000000000000000000000000000000 PUSH1 0x20 DUP4 ADD MSTORE PUSH1 0x40 DUP3 ADD SWAP1 POP SWAP2 SWAP1 POP JUMP JUMPDEST PUSH1 0x0 PUSH2 0xFA1 PUSH1 0x23 DUP4 PUSH2 0x11ED JUMP JUMPDEST SWAP2 POP PUSH32 0x426F6F6B20616C72656164792065786973747320696E20746865204C69627261 PUSH1 0x0 DUP4 ADD MSTORE PUSH32 0x7279210000000000000000000000000000000000000000000000000000000000 PUSH1 0x20 DUP4 ADD MSTORE PUSH1 0x40 DUP3 ADD SWAP1 POP SWAP2 SWAP1 POP JUMP JUMPDEST PUSH1 0x0 PUSH2 0x1007 PUSH1 0x1F DUP4 PUSH2 0x11ED JUMP JUMPDEST SWAP2 POP PUSH32 0x426F6F6B20646F6573206E6F7420657869737420696E206C6962726172792100 PUSH1 0x0 DUP4 ADD MSTORE PUSH1 0x20 DUP3 ADD SWAP1 POP SWAP2 SWAP1 POP JUMP JUMPDEST PUSH2 0x1043 DUP2 PUSH2 0x1270 JUMP JUMPDEST DUP3 MSTORE POP POP JUMP JUMPDEST PUSH1 0x0 PUSH1 0x20 DUP3 ADD SWAP1 POP PUSH2 0x105E PUSH1 0x0 DUP4 ADD DUP5 PUSH2 0xDF1 JUMP JUMPDEST SWAP3 SWAP2 POP POP JUMP JUMPDEST PUSH1 0x0 PUSH1 0x20 DUP3 ADD SWAP1 POP DUP2 DUP2 SUB PUSH1 0x0 DUP4 ADD MSTORE PUSH2 0x107D DUP2 PUSH2 0xE48 JUMP JUMPDEST SWAP1 POP SWAP2 SWAP1 POP JUMP JUMPDEST PUSH1 0x0 PUSH1 0x20 DUP3 ADD SWAP1 POP DUP2 DUP2 SUB PUSH1 0x0 DUP4 ADD MSTORE PUSH2 0x109D DUP2 PUSH2 0xE88 JUMP JUMPDEST SWAP1 POP SWAP2 SWAP1 POP JUMP JUMPDEST PUSH1 0x0 PUSH1 0x20 DUP3 ADD SWAP1 POP DUP2 DUP2 SUB PUSH1 0x0 DUP4 ADD MSTORE PUSH2 0x10BD DUP2 PUSH2 0xEEE JUMP JUMPDEST SWAP1 POP SWAP2 SWAP1 POP JUMP JUMPDEST PUSH1 0x0 PUSH1 0x20 DUP3 ADD SWAP1 POP DUP2 DUP2 SUB PUSH1 0x0 DUP4 ADD MSTORE PUSH2 0x10DD DUP2 PUSH2 0xF2E JUMP JUMPDEST SWAP1 POP SWAP2 SWAP1 POP JUMP JUMPDEST PUSH1 0x0 PUSH1 0x20 DUP3 ADD SWAP1 POP DUP2 DUP2 SUB PUSH1 0x0 DUP4 ADD MSTORE PUSH2 0x10FD DUP2 PUSH2 0xF94 JUMP JUMPDEST SWAP1 POP SWAP2 SWAP1 POP JUMP JUMPDEST PUSH1 0x0 PUSH1 0x20 DUP3 ADD SWAP1 POP DUP2 DUP2 SUB PUSH1 0x0 DUP4 ADD MSTORE PUSH2 0x111D DUP2 PUSH2 0xFFA JUMP JUMPDEST SWAP1 POP SWAP2 SWAP1 POP JUMP JUMPDEST PUSH1 0x0 PUSH1 0x20 DUP3 ADD SWAP1 POP PUSH2 0x1139 PUSH1 0x0 DUP4 ADD DUP5 PUSH2 0x103A JUMP JUMPDEST SWAP3 SWAP2 POP POP JUMP JUMPDEST PUSH1 0x0 PUSH1 0x80 DUP3 ADD SWAP1 POP PUSH2 0x1154 PUSH1 0x0 DUP4 ADD DUP8 PUSH2 0x103A JUMP JUMPDEST DUP2 DUP2 SUB PUSH1 0x20 DUP4 ADD MSTORE PUSH2 0x1166 DUP2 DUP7 PUSH2 0xE0F JUMP JUMPDEST SWAP1 POP PUSH2 0x1175 PUSH1 0x40 DUP4 ADD DUP6 PUSH2 0x103A JUMP JUMPDEST PUSH2 0x1182 PUSH1 0x60 DUP4 ADD DUP5 PUSH2 0xE00 JUMP JUMPDEST SWAP6 SWAP5 POP POP POP POP POP JUMP JUMPDEST PUSH1 0x0 DUP1 DUP4 CALLDATALOAD PUSH1 0x1 PUSH1 0x20 SUB DUP5 CALLDATASIZE SUB SUB DUP2 SLT PUSH2 0x11A4 JUMPI PUSH1 0x0 DUP1 REVERT JUMPDEST DUP1 DUP5 ADD SWAP3 POP DUP3 CALLDATALOAD SWAP2 POP PUSH8 0xFFFFFFFFFFFFFFFF DUP3 GT ISZERO PUSH2 0x11C2 JUMPI PUSH1 0x0 DUP1 REVERT JUMPDEST PUSH1 0x20 DUP4 ADD SWAP3 POP PUSH1 0x1 DUP3 MUL CALLDATASIZE SUB DUP4 SGT ISZERO PUSH2 0x11DA JUMPI PUSH1 0x0 DUP1 REVERT JUMPDEST POP SWAP3 POP SWAP3 SWAP1 POP JUMP JUMPDEST PUSH1 0x0 DUP2 MLOAD SWAP1 POP SWAP2 SWAP1 POP JUMP JUMPDEST PUSH1 0x0 DUP3 DUP3 MSTORE PUSH1 0x20 DUP3 ADD SWAP1 POP SWAP3 SWAP2 POP POP JUMP JUMPDEST PUSH1 0x0 PUSH2 0x1209 DUP3 PUSH2 0x1270 JUMP JUMPDEST SWAP2 POP PUSH2 0x1214 DUP4 PUSH2 0x1270 JUMP JUMPDEST SWAP3 POP DUP3 DUP3 LT ISZERO PUSH2 0x1227 JUMPI PUSH2 0x1226 PUSH2 0x1352 JUMP JUMPDEST JUMPDEST DUP3 DUP3 SUB SWAP1 POP SWAP3 SWAP2 POP POP JUMP JUMPDEST PUSH1 0x0 PUSH2 0x123D DUP3 PUSH2 0x1250 JUMP JUMPDEST SWAP1 POP SWAP2 SWAP1 POP JUMP JUMPDEST PUSH1 0x0 DUP2 ISZERO ISZERO SWAP1 POP SWAP2 SWAP1 POP JUMP JUMPDEST PUSH1 0x0 PUSH20 0xFFFFFFFFFFFFFFFFFFFFFFFFFFFFFFFFFFFFFFFF DUP3 AND SWAP1 POP SWAP2 SWAP1 POP JUMP JUMPDEST PUSH1 0x0 DUP2 SWAP1 POP SWAP2 SWAP1 POP JUMP JUMPDEST PUSH1 0x0 JUMPDEST DUP4 DUP2 LT ISZERO PUSH2 0x1298 JUMPI DUP1 DUP3 ADD MLOAD DUP2 DUP5 ADD MSTORE PUSH1 0x20 DUP2 ADD SWAP1 POP PUSH2 0x127D JUMP JUMPDEST DUP4 DUP2 GT ISZERO PUSH2 0x12A7 JUMPI PUSH1 0x0 DUP5 DUP5 ADD MSTORE JUMPDEST POP POP POP POP JUMP JUMPDEST PUSH1 0x0 PUSH2 0x12B8 DUP3 PUSH2 0x1270 JUMP JUMPDEST SWAP2 POP PUSH1 0x0 DUP3 EQ ISZERO PUSH2 0x12CC JUMPI PUSH2 0x12CB PUSH2 0x1352 JUMP JUMPDEST JUMPDEST PUSH1 0x1 DUP3 SUB SWAP1 POP SWAP2 SWAP1 POP JUMP JUMPDEST PUSH1 0x0 PUSH1 0x2 DUP3 DIV SWAP1 POP PUSH1 0x1 DUP3 AND DUP1 PUSH2 0x12EF JUMPI PUSH1 0x7F DUP3 AND SWAP2 POP JUMPDEST PUSH1 0x20 DUP3 LT DUP2 EQ ISZERO PUSH2 0x1303 JUMPI PUSH2 0x1302 PUSH2 0x1381 JUMP JUMPDEST JUMPDEST POP SWAP2 SWAP1 POP JUMP JUMPDEST PUSH1 0x0 PUSH2 0x1314 DUP3 PUSH2 0x1270 JUMP JUMPDEST SWAP2 POP PUSH32 0xFFFFFFFFFFFFFFFFFFFFFFFFFFFFFFFFFFFFFFFFFFFFFFFFFFFFFFFFFFFFFFFF DUP3 EQ ISZERO PUSH2 0x1347 JUMPI PUSH2 0x1346 PUSH2 0x1352 JUMP JUMPDEST JUMPDEST PUSH1 0x1 DUP3 ADD SWAP1 POP SWAP2 SWAP1 POP JUMP JUMPDEST PUSH32 0x4E487B7100000000000000000000000000000000000000000000000000000000 PUSH1 0x0 MSTORE PUSH1 0x11 PUSH1 0x4 MSTORE PUSH1 0x24 PUSH1 0x0 REVERT JUMPDEST PUSH32 0x4E487B7100000000000000000000000000000000000000000000000000000000 PUSH1 0x0 MSTORE PUSH1 0x22 PUSH1 0x4 MSTORE PUSH1 0x24 PUSH1 0x0 REVERT JUMPDEST PUSH1 0x0 PUSH1 0x1F NOT PUSH1 0x1F DUP4 ADD AND SWAP1 POP SWAP2 SWAP1 POP JUMP JUMPDEST PUSH2 0x13CA DUP2 PUSH2 0x1232 JUMP JUMPDEST DUP2 EQ PUSH2 0x13D5 JUMPI PUSH1 0x0 DUP1 REVERT JUMPDEST POP JUMP JUMPDEST PUSH2 0x13E1 DUP2 PUSH2 0x1270 JUMP JUMPDEST DUP2 EQ PUSH2 0x13EC JUMPI PUSH1 0x0 DUP1 REVERT JUMPDEST POP JUMP INVALID LOG2 PUSH5 0x6970667358 0x22 SLT KECCAK256 0xA9 SDIV JUMPDEST EQ 0xCC JUMPDEST DIV GASLIMIT 0x26 0xB4 SWAP11 SDIV 0x25 0x4A EXTCODEHASH PUSH27 0x5218BECC5032A9219B29CAF9A1A1866764736F6C63430008000033 "
				},
				"gasEstimates": {
					"creation": {
						"codeDepositCost": "1031400",
						"executionCost": "21940",
						"totalCost": "1053340"
					},
					"external": {
						"AddBook((uint256,string,uint256,bool))": "infinite",
						"BookBorrowerHistory(uint256,uint256)": "infinite",
						"BookList(uint256)": "infinite",
						"BorrowBook(uint256)": "infinite",
						"ClientBorrowList(address,uint256)": "infinite",
						"ReturnBook(uint256)": "infinite",
						"owner()": "1233"
					}
				},
				"methodIdentifiers": {
					"AddBook((uint256,string,uint256,bool))": "5d16b308",
					"BookBorrowerHistory(uint256,uint256)": "18413898",
					"BookList(uint256)": "71e25e5a",
					"BorrowBook(uint256)": "9649faa3",
					"ClientBorrowList(address,uint256)": "2b3819fe",
					"ReturnBook(uint256)": "b8dd17db",
					"owner()": "8da5cb5b"
				}
			},
			"userdoc": {
				"kind": "user",
				"methods": {},
				"version": 1
			}
		}
	}
}