{
	"Library.sol": {
		"Library": {
			"abi": [
				{
					"inputs": [],
					"stateMutability": "nonpayable",
					"type": "constructor"
				},
				{
					"inputs": [
						{
							"components": [
								{
									"internalType": "uint256",
									"name": "id",
									"type": "uint256"
								},
								{
									"internalType": "string",
									"name": "name",
									"type": "string"
								},
								{
									"internalType": "uint256",
									"name": "quantity",
									"type": "uint256"
								},
								{
									"internalType": "bool",
									"name": "exists",
									"type": "bool"
								}
							],
							"internalType": "struct Library.Book",
							"name": "book",
							"type": "tuple"
						}
					],
					"name": "AddBook",
					"outputs": [],
					"stateMutability": "nonpayable",
					"type": "function"
				},
				{
					"inputs": [
						{
							"internalType": "uint256",
							"name": "bookId",
							"type": "uint256"
						}
					],
					"name": "BorrowBook",
					"outputs": [],
					"stateMutability": "nonpayable",
					"type": "function"
				},
				{
					"inputs": [
						{
							"internalType": "uint256",
							"name": "bookId",
							"type": "uint256"
						}
					],
					"name": "ReturnBook",
					"outputs": [],
					"stateMutability": "nonpayable",
					"type": "function"
				},
				{
					"inputs": [],
					"name": "owner",
					"outputs": [
						{
							"internalType": "address",
							"name": "",
							"type": "address"
						}
					],
					"stateMutability": "view",
					"type": "function"
				}
			],
			"devdoc": {
				"kind": "dev",
				"methods": {},
				"version": 1
			},
			"evm": {
				"assembly": "    /* \"Library.sol\":88:2048  contract Library is Helpers{... */\n  mstore(0x40, 0x80)\n    /* \"Library.sol\":660:708  constructor(){... */\n  callvalue\n  dup1\n  iszero\n  tag_1\n  jumpi\n  0x00\n  dup1\n  revert\ntag_1:\n  pop\n    /* \"Library.sol\":691:701  msg.sender */\n  caller\n    /* \"Library.sol\":683:688  owner */\n  0x00\n  dup1\n    /* \"Library.sol\":683:701  owner = msg.sender */\n  0x0100\n  exp\n  dup2\n  sload\n  dup2\n  0xffffffffffffffffffffffffffffffffffffffff\n  mul\n  not\n  and\n  swap1\n  dup4\n  0xffffffffffffffffffffffffffffffffffffffff\n  and\n  mul\n  or\n  swap1\n  sstore\n  pop\n    /* \"Library.sol\":88:2048  contract Library is Helpers{... */\n  dataSize(sub_0)\n  dup1\n  dataOffset(sub_0)\n  0x00\n  codecopy\n  0x00\n  return\nstop\n\nsub_0: assembly {\n        /* \"Library.sol\":88:2048  contract Library is Helpers{... */\n      mstore(0x40, 0x80)\n      callvalue\n      dup1\n      iszero\n      tag_1\n      jumpi\n      0x00\n      dup1\n      revert\n    tag_1:\n      pop\n      jumpi(tag_2, lt(calldatasize, 0x04))\n      shr(0xe0, calldataload(0x00))\n      dup1\n      0x5d16b308\n      eq\n      tag_3\n      jumpi\n      dup1\n      0x8da5cb5b\n      eq\n      tag_4\n      jumpi\n      dup1\n      0x9649faa3\n      eq\n      tag_5\n      jumpi\n      dup1\n      0xb8dd17db\n      eq\n      tag_6\n      jumpi\n    tag_2:\n      0x00\n      dup1\n      revert\n        /* \"Library.sol\":714:1079  function AddBook(Book calldata book) public onlyOwnable{... */\n    tag_3:\n      tag_7\n      0x04\n      dup1\n      calldatasize\n      sub\n      dup2\n      add\n      swap1\n      tag_8\n      swap2\n      swap1\n      tag_9\n      jump\t// in\n    tag_8:\n      tag_10\n      jump\t// in\n    tag_7:\n      stop\n        /* \"Library.sol\":121:141  address public owner */\n    tag_4:\n      tag_11\n      tag_12\n      jump\t// in\n    tag_11:\n      mload(0x40)\n      tag_13\n      swap2\n      swap1\n      tag_14\n      jump\t// in\n    tag_13:\n      mload(0x40)\n      dup1\n      swap2\n      sub\n      swap1\n      return\n        /* \"Library.sol\":1085:1657  function BorrowBook(uint bookId) public bookExists(bookId){    ... */\n    tag_5:\n      tag_15\n      0x04\n      dup1\n      calldatasize\n      sub\n      dup2\n      add\n      swap1\n      tag_16\n      swap2\n      swap1\n      tag_17\n      jump\t// in\n    tag_16:\n      tag_18\n      jump\t// in\n    tag_15:\n      stop\n        /* \"Library.sol\":1663:2046  function ReturnBook(uint bookId) public bookExists(bookId){... */\n    tag_6:\n      tag_19\n      0x04\n      dup1\n      calldatasize\n      sub\n      dup2\n      add\n      swap1\n      tag_20\n      swap2\n      swap1\n      tag_17\n      jump\t// in\n    tag_20:\n      tag_21\n      jump\t// in\n    tag_19:\n      stop\n        /* \"Library.sol\":714:1079  function AddBook(Book calldata book) public onlyOwnable{... */\n    tag_10:\n        /* \"Library.sol\":468:473  owner */\n      0x00\n      dup1\n      sload\n      swap1\n      0x0100\n      exp\n      swap1\n      div\n      0xffffffffffffffffffffffffffffffffffffffff\n      and\n        /* \"Library.sol\":454:473  msg.sender == owner */\n      0xffffffffffffffffffffffffffffffffffffffff\n      and\n        /* \"Library.sol\":454:464  msg.sender */\n      caller\n        /* \"Library.sol\":454:473  msg.sender == owner */\n      0xffffffffffffffffffffffffffffffffffffffff\n      and\n      eq\n        /* \"Library.sol\":446:504  require(msg.sender == owner, \"Current user is not owner!\") */\n      tag_23\n      jumpi\n      mload(0x40)\n      0x08c379a000000000000000000000000000000000000000000000000000000000\n      dup2\n      mstore\n      0x04\n      add\n      tag_24\n      swap1\n      tag_25\n      jump\t// in\n    tag_24:\n      mload(0x40)\n      dup1\n      swap2\n      sub\n      swap1\n      revert\n    tag_23:\n        /* \"Library.sol\":781:789  BookList */\n      0x02\n        /* \"Library.sol\":781:798  BookList[counter] */\n      0x00\n        /* \"Library.sol\":790:797  counter */\n      sload(0x01)\n        /* \"Library.sol\":781:798  BookList[counter] */\n      dup2\n      mstore\n      0x20\n      add\n      swap1\n      dup2\n      mstore\n      0x20\n      add\n      0x00\n      keccak256\n        /* \"Library.sol\":781:805  BookList[counter].exists */\n      0x03\n      add\n      0x00\n      swap1\n      sload\n      swap1\n      0x0100\n      exp\n      swap1\n      div\n      0xff\n      and\n        /* \"Library.sol\":778:876  if(BookList[counter].exists){... */\n      iszero\n      tag_27\n      jumpi\n        /* \"Library.sol\":820:865  revert(\"Book already exists in the Library!\") */\n      mload(0x40)\n      0x08c379a000000000000000000000000000000000000000000000000000000000\n      dup2\n      mstore\n      0x04\n      add\n      tag_28\n      swap1\n      tag_29\n      jump\t// in\n    tag_28:\n      mload(0x40)\n      dup1\n      swap2\n      sub\n      swap1\n      revert\n        /* \"Library.sol\":778:876  if(BookList[counter].exists){... */\n    tag_27:\n        /* \"Library.sol\":909:916  counter */\n      sload(0x01)\n        /* \"Library.sol\":886:894  BookList */\n      0x02\n        /* \"Library.sol\":886:903  BookList[counter] */\n      0x00\n        /* \"Library.sol\":895:902  counter */\n      sload(0x01)\n        /* \"Library.sol\":886:903  BookList[counter] */\n      dup2\n      mstore\n      0x20\n      add\n      swap1\n      dup2\n      mstore\n      0x20\n      add\n      0x00\n      keccak256\n        /* \"Library.sol\":886:906  BookList[counter].id */\n      0x00\n      add\n        /* \"Library.sol\":886:916  BookList[counter].id = counter */\n      dup2\n      swap1\n      sstore\n      pop\n        /* \"Library.sol\":951:955  book */\n      dup1\n        /* \"Library.sol\":951:960  book.name */\n      dup1\n      0x20\n      add\n      swap1\n      tag_30\n      swap2\n      swap1\n      tag_31\n      jump\t// in\n    tag_30:\n        /* \"Library.sol\":926:934  BookList */\n      0x02\n        /* \"Library.sol\":926:943  BookList[counter] */\n      0x00\n        /* \"Library.sol\":935:942  counter */\n      sload(0x01)\n        /* \"Library.sol\":926:943  BookList[counter] */\n      dup2\n      mstore\n      0x20\n      add\n      swap1\n      dup2\n      mstore\n      0x20\n      add\n      0x00\n      keccak256\n        /* \"Library.sol\":926:948  BookList[counter].name */\n      0x01\n      add\n        /* \"Library.sol\":926:960  BookList[counter].name = book.name */\n      swap2\n      swap1\n      tag_32\n      swap3\n      swap2\n      swap1\n      tag_33\n      jump\t// in\n    tag_32:\n      pop\n        /* \"Library.sol\":999:1003  book */\n      dup1\n        /* \"Library.sol\":999:1012  book.quantity */\n      0x40\n      add\n      calldataload\n        /* \"Library.sol\":970:978  BookList */\n      0x02\n        /* \"Library.sol\":970:987  BookList[counter] */\n      0x00\n        /* \"Library.sol\":979:986  counter */\n      sload(0x01)\n        /* \"Library.sol\":970:987  BookList[counter] */\n      dup2\n      mstore\n      0x20\n      add\n      swap1\n      dup2\n      mstore\n      0x20\n      add\n      0x00\n      keccak256\n        /* \"Library.sol\":970:996  BookList[counter].quantity */\n      0x02\n      add\n        /* \"Library.sol\":970:1012  BookList[counter].quantity = book.quantity */\n      dup2\n      swap1\n      sstore\n      pop\n        /* \"Library.sol\":1049:1053  true */\n      0x01\n        /* \"Library.sol\":1022:1030  BookList */\n      0x02\n        /* \"Library.sol\":1022:1039  BookList[counter] */\n      0x00\n        /* \"Library.sol\":1031:1038  counter */\n      sload(0x01)\n        /* \"Library.sol\":1022:1039  BookList[counter] */\n      dup2\n      mstore\n      0x20\n      add\n      swap1\n      dup2\n      mstore\n      0x20\n      add\n      0x00\n      keccak256\n        /* \"Library.sol\":1022:1046  BookList[counter].exists */\n      0x03\n      add\n      0x00\n        /* \"Library.sol\":1022:1053  BookList[counter].exists = true */\n      0x0100\n      exp\n      dup2\n      sload\n      dup2\n      0xff\n      mul\n      not\n      and\n      swap1\n      dup4\n      iszero\n      iszero\n      mul\n      or\n      swap1\n      sstore\n      pop\n        /* \"Library.sol\":1063:1070  counter */\n      0x01\n      0x00\n        /* \"Library.sol\":1063:1072  counter++ */\n      dup2\n      sload\n      dup1\n      swap3\n      swap2\n      swap1\n      tag_34\n      swap1\n      tag_35\n      jump\t// in\n    tag_34:\n      swap2\n      swap1\n      pop\n      sstore\n      pop\n        /* \"Library.sol\":714:1079  function AddBook(Book calldata book) public onlyOwnable{... */\n      pop\n      jump\t// out\n        /* \"Library.sol\":121:141  address public owner */\n    tag_12:\n      0x00\n      dup1\n      sload\n      swap1\n      0x0100\n      exp\n      swap1\n      div\n      0xffffffffffffffffffffffffffffffffffffffff\n      and\n      dup2\n      jump\t// out\n        /* \"Library.sol\":1085:1657  function BorrowBook(uint bookId) public bookExists(bookId){    ... */\n    tag_18:\n        /* \"Library.sol\":1136:1142  bookId */\n      dup1\n        /* \"Library.sol\":578:586  BookList */\n      0x02\n        /* \"Library.sol\":578:594  BookList[bookId] */\n      0x00\n        /* \"Library.sol\":587:593  bookId */\n      dup3\n        /* \"Library.sol\":578:594  BookList[bookId] */\n      dup2\n      mstore\n      0x20\n      add\n      swap1\n      dup2\n      mstore\n      0x20\n      add\n      0x00\n      keccak256\n        /* \"Library.sol\":578:601  BookList[bookId].exists */\n      0x03\n      add\n      0x00\n      swap1\n      sload\n      swap1\n      0x0100\n      exp\n      swap1\n      div\n      0xff\n      and\n        /* \"Library.sol\":570:636  require(BookList[bookId].exists,\"Book does not exist in library!\") */\n      tag_37\n      jumpi\n      mload(0x40)\n      0x08c379a000000000000000000000000000000000000000000000000000000000\n      dup2\n      mstore\n      0x04\n      add\n      tag_38\n      swap1\n      tag_39\n      jump\t// in\n    tag_38:\n      mload(0x40)\n      dup1\n      swap2\n      sub\n      swap1\n      revert\n    tag_37:\n        /* \"Library.sol\":1187:1188  0 */\n      0x00\n        /* \"Library.sol\":1160:1168  BookList */\n      0x02\n        /* \"Library.sol\":1160:1176  BookList[bookId] */\n      0x00\n        /* \"Library.sol\":1169:1175  bookId */\n      dup5\n        /* \"Library.sol\":1160:1176  BookList[bookId] */\n      dup2\n      mstore\n      0x20\n      add\n      swap1\n      dup2\n      mstore\n      0x20\n      add\n      0x00\n      keccak256\n        /* \"Library.sol\":1160:1185  BookList[bookId].quantity */\n      0x02\n      add\n      sload\n        /* \"Library.sol\":1160:1188  BookList[bookId].quantity==0 */\n      eq\n        /* \"Library.sol\":1157:1260  if(BookList[bookId].quantity==0){... */\n      iszero\n      tag_41\n      jumpi\n        /* \"Library.sol\":1203:1249  revert(\"This book is out of stock currently!\") */\n      mload(0x40)\n      0x08c379a000000000000000000000000000000000000000000000000000000000\n      dup2\n      mstore\n      0x04\n      add\n      tag_42\n      swap1\n      tag_43\n      jump\t// in\n    tag_42:\n      mload(0x40)\n      dup1\n      swap2\n      sub\n      swap1\n      revert\n        /* \"Library.sol\":1157:1260  if(BookList[bookId].quantity==0){... */\n    tag_41:\n        /* \"Library.sol\":1276:1333  intArrContainsValue(bookId, ClientBorrowList[msg.sender]) */\n      tag_44\n        /* \"Library.sol\":1296:1302  bookId */\n      dup3\n        /* \"Library.sol\":1304:1320  ClientBorrowList */\n      0x04\n        /* \"Library.sol\":1304:1332  ClientBorrowList[msg.sender] */\n      0x00\n        /* \"Library.sol\":1321:1331  msg.sender */\n      caller\n        /* \"Library.sol\":1304:1332  ClientBorrowList[msg.sender] */\n      0xffffffffffffffffffffffffffffffffffffffff\n      and\n      0xffffffffffffffffffffffffffffffffffffffff\n      and\n      dup2\n      mstore\n      0x20\n      add\n      swap1\n      dup2\n      mstore\n      0x20\n      add\n      0x00\n      keccak256\n        /* \"Library.sol\":1276:1333  intArrContainsValue(bookId, ClientBorrowList[msg.sender]) */\n      dup1\n      sload\n      dup1\n      0x20\n      mul\n      0x20\n      add\n      mload(0x40)\n      swap1\n      dup2\n      add\n      0x40\n      mstore\n      dup1\n      swap3\n      swap2\n      swap1\n      dup2\n      dup2\n      mstore\n      0x20\n      add\n      dup3\n      dup1\n      sload\n      dup1\n      iszero\n      tag_45\n      jumpi\n      0x20\n      mul\n      dup3\n      add\n      swap2\n      swap1\n      0x00\n      mstore\n      keccak256(0x00, 0x20)\n      swap1\n    tag_46:\n      dup2\n      sload\n      dup2\n      mstore\n      0x20\n      add\n      swap1\n      0x01\n      add\n      swap1\n      dup1\n      dup4\n      gt\n      tag_46\n      jumpi\n    tag_45:\n      pop\n      pop\n      pop\n      pop\n      pop\n        /* \"Library.sol\":1276:1295  intArrContainsValue */\n      tag_47\n        /* \"Library.sol\":1276:1333  intArrContainsValue(bookId, ClientBorrowList[msg.sender]) */\n      jump\t// in\n    tag_44:\n        /* \"Library.sol\":1273:1403  if(intArrContainsValue(bookId, ClientBorrowList[msg.sender])){... */\n      iszero\n      tag_48\n      jumpi\n        /* \"Library.sol\":1348:1392  revert(\"You've already borrowed that book!\") */\n      mload(0x40)\n      0x08c379a000000000000000000000000000000000000000000000000000000000\n      dup2\n      mstore\n      0x04\n      add\n      tag_49\n      swap1\n      tag_50\n      jump\t// in\n    tag_49:\n      mload(0x40)\n      dup1\n      swap2\n      sub\n      swap1\n      revert\n        /* \"Library.sol\":1273:1403  if(intArrContainsValue(bookId, ClientBorrowList[msg.sender])){... */\n    tag_48:\n        /* \"Library.sol\":1413:1429  ClientBorrowList */\n      0x04\n        /* \"Library.sol\":1413:1441  ClientBorrowList[msg.sender] */\n      0x00\n        /* \"Library.sol\":1430:1440  msg.sender */\n      caller\n        /* \"Library.sol\":1413:1441  ClientBorrowList[msg.sender] */\n      0xffffffffffffffffffffffffffffffffffffffff\n      and\n      0xffffffffffffffffffffffffffffffffffffffff\n      and\n      dup2\n      mstore\n      0x20\n      add\n      swap1\n      dup2\n      mstore\n      0x20\n      add\n      0x00\n      keccak256\n        /* \"Library.sol\":1447:1453  bookId */\n      dup3\n        /* \"Library.sol\":1413:1454  ClientBorrowList[msg.sender].push(bookId) */\n      swap1\n      dup1\n      0x01\n      dup2\n      sload\n      add\n      dup1\n      dup3\n      sstore\n      dup1\n      swap2\n      pop\n      pop\n      0x01\n      swap1\n      sub\n      swap1\n      0x00\n      mstore\n      keccak256(0x00, 0x20)\n      add\n      0x00\n      swap1\n      swap2\n      swap1\n      swap2\n      swap1\n      swap2\n      pop\n      sstore\n        /* \"Library.sol\":1470:1534  addressArrContainsValue(msg.sender, BookBorrowerHistory[bookId]) */\n      tag_52\n        /* \"Library.sol\":1494:1504  msg.sender */\n      caller\n        /* \"Library.sol\":1506:1525  BookBorrowerHistory */\n      0x03\n        /* \"Library.sol\":1506:1533  BookBorrowerHistory[bookId] */\n      0x00\n        /* \"Library.sol\":1526:1532  bookId */\n      dup6\n        /* \"Library.sol\":1506:1533  BookBorrowerHistory[bookId] */\n      dup2\n      mstore\n      0x20\n      add\n      swap1\n      dup2\n      mstore\n      0x20\n      add\n      0x00\n      keccak256\n        /* \"Library.sol\":1470:1534  addressArrContainsValue(msg.sender, BookBorrowerHistory[bookId]) */\n      dup1\n      sload\n      dup1\n      0x20\n      mul\n      0x20\n      add\n      mload(0x40)\n      swap1\n      dup2\n      add\n      0x40\n      mstore\n      dup1\n      swap3\n      swap2\n      swap1\n      dup2\n      dup2\n      mstore\n      0x20\n      add\n      dup3\n      dup1\n      sload\n      dup1\n      iszero\n      tag_53\n      jumpi\n      0x20\n      mul\n      dup3\n      add\n      swap2\n      swap1\n      0x00\n      mstore\n      keccak256(0x00, 0x20)\n      swap1\n    tag_54:\n      dup2\n      0x00\n      swap1\n      sload\n      swap1\n      0x0100\n      exp\n      swap1\n      div\n      0xffffffffffffffffffffffffffffffffffffffff\n      and\n      0xffffffffffffffffffffffffffffffffffffffff\n      and\n      dup2\n      mstore\n      0x20\n      add\n      swap1\n      0x01\n      add\n      swap1\n      dup1\n      dup4\n      gt\n      tag_54\n      jumpi\n    tag_53:\n      pop\n      pop\n      pop\n      pop\n      pop\n        /* \"Library.sol\":1470:1493  addressArrContainsValue */\n      tag_55\n        /* \"Library.sol\":1470:1534  addressArrContainsValue(msg.sender, BookBorrowerHistory[bookId]) */\n      jump\t// in\n    tag_52:\n        /* \"Library.sol\":1466:1612  if(!addressArrContainsValue(msg.sender, BookBorrowerHistory[bookId])){... */\n      tag_56\n      jumpi\n        /* \"Library.sol\":1549:1568  BookBorrowerHistory */\n      0x03\n        /* \"Library.sol\":1549:1576  BookBorrowerHistory[bookId] */\n      0x00\n        /* \"Library.sol\":1569:1575  bookId */\n      dup4\n        /* \"Library.sol\":1549:1576  BookBorrowerHistory[bookId] */\n      dup2\n      mstore\n      0x20\n      add\n      swap1\n      dup2\n      mstore\n      0x20\n      add\n      0x00\n      keccak256\n        /* \"Library.sol\":1582:1592  msg.sender */\n      caller\n        /* \"Library.sol\":1549:1593  BookBorrowerHistory[bookId].push(msg.sender) */\n      swap1\n      dup1\n      0x01\n      dup2\n      sload\n      add\n      dup1\n      dup3\n      sstore\n      dup1\n      swap2\n      pop\n      pop\n      0x01\n      swap1\n      sub\n      swap1\n      0x00\n      mstore\n      keccak256(0x00, 0x20)\n      add\n      0x00\n      swap1\n      swap2\n      swap1\n      swap2\n      swap1\n      swap2\n      0x0100\n      exp\n      dup2\n      sload\n      dup2\n      0xffffffffffffffffffffffffffffffffffffffff\n      mul\n      not\n      and\n      swap1\n      dup4\n      0xffffffffffffffffffffffffffffffffffffffff\n      and\n      mul\n      or\n      swap1\n      sstore\n      pop\n        /* \"Library.sol\":1466:1612  if(!addressArrContainsValue(msg.sender, BookBorrowerHistory[bookId])){... */\n    tag_56:\n        /* \"Library.sol\":1622:1630  BookList */\n      0x02\n        /* \"Library.sol\":1622:1638  BookList[bookId] */\n      0x00\n        /* \"Library.sol\":1631:1637  bookId */\n      dup4\n        /* \"Library.sol\":1622:1638  BookList[bookId] */\n      dup2\n      mstore\n      0x20\n      add\n      swap1\n      dup2\n      mstore\n      0x20\n      add\n      0x00\n      keccak256\n        /* \"Library.sol\":1622:1647  BookList[bookId].quantity */\n      0x02\n      add\n      0x00\n        /* \"Library.sol\":1622:1650  BookList[bookId].quantity -- */\n      dup2\n      sload\n      dup1\n      swap3\n      swap2\n      swap1\n      tag_58\n      swap1\n      tag_59\n      jump\t// in\n    tag_58:\n      swap2\n      swap1\n      pop\n      sstore\n      pop\n        /* \"Library.sol\":1085:1657  function BorrowBook(uint bookId) public bookExists(bookId){    ... */\n      pop\n      pop\n      jump\t// out\n        /* \"Library.sol\":1663:2046  function ReturnBook(uint bookId) public bookExists(bookId){... */\n    tag_21:\n        /* \"Library.sol\":1714:1720  bookId */\n      dup1\n        /* \"Library.sol\":578:586  BookList */\n      0x02\n        /* \"Library.sol\":578:594  BookList[bookId] */\n      0x00\n        /* \"Library.sol\":587:593  bookId */\n      dup3\n        /* \"Library.sol\":578:594  BookList[bookId] */\n      dup2\n      mstore\n      0x20\n      add\n      swap1\n      dup2\n      mstore\n      0x20\n      add\n      0x00\n      keccak256\n        /* \"Library.sol\":578:601  BookList[bookId].exists */\n      0x03\n      add\n      0x00\n      swap1\n      sload\n      swap1\n      0x0100\n      exp\n      swap1\n      div\n      0xff\n      and\n        /* \"Library.sol\":570:636  require(BookList[bookId].exists,\"Book does not exist in library!\") */\n      tag_61\n      jumpi\n      mload(0x40)\n      0x08c379a000000000000000000000000000000000000000000000000000000000\n      dup2\n      mstore\n      0x04\n      add\n      tag_62\n      swap1\n      tag_39\n      jump\t// in\n    tag_62:\n      mload(0x40)\n      dup1\n      swap2\n      sub\n      swap1\n      revert\n    tag_61:\n        /* \"Library.sol\":1735:1792  intArrContainsValue(bookId, ClientBorrowList[msg.sender]) */\n      tag_64\n        /* \"Library.sol\":1755:1761  bookId */\n      dup3\n        /* \"Library.sol\":1763:1779  ClientBorrowList */\n      0x04\n        /* \"Library.sol\":1763:1791  ClientBorrowList[msg.sender] */\n      0x00\n        /* \"Library.sol\":1780:1790  msg.sender */\n      caller\n        /* \"Library.sol\":1763:1791  ClientBorrowList[msg.sender] */\n      0xffffffffffffffffffffffffffffffffffffffff\n      and\n      0xffffffffffffffffffffffffffffffffffffffff\n      and\n      dup2\n      mstore\n      0x20\n      add\n      swap1\n      dup2\n      mstore\n      0x20\n      add\n      0x00\n      keccak256\n        /* \"Library.sol\":1735:1792  intArrContainsValue(bookId, ClientBorrowList[msg.sender]) */\n      dup1\n      sload\n      dup1\n      0x20\n      mul\n      0x20\n      add\n      mload(0x40)\n      swap1\n      dup2\n      add\n      0x40\n      mstore\n      dup1\n      swap3\n      swap2\n      swap1\n      dup2\n      dup2\n      mstore\n      0x20\n      add\n      dup3\n      dup1\n      sload\n      dup1\n      iszero\n      tag_65\n      jumpi\n      0x20\n      mul\n      dup3\n      add\n      swap2\n      swap1\n      0x00\n      mstore\n      keccak256(0x00, 0x20)\n      swap1\n    tag_66:\n      dup2\n      sload\n      dup2\n      mstore\n      0x20\n      add\n      swap1\n      0x01\n      add\n      swap1\n      dup1\n      dup4\n      gt\n      tag_66\n      jumpi\n    tag_65:\n      pop\n      pop\n      pop\n      pop\n      pop\n        /* \"Library.sol\":1735:1754  intArrContainsValue */\n      tag_47\n        /* \"Library.sol\":1735:1792  intArrContainsValue(bookId, ClientBorrowList[msg.sender]) */\n      jump\t// in\n    tag_64:\n        /* \"Library.sol\":1731:1858  if(!intArrContainsValue(bookId, ClientBorrowList[msg.sender])){... */\n      tag_67\n      jumpi\n        /* \"Library.sol\":1807:1847  revert(\"You havent borrowed that book!\") */\n      mload(0x40)\n      0x08c379a000000000000000000000000000000000000000000000000000000000\n      dup2\n      mstore\n      0x04\n      add\n      tag_68\n      swap1\n      tag_69\n      jump\t// in\n    tag_68:\n      mload(0x40)\n      dup1\n      swap2\n      sub\n      swap1\n      revert\n        /* \"Library.sol\":1731:1858  if(!intArrContainsValue(bookId, ClientBorrowList[msg.sender])){... */\n    tag_67:\n        /* \"Library.sol\":1944:2001  removeIntArrElement(ClientBorrowList[msg.sender], bookId) */\n      tag_70\n        /* \"Library.sol\":1964:1980  ClientBorrowList */\n      0x04\n        /* \"Library.sol\":1964:1992  ClientBorrowList[msg.sender] */\n      0x00\n        /* \"Library.sol\":1981:1991  msg.sender */\n      caller\n        /* \"Library.sol\":1964:1992  ClientBorrowList[msg.sender] */\n      0xffffffffffffffffffffffffffffffffffffffff\n      and\n      0xffffffffffffffffffffffffffffffffffffffff\n      and\n      dup2\n      mstore\n      0x20\n      add\n      swap1\n      dup2\n      mstore\n      0x20\n      add\n      0x00\n      keccak256\n        /* \"Library.sol\":1994:2000  bookId */\n      dup4\n        /* \"Library.sol\":1944:1963  removeIntArrElement */\n      tag_71\n        /* \"Library.sol\":1944:2001  removeIntArrElement(ClientBorrowList[msg.sender], bookId) */\n      jump\t// in\n    tag_70:\n        /* \"Library.sol\":2011:2019  BookList */\n      0x02\n        /* \"Library.sol\":2011:2027  BookList[bookId] */\n      0x00\n        /* \"Library.sol\":2020:2026  bookId */\n      dup4\n        /* \"Library.sol\":2011:2027  BookList[bookId] */\n      dup2\n      mstore\n      0x20\n      add\n      swap1\n      dup2\n      mstore\n      0x20\n      add\n      0x00\n      keccak256\n        /* \"Library.sol\":2011:2036  BookList[bookId].quantity */\n      0x02\n      add\n      0x00\n        /* \"Library.sol\":2011:2039  BookList[bookId].quantity ++ */\n      dup2\n      sload\n      dup1\n      swap3\n      swap2\n      swap1\n      tag_72\n      swap1\n      tag_35\n      jump\t// in\n    tag_72:\n      swap2\n      swap1\n      pop\n      sstore\n      pop\n        /* \"Library.sol\":1663:2046  function ReturnBook(uint bookId) public bookExists(bookId){... */\n      pop\n      pop\n      jump\t// out\n        /* \"Helpers.sol\":86:350  function intArrContainsValue(uint value, uint[] memory array) internal pure returns(bool){   ... */\n    tag_47:\n        /* \"Helpers.sol\":170:174  bool */\n      0x00\n        /* \"Helpers.sol\":193:199  uint i */\n      dup1\n        /* \"Helpers.sol\":200:201  0 */\n      0x00\n        /* \"Helpers.sol\":193:201  uint i=0 */\n      swap1\n      pop\n        /* \"Helpers.sol\":188:322  for (uint i=0; i < array.length; i++) {... */\n    tag_74:\n        /* \"Helpers.sol\":207:212  array */\n      dup3\n        /* \"Helpers.sol\":207:219  array.length */\n      mload\n        /* \"Helpers.sol\":203:204  i */\n      dup2\n        /* \"Helpers.sol\":203:219  i < array.length */\n      lt\n        /* \"Helpers.sol\":188:322  for (uint i=0; i < array.length; i++) {... */\n      iszero\n      tag_75\n      jumpi\n        /* \"Helpers.sol\":253:258  array */\n      dup3\n        /* \"Helpers.sol\":259:260  i */\n      dup2\n        /* \"Helpers.sol\":253:261  array[i] */\n      dup2\n      mload\n      dup2\n      lt\n      tag_77\n      jumpi\n      mstore(0x00, 0x4e487b7100000000000000000000000000000000000000000000000000000000)\n      mstore(0x04, 0x32)\n      revert(0x00, 0x24)\n    tag_77:\n      0x20\n      mul\n      0x20\n      add\n      add\n      mload\n        /* \"Helpers.sol\":244:249  value */\n      dup5\n        /* \"Helpers.sol\":244:261  value == array[i] */\n      eq\n        /* \"Helpers.sol\":240:312  if (value == array[i]) {     ... */\n      iszero\n      tag_78\n      jumpi\n        /* \"Helpers.sol\":293:297  true */\n      0x01\n        /* \"Helpers.sol\":286:297  return true */\n      swap2\n      pop\n      pop\n      jump(tag_73)\n        /* \"Helpers.sol\":240:312  if (value == array[i]) {     ... */\n    tag_78:\n        /* \"Helpers.sol\":221:224  i++ */\n      dup1\n      dup1\n      tag_79\n      swap1\n      tag_35\n      jump\t// in\n    tag_79:\n      swap2\n      pop\n      pop\n        /* \"Helpers.sol\":188:322  for (uint i=0; i < array.length; i++) {... */\n      jump(tag_74)\n    tag_75:\n      pop\n        /* \"Helpers.sol\":338:343  false */\n      0x00\n        /* \"Helpers.sol\":331:343  return false */\n      swap1\n      pop\n        /* \"Helpers.sol\":86:350  function intArrContainsValue(uint value, uint[] memory array) internal pure returns(bool){   ... */\n    tag_73:\n      swap3\n      swap2\n      pop\n      pop\n      jump\t// out\n        /* \"Helpers.sol\":356:630  function addressArrContainsValue(address value, address[] memory array) internal pure returns(bool){   ... */\n    tag_55:\n        /* \"Helpers.sol\":450:454  bool */\n      0x00\n        /* \"Helpers.sol\":473:479  uint i */\n      dup1\n        /* \"Helpers.sol\":480:481  0 */\n      0x00\n        /* \"Helpers.sol\":473:481  uint i=0 */\n      swap1\n      pop\n        /* \"Helpers.sol\":468:602  for (uint i=0; i < array.length; i++) {... */\n    tag_81:\n        /* \"Helpers.sol\":487:492  array */\n      dup3\n        /* \"Helpers.sol\":487:499  array.length */\n      mload\n        /* \"Helpers.sol\":483:484  i */\n      dup2\n        /* \"Helpers.sol\":483:499  i < array.length */\n      lt\n        /* \"Helpers.sol\":468:602  for (uint i=0; i < array.length; i++) {... */\n      iszero\n      tag_82\n      jumpi\n        /* \"Helpers.sol\":533:538  array */\n      dup3\n        /* \"Helpers.sol\":539:540  i */\n      dup2\n        /* \"Helpers.sol\":533:541  array[i] */\n      dup2\n      mload\n      dup2\n      lt\n      tag_84\n      jumpi\n      mstore(0x00, 0x4e487b7100000000000000000000000000000000000000000000000000000000)\n      mstore(0x04, 0x32)\n      revert(0x00, 0x24)\n    tag_84:\n      0x20\n      mul\n      0x20\n      add\n      add\n      mload\n        /* \"Helpers.sol\":524:541  value == array[i] */\n      0xffffffffffffffffffffffffffffffffffffffff\n      and\n        /* \"Helpers.sol\":524:529  value */\n      dup5\n        /* \"Helpers.sol\":524:541  value == array[i] */\n      0xffffffffffffffffffffffffffffffffffffffff\n      and\n      eq\n        /* \"Helpers.sol\":520:592  if (value == array[i]) {     ... */\n      iszero\n      tag_85\n      jumpi\n        /* \"Helpers.sol\":573:577  true */\n      0x01\n        /* \"Helpers.sol\":566:577  return true */\n      swap2\n      pop\n      pop\n      jump(tag_80)\n        /* \"Helpers.sol\":520:592  if (value == array[i]) {     ... */\n    tag_85:\n        /* \"Helpers.sol\":501:504  i++ */\n      dup1\n      dup1\n      tag_86\n      swap1\n      tag_35\n      jump\t// in\n    tag_86:\n      swap2\n      pop\n      pop\n        /* \"Helpers.sol\":468:602  for (uint i=0; i < array.length; i++) {... */\n      jump(tag_81)\n    tag_82:\n      pop\n        /* \"Helpers.sol\":618:623  false */\n      0x00\n        /* \"Helpers.sol\":611:623  return false */\n      swap1\n      pop\n        /* \"Helpers.sol\":356:630  function addressArrContainsValue(address value, address[] memory array) internal pure returns(bool){   ... */\n    tag_80:\n      swap3\n      swap2\n      pop\n      pop\n      jump\t// out\n        /* \"Helpers.sol\":636:899  function removeIntArrElement(uint[] storage array, uint id) internal{... */\n    tag_71:\n        /* \"Helpers.sol\":720:726  uint i */\n      0x00\n        /* \"Helpers.sol\":715:893  for (uint i=0; i < array.length; i++) {... */\n    tag_88:\n        /* \"Helpers.sol\":734:739  array */\n      dup3\n        /* \"Helpers.sol\":734:746  array.length */\n      dup1\n      sload\n      swap1\n      pop\n        /* \"Helpers.sol\":730:731  i */\n      dup2\n        /* \"Helpers.sol\":730:746  i < array.length */\n      lt\n        /* \"Helpers.sol\":715:893  for (uint i=0; i < array.length; i++) {... */\n      iszero\n      tag_89\n      jumpi\n        /* \"Helpers.sol\":777:782  array */\n      dup3\n        /* \"Helpers.sol\":783:784  i */\n      dup2\n        /* \"Helpers.sol\":777:785  array[i] */\n      dup2\n      sload\n      dup2\n      lt\n      tag_91\n      jumpi\n      mstore(0x00, 0x4e487b7100000000000000000000000000000000000000000000000000000000)\n      mstore(0x04, 0x32)\n      revert(0x00, 0x24)\n    tag_91:\n      swap1\n      0x00\n      mstore\n      keccak256(0x00, 0x20)\n      add\n      sload\n        /* \"Helpers.sol\":771:773  id */\n      dup3\n        /* \"Helpers.sol\":771:785  id == array[i] */\n      eq\n        /* \"Helpers.sol\":767:883  if (id == array[i]) {... */\n      iszero\n      tag_93\n      jumpi\n        /* \"Helpers.sol\":816:821  array */\n      dup3\n        /* \"Helpers.sol\":837:838  1 */\n      0x01\n        /* \"Helpers.sol\":822:827  array */\n      dup5\n        /* \"Helpers.sol\":822:834  array.length */\n      dup1\n      sload\n      swap1\n      pop\n        /* \"Helpers.sol\":822:838  array.length - 1 */\n      tag_94\n      swap2\n      swap1\n      tag_95\n      jump\t// in\n    tag_94:\n        /* \"Helpers.sol\":816:839  array[array.length - 1] */\n      dup2\n      sload\n      dup2\n      lt\n      tag_96\n      jumpi\n      mstore(0x00, 0x4e487b7100000000000000000000000000000000000000000000000000000000)\n      mstore(0x04, 0x32)\n      revert(0x00, 0x24)\n    tag_96:\n      swap1\n      0x00\n      mstore\n      keccak256(0x00, 0x20)\n      add\n      sload\n        /* \"Helpers.sol\":805:810  array */\n      dup4\n        /* \"Helpers.sol\":811:812  i */\n      dup3\n        /* \"Helpers.sol\":805:813  array[i] */\n      dup2\n      sload\n      dup2\n      lt\n      tag_98\n      jumpi\n      mstore(0x00, 0x4e487b7100000000000000000000000000000000000000000000000000000000)\n      mstore(0x04, 0x32)\n      revert(0x00, 0x24)\n    tag_98:\n      swap1\n      0x00\n      mstore\n      keccak256(0x00, 0x20)\n      add\n        /* \"Helpers.sol\":805:839  array[i] = array[array.length - 1] */\n      dup2\n      swap1\n      sstore\n      pop\n        /* \"Helpers.sol\":857:862  array */\n      dup3\n        /* \"Helpers.sol\":857:868  array.pop() */\n      dup1\n      sload\n      dup1\n      tag_100\n      jumpi\n      mstore(0x00, 0x4e487b7100000000000000000000000000000000000000000000000000000000)\n      mstore(0x04, 0x31)\n      revert(0x00, 0x24)\n    tag_100:\n      0x01\n      swap1\n      sub\n      dup2\n      dup2\n      swap1\n      0x00\n      mstore\n      keccak256(0x00, 0x20)\n      add\n      0x00\n      swap1\n      sstore\n      swap1\n      sstore\n        /* \"Helpers.sol\":767:883  if (id == array[i]) {... */\n    tag_93:\n        /* \"Helpers.sol\":748:751  i++ */\n      dup1\n      dup1\n      tag_102\n      swap1\n      tag_35\n      jump\t// in\n    tag_102:\n      swap2\n      pop\n      pop\n        /* \"Helpers.sol\":715:893  for (uint i=0; i < array.length; i++) {... */\n      jump(tag_88)\n    tag_89:\n      pop\n        /* \"Helpers.sol\":636:899  function removeIntArrElement(uint[] storage array, uint id) internal{... */\n      pop\n      pop\n      jump\t// out\n    tag_33:\n      dup3\n      dup1\n      sload\n      tag_103\n      swap1\n      tag_104\n      jump\t// in\n    tag_103:\n      swap1\n      0x00\n      mstore\n      keccak256(0x00, 0x20)\n      swap1\n      0x1f\n      add\n      0x20\n      swap1\n      div\n      dup2\n      add\n      swap3\n      dup3\n      tag_106\n      jumpi\n      0x00\n      dup6\n      sstore\n      jump(tag_105)\n    tag_106:\n      dup3\n      0x1f\n      lt\n      tag_107\n      jumpi\n      dup1\n      calldataload\n      not(0xff)\n      and\n      dup4\n      dup1\n      add\n      or\n      dup6\n      sstore\n      jump(tag_105)\n    tag_107:\n      dup3\n      dup1\n      add\n      0x01\n      add\n      dup6\n      sstore\n      dup3\n      iszero\n      tag_105\n      jumpi\n      swap2\n      dup3\n      add\n    tag_108:\n      dup3\n      dup2\n      gt\n      iszero\n      tag_109\n      jumpi\n      dup3\n      calldataload\n      dup3\n      sstore\n      swap2\n      0x20\n      add\n      swap2\n      swap1\n      0x01\n      add\n      swap1\n      jump(tag_108)\n    tag_109:\n    tag_105:\n      pop\n      swap1\n      pop\n      tag_110\n      swap2\n      swap1\n      tag_111\n      jump\t// in\n    tag_110:\n      pop\n      swap1\n      jump\t// out\n    tag_111:\n    tag_112:\n      dup1\n      dup3\n      gt\n      iszero\n      tag_113\n      jumpi\n      0x00\n      dup2\n      0x00\n      swap1\n      sstore\n      pop\n      0x01\n      add\n      jump(tag_112)\n    tag_113:\n      pop\n      swap1\n      jump\t// out\n        /* \"#utility.yul\":34:195   */\n    tag_115:\n      0x00\n        /* \"#utility.yul\":144:147   */\n      0x80\n        /* \"#utility.yul\":135:141   */\n      dup3\n        /* \"#utility.yul\":130:133   */\n      dup5\n        /* \"#utility.yul\":126:142   */\n      sub\n        /* \"#utility.yul\":122:148   */\n      slt\n        /* \"#utility.yul\":119:121   */\n      iszero\n      tag_117\n      jumpi\n        /* \"#utility.yul\":161:162   */\n      0x00\n        /* \"#utility.yul\":158:159   */\n      dup1\n        /* \"#utility.yul\":151:163   */\n      revert\n        /* \"#utility.yul\":119:121   */\n    tag_117:\n        /* \"#utility.yul\":183:189   */\n      dup2\n        /* \"#utility.yul\":174:189   */\n      swap1\n      pop\n        /* \"#utility.yul\":109:195   */\n      swap3\n      swap2\n      pop\n      pop\n      jump\t// out\n        /* \"#utility.yul\":201:340   */\n    tag_118:\n      0x00\n        /* \"#utility.yul\":285:291   */\n      dup2\n        /* \"#utility.yul\":272:292   */\n      calldataload\n        /* \"#utility.yul\":263:292   */\n      swap1\n      pop\n        /* \"#utility.yul\":301:334   */\n      tag_120\n        /* \"#utility.yul\":328:333   */\n      dup2\n        /* \"#utility.yul\":301:334   */\n      tag_121\n      jump\t// in\n    tag_120:\n        /* \"#utility.yul\":253:340   */\n      swap3\n      swap2\n      pop\n      pop\n      jump\t// out\n        /* \"#utility.yul\":346:747   */\n    tag_9:\n      0x00\n        /* \"#utility.yul\":477:479   */\n      0x20\n        /* \"#utility.yul\":465:474   */\n      dup3\n        /* \"#utility.yul\":456:463   */\n      dup5\n        /* \"#utility.yul\":452:475   */\n      sub\n        /* \"#utility.yul\":448:480   */\n      slt\n        /* \"#utility.yul\":445:447   */\n      iszero\n      tag_123\n      jumpi\n        /* \"#utility.yul\":493:494   */\n      0x00\n        /* \"#utility.yul\":490:491   */\n      dup1\n        /* \"#utility.yul\":483:495   */\n      revert\n        /* \"#utility.yul\":445:447   */\n    tag_123:\n        /* \"#utility.yul\":564:565   */\n      0x00\n        /* \"#utility.yul\":553:562   */\n      dup3\n        /* \"#utility.yul\":549:566   */\n      add\n        /* \"#utility.yul\":536:567   */\n      calldataload\n        /* \"#utility.yul\":594:612   */\n      0xffffffffffffffff\n        /* \"#utility.yul\":586:592   */\n      dup2\n        /* \"#utility.yul\":583:613   */\n      gt\n        /* \"#utility.yul\":580:582   */\n      iszero\n      tag_124\n      jumpi\n        /* \"#utility.yul\":626:627   */\n      0x00\n        /* \"#utility.yul\":623:624   */\n      dup1\n        /* \"#utility.yul\":616:628   */\n      revert\n        /* \"#utility.yul\":580:582   */\n    tag_124:\n        /* \"#utility.yul\":654:730   */\n      tag_125\n        /* \"#utility.yul\":722:729   */\n      dup5\n        /* \"#utility.yul\":713:719   */\n      dup3\n        /* \"#utility.yul\":702:711   */\n      dup6\n        /* \"#utility.yul\":698:720   */\n      add\n        /* \"#utility.yul\":654:730   */\n      tag_115\n      jump\t// in\n    tag_125:\n        /* \"#utility.yul\":644:730   */\n      swap2\n      pop\n        /* \"#utility.yul\":507:740   */\n      pop\n        /* \"#utility.yul\":435:747   */\n      swap3\n      swap2\n      pop\n      pop\n      jump\t// out\n        /* \"#utility.yul\":753:1015   */\n    tag_17:\n      0x00\n        /* \"#utility.yul\":861:863   */\n      0x20\n        /* \"#utility.yul\":849:858   */\n      dup3\n        /* \"#utility.yul\":840:847   */\n      dup5\n        /* \"#utility.yul\":836:859   */\n      sub\n        /* \"#utility.yul\":832:864   */\n      slt\n        /* \"#utility.yul\":829:831   */\n      iszero\n      tag_127\n      jumpi\n        /* \"#utility.yul\":877:878   */\n      0x00\n        /* \"#utility.yul\":874:875   */\n      dup1\n        /* \"#utility.yul\":867:879   */\n      revert\n        /* \"#utility.yul\":829:831   */\n    tag_127:\n        /* \"#utility.yul\":920:921   */\n      0x00\n        /* \"#utility.yul\":945:998   */\n      tag_128\n        /* \"#utility.yul\":990:997   */\n      dup5\n        /* \"#utility.yul\":981:987   */\n      dup3\n        /* \"#utility.yul\":970:979   */\n      dup6\n        /* \"#utility.yul\":966:988   */\n      add\n        /* \"#utility.yul\":945:998   */\n      tag_118\n      jump\t// in\n    tag_128:\n        /* \"#utility.yul\":935:998   */\n      swap2\n      pop\n        /* \"#utility.yul\":891:1008   */\n      pop\n        /* \"#utility.yul\":819:1015   */\n      swap3\n      swap2\n      pop\n      pop\n      jump\t// out\n        /* \"#utility.yul\":1021:1139   */\n    tag_129:\n        /* \"#utility.yul\":1108:1132   */\n      tag_131\n        /* \"#utility.yul\":1126:1131   */\n      dup2\n        /* \"#utility.yul\":1108:1132   */\n      tag_132\n      jump\t// in\n    tag_131:\n        /* \"#utility.yul\":1103:1106   */\n      dup3\n        /* \"#utility.yul\":1096:1133   */\n      mstore\n        /* \"#utility.yul\":1086:1139   */\n      pop\n      pop\n      jump\t// out\n        /* \"#utility.yul\":1145:1473   */\n    tag_133:\n      0x00\n        /* \"#utility.yul\":1308:1375   */\n      tag_135\n        /* \"#utility.yul\":1372:1374   */\n      0x1e\n        /* \"#utility.yul\":1367:1370   */\n      dup4\n        /* \"#utility.yul\":1308:1375   */\n      tag_136\n      jump\t// in\n    tag_135:\n        /* \"#utility.yul\":1301:1375   */\n      swap2\n      pop\n        /* \"#utility.yul\":1405:1437   */\n      0x596f7520686176656e7420626f72726f776564207468617420626f6f6b210000\n        /* \"#utility.yul\":1401:1402   */\n      0x00\n        /* \"#utility.yul\":1396:1399   */\n      dup4\n        /* \"#utility.yul\":1392:1403   */\n      add\n        /* \"#utility.yul\":1385:1438   */\n      mstore\n        /* \"#utility.yul\":1464:1466   */\n      0x20\n        /* \"#utility.yul\":1459:1462   */\n      dup3\n        /* \"#utility.yul\":1455:1467   */\n      add\n        /* \"#utility.yul\":1448:1467   */\n      swap1\n      pop\n        /* \"#utility.yul\":1291:1473   */\n      swap2\n      swap1\n      pop\n      jump\t// out\n        /* \"#utility.yul\":1479:1845   */\n    tag_137:\n      0x00\n        /* \"#utility.yul\":1642:1709   */\n      tag_139\n        /* \"#utility.yul\":1706:1708   */\n      0x22\n        /* \"#utility.yul\":1701:1704   */\n      dup4\n        /* \"#utility.yul\":1642:1709   */\n      tag_136\n      jump\t// in\n    tag_139:\n        /* \"#utility.yul\":1635:1709   */\n      swap2\n      pop\n        /* \"#utility.yul\":1739:1773   */\n      0x596f7527766520616c726561647920626f72726f776564207468617420626f6f\n        /* \"#utility.yul\":1735:1736   */\n      0x00\n        /* \"#utility.yul\":1730:1733   */\n      dup4\n        /* \"#utility.yul\":1726:1737   */\n      add\n        /* \"#utility.yul\":1719:1774   */\n      mstore\n        /* \"#utility.yul\":1805:1809   */\n      0x6b21000000000000000000000000000000000000000000000000000000000000\n        /* \"#utility.yul\":1800:1802   */\n      0x20\n        /* \"#utility.yul\":1795:1798   */\n      dup4\n        /* \"#utility.yul\":1791:1803   */\n      add\n        /* \"#utility.yul\":1784:1810   */\n      mstore\n        /* \"#utility.yul\":1836:1838   */\n      0x40\n        /* \"#utility.yul\":1831:1834   */\n      dup3\n        /* \"#utility.yul\":1827:1839   */\n      add\n        /* \"#utility.yul\":1820:1839   */\n      swap1\n      pop\n        /* \"#utility.yul\":1625:1845   */\n      swap2\n      swap1\n      pop\n      jump\t// out\n        /* \"#utility.yul\":1851:2175   */\n    tag_140:\n      0x00\n        /* \"#utility.yul\":2014:2081   */\n      tag_142\n        /* \"#utility.yul\":2078:2080   */\n      0x1a\n        /* \"#utility.yul\":2073:2076   */\n      dup4\n        /* \"#utility.yul\":2014:2081   */\n      tag_136\n      jump\t// in\n    tag_142:\n        /* \"#utility.yul\":2007:2081   */\n      swap2\n      pop\n        /* \"#utility.yul\":2111:2139   */\n      0x43757272656e742075736572206973206e6f74206f776e657221000000000000\n        /* \"#utility.yul\":2107:2108   */\n      0x00\n        /* \"#utility.yul\":2102:2105   */\n      dup4\n        /* \"#utility.yul\":2098:2109   */\n      add\n        /* \"#utility.yul\":2091:2140   */\n      mstore\n        /* \"#utility.yul\":2166:2168   */\n      0x20\n        /* \"#utility.yul\":2161:2164   */\n      dup3\n        /* \"#utility.yul\":2157:2169   */\n      add\n        /* \"#utility.yul\":2150:2169   */\n      swap1\n      pop\n        /* \"#utility.yul\":1997:2175   */\n      swap2\n      swap1\n      pop\n      jump\t// out\n        /* \"#utility.yul\":2181:2549   */\n    tag_143:\n      0x00\n        /* \"#utility.yul\":2344:2411   */\n      tag_145\n        /* \"#utility.yul\":2408:2410   */\n      0x24\n        /* \"#utility.yul\":2403:2406   */\n      dup4\n        /* \"#utility.yul\":2344:2411   */\n      tag_136\n      jump\t// in\n    tag_145:\n        /* \"#utility.yul\":2337:2411   */\n      swap2\n      pop\n        /* \"#utility.yul\":2441:2475   */\n      0x5468697320626f6f6b206973206f7574206f662073746f636b2063757272656e\n        /* \"#utility.yul\":2437:2438   */\n      0x00\n        /* \"#utility.yul\":2432:2435   */\n      dup4\n        /* \"#utility.yul\":2428:2439   */\n      add\n        /* \"#utility.yul\":2421:2476   */\n      mstore\n        /* \"#utility.yul\":2507:2513   */\n      0x746c792100000000000000000000000000000000000000000000000000000000\n        /* \"#utility.yul\":2502:2504   */\n      0x20\n        /* \"#utility.yul\":2497:2500   */\n      dup4\n        /* \"#utility.yul\":2493:2505   */\n      add\n        /* \"#utility.yul\":2486:2514   */\n      mstore\n        /* \"#utility.yul\":2540:2542   */\n      0x40\n        /* \"#utility.yul\":2535:2538   */\n      dup3\n        /* \"#utility.yul\":2531:2543   */\n      add\n        /* \"#utility.yul\":2524:2543   */\n      swap1\n      pop\n        /* \"#utility.yul\":2327:2549   */\n      swap2\n      swap1\n      pop\n      jump\t// out\n        /* \"#utility.yul\":2555:2922   */\n    tag_146:\n      0x00\n        /* \"#utility.yul\":2718:2785   */\n      tag_148\n        /* \"#utility.yul\":2782:2784   */\n      0x23\n        /* \"#utility.yul\":2777:2780   */\n      dup4\n        /* \"#utility.yul\":2718:2785   */\n      tag_136\n      jump\t// in\n    tag_148:\n        /* \"#utility.yul\":2711:2785   */\n      swap2\n      pop\n        /* \"#utility.yul\":2815:2849   */\n      0x426f6f6b20616c72656164792065786973747320696e20746865204c69627261\n        /* \"#utility.yul\":2811:2812   */\n      0x00\n        /* \"#utility.yul\":2806:2809   */\n      dup4\n        /* \"#utility.yul\":2802:2813   */\n      add\n        /* \"#utility.yul\":2795:2850   */\n      mstore\n        /* \"#utility.yul\":2881:2886   */\n      0x7279210000000000000000000000000000000000000000000000000000000000\n        /* \"#utility.yul\":2876:2878   */\n      0x20\n        /* \"#utility.yul\":2871:2874   */\n      dup4\n        /* \"#utility.yul\":2867:2879   */\n      add\n        /* \"#utility.yul\":2860:2887   */\n      mstore\n        /* \"#utility.yul\":2913:2915   */\n      0x40\n        /* \"#utility.yul\":2908:2911   */\n      dup3\n        /* \"#utility.yul\":2904:2916   */\n      add\n        /* \"#utility.yul\":2897:2916   */\n      swap1\n      pop\n        /* \"#utility.yul\":2701:2922   */\n      swap2\n      swap1\n      pop\n      jump\t// out\n        /* \"#utility.yul\":2928:3257   */\n    tag_149:\n      0x00\n        /* \"#utility.yul\":3091:3158   */\n      tag_151\n        /* \"#utility.yul\":3155:3157   */\n      0x1f\n        /* \"#utility.yul\":3150:3153   */\n      dup4\n        /* \"#utility.yul\":3091:3158   */\n      tag_136\n      jump\t// in\n    tag_151:\n        /* \"#utility.yul\":3084:3158   */\n      swap2\n      pop\n        /* \"#utility.yul\":3188:3221   */\n      0x426f6f6b20646f6573206e6f7420657869737420696e206c6962726172792100\n        /* \"#utility.yul\":3184:3185   */\n      0x00\n        /* \"#utility.yul\":3179:3182   */\n      dup4\n        /* \"#utility.yul\":3175:3186   */\n      add\n        /* \"#utility.yul\":3168:3222   */\n      mstore\n        /* \"#utility.yul\":3248:3250   */\n      0x20\n        /* \"#utility.yul\":3243:3246   */\n      dup3\n        /* \"#utility.yul\":3239:3251   */\n      add\n        /* \"#utility.yul\":3232:3251   */\n      swap1\n      pop\n        /* \"#utility.yul\":3074:3257   */\n      swap2\n      swap1\n      pop\n      jump\t// out\n        /* \"#utility.yul\":3263:3485   */\n    tag_14:\n      0x00\n        /* \"#utility.yul\":3394:3396   */\n      0x20\n        /* \"#utility.yul\":3383:3392   */\n      dup3\n        /* \"#utility.yul\":3379:3397   */\n      add\n        /* \"#utility.yul\":3371:3397   */\n      swap1\n      pop\n        /* \"#utility.yul\":3407:3478   */\n      tag_153\n        /* \"#utility.yul\":3475:3476   */\n      0x00\n        /* \"#utility.yul\":3464:3473   */\n      dup4\n        /* \"#utility.yul\":3460:3477   */\n      add\n        /* \"#utility.yul\":3451:3457   */\n      dup5\n        /* \"#utility.yul\":3407:3478   */\n      tag_129\n      jump\t// in\n    tag_153:\n        /* \"#utility.yul\":3361:3485   */\n      swap3\n      swap2\n      pop\n      pop\n      jump\t// out\n        /* \"#utility.yul\":3491:3910   */\n    tag_69:\n      0x00\n        /* \"#utility.yul\":3695:3697   */\n      0x20\n        /* \"#utility.yul\":3684:3693   */\n      dup3\n        /* \"#utility.yul\":3680:3698   */\n      add\n        /* \"#utility.yul\":3672:3698   */\n      swap1\n      pop\n        /* \"#utility.yul\":3744:3753   */\n      dup2\n        /* \"#utility.yul\":3738:3742   */\n      dup2\n        /* \"#utility.yul\":3734:3754   */\n      sub\n        /* \"#utility.yul\":3730:3731   */\n      0x00\n        /* \"#utility.yul\":3719:3728   */\n      dup4\n        /* \"#utility.yul\":3715:3732   */\n      add\n        /* \"#utility.yul\":3708:3755   */\n      mstore\n        /* \"#utility.yul\":3772:3903   */\n      tag_155\n        /* \"#utility.yul\":3898:3902   */\n      dup2\n        /* \"#utility.yul\":3772:3903   */\n      tag_133\n      jump\t// in\n    tag_155:\n        /* \"#utility.yul\":3764:3903   */\n      swap1\n      pop\n        /* \"#utility.yul\":3662:3910   */\n      swap2\n      swap1\n      pop\n      jump\t// out\n        /* \"#utility.yul\":3916:4335   */\n    tag_50:\n      0x00\n        /* \"#utility.yul\":4120:4122   */\n      0x20\n        /* \"#utility.yul\":4109:4118   */\n      dup3\n        /* \"#utility.yul\":4105:4123   */\n      add\n        /* \"#utility.yul\":4097:4123   */\n      swap1\n      pop\n        /* \"#utility.yul\":4169:4178   */\n      dup2\n        /* \"#utility.yul\":4163:4167   */\n      dup2\n        /* \"#utility.yul\":4159:4179   */\n      sub\n        /* \"#utility.yul\":4155:4156   */\n      0x00\n        /* \"#utility.yul\":4144:4153   */\n      dup4\n        /* \"#utility.yul\":4140:4157   */\n      add\n        /* \"#utility.yul\":4133:4180   */\n      mstore\n        /* \"#utility.yul\":4197:4328   */\n      tag_157\n        /* \"#utility.yul\":4323:4327   */\n      dup2\n        /* \"#utility.yul\":4197:4328   */\n      tag_137\n      jump\t// in\n    tag_157:\n        /* \"#utility.yul\":4189:4328   */\n      swap1\n      pop\n        /* \"#utility.yul\":4087:4335   */\n      swap2\n      swap1\n      pop\n      jump\t// out\n        /* \"#utility.yul\":4341:4760   */\n    tag_25:\n      0x00\n        /* \"#utility.yul\":4545:4547   */\n      0x20\n        /* \"#utility.yul\":4534:4543   */\n      dup3\n        /* \"#utility.yul\":4530:4548   */\n      add\n        /* \"#utility.yul\":4522:4548   */\n      swap1\n      pop\n        /* \"#utility.yul\":4594:4603   */\n      dup2\n        /* \"#utility.yul\":4588:4592   */\n      dup2\n        /* \"#utility.yul\":4584:4604   */\n      sub\n        /* \"#utility.yul\":4580:4581   */\n      0x00\n        /* \"#utility.yul\":4569:4578   */\n      dup4\n        /* \"#utility.yul\":4565:4582   */\n      add\n        /* \"#utility.yul\":4558:4605   */\n      mstore\n        /* \"#utility.yul\":4622:4753   */\n      tag_159\n        /* \"#utility.yul\":4748:4752   */\n      dup2\n        /* \"#utility.yul\":4622:4753   */\n      tag_140\n      jump\t// in\n    tag_159:\n        /* \"#utility.yul\":4614:4753   */\n      swap1\n      pop\n        /* \"#utility.yul\":4512:4760   */\n      swap2\n      swap1\n      pop\n      jump\t// out\n        /* \"#utility.yul\":4766:5185   */\n    tag_43:\n      0x00\n        /* \"#utility.yul\":4970:4972   */\n      0x20\n        /* \"#utility.yul\":4959:4968   */\n      dup3\n        /* \"#utility.yul\":4955:4973   */\n      add\n        /* \"#utility.yul\":4947:4973   */\n      swap1\n      pop\n        /* \"#utility.yul\":5019:5028   */\n      dup2\n        /* \"#utility.yul\":5013:5017   */\n      dup2\n        /* \"#utility.yul\":5009:5029   */\n      sub\n        /* \"#utility.yul\":5005:5006   */\n      0x00\n        /* \"#utility.yul\":4994:5003   */\n      dup4\n        /* \"#utility.yul\":4990:5007   */\n      add\n        /* \"#utility.yul\":4983:5030   */\n      mstore\n        /* \"#utility.yul\":5047:5178   */\n      tag_161\n        /* \"#utility.yul\":5173:5177   */\n      dup2\n        /* \"#utility.yul\":5047:5178   */\n      tag_143\n      jump\t// in\n    tag_161:\n        /* \"#utility.yul\":5039:5178   */\n      swap1\n      pop\n        /* \"#utility.yul\":4937:5185   */\n      swap2\n      swap1\n      pop\n      jump\t// out\n        /* \"#utility.yul\":5191:5610   */\n    tag_29:\n      0x00\n        /* \"#utility.yul\":5395:5397   */\n      0x20\n        /* \"#utility.yul\":5384:5393   */\n      dup3\n        /* \"#utility.yul\":5380:5398   */\n      add\n        /* \"#utility.yul\":5372:5398   */\n      swap1\n      pop\n        /* \"#utility.yul\":5444:5453   */\n      dup2\n        /* \"#utility.yul\":5438:5442   */\n      dup2\n        /* \"#utility.yul\":5434:5454   */\n      sub\n        /* \"#utility.yul\":5430:5431   */\n      0x00\n        /* \"#utility.yul\":5419:5428   */\n      dup4\n        /* \"#utility.yul\":5415:5432   */\n      add\n        /* \"#utility.yul\":5408:5455   */\n      mstore\n        /* \"#utility.yul\":5472:5603   */\n      tag_163\n        /* \"#utility.yul\":5598:5602   */\n      dup2\n        /* \"#utility.yul\":5472:5603   */\n      tag_146\n      jump\t// in\n    tag_163:\n        /* \"#utility.yul\":5464:5603   */\n      swap1\n      pop\n        /* \"#utility.yul\":5362:5610   */\n      swap2\n      swap1\n      pop\n      jump\t// out\n        /* \"#utility.yul\":5616:6035   */\n    tag_39:\n      0x00\n        /* \"#utility.yul\":5820:5822   */\n      0x20\n        /* \"#utility.yul\":5809:5818   */\n      dup3\n        /* \"#utility.yul\":5805:5823   */\n      add\n        /* \"#utility.yul\":5797:5823   */\n      swap1\n      pop\n        /* \"#utility.yul\":5869:5878   */\n      dup2\n        /* \"#utility.yul\":5863:5867   */\n      dup2\n        /* \"#utility.yul\":5859:5879   */\n      sub\n        /* \"#utility.yul\":5855:5856   */\n      0x00\n        /* \"#utility.yul\":5844:5853   */\n      dup4\n        /* \"#utility.yul\":5840:5857   */\n      add\n        /* \"#utility.yul\":5833:5880   */\n      mstore\n        /* \"#utility.yul\":5897:6028   */\n      tag_165\n        /* \"#utility.yul\":6023:6027   */\n      dup2\n        /* \"#utility.yul\":5897:6028   */\n      tag_149\n      jump\t// in\n    tag_165:\n        /* \"#utility.yul\":5889:6028   */\n      swap1\n      pop\n        /* \"#utility.yul\":5787:6035   */\n      swap2\n      swap1\n      pop\n      jump\t// out\n        /* \"#utility.yul\":6041:6565   */\n    tag_31:\n      0x00\n      dup1\n        /* \"#utility.yul\":6181:6192   */\n      dup4\n        /* \"#utility.yul\":6168:6193   */\n      calldataload\n        /* \"#utility.yul\":6281:6282   */\n      0x01\n        /* \"#utility.yul\":6275:6279   */\n      0x20\n        /* \"#utility.yul\":6271:6283   */\n      sub\n        /* \"#utility.yul\":6260:6268   */\n      dup5\n        /* \"#utility.yul\":6244:6258   */\n      calldatasize\n        /* \"#utility.yul\":6240:6269   */\n      sub\n        /* \"#utility.yul\":6236:6284   */\n      sub\n        /* \"#utility.yul\":6216:6234   */\n      dup2\n        /* \"#utility.yul\":6212:6285   */\n      slt\n        /* \"#utility.yul\":6202:6204   */\n      tag_167\n      jumpi\n        /* \"#utility.yul\":6299:6300   */\n      0x00\n        /* \"#utility.yul\":6296:6297   */\n      dup1\n        /* \"#utility.yul\":6289:6301   */\n      revert\n        /* \"#utility.yul\":6202:6204   */\n    tag_167:\n        /* \"#utility.yul\":6334:6352   */\n      dup1\n        /* \"#utility.yul\":6324:6332   */\n      dup5\n        /* \"#utility.yul\":6320:6353   */\n      add\n        /* \"#utility.yul\":6312:6353   */\n      swap3\n      pop\n        /* \"#utility.yul\":6386:6390   */\n      dup3\n        /* \"#utility.yul\":6373:6391   */\n      calldataload\n        /* \"#utility.yul\":6363:6391   */\n      swap2\n      pop\n        /* \"#utility.yul\":6414:6432   */\n      0xffffffffffffffff\n        /* \"#utility.yul\":6406:6412   */\n      dup3\n        /* \"#utility.yul\":6403:6433   */\n      gt\n        /* \"#utility.yul\":6400:6402   */\n      iszero\n      tag_168\n      jumpi\n        /* \"#utility.yul\":6446:6447   */\n      0x00\n        /* \"#utility.yul\":6443:6444   */\n      dup1\n        /* \"#utility.yul\":6436:6448   */\n      revert\n        /* \"#utility.yul\":6400:6402   */\n    tag_168:\n        /* \"#utility.yul\":6477:6479   */\n      0x20\n        /* \"#utility.yul\":6471:6475   */\n      dup4\n        /* \"#utility.yul\":6467:6480   */\n      add\n        /* \"#utility.yul\":6459:6480   */\n      swap3\n      pop\n        /* \"#utility.yul\":6534:6538   */\n      0x01\n        /* \"#utility.yul\":6526:6532   */\n      dup3\n        /* \"#utility.yul\":6522:6539   */\n      mul\n        /* \"#utility.yul\":6506:6520   */\n      calldatasize\n        /* \"#utility.yul\":6502:6540   */\n      sub\n        /* \"#utility.yul\":6496:6500   */\n      dup4\n        /* \"#utility.yul\":6492:6541   */\n      sgt\n        /* \"#utility.yul\":6489:6491   */\n      iszero\n      tag_169\n      jumpi\n        /* \"#utility.yul\":6554:6555   */\n      0x00\n        /* \"#utility.yul\":6551:6552   */\n      dup1\n        /* \"#utility.yul\":6544:6556   */\n      revert\n        /* \"#utility.yul\":6489:6491   */\n    tag_169:\n        /* \"#utility.yul\":6132:6565   */\n      pop\n      swap3\n      pop\n      swap3\n      swap1\n      pop\n      jump\t// out\n        /* \"#utility.yul\":6571:6740   */\n    tag_136:\n      0x00\n        /* \"#utility.yul\":6689:6695   */\n      dup3\n        /* \"#utility.yul\":6684:6687   */\n      dup3\n        /* \"#utility.yul\":6677:6696   */\n      mstore\n        /* \"#utility.yul\":6729:6733   */\n      0x20\n        /* \"#utility.yul\":6724:6727   */\n      dup3\n        /* \"#utility.yul\":6720:6734   */\n      add\n        /* \"#utility.yul\":6705:6734   */\n      swap1\n      pop\n        /* \"#utility.yul\":6667:6740   */\n      swap3\n      swap2\n      pop\n      pop\n      jump\t// out\n        /* \"#utility.yul\":6746:6937   */\n    tag_95:\n      0x00\n        /* \"#utility.yul\":6806:6826   */\n      tag_172\n        /* \"#utility.yul\":6824:6825   */\n      dup3\n        /* \"#utility.yul\":6806:6826   */\n      tag_173\n      jump\t// in\n    tag_172:\n        /* \"#utility.yul\":6801:6826   */\n      swap2\n      pop\n        /* \"#utility.yul\":6840:6860   */\n      tag_174\n        /* \"#utility.yul\":6858:6859   */\n      dup4\n        /* \"#utility.yul\":6840:6860   */\n      tag_173\n      jump\t// in\n    tag_174:\n        /* \"#utility.yul\":6835:6860   */\n      swap3\n      pop\n        /* \"#utility.yul\":6879:6880   */\n      dup3\n        /* \"#utility.yul\":6876:6877   */\n      dup3\n        /* \"#utility.yul\":6873:6881   */\n      lt\n        /* \"#utility.yul\":6870:6872   */\n      iszero\n      tag_175\n      jumpi\n        /* \"#utility.yul\":6884:6902   */\n      tag_176\n      tag_177\n      jump\t// in\n    tag_176:\n        /* \"#utility.yul\":6870:6872   */\n    tag_175:\n        /* \"#utility.yul\":6929:6930   */\n      dup3\n        /* \"#utility.yul\":6926:6927   */\n      dup3\n        /* \"#utility.yul\":6922:6931   */\n      sub\n        /* \"#utility.yul\":6914:6931   */\n      swap1\n      pop\n        /* \"#utility.yul\":6791:6937   */\n      swap3\n      swap2\n      pop\n      pop\n      jump\t// out\n        /* \"#utility.yul\":6943:7039   */\n    tag_132:\n      0x00\n        /* \"#utility.yul\":7009:7033   */\n      tag_179\n        /* \"#utility.yul\":7027:7032   */\n      dup3\n        /* \"#utility.yul\":7009:7033   */\n      tag_180\n      jump\t// in\n    tag_179:\n        /* \"#utility.yul\":6998:7033   */\n      swap1\n      pop\n        /* \"#utility.yul\":6988:7039   */\n      swap2\n      swap1\n      pop\n      jump\t// out\n        /* \"#utility.yul\":7045:7171   */\n    tag_180:\n      0x00\n        /* \"#utility.yul\":7122:7164   */\n      0xffffffffffffffffffffffffffffffffffffffff\n        /* \"#utility.yul\":7115:7120   */\n      dup3\n        /* \"#utility.yul\":7111:7165   */\n      and\n        /* \"#utility.yul\":7100:7165   */\n      swap1\n      pop\n        /* \"#utility.yul\":7090:7171   */\n      swap2\n      swap1\n      pop\n      jump\t// out\n        /* \"#utility.yul\":7177:7254   */\n    tag_173:\n      0x00\n        /* \"#utility.yul\":7243:7248   */\n      dup2\n        /* \"#utility.yul\":7232:7248   */\n      swap1\n      pop\n        /* \"#utility.yul\":7222:7254   */\n      swap2\n      swap1\n      pop\n      jump\t// out\n        /* \"#utility.yul\":7260:7431   */\n    tag_59:\n      0x00\n        /* \"#utility.yul\":7322:7346   */\n      tag_184\n        /* \"#utility.yul\":7340:7345   */\n      dup3\n        /* \"#utility.yul\":7322:7346   */\n      tag_173\n      jump\t// in\n    tag_184:\n        /* \"#utility.yul\":7313:7346   */\n      swap2\n      pop\n        /* \"#utility.yul\":7368:7372   */\n      0x00\n        /* \"#utility.yul\":7361:7366   */\n      dup3\n        /* \"#utility.yul\":7358:7373   */\n      eq\n        /* \"#utility.yul\":7355:7357   */\n      iszero\n      tag_185\n      jumpi\n        /* \"#utility.yul\":7376:7394   */\n      tag_186\n      tag_177\n      jump\t// in\n    tag_186:\n        /* \"#utility.yul\":7355:7357   */\n    tag_185:\n        /* \"#utility.yul\":7423:7424   */\n      0x01\n        /* \"#utility.yul\":7416:7421   */\n      dup3\n        /* \"#utility.yul\":7412:7425   */\n      sub\n        /* \"#utility.yul\":7405:7425   */\n      swap1\n      pop\n        /* \"#utility.yul\":7303:7431   */\n      swap2\n      swap1\n      pop\n      jump\t// out\n        /* \"#utility.yul\":7437:7757   */\n    tag_104:\n      0x00\n        /* \"#utility.yul\":7518:7519   */\n      0x02\n        /* \"#utility.yul\":7512:7516   */\n      dup3\n        /* \"#utility.yul\":7508:7520   */\n      div\n        /* \"#utility.yul\":7498:7520   */\n      swap1\n      pop\n        /* \"#utility.yul\":7565:7566   */\n      0x01\n        /* \"#utility.yul\":7559:7563   */\n      dup3\n        /* \"#utility.yul\":7555:7567   */\n      and\n        /* \"#utility.yul\":7586:7604   */\n      dup1\n        /* \"#utility.yul\":7576:7578   */\n      tag_188\n      jumpi\n        /* \"#utility.yul\":7642:7646   */\n      0x7f\n        /* \"#utility.yul\":7634:7640   */\n      dup3\n        /* \"#utility.yul\":7630:7647   */\n      and\n        /* \"#utility.yul\":7620:7647   */\n      swap2\n      pop\n        /* \"#utility.yul\":7576:7578   */\n    tag_188:\n        /* \"#utility.yul\":7704:7706   */\n      0x20\n        /* \"#utility.yul\":7696:7702   */\n      dup3\n        /* \"#utility.yul\":7693:7707   */\n      lt\n        /* \"#utility.yul\":7673:7691   */\n      dup2\n        /* \"#utility.yul\":7670:7708   */\n      eq\n        /* \"#utility.yul\":7667:7669   */\n      iszero\n      tag_189\n      jumpi\n        /* \"#utility.yul\":7723:7741   */\n      tag_190\n      tag_191\n      jump\t// in\n    tag_190:\n        /* \"#utility.yul\":7667:7669   */\n    tag_189:\n        /* \"#utility.yul\":7488:7757   */\n      pop\n      swap2\n      swap1\n      pop\n      jump\t// out\n        /* \"#utility.yul\":7763:7996   */\n    tag_35:\n      0x00\n        /* \"#utility.yul\":7825:7849   */\n      tag_193\n        /* \"#utility.yul\":7843:7848   */\n      dup3\n        /* \"#utility.yul\":7825:7849   */\n      tag_173\n      jump\t// in\n    tag_193:\n        /* \"#utility.yul\":7816:7849   */\n      swap2\n      pop\n        /* \"#utility.yul\":7871:7937   */\n      0xffffffffffffffffffffffffffffffffffffffffffffffffffffffffffffffff\n        /* \"#utility.yul\":7864:7869   */\n      dup3\n        /* \"#utility.yul\":7861:7938   */\n      eq\n        /* \"#utility.yul\":7858:7860   */\n      iszero\n      tag_194\n      jumpi\n        /* \"#utility.yul\":7941:7959   */\n      tag_195\n      tag_177\n      jump\t// in\n    tag_195:\n        /* \"#utility.yul\":7858:7860   */\n    tag_194:\n        /* \"#utility.yul\":7988:7989   */\n      0x01\n        /* \"#utility.yul\":7981:7986   */\n      dup3\n        /* \"#utility.yul\":7977:7990   */\n      add\n        /* \"#utility.yul\":7970:7990   */\n      swap1\n      pop\n        /* \"#utility.yul\":7806:7996   */\n      swap2\n      swap1\n      pop\n      jump\t// out\n        /* \"#utility.yul\":8002:8182   */\n    tag_177:\n        /* \"#utility.yul\":8050:8127   */\n      0x4e487b7100000000000000000000000000000000000000000000000000000000\n        /* \"#utility.yul\":8047:8048   */\n      0x00\n        /* \"#utility.yul\":8040:8128   */\n      mstore\n        /* \"#utility.yul\":8147:8151   */\n      0x11\n        /* \"#utility.yul\":8144:8145   */\n      0x04\n        /* \"#utility.yul\":8137:8152   */\n      mstore\n        /* \"#utility.yul\":8171:8175   */\n      0x24\n        /* \"#utility.yul\":8168:8169   */\n      0x00\n        /* \"#utility.yul\":8161:8176   */\n      revert\n        /* \"#utility.yul\":8188:8368   */\n    tag_191:\n        /* \"#utility.yul\":8236:8313   */\n      0x4e487b7100000000000000000000000000000000000000000000000000000000\n        /* \"#utility.yul\":8233:8234   */\n      0x00\n        /* \"#utility.yul\":8226:8314   */\n      mstore\n        /* \"#utility.yul\":8333:8337   */\n      0x22\n        /* \"#utility.yul\":8330:8331   */\n      0x04\n        /* \"#utility.yul\":8323:8338   */\n      mstore\n        /* \"#utility.yul\":8357:8361   */\n      0x24\n        /* \"#utility.yul\":8354:8355   */\n      0x00\n        /* \"#utility.yul\":8347:8362   */\n      revert\n        /* \"#utility.yul\":8374:8496   */\n    tag_121:\n        /* \"#utility.yul\":8447:8471   */\n      tag_199\n        /* \"#utility.yul\":8465:8470   */\n      dup2\n        /* \"#utility.yul\":8447:8471   */\n      tag_173\n      jump\t// in\n    tag_199:\n        /* \"#utility.yul\":8440:8445   */\n      dup2\n        /* \"#utility.yul\":8437:8472   */\n      eq\n        /* \"#utility.yul\":8427:8429   */\n      tag_200\n      jumpi\n        /* \"#utility.yul\":8486:8487   */\n      0x00\n        /* \"#utility.yul\":8483:8484   */\n      dup1\n        /* \"#utility.yul\":8476:8488   */\n      revert\n        /* \"#utility.yul\":8427:8429   */\n    tag_200:\n        /* \"#utility.yul\":8417:8496   */\n      pop\n      jump\t// out\n\n    auxdata: 0xa2646970667358221220a1f1618cdc8de5c8a85f2dbd5d89a25594f50646ebc690b4019dbde2f970c8fd64736f6c63430008000033\n}\n",
				"bytecode": {
					"linkReferences": {},
					"object": "608060405234801561001057600080fd5b50336000806101000a81548173ffffffffffffffffffffffffffffffffffffffff021916908373ffffffffffffffffffffffffffffffffffffffff160217905550611060806100606000396000f3fe608060405234801561001057600080fd5b506004361061004c5760003560e01c80635d16b308146100515780638da5cb5b1461006d5780639649faa31461008b578063b8dd17db146100a7575b600080fd5b61006b60048036038101906100669190610af2565b6100c3565b005b610075610279565b6040516100829190610d5d565b60405180910390f35b6100a560048036038101906100a09190610b33565b61029d565b005b6100c160048036038101906100bc9190610b33565b6105e2565b005b60008054906101000a900473ffffffffffffffffffffffffffffffffffffffff1673ffffffffffffffffffffffffffffffffffffffff163373ffffffffffffffffffffffffffffffffffffffff1614610151576040517f08c379a000000000000000000000000000000000000000000000000000000000815260040161014890610db8565b60405180910390fd5b60026000600154815260200190815260200160002060030160009054906101000a900460ff16156101b7576040517f08c379a00000000000000000000000000000000000000000000000000000000081526004016101ae90610df8565b60405180910390fd5b600154600260006001548152602001908152602001600020600001819055508080602001906101e69190610e38565b600260006001548152602001908152602001600020600101919061020b929190610a1f565b50806040013560026000600154815260200190815260200160002060020181905550600160026000600154815260200190815260200160002060030160006101000a81548160ff0219169083151502179055506001600081548092919061027190610f6c565b919050555050565b60008054906101000a900473ffffffffffffffffffffffffffffffffffffffff1681565b806002600082815260200190815260200160002060030160009054906101000a900460ff16610301576040517f08c379a00000000000000000000000000000000000000000000000000000000081526004016102f890610e18565b60405180910390fd5b60006002600084815260200190815260200160002060020154141561035b576040517f08c379a000000000000000000000000000000000000000000000000000000000815260040161035290610dd8565b60405180910390fd5b6103f282600460003373ffffffffffffffffffffffffffffffffffffffff1673ffffffffffffffffffffffffffffffffffffffff1681526020019081526020016000208054806020026020016040519081016040528092919081815260200182805480156103e857602002820191906000526020600020905b8154815260200190600101908083116103d4575b5050505050610794565b15610432576040517f08c379a000000000000000000000000000000000000000000000000000000000815260040161042990610d98565b60405180910390fd5b600460003373ffffffffffffffffffffffffffffffffffffffff1673ffffffffffffffffffffffffffffffffffffffff168152602001908152602001600020829080600181540180825580915050600190039060005260206000200160009091909190915055610539336003600085815260200190815260200160002080548060200260200160405190810160405280929190818152602001828054801561052f57602002820191906000526020600020905b8160009054906101000a900473ffffffffffffffffffffffffffffffffffffffff1673ffffffffffffffffffffffffffffffffffffffff16815260200190600101908083116104e5575b5050505050610816565b6105b25760036000838152602001908152602001600020339080600181540180825580915050600190039060005260206000200160009091909190916101000a81548173ffffffffffffffffffffffffffffffffffffffff021916908373ffffffffffffffffffffffffffffffffffffffff1602179055505b6002600083815260200190815260200160002060020160008154809291906105d990610f10565b91905055505050565b806002600082815260200190815260200160002060030160009054906101000a900460ff16610646576040517f08c379a000000000000000000000000000000000000000000000000000000000815260040161063d90610e18565b60405180910390fd5b6106dd82600460003373ffffffffffffffffffffffffffffffffffffffff1673ffffffffffffffffffffffffffffffffffffffff1681526020019081526020016000208054806020026020016040519081016040528092919081815260200182805480156106d357602002820191906000526020600020905b8154815260200190600101908083116106bf575b5050505050610794565b61071c576040517f08c379a000000000000000000000000000000000000000000000000000000000815260040161071390610d78565b60405180910390fd5b610764600460003373ffffffffffffffffffffffffffffffffffffffff1673ffffffffffffffffffffffffffffffffffffffff168152602001908152602001600020836108c4565b60026000838152602001908152602001600020600201600081548092919061078b90610f6c565b91905055505050565b600080600090505b825181101561080a578281815181106107de577f4e487b7100000000000000000000000000000000000000000000000000000000600052603260045260246000fd5b60200260200101518414156107f7576001915050610810565b808061080290610f6c565b91505061079c565b50600090505b92915050565b600080600090505b82518110156108b857828181518110610860577f4e487b7100000000000000000000000000000000000000000000000000000000600052603260045260246000fd5b602002602001015173ffffffffffffffffffffffffffffffffffffffff168473ffffffffffffffffffffffffffffffffffffffff1614156108a55760019150506108be565b80806108b090610f6c565b91505061081e565b50600090505b92915050565b60005b8280549050811015610a1a5782818154811061090c577f4e487b7100000000000000000000000000000000000000000000000000000000600052603260045260246000fd5b9060005260206000200154821415610a075782600184805490506109309190610ea0565b81548110610967577f4e487b7100000000000000000000000000000000000000000000000000000000600052603260045260246000fd5b90600052602060002001548382815481106109ab577f4e487b7100000000000000000000000000000000000000000000000000000000600052603260045260246000fd5b9060005260206000200181905550828054806109f0577f4e487b7100000000000000000000000000000000000000000000000000000000600052603160045260246000fd5b600190038181906000526020600020016000905590555b8080610a1290610f6c565b9150506108c7565b505050565b828054610a2b90610f3a565b90600052602060002090601f016020900481019282610a4d5760008555610a94565b82601f10610a6657803560ff1916838001178555610a94565b82800160010185558215610a94579182015b82811115610a93578235825591602001919060010190610a78565b5b509050610aa19190610aa5565b5090565b5b80821115610abe576000816000905550600101610aa6565b5090565b600060808284031215610ad457600080fd5b81905092915050565b600081359050610aec81611013565b92915050565b600060208284031215610b0457600080fd5b600082013567ffffffffffffffff811115610b1e57600080fd5b610b2a84828501610ac2565b91505092915050565b600060208284031215610b4557600080fd5b6000610b5384828501610add565b91505092915050565b610b6581610ed4565b82525050565b6000610b78601e83610e8f565b91507f596f7520686176656e7420626f72726f776564207468617420626f6f6b2100006000830152602082019050919050565b6000610bb8602283610e8f565b91507f596f7527766520616c726561647920626f72726f776564207468617420626f6f60008301527f6b210000000000000000000000000000000000000000000000000000000000006020830152604082019050919050565b6000610c1e601a83610e8f565b91507f43757272656e742075736572206973206e6f74206f776e6572210000000000006000830152602082019050919050565b6000610c5e602483610e8f565b91507f5468697320626f6f6b206973206f7574206f662073746f636b2063757272656e60008301527f746c7921000000000000000000000000000000000000000000000000000000006020830152604082019050919050565b6000610cc4602383610e8f565b91507f426f6f6b20616c72656164792065786973747320696e20746865204c6962726160008301527f72792100000000000000000000000000000000000000000000000000000000006020830152604082019050919050565b6000610d2a601f83610e8f565b91507f426f6f6b20646f6573206e6f7420657869737420696e206c69627261727921006000830152602082019050919050565b6000602082019050610d726000830184610b5c565b92915050565b60006020820190508181036000830152610d9181610b6b565b9050919050565b60006020820190508181036000830152610db181610bab565b9050919050565b60006020820190508181036000830152610dd181610c11565b9050919050565b60006020820190508181036000830152610df181610c51565b9050919050565b60006020820190508181036000830152610e1181610cb7565b9050919050565b60006020820190508181036000830152610e3181610d1d565b9050919050565b60008083356001602003843603038112610e5157600080fd5b80840192508235915067ffffffffffffffff821115610e6f57600080fd5b602083019250600182023603831315610e8757600080fd5b509250929050565b600082825260208201905092915050565b6000610eab82610f06565b9150610eb683610f06565b925082821015610ec957610ec8610fb5565b5b828203905092915050565b6000610edf82610ee6565b9050919050565b600073ffffffffffffffffffffffffffffffffffffffff82169050919050565b6000819050919050565b6000610f1b82610f06565b91506000821415610f2f57610f2e610fb5565b5b600182039050919050565b60006002820490506001821680610f5257607f821691505b60208210811415610f6657610f65610fe4565b5b50919050565b6000610f7782610f06565b91507fffffffffffffffffffffffffffffffffffffffffffffffffffffffffffffffff821415610faa57610fa9610fb5565b5b600182019050919050565b7f4e487b7100000000000000000000000000000000000000000000000000000000600052601160045260246000fd5b7f4e487b7100000000000000000000000000000000000000000000000000000000600052602260045260246000fd5b61101c81610f06565b811461102757600080fd5b5056fea2646970667358221220a1f1618cdc8de5c8a85f2dbd5d89a25594f50646ebc690b4019dbde2f970c8fd64736f6c63430008000033",
					"opcodes": "PUSH1 0x80 PUSH1 0x40 MSTORE CALLVALUE DUP1 ISZERO PUSH2 0x10 JUMPI PUSH1 0x0 DUP1 REVERT JUMPDEST POP CALLER PUSH1 0x0 DUP1 PUSH2 0x100 EXP DUP2 SLOAD DUP2 PUSH20 0xFFFFFFFFFFFFFFFFFFFFFFFFFFFFFFFFFFFFFFFF MUL NOT AND SWAP1 DUP4 PUSH20 0xFFFFFFFFFFFFFFFFFFFFFFFFFFFFFFFFFFFFFFFF AND MUL OR SWAP1 SSTORE POP PUSH2 0x1060 DUP1 PUSH2 0x60 PUSH1 0x0 CODECOPY PUSH1 0x0 RETURN INVALID PUSH1 0x80 PUSH1 0x40 MSTORE CALLVALUE DUP1 ISZERO PUSH2 0x10 JUMPI PUSH1 0x0 DUP1 REVERT JUMPDEST POP PUSH1 0x4 CALLDATASIZE LT PUSH2 0x4C JUMPI PUSH1 0x0 CALLDATALOAD PUSH1 0xE0 SHR DUP1 PUSH4 0x5D16B308 EQ PUSH2 0x51 JUMPI DUP1 PUSH4 0x8DA5CB5B EQ PUSH2 0x6D JUMPI DUP1 PUSH4 0x9649FAA3 EQ PUSH2 0x8B JUMPI DUP1 PUSH4 0xB8DD17DB EQ PUSH2 0xA7 JUMPI JUMPDEST PUSH1 0x0 DUP1 REVERT JUMPDEST PUSH2 0x6B PUSH1 0x4 DUP1 CALLDATASIZE SUB DUP2 ADD SWAP1 PUSH2 0x66 SWAP2 SWAP1 PUSH2 0xAF2 JUMP JUMPDEST PUSH2 0xC3 JUMP JUMPDEST STOP JUMPDEST PUSH2 0x75 PUSH2 0x279 JUMP JUMPDEST PUSH1 0x40 MLOAD PUSH2 0x82 SWAP2 SWAP1 PUSH2 0xD5D JUMP JUMPDEST PUSH1 0x40 MLOAD DUP1 SWAP2 SUB SWAP1 RETURN JUMPDEST PUSH2 0xA5 PUSH1 0x4 DUP1 CALLDATASIZE SUB DUP2 ADD SWAP1 PUSH2 0xA0 SWAP2 SWAP1 PUSH2 0xB33 JUMP JUMPDEST PUSH2 0x29D JUMP JUMPDEST STOP JUMPDEST PUSH2 0xC1 PUSH1 0x4 DUP1 CALLDATASIZE SUB DUP2 ADD SWAP1 PUSH2 0xBC SWAP2 SWAP1 PUSH2 0xB33 JUMP JUMPDEST PUSH2 0x5E2 JUMP JUMPDEST STOP JUMPDEST PUSH1 0x0 DUP1 SLOAD SWAP1 PUSH2 0x100 EXP SWAP1 DIV PUSH20 0xFFFFFFFFFFFFFFFFFFFFFFFFFFFFFFFFFFFFFFFF AND PUSH20 0xFFFFFFFFFFFFFFFFFFFFFFFFFFFFFFFFFFFFFFFF AND CALLER PUSH20 0xFFFFFFFFFFFFFFFFFFFFFFFFFFFFFFFFFFFFFFFF AND EQ PUSH2 0x151 JUMPI PUSH1 0x40 MLOAD PUSH32 0x8C379A000000000000000000000000000000000000000000000000000000000 DUP2 MSTORE PUSH1 0x4 ADD PUSH2 0x148 SWAP1 PUSH2 0xDB8 JUMP JUMPDEST PUSH1 0x40 MLOAD DUP1 SWAP2 SUB SWAP1 REVERT JUMPDEST PUSH1 0x2 PUSH1 0x0 PUSH1 0x1 SLOAD DUP2 MSTORE PUSH1 0x20 ADD SWAP1 DUP2 MSTORE PUSH1 0x20 ADD PUSH1 0x0 KECCAK256 PUSH1 0x3 ADD PUSH1 0x0 SWAP1 SLOAD SWAP1 PUSH2 0x100 EXP SWAP1 DIV PUSH1 0xFF AND ISZERO PUSH2 0x1B7 JUMPI PUSH1 0x40 MLOAD PUSH32 0x8C379A000000000000000000000000000000000000000000000000000000000 DUP2 MSTORE PUSH1 0x4 ADD PUSH2 0x1AE SWAP1 PUSH2 0xDF8 JUMP JUMPDEST PUSH1 0x40 MLOAD DUP1 SWAP2 SUB SWAP1 REVERT JUMPDEST PUSH1 0x1 SLOAD PUSH1 0x2 PUSH1 0x0 PUSH1 0x1 SLOAD DUP2 MSTORE PUSH1 0x20 ADD SWAP1 DUP2 MSTORE PUSH1 0x20 ADD PUSH1 0x0 KECCAK256 PUSH1 0x0 ADD DUP2 SWAP1 SSTORE POP DUP1 DUP1 PUSH1 0x20 ADD SWAP1 PUSH2 0x1E6 SWAP2 SWAP1 PUSH2 0xE38 JUMP JUMPDEST PUSH1 0x2 PUSH1 0x0 PUSH1 0x1 SLOAD DUP2 MSTORE PUSH1 0x20 ADD SWAP1 DUP2 MSTORE PUSH1 0x20 ADD PUSH1 0x0 KECCAK256 PUSH1 0x1 ADD SWAP2 SWAP1 PUSH2 0x20B SWAP3 SWAP2 SWAP1 PUSH2 0xA1F JUMP JUMPDEST POP DUP1 PUSH1 0x40 ADD CALLDATALOAD PUSH1 0x2 PUSH1 0x0 PUSH1 0x1 SLOAD DUP2 MSTORE PUSH1 0x20 ADD SWAP1 DUP2 MSTORE PUSH1 0x20 ADD PUSH1 0x0 KECCAK256 PUSH1 0x2 ADD DUP2 SWAP1 SSTORE POP PUSH1 0x1 PUSH1 0x2 PUSH1 0x0 PUSH1 0x1 SLOAD DUP2 MSTORE PUSH1 0x20 ADD SWAP1 DUP2 MSTORE PUSH1 0x20 ADD PUSH1 0x0 KECCAK256 PUSH1 0x3 ADD PUSH1 0x0 PUSH2 0x100 EXP DUP2 SLOAD DUP2 PUSH1 0xFF MUL NOT AND SWAP1 DUP4 ISZERO ISZERO MUL OR SWAP1 SSTORE POP PUSH1 0x1 PUSH1 0x0 DUP2 SLOAD DUP1 SWAP3 SWAP2 SWAP1 PUSH2 0x271 SWAP1 PUSH2 0xF6C JUMP JUMPDEST SWAP2 SWAP1 POP SSTORE POP POP JUMP JUMPDEST PUSH1 0x0 DUP1 SLOAD SWAP1 PUSH2 0x100 EXP SWAP1 DIV PUSH20 0xFFFFFFFFFFFFFFFFFFFFFFFFFFFFFFFFFFFFFFFF AND DUP2 JUMP JUMPDEST DUP1 PUSH1 0x2 PUSH1 0x0 DUP3 DUP2 MSTORE PUSH1 0x20 ADD SWAP1 DUP2 MSTORE PUSH1 0x20 ADD PUSH1 0x0 KECCAK256 PUSH1 0x3 ADD PUSH1 0x0 SWAP1 SLOAD SWAP1 PUSH2 0x100 EXP SWAP1 DIV PUSH1 0xFF AND PUSH2 0x301 JUMPI PUSH1 0x40 MLOAD PUSH32 0x8C379A000000000000000000000000000000000000000000000000000000000 DUP2 MSTORE PUSH1 0x4 ADD PUSH2 0x2F8 SWAP1 PUSH2 0xE18 JUMP JUMPDEST PUSH1 0x40 MLOAD DUP1 SWAP2 SUB SWAP1 REVERT JUMPDEST PUSH1 0x0 PUSH1 0x2 PUSH1 0x0 DUP5 DUP2 MSTORE PUSH1 0x20 ADD SWAP1 DUP2 MSTORE PUSH1 0x20 ADD PUSH1 0x0 KECCAK256 PUSH1 0x2 ADD SLOAD EQ ISZERO PUSH2 0x35B JUMPI PUSH1 0x40 MLOAD PUSH32 0x8C379A000000000000000000000000000000000000000000000000000000000 DUP2 MSTORE PUSH1 0x4 ADD PUSH2 0x352 SWAP1 PUSH2 0xDD8 JUMP JUMPDEST PUSH1 0x40 MLOAD DUP1 SWAP2 SUB SWAP1 REVERT JUMPDEST PUSH2 0x3F2 DUP3 PUSH1 0x4 PUSH1 0x0 CALLER PUSH20 0xFFFFFFFFFFFFFFFFFFFFFFFFFFFFFFFFFFFFFFFF AND PUSH20 0xFFFFFFFFFFFFFFFFFFFFFFFFFFFFFFFFFFFFFFFF AND DUP2 MSTORE PUSH1 0x20 ADD SWAP1 DUP2 MSTORE PUSH1 0x20 ADD PUSH1 0x0 KECCAK256 DUP1 SLOAD DUP1 PUSH1 0x20 MUL PUSH1 0x20 ADD PUSH1 0x40 MLOAD SWAP1 DUP2 ADD PUSH1 0x40 MSTORE DUP1 SWAP3 SWAP2 SWAP1 DUP2 DUP2 MSTORE PUSH1 0x20 ADD DUP3 DUP1 SLOAD DUP1 ISZERO PUSH2 0x3E8 JUMPI PUSH1 0x20 MUL DUP3 ADD SWAP2 SWAP1 PUSH1 0x0 MSTORE PUSH1 0x20 PUSH1 0x0 KECCAK256 SWAP1 JUMPDEST DUP2 SLOAD DUP2 MSTORE PUSH1 0x20 ADD SWAP1 PUSH1 0x1 ADD SWAP1 DUP1 DUP4 GT PUSH2 0x3D4 JUMPI JUMPDEST POP POP POP POP POP PUSH2 0x794 JUMP JUMPDEST ISZERO PUSH2 0x432 JUMPI PUSH1 0x40 MLOAD PUSH32 0x8C379A000000000000000000000000000000000000000000000000000000000 DUP2 MSTORE PUSH1 0x4 ADD PUSH2 0x429 SWAP1 PUSH2 0xD98 JUMP JUMPDEST PUSH1 0x40 MLOAD DUP1 SWAP2 SUB SWAP1 REVERT JUMPDEST PUSH1 0x4 PUSH1 0x0 CALLER PUSH20 0xFFFFFFFFFFFFFFFFFFFFFFFFFFFFFFFFFFFFFFFF AND PUSH20 0xFFFFFFFFFFFFFFFFFFFFFFFFFFFFFFFFFFFFFFFF AND DUP2 MSTORE PUSH1 0x20 ADD SWAP1 DUP2 MSTORE PUSH1 0x20 ADD PUSH1 0x0 KECCAK256 DUP3 SWAP1 DUP1 PUSH1 0x1 DUP2 SLOAD ADD DUP1 DUP3 SSTORE DUP1 SWAP2 POP POP PUSH1 0x1 SWAP1 SUB SWAP1 PUSH1 0x0 MSTORE PUSH1 0x20 PUSH1 0x0 KECCAK256 ADD PUSH1 0x0 SWAP1 SWAP2 SWAP1 SWAP2 SWAP1 SWAP2 POP SSTORE PUSH2 0x539 CALLER PUSH1 0x3 PUSH1 0x0 DUP6 DUP2 MSTORE PUSH1 0x20 ADD SWAP1 DUP2 MSTORE PUSH1 0x20 ADD PUSH1 0x0 KECCAK256 DUP1 SLOAD DUP1 PUSH1 0x20 MUL PUSH1 0x20 ADD PUSH1 0x40 MLOAD SWAP1 DUP2 ADD PUSH1 0x40 MSTORE DUP1 SWAP3 SWAP2 SWAP1 DUP2 DUP2 MSTORE PUSH1 0x20 ADD DUP3 DUP1 SLOAD DUP1 ISZERO PUSH2 0x52F JUMPI PUSH1 0x20 MUL DUP3 ADD SWAP2 SWAP1 PUSH1 0x0 MSTORE PUSH1 0x20 PUSH1 0x0 KECCAK256 SWAP1 JUMPDEST DUP2 PUSH1 0x0 SWAP1 SLOAD SWAP1 PUSH2 0x100 EXP SWAP1 DIV PUSH20 0xFFFFFFFFFFFFFFFFFFFFFFFFFFFFFFFFFFFFFFFF AND PUSH20 0xFFFFFFFFFFFFFFFFFFFFFFFFFFFFFFFFFFFFFFFF AND DUP2 MSTORE PUSH1 0x20 ADD SWAP1 PUSH1 0x1 ADD SWAP1 DUP1 DUP4 GT PUSH2 0x4E5 JUMPI JUMPDEST POP POP POP POP POP PUSH2 0x816 JUMP JUMPDEST PUSH2 0x5B2 JUMPI PUSH1 0x3 PUSH1 0x0 DUP4 DUP2 MSTORE PUSH1 0x20 ADD SWAP1 DUP2 MSTORE PUSH1 0x20 ADD PUSH1 0x0 KECCAK256 CALLER SWAP1 DUP1 PUSH1 0x1 DUP2 SLOAD ADD DUP1 DUP3 SSTORE DUP1 SWAP2 POP POP PUSH1 0x1 SWAP1 SUB SWAP1 PUSH1 0x0 MSTORE PUSH1 0x20 PUSH1 0x0 KECCAK256 ADD PUSH1 0x0 SWAP1 SWAP2 SWAP1 SWAP2 SWAP1 SWAP2 PUSH2 0x100 EXP DUP2 SLOAD DUP2 PUSH20 0xFFFFFFFFFFFFFFFFFFFFFFFFFFFFFFFFFFFFFFFF MUL NOT AND SWAP1 DUP4 PUSH20 0xFFFFFFFFFFFFFFFFFFFFFFFFFFFFFFFFFFFFFFFF AND MUL OR SWAP1 SSTORE POP JUMPDEST PUSH1 0x2 PUSH1 0x0 DUP4 DUP2 MSTORE PUSH1 0x20 ADD SWAP1 DUP2 MSTORE PUSH1 0x20 ADD PUSH1 0x0 KECCAK256 PUSH1 0x2 ADD PUSH1 0x0 DUP2 SLOAD DUP1 SWAP3 SWAP2 SWAP1 PUSH2 0x5D9 SWAP1 PUSH2 0xF10 JUMP JUMPDEST SWAP2 SWAP1 POP SSTORE POP POP POP JUMP JUMPDEST DUP1 PUSH1 0x2 PUSH1 0x0 DUP3 DUP2 MSTORE PUSH1 0x20 ADD SWAP1 DUP2 MSTORE PUSH1 0x20 ADD PUSH1 0x0 KECCAK256 PUSH1 0x3 ADD PUSH1 0x0 SWAP1 SLOAD SWAP1 PUSH2 0x100 EXP SWAP1 DIV PUSH1 0xFF AND PUSH2 0x646 JUMPI PUSH1 0x40 MLOAD PUSH32 0x8C379A000000000000000000000000000000000000000000000000000000000 DUP2 MSTORE PUSH1 0x4 ADD PUSH2 0x63D SWAP1 PUSH2 0xE18 JUMP JUMPDEST PUSH1 0x40 MLOAD DUP1 SWAP2 SUB SWAP1 REVERT JUMPDEST PUSH2 0x6DD DUP3 PUSH1 0x4 PUSH1 0x0 CALLER PUSH20 0xFFFFFFFFFFFFFFFFFFFFFFFFFFFFFFFFFFFFFFFF AND PUSH20 0xFFFFFFFFFFFFFFFFFFFFFFFFFFFFFFFFFFFFFFFF AND DUP2 MSTORE PUSH1 0x20 ADD SWAP1 DUP2 MSTORE PUSH1 0x20 ADD PUSH1 0x0 KECCAK256 DUP1 SLOAD DUP1 PUSH1 0x20 MUL PUSH1 0x20 ADD PUSH1 0x40 MLOAD SWAP1 DUP2 ADD PUSH1 0x40 MSTORE DUP1 SWAP3 SWAP2 SWAP1 DUP2 DUP2 MSTORE PUSH1 0x20 ADD DUP3 DUP1 SLOAD DUP1 ISZERO PUSH2 0x6D3 JUMPI PUSH1 0x20 MUL DUP3 ADD SWAP2 SWAP1 PUSH1 0x0 MSTORE PUSH1 0x20 PUSH1 0x0 KECCAK256 SWAP1 JUMPDEST DUP2 SLOAD DUP2 MSTORE PUSH1 0x20 ADD SWAP1 PUSH1 0x1 ADD SWAP1 DUP1 DUP4 GT PUSH2 0x6BF JUMPI JUMPDEST POP POP POP POP POP PUSH2 0x794 JUMP JUMPDEST PUSH2 0x71C JUMPI PUSH1 0x40 MLOAD PUSH32 0x8C379A000000000000000000000000000000000000000000000000000000000 DUP2 MSTORE PUSH1 0x4 ADD PUSH2 0x713 SWAP1 PUSH2 0xD78 JUMP JUMPDEST PUSH1 0x40 MLOAD DUP1 SWAP2 SUB SWAP1 REVERT JUMPDEST PUSH2 0x764 PUSH1 0x4 PUSH1 0x0 CALLER PUSH20 0xFFFFFFFFFFFFFFFFFFFFFFFFFFFFFFFFFFFFFFFF AND PUSH20 0xFFFFFFFFFFFFFFFFFFFFFFFFFFFFFFFFFFFFFFFF AND DUP2 MSTORE PUSH1 0x20 ADD SWAP1 DUP2 MSTORE PUSH1 0x20 ADD PUSH1 0x0 KECCAK256 DUP4 PUSH2 0x8C4 JUMP JUMPDEST PUSH1 0x2 PUSH1 0x0 DUP4 DUP2 MSTORE PUSH1 0x20 ADD SWAP1 DUP2 MSTORE PUSH1 0x20 ADD PUSH1 0x0 KECCAK256 PUSH1 0x2 ADD PUSH1 0x0 DUP2 SLOAD DUP1 SWAP3 SWAP2 SWAP1 PUSH2 0x78B SWAP1 PUSH2 0xF6C JUMP JUMPDEST SWAP2 SWAP1 POP SSTORE POP POP POP JUMP JUMPDEST PUSH1 0x0 DUP1 PUSH1 0x0 SWAP1 POP JUMPDEST DUP3 MLOAD DUP2 LT ISZERO PUSH2 0x80A JUMPI DUP3 DUP2 DUP2 MLOAD DUP2 LT PUSH2 0x7DE JUMPI PUSH32 0x4E487B7100000000000000000000000000000000000000000000000000000000 PUSH1 0x0 MSTORE PUSH1 0x32 PUSH1 0x4 MSTORE PUSH1 0x24 PUSH1 0x0 REVERT JUMPDEST PUSH1 0x20 MUL PUSH1 0x20 ADD ADD MLOAD DUP5 EQ ISZERO PUSH2 0x7F7 JUMPI PUSH1 0x1 SWAP2 POP POP PUSH2 0x810 JUMP JUMPDEST DUP1 DUP1 PUSH2 0x802 SWAP1 PUSH2 0xF6C JUMP JUMPDEST SWAP2 POP POP PUSH2 0x79C JUMP JUMPDEST POP PUSH1 0x0 SWAP1 POP JUMPDEST SWAP3 SWAP2 POP POP JUMP JUMPDEST PUSH1 0x0 DUP1 PUSH1 0x0 SWAP1 POP JUMPDEST DUP3 MLOAD DUP2 LT ISZERO PUSH2 0x8B8 JUMPI DUP3 DUP2 DUP2 MLOAD DUP2 LT PUSH2 0x860 JUMPI PUSH32 0x4E487B7100000000000000000000000000000000000000000000000000000000 PUSH1 0x0 MSTORE PUSH1 0x32 PUSH1 0x4 MSTORE PUSH1 0x24 PUSH1 0x0 REVERT JUMPDEST PUSH1 0x20 MUL PUSH1 0x20 ADD ADD MLOAD PUSH20 0xFFFFFFFFFFFFFFFFFFFFFFFFFFFFFFFFFFFFFFFF AND DUP5 PUSH20 0xFFFFFFFFFFFFFFFFFFFFFFFFFFFFFFFFFFFFFFFF AND EQ ISZERO PUSH2 0x8A5 JUMPI PUSH1 0x1 SWAP2 POP POP PUSH2 0x8BE JUMP JUMPDEST DUP1 DUP1 PUSH2 0x8B0 SWAP1 PUSH2 0xF6C JUMP JUMPDEST SWAP2 POP POP PUSH2 0x81E JUMP JUMPDEST POP PUSH1 0x0 SWAP1 POP JUMPDEST SWAP3 SWAP2 POP POP JUMP JUMPDEST PUSH1 0x0 JUMPDEST DUP3 DUP1 SLOAD SWAP1 POP DUP2 LT ISZERO PUSH2 0xA1A JUMPI DUP3 DUP2 DUP2 SLOAD DUP2 LT PUSH2 0x90C JUMPI PUSH32 0x4E487B7100000000000000000000000000000000000000000000000000000000 PUSH1 0x0 MSTORE PUSH1 0x32 PUSH1 0x4 MSTORE PUSH1 0x24 PUSH1 0x0 REVERT JUMPDEST SWAP1 PUSH1 0x0 MSTORE PUSH1 0x20 PUSH1 0x0 KECCAK256 ADD SLOAD DUP3 EQ ISZERO PUSH2 0xA07 JUMPI DUP3 PUSH1 0x1 DUP5 DUP1 SLOAD SWAP1 POP PUSH2 0x930 SWAP2 SWAP1 PUSH2 0xEA0 JUMP JUMPDEST DUP2 SLOAD DUP2 LT PUSH2 0x967 JUMPI PUSH32 0x4E487B7100000000000000000000000000000000000000000000000000000000 PUSH1 0x0 MSTORE PUSH1 0x32 PUSH1 0x4 MSTORE PUSH1 0x24 PUSH1 0x0 REVERT JUMPDEST SWAP1 PUSH1 0x0 MSTORE PUSH1 0x20 PUSH1 0x0 KECCAK256 ADD SLOAD DUP4 DUP3 DUP2 SLOAD DUP2 LT PUSH2 0x9AB JUMPI PUSH32 0x4E487B7100000000000000000000000000000000000000000000000000000000 PUSH1 0x0 MSTORE PUSH1 0x32 PUSH1 0x4 MSTORE PUSH1 0x24 PUSH1 0x0 REVERT JUMPDEST SWAP1 PUSH1 0x0 MSTORE PUSH1 0x20 PUSH1 0x0 KECCAK256 ADD DUP2 SWAP1 SSTORE POP DUP3 DUP1 SLOAD DUP1 PUSH2 0x9F0 JUMPI PUSH32 0x4E487B7100000000000000000000000000000000000000000000000000000000 PUSH1 0x0 MSTORE PUSH1 0x31 PUSH1 0x4 MSTORE PUSH1 0x24 PUSH1 0x0 REVERT JUMPDEST PUSH1 0x1 SWAP1 SUB DUP2 DUP2 SWAP1 PUSH1 0x0 MSTORE PUSH1 0x20 PUSH1 0x0 KECCAK256 ADD PUSH1 0x0 SWAP1 SSTORE SWAP1 SSTORE JUMPDEST DUP1 DUP1 PUSH2 0xA12 SWAP1 PUSH2 0xF6C JUMP JUMPDEST SWAP2 POP POP PUSH2 0x8C7 JUMP JUMPDEST POP POP POP JUMP JUMPDEST DUP3 DUP1 SLOAD PUSH2 0xA2B SWAP1 PUSH2 0xF3A JUMP JUMPDEST SWAP1 PUSH1 0x0 MSTORE PUSH1 0x20 PUSH1 0x0 KECCAK256 SWAP1 PUSH1 0x1F ADD PUSH1 0x20 SWAP1 DIV DUP2 ADD SWAP3 DUP3 PUSH2 0xA4D JUMPI PUSH1 0x0 DUP6 SSTORE PUSH2 0xA94 JUMP JUMPDEST DUP3 PUSH1 0x1F LT PUSH2 0xA66 JUMPI DUP1 CALLDATALOAD PUSH1 0xFF NOT AND DUP4 DUP1 ADD OR DUP6 SSTORE PUSH2 0xA94 JUMP JUMPDEST DUP3 DUP1 ADD PUSH1 0x1 ADD DUP6 SSTORE DUP3 ISZERO PUSH2 0xA94 JUMPI SWAP2 DUP3 ADD JUMPDEST DUP3 DUP2 GT ISZERO PUSH2 0xA93 JUMPI DUP3 CALLDATALOAD DUP3 SSTORE SWAP2 PUSH1 0x20 ADD SWAP2 SWAP1 PUSH1 0x1 ADD SWAP1 PUSH2 0xA78 JUMP JUMPDEST JUMPDEST POP SWAP1 POP PUSH2 0xAA1 SWAP2 SWAP1 PUSH2 0xAA5 JUMP JUMPDEST POP SWAP1 JUMP JUMPDEST JUMPDEST DUP1 DUP3 GT ISZERO PUSH2 0xABE JUMPI PUSH1 0x0 DUP2 PUSH1 0x0 SWAP1 SSTORE POP PUSH1 0x1 ADD PUSH2 0xAA6 JUMP JUMPDEST POP SWAP1 JUMP JUMPDEST PUSH1 0x0 PUSH1 0x80 DUP3 DUP5 SUB SLT ISZERO PUSH2 0xAD4 JUMPI PUSH1 0x0 DUP1 REVERT JUMPDEST DUP2 SWAP1 POP SWAP3 SWAP2 POP POP JUMP JUMPDEST PUSH1 0x0 DUP2 CALLDATALOAD SWAP1 POP PUSH2 0xAEC DUP2 PUSH2 0x1013 JUMP JUMPDEST SWAP3 SWAP2 POP POP JUMP JUMPDEST PUSH1 0x0 PUSH1 0x20 DUP3 DUP5 SUB SLT ISZERO PUSH2 0xB04 JUMPI PUSH1 0x0 DUP1 REVERT JUMPDEST PUSH1 0x0 DUP3 ADD CALLDATALOAD PUSH8 0xFFFFFFFFFFFFFFFF DUP2 GT ISZERO PUSH2 0xB1E JUMPI PUSH1 0x0 DUP1 REVERT JUMPDEST PUSH2 0xB2A DUP5 DUP3 DUP6 ADD PUSH2 0xAC2 JUMP JUMPDEST SWAP2 POP POP SWAP3 SWAP2 POP POP JUMP JUMPDEST PUSH1 0x0 PUSH1 0x20 DUP3 DUP5 SUB SLT ISZERO PUSH2 0xB45 JUMPI PUSH1 0x0 DUP1 REVERT JUMPDEST PUSH1 0x0 PUSH2 0xB53 DUP5 DUP3 DUP6 ADD PUSH2 0xADD JUMP JUMPDEST SWAP2 POP POP SWAP3 SWAP2 POP POP JUMP JUMPDEST PUSH2 0xB65 DUP2 PUSH2 0xED4 JUMP JUMPDEST DUP3 MSTORE POP POP JUMP JUMPDEST PUSH1 0x0 PUSH2 0xB78 PUSH1 0x1E DUP4 PUSH2 0xE8F JUMP JUMPDEST SWAP2 POP PUSH32 0x596F7520686176656E7420626F72726F776564207468617420626F6F6B210000 PUSH1 0x0 DUP4 ADD MSTORE PUSH1 0x20 DUP3 ADD SWAP1 POP SWAP2 SWAP1 POP JUMP JUMPDEST PUSH1 0x0 PUSH2 0xBB8 PUSH1 0x22 DUP4 PUSH2 0xE8F JUMP JUMPDEST SWAP2 POP PUSH32 0x596F7527766520616C726561647920626F72726F776564207468617420626F6F PUSH1 0x0 DUP4 ADD MSTORE PUSH32 0x6B21000000000000000000000000000000000000000000000000000000000000 PUSH1 0x20 DUP4 ADD MSTORE PUSH1 0x40 DUP3 ADD SWAP1 POP SWAP2 SWAP1 POP JUMP JUMPDEST PUSH1 0x0 PUSH2 0xC1E PUSH1 0x1A DUP4 PUSH2 0xE8F JUMP JUMPDEST SWAP2 POP PUSH32 0x43757272656E742075736572206973206E6F74206F776E657221000000000000 PUSH1 0x0 DUP4 ADD MSTORE PUSH1 0x20 DUP3 ADD SWAP1 POP SWAP2 SWAP1 POP JUMP JUMPDEST PUSH1 0x0 PUSH2 0xC5E PUSH1 0x24 DUP4 PUSH2 0xE8F JUMP JUMPDEST SWAP2 POP PUSH32 0x5468697320626F6F6B206973206F7574206F662073746F636B2063757272656E PUSH1 0x0 DUP4 ADD MSTORE PUSH32 0x746C792100000000000000000000000000000000000000000000000000000000 PUSH1 0x20 DUP4 ADD MSTORE PUSH1 0x40 DUP3 ADD SWAP1 POP SWAP2 SWAP1 POP JUMP JUMPDEST PUSH1 0x0 PUSH2 0xCC4 PUSH1 0x23 DUP4 PUSH2 0xE8F JUMP JUMPDEST SWAP2 POP PUSH32 0x426F6F6B20616C72656164792065786973747320696E20746865204C69627261 PUSH1 0x0 DUP4 ADD MSTORE PUSH32 0x7279210000000000000000000000000000000000000000000000000000000000 PUSH1 0x20 DUP4 ADD MSTORE PUSH1 0x40 DUP3 ADD SWAP1 POP SWAP2 SWAP1 POP JUMP JUMPDEST PUSH1 0x0 PUSH2 0xD2A PUSH1 0x1F DUP4 PUSH2 0xE8F JUMP JUMPDEST SWAP2 POP PUSH32 0x426F6F6B20646F6573206E6F7420657869737420696E206C6962726172792100 PUSH1 0x0 DUP4 ADD MSTORE PUSH1 0x20 DUP3 ADD SWAP1 POP SWAP2 SWAP1 POP JUMP JUMPDEST PUSH1 0x0 PUSH1 0x20 DUP3 ADD SWAP1 POP PUSH2 0xD72 PUSH1 0x0 DUP4 ADD DUP5 PUSH2 0xB5C JUMP JUMPDEST SWAP3 SWAP2 POP POP JUMP JUMPDEST PUSH1 0x0 PUSH1 0x20 DUP3 ADD SWAP1 POP DUP2 DUP2 SUB PUSH1 0x0 DUP4 ADD MSTORE PUSH2 0xD91 DUP2 PUSH2 0xB6B JUMP JUMPDEST SWAP1 POP SWAP2 SWAP1 POP JUMP JUMPDEST PUSH1 0x0 PUSH1 0x20 DUP3 ADD SWAP1 POP DUP2 DUP2 SUB PUSH1 0x0 DUP4 ADD MSTORE PUSH2 0xDB1 DUP2 PUSH2 0xBAB JUMP JUMPDEST SWAP1 POP SWAP2 SWAP1 POP JUMP JUMPDEST PUSH1 0x0 PUSH1 0x20 DUP3 ADD SWAP1 POP DUP2 DUP2 SUB PUSH1 0x0 DUP4 ADD MSTORE PUSH2 0xDD1 DUP2 PUSH2 0xC11 JUMP JUMPDEST SWAP1 POP SWAP2 SWAP1 POP JUMP JUMPDEST PUSH1 0x0 PUSH1 0x20 DUP3 ADD SWAP1 POP DUP2 DUP2 SUB PUSH1 0x0 DUP4 ADD MSTORE PUSH2 0xDF1 DUP2 PUSH2 0xC51 JUMP JUMPDEST SWAP1 POP SWAP2 SWAP1 POP JUMP JUMPDEST PUSH1 0x0 PUSH1 0x20 DUP3 ADD SWAP1 POP DUP2 DUP2 SUB PUSH1 0x0 DUP4 ADD MSTORE PUSH2 0xE11 DUP2 PUSH2 0xCB7 JUMP JUMPDEST SWAP1 POP SWAP2 SWAP1 POP JUMP JUMPDEST PUSH1 0x0 PUSH1 0x20 DUP3 ADD SWAP1 POP DUP2 DUP2 SUB PUSH1 0x0 DUP4 ADD MSTORE PUSH2 0xE31 DUP2 PUSH2 0xD1D JUMP JUMPDEST SWAP1 POP SWAP2 SWAP1 POP JUMP JUMPDEST PUSH1 0x0 DUP1 DUP4 CALLDATALOAD PUSH1 0x1 PUSH1 0x20 SUB DUP5 CALLDATASIZE SUB SUB DUP2 SLT PUSH2 0xE51 JUMPI PUSH1 0x0 DUP1 REVERT JUMPDEST DUP1 DUP5 ADD SWAP3 POP DUP3 CALLDATALOAD SWAP2 POP PUSH8 0xFFFFFFFFFFFFFFFF DUP3 GT ISZERO PUSH2 0xE6F JUMPI PUSH1 0x0 DUP1 REVERT JUMPDEST PUSH1 0x20 DUP4 ADD SWAP3 POP PUSH1 0x1 DUP3 MUL CALLDATASIZE SUB DUP4 SGT ISZERO PUSH2 0xE87 JUMPI PUSH1 0x0 DUP1 REVERT JUMPDEST POP SWAP3 POP SWAP3 SWAP1 POP JUMP JUMPDEST PUSH1 0x0 DUP3 DUP3 MSTORE PUSH1 0x20 DUP3 ADD SWAP1 POP SWAP3 SWAP2 POP POP JUMP JUMPDEST PUSH1 0x0 PUSH2 0xEAB DUP3 PUSH2 0xF06 JUMP JUMPDEST SWAP2 POP PUSH2 0xEB6 DUP4 PUSH2 0xF06 JUMP JUMPDEST SWAP3 POP DUP3 DUP3 LT ISZERO PUSH2 0xEC9 JUMPI PUSH2 0xEC8 PUSH2 0xFB5 JUMP JUMPDEST JUMPDEST DUP3 DUP3 SUB SWAP1 POP SWAP3 SWAP2 POP POP JUMP JUMPDEST PUSH1 0x0 PUSH2 0xEDF DUP3 PUSH2 0xEE6 JUMP JUMPDEST SWAP1 POP SWAP2 SWAP1 POP JUMP JUMPDEST PUSH1 0x0 PUSH20 0xFFFFFFFFFFFFFFFFFFFFFFFFFFFFFFFFFFFFFFFF DUP3 AND SWAP1 POP SWAP2 SWAP1 POP JUMP JUMPDEST PUSH1 0x0 DUP2 SWAP1 POP SWAP2 SWAP1 POP JUMP JUMPDEST PUSH1 0x0 PUSH2 0xF1B DUP3 PUSH2 0xF06 JUMP JUMPDEST SWAP2 POP PUSH1 0x0 DUP3 EQ ISZERO PUSH2 0xF2F JUMPI PUSH2 0xF2E PUSH2 0xFB5 JUMP JUMPDEST JUMPDEST PUSH1 0x1 DUP3 SUB SWAP1 POP SWAP2 SWAP1 POP JUMP JUMPDEST PUSH1 0x0 PUSH1 0x2 DUP3 DIV SWAP1 POP PUSH1 0x1 DUP3 AND DUP1 PUSH2 0xF52 JUMPI PUSH1 0x7F DUP3 AND SWAP2 POP JUMPDEST PUSH1 0x20 DUP3 LT DUP2 EQ ISZERO PUSH2 0xF66 JUMPI PUSH2 0xF65 PUSH2 0xFE4 JUMP JUMPDEST JUMPDEST POP SWAP2 SWAP1 POP JUMP JUMPDEST PUSH1 0x0 PUSH2 0xF77 DUP3 PUSH2 0xF06 JUMP JUMPDEST SWAP2 POP PUSH32 0xFFFFFFFFFFFFFFFFFFFFFFFFFFFFFFFFFFFFFFFFFFFFFFFFFFFFFFFFFFFFFFFF DUP3 EQ ISZERO PUSH2 0xFAA JUMPI PUSH2 0xFA9 PUSH2 0xFB5 JUMP JUMPDEST JUMPDEST PUSH1 0x1 DUP3 ADD SWAP1 POP SWAP2 SWAP1 POP JUMP JUMPDEST PUSH32 0x4E487B7100000000000000000000000000000000000000000000000000000000 PUSH1 0x0 MSTORE PUSH1 0x11 PUSH1 0x4 MSTORE PUSH1 0x24 PUSH1 0x0 REVERT JUMPDEST PUSH32 0x4E487B7100000000000000000000000000000000000000000000000000000000 PUSH1 0x0 MSTORE PUSH1 0x22 PUSH1 0x4 MSTORE PUSH1 0x24 PUSH1 0x0 REVERT JUMPDEST PUSH2 0x101C DUP2 PUSH2 0xF06 JUMP JUMPDEST DUP2 EQ PUSH2 0x1027 JUMPI PUSH1 0x0 DUP1 REVERT JUMPDEST POP JUMP INVALID LOG2 PUSH5 0x6970667358 0x22 SLT KECCAK256 LOG1 CALL PUSH2 0x8CDC DUP14 0xE5 0xC8 0xA8 0x5F 0x2D 0xBD 0x5D DUP10 LOG2 SSTORE SWAP5 CREATE2 MOD CHAINID 0xEB 0xC6 SWAP1 0xB4 ADD SWAP14 0xBD 0xE2 0xF9 PUSH17 0xC8FD64736F6C6343000800003300000000 "
				},
				"gasEstimates": {
					"creation": {
						"codeDepositCost": "838400",
						"executionCost": "21736",
						"totalCost": "860136"
					},
					"external": {
						"AddBook((uint256,string,uint256,bool))": "infinite",
						"BorrowBook(uint256)": "infinite",
						"ReturnBook(uint256)": "infinite",
						"owner()": "1211"
					}
				},
				"methodIdentifiers": {
					"AddBook((uint256,string,uint256,bool))": "5d16b308",
					"BorrowBook(uint256)": "9649faa3",
					"ReturnBook(uint256)": "b8dd17db",
					"owner()": "8da5cb5b"
				}
			},
			"userdoc": {
				"kind": "user",
				"methods": {},
				"version": 1
			}
		}
	}
}