{
	"Library.sol": {
		"Library": {
			"abi": [
				{
					"inputs": [],
					"stateMutability": "nonpayable",
					"type": "constructor"
				},
				{
					"inputs": [
						{
							"internalType": "string",
							"name": "bookName",
							"type": "string"
						},
						{
							"internalType": "uint256",
							"name": "quantity",
							"type": "uint256"
						}
					],
					"name": "AddBook",
					"outputs": [],
					"stateMutability": "nonpayable",
					"type": "function"
				},
				{
					"inputs": [
						{
							"internalType": "uint256",
							"name": "bookId",
							"type": "uint256"
						}
					],
					"name": "BorrowBook",
					"outputs": [],
					"stateMutability": "nonpayable",
					"type": "function"
				},
				{
					"inputs": [
						{
							"internalType": "uint256",
							"name": "bookId",
							"type": "uint256"
						}
					],
					"name": "BorrowHistory",
					"outputs": [
						{
							"internalType": "address[]",
							"name": "",
							"type": "address[]"
						}
					],
					"stateMutability": "view",
					"type": "function"
				},
				{
					"inputs": [
						{
							"internalType": "uint256",
							"name": "",
							"type": "uint256"
						}
					],
					"name": "LibraryArchive",
					"outputs": [
						{
							"internalType": "uint256",
							"name": "id",
							"type": "uint256"
						},
						{
							"internalType": "string",
							"name": "name",
							"type": "string"
						},
						{
							"internalType": "uint256",
							"name": "quantity",
							"type": "uint256"
						},
						{
							"internalType": "bool",
							"name": "exists",
							"type": "bool"
						}
					],
					"stateMutability": "view",
					"type": "function"
				},
				{
					"inputs": [
						{
							"internalType": "uint256",
							"name": "bookId",
							"type": "uint256"
						}
					],
					"name": "ReturnBook",
					"outputs": [],
					"stateMutability": "nonpayable",
					"type": "function"
				},
				{
					"inputs": [],
					"name": "owner",
					"outputs": [
						{
							"internalType": "address",
							"name": "",
							"type": "address"
						}
					],
					"stateMutability": "view",
					"type": "function"
				}
			],
			"devdoc": {
				"kind": "dev",
				"methods": {},
				"version": 1
			},
			"evm": {
				"assembly": "    /* \"Library.sol\":88:2815  contract Library is Helpers{... */\n  mstore(0x40, 0x80)\n    /* \"Library.sol\":696:744  constructor(){... */\n  callvalue\n  dup1\n  iszero\n  tag_1\n  jumpi\n  0x00\n  dup1\n  revert\ntag_1:\n  pop\n    /* \"Library.sol\":727:737  msg.sender */\n  caller\n    /* \"Library.sol\":719:724  owner */\n  0x00\n  dup1\n    /* \"Library.sol\":719:737  owner = msg.sender */\n  0x0100\n  exp\n  dup2\n  sload\n  dup2\n  0xffffffffffffffffffffffffffffffffffffffff\n  mul\n  not\n  and\n  swap1\n  dup4\n  0xffffffffffffffffffffffffffffffffffffffff\n  and\n  mul\n  or\n  swap1\n  sstore\n  pop\n    /* \"Library.sol\":88:2815  contract Library is Helpers{... */\n  dataSize(sub_0)\n  dup1\n  dataOffset(sub_0)\n  0x00\n  codecopy\n  0x00\n  return\nstop\n\nsub_0: assembly {\n        /* \"Library.sol\":88:2815  contract Library is Helpers{... */\n      mstore(0x40, 0x80)\n      callvalue\n      dup1\n      iszero\n      tag_1\n      jumpi\n      0x00\n      dup1\n      revert\n    tag_1:\n      pop\n      jumpi(tag_2, lt(calldatasize, 0x04))\n      shr(0xe0, calldataload(0x00))\n      dup1\n      0x265be2e2\n      eq\n      tag_3\n      jumpi\n      dup1\n      0x27e4671c\n      eq\n      tag_4\n      jumpi\n      dup1\n      0x8da5cb5b\n      eq\n      tag_5\n      jumpi\n      dup1\n      0x9649faa3\n      eq\n      tag_6\n      jumpi\n      dup1\n      0xb8dd17db\n      eq\n      tag_7\n      jumpi\n      dup1\n      0xe7e58ee9\n      eq\n      tag_8\n      jumpi\n    tag_2:\n      0x00\n      dup1\n      revert\n        /* \"Library.sol\":750:1320  function AddBook(string calldata bookName, uint quantity) public onlyOwnable{... */\n    tag_3:\n      tag_9\n      0x04\n      dup1\n      calldatasize\n      sub\n      dup2\n      add\n      swap1\n      tag_10\n      swap2\n      swap1\n      tag_11\n      jump\t// in\n    tag_10:\n      tag_12\n      jump\t// in\n    tag_9:\n      stop\n        /* \"Library.sol\":274:302  Book[] public LibraryArchive */\n    tag_4:\n      tag_13\n      0x04\n      dup1\n      calldatasize\n      sub\n      dup2\n      add\n      swap1\n      tag_14\n      swap2\n      swap1\n      tag_15\n      jump\t// in\n    tag_14:\n      tag_16\n      jump\t// in\n    tag_13:\n      mload(0x40)\n      tag_17\n      swap5\n      swap4\n      swap3\n      swap2\n      swap1\n      tag_18\n      jump\t// in\n    tag_17:\n      mload(0x40)\n      dup1\n      swap2\n      sub\n      swap1\n      return\n        /* \"Library.sol\":121:141  address public owner */\n    tag_5:\n      tag_19\n      tag_20\n      jump\t// in\n    tag_19:\n      mload(0x40)\n      tag_21\n      swap2\n      swap1\n      tag_22\n      jump\t// in\n    tag_21:\n      mload(0x40)\n      dup1\n      swap2\n      sub\n      swap1\n      return\n        /* \"Library.sol\":1326:1941  function BorrowBook(uint bookId) public shouldExist(bookId){    ... */\n    tag_6:\n      tag_23\n      0x04\n      dup1\n      calldatasize\n      sub\n      dup2\n      add\n      swap1\n      tag_24\n      swap2\n      swap1\n      tag_15\n      jump\t// in\n    tag_24:\n      tag_25\n      jump\t// in\n    tag_23:\n      stop\n        /* \"Library.sol\":1947:2376  function ReturnBook(uint bookId) public shouldExist(bookId){... */\n    tag_7:\n      tag_26\n      0x04\n      dup1\n      calldatasize\n      sub\n      dup2\n      add\n      swap1\n      tag_27\n      swap2\n      swap1\n      tag_15\n      jump\t// in\n    tag_27:\n      tag_28\n      jump\t// in\n    tag_26:\n      stop\n        /* \"Library.sol\":2382:2525  function BorrowHistory(uint bookId) public view shouldExist(bookId) returns (address[] memory){... */\n    tag_8:\n      tag_29\n      0x04\n      dup1\n      calldatasize\n      sub\n      dup2\n      add\n      swap1\n      tag_30\n      swap2\n      swap1\n      tag_15\n      jump\t// in\n    tag_30:\n      tag_31\n      jump\t// in\n    tag_29:\n      mload(0x40)\n      tag_32\n      swap2\n      swap1\n      tag_33\n      jump\t// in\n    tag_32:\n      mload(0x40)\n      dup1\n      swap2\n      sub\n      swap1\n      return\n        /* \"Library.sol\":750:1320  function AddBook(string calldata bookName, uint quantity) public onlyOwnable{... */\n    tag_12:\n        /* \"Library.sol\":502:507  owner */\n      0x00\n      dup1\n      sload\n      swap1\n      0x0100\n      exp\n      swap1\n      div\n      0xffffffffffffffffffffffffffffffffffffffff\n      and\n        /* \"Library.sol\":488:507  msg.sender == owner */\n      0xffffffffffffffffffffffffffffffffffffffff\n      and\n        /* \"Library.sol\":488:498  msg.sender */\n      caller\n        /* \"Library.sol\":488:507  msg.sender == owner */\n      0xffffffffffffffffffffffffffffffffffffffff\n      and\n      eq\n        /* \"Library.sol\":480:538  require(msg.sender == owner, \"Current user is not owner!\") */\n      tag_35\n      jumpi\n      mload(0x40)\n      0x08c379a000000000000000000000000000000000000000000000000000000000\n      dup2\n      mstore\n      0x04\n      add\n      tag_36\n      swap1\n      tag_37\n      jump\t// in\n    tag_36:\n      mload(0x40)\n      dup1\n      swap2\n      sub\n      swap1\n      revert\n    tag_35:\n        /* \"Library.sol\":839:868  LibraryContainsBook(bookName) */\n      tag_39\n        /* \"Library.sol\":859:867  bookName */\n      dup4\n      dup4\n        /* \"Library.sol\":839:858  LibraryContainsBook */\n      tag_40\n        /* \"Library.sol\":839:868  LibraryContainsBook(bookName) */\n      jump\t// in\n    tag_39:\n        /* \"Library.sol\":839:897  LibraryContainsBook(bookName) || BookIndex[counter].exists */\n      dup1\n      tag_41\n      jumpi\n      pop\n        /* \"Library.sol\":872:881  BookIndex */\n      0x03\n        /* \"Library.sol\":872:890  BookIndex[counter] */\n      0x00\n        /* \"Library.sol\":882:889  counter */\n      sload(0x01)\n        /* \"Library.sol\":872:890  BookIndex[counter] */\n      dup2\n      mstore\n      0x20\n      add\n      swap1\n      dup2\n      mstore\n      0x20\n      add\n      0x00\n      keccak256\n        /* \"Library.sol\":872:897  BookIndex[counter].exists */\n      0x03\n      add\n      0x00\n      swap1\n      sload\n      swap1\n      0x0100\n      exp\n      swap1\n      div\n      0xff\n      and\n        /* \"Library.sol\":839:897  LibraryContainsBook(bookName) || BookIndex[counter].exists */\n    tag_41:\n        /* \"Library.sol\":836:965  if(LibraryContainsBook(bookName) || BookIndex[counter].exists){... */\n      iszero\n      tag_42\n      jumpi\n        /* \"Library.sol\":912:954  revert(\"This book exists in the library!\") */\n      mload(0x40)\n      0x08c379a000000000000000000000000000000000000000000000000000000000\n      dup2\n      mstore\n      0x04\n      add\n      tag_43\n      swap1\n      tag_44\n      jump\t// in\n    tag_43:\n      mload(0x40)\n      dup1\n      swap2\n      sub\n      swap1\n      revert\n        /* \"Library.sol\":836:965  if(LibraryContainsBook(bookName) || BookIndex[counter].exists){... */\n    tag_42:\n        /* \"Library.sol\":988:989  1 */\n      0x01\n        /* \"Library.sol\":977:985  quantity */\n      dup2\n        /* \"Library.sol\":977:989  quantity < 1 */\n      lt\n        /* \"Library.sol\":974:1056  if(quantity < 1){... */\n      iszero\n      tag_45\n      jumpi\n        /* \"Library.sol\":1004:1045  revert(\"Quantity cannot be less than 1!\") */\n      mload(0x40)\n      0x08c379a000000000000000000000000000000000000000000000000000000000\n      dup2\n      mstore\n      0x04\n      add\n      tag_46\n      swap1\n      tag_47\n      jump\t// in\n    tag_46:\n      mload(0x40)\n      dup1\n      swap2\n      sub\n      swap1\n      revert\n        /* \"Library.sol\":974:1056  if(quantity < 1){... */\n    tag_45:\n        /* \"Library.sol\":1066:1085  Book memory newBook */\n      tag_48\n      tag_49\n      jump\t// in\n    tag_48:\n        /* \"Library.sol\":1108:1115  counter */\n      sload(0x01)\n        /* \"Library.sol\":1095:1102  newBook */\n      dup2\n        /* \"Library.sol\":1095:1105  newBook.id */\n      0x00\n      add\n        /* \"Library.sol\":1095:1115  newBook.id = counter */\n      dup2\n      dup2\n      mstore\n      pop\n      pop\n        /* \"Library.sol\":1140:1148  bookName */\n      dup4\n      dup4\n        /* \"Library.sol\":1125:1148  newBook.name = bookName */\n      dup1\n      dup1\n      0x1f\n      add\n      0x20\n      dup1\n      swap2\n      div\n      mul\n      0x20\n      add\n      mload(0x40)\n      swap1\n      dup2\n      add\n      0x40\n      mstore\n      dup1\n      swap4\n      swap3\n      swap2\n      swap1\n      dup2\n      dup2\n      mstore\n      0x20\n      add\n      dup4\n      dup4\n      dup1\n      dup3\n      dup5\n      calldatacopy\n      0x00\n      dup2\n      dup5\n      add\n      mstore\n      not(0x1f)\n      0x1f\n      dup3\n      add\n      and\n      swap1\n      pop\n      dup1\n      dup4\n      add\n      swap3\n      pop\n      pop\n      pop\n      pop\n      pop\n      pop\n      pop\n        /* \"Library.sol\":1125:1132  newBook */\n      dup2\n        /* \"Library.sol\":1125:1137  newBook.name */\n      0x20\n      add\n        /* \"Library.sol\":1125:1148  newBook.name = bookName */\n      dup2\n      swap1\n      mstore\n      pop\n        /* \"Library.sol\":1177:1185  quantity */\n      dup2\n        /* \"Library.sol\":1158:1165  newBook */\n      dup2\n        /* \"Library.sol\":1158:1174  newBook.quantity */\n      0x40\n      add\n        /* \"Library.sol\":1158:1185  newBook.quantity = quantity */\n      dup2\n      dup2\n      mstore\n      pop\n      pop\n        /* \"Library.sol\":1212:1216  true */\n      0x01\n        /* \"Library.sol\":1195:1202  newBook */\n      dup2\n        /* \"Library.sol\":1195:1209  newBook.exists */\n      0x60\n      add\n        /* \"Library.sol\":1195:1216  newBook.exists = true */\n      swap1\n      iszero\n      iszero\n      swap1\n      dup2\n      iszero\n      iszero\n      dup2\n      mstore\n      pop\n      pop\n        /* \"Library.sol\":1248:1255  newBook */\n      dup1\n        /* \"Library.sol\":1227:1236  BookIndex */\n      0x03\n        /* \"Library.sol\":1227:1245  BookIndex[counter] */\n      0x00\n        /* \"Library.sol\":1237:1244  counter */\n      sload(0x01)\n        /* \"Library.sol\":1227:1245  BookIndex[counter] */\n      dup2\n      mstore\n      0x20\n      add\n      swap1\n      dup2\n      mstore\n      0x20\n      add\n      0x00\n      keccak256\n        /* \"Library.sol\":1227:1255  BookIndex[counter] = newBook */\n      0x00\n      dup3\n      add\n      mload\n      dup2\n      0x00\n      add\n      sstore\n      0x20\n      dup3\n      add\n      mload\n      dup2\n      0x01\n      add\n      swap1\n      dup1\n      mload\n      swap1\n      0x20\n      add\n      swap1\n      tag_50\n      swap3\n      swap2\n      swap1\n      tag_51\n      jump\t// in\n    tag_50:\n      pop\n      0x40\n      dup3\n      add\n      mload\n      dup2\n      0x02\n      add\n      sstore\n      0x60\n      dup3\n      add\n      mload\n      dup2\n      0x03\n      add\n      exp(0x0100, 0x00)\n      dup2\n      sload\n      dup2\n      0xff\n      mul\n      not\n      and\n      swap1\n      dup4\n      iszero\n      iszero\n      mul\n      or\n      swap1\n      sstore\n      pop\n      swap1\n      pop\n      pop\n        /* \"Library.sol\":1265:1279  LibraryArchive */\n      0x02\n        /* \"Library.sol\":1285:1292  newBook */\n      dup2\n        /* \"Library.sol\":1265:1293  LibraryArchive.push(newBook) */\n      swap1\n      dup1\n      0x01\n      dup2\n      sload\n      add\n      dup1\n      dup3\n      sstore\n      dup1\n      swap2\n      pop\n      pop\n      0x01\n      swap1\n      sub\n      swap1\n      0x00\n      mstore\n      keccak256(0x00, 0x20)\n      swap1\n      0x04\n      mul\n      add\n      0x00\n      swap1\n      swap2\n      swap1\n      swap2\n      swap1\n      swap2\n      pop\n      0x00\n      dup3\n      add\n      mload\n      dup2\n      0x00\n      add\n      sstore\n      0x20\n      dup3\n      add\n      mload\n      dup2\n      0x01\n      add\n      swap1\n      dup1\n      mload\n      swap1\n      0x20\n      add\n      swap1\n      tag_53\n      swap3\n      swap2\n      swap1\n      tag_51\n      jump\t// in\n    tag_53:\n      pop\n      0x40\n      dup3\n      add\n      mload\n      dup2\n      0x02\n      add\n      sstore\n      0x60\n      dup3\n      add\n      mload\n      dup2\n      0x03\n      add\n      exp(0x0100, 0x00)\n      dup2\n      sload\n      dup2\n      0xff\n      mul\n      not\n      and\n      swap1\n      dup4\n      iszero\n      iszero\n      mul\n      or\n      swap1\n      sstore\n      pop\n      pop\n      pop\n        /* \"Library.sol\":1304:1311  counter */\n      0x01\n      0x00\n        /* \"Library.sol\":1304:1313  counter++ */\n      dup2\n      sload\n      dup1\n      swap3\n      swap2\n      swap1\n      tag_54\n      swap1\n      tag_55\n      jump\t// in\n    tag_54:\n      swap2\n      swap1\n      pop\n      sstore\n      pop\n        /* \"Library.sol\":548:549  _ */\n      pop\n        /* \"Library.sol\":750:1320  function AddBook(string calldata bookName, uint quantity) public onlyOwnable{... */\n      pop\n      pop\n      pop\n      jump\t// out\n        /* \"Library.sol\":274:302  Book[] public LibraryArchive */\n    tag_16:\n      0x02\n      dup2\n      dup2\n      sload\n      dup2\n      lt\n      tag_56\n      jumpi\n      0x00\n      dup1\n      revert\n    tag_56:\n      swap1\n      0x00\n      mstore\n      keccak256(0x00, 0x20)\n      swap1\n      0x04\n      mul\n      add\n      0x00\n      swap2\n      pop\n      swap1\n      pop\n      dup1\n      0x00\n      add\n      sload\n      swap1\n      dup1\n      0x01\n      add\n      dup1\n      sload\n      tag_58\n      swap1\n      tag_59\n      jump\t// in\n    tag_58:\n      dup1\n      0x1f\n      add\n      0x20\n      dup1\n      swap2\n      div\n      mul\n      0x20\n      add\n      mload(0x40)\n      swap1\n      dup2\n      add\n      0x40\n      mstore\n      dup1\n      swap3\n      swap2\n      swap1\n      dup2\n      dup2\n      mstore\n      0x20\n      add\n      dup3\n      dup1\n      sload\n      tag_60\n      swap1\n      tag_59\n      jump\t// in\n    tag_60:\n      dup1\n      iszero\n      tag_61\n      jumpi\n      dup1\n      0x1f\n      lt\n      tag_62\n      jumpi\n      0x0100\n      dup1\n      dup4\n      sload\n      div\n      mul\n      dup4\n      mstore\n      swap2\n      0x20\n      add\n      swap2\n      jump(tag_61)\n    tag_62:\n      dup3\n      add\n      swap2\n      swap1\n      0x00\n      mstore\n      keccak256(0x00, 0x20)\n      swap1\n    tag_63:\n      dup2\n      sload\n      dup2\n      mstore\n      swap1\n      0x01\n      add\n      swap1\n      0x20\n      add\n      dup1\n      dup4\n      gt\n      tag_63\n      jumpi\n      dup3\n      swap1\n      sub\n      0x1f\n      and\n      dup3\n      add\n      swap2\n    tag_61:\n      pop\n      pop\n      pop\n      pop\n      pop\n      swap1\n      dup1\n      0x02\n      add\n      sload\n      swap1\n      dup1\n      0x03\n      add\n      0x00\n      swap1\n      sload\n      swap1\n      0x0100\n      exp\n      swap1\n      div\n      0xff\n      and\n      swap1\n      pop\n      dup5\n      jump\t// out\n        /* \"Library.sol\":121:141  address public owner */\n    tag_20:\n      0x00\n      dup1\n      sload\n      swap1\n      0x0100\n      exp\n      swap1\n      div\n      0xffffffffffffffffffffffffffffffffffffffff\n      and\n      dup2\n      jump\t// out\n        /* \"Library.sol\":1326:1941  function BorrowBook(uint bookId) public shouldExist(bookId){    ... */\n    tag_25:\n        /* \"Library.sol\":1378:1384  bookId */\n      dup1\n        /* \"Library.sol\":613:622  BookIndex */\n      0x03\n        /* \"Library.sol\":613:630  BookIndex[bookId] */\n      0x00\n        /* \"Library.sol\":623:629  bookId */\n      dup3\n        /* \"Library.sol\":613:630  BookIndex[bookId] */\n      dup2\n      mstore\n      0x20\n      add\n      swap1\n      dup2\n      mstore\n      0x20\n      add\n      0x00\n      keccak256\n        /* \"Library.sol\":613:637  BookIndex[bookId].exists */\n      0x03\n      add\n      0x00\n      swap1\n      sload\n      swap1\n      0x0100\n      exp\n      swap1\n      div\n      0xff\n      and\n        /* \"Library.sol\":605:672  require(BookIndex[bookId].exists,\"Book does not exist in library!\") */\n      tag_65\n      jumpi\n      mload(0x40)\n      0x08c379a000000000000000000000000000000000000000000000000000000000\n      dup2\n      mstore\n      0x04\n      add\n      tag_66\n      swap1\n      tag_67\n      jump\t// in\n    tag_66:\n      mload(0x40)\n      dup1\n      swap2\n      sub\n      swap1\n      revert\n    tag_65:\n        /* \"Library.sol\":1430:1431  0 */\n      0x00\n        /* \"Library.sol\":1402:1411  BookIndex */\n      0x03\n        /* \"Library.sol\":1402:1419  BookIndex[bookId] */\n      0x00\n        /* \"Library.sol\":1412:1418  bookId */\n      dup5\n        /* \"Library.sol\":1402:1419  BookIndex[bookId] */\n      dup2\n      mstore\n      0x20\n      add\n      swap1\n      dup2\n      mstore\n      0x20\n      add\n      0x00\n      keccak256\n        /* \"Library.sol\":1402:1428  BookIndex[bookId].quantity */\n      0x02\n      add\n      sload\n        /* \"Library.sol\":1402:1431  BookIndex[bookId].quantity==0 */\n      eq\n        /* \"Library.sol\":1399:1503  if(BookIndex[bookId].quantity==0){... */\n      iszero\n      tag_69\n      jumpi\n        /* \"Library.sol\":1446:1492  revert(\"This book is out of stock currently!\") */\n      mload(0x40)\n      0x08c379a000000000000000000000000000000000000000000000000000000000\n      dup2\n      mstore\n      0x04\n      add\n      tag_70\n      swap1\n      tag_71\n      jump\t// in\n    tag_70:\n      mload(0x40)\n      dup1\n      swap2\n      sub\n      swap1\n      revert\n        /* \"Library.sol\":1399:1503  if(BookIndex[bookId].quantity==0){... */\n    tag_69:\n        /* \"Library.sol\":1519:1576  intArrContainsValue(bookId, ClientBorrowList[msg.sender]) */\n      tag_72\n        /* \"Library.sol\":1539:1545  bookId */\n      dup3\n        /* \"Library.sol\":1547:1563  ClientBorrowList */\n      0x05\n        /* \"Library.sol\":1547:1575  ClientBorrowList[msg.sender] */\n      0x00\n        /* \"Library.sol\":1564:1574  msg.sender */\n      caller\n        /* \"Library.sol\":1547:1575  ClientBorrowList[msg.sender] */\n      0xffffffffffffffffffffffffffffffffffffffff\n      and\n      0xffffffffffffffffffffffffffffffffffffffff\n      and\n      dup2\n      mstore\n      0x20\n      add\n      swap1\n      dup2\n      mstore\n      0x20\n      add\n      0x00\n      keccak256\n        /* \"Library.sol\":1519:1576  intArrContainsValue(bookId, ClientBorrowList[msg.sender]) */\n      dup1\n      sload\n      dup1\n      0x20\n      mul\n      0x20\n      add\n      mload(0x40)\n      swap1\n      dup2\n      add\n      0x40\n      mstore\n      dup1\n      swap3\n      swap2\n      swap1\n      dup2\n      dup2\n      mstore\n      0x20\n      add\n      dup3\n      dup1\n      sload\n      dup1\n      iszero\n      tag_73\n      jumpi\n      0x20\n      mul\n      dup3\n      add\n      swap2\n      swap1\n      0x00\n      mstore\n      keccak256(0x00, 0x20)\n      swap1\n    tag_74:\n      dup2\n      sload\n      dup2\n      mstore\n      0x20\n      add\n      swap1\n      0x01\n      add\n      swap1\n      dup1\n      dup4\n      gt\n      tag_74\n      jumpi\n    tag_73:\n      pop\n      pop\n      pop\n      pop\n      pop\n        /* \"Library.sol\":1519:1538  intArrContainsValue */\n      tag_75\n        /* \"Library.sol\":1519:1576  intArrContainsValue(bookId, ClientBorrowList[msg.sender]) */\n      jump\t// in\n    tag_72:\n        /* \"Library.sol\":1516:1646  if(intArrContainsValue(bookId, ClientBorrowList[msg.sender])){... */\n      iszero\n      tag_76\n      jumpi\n        /* \"Library.sol\":1591:1635  revert(\"You've already borrowed that book!\") */\n      mload(0x40)\n      0x08c379a000000000000000000000000000000000000000000000000000000000\n      dup2\n      mstore\n      0x04\n      add\n      tag_77\n      swap1\n      tag_78\n      jump\t// in\n    tag_77:\n      mload(0x40)\n      dup1\n      swap2\n      sub\n      swap1\n      revert\n        /* \"Library.sol\":1516:1646  if(intArrContainsValue(bookId, ClientBorrowList[msg.sender])){... */\n    tag_76:\n        /* \"Library.sol\":1656:1672  ClientBorrowList */\n      0x05\n        /* \"Library.sol\":1656:1684  ClientBorrowList[msg.sender] */\n      0x00\n        /* \"Library.sol\":1673:1683  msg.sender */\n      caller\n        /* \"Library.sol\":1656:1684  ClientBorrowList[msg.sender] */\n      0xffffffffffffffffffffffffffffffffffffffff\n      and\n      0xffffffffffffffffffffffffffffffffffffffff\n      and\n      dup2\n      mstore\n      0x20\n      add\n      swap1\n      dup2\n      mstore\n      0x20\n      add\n      0x00\n      keccak256\n        /* \"Library.sol\":1690:1696  bookId */\n      dup3\n        /* \"Library.sol\":1656:1697  ClientBorrowList[msg.sender].push(bookId) */\n      swap1\n      dup1\n      0x01\n      dup2\n      sload\n      add\n      dup1\n      dup3\n      sstore\n      dup1\n      swap2\n      pop\n      pop\n      0x01\n      swap1\n      sub\n      swap1\n      0x00\n      mstore\n      keccak256(0x00, 0x20)\n      add\n      0x00\n      swap1\n      swap2\n      swap1\n      swap2\n      swap1\n      swap2\n      pop\n      sstore\n        /* \"Library.sol\":1713:1775  addressArrContainsValue(msg.sender, BookBorrowHistory[bookId]) */\n      tag_80\n        /* \"Library.sol\":1737:1747  msg.sender */\n      caller\n        /* \"Library.sol\":1749:1766  BookBorrowHistory */\n      0x04\n        /* \"Library.sol\":1749:1774  BookBorrowHistory[bookId] */\n      0x00\n        /* \"Library.sol\":1767:1773  bookId */\n      dup6\n        /* \"Library.sol\":1749:1774  BookBorrowHistory[bookId] */\n      dup2\n      mstore\n      0x20\n      add\n      swap1\n      dup2\n      mstore\n      0x20\n      add\n      0x00\n      keccak256\n        /* \"Library.sol\":1713:1775  addressArrContainsValue(msg.sender, BookBorrowHistory[bookId]) */\n      dup1\n      sload\n      dup1\n      0x20\n      mul\n      0x20\n      add\n      mload(0x40)\n      swap1\n      dup2\n      add\n      0x40\n      mstore\n      dup1\n      swap3\n      swap2\n      swap1\n      dup2\n      dup2\n      mstore\n      0x20\n      add\n      dup3\n      dup1\n      sload\n      dup1\n      iszero\n      tag_81\n      jumpi\n      0x20\n      mul\n      dup3\n      add\n      swap2\n      swap1\n      0x00\n      mstore\n      keccak256(0x00, 0x20)\n      swap1\n    tag_82:\n      dup2\n      0x00\n      swap1\n      sload\n      swap1\n      0x0100\n      exp\n      swap1\n      div\n      0xffffffffffffffffffffffffffffffffffffffff\n      and\n      0xffffffffffffffffffffffffffffffffffffffff\n      and\n      dup2\n      mstore\n      0x20\n      add\n      swap1\n      0x01\n      add\n      swap1\n      dup1\n      dup4\n      gt\n      tag_82\n      jumpi\n    tag_81:\n      pop\n      pop\n      pop\n      pop\n      pop\n        /* \"Library.sol\":1713:1736  addressArrContainsValue */\n      tag_83\n        /* \"Library.sol\":1713:1775  addressArrContainsValue(msg.sender, BookBorrowHistory[bookId]) */\n      jump\t// in\n    tag_80:\n        /* \"Library.sol\":1709:1851  if(!addressArrContainsValue(msg.sender, BookBorrowHistory[bookId])){... */\n      tag_84\n      jumpi\n        /* \"Library.sol\":1790:1807  BookBorrowHistory */\n      0x04\n        /* \"Library.sol\":1790:1815  BookBorrowHistory[bookId] */\n      0x00\n        /* \"Library.sol\":1808:1814  bookId */\n      dup4\n        /* \"Library.sol\":1790:1815  BookBorrowHistory[bookId] */\n      dup2\n      mstore\n      0x20\n      add\n      swap1\n      dup2\n      mstore\n      0x20\n      add\n      0x00\n      keccak256\n        /* \"Library.sol\":1821:1831  msg.sender */\n      caller\n        /* \"Library.sol\":1790:1832  BookBorrowHistory[bookId].push(msg.sender) */\n      swap1\n      dup1\n      0x01\n      dup2\n      sload\n      add\n      dup1\n      dup3\n      sstore\n      dup1\n      swap2\n      pop\n      pop\n      0x01\n      swap1\n      sub\n      swap1\n      0x00\n      mstore\n      keccak256(0x00, 0x20)\n      add\n      0x00\n      swap1\n      swap2\n      swap1\n      swap2\n      swap1\n      swap2\n      0x0100\n      exp\n      dup2\n      sload\n      dup2\n      0xffffffffffffffffffffffffffffffffffffffff\n      mul\n      not\n      and\n      swap1\n      dup4\n      0xffffffffffffffffffffffffffffffffffffffff\n      and\n      mul\n      or\n      swap1\n      sstore\n      pop\n        /* \"Library.sol\":1709:1851  if(!addressArrContainsValue(msg.sender, BookBorrowHistory[bookId])){... */\n    tag_84:\n        /* \"Library.sol\":1861:1870  BookIndex */\n      0x03\n        /* \"Library.sol\":1861:1878  BookIndex[bookId] */\n      0x00\n        /* \"Library.sol\":1871:1877  bookId */\n      dup4\n        /* \"Library.sol\":1861:1878  BookIndex[bookId] */\n      dup2\n      mstore\n      0x20\n      add\n      swap1\n      dup2\n      mstore\n      0x20\n      add\n      0x00\n      keccak256\n        /* \"Library.sol\":1861:1887  BookIndex[bookId].quantity */\n      0x02\n      add\n      0x00\n        /* \"Library.sol\":1861:1890  BookIndex[bookId].quantity -- */\n      dup2\n      sload\n      dup1\n      swap3\n      swap2\n      swap1\n      tag_86\n      swap1\n      tag_87\n      jump\t// in\n    tag_86:\n      swap2\n      swap1\n      pop\n      sstore\n      pop\n        /* \"Library.sol\":1900:1914  LibraryArchive */\n      0x02\n        /* \"Library.sol\":1915:1921  bookId */\n      dup3\n        /* \"Library.sol\":1900:1922  LibraryArchive[bookId] */\n      dup2\n      sload\n      dup2\n      lt\n      tag_88\n      jumpi\n      mstore(0x00, 0x4e487b7100000000000000000000000000000000000000000000000000000000)\n      mstore(0x04, 0x32)\n      revert(0x00, 0x24)\n    tag_88:\n      swap1\n      0x00\n      mstore\n      keccak256(0x00, 0x20)\n      swap1\n      0x04\n      mul\n      add\n        /* \"Library.sol\":1900:1931  LibraryArchive[bookId].quantity */\n      0x02\n      add\n      0x00\n        /* \"Library.sol\":1900:1934  LibraryArchive[bookId].quantity -- */\n      dup2\n      sload\n      dup1\n      swap3\n      swap2\n      swap1\n      tag_90\n      swap1\n      tag_87\n      jump\t// in\n    tag_90:\n      swap2\n      swap1\n      pop\n      sstore\n      pop\n        /* \"Library.sol\":1326:1941  function BorrowBook(uint bookId) public shouldExist(bookId){    ... */\n      pop\n      pop\n      jump\t// out\n        /* \"Library.sol\":1947:2376  function ReturnBook(uint bookId) public shouldExist(bookId){... */\n    tag_28:\n        /* \"Library.sol\":1999:2005  bookId */\n      dup1\n        /* \"Library.sol\":613:622  BookIndex */\n      0x03\n        /* \"Library.sol\":613:630  BookIndex[bookId] */\n      0x00\n        /* \"Library.sol\":623:629  bookId */\n      dup3\n        /* \"Library.sol\":613:630  BookIndex[bookId] */\n      dup2\n      mstore\n      0x20\n      add\n      swap1\n      dup2\n      mstore\n      0x20\n      add\n      0x00\n      keccak256\n        /* \"Library.sol\":613:637  BookIndex[bookId].exists */\n      0x03\n      add\n      0x00\n      swap1\n      sload\n      swap1\n      0x0100\n      exp\n      swap1\n      div\n      0xff\n      and\n        /* \"Library.sol\":605:672  require(BookIndex[bookId].exists,\"Book does not exist in library!\") */\n      tag_92\n      jumpi\n      mload(0x40)\n      0x08c379a000000000000000000000000000000000000000000000000000000000\n      dup2\n      mstore\n      0x04\n      add\n      tag_93\n      swap1\n      tag_67\n      jump\t// in\n    tag_93:\n      mload(0x40)\n      dup1\n      swap2\n      sub\n      swap1\n      revert\n    tag_92:\n        /* \"Library.sol\":2020:2077  intArrContainsValue(bookId, ClientBorrowList[msg.sender]) */\n      tag_95\n        /* \"Library.sol\":2040:2046  bookId */\n      dup3\n        /* \"Library.sol\":2048:2064  ClientBorrowList */\n      0x05\n        /* \"Library.sol\":2048:2076  ClientBorrowList[msg.sender] */\n      0x00\n        /* \"Library.sol\":2065:2075  msg.sender */\n      caller\n        /* \"Library.sol\":2048:2076  ClientBorrowList[msg.sender] */\n      0xffffffffffffffffffffffffffffffffffffffff\n      and\n      0xffffffffffffffffffffffffffffffffffffffff\n      and\n      dup2\n      mstore\n      0x20\n      add\n      swap1\n      dup2\n      mstore\n      0x20\n      add\n      0x00\n      keccak256\n        /* \"Library.sol\":2020:2077  intArrContainsValue(bookId, ClientBorrowList[msg.sender]) */\n      dup1\n      sload\n      dup1\n      0x20\n      mul\n      0x20\n      add\n      mload(0x40)\n      swap1\n      dup2\n      add\n      0x40\n      mstore\n      dup1\n      swap3\n      swap2\n      swap1\n      dup2\n      dup2\n      mstore\n      0x20\n      add\n      dup3\n      dup1\n      sload\n      dup1\n      iszero\n      tag_96\n      jumpi\n      0x20\n      mul\n      dup3\n      add\n      swap2\n      swap1\n      0x00\n      mstore\n      keccak256(0x00, 0x20)\n      swap1\n    tag_97:\n      dup2\n      sload\n      dup2\n      mstore\n      0x20\n      add\n      swap1\n      0x01\n      add\n      swap1\n      dup1\n      dup4\n      gt\n      tag_97\n      jumpi\n    tag_96:\n      pop\n      pop\n      pop\n      pop\n      pop\n        /* \"Library.sol\":2020:2039  intArrContainsValue */\n      tag_75\n        /* \"Library.sol\":2020:2077  intArrContainsValue(bookId, ClientBorrowList[msg.sender]) */\n      jump\t// in\n    tag_95:\n        /* \"Library.sol\":2016:2143  if(!intArrContainsValue(bookId, ClientBorrowList[msg.sender])){... */\n      tag_98\n      jumpi\n        /* \"Library.sol\":2092:2132  revert(\"You havent borrowed that book!\") */\n      mload(0x40)\n      0x08c379a000000000000000000000000000000000000000000000000000000000\n      dup2\n      mstore\n      0x04\n      add\n      tag_99\n      swap1\n      tag_100\n      jump\t// in\n    tag_99:\n      mload(0x40)\n      dup1\n      swap2\n      sub\n      swap1\n      revert\n        /* \"Library.sol\":2016:2143  if(!intArrContainsValue(bookId, ClientBorrowList[msg.sender])){... */\n    tag_98:\n        /* \"Library.sol\":2229:2286  removeIntArrElement(ClientBorrowList[msg.sender], bookId) */\n      tag_101\n        /* \"Library.sol\":2249:2265  ClientBorrowList */\n      0x05\n        /* \"Library.sol\":2249:2277  ClientBorrowList[msg.sender] */\n      0x00\n        /* \"Library.sol\":2266:2276  msg.sender */\n      caller\n        /* \"Library.sol\":2249:2277  ClientBorrowList[msg.sender] */\n      0xffffffffffffffffffffffffffffffffffffffff\n      and\n      0xffffffffffffffffffffffffffffffffffffffff\n      and\n      dup2\n      mstore\n      0x20\n      add\n      swap1\n      dup2\n      mstore\n      0x20\n      add\n      0x00\n      keccak256\n        /* \"Library.sol\":2279:2285  bookId */\n      dup4\n        /* \"Library.sol\":2229:2248  removeIntArrElement */\n      tag_102\n        /* \"Library.sol\":2229:2286  removeIntArrElement(ClientBorrowList[msg.sender], bookId) */\n      jump\t// in\n    tag_101:\n        /* \"Library.sol\":2296:2305  BookIndex */\n      0x03\n        /* \"Library.sol\":2296:2313  BookIndex[bookId] */\n      0x00\n        /* \"Library.sol\":2306:2312  bookId */\n      dup4\n        /* \"Library.sol\":2296:2313  BookIndex[bookId] */\n      dup2\n      mstore\n      0x20\n      add\n      swap1\n      dup2\n      mstore\n      0x20\n      add\n      0x00\n      keccak256\n        /* \"Library.sol\":2296:2322  BookIndex[bookId].quantity */\n      0x02\n      add\n      0x00\n        /* \"Library.sol\":2296:2325  BookIndex[bookId].quantity ++ */\n      dup2\n      sload\n      dup1\n      swap3\n      swap2\n      swap1\n      tag_103\n      swap1\n      tag_55\n      jump\t// in\n    tag_103:\n      swap2\n      swap1\n      pop\n      sstore\n      pop\n        /* \"Library.sol\":2335:2349  LibraryArchive */\n      0x02\n        /* \"Library.sol\":2350:2356  bookId */\n      dup3\n        /* \"Library.sol\":2335:2357  LibraryArchive[bookId] */\n      dup2\n      sload\n      dup2\n      lt\n      tag_104\n      jumpi\n      mstore(0x00, 0x4e487b7100000000000000000000000000000000000000000000000000000000)\n      mstore(0x04, 0x32)\n      revert(0x00, 0x24)\n    tag_104:\n      swap1\n      0x00\n      mstore\n      keccak256(0x00, 0x20)\n      swap1\n      0x04\n      mul\n      add\n        /* \"Library.sol\":2335:2366  LibraryArchive[bookId].quantity */\n      0x02\n      add\n      0x00\n        /* \"Library.sol\":2335:2369  LibraryArchive[bookId].quantity ++ */\n      dup2\n      sload\n      dup1\n      swap3\n      swap2\n      swap1\n      tag_106\n      swap1\n      tag_55\n      jump\t// in\n    tag_106:\n      swap2\n      swap1\n      pop\n      sstore\n      pop\n        /* \"Library.sol\":1947:2376  function ReturnBook(uint bookId) public shouldExist(bookId){... */\n      pop\n      pop\n      jump\t// out\n        /* \"Library.sol\":2382:2525  function BorrowHistory(uint bookId) public view shouldExist(bookId) returns (address[] memory){... */\n    tag_31:\n        /* \"Library.sol\":2459:2475  address[] memory */\n      0x60\n        /* \"Library.sol\":2442:2448  bookId */\n      dup2\n        /* \"Library.sol\":613:622  BookIndex */\n      0x03\n        /* \"Library.sol\":613:630  BookIndex[bookId] */\n      0x00\n        /* \"Library.sol\":623:629  bookId */\n      dup3\n        /* \"Library.sol\":613:630  BookIndex[bookId] */\n      dup2\n      mstore\n      0x20\n      add\n      swap1\n      dup2\n      mstore\n      0x20\n      add\n      0x00\n      keccak256\n        /* \"Library.sol\":613:637  BookIndex[bookId].exists */\n      0x03\n      add\n      0x00\n      swap1\n      sload\n      swap1\n      0x0100\n      exp\n      swap1\n      div\n      0xff\n      and\n        /* \"Library.sol\":605:672  require(BookIndex[bookId].exists,\"Book does not exist in library!\") */\n      tag_108\n      jumpi\n      mload(0x40)\n      0x08c379a000000000000000000000000000000000000000000000000000000000\n      dup2\n      mstore\n      0x04\n      add\n      tag_109\n      swap1\n      tag_67\n      jump\t// in\n    tag_109:\n      mload(0x40)\n      dup1\n      swap2\n      sub\n      swap1\n      revert\n    tag_108:\n        /* \"Library.sol\":2493:2510  BookBorrowHistory */\n      0x04\n        /* \"Library.sol\":2493:2518  BookBorrowHistory[bookId] */\n      0x00\n        /* \"Library.sol\":2511:2517  bookId */\n      dup5\n        /* \"Library.sol\":2493:2518  BookBorrowHistory[bookId] */\n      dup2\n      mstore\n      0x20\n      add\n      swap1\n      dup2\n      mstore\n      0x20\n      add\n      0x00\n      keccak256\n        /* \"Library.sol\":2486:2518  return BookBorrowHistory[bookId] */\n      dup1\n      sload\n      dup1\n      0x20\n      mul\n      0x20\n      add\n      mload(0x40)\n      swap1\n      dup2\n      add\n      0x40\n      mstore\n      dup1\n      swap3\n      swap2\n      swap1\n      dup2\n      dup2\n      mstore\n      0x20\n      add\n      dup3\n      dup1\n      sload\n      dup1\n      iszero\n      tag_111\n      jumpi\n      0x20\n      mul\n      dup3\n      add\n      swap2\n      swap1\n      0x00\n      mstore\n      keccak256(0x00, 0x20)\n      swap1\n    tag_112:\n      dup2\n      0x00\n      swap1\n      sload\n      swap1\n      0x0100\n      exp\n      swap1\n      div\n      0xffffffffffffffffffffffffffffffffffffffff\n      and\n      0xffffffffffffffffffffffffffffffffffffffff\n      and\n      dup2\n      mstore\n      0x20\n      add\n      swap1\n      0x01\n      add\n      swap1\n      dup1\n      dup4\n      gt\n      tag_112\n      jumpi\n    tag_111:\n      pop\n      pop\n      pop\n      pop\n      pop\n      swap2\n      pop\n        /* \"Library.sol\":2382:2525  function BorrowHistory(uint bookId) public view shouldExist(bookId) returns (address[] memory){... */\n      pop\n      swap2\n      swap1\n      pop\n      jump\t// out\n        /* \"Library.sol\":2531:2812  function LibraryContainsBook(string calldata bookName) private view returns (bool){... */\n    tag_40:\n        /* \"Library.sol\":2608:2612  bool */\n      0x00\n        /* \"Library.sol\":2627:2633  uint i */\n      dup1\n        /* \"Library.sol\":2634:2635  0 */\n      0x00\n        /* \"Library.sol\":2627:2635  uint i=0 */\n      swap1\n      pop\n        /* \"Library.sol\":2623:2784  for(uint i=0;i<LibraryArchive.length;i++){... */\n    tag_114:\n        /* \"Library.sol\":2638:2652  LibraryArchive */\n      0x02\n        /* \"Library.sol\":2638:2659  LibraryArchive.length */\n      dup1\n      sload\n      swap1\n      pop\n        /* \"Library.sol\":2636:2637  i */\n      dup2\n        /* \"Library.sol\":2636:2659  i<LibraryArchive.length */\n      lt\n        /* \"Library.sol\":2623:2784  for(uint i=0;i<LibraryArchive.length;i++){... */\n      iszero\n      tag_115\n      jumpi\n        /* \"Library.sol\":2681:2729  compareStrings(LibraryArchive[i].name, bookName) */\n      tag_117\n        /* \"Library.sol\":2696:2710  LibraryArchive */\n      0x02\n        /* \"Library.sol\":2711:2712  i */\n      dup3\n        /* \"Library.sol\":2696:2713  LibraryArchive[i] */\n      dup2\n      sload\n      dup2\n      lt\n      tag_118\n      jumpi\n      mstore(0x00, 0x4e487b7100000000000000000000000000000000000000000000000000000000)\n      mstore(0x04, 0x32)\n      revert(0x00, 0x24)\n    tag_118:\n      swap1\n      0x00\n      mstore\n      keccak256(0x00, 0x20)\n      swap1\n      0x04\n      mul\n      add\n        /* \"Library.sol\":2696:2718  LibraryArchive[i].name */\n      0x01\n      add\n        /* \"Library.sol\":2681:2729  compareStrings(LibraryArchive[i].name, bookName) */\n      dup1\n      sload\n      tag_120\n      swap1\n      tag_59\n      jump\t// in\n    tag_120:\n      dup1\n      0x1f\n      add\n      0x20\n      dup1\n      swap2\n      div\n      mul\n      0x20\n      add\n      mload(0x40)\n      swap1\n      dup2\n      add\n      0x40\n      mstore\n      dup1\n      swap3\n      swap2\n      swap1\n      dup2\n      dup2\n      mstore\n      0x20\n      add\n      dup3\n      dup1\n      sload\n      tag_121\n      swap1\n      tag_59\n      jump\t// in\n    tag_121:\n      dup1\n      iszero\n      tag_122\n      jumpi\n      dup1\n      0x1f\n      lt\n      tag_123\n      jumpi\n      0x0100\n      dup1\n      dup4\n      sload\n      div\n      mul\n      dup4\n      mstore\n      swap2\n      0x20\n      add\n      swap2\n      jump(tag_122)\n    tag_123:\n      dup3\n      add\n      swap2\n      swap1\n      0x00\n      mstore\n      keccak256(0x00, 0x20)\n      swap1\n    tag_124:\n      dup2\n      sload\n      dup2\n      mstore\n      swap1\n      0x01\n      add\n      swap1\n      0x20\n      add\n      dup1\n      dup4\n      gt\n      tag_124\n      jumpi\n      dup3\n      swap1\n      sub\n      0x1f\n      and\n      dup3\n      add\n      swap2\n    tag_122:\n      pop\n      pop\n      pop\n      pop\n      pop\n        /* \"Library.sol\":2720:2728  bookName */\n      dup6\n      dup6\n        /* \"Library.sol\":2681:2729  compareStrings(LibraryArchive[i].name, bookName) */\n      dup1\n      dup1\n      0x1f\n      add\n      0x20\n      dup1\n      swap2\n      div\n      mul\n      0x20\n      add\n      mload(0x40)\n      swap1\n      dup2\n      add\n      0x40\n      mstore\n      dup1\n      swap4\n      swap3\n      swap2\n      swap1\n      dup2\n      dup2\n      mstore\n      0x20\n      add\n      dup4\n      dup4\n      dup1\n      dup3\n      dup5\n      calldatacopy\n      0x00\n      dup2\n      dup5\n      add\n      mstore\n      not(0x1f)\n      0x1f\n      dup3\n      add\n      and\n      swap1\n      pop\n      dup1\n      dup4\n      add\n      swap3\n      pop\n      pop\n      pop\n      pop\n      pop\n      pop\n      pop\n        /* \"Library.sol\":2681:2695  compareStrings */\n      tag_125\n        /* \"Library.sol\":2681:2729  compareStrings(LibraryArchive[i].name, bookName) */\n      jump\t// in\n    tag_117:\n        /* \"Library.sol\":2678:2774  if(compareStrings(LibraryArchive[i].name, bookName)){... */\n      iszero\n      tag_126\n      jumpi\n        /* \"Library.sol\":2755:2759  true */\n      0x01\n        /* \"Library.sol\":2748:2759  return true */\n      swap2\n      pop\n      pop\n      jump(tag_113)\n        /* \"Library.sol\":2678:2774  if(compareStrings(LibraryArchive[i].name, bookName)){... */\n    tag_126:\n        /* \"Library.sol\":2660:2663  i++ */\n      dup1\n      dup1\n      tag_127\n      swap1\n      tag_55\n      jump\t// in\n    tag_127:\n      swap2\n      pop\n      pop\n        /* \"Library.sol\":2623:2784  for(uint i=0;i<LibraryArchive.length;i++){... */\n      jump(tag_114)\n    tag_115:\n      pop\n        /* \"Library.sol\":2800:2805  false */\n      0x00\n        /* \"Library.sol\":2793:2805  return false */\n      swap1\n      pop\n        /* \"Library.sol\":2531:2812  function LibraryContainsBook(string calldata bookName) private view returns (bool){... */\n    tag_113:\n      swap3\n      swap2\n      pop\n      pop\n      jump\t// out\n        /* \"Helpers.sol\":86:350  function intArrContainsValue(uint value, uint[] memory array) internal pure returns(bool){   ... */\n    tag_75:\n        /* \"Helpers.sol\":170:174  bool */\n      0x00\n        /* \"Helpers.sol\":193:199  uint i */\n      dup1\n        /* \"Helpers.sol\":200:201  0 */\n      0x00\n        /* \"Helpers.sol\":193:201  uint i=0 */\n      swap1\n      pop\n        /* \"Helpers.sol\":188:322  for (uint i=0; i < array.length; i++) {... */\n    tag_129:\n        /* \"Helpers.sol\":207:212  array */\n      dup3\n        /* \"Helpers.sol\":207:219  array.length */\n      mload\n        /* \"Helpers.sol\":203:204  i */\n      dup2\n        /* \"Helpers.sol\":203:219  i < array.length */\n      lt\n        /* \"Helpers.sol\":188:322  for (uint i=0; i < array.length; i++) {... */\n      iszero\n      tag_130\n      jumpi\n        /* \"Helpers.sol\":253:258  array */\n      dup3\n        /* \"Helpers.sol\":259:260  i */\n      dup2\n        /* \"Helpers.sol\":253:261  array[i] */\n      dup2\n      mload\n      dup2\n      lt\n      tag_132\n      jumpi\n      mstore(0x00, 0x4e487b7100000000000000000000000000000000000000000000000000000000)\n      mstore(0x04, 0x32)\n      revert(0x00, 0x24)\n    tag_132:\n      0x20\n      mul\n      0x20\n      add\n      add\n      mload\n        /* \"Helpers.sol\":244:249  value */\n      dup5\n        /* \"Helpers.sol\":244:261  value == array[i] */\n      eq\n        /* \"Helpers.sol\":240:312  if (value == array[i]) {     ... */\n      iszero\n      tag_133\n      jumpi\n        /* \"Helpers.sol\":293:297  true */\n      0x01\n        /* \"Helpers.sol\":286:297  return true */\n      swap2\n      pop\n      pop\n      jump(tag_128)\n        /* \"Helpers.sol\":240:312  if (value == array[i]) {     ... */\n    tag_133:\n        /* \"Helpers.sol\":221:224  i++ */\n      dup1\n      dup1\n      tag_134\n      swap1\n      tag_55\n      jump\t// in\n    tag_134:\n      swap2\n      pop\n      pop\n        /* \"Helpers.sol\":188:322  for (uint i=0; i < array.length; i++) {... */\n      jump(tag_129)\n    tag_130:\n      pop\n        /* \"Helpers.sol\":338:343  false */\n      0x00\n        /* \"Helpers.sol\":331:343  return false */\n      swap1\n      pop\n        /* \"Helpers.sol\":86:350  function intArrContainsValue(uint value, uint[] memory array) internal pure returns(bool){   ... */\n    tag_128:\n      swap3\n      swap2\n      pop\n      pop\n      jump\t// out\n        /* \"Helpers.sol\":356:630  function addressArrContainsValue(address value, address[] memory array) internal pure returns(bool){   ... */\n    tag_83:\n        /* \"Helpers.sol\":450:454  bool */\n      0x00\n        /* \"Helpers.sol\":473:479  uint i */\n      dup1\n        /* \"Helpers.sol\":480:481  0 */\n      0x00\n        /* \"Helpers.sol\":473:481  uint i=0 */\n      swap1\n      pop\n        /* \"Helpers.sol\":468:602  for (uint i=0; i < array.length; i++) {... */\n    tag_136:\n        /* \"Helpers.sol\":487:492  array */\n      dup3\n        /* \"Helpers.sol\":487:499  array.length */\n      mload\n        /* \"Helpers.sol\":483:484  i */\n      dup2\n        /* \"Helpers.sol\":483:499  i < array.length */\n      lt\n        /* \"Helpers.sol\":468:602  for (uint i=0; i < array.length; i++) {... */\n      iszero\n      tag_137\n      jumpi\n        /* \"Helpers.sol\":533:538  array */\n      dup3\n        /* \"Helpers.sol\":539:540  i */\n      dup2\n        /* \"Helpers.sol\":533:541  array[i] */\n      dup2\n      mload\n      dup2\n      lt\n      tag_139\n      jumpi\n      mstore(0x00, 0x4e487b7100000000000000000000000000000000000000000000000000000000)\n      mstore(0x04, 0x32)\n      revert(0x00, 0x24)\n    tag_139:\n      0x20\n      mul\n      0x20\n      add\n      add\n      mload\n        /* \"Helpers.sol\":524:541  value == array[i] */\n      0xffffffffffffffffffffffffffffffffffffffff\n      and\n        /* \"Helpers.sol\":524:529  value */\n      dup5\n        /* \"Helpers.sol\":524:541  value == array[i] */\n      0xffffffffffffffffffffffffffffffffffffffff\n      and\n      eq\n        /* \"Helpers.sol\":520:592  if (value == array[i]) {     ... */\n      iszero\n      tag_140\n      jumpi\n        /* \"Helpers.sol\":573:577  true */\n      0x01\n        /* \"Helpers.sol\":566:577  return true */\n      swap2\n      pop\n      pop\n      jump(tag_135)\n        /* \"Helpers.sol\":520:592  if (value == array[i]) {     ... */\n    tag_140:\n        /* \"Helpers.sol\":501:504  i++ */\n      dup1\n      dup1\n      tag_141\n      swap1\n      tag_55\n      jump\t// in\n    tag_141:\n      swap2\n      pop\n      pop\n        /* \"Helpers.sol\":468:602  for (uint i=0; i < array.length; i++) {... */\n      jump(tag_136)\n    tag_137:\n      pop\n        /* \"Helpers.sol\":618:623  false */\n      0x00\n        /* \"Helpers.sol\":611:623  return false */\n      swap1\n      pop\n        /* \"Helpers.sol\":356:630  function addressArrContainsValue(address value, address[] memory array) internal pure returns(bool){   ... */\n    tag_135:\n      swap3\n      swap2\n      pop\n      pop\n      jump\t// out\n        /* \"Helpers.sol\":636:899  function removeIntArrElement(uint[] storage array, uint id) internal{... */\n    tag_102:\n        /* \"Helpers.sol\":720:726  uint i */\n      0x00\n        /* \"Helpers.sol\":715:893  for (uint i=0; i < array.length; i++) {... */\n    tag_143:\n        /* \"Helpers.sol\":734:739  array */\n      dup3\n        /* \"Helpers.sol\":734:746  array.length */\n      dup1\n      sload\n      swap1\n      pop\n        /* \"Helpers.sol\":730:731  i */\n      dup2\n        /* \"Helpers.sol\":730:746  i < array.length */\n      lt\n        /* \"Helpers.sol\":715:893  for (uint i=0; i < array.length; i++) {... */\n      iszero\n      tag_144\n      jumpi\n        /* \"Helpers.sol\":777:782  array */\n      dup3\n        /* \"Helpers.sol\":783:784  i */\n      dup2\n        /* \"Helpers.sol\":777:785  array[i] */\n      dup2\n      sload\n      dup2\n      lt\n      tag_146\n      jumpi\n      mstore(0x00, 0x4e487b7100000000000000000000000000000000000000000000000000000000)\n      mstore(0x04, 0x32)\n      revert(0x00, 0x24)\n    tag_146:\n      swap1\n      0x00\n      mstore\n      keccak256(0x00, 0x20)\n      add\n      sload\n        /* \"Helpers.sol\":771:773  id */\n      dup3\n        /* \"Helpers.sol\":771:785  id == array[i] */\n      eq\n        /* \"Helpers.sol\":767:883  if (id == array[i]) {... */\n      iszero\n      tag_148\n      jumpi\n        /* \"Helpers.sol\":816:821  array */\n      dup3\n        /* \"Helpers.sol\":837:838  1 */\n      0x01\n        /* \"Helpers.sol\":822:827  array */\n      dup5\n        /* \"Helpers.sol\":822:834  array.length */\n      dup1\n      sload\n      swap1\n      pop\n        /* \"Helpers.sol\":822:838  array.length - 1 */\n      tag_149\n      swap2\n      swap1\n      tag_150\n      jump\t// in\n    tag_149:\n        /* \"Helpers.sol\":816:839  array[array.length - 1] */\n      dup2\n      sload\n      dup2\n      lt\n      tag_151\n      jumpi\n      mstore(0x00, 0x4e487b7100000000000000000000000000000000000000000000000000000000)\n      mstore(0x04, 0x32)\n      revert(0x00, 0x24)\n    tag_151:\n      swap1\n      0x00\n      mstore\n      keccak256(0x00, 0x20)\n      add\n      sload\n        /* \"Helpers.sol\":805:810  array */\n      dup4\n        /* \"Helpers.sol\":811:812  i */\n      dup3\n        /* \"Helpers.sol\":805:813  array[i] */\n      dup2\n      sload\n      dup2\n      lt\n      tag_153\n      jumpi\n      mstore(0x00, 0x4e487b7100000000000000000000000000000000000000000000000000000000)\n      mstore(0x04, 0x32)\n      revert(0x00, 0x24)\n    tag_153:\n      swap1\n      0x00\n      mstore\n      keccak256(0x00, 0x20)\n      add\n        /* \"Helpers.sol\":805:839  array[i] = array[array.length - 1] */\n      dup2\n      swap1\n      sstore\n      pop\n        /* \"Helpers.sol\":857:862  array */\n      dup3\n        /* \"Helpers.sol\":857:868  array.pop() */\n      dup1\n      sload\n      dup1\n      tag_155\n      jumpi\n      mstore(0x00, 0x4e487b7100000000000000000000000000000000000000000000000000000000)\n      mstore(0x04, 0x31)\n      revert(0x00, 0x24)\n    tag_155:\n      0x01\n      swap1\n      sub\n      dup2\n      dup2\n      swap1\n      0x00\n      mstore\n      keccak256(0x00, 0x20)\n      add\n      0x00\n      swap1\n      sstore\n      swap1\n      sstore\n        /* \"Helpers.sol\":767:883  if (id == array[i]) {... */\n    tag_148:\n        /* \"Helpers.sol\":748:751  i++ */\n      dup1\n      dup1\n      tag_157\n      swap1\n      tag_55\n      jump\t// in\n    tag_157:\n      swap2\n      pop\n      pop\n        /* \"Helpers.sol\":715:893  for (uint i=0; i < array.length; i++) {... */\n      jump(tag_143)\n    tag_144:\n      pop\n        /* \"Helpers.sol\":636:899  function removeIntArrElement(uint[] storage array, uint id) internal{... */\n      pop\n      pop\n      jump\t// out\n        /* \"Helpers.sol\":905:1086  function compareStrings(string memory a, string memory b) internal pure returns (bool) {... */\n    tag_125:\n        /* \"Helpers.sol\":986:990  bool */\n      0x00\n        /* \"Helpers.sol\":1074:1075  b */\n      dup2\n        /* \"Helpers.sol\":1056:1077  abi.encodePacked((b)) */\n      add(0x20, mload(0x40))\n      tag_159\n      swap2\n      swap1\n      tag_160\n      jump\t// in\n    tag_159:\n      mload(0x40)\n      0x20\n      dup2\n      dup4\n      sub\n      sub\n      dup2\n      mstore\n      swap1\n      0x40\n      mstore\n        /* \"Helpers.sol\":1046:1078  keccak256(abi.encodePacked((b))) */\n      dup1\n      mload\n      swap1\n      0x20\n      add\n      keccak256\n        /* \"Helpers.sol\":1038:1039  a */\n      dup4\n        /* \"Helpers.sol\":1020:1041  abi.encodePacked((a)) */\n      add(0x20, mload(0x40))\n      tag_161\n      swap2\n      swap1\n      tag_160\n      jump\t// in\n    tag_161:\n      mload(0x40)\n      0x20\n      dup2\n      dup4\n      sub\n      sub\n      dup2\n      mstore\n      swap1\n      0x40\n      mstore\n        /* \"Helpers.sol\":1010:1042  keccak256(abi.encodePacked((a))) */\n      dup1\n      mload\n      swap1\n      0x20\n      add\n      keccak256\n        /* \"Helpers.sol\":1010:1078  keccak256(abi.encodePacked((a))) == keccak256(abi.encodePacked((b))) */\n      eq\n        /* \"Helpers.sol\":1002:1079  return (keccak256(abi.encodePacked((a))) == keccak256(abi.encodePacked((b)))) */\n      swap1\n      pop\n        /* \"Helpers.sol\":905:1086  function compareStrings(string memory a, string memory b) internal pure returns (bool) {... */\n      swap3\n      swap2\n      pop\n      pop\n      jump\t// out\n    tag_49:\n      mload(0x40)\n      dup1\n      0x80\n      add\n      0x40\n      mstore\n      dup1\n      0x00\n      dup2\n      mstore\n      0x20\n      add\n      0x60\n      dup2\n      mstore\n      0x20\n      add\n      0x00\n      dup2\n      mstore\n      0x20\n      add\n      iszero(iszero(0x00))\n      dup2\n      mstore\n      pop\n      swap1\n      jump\t// out\n    tag_51:\n      dup3\n      dup1\n      sload\n      tag_162\n      swap1\n      tag_59\n      jump\t// in\n    tag_162:\n      swap1\n      0x00\n      mstore\n      keccak256(0x00, 0x20)\n      swap1\n      0x1f\n      add\n      0x20\n      swap1\n      div\n      dup2\n      add\n      swap3\n      dup3\n      tag_164\n      jumpi\n      0x00\n      dup6\n      sstore\n      jump(tag_163)\n    tag_164:\n      dup3\n      0x1f\n      lt\n      tag_165\n      jumpi\n      dup1\n      mload\n      not(0xff)\n      and\n      dup4\n      dup1\n      add\n      or\n      dup6\n      sstore\n      jump(tag_163)\n    tag_165:\n      dup3\n      dup1\n      add\n      0x01\n      add\n      dup6\n      sstore\n      dup3\n      iszero\n      tag_163\n      jumpi\n      swap2\n      dup3\n      add\n    tag_166:\n      dup3\n      dup2\n      gt\n      iszero\n      tag_167\n      jumpi\n      dup3\n      mload\n      dup3\n      sstore\n      swap2\n      0x20\n      add\n      swap2\n      swap1\n      0x01\n      add\n      swap1\n      jump(tag_166)\n    tag_167:\n    tag_163:\n      pop\n      swap1\n      pop\n      tag_168\n      swap2\n      swap1\n      tag_169\n      jump\t// in\n    tag_168:\n      pop\n      swap1\n      jump\t// out\n    tag_169:\n    tag_170:\n      dup1\n      dup3\n      gt\n      iszero\n      tag_171\n      jumpi\n      0x00\n      dup2\n      0x00\n      swap1\n      sstore\n      pop\n      0x01\n      add\n      jump(tag_170)\n    tag_171:\n      pop\n      swap1\n      jump\t// out\n        /* \"#utility.yul\":21:373   */\n    tag_173:\n      0x00\n      dup1\n        /* \"#utility.yul\":139:142   */\n      dup4\n        /* \"#utility.yul\":132:136   */\n      0x1f\n        /* \"#utility.yul\":124:130   */\n      dup5\n        /* \"#utility.yul\":120:137   */\n      add\n        /* \"#utility.yul\":116:143   */\n      slt\n        /* \"#utility.yul\":106:108   */\n      tag_175\n      jumpi\n        /* \"#utility.yul\":157:158   */\n      0x00\n        /* \"#utility.yul\":154:155   */\n      dup1\n        /* \"#utility.yul\":147:159   */\n      revert\n        /* \"#utility.yul\":106:108   */\n    tag_175:\n        /* \"#utility.yul\":193:199   */\n      dup3\n        /* \"#utility.yul\":180:200   */\n      calldataload\n        /* \"#utility.yul\":170:200   */\n      swap1\n      pop\n        /* \"#utility.yul\":223:241   */\n      0xffffffffffffffff\n        /* \"#utility.yul\":215:221   */\n      dup2\n        /* \"#utility.yul\":212:242   */\n      gt\n        /* \"#utility.yul\":209:211   */\n      iszero\n      tag_176\n      jumpi\n        /* \"#utility.yul\":255:256   */\n      0x00\n        /* \"#utility.yul\":252:253   */\n      dup1\n        /* \"#utility.yul\":245:257   */\n      revert\n        /* \"#utility.yul\":209:211   */\n    tag_176:\n        /* \"#utility.yul\":292:296   */\n      0x20\n        /* \"#utility.yul\":284:290   */\n      dup4\n        /* \"#utility.yul\":280:297   */\n      add\n        /* \"#utility.yul\":268:297   */\n      swap2\n      pop\n        /* \"#utility.yul\":346:349   */\n      dup4\n        /* \"#utility.yul\":338:342   */\n      0x01\n        /* \"#utility.yul\":330:336   */\n      dup3\n        /* \"#utility.yul\":326:343   */\n      mul\n        /* \"#utility.yul\":316:324   */\n      dup4\n        /* \"#utility.yul\":312:344   */\n      add\n        /* \"#utility.yul\":309:350   */\n      gt\n        /* \"#utility.yul\":306:308   */\n      iszero\n      tag_177\n      jumpi\n        /* \"#utility.yul\":363:364   */\n      0x00\n        /* \"#utility.yul\":360:361   */\n      dup1\n        /* \"#utility.yul\":353:365   */\n      revert\n        /* \"#utility.yul\":306:308   */\n    tag_177:\n        /* \"#utility.yul\":96:373   */\n      swap3\n      pop\n      swap3\n      swap1\n      pop\n      jump\t// out\n        /* \"#utility.yul\":379:518   */\n    tag_178:\n      0x00\n        /* \"#utility.yul\":463:469   */\n      dup2\n        /* \"#utility.yul\":450:470   */\n      calldataload\n        /* \"#utility.yul\":441:470   */\n      swap1\n      pop\n        /* \"#utility.yul\":479:512   */\n      tag_180\n        /* \"#utility.yul\":506:511   */\n      dup2\n        /* \"#utility.yul\":479:512   */\n      tag_181\n      jump\t// in\n    tag_180:\n        /* \"#utility.yul\":431:518   */\n      swap3\n      swap2\n      pop\n      pop\n      jump\t// out\n        /* \"#utility.yul\":524:1064   */\n    tag_11:\n      0x00\n      dup1\n      0x00\n        /* \"#utility.yul\":669:671   */\n      0x40\n        /* \"#utility.yul\":657:666   */\n      dup5\n        /* \"#utility.yul\":648:655   */\n      dup7\n        /* \"#utility.yul\":644:667   */\n      sub\n        /* \"#utility.yul\":640:672   */\n      slt\n        /* \"#utility.yul\":637:639   */\n      iszero\n      tag_183\n      jumpi\n        /* \"#utility.yul\":685:686   */\n      0x00\n        /* \"#utility.yul\":682:683   */\n      dup1\n        /* \"#utility.yul\":675:687   */\n      revert\n        /* \"#utility.yul\":637:639   */\n    tag_183:\n        /* \"#utility.yul\":756:757   */\n      0x00\n        /* \"#utility.yul\":745:754   */\n      dup5\n        /* \"#utility.yul\":741:758   */\n      add\n        /* \"#utility.yul\":728:759   */\n      calldataload\n        /* \"#utility.yul\":786:804   */\n      0xffffffffffffffff\n        /* \"#utility.yul\":778:784   */\n      dup2\n        /* \"#utility.yul\":775:805   */\n      gt\n        /* \"#utility.yul\":772:774   */\n      iszero\n      tag_184\n      jumpi\n        /* \"#utility.yul\":818:819   */\n      0x00\n        /* \"#utility.yul\":815:816   */\n      dup1\n        /* \"#utility.yul\":808:820   */\n      revert\n        /* \"#utility.yul\":772:774   */\n    tag_184:\n        /* \"#utility.yul\":854:919   */\n      tag_185\n        /* \"#utility.yul\":911:918   */\n      dup7\n        /* \"#utility.yul\":902:908   */\n      dup3\n        /* \"#utility.yul\":891:900   */\n      dup8\n        /* \"#utility.yul\":887:909   */\n      add\n        /* \"#utility.yul\":854:919   */\n      tag_173\n      jump\t// in\n    tag_185:\n        /* \"#utility.yul\":836:919   */\n      swap4\n      pop\n      swap4\n      pop\n        /* \"#utility.yul\":699:929   */\n      pop\n        /* \"#utility.yul\":968:970   */\n      0x20\n        /* \"#utility.yul\":994:1047   */\n      tag_186\n        /* \"#utility.yul\":1039:1046   */\n      dup7\n        /* \"#utility.yul\":1030:1036   */\n      dup3\n        /* \"#utility.yul\":1019:1028   */\n      dup8\n        /* \"#utility.yul\":1015:1037   */\n      add\n        /* \"#utility.yul\":994:1047   */\n      tag_178\n      jump\t// in\n    tag_186:\n        /* \"#utility.yul\":984:1047   */\n      swap2\n      pop\n        /* \"#utility.yul\":939:1057   */\n      pop\n        /* \"#utility.yul\":627:1064   */\n      swap3\n      pop\n      swap3\n      pop\n      swap3\n      jump\t// out\n        /* \"#utility.yul\":1070:1332   */\n    tag_15:\n      0x00\n        /* \"#utility.yul\":1178:1180   */\n      0x20\n        /* \"#utility.yul\":1166:1175   */\n      dup3\n        /* \"#utility.yul\":1157:1164   */\n      dup5\n        /* \"#utility.yul\":1153:1176   */\n      sub\n        /* \"#utility.yul\":1149:1181   */\n      slt\n        /* \"#utility.yul\":1146:1148   */\n      iszero\n      tag_188\n      jumpi\n        /* \"#utility.yul\":1194:1195   */\n      0x00\n        /* \"#utility.yul\":1191:1192   */\n      dup1\n        /* \"#utility.yul\":1184:1196   */\n      revert\n        /* \"#utility.yul\":1146:1148   */\n    tag_188:\n        /* \"#utility.yul\":1237:1238   */\n      0x00\n        /* \"#utility.yul\":1262:1315   */\n      tag_189\n        /* \"#utility.yul\":1307:1314   */\n      dup5\n        /* \"#utility.yul\":1298:1304   */\n      dup3\n        /* \"#utility.yul\":1287:1296   */\n      dup6\n        /* \"#utility.yul\":1283:1305   */\n      add\n        /* \"#utility.yul\":1262:1315   */\n      tag_178\n      jump\t// in\n    tag_189:\n        /* \"#utility.yul\":1252:1315   */\n      swap2\n      pop\n        /* \"#utility.yul\":1208:1325   */\n      pop\n        /* \"#utility.yul\":1136:1332   */\n      swap3\n      swap2\n      pop\n      pop\n      jump\t// out\n        /* \"#utility.yul\":1338:1517   */\n    tag_190:\n      0x00\n        /* \"#utility.yul\":1428:1474   */\n      tag_192\n        /* \"#utility.yul\":1470:1473   */\n      dup4\n        /* \"#utility.yul\":1462:1468   */\n      dup4\n        /* \"#utility.yul\":1428:1474   */\n      tag_193\n      jump\t// in\n    tag_192:\n        /* \"#utility.yul\":1506:1510   */\n      0x20\n        /* \"#utility.yul\":1501:1504   */\n      dup4\n        /* \"#utility.yul\":1497:1511   */\n      add\n        /* \"#utility.yul\":1483:1511   */\n      swap1\n      pop\n        /* \"#utility.yul\":1418:1517   */\n      swap3\n      swap2\n      pop\n      pop\n      jump\t// out\n        /* \"#utility.yul\":1523:1631   */\n    tag_193:\n        /* \"#utility.yul\":1600:1624   */\n      tag_195\n        /* \"#utility.yul\":1618:1623   */\n      dup2\n        /* \"#utility.yul\":1600:1624   */\n      tag_196\n      jump\t// in\n    tag_195:\n        /* \"#utility.yul\":1595:1598   */\n      dup3\n        /* \"#utility.yul\":1588:1625   */\n      mstore\n        /* \"#utility.yul\":1578:1631   */\n      pop\n      pop\n      jump\t// out\n        /* \"#utility.yul\":1637:1755   */\n    tag_197:\n        /* \"#utility.yul\":1724:1748   */\n      tag_199\n        /* \"#utility.yul\":1742:1747   */\n      dup2\n        /* \"#utility.yul\":1724:1748   */\n      tag_196\n      jump\t// in\n    tag_199:\n        /* \"#utility.yul\":1719:1722   */\n      dup3\n        /* \"#utility.yul\":1712:1749   */\n      mstore\n        /* \"#utility.yul\":1702:1755   */\n      pop\n      pop\n      jump\t// out\n        /* \"#utility.yul\":1791:2523   */\n    tag_200:\n      0x00\n        /* \"#utility.yul\":1939:1993   */\n      tag_202\n        /* \"#utility.yul\":1987:1992   */\n      dup3\n        /* \"#utility.yul\":1939:1993   */\n      tag_203\n      jump\t// in\n    tag_202:\n        /* \"#utility.yul\":2009:2095   */\n      tag_204\n        /* \"#utility.yul\":2088:2094   */\n      dup2\n        /* \"#utility.yul\":2083:2086   */\n      dup6\n        /* \"#utility.yul\":2009:2095   */\n      tag_205\n      jump\t// in\n    tag_204:\n        /* \"#utility.yul\":2002:2095   */\n      swap4\n      pop\n        /* \"#utility.yul\":2119:2175   */\n      tag_206\n        /* \"#utility.yul\":2169:2174   */\n      dup4\n        /* \"#utility.yul\":2119:2175   */\n      tag_207\n      jump\t// in\n    tag_206:\n        /* \"#utility.yul\":2198:2205   */\n      dup1\n        /* \"#utility.yul\":2229:2230   */\n      0x00\n        /* \"#utility.yul\":2214:2498   */\n    tag_208:\n        /* \"#utility.yul\":2239:2245   */\n      dup4\n        /* \"#utility.yul\":2236:2237   */\n      dup2\n        /* \"#utility.yul\":2233:2246   */\n      lt\n        /* \"#utility.yul\":2214:2498   */\n      iszero\n      tag_210\n      jumpi\n        /* \"#utility.yul\":2315:2321   */\n      dup2\n        /* \"#utility.yul\":2309:2322   */\n      mload\n        /* \"#utility.yul\":2342:2405   */\n      tag_211\n        /* \"#utility.yul\":2401:2404   */\n      dup9\n        /* \"#utility.yul\":2386:2399   */\n      dup3\n        /* \"#utility.yul\":2342:2405   */\n      tag_190\n      jump\t// in\n    tag_211:\n        /* \"#utility.yul\":2335:2405   */\n      swap8\n      pop\n        /* \"#utility.yul\":2428:2488   */\n      tag_212\n        /* \"#utility.yul\":2481:2487   */\n      dup4\n        /* \"#utility.yul\":2428:2488   */\n      tag_213\n      jump\t// in\n    tag_212:\n        /* \"#utility.yul\":2418:2488   */\n      swap3\n      pop\n        /* \"#utility.yul\":2274:2498   */\n      pop\n        /* \"#utility.yul\":2261:2262   */\n      0x01\n        /* \"#utility.yul\":2258:2259   */\n      dup2\n        /* \"#utility.yul\":2254:2263   */\n      add\n        /* \"#utility.yul\":2249:2263   */\n      swap1\n      pop\n        /* \"#utility.yul\":2214:2498   */\n      jump(tag_208)\n    tag_210:\n        /* \"#utility.yul\":2218:2232   */\n      pop\n        /* \"#utility.yul\":2514:2517   */\n      dup6\n        /* \"#utility.yul\":2507:2517   */\n      swap4\n      pop\n        /* \"#utility.yul\":1915:2523   */\n      pop\n      pop\n      pop\n      swap3\n      swap2\n      pop\n      pop\n      jump\t// out\n        /* \"#utility.yul\":2529:2638   */\n    tag_214:\n        /* \"#utility.yul\":2610:2631   */\n      tag_216\n        /* \"#utility.yul\":2625:2630   */\n      dup2\n        /* \"#utility.yul\":2610:2631   */\n      tag_217\n      jump\t// in\n    tag_216:\n        /* \"#utility.yul\":2605:2608   */\n      dup3\n        /* \"#utility.yul\":2598:2632   */\n      mstore\n        /* \"#utility.yul\":2588:2638   */\n      pop\n      pop\n      jump\t// out\n        /* \"#utility.yul\":2644:3008   */\n    tag_218:\n      0x00\n        /* \"#utility.yul\":2760:2799   */\n      tag_220\n        /* \"#utility.yul\":2793:2798   */\n      dup3\n        /* \"#utility.yul\":2760:2799   */\n      tag_221\n      jump\t// in\n    tag_220:\n        /* \"#utility.yul\":2815:2886   */\n      tag_222\n        /* \"#utility.yul\":2879:2885   */\n      dup2\n        /* \"#utility.yul\":2874:2877   */\n      dup6\n        /* \"#utility.yul\":2815:2886   */\n      tag_223\n      jump\t// in\n    tag_222:\n        /* \"#utility.yul\":2808:2886   */\n      swap4\n      pop\n        /* \"#utility.yul\":2895:2947   */\n      tag_224\n        /* \"#utility.yul\":2940:2946   */\n      dup2\n        /* \"#utility.yul\":2935:2938   */\n      dup6\n        /* \"#utility.yul\":2928:2932   */\n      0x20\n        /* \"#utility.yul\":2921:2926   */\n      dup7\n        /* \"#utility.yul\":2917:2933   */\n      add\n        /* \"#utility.yul\":2895:2947   */\n      tag_225\n      jump\t// in\n    tag_224:\n        /* \"#utility.yul\":2972:3001   */\n      tag_226\n        /* \"#utility.yul\":2994:3000   */\n      dup2\n        /* \"#utility.yul\":2972:3001   */\n      tag_227\n      jump\t// in\n    tag_226:\n        /* \"#utility.yul\":2967:2970   */\n      dup5\n        /* \"#utility.yul\":2963:3002   */\n      add\n        /* \"#utility.yul\":2956:3002   */\n      swap2\n      pop\n        /* \"#utility.yul\":2736:3008   */\n      pop\n      swap3\n      swap2\n      pop\n      pop\n      jump\t// out\n        /* \"#utility.yul\":3014:3391   */\n    tag_228:\n      0x00\n        /* \"#utility.yul\":3148:3187   */\n      tag_230\n        /* \"#utility.yul\":3181:3186   */\n      dup3\n        /* \"#utility.yul\":3148:3187   */\n      tag_221\n      jump\t// in\n    tag_230:\n        /* \"#utility.yul\":3203:3292   */\n      tag_231\n        /* \"#utility.yul\":3285:3291   */\n      dup2\n        /* \"#utility.yul\":3280:3283   */\n      dup6\n        /* \"#utility.yul\":3203:3292   */\n      tag_232\n      jump\t// in\n    tag_231:\n        /* \"#utility.yul\":3196:3292   */\n      swap4\n      pop\n        /* \"#utility.yul\":3301:3353   */\n      tag_233\n        /* \"#utility.yul\":3346:3352   */\n      dup2\n        /* \"#utility.yul\":3341:3344   */\n      dup6\n        /* \"#utility.yul\":3334:3338   */\n      0x20\n        /* \"#utility.yul\":3327:3332   */\n      dup7\n        /* \"#utility.yul\":3323:3339   */\n      add\n        /* \"#utility.yul\":3301:3353   */\n      tag_225\n      jump\t// in\n    tag_233:\n        /* \"#utility.yul\":3378:3384   */\n      dup1\n        /* \"#utility.yul\":3373:3376   */\n      dup5\n        /* \"#utility.yul\":3369:3385   */\n      add\n        /* \"#utility.yul\":3362:3385   */\n      swap2\n      pop\n        /* \"#utility.yul\":3124:3391   */\n      pop\n      swap3\n      swap2\n      pop\n      pop\n      jump\t// out\n        /* \"#utility.yul\":3397:3727   */\n    tag_234:\n      0x00\n        /* \"#utility.yul\":3560:3627   */\n      tag_236\n        /* \"#utility.yul\":3624:3626   */\n      0x20\n        /* \"#utility.yul\":3619:3622   */\n      dup4\n        /* \"#utility.yul\":3560:3627   */\n      tag_223\n      jump\t// in\n    tag_236:\n        /* \"#utility.yul\":3553:3627   */\n      swap2\n      pop\n        /* \"#utility.yul\":3657:3691   */\n      0x5468697320626f6f6b2065786973747320696e20746865206c69627261727921\n        /* \"#utility.yul\":3653:3654   */\n      0x00\n        /* \"#utility.yul\":3648:3651   */\n      dup4\n        /* \"#utility.yul\":3644:3655   */\n      add\n        /* \"#utility.yul\":3637:3692   */\n      mstore\n        /* \"#utility.yul\":3718:3720   */\n      0x20\n        /* \"#utility.yul\":3713:3716   */\n      dup3\n        /* \"#utility.yul\":3709:3721   */\n      add\n        /* \"#utility.yul\":3702:3721   */\n      swap1\n      pop\n        /* \"#utility.yul\":3543:3727   */\n      swap2\n      swap1\n      pop\n      jump\t// out\n        /* \"#utility.yul\":3733:4061   */\n    tag_237:\n      0x00\n        /* \"#utility.yul\":3896:3963   */\n      tag_239\n        /* \"#utility.yul\":3960:3962   */\n      0x1e\n        /* \"#utility.yul\":3955:3958   */\n      dup4\n        /* \"#utility.yul\":3896:3963   */\n      tag_223\n      jump\t// in\n    tag_239:\n        /* \"#utility.yul\":3889:3963   */\n      swap2\n      pop\n        /* \"#utility.yul\":3993:4025   */\n      0x596f7520686176656e7420626f72726f776564207468617420626f6f6b210000\n        /* \"#utility.yul\":3989:3990   */\n      0x00\n        /* \"#utility.yul\":3984:3987   */\n      dup4\n        /* \"#utility.yul\":3980:3991   */\n      add\n        /* \"#utility.yul\":3973:4026   */\n      mstore\n        /* \"#utility.yul\":4052:4054   */\n      0x20\n        /* \"#utility.yul\":4047:4050   */\n      dup3\n        /* \"#utility.yul\":4043:4055   */\n      add\n        /* \"#utility.yul\":4036:4055   */\n      swap1\n      pop\n        /* \"#utility.yul\":3879:4061   */\n      swap2\n      swap1\n      pop\n      jump\t// out\n        /* \"#utility.yul\":4067:4433   */\n    tag_240:\n      0x00\n        /* \"#utility.yul\":4230:4297   */\n      tag_242\n        /* \"#utility.yul\":4294:4296   */\n      0x22\n        /* \"#utility.yul\":4289:4292   */\n      dup4\n        /* \"#utility.yul\":4230:4297   */\n      tag_223\n      jump\t// in\n    tag_242:\n        /* \"#utility.yul\":4223:4297   */\n      swap2\n      pop\n        /* \"#utility.yul\":4327:4361   */\n      0x596f7527766520616c726561647920626f72726f776564207468617420626f6f\n        /* \"#utility.yul\":4323:4324   */\n      0x00\n        /* \"#utility.yul\":4318:4321   */\n      dup4\n        /* \"#utility.yul\":4314:4325   */\n      add\n        /* \"#utility.yul\":4307:4362   */\n      mstore\n        /* \"#utility.yul\":4393:4397   */\n      0x6b21000000000000000000000000000000000000000000000000000000000000\n        /* \"#utility.yul\":4388:4390   */\n      0x20\n        /* \"#utility.yul\":4383:4386   */\n      dup4\n        /* \"#utility.yul\":4379:4391   */\n      add\n        /* \"#utility.yul\":4372:4398   */\n      mstore\n        /* \"#utility.yul\":4424:4426   */\n      0x40\n        /* \"#utility.yul\":4419:4422   */\n      dup3\n        /* \"#utility.yul\":4415:4427   */\n      add\n        /* \"#utility.yul\":4408:4427   */\n      swap1\n      pop\n        /* \"#utility.yul\":4213:4433   */\n      swap2\n      swap1\n      pop\n      jump\t// out\n        /* \"#utility.yul\":4439:4763   */\n    tag_243:\n      0x00\n        /* \"#utility.yul\":4602:4669   */\n      tag_245\n        /* \"#utility.yul\":4666:4668   */\n      0x1a\n        /* \"#utility.yul\":4661:4664   */\n      dup4\n        /* \"#utility.yul\":4602:4669   */\n      tag_223\n      jump\t// in\n    tag_245:\n        /* \"#utility.yul\":4595:4669   */\n      swap2\n      pop\n        /* \"#utility.yul\":4699:4727   */\n      0x43757272656e742075736572206973206e6f74206f776e657221000000000000\n        /* \"#utility.yul\":4695:4696   */\n      0x00\n        /* \"#utility.yul\":4690:4693   */\n      dup4\n        /* \"#utility.yul\":4686:4697   */\n      add\n        /* \"#utility.yul\":4679:4728   */\n      mstore\n        /* \"#utility.yul\":4754:4756   */\n      0x20\n        /* \"#utility.yul\":4749:4752   */\n      dup3\n        /* \"#utility.yul\":4745:4757   */\n      add\n        /* \"#utility.yul\":4738:4757   */\n      swap1\n      pop\n        /* \"#utility.yul\":4585:4763   */\n      swap2\n      swap1\n      pop\n      jump\t// out\n        /* \"#utility.yul\":4769:5137   */\n    tag_246:\n      0x00\n        /* \"#utility.yul\":4932:4999   */\n      tag_248\n        /* \"#utility.yul\":4996:4998   */\n      0x24\n        /* \"#utility.yul\":4991:4994   */\n      dup4\n        /* \"#utility.yul\":4932:4999   */\n      tag_223\n      jump\t// in\n    tag_248:\n        /* \"#utility.yul\":4925:4999   */\n      swap2\n      pop\n        /* \"#utility.yul\":5029:5063   */\n      0x5468697320626f6f6b206973206f7574206f662073746f636b2063757272656e\n        /* \"#utility.yul\":5025:5026   */\n      0x00\n        /* \"#utility.yul\":5020:5023   */\n      dup4\n        /* \"#utility.yul\":5016:5027   */\n      add\n        /* \"#utility.yul\":5009:5064   */\n      mstore\n        /* \"#utility.yul\":5095:5101   */\n      0x746c792100000000000000000000000000000000000000000000000000000000\n        /* \"#utility.yul\":5090:5092   */\n      0x20\n        /* \"#utility.yul\":5085:5088   */\n      dup4\n        /* \"#utility.yul\":5081:5093   */\n      add\n        /* \"#utility.yul\":5074:5102   */\n      mstore\n        /* \"#utility.yul\":5128:5130   */\n      0x40\n        /* \"#utility.yul\":5123:5126   */\n      dup3\n        /* \"#utility.yul\":5119:5131   */\n      add\n        /* \"#utility.yul\":5112:5131   */\n      swap1\n      pop\n        /* \"#utility.yul\":4915:5137   */\n      swap2\n      swap1\n      pop\n      jump\t// out\n        /* \"#utility.yul\":5143:5472   */\n    tag_249:\n      0x00\n        /* \"#utility.yul\":5306:5373   */\n      tag_251\n        /* \"#utility.yul\":5370:5372   */\n      0x1f\n        /* \"#utility.yul\":5365:5368   */\n      dup4\n        /* \"#utility.yul\":5306:5373   */\n      tag_223\n      jump\t// in\n    tag_251:\n        /* \"#utility.yul\":5299:5373   */\n      swap2\n      pop\n        /* \"#utility.yul\":5403:5436   */\n      0x426f6f6b20646f6573206e6f7420657869737420696e206c6962726172792100\n        /* \"#utility.yul\":5399:5400   */\n      0x00\n        /* \"#utility.yul\":5394:5397   */\n      dup4\n        /* \"#utility.yul\":5390:5401   */\n      add\n        /* \"#utility.yul\":5383:5437   */\n      mstore\n        /* \"#utility.yul\":5463:5465   */\n      0x20\n        /* \"#utility.yul\":5458:5461   */\n      dup3\n        /* \"#utility.yul\":5454:5466   */\n      add\n        /* \"#utility.yul\":5447:5466   */\n      swap1\n      pop\n        /* \"#utility.yul\":5289:5472   */\n      swap2\n      swap1\n      pop\n      jump\t// out\n        /* \"#utility.yul\":5478:5807   */\n    tag_252:\n      0x00\n        /* \"#utility.yul\":5641:5708   */\n      tag_254\n        /* \"#utility.yul\":5705:5707   */\n      0x1f\n        /* \"#utility.yul\":5700:5703   */\n      dup4\n        /* \"#utility.yul\":5641:5708   */\n      tag_223\n      jump\t// in\n    tag_254:\n        /* \"#utility.yul\":5634:5708   */\n      swap2\n      pop\n        /* \"#utility.yul\":5738:5771   */\n      0x5175616e746974792063616e6e6f74206265206c657373207468616e20312100\n        /* \"#utility.yul\":5734:5735   */\n      0x00\n        /* \"#utility.yul\":5729:5732   */\n      dup4\n        /* \"#utility.yul\":5725:5736   */\n      add\n        /* \"#utility.yul\":5718:5772   */\n      mstore\n        /* \"#utility.yul\":5798:5800   */\n      0x20\n        /* \"#utility.yul\":5793:5796   */\n      dup3\n        /* \"#utility.yul\":5789:5801   */\n      add\n        /* \"#utility.yul\":5782:5801   */\n      swap1\n      pop\n        /* \"#utility.yul\":5624:5807   */\n      swap2\n      swap1\n      pop\n      jump\t// out\n        /* \"#utility.yul\":5813:5931   */\n    tag_255:\n        /* \"#utility.yul\":5900:5924   */\n      tag_257\n        /* \"#utility.yul\":5918:5923   */\n      dup2\n        /* \"#utility.yul\":5900:5924   */\n      tag_258\n      jump\t// in\n    tag_257:\n        /* \"#utility.yul\":5895:5898   */\n      dup3\n        /* \"#utility.yul\":5888:5925   */\n      mstore\n        /* \"#utility.yul\":5878:5931   */\n      pop\n      pop\n      jump\t// out\n        /* \"#utility.yul\":5937:6212   */\n    tag_160:\n      0x00\n        /* \"#utility.yul\":6091:6186   */\n      tag_260\n        /* \"#utility.yul\":6182:6185   */\n      dup3\n        /* \"#utility.yul\":6173:6179   */\n      dup5\n        /* \"#utility.yul\":6091:6186   */\n      tag_228\n      jump\t// in\n    tag_260:\n        /* \"#utility.yul\":6084:6186   */\n      swap2\n      pop\n        /* \"#utility.yul\":6203:6206   */\n      dup2\n        /* \"#utility.yul\":6196:6206   */\n      swap1\n      pop\n        /* \"#utility.yul\":6073:6212   */\n      swap3\n      swap2\n      pop\n      pop\n      jump\t// out\n        /* \"#utility.yul\":6218:6440   */\n    tag_22:\n      0x00\n        /* \"#utility.yul\":6349:6351   */\n      0x20\n        /* \"#utility.yul\":6338:6347   */\n      dup3\n        /* \"#utility.yul\":6334:6352   */\n      add\n        /* \"#utility.yul\":6326:6352   */\n      swap1\n      pop\n        /* \"#utility.yul\":6362:6433   */\n      tag_262\n        /* \"#utility.yul\":6430:6431   */\n      0x00\n        /* \"#utility.yul\":6419:6428   */\n      dup4\n        /* \"#utility.yul\":6415:6432   */\n      add\n        /* \"#utility.yul\":6406:6412   */\n      dup5\n        /* \"#utility.yul\":6362:6433   */\n      tag_197\n      jump\t// in\n    tag_262:\n        /* \"#utility.yul\":6316:6440   */\n      swap3\n      swap2\n      pop\n      pop\n      jump\t// out\n        /* \"#utility.yul\":6446:6819   */\n    tag_33:\n      0x00\n        /* \"#utility.yul\":6627:6629   */\n      0x20\n        /* \"#utility.yul\":6616:6625   */\n      dup3\n        /* \"#utility.yul\":6612:6630   */\n      add\n        /* \"#utility.yul\":6604:6630   */\n      swap1\n      pop\n        /* \"#utility.yul\":6676:6685   */\n      dup2\n        /* \"#utility.yul\":6670:6674   */\n      dup2\n        /* \"#utility.yul\":6666:6686   */\n      sub\n        /* \"#utility.yul\":6662:6663   */\n      0x00\n        /* \"#utility.yul\":6651:6660   */\n      dup4\n        /* \"#utility.yul\":6647:6664   */\n      add\n        /* \"#utility.yul\":6640:6687   */\n      mstore\n        /* \"#utility.yul\":6704:6812   */\n      tag_264\n        /* \"#utility.yul\":6807:6811   */\n      dup2\n        /* \"#utility.yul\":6798:6804   */\n      dup5\n        /* \"#utility.yul\":6704:6812   */\n      tag_200\n      jump\t// in\n    tag_264:\n        /* \"#utility.yul\":6696:6812   */\n      swap1\n      pop\n        /* \"#utility.yul\":6594:6819   */\n      swap3\n      swap2\n      pop\n      pop\n      jump\t// out\n        /* \"#utility.yul\":6825:7244   */\n    tag_44:\n      0x00\n        /* \"#utility.yul\":7029:7031   */\n      0x20\n        /* \"#utility.yul\":7018:7027   */\n      dup3\n        /* \"#utility.yul\":7014:7032   */\n      add\n        /* \"#utility.yul\":7006:7032   */\n      swap1\n      pop\n        /* \"#utility.yul\":7078:7087   */\n      dup2\n        /* \"#utility.yul\":7072:7076   */\n      dup2\n        /* \"#utility.yul\":7068:7088   */\n      sub\n        /* \"#utility.yul\":7064:7065   */\n      0x00\n        /* \"#utility.yul\":7053:7062   */\n      dup4\n        /* \"#utility.yul\":7049:7066   */\n      add\n        /* \"#utility.yul\":7042:7089   */\n      mstore\n        /* \"#utility.yul\":7106:7237   */\n      tag_266\n        /* \"#utility.yul\":7232:7236   */\n      dup2\n        /* \"#utility.yul\":7106:7237   */\n      tag_234\n      jump\t// in\n    tag_266:\n        /* \"#utility.yul\":7098:7237   */\n      swap1\n      pop\n        /* \"#utility.yul\":6996:7244   */\n      swap2\n      swap1\n      pop\n      jump\t// out\n        /* \"#utility.yul\":7250:7669   */\n    tag_100:\n      0x00\n        /* \"#utility.yul\":7454:7456   */\n      0x20\n        /* \"#utility.yul\":7443:7452   */\n      dup3\n        /* \"#utility.yul\":7439:7457   */\n      add\n        /* \"#utility.yul\":7431:7457   */\n      swap1\n      pop\n        /* \"#utility.yul\":7503:7512   */\n      dup2\n        /* \"#utility.yul\":7497:7501   */\n      dup2\n        /* \"#utility.yul\":7493:7513   */\n      sub\n        /* \"#utility.yul\":7489:7490   */\n      0x00\n        /* \"#utility.yul\":7478:7487   */\n      dup4\n        /* \"#utility.yul\":7474:7491   */\n      add\n        /* \"#utility.yul\":7467:7514   */\n      mstore\n        /* \"#utility.yul\":7531:7662   */\n      tag_268\n        /* \"#utility.yul\":7657:7661   */\n      dup2\n        /* \"#utility.yul\":7531:7662   */\n      tag_237\n      jump\t// in\n    tag_268:\n        /* \"#utility.yul\":7523:7662   */\n      swap1\n      pop\n        /* \"#utility.yul\":7421:7669   */\n      swap2\n      swap1\n      pop\n      jump\t// out\n        /* \"#utility.yul\":7675:8094   */\n    tag_78:\n      0x00\n        /* \"#utility.yul\":7879:7881   */\n      0x20\n        /* \"#utility.yul\":7868:7877   */\n      dup3\n        /* \"#utility.yul\":7864:7882   */\n      add\n        /* \"#utility.yul\":7856:7882   */\n      swap1\n      pop\n        /* \"#utility.yul\":7928:7937   */\n      dup2\n        /* \"#utility.yul\":7922:7926   */\n      dup2\n        /* \"#utility.yul\":7918:7938   */\n      sub\n        /* \"#utility.yul\":7914:7915   */\n      0x00\n        /* \"#utility.yul\":7903:7912   */\n      dup4\n        /* \"#utility.yul\":7899:7916   */\n      add\n        /* \"#utility.yul\":7892:7939   */\n      mstore\n        /* \"#utility.yul\":7956:8087   */\n      tag_270\n        /* \"#utility.yul\":8082:8086   */\n      dup2\n        /* \"#utility.yul\":7956:8087   */\n      tag_240\n      jump\t// in\n    tag_270:\n        /* \"#utility.yul\":7948:8087   */\n      swap1\n      pop\n        /* \"#utility.yul\":7846:8094   */\n      swap2\n      swap1\n      pop\n      jump\t// out\n        /* \"#utility.yul\":8100:8519   */\n    tag_37:\n      0x00\n        /* \"#utility.yul\":8304:8306   */\n      0x20\n        /* \"#utility.yul\":8293:8302   */\n      dup3\n        /* \"#utility.yul\":8289:8307   */\n      add\n        /* \"#utility.yul\":8281:8307   */\n      swap1\n      pop\n        /* \"#utility.yul\":8353:8362   */\n      dup2\n        /* \"#utility.yul\":8347:8351   */\n      dup2\n        /* \"#utility.yul\":8343:8363   */\n      sub\n        /* \"#utility.yul\":8339:8340   */\n      0x00\n        /* \"#utility.yul\":8328:8337   */\n      dup4\n        /* \"#utility.yul\":8324:8341   */\n      add\n        /* \"#utility.yul\":8317:8364   */\n      mstore\n        /* \"#utility.yul\":8381:8512   */\n      tag_272\n        /* \"#utility.yul\":8507:8511   */\n      dup2\n        /* \"#utility.yul\":8381:8512   */\n      tag_243\n      jump\t// in\n    tag_272:\n        /* \"#utility.yul\":8373:8512   */\n      swap1\n      pop\n        /* \"#utility.yul\":8271:8519   */\n      swap2\n      swap1\n      pop\n      jump\t// out\n        /* \"#utility.yul\":8525:8944   */\n    tag_71:\n      0x00\n        /* \"#utility.yul\":8729:8731   */\n      0x20\n        /* \"#utility.yul\":8718:8727   */\n      dup3\n        /* \"#utility.yul\":8714:8732   */\n      add\n        /* \"#utility.yul\":8706:8732   */\n      swap1\n      pop\n        /* \"#utility.yul\":8778:8787   */\n      dup2\n        /* \"#utility.yul\":8772:8776   */\n      dup2\n        /* \"#utility.yul\":8768:8788   */\n      sub\n        /* \"#utility.yul\":8764:8765   */\n      0x00\n        /* \"#utility.yul\":8753:8762   */\n      dup4\n        /* \"#utility.yul\":8749:8766   */\n      add\n        /* \"#utility.yul\":8742:8789   */\n      mstore\n        /* \"#utility.yul\":8806:8937   */\n      tag_274\n        /* \"#utility.yul\":8932:8936   */\n      dup2\n        /* \"#utility.yul\":8806:8937   */\n      tag_246\n      jump\t// in\n    tag_274:\n        /* \"#utility.yul\":8798:8937   */\n      swap1\n      pop\n        /* \"#utility.yul\":8696:8944   */\n      swap2\n      swap1\n      pop\n      jump\t// out\n        /* \"#utility.yul\":8950:9369   */\n    tag_67:\n      0x00\n        /* \"#utility.yul\":9154:9156   */\n      0x20\n        /* \"#utility.yul\":9143:9152   */\n      dup3\n        /* \"#utility.yul\":9139:9157   */\n      add\n        /* \"#utility.yul\":9131:9157   */\n      swap1\n      pop\n        /* \"#utility.yul\":9203:9212   */\n      dup2\n        /* \"#utility.yul\":9197:9201   */\n      dup2\n        /* \"#utility.yul\":9193:9213   */\n      sub\n        /* \"#utility.yul\":9189:9190   */\n      0x00\n        /* \"#utility.yul\":9178:9187   */\n      dup4\n        /* \"#utility.yul\":9174:9191   */\n      add\n        /* \"#utility.yul\":9167:9214   */\n      mstore\n        /* \"#utility.yul\":9231:9362   */\n      tag_276\n        /* \"#utility.yul\":9357:9361   */\n      dup2\n        /* \"#utility.yul\":9231:9362   */\n      tag_249\n      jump\t// in\n    tag_276:\n        /* \"#utility.yul\":9223:9362   */\n      swap1\n      pop\n        /* \"#utility.yul\":9121:9369   */\n      swap2\n      swap1\n      pop\n      jump\t// out\n        /* \"#utility.yul\":9375:9794   */\n    tag_47:\n      0x00\n        /* \"#utility.yul\":9579:9581   */\n      0x20\n        /* \"#utility.yul\":9568:9577   */\n      dup3\n        /* \"#utility.yul\":9564:9582   */\n      add\n        /* \"#utility.yul\":9556:9582   */\n      swap1\n      pop\n        /* \"#utility.yul\":9628:9637   */\n      dup2\n        /* \"#utility.yul\":9622:9626   */\n      dup2\n        /* \"#utility.yul\":9618:9638   */\n      sub\n        /* \"#utility.yul\":9614:9615   */\n      0x00\n        /* \"#utility.yul\":9603:9612   */\n      dup4\n        /* \"#utility.yul\":9599:9616   */\n      add\n        /* \"#utility.yul\":9592:9639   */\n      mstore\n        /* \"#utility.yul\":9656:9787   */\n      tag_278\n        /* \"#utility.yul\":9782:9786   */\n      dup2\n        /* \"#utility.yul\":9656:9787   */\n      tag_252\n      jump\t// in\n    tag_278:\n        /* \"#utility.yul\":9648:9787   */\n      swap1\n      pop\n        /* \"#utility.yul\":9546:9794   */\n      swap2\n      swap1\n      pop\n      jump\t// out\n        /* \"#utility.yul\":9800:10432   */\n    tag_18:\n      0x00\n        /* \"#utility.yul\":10029:10032   */\n      0x80\n        /* \"#utility.yul\":10018:10027   */\n      dup3\n        /* \"#utility.yul\":10014:10033   */\n      add\n        /* \"#utility.yul\":10006:10033   */\n      swap1\n      pop\n        /* \"#utility.yul\":10043:10114   */\n      tag_280\n        /* \"#utility.yul\":10111:10112   */\n      0x00\n        /* \"#utility.yul\":10100:10109   */\n      dup4\n        /* \"#utility.yul\":10096:10113   */\n      add\n        /* \"#utility.yul\":10087:10093   */\n      dup8\n        /* \"#utility.yul\":10043:10114   */\n      tag_255\n      jump\t// in\n    tag_280:\n        /* \"#utility.yul\":10161:10170   */\n      dup2\n        /* \"#utility.yul\":10155:10159   */\n      dup2\n        /* \"#utility.yul\":10151:10171   */\n      sub\n        /* \"#utility.yul\":10146:10148   */\n      0x20\n        /* \"#utility.yul\":10135:10144   */\n      dup4\n        /* \"#utility.yul\":10131:10149   */\n      add\n        /* \"#utility.yul\":10124:10172   */\n      mstore\n        /* \"#utility.yul\":10189:10267   */\n      tag_281\n        /* \"#utility.yul\":10262:10266   */\n      dup2\n        /* \"#utility.yul\":10253:10259   */\n      dup7\n        /* \"#utility.yul\":10189:10267   */\n      tag_218\n      jump\t// in\n    tag_281:\n        /* \"#utility.yul\":10181:10267   */\n      swap1\n      pop\n        /* \"#utility.yul\":10277:10349   */\n      tag_282\n        /* \"#utility.yul\":10345:10347   */\n      0x40\n        /* \"#utility.yul\":10334:10343   */\n      dup4\n        /* \"#utility.yul\":10330:10348   */\n      add\n        /* \"#utility.yul\":10321:10327   */\n      dup6\n        /* \"#utility.yul\":10277:10349   */\n      tag_255\n      jump\t// in\n    tag_282:\n        /* \"#utility.yul\":10359:10425   */\n      tag_283\n        /* \"#utility.yul\":10421:10423   */\n      0x60\n        /* \"#utility.yul\":10410:10419   */\n      dup4\n        /* \"#utility.yul\":10406:10424   */\n      add\n        /* \"#utility.yul\":10397:10403   */\n      dup5\n        /* \"#utility.yul\":10359:10425   */\n      tag_214\n      jump\t// in\n    tag_283:\n        /* \"#utility.yul\":9996:10432   */\n      swap6\n      swap5\n      pop\n      pop\n      pop\n      pop\n      pop\n      jump\t// out\n        /* \"#utility.yul\":10438:10570   */\n    tag_207:\n      0x00\n        /* \"#utility.yul\":10528:10531   */\n      dup2\n        /* \"#utility.yul\":10520:10531   */\n      swap1\n      pop\n        /* \"#utility.yul\":10558:10562   */\n      0x20\n        /* \"#utility.yul\":10553:10556   */\n      dup3\n        /* \"#utility.yul\":10549:10563   */\n      add\n        /* \"#utility.yul\":10541:10563   */\n      swap1\n      pop\n        /* \"#utility.yul\":10510:10570   */\n      swap2\n      swap1\n      pop\n      jump\t// out\n        /* \"#utility.yul\":10576:10690   */\n    tag_203:\n      0x00\n        /* \"#utility.yul\":10677:10682   */\n      dup2\n        /* \"#utility.yul\":10671:10683   */\n      mload\n        /* \"#utility.yul\":10661:10683   */\n      swap1\n      pop\n        /* \"#utility.yul\":10650:10690   */\n      swap2\n      swap1\n      pop\n      jump\t// out\n        /* \"#utility.yul\":10696:10795   */\n    tag_221:\n      0x00\n        /* \"#utility.yul\":10782:10787   */\n      dup2\n        /* \"#utility.yul\":10776:10788   */\n      mload\n        /* \"#utility.yul\":10766:10788   */\n      swap1\n      pop\n        /* \"#utility.yul\":10755:10795   */\n      swap2\n      swap1\n      pop\n      jump\t// out\n        /* \"#utility.yul\":10801:10914   */\n    tag_213:\n      0x00\n        /* \"#utility.yul\":10903:10907   */\n      0x20\n        /* \"#utility.yul\":10898:10901   */\n      dup3\n        /* \"#utility.yul\":10894:10908   */\n      add\n        /* \"#utility.yul\":10886:10908   */\n      swap1\n      pop\n        /* \"#utility.yul\":10876:10914   */\n      swap2\n      swap1\n      pop\n      jump\t// out\n        /* \"#utility.yul\":10920:11104   */\n    tag_205:\n      0x00\n        /* \"#utility.yul\":11053:11059   */\n      dup3\n        /* \"#utility.yul\":11048:11051   */\n      dup3\n        /* \"#utility.yul\":11041:11060   */\n      mstore\n        /* \"#utility.yul\":11093:11097   */\n      0x20\n        /* \"#utility.yul\":11088:11091   */\n      dup3\n        /* \"#utility.yul\":11084:11098   */\n      add\n        /* \"#utility.yul\":11069:11098   */\n      swap1\n      pop\n        /* \"#utility.yul\":11031:11104   */\n      swap3\n      swap2\n      pop\n      pop\n      jump\t// out\n        /* \"#utility.yul\":11110:11279   */\n    tag_223:\n      0x00\n        /* \"#utility.yul\":11228:11234   */\n      dup3\n        /* \"#utility.yul\":11223:11226   */\n      dup3\n        /* \"#utility.yul\":11216:11235   */\n      mstore\n        /* \"#utility.yul\":11268:11272   */\n      0x20\n        /* \"#utility.yul\":11263:11266   */\n      dup3\n        /* \"#utility.yul\":11259:11273   */\n      add\n        /* \"#utility.yul\":11244:11273   */\n      swap1\n      pop\n        /* \"#utility.yul\":11206:11279   */\n      swap3\n      swap2\n      pop\n      pop\n      jump\t// out\n        /* \"#utility.yul\":11285:11433   */\n    tag_232:\n      0x00\n        /* \"#utility.yul\":11424:11427   */\n      dup2\n        /* \"#utility.yul\":11409:11427   */\n      swap1\n      pop\n        /* \"#utility.yul\":11399:11433   */\n      swap3\n      swap2\n      pop\n      pop\n      jump\t// out\n        /* \"#utility.yul\":11439:11630   */\n    tag_150:\n      0x00\n        /* \"#utility.yul\":11499:11519   */\n      tag_292\n        /* \"#utility.yul\":11517:11518   */\n      dup3\n        /* \"#utility.yul\":11499:11519   */\n      tag_258\n      jump\t// in\n    tag_292:\n        /* \"#utility.yul\":11494:11519   */\n      swap2\n      pop\n        /* \"#utility.yul\":11533:11553   */\n      tag_293\n        /* \"#utility.yul\":11551:11552   */\n      dup4\n        /* \"#utility.yul\":11533:11553   */\n      tag_258\n      jump\t// in\n    tag_293:\n        /* \"#utility.yul\":11528:11553   */\n      swap3\n      pop\n        /* \"#utility.yul\":11572:11573   */\n      dup3\n        /* \"#utility.yul\":11569:11570   */\n      dup3\n        /* \"#utility.yul\":11566:11574   */\n      lt\n        /* \"#utility.yul\":11563:11565   */\n      iszero\n      tag_294\n      jumpi\n        /* \"#utility.yul\":11577:11595   */\n      tag_295\n      tag_296\n      jump\t// in\n    tag_295:\n        /* \"#utility.yul\":11563:11565   */\n    tag_294:\n        /* \"#utility.yul\":11622:11623   */\n      dup3\n        /* \"#utility.yul\":11619:11620   */\n      dup3\n        /* \"#utility.yul\":11615:11624   */\n      sub\n        /* \"#utility.yul\":11607:11624   */\n      swap1\n      pop\n        /* \"#utility.yul\":11484:11630   */\n      swap3\n      swap2\n      pop\n      pop\n      jump\t// out\n        /* \"#utility.yul\":11636:11732   */\n    tag_196:\n      0x00\n        /* \"#utility.yul\":11702:11726   */\n      tag_298\n        /* \"#utility.yul\":11720:11725   */\n      dup3\n        /* \"#utility.yul\":11702:11726   */\n      tag_299\n      jump\t// in\n    tag_298:\n        /* \"#utility.yul\":11691:11726   */\n      swap1\n      pop\n        /* \"#utility.yul\":11681:11732   */\n      swap2\n      swap1\n      pop\n      jump\t// out\n        /* \"#utility.yul\":11738:11828   */\n    tag_217:\n      0x00\n        /* \"#utility.yul\":11815:11820   */\n      dup2\n        /* \"#utility.yul\":11808:11821   */\n      iszero\n        /* \"#utility.yul\":11801:11822   */\n      iszero\n        /* \"#utility.yul\":11790:11822   */\n      swap1\n      pop\n        /* \"#utility.yul\":11780:11828   */\n      swap2\n      swap1\n      pop\n      jump\t// out\n        /* \"#utility.yul\":11834:11960   */\n    tag_299:\n      0x00\n        /* \"#utility.yul\":11911:11953   */\n      0xffffffffffffffffffffffffffffffffffffffff\n        /* \"#utility.yul\":11904:11909   */\n      dup3\n        /* \"#utility.yul\":11900:11954   */\n      and\n        /* \"#utility.yul\":11889:11954   */\n      swap1\n      pop\n        /* \"#utility.yul\":11879:11960   */\n      swap2\n      swap1\n      pop\n      jump\t// out\n        /* \"#utility.yul\":11966:12043   */\n    tag_258:\n      0x00\n        /* \"#utility.yul\":12032:12037   */\n      dup2\n        /* \"#utility.yul\":12021:12037   */\n      swap1\n      pop\n        /* \"#utility.yul\":12011:12043   */\n      swap2\n      swap1\n      pop\n      jump\t// out\n        /* \"#utility.yul\":12049:12356   */\n    tag_225:\n        /* \"#utility.yul\":12117:12118   */\n      0x00\n        /* \"#utility.yul\":12127:12240   */\n    tag_304:\n        /* \"#utility.yul\":12141:12147   */\n      dup4\n        /* \"#utility.yul\":12138:12139   */\n      dup2\n        /* \"#utility.yul\":12135:12148   */\n      lt\n        /* \"#utility.yul\":12127:12240   */\n      iszero\n      tag_306\n      jumpi\n        /* \"#utility.yul\":12226:12227   */\n      dup1\n        /* \"#utility.yul\":12221:12224   */\n      dup3\n        /* \"#utility.yul\":12217:12228   */\n      add\n        /* \"#utility.yul\":12211:12229   */\n      mload\n        /* \"#utility.yul\":12207:12208   */\n      dup2\n        /* \"#utility.yul\":12202:12205   */\n      dup5\n        /* \"#utility.yul\":12198:12209   */\n      add\n        /* \"#utility.yul\":12191:12230   */\n      mstore\n        /* \"#utility.yul\":12163:12165   */\n      0x20\n        /* \"#utility.yul\":12160:12161   */\n      dup2\n        /* \"#utility.yul\":12156:12166   */\n      add\n        /* \"#utility.yul\":12151:12166   */\n      swap1\n      pop\n        /* \"#utility.yul\":12127:12240   */\n      jump(tag_304)\n    tag_306:\n        /* \"#utility.yul\":12258:12264   */\n      dup4\n        /* \"#utility.yul\":12255:12256   */\n      dup2\n        /* \"#utility.yul\":12252:12265   */\n      gt\n        /* \"#utility.yul\":12249:12251   */\n      iszero\n      tag_307\n      jumpi\n        /* \"#utility.yul\":12338:12339   */\n      0x00\n        /* \"#utility.yul\":12329:12335   */\n      dup5\n        /* \"#utility.yul\":12324:12327   */\n      dup5\n        /* \"#utility.yul\":12320:12336   */\n      add\n        /* \"#utility.yul\":12313:12340   */\n      mstore\n        /* \"#utility.yul\":12249:12251   */\n    tag_307:\n        /* \"#utility.yul\":12098:12356   */\n      pop\n      pop\n      pop\n      pop\n      jump\t// out\n        /* \"#utility.yul\":12362:12533   */\n    tag_87:\n      0x00\n        /* \"#utility.yul\":12424:12448   */\n      tag_309\n        /* \"#utility.yul\":12442:12447   */\n      dup3\n        /* \"#utility.yul\":12424:12448   */\n      tag_258\n      jump\t// in\n    tag_309:\n        /* \"#utility.yul\":12415:12448   */\n      swap2\n      pop\n        /* \"#utility.yul\":12470:12474   */\n      0x00\n        /* \"#utility.yul\":12463:12468   */\n      dup3\n        /* \"#utility.yul\":12460:12475   */\n      eq\n        /* \"#utility.yul\":12457:12459   */\n      iszero\n      tag_310\n      jumpi\n        /* \"#utility.yul\":12478:12496   */\n      tag_311\n      tag_296\n      jump\t// in\n    tag_311:\n        /* \"#utility.yul\":12457:12459   */\n    tag_310:\n        /* \"#utility.yul\":12525:12526   */\n      0x01\n        /* \"#utility.yul\":12518:12523   */\n      dup3\n        /* \"#utility.yul\":12514:12527   */\n      sub\n        /* \"#utility.yul\":12507:12527   */\n      swap1\n      pop\n        /* \"#utility.yul\":12405:12533   */\n      swap2\n      swap1\n      pop\n      jump\t// out\n        /* \"#utility.yul\":12539:12859   */\n    tag_59:\n      0x00\n        /* \"#utility.yul\":12620:12621   */\n      0x02\n        /* \"#utility.yul\":12614:12618   */\n      dup3\n        /* \"#utility.yul\":12610:12622   */\n      div\n        /* \"#utility.yul\":12600:12622   */\n      swap1\n      pop\n        /* \"#utility.yul\":12667:12668   */\n      0x01\n        /* \"#utility.yul\":12661:12665   */\n      dup3\n        /* \"#utility.yul\":12657:12669   */\n      and\n        /* \"#utility.yul\":12688:12706   */\n      dup1\n        /* \"#utility.yul\":12678:12680   */\n      tag_313\n      jumpi\n        /* \"#utility.yul\":12744:12748   */\n      0x7f\n        /* \"#utility.yul\":12736:12742   */\n      dup3\n        /* \"#utility.yul\":12732:12749   */\n      and\n        /* \"#utility.yul\":12722:12749   */\n      swap2\n      pop\n        /* \"#utility.yul\":12678:12680   */\n    tag_313:\n        /* \"#utility.yul\":12806:12808   */\n      0x20\n        /* \"#utility.yul\":12798:12804   */\n      dup3\n        /* \"#utility.yul\":12795:12809   */\n      lt\n        /* \"#utility.yul\":12775:12793   */\n      dup2\n        /* \"#utility.yul\":12772:12810   */\n      eq\n        /* \"#utility.yul\":12769:12771   */\n      iszero\n      tag_314\n      jumpi\n        /* \"#utility.yul\":12825:12843   */\n      tag_315\n      tag_316\n      jump\t// in\n    tag_315:\n        /* \"#utility.yul\":12769:12771   */\n    tag_314:\n        /* \"#utility.yul\":12590:12859   */\n      pop\n      swap2\n      swap1\n      pop\n      jump\t// out\n        /* \"#utility.yul\":12865:13098   */\n    tag_55:\n      0x00\n        /* \"#utility.yul\":12927:12951   */\n      tag_318\n        /* \"#utility.yul\":12945:12950   */\n      dup3\n        /* \"#utility.yul\":12927:12951   */\n      tag_258\n      jump\t// in\n    tag_318:\n        /* \"#utility.yul\":12918:12951   */\n      swap2\n      pop\n        /* \"#utility.yul\":12973:13039   */\n      0xffffffffffffffffffffffffffffffffffffffffffffffffffffffffffffffff\n        /* \"#utility.yul\":12966:12971   */\n      dup3\n        /* \"#utility.yul\":12963:13040   */\n      eq\n        /* \"#utility.yul\":12960:12962   */\n      iszero\n      tag_319\n      jumpi\n        /* \"#utility.yul\":13043:13061   */\n      tag_320\n      tag_296\n      jump\t// in\n    tag_320:\n        /* \"#utility.yul\":12960:12962   */\n    tag_319:\n        /* \"#utility.yul\":13090:13091   */\n      0x01\n        /* \"#utility.yul\":13083:13088   */\n      dup3\n        /* \"#utility.yul\":13079:13092   */\n      add\n        /* \"#utility.yul\":13072:13092   */\n      swap1\n      pop\n        /* \"#utility.yul\":12908:13098   */\n      swap2\n      swap1\n      pop\n      jump\t// out\n        /* \"#utility.yul\":13104:13284   */\n    tag_296:\n        /* \"#utility.yul\":13152:13229   */\n      0x4e487b7100000000000000000000000000000000000000000000000000000000\n        /* \"#utility.yul\":13149:13150   */\n      0x00\n        /* \"#utility.yul\":13142:13230   */\n      mstore\n        /* \"#utility.yul\":13249:13253   */\n      0x11\n        /* \"#utility.yul\":13246:13247   */\n      0x04\n        /* \"#utility.yul\":13239:13254   */\n      mstore\n        /* \"#utility.yul\":13273:13277   */\n      0x24\n        /* \"#utility.yul\":13270:13271   */\n      0x00\n        /* \"#utility.yul\":13263:13278   */\n      revert\n        /* \"#utility.yul\":13290:13470   */\n    tag_316:\n        /* \"#utility.yul\":13338:13415   */\n      0x4e487b7100000000000000000000000000000000000000000000000000000000\n        /* \"#utility.yul\":13335:13336   */\n      0x00\n        /* \"#utility.yul\":13328:13416   */\n      mstore\n        /* \"#utility.yul\":13435:13439   */\n      0x22\n        /* \"#utility.yul\":13432:13433   */\n      0x04\n        /* \"#utility.yul\":13425:13440   */\n      mstore\n        /* \"#utility.yul\":13459:13463   */\n      0x24\n        /* \"#utility.yul\":13456:13457   */\n      0x00\n        /* \"#utility.yul\":13449:13464   */\n      revert\n        /* \"#utility.yul\":13476:13578   */\n    tag_227:\n      0x00\n        /* \"#utility.yul\":13568:13570   */\n      0x1f\n        /* \"#utility.yul\":13564:13571   */\n      not\n        /* \"#utility.yul\":13559:13561   */\n      0x1f\n        /* \"#utility.yul\":13552:13557   */\n      dup4\n        /* \"#utility.yul\":13548:13562   */\n      add\n        /* \"#utility.yul\":13544:13572   */\n      and\n        /* \"#utility.yul\":13534:13572   */\n      swap1\n      pop\n        /* \"#utility.yul\":13524:13578   */\n      swap2\n      swap1\n      pop\n      jump\t// out\n        /* \"#utility.yul\":13584:13706   */\n    tag_181:\n        /* \"#utility.yul\":13657:13681   */\n      tag_325\n        /* \"#utility.yul\":13675:13680   */\n      dup2\n        /* \"#utility.yul\":13657:13681   */\n      tag_258\n      jump\t// in\n    tag_325:\n        /* \"#utility.yul\":13650:13655   */\n      dup2\n        /* \"#utility.yul\":13647:13682   */\n      eq\n        /* \"#utility.yul\":13637:13639   */\n      tag_326\n      jumpi\n        /* \"#utility.yul\":13696:13697   */\n      0x00\n        /* \"#utility.yul\":13693:13694   */\n      dup1\n        /* \"#utility.yul\":13686:13698   */\n      revert\n        /* \"#utility.yul\":13637:13639   */\n    tag_326:\n        /* \"#utility.yul\":13627:13706   */\n      pop\n      jump\t// out\n\n    auxdata: 0xa2646970667358221220d9b643fe4ed3ec4fff654f848818245a2fa6d4a01ff0e62c36332bf68590eabc64736f6c63430008000033\n}\n",
				"bytecode": {
					"linkReferences": {},
					"object": "608060405234801561001057600080fd5b50336000806101000a81548173ffffffffffffffffffffffffffffffffffffffff021916908373ffffffffffffffffffffffffffffffffffffffff1602179055506118cd806100606000396000f3fe608060405234801561001057600080fd5b50600436106100625760003560e01c8063265be2e21461006757806327e4671c146100835780638da5cb5b146100b65780639649faa3146100d4578063b8dd17db146100f0578063e7e58ee91461010c575b600080fd5b610081600480360381019061007c9190611134565b61013c565b005b61009d6004803603810190610098919061118c565b610408565b6040516100ad9493929190611611565b60405180910390f35b6100be6104dd565b6040516100cb91906114f4565b60405180910390f35b6100ee60048036038101906100e9919061118c565b610501565b005b61010a6004803603810190610105919061118c565b6108a7565b005b6101266004803603810190610121919061118c565b610aba565b604051610133919061150f565b60405180910390f35b60008054906101000a900473ffffffffffffffffffffffffffffffffffffffff1673ffffffffffffffffffffffffffffffffffffffff163373ffffffffffffffffffffffffffffffffffffffff16146101ca576040517f08c379a00000000000000000000000000000000000000000000000000000000081526004016101c190611591565b60405180910390fd5b6101d48383610bc0565b80610201575060036000600154815260200190815260200160002060030160009054906101000a900460ff165b15610241576040517f08c379a000000000000000000000000000000000000000000000000000000000815260040161023890611531565b60405180910390fd5b6001811015610285576040517f08c379a000000000000000000000000000000000000000000000000000000000815260040161027c906115f1565b60405180910390fd5b61028d611008565b60015481600001818152505083838080601f016020809104026020016040519081016040528093929190818152602001838380828437600081840152601f19601f8201169050808301925050505050505081602001819052508181604001818152505060018160600190151590811515815250508060036000600154815260200190815260200160002060008201518160000155602082015181600101908051906020019061033d929190611032565b506040820151816002015560608201518160030160006101000a81548160ff02191690831515021790555090505060028190806001815401808255809150506001900390600052602060002090600402016000909190919091506000820151816000015560208201518160010190805190602001906103bd929190611032565b506040820151816002015560608201518160030160006101000a81548160ff0219169083151502179055505050600160008154809291906103fd906117c8565b919050555050505050565b6002818154811061041857600080fd5b906000526020600020906004020160009150905080600001549080600101805461044190611796565b80601f016020809104026020016040519081016040528092919081815260200182805461046d90611796565b80156104ba5780601f1061048f576101008083540402835291602001916104ba565b820191906000526020600020905b81548152906001019060200180831161049d57829003601f168201915b5050505050908060020154908060030160009054906101000a900460ff16905084565b60008054906101000a900473ffffffffffffffffffffffffffffffffffffffff1681565b806003600082815260200190815260200160002060030160009054906101000a900460ff16610565576040517f08c379a000000000000000000000000000000000000000000000000000000000815260040161055c906115d1565b60405180910390fd5b6000600360008481526020019081526020016000206002015414156105bf576040517f08c379a00000000000000000000000000000000000000000000000000000000081526004016105b6906115b1565b60405180910390fd5b61065682600560003373ffffffffffffffffffffffffffffffffffffffff1673ffffffffffffffffffffffffffffffffffffffff16815260200190815260200160002080548060200260200160405190810160405280929190818152602001828054801561064c57602002820191906000526020600020905b815481526020019060010190808311610638575b5050505050610d24565b15610696576040517f08c379a000000000000000000000000000000000000000000000000000000000815260040161068d90611571565b60405180910390fd5b600560003373ffffffffffffffffffffffffffffffffffffffff1673ffffffffffffffffffffffffffffffffffffffff16815260200190815260200160002082908060018154018082558091505060019003906000526020600020016000909190919091505561079d336004600085815260200190815260200160002080548060200260200160405190810160405280929190818152602001828054801561079357602002820191906000526020600020905b8160009054906101000a900473ffffffffffffffffffffffffffffffffffffffff1673ffffffffffffffffffffffffffffffffffffffff1681526020019060010190808311610749575b5050505050610da6565b6108165760046000838152602001908152602001600020339080600181540180825580915050600190039060005260206000200160009091909190916101000a81548173ffffffffffffffffffffffffffffffffffffffff021916908373ffffffffffffffffffffffffffffffffffffffff1602179055505b60036000838152602001908152602001600020600201600081548092919061083d9061176c565b91905055506002828154811061087c577f4e487b7100000000000000000000000000000000000000000000000000000000600052603260045260246000fd5b9060005260206000209060040201600201600081548092919061089e9061176c565b91905055505050565b806003600082815260200190815260200160002060030160009054906101000a900460ff1661090b576040517f08c379a0000000000000000000000000000000000000000000000000000000008152600401610902906115d1565b60405180910390fd5b6109a282600560003373ffffffffffffffffffffffffffffffffffffffff1673ffffffffffffffffffffffffffffffffffffffff16815260200190815260200160002080548060200260200160405190810160405280929190818152602001828054801561099857602002820191906000526020600020905b815481526020019060010190808311610984575b5050505050610d24565b6109e1576040517f08c379a00000000000000000000000000000000000000000000000000000000081526004016109d890611551565b60405180910390fd5b610a29600560003373ffffffffffffffffffffffffffffffffffffffff1673ffffffffffffffffffffffffffffffffffffffff16815260200190815260200160002083610e54565b600360008381526020019081526020016000206002016000815480929190610a50906117c8565b919050555060028281548110610a8f577f4e487b7100000000000000000000000000000000000000000000000000000000600052603260045260246000fd5b90600052602060002090600402016002016000815480929190610ab1906117c8565b91905055505050565b6060816003600082815260200190815260200160002060030160009054906101000a900460ff16610b20576040517f08c379a0000000000000000000000000000000000000000000000000000000008152600401610b17906115d1565b60405180910390fd5b60046000848152602001908152602001600020805480602002602001604051908101604052809291908181526020018280548015610bb357602002820191906000526020600020905b8160009054906101000a900473ffffffffffffffffffffffffffffffffffffffff1673ffffffffffffffffffffffffffffffffffffffff1681526020019060010190808311610b69575b5050505050915050919050565b600080600090505b600280549050811015610d1857610cf660028281548110610c12577f4e487b7100000000000000000000000000000000000000000000000000000000600052603260045260246000fd5b90600052602060002090600402016001018054610c2e90611796565b80601f0160208091040260200160405190810160405280929190818152602001828054610c5a90611796565b8015610ca75780601f10610c7c57610100808354040283529160200191610ca7565b820191906000526020600020905b815481529060010190602001808311610c8a57829003601f168201915b505050505085858080601f016020809104026020016040519081016040528093929190818152602001838380828437600081840152601f19601f82011690508083019250505050505050610faf565b15610d05576001915050610d1e565b8080610d10906117c8565b915050610bc8565b50600090505b92915050565b600080600090505b8251811015610d9a57828181518110610d6e577f4e487b7100000000000000000000000000000000000000000000000000000000600052603260045260246000fd5b6020026020010151841415610d87576001915050610da0565b8080610d92906117c8565b915050610d2c565b50600090505b92915050565b600080600090505b8251811015610e4857828181518110610df0577f4e487b7100000000000000000000000000000000000000000000000000000000600052603260045260246000fd5b602002602001015173ffffffffffffffffffffffffffffffffffffffff168473ffffffffffffffffffffffffffffffffffffffff161415610e35576001915050610e4e565b8080610e40906117c8565b915050610dae565b50600090505b92915050565b60005b8280549050811015610faa57828181548110610e9c577f4e487b7100000000000000000000000000000000000000000000000000000000600052603260045260246000fd5b9060005260206000200154821415610f97578260018480549050610ec091906116bd565b81548110610ef7577f4e487b7100000000000000000000000000000000000000000000000000000000600052603260045260246000fd5b9060005260206000200154838281548110610f3b577f4e487b7100000000000000000000000000000000000000000000000000000000600052603260045260246000fd5b906000526020600020018190555082805480610f80577f4e487b7100000000000000000000000000000000000000000000000000000000600052603160045260246000fd5b600190038181906000526020600020016000905590555b8080610fa2906117c8565b915050610e57565b505050565b600081604051602001610fc291906114dd565b6040516020818303038152906040528051906020012083604051602001610fe991906114dd565b6040516020818303038152906040528051906020012014905092915050565b60405180608001604052806000815260200160608152602001600081526020016000151581525090565b82805461103e90611796565b90600052602060002090601f01602090048101928261106057600085556110a7565b82601f1061107957805160ff19168380011785556110a7565b828001600101855582156110a7579182015b828111156110a657825182559160200191906001019061108b565b5b5090506110b491906110b8565b5090565b5b808211156110d15760008160009055506001016110b9565b5090565b60008083601f8401126110e757600080fd5b8235905067ffffffffffffffff81111561110057600080fd5b60208301915083600182028301111561111857600080fd5b9250929050565b60008135905061112e81611880565b92915050565b60008060006040848603121561114957600080fd5b600084013567ffffffffffffffff81111561116357600080fd5b61116f868287016110d5565b935093505060206111828682870161111f565b9150509250925092565b60006020828403121561119e57600080fd5b60006111ac8482850161111f565b91505092915050565b60006111c183836111cd565b60208301905092915050565b6111d6816116f1565b82525050565b6111e5816116f1565b82525050565b60006111f68261166d565b6112008185611690565b935061120b8361165d565b8060005b8381101561123c57815161122388826111b5565b975061122e83611683565b92505060018101905061120f565b5085935050505092915050565b61125281611703565b82525050565b600061126382611678565b61126d81856116a1565b935061127d818560208601611739565b6112868161186f565b840191505092915050565b600061129c82611678565b6112a681856116b2565b93506112b6818560208601611739565b80840191505092915050565b60006112cf6020836116a1565b91507f5468697320626f6f6b2065786973747320696e20746865206c696272617279216000830152602082019050919050565b600061130f601e836116a1565b91507f596f7520686176656e7420626f72726f776564207468617420626f6f6b2100006000830152602082019050919050565b600061134f6022836116a1565b91507f596f7527766520616c726561647920626f72726f776564207468617420626f6f60008301527f6b210000000000000000000000000000000000000000000000000000000000006020830152604082019050919050565b60006113b5601a836116a1565b91507f43757272656e742075736572206973206e6f74206f776e6572210000000000006000830152602082019050919050565b60006113f56024836116a1565b91507f5468697320626f6f6b206973206f7574206f662073746f636b2063757272656e60008301527f746c7921000000000000000000000000000000000000000000000000000000006020830152604082019050919050565b600061145b601f836116a1565b91507f426f6f6b20646f6573206e6f7420657869737420696e206c69627261727921006000830152602082019050919050565b600061149b601f836116a1565b91507f5175616e746974792063616e6e6f74206265206c657373207468616e203121006000830152602082019050919050565b6114d78161172f565b82525050565b60006114e98284611291565b915081905092915050565b600060208201905061150960008301846111dc565b92915050565b6000602082019050818103600083015261152981846111eb565b905092915050565b6000602082019050818103600083015261154a816112c2565b9050919050565b6000602082019050818103600083015261156a81611302565b9050919050565b6000602082019050818103600083015261158a81611342565b9050919050565b600060208201905081810360008301526115aa816113a8565b9050919050565b600060208201905081810360008301526115ca816113e8565b9050919050565b600060208201905081810360008301526115ea8161144e565b9050919050565b6000602082019050818103600083015261160a8161148e565b9050919050565b600060808201905061162660008301876114ce565b81810360208301526116388186611258565b905061164760408301856114ce565b6116546060830184611249565b95945050505050565b6000819050602082019050919050565b600081519050919050565b600081519050919050565b6000602082019050919050565b600082825260208201905092915050565b600082825260208201905092915050565b600081905092915050565b60006116c88261172f565b91506116d38361172f565b9250828210156116e6576116e5611811565b5b828203905092915050565b60006116fc8261170f565b9050919050565b60008115159050919050565b600073ffffffffffffffffffffffffffffffffffffffff82169050919050565b6000819050919050565b60005b8381101561175757808201518184015260208101905061173c565b83811115611766576000848401525b50505050565b60006117778261172f565b9150600082141561178b5761178a611811565b5b600182039050919050565b600060028204905060018216806117ae57607f821691505b602082108114156117c2576117c1611840565b5b50919050565b60006117d38261172f565b91507fffffffffffffffffffffffffffffffffffffffffffffffffffffffffffffffff82141561180657611805611811565b5b600182019050919050565b7f4e487b7100000000000000000000000000000000000000000000000000000000600052601160045260246000fd5b7f4e487b7100000000000000000000000000000000000000000000000000000000600052602260045260246000fd5b6000601f19601f8301169050919050565b6118898161172f565b811461189457600080fd5b5056fea2646970667358221220d9b643fe4ed3ec4fff654f848818245a2fa6d4a01ff0e62c36332bf68590eabc64736f6c63430008000033",
					"opcodes": "PUSH1 0x80 PUSH1 0x40 MSTORE CALLVALUE DUP1 ISZERO PUSH2 0x10 JUMPI PUSH1 0x0 DUP1 REVERT JUMPDEST POP CALLER PUSH1 0x0 DUP1 PUSH2 0x100 EXP DUP2 SLOAD DUP2 PUSH20 0xFFFFFFFFFFFFFFFFFFFFFFFFFFFFFFFFFFFFFFFF MUL NOT AND SWAP1 DUP4 PUSH20 0xFFFFFFFFFFFFFFFFFFFFFFFFFFFFFFFFFFFFFFFF AND MUL OR SWAP1 SSTORE POP PUSH2 0x18CD DUP1 PUSH2 0x60 PUSH1 0x0 CODECOPY PUSH1 0x0 RETURN INVALID PUSH1 0x80 PUSH1 0x40 MSTORE CALLVALUE DUP1 ISZERO PUSH2 0x10 JUMPI PUSH1 0x0 DUP1 REVERT JUMPDEST POP PUSH1 0x4 CALLDATASIZE LT PUSH2 0x62 JUMPI PUSH1 0x0 CALLDATALOAD PUSH1 0xE0 SHR DUP1 PUSH4 0x265BE2E2 EQ PUSH2 0x67 JUMPI DUP1 PUSH4 0x27E4671C EQ PUSH2 0x83 JUMPI DUP1 PUSH4 0x8DA5CB5B EQ PUSH2 0xB6 JUMPI DUP1 PUSH4 0x9649FAA3 EQ PUSH2 0xD4 JUMPI DUP1 PUSH4 0xB8DD17DB EQ PUSH2 0xF0 JUMPI DUP1 PUSH4 0xE7E58EE9 EQ PUSH2 0x10C JUMPI JUMPDEST PUSH1 0x0 DUP1 REVERT JUMPDEST PUSH2 0x81 PUSH1 0x4 DUP1 CALLDATASIZE SUB DUP2 ADD SWAP1 PUSH2 0x7C SWAP2 SWAP1 PUSH2 0x1134 JUMP JUMPDEST PUSH2 0x13C JUMP JUMPDEST STOP JUMPDEST PUSH2 0x9D PUSH1 0x4 DUP1 CALLDATASIZE SUB DUP2 ADD SWAP1 PUSH2 0x98 SWAP2 SWAP1 PUSH2 0x118C JUMP JUMPDEST PUSH2 0x408 JUMP JUMPDEST PUSH1 0x40 MLOAD PUSH2 0xAD SWAP5 SWAP4 SWAP3 SWAP2 SWAP1 PUSH2 0x1611 JUMP JUMPDEST PUSH1 0x40 MLOAD DUP1 SWAP2 SUB SWAP1 RETURN JUMPDEST PUSH2 0xBE PUSH2 0x4DD JUMP JUMPDEST PUSH1 0x40 MLOAD PUSH2 0xCB SWAP2 SWAP1 PUSH2 0x14F4 JUMP JUMPDEST PUSH1 0x40 MLOAD DUP1 SWAP2 SUB SWAP1 RETURN JUMPDEST PUSH2 0xEE PUSH1 0x4 DUP1 CALLDATASIZE SUB DUP2 ADD SWAP1 PUSH2 0xE9 SWAP2 SWAP1 PUSH2 0x118C JUMP JUMPDEST PUSH2 0x501 JUMP JUMPDEST STOP JUMPDEST PUSH2 0x10A PUSH1 0x4 DUP1 CALLDATASIZE SUB DUP2 ADD SWAP1 PUSH2 0x105 SWAP2 SWAP1 PUSH2 0x118C JUMP JUMPDEST PUSH2 0x8A7 JUMP JUMPDEST STOP JUMPDEST PUSH2 0x126 PUSH1 0x4 DUP1 CALLDATASIZE SUB DUP2 ADD SWAP1 PUSH2 0x121 SWAP2 SWAP1 PUSH2 0x118C JUMP JUMPDEST PUSH2 0xABA JUMP JUMPDEST PUSH1 0x40 MLOAD PUSH2 0x133 SWAP2 SWAP1 PUSH2 0x150F JUMP JUMPDEST PUSH1 0x40 MLOAD DUP1 SWAP2 SUB SWAP1 RETURN JUMPDEST PUSH1 0x0 DUP1 SLOAD SWAP1 PUSH2 0x100 EXP SWAP1 DIV PUSH20 0xFFFFFFFFFFFFFFFFFFFFFFFFFFFFFFFFFFFFFFFF AND PUSH20 0xFFFFFFFFFFFFFFFFFFFFFFFFFFFFFFFFFFFFFFFF AND CALLER PUSH20 0xFFFFFFFFFFFFFFFFFFFFFFFFFFFFFFFFFFFFFFFF AND EQ PUSH2 0x1CA JUMPI PUSH1 0x40 MLOAD PUSH32 0x8C379A000000000000000000000000000000000000000000000000000000000 DUP2 MSTORE PUSH1 0x4 ADD PUSH2 0x1C1 SWAP1 PUSH2 0x1591 JUMP JUMPDEST PUSH1 0x40 MLOAD DUP1 SWAP2 SUB SWAP1 REVERT JUMPDEST PUSH2 0x1D4 DUP4 DUP4 PUSH2 0xBC0 JUMP JUMPDEST DUP1 PUSH2 0x201 JUMPI POP PUSH1 0x3 PUSH1 0x0 PUSH1 0x1 SLOAD DUP2 MSTORE PUSH1 0x20 ADD SWAP1 DUP2 MSTORE PUSH1 0x20 ADD PUSH1 0x0 KECCAK256 PUSH1 0x3 ADD PUSH1 0x0 SWAP1 SLOAD SWAP1 PUSH2 0x100 EXP SWAP1 DIV PUSH1 0xFF AND JUMPDEST ISZERO PUSH2 0x241 JUMPI PUSH1 0x40 MLOAD PUSH32 0x8C379A000000000000000000000000000000000000000000000000000000000 DUP2 MSTORE PUSH1 0x4 ADD PUSH2 0x238 SWAP1 PUSH2 0x1531 JUMP JUMPDEST PUSH1 0x40 MLOAD DUP1 SWAP2 SUB SWAP1 REVERT JUMPDEST PUSH1 0x1 DUP2 LT ISZERO PUSH2 0x285 JUMPI PUSH1 0x40 MLOAD PUSH32 0x8C379A000000000000000000000000000000000000000000000000000000000 DUP2 MSTORE PUSH1 0x4 ADD PUSH2 0x27C SWAP1 PUSH2 0x15F1 JUMP JUMPDEST PUSH1 0x40 MLOAD DUP1 SWAP2 SUB SWAP1 REVERT JUMPDEST PUSH2 0x28D PUSH2 0x1008 JUMP JUMPDEST PUSH1 0x1 SLOAD DUP2 PUSH1 0x0 ADD DUP2 DUP2 MSTORE POP POP DUP4 DUP4 DUP1 DUP1 PUSH1 0x1F ADD PUSH1 0x20 DUP1 SWAP2 DIV MUL PUSH1 0x20 ADD PUSH1 0x40 MLOAD SWAP1 DUP2 ADD PUSH1 0x40 MSTORE DUP1 SWAP4 SWAP3 SWAP2 SWAP1 DUP2 DUP2 MSTORE PUSH1 0x20 ADD DUP4 DUP4 DUP1 DUP3 DUP5 CALLDATACOPY PUSH1 0x0 DUP2 DUP5 ADD MSTORE PUSH1 0x1F NOT PUSH1 0x1F DUP3 ADD AND SWAP1 POP DUP1 DUP4 ADD SWAP3 POP POP POP POP POP POP POP DUP2 PUSH1 0x20 ADD DUP2 SWAP1 MSTORE POP DUP2 DUP2 PUSH1 0x40 ADD DUP2 DUP2 MSTORE POP POP PUSH1 0x1 DUP2 PUSH1 0x60 ADD SWAP1 ISZERO ISZERO SWAP1 DUP2 ISZERO ISZERO DUP2 MSTORE POP POP DUP1 PUSH1 0x3 PUSH1 0x0 PUSH1 0x1 SLOAD DUP2 MSTORE PUSH1 0x20 ADD SWAP1 DUP2 MSTORE PUSH1 0x20 ADD PUSH1 0x0 KECCAK256 PUSH1 0x0 DUP3 ADD MLOAD DUP2 PUSH1 0x0 ADD SSTORE PUSH1 0x20 DUP3 ADD MLOAD DUP2 PUSH1 0x1 ADD SWAP1 DUP1 MLOAD SWAP1 PUSH1 0x20 ADD SWAP1 PUSH2 0x33D SWAP3 SWAP2 SWAP1 PUSH2 0x1032 JUMP JUMPDEST POP PUSH1 0x40 DUP3 ADD MLOAD DUP2 PUSH1 0x2 ADD SSTORE PUSH1 0x60 DUP3 ADD MLOAD DUP2 PUSH1 0x3 ADD PUSH1 0x0 PUSH2 0x100 EXP DUP2 SLOAD DUP2 PUSH1 0xFF MUL NOT AND SWAP1 DUP4 ISZERO ISZERO MUL OR SWAP1 SSTORE POP SWAP1 POP POP PUSH1 0x2 DUP2 SWAP1 DUP1 PUSH1 0x1 DUP2 SLOAD ADD DUP1 DUP3 SSTORE DUP1 SWAP2 POP POP PUSH1 0x1 SWAP1 SUB SWAP1 PUSH1 0x0 MSTORE PUSH1 0x20 PUSH1 0x0 KECCAK256 SWAP1 PUSH1 0x4 MUL ADD PUSH1 0x0 SWAP1 SWAP2 SWAP1 SWAP2 SWAP1 SWAP2 POP PUSH1 0x0 DUP3 ADD MLOAD DUP2 PUSH1 0x0 ADD SSTORE PUSH1 0x20 DUP3 ADD MLOAD DUP2 PUSH1 0x1 ADD SWAP1 DUP1 MLOAD SWAP1 PUSH1 0x20 ADD SWAP1 PUSH2 0x3BD SWAP3 SWAP2 SWAP1 PUSH2 0x1032 JUMP JUMPDEST POP PUSH1 0x40 DUP3 ADD MLOAD DUP2 PUSH1 0x2 ADD SSTORE PUSH1 0x60 DUP3 ADD MLOAD DUP2 PUSH1 0x3 ADD PUSH1 0x0 PUSH2 0x100 EXP DUP2 SLOAD DUP2 PUSH1 0xFF MUL NOT AND SWAP1 DUP4 ISZERO ISZERO MUL OR SWAP1 SSTORE POP POP POP PUSH1 0x1 PUSH1 0x0 DUP2 SLOAD DUP1 SWAP3 SWAP2 SWAP1 PUSH2 0x3FD SWAP1 PUSH2 0x17C8 JUMP JUMPDEST SWAP2 SWAP1 POP SSTORE POP POP POP POP POP JUMP JUMPDEST PUSH1 0x2 DUP2 DUP2 SLOAD DUP2 LT PUSH2 0x418 JUMPI PUSH1 0x0 DUP1 REVERT JUMPDEST SWAP1 PUSH1 0x0 MSTORE PUSH1 0x20 PUSH1 0x0 KECCAK256 SWAP1 PUSH1 0x4 MUL ADD PUSH1 0x0 SWAP2 POP SWAP1 POP DUP1 PUSH1 0x0 ADD SLOAD SWAP1 DUP1 PUSH1 0x1 ADD DUP1 SLOAD PUSH2 0x441 SWAP1 PUSH2 0x1796 JUMP JUMPDEST DUP1 PUSH1 0x1F ADD PUSH1 0x20 DUP1 SWAP2 DIV MUL PUSH1 0x20 ADD PUSH1 0x40 MLOAD SWAP1 DUP2 ADD PUSH1 0x40 MSTORE DUP1 SWAP3 SWAP2 SWAP1 DUP2 DUP2 MSTORE PUSH1 0x20 ADD DUP3 DUP1 SLOAD PUSH2 0x46D SWAP1 PUSH2 0x1796 JUMP JUMPDEST DUP1 ISZERO PUSH2 0x4BA JUMPI DUP1 PUSH1 0x1F LT PUSH2 0x48F JUMPI PUSH2 0x100 DUP1 DUP4 SLOAD DIV MUL DUP4 MSTORE SWAP2 PUSH1 0x20 ADD SWAP2 PUSH2 0x4BA JUMP JUMPDEST DUP3 ADD SWAP2 SWAP1 PUSH1 0x0 MSTORE PUSH1 0x20 PUSH1 0x0 KECCAK256 SWAP1 JUMPDEST DUP2 SLOAD DUP2 MSTORE SWAP1 PUSH1 0x1 ADD SWAP1 PUSH1 0x20 ADD DUP1 DUP4 GT PUSH2 0x49D JUMPI DUP3 SWAP1 SUB PUSH1 0x1F AND DUP3 ADD SWAP2 JUMPDEST POP POP POP POP POP SWAP1 DUP1 PUSH1 0x2 ADD SLOAD SWAP1 DUP1 PUSH1 0x3 ADD PUSH1 0x0 SWAP1 SLOAD SWAP1 PUSH2 0x100 EXP SWAP1 DIV PUSH1 0xFF AND SWAP1 POP DUP5 JUMP JUMPDEST PUSH1 0x0 DUP1 SLOAD SWAP1 PUSH2 0x100 EXP SWAP1 DIV PUSH20 0xFFFFFFFFFFFFFFFFFFFFFFFFFFFFFFFFFFFFFFFF AND DUP2 JUMP JUMPDEST DUP1 PUSH1 0x3 PUSH1 0x0 DUP3 DUP2 MSTORE PUSH1 0x20 ADD SWAP1 DUP2 MSTORE PUSH1 0x20 ADD PUSH1 0x0 KECCAK256 PUSH1 0x3 ADD PUSH1 0x0 SWAP1 SLOAD SWAP1 PUSH2 0x100 EXP SWAP1 DIV PUSH1 0xFF AND PUSH2 0x565 JUMPI PUSH1 0x40 MLOAD PUSH32 0x8C379A000000000000000000000000000000000000000000000000000000000 DUP2 MSTORE PUSH1 0x4 ADD PUSH2 0x55C SWAP1 PUSH2 0x15D1 JUMP JUMPDEST PUSH1 0x40 MLOAD DUP1 SWAP2 SUB SWAP1 REVERT JUMPDEST PUSH1 0x0 PUSH1 0x3 PUSH1 0x0 DUP5 DUP2 MSTORE PUSH1 0x20 ADD SWAP1 DUP2 MSTORE PUSH1 0x20 ADD PUSH1 0x0 KECCAK256 PUSH1 0x2 ADD SLOAD EQ ISZERO PUSH2 0x5BF JUMPI PUSH1 0x40 MLOAD PUSH32 0x8C379A000000000000000000000000000000000000000000000000000000000 DUP2 MSTORE PUSH1 0x4 ADD PUSH2 0x5B6 SWAP1 PUSH2 0x15B1 JUMP JUMPDEST PUSH1 0x40 MLOAD DUP1 SWAP2 SUB SWAP1 REVERT JUMPDEST PUSH2 0x656 DUP3 PUSH1 0x5 PUSH1 0x0 CALLER PUSH20 0xFFFFFFFFFFFFFFFFFFFFFFFFFFFFFFFFFFFFFFFF AND PUSH20 0xFFFFFFFFFFFFFFFFFFFFFFFFFFFFFFFFFFFFFFFF AND DUP2 MSTORE PUSH1 0x20 ADD SWAP1 DUP2 MSTORE PUSH1 0x20 ADD PUSH1 0x0 KECCAK256 DUP1 SLOAD DUP1 PUSH1 0x20 MUL PUSH1 0x20 ADD PUSH1 0x40 MLOAD SWAP1 DUP2 ADD PUSH1 0x40 MSTORE DUP1 SWAP3 SWAP2 SWAP1 DUP2 DUP2 MSTORE PUSH1 0x20 ADD DUP3 DUP1 SLOAD DUP1 ISZERO PUSH2 0x64C JUMPI PUSH1 0x20 MUL DUP3 ADD SWAP2 SWAP1 PUSH1 0x0 MSTORE PUSH1 0x20 PUSH1 0x0 KECCAK256 SWAP1 JUMPDEST DUP2 SLOAD DUP2 MSTORE PUSH1 0x20 ADD SWAP1 PUSH1 0x1 ADD SWAP1 DUP1 DUP4 GT PUSH2 0x638 JUMPI JUMPDEST POP POP POP POP POP PUSH2 0xD24 JUMP JUMPDEST ISZERO PUSH2 0x696 JUMPI PUSH1 0x40 MLOAD PUSH32 0x8C379A000000000000000000000000000000000000000000000000000000000 DUP2 MSTORE PUSH1 0x4 ADD PUSH2 0x68D SWAP1 PUSH2 0x1571 JUMP JUMPDEST PUSH1 0x40 MLOAD DUP1 SWAP2 SUB SWAP1 REVERT JUMPDEST PUSH1 0x5 PUSH1 0x0 CALLER PUSH20 0xFFFFFFFFFFFFFFFFFFFFFFFFFFFFFFFFFFFFFFFF AND PUSH20 0xFFFFFFFFFFFFFFFFFFFFFFFFFFFFFFFFFFFFFFFF AND DUP2 MSTORE PUSH1 0x20 ADD SWAP1 DUP2 MSTORE PUSH1 0x20 ADD PUSH1 0x0 KECCAK256 DUP3 SWAP1 DUP1 PUSH1 0x1 DUP2 SLOAD ADD DUP1 DUP3 SSTORE DUP1 SWAP2 POP POP PUSH1 0x1 SWAP1 SUB SWAP1 PUSH1 0x0 MSTORE PUSH1 0x20 PUSH1 0x0 KECCAK256 ADD PUSH1 0x0 SWAP1 SWAP2 SWAP1 SWAP2 SWAP1 SWAP2 POP SSTORE PUSH2 0x79D CALLER PUSH1 0x4 PUSH1 0x0 DUP6 DUP2 MSTORE PUSH1 0x20 ADD SWAP1 DUP2 MSTORE PUSH1 0x20 ADD PUSH1 0x0 KECCAK256 DUP1 SLOAD DUP1 PUSH1 0x20 MUL PUSH1 0x20 ADD PUSH1 0x40 MLOAD SWAP1 DUP2 ADD PUSH1 0x40 MSTORE DUP1 SWAP3 SWAP2 SWAP1 DUP2 DUP2 MSTORE PUSH1 0x20 ADD DUP3 DUP1 SLOAD DUP1 ISZERO PUSH2 0x793 JUMPI PUSH1 0x20 MUL DUP3 ADD SWAP2 SWAP1 PUSH1 0x0 MSTORE PUSH1 0x20 PUSH1 0x0 KECCAK256 SWAP1 JUMPDEST DUP2 PUSH1 0x0 SWAP1 SLOAD SWAP1 PUSH2 0x100 EXP SWAP1 DIV PUSH20 0xFFFFFFFFFFFFFFFFFFFFFFFFFFFFFFFFFFFFFFFF AND PUSH20 0xFFFFFFFFFFFFFFFFFFFFFFFFFFFFFFFFFFFFFFFF AND DUP2 MSTORE PUSH1 0x20 ADD SWAP1 PUSH1 0x1 ADD SWAP1 DUP1 DUP4 GT PUSH2 0x749 JUMPI JUMPDEST POP POP POP POP POP PUSH2 0xDA6 JUMP JUMPDEST PUSH2 0x816 JUMPI PUSH1 0x4 PUSH1 0x0 DUP4 DUP2 MSTORE PUSH1 0x20 ADD SWAP1 DUP2 MSTORE PUSH1 0x20 ADD PUSH1 0x0 KECCAK256 CALLER SWAP1 DUP1 PUSH1 0x1 DUP2 SLOAD ADD DUP1 DUP3 SSTORE DUP1 SWAP2 POP POP PUSH1 0x1 SWAP1 SUB SWAP1 PUSH1 0x0 MSTORE PUSH1 0x20 PUSH1 0x0 KECCAK256 ADD PUSH1 0x0 SWAP1 SWAP2 SWAP1 SWAP2 SWAP1 SWAP2 PUSH2 0x100 EXP DUP2 SLOAD DUP2 PUSH20 0xFFFFFFFFFFFFFFFFFFFFFFFFFFFFFFFFFFFFFFFF MUL NOT AND SWAP1 DUP4 PUSH20 0xFFFFFFFFFFFFFFFFFFFFFFFFFFFFFFFFFFFFFFFF AND MUL OR SWAP1 SSTORE POP JUMPDEST PUSH1 0x3 PUSH1 0x0 DUP4 DUP2 MSTORE PUSH1 0x20 ADD SWAP1 DUP2 MSTORE PUSH1 0x20 ADD PUSH1 0x0 KECCAK256 PUSH1 0x2 ADD PUSH1 0x0 DUP2 SLOAD DUP1 SWAP3 SWAP2 SWAP1 PUSH2 0x83D SWAP1 PUSH2 0x176C JUMP JUMPDEST SWAP2 SWAP1 POP SSTORE POP PUSH1 0x2 DUP3 DUP2 SLOAD DUP2 LT PUSH2 0x87C JUMPI PUSH32 0x4E487B7100000000000000000000000000000000000000000000000000000000 PUSH1 0x0 MSTORE PUSH1 0x32 PUSH1 0x4 MSTORE PUSH1 0x24 PUSH1 0x0 REVERT JUMPDEST SWAP1 PUSH1 0x0 MSTORE PUSH1 0x20 PUSH1 0x0 KECCAK256 SWAP1 PUSH1 0x4 MUL ADD PUSH1 0x2 ADD PUSH1 0x0 DUP2 SLOAD DUP1 SWAP3 SWAP2 SWAP1 PUSH2 0x89E SWAP1 PUSH2 0x176C JUMP JUMPDEST SWAP2 SWAP1 POP SSTORE POP POP POP JUMP JUMPDEST DUP1 PUSH1 0x3 PUSH1 0x0 DUP3 DUP2 MSTORE PUSH1 0x20 ADD SWAP1 DUP2 MSTORE PUSH1 0x20 ADD PUSH1 0x0 KECCAK256 PUSH1 0x3 ADD PUSH1 0x0 SWAP1 SLOAD SWAP1 PUSH2 0x100 EXP SWAP1 DIV PUSH1 0xFF AND PUSH2 0x90B JUMPI PUSH1 0x40 MLOAD PUSH32 0x8C379A000000000000000000000000000000000000000000000000000000000 DUP2 MSTORE PUSH1 0x4 ADD PUSH2 0x902 SWAP1 PUSH2 0x15D1 JUMP JUMPDEST PUSH1 0x40 MLOAD DUP1 SWAP2 SUB SWAP1 REVERT JUMPDEST PUSH2 0x9A2 DUP3 PUSH1 0x5 PUSH1 0x0 CALLER PUSH20 0xFFFFFFFFFFFFFFFFFFFFFFFFFFFFFFFFFFFFFFFF AND PUSH20 0xFFFFFFFFFFFFFFFFFFFFFFFFFFFFFFFFFFFFFFFF AND DUP2 MSTORE PUSH1 0x20 ADD SWAP1 DUP2 MSTORE PUSH1 0x20 ADD PUSH1 0x0 KECCAK256 DUP1 SLOAD DUP1 PUSH1 0x20 MUL PUSH1 0x20 ADD PUSH1 0x40 MLOAD SWAP1 DUP2 ADD PUSH1 0x40 MSTORE DUP1 SWAP3 SWAP2 SWAP1 DUP2 DUP2 MSTORE PUSH1 0x20 ADD DUP3 DUP1 SLOAD DUP1 ISZERO PUSH2 0x998 JUMPI PUSH1 0x20 MUL DUP3 ADD SWAP2 SWAP1 PUSH1 0x0 MSTORE PUSH1 0x20 PUSH1 0x0 KECCAK256 SWAP1 JUMPDEST DUP2 SLOAD DUP2 MSTORE PUSH1 0x20 ADD SWAP1 PUSH1 0x1 ADD SWAP1 DUP1 DUP4 GT PUSH2 0x984 JUMPI JUMPDEST POP POP POP POP POP PUSH2 0xD24 JUMP JUMPDEST PUSH2 0x9E1 JUMPI PUSH1 0x40 MLOAD PUSH32 0x8C379A000000000000000000000000000000000000000000000000000000000 DUP2 MSTORE PUSH1 0x4 ADD PUSH2 0x9D8 SWAP1 PUSH2 0x1551 JUMP JUMPDEST PUSH1 0x40 MLOAD DUP1 SWAP2 SUB SWAP1 REVERT JUMPDEST PUSH2 0xA29 PUSH1 0x5 PUSH1 0x0 CALLER PUSH20 0xFFFFFFFFFFFFFFFFFFFFFFFFFFFFFFFFFFFFFFFF AND PUSH20 0xFFFFFFFFFFFFFFFFFFFFFFFFFFFFFFFFFFFFFFFF AND DUP2 MSTORE PUSH1 0x20 ADD SWAP1 DUP2 MSTORE PUSH1 0x20 ADD PUSH1 0x0 KECCAK256 DUP4 PUSH2 0xE54 JUMP JUMPDEST PUSH1 0x3 PUSH1 0x0 DUP4 DUP2 MSTORE PUSH1 0x20 ADD SWAP1 DUP2 MSTORE PUSH1 0x20 ADD PUSH1 0x0 KECCAK256 PUSH1 0x2 ADD PUSH1 0x0 DUP2 SLOAD DUP1 SWAP3 SWAP2 SWAP1 PUSH2 0xA50 SWAP1 PUSH2 0x17C8 JUMP JUMPDEST SWAP2 SWAP1 POP SSTORE POP PUSH1 0x2 DUP3 DUP2 SLOAD DUP2 LT PUSH2 0xA8F JUMPI PUSH32 0x4E487B7100000000000000000000000000000000000000000000000000000000 PUSH1 0x0 MSTORE PUSH1 0x32 PUSH1 0x4 MSTORE PUSH1 0x24 PUSH1 0x0 REVERT JUMPDEST SWAP1 PUSH1 0x0 MSTORE PUSH1 0x20 PUSH1 0x0 KECCAK256 SWAP1 PUSH1 0x4 MUL ADD PUSH1 0x2 ADD PUSH1 0x0 DUP2 SLOAD DUP1 SWAP3 SWAP2 SWAP1 PUSH2 0xAB1 SWAP1 PUSH2 0x17C8 JUMP JUMPDEST SWAP2 SWAP1 POP SSTORE POP POP POP JUMP JUMPDEST PUSH1 0x60 DUP2 PUSH1 0x3 PUSH1 0x0 DUP3 DUP2 MSTORE PUSH1 0x20 ADD SWAP1 DUP2 MSTORE PUSH1 0x20 ADD PUSH1 0x0 KECCAK256 PUSH1 0x3 ADD PUSH1 0x0 SWAP1 SLOAD SWAP1 PUSH2 0x100 EXP SWAP1 DIV PUSH1 0xFF AND PUSH2 0xB20 JUMPI PUSH1 0x40 MLOAD PUSH32 0x8C379A000000000000000000000000000000000000000000000000000000000 DUP2 MSTORE PUSH1 0x4 ADD PUSH2 0xB17 SWAP1 PUSH2 0x15D1 JUMP JUMPDEST PUSH1 0x40 MLOAD DUP1 SWAP2 SUB SWAP1 REVERT JUMPDEST PUSH1 0x4 PUSH1 0x0 DUP5 DUP2 MSTORE PUSH1 0x20 ADD SWAP1 DUP2 MSTORE PUSH1 0x20 ADD PUSH1 0x0 KECCAK256 DUP1 SLOAD DUP1 PUSH1 0x20 MUL PUSH1 0x20 ADD PUSH1 0x40 MLOAD SWAP1 DUP2 ADD PUSH1 0x40 MSTORE DUP1 SWAP3 SWAP2 SWAP1 DUP2 DUP2 MSTORE PUSH1 0x20 ADD DUP3 DUP1 SLOAD DUP1 ISZERO PUSH2 0xBB3 JUMPI PUSH1 0x20 MUL DUP3 ADD SWAP2 SWAP1 PUSH1 0x0 MSTORE PUSH1 0x20 PUSH1 0x0 KECCAK256 SWAP1 JUMPDEST DUP2 PUSH1 0x0 SWAP1 SLOAD SWAP1 PUSH2 0x100 EXP SWAP1 DIV PUSH20 0xFFFFFFFFFFFFFFFFFFFFFFFFFFFFFFFFFFFFFFFF AND PUSH20 0xFFFFFFFFFFFFFFFFFFFFFFFFFFFFFFFFFFFFFFFF AND DUP2 MSTORE PUSH1 0x20 ADD SWAP1 PUSH1 0x1 ADD SWAP1 DUP1 DUP4 GT PUSH2 0xB69 JUMPI JUMPDEST POP POP POP POP POP SWAP2 POP POP SWAP2 SWAP1 POP JUMP JUMPDEST PUSH1 0x0 DUP1 PUSH1 0x0 SWAP1 POP JUMPDEST PUSH1 0x2 DUP1 SLOAD SWAP1 POP DUP2 LT ISZERO PUSH2 0xD18 JUMPI PUSH2 0xCF6 PUSH1 0x2 DUP3 DUP2 SLOAD DUP2 LT PUSH2 0xC12 JUMPI PUSH32 0x4E487B7100000000000000000000000000000000000000000000000000000000 PUSH1 0x0 MSTORE PUSH1 0x32 PUSH1 0x4 MSTORE PUSH1 0x24 PUSH1 0x0 REVERT JUMPDEST SWAP1 PUSH1 0x0 MSTORE PUSH1 0x20 PUSH1 0x0 KECCAK256 SWAP1 PUSH1 0x4 MUL ADD PUSH1 0x1 ADD DUP1 SLOAD PUSH2 0xC2E SWAP1 PUSH2 0x1796 JUMP JUMPDEST DUP1 PUSH1 0x1F ADD PUSH1 0x20 DUP1 SWAP2 DIV MUL PUSH1 0x20 ADD PUSH1 0x40 MLOAD SWAP1 DUP2 ADD PUSH1 0x40 MSTORE DUP1 SWAP3 SWAP2 SWAP1 DUP2 DUP2 MSTORE PUSH1 0x20 ADD DUP3 DUP1 SLOAD PUSH2 0xC5A SWAP1 PUSH2 0x1796 JUMP JUMPDEST DUP1 ISZERO PUSH2 0xCA7 JUMPI DUP1 PUSH1 0x1F LT PUSH2 0xC7C JUMPI PUSH2 0x100 DUP1 DUP4 SLOAD DIV MUL DUP4 MSTORE SWAP2 PUSH1 0x20 ADD SWAP2 PUSH2 0xCA7 JUMP JUMPDEST DUP3 ADD SWAP2 SWAP1 PUSH1 0x0 MSTORE PUSH1 0x20 PUSH1 0x0 KECCAK256 SWAP1 JUMPDEST DUP2 SLOAD DUP2 MSTORE SWAP1 PUSH1 0x1 ADD SWAP1 PUSH1 0x20 ADD DUP1 DUP4 GT PUSH2 0xC8A JUMPI DUP3 SWAP1 SUB PUSH1 0x1F AND DUP3 ADD SWAP2 JUMPDEST POP POP POP POP POP DUP6 DUP6 DUP1 DUP1 PUSH1 0x1F ADD PUSH1 0x20 DUP1 SWAP2 DIV MUL PUSH1 0x20 ADD PUSH1 0x40 MLOAD SWAP1 DUP2 ADD PUSH1 0x40 MSTORE DUP1 SWAP4 SWAP3 SWAP2 SWAP1 DUP2 DUP2 MSTORE PUSH1 0x20 ADD DUP4 DUP4 DUP1 DUP3 DUP5 CALLDATACOPY PUSH1 0x0 DUP2 DUP5 ADD MSTORE PUSH1 0x1F NOT PUSH1 0x1F DUP3 ADD AND SWAP1 POP DUP1 DUP4 ADD SWAP3 POP POP POP POP POP POP POP PUSH2 0xFAF JUMP JUMPDEST ISZERO PUSH2 0xD05 JUMPI PUSH1 0x1 SWAP2 POP POP PUSH2 0xD1E JUMP JUMPDEST DUP1 DUP1 PUSH2 0xD10 SWAP1 PUSH2 0x17C8 JUMP JUMPDEST SWAP2 POP POP PUSH2 0xBC8 JUMP JUMPDEST POP PUSH1 0x0 SWAP1 POP JUMPDEST SWAP3 SWAP2 POP POP JUMP JUMPDEST PUSH1 0x0 DUP1 PUSH1 0x0 SWAP1 POP JUMPDEST DUP3 MLOAD DUP2 LT ISZERO PUSH2 0xD9A JUMPI DUP3 DUP2 DUP2 MLOAD DUP2 LT PUSH2 0xD6E JUMPI PUSH32 0x4E487B7100000000000000000000000000000000000000000000000000000000 PUSH1 0x0 MSTORE PUSH1 0x32 PUSH1 0x4 MSTORE PUSH1 0x24 PUSH1 0x0 REVERT JUMPDEST PUSH1 0x20 MUL PUSH1 0x20 ADD ADD MLOAD DUP5 EQ ISZERO PUSH2 0xD87 JUMPI PUSH1 0x1 SWAP2 POP POP PUSH2 0xDA0 JUMP JUMPDEST DUP1 DUP1 PUSH2 0xD92 SWAP1 PUSH2 0x17C8 JUMP JUMPDEST SWAP2 POP POP PUSH2 0xD2C JUMP JUMPDEST POP PUSH1 0x0 SWAP1 POP JUMPDEST SWAP3 SWAP2 POP POP JUMP JUMPDEST PUSH1 0x0 DUP1 PUSH1 0x0 SWAP1 POP JUMPDEST DUP3 MLOAD DUP2 LT ISZERO PUSH2 0xE48 JUMPI DUP3 DUP2 DUP2 MLOAD DUP2 LT PUSH2 0xDF0 JUMPI PUSH32 0x4E487B7100000000000000000000000000000000000000000000000000000000 PUSH1 0x0 MSTORE PUSH1 0x32 PUSH1 0x4 MSTORE PUSH1 0x24 PUSH1 0x0 REVERT JUMPDEST PUSH1 0x20 MUL PUSH1 0x20 ADD ADD MLOAD PUSH20 0xFFFFFFFFFFFFFFFFFFFFFFFFFFFFFFFFFFFFFFFF AND DUP5 PUSH20 0xFFFFFFFFFFFFFFFFFFFFFFFFFFFFFFFFFFFFFFFF AND EQ ISZERO PUSH2 0xE35 JUMPI PUSH1 0x1 SWAP2 POP POP PUSH2 0xE4E JUMP JUMPDEST DUP1 DUP1 PUSH2 0xE40 SWAP1 PUSH2 0x17C8 JUMP JUMPDEST SWAP2 POP POP PUSH2 0xDAE JUMP JUMPDEST POP PUSH1 0x0 SWAP1 POP JUMPDEST SWAP3 SWAP2 POP POP JUMP JUMPDEST PUSH1 0x0 JUMPDEST DUP3 DUP1 SLOAD SWAP1 POP DUP2 LT ISZERO PUSH2 0xFAA JUMPI DUP3 DUP2 DUP2 SLOAD DUP2 LT PUSH2 0xE9C JUMPI PUSH32 0x4E487B7100000000000000000000000000000000000000000000000000000000 PUSH1 0x0 MSTORE PUSH1 0x32 PUSH1 0x4 MSTORE PUSH1 0x24 PUSH1 0x0 REVERT JUMPDEST SWAP1 PUSH1 0x0 MSTORE PUSH1 0x20 PUSH1 0x0 KECCAK256 ADD SLOAD DUP3 EQ ISZERO PUSH2 0xF97 JUMPI DUP3 PUSH1 0x1 DUP5 DUP1 SLOAD SWAP1 POP PUSH2 0xEC0 SWAP2 SWAP1 PUSH2 0x16BD JUMP JUMPDEST DUP2 SLOAD DUP2 LT PUSH2 0xEF7 JUMPI PUSH32 0x4E487B7100000000000000000000000000000000000000000000000000000000 PUSH1 0x0 MSTORE PUSH1 0x32 PUSH1 0x4 MSTORE PUSH1 0x24 PUSH1 0x0 REVERT JUMPDEST SWAP1 PUSH1 0x0 MSTORE PUSH1 0x20 PUSH1 0x0 KECCAK256 ADD SLOAD DUP4 DUP3 DUP2 SLOAD DUP2 LT PUSH2 0xF3B JUMPI PUSH32 0x4E487B7100000000000000000000000000000000000000000000000000000000 PUSH1 0x0 MSTORE PUSH1 0x32 PUSH1 0x4 MSTORE PUSH1 0x24 PUSH1 0x0 REVERT JUMPDEST SWAP1 PUSH1 0x0 MSTORE PUSH1 0x20 PUSH1 0x0 KECCAK256 ADD DUP2 SWAP1 SSTORE POP DUP3 DUP1 SLOAD DUP1 PUSH2 0xF80 JUMPI PUSH32 0x4E487B7100000000000000000000000000000000000000000000000000000000 PUSH1 0x0 MSTORE PUSH1 0x31 PUSH1 0x4 MSTORE PUSH1 0x24 PUSH1 0x0 REVERT JUMPDEST PUSH1 0x1 SWAP1 SUB DUP2 DUP2 SWAP1 PUSH1 0x0 MSTORE PUSH1 0x20 PUSH1 0x0 KECCAK256 ADD PUSH1 0x0 SWAP1 SSTORE SWAP1 SSTORE JUMPDEST DUP1 DUP1 PUSH2 0xFA2 SWAP1 PUSH2 0x17C8 JUMP JUMPDEST SWAP2 POP POP PUSH2 0xE57 JUMP JUMPDEST POP POP POP JUMP JUMPDEST PUSH1 0x0 DUP2 PUSH1 0x40 MLOAD PUSH1 0x20 ADD PUSH2 0xFC2 SWAP2 SWAP1 PUSH2 0x14DD JUMP JUMPDEST PUSH1 0x40 MLOAD PUSH1 0x20 DUP2 DUP4 SUB SUB DUP2 MSTORE SWAP1 PUSH1 0x40 MSTORE DUP1 MLOAD SWAP1 PUSH1 0x20 ADD KECCAK256 DUP4 PUSH1 0x40 MLOAD PUSH1 0x20 ADD PUSH2 0xFE9 SWAP2 SWAP1 PUSH2 0x14DD JUMP JUMPDEST PUSH1 0x40 MLOAD PUSH1 0x20 DUP2 DUP4 SUB SUB DUP2 MSTORE SWAP1 PUSH1 0x40 MSTORE DUP1 MLOAD SWAP1 PUSH1 0x20 ADD KECCAK256 EQ SWAP1 POP SWAP3 SWAP2 POP POP JUMP JUMPDEST PUSH1 0x40 MLOAD DUP1 PUSH1 0x80 ADD PUSH1 0x40 MSTORE DUP1 PUSH1 0x0 DUP2 MSTORE PUSH1 0x20 ADD PUSH1 0x60 DUP2 MSTORE PUSH1 0x20 ADD PUSH1 0x0 DUP2 MSTORE PUSH1 0x20 ADD PUSH1 0x0 ISZERO ISZERO DUP2 MSTORE POP SWAP1 JUMP JUMPDEST DUP3 DUP1 SLOAD PUSH2 0x103E SWAP1 PUSH2 0x1796 JUMP JUMPDEST SWAP1 PUSH1 0x0 MSTORE PUSH1 0x20 PUSH1 0x0 KECCAK256 SWAP1 PUSH1 0x1F ADD PUSH1 0x20 SWAP1 DIV DUP2 ADD SWAP3 DUP3 PUSH2 0x1060 JUMPI PUSH1 0x0 DUP6 SSTORE PUSH2 0x10A7 JUMP JUMPDEST DUP3 PUSH1 0x1F LT PUSH2 0x1079 JUMPI DUP1 MLOAD PUSH1 0xFF NOT AND DUP4 DUP1 ADD OR DUP6 SSTORE PUSH2 0x10A7 JUMP JUMPDEST DUP3 DUP1 ADD PUSH1 0x1 ADD DUP6 SSTORE DUP3 ISZERO PUSH2 0x10A7 JUMPI SWAP2 DUP3 ADD JUMPDEST DUP3 DUP2 GT ISZERO PUSH2 0x10A6 JUMPI DUP3 MLOAD DUP3 SSTORE SWAP2 PUSH1 0x20 ADD SWAP2 SWAP1 PUSH1 0x1 ADD SWAP1 PUSH2 0x108B JUMP JUMPDEST JUMPDEST POP SWAP1 POP PUSH2 0x10B4 SWAP2 SWAP1 PUSH2 0x10B8 JUMP JUMPDEST POP SWAP1 JUMP JUMPDEST JUMPDEST DUP1 DUP3 GT ISZERO PUSH2 0x10D1 JUMPI PUSH1 0x0 DUP2 PUSH1 0x0 SWAP1 SSTORE POP PUSH1 0x1 ADD PUSH2 0x10B9 JUMP JUMPDEST POP SWAP1 JUMP JUMPDEST PUSH1 0x0 DUP1 DUP4 PUSH1 0x1F DUP5 ADD SLT PUSH2 0x10E7 JUMPI PUSH1 0x0 DUP1 REVERT JUMPDEST DUP3 CALLDATALOAD SWAP1 POP PUSH8 0xFFFFFFFFFFFFFFFF DUP2 GT ISZERO PUSH2 0x1100 JUMPI PUSH1 0x0 DUP1 REVERT JUMPDEST PUSH1 0x20 DUP4 ADD SWAP2 POP DUP4 PUSH1 0x1 DUP3 MUL DUP4 ADD GT ISZERO PUSH2 0x1118 JUMPI PUSH1 0x0 DUP1 REVERT JUMPDEST SWAP3 POP SWAP3 SWAP1 POP JUMP JUMPDEST PUSH1 0x0 DUP2 CALLDATALOAD SWAP1 POP PUSH2 0x112E DUP2 PUSH2 0x1880 JUMP JUMPDEST SWAP3 SWAP2 POP POP JUMP JUMPDEST PUSH1 0x0 DUP1 PUSH1 0x0 PUSH1 0x40 DUP5 DUP7 SUB SLT ISZERO PUSH2 0x1149 JUMPI PUSH1 0x0 DUP1 REVERT JUMPDEST PUSH1 0x0 DUP5 ADD CALLDATALOAD PUSH8 0xFFFFFFFFFFFFFFFF DUP2 GT ISZERO PUSH2 0x1163 JUMPI PUSH1 0x0 DUP1 REVERT JUMPDEST PUSH2 0x116F DUP7 DUP3 DUP8 ADD PUSH2 0x10D5 JUMP JUMPDEST SWAP4 POP SWAP4 POP POP PUSH1 0x20 PUSH2 0x1182 DUP7 DUP3 DUP8 ADD PUSH2 0x111F JUMP JUMPDEST SWAP2 POP POP SWAP3 POP SWAP3 POP SWAP3 JUMP JUMPDEST PUSH1 0x0 PUSH1 0x20 DUP3 DUP5 SUB SLT ISZERO PUSH2 0x119E JUMPI PUSH1 0x0 DUP1 REVERT JUMPDEST PUSH1 0x0 PUSH2 0x11AC DUP5 DUP3 DUP6 ADD PUSH2 0x111F JUMP JUMPDEST SWAP2 POP POP SWAP3 SWAP2 POP POP JUMP JUMPDEST PUSH1 0x0 PUSH2 0x11C1 DUP4 DUP4 PUSH2 0x11CD JUMP JUMPDEST PUSH1 0x20 DUP4 ADD SWAP1 POP SWAP3 SWAP2 POP POP JUMP JUMPDEST PUSH2 0x11D6 DUP2 PUSH2 0x16F1 JUMP JUMPDEST DUP3 MSTORE POP POP JUMP JUMPDEST PUSH2 0x11E5 DUP2 PUSH2 0x16F1 JUMP JUMPDEST DUP3 MSTORE POP POP JUMP JUMPDEST PUSH1 0x0 PUSH2 0x11F6 DUP3 PUSH2 0x166D JUMP JUMPDEST PUSH2 0x1200 DUP2 DUP6 PUSH2 0x1690 JUMP JUMPDEST SWAP4 POP PUSH2 0x120B DUP4 PUSH2 0x165D JUMP JUMPDEST DUP1 PUSH1 0x0 JUMPDEST DUP4 DUP2 LT ISZERO PUSH2 0x123C JUMPI DUP2 MLOAD PUSH2 0x1223 DUP9 DUP3 PUSH2 0x11B5 JUMP JUMPDEST SWAP8 POP PUSH2 0x122E DUP4 PUSH2 0x1683 JUMP JUMPDEST SWAP3 POP POP PUSH1 0x1 DUP2 ADD SWAP1 POP PUSH2 0x120F JUMP JUMPDEST POP DUP6 SWAP4 POP POP POP POP SWAP3 SWAP2 POP POP JUMP JUMPDEST PUSH2 0x1252 DUP2 PUSH2 0x1703 JUMP JUMPDEST DUP3 MSTORE POP POP JUMP JUMPDEST PUSH1 0x0 PUSH2 0x1263 DUP3 PUSH2 0x1678 JUMP JUMPDEST PUSH2 0x126D DUP2 DUP6 PUSH2 0x16A1 JUMP JUMPDEST SWAP4 POP PUSH2 0x127D DUP2 DUP6 PUSH1 0x20 DUP7 ADD PUSH2 0x1739 JUMP JUMPDEST PUSH2 0x1286 DUP2 PUSH2 0x186F JUMP JUMPDEST DUP5 ADD SWAP2 POP POP SWAP3 SWAP2 POP POP JUMP JUMPDEST PUSH1 0x0 PUSH2 0x129C DUP3 PUSH2 0x1678 JUMP JUMPDEST PUSH2 0x12A6 DUP2 DUP6 PUSH2 0x16B2 JUMP JUMPDEST SWAP4 POP PUSH2 0x12B6 DUP2 DUP6 PUSH1 0x20 DUP7 ADD PUSH2 0x1739 JUMP JUMPDEST DUP1 DUP5 ADD SWAP2 POP POP SWAP3 SWAP2 POP POP JUMP JUMPDEST PUSH1 0x0 PUSH2 0x12CF PUSH1 0x20 DUP4 PUSH2 0x16A1 JUMP JUMPDEST SWAP2 POP PUSH32 0x5468697320626F6F6B2065786973747320696E20746865206C69627261727921 PUSH1 0x0 DUP4 ADD MSTORE PUSH1 0x20 DUP3 ADD SWAP1 POP SWAP2 SWAP1 POP JUMP JUMPDEST PUSH1 0x0 PUSH2 0x130F PUSH1 0x1E DUP4 PUSH2 0x16A1 JUMP JUMPDEST SWAP2 POP PUSH32 0x596F7520686176656E7420626F72726F776564207468617420626F6F6B210000 PUSH1 0x0 DUP4 ADD MSTORE PUSH1 0x20 DUP3 ADD SWAP1 POP SWAP2 SWAP1 POP JUMP JUMPDEST PUSH1 0x0 PUSH2 0x134F PUSH1 0x22 DUP4 PUSH2 0x16A1 JUMP JUMPDEST SWAP2 POP PUSH32 0x596F7527766520616C726561647920626F72726F776564207468617420626F6F PUSH1 0x0 DUP4 ADD MSTORE PUSH32 0x6B21000000000000000000000000000000000000000000000000000000000000 PUSH1 0x20 DUP4 ADD MSTORE PUSH1 0x40 DUP3 ADD SWAP1 POP SWAP2 SWAP1 POP JUMP JUMPDEST PUSH1 0x0 PUSH2 0x13B5 PUSH1 0x1A DUP4 PUSH2 0x16A1 JUMP JUMPDEST SWAP2 POP PUSH32 0x43757272656E742075736572206973206E6F74206F776E657221000000000000 PUSH1 0x0 DUP4 ADD MSTORE PUSH1 0x20 DUP3 ADD SWAP1 POP SWAP2 SWAP1 POP JUMP JUMPDEST PUSH1 0x0 PUSH2 0x13F5 PUSH1 0x24 DUP4 PUSH2 0x16A1 JUMP JUMPDEST SWAP2 POP PUSH32 0x5468697320626F6F6B206973206F7574206F662073746F636B2063757272656E PUSH1 0x0 DUP4 ADD MSTORE PUSH32 0x746C792100000000000000000000000000000000000000000000000000000000 PUSH1 0x20 DUP4 ADD MSTORE PUSH1 0x40 DUP3 ADD SWAP1 POP SWAP2 SWAP1 POP JUMP JUMPDEST PUSH1 0x0 PUSH2 0x145B PUSH1 0x1F DUP4 PUSH2 0x16A1 JUMP JUMPDEST SWAP2 POP PUSH32 0x426F6F6B20646F6573206E6F7420657869737420696E206C6962726172792100 PUSH1 0x0 DUP4 ADD MSTORE PUSH1 0x20 DUP3 ADD SWAP1 POP SWAP2 SWAP1 POP JUMP JUMPDEST PUSH1 0x0 PUSH2 0x149B PUSH1 0x1F DUP4 PUSH2 0x16A1 JUMP JUMPDEST SWAP2 POP PUSH32 0x5175616E746974792063616E6E6F74206265206C657373207468616E20312100 PUSH1 0x0 DUP4 ADD MSTORE PUSH1 0x20 DUP3 ADD SWAP1 POP SWAP2 SWAP1 POP JUMP JUMPDEST PUSH2 0x14D7 DUP2 PUSH2 0x172F JUMP JUMPDEST DUP3 MSTORE POP POP JUMP JUMPDEST PUSH1 0x0 PUSH2 0x14E9 DUP3 DUP5 PUSH2 0x1291 JUMP JUMPDEST SWAP2 POP DUP2 SWAP1 POP SWAP3 SWAP2 POP POP JUMP JUMPDEST PUSH1 0x0 PUSH1 0x20 DUP3 ADD SWAP1 POP PUSH2 0x1509 PUSH1 0x0 DUP4 ADD DUP5 PUSH2 0x11DC JUMP JUMPDEST SWAP3 SWAP2 POP POP JUMP JUMPDEST PUSH1 0x0 PUSH1 0x20 DUP3 ADD SWAP1 POP DUP2 DUP2 SUB PUSH1 0x0 DUP4 ADD MSTORE PUSH2 0x1529 DUP2 DUP5 PUSH2 0x11EB JUMP JUMPDEST SWAP1 POP SWAP3 SWAP2 POP POP JUMP JUMPDEST PUSH1 0x0 PUSH1 0x20 DUP3 ADD SWAP1 POP DUP2 DUP2 SUB PUSH1 0x0 DUP4 ADD MSTORE PUSH2 0x154A DUP2 PUSH2 0x12C2 JUMP JUMPDEST SWAP1 POP SWAP2 SWAP1 POP JUMP JUMPDEST PUSH1 0x0 PUSH1 0x20 DUP3 ADD SWAP1 POP DUP2 DUP2 SUB PUSH1 0x0 DUP4 ADD MSTORE PUSH2 0x156A DUP2 PUSH2 0x1302 JUMP JUMPDEST SWAP1 POP SWAP2 SWAP1 POP JUMP JUMPDEST PUSH1 0x0 PUSH1 0x20 DUP3 ADD SWAP1 POP DUP2 DUP2 SUB PUSH1 0x0 DUP4 ADD MSTORE PUSH2 0x158A DUP2 PUSH2 0x1342 JUMP JUMPDEST SWAP1 POP SWAP2 SWAP1 POP JUMP JUMPDEST PUSH1 0x0 PUSH1 0x20 DUP3 ADD SWAP1 POP DUP2 DUP2 SUB PUSH1 0x0 DUP4 ADD MSTORE PUSH2 0x15AA DUP2 PUSH2 0x13A8 JUMP JUMPDEST SWAP1 POP SWAP2 SWAP1 POP JUMP JUMPDEST PUSH1 0x0 PUSH1 0x20 DUP3 ADD SWAP1 POP DUP2 DUP2 SUB PUSH1 0x0 DUP4 ADD MSTORE PUSH2 0x15CA DUP2 PUSH2 0x13E8 JUMP JUMPDEST SWAP1 POP SWAP2 SWAP1 POP JUMP JUMPDEST PUSH1 0x0 PUSH1 0x20 DUP3 ADD SWAP1 POP DUP2 DUP2 SUB PUSH1 0x0 DUP4 ADD MSTORE PUSH2 0x15EA DUP2 PUSH2 0x144E JUMP JUMPDEST SWAP1 POP SWAP2 SWAP1 POP JUMP JUMPDEST PUSH1 0x0 PUSH1 0x20 DUP3 ADD SWAP1 POP DUP2 DUP2 SUB PUSH1 0x0 DUP4 ADD MSTORE PUSH2 0x160A DUP2 PUSH2 0x148E JUMP JUMPDEST SWAP1 POP SWAP2 SWAP1 POP JUMP JUMPDEST PUSH1 0x0 PUSH1 0x80 DUP3 ADD SWAP1 POP PUSH2 0x1626 PUSH1 0x0 DUP4 ADD DUP8 PUSH2 0x14CE JUMP JUMPDEST DUP2 DUP2 SUB PUSH1 0x20 DUP4 ADD MSTORE PUSH2 0x1638 DUP2 DUP7 PUSH2 0x1258 JUMP JUMPDEST SWAP1 POP PUSH2 0x1647 PUSH1 0x40 DUP4 ADD DUP6 PUSH2 0x14CE JUMP JUMPDEST PUSH2 0x1654 PUSH1 0x60 DUP4 ADD DUP5 PUSH2 0x1249 JUMP JUMPDEST SWAP6 SWAP5 POP POP POP POP POP JUMP JUMPDEST PUSH1 0x0 DUP2 SWAP1 POP PUSH1 0x20 DUP3 ADD SWAP1 POP SWAP2 SWAP1 POP JUMP JUMPDEST PUSH1 0x0 DUP2 MLOAD SWAP1 POP SWAP2 SWAP1 POP JUMP JUMPDEST PUSH1 0x0 DUP2 MLOAD SWAP1 POP SWAP2 SWAP1 POP JUMP JUMPDEST PUSH1 0x0 PUSH1 0x20 DUP3 ADD SWAP1 POP SWAP2 SWAP1 POP JUMP JUMPDEST PUSH1 0x0 DUP3 DUP3 MSTORE PUSH1 0x20 DUP3 ADD SWAP1 POP SWAP3 SWAP2 POP POP JUMP JUMPDEST PUSH1 0x0 DUP3 DUP3 MSTORE PUSH1 0x20 DUP3 ADD SWAP1 POP SWAP3 SWAP2 POP POP JUMP JUMPDEST PUSH1 0x0 DUP2 SWAP1 POP SWAP3 SWAP2 POP POP JUMP JUMPDEST PUSH1 0x0 PUSH2 0x16C8 DUP3 PUSH2 0x172F JUMP JUMPDEST SWAP2 POP PUSH2 0x16D3 DUP4 PUSH2 0x172F JUMP JUMPDEST SWAP3 POP DUP3 DUP3 LT ISZERO PUSH2 0x16E6 JUMPI PUSH2 0x16E5 PUSH2 0x1811 JUMP JUMPDEST JUMPDEST DUP3 DUP3 SUB SWAP1 POP SWAP3 SWAP2 POP POP JUMP JUMPDEST PUSH1 0x0 PUSH2 0x16FC DUP3 PUSH2 0x170F JUMP JUMPDEST SWAP1 POP SWAP2 SWAP1 POP JUMP JUMPDEST PUSH1 0x0 DUP2 ISZERO ISZERO SWAP1 POP SWAP2 SWAP1 POP JUMP JUMPDEST PUSH1 0x0 PUSH20 0xFFFFFFFFFFFFFFFFFFFFFFFFFFFFFFFFFFFFFFFF DUP3 AND SWAP1 POP SWAP2 SWAP1 POP JUMP JUMPDEST PUSH1 0x0 DUP2 SWAP1 POP SWAP2 SWAP1 POP JUMP JUMPDEST PUSH1 0x0 JUMPDEST DUP4 DUP2 LT ISZERO PUSH2 0x1757 JUMPI DUP1 DUP3 ADD MLOAD DUP2 DUP5 ADD MSTORE PUSH1 0x20 DUP2 ADD SWAP1 POP PUSH2 0x173C JUMP JUMPDEST DUP4 DUP2 GT ISZERO PUSH2 0x1766 JUMPI PUSH1 0x0 DUP5 DUP5 ADD MSTORE JUMPDEST POP POP POP POP JUMP JUMPDEST PUSH1 0x0 PUSH2 0x1777 DUP3 PUSH2 0x172F JUMP JUMPDEST SWAP2 POP PUSH1 0x0 DUP3 EQ ISZERO PUSH2 0x178B JUMPI PUSH2 0x178A PUSH2 0x1811 JUMP JUMPDEST JUMPDEST PUSH1 0x1 DUP3 SUB SWAP1 POP SWAP2 SWAP1 POP JUMP JUMPDEST PUSH1 0x0 PUSH1 0x2 DUP3 DIV SWAP1 POP PUSH1 0x1 DUP3 AND DUP1 PUSH2 0x17AE JUMPI PUSH1 0x7F DUP3 AND SWAP2 POP JUMPDEST PUSH1 0x20 DUP3 LT DUP2 EQ ISZERO PUSH2 0x17C2 JUMPI PUSH2 0x17C1 PUSH2 0x1840 JUMP JUMPDEST JUMPDEST POP SWAP2 SWAP1 POP JUMP JUMPDEST PUSH1 0x0 PUSH2 0x17D3 DUP3 PUSH2 0x172F JUMP JUMPDEST SWAP2 POP PUSH32 0xFFFFFFFFFFFFFFFFFFFFFFFFFFFFFFFFFFFFFFFFFFFFFFFFFFFFFFFFFFFFFFFF DUP3 EQ ISZERO PUSH2 0x1806 JUMPI PUSH2 0x1805 PUSH2 0x1811 JUMP JUMPDEST JUMPDEST PUSH1 0x1 DUP3 ADD SWAP1 POP SWAP2 SWAP1 POP JUMP JUMPDEST PUSH32 0x4E487B7100000000000000000000000000000000000000000000000000000000 PUSH1 0x0 MSTORE PUSH1 0x11 PUSH1 0x4 MSTORE PUSH1 0x24 PUSH1 0x0 REVERT JUMPDEST PUSH32 0x4E487B7100000000000000000000000000000000000000000000000000000000 PUSH1 0x0 MSTORE PUSH1 0x22 PUSH1 0x4 MSTORE PUSH1 0x24 PUSH1 0x0 REVERT JUMPDEST PUSH1 0x0 PUSH1 0x1F NOT PUSH1 0x1F DUP4 ADD AND SWAP1 POP SWAP2 SWAP1 POP JUMP JUMPDEST PUSH2 0x1889 DUP2 PUSH2 0x172F JUMP JUMPDEST DUP2 EQ PUSH2 0x1894 JUMPI PUSH1 0x0 DUP1 REVERT JUMPDEST POP JUMP INVALID LOG2 PUSH5 0x6970667358 0x22 SLT KECCAK256 0xD9 0xB6 NUMBER INVALID 0x4E 0xD3 0xEC 0x4F SELFDESTRUCT PUSH6 0x4F848818245A 0x2F 0xA6 0xD4 LOG0 0x1F CREATE 0xE6 0x2C CALLDATASIZE CALLER 0x2B 0xF6 DUP6 SWAP1 0xEA 0xBC PUSH5 0x736F6C6343 STOP ADDMOD STOP STOP CALLER "
				},
				"gasEstimates": {
					"creation": {
						"codeDepositCost": "1269800",
						"executionCost": "22188",
						"totalCost": "1291988"
					},
					"external": {
						"AddBook(string,uint256)": "infinite",
						"BorrowBook(uint256)": "infinite",
						"BorrowHistory(uint256)": "infinite",
						"LibraryArchive(uint256)": "infinite",
						"ReturnBook(uint256)": "infinite",
						"owner()": "1233"
					},
					"internal": {
						"LibraryContainsBook(string calldata)": "infinite"
					}
				},
				"methodIdentifiers": {
					"AddBook(string,uint256)": "265be2e2",
					"BorrowBook(uint256)": "9649faa3",
					"BorrowHistory(uint256)": "e7e58ee9",
					"LibraryArchive(uint256)": "27e4671c",
					"ReturnBook(uint256)": "b8dd17db",
					"owner()": "8da5cb5b"
				}
			},
			"userdoc": {
				"kind": "user",
				"methods": {},
				"version": 1
			}
		}
	}
}