{
	"USElection.sol": {
		"USElection": {
			"abi": [
				{
					"anonymous": false,
					"inputs": [
						{
							"indexed": false,
							"internalType": "uint8",
							"name": "winner",
							"type": "uint8"
						},
						{
							"indexed": false,
							"internalType": "uint8",
							"name": "stateSeats",
							"type": "uint8"
						},
						{
							"indexed": false,
							"internalType": "string",
							"name": "state",
							"type": "string"
						}
					],
					"name": "LogStateResult",
					"type": "event"
				},
				{
					"inputs": [],
					"name": "BIDEN",
					"outputs": [
						{
							"internalType": "uint8",
							"name": "",
							"type": "uint8"
						}
					],
					"stateMutability": "view",
					"type": "function"
				},
				{
					"inputs": [],
					"name": "TRUMP",
					"outputs": [
						{
							"internalType": "uint8",
							"name": "",
							"type": "uint8"
						}
					],
					"stateMutability": "view",
					"type": "function"
				},
				{
					"inputs": [],
					"name": "currentLeader",
					"outputs": [
						{
							"internalType": "uint8",
							"name": "",
							"type": "uint8"
						}
					],
					"stateMutability": "view",
					"type": "function"
				},
				{
					"inputs": [],
					"name": "electionEnded",
					"outputs": [
						{
							"internalType": "bool",
							"name": "",
							"type": "bool"
						}
					],
					"stateMutability": "view",
					"type": "function"
				},
				{
					"inputs": [],
					"name": "endElection",
					"outputs": [],
					"stateMutability": "nonpayable",
					"type": "function"
				},
				{
					"inputs": [
						{
							"internalType": "uint8",
							"name": "",
							"type": "uint8"
						}
					],
					"name": "seats",
					"outputs": [
						{
							"internalType": "uint8",
							"name": "",
							"type": "uint8"
						}
					],
					"stateMutability": "view",
					"type": "function"
				},
				{
					"inputs": [
						{
							"components": [
								{
									"internalType": "string",
									"name": "name",
									"type": "string"
								},
								{
									"internalType": "uint256",
									"name": "votesBiden",
									"type": "uint256"
								},
								{
									"internalType": "uint256",
									"name": "votesTrump",
									"type": "uint256"
								},
								{
									"internalType": "uint8",
									"name": "stateSeats",
									"type": "uint8"
								}
							],
							"internalType": "struct USElection.StateResult",
							"name": "result",
							"type": "tuple"
						}
					],
					"name": "submitStateResult",
					"outputs": [],
					"stateMutability": "nonpayable",
					"type": "function"
				}
			],
			"devdoc": {
				"kind": "dev",
				"methods": {},
				"version": 1
			},
			"evm": {
				"assembly": "    /* \"USElection.sol\":84:1411  contract USElection {... */\n  mstore(0x40, 0x80)\n  callvalue\n  dup1\n  iszero\n  tag_1\n  jumpi\n  0x00\n  dup1\n  revert\ntag_1:\n  pop\n  dataSize(sub_0)\n  dup1\n  dataOffset(sub_0)\n  0x00\n  codecopy\n  0x00\n  return\nstop\n\nsub_0: assembly {\n        /* \"USElection.sol\":84:1411  contract USElection {... */\n      mstore(0x40, 0x80)\n      callvalue\n      dup1\n      iszero\n      tag_1\n      jumpi\n      0x00\n      dup1\n      revert\n    tag_1:\n      pop\n      jumpi(tag_2, lt(calldatasize, 0x04))\n      shr(0xe0, calldataload(0x00))\n      dup1\n      0x713d87c5\n      gt\n      tag_10\n      jumpi\n      dup1\n      0x713d87c5\n      eq\n      tag_6\n      jumpi\n      dup1\n      0xac4bd53a\n      eq\n      tag_7\n      jumpi\n      dup1\n      0xc94ca9e3\n      eq\n      tag_8\n      jumpi\n      dup1\n      0xe494a883\n      eq\n      tag_9\n      jumpi\n      jump(tag_2)\n    tag_10:\n      dup1\n      0x2d78d8e5\n      eq\n      tag_3\n      jumpi\n      dup1\n      0x59f78468\n      eq\n      tag_4\n      jumpi\n      dup1\n      0x69b36bd4\n      eq\n      tag_5\n      jumpi\n    tag_2:\n      0x00\n      dup1\n      revert\n        /* \"USElection.sol\":147:178  uint8 public constant TRUMP = 2 */\n    tag_3:\n      tag_11\n      tag_12\n      jump\t// in\n    tag_11:\n      mload(0x40)\n      tag_13\n      swap2\n      swap1\n      tag_14\n      jump\t// in\n    tag_13:\n      mload(0x40)\n      dup1\n      swap2\n      sub\n      swap1\n      return\n        /* \"USElection.sol\":1340:1404  function endElection() public {... */\n    tag_4:\n      tag_15\n      tag_16\n      jump\t// in\n    tag_15:\n      stop\n        /* \"USElection.sol\":110:141  uint8 public constant BIDEN = 1 */\n    tag_5:\n      tag_17\n      tag_18\n      jump\t// in\n    tag_17:\n      mload(0x40)\n      tag_19\n      swap2\n      swap1\n      tag_14\n      jump\t// in\n    tag_19:\n      mload(0x40)\n      dup1\n      swap2\n      sub\n      swap1\n      return\n        /* \"USElection.sol\":225:261  mapping(uint8 => uint8) public seats */\n    tag_6:\n      tag_20\n      0x04\n      dup1\n      calldatasize\n      sub\n      dup2\n      add\n      swap1\n      tag_21\n      swap2\n      swap1\n      tag_22\n      jump\t// in\n    tag_21:\n      tag_23\n      jump\t// in\n    tag_20:\n      mload(0x40)\n      tag_24\n      swap2\n      swap1\n      tag_14\n      jump\t// in\n    tag_24:\n      mload(0x40)\n      dup1\n      swap2\n      sub\n      swap1\n      return\n        /* \"USElection.sol\":1114:1330  function currentLeader() public view returns(uint8) {... */\n    tag_7:\n      tag_25\n      tag_26\n      jump\t// in\n    tag_25:\n      mload(0x40)\n      tag_27\n      swap2\n      swap1\n      tag_14\n      jump\t// in\n    tag_27:\n      mload(0x40)\n      dup1\n      swap2\n      sub\n      swap1\n      return\n        /* \"USElection.sol\":189:214  bool public electionEnded */\n    tag_8:\n      tag_28\n      tag_29\n      jump\t// in\n    tag_28:\n      mload(0x40)\n      tag_30\n      swap2\n      swap1\n      tag_31\n      jump\t// in\n    tag_30:\n      mload(0x40)\n      dup1\n      swap2\n      sub\n      swap1\n      return\n        /* \"USElection.sol\":600:1108  function submitStateResult(StateResult calldata result) public onlyActiveElection {... */\n    tag_9:\n      tag_32\n      0x04\n      dup1\n      calldatasize\n      sub\n      dup2\n      add\n      swap1\n      tag_33\n      swap2\n      swap1\n      tag_34\n      jump\t// in\n    tag_33:\n      tag_35\n      jump\t// in\n    tag_32:\n      stop\n        /* \"USElection.sol\":147:178  uint8 public constant TRUMP = 2 */\n    tag_12:\n        /* \"USElection.sol\":177:178  2 */\n      0x02\n        /* \"USElection.sol\":147:178  uint8 public constant TRUMP = 2 */\n      dup2\n      jump\t// out\n        /* \"USElection.sol\":1340:1404  function endElection() public {... */\n    tag_16:\n      jump\t// out\n        /* \"USElection.sol\":110:141  uint8 public constant BIDEN = 1 */\n    tag_18:\n        /* \"USElection.sol\":140:141  1 */\n      0x01\n        /* \"USElection.sol\":110:141  uint8 public constant BIDEN = 1 */\n      dup2\n      jump\t// out\n        /* \"USElection.sol\":225:261  mapping(uint8 => uint8) public seats */\n    tag_23:\n      mstore(0x20, 0x01)\n      dup1\n      0x00\n      mstore\n      keccak256(0x00, 0x40)\n      0x00\n      swap2\n      pop\n      sload\n      swap1\n      0x0100\n      exp\n      swap1\n      div\n      0xff\n      and\n      dup2\n      jump\t// out\n        /* \"USElection.sol\":1114:1330  function currentLeader() public view returns(uint8) {... */\n    tag_26:\n        /* \"USElection.sol\":1159:1164  uint8 */\n      0x00\n        /* \"USElection.sol\":1192:1197  seats */\n      0x01\n        /* \"USElection.sol\":1192:1204  seats[TRUMP] */\n      0x00\n        /* \"USElection.sol\":177:178  2 */\n      0x02\n        /* \"USElection.sol\":1192:1204  seats[TRUMP] */\n      0xff\n      and\n      0xff\n      and\n      dup2\n      mstore\n      0x20\n      add\n      swap1\n      dup2\n      mstore\n      0x20\n      add\n      0x00\n      keccak256\n      0x00\n      swap1\n      sload\n      swap1\n      0x0100\n      exp\n      swap1\n      div\n      0xff\n      and\n        /* \"USElection.sol\":1177:1204  seats[BIDEN] > seats[TRUMP] */\n      0xff\n      and\n        /* \"USElection.sol\":1177:1182  seats */\n      0x01\n        /* \"USElection.sol\":1177:1189  seats[BIDEN] */\n      0x00\n        /* \"USElection.sol\":140:141  1 */\n      0x01\n        /* \"USElection.sol\":1177:1189  seats[BIDEN] */\n      0xff\n      and\n      0xff\n      and\n      dup2\n      mstore\n      0x20\n      add\n      swap1\n      dup2\n      mstore\n      0x20\n      add\n      0x00\n      keccak256\n      0x00\n      swap1\n      sload\n      swap1\n      0x0100\n      exp\n      swap1\n      div\n      0xff\n      and\n        /* \"USElection.sol\":1177:1204  seats[BIDEN] > seats[TRUMP] */\n      0xff\n      and\n      gt\n        /* \"USElection.sol\":1174:1239  if(seats[BIDEN] > seats[TRUMP]) {... */\n      iszero\n      tag_38\n      jumpi\n        /* \"USElection.sol\":140:141  1 */\n      0x01\n        /* \"USElection.sol\":1218:1230  return BIDEN */\n      swap1\n      pop\n      jump(tag_37)\n        /* \"USElection.sol\":1174:1239  if(seats[BIDEN] > seats[TRUMP]) {... */\n    tag_38:\n        /* \"USElection.sol\":1264:1269  seats */\n      0x01\n        /* \"USElection.sol\":1264:1276  seats[BIDEN] */\n      0x00\n        /* \"USElection.sol\":140:141  1 */\n      0x01\n        /* \"USElection.sol\":1264:1276  seats[BIDEN] */\n      0xff\n      and\n      0xff\n      and\n      dup2\n      mstore\n      0x20\n      add\n      swap1\n      dup2\n      mstore\n      0x20\n      add\n      0x00\n      keccak256\n      0x00\n      swap1\n      sload\n      swap1\n      0x0100\n      exp\n      swap1\n      div\n      0xff\n      and\n        /* \"USElection.sol\":1249:1276  seats[TRUMP] > seats[BIDEN] */\n      0xff\n      and\n        /* \"USElection.sol\":1249:1254  seats */\n      0x01\n        /* \"USElection.sol\":1249:1261  seats[TRUMP] */\n      0x00\n        /* \"USElection.sol\":177:178  2 */\n      0x02\n        /* \"USElection.sol\":1249:1261  seats[TRUMP] */\n      0xff\n      and\n      0xff\n      and\n      dup2\n      mstore\n      0x20\n      add\n      swap1\n      dup2\n      mstore\n      0x20\n      add\n      0x00\n      keccak256\n      0x00\n      swap1\n      sload\n      swap1\n      0x0100\n      exp\n      swap1\n      div\n      0xff\n      and\n        /* \"USElection.sol\":1249:1276  seats[TRUMP] > seats[BIDEN] */\n      0xff\n      and\n      gt\n        /* \"USElection.sol\":1246:1311  if(seats[TRUMP] > seats[BIDEN]) {... */\n      iszero\n      tag_39\n      jumpi\n        /* \"USElection.sol\":177:178  2 */\n      0x02\n        /* \"USElection.sol\":1290:1302  return TRUMP */\n      swap1\n      pop\n      jump(tag_37)\n        /* \"USElection.sol\":1246:1311  if(seats[TRUMP] > seats[BIDEN]) {... */\n    tag_39:\n        /* \"USElection.sol\":1325:1326  0 */\n      0x00\n        /* \"USElection.sol\":1318:1326  return 0 */\n      swap1\n      pop\n        /* \"USElection.sol\":1114:1330  function currentLeader() public view returns(uint8) {... */\n    tag_37:\n      swap1\n      jump\t// out\n        /* \"USElection.sol\":189:214  bool public electionEnded */\n    tag_29:\n      0x00\n      dup1\n      sload\n      swap1\n      0x0100\n      exp\n      swap1\n      div\n      0xff\n      and\n      dup2\n      jump\t// out\n        /* \"USElection.sol\":600:1108  function submitStateResult(StateResult calldata result) public onlyActiveElection {... */\n    tag_35:\n        /* \"USElection.sol\":525:538  electionEnded */\n      0x00\n      dup1\n      sload\n      swap1\n      0x0100\n      exp\n      swap1\n      div\n      0xff\n      and\n        /* \"USElection.sol\":524:538  !electionEnded */\n      iszero\n        /* \"USElection.sol\":516:573  require(!electionEnded, \"The election has ended already\") */\n      tag_41\n      jumpi\n      mload(0x40)\n      0x08c379a000000000000000000000000000000000000000000000000000000000\n      dup2\n      mstore\n      0x04\n      add\n      tag_42\n      swap1\n      tag_43\n      jump\t// in\n    tag_42:\n      mload(0x40)\n      dup1\n      swap2\n      sub\n      swap1\n      revert\n    tag_41:\n        /* \"USElection.sol\":718:719  0 */\n      0x00\n        /* \"USElection.sol\":698:704  result */\n      dup2\n        /* \"USElection.sol\":698:715  result.stateSeats */\n      0x60\n      add\n      0x20\n      dup2\n      add\n      swap1\n      tag_45\n      swap2\n      swap1\n      tag_22\n      jump\t// in\n    tag_45:\n        /* \"USElection.sol\":698:719  result.stateSeats > 0 */\n      0xff\n      and\n      gt\n        /* \"USElection.sol\":690:756  require(result.stateSeats > 0, \"States must have at least 1 seat\") */\n      tag_46\n      jumpi\n      mload(0x40)\n      0x08c379a000000000000000000000000000000000000000000000000000000000\n      dup2\n      mstore\n      0x04\n      add\n      tag_47\n      swap1\n      tag_48\n      jump\t// in\n    tag_47:\n      mload(0x40)\n      dup1\n      swap2\n      sub\n      swap1\n      revert\n    tag_46:\n        /* \"USElection.sol\":793:799  result */\n      dup1\n        /* \"USElection.sol\":793:810  result.votesTrump */\n      0x40\n      add\n      calldataload\n        /* \"USElection.sol\":772:778  result */\n      dup2\n        /* \"USElection.sol\":772:789  result.votesBiden */\n      0x20\n      add\n      calldataload\n        /* \"USElection.sol\":772:810  result.votesBiden != result.votesTrump */\n      eq\n      iszero\n        /* \"USElection.sol\":764:836  require(result.votesBiden != result.votesTrump, \"There cannot be a tie\") */\n      tag_49\n      jumpi\n      mload(0x40)\n      0x08c379a000000000000000000000000000000000000000000000000000000000\n      dup2\n      mstore\n      0x04\n      add\n      tag_50\n      swap1\n      tag_51\n      jump\t// in\n    tag_50:\n      mload(0x40)\n      dup1\n      swap2\n      sub\n      swap1\n      revert\n    tag_49:\n        /* \"USElection.sol\":844:856  uint8 winner */\n      0x00\n        /* \"USElection.sol\":887:893  result */\n      dup2\n        /* \"USElection.sol\":887:904  result.votesTrump */\n      0x40\n      add\n      calldataload\n        /* \"USElection.sol\":867:873  result */\n      dup3\n        /* \"USElection.sol\":867:884  result.votesBiden */\n      0x20\n      add\n      calldataload\n        /* \"USElection.sol\":867:904  result.votesBiden > result.votesTrump */\n      gt\n        /* \"USElection.sol\":864:982  if(result.votesBiden > result.votesTrump) {... */\n      iszero\n      tag_52\n      jumpi\n        /* \"USElection.sol\":140:141  1 */\n      0x01\n        /* \"USElection.sol\":918:932  winner = BIDEN */\n      swap1\n      pop\n        /* \"USElection.sol\":864:982  if(result.votesBiden > result.votesTrump) {... */\n      jump(tag_53)\n    tag_52:\n        /* \"USElection.sol\":177:178  2 */\n      0x02\n        /* \"USElection.sol\":959:973  winner = TRUMP */\n      swap1\n      pop\n        /* \"USElection.sol\":864:982  if(result.votesBiden > result.votesTrump) {... */\n    tag_53:\n        /* \"USElection.sol\":1013:1019  result */\n      dup2\n        /* \"USElection.sol\":1013:1030  result.stateSeats */\n      0x60\n      add\n      0x20\n      dup2\n      add\n      swap1\n      tag_54\n      swap2\n      swap1\n      tag_22\n      jump\t// in\n    tag_54:\n        /* \"USElection.sol\":996:1001  seats */\n      0x01\n        /* \"USElection.sol\":996:1009  seats[winner] */\n      0x00\n        /* \"USElection.sol\":1002:1008  winner */\n      dup4\n        /* \"USElection.sol\":996:1009  seats[winner] */\n      0xff\n      and\n      0xff\n      and\n      dup2\n      mstore\n      0x20\n      add\n      swap1\n      dup2\n      mstore\n      0x20\n      add\n      0x00\n      keccak256\n      0x00\n        /* \"USElection.sol\":996:1030  seats[winner] += result.stateSeats */\n      dup3\n      dup3\n      dup3\n      swap1\n      sload\n      swap1\n      0x0100\n      exp\n      swap1\n      div\n      0xff\n      and\n      tag_55\n      swap2\n      swap1\n      tag_56\n      jump\t// in\n    tag_55:\n      swap3\n      pop\n      0x0100\n      exp\n      dup2\n      sload\n      dup2\n      0xff\n      mul\n      not\n      and\n      swap1\n      dup4\n      0xff\n      and\n      mul\n      or\n      swap1\n      sstore\n      pop\n        /* \"USElection.sol\":1050:1104  LogStateResult(winner, result.stateSeats, result.name) */\n      0xa2e71fe38f1afa3762cf9d2ea7bb6a4d272a90fd6f9392f3acedd3b542046b46\n        /* \"USElection.sol\":1065:1071  winner */\n      dup2\n        /* \"USElection.sol\":1073:1079  result */\n      dup4\n        /* \"USElection.sol\":1073:1090  result.stateSeats */\n      0x60\n      add\n      0x20\n      dup2\n      add\n      swap1\n      tag_57\n      swap2\n      swap1\n      tag_22\n      jump\t// in\n    tag_57:\n        /* \"USElection.sol\":1092:1098  result */\n      dup5\n        /* \"USElection.sol\":1092:1103  result.name */\n      dup1\n      0x00\n      add\n      swap1\n      tag_58\n      swap2\n      swap1\n      tag_59\n      jump\t// in\n    tag_58:\n        /* \"USElection.sol\":1050:1104  LogStateResult(winner, result.stateSeats, result.name) */\n      mload(0x40)\n      tag_60\n      swap5\n      swap4\n      swap3\n      swap2\n      swap1\n      tag_61\n      jump\t// in\n    tag_60:\n      mload(0x40)\n      dup1\n      swap2\n      sub\n      swap1\n      log1\n        /* \"USElection.sol\":682:1108  {... */\n      pop\n        /* \"USElection.sol\":600:1108  function submitStateResult(StateResult calldata result) public onlyActiveElection {... */\n      pop\n      jump\t// out\n        /* \"#utility.yul\":44:278   */\n    tag_63:\n        /* \"#utility.yul\":119:124   */\n      0x00\n        /* \"#utility.yul\":160:163   */\n      0x80\n        /* \"#utility.yul\":151:157   */\n      dup3\n        /* \"#utility.yul\":146:149   */\n      dup5\n        /* \"#utility.yul\":142:158   */\n      sub\n        /* \"#utility.yul\":138:164   */\n      slt\n        /* \"#utility.yul\":135:248   */\n      iszero\n      tag_65\n      jumpi\n        /* \"#utility.yul\":167:246   */\n      tag_66\n      tag_67\n      jump\t// in\n    tag_66:\n        /* \"#utility.yul\":135:248   */\n    tag_65:\n        /* \"#utility.yul\":266:272   */\n      dup2\n        /* \"#utility.yul\":257:272   */\n      swap1\n      pop\n        /* \"#utility.yul\":44:278   */\n      swap3\n      swap2\n      pop\n      pop\n      jump\t// out\n        /* \"#utility.yul\":284:419   */\n    tag_68:\n        /* \"#utility.yul\":328:333   */\n      0x00\n        /* \"#utility.yul\":366:372   */\n      dup2\n        /* \"#utility.yul\":353:373   */\n      calldataload\n        /* \"#utility.yul\":344:373   */\n      swap1\n      pop\n        /* \"#utility.yul\":382:413   */\n      tag_70\n        /* \"#utility.yul\":407:412   */\n      dup2\n        /* \"#utility.yul\":382:413   */\n      tag_71\n      jump\t// in\n    tag_70:\n        /* \"#utility.yul\":284:419   */\n      swap3\n      swap2\n      pop\n      pop\n      jump\t// out\n        /* \"#utility.yul\":425:972   */\n    tag_34:\n        /* \"#utility.yul\":513:519   */\n      0x00\n        /* \"#utility.yul\":562:564   */\n      0x20\n        /* \"#utility.yul\":550:559   */\n      dup3\n        /* \"#utility.yul\":541:548   */\n      dup5\n        /* \"#utility.yul\":537:560   */\n      sub\n        /* \"#utility.yul\":533:565   */\n      slt\n        /* \"#utility.yul\":530:649   */\n      iszero\n      tag_73\n      jumpi\n        /* \"#utility.yul\":568:647   */\n      tag_74\n      tag_75\n      jump\t// in\n    tag_74:\n        /* \"#utility.yul\":530:649   */\n    tag_73:\n        /* \"#utility.yul\":716:717   */\n      0x00\n        /* \"#utility.yul\":705:714   */\n      dup3\n        /* \"#utility.yul\":701:718   */\n      add\n        /* \"#utility.yul\":688:719   */\n      calldataload\n        /* \"#utility.yul\":746:764   */\n      0xffffffffffffffff\n        /* \"#utility.yul\":738:744   */\n      dup2\n        /* \"#utility.yul\":735:765   */\n      gt\n        /* \"#utility.yul\":732:849   */\n      iszero\n      tag_76\n      jumpi\n        /* \"#utility.yul\":768:847   */\n      tag_77\n      tag_78\n      jump\t// in\n    tag_77:\n        /* \"#utility.yul\":732:849   */\n    tag_76:\n        /* \"#utility.yul\":873:955   */\n      tag_79\n        /* \"#utility.yul\":947:954   */\n      dup5\n        /* \"#utility.yul\":938:944   */\n      dup3\n        /* \"#utility.yul\":927:936   */\n      dup6\n        /* \"#utility.yul\":923:945   */\n      add\n        /* \"#utility.yul\":873:955   */\n      tag_63\n      jump\t// in\n    tag_79:\n        /* \"#utility.yul\":863:955   */\n      swap2\n      pop\n        /* \"#utility.yul\":659:965   */\n      pop\n        /* \"#utility.yul\":425:972   */\n      swap3\n      swap2\n      pop\n      pop\n      jump\t// out\n        /* \"#utility.yul\":978:1303   */\n    tag_22:\n        /* \"#utility.yul\":1035:1041   */\n      0x00\n        /* \"#utility.yul\":1084:1086   */\n      0x20\n        /* \"#utility.yul\":1072:1081   */\n      dup3\n        /* \"#utility.yul\":1063:1070   */\n      dup5\n        /* \"#utility.yul\":1059:1082   */\n      sub\n        /* \"#utility.yul\":1055:1087   */\n      slt\n        /* \"#utility.yul\":1052:1171   */\n      iszero\n      tag_81\n      jumpi\n        /* \"#utility.yul\":1090:1169   */\n      tag_82\n      tag_75\n      jump\t// in\n    tag_82:\n        /* \"#utility.yul\":1052:1171   */\n    tag_81:\n        /* \"#utility.yul\":1210:1211   */\n      0x00\n        /* \"#utility.yul\":1235:1286   */\n      tag_83\n        /* \"#utility.yul\":1278:1285   */\n      dup5\n        /* \"#utility.yul\":1269:1275   */\n      dup3\n        /* \"#utility.yul\":1258:1267   */\n      dup6\n        /* \"#utility.yul\":1254:1276   */\n      add\n        /* \"#utility.yul\":1235:1286   */\n      tag_68\n      jump\t// in\n    tag_83:\n        /* \"#utility.yul\":1225:1286   */\n      swap2\n      pop\n        /* \"#utility.yul\":1181:1296   */\n      pop\n        /* \"#utility.yul\":978:1303   */\n      swap3\n      swap2\n      pop\n      pop\n      jump\t// out\n        /* \"#utility.yul\":1309:1418   */\n    tag_84:\n        /* \"#utility.yul\":1390:1411   */\n      tag_86\n        /* \"#utility.yul\":1405:1410   */\n      dup2\n        /* \"#utility.yul\":1390:1411   */\n      tag_87\n      jump\t// in\n    tag_86:\n        /* \"#utility.yul\":1385:1388   */\n      dup3\n        /* \"#utility.yul\":1378:1412   */\n      mstore\n        /* \"#utility.yul\":1309:1418   */\n      pop\n      pop\n      jump\t// out\n        /* \"#utility.yul\":1448:1752   */\n    tag_88:\n        /* \"#utility.yul\":1546:1549   */\n      0x00\n        /* \"#utility.yul\":1567:1638   */\n      tag_90\n        /* \"#utility.yul\":1631:1637   */\n      dup4\n        /* \"#utility.yul\":1626:1629   */\n      dup6\n        /* \"#utility.yul\":1567:1638   */\n      tag_91\n      jump\t// in\n    tag_90:\n        /* \"#utility.yul\":1560:1638   */\n      swap4\n      pop\n        /* \"#utility.yul\":1648:1691   */\n      tag_92\n        /* \"#utility.yul\":1684:1690   */\n      dup4\n        /* \"#utility.yul\":1679:1682   */\n      dup6\n        /* \"#utility.yul\":1672:1677   */\n      dup5\n        /* \"#utility.yul\":1648:1691   */\n      tag_93\n      jump\t// in\n    tag_92:\n        /* \"#utility.yul\":1716:1745   */\n      tag_94\n        /* \"#utility.yul\":1738:1744   */\n      dup4\n        /* \"#utility.yul\":1716:1745   */\n      tag_95\n      jump\t// in\n    tag_94:\n        /* \"#utility.yul\":1711:1714   */\n      dup5\n        /* \"#utility.yul\":1707:1746   */\n      add\n        /* \"#utility.yul\":1700:1746   */\n      swap1\n      pop\n        /* \"#utility.yul\":1448:1752   */\n      swap4\n      swap3\n      pop\n      pop\n      pop\n      jump\t// out\n        /* \"#utility.yul\":1758:2124   */\n    tag_96:\n        /* \"#utility.yul\":1900:1903   */\n      0x00\n        /* \"#utility.yul\":1921:1988   */\n      tag_98\n        /* \"#utility.yul\":1985:1987   */\n      0x1e\n        /* \"#utility.yul\":1980:1983   */\n      dup4\n        /* \"#utility.yul\":1921:1988   */\n      tag_91\n      jump\t// in\n    tag_98:\n        /* \"#utility.yul\":1914:1988   */\n      swap2\n      pop\n        /* \"#utility.yul\":1997:2090   */\n      tag_99\n        /* \"#utility.yul\":2086:2089   */\n      dup3\n        /* \"#utility.yul\":1997:2090   */\n      tag_100\n      jump\t// in\n    tag_99:\n        /* \"#utility.yul\":2115:2117   */\n      0x20\n        /* \"#utility.yul\":2110:2113   */\n      dup3\n        /* \"#utility.yul\":2106:2118   */\n      add\n        /* \"#utility.yul\":2099:2118   */\n      swap1\n      pop\n        /* \"#utility.yul\":1758:2124   */\n      swap2\n      swap1\n      pop\n      jump\t// out\n        /* \"#utility.yul\":2130:2496   */\n    tag_101:\n        /* \"#utility.yul\":2272:2275   */\n      0x00\n        /* \"#utility.yul\":2293:2360   */\n      tag_103\n        /* \"#utility.yul\":2357:2359   */\n      0x15\n        /* \"#utility.yul\":2352:2355   */\n      dup4\n        /* \"#utility.yul\":2293:2360   */\n      tag_91\n      jump\t// in\n    tag_103:\n        /* \"#utility.yul\":2286:2360   */\n      swap2\n      pop\n        /* \"#utility.yul\":2369:2462   */\n      tag_104\n        /* \"#utility.yul\":2458:2461   */\n      dup3\n        /* \"#utility.yul\":2369:2462   */\n      tag_105\n      jump\t// in\n    tag_104:\n        /* \"#utility.yul\":2487:2489   */\n      0x20\n        /* \"#utility.yul\":2482:2485   */\n      dup3\n        /* \"#utility.yul\":2478:2490   */\n      add\n        /* \"#utility.yul\":2471:2490   */\n      swap1\n      pop\n        /* \"#utility.yul\":2130:2496   */\n      swap2\n      swap1\n      pop\n      jump\t// out\n        /* \"#utility.yul\":2502:2868   */\n    tag_106:\n        /* \"#utility.yul\":2644:2647   */\n      0x00\n        /* \"#utility.yul\":2665:2732   */\n      tag_108\n        /* \"#utility.yul\":2729:2731   */\n      0x20\n        /* \"#utility.yul\":2724:2727   */\n      dup4\n        /* \"#utility.yul\":2665:2732   */\n      tag_91\n      jump\t// in\n    tag_108:\n        /* \"#utility.yul\":2658:2732   */\n      swap2\n      pop\n        /* \"#utility.yul\":2741:2834   */\n      tag_109\n        /* \"#utility.yul\":2830:2833   */\n      dup3\n        /* \"#utility.yul\":2741:2834   */\n      tag_110\n      jump\t// in\n    tag_109:\n        /* \"#utility.yul\":2859:2861   */\n      0x20\n        /* \"#utility.yul\":2854:2857   */\n      dup3\n        /* \"#utility.yul\":2850:2862   */\n      add\n        /* \"#utility.yul\":2843:2862   */\n      swap1\n      pop\n        /* \"#utility.yul\":2502:2868   */\n      swap2\n      swap1\n      pop\n      jump\t// out\n        /* \"#utility.yul\":2874:2986   */\n    tag_111:\n        /* \"#utility.yul\":2957:2979   */\n      tag_113\n        /* \"#utility.yul\":2973:2978   */\n      dup2\n        /* \"#utility.yul\":2957:2979   */\n      tag_114\n      jump\t// in\n    tag_113:\n        /* \"#utility.yul\":2952:2955   */\n      dup3\n        /* \"#utility.yul\":2945:2980   */\n      mstore\n        /* \"#utility.yul\":2874:2986   */\n      pop\n      pop\n      jump\t// out\n        /* \"#utility.yul\":2992:3202   */\n    tag_31:\n        /* \"#utility.yul\":3079:3083   */\n      0x00\n        /* \"#utility.yul\":3117:3119   */\n      0x20\n        /* \"#utility.yul\":3106:3115   */\n      dup3\n        /* \"#utility.yul\":3102:3120   */\n      add\n        /* \"#utility.yul\":3094:3120   */\n      swap1\n      pop\n        /* \"#utility.yul\":3130:3195   */\n      tag_116\n        /* \"#utility.yul\":3192:3193   */\n      0x00\n        /* \"#utility.yul\":3181:3190   */\n      dup4\n        /* \"#utility.yul\":3177:3194   */\n      add\n        /* \"#utility.yul\":3168:3174   */\n      dup5\n        /* \"#utility.yul\":3130:3195   */\n      tag_84\n      jump\t// in\n    tag_116:\n        /* \"#utility.yul\":2992:3202   */\n      swap3\n      swap2\n      pop\n      pop\n      jump\t// out\n        /* \"#utility.yul\":3208:3627   */\n    tag_43:\n        /* \"#utility.yul\":3374:3378   */\n      0x00\n        /* \"#utility.yul\":3412:3414   */\n      0x20\n        /* \"#utility.yul\":3401:3410   */\n      dup3\n        /* \"#utility.yul\":3397:3415   */\n      add\n        /* \"#utility.yul\":3389:3415   */\n      swap1\n      pop\n        /* \"#utility.yul\":3461:3470   */\n      dup2\n        /* \"#utility.yul\":3455:3459   */\n      dup2\n        /* \"#utility.yul\":3451:3471   */\n      sub\n        /* \"#utility.yul\":3447:3448   */\n      0x00\n        /* \"#utility.yul\":3436:3445   */\n      dup4\n        /* \"#utility.yul\":3432:3449   */\n      add\n        /* \"#utility.yul\":3425:3472   */\n      mstore\n        /* \"#utility.yul\":3489:3620   */\n      tag_118\n        /* \"#utility.yul\":3615:3619   */\n      dup2\n        /* \"#utility.yul\":3489:3620   */\n      tag_96\n      jump\t// in\n    tag_118:\n        /* \"#utility.yul\":3481:3620   */\n      swap1\n      pop\n        /* \"#utility.yul\":3208:3627   */\n      swap2\n      swap1\n      pop\n      jump\t// out\n        /* \"#utility.yul\":3633:4052   */\n    tag_51:\n        /* \"#utility.yul\":3799:3803   */\n      0x00\n        /* \"#utility.yul\":3837:3839   */\n      0x20\n        /* \"#utility.yul\":3826:3835   */\n      dup3\n        /* \"#utility.yul\":3822:3840   */\n      add\n        /* \"#utility.yul\":3814:3840   */\n      swap1\n      pop\n        /* \"#utility.yul\":3886:3895   */\n      dup2\n        /* \"#utility.yul\":3880:3884   */\n      dup2\n        /* \"#utility.yul\":3876:3896   */\n      sub\n        /* \"#utility.yul\":3872:3873   */\n      0x00\n        /* \"#utility.yul\":3861:3870   */\n      dup4\n        /* \"#utility.yul\":3857:3874   */\n      add\n        /* \"#utility.yul\":3850:3897   */\n      mstore\n        /* \"#utility.yul\":3914:4045   */\n      tag_120\n        /* \"#utility.yul\":4040:4044   */\n      dup2\n        /* \"#utility.yul\":3914:4045   */\n      tag_101\n      jump\t// in\n    tag_120:\n        /* \"#utility.yul\":3906:4045   */\n      swap1\n      pop\n        /* \"#utility.yul\":3633:4052   */\n      swap2\n      swap1\n      pop\n      jump\t// out\n        /* \"#utility.yul\":4058:4477   */\n    tag_48:\n        /* \"#utility.yul\":4224:4228   */\n      0x00\n        /* \"#utility.yul\":4262:4264   */\n      0x20\n        /* \"#utility.yul\":4251:4260   */\n      dup3\n        /* \"#utility.yul\":4247:4265   */\n      add\n        /* \"#utility.yul\":4239:4265   */\n      swap1\n      pop\n        /* \"#utility.yul\":4311:4320   */\n      dup2\n        /* \"#utility.yul\":4305:4309   */\n      dup2\n        /* \"#utility.yul\":4301:4321   */\n      sub\n        /* \"#utility.yul\":4297:4298   */\n      0x00\n        /* \"#utility.yul\":4286:4295   */\n      dup4\n        /* \"#utility.yul\":4282:4299   */\n      add\n        /* \"#utility.yul\":4275:4322   */\n      mstore\n        /* \"#utility.yul\":4339:4470   */\n      tag_122\n        /* \"#utility.yul\":4465:4469   */\n      dup2\n        /* \"#utility.yul\":4339:4470   */\n      tag_106\n      jump\t// in\n    tag_122:\n        /* \"#utility.yul\":4331:4470   */\n      swap1\n      pop\n        /* \"#utility.yul\":4058:4477   */\n      swap2\n      swap1\n      pop\n      jump\t// out\n        /* \"#utility.yul\":4483:4697   */\n    tag_14:\n        /* \"#utility.yul\":4572:4576   */\n      0x00\n        /* \"#utility.yul\":4610:4612   */\n      0x20\n        /* \"#utility.yul\":4599:4608   */\n      dup3\n        /* \"#utility.yul\":4595:4613   */\n      add\n        /* \"#utility.yul\":4587:4613   */\n      swap1\n      pop\n        /* \"#utility.yul\":4623:4690   */\n      tag_124\n        /* \"#utility.yul\":4687:4688   */\n      0x00\n        /* \"#utility.yul\":4676:4685   */\n      dup4\n        /* \"#utility.yul\":4672:4689   */\n      add\n        /* \"#utility.yul\":4663:4669   */\n      dup5\n        /* \"#utility.yul\":4623:4690   */\n      tag_111\n      jump\t// in\n    tag_124:\n        /* \"#utility.yul\":4483:4697   */\n      swap3\n      swap2\n      pop\n      pop\n      jump\t// out\n        /* \"#utility.yul\":4703:5240   */\n    tag_61:\n        /* \"#utility.yul\":4874:4878   */\n      0x00\n        /* \"#utility.yul\":4912:4914   */\n      0x60\n        /* \"#utility.yul\":4901:4910   */\n      dup3\n        /* \"#utility.yul\":4897:4915   */\n      add\n        /* \"#utility.yul\":4889:4915   */\n      swap1\n      pop\n        /* \"#utility.yul\":4925:4992   */\n      tag_126\n        /* \"#utility.yul\":4989:4990   */\n      0x00\n        /* \"#utility.yul\":4978:4987   */\n      dup4\n        /* \"#utility.yul\":4974:4991   */\n      add\n        /* \"#utility.yul\":4965:4971   */\n      dup8\n        /* \"#utility.yul\":4925:4992   */\n      tag_111\n      jump\t// in\n    tag_126:\n        /* \"#utility.yul\":5002:5070   */\n      tag_127\n        /* \"#utility.yul\":5066:5068   */\n      0x20\n        /* \"#utility.yul\":5055:5064   */\n      dup4\n        /* \"#utility.yul\":5051:5069   */\n      add\n        /* \"#utility.yul\":5042:5048   */\n      dup7\n        /* \"#utility.yul\":5002:5070   */\n      tag_111\n      jump\t// in\n    tag_127:\n        /* \"#utility.yul\":5117:5126   */\n      dup2\n        /* \"#utility.yul\":5111:5115   */\n      dup2\n        /* \"#utility.yul\":5107:5127   */\n      sub\n        /* \"#utility.yul\":5102:5104   */\n      0x40\n        /* \"#utility.yul\":5091:5100   */\n      dup4\n        /* \"#utility.yul\":5087:5105   */\n      add\n        /* \"#utility.yul\":5080:5128   */\n      mstore\n        /* \"#utility.yul\":5145:5233   */\n      tag_128\n        /* \"#utility.yul\":5228:5232   */\n      dup2\n        /* \"#utility.yul\":5219:5225   */\n      dup5\n        /* \"#utility.yul\":5211:5217   */\n      dup7\n        /* \"#utility.yul\":5145:5233   */\n      tag_88\n      jump\t// in\n    tag_128:\n        /* \"#utility.yul\":5137:5233   */\n      swap1\n      pop\n        /* \"#utility.yul\":4703:5240   */\n      swap6\n      swap5\n      pop\n      pop\n      pop\n      pop\n      pop\n      jump\t// out\n        /* \"#utility.yul\":5246:5971   */\n    tag_59:\n        /* \"#utility.yul\":5324:5328   */\n      0x00\n        /* \"#utility.yul\":5330:5336   */\n      dup1\n        /* \"#utility.yul\":5386:5397   */\n      dup4\n        /* \"#utility.yul\":5373:5398   */\n      calldataload\n        /* \"#utility.yul\":5486:5487   */\n      0x01\n        /* \"#utility.yul\":5480:5484   */\n      0x20\n        /* \"#utility.yul\":5476:5488   */\n      sub\n        /* \"#utility.yul\":5465:5473   */\n      dup5\n        /* \"#utility.yul\":5449:5463   */\n      calldatasize\n        /* \"#utility.yul\":5445:5474   */\n      sub\n        /* \"#utility.yul\":5441:5489   */\n      sub\n        /* \"#utility.yul\":5421:5439   */\n      dup2\n        /* \"#utility.yul\":5417:5490   */\n      slt\n        /* \"#utility.yul\":5407:5575   */\n      tag_130\n      jumpi\n        /* \"#utility.yul\":5494:5573   */\n      tag_131\n      tag_132\n      jump\t// in\n    tag_131:\n        /* \"#utility.yul\":5407:5575   */\n    tag_130:\n        /* \"#utility.yul\":5606:5624   */\n      dup1\n        /* \"#utility.yul\":5596:5604   */\n      dup5\n        /* \"#utility.yul\":5592:5625   */\n      add\n        /* \"#utility.yul\":5584:5625   */\n      swap3\n      pop\n        /* \"#utility.yul\":5658:5662   */\n      dup3\n        /* \"#utility.yul\":5645:5663   */\n      calldataload\n        /* \"#utility.yul\":5635:5663   */\n      swap2\n      pop\n        /* \"#utility.yul\":5686:5704   */\n      0xffffffffffffffff\n        /* \"#utility.yul\":5678:5684   */\n      dup3\n        /* \"#utility.yul\":5675:5705   */\n      gt\n        /* \"#utility.yul\":5672:5789   */\n      iszero\n      tag_133\n      jumpi\n        /* \"#utility.yul\":5708:5787   */\n      tag_134\n      tag_135\n      jump\t// in\n    tag_134:\n        /* \"#utility.yul\":5672:5789   */\n    tag_133:\n        /* \"#utility.yul\":5816:5818   */\n      0x20\n        /* \"#utility.yul\":5810:5814   */\n      dup4\n        /* \"#utility.yul\":5806:5819   */\n      add\n        /* \"#utility.yul\":5798:5819   */\n      swap3\n      pop\n        /* \"#utility.yul\":5873:5877   */\n      0x01\n        /* \"#utility.yul\":5865:5871   */\n      dup3\n        /* \"#utility.yul\":5861:5878   */\n      mul\n        /* \"#utility.yul\":5845:5859   */\n      calldatasize\n        /* \"#utility.yul\":5841:5879   */\n      sub\n        /* \"#utility.yul\":5835:5839   */\n      dup4\n        /* \"#utility.yul\":5831:5880   */\n      sgt\n        /* \"#utility.yul\":5828:5964   */\n      iszero\n      tag_136\n      jumpi\n        /* \"#utility.yul\":5883:5962   */\n      tag_137\n      tag_138\n      jump\t// in\n    tag_137:\n        /* \"#utility.yul\":5828:5964   */\n    tag_136:\n        /* \"#utility.yul\":5337:5971   */\n      pop\n        /* \"#utility.yul\":5246:5971   */\n      swap3\n      pop\n      swap3\n      swap1\n      pop\n      jump\t// out\n        /* \"#utility.yul\":6058:6227   */\n    tag_91:\n        /* \"#utility.yul\":6142:6153   */\n      0x00\n        /* \"#utility.yul\":6176:6182   */\n      dup3\n        /* \"#utility.yul\":6171:6174   */\n      dup3\n        /* \"#utility.yul\":6164:6183   */\n      mstore\n        /* \"#utility.yul\":6216:6220   */\n      0x20\n        /* \"#utility.yul\":6211:6214   */\n      dup3\n        /* \"#utility.yul\":6207:6221   */\n      add\n        /* \"#utility.yul\":6192:6221   */\n      swap1\n      pop\n        /* \"#utility.yul\":6058:6227   */\n      swap3\n      swap2\n      pop\n      pop\n      jump\t// out\n        /* \"#utility.yul\":6233:6470   */\n    tag_56:\n        /* \"#utility.yul\":6271:6274   */\n      0x00\n        /* \"#utility.yul\":6290:6308   */\n      tag_143\n        /* \"#utility.yul\":6306:6307   */\n      dup3\n        /* \"#utility.yul\":6290:6308   */\n      tag_114\n      jump\t// in\n    tag_143:\n        /* \"#utility.yul\":6285:6308   */\n      swap2\n      pop\n        /* \"#utility.yul\":6322:6340   */\n      tag_144\n        /* \"#utility.yul\":6338:6339   */\n      dup4\n        /* \"#utility.yul\":6322:6340   */\n      tag_114\n      jump\t// in\n    tag_144:\n        /* \"#utility.yul\":6317:6340   */\n      swap3\n      pop\n        /* \"#utility.yul\":6412:6413   */\n      dup3\n        /* \"#utility.yul\":6406:6410   */\n      0xff\n        /* \"#utility.yul\":6402:6414   */\n      sub\n        /* \"#utility.yul\":6399:6400   */\n      dup3\n        /* \"#utility.yul\":6396:6415   */\n      gt\n        /* \"#utility.yul\":6393:6438   */\n      iszero\n      tag_145\n      jumpi\n        /* \"#utility.yul\":6418:6436   */\n      tag_146\n      tag_147\n      jump\t// in\n    tag_146:\n        /* \"#utility.yul\":6393:6438   */\n    tag_145:\n        /* \"#utility.yul\":6462:6463   */\n      dup3\n        /* \"#utility.yul\":6459:6460   */\n      dup3\n        /* \"#utility.yul\":6455:6464   */\n      add\n        /* \"#utility.yul\":6448:6464   */\n      swap1\n      pop\n        /* \"#utility.yul\":6233:6470   */\n      swap3\n      swap2\n      pop\n      pop\n      jump\t// out\n        /* \"#utility.yul\":6476:6566   */\n    tag_87:\n        /* \"#utility.yul\":6510:6517   */\n      0x00\n        /* \"#utility.yul\":6553:6558   */\n      dup2\n        /* \"#utility.yul\":6546:6559   */\n      iszero\n        /* \"#utility.yul\":6539:6560   */\n      iszero\n        /* \"#utility.yul\":6528:6560   */\n      swap1\n      pop\n        /* \"#utility.yul\":6476:6566   */\n      swap2\n      swap1\n      pop\n      jump\t// out\n        /* \"#utility.yul\":6572:6658   */\n    tag_114:\n        /* \"#utility.yul\":6607:6614   */\n      0x00\n        /* \"#utility.yul\":6647:6651   */\n      0xff\n        /* \"#utility.yul\":6640:6645   */\n      dup3\n        /* \"#utility.yul\":6636:6652   */\n      and\n        /* \"#utility.yul\":6625:6652   */\n      swap1\n      pop\n        /* \"#utility.yul\":6572:6658   */\n      swap2\n      swap1\n      pop\n      jump\t// out\n        /* \"#utility.yul\":6664:6818   */\n    tag_93:\n        /* \"#utility.yul\":6748:6754   */\n      dup3\n        /* \"#utility.yul\":6743:6746   */\n      dup2\n        /* \"#utility.yul\":6738:6741   */\n      dup4\n        /* \"#utility.yul\":6725:6755   */\n      calldatacopy\n        /* \"#utility.yul\":6810:6811   */\n      0x00\n        /* \"#utility.yul\":6801:6807   */\n      dup4\n        /* \"#utility.yul\":6796:6799   */\n      dup4\n        /* \"#utility.yul\":6792:6808   */\n      add\n        /* \"#utility.yul\":6785:6812   */\n      mstore\n        /* \"#utility.yul\":6664:6818   */\n      pop\n      pop\n      pop\n      jump\t// out\n        /* \"#utility.yul\":6824:7004   */\n    tag_147:\n        /* \"#utility.yul\":6872:6949   */\n      0x4e487b7100000000000000000000000000000000000000000000000000000000\n        /* \"#utility.yul\":6869:6870   */\n      0x00\n        /* \"#utility.yul\":6862:6950   */\n      mstore\n        /* \"#utility.yul\":6969:6973   */\n      0x11\n        /* \"#utility.yul\":6966:6967   */\n      0x04\n        /* \"#utility.yul\":6959:6974   */\n      mstore\n        /* \"#utility.yul\":6993:6997   */\n      0x24\n        /* \"#utility.yul\":6990:6991   */\n      0x00\n        /* \"#utility.yul\":6983:6998   */\n      revert\n        /* \"#utility.yul\":7010:7127   */\n    tag_135:\n        /* \"#utility.yul\":7119:7120   */\n      0x00\n        /* \"#utility.yul\":7116:7117   */\n      dup1\n        /* \"#utility.yul\":7109:7121   */\n      revert\n        /* \"#utility.yul\":7133:7250   */\n    tag_67:\n        /* \"#utility.yul\":7242:7243   */\n      0x00\n        /* \"#utility.yul\":7239:7240   */\n      dup1\n        /* \"#utility.yul\":7232:7244   */\n      revert\n        /* \"#utility.yul\":7256:7373   */\n    tag_132:\n        /* \"#utility.yul\":7365:7366   */\n      0x00\n        /* \"#utility.yul\":7362:7363   */\n      dup1\n        /* \"#utility.yul\":7355:7367   */\n      revert\n        /* \"#utility.yul\":7379:7496   */\n    tag_138:\n        /* \"#utility.yul\":7488:7489   */\n      0x00\n        /* \"#utility.yul\":7485:7486   */\n      dup1\n        /* \"#utility.yul\":7478:7490   */\n      revert\n        /* \"#utility.yul\":7502:7619   */\n    tag_78:\n        /* \"#utility.yul\":7611:7612   */\n      0x00\n        /* \"#utility.yul\":7608:7609   */\n      dup1\n        /* \"#utility.yul\":7601:7613   */\n      revert\n        /* \"#utility.yul\":7625:7742   */\n    tag_75:\n        /* \"#utility.yul\":7734:7735   */\n      0x00\n        /* \"#utility.yul\":7731:7732   */\n      dup1\n        /* \"#utility.yul\":7724:7736   */\n      revert\n        /* \"#utility.yul\":7748:7850   */\n    tag_95:\n        /* \"#utility.yul\":7789:7795   */\n      0x00\n        /* \"#utility.yul\":7840:7842   */\n      0x1f\n        /* \"#utility.yul\":7836:7843   */\n      not\n        /* \"#utility.yul\":7831:7833   */\n      0x1f\n        /* \"#utility.yul\":7824:7829   */\n      dup4\n        /* \"#utility.yul\":7820:7834   */\n      add\n        /* \"#utility.yul\":7816:7844   */\n      and\n        /* \"#utility.yul\":7806:7844   */\n      swap1\n      pop\n        /* \"#utility.yul\":7748:7850   */\n      swap2\n      swap1\n      pop\n      jump\t// out\n        /* \"#utility.yul\":7856:8036   */\n    tag_100:\n        /* \"#utility.yul\":7996:8028   */\n      0x54686520656c656374696f6e2068617320656e64656420616c72656164790000\n        /* \"#utility.yul\":7992:7993   */\n      0x00\n        /* \"#utility.yul\":7984:7990   */\n      dup3\n        /* \"#utility.yul\":7980:7994   */\n      add\n        /* \"#utility.yul\":7973:8029   */\n      mstore\n        /* \"#utility.yul\":7856:8036   */\n      pop\n      jump\t// out\n        /* \"#utility.yul\":8042:8213   */\n    tag_105:\n        /* \"#utility.yul\":8182:8205   */\n      0x54686572652063616e6e6f742062652061207469650000000000000000000000\n        /* \"#utility.yul\":8178:8179   */\n      0x00\n        /* \"#utility.yul\":8170:8176   */\n      dup3\n        /* \"#utility.yul\":8166:8180   */\n      add\n        /* \"#utility.yul\":8159:8206   */\n      mstore\n        /* \"#utility.yul\":8042:8213   */\n      pop\n      jump\t// out\n        /* \"#utility.yul\":8219:8401   */\n    tag_110:\n        /* \"#utility.yul\":8359:8393   */\n      0x537461746573206d7573742068617665206174206c6561737420312073656174\n        /* \"#utility.yul\":8355:8356   */\n      0x00\n        /* \"#utility.yul\":8347:8353   */\n      dup3\n        /* \"#utility.yul\":8343:8357   */\n      add\n        /* \"#utility.yul\":8336:8394   */\n      mstore\n        /* \"#utility.yul\":8219:8401   */\n      pop\n      jump\t// out\n        /* \"#utility.yul\":8407:8525   */\n    tag_71:\n        /* \"#utility.yul\":8478:8500   */\n      tag_163\n        /* \"#utility.yul\":8494:8499   */\n      dup2\n        /* \"#utility.yul\":8478:8500   */\n      tag_114\n      jump\t// in\n    tag_163:\n        /* \"#utility.yul\":8471:8476   */\n      dup2\n        /* \"#utility.yul\":8468:8501   */\n      eq\n        /* \"#utility.yul\":8458:8519   */\n      tag_164\n      jumpi\n        /* \"#utility.yul\":8515:8516   */\n      0x00\n        /* \"#utility.yul\":8512:8513   */\n      dup1\n        /* \"#utility.yul\":8505:8517   */\n      revert\n        /* \"#utility.yul\":8458:8519   */\n    tag_164:\n        /* \"#utility.yul\":8407:8525   */\n      pop\n      jump\t// out\n\n    auxdata: 0xa26469706673582212205a6f708ddd122491a90808a3bf6dc4ce2dcf5fea145d7834524220aed49e35ce64736f6c63430008070033\n}\n",
				"bytecode": {
					"linkReferences": {},
					"object": "608060405234801561001057600080fd5b5061085f806100206000396000f3fe608060405234801561001057600080fd5b506004361061007d5760003560e01c8063713d87c51161005b578063713d87c5146100c8578063ac4bd53a146100f8578063c94ca9e314610116578063e494a883146101345761007d565b80632d78d8e51461008257806359f78468146100a057806369b36bd4146100aa575b600080fd5b61008a610150565b604051610097919061060b565b60405180910390f35b6100a8610155565b005b6100b2610157565b6040516100bf919061060b565b60405180910390f35b6100e260048036038101906100dd91906104af565b61015c565b6040516100ef919061060b565b60405180910390f35b61010061017c565b60405161010d919061060b565b60405180910390f35b61011e610250565b60405161012b9190610590565b60405180910390f35b61014e60048036038101906101499190610466565b610261565b005b600281565b565b600181565b60016020528060005260406000206000915054906101000a900460ff1681565b600060016000600260ff1660ff16815260200190815260200160002060009054906101000a900460ff1660ff1660016000600160ff1660ff16815260200190815260200160002060009054906101000a900460ff1660ff1611156101e3576001905061024d565b60016000600160ff1660ff16815260200190815260200160002060009054906101000a900460ff1660ff1660016000600260ff1660ff16815260200190815260200160002060009054906101000a900460ff1660ff161115610248576002905061024d565b600090505b90565b60008054906101000a900460ff1681565b60008054906101000a900460ff16156102af576040517f08c379a00000000000000000000000000000000000000000000000000000000081526004016102a6906105ab565b60405180910390fd5b60008160600160208101906102c491906104af565b60ff1611610307576040517f08c379a00000000000000000000000000000000000000000000000000000000081526004016102fe906105eb565b60405180910390fd5b806040013581602001351415610352576040517f08c379a0000000000000000000000000000000000000000000000000000000008152600401610349906105cb565b60405180910390fd5b600081604001358260200135111561036d5760019050610372565b600290505b81606001602081019061038591906104af565b600160008360ff1660ff16815260200190815260200160002060008282829054906101000a900460ff166103b991906106da565b92506101000a81548160ff021916908360ff1602179055507fa2e71fe38f1afa3762cf9d2ea7bb6a4d272a90fd6f9392f3acedd3b542046b468183606001602081019061040691906104af565b8480600001906104169190610666565b6040516104269493929190610626565b60405180910390a15050565b6000608082840312156104485761044761076d565b5b81905092915050565b60008135905061046081610812565b92915050565b60006020828403121561047c5761047b610781565b5b600082013567ffffffffffffffff81111561049a5761049961077c565b5b6104a684828501610432565b91505092915050565b6000602082840312156104c5576104c4610781565b5b60006104d384828501610451565b91505092915050565b6104e581610711565b82525050565b60006104f783856106c9565b935061050483858461072a565b61050d83610786565b840190509392505050565b6000610525601e836106c9565b915061053082610797565b602082019050919050565b60006105486015836106c9565b9150610553826107c0565b602082019050919050565b600061056b6020836106c9565b9150610576826107e9565b602082019050919050565b61058a8161071d565b82525050565b60006020820190506105a560008301846104dc565b92915050565b600060208201905081810360008301526105c481610518565b9050919050565b600060208201905081810360008301526105e48161053b565b9050919050565b600060208201905081810360008301526106048161055e565b9050919050565b60006020820190506106206000830184610581565b92915050565b600060608201905061063b6000830187610581565b6106486020830186610581565b818103604083015261065b8184866104eb565b905095945050505050565b6000808335600160200384360303811261068357610682610772565b5b80840192508235915067ffffffffffffffff8211156106a5576106a4610768565b5b6020830192506001820236038313156106c1576106c0610777565b5b509250929050565b600082825260208201905092915050565b60006106e58261071d565b91506106f08361071d565b92508260ff0382111561070657610705610739565b5b828201905092915050565b60008115159050919050565b600060ff82169050919050565b82818337600083830152505050565b7f4e487b7100000000000000000000000000000000000000000000000000000000600052601160045260246000fd5b600080fd5b600080fd5b600080fd5b600080fd5b600080fd5b600080fd5b6000601f19601f8301169050919050565b7f54686520656c656374696f6e2068617320656e64656420616c72656164790000600082015250565b7f54686572652063616e6e6f742062652061207469650000000000000000000000600082015250565b7f537461746573206d7573742068617665206174206c6561737420312073656174600082015250565b61081b8161071d565b811461082657600080fd5b5056fea26469706673582212205a6f708ddd122491a90808a3bf6dc4ce2dcf5fea145d7834524220aed49e35ce64736f6c63430008070033",
					"opcodes": "PUSH1 0x80 PUSH1 0x40 MSTORE CALLVALUE DUP1 ISZERO PUSH2 0x10 JUMPI PUSH1 0x0 DUP1 REVERT JUMPDEST POP PUSH2 0x85F DUP1 PUSH2 0x20 PUSH1 0x0 CODECOPY PUSH1 0x0 RETURN INVALID PUSH1 0x80 PUSH1 0x40 MSTORE CALLVALUE DUP1 ISZERO PUSH2 0x10 JUMPI PUSH1 0x0 DUP1 REVERT JUMPDEST POP PUSH1 0x4 CALLDATASIZE LT PUSH2 0x7D JUMPI PUSH1 0x0 CALLDATALOAD PUSH1 0xE0 SHR DUP1 PUSH4 0x713D87C5 GT PUSH2 0x5B JUMPI DUP1 PUSH4 0x713D87C5 EQ PUSH2 0xC8 JUMPI DUP1 PUSH4 0xAC4BD53A EQ PUSH2 0xF8 JUMPI DUP1 PUSH4 0xC94CA9E3 EQ PUSH2 0x116 JUMPI DUP1 PUSH4 0xE494A883 EQ PUSH2 0x134 JUMPI PUSH2 0x7D JUMP JUMPDEST DUP1 PUSH4 0x2D78D8E5 EQ PUSH2 0x82 JUMPI DUP1 PUSH4 0x59F78468 EQ PUSH2 0xA0 JUMPI DUP1 PUSH4 0x69B36BD4 EQ PUSH2 0xAA JUMPI JUMPDEST PUSH1 0x0 DUP1 REVERT JUMPDEST PUSH2 0x8A PUSH2 0x150 JUMP JUMPDEST PUSH1 0x40 MLOAD PUSH2 0x97 SWAP2 SWAP1 PUSH2 0x60B JUMP JUMPDEST PUSH1 0x40 MLOAD DUP1 SWAP2 SUB SWAP1 RETURN JUMPDEST PUSH2 0xA8 PUSH2 0x155 JUMP JUMPDEST STOP JUMPDEST PUSH2 0xB2 PUSH2 0x157 JUMP JUMPDEST PUSH1 0x40 MLOAD PUSH2 0xBF SWAP2 SWAP1 PUSH2 0x60B JUMP JUMPDEST PUSH1 0x40 MLOAD DUP1 SWAP2 SUB SWAP1 RETURN JUMPDEST PUSH2 0xE2 PUSH1 0x4 DUP1 CALLDATASIZE SUB DUP2 ADD SWAP1 PUSH2 0xDD SWAP2 SWAP1 PUSH2 0x4AF JUMP JUMPDEST PUSH2 0x15C JUMP JUMPDEST PUSH1 0x40 MLOAD PUSH2 0xEF SWAP2 SWAP1 PUSH2 0x60B JUMP JUMPDEST PUSH1 0x40 MLOAD DUP1 SWAP2 SUB SWAP1 RETURN JUMPDEST PUSH2 0x100 PUSH2 0x17C JUMP JUMPDEST PUSH1 0x40 MLOAD PUSH2 0x10D SWAP2 SWAP1 PUSH2 0x60B JUMP JUMPDEST PUSH1 0x40 MLOAD DUP1 SWAP2 SUB SWAP1 RETURN JUMPDEST PUSH2 0x11E PUSH2 0x250 JUMP JUMPDEST PUSH1 0x40 MLOAD PUSH2 0x12B SWAP2 SWAP1 PUSH2 0x590 JUMP JUMPDEST PUSH1 0x40 MLOAD DUP1 SWAP2 SUB SWAP1 RETURN JUMPDEST PUSH2 0x14E PUSH1 0x4 DUP1 CALLDATASIZE SUB DUP2 ADD SWAP1 PUSH2 0x149 SWAP2 SWAP1 PUSH2 0x466 JUMP JUMPDEST PUSH2 0x261 JUMP JUMPDEST STOP JUMPDEST PUSH1 0x2 DUP2 JUMP JUMPDEST JUMP JUMPDEST PUSH1 0x1 DUP2 JUMP JUMPDEST PUSH1 0x1 PUSH1 0x20 MSTORE DUP1 PUSH1 0x0 MSTORE PUSH1 0x40 PUSH1 0x0 KECCAK256 PUSH1 0x0 SWAP2 POP SLOAD SWAP1 PUSH2 0x100 EXP SWAP1 DIV PUSH1 0xFF AND DUP2 JUMP JUMPDEST PUSH1 0x0 PUSH1 0x1 PUSH1 0x0 PUSH1 0x2 PUSH1 0xFF AND PUSH1 0xFF AND DUP2 MSTORE PUSH1 0x20 ADD SWAP1 DUP2 MSTORE PUSH1 0x20 ADD PUSH1 0x0 KECCAK256 PUSH1 0x0 SWAP1 SLOAD SWAP1 PUSH2 0x100 EXP SWAP1 DIV PUSH1 0xFF AND PUSH1 0xFF AND PUSH1 0x1 PUSH1 0x0 PUSH1 0x1 PUSH1 0xFF AND PUSH1 0xFF AND DUP2 MSTORE PUSH1 0x20 ADD SWAP1 DUP2 MSTORE PUSH1 0x20 ADD PUSH1 0x0 KECCAK256 PUSH1 0x0 SWAP1 SLOAD SWAP1 PUSH2 0x100 EXP SWAP1 DIV PUSH1 0xFF AND PUSH1 0xFF AND GT ISZERO PUSH2 0x1E3 JUMPI PUSH1 0x1 SWAP1 POP PUSH2 0x24D JUMP JUMPDEST PUSH1 0x1 PUSH1 0x0 PUSH1 0x1 PUSH1 0xFF AND PUSH1 0xFF AND DUP2 MSTORE PUSH1 0x20 ADD SWAP1 DUP2 MSTORE PUSH1 0x20 ADD PUSH1 0x0 KECCAK256 PUSH1 0x0 SWAP1 SLOAD SWAP1 PUSH2 0x100 EXP SWAP1 DIV PUSH1 0xFF AND PUSH1 0xFF AND PUSH1 0x1 PUSH1 0x0 PUSH1 0x2 PUSH1 0xFF AND PUSH1 0xFF AND DUP2 MSTORE PUSH1 0x20 ADD SWAP1 DUP2 MSTORE PUSH1 0x20 ADD PUSH1 0x0 KECCAK256 PUSH1 0x0 SWAP1 SLOAD SWAP1 PUSH2 0x100 EXP SWAP1 DIV PUSH1 0xFF AND PUSH1 0xFF AND GT ISZERO PUSH2 0x248 JUMPI PUSH1 0x2 SWAP1 POP PUSH2 0x24D JUMP JUMPDEST PUSH1 0x0 SWAP1 POP JUMPDEST SWAP1 JUMP JUMPDEST PUSH1 0x0 DUP1 SLOAD SWAP1 PUSH2 0x100 EXP SWAP1 DIV PUSH1 0xFF AND DUP2 JUMP JUMPDEST PUSH1 0x0 DUP1 SLOAD SWAP1 PUSH2 0x100 EXP SWAP1 DIV PUSH1 0xFF AND ISZERO PUSH2 0x2AF JUMPI PUSH1 0x40 MLOAD PUSH32 0x8C379A000000000000000000000000000000000000000000000000000000000 DUP2 MSTORE PUSH1 0x4 ADD PUSH2 0x2A6 SWAP1 PUSH2 0x5AB JUMP JUMPDEST PUSH1 0x40 MLOAD DUP1 SWAP2 SUB SWAP1 REVERT JUMPDEST PUSH1 0x0 DUP2 PUSH1 0x60 ADD PUSH1 0x20 DUP2 ADD SWAP1 PUSH2 0x2C4 SWAP2 SWAP1 PUSH2 0x4AF JUMP JUMPDEST PUSH1 0xFF AND GT PUSH2 0x307 JUMPI PUSH1 0x40 MLOAD PUSH32 0x8C379A000000000000000000000000000000000000000000000000000000000 DUP2 MSTORE PUSH1 0x4 ADD PUSH2 0x2FE SWAP1 PUSH2 0x5EB JUMP JUMPDEST PUSH1 0x40 MLOAD DUP1 SWAP2 SUB SWAP1 REVERT JUMPDEST DUP1 PUSH1 0x40 ADD CALLDATALOAD DUP2 PUSH1 0x20 ADD CALLDATALOAD EQ ISZERO PUSH2 0x352 JUMPI PUSH1 0x40 MLOAD PUSH32 0x8C379A000000000000000000000000000000000000000000000000000000000 DUP2 MSTORE PUSH1 0x4 ADD PUSH2 0x349 SWAP1 PUSH2 0x5CB JUMP JUMPDEST PUSH1 0x40 MLOAD DUP1 SWAP2 SUB SWAP1 REVERT JUMPDEST PUSH1 0x0 DUP2 PUSH1 0x40 ADD CALLDATALOAD DUP3 PUSH1 0x20 ADD CALLDATALOAD GT ISZERO PUSH2 0x36D JUMPI PUSH1 0x1 SWAP1 POP PUSH2 0x372 JUMP JUMPDEST PUSH1 0x2 SWAP1 POP JUMPDEST DUP2 PUSH1 0x60 ADD PUSH1 0x20 DUP2 ADD SWAP1 PUSH2 0x385 SWAP2 SWAP1 PUSH2 0x4AF JUMP JUMPDEST PUSH1 0x1 PUSH1 0x0 DUP4 PUSH1 0xFF AND PUSH1 0xFF AND DUP2 MSTORE PUSH1 0x20 ADD SWAP1 DUP2 MSTORE PUSH1 0x20 ADD PUSH1 0x0 KECCAK256 PUSH1 0x0 DUP3 DUP3 DUP3 SWAP1 SLOAD SWAP1 PUSH2 0x100 EXP SWAP1 DIV PUSH1 0xFF AND PUSH2 0x3B9 SWAP2 SWAP1 PUSH2 0x6DA JUMP JUMPDEST SWAP3 POP PUSH2 0x100 EXP DUP2 SLOAD DUP2 PUSH1 0xFF MUL NOT AND SWAP1 DUP4 PUSH1 0xFF AND MUL OR SWAP1 SSTORE POP PUSH32 0xA2E71FE38F1AFA3762CF9D2EA7BB6A4D272A90FD6F9392F3ACEDD3B542046B46 DUP2 DUP4 PUSH1 0x60 ADD PUSH1 0x20 DUP2 ADD SWAP1 PUSH2 0x406 SWAP2 SWAP1 PUSH2 0x4AF JUMP JUMPDEST DUP5 DUP1 PUSH1 0x0 ADD SWAP1 PUSH2 0x416 SWAP2 SWAP1 PUSH2 0x666 JUMP JUMPDEST PUSH1 0x40 MLOAD PUSH2 0x426 SWAP5 SWAP4 SWAP3 SWAP2 SWAP1 PUSH2 0x626 JUMP JUMPDEST PUSH1 0x40 MLOAD DUP1 SWAP2 SUB SWAP1 LOG1 POP POP JUMP JUMPDEST PUSH1 0x0 PUSH1 0x80 DUP3 DUP5 SUB SLT ISZERO PUSH2 0x448 JUMPI PUSH2 0x447 PUSH2 0x76D JUMP JUMPDEST JUMPDEST DUP2 SWAP1 POP SWAP3 SWAP2 POP POP JUMP JUMPDEST PUSH1 0x0 DUP2 CALLDATALOAD SWAP1 POP PUSH2 0x460 DUP2 PUSH2 0x812 JUMP JUMPDEST SWAP3 SWAP2 POP POP JUMP JUMPDEST PUSH1 0x0 PUSH1 0x20 DUP3 DUP5 SUB SLT ISZERO PUSH2 0x47C JUMPI PUSH2 0x47B PUSH2 0x781 JUMP JUMPDEST JUMPDEST PUSH1 0x0 DUP3 ADD CALLDATALOAD PUSH8 0xFFFFFFFFFFFFFFFF DUP2 GT ISZERO PUSH2 0x49A JUMPI PUSH2 0x499 PUSH2 0x77C JUMP JUMPDEST JUMPDEST PUSH2 0x4A6 DUP5 DUP3 DUP6 ADD PUSH2 0x432 JUMP JUMPDEST SWAP2 POP POP SWAP3 SWAP2 POP POP JUMP JUMPDEST PUSH1 0x0 PUSH1 0x20 DUP3 DUP5 SUB SLT ISZERO PUSH2 0x4C5 JUMPI PUSH2 0x4C4 PUSH2 0x781 JUMP JUMPDEST JUMPDEST PUSH1 0x0 PUSH2 0x4D3 DUP5 DUP3 DUP6 ADD PUSH2 0x451 JUMP JUMPDEST SWAP2 POP POP SWAP3 SWAP2 POP POP JUMP JUMPDEST PUSH2 0x4E5 DUP2 PUSH2 0x711 JUMP JUMPDEST DUP3 MSTORE POP POP JUMP JUMPDEST PUSH1 0x0 PUSH2 0x4F7 DUP4 DUP6 PUSH2 0x6C9 JUMP JUMPDEST SWAP4 POP PUSH2 0x504 DUP4 DUP6 DUP5 PUSH2 0x72A JUMP JUMPDEST PUSH2 0x50D DUP4 PUSH2 0x786 JUMP JUMPDEST DUP5 ADD SWAP1 POP SWAP4 SWAP3 POP POP POP JUMP JUMPDEST PUSH1 0x0 PUSH2 0x525 PUSH1 0x1E DUP4 PUSH2 0x6C9 JUMP JUMPDEST SWAP2 POP PUSH2 0x530 DUP3 PUSH2 0x797 JUMP JUMPDEST PUSH1 0x20 DUP3 ADD SWAP1 POP SWAP2 SWAP1 POP JUMP JUMPDEST PUSH1 0x0 PUSH2 0x548 PUSH1 0x15 DUP4 PUSH2 0x6C9 JUMP JUMPDEST SWAP2 POP PUSH2 0x553 DUP3 PUSH2 0x7C0 JUMP JUMPDEST PUSH1 0x20 DUP3 ADD SWAP1 POP SWAP2 SWAP1 POP JUMP JUMPDEST PUSH1 0x0 PUSH2 0x56B PUSH1 0x20 DUP4 PUSH2 0x6C9 JUMP JUMPDEST SWAP2 POP PUSH2 0x576 DUP3 PUSH2 0x7E9 JUMP JUMPDEST PUSH1 0x20 DUP3 ADD SWAP1 POP SWAP2 SWAP1 POP JUMP JUMPDEST PUSH2 0x58A DUP2 PUSH2 0x71D JUMP JUMPDEST DUP3 MSTORE POP POP JUMP JUMPDEST PUSH1 0x0 PUSH1 0x20 DUP3 ADD SWAP1 POP PUSH2 0x5A5 PUSH1 0x0 DUP4 ADD DUP5 PUSH2 0x4DC JUMP JUMPDEST SWAP3 SWAP2 POP POP JUMP JUMPDEST PUSH1 0x0 PUSH1 0x20 DUP3 ADD SWAP1 POP DUP2 DUP2 SUB PUSH1 0x0 DUP4 ADD MSTORE PUSH2 0x5C4 DUP2 PUSH2 0x518 JUMP JUMPDEST SWAP1 POP SWAP2 SWAP1 POP JUMP JUMPDEST PUSH1 0x0 PUSH1 0x20 DUP3 ADD SWAP1 POP DUP2 DUP2 SUB PUSH1 0x0 DUP4 ADD MSTORE PUSH2 0x5E4 DUP2 PUSH2 0x53B JUMP JUMPDEST SWAP1 POP SWAP2 SWAP1 POP JUMP JUMPDEST PUSH1 0x0 PUSH1 0x20 DUP3 ADD SWAP1 POP DUP2 DUP2 SUB PUSH1 0x0 DUP4 ADD MSTORE PUSH2 0x604 DUP2 PUSH2 0x55E JUMP JUMPDEST SWAP1 POP SWAP2 SWAP1 POP JUMP JUMPDEST PUSH1 0x0 PUSH1 0x20 DUP3 ADD SWAP1 POP PUSH2 0x620 PUSH1 0x0 DUP4 ADD DUP5 PUSH2 0x581 JUMP JUMPDEST SWAP3 SWAP2 POP POP JUMP JUMPDEST PUSH1 0x0 PUSH1 0x60 DUP3 ADD SWAP1 POP PUSH2 0x63B PUSH1 0x0 DUP4 ADD DUP8 PUSH2 0x581 JUMP JUMPDEST PUSH2 0x648 PUSH1 0x20 DUP4 ADD DUP7 PUSH2 0x581 JUMP JUMPDEST DUP2 DUP2 SUB PUSH1 0x40 DUP4 ADD MSTORE PUSH2 0x65B DUP2 DUP5 DUP7 PUSH2 0x4EB JUMP JUMPDEST SWAP1 POP SWAP6 SWAP5 POP POP POP POP POP JUMP JUMPDEST PUSH1 0x0 DUP1 DUP4 CALLDATALOAD PUSH1 0x1 PUSH1 0x20 SUB DUP5 CALLDATASIZE SUB SUB DUP2 SLT PUSH2 0x683 JUMPI PUSH2 0x682 PUSH2 0x772 JUMP JUMPDEST JUMPDEST DUP1 DUP5 ADD SWAP3 POP DUP3 CALLDATALOAD SWAP2 POP PUSH8 0xFFFFFFFFFFFFFFFF DUP3 GT ISZERO PUSH2 0x6A5 JUMPI PUSH2 0x6A4 PUSH2 0x768 JUMP JUMPDEST JUMPDEST PUSH1 0x20 DUP4 ADD SWAP3 POP PUSH1 0x1 DUP3 MUL CALLDATASIZE SUB DUP4 SGT ISZERO PUSH2 0x6C1 JUMPI PUSH2 0x6C0 PUSH2 0x777 JUMP JUMPDEST JUMPDEST POP SWAP3 POP SWAP3 SWAP1 POP JUMP JUMPDEST PUSH1 0x0 DUP3 DUP3 MSTORE PUSH1 0x20 DUP3 ADD SWAP1 POP SWAP3 SWAP2 POP POP JUMP JUMPDEST PUSH1 0x0 PUSH2 0x6E5 DUP3 PUSH2 0x71D JUMP JUMPDEST SWAP2 POP PUSH2 0x6F0 DUP4 PUSH2 0x71D JUMP JUMPDEST SWAP3 POP DUP3 PUSH1 0xFF SUB DUP3 GT ISZERO PUSH2 0x706 JUMPI PUSH2 0x705 PUSH2 0x739 JUMP JUMPDEST JUMPDEST DUP3 DUP3 ADD SWAP1 POP SWAP3 SWAP2 POP POP JUMP JUMPDEST PUSH1 0x0 DUP2 ISZERO ISZERO SWAP1 POP SWAP2 SWAP1 POP JUMP JUMPDEST PUSH1 0x0 PUSH1 0xFF DUP3 AND SWAP1 POP SWAP2 SWAP1 POP JUMP JUMPDEST DUP3 DUP2 DUP4 CALLDATACOPY PUSH1 0x0 DUP4 DUP4 ADD MSTORE POP POP POP JUMP JUMPDEST PUSH32 0x4E487B7100000000000000000000000000000000000000000000000000000000 PUSH1 0x0 MSTORE PUSH1 0x11 PUSH1 0x4 MSTORE PUSH1 0x24 PUSH1 0x0 REVERT JUMPDEST PUSH1 0x0 DUP1 REVERT JUMPDEST PUSH1 0x0 DUP1 REVERT JUMPDEST PUSH1 0x0 DUP1 REVERT JUMPDEST PUSH1 0x0 DUP1 REVERT JUMPDEST PUSH1 0x0 DUP1 REVERT JUMPDEST PUSH1 0x0 DUP1 REVERT JUMPDEST PUSH1 0x0 PUSH1 0x1F NOT PUSH1 0x1F DUP4 ADD AND SWAP1 POP SWAP2 SWAP1 POP JUMP JUMPDEST PUSH32 0x54686520656C656374696F6E2068617320656E64656420616C72656164790000 PUSH1 0x0 DUP3 ADD MSTORE POP JUMP JUMPDEST PUSH32 0x54686572652063616E6E6F742062652061207469650000000000000000000000 PUSH1 0x0 DUP3 ADD MSTORE POP JUMP JUMPDEST PUSH32 0x537461746573206D7573742068617665206174206C6561737420312073656174 PUSH1 0x0 DUP3 ADD MSTORE POP JUMP JUMPDEST PUSH2 0x81B DUP2 PUSH2 0x71D JUMP JUMPDEST DUP2 EQ PUSH2 0x826 JUMPI PUSH1 0x0 DUP1 REVERT JUMPDEST POP JUMP INVALID LOG2 PUSH5 0x6970667358 0x22 SLT KECCAK256 GAS PUSH16 0x708DDD122491A90808A3BF6DC4CE2DCF 0x5F 0xEA EQ 0x5D PUSH25 0x34524220AED49E35CE64736F6C634300080700330000000000 "
				},
				"gasEstimates": {
					"creation": {
						"codeDepositCost": "428600",
						"executionCost": "461",
						"totalCost": "429061"
					},
					"external": {
						"BIDEN()": "380",
						"TRUMP()": "336",
						"currentLeader()": "9356",
						"electionEnded()": "2512",
						"endElection()": "167",
						"seats(uint8)": "infinite",
						"submitStateResult((string,uint256,uint256,uint8))": "infinite"
					}
				},
				"methodIdentifiers": {
					"BIDEN()": "69b36bd4",
					"TRUMP()": "2d78d8e5",
					"currentLeader()": "ac4bd53a",
					"electionEnded()": "c94ca9e3",
					"endElection()": "59f78468",
					"seats(uint8)": "713d87c5",
					"submitStateResult((string,uint256,uint256,uint8))": "e494a883"
				}
			},
			"userdoc": {
				"kind": "user",
				"methods": {},
				"version": 1
			}
		}
	}
}