{
	"Library.sol": {
		"Library": {
			"abi": [
				{
					"inputs": [],
					"stateMutability": "nonpayable",
					"type": "constructor"
				},
				{
					"inputs": [
						{
							"components": [
								{
									"internalType": "uint256",
									"name": "id",
									"type": "uint256"
								},
								{
									"internalType": "string",
									"name": "name",
									"type": "string"
								},
								{
									"internalType": "uint256",
									"name": "quantity",
									"type": "uint256"
								},
								{
									"internalType": "bool",
									"name": "exists",
									"type": "bool"
								}
							],
							"internalType": "struct Library.Book",
							"name": "book",
							"type": "tuple"
						}
					],
					"name": "AddBook",
					"outputs": [],
					"stateMutability": "nonpayable",
					"type": "function"
				},
				{
					"inputs": [
						{
							"internalType": "uint256",
							"name": "",
							"type": "uint256"
						}
					],
					"name": "BookList",
					"outputs": [
						{
							"internalType": "uint256",
							"name": "id",
							"type": "uint256"
						},
						{
							"internalType": "string",
							"name": "name",
							"type": "string"
						},
						{
							"internalType": "uint256",
							"name": "quantity",
							"type": "uint256"
						},
						{
							"internalType": "bool",
							"name": "exists",
							"type": "bool"
						}
					],
					"stateMutability": "view",
					"type": "function"
				},
				{
					"inputs": [
						{
							"internalType": "uint256",
							"name": "bookId",
							"type": "uint256"
						}
					],
					"name": "BorrowBook",
					"outputs": [],
					"stateMutability": "nonpayable",
					"type": "function"
				},
				{
					"inputs": [
						{
							"internalType": "uint256",
							"name": "bookId",
							"type": "uint256"
						}
					],
					"name": "ReturnBook",
					"outputs": [],
					"stateMutability": "nonpayable",
					"type": "function"
				},
				{
					"inputs": [],
					"name": "owner",
					"outputs": [
						{
							"internalType": "address",
							"name": "",
							"type": "address"
						}
					],
					"stateMutability": "view",
					"type": "function"
				}
			],
			"devdoc": {
				"kind": "dev",
				"methods": {},
				"version": 1
			},
			"evm": {
				"assembly": "    /* \"Library.sol\":88:2056  contract Library is Helpers{... */\n  mstore(0x40, 0x80)\n    /* \"Library.sol\":667:715  constructor(){... */\n  callvalue\n  dup1\n  iszero\n  tag_1\n  jumpi\n  0x00\n  dup1\n  revert\ntag_1:\n  pop\n    /* \"Library.sol\":698:708  msg.sender */\n  caller\n    /* \"Library.sol\":690:695  owner */\n  0x00\n  dup1\n    /* \"Library.sol\":690:708  owner = msg.sender */\n  0x0100\n  exp\n  dup2\n  sload\n  dup2\n  0xffffffffffffffffffffffffffffffffffffffff\n  mul\n  not\n  and\n  swap1\n  dup4\n  0xffffffffffffffffffffffffffffffffffffffff\n  and\n  mul\n  or\n  swap1\n  sstore\n  pop\n    /* \"Library.sol\":88:2056  contract Library is Helpers{... */\n  dataSize(sub_0)\n  dup1\n  dataOffset(sub_0)\n  0x00\n  codecopy\n  0x00\n  return\nstop\n\nsub_0: assembly {\n        /* \"Library.sol\":88:2056  contract Library is Helpers{... */\n      mstore(0x40, 0x80)\n      callvalue\n      dup1\n      iszero\n      tag_1\n      jumpi\n      0x00\n      dup1\n      revert\n    tag_1:\n      pop\n      jumpi(tag_2, lt(calldatasize, 0x04))\n      shr(0xe0, calldataload(0x00))\n      dup1\n      0x5d16b308\n      eq\n      tag_3\n      jumpi\n      dup1\n      0x71e25e5a\n      eq\n      tag_4\n      jumpi\n      dup1\n      0x8da5cb5b\n      eq\n      tag_5\n      jumpi\n      dup1\n      0x9649faa3\n      eq\n      tag_6\n      jumpi\n      dup1\n      0xb8dd17db\n      eq\n      tag_7\n      jumpi\n    tag_2:\n      0x00\n      dup1\n      revert\n        /* \"Library.sol\":721:1087  function AddBook(Book calldata book) public onlyOwnable{... */\n    tag_3:\n      tag_8\n      0x04\n      dup1\n      calldatasize\n      sub\n      dup2\n      add\n      swap1\n      tag_9\n      swap2\n      swap1\n      tag_10\n      jump\t// in\n    tag_9:\n      tag_11\n      jump\t// in\n    tag_8:\n      stop\n        /* \"Library.sol\":274:311  mapping(uint => Book) public BookList */\n    tag_4:\n      tag_12\n      0x04\n      dup1\n      calldatasize\n      sub\n      dup2\n      add\n      swap1\n      tag_13\n      swap2\n      swap1\n      tag_14\n      jump\t// in\n    tag_13:\n      tag_15\n      jump\t// in\n    tag_12:\n      mload(0x40)\n      tag_16\n      swap5\n      swap4\n      swap3\n      swap2\n      swap1\n      tag_17\n      jump\t// in\n    tag_16:\n      mload(0x40)\n      dup1\n      swap2\n      sub\n      swap1\n      return\n        /* \"Library.sol\":121:141  address public owner */\n    tag_5:\n      tag_18\n      tag_19\n      jump\t// in\n    tag_18:\n      mload(0x40)\n      tag_20\n      swap2\n      swap1\n      tag_21\n      jump\t// in\n    tag_20:\n      mload(0x40)\n      dup1\n      swap2\n      sub\n      swap1\n      return\n        /* \"Library.sol\":1093:1665  function BorrowBook(uint bookId) public bookExists(bookId){    ... */\n    tag_6:\n      tag_22\n      0x04\n      dup1\n      calldatasize\n      sub\n      dup2\n      add\n      swap1\n      tag_23\n      swap2\n      swap1\n      tag_14\n      jump\t// in\n    tag_23:\n      tag_24\n      jump\t// in\n    tag_22:\n      stop\n        /* \"Library.sol\":1671:2054  function ReturnBook(uint bookId) public bookExists(bookId){... */\n    tag_7:\n      tag_25\n      0x04\n      dup1\n      calldatasize\n      sub\n      dup2\n      add\n      swap1\n      tag_26\n      swap2\n      swap1\n      tag_14\n      jump\t// in\n    tag_26:\n      tag_27\n      jump\t// in\n    tag_25:\n      stop\n        /* \"Library.sol\":721:1087  function AddBook(Book calldata book) public onlyOwnable{... */\n    tag_11:\n        /* \"Library.sol\":475:480  owner */\n      0x00\n      dup1\n      sload\n      swap1\n      0x0100\n      exp\n      swap1\n      div\n      0xffffffffffffffffffffffffffffffffffffffff\n      and\n        /* \"Library.sol\":461:480  msg.sender == owner */\n      0xffffffffffffffffffffffffffffffffffffffff\n      and\n        /* \"Library.sol\":461:471  msg.sender */\n      caller\n        /* \"Library.sol\":461:480  msg.sender == owner */\n      0xffffffffffffffffffffffffffffffffffffffff\n      and\n      eq\n        /* \"Library.sol\":453:511  require(msg.sender == owner, \"Current user is not owner!\") */\n      tag_29\n      jumpi\n      mload(0x40)\n      0x08c379a000000000000000000000000000000000000000000000000000000000\n      dup2\n      mstore\n      0x04\n      add\n      tag_30\n      swap1\n      tag_31\n      jump\t// in\n    tag_30:\n      mload(0x40)\n      dup1\n      swap2\n      sub\n      swap1\n      revert\n    tag_29:\n        /* \"Library.sol\":789:797  BookList */\n      0x02\n        /* \"Library.sol\":789:806  BookList[counter] */\n      0x00\n        /* \"Library.sol\":798:805  counter */\n      sload(0x01)\n        /* \"Library.sol\":789:806  BookList[counter] */\n      dup2\n      mstore\n      0x20\n      add\n      swap1\n      dup2\n      mstore\n      0x20\n      add\n      0x00\n      keccak256\n        /* \"Library.sol\":789:813  BookList[counter].exists */\n      0x03\n      add\n      0x00\n      swap1\n      sload\n      swap1\n      0x0100\n      exp\n      swap1\n      div\n      0xff\n      and\n        /* \"Library.sol\":786:884  if(BookList[counter].exists){... */\n      iszero\n      tag_33\n      jumpi\n        /* \"Library.sol\":828:873  revert(\"Book already exists in the Library!\") */\n      mload(0x40)\n      0x08c379a000000000000000000000000000000000000000000000000000000000\n      dup2\n      mstore\n      0x04\n      add\n      tag_34\n      swap1\n      tag_35\n      jump\t// in\n    tag_34:\n      mload(0x40)\n      dup1\n      swap2\n      sub\n      swap1\n      revert\n        /* \"Library.sol\":786:884  if(BookList[counter].exists){... */\n    tag_33:\n        /* \"Library.sol\":917:924  counter */\n      sload(0x01)\n        /* \"Library.sol\":894:902  BookList */\n      0x02\n        /* \"Library.sol\":894:911  BookList[counter] */\n      0x00\n        /* \"Library.sol\":903:910  counter */\n      sload(0x01)\n        /* \"Library.sol\":894:911  BookList[counter] */\n      dup2\n      mstore\n      0x20\n      add\n      swap1\n      dup2\n      mstore\n      0x20\n      add\n      0x00\n      keccak256\n        /* \"Library.sol\":894:914  BookList[counter].id */\n      0x00\n      add\n        /* \"Library.sol\":894:924  BookList[counter].id = counter */\n      dup2\n      swap1\n      sstore\n      pop\n        /* \"Library.sol\":959:963  book */\n      dup1\n        /* \"Library.sol\":959:968  book.name */\n      dup1\n      0x20\n      add\n      swap1\n      tag_36\n      swap2\n      swap1\n      tag_37\n      jump\t// in\n    tag_36:\n        /* \"Library.sol\":934:942  BookList */\n      0x02\n        /* \"Library.sol\":934:951  BookList[counter] */\n      0x00\n        /* \"Library.sol\":943:950  counter */\n      sload(0x01)\n        /* \"Library.sol\":934:951  BookList[counter] */\n      dup2\n      mstore\n      0x20\n      add\n      swap1\n      dup2\n      mstore\n      0x20\n      add\n      0x00\n      keccak256\n        /* \"Library.sol\":934:956  BookList[counter].name */\n      0x01\n      add\n        /* \"Library.sol\":934:968  BookList[counter].name = book.name */\n      swap2\n      swap1\n      tag_38\n      swap3\n      swap2\n      swap1\n      tag_39\n      jump\t// in\n    tag_38:\n      pop\n        /* \"Library.sol\":1007:1011  book */\n      dup1\n        /* \"Library.sol\":1007:1020  book.quantity */\n      0x40\n      add\n      calldataload\n        /* \"Library.sol\":978:986  BookList */\n      0x02\n        /* \"Library.sol\":978:995  BookList[counter] */\n      0x00\n        /* \"Library.sol\":987:994  counter */\n      sload(0x01)\n        /* \"Library.sol\":978:995  BookList[counter] */\n      dup2\n      mstore\n      0x20\n      add\n      swap1\n      dup2\n      mstore\n      0x20\n      add\n      0x00\n      keccak256\n        /* \"Library.sol\":978:1004  BookList[counter].quantity */\n      0x02\n      add\n        /* \"Library.sol\":978:1020  BookList[counter].quantity = book.quantity */\n      dup2\n      swap1\n      sstore\n      pop\n        /* \"Library.sol\":1057:1061  true */\n      0x01\n        /* \"Library.sol\":1030:1038  BookList */\n      0x02\n        /* \"Library.sol\":1030:1047  BookList[counter] */\n      0x00\n        /* \"Library.sol\":1039:1046  counter */\n      sload(0x01)\n        /* \"Library.sol\":1030:1047  BookList[counter] */\n      dup2\n      mstore\n      0x20\n      add\n      swap1\n      dup2\n      mstore\n      0x20\n      add\n      0x00\n      keccak256\n        /* \"Library.sol\":1030:1054  BookList[counter].exists */\n      0x03\n      add\n      0x00\n        /* \"Library.sol\":1030:1061  BookList[counter].exists = true */\n      0x0100\n      exp\n      dup2\n      sload\n      dup2\n      0xff\n      mul\n      not\n      and\n      swap1\n      dup4\n      iszero\n      iszero\n      mul\n      or\n      swap1\n      sstore\n      pop\n        /* \"Library.sol\":1071:1078  counter */\n      0x01\n      0x00\n        /* \"Library.sol\":1071:1080  counter++ */\n      dup2\n      sload\n      dup1\n      swap3\n      swap2\n      swap1\n      tag_40\n      swap1\n      tag_41\n      jump\t// in\n    tag_40:\n      swap2\n      swap1\n      pop\n      sstore\n      pop\n        /* \"Library.sol\":721:1087  function AddBook(Book calldata book) public onlyOwnable{... */\n      pop\n      jump\t// out\n        /* \"Library.sol\":274:311  mapping(uint => Book) public BookList */\n    tag_15:\n      mstore(0x20, 0x02)\n      dup1\n      0x00\n      mstore\n      keccak256(0x00, 0x40)\n      0x00\n      swap2\n      pop\n      swap1\n      pop\n      dup1\n      0x00\n      add\n      sload\n      swap1\n      dup1\n      0x01\n      add\n      dup1\n      sload\n      tag_42\n      swap1\n      tag_43\n      jump\t// in\n    tag_42:\n      dup1\n      0x1f\n      add\n      0x20\n      dup1\n      swap2\n      div\n      mul\n      0x20\n      add\n      mload(0x40)\n      swap1\n      dup2\n      add\n      0x40\n      mstore\n      dup1\n      swap3\n      swap2\n      swap1\n      dup2\n      dup2\n      mstore\n      0x20\n      add\n      dup3\n      dup1\n      sload\n      tag_44\n      swap1\n      tag_43\n      jump\t// in\n    tag_44:\n      dup1\n      iszero\n      tag_45\n      jumpi\n      dup1\n      0x1f\n      lt\n      tag_46\n      jumpi\n      0x0100\n      dup1\n      dup4\n      sload\n      div\n      mul\n      dup4\n      mstore\n      swap2\n      0x20\n      add\n      swap2\n      jump(tag_45)\n    tag_46:\n      dup3\n      add\n      swap2\n      swap1\n      0x00\n      mstore\n      keccak256(0x00, 0x20)\n      swap1\n    tag_47:\n      dup2\n      sload\n      dup2\n      mstore\n      swap1\n      0x01\n      add\n      swap1\n      0x20\n      add\n      dup1\n      dup4\n      gt\n      tag_47\n      jumpi\n      dup3\n      swap1\n      sub\n      0x1f\n      and\n      dup3\n      add\n      swap2\n    tag_45:\n      pop\n      pop\n      pop\n      pop\n      pop\n      swap1\n      dup1\n      0x02\n      add\n      sload\n      swap1\n      dup1\n      0x03\n      add\n      0x00\n      swap1\n      sload\n      swap1\n      0x0100\n      exp\n      swap1\n      div\n      0xff\n      and\n      swap1\n      pop\n      dup5\n      jump\t// out\n        /* \"Library.sol\":121:141  address public owner */\n    tag_19:\n      0x00\n      dup1\n      sload\n      swap1\n      0x0100\n      exp\n      swap1\n      div\n      0xffffffffffffffffffffffffffffffffffffffff\n      and\n      dup2\n      jump\t// out\n        /* \"Library.sol\":1093:1665  function BorrowBook(uint bookId) public bookExists(bookId){    ... */\n    tag_24:\n        /* \"Library.sol\":1144:1150  bookId */\n      dup1\n        /* \"Library.sol\":585:593  BookList */\n      0x02\n        /* \"Library.sol\":585:601  BookList[bookId] */\n      0x00\n        /* \"Library.sol\":594:600  bookId */\n      dup3\n        /* \"Library.sol\":585:601  BookList[bookId] */\n      dup2\n      mstore\n      0x20\n      add\n      swap1\n      dup2\n      mstore\n      0x20\n      add\n      0x00\n      keccak256\n        /* \"Library.sol\":585:608  BookList[bookId].exists */\n      0x03\n      add\n      0x00\n      swap1\n      sload\n      swap1\n      0x0100\n      exp\n      swap1\n      div\n      0xff\n      and\n        /* \"Library.sol\":577:643  require(BookList[bookId].exists,\"Book does not exist in library!\") */\n      tag_49\n      jumpi\n      mload(0x40)\n      0x08c379a000000000000000000000000000000000000000000000000000000000\n      dup2\n      mstore\n      0x04\n      add\n      tag_50\n      swap1\n      tag_51\n      jump\t// in\n    tag_50:\n      mload(0x40)\n      dup1\n      swap2\n      sub\n      swap1\n      revert\n    tag_49:\n        /* \"Library.sol\":1195:1196  0 */\n      0x00\n        /* \"Library.sol\":1168:1176  BookList */\n      0x02\n        /* \"Library.sol\":1168:1184  BookList[bookId] */\n      0x00\n        /* \"Library.sol\":1177:1183  bookId */\n      dup5\n        /* \"Library.sol\":1168:1184  BookList[bookId] */\n      dup2\n      mstore\n      0x20\n      add\n      swap1\n      dup2\n      mstore\n      0x20\n      add\n      0x00\n      keccak256\n        /* \"Library.sol\":1168:1193  BookList[bookId].quantity */\n      0x02\n      add\n      sload\n        /* \"Library.sol\":1168:1196  BookList[bookId].quantity==0 */\n      eq\n        /* \"Library.sol\":1165:1268  if(BookList[bookId].quantity==0){... */\n      iszero\n      tag_53\n      jumpi\n        /* \"Library.sol\":1211:1257  revert(\"This book is out of stock currently!\") */\n      mload(0x40)\n      0x08c379a000000000000000000000000000000000000000000000000000000000\n      dup2\n      mstore\n      0x04\n      add\n      tag_54\n      swap1\n      tag_55\n      jump\t// in\n    tag_54:\n      mload(0x40)\n      dup1\n      swap2\n      sub\n      swap1\n      revert\n        /* \"Library.sol\":1165:1268  if(BookList[bookId].quantity==0){... */\n    tag_53:\n        /* \"Library.sol\":1284:1341  intArrContainsValue(bookId, ClientBorrowList[msg.sender]) */\n      tag_56\n        /* \"Library.sol\":1304:1310  bookId */\n      dup3\n        /* \"Library.sol\":1312:1328  ClientBorrowList */\n      0x04\n        /* \"Library.sol\":1312:1340  ClientBorrowList[msg.sender] */\n      0x00\n        /* \"Library.sol\":1329:1339  msg.sender */\n      caller\n        /* \"Library.sol\":1312:1340  ClientBorrowList[msg.sender] */\n      0xffffffffffffffffffffffffffffffffffffffff\n      and\n      0xffffffffffffffffffffffffffffffffffffffff\n      and\n      dup2\n      mstore\n      0x20\n      add\n      swap1\n      dup2\n      mstore\n      0x20\n      add\n      0x00\n      keccak256\n        /* \"Library.sol\":1284:1341  intArrContainsValue(bookId, ClientBorrowList[msg.sender]) */\n      dup1\n      sload\n      dup1\n      0x20\n      mul\n      0x20\n      add\n      mload(0x40)\n      swap1\n      dup2\n      add\n      0x40\n      mstore\n      dup1\n      swap3\n      swap2\n      swap1\n      dup2\n      dup2\n      mstore\n      0x20\n      add\n      dup3\n      dup1\n      sload\n      dup1\n      iszero\n      tag_57\n      jumpi\n      0x20\n      mul\n      dup3\n      add\n      swap2\n      swap1\n      0x00\n      mstore\n      keccak256(0x00, 0x20)\n      swap1\n    tag_58:\n      dup2\n      sload\n      dup2\n      mstore\n      0x20\n      add\n      swap1\n      0x01\n      add\n      swap1\n      dup1\n      dup4\n      gt\n      tag_58\n      jumpi\n    tag_57:\n      pop\n      pop\n      pop\n      pop\n      pop\n        /* \"Library.sol\":1284:1303  intArrContainsValue */\n      tag_59\n        /* \"Library.sol\":1284:1341  intArrContainsValue(bookId, ClientBorrowList[msg.sender]) */\n      jump\t// in\n    tag_56:\n        /* \"Library.sol\":1281:1411  if(intArrContainsValue(bookId, ClientBorrowList[msg.sender])){... */\n      iszero\n      tag_60\n      jumpi\n        /* \"Library.sol\":1356:1400  revert(\"You've already borrowed that book!\") */\n      mload(0x40)\n      0x08c379a000000000000000000000000000000000000000000000000000000000\n      dup2\n      mstore\n      0x04\n      add\n      tag_61\n      swap1\n      tag_62\n      jump\t// in\n    tag_61:\n      mload(0x40)\n      dup1\n      swap2\n      sub\n      swap1\n      revert\n        /* \"Library.sol\":1281:1411  if(intArrContainsValue(bookId, ClientBorrowList[msg.sender])){... */\n    tag_60:\n        /* \"Library.sol\":1421:1437  ClientBorrowList */\n      0x04\n        /* \"Library.sol\":1421:1449  ClientBorrowList[msg.sender] */\n      0x00\n        /* \"Library.sol\":1438:1448  msg.sender */\n      caller\n        /* \"Library.sol\":1421:1449  ClientBorrowList[msg.sender] */\n      0xffffffffffffffffffffffffffffffffffffffff\n      and\n      0xffffffffffffffffffffffffffffffffffffffff\n      and\n      dup2\n      mstore\n      0x20\n      add\n      swap1\n      dup2\n      mstore\n      0x20\n      add\n      0x00\n      keccak256\n        /* \"Library.sol\":1455:1461  bookId */\n      dup3\n        /* \"Library.sol\":1421:1462  ClientBorrowList[msg.sender].push(bookId) */\n      swap1\n      dup1\n      0x01\n      dup2\n      sload\n      add\n      dup1\n      dup3\n      sstore\n      dup1\n      swap2\n      pop\n      pop\n      0x01\n      swap1\n      sub\n      swap1\n      0x00\n      mstore\n      keccak256(0x00, 0x20)\n      add\n      0x00\n      swap1\n      swap2\n      swap1\n      swap2\n      swap1\n      swap2\n      pop\n      sstore\n        /* \"Library.sol\":1478:1542  addressArrContainsValue(msg.sender, BookBorrowerHistory[bookId]) */\n      tag_64\n        /* \"Library.sol\":1502:1512  msg.sender */\n      caller\n        /* \"Library.sol\":1514:1533  BookBorrowerHistory */\n      0x03\n        /* \"Library.sol\":1514:1541  BookBorrowerHistory[bookId] */\n      0x00\n        /* \"Library.sol\":1534:1540  bookId */\n      dup6\n        /* \"Library.sol\":1514:1541  BookBorrowerHistory[bookId] */\n      dup2\n      mstore\n      0x20\n      add\n      swap1\n      dup2\n      mstore\n      0x20\n      add\n      0x00\n      keccak256\n        /* \"Library.sol\":1478:1542  addressArrContainsValue(msg.sender, BookBorrowerHistory[bookId]) */\n      dup1\n      sload\n      dup1\n      0x20\n      mul\n      0x20\n      add\n      mload(0x40)\n      swap1\n      dup2\n      add\n      0x40\n      mstore\n      dup1\n      swap3\n      swap2\n      swap1\n      dup2\n      dup2\n      mstore\n      0x20\n      add\n      dup3\n      dup1\n      sload\n      dup1\n      iszero\n      tag_65\n      jumpi\n      0x20\n      mul\n      dup3\n      add\n      swap2\n      swap1\n      0x00\n      mstore\n      keccak256(0x00, 0x20)\n      swap1\n    tag_66:\n      dup2\n      0x00\n      swap1\n      sload\n      swap1\n      0x0100\n      exp\n      swap1\n      div\n      0xffffffffffffffffffffffffffffffffffffffff\n      and\n      0xffffffffffffffffffffffffffffffffffffffff\n      and\n      dup2\n      mstore\n      0x20\n      add\n      swap1\n      0x01\n      add\n      swap1\n      dup1\n      dup4\n      gt\n      tag_66\n      jumpi\n    tag_65:\n      pop\n      pop\n      pop\n      pop\n      pop\n        /* \"Library.sol\":1478:1501  addressArrContainsValue */\n      tag_67\n        /* \"Library.sol\":1478:1542  addressArrContainsValue(msg.sender, BookBorrowerHistory[bookId]) */\n      jump\t// in\n    tag_64:\n        /* \"Library.sol\":1474:1620  if(!addressArrContainsValue(msg.sender, BookBorrowerHistory[bookId])){... */\n      tag_68\n      jumpi\n        /* \"Library.sol\":1557:1576  BookBorrowerHistory */\n      0x03\n        /* \"Library.sol\":1557:1584  BookBorrowerHistory[bookId] */\n      0x00\n        /* \"Library.sol\":1577:1583  bookId */\n      dup4\n        /* \"Library.sol\":1557:1584  BookBorrowerHistory[bookId] */\n      dup2\n      mstore\n      0x20\n      add\n      swap1\n      dup2\n      mstore\n      0x20\n      add\n      0x00\n      keccak256\n        /* \"Library.sol\":1590:1600  msg.sender */\n      caller\n        /* \"Library.sol\":1557:1601  BookBorrowerHistory[bookId].push(msg.sender) */\n      swap1\n      dup1\n      0x01\n      dup2\n      sload\n      add\n      dup1\n      dup3\n      sstore\n      dup1\n      swap2\n      pop\n      pop\n      0x01\n      swap1\n      sub\n      swap1\n      0x00\n      mstore\n      keccak256(0x00, 0x20)\n      add\n      0x00\n      swap1\n      swap2\n      swap1\n      swap2\n      swap1\n      swap2\n      0x0100\n      exp\n      dup2\n      sload\n      dup2\n      0xffffffffffffffffffffffffffffffffffffffff\n      mul\n      not\n      and\n      swap1\n      dup4\n      0xffffffffffffffffffffffffffffffffffffffff\n      and\n      mul\n      or\n      swap1\n      sstore\n      pop\n        /* \"Library.sol\":1474:1620  if(!addressArrContainsValue(msg.sender, BookBorrowerHistory[bookId])){... */\n    tag_68:\n        /* \"Library.sol\":1630:1638  BookList */\n      0x02\n        /* \"Library.sol\":1630:1646  BookList[bookId] */\n      0x00\n        /* \"Library.sol\":1639:1645  bookId */\n      dup4\n        /* \"Library.sol\":1630:1646  BookList[bookId] */\n      dup2\n      mstore\n      0x20\n      add\n      swap1\n      dup2\n      mstore\n      0x20\n      add\n      0x00\n      keccak256\n        /* \"Library.sol\":1630:1655  BookList[bookId].quantity */\n      0x02\n      add\n      0x00\n        /* \"Library.sol\":1630:1658  BookList[bookId].quantity -- */\n      dup2\n      sload\n      dup1\n      swap3\n      swap2\n      swap1\n      tag_70\n      swap1\n      tag_71\n      jump\t// in\n    tag_70:\n      swap2\n      swap1\n      pop\n      sstore\n      pop\n        /* \"Library.sol\":1093:1665  function BorrowBook(uint bookId) public bookExists(bookId){    ... */\n      pop\n      pop\n      jump\t// out\n        /* \"Library.sol\":1671:2054  function ReturnBook(uint bookId) public bookExists(bookId){... */\n    tag_27:\n        /* \"Library.sol\":1722:1728  bookId */\n      dup1\n        /* \"Library.sol\":585:593  BookList */\n      0x02\n        /* \"Library.sol\":585:601  BookList[bookId] */\n      0x00\n        /* \"Library.sol\":594:600  bookId */\n      dup3\n        /* \"Library.sol\":585:601  BookList[bookId] */\n      dup2\n      mstore\n      0x20\n      add\n      swap1\n      dup2\n      mstore\n      0x20\n      add\n      0x00\n      keccak256\n        /* \"Library.sol\":585:608  BookList[bookId].exists */\n      0x03\n      add\n      0x00\n      swap1\n      sload\n      swap1\n      0x0100\n      exp\n      swap1\n      div\n      0xff\n      and\n        /* \"Library.sol\":577:643  require(BookList[bookId].exists,\"Book does not exist in library!\") */\n      tag_73\n      jumpi\n      mload(0x40)\n      0x08c379a000000000000000000000000000000000000000000000000000000000\n      dup2\n      mstore\n      0x04\n      add\n      tag_74\n      swap1\n      tag_51\n      jump\t// in\n    tag_74:\n      mload(0x40)\n      dup1\n      swap2\n      sub\n      swap1\n      revert\n    tag_73:\n        /* \"Library.sol\":1743:1800  intArrContainsValue(bookId, ClientBorrowList[msg.sender]) */\n      tag_76\n        /* \"Library.sol\":1763:1769  bookId */\n      dup3\n        /* \"Library.sol\":1771:1787  ClientBorrowList */\n      0x04\n        /* \"Library.sol\":1771:1799  ClientBorrowList[msg.sender] */\n      0x00\n        /* \"Library.sol\":1788:1798  msg.sender */\n      caller\n        /* \"Library.sol\":1771:1799  ClientBorrowList[msg.sender] */\n      0xffffffffffffffffffffffffffffffffffffffff\n      and\n      0xffffffffffffffffffffffffffffffffffffffff\n      and\n      dup2\n      mstore\n      0x20\n      add\n      swap1\n      dup2\n      mstore\n      0x20\n      add\n      0x00\n      keccak256\n        /* \"Library.sol\":1743:1800  intArrContainsValue(bookId, ClientBorrowList[msg.sender]) */\n      dup1\n      sload\n      dup1\n      0x20\n      mul\n      0x20\n      add\n      mload(0x40)\n      swap1\n      dup2\n      add\n      0x40\n      mstore\n      dup1\n      swap3\n      swap2\n      swap1\n      dup2\n      dup2\n      mstore\n      0x20\n      add\n      dup3\n      dup1\n      sload\n      dup1\n      iszero\n      tag_77\n      jumpi\n      0x20\n      mul\n      dup3\n      add\n      swap2\n      swap1\n      0x00\n      mstore\n      keccak256(0x00, 0x20)\n      swap1\n    tag_78:\n      dup2\n      sload\n      dup2\n      mstore\n      0x20\n      add\n      swap1\n      0x01\n      add\n      swap1\n      dup1\n      dup4\n      gt\n      tag_78\n      jumpi\n    tag_77:\n      pop\n      pop\n      pop\n      pop\n      pop\n        /* \"Library.sol\":1743:1762  intArrContainsValue */\n      tag_59\n        /* \"Library.sol\":1743:1800  intArrContainsValue(bookId, ClientBorrowList[msg.sender]) */\n      jump\t// in\n    tag_76:\n        /* \"Library.sol\":1739:1866  if(!intArrContainsValue(bookId, ClientBorrowList[msg.sender])){... */\n      tag_79\n      jumpi\n        /* \"Library.sol\":1815:1855  revert(\"You havent borrowed that book!\") */\n      mload(0x40)\n      0x08c379a000000000000000000000000000000000000000000000000000000000\n      dup2\n      mstore\n      0x04\n      add\n      tag_80\n      swap1\n      tag_81\n      jump\t// in\n    tag_80:\n      mload(0x40)\n      dup1\n      swap2\n      sub\n      swap1\n      revert\n        /* \"Library.sol\":1739:1866  if(!intArrContainsValue(bookId, ClientBorrowList[msg.sender])){... */\n    tag_79:\n        /* \"Library.sol\":1952:2009  removeIntArrElement(ClientBorrowList[msg.sender], bookId) */\n      tag_82\n        /* \"Library.sol\":1972:1988  ClientBorrowList */\n      0x04\n        /* \"Library.sol\":1972:2000  ClientBorrowList[msg.sender] */\n      0x00\n        /* \"Library.sol\":1989:1999  msg.sender */\n      caller\n        /* \"Library.sol\":1972:2000  ClientBorrowList[msg.sender] */\n      0xffffffffffffffffffffffffffffffffffffffff\n      and\n      0xffffffffffffffffffffffffffffffffffffffff\n      and\n      dup2\n      mstore\n      0x20\n      add\n      swap1\n      dup2\n      mstore\n      0x20\n      add\n      0x00\n      keccak256\n        /* \"Library.sol\":2002:2008  bookId */\n      dup4\n        /* \"Library.sol\":1952:1971  removeIntArrElement */\n      tag_83\n        /* \"Library.sol\":1952:2009  removeIntArrElement(ClientBorrowList[msg.sender], bookId) */\n      jump\t// in\n    tag_82:\n        /* \"Library.sol\":2019:2027  BookList */\n      0x02\n        /* \"Library.sol\":2019:2035  BookList[bookId] */\n      0x00\n        /* \"Library.sol\":2028:2034  bookId */\n      dup4\n        /* \"Library.sol\":2019:2035  BookList[bookId] */\n      dup2\n      mstore\n      0x20\n      add\n      swap1\n      dup2\n      mstore\n      0x20\n      add\n      0x00\n      keccak256\n        /* \"Library.sol\":2019:2044  BookList[bookId].quantity */\n      0x02\n      add\n      0x00\n        /* \"Library.sol\":2019:2047  BookList[bookId].quantity ++ */\n      dup2\n      sload\n      dup1\n      swap3\n      swap2\n      swap1\n      tag_84\n      swap1\n      tag_41\n      jump\t// in\n    tag_84:\n      swap2\n      swap1\n      pop\n      sstore\n      pop\n        /* \"Library.sol\":1671:2054  function ReturnBook(uint bookId) public bookExists(bookId){... */\n      pop\n      pop\n      jump\t// out\n        /* \"Helpers.sol\":86:350  function intArrContainsValue(uint value, uint[] memory array) internal pure returns(bool){   ... */\n    tag_59:\n        /* \"Helpers.sol\":170:174  bool */\n      0x00\n        /* \"Helpers.sol\":193:199  uint i */\n      dup1\n        /* \"Helpers.sol\":200:201  0 */\n      0x00\n        /* \"Helpers.sol\":193:201  uint i=0 */\n      swap1\n      pop\n        /* \"Helpers.sol\":188:322  for (uint i=0; i < array.length; i++) {... */\n    tag_86:\n        /* \"Helpers.sol\":207:212  array */\n      dup3\n        /* \"Helpers.sol\":207:219  array.length */\n      mload\n        /* \"Helpers.sol\":203:204  i */\n      dup2\n        /* \"Helpers.sol\":203:219  i < array.length */\n      lt\n        /* \"Helpers.sol\":188:322  for (uint i=0; i < array.length; i++) {... */\n      iszero\n      tag_87\n      jumpi\n        /* \"Helpers.sol\":253:258  array */\n      dup3\n        /* \"Helpers.sol\":259:260  i */\n      dup2\n        /* \"Helpers.sol\":253:261  array[i] */\n      dup2\n      mload\n      dup2\n      lt\n      tag_89\n      jumpi\n      mstore(0x00, 0x4e487b7100000000000000000000000000000000000000000000000000000000)\n      mstore(0x04, 0x32)\n      revert(0x00, 0x24)\n    tag_89:\n      0x20\n      mul\n      0x20\n      add\n      add\n      mload\n        /* \"Helpers.sol\":244:249  value */\n      dup5\n        /* \"Helpers.sol\":244:261  value == array[i] */\n      eq\n        /* \"Helpers.sol\":240:312  if (value == array[i]) {     ... */\n      iszero\n      tag_90\n      jumpi\n        /* \"Helpers.sol\":293:297  true */\n      0x01\n        /* \"Helpers.sol\":286:297  return true */\n      swap2\n      pop\n      pop\n      jump(tag_85)\n        /* \"Helpers.sol\":240:312  if (value == array[i]) {     ... */\n    tag_90:\n        /* \"Helpers.sol\":221:224  i++ */\n      dup1\n      dup1\n      tag_91\n      swap1\n      tag_41\n      jump\t// in\n    tag_91:\n      swap2\n      pop\n      pop\n        /* \"Helpers.sol\":188:322  for (uint i=0; i < array.length; i++) {... */\n      jump(tag_86)\n    tag_87:\n      pop\n        /* \"Helpers.sol\":338:343  false */\n      0x00\n        /* \"Helpers.sol\":331:343  return false */\n      swap1\n      pop\n        /* \"Helpers.sol\":86:350  function intArrContainsValue(uint value, uint[] memory array) internal pure returns(bool){   ... */\n    tag_85:\n      swap3\n      swap2\n      pop\n      pop\n      jump\t// out\n        /* \"Helpers.sol\":356:630  function addressArrContainsValue(address value, address[] memory array) internal pure returns(bool){   ... */\n    tag_67:\n        /* \"Helpers.sol\":450:454  bool */\n      0x00\n        /* \"Helpers.sol\":473:479  uint i */\n      dup1\n        /* \"Helpers.sol\":480:481  0 */\n      0x00\n        /* \"Helpers.sol\":473:481  uint i=0 */\n      swap1\n      pop\n        /* \"Helpers.sol\":468:602  for (uint i=0; i < array.length; i++) {... */\n    tag_93:\n        /* \"Helpers.sol\":487:492  array */\n      dup3\n        /* \"Helpers.sol\":487:499  array.length */\n      mload\n        /* \"Helpers.sol\":483:484  i */\n      dup2\n        /* \"Helpers.sol\":483:499  i < array.length */\n      lt\n        /* \"Helpers.sol\":468:602  for (uint i=0; i < array.length; i++) {... */\n      iszero\n      tag_94\n      jumpi\n        /* \"Helpers.sol\":533:538  array */\n      dup3\n        /* \"Helpers.sol\":539:540  i */\n      dup2\n        /* \"Helpers.sol\":533:541  array[i] */\n      dup2\n      mload\n      dup2\n      lt\n      tag_96\n      jumpi\n      mstore(0x00, 0x4e487b7100000000000000000000000000000000000000000000000000000000)\n      mstore(0x04, 0x32)\n      revert(0x00, 0x24)\n    tag_96:\n      0x20\n      mul\n      0x20\n      add\n      add\n      mload\n        /* \"Helpers.sol\":524:541  value == array[i] */\n      0xffffffffffffffffffffffffffffffffffffffff\n      and\n        /* \"Helpers.sol\":524:529  value */\n      dup5\n        /* \"Helpers.sol\":524:541  value == array[i] */\n      0xffffffffffffffffffffffffffffffffffffffff\n      and\n      eq\n        /* \"Helpers.sol\":520:592  if (value == array[i]) {     ... */\n      iszero\n      tag_97\n      jumpi\n        /* \"Helpers.sol\":573:577  true */\n      0x01\n        /* \"Helpers.sol\":566:577  return true */\n      swap2\n      pop\n      pop\n      jump(tag_92)\n        /* \"Helpers.sol\":520:592  if (value == array[i]) {     ... */\n    tag_97:\n        /* \"Helpers.sol\":501:504  i++ */\n      dup1\n      dup1\n      tag_98\n      swap1\n      tag_41\n      jump\t// in\n    tag_98:\n      swap2\n      pop\n      pop\n        /* \"Helpers.sol\":468:602  for (uint i=0; i < array.length; i++) {... */\n      jump(tag_93)\n    tag_94:\n      pop\n        /* \"Helpers.sol\":618:623  false */\n      0x00\n        /* \"Helpers.sol\":611:623  return false */\n      swap1\n      pop\n        /* \"Helpers.sol\":356:630  function addressArrContainsValue(address value, address[] memory array) internal pure returns(bool){   ... */\n    tag_92:\n      swap3\n      swap2\n      pop\n      pop\n      jump\t// out\n        /* \"Helpers.sol\":636:899  function removeIntArrElement(uint[] storage array, uint id) internal{... */\n    tag_83:\n        /* \"Helpers.sol\":720:726  uint i */\n      0x00\n        /* \"Helpers.sol\":715:893  for (uint i=0; i < array.length; i++) {... */\n    tag_100:\n        /* \"Helpers.sol\":734:739  array */\n      dup3\n        /* \"Helpers.sol\":734:746  array.length */\n      dup1\n      sload\n      swap1\n      pop\n        /* \"Helpers.sol\":730:731  i */\n      dup2\n        /* \"Helpers.sol\":730:746  i < array.length */\n      lt\n        /* \"Helpers.sol\":715:893  for (uint i=0; i < array.length; i++) {... */\n      iszero\n      tag_101\n      jumpi\n        /* \"Helpers.sol\":777:782  array */\n      dup3\n        /* \"Helpers.sol\":783:784  i */\n      dup2\n        /* \"Helpers.sol\":777:785  array[i] */\n      dup2\n      sload\n      dup2\n      lt\n      tag_103\n      jumpi\n      mstore(0x00, 0x4e487b7100000000000000000000000000000000000000000000000000000000)\n      mstore(0x04, 0x32)\n      revert(0x00, 0x24)\n    tag_103:\n      swap1\n      0x00\n      mstore\n      keccak256(0x00, 0x20)\n      add\n      sload\n        /* \"Helpers.sol\":771:773  id */\n      dup3\n        /* \"Helpers.sol\":771:785  id == array[i] */\n      eq\n        /* \"Helpers.sol\":767:883  if (id == array[i]) {... */\n      iszero\n      tag_105\n      jumpi\n        /* \"Helpers.sol\":816:821  array */\n      dup3\n        /* \"Helpers.sol\":837:838  1 */\n      0x01\n        /* \"Helpers.sol\":822:827  array */\n      dup5\n        /* \"Helpers.sol\":822:834  array.length */\n      dup1\n      sload\n      swap1\n      pop\n        /* \"Helpers.sol\":822:838  array.length - 1 */\n      tag_106\n      swap2\n      swap1\n      tag_107\n      jump\t// in\n    tag_106:\n        /* \"Helpers.sol\":816:839  array[array.length - 1] */\n      dup2\n      sload\n      dup2\n      lt\n      tag_108\n      jumpi\n      mstore(0x00, 0x4e487b7100000000000000000000000000000000000000000000000000000000)\n      mstore(0x04, 0x32)\n      revert(0x00, 0x24)\n    tag_108:\n      swap1\n      0x00\n      mstore\n      keccak256(0x00, 0x20)\n      add\n      sload\n        /* \"Helpers.sol\":805:810  array */\n      dup4\n        /* \"Helpers.sol\":811:812  i */\n      dup3\n        /* \"Helpers.sol\":805:813  array[i] */\n      dup2\n      sload\n      dup2\n      lt\n      tag_110\n      jumpi\n      mstore(0x00, 0x4e487b7100000000000000000000000000000000000000000000000000000000)\n      mstore(0x04, 0x32)\n      revert(0x00, 0x24)\n    tag_110:\n      swap1\n      0x00\n      mstore\n      keccak256(0x00, 0x20)\n      add\n        /* \"Helpers.sol\":805:839  array[i] = array[array.length - 1] */\n      dup2\n      swap1\n      sstore\n      pop\n        /* \"Helpers.sol\":857:862  array */\n      dup3\n        /* \"Helpers.sol\":857:868  array.pop() */\n      dup1\n      sload\n      dup1\n      tag_112\n      jumpi\n      mstore(0x00, 0x4e487b7100000000000000000000000000000000000000000000000000000000)\n      mstore(0x04, 0x31)\n      revert(0x00, 0x24)\n    tag_112:\n      0x01\n      swap1\n      sub\n      dup2\n      dup2\n      swap1\n      0x00\n      mstore\n      keccak256(0x00, 0x20)\n      add\n      0x00\n      swap1\n      sstore\n      swap1\n      sstore\n        /* \"Helpers.sol\":767:883  if (id == array[i]) {... */\n    tag_105:\n        /* \"Helpers.sol\":748:751  i++ */\n      dup1\n      dup1\n      tag_114\n      swap1\n      tag_41\n      jump\t// in\n    tag_114:\n      swap2\n      pop\n      pop\n        /* \"Helpers.sol\":715:893  for (uint i=0; i < array.length; i++) {... */\n      jump(tag_100)\n    tag_101:\n      pop\n        /* \"Helpers.sol\":636:899  function removeIntArrElement(uint[] storage array, uint id) internal{... */\n      pop\n      pop\n      jump\t// out\n    tag_39:\n      dup3\n      dup1\n      sload\n      tag_115\n      swap1\n      tag_43\n      jump\t// in\n    tag_115:\n      swap1\n      0x00\n      mstore\n      keccak256(0x00, 0x20)\n      swap1\n      0x1f\n      add\n      0x20\n      swap1\n      div\n      dup2\n      add\n      swap3\n      dup3\n      tag_117\n      jumpi\n      0x00\n      dup6\n      sstore\n      jump(tag_116)\n    tag_117:\n      dup3\n      0x1f\n      lt\n      tag_118\n      jumpi\n      dup1\n      calldataload\n      not(0xff)\n      and\n      dup4\n      dup1\n      add\n      or\n      dup6\n      sstore\n      jump(tag_116)\n    tag_118:\n      dup3\n      dup1\n      add\n      0x01\n      add\n      dup6\n      sstore\n      dup3\n      iszero\n      tag_116\n      jumpi\n      swap2\n      dup3\n      add\n    tag_119:\n      dup3\n      dup2\n      gt\n      iszero\n      tag_120\n      jumpi\n      dup3\n      calldataload\n      dup3\n      sstore\n      swap2\n      0x20\n      add\n      swap2\n      swap1\n      0x01\n      add\n      swap1\n      jump(tag_119)\n    tag_120:\n    tag_116:\n      pop\n      swap1\n      pop\n      tag_121\n      swap2\n      swap1\n      tag_122\n      jump\t// in\n    tag_121:\n      pop\n      swap1\n      jump\t// out\n    tag_122:\n    tag_123:\n      dup1\n      dup3\n      gt\n      iszero\n      tag_124\n      jumpi\n      0x00\n      dup2\n      0x00\n      swap1\n      sstore\n      pop\n      0x01\n      add\n      jump(tag_123)\n    tag_124:\n      pop\n      swap1\n      jump\t// out\n        /* \"#utility.yul\":34:195   */\n    tag_126:\n      0x00\n        /* \"#utility.yul\":144:147   */\n      0x80\n        /* \"#utility.yul\":135:141   */\n      dup3\n        /* \"#utility.yul\":130:133   */\n      dup5\n        /* \"#utility.yul\":126:142   */\n      sub\n        /* \"#utility.yul\":122:148   */\n      slt\n        /* \"#utility.yul\":119:121   */\n      iszero\n      tag_128\n      jumpi\n        /* \"#utility.yul\":161:162   */\n      0x00\n        /* \"#utility.yul\":158:159   */\n      dup1\n        /* \"#utility.yul\":151:163   */\n      revert\n        /* \"#utility.yul\":119:121   */\n    tag_128:\n        /* \"#utility.yul\":183:189   */\n      dup2\n        /* \"#utility.yul\":174:189   */\n      swap1\n      pop\n        /* \"#utility.yul\":109:195   */\n      swap3\n      swap2\n      pop\n      pop\n      jump\t// out\n        /* \"#utility.yul\":201:340   */\n    tag_129:\n      0x00\n        /* \"#utility.yul\":285:291   */\n      dup2\n        /* \"#utility.yul\":272:292   */\n      calldataload\n        /* \"#utility.yul\":263:292   */\n      swap1\n      pop\n        /* \"#utility.yul\":301:334   */\n      tag_131\n        /* \"#utility.yul\":328:333   */\n      dup2\n        /* \"#utility.yul\":301:334   */\n      tag_132\n      jump\t// in\n    tag_131:\n        /* \"#utility.yul\":253:340   */\n      swap3\n      swap2\n      pop\n      pop\n      jump\t// out\n        /* \"#utility.yul\":346:747   */\n    tag_10:\n      0x00\n        /* \"#utility.yul\":477:479   */\n      0x20\n        /* \"#utility.yul\":465:474   */\n      dup3\n        /* \"#utility.yul\":456:463   */\n      dup5\n        /* \"#utility.yul\":452:475   */\n      sub\n        /* \"#utility.yul\":448:480   */\n      slt\n        /* \"#utility.yul\":445:447   */\n      iszero\n      tag_134\n      jumpi\n        /* \"#utility.yul\":493:494   */\n      0x00\n        /* \"#utility.yul\":490:491   */\n      dup1\n        /* \"#utility.yul\":483:495   */\n      revert\n        /* \"#utility.yul\":445:447   */\n    tag_134:\n        /* \"#utility.yul\":564:565   */\n      0x00\n        /* \"#utility.yul\":553:562   */\n      dup3\n        /* \"#utility.yul\":549:566   */\n      add\n        /* \"#utility.yul\":536:567   */\n      calldataload\n        /* \"#utility.yul\":594:612   */\n      0xffffffffffffffff\n        /* \"#utility.yul\":586:592   */\n      dup2\n        /* \"#utility.yul\":583:613   */\n      gt\n        /* \"#utility.yul\":580:582   */\n      iszero\n      tag_135\n      jumpi\n        /* \"#utility.yul\":626:627   */\n      0x00\n        /* \"#utility.yul\":623:624   */\n      dup1\n        /* \"#utility.yul\":616:628   */\n      revert\n        /* \"#utility.yul\":580:582   */\n    tag_135:\n        /* \"#utility.yul\":654:730   */\n      tag_136\n        /* \"#utility.yul\":722:729   */\n      dup5\n        /* \"#utility.yul\":713:719   */\n      dup3\n        /* \"#utility.yul\":702:711   */\n      dup6\n        /* \"#utility.yul\":698:720   */\n      add\n        /* \"#utility.yul\":654:730   */\n      tag_126\n      jump\t// in\n    tag_136:\n        /* \"#utility.yul\":644:730   */\n      swap2\n      pop\n        /* \"#utility.yul\":507:740   */\n      pop\n        /* \"#utility.yul\":435:747   */\n      swap3\n      swap2\n      pop\n      pop\n      jump\t// out\n        /* \"#utility.yul\":753:1015   */\n    tag_14:\n      0x00\n        /* \"#utility.yul\":861:863   */\n      0x20\n        /* \"#utility.yul\":849:858   */\n      dup3\n        /* \"#utility.yul\":840:847   */\n      dup5\n        /* \"#utility.yul\":836:859   */\n      sub\n        /* \"#utility.yul\":832:864   */\n      slt\n        /* \"#utility.yul\":829:831   */\n      iszero\n      tag_138\n      jumpi\n        /* \"#utility.yul\":877:878   */\n      0x00\n        /* \"#utility.yul\":874:875   */\n      dup1\n        /* \"#utility.yul\":867:879   */\n      revert\n        /* \"#utility.yul\":829:831   */\n    tag_138:\n        /* \"#utility.yul\":920:921   */\n      0x00\n        /* \"#utility.yul\":945:998   */\n      tag_139\n        /* \"#utility.yul\":990:997   */\n      dup5\n        /* \"#utility.yul\":981:987   */\n      dup3\n        /* \"#utility.yul\":970:979   */\n      dup6\n        /* \"#utility.yul\":966:988   */\n      add\n        /* \"#utility.yul\":945:998   */\n      tag_129\n      jump\t// in\n    tag_139:\n        /* \"#utility.yul\":935:998   */\n      swap2\n      pop\n        /* \"#utility.yul\":891:1008   */\n      pop\n        /* \"#utility.yul\":819:1015   */\n      swap3\n      swap2\n      pop\n      pop\n      jump\t// out\n        /* \"#utility.yul\":1021:1139   */\n    tag_140:\n        /* \"#utility.yul\":1108:1132   */\n      tag_142\n        /* \"#utility.yul\":1126:1131   */\n      dup2\n        /* \"#utility.yul\":1108:1132   */\n      tag_143\n      jump\t// in\n    tag_142:\n        /* \"#utility.yul\":1103:1106   */\n      dup3\n        /* \"#utility.yul\":1096:1133   */\n      mstore\n        /* \"#utility.yul\":1086:1139   */\n      pop\n      pop\n      jump\t// out\n        /* \"#utility.yul\":1145:1254   */\n    tag_144:\n        /* \"#utility.yul\":1226:1247   */\n      tag_146\n        /* \"#utility.yul\":1241:1246   */\n      dup2\n        /* \"#utility.yul\":1226:1247   */\n      tag_147\n      jump\t// in\n    tag_146:\n        /* \"#utility.yul\":1221:1224   */\n      dup3\n        /* \"#utility.yul\":1214:1248   */\n      mstore\n        /* \"#utility.yul\":1204:1254   */\n      pop\n      pop\n      jump\t// out\n        /* \"#utility.yul\":1260:1624   */\n    tag_148:\n      0x00\n        /* \"#utility.yul\":1376:1415   */\n      tag_150\n        /* \"#utility.yul\":1409:1414   */\n      dup3\n        /* \"#utility.yul\":1376:1415   */\n      tag_151\n      jump\t// in\n    tag_150:\n        /* \"#utility.yul\":1431:1502   */\n      tag_152\n        /* \"#utility.yul\":1495:1501   */\n      dup2\n        /* \"#utility.yul\":1490:1493   */\n      dup6\n        /* \"#utility.yul\":1431:1502   */\n      tag_153\n      jump\t// in\n    tag_152:\n        /* \"#utility.yul\":1424:1502   */\n      swap4\n      pop\n        /* \"#utility.yul\":1511:1563   */\n      tag_154\n        /* \"#utility.yul\":1556:1562   */\n      dup2\n        /* \"#utility.yul\":1551:1554   */\n      dup6\n        /* \"#utility.yul\":1544:1548   */\n      0x20\n        /* \"#utility.yul\":1537:1542   */\n      dup7\n        /* \"#utility.yul\":1533:1549   */\n      add\n        /* \"#utility.yul\":1511:1563   */\n      tag_155\n      jump\t// in\n    tag_154:\n        /* \"#utility.yul\":1588:1617   */\n      tag_156\n        /* \"#utility.yul\":1610:1616   */\n      dup2\n        /* \"#utility.yul\":1588:1617   */\n      tag_157\n      jump\t// in\n    tag_156:\n        /* \"#utility.yul\":1583:1586   */\n      dup5\n        /* \"#utility.yul\":1579:1618   */\n      add\n        /* \"#utility.yul\":1572:1618   */\n      swap2\n      pop\n        /* \"#utility.yul\":1352:1624   */\n      pop\n      swap3\n      swap2\n      pop\n      pop\n      jump\t// out\n        /* \"#utility.yul\":1630:1958   */\n    tag_158:\n      0x00\n        /* \"#utility.yul\":1793:1860   */\n      tag_160\n        /* \"#utility.yul\":1857:1859   */\n      0x1e\n        /* \"#utility.yul\":1852:1855   */\n      dup4\n        /* \"#utility.yul\":1793:1860   */\n      tag_153\n      jump\t// in\n    tag_160:\n        /* \"#utility.yul\":1786:1860   */\n      swap2\n      pop\n        /* \"#utility.yul\":1890:1922   */\n      0x596f7520686176656e7420626f72726f776564207468617420626f6f6b210000\n        /* \"#utility.yul\":1886:1887   */\n      0x00\n        /* \"#utility.yul\":1881:1884   */\n      dup4\n        /* \"#utility.yul\":1877:1888   */\n      add\n        /* \"#utility.yul\":1870:1923   */\n      mstore\n        /* \"#utility.yul\":1949:1951   */\n      0x20\n        /* \"#utility.yul\":1944:1947   */\n      dup3\n        /* \"#utility.yul\":1940:1952   */\n      add\n        /* \"#utility.yul\":1933:1952   */\n      swap1\n      pop\n        /* \"#utility.yul\":1776:1958   */\n      swap2\n      swap1\n      pop\n      jump\t// out\n        /* \"#utility.yul\":1964:2330   */\n    tag_161:\n      0x00\n        /* \"#utility.yul\":2127:2194   */\n      tag_163\n        /* \"#utility.yul\":2191:2193   */\n      0x22\n        /* \"#utility.yul\":2186:2189   */\n      dup4\n        /* \"#utility.yul\":2127:2194   */\n      tag_153\n      jump\t// in\n    tag_163:\n        /* \"#utility.yul\":2120:2194   */\n      swap2\n      pop\n        /* \"#utility.yul\":2224:2258   */\n      0x596f7527766520616c726561647920626f72726f776564207468617420626f6f\n        /* \"#utility.yul\":2220:2221   */\n      0x00\n        /* \"#utility.yul\":2215:2218   */\n      dup4\n        /* \"#utility.yul\":2211:2222   */\n      add\n        /* \"#utility.yul\":2204:2259   */\n      mstore\n        /* \"#utility.yul\":2290:2294   */\n      0x6b21000000000000000000000000000000000000000000000000000000000000\n        /* \"#utility.yul\":2285:2287   */\n      0x20\n        /* \"#utility.yul\":2280:2283   */\n      dup4\n        /* \"#utility.yul\":2276:2288   */\n      add\n        /* \"#utility.yul\":2269:2295   */\n      mstore\n        /* \"#utility.yul\":2321:2323   */\n      0x40\n        /* \"#utility.yul\":2316:2319   */\n      dup3\n        /* \"#utility.yul\":2312:2324   */\n      add\n        /* \"#utility.yul\":2305:2324   */\n      swap1\n      pop\n        /* \"#utility.yul\":2110:2330   */\n      swap2\n      swap1\n      pop\n      jump\t// out\n        /* \"#utility.yul\":2336:2660   */\n    tag_164:\n      0x00\n        /* \"#utility.yul\":2499:2566   */\n      tag_166\n        /* \"#utility.yul\":2563:2565   */\n      0x1a\n        /* \"#utility.yul\":2558:2561   */\n      dup4\n        /* \"#utility.yul\":2499:2566   */\n      tag_153\n      jump\t// in\n    tag_166:\n        /* \"#utility.yul\":2492:2566   */\n      swap2\n      pop\n        /* \"#utility.yul\":2596:2624   */\n      0x43757272656e742075736572206973206e6f74206f776e657221000000000000\n        /* \"#utility.yul\":2592:2593   */\n      0x00\n        /* \"#utility.yul\":2587:2590   */\n      dup4\n        /* \"#utility.yul\":2583:2594   */\n      add\n        /* \"#utility.yul\":2576:2625   */\n      mstore\n        /* \"#utility.yul\":2651:2653   */\n      0x20\n        /* \"#utility.yul\":2646:2649   */\n      dup3\n        /* \"#utility.yul\":2642:2654   */\n      add\n        /* \"#utility.yul\":2635:2654   */\n      swap1\n      pop\n        /* \"#utility.yul\":2482:2660   */\n      swap2\n      swap1\n      pop\n      jump\t// out\n        /* \"#utility.yul\":2666:3034   */\n    tag_167:\n      0x00\n        /* \"#utility.yul\":2829:2896   */\n      tag_169\n        /* \"#utility.yul\":2893:2895   */\n      0x24\n        /* \"#utility.yul\":2888:2891   */\n      dup4\n        /* \"#utility.yul\":2829:2896   */\n      tag_153\n      jump\t// in\n    tag_169:\n        /* \"#utility.yul\":2822:2896   */\n      swap2\n      pop\n        /* \"#utility.yul\":2926:2960   */\n      0x5468697320626f6f6b206973206f7574206f662073746f636b2063757272656e\n        /* \"#utility.yul\":2922:2923   */\n      0x00\n        /* \"#utility.yul\":2917:2920   */\n      dup4\n        /* \"#utility.yul\":2913:2924   */\n      add\n        /* \"#utility.yul\":2906:2961   */\n      mstore\n        /* \"#utility.yul\":2992:2998   */\n      0x746c792100000000000000000000000000000000000000000000000000000000\n        /* \"#utility.yul\":2987:2989   */\n      0x20\n        /* \"#utility.yul\":2982:2985   */\n      dup4\n        /* \"#utility.yul\":2978:2990   */\n      add\n        /* \"#utility.yul\":2971:2999   */\n      mstore\n        /* \"#utility.yul\":3025:3027   */\n      0x40\n        /* \"#utility.yul\":3020:3023   */\n      dup3\n        /* \"#utility.yul\":3016:3028   */\n      add\n        /* \"#utility.yul\":3009:3028   */\n      swap1\n      pop\n        /* \"#utility.yul\":2812:3034   */\n      swap2\n      swap1\n      pop\n      jump\t// out\n        /* \"#utility.yul\":3040:3407   */\n    tag_170:\n      0x00\n        /* \"#utility.yul\":3203:3270   */\n      tag_172\n        /* \"#utility.yul\":3267:3269   */\n      0x23\n        /* \"#utility.yul\":3262:3265   */\n      dup4\n        /* \"#utility.yul\":3203:3270   */\n      tag_153\n      jump\t// in\n    tag_172:\n        /* \"#utility.yul\":3196:3270   */\n      swap2\n      pop\n        /* \"#utility.yul\":3300:3334   */\n      0x426f6f6b20616c72656164792065786973747320696e20746865204c69627261\n        /* \"#utility.yul\":3296:3297   */\n      0x00\n        /* \"#utility.yul\":3291:3294   */\n      dup4\n        /* \"#utility.yul\":3287:3298   */\n      add\n        /* \"#utility.yul\":3280:3335   */\n      mstore\n        /* \"#utility.yul\":3366:3371   */\n      0x7279210000000000000000000000000000000000000000000000000000000000\n        /* \"#utility.yul\":3361:3363   */\n      0x20\n        /* \"#utility.yul\":3356:3359   */\n      dup4\n        /* \"#utility.yul\":3352:3364   */\n      add\n        /* \"#utility.yul\":3345:3372   */\n      mstore\n        /* \"#utility.yul\":3398:3400   */\n      0x40\n        /* \"#utility.yul\":3393:3396   */\n      dup3\n        /* \"#utility.yul\":3389:3401   */\n      add\n        /* \"#utility.yul\":3382:3401   */\n      swap1\n      pop\n        /* \"#utility.yul\":3186:3407   */\n      swap2\n      swap1\n      pop\n      jump\t// out\n        /* \"#utility.yul\":3413:3742   */\n    tag_173:\n      0x00\n        /* \"#utility.yul\":3576:3643   */\n      tag_175\n        /* \"#utility.yul\":3640:3642   */\n      0x1f\n        /* \"#utility.yul\":3635:3638   */\n      dup4\n        /* \"#utility.yul\":3576:3643   */\n      tag_153\n      jump\t// in\n    tag_175:\n        /* \"#utility.yul\":3569:3643   */\n      swap2\n      pop\n        /* \"#utility.yul\":3673:3706   */\n      0x426f6f6b20646f6573206e6f7420657869737420696e206c6962726172792100\n        /* \"#utility.yul\":3669:3670   */\n      0x00\n        /* \"#utility.yul\":3664:3667   */\n      dup4\n        /* \"#utility.yul\":3660:3671   */\n      add\n        /* \"#utility.yul\":3653:3707   */\n      mstore\n        /* \"#utility.yul\":3733:3735   */\n      0x20\n        /* \"#utility.yul\":3728:3731   */\n      dup3\n        /* \"#utility.yul\":3724:3736   */\n      add\n        /* \"#utility.yul\":3717:3736   */\n      swap1\n      pop\n        /* \"#utility.yul\":3559:3742   */\n      swap2\n      swap1\n      pop\n      jump\t// out\n        /* \"#utility.yul\":3748:3866   */\n    tag_176:\n        /* \"#utility.yul\":3835:3859   */\n      tag_178\n        /* \"#utility.yul\":3853:3858   */\n      dup2\n        /* \"#utility.yul\":3835:3859   */\n      tag_179\n      jump\t// in\n    tag_178:\n        /* \"#utility.yul\":3830:3833   */\n      dup3\n        /* \"#utility.yul\":3823:3860   */\n      mstore\n        /* \"#utility.yul\":3813:3866   */\n      pop\n      pop\n      jump\t// out\n        /* \"#utility.yul\":3872:4094   */\n    tag_21:\n      0x00\n        /* \"#utility.yul\":4003:4005   */\n      0x20\n        /* \"#utility.yul\":3992:4001   */\n      dup3\n        /* \"#utility.yul\":3988:4006   */\n      add\n        /* \"#utility.yul\":3980:4006   */\n      swap1\n      pop\n        /* \"#utility.yul\":4016:4087   */\n      tag_181\n        /* \"#utility.yul\":4084:4085   */\n      0x00\n        /* \"#utility.yul\":4073:4082   */\n      dup4\n        /* \"#utility.yul\":4069:4086   */\n      add\n        /* \"#utility.yul\":4060:4066   */\n      dup5\n        /* \"#utility.yul\":4016:4087   */\n      tag_140\n      jump\t// in\n    tag_181:\n        /* \"#utility.yul\":3970:4094   */\n      swap3\n      swap2\n      pop\n      pop\n      jump\t// out\n        /* \"#utility.yul\":4100:4519   */\n    tag_81:\n      0x00\n        /* \"#utility.yul\":4304:4306   */\n      0x20\n        /* \"#utility.yul\":4293:4302   */\n      dup3\n        /* \"#utility.yul\":4289:4307   */\n      add\n        /* \"#utility.yul\":4281:4307   */\n      swap1\n      pop\n        /* \"#utility.yul\":4353:4362   */\n      dup2\n        /* \"#utility.yul\":4347:4351   */\n      dup2\n        /* \"#utility.yul\":4343:4363   */\n      sub\n        /* \"#utility.yul\":4339:4340   */\n      0x00\n        /* \"#utility.yul\":4328:4337   */\n      dup4\n        /* \"#utility.yul\":4324:4341   */\n      add\n        /* \"#utility.yul\":4317:4364   */\n      mstore\n        /* \"#utility.yul\":4381:4512   */\n      tag_183\n        /* \"#utility.yul\":4507:4511   */\n      dup2\n        /* \"#utility.yul\":4381:4512   */\n      tag_158\n      jump\t// in\n    tag_183:\n        /* \"#utility.yul\":4373:4512   */\n      swap1\n      pop\n        /* \"#utility.yul\":4271:4519   */\n      swap2\n      swap1\n      pop\n      jump\t// out\n        /* \"#utility.yul\":4525:4944   */\n    tag_62:\n      0x00\n        /* \"#utility.yul\":4729:4731   */\n      0x20\n        /* \"#utility.yul\":4718:4727   */\n      dup3\n        /* \"#utility.yul\":4714:4732   */\n      add\n        /* \"#utility.yul\":4706:4732   */\n      swap1\n      pop\n        /* \"#utility.yul\":4778:4787   */\n      dup2\n        /* \"#utility.yul\":4772:4776   */\n      dup2\n        /* \"#utility.yul\":4768:4788   */\n      sub\n        /* \"#utility.yul\":4764:4765   */\n      0x00\n        /* \"#utility.yul\":4753:4762   */\n      dup4\n        /* \"#utility.yul\":4749:4766   */\n      add\n        /* \"#utility.yul\":4742:4789   */\n      mstore\n        /* \"#utility.yul\":4806:4937   */\n      tag_185\n        /* \"#utility.yul\":4932:4936   */\n      dup2\n        /* \"#utility.yul\":4806:4937   */\n      tag_161\n      jump\t// in\n    tag_185:\n        /* \"#utility.yul\":4798:4937   */\n      swap1\n      pop\n        /* \"#utility.yul\":4696:4944   */\n      swap2\n      swap1\n      pop\n      jump\t// out\n        /* \"#utility.yul\":4950:5369   */\n    tag_31:\n      0x00\n        /* \"#utility.yul\":5154:5156   */\n      0x20\n        /* \"#utility.yul\":5143:5152   */\n      dup3\n        /* \"#utility.yul\":5139:5157   */\n      add\n        /* \"#utility.yul\":5131:5157   */\n      swap1\n      pop\n        /* \"#utility.yul\":5203:5212   */\n      dup2\n        /* \"#utility.yul\":5197:5201   */\n      dup2\n        /* \"#utility.yul\":5193:5213   */\n      sub\n        /* \"#utility.yul\":5189:5190   */\n      0x00\n        /* \"#utility.yul\":5178:5187   */\n      dup4\n        /* \"#utility.yul\":5174:5191   */\n      add\n        /* \"#utility.yul\":5167:5214   */\n      mstore\n        /* \"#utility.yul\":5231:5362   */\n      tag_187\n        /* \"#utility.yul\":5357:5361   */\n      dup2\n        /* \"#utility.yul\":5231:5362   */\n      tag_164\n      jump\t// in\n    tag_187:\n        /* \"#utility.yul\":5223:5362   */\n      swap1\n      pop\n        /* \"#utility.yul\":5121:5369   */\n      swap2\n      swap1\n      pop\n      jump\t// out\n        /* \"#utility.yul\":5375:5794   */\n    tag_55:\n      0x00\n        /* \"#utility.yul\":5579:5581   */\n      0x20\n        /* \"#utility.yul\":5568:5577   */\n      dup3\n        /* \"#utility.yul\":5564:5582   */\n      add\n        /* \"#utility.yul\":5556:5582   */\n      swap1\n      pop\n        /* \"#utility.yul\":5628:5637   */\n      dup2\n        /* \"#utility.yul\":5622:5626   */\n      dup2\n        /* \"#utility.yul\":5618:5638   */\n      sub\n        /* \"#utility.yul\":5614:5615   */\n      0x00\n        /* \"#utility.yul\":5603:5612   */\n      dup4\n        /* \"#utility.yul\":5599:5616   */\n      add\n        /* \"#utility.yul\":5592:5639   */\n      mstore\n        /* \"#utility.yul\":5656:5787   */\n      tag_189\n        /* \"#utility.yul\":5782:5786   */\n      dup2\n        /* \"#utility.yul\":5656:5787   */\n      tag_167\n      jump\t// in\n    tag_189:\n        /* \"#utility.yul\":5648:5787   */\n      swap1\n      pop\n        /* \"#utility.yul\":5546:5794   */\n      swap2\n      swap1\n      pop\n      jump\t// out\n        /* \"#utility.yul\":5800:6219   */\n    tag_35:\n      0x00\n        /* \"#utility.yul\":6004:6006   */\n      0x20\n        /* \"#utility.yul\":5993:6002   */\n      dup3\n        /* \"#utility.yul\":5989:6007   */\n      add\n        /* \"#utility.yul\":5981:6007   */\n      swap1\n      pop\n        /* \"#utility.yul\":6053:6062   */\n      dup2\n        /* \"#utility.yul\":6047:6051   */\n      dup2\n        /* \"#utility.yul\":6043:6063   */\n      sub\n        /* \"#utility.yul\":6039:6040   */\n      0x00\n        /* \"#utility.yul\":6028:6037   */\n      dup4\n        /* \"#utility.yul\":6024:6041   */\n      add\n        /* \"#utility.yul\":6017:6064   */\n      mstore\n        /* \"#utility.yul\":6081:6212   */\n      tag_191\n        /* \"#utility.yul\":6207:6211   */\n      dup2\n        /* \"#utility.yul\":6081:6212   */\n      tag_170\n      jump\t// in\n    tag_191:\n        /* \"#utility.yul\":6073:6212   */\n      swap1\n      pop\n        /* \"#utility.yul\":5971:6219   */\n      swap2\n      swap1\n      pop\n      jump\t// out\n        /* \"#utility.yul\":6225:6644   */\n    tag_51:\n      0x00\n        /* \"#utility.yul\":6429:6431   */\n      0x20\n        /* \"#utility.yul\":6418:6427   */\n      dup3\n        /* \"#utility.yul\":6414:6432   */\n      add\n        /* \"#utility.yul\":6406:6432   */\n      swap1\n      pop\n        /* \"#utility.yul\":6478:6487   */\n      dup2\n        /* \"#utility.yul\":6472:6476   */\n      dup2\n        /* \"#utility.yul\":6468:6488   */\n      sub\n        /* \"#utility.yul\":6464:6465   */\n      0x00\n        /* \"#utility.yul\":6453:6462   */\n      dup4\n        /* \"#utility.yul\":6449:6466   */\n      add\n        /* \"#utility.yul\":6442:6489   */\n      mstore\n        /* \"#utility.yul\":6506:6637   */\n      tag_193\n        /* \"#utility.yul\":6632:6636   */\n      dup2\n        /* \"#utility.yul\":6506:6637   */\n      tag_173\n      jump\t// in\n    tag_193:\n        /* \"#utility.yul\":6498:6637   */\n      swap1\n      pop\n        /* \"#utility.yul\":6396:6644   */\n      swap2\n      swap1\n      pop\n      jump\t// out\n        /* \"#utility.yul\":6650:7282   */\n    tag_17:\n      0x00\n        /* \"#utility.yul\":6879:6882   */\n      0x80\n        /* \"#utility.yul\":6868:6877   */\n      dup3\n        /* \"#utility.yul\":6864:6883   */\n      add\n        /* \"#utility.yul\":6856:6883   */\n      swap1\n      pop\n        /* \"#utility.yul\":6893:6964   */\n      tag_195\n        /* \"#utility.yul\":6961:6962   */\n      0x00\n        /* \"#utility.yul\":6950:6959   */\n      dup4\n        /* \"#utility.yul\":6946:6963   */\n      add\n        /* \"#utility.yul\":6937:6943   */\n      dup8\n        /* \"#utility.yul\":6893:6964   */\n      tag_176\n      jump\t// in\n    tag_195:\n        /* \"#utility.yul\":7011:7020   */\n      dup2\n        /* \"#utility.yul\":7005:7009   */\n      dup2\n        /* \"#utility.yul\":7001:7021   */\n      sub\n        /* \"#utility.yul\":6996:6998   */\n      0x20\n        /* \"#utility.yul\":6985:6994   */\n      dup4\n        /* \"#utility.yul\":6981:6999   */\n      add\n        /* \"#utility.yul\":6974:7022   */\n      mstore\n        /* \"#utility.yul\":7039:7117   */\n      tag_196\n        /* \"#utility.yul\":7112:7116   */\n      dup2\n        /* \"#utility.yul\":7103:7109   */\n      dup7\n        /* \"#utility.yul\":7039:7117   */\n      tag_148\n      jump\t// in\n    tag_196:\n        /* \"#utility.yul\":7031:7117   */\n      swap1\n      pop\n        /* \"#utility.yul\":7127:7199   */\n      tag_197\n        /* \"#utility.yul\":7195:7197   */\n      0x40\n        /* \"#utility.yul\":7184:7193   */\n      dup4\n        /* \"#utility.yul\":7180:7198   */\n      add\n        /* \"#utility.yul\":7171:7177   */\n      dup6\n        /* \"#utility.yul\":7127:7199   */\n      tag_176\n      jump\t// in\n    tag_197:\n        /* \"#utility.yul\":7209:7275   */\n      tag_198\n        /* \"#utility.yul\":7271:7273   */\n      0x60\n        /* \"#utility.yul\":7260:7269   */\n      dup4\n        /* \"#utility.yul\":7256:7274   */\n      add\n        /* \"#utility.yul\":7247:7253   */\n      dup5\n        /* \"#utility.yul\":7209:7275   */\n      tag_144\n      jump\t// in\n    tag_198:\n        /* \"#utility.yul\":6846:7282   */\n      swap6\n      swap5\n      pop\n      pop\n      pop\n      pop\n      pop\n      jump\t// out\n        /* \"#utility.yul\":7288:7812   */\n    tag_37:\n      0x00\n      dup1\n        /* \"#utility.yul\":7428:7439   */\n      dup4\n        /* \"#utility.yul\":7415:7440   */\n      calldataload\n        /* \"#utility.yul\":7528:7529   */\n      0x01\n        /* \"#utility.yul\":7522:7526   */\n      0x20\n        /* \"#utility.yul\":7518:7530   */\n      sub\n        /* \"#utility.yul\":7507:7515   */\n      dup5\n        /* \"#utility.yul\":7491:7505   */\n      calldatasize\n        /* \"#utility.yul\":7487:7516   */\n      sub\n        /* \"#utility.yul\":7483:7531   */\n      sub\n        /* \"#utility.yul\":7463:7481   */\n      dup2\n        /* \"#utility.yul\":7459:7532   */\n      slt\n        /* \"#utility.yul\":7449:7451   */\n      tag_200\n      jumpi\n        /* \"#utility.yul\":7546:7547   */\n      0x00\n        /* \"#utility.yul\":7543:7544   */\n      dup1\n        /* \"#utility.yul\":7536:7548   */\n      revert\n        /* \"#utility.yul\":7449:7451   */\n    tag_200:\n        /* \"#utility.yul\":7581:7599   */\n      dup1\n        /* \"#utility.yul\":7571:7579   */\n      dup5\n        /* \"#utility.yul\":7567:7600   */\n      add\n        /* \"#utility.yul\":7559:7600   */\n      swap3\n      pop\n        /* \"#utility.yul\":7633:7637   */\n      dup3\n        /* \"#utility.yul\":7620:7638   */\n      calldataload\n        /* \"#utility.yul\":7610:7638   */\n      swap2\n      pop\n        /* \"#utility.yul\":7661:7679   */\n      0xffffffffffffffff\n        /* \"#utility.yul\":7653:7659   */\n      dup3\n        /* \"#utility.yul\":7650:7680   */\n      gt\n        /* \"#utility.yul\":7647:7649   */\n      iszero\n      tag_201\n      jumpi\n        /* \"#utility.yul\":7693:7694   */\n      0x00\n        /* \"#utility.yul\":7690:7691   */\n      dup1\n        /* \"#utility.yul\":7683:7695   */\n      revert\n        /* \"#utility.yul\":7647:7649   */\n    tag_201:\n        /* \"#utility.yul\":7724:7726   */\n      0x20\n        /* \"#utility.yul\":7718:7722   */\n      dup4\n        /* \"#utility.yul\":7714:7727   */\n      add\n        /* \"#utility.yul\":7706:7727   */\n      swap3\n      pop\n        /* \"#utility.yul\":7781:7785   */\n      0x01\n        /* \"#utility.yul\":7773:7779   */\n      dup3\n        /* \"#utility.yul\":7769:7786   */\n      mul\n        /* \"#utility.yul\":7753:7767   */\n      calldatasize\n        /* \"#utility.yul\":7749:7787   */\n      sub\n        /* \"#utility.yul\":7743:7747   */\n      dup4\n        /* \"#utility.yul\":7739:7788   */\n      sgt\n        /* \"#utility.yul\":7736:7738   */\n      iszero\n      tag_202\n      jumpi\n        /* \"#utility.yul\":7801:7802   */\n      0x00\n        /* \"#utility.yul\":7798:7799   */\n      dup1\n        /* \"#utility.yul\":7791:7803   */\n      revert\n        /* \"#utility.yul\":7736:7738   */\n    tag_202:\n        /* \"#utility.yul\":7379:7812   */\n      pop\n      swap3\n      pop\n      swap3\n      swap1\n      pop\n      jump\t// out\n        /* \"#utility.yul\":7818:7917   */\n    tag_151:\n      0x00\n        /* \"#utility.yul\":7904:7909   */\n      dup2\n        /* \"#utility.yul\":7898:7910   */\n      mload\n        /* \"#utility.yul\":7888:7910   */\n      swap1\n      pop\n        /* \"#utility.yul\":7877:7917   */\n      swap2\n      swap1\n      pop\n      jump\t// out\n        /* \"#utility.yul\":7923:8092   */\n    tag_153:\n      0x00\n        /* \"#utility.yul\":8041:8047   */\n      dup3\n        /* \"#utility.yul\":8036:8039   */\n      dup3\n        /* \"#utility.yul\":8029:8048   */\n      mstore\n        /* \"#utility.yul\":8081:8085   */\n      0x20\n        /* \"#utility.yul\":8076:8079   */\n      dup3\n        /* \"#utility.yul\":8072:8086   */\n      add\n        /* \"#utility.yul\":8057:8086   */\n      swap1\n      pop\n        /* \"#utility.yul\":8019:8092   */\n      swap3\n      swap2\n      pop\n      pop\n      jump\t// out\n        /* \"#utility.yul\":8098:8289   */\n    tag_107:\n      0x00\n        /* \"#utility.yul\":8158:8178   */\n      tag_206\n        /* \"#utility.yul\":8176:8177   */\n      dup3\n        /* \"#utility.yul\":8158:8178   */\n      tag_179\n      jump\t// in\n    tag_206:\n        /* \"#utility.yul\":8153:8178   */\n      swap2\n      pop\n        /* \"#utility.yul\":8192:8212   */\n      tag_207\n        /* \"#utility.yul\":8210:8211   */\n      dup4\n        /* \"#utility.yul\":8192:8212   */\n      tag_179\n      jump\t// in\n    tag_207:\n        /* \"#utility.yul\":8187:8212   */\n      swap3\n      pop\n        /* \"#utility.yul\":8231:8232   */\n      dup3\n        /* \"#utility.yul\":8228:8229   */\n      dup3\n        /* \"#utility.yul\":8225:8233   */\n      lt\n        /* \"#utility.yul\":8222:8224   */\n      iszero\n      tag_208\n      jumpi\n        /* \"#utility.yul\":8236:8254   */\n      tag_209\n      tag_210\n      jump\t// in\n    tag_209:\n        /* \"#utility.yul\":8222:8224   */\n    tag_208:\n        /* \"#utility.yul\":8281:8282   */\n      dup3\n        /* \"#utility.yul\":8278:8279   */\n      dup3\n        /* \"#utility.yul\":8274:8283   */\n      sub\n        /* \"#utility.yul\":8266:8283   */\n      swap1\n      pop\n        /* \"#utility.yul\":8143:8289   */\n      swap3\n      swap2\n      pop\n      pop\n      jump\t// out\n        /* \"#utility.yul\":8295:8391   */\n    tag_143:\n      0x00\n        /* \"#utility.yul\":8361:8385   */\n      tag_212\n        /* \"#utility.yul\":8379:8384   */\n      dup3\n        /* \"#utility.yul\":8361:8385   */\n      tag_213\n      jump\t// in\n    tag_212:\n        /* \"#utility.yul\":8350:8385   */\n      swap1\n      pop\n        /* \"#utility.yul\":8340:8391   */\n      swap2\n      swap1\n      pop\n      jump\t// out\n        /* \"#utility.yul\":8397:8487   */\n    tag_147:\n      0x00\n        /* \"#utility.yul\":8474:8479   */\n      dup2\n        /* \"#utility.yul\":8467:8480   */\n      iszero\n        /* \"#utility.yul\":8460:8481   */\n      iszero\n        /* \"#utility.yul\":8449:8481   */\n      swap1\n      pop\n        /* \"#utility.yul\":8439:8487   */\n      swap2\n      swap1\n      pop\n      jump\t// out\n        /* \"#utility.yul\":8493:8619   */\n    tag_213:\n      0x00\n        /* \"#utility.yul\":8570:8612   */\n      0xffffffffffffffffffffffffffffffffffffffff\n        /* \"#utility.yul\":8563:8568   */\n      dup3\n        /* \"#utility.yul\":8559:8613   */\n      and\n        /* \"#utility.yul\":8548:8613   */\n      swap1\n      pop\n        /* \"#utility.yul\":8538:8619   */\n      swap2\n      swap1\n      pop\n      jump\t// out\n        /* \"#utility.yul\":8625:8702   */\n    tag_179:\n      0x00\n        /* \"#utility.yul\":8691:8696   */\n      dup2\n        /* \"#utility.yul\":8680:8696   */\n      swap1\n      pop\n        /* \"#utility.yul\":8670:8702   */\n      swap2\n      swap1\n      pop\n      jump\t// out\n        /* \"#utility.yul\":8708:9015   */\n    tag_155:\n        /* \"#utility.yul\":8776:8777   */\n      0x00\n        /* \"#utility.yul\":8786:8899   */\n    tag_218:\n        /* \"#utility.yul\":8800:8806   */\n      dup4\n        /* \"#utility.yul\":8797:8798   */\n      dup2\n        /* \"#utility.yul\":8794:8807   */\n      lt\n        /* \"#utility.yul\":8786:8899   */\n      iszero\n      tag_220\n      jumpi\n        /* \"#utility.yul\":8885:8886   */\n      dup1\n        /* \"#utility.yul\":8880:8883   */\n      dup3\n        /* \"#utility.yul\":8876:8887   */\n      add\n        /* \"#utility.yul\":8870:8888   */\n      mload\n        /* \"#utility.yul\":8866:8867   */\n      dup2\n        /* \"#utility.yul\":8861:8864   */\n      dup5\n        /* \"#utility.yul\":8857:8868   */\n      add\n        /* \"#utility.yul\":8850:8889   */\n      mstore\n        /* \"#utility.yul\":8822:8824   */\n      0x20\n        /* \"#utility.yul\":8819:8820   */\n      dup2\n        /* \"#utility.yul\":8815:8825   */\n      add\n        /* \"#utility.yul\":8810:8825   */\n      swap1\n      pop\n        /* \"#utility.yul\":8786:8899   */\n      jump(tag_218)\n    tag_220:\n        /* \"#utility.yul\":8917:8923   */\n      dup4\n        /* \"#utility.yul\":8914:8915   */\n      dup2\n        /* \"#utility.yul\":8911:8924   */\n      gt\n        /* \"#utility.yul\":8908:8910   */\n      iszero\n      tag_221\n      jumpi\n        /* \"#utility.yul\":8997:8998   */\n      0x00\n        /* \"#utility.yul\":8988:8994   */\n      dup5\n        /* \"#utility.yul\":8983:8986   */\n      dup5\n        /* \"#utility.yul\":8979:8995   */\n      add\n        /* \"#utility.yul\":8972:8999   */\n      mstore\n        /* \"#utility.yul\":8908:8910   */\n    tag_221:\n        /* \"#utility.yul\":8757:9015   */\n      pop\n      pop\n      pop\n      pop\n      jump\t// out\n        /* \"#utility.yul\":9021:9192   */\n    tag_71:\n      0x00\n        /* \"#utility.yul\":9083:9107   */\n      tag_223\n        /* \"#utility.yul\":9101:9106   */\n      dup3\n        /* \"#utility.yul\":9083:9107   */\n      tag_179\n      jump\t// in\n    tag_223:\n        /* \"#utility.yul\":9074:9107   */\n      swap2\n      pop\n        /* \"#utility.yul\":9129:9133   */\n      0x00\n        /* \"#utility.yul\":9122:9127   */\n      dup3\n        /* \"#utility.yul\":9119:9134   */\n      eq\n        /* \"#utility.yul\":9116:9118   */\n      iszero\n      tag_224\n      jumpi\n        /* \"#utility.yul\":9137:9155   */\n      tag_225\n      tag_210\n      jump\t// in\n    tag_225:\n        /* \"#utility.yul\":9116:9118   */\n    tag_224:\n        /* \"#utility.yul\":9184:9185   */\n      0x01\n        /* \"#utility.yul\":9177:9182   */\n      dup3\n        /* \"#utility.yul\":9173:9186   */\n      sub\n        /* \"#utility.yul\":9166:9186   */\n      swap1\n      pop\n        /* \"#utility.yul\":9064:9192   */\n      swap2\n      swap1\n      pop\n      jump\t// out\n        /* \"#utility.yul\":9198:9518   */\n    tag_43:\n      0x00\n        /* \"#utility.yul\":9279:9280   */\n      0x02\n        /* \"#utility.yul\":9273:9277   */\n      dup3\n        /* \"#utility.yul\":9269:9281   */\n      div\n        /* \"#utility.yul\":9259:9281   */\n      swap1\n      pop\n        /* \"#utility.yul\":9326:9327   */\n      0x01\n        /* \"#utility.yul\":9320:9324   */\n      dup3\n        /* \"#utility.yul\":9316:9328   */\n      and\n        /* \"#utility.yul\":9347:9365   */\n      dup1\n        /* \"#utility.yul\":9337:9339   */\n      tag_227\n      jumpi\n        /* \"#utility.yul\":9403:9407   */\n      0x7f\n        /* \"#utility.yul\":9395:9401   */\n      dup3\n        /* \"#utility.yul\":9391:9408   */\n      and\n        /* \"#utility.yul\":9381:9408   */\n      swap2\n      pop\n        /* \"#utility.yul\":9337:9339   */\n    tag_227:\n        /* \"#utility.yul\":9465:9467   */\n      0x20\n        /* \"#utility.yul\":9457:9463   */\n      dup3\n        /* \"#utility.yul\":9454:9468   */\n      lt\n        /* \"#utility.yul\":9434:9452   */\n      dup2\n        /* \"#utility.yul\":9431:9469   */\n      eq\n        /* \"#utility.yul\":9428:9430   */\n      iszero\n      tag_228\n      jumpi\n        /* \"#utility.yul\":9484:9502   */\n      tag_229\n      tag_230\n      jump\t// in\n    tag_229:\n        /* \"#utility.yul\":9428:9430   */\n    tag_228:\n        /* \"#utility.yul\":9249:9518   */\n      pop\n      swap2\n      swap1\n      pop\n      jump\t// out\n        /* \"#utility.yul\":9524:9757   */\n    tag_41:\n      0x00\n        /* \"#utility.yul\":9586:9610   */\n      tag_232\n        /* \"#utility.yul\":9604:9609   */\n      dup3\n        /* \"#utility.yul\":9586:9610   */\n      tag_179\n      jump\t// in\n    tag_232:\n        /* \"#utility.yul\":9577:9610   */\n      swap2\n      pop\n        /* \"#utility.yul\":9632:9698   */\n      0xffffffffffffffffffffffffffffffffffffffffffffffffffffffffffffffff\n        /* \"#utility.yul\":9625:9630   */\n      dup3\n        /* \"#utility.yul\":9622:9699   */\n      eq\n        /* \"#utility.yul\":9619:9621   */\n      iszero\n      tag_233\n      jumpi\n        /* \"#utility.yul\":9702:9720   */\n      tag_234\n      tag_210\n      jump\t// in\n    tag_234:\n        /* \"#utility.yul\":9619:9621   */\n    tag_233:\n        /* \"#utility.yul\":9749:9750   */\n      0x01\n        /* \"#utility.yul\":9742:9747   */\n      dup3\n        /* \"#utility.yul\":9738:9751   */\n      add\n        /* \"#utility.yul\":9731:9751   */\n      swap1\n      pop\n        /* \"#utility.yul\":9567:9757   */\n      swap2\n      swap1\n      pop\n      jump\t// out\n        /* \"#utility.yul\":9763:9943   */\n    tag_210:\n        /* \"#utility.yul\":9811:9888   */\n      0x4e487b7100000000000000000000000000000000000000000000000000000000\n        /* \"#utility.yul\":9808:9809   */\n      0x00\n        /* \"#utility.yul\":9801:9889   */\n      mstore\n        /* \"#utility.yul\":9908:9912   */\n      0x11\n        /* \"#utility.yul\":9905:9906   */\n      0x04\n        /* \"#utility.yul\":9898:9913   */\n      mstore\n        /* \"#utility.yul\":9932:9936   */\n      0x24\n        /* \"#utility.yul\":9929:9930   */\n      0x00\n        /* \"#utility.yul\":9922:9937   */\n      revert\n        /* \"#utility.yul\":9949:10129   */\n    tag_230:\n        /* \"#utility.yul\":9997:10074   */\n      0x4e487b7100000000000000000000000000000000000000000000000000000000\n        /* \"#utility.yul\":9994:9995   */\n      0x00\n        /* \"#utility.yul\":9987:10075   */\n      mstore\n        /* \"#utility.yul\":10094:10098   */\n      0x22\n        /* \"#utility.yul\":10091:10092   */\n      0x04\n        /* \"#utility.yul\":10084:10099   */\n      mstore\n        /* \"#utility.yul\":10118:10122   */\n      0x24\n        /* \"#utility.yul\":10115:10116   */\n      0x00\n        /* \"#utility.yul\":10108:10123   */\n      revert\n        /* \"#utility.yul\":10135:10237   */\n    tag_157:\n      0x00\n        /* \"#utility.yul\":10227:10229   */\n      0x1f\n        /* \"#utility.yul\":10223:10230   */\n      not\n        /* \"#utility.yul\":10218:10220   */\n      0x1f\n        /* \"#utility.yul\":10211:10216   */\n      dup4\n        /* \"#utility.yul\":10207:10221   */\n      add\n        /* \"#utility.yul\":10203:10231   */\n      and\n        /* \"#utility.yul\":10193:10231   */\n      swap1\n      pop\n        /* \"#utility.yul\":10183:10237   */\n      swap2\n      swap1\n      pop\n      jump\t// out\n        /* \"#utility.yul\":10243:10365   */\n    tag_132:\n        /* \"#utility.yul\":10316:10340   */\n      tag_239\n        /* \"#utility.yul\":10334:10339   */\n      dup2\n        /* \"#utility.yul\":10316:10340   */\n      tag_179\n      jump\t// in\n    tag_239:\n        /* \"#utility.yul\":10309:10314   */\n      dup2\n        /* \"#utility.yul\":10306:10341   */\n      eq\n        /* \"#utility.yul\":10296:10298   */\n      tag_240\n      jumpi\n        /* \"#utility.yul\":10355:10356   */\n      0x00\n        /* \"#utility.yul\":10352:10353   */\n      dup1\n        /* \"#utility.yul\":10345:10357   */\n      revert\n        /* \"#utility.yul\":10296:10298   */\n    tag_240:\n        /* \"#utility.yul\":10286:10365   */\n      pop\n      jump\t// out\n\n    auxdata: 0xa26469706673582212206b2b4950c636cf0eb5636532bb97fd86d8336a2b4e2e53f622734140c3e0026a64736f6c63430008000033\n}\n",
				"bytecode": {
					"linkReferences": {},
					"object": "608060405234801561001057600080fd5b50336000806101000a81548173ffffffffffffffffffffffffffffffffffffffff021916908373ffffffffffffffffffffffffffffffffffffffff160217905550611261806100606000396000f3fe608060405234801561001057600080fd5b50600436106100575760003560e01c80635d16b3081461005c57806371e25e5a146100785780638da5cb5b146100ab5780639649faa3146100c9578063b8dd17db146100e5575b600080fd5b61007660048036038101906100719190610bf5565b610101565b005b610092600480360381019061008d9190610c36565b6102b7565b6040516100a29493929190610f92565b60405180910390f35b6100b361037c565b6040516100c09190610eb7565b60405180910390f35b6100e360048036038101906100de9190610c36565b6103a0565b005b6100ff60048036038101906100fa9190610c36565b6106e5565b005b60008054906101000a900473ffffffffffffffffffffffffffffffffffffffff1673ffffffffffffffffffffffffffffffffffffffff163373ffffffffffffffffffffffffffffffffffffffff161461018f576040517f08c379a000000000000000000000000000000000000000000000000000000000815260040161018690610f12565b60405180910390fd5b60026000600154815260200190815260200160002060030160009054906101000a900460ff16156101f5576040517f08c379a00000000000000000000000000000000000000000000000000000000081526004016101ec90610f52565b60405180910390fd5b600154600260006001548152602001908152602001600020600001819055508080602001906102249190610fde565b6002600060015481526020019081526020016000206001019190610249929190610b22565b50806040013560026000600154815260200190815260200160002060020181905550600160026000600154815260200190815260200160002060030160006101000a81548160ff021916908315150217905550600160008154809291906102af9061115c565b919050555050565b60026020528060005260406000206000915090508060000154908060010180546102e09061112a565b80601f016020809104026020016040519081016040528092919081815260200182805461030c9061112a565b80156103595780601f1061032e57610100808354040283529160200191610359565b820191906000526020600020905b81548152906001019060200180831161033c57829003601f168201915b5050505050908060020154908060030160009054906101000a900460ff16905084565b60008054906101000a900473ffffffffffffffffffffffffffffffffffffffff1681565b806002600082815260200190815260200160002060030160009054906101000a900460ff16610404576040517f08c379a00000000000000000000000000000000000000000000000000000000081526004016103fb90610f72565b60405180910390fd5b60006002600084815260200190815260200160002060020154141561045e576040517f08c379a000000000000000000000000000000000000000000000000000000000815260040161045590610f32565b60405180910390fd5b6104f582600460003373ffffffffffffffffffffffffffffffffffffffff1673ffffffffffffffffffffffffffffffffffffffff1681526020019081526020016000208054806020026020016040519081016040528092919081815260200182805480156104eb57602002820191906000526020600020905b8154815260200190600101908083116104d7575b5050505050610897565b15610535576040517f08c379a000000000000000000000000000000000000000000000000000000000815260040161052c90610ef2565b60405180910390fd5b600460003373ffffffffffffffffffffffffffffffffffffffff1673ffffffffffffffffffffffffffffffffffffffff16815260200190815260200160002082908060018154018082558091505060019003906000526020600020016000909190919091505561063c336003600085815260200190815260200160002080548060200260200160405190810160405280929190818152602001828054801561063257602002820191906000526020600020905b8160009054906101000a900473ffffffffffffffffffffffffffffffffffffffff1673ffffffffffffffffffffffffffffffffffffffff16815260200190600101908083116105e8575b5050505050610919565b6106b55760036000838152602001908152602001600020339080600181540180825580915050600190039060005260206000200160009091909190916101000a81548173ffffffffffffffffffffffffffffffffffffffff021916908373ffffffffffffffffffffffffffffffffffffffff1602179055505b6002600083815260200190815260200160002060020160008154809291906106dc90611100565b91905055505050565b806002600082815260200190815260200160002060030160009054906101000a900460ff16610749576040517f08c379a000000000000000000000000000000000000000000000000000000000815260040161074090610f72565b60405180910390fd5b6107e082600460003373ffffffffffffffffffffffffffffffffffffffff1673ffffffffffffffffffffffffffffffffffffffff1681526020019081526020016000208054806020026020016040519081016040528092919081815260200182805480156107d657602002820191906000526020600020905b8154815260200190600101908083116107c2575b5050505050610897565b61081f576040517f08c379a000000000000000000000000000000000000000000000000000000000815260040161081690610ed2565b60405180910390fd5b610867600460003373ffffffffffffffffffffffffffffffffffffffff1673ffffffffffffffffffffffffffffffffffffffff168152602001908152602001600020836109c7565b60026000838152602001908152602001600020600201600081548092919061088e9061115c565b91905055505050565b600080600090505b825181101561090d578281815181106108e1577f4e487b7100000000000000000000000000000000000000000000000000000000600052603260045260246000fd5b60200260200101518414156108fa576001915050610913565b80806109059061115c565b91505061089f565b50600090505b92915050565b600080600090505b82518110156109bb57828181518110610963577f4e487b7100000000000000000000000000000000000000000000000000000000600052603260045260246000fd5b602002602001015173ffffffffffffffffffffffffffffffffffffffff168473ffffffffffffffffffffffffffffffffffffffff1614156109a85760019150506109c1565b80806109b39061115c565b915050610921565b50600090505b92915050565b60005b8280549050811015610b1d57828181548110610a0f577f4e487b7100000000000000000000000000000000000000000000000000000000600052603260045260246000fd5b9060005260206000200154821415610b0a578260018480549050610a339190611051565b81548110610a6a577f4e487b7100000000000000000000000000000000000000000000000000000000600052603260045260246000fd5b9060005260206000200154838281548110610aae577f4e487b7100000000000000000000000000000000000000000000000000000000600052603260045260246000fd5b906000526020600020018190555082805480610af3577f4e487b7100000000000000000000000000000000000000000000000000000000600052603160045260246000fd5b600190038181906000526020600020016000905590555b8080610b159061115c565b9150506109ca565b505050565b828054610b2e9061112a565b90600052602060002090601f016020900481019282610b505760008555610b97565b82601f10610b6957803560ff1916838001178555610b97565b82800160010185558215610b97579182015b82811115610b96578235825591602001919060010190610b7b565b5b509050610ba49190610ba8565b5090565b5b80821115610bc1576000816000905550600101610ba9565b5090565b600060808284031215610bd757600080fd5b81905092915050565b600081359050610bef81611214565b92915050565b600060208284031215610c0757600080fd5b600082013567ffffffffffffffff811115610c2157600080fd5b610c2d84828501610bc5565b91505092915050565b600060208284031215610c4857600080fd5b6000610c5684828501610be0565b91505092915050565b610c6881611085565b82525050565b610c7781611097565b82525050565b6000610c8882611035565b610c928185611040565b9350610ca28185602086016110cd565b610cab81611203565b840191505092915050565b6000610cc3601e83611040565b91507f596f7520686176656e7420626f72726f776564207468617420626f6f6b2100006000830152602082019050919050565b6000610d03602283611040565b91507f596f7527766520616c726561647920626f72726f776564207468617420626f6f60008301527f6b210000000000000000000000000000000000000000000000000000000000006020830152604082019050919050565b6000610d69601a83611040565b91507f43757272656e742075736572206973206e6f74206f776e6572210000000000006000830152602082019050919050565b6000610da9602483611040565b91507f5468697320626f6f6b206973206f7574206f662073746f636b2063757272656e60008301527f746c7921000000000000000000000000000000000000000000000000000000006020830152604082019050919050565b6000610e0f602383611040565b91507f426f6f6b20616c72656164792065786973747320696e20746865204c6962726160008301527f72792100000000000000000000000000000000000000000000000000000000006020830152604082019050919050565b6000610e75601f83611040565b91507f426f6f6b20646f6573206e6f7420657869737420696e206c69627261727921006000830152602082019050919050565b610eb1816110c3565b82525050565b6000602082019050610ecc6000830184610c5f565b92915050565b60006020820190508181036000830152610eeb81610cb6565b9050919050565b60006020820190508181036000830152610f0b81610cf6565b9050919050565b60006020820190508181036000830152610f2b81610d5c565b9050919050565b60006020820190508181036000830152610f4b81610d9c565b9050919050565b60006020820190508181036000830152610f6b81610e02565b9050919050565b60006020820190508181036000830152610f8b81610e68565b9050919050565b6000608082019050610fa76000830187610ea8565b8181036020830152610fb98186610c7d565b9050610fc86040830185610ea8565b610fd56060830184610c6e565b95945050505050565b60008083356001602003843603038112610ff757600080fd5b80840192508235915067ffffffffffffffff82111561101557600080fd5b60208301925060018202360383131561102d57600080fd5b509250929050565b600081519050919050565b600082825260208201905092915050565b600061105c826110c3565b9150611067836110c3565b92508282101561107a576110796111a5565b5b828203905092915050565b6000611090826110a3565b9050919050565b60008115159050919050565b600073ffffffffffffffffffffffffffffffffffffffff82169050919050565b6000819050919050565b60005b838110156110eb5780820151818401526020810190506110d0565b838111156110fa576000848401525b50505050565b600061110b826110c3565b9150600082141561111f5761111e6111a5565b5b600182039050919050565b6000600282049050600182168061114257607f821691505b60208210811415611156576111556111d4565b5b50919050565b6000611167826110c3565b91507fffffffffffffffffffffffffffffffffffffffffffffffffffffffffffffffff82141561119a576111996111a5565b5b600182019050919050565b7f4e487b7100000000000000000000000000000000000000000000000000000000600052601160045260246000fd5b7f4e487b7100000000000000000000000000000000000000000000000000000000600052602260045260246000fd5b6000601f19601f8301169050919050565b61121d816110c3565b811461122857600080fd5b5056fea26469706673582212206b2b4950c636cf0eb5636532bb97fd86d8336a2b4e2e53f622734140c3e0026a64736f6c63430008000033",
					"opcodes": "PUSH1 0x80 PUSH1 0x40 MSTORE CALLVALUE DUP1 ISZERO PUSH2 0x10 JUMPI PUSH1 0x0 DUP1 REVERT JUMPDEST POP CALLER PUSH1 0x0 DUP1 PUSH2 0x100 EXP DUP2 SLOAD DUP2 PUSH20 0xFFFFFFFFFFFFFFFFFFFFFFFFFFFFFFFFFFFFFFFF MUL NOT AND SWAP1 DUP4 PUSH20 0xFFFFFFFFFFFFFFFFFFFFFFFFFFFFFFFFFFFFFFFF AND MUL OR SWAP1 SSTORE POP PUSH2 0x1261 DUP1 PUSH2 0x60 PUSH1 0x0 CODECOPY PUSH1 0x0 RETURN INVALID PUSH1 0x80 PUSH1 0x40 MSTORE CALLVALUE DUP1 ISZERO PUSH2 0x10 JUMPI PUSH1 0x0 DUP1 REVERT JUMPDEST POP PUSH1 0x4 CALLDATASIZE LT PUSH2 0x57 JUMPI PUSH1 0x0 CALLDATALOAD PUSH1 0xE0 SHR DUP1 PUSH4 0x5D16B308 EQ PUSH2 0x5C JUMPI DUP1 PUSH4 0x71E25E5A EQ PUSH2 0x78 JUMPI DUP1 PUSH4 0x8DA5CB5B EQ PUSH2 0xAB JUMPI DUP1 PUSH4 0x9649FAA3 EQ PUSH2 0xC9 JUMPI DUP1 PUSH4 0xB8DD17DB EQ PUSH2 0xE5 JUMPI JUMPDEST PUSH1 0x0 DUP1 REVERT JUMPDEST PUSH2 0x76 PUSH1 0x4 DUP1 CALLDATASIZE SUB DUP2 ADD SWAP1 PUSH2 0x71 SWAP2 SWAP1 PUSH2 0xBF5 JUMP JUMPDEST PUSH2 0x101 JUMP JUMPDEST STOP JUMPDEST PUSH2 0x92 PUSH1 0x4 DUP1 CALLDATASIZE SUB DUP2 ADD SWAP1 PUSH2 0x8D SWAP2 SWAP1 PUSH2 0xC36 JUMP JUMPDEST PUSH2 0x2B7 JUMP JUMPDEST PUSH1 0x40 MLOAD PUSH2 0xA2 SWAP5 SWAP4 SWAP3 SWAP2 SWAP1 PUSH2 0xF92 JUMP JUMPDEST PUSH1 0x40 MLOAD DUP1 SWAP2 SUB SWAP1 RETURN JUMPDEST PUSH2 0xB3 PUSH2 0x37C JUMP JUMPDEST PUSH1 0x40 MLOAD PUSH2 0xC0 SWAP2 SWAP1 PUSH2 0xEB7 JUMP JUMPDEST PUSH1 0x40 MLOAD DUP1 SWAP2 SUB SWAP1 RETURN JUMPDEST PUSH2 0xE3 PUSH1 0x4 DUP1 CALLDATASIZE SUB DUP2 ADD SWAP1 PUSH2 0xDE SWAP2 SWAP1 PUSH2 0xC36 JUMP JUMPDEST PUSH2 0x3A0 JUMP JUMPDEST STOP JUMPDEST PUSH2 0xFF PUSH1 0x4 DUP1 CALLDATASIZE SUB DUP2 ADD SWAP1 PUSH2 0xFA SWAP2 SWAP1 PUSH2 0xC36 JUMP JUMPDEST PUSH2 0x6E5 JUMP JUMPDEST STOP JUMPDEST PUSH1 0x0 DUP1 SLOAD SWAP1 PUSH2 0x100 EXP SWAP1 DIV PUSH20 0xFFFFFFFFFFFFFFFFFFFFFFFFFFFFFFFFFFFFFFFF AND PUSH20 0xFFFFFFFFFFFFFFFFFFFFFFFFFFFFFFFFFFFFFFFF AND CALLER PUSH20 0xFFFFFFFFFFFFFFFFFFFFFFFFFFFFFFFFFFFFFFFF AND EQ PUSH2 0x18F JUMPI PUSH1 0x40 MLOAD PUSH32 0x8C379A000000000000000000000000000000000000000000000000000000000 DUP2 MSTORE PUSH1 0x4 ADD PUSH2 0x186 SWAP1 PUSH2 0xF12 JUMP JUMPDEST PUSH1 0x40 MLOAD DUP1 SWAP2 SUB SWAP1 REVERT JUMPDEST PUSH1 0x2 PUSH1 0x0 PUSH1 0x1 SLOAD DUP2 MSTORE PUSH1 0x20 ADD SWAP1 DUP2 MSTORE PUSH1 0x20 ADD PUSH1 0x0 KECCAK256 PUSH1 0x3 ADD PUSH1 0x0 SWAP1 SLOAD SWAP1 PUSH2 0x100 EXP SWAP1 DIV PUSH1 0xFF AND ISZERO PUSH2 0x1F5 JUMPI PUSH1 0x40 MLOAD PUSH32 0x8C379A000000000000000000000000000000000000000000000000000000000 DUP2 MSTORE PUSH1 0x4 ADD PUSH2 0x1EC SWAP1 PUSH2 0xF52 JUMP JUMPDEST PUSH1 0x40 MLOAD DUP1 SWAP2 SUB SWAP1 REVERT JUMPDEST PUSH1 0x1 SLOAD PUSH1 0x2 PUSH1 0x0 PUSH1 0x1 SLOAD DUP2 MSTORE PUSH1 0x20 ADD SWAP1 DUP2 MSTORE PUSH1 0x20 ADD PUSH1 0x0 KECCAK256 PUSH1 0x0 ADD DUP2 SWAP1 SSTORE POP DUP1 DUP1 PUSH1 0x20 ADD SWAP1 PUSH2 0x224 SWAP2 SWAP1 PUSH2 0xFDE JUMP JUMPDEST PUSH1 0x2 PUSH1 0x0 PUSH1 0x1 SLOAD DUP2 MSTORE PUSH1 0x20 ADD SWAP1 DUP2 MSTORE PUSH1 0x20 ADD PUSH1 0x0 KECCAK256 PUSH1 0x1 ADD SWAP2 SWAP1 PUSH2 0x249 SWAP3 SWAP2 SWAP1 PUSH2 0xB22 JUMP JUMPDEST POP DUP1 PUSH1 0x40 ADD CALLDATALOAD PUSH1 0x2 PUSH1 0x0 PUSH1 0x1 SLOAD DUP2 MSTORE PUSH1 0x20 ADD SWAP1 DUP2 MSTORE PUSH1 0x20 ADD PUSH1 0x0 KECCAK256 PUSH1 0x2 ADD DUP2 SWAP1 SSTORE POP PUSH1 0x1 PUSH1 0x2 PUSH1 0x0 PUSH1 0x1 SLOAD DUP2 MSTORE PUSH1 0x20 ADD SWAP1 DUP2 MSTORE PUSH1 0x20 ADD PUSH1 0x0 KECCAK256 PUSH1 0x3 ADD PUSH1 0x0 PUSH2 0x100 EXP DUP2 SLOAD DUP2 PUSH1 0xFF MUL NOT AND SWAP1 DUP4 ISZERO ISZERO MUL OR SWAP1 SSTORE POP PUSH1 0x1 PUSH1 0x0 DUP2 SLOAD DUP1 SWAP3 SWAP2 SWAP1 PUSH2 0x2AF SWAP1 PUSH2 0x115C JUMP JUMPDEST SWAP2 SWAP1 POP SSTORE POP POP JUMP JUMPDEST PUSH1 0x2 PUSH1 0x20 MSTORE DUP1 PUSH1 0x0 MSTORE PUSH1 0x40 PUSH1 0x0 KECCAK256 PUSH1 0x0 SWAP2 POP SWAP1 POP DUP1 PUSH1 0x0 ADD SLOAD SWAP1 DUP1 PUSH1 0x1 ADD DUP1 SLOAD PUSH2 0x2E0 SWAP1 PUSH2 0x112A JUMP JUMPDEST DUP1 PUSH1 0x1F ADD PUSH1 0x20 DUP1 SWAP2 DIV MUL PUSH1 0x20 ADD PUSH1 0x40 MLOAD SWAP1 DUP2 ADD PUSH1 0x40 MSTORE DUP1 SWAP3 SWAP2 SWAP1 DUP2 DUP2 MSTORE PUSH1 0x20 ADD DUP3 DUP1 SLOAD PUSH2 0x30C SWAP1 PUSH2 0x112A JUMP JUMPDEST DUP1 ISZERO PUSH2 0x359 JUMPI DUP1 PUSH1 0x1F LT PUSH2 0x32E JUMPI PUSH2 0x100 DUP1 DUP4 SLOAD DIV MUL DUP4 MSTORE SWAP2 PUSH1 0x20 ADD SWAP2 PUSH2 0x359 JUMP JUMPDEST DUP3 ADD SWAP2 SWAP1 PUSH1 0x0 MSTORE PUSH1 0x20 PUSH1 0x0 KECCAK256 SWAP1 JUMPDEST DUP2 SLOAD DUP2 MSTORE SWAP1 PUSH1 0x1 ADD SWAP1 PUSH1 0x20 ADD DUP1 DUP4 GT PUSH2 0x33C JUMPI DUP3 SWAP1 SUB PUSH1 0x1F AND DUP3 ADD SWAP2 JUMPDEST POP POP POP POP POP SWAP1 DUP1 PUSH1 0x2 ADD SLOAD SWAP1 DUP1 PUSH1 0x3 ADD PUSH1 0x0 SWAP1 SLOAD SWAP1 PUSH2 0x100 EXP SWAP1 DIV PUSH1 0xFF AND SWAP1 POP DUP5 JUMP JUMPDEST PUSH1 0x0 DUP1 SLOAD SWAP1 PUSH2 0x100 EXP SWAP1 DIV PUSH20 0xFFFFFFFFFFFFFFFFFFFFFFFFFFFFFFFFFFFFFFFF AND DUP2 JUMP JUMPDEST DUP1 PUSH1 0x2 PUSH1 0x0 DUP3 DUP2 MSTORE PUSH1 0x20 ADD SWAP1 DUP2 MSTORE PUSH1 0x20 ADD PUSH1 0x0 KECCAK256 PUSH1 0x3 ADD PUSH1 0x0 SWAP1 SLOAD SWAP1 PUSH2 0x100 EXP SWAP1 DIV PUSH1 0xFF AND PUSH2 0x404 JUMPI PUSH1 0x40 MLOAD PUSH32 0x8C379A000000000000000000000000000000000000000000000000000000000 DUP2 MSTORE PUSH1 0x4 ADD PUSH2 0x3FB SWAP1 PUSH2 0xF72 JUMP JUMPDEST PUSH1 0x40 MLOAD DUP1 SWAP2 SUB SWAP1 REVERT JUMPDEST PUSH1 0x0 PUSH1 0x2 PUSH1 0x0 DUP5 DUP2 MSTORE PUSH1 0x20 ADD SWAP1 DUP2 MSTORE PUSH1 0x20 ADD PUSH1 0x0 KECCAK256 PUSH1 0x2 ADD SLOAD EQ ISZERO PUSH2 0x45E JUMPI PUSH1 0x40 MLOAD PUSH32 0x8C379A000000000000000000000000000000000000000000000000000000000 DUP2 MSTORE PUSH1 0x4 ADD PUSH2 0x455 SWAP1 PUSH2 0xF32 JUMP JUMPDEST PUSH1 0x40 MLOAD DUP1 SWAP2 SUB SWAP1 REVERT JUMPDEST PUSH2 0x4F5 DUP3 PUSH1 0x4 PUSH1 0x0 CALLER PUSH20 0xFFFFFFFFFFFFFFFFFFFFFFFFFFFFFFFFFFFFFFFF AND PUSH20 0xFFFFFFFFFFFFFFFFFFFFFFFFFFFFFFFFFFFFFFFF AND DUP2 MSTORE PUSH1 0x20 ADD SWAP1 DUP2 MSTORE PUSH1 0x20 ADD PUSH1 0x0 KECCAK256 DUP1 SLOAD DUP1 PUSH1 0x20 MUL PUSH1 0x20 ADD PUSH1 0x40 MLOAD SWAP1 DUP2 ADD PUSH1 0x40 MSTORE DUP1 SWAP3 SWAP2 SWAP1 DUP2 DUP2 MSTORE PUSH1 0x20 ADD DUP3 DUP1 SLOAD DUP1 ISZERO PUSH2 0x4EB JUMPI PUSH1 0x20 MUL DUP3 ADD SWAP2 SWAP1 PUSH1 0x0 MSTORE PUSH1 0x20 PUSH1 0x0 KECCAK256 SWAP1 JUMPDEST DUP2 SLOAD DUP2 MSTORE PUSH1 0x20 ADD SWAP1 PUSH1 0x1 ADD SWAP1 DUP1 DUP4 GT PUSH2 0x4D7 JUMPI JUMPDEST POP POP POP POP POP PUSH2 0x897 JUMP JUMPDEST ISZERO PUSH2 0x535 JUMPI PUSH1 0x40 MLOAD PUSH32 0x8C379A000000000000000000000000000000000000000000000000000000000 DUP2 MSTORE PUSH1 0x4 ADD PUSH2 0x52C SWAP1 PUSH2 0xEF2 JUMP JUMPDEST PUSH1 0x40 MLOAD DUP1 SWAP2 SUB SWAP1 REVERT JUMPDEST PUSH1 0x4 PUSH1 0x0 CALLER PUSH20 0xFFFFFFFFFFFFFFFFFFFFFFFFFFFFFFFFFFFFFFFF AND PUSH20 0xFFFFFFFFFFFFFFFFFFFFFFFFFFFFFFFFFFFFFFFF AND DUP2 MSTORE PUSH1 0x20 ADD SWAP1 DUP2 MSTORE PUSH1 0x20 ADD PUSH1 0x0 KECCAK256 DUP3 SWAP1 DUP1 PUSH1 0x1 DUP2 SLOAD ADD DUP1 DUP3 SSTORE DUP1 SWAP2 POP POP PUSH1 0x1 SWAP1 SUB SWAP1 PUSH1 0x0 MSTORE PUSH1 0x20 PUSH1 0x0 KECCAK256 ADD PUSH1 0x0 SWAP1 SWAP2 SWAP1 SWAP2 SWAP1 SWAP2 POP SSTORE PUSH2 0x63C CALLER PUSH1 0x3 PUSH1 0x0 DUP6 DUP2 MSTORE PUSH1 0x20 ADD SWAP1 DUP2 MSTORE PUSH1 0x20 ADD PUSH1 0x0 KECCAK256 DUP1 SLOAD DUP1 PUSH1 0x20 MUL PUSH1 0x20 ADD PUSH1 0x40 MLOAD SWAP1 DUP2 ADD PUSH1 0x40 MSTORE DUP1 SWAP3 SWAP2 SWAP1 DUP2 DUP2 MSTORE PUSH1 0x20 ADD DUP3 DUP1 SLOAD DUP1 ISZERO PUSH2 0x632 JUMPI PUSH1 0x20 MUL DUP3 ADD SWAP2 SWAP1 PUSH1 0x0 MSTORE PUSH1 0x20 PUSH1 0x0 KECCAK256 SWAP1 JUMPDEST DUP2 PUSH1 0x0 SWAP1 SLOAD SWAP1 PUSH2 0x100 EXP SWAP1 DIV PUSH20 0xFFFFFFFFFFFFFFFFFFFFFFFFFFFFFFFFFFFFFFFF AND PUSH20 0xFFFFFFFFFFFFFFFFFFFFFFFFFFFFFFFFFFFFFFFF AND DUP2 MSTORE PUSH1 0x20 ADD SWAP1 PUSH1 0x1 ADD SWAP1 DUP1 DUP4 GT PUSH2 0x5E8 JUMPI JUMPDEST POP POP POP POP POP PUSH2 0x919 JUMP JUMPDEST PUSH2 0x6B5 JUMPI PUSH1 0x3 PUSH1 0x0 DUP4 DUP2 MSTORE PUSH1 0x20 ADD SWAP1 DUP2 MSTORE PUSH1 0x20 ADD PUSH1 0x0 KECCAK256 CALLER SWAP1 DUP1 PUSH1 0x1 DUP2 SLOAD ADD DUP1 DUP3 SSTORE DUP1 SWAP2 POP POP PUSH1 0x1 SWAP1 SUB SWAP1 PUSH1 0x0 MSTORE PUSH1 0x20 PUSH1 0x0 KECCAK256 ADD PUSH1 0x0 SWAP1 SWAP2 SWAP1 SWAP2 SWAP1 SWAP2 PUSH2 0x100 EXP DUP2 SLOAD DUP2 PUSH20 0xFFFFFFFFFFFFFFFFFFFFFFFFFFFFFFFFFFFFFFFF MUL NOT AND SWAP1 DUP4 PUSH20 0xFFFFFFFFFFFFFFFFFFFFFFFFFFFFFFFFFFFFFFFF AND MUL OR SWAP1 SSTORE POP JUMPDEST PUSH1 0x2 PUSH1 0x0 DUP4 DUP2 MSTORE PUSH1 0x20 ADD SWAP1 DUP2 MSTORE PUSH1 0x20 ADD PUSH1 0x0 KECCAK256 PUSH1 0x2 ADD PUSH1 0x0 DUP2 SLOAD DUP1 SWAP3 SWAP2 SWAP1 PUSH2 0x6DC SWAP1 PUSH2 0x1100 JUMP JUMPDEST SWAP2 SWAP1 POP SSTORE POP POP POP JUMP JUMPDEST DUP1 PUSH1 0x2 PUSH1 0x0 DUP3 DUP2 MSTORE PUSH1 0x20 ADD SWAP1 DUP2 MSTORE PUSH1 0x20 ADD PUSH1 0x0 KECCAK256 PUSH1 0x3 ADD PUSH1 0x0 SWAP1 SLOAD SWAP1 PUSH2 0x100 EXP SWAP1 DIV PUSH1 0xFF AND PUSH2 0x749 JUMPI PUSH1 0x40 MLOAD PUSH32 0x8C379A000000000000000000000000000000000000000000000000000000000 DUP2 MSTORE PUSH1 0x4 ADD PUSH2 0x740 SWAP1 PUSH2 0xF72 JUMP JUMPDEST PUSH1 0x40 MLOAD DUP1 SWAP2 SUB SWAP1 REVERT JUMPDEST PUSH2 0x7E0 DUP3 PUSH1 0x4 PUSH1 0x0 CALLER PUSH20 0xFFFFFFFFFFFFFFFFFFFFFFFFFFFFFFFFFFFFFFFF AND PUSH20 0xFFFFFFFFFFFFFFFFFFFFFFFFFFFFFFFFFFFFFFFF AND DUP2 MSTORE PUSH1 0x20 ADD SWAP1 DUP2 MSTORE PUSH1 0x20 ADD PUSH1 0x0 KECCAK256 DUP1 SLOAD DUP1 PUSH1 0x20 MUL PUSH1 0x20 ADD PUSH1 0x40 MLOAD SWAP1 DUP2 ADD PUSH1 0x40 MSTORE DUP1 SWAP3 SWAP2 SWAP1 DUP2 DUP2 MSTORE PUSH1 0x20 ADD DUP3 DUP1 SLOAD DUP1 ISZERO PUSH2 0x7D6 JUMPI PUSH1 0x20 MUL DUP3 ADD SWAP2 SWAP1 PUSH1 0x0 MSTORE PUSH1 0x20 PUSH1 0x0 KECCAK256 SWAP1 JUMPDEST DUP2 SLOAD DUP2 MSTORE PUSH1 0x20 ADD SWAP1 PUSH1 0x1 ADD SWAP1 DUP1 DUP4 GT PUSH2 0x7C2 JUMPI JUMPDEST POP POP POP POP POP PUSH2 0x897 JUMP JUMPDEST PUSH2 0x81F JUMPI PUSH1 0x40 MLOAD PUSH32 0x8C379A000000000000000000000000000000000000000000000000000000000 DUP2 MSTORE PUSH1 0x4 ADD PUSH2 0x816 SWAP1 PUSH2 0xED2 JUMP JUMPDEST PUSH1 0x40 MLOAD DUP1 SWAP2 SUB SWAP1 REVERT JUMPDEST PUSH2 0x867 PUSH1 0x4 PUSH1 0x0 CALLER PUSH20 0xFFFFFFFFFFFFFFFFFFFFFFFFFFFFFFFFFFFFFFFF AND PUSH20 0xFFFFFFFFFFFFFFFFFFFFFFFFFFFFFFFFFFFFFFFF AND DUP2 MSTORE PUSH1 0x20 ADD SWAP1 DUP2 MSTORE PUSH1 0x20 ADD PUSH1 0x0 KECCAK256 DUP4 PUSH2 0x9C7 JUMP JUMPDEST PUSH1 0x2 PUSH1 0x0 DUP4 DUP2 MSTORE PUSH1 0x20 ADD SWAP1 DUP2 MSTORE PUSH1 0x20 ADD PUSH1 0x0 KECCAK256 PUSH1 0x2 ADD PUSH1 0x0 DUP2 SLOAD DUP1 SWAP3 SWAP2 SWAP1 PUSH2 0x88E SWAP1 PUSH2 0x115C JUMP JUMPDEST SWAP2 SWAP1 POP SSTORE POP POP POP JUMP JUMPDEST PUSH1 0x0 DUP1 PUSH1 0x0 SWAP1 POP JUMPDEST DUP3 MLOAD DUP2 LT ISZERO PUSH2 0x90D JUMPI DUP3 DUP2 DUP2 MLOAD DUP2 LT PUSH2 0x8E1 JUMPI PUSH32 0x4E487B7100000000000000000000000000000000000000000000000000000000 PUSH1 0x0 MSTORE PUSH1 0x32 PUSH1 0x4 MSTORE PUSH1 0x24 PUSH1 0x0 REVERT JUMPDEST PUSH1 0x20 MUL PUSH1 0x20 ADD ADD MLOAD DUP5 EQ ISZERO PUSH2 0x8FA JUMPI PUSH1 0x1 SWAP2 POP POP PUSH2 0x913 JUMP JUMPDEST DUP1 DUP1 PUSH2 0x905 SWAP1 PUSH2 0x115C JUMP JUMPDEST SWAP2 POP POP PUSH2 0x89F JUMP JUMPDEST POP PUSH1 0x0 SWAP1 POP JUMPDEST SWAP3 SWAP2 POP POP JUMP JUMPDEST PUSH1 0x0 DUP1 PUSH1 0x0 SWAP1 POP JUMPDEST DUP3 MLOAD DUP2 LT ISZERO PUSH2 0x9BB JUMPI DUP3 DUP2 DUP2 MLOAD DUP2 LT PUSH2 0x963 JUMPI PUSH32 0x4E487B7100000000000000000000000000000000000000000000000000000000 PUSH1 0x0 MSTORE PUSH1 0x32 PUSH1 0x4 MSTORE PUSH1 0x24 PUSH1 0x0 REVERT JUMPDEST PUSH1 0x20 MUL PUSH1 0x20 ADD ADD MLOAD PUSH20 0xFFFFFFFFFFFFFFFFFFFFFFFFFFFFFFFFFFFFFFFF AND DUP5 PUSH20 0xFFFFFFFFFFFFFFFFFFFFFFFFFFFFFFFFFFFFFFFF AND EQ ISZERO PUSH2 0x9A8 JUMPI PUSH1 0x1 SWAP2 POP POP PUSH2 0x9C1 JUMP JUMPDEST DUP1 DUP1 PUSH2 0x9B3 SWAP1 PUSH2 0x115C JUMP JUMPDEST SWAP2 POP POP PUSH2 0x921 JUMP JUMPDEST POP PUSH1 0x0 SWAP1 POP JUMPDEST SWAP3 SWAP2 POP POP JUMP JUMPDEST PUSH1 0x0 JUMPDEST DUP3 DUP1 SLOAD SWAP1 POP DUP2 LT ISZERO PUSH2 0xB1D JUMPI DUP3 DUP2 DUP2 SLOAD DUP2 LT PUSH2 0xA0F JUMPI PUSH32 0x4E487B7100000000000000000000000000000000000000000000000000000000 PUSH1 0x0 MSTORE PUSH1 0x32 PUSH1 0x4 MSTORE PUSH1 0x24 PUSH1 0x0 REVERT JUMPDEST SWAP1 PUSH1 0x0 MSTORE PUSH1 0x20 PUSH1 0x0 KECCAK256 ADD SLOAD DUP3 EQ ISZERO PUSH2 0xB0A JUMPI DUP3 PUSH1 0x1 DUP5 DUP1 SLOAD SWAP1 POP PUSH2 0xA33 SWAP2 SWAP1 PUSH2 0x1051 JUMP JUMPDEST DUP2 SLOAD DUP2 LT PUSH2 0xA6A JUMPI PUSH32 0x4E487B7100000000000000000000000000000000000000000000000000000000 PUSH1 0x0 MSTORE PUSH1 0x32 PUSH1 0x4 MSTORE PUSH1 0x24 PUSH1 0x0 REVERT JUMPDEST SWAP1 PUSH1 0x0 MSTORE PUSH1 0x20 PUSH1 0x0 KECCAK256 ADD SLOAD DUP4 DUP3 DUP2 SLOAD DUP2 LT PUSH2 0xAAE JUMPI PUSH32 0x4E487B7100000000000000000000000000000000000000000000000000000000 PUSH1 0x0 MSTORE PUSH1 0x32 PUSH1 0x4 MSTORE PUSH1 0x24 PUSH1 0x0 REVERT JUMPDEST SWAP1 PUSH1 0x0 MSTORE PUSH1 0x20 PUSH1 0x0 KECCAK256 ADD DUP2 SWAP1 SSTORE POP DUP3 DUP1 SLOAD DUP1 PUSH2 0xAF3 JUMPI PUSH32 0x4E487B7100000000000000000000000000000000000000000000000000000000 PUSH1 0x0 MSTORE PUSH1 0x31 PUSH1 0x4 MSTORE PUSH1 0x24 PUSH1 0x0 REVERT JUMPDEST PUSH1 0x1 SWAP1 SUB DUP2 DUP2 SWAP1 PUSH1 0x0 MSTORE PUSH1 0x20 PUSH1 0x0 KECCAK256 ADD PUSH1 0x0 SWAP1 SSTORE SWAP1 SSTORE JUMPDEST DUP1 DUP1 PUSH2 0xB15 SWAP1 PUSH2 0x115C JUMP JUMPDEST SWAP2 POP POP PUSH2 0x9CA JUMP JUMPDEST POP POP POP JUMP JUMPDEST DUP3 DUP1 SLOAD PUSH2 0xB2E SWAP1 PUSH2 0x112A JUMP JUMPDEST SWAP1 PUSH1 0x0 MSTORE PUSH1 0x20 PUSH1 0x0 KECCAK256 SWAP1 PUSH1 0x1F ADD PUSH1 0x20 SWAP1 DIV DUP2 ADD SWAP3 DUP3 PUSH2 0xB50 JUMPI PUSH1 0x0 DUP6 SSTORE PUSH2 0xB97 JUMP JUMPDEST DUP3 PUSH1 0x1F LT PUSH2 0xB69 JUMPI DUP1 CALLDATALOAD PUSH1 0xFF NOT AND DUP4 DUP1 ADD OR DUP6 SSTORE PUSH2 0xB97 JUMP JUMPDEST DUP3 DUP1 ADD PUSH1 0x1 ADD DUP6 SSTORE DUP3 ISZERO PUSH2 0xB97 JUMPI SWAP2 DUP3 ADD JUMPDEST DUP3 DUP2 GT ISZERO PUSH2 0xB96 JUMPI DUP3 CALLDATALOAD DUP3 SSTORE SWAP2 PUSH1 0x20 ADD SWAP2 SWAP1 PUSH1 0x1 ADD SWAP1 PUSH2 0xB7B JUMP JUMPDEST JUMPDEST POP SWAP1 POP PUSH2 0xBA4 SWAP2 SWAP1 PUSH2 0xBA8 JUMP JUMPDEST POP SWAP1 JUMP JUMPDEST JUMPDEST DUP1 DUP3 GT ISZERO PUSH2 0xBC1 JUMPI PUSH1 0x0 DUP2 PUSH1 0x0 SWAP1 SSTORE POP PUSH1 0x1 ADD PUSH2 0xBA9 JUMP JUMPDEST POP SWAP1 JUMP JUMPDEST PUSH1 0x0 PUSH1 0x80 DUP3 DUP5 SUB SLT ISZERO PUSH2 0xBD7 JUMPI PUSH1 0x0 DUP1 REVERT JUMPDEST DUP2 SWAP1 POP SWAP3 SWAP2 POP POP JUMP JUMPDEST PUSH1 0x0 DUP2 CALLDATALOAD SWAP1 POP PUSH2 0xBEF DUP2 PUSH2 0x1214 JUMP JUMPDEST SWAP3 SWAP2 POP POP JUMP JUMPDEST PUSH1 0x0 PUSH1 0x20 DUP3 DUP5 SUB SLT ISZERO PUSH2 0xC07 JUMPI PUSH1 0x0 DUP1 REVERT JUMPDEST PUSH1 0x0 DUP3 ADD CALLDATALOAD PUSH8 0xFFFFFFFFFFFFFFFF DUP2 GT ISZERO PUSH2 0xC21 JUMPI PUSH1 0x0 DUP1 REVERT JUMPDEST PUSH2 0xC2D DUP5 DUP3 DUP6 ADD PUSH2 0xBC5 JUMP JUMPDEST SWAP2 POP POP SWAP3 SWAP2 POP POP JUMP JUMPDEST PUSH1 0x0 PUSH1 0x20 DUP3 DUP5 SUB SLT ISZERO PUSH2 0xC48 JUMPI PUSH1 0x0 DUP1 REVERT JUMPDEST PUSH1 0x0 PUSH2 0xC56 DUP5 DUP3 DUP6 ADD PUSH2 0xBE0 JUMP JUMPDEST SWAP2 POP POP SWAP3 SWAP2 POP POP JUMP JUMPDEST PUSH2 0xC68 DUP2 PUSH2 0x1085 JUMP JUMPDEST DUP3 MSTORE POP POP JUMP JUMPDEST PUSH2 0xC77 DUP2 PUSH2 0x1097 JUMP JUMPDEST DUP3 MSTORE POP POP JUMP JUMPDEST PUSH1 0x0 PUSH2 0xC88 DUP3 PUSH2 0x1035 JUMP JUMPDEST PUSH2 0xC92 DUP2 DUP6 PUSH2 0x1040 JUMP JUMPDEST SWAP4 POP PUSH2 0xCA2 DUP2 DUP6 PUSH1 0x20 DUP7 ADD PUSH2 0x10CD JUMP JUMPDEST PUSH2 0xCAB DUP2 PUSH2 0x1203 JUMP JUMPDEST DUP5 ADD SWAP2 POP POP SWAP3 SWAP2 POP POP JUMP JUMPDEST PUSH1 0x0 PUSH2 0xCC3 PUSH1 0x1E DUP4 PUSH2 0x1040 JUMP JUMPDEST SWAP2 POP PUSH32 0x596F7520686176656E7420626F72726F776564207468617420626F6F6B210000 PUSH1 0x0 DUP4 ADD MSTORE PUSH1 0x20 DUP3 ADD SWAP1 POP SWAP2 SWAP1 POP JUMP JUMPDEST PUSH1 0x0 PUSH2 0xD03 PUSH1 0x22 DUP4 PUSH2 0x1040 JUMP JUMPDEST SWAP2 POP PUSH32 0x596F7527766520616C726561647920626F72726F776564207468617420626F6F PUSH1 0x0 DUP4 ADD MSTORE PUSH32 0x6B21000000000000000000000000000000000000000000000000000000000000 PUSH1 0x20 DUP4 ADD MSTORE PUSH1 0x40 DUP3 ADD SWAP1 POP SWAP2 SWAP1 POP JUMP JUMPDEST PUSH1 0x0 PUSH2 0xD69 PUSH1 0x1A DUP4 PUSH2 0x1040 JUMP JUMPDEST SWAP2 POP PUSH32 0x43757272656E742075736572206973206E6F74206F776E657221000000000000 PUSH1 0x0 DUP4 ADD MSTORE PUSH1 0x20 DUP3 ADD SWAP1 POP SWAP2 SWAP1 POP JUMP JUMPDEST PUSH1 0x0 PUSH2 0xDA9 PUSH1 0x24 DUP4 PUSH2 0x1040 JUMP JUMPDEST SWAP2 POP PUSH32 0x5468697320626F6F6B206973206F7574206F662073746F636B2063757272656E PUSH1 0x0 DUP4 ADD MSTORE PUSH32 0x746C792100000000000000000000000000000000000000000000000000000000 PUSH1 0x20 DUP4 ADD MSTORE PUSH1 0x40 DUP3 ADD SWAP1 POP SWAP2 SWAP1 POP JUMP JUMPDEST PUSH1 0x0 PUSH2 0xE0F PUSH1 0x23 DUP4 PUSH2 0x1040 JUMP JUMPDEST SWAP2 POP PUSH32 0x426F6F6B20616C72656164792065786973747320696E20746865204C69627261 PUSH1 0x0 DUP4 ADD MSTORE PUSH32 0x7279210000000000000000000000000000000000000000000000000000000000 PUSH1 0x20 DUP4 ADD MSTORE PUSH1 0x40 DUP3 ADD SWAP1 POP SWAP2 SWAP1 POP JUMP JUMPDEST PUSH1 0x0 PUSH2 0xE75 PUSH1 0x1F DUP4 PUSH2 0x1040 JUMP JUMPDEST SWAP2 POP PUSH32 0x426F6F6B20646F6573206E6F7420657869737420696E206C6962726172792100 PUSH1 0x0 DUP4 ADD MSTORE PUSH1 0x20 DUP3 ADD SWAP1 POP SWAP2 SWAP1 POP JUMP JUMPDEST PUSH2 0xEB1 DUP2 PUSH2 0x10C3 JUMP JUMPDEST DUP3 MSTORE POP POP JUMP JUMPDEST PUSH1 0x0 PUSH1 0x20 DUP3 ADD SWAP1 POP PUSH2 0xECC PUSH1 0x0 DUP4 ADD DUP5 PUSH2 0xC5F JUMP JUMPDEST SWAP3 SWAP2 POP POP JUMP JUMPDEST PUSH1 0x0 PUSH1 0x20 DUP3 ADD SWAP1 POP DUP2 DUP2 SUB PUSH1 0x0 DUP4 ADD MSTORE PUSH2 0xEEB DUP2 PUSH2 0xCB6 JUMP JUMPDEST SWAP1 POP SWAP2 SWAP1 POP JUMP JUMPDEST PUSH1 0x0 PUSH1 0x20 DUP3 ADD SWAP1 POP DUP2 DUP2 SUB PUSH1 0x0 DUP4 ADD MSTORE PUSH2 0xF0B DUP2 PUSH2 0xCF6 JUMP JUMPDEST SWAP1 POP SWAP2 SWAP1 POP JUMP JUMPDEST PUSH1 0x0 PUSH1 0x20 DUP3 ADD SWAP1 POP DUP2 DUP2 SUB PUSH1 0x0 DUP4 ADD MSTORE PUSH2 0xF2B DUP2 PUSH2 0xD5C JUMP JUMPDEST SWAP1 POP SWAP2 SWAP1 POP JUMP JUMPDEST PUSH1 0x0 PUSH1 0x20 DUP3 ADD SWAP1 POP DUP2 DUP2 SUB PUSH1 0x0 DUP4 ADD MSTORE PUSH2 0xF4B DUP2 PUSH2 0xD9C JUMP JUMPDEST SWAP1 POP SWAP2 SWAP1 POP JUMP JUMPDEST PUSH1 0x0 PUSH1 0x20 DUP3 ADD SWAP1 POP DUP2 DUP2 SUB PUSH1 0x0 DUP4 ADD MSTORE PUSH2 0xF6B DUP2 PUSH2 0xE02 JUMP JUMPDEST SWAP1 POP SWAP2 SWAP1 POP JUMP JUMPDEST PUSH1 0x0 PUSH1 0x20 DUP3 ADD SWAP1 POP DUP2 DUP2 SUB PUSH1 0x0 DUP4 ADD MSTORE PUSH2 0xF8B DUP2 PUSH2 0xE68 JUMP JUMPDEST SWAP1 POP SWAP2 SWAP1 POP JUMP JUMPDEST PUSH1 0x0 PUSH1 0x80 DUP3 ADD SWAP1 POP PUSH2 0xFA7 PUSH1 0x0 DUP4 ADD DUP8 PUSH2 0xEA8 JUMP JUMPDEST DUP2 DUP2 SUB PUSH1 0x20 DUP4 ADD MSTORE PUSH2 0xFB9 DUP2 DUP7 PUSH2 0xC7D JUMP JUMPDEST SWAP1 POP PUSH2 0xFC8 PUSH1 0x40 DUP4 ADD DUP6 PUSH2 0xEA8 JUMP JUMPDEST PUSH2 0xFD5 PUSH1 0x60 DUP4 ADD DUP5 PUSH2 0xC6E JUMP JUMPDEST SWAP6 SWAP5 POP POP POP POP POP JUMP JUMPDEST PUSH1 0x0 DUP1 DUP4 CALLDATALOAD PUSH1 0x1 PUSH1 0x20 SUB DUP5 CALLDATASIZE SUB SUB DUP2 SLT PUSH2 0xFF7 JUMPI PUSH1 0x0 DUP1 REVERT JUMPDEST DUP1 DUP5 ADD SWAP3 POP DUP3 CALLDATALOAD SWAP2 POP PUSH8 0xFFFFFFFFFFFFFFFF DUP3 GT ISZERO PUSH2 0x1015 JUMPI PUSH1 0x0 DUP1 REVERT JUMPDEST PUSH1 0x20 DUP4 ADD SWAP3 POP PUSH1 0x1 DUP3 MUL CALLDATASIZE SUB DUP4 SGT ISZERO PUSH2 0x102D JUMPI PUSH1 0x0 DUP1 REVERT JUMPDEST POP SWAP3 POP SWAP3 SWAP1 POP JUMP JUMPDEST PUSH1 0x0 DUP2 MLOAD SWAP1 POP SWAP2 SWAP1 POP JUMP JUMPDEST PUSH1 0x0 DUP3 DUP3 MSTORE PUSH1 0x20 DUP3 ADD SWAP1 POP SWAP3 SWAP2 POP POP JUMP JUMPDEST PUSH1 0x0 PUSH2 0x105C DUP3 PUSH2 0x10C3 JUMP JUMPDEST SWAP2 POP PUSH2 0x1067 DUP4 PUSH2 0x10C3 JUMP JUMPDEST SWAP3 POP DUP3 DUP3 LT ISZERO PUSH2 0x107A JUMPI PUSH2 0x1079 PUSH2 0x11A5 JUMP JUMPDEST JUMPDEST DUP3 DUP3 SUB SWAP1 POP SWAP3 SWAP2 POP POP JUMP JUMPDEST PUSH1 0x0 PUSH2 0x1090 DUP3 PUSH2 0x10A3 JUMP JUMPDEST SWAP1 POP SWAP2 SWAP1 POP JUMP JUMPDEST PUSH1 0x0 DUP2 ISZERO ISZERO SWAP1 POP SWAP2 SWAP1 POP JUMP JUMPDEST PUSH1 0x0 PUSH20 0xFFFFFFFFFFFFFFFFFFFFFFFFFFFFFFFFFFFFFFFF DUP3 AND SWAP1 POP SWAP2 SWAP1 POP JUMP JUMPDEST PUSH1 0x0 DUP2 SWAP1 POP SWAP2 SWAP1 POP JUMP JUMPDEST PUSH1 0x0 JUMPDEST DUP4 DUP2 LT ISZERO PUSH2 0x10EB JUMPI DUP1 DUP3 ADD MLOAD DUP2 DUP5 ADD MSTORE PUSH1 0x20 DUP2 ADD SWAP1 POP PUSH2 0x10D0 JUMP JUMPDEST DUP4 DUP2 GT ISZERO PUSH2 0x10FA JUMPI PUSH1 0x0 DUP5 DUP5 ADD MSTORE JUMPDEST POP POP POP POP JUMP JUMPDEST PUSH1 0x0 PUSH2 0x110B DUP3 PUSH2 0x10C3 JUMP JUMPDEST SWAP2 POP PUSH1 0x0 DUP3 EQ ISZERO PUSH2 0x111F JUMPI PUSH2 0x111E PUSH2 0x11A5 JUMP JUMPDEST JUMPDEST PUSH1 0x1 DUP3 SUB SWAP1 POP SWAP2 SWAP1 POP JUMP JUMPDEST PUSH1 0x0 PUSH1 0x2 DUP3 DIV SWAP1 POP PUSH1 0x1 DUP3 AND DUP1 PUSH2 0x1142 JUMPI PUSH1 0x7F DUP3 AND SWAP2 POP JUMPDEST PUSH1 0x20 DUP3 LT DUP2 EQ ISZERO PUSH2 0x1156 JUMPI PUSH2 0x1155 PUSH2 0x11D4 JUMP JUMPDEST JUMPDEST POP SWAP2 SWAP1 POP JUMP JUMPDEST PUSH1 0x0 PUSH2 0x1167 DUP3 PUSH2 0x10C3 JUMP JUMPDEST SWAP2 POP PUSH32 0xFFFFFFFFFFFFFFFFFFFFFFFFFFFFFFFFFFFFFFFFFFFFFFFFFFFFFFFFFFFFFFFF DUP3 EQ ISZERO PUSH2 0x119A JUMPI PUSH2 0x1199 PUSH2 0x11A5 JUMP JUMPDEST JUMPDEST PUSH1 0x1 DUP3 ADD SWAP1 POP SWAP2 SWAP1 POP JUMP JUMPDEST PUSH32 0x4E487B7100000000000000000000000000000000000000000000000000000000 PUSH1 0x0 MSTORE PUSH1 0x11 PUSH1 0x4 MSTORE PUSH1 0x24 PUSH1 0x0 REVERT JUMPDEST PUSH32 0x4E487B7100000000000000000000000000000000000000000000000000000000 PUSH1 0x0 MSTORE PUSH1 0x22 PUSH1 0x4 MSTORE PUSH1 0x24 PUSH1 0x0 REVERT JUMPDEST PUSH1 0x0 PUSH1 0x1F NOT PUSH1 0x1F DUP4 ADD AND SWAP1 POP SWAP2 SWAP1 POP JUMP JUMPDEST PUSH2 0x121D DUP2 PUSH2 0x10C3 JUMP JUMPDEST DUP2 EQ PUSH2 0x1228 JUMPI PUSH1 0x0 DUP1 REVERT JUMPDEST POP JUMP INVALID LOG2 PUSH5 0x6970667358 0x22 SLT KECCAK256 PUSH12 0x2B4950C636CF0EB5636532BB SWAP8 REVERT DUP7 0xD8 CALLER PUSH11 0x2B4E2E53F622734140C3E0 MUL PUSH11 0x64736F6C63430008000033 "
				},
				"gasEstimates": {
					"creation": {
						"codeDepositCost": "941000",
						"executionCost": "21847",
						"totalCost": "962847"
					},
					"external": {
						"AddBook((uint256,string,uint256,bool))": "infinite",
						"BookList(uint256)": "infinite",
						"BorrowBook(uint256)": "infinite",
						"ReturnBook(uint256)": "infinite",
						"owner()": "1233"
					}
				},
				"methodIdentifiers": {
					"AddBook((uint256,string,uint256,bool))": "5d16b308",
					"BookList(uint256)": "71e25e5a",
					"BorrowBook(uint256)": "9649faa3",
					"ReturnBook(uint256)": "b8dd17db",
					"owner()": "8da5cb5b"
				}
			},
			"userdoc": {
				"kind": "user",
				"methods": {},
				"version": 1
			}
		}
	}
}