{
	"USElection.sol": {
		"USElection": {
			"abi": [
				{
					"inputs": [],
					"name": "BIDEN",
					"outputs": [
						{
							"internalType": "uint8",
							"name": "",
							"type": "uint8"
						}
					],
					"stateMutability": "view",
					"type": "function"
				},
				{
					"inputs": [],
					"name": "TRUMP",
					"outputs": [
						{
							"internalType": "uint8",
							"name": "",
							"type": "uint8"
						}
					],
					"stateMutability": "view",
					"type": "function"
				},
				{
					"inputs": [],
					"name": "currentLeader",
					"outputs": [
						{
							"internalType": "uint8",
							"name": "",
							"type": "uint8"
						}
					],
					"stateMutability": "view",
					"type": "function"
				},
				{
					"inputs": [],
					"name": "electionEnded",
					"outputs": [
						{
							"internalType": "bool",
							"name": "",
							"type": "bool"
						}
					],
					"stateMutability": "view",
					"type": "function"
				},
				{
					"inputs": [],
					"name": "endElection",
					"outputs": [],
					"stateMutability": "nonpayable",
					"type": "function"
				},
				{
					"inputs": [
						{
							"internalType": "uint8",
							"name": "",
							"type": "uint8"
						}
					],
					"name": "seats",
					"outputs": [
						{
							"internalType": "uint8",
							"name": "",
							"type": "uint8"
						}
					],
					"stateMutability": "view",
					"type": "function"
				},
				{
					"inputs": [
						{
							"components": [
								{
									"internalType": "string",
									"name": "name",
									"type": "string"
								},
								{
									"internalType": "uint256",
									"name": "votesBiden",
									"type": "uint256"
								},
								{
									"internalType": "uint256",
									"name": "votesTrump",
									"type": "uint256"
								},
								{
									"internalType": "uint8",
									"name": "stateSeats",
									"type": "uint8"
								}
							],
							"internalType": "struct USElection.StateResult",
							"name": "result",
							"type": "tuple"
						}
					],
					"name": "submitStateResult",
					"outputs": [],
					"stateMutability": "nonpayable",
					"type": "function"
				}
			],
			"devdoc": {
				"kind": "dev",
				"methods": {},
				"version": 1
			},
			"evm": {
				"assembly": "    /* \"USElection.sol\":84:689  contract USElection {... */\n  mstore(0x40, 0x80)\n  callvalue\n  dup1\n  iszero\n  tag_1\n  jumpi\n  0x00\n  dup1\n  revert\ntag_1:\n  pop\n  dataSize(sub_0)\n  dup1\n  dataOffset(sub_0)\n  0x00\n  codecopy\n  0x00\n  return\nstop\n\nsub_0: assembly {\n        /* \"USElection.sol\":84:689  contract USElection {... */\n      mstore(0x40, 0x80)\n      callvalue\n      dup1\n      iszero\n      tag_1\n      jumpi\n      0x00\n      dup1\n      revert\n    tag_1:\n      pop\n      jumpi(tag_2, lt(calldatasize, 0x04))\n      shr(0xe0, calldataload(0x00))\n      dup1\n      0x713d87c5\n      gt\n      tag_10\n      jumpi\n      dup1\n      0x713d87c5\n      eq\n      tag_6\n      jumpi\n      dup1\n      0xac4bd53a\n      eq\n      tag_7\n      jumpi\n      dup1\n      0xc94ca9e3\n      eq\n      tag_8\n      jumpi\n      dup1\n      0xe494a883\n      eq\n      tag_9\n      jumpi\n      jump(tag_2)\n    tag_10:\n      dup1\n      0x2d78d8e5\n      eq\n      tag_3\n      jumpi\n      dup1\n      0x59f78468\n      eq\n      tag_4\n      jumpi\n      dup1\n      0x69b36bd4\n      eq\n      tag_5\n      jumpi\n    tag_2:\n      0x00\n      dup1\n      revert\n        /* \"USElection.sol\":147:178  uint8 public constant TRUMP = 2 */\n    tag_3:\n      tag_11\n      tag_12\n      jump\t// in\n    tag_11:\n      mload(0x40)\n      tag_13\n      swap2\n      swap1\n      tag_14\n      jump\t// in\n    tag_13:\n      mload(0x40)\n      dup1\n      swap2\n      sub\n      swap1\n      return\n        /* \"USElection.sol\":618:682  function endElection() public {... */\n    tag_4:\n      tag_15\n      tag_16\n      jump\t// in\n    tag_15:\n      stop\n        /* \"USElection.sol\":110:141  uint8 public constant BIDEN = 1 */\n    tag_5:\n      tag_17\n      tag_18\n      jump\t// in\n    tag_17:\n      mload(0x40)\n      tag_19\n      swap2\n      swap1\n      tag_14\n      jump\t// in\n    tag_19:\n      mload(0x40)\n      dup1\n      swap2\n      sub\n      swap1\n      return\n        /* \"USElection.sol\":225:261  mapping(uint8 => uint8) public seats */\n    tag_6:\n      tag_20\n      0x04\n      dup1\n      calldatasize\n      sub\n      dup2\n      add\n      swap1\n      tag_21\n      swap2\n      swap1\n      tag_22\n      jump\t// in\n    tag_21:\n      tag_23\n      jump\t// in\n    tag_20:\n      mload(0x40)\n      tag_24\n      swap2\n      swap1\n      tag_14\n      jump\t// in\n    tag_24:\n      mload(0x40)\n      dup1\n      swap2\n      sub\n      swap1\n      return\n        /* \"USElection.sol\":512:608  function currentLeader() public view returns(uint8) {... */\n    tag_7:\n      tag_25\n      tag_26\n      jump\t// in\n    tag_25:\n      mload(0x40)\n      tag_27\n      swap2\n      swap1\n      tag_14\n      jump\t// in\n    tag_27:\n      mload(0x40)\n      dup1\n      swap2\n      sub\n      swap1\n      return\n        /* \"USElection.sol\":189:214  bool public electionEnded */\n    tag_8:\n      tag_28\n      tag_29\n      jump\t// in\n    tag_28:\n      mload(0x40)\n      tag_30\n      swap2\n      swap1\n      tag_31\n      jump\t// in\n    tag_30:\n      mload(0x40)\n      dup1\n      swap2\n      sub\n      swap1\n      return\n        /* \"USElection.sol\":405:502  function submitStateResult(StateResult calldata result) public {... */\n    tag_9:\n      tag_32\n      0x04\n      dup1\n      calldatasize\n      sub\n      dup2\n      add\n      swap1\n      tag_33\n      swap2\n      swap1\n      tag_34\n      jump\t// in\n    tag_33:\n      tag_35\n      jump\t// in\n    tag_32:\n      stop\n        /* \"USElection.sol\":147:178  uint8 public constant TRUMP = 2 */\n    tag_12:\n        /* \"USElection.sol\":177:178  2 */\n      0x02\n        /* \"USElection.sol\":147:178  uint8 public constant TRUMP = 2 */\n      dup2\n      jump\t// out\n        /* \"USElection.sol\":618:682  function endElection() public {... */\n    tag_16:\n      jump\t// out\n        /* \"USElection.sol\":110:141  uint8 public constant BIDEN = 1 */\n    tag_18:\n        /* \"USElection.sol\":140:141  1 */\n      0x01\n        /* \"USElection.sol\":110:141  uint8 public constant BIDEN = 1 */\n      dup2\n      jump\t// out\n        /* \"USElection.sol\":225:261  mapping(uint8 => uint8) public seats */\n    tag_23:\n      mstore(0x20, 0x01)\n      dup1\n      0x00\n      mstore\n      keccak256(0x00, 0x40)\n      0x00\n      swap2\n      pop\n      sload\n      swap1\n      0x0100\n      exp\n      swap1\n      div\n      0xff\n      and\n      dup2\n      jump\t// out\n        /* \"USElection.sol\":512:608  function currentLeader() public view returns(uint8) {... */\n    tag_26:\n        /* \"USElection.sol\":557:562  uint8 */\n      0x00\n        /* \"USElection.sol\":512:608  function currentLeader() public view returns(uint8) {... */\n      swap1\n      jump\t// out\n        /* \"USElection.sol\":189:214  bool public electionEnded */\n    tag_29:\n      0x00\n      dup1\n      sload\n      swap1\n      0x0100\n      exp\n      swap1\n      div\n      0xff\n      and\n      dup2\n      jump\t// out\n        /* \"USElection.sol\":405:502  function submitStateResult(StateResult calldata result) public {... */\n    tag_35:\n      pop\n      jump\t// out\n        /* \"#utility.yul\":44:278   */\n    tag_40:\n        /* \"#utility.yul\":119:124   */\n      0x00\n        /* \"#utility.yul\":160:163   */\n      0x80\n        /* \"#utility.yul\":151:157   */\n      dup3\n        /* \"#utility.yul\":146:149   */\n      dup5\n        /* \"#utility.yul\":142:158   */\n      sub\n        /* \"#utility.yul\":138:164   */\n      slt\n        /* \"#utility.yul\":135:248   */\n      iszero\n      tag_42\n      jumpi\n        /* \"#utility.yul\":167:246   */\n      tag_43\n      tag_44\n      jump\t// in\n    tag_43:\n        /* \"#utility.yul\":135:248   */\n    tag_42:\n        /* \"#utility.yul\":266:272   */\n      dup2\n        /* \"#utility.yul\":257:272   */\n      swap1\n      pop\n        /* \"#utility.yul\":44:278   */\n      swap3\n      swap2\n      pop\n      pop\n      jump\t// out\n        /* \"#utility.yul\":284:419   */\n    tag_45:\n        /* \"#utility.yul\":328:333   */\n      0x00\n        /* \"#utility.yul\":366:372   */\n      dup2\n        /* \"#utility.yul\":353:373   */\n      calldataload\n        /* \"#utility.yul\":344:373   */\n      swap1\n      pop\n        /* \"#utility.yul\":382:413   */\n      tag_47\n        /* \"#utility.yul\":407:412   */\n      dup2\n        /* \"#utility.yul\":382:413   */\n      tag_48\n      jump\t// in\n    tag_47:\n        /* \"#utility.yul\":284:419   */\n      swap3\n      swap2\n      pop\n      pop\n      jump\t// out\n        /* \"#utility.yul\":425:972   */\n    tag_34:\n        /* \"#utility.yul\":513:519   */\n      0x00\n        /* \"#utility.yul\":562:564   */\n      0x20\n        /* \"#utility.yul\":550:559   */\n      dup3\n        /* \"#utility.yul\":541:548   */\n      dup5\n        /* \"#utility.yul\":537:560   */\n      sub\n        /* \"#utility.yul\":533:565   */\n      slt\n        /* \"#utility.yul\":530:649   */\n      iszero\n      tag_50\n      jumpi\n        /* \"#utility.yul\":568:647   */\n      tag_51\n      tag_52\n      jump\t// in\n    tag_51:\n        /* \"#utility.yul\":530:649   */\n    tag_50:\n        /* \"#utility.yul\":716:717   */\n      0x00\n        /* \"#utility.yul\":705:714   */\n      dup3\n        /* \"#utility.yul\":701:718   */\n      add\n        /* \"#utility.yul\":688:719   */\n      calldataload\n        /* \"#utility.yul\":746:764   */\n      0xffffffffffffffff\n        /* \"#utility.yul\":738:744   */\n      dup2\n        /* \"#utility.yul\":735:765   */\n      gt\n        /* \"#utility.yul\":732:849   */\n      iszero\n      tag_53\n      jumpi\n        /* \"#utility.yul\":768:847   */\n      tag_54\n      tag_55\n      jump\t// in\n    tag_54:\n        /* \"#utility.yul\":732:849   */\n    tag_53:\n        /* \"#utility.yul\":873:955   */\n      tag_56\n        /* \"#utility.yul\":947:954   */\n      dup5\n        /* \"#utility.yul\":938:944   */\n      dup3\n        /* \"#utility.yul\":927:936   */\n      dup6\n        /* \"#utility.yul\":923:945   */\n      add\n        /* \"#utility.yul\":873:955   */\n      tag_40\n      jump\t// in\n    tag_56:\n        /* \"#utility.yul\":863:955   */\n      swap2\n      pop\n        /* \"#utility.yul\":659:965   */\n      pop\n        /* \"#utility.yul\":425:972   */\n      swap3\n      swap2\n      pop\n      pop\n      jump\t// out\n        /* \"#utility.yul\":978:1303   */\n    tag_22:\n        /* \"#utility.yul\":1035:1041   */\n      0x00\n        /* \"#utility.yul\":1084:1086   */\n      0x20\n        /* \"#utility.yul\":1072:1081   */\n      dup3\n        /* \"#utility.yul\":1063:1070   */\n      dup5\n        /* \"#utility.yul\":1059:1082   */\n      sub\n        /* \"#utility.yul\":1055:1087   */\n      slt\n        /* \"#utility.yul\":1052:1171   */\n      iszero\n      tag_58\n      jumpi\n        /* \"#utility.yul\":1090:1169   */\n      tag_59\n      tag_52\n      jump\t// in\n    tag_59:\n        /* \"#utility.yul\":1052:1171   */\n    tag_58:\n        /* \"#utility.yul\":1210:1211   */\n      0x00\n        /* \"#utility.yul\":1235:1286   */\n      tag_60\n        /* \"#utility.yul\":1278:1285   */\n      dup5\n        /* \"#utility.yul\":1269:1275   */\n      dup3\n        /* \"#utility.yul\":1258:1267   */\n      dup6\n        /* \"#utility.yul\":1254:1276   */\n      add\n        /* \"#utility.yul\":1235:1286   */\n      tag_45\n      jump\t// in\n    tag_60:\n        /* \"#utility.yul\":1225:1286   */\n      swap2\n      pop\n        /* \"#utility.yul\":1181:1296   */\n      pop\n        /* \"#utility.yul\":978:1303   */\n      swap3\n      swap2\n      pop\n      pop\n      jump\t// out\n        /* \"#utility.yul\":1309:1418   */\n    tag_61:\n        /* \"#utility.yul\":1390:1411   */\n      tag_63\n        /* \"#utility.yul\":1405:1410   */\n      dup2\n        /* \"#utility.yul\":1390:1411   */\n      tag_64\n      jump\t// in\n    tag_63:\n        /* \"#utility.yul\":1385:1388   */\n      dup3\n        /* \"#utility.yul\":1378:1412   */\n      mstore\n        /* \"#utility.yul\":1309:1418   */\n      pop\n      pop\n      jump\t// out\n        /* \"#utility.yul\":1424:1536   */\n    tag_65:\n        /* \"#utility.yul\":1507:1529   */\n      tag_67\n        /* \"#utility.yul\":1523:1528   */\n      dup2\n        /* \"#utility.yul\":1507:1529   */\n      tag_68\n      jump\t// in\n    tag_67:\n        /* \"#utility.yul\":1502:1505   */\n      dup3\n        /* \"#utility.yul\":1495:1530   */\n      mstore\n        /* \"#utility.yul\":1424:1536   */\n      pop\n      pop\n      jump\t// out\n        /* \"#utility.yul\":1542:1752   */\n    tag_31:\n        /* \"#utility.yul\":1629:1633   */\n      0x00\n        /* \"#utility.yul\":1667:1669   */\n      0x20\n        /* \"#utility.yul\":1656:1665   */\n      dup3\n        /* \"#utility.yul\":1652:1670   */\n      add\n        /* \"#utility.yul\":1644:1670   */\n      swap1\n      pop\n        /* \"#utility.yul\":1680:1745   */\n      tag_70\n        /* \"#utility.yul\":1742:1743   */\n      0x00\n        /* \"#utility.yul\":1731:1740   */\n      dup4\n        /* \"#utility.yul\":1727:1744   */\n      add\n        /* \"#utility.yul\":1718:1724   */\n      dup5\n        /* \"#utility.yul\":1680:1745   */\n      tag_61\n      jump\t// in\n    tag_70:\n        /* \"#utility.yul\":1542:1752   */\n      swap3\n      swap2\n      pop\n      pop\n      jump\t// out\n        /* \"#utility.yul\":1758:1972   */\n    tag_14:\n        /* \"#utility.yul\":1847:1851   */\n      0x00\n        /* \"#utility.yul\":1885:1887   */\n      0x20\n        /* \"#utility.yul\":1874:1883   */\n      dup3\n        /* \"#utility.yul\":1870:1888   */\n      add\n        /* \"#utility.yul\":1862:1888   */\n      swap1\n      pop\n        /* \"#utility.yul\":1898:1965   */\n      tag_72\n        /* \"#utility.yul\":1962:1963   */\n      0x00\n        /* \"#utility.yul\":1951:1960   */\n      dup4\n        /* \"#utility.yul\":1947:1964   */\n      add\n        /* \"#utility.yul\":1938:1944   */\n      dup5\n        /* \"#utility.yul\":1898:1965   */\n      tag_65\n      jump\t// in\n    tag_72:\n        /* \"#utility.yul\":1758:1972   */\n      swap3\n      swap2\n      pop\n      pop\n      jump\t// out\n        /* \"#utility.yul\":2059:2149   */\n    tag_64:\n        /* \"#utility.yul\":2093:2100   */\n      0x00\n        /* \"#utility.yul\":2136:2141   */\n      dup2\n        /* \"#utility.yul\":2129:2142   */\n      iszero\n        /* \"#utility.yul\":2122:2143   */\n      iszero\n        /* \"#utility.yul\":2111:2143   */\n      swap1\n      pop\n        /* \"#utility.yul\":2059:2149   */\n      swap2\n      swap1\n      pop\n      jump\t// out\n        /* \"#utility.yul\":2155:2241   */\n    tag_68:\n        /* \"#utility.yul\":2190:2197   */\n      0x00\n        /* \"#utility.yul\":2230:2234   */\n      0xff\n        /* \"#utility.yul\":2223:2228   */\n      dup3\n        /* \"#utility.yul\":2219:2235   */\n      and\n        /* \"#utility.yul\":2208:2235   */\n      swap1\n      pop\n        /* \"#utility.yul\":2155:2241   */\n      swap2\n      swap1\n      pop\n      jump\t// out\n        /* \"#utility.yul\":2247:2364   */\n    tag_44:\n        /* \"#utility.yul\":2356:2357   */\n      0x00\n        /* \"#utility.yul\":2353:2354   */\n      dup1\n        /* \"#utility.yul\":2346:2358   */\n      revert\n        /* \"#utility.yul\":2370:2487   */\n    tag_55:\n        /* \"#utility.yul\":2479:2480   */\n      0x00\n        /* \"#utility.yul\":2476:2477   */\n      dup1\n        /* \"#utility.yul\":2469:2481   */\n      revert\n        /* \"#utility.yul\":2493:2610   */\n    tag_52:\n        /* \"#utility.yul\":2602:2603   */\n      0x00\n        /* \"#utility.yul\":2599:2600   */\n      dup1\n        /* \"#utility.yul\":2592:2604   */\n      revert\n        /* \"#utility.yul\":2616:2734   */\n    tag_48:\n        /* \"#utility.yul\":2687:2709   */\n      tag_81\n        /* \"#utility.yul\":2703:2708   */\n      dup2\n        /* \"#utility.yul\":2687:2709   */\n      tag_68\n      jump\t// in\n    tag_81:\n        /* \"#utility.yul\":2680:2685   */\n      dup2\n        /* \"#utility.yul\":2677:2710   */\n      eq\n        /* \"#utility.yul\":2667:2728   */\n      tag_82\n      jumpi\n        /* \"#utility.yul\":2724:2725   */\n      0x00\n        /* \"#utility.yul\":2721:2722   */\n      dup1\n        /* \"#utility.yul\":2714:2726   */\n      revert\n        /* \"#utility.yul\":2667:2728   */\n    tag_82:\n        /* \"#utility.yul\":2616:2734   */\n      pop\n      jump\t// out\n\n    auxdata: 0xa2646970667358221220a42fcbb08c44fef634cf10a9b6731a18e942376209c4f096f75f4ac734cf496664736f6c63430008070033\n}\n",
				"bytecode": {
					"linkReferences": {},
					"object": "608060405234801561001057600080fd5b50610308806100206000396000f3fe608060405234801561001057600080fd5b506004361061007d5760003560e01c8063713d87c51161005b578063713d87c5146100c8578063ac4bd53a146100f8578063c94ca9e314610116578063e494a883146101345761007d565b80632d78d8e51461008257806359f78468146100a057806369b36bd4146100aa575b600080fd5b61008a610150565b6040516100979190610278565b60405180910390f35b6100a8610155565b005b6100b2610157565b6040516100bf9190610278565b60405180910390f35b6100e260048036038101906100dd9190610212565b61015c565b6040516100ef9190610278565b60405180910390f35b61010061017c565b60405161010d9190610278565b60405180910390f35b61011e610181565b60405161012b919061025d565b60405180910390f35b61014e600480360381019061014991906101c9565b610192565b005b600281565b565b600181565b60016020528060005260406000206000915054906101000a900460ff1681565b600090565b60008054906101000a900460ff1681565b50565b6000608082840312156101ab576101aa6102ac565b5b81905092915050565b6000813590506101c3816102bb565b92915050565b6000602082840312156101df576101de6102b6565b5b600082013567ffffffffffffffff8111156101fd576101fc6102b1565b5b61020984828501610195565b91505092915050565b600060208284031215610228576102276102b6565b5b6000610236848285016101b4565b91505092915050565b61024881610293565b82525050565b6102578161029f565b82525050565b6000602082019050610272600083018461023f565b92915050565b600060208201905061028d600083018461024e565b92915050565b60008115159050919050565b600060ff82169050919050565b600080fd5b600080fd5b600080fd5b6102c48161029f565b81146102cf57600080fd5b5056fea2646970667358221220a42fcbb08c44fef634cf10a9b6731a18e942376209c4f096f75f4ac734cf496664736f6c63430008070033",
					"opcodes": "PUSH1 0x80 PUSH1 0x40 MSTORE CALLVALUE DUP1 ISZERO PUSH2 0x10 JUMPI PUSH1 0x0 DUP1 REVERT JUMPDEST POP PUSH2 0x308 DUP1 PUSH2 0x20 PUSH1 0x0 CODECOPY PUSH1 0x0 RETURN INVALID PUSH1 0x80 PUSH1 0x40 MSTORE CALLVALUE DUP1 ISZERO PUSH2 0x10 JUMPI PUSH1 0x0 DUP1 REVERT JUMPDEST POP PUSH1 0x4 CALLDATASIZE LT PUSH2 0x7D JUMPI PUSH1 0x0 CALLDATALOAD PUSH1 0xE0 SHR DUP1 PUSH4 0x713D87C5 GT PUSH2 0x5B JUMPI DUP1 PUSH4 0x713D87C5 EQ PUSH2 0xC8 JUMPI DUP1 PUSH4 0xAC4BD53A EQ PUSH2 0xF8 JUMPI DUP1 PUSH4 0xC94CA9E3 EQ PUSH2 0x116 JUMPI DUP1 PUSH4 0xE494A883 EQ PUSH2 0x134 JUMPI PUSH2 0x7D JUMP JUMPDEST DUP1 PUSH4 0x2D78D8E5 EQ PUSH2 0x82 JUMPI DUP1 PUSH4 0x59F78468 EQ PUSH2 0xA0 JUMPI DUP1 PUSH4 0x69B36BD4 EQ PUSH2 0xAA JUMPI JUMPDEST PUSH1 0x0 DUP1 REVERT JUMPDEST PUSH2 0x8A PUSH2 0x150 JUMP JUMPDEST PUSH1 0x40 MLOAD PUSH2 0x97 SWAP2 SWAP1 PUSH2 0x278 JUMP JUMPDEST PUSH1 0x40 MLOAD DUP1 SWAP2 SUB SWAP1 RETURN JUMPDEST PUSH2 0xA8 PUSH2 0x155 JUMP JUMPDEST STOP JUMPDEST PUSH2 0xB2 PUSH2 0x157 JUMP JUMPDEST PUSH1 0x40 MLOAD PUSH2 0xBF SWAP2 SWAP1 PUSH2 0x278 JUMP JUMPDEST PUSH1 0x40 MLOAD DUP1 SWAP2 SUB SWAP1 RETURN JUMPDEST PUSH2 0xE2 PUSH1 0x4 DUP1 CALLDATASIZE SUB DUP2 ADD SWAP1 PUSH2 0xDD SWAP2 SWAP1 PUSH2 0x212 JUMP JUMPDEST PUSH2 0x15C JUMP JUMPDEST PUSH1 0x40 MLOAD PUSH2 0xEF SWAP2 SWAP1 PUSH2 0x278 JUMP JUMPDEST PUSH1 0x40 MLOAD DUP1 SWAP2 SUB SWAP1 RETURN JUMPDEST PUSH2 0x100 PUSH2 0x17C JUMP JUMPDEST PUSH1 0x40 MLOAD PUSH2 0x10D SWAP2 SWAP1 PUSH2 0x278 JUMP JUMPDEST PUSH1 0x40 MLOAD DUP1 SWAP2 SUB SWAP1 RETURN JUMPDEST PUSH2 0x11E PUSH2 0x181 JUMP JUMPDEST PUSH1 0x40 MLOAD PUSH2 0x12B SWAP2 SWAP1 PUSH2 0x25D JUMP JUMPDEST PUSH1 0x40 MLOAD DUP1 SWAP2 SUB SWAP1 RETURN JUMPDEST PUSH2 0x14E PUSH1 0x4 DUP1 CALLDATASIZE SUB DUP2 ADD SWAP1 PUSH2 0x149 SWAP2 SWAP1 PUSH2 0x1C9 JUMP JUMPDEST PUSH2 0x192 JUMP JUMPDEST STOP JUMPDEST PUSH1 0x2 DUP2 JUMP JUMPDEST JUMP JUMPDEST PUSH1 0x1 DUP2 JUMP JUMPDEST PUSH1 0x1 PUSH1 0x20 MSTORE DUP1 PUSH1 0x0 MSTORE PUSH1 0x40 PUSH1 0x0 KECCAK256 PUSH1 0x0 SWAP2 POP SLOAD SWAP1 PUSH2 0x100 EXP SWAP1 DIV PUSH1 0xFF AND DUP2 JUMP JUMPDEST PUSH1 0x0 SWAP1 JUMP JUMPDEST PUSH1 0x0 DUP1 SLOAD SWAP1 PUSH2 0x100 EXP SWAP1 DIV PUSH1 0xFF AND DUP2 JUMP JUMPDEST POP JUMP JUMPDEST PUSH1 0x0 PUSH1 0x80 DUP3 DUP5 SUB SLT ISZERO PUSH2 0x1AB JUMPI PUSH2 0x1AA PUSH2 0x2AC JUMP JUMPDEST JUMPDEST DUP2 SWAP1 POP SWAP3 SWAP2 POP POP JUMP JUMPDEST PUSH1 0x0 DUP2 CALLDATALOAD SWAP1 POP PUSH2 0x1C3 DUP2 PUSH2 0x2BB JUMP JUMPDEST SWAP3 SWAP2 POP POP JUMP JUMPDEST PUSH1 0x0 PUSH1 0x20 DUP3 DUP5 SUB SLT ISZERO PUSH2 0x1DF JUMPI PUSH2 0x1DE PUSH2 0x2B6 JUMP JUMPDEST JUMPDEST PUSH1 0x0 DUP3 ADD CALLDATALOAD PUSH8 0xFFFFFFFFFFFFFFFF DUP2 GT ISZERO PUSH2 0x1FD JUMPI PUSH2 0x1FC PUSH2 0x2B1 JUMP JUMPDEST JUMPDEST PUSH2 0x209 DUP5 DUP3 DUP6 ADD PUSH2 0x195 JUMP JUMPDEST SWAP2 POP POP SWAP3 SWAP2 POP POP JUMP JUMPDEST PUSH1 0x0 PUSH1 0x20 DUP3 DUP5 SUB SLT ISZERO PUSH2 0x228 JUMPI PUSH2 0x227 PUSH2 0x2B6 JUMP JUMPDEST JUMPDEST PUSH1 0x0 PUSH2 0x236 DUP5 DUP3 DUP6 ADD PUSH2 0x1B4 JUMP JUMPDEST SWAP2 POP POP SWAP3 SWAP2 POP POP JUMP JUMPDEST PUSH2 0x248 DUP2 PUSH2 0x293 JUMP JUMPDEST DUP3 MSTORE POP POP JUMP JUMPDEST PUSH2 0x257 DUP2 PUSH2 0x29F JUMP JUMPDEST DUP3 MSTORE POP POP JUMP JUMPDEST PUSH1 0x0 PUSH1 0x20 DUP3 ADD SWAP1 POP PUSH2 0x272 PUSH1 0x0 DUP4 ADD DUP5 PUSH2 0x23F JUMP JUMPDEST SWAP3 SWAP2 POP POP JUMP JUMPDEST PUSH1 0x0 PUSH1 0x20 DUP3 ADD SWAP1 POP PUSH2 0x28D PUSH1 0x0 DUP4 ADD DUP5 PUSH2 0x24E JUMP JUMPDEST SWAP3 SWAP2 POP POP JUMP JUMPDEST PUSH1 0x0 DUP2 ISZERO ISZERO SWAP1 POP SWAP2 SWAP1 POP JUMP JUMPDEST PUSH1 0x0 PUSH1 0xFF DUP3 AND SWAP1 POP SWAP2 SWAP1 POP JUMP JUMPDEST PUSH1 0x0 DUP1 REVERT JUMPDEST PUSH1 0x0 DUP1 REVERT JUMPDEST PUSH1 0x0 DUP1 REVERT JUMPDEST PUSH2 0x2C4 DUP2 PUSH2 0x29F JUMP JUMPDEST DUP2 EQ PUSH2 0x2CF JUMPI PUSH1 0x0 DUP1 REVERT JUMPDEST POP JUMP INVALID LOG2 PUSH5 0x6970667358 0x22 SLT KECCAK256 LOG4 0x2F 0xCB 0xB0 DUP13 DIFFICULTY INVALID 0xF6 CALLVALUE 0xCF LT 0xA9 0xB6 PUSH20 0x1A18E942376209C4F096F75F4AC734CF49666473 PUSH16 0x6C634300080700330000000000000000 "
				},
				"gasEstimates": {
					"creation": {
						"codeDepositCost": "155200",
						"executionCost": "202",
						"totalCost": "155402"
					},
					"external": {
						"BIDEN()": "380",
						"TRUMP()": "336",
						"currentLeader()": "357",
						"electionEnded()": "2512",
						"endElection()": "167",
						"seats(uint8)": "infinite",
						"submitStateResult((string,uint256,uint256,uint8))": "441"
					}
				},
				"methodIdentifiers": {
					"BIDEN()": "69b36bd4",
					"TRUMP()": "2d78d8e5",
					"currentLeader()": "ac4bd53a",
					"electionEnded()": "c94ca9e3",
					"endElection()": "59f78468",
					"seats(uint8)": "713d87c5",
					"submitStateResult((string,uint256,uint256,uint8))": "e494a883"
				}
			},
			"userdoc": {
				"kind": "user",
				"methods": {},
				"version": 1
			}
		}
	}
}