{
	"Library.sol": {
		"Library": {
			"abi": [
				{
					"inputs": [],
					"stateMutability": "nonpayable",
					"type": "constructor"
				},
				{
					"inputs": [
						{
							"components": [
								{
									"internalType": "string",
									"name": "name",
									"type": "string"
								},
								{
									"internalType": "uint256",
									"name": "quantity",
									"type": "uint256"
								},
								{
									"internalType": "bool",
									"name": "exists",
									"type": "bool"
								}
							],
							"internalType": "struct Library.Book",
							"name": "newBook",
							"type": "tuple"
						}
					],
					"name": "AddBook",
					"outputs": [],
					"stateMutability": "nonpayable",
					"type": "function"
				},
				{
					"inputs": [],
					"name": "BorrowBook",
					"outputs": [],
					"stateMutability": "nonpayable",
					"type": "function"
				},
				{
					"inputs": [],
					"name": "ReturnBook",
					"outputs": [],
					"stateMutability": "nonpayable",
					"type": "function"
				},
				{
					"inputs": [],
					"name": "owner",
					"outputs": [
						{
							"internalType": "address",
							"name": "",
							"type": "address"
						}
					],
					"stateMutability": "view",
					"type": "function"
				}
			],
			"devdoc": {
				"kind": "dev",
				"methods": {},
				"version": 1
			},
			"evm": {
				"assembly": "    /* \"Library.sol\":64:816  contract Library {... */\n  mstore(0x40, 0x80)\n    /* \"Library.sol\":465:513  constructor(){... */\n  callvalue\n  dup1\n  iszero\n  tag_1\n  jumpi\n  0x00\n  dup1\n  revert\ntag_1:\n  pop\n    /* \"Library.sol\":496:506  msg.sender */\n  caller\n    /* \"Library.sol\":488:493  owner */\n  0x00\n  dup1\n    /* \"Library.sol\":488:506  owner = msg.sender */\n  0x0100\n  exp\n  dup2\n  sload\n  dup2\n  0xffffffffffffffffffffffffffffffffffffffff\n  mul\n  not\n  and\n  swap1\n  dup4\n  0xffffffffffffffffffffffffffffffffffffffff\n  and\n  mul\n  or\n  swap1\n  sstore\n  pop\n    /* \"Library.sol\":64:816  contract Library {... */\n  dataSize(sub_0)\n  dup1\n  dataOffset(sub_0)\n  0x00\n  codecopy\n  0x00\n  return\nstop\n\nsub_0: assembly {\n        /* \"Library.sol\":64:816  contract Library {... */\n      mstore(0x40, 0x80)\n      callvalue\n      dup1\n      iszero\n      tag_1\n      jumpi\n      0x00\n      dup1\n      revert\n    tag_1:\n      pop\n      jumpi(tag_2, lt(calldatasize, 0x04))\n      shr(0xe0, calldataload(0x00))\n      dup1\n      0x3a57335f\n      eq\n      tag_3\n      jumpi\n      dup1\n      0x40012b3c\n      eq\n      tag_4\n      jumpi\n      dup1\n      0x8da5cb5b\n      eq\n      tag_5\n      jumpi\n      dup1\n      0xa8144c89\n      eq\n      tag_6\n      jumpi\n    tag_2:\n      0x00\n      dup1\n      revert\n        /* \"Library.sol\":777:814  function ReturnBook() public {... */\n    tag_3:\n      tag_7\n      tag_8\n      jump\t// in\n    tag_7:\n      stop\n        /* \"Library.sol\":519:701  function AddBook(Book calldata newBook) public onlyOwnable{... */\n    tag_4:\n      tag_9\n      0x04\n      dup1\n      calldatasize\n      sub\n      dup2\n      add\n      swap1\n      tag_10\n      swap2\n      swap1\n      tag_11\n      jump\t// in\n    tag_10:\n      tag_12\n      jump\t// in\n    tag_9:\n      stop\n        /* \"Library.sol\":87:107  address public owner */\n    tag_5:\n      tag_13\n      tag_14\n      jump\t// in\n    tag_13:\n      mload(0x40)\n      tag_15\n      swap2\n      swap1\n      tag_16\n      jump\t// in\n    tag_15:\n      mload(0x40)\n      dup1\n      swap2\n      sub\n      swap1\n      return\n        /* \"Library.sol\":707:771  function BorrowBook() public {... */\n    tag_6:\n      tag_17\n      tag_18\n      jump\t// in\n    tag_17:\n      stop\n        /* \"Library.sol\":777:814  function ReturnBook() public {... */\n    tag_8:\n      jump\t// out\n        /* \"Library.sol\":519:701  function AddBook(Book calldata newBook) public onlyOwnable{... */\n    tag_12:\n        /* \"Library.sol\":297:302  owner */\n      0x00\n      dup1\n      sload\n      swap1\n      0x0100\n      exp\n      swap1\n      div\n      0xffffffffffffffffffffffffffffffffffffffff\n      and\n        /* \"Library.sol\":283:302  msg.sender == owner */\n      0xffffffffffffffffffffffffffffffffffffffff\n      and\n        /* \"Library.sol\":283:293  msg.sender */\n      caller\n        /* \"Library.sol\":283:302  msg.sender == owner */\n      0xffffffffffffffffffffffffffffffffffffffff\n      and\n      eq\n        /* \"Library.sol\":275:333  require(msg.sender == owner, \"Current user is not owner!\") */\n      tag_21\n      jumpi\n      mload(0x40)\n      0x08c379a000000000000000000000000000000000000000000000000000000000\n      dup2\n      mstore\n      0x04\n      add\n      tag_22\n      swap1\n      tag_23\n      jump\t// in\n    tag_22:\n      mload(0x40)\n      dup1\n      swap2\n      sub\n      swap1\n      revert\n    tag_21:\n        /* \"Library.sol\":590:598  BookList */\n      0x01\n        /* \"Library.sol\":599:606  newBook */\n      dup2\n        /* \"Library.sol\":599:611  newBook.name */\n      dup1\n      0x00\n      add\n      swap1\n      tag_25\n      swap2\n      swap1\n      tag_26\n      jump\t// in\n    tag_25:\n        /* \"Library.sol\":590:612  BookList[newBook.name] */\n      mload(0x40)\n      tag_27\n      swap3\n      swap2\n      swap1\n      tag_28\n      jump\t// in\n    tag_27:\n      swap1\n      dup2\n      mstore\n      0x20\n      add\n      mload(0x40)\n      dup1\n      swap2\n      sub\n      swap1\n      keccak256\n        /* \"Library.sol\":590:619  BookList[newBook.name].exists */\n      0x02\n      add\n      0x00\n      swap1\n      sload\n      swap1\n      0x0100\n      exp\n      swap1\n      div\n      0xff\n      and\n        /* \"Library.sol\":587:690  if(BookList[newBook.name].exists){... */\n      iszero\n      tag_29\n      jumpi\n        /* \"Library.sol\":634:679  revert(\"Book already exists in the Library!\") */\n      mload(0x40)\n      0x08c379a000000000000000000000000000000000000000000000000000000000\n      dup2\n      mstore\n      0x04\n      add\n      tag_30\n      swap1\n      tag_31\n      jump\t// in\n    tag_30:\n      mload(0x40)\n      dup1\n      swap2\n      sub\n      swap1\n      revert\n        /* \"Library.sol\":587:690  if(BookList[newBook.name].exists){... */\n    tag_29:\n        /* \"Library.sol\":519:701  function AddBook(Book calldata newBook) public onlyOwnable{... */\n      pop\n      jump\t// out\n        /* \"Library.sol\":87:107  address public owner */\n    tag_14:\n      0x00\n      dup1\n      sload\n      swap1\n      0x0100\n      exp\n      swap1\n      div\n      0xffffffffffffffffffffffffffffffffffffffff\n      and\n      dup2\n      jump\t// out\n        /* \"Library.sol\":707:771  function BorrowBook() public {... */\n    tag_18:\n      jump\t// out\n        /* \"#utility.yul\":34:193   */\n    tag_34:\n      0x00\n        /* \"#utility.yul\":143:145   */\n      0x60\n        /* \"#utility.yul\":134:140   */\n      dup3\n        /* \"#utility.yul\":129:132   */\n      dup5\n        /* \"#utility.yul\":125:141   */\n      sub\n        /* \"#utility.yul\":121:146   */\n      slt\n        /* \"#utility.yul\":118:120   */\n      iszero\n      tag_36\n      jumpi\n        /* \"#utility.yul\":159:160   */\n      0x00\n        /* \"#utility.yul\":156:157   */\n      dup1\n        /* \"#utility.yul\":149:161   */\n      revert\n        /* \"#utility.yul\":118:120   */\n    tag_36:\n        /* \"#utility.yul\":181:187   */\n      dup2\n        /* \"#utility.yul\":172:187   */\n      swap1\n      pop\n        /* \"#utility.yul\":108:193   */\n      swap3\n      swap2\n      pop\n      pop\n      jump\t// out\n        /* \"#utility.yul\":199:598   */\n    tag_11:\n      0x00\n        /* \"#utility.yul\":329:331   */\n      0x20\n        /* \"#utility.yul\":317:326   */\n      dup3\n        /* \"#utility.yul\":308:315   */\n      dup5\n        /* \"#utility.yul\":304:327   */\n      sub\n        /* \"#utility.yul\":300:332   */\n      slt\n        /* \"#utility.yul\":297:299   */\n      iszero\n      tag_38\n      jumpi\n        /* \"#utility.yul\":345:346   */\n      0x00\n        /* \"#utility.yul\":342:343   */\n      dup1\n        /* \"#utility.yul\":335:347   */\n      revert\n        /* \"#utility.yul\":297:299   */\n    tag_38:\n        /* \"#utility.yul\":416:417   */\n      0x00\n        /* \"#utility.yul\":405:414   */\n      dup3\n        /* \"#utility.yul\":401:418   */\n      add\n        /* \"#utility.yul\":388:419   */\n      calldataload\n        /* \"#utility.yul\":446:464   */\n      0xffffffffffffffff\n        /* \"#utility.yul\":438:444   */\n      dup2\n        /* \"#utility.yul\":435:465   */\n      gt\n        /* \"#utility.yul\":432:434   */\n      iszero\n      tag_39\n      jumpi\n        /* \"#utility.yul\":478:479   */\n      0x00\n        /* \"#utility.yul\":475:476   */\n      dup1\n        /* \"#utility.yul\":468:480   */\n      revert\n        /* \"#utility.yul\":432:434   */\n    tag_39:\n        /* \"#utility.yul\":506:581   */\n      tag_40\n        /* \"#utility.yul\":573:580   */\n      dup5\n        /* \"#utility.yul\":564:570   */\n      dup3\n        /* \"#utility.yul\":553:562   */\n      dup6\n        /* \"#utility.yul\":549:571   */\n      add\n        /* \"#utility.yul\":506:581   */\n      tag_34\n      jump\t// in\n    tag_40:\n        /* \"#utility.yul\":496:581   */\n      swap2\n      pop\n        /* \"#utility.yul\":359:591   */\n      pop\n        /* \"#utility.yul\":287:598   */\n      swap3\n      swap2\n      pop\n      pop\n      jump\t// out\n        /* \"#utility.yul\":604:722   */\n    tag_41:\n        /* \"#utility.yul\":691:715   */\n      tag_43\n        /* \"#utility.yul\":709:714   */\n      dup2\n        /* \"#utility.yul\":691:715   */\n      tag_44\n      jump\t// in\n    tag_43:\n        /* \"#utility.yul\":686:689   */\n      dup3\n        /* \"#utility.yul\":679:716   */\n      mstore\n        /* \"#utility.yul\":669:722   */\n      pop\n      pop\n      jump\t// out\n        /* \"#utility.yul\":752:1069   */\n    tag_45:\n      0x00\n        /* \"#utility.yul\":889:978   */\n      tag_47\n        /* \"#utility.yul\":971:977   */\n      dup4\n        /* \"#utility.yul\":966:969   */\n      dup6\n        /* \"#utility.yul\":889:978   */\n      tag_48\n      jump\t// in\n    tag_47:\n        /* \"#utility.yul\":882:978   */\n      swap4\n      pop\n        /* \"#utility.yul\":988:1031   */\n      tag_49\n        /* \"#utility.yul\":1024:1030   */\n      dup4\n        /* \"#utility.yul\":1019:1022   */\n      dup6\n        /* \"#utility.yul\":1012:1017   */\n      dup5\n        /* \"#utility.yul\":988:1031   */\n      tag_50\n      jump\t// in\n    tag_49:\n        /* \"#utility.yul\":1056:1062   */\n      dup3\n        /* \"#utility.yul\":1051:1054   */\n      dup5\n        /* \"#utility.yul\":1047:1063   */\n      add\n        /* \"#utility.yul\":1040:1063   */\n      swap1\n      pop\n        /* \"#utility.yul\":872:1069   */\n      swap4\n      swap3\n      pop\n      pop\n      pop\n      jump\t// out\n        /* \"#utility.yul\":1075:1399   */\n    tag_51:\n      0x00\n        /* \"#utility.yul\":1238:1305   */\n      tag_53\n        /* \"#utility.yul\":1302:1304   */\n      0x1a\n        /* \"#utility.yul\":1297:1300   */\n      dup4\n        /* \"#utility.yul\":1238:1305   */\n      tag_54\n      jump\t// in\n    tag_53:\n        /* \"#utility.yul\":1231:1305   */\n      swap2\n      pop\n        /* \"#utility.yul\":1335:1363   */\n      0x43757272656e742075736572206973206e6f74206f776e657221000000000000\n        /* \"#utility.yul\":1331:1332   */\n      0x00\n        /* \"#utility.yul\":1326:1329   */\n      dup4\n        /* \"#utility.yul\":1322:1333   */\n      add\n        /* \"#utility.yul\":1315:1364   */\n      mstore\n        /* \"#utility.yul\":1390:1392   */\n      0x20\n        /* \"#utility.yul\":1385:1388   */\n      dup3\n        /* \"#utility.yul\":1381:1393   */\n      add\n        /* \"#utility.yul\":1374:1393   */\n      swap1\n      pop\n        /* \"#utility.yul\":1221:1399   */\n      swap2\n      swap1\n      pop\n      jump\t// out\n        /* \"#utility.yul\":1405:1772   */\n    tag_55:\n      0x00\n        /* \"#utility.yul\":1568:1635   */\n      tag_57\n        /* \"#utility.yul\":1632:1634   */\n      0x23\n        /* \"#utility.yul\":1627:1630   */\n      dup4\n        /* \"#utility.yul\":1568:1635   */\n      tag_54\n      jump\t// in\n    tag_57:\n        /* \"#utility.yul\":1561:1635   */\n      swap2\n      pop\n        /* \"#utility.yul\":1665:1699   */\n      0x426f6f6b20616c72656164792065786973747320696e20746865204c69627261\n        /* \"#utility.yul\":1661:1662   */\n      0x00\n        /* \"#utility.yul\":1656:1659   */\n      dup4\n        /* \"#utility.yul\":1652:1663   */\n      add\n        /* \"#utility.yul\":1645:1700   */\n      mstore\n        /* \"#utility.yul\":1731:1736   */\n      0x7279210000000000000000000000000000000000000000000000000000000000\n        /* \"#utility.yul\":1726:1728   */\n      0x20\n        /* \"#utility.yul\":1721:1724   */\n      dup4\n        /* \"#utility.yul\":1717:1729   */\n      add\n        /* \"#utility.yul\":1710:1737   */\n      mstore\n        /* \"#utility.yul\":1763:1765   */\n      0x40\n        /* \"#utility.yul\":1758:1761   */\n      dup3\n        /* \"#utility.yul\":1754:1766   */\n      add\n        /* \"#utility.yul\":1747:1766   */\n      swap1\n      pop\n        /* \"#utility.yul\":1551:1772   */\n      swap2\n      swap1\n      pop\n      jump\t// out\n        /* \"#utility.yul\":1778:2073   */\n    tag_28:\n      0x00\n        /* \"#utility.yul\":1942:2047   */\n      tag_59\n        /* \"#utility.yul\":2043:2046   */\n      dup3\n        /* \"#utility.yul\":2034:2040   */\n      dup5\n        /* \"#utility.yul\":2026:2032   */\n      dup7\n        /* \"#utility.yul\":1942:2047   */\n      tag_45\n      jump\t// in\n    tag_59:\n        /* \"#utility.yul\":1935:2047   */\n      swap2\n      pop\n        /* \"#utility.yul\":2064:2067   */\n      dup2\n        /* \"#utility.yul\":2057:2067   */\n      swap1\n      pop\n        /* \"#utility.yul\":1924:2073   */\n      swap4\n      swap3\n      pop\n      pop\n      pop\n      jump\t// out\n        /* \"#utility.yul\":2079:2301   */\n    tag_16:\n      0x00\n        /* \"#utility.yul\":2210:2212   */\n      0x20\n        /* \"#utility.yul\":2199:2208   */\n      dup3\n        /* \"#utility.yul\":2195:2213   */\n      add\n        /* \"#utility.yul\":2187:2213   */\n      swap1\n      pop\n        /* \"#utility.yul\":2223:2294   */\n      tag_61\n        /* \"#utility.yul\":2291:2292   */\n      0x00\n        /* \"#utility.yul\":2280:2289   */\n      dup4\n        /* \"#utility.yul\":2276:2293   */\n      add\n        /* \"#utility.yul\":2267:2273   */\n      dup5\n        /* \"#utility.yul\":2223:2294   */\n      tag_41\n      jump\t// in\n    tag_61:\n        /* \"#utility.yul\":2177:2301   */\n      swap3\n      swap2\n      pop\n      pop\n      jump\t// out\n        /* \"#utility.yul\":2307:2726   */\n    tag_23:\n      0x00\n        /* \"#utility.yul\":2511:2513   */\n      0x20\n        /* \"#utility.yul\":2500:2509   */\n      dup3\n        /* \"#utility.yul\":2496:2514   */\n      add\n        /* \"#utility.yul\":2488:2514   */\n      swap1\n      pop\n        /* \"#utility.yul\":2560:2569   */\n      dup2\n        /* \"#utility.yul\":2554:2558   */\n      dup2\n        /* \"#utility.yul\":2550:2570   */\n      sub\n        /* \"#utility.yul\":2546:2547   */\n      0x00\n        /* \"#utility.yul\":2535:2544   */\n      dup4\n        /* \"#utility.yul\":2531:2548   */\n      add\n        /* \"#utility.yul\":2524:2571   */\n      mstore\n        /* \"#utility.yul\":2588:2719   */\n      tag_63\n        /* \"#utility.yul\":2714:2718   */\n      dup2\n        /* \"#utility.yul\":2588:2719   */\n      tag_51\n      jump\t// in\n    tag_63:\n        /* \"#utility.yul\":2580:2719   */\n      swap1\n      pop\n        /* \"#utility.yul\":2478:2726   */\n      swap2\n      swap1\n      pop\n      jump\t// out\n        /* \"#utility.yul\":2732:3151   */\n    tag_31:\n      0x00\n        /* \"#utility.yul\":2936:2938   */\n      0x20\n        /* \"#utility.yul\":2925:2934   */\n      dup3\n        /* \"#utility.yul\":2921:2939   */\n      add\n        /* \"#utility.yul\":2913:2939   */\n      swap1\n      pop\n        /* \"#utility.yul\":2985:2994   */\n      dup2\n        /* \"#utility.yul\":2979:2983   */\n      dup2\n        /* \"#utility.yul\":2975:2995   */\n      sub\n        /* \"#utility.yul\":2971:2972   */\n      0x00\n        /* \"#utility.yul\":2960:2969   */\n      dup4\n        /* \"#utility.yul\":2956:2973   */\n      add\n        /* \"#utility.yul\":2949:2996   */\n      mstore\n        /* \"#utility.yul\":3013:3144   */\n      tag_65\n        /* \"#utility.yul\":3139:3143   */\n      dup2\n        /* \"#utility.yul\":3013:3144   */\n      tag_55\n      jump\t// in\n    tag_65:\n        /* \"#utility.yul\":3005:3144   */\n      swap1\n      pop\n        /* \"#utility.yul\":2903:3151   */\n      swap2\n      swap1\n      pop\n      jump\t// out\n        /* \"#utility.yul\":3157:3681   */\n    tag_26:\n      0x00\n      dup1\n        /* \"#utility.yul\":3297:3308   */\n      dup4\n        /* \"#utility.yul\":3284:3309   */\n      calldataload\n        /* \"#utility.yul\":3397:3398   */\n      0x01\n        /* \"#utility.yul\":3391:3395   */\n      0x20\n        /* \"#utility.yul\":3387:3399   */\n      sub\n        /* \"#utility.yul\":3376:3384   */\n      dup5\n        /* \"#utility.yul\":3360:3374   */\n      calldatasize\n        /* \"#utility.yul\":3356:3385   */\n      sub\n        /* \"#utility.yul\":3352:3400   */\n      sub\n        /* \"#utility.yul\":3332:3350   */\n      dup2\n        /* \"#utility.yul\":3328:3401   */\n      slt\n        /* \"#utility.yul\":3318:3320   */\n      tag_67\n      jumpi\n        /* \"#utility.yul\":3415:3416   */\n      0x00\n        /* \"#utility.yul\":3412:3413   */\n      dup1\n        /* \"#utility.yul\":3405:3417   */\n      revert\n        /* \"#utility.yul\":3318:3320   */\n    tag_67:\n        /* \"#utility.yul\":3450:3468   */\n      dup1\n        /* \"#utility.yul\":3440:3448   */\n      dup5\n        /* \"#utility.yul\":3436:3469   */\n      add\n        /* \"#utility.yul\":3428:3469   */\n      swap3\n      pop\n        /* \"#utility.yul\":3502:3506   */\n      dup3\n        /* \"#utility.yul\":3489:3507   */\n      calldataload\n        /* \"#utility.yul\":3479:3507   */\n      swap2\n      pop\n        /* \"#utility.yul\":3530:3548   */\n      0xffffffffffffffff\n        /* \"#utility.yul\":3522:3528   */\n      dup3\n        /* \"#utility.yul\":3519:3549   */\n      gt\n        /* \"#utility.yul\":3516:3518   */\n      iszero\n      tag_68\n      jumpi\n        /* \"#utility.yul\":3562:3563   */\n      0x00\n        /* \"#utility.yul\":3559:3560   */\n      dup1\n        /* \"#utility.yul\":3552:3564   */\n      revert\n        /* \"#utility.yul\":3516:3518   */\n    tag_68:\n        /* \"#utility.yul\":3593:3595   */\n      0x20\n        /* \"#utility.yul\":3587:3591   */\n      dup4\n        /* \"#utility.yul\":3583:3596   */\n      add\n        /* \"#utility.yul\":3575:3596   */\n      swap3\n      pop\n        /* \"#utility.yul\":3650:3654   */\n      0x01\n        /* \"#utility.yul\":3642:3648   */\n      dup3\n        /* \"#utility.yul\":3638:3655   */\n      mul\n        /* \"#utility.yul\":3622:3636   */\n      calldatasize\n        /* \"#utility.yul\":3618:3656   */\n      sub\n        /* \"#utility.yul\":3612:3616   */\n      dup4\n        /* \"#utility.yul\":3608:3657   */\n      sgt\n        /* \"#utility.yul\":3605:3607   */\n      iszero\n      tag_69\n      jumpi\n        /* \"#utility.yul\":3670:3671   */\n      0x00\n        /* \"#utility.yul\":3667:3668   */\n      dup1\n        /* \"#utility.yul\":3660:3672   */\n      revert\n        /* \"#utility.yul\":3605:3607   */\n    tag_69:\n        /* \"#utility.yul\":3248:3681   */\n      pop\n      swap3\n      pop\n      swap3\n      swap1\n      pop\n      jump\t// out\n        /* \"#utility.yul\":3687:3856   */\n    tag_54:\n      0x00\n        /* \"#utility.yul\":3805:3811   */\n      dup3\n        /* \"#utility.yul\":3800:3803   */\n      dup3\n        /* \"#utility.yul\":3793:3812   */\n      mstore\n        /* \"#utility.yul\":3845:3849   */\n      0x20\n        /* \"#utility.yul\":3840:3843   */\n      dup3\n        /* \"#utility.yul\":3836:3850   */\n      add\n        /* \"#utility.yul\":3821:3850   */\n      swap1\n      pop\n        /* \"#utility.yul\":3783:3856   */\n      swap3\n      swap2\n      pop\n      pop\n      jump\t// out\n        /* \"#utility.yul\":3862:4010   */\n    tag_48:\n      0x00\n        /* \"#utility.yul\":4001:4004   */\n      dup2\n        /* \"#utility.yul\":3986:4004   */\n      swap1\n      pop\n        /* \"#utility.yul\":3976:4010   */\n      swap3\n      swap2\n      pop\n      pop\n      jump\t// out\n        /* \"#utility.yul\":4016:4112   */\n    tag_44:\n      0x00\n        /* \"#utility.yul\":4082:4106   */\n      tag_73\n        /* \"#utility.yul\":4100:4105   */\n      dup3\n        /* \"#utility.yul\":4082:4106   */\n      tag_74\n      jump\t// in\n    tag_73:\n        /* \"#utility.yul\":4071:4106   */\n      swap1\n      pop\n        /* \"#utility.yul\":4061:4112   */\n      swap2\n      swap1\n      pop\n      jump\t// out\n        /* \"#utility.yul\":4118:4244   */\n    tag_74:\n      0x00\n        /* \"#utility.yul\":4195:4237   */\n      0xffffffffffffffffffffffffffffffffffffffff\n        /* \"#utility.yul\":4188:4193   */\n      dup3\n        /* \"#utility.yul\":4184:4238   */\n      and\n        /* \"#utility.yul\":4173:4238   */\n      swap1\n      pop\n        /* \"#utility.yul\":4163:4244   */\n      swap2\n      swap1\n      pop\n      jump\t// out\n        /* \"#utility.yul\":4250:4404   */\n    tag_50:\n        /* \"#utility.yul\":4334:4340   */\n      dup3\n        /* \"#utility.yul\":4329:4332   */\n      dup2\n        /* \"#utility.yul\":4324:4327   */\n      dup4\n        /* \"#utility.yul\":4311:4341   */\n      calldatacopy\n        /* \"#utility.yul\":4396:4397   */\n      0x00\n        /* \"#utility.yul\":4387:4393   */\n      dup4\n        /* \"#utility.yul\":4382:4385   */\n      dup4\n        /* \"#utility.yul\":4378:4394   */\n      add\n        /* \"#utility.yul\":4371:4398   */\n      mstore\n        /* \"#utility.yul\":4301:4404   */\n      pop\n      pop\n      pop\n      jump\t// out\n\n    auxdata: 0xa2646970667358221220e6ae7f597b9ec8d46bc6a607b74fcda6f11c6250ca581c0109abacc623781db164736f6c63430008000033\n}\n",
				"bytecode": {
					"linkReferences": {},
					"object": "608060405234801561001057600080fd5b50336000806101000a81548173ffffffffffffffffffffffffffffffffffffffff021916908373ffffffffffffffffffffffffffffffffffffffff16021790555061046b806100606000396000f3fe608060405234801561001057600080fd5b506004361061004c5760003560e01c80633a57335f1461005157806340012b3c1461005b5780638da5cb5b14610077578063a8144c8914610095575b600080fd5b61005961009f565b005b610075600480360381019061007091906101f2565b6100a1565b005b61007f6101b1565b60405161008c9190610326565b60405180910390f35b61009d6101d5565b005b565b60008054906101000a900473ffffffffffffffffffffffffffffffffffffffff1673ffffffffffffffffffffffffffffffffffffffff163373ffffffffffffffffffffffffffffffffffffffff161461012f576040517f08c379a000000000000000000000000000000000000000000000000000000000815260040161012690610341565b60405180910390fd5b60018180600001906101419190610381565b60405161014f92919061030d565b908152602001604051809103902060020160009054906101000a900460ff16156101ae576040517f08c379a00000000000000000000000000000000000000000000000000000000081526004016101a590610361565b60405180910390fd5b50565b60008054906101000a900473ffffffffffffffffffffffffffffffffffffffff1681565b565b6000606082840312156101e957600080fd5b81905092915050565b60006020828403121561020457600080fd5b600082013567ffffffffffffffff81111561021e57600080fd5b61022a848285016101d7565b91505092915050565b61023c816103f4565b82525050565b600061024e83856103e9565b935061025b838584610426565b82840190509392505050565b6000610274601a836103d8565b91507f43757272656e742075736572206973206e6f74206f776e6572210000000000006000830152602082019050919050565b60006102b46023836103d8565b91507f426f6f6b20616c72656164792065786973747320696e20746865204c6962726160008301527f72792100000000000000000000000000000000000000000000000000000000006020830152604082019050919050565b600061031a828486610242565b91508190509392505050565b600060208201905061033b6000830184610233565b92915050565b6000602082019050818103600083015261035a81610267565b9050919050565b6000602082019050818103600083015261037a816102a7565b9050919050565b6000808335600160200384360303811261039a57600080fd5b80840192508235915067ffffffffffffffff8211156103b857600080fd5b6020830192506001820236038313156103d057600080fd5b509250929050565b600082825260208201905092915050565b600081905092915050565b60006103ff82610406565b9050919050565b600073ffffffffffffffffffffffffffffffffffffffff82169050919050565b8281833760008383015250505056fea2646970667358221220e6ae7f597b9ec8d46bc6a607b74fcda6f11c6250ca581c0109abacc623781db164736f6c63430008000033",
					"opcodes": "PUSH1 0x80 PUSH1 0x40 MSTORE CALLVALUE DUP1 ISZERO PUSH2 0x10 JUMPI PUSH1 0x0 DUP1 REVERT JUMPDEST POP CALLER PUSH1 0x0 DUP1 PUSH2 0x100 EXP DUP2 SLOAD DUP2 PUSH20 0xFFFFFFFFFFFFFFFFFFFFFFFFFFFFFFFFFFFFFFFF MUL NOT AND SWAP1 DUP4 PUSH20 0xFFFFFFFFFFFFFFFFFFFFFFFFFFFFFFFFFFFFFFFF AND MUL OR SWAP1 SSTORE POP PUSH2 0x46B DUP1 PUSH2 0x60 PUSH1 0x0 CODECOPY PUSH1 0x0 RETURN INVALID PUSH1 0x80 PUSH1 0x40 MSTORE CALLVALUE DUP1 ISZERO PUSH2 0x10 JUMPI PUSH1 0x0 DUP1 REVERT JUMPDEST POP PUSH1 0x4 CALLDATASIZE LT PUSH2 0x4C JUMPI PUSH1 0x0 CALLDATALOAD PUSH1 0xE0 SHR DUP1 PUSH4 0x3A57335F EQ PUSH2 0x51 JUMPI DUP1 PUSH4 0x40012B3C EQ PUSH2 0x5B JUMPI DUP1 PUSH4 0x8DA5CB5B EQ PUSH2 0x77 JUMPI DUP1 PUSH4 0xA8144C89 EQ PUSH2 0x95 JUMPI JUMPDEST PUSH1 0x0 DUP1 REVERT JUMPDEST PUSH2 0x59 PUSH2 0x9F JUMP JUMPDEST STOP JUMPDEST PUSH2 0x75 PUSH1 0x4 DUP1 CALLDATASIZE SUB DUP2 ADD SWAP1 PUSH2 0x70 SWAP2 SWAP1 PUSH2 0x1F2 JUMP JUMPDEST PUSH2 0xA1 JUMP JUMPDEST STOP JUMPDEST PUSH2 0x7F PUSH2 0x1B1 JUMP JUMPDEST PUSH1 0x40 MLOAD PUSH2 0x8C SWAP2 SWAP1 PUSH2 0x326 JUMP JUMPDEST PUSH1 0x40 MLOAD DUP1 SWAP2 SUB SWAP1 RETURN JUMPDEST PUSH2 0x9D PUSH2 0x1D5 JUMP JUMPDEST STOP JUMPDEST JUMP JUMPDEST PUSH1 0x0 DUP1 SLOAD SWAP1 PUSH2 0x100 EXP SWAP1 DIV PUSH20 0xFFFFFFFFFFFFFFFFFFFFFFFFFFFFFFFFFFFFFFFF AND PUSH20 0xFFFFFFFFFFFFFFFFFFFFFFFFFFFFFFFFFFFFFFFF AND CALLER PUSH20 0xFFFFFFFFFFFFFFFFFFFFFFFFFFFFFFFFFFFFFFFF AND EQ PUSH2 0x12F JUMPI PUSH1 0x40 MLOAD PUSH32 0x8C379A000000000000000000000000000000000000000000000000000000000 DUP2 MSTORE PUSH1 0x4 ADD PUSH2 0x126 SWAP1 PUSH2 0x341 JUMP JUMPDEST PUSH1 0x40 MLOAD DUP1 SWAP2 SUB SWAP1 REVERT JUMPDEST PUSH1 0x1 DUP2 DUP1 PUSH1 0x0 ADD SWAP1 PUSH2 0x141 SWAP2 SWAP1 PUSH2 0x381 JUMP JUMPDEST PUSH1 0x40 MLOAD PUSH2 0x14F SWAP3 SWAP2 SWAP1 PUSH2 0x30D JUMP JUMPDEST SWAP1 DUP2 MSTORE PUSH1 0x20 ADD PUSH1 0x40 MLOAD DUP1 SWAP2 SUB SWAP1 KECCAK256 PUSH1 0x2 ADD PUSH1 0x0 SWAP1 SLOAD SWAP1 PUSH2 0x100 EXP SWAP1 DIV PUSH1 0xFF AND ISZERO PUSH2 0x1AE JUMPI PUSH1 0x40 MLOAD PUSH32 0x8C379A000000000000000000000000000000000000000000000000000000000 DUP2 MSTORE PUSH1 0x4 ADD PUSH2 0x1A5 SWAP1 PUSH2 0x361 JUMP JUMPDEST PUSH1 0x40 MLOAD DUP1 SWAP2 SUB SWAP1 REVERT JUMPDEST POP JUMP JUMPDEST PUSH1 0x0 DUP1 SLOAD SWAP1 PUSH2 0x100 EXP SWAP1 DIV PUSH20 0xFFFFFFFFFFFFFFFFFFFFFFFFFFFFFFFFFFFFFFFF AND DUP2 JUMP JUMPDEST JUMP JUMPDEST PUSH1 0x0 PUSH1 0x60 DUP3 DUP5 SUB SLT ISZERO PUSH2 0x1E9 JUMPI PUSH1 0x0 DUP1 REVERT JUMPDEST DUP2 SWAP1 POP SWAP3 SWAP2 POP POP JUMP JUMPDEST PUSH1 0x0 PUSH1 0x20 DUP3 DUP5 SUB SLT ISZERO PUSH2 0x204 JUMPI PUSH1 0x0 DUP1 REVERT JUMPDEST PUSH1 0x0 DUP3 ADD CALLDATALOAD PUSH8 0xFFFFFFFFFFFFFFFF DUP2 GT ISZERO PUSH2 0x21E JUMPI PUSH1 0x0 DUP1 REVERT JUMPDEST PUSH2 0x22A DUP5 DUP3 DUP6 ADD PUSH2 0x1D7 JUMP JUMPDEST SWAP2 POP POP SWAP3 SWAP2 POP POP JUMP JUMPDEST PUSH2 0x23C DUP2 PUSH2 0x3F4 JUMP JUMPDEST DUP3 MSTORE POP POP JUMP JUMPDEST PUSH1 0x0 PUSH2 0x24E DUP4 DUP6 PUSH2 0x3E9 JUMP JUMPDEST SWAP4 POP PUSH2 0x25B DUP4 DUP6 DUP5 PUSH2 0x426 JUMP JUMPDEST DUP3 DUP5 ADD SWAP1 POP SWAP4 SWAP3 POP POP POP JUMP JUMPDEST PUSH1 0x0 PUSH2 0x274 PUSH1 0x1A DUP4 PUSH2 0x3D8 JUMP JUMPDEST SWAP2 POP PUSH32 0x43757272656E742075736572206973206E6F74206F776E657221000000000000 PUSH1 0x0 DUP4 ADD MSTORE PUSH1 0x20 DUP3 ADD SWAP1 POP SWAP2 SWAP1 POP JUMP JUMPDEST PUSH1 0x0 PUSH2 0x2B4 PUSH1 0x23 DUP4 PUSH2 0x3D8 JUMP JUMPDEST SWAP2 POP PUSH32 0x426F6F6B20616C72656164792065786973747320696E20746865204C69627261 PUSH1 0x0 DUP4 ADD MSTORE PUSH32 0x7279210000000000000000000000000000000000000000000000000000000000 PUSH1 0x20 DUP4 ADD MSTORE PUSH1 0x40 DUP3 ADD SWAP1 POP SWAP2 SWAP1 POP JUMP JUMPDEST PUSH1 0x0 PUSH2 0x31A DUP3 DUP5 DUP7 PUSH2 0x242 JUMP JUMPDEST SWAP2 POP DUP2 SWAP1 POP SWAP4 SWAP3 POP POP POP JUMP JUMPDEST PUSH1 0x0 PUSH1 0x20 DUP3 ADD SWAP1 POP PUSH2 0x33B PUSH1 0x0 DUP4 ADD DUP5 PUSH2 0x233 JUMP JUMPDEST SWAP3 SWAP2 POP POP JUMP JUMPDEST PUSH1 0x0 PUSH1 0x20 DUP3 ADD SWAP1 POP DUP2 DUP2 SUB PUSH1 0x0 DUP4 ADD MSTORE PUSH2 0x35A DUP2 PUSH2 0x267 JUMP JUMPDEST SWAP1 POP SWAP2 SWAP1 POP JUMP JUMPDEST PUSH1 0x0 PUSH1 0x20 DUP3 ADD SWAP1 POP DUP2 DUP2 SUB PUSH1 0x0 DUP4 ADD MSTORE PUSH2 0x37A DUP2 PUSH2 0x2A7 JUMP JUMPDEST SWAP1 POP SWAP2 SWAP1 POP JUMP JUMPDEST PUSH1 0x0 DUP1 DUP4 CALLDATALOAD PUSH1 0x1 PUSH1 0x20 SUB DUP5 CALLDATASIZE SUB SUB DUP2 SLT PUSH2 0x39A JUMPI PUSH1 0x0 DUP1 REVERT JUMPDEST DUP1 DUP5 ADD SWAP3 POP DUP3 CALLDATALOAD SWAP2 POP PUSH8 0xFFFFFFFFFFFFFFFF DUP3 GT ISZERO PUSH2 0x3B8 JUMPI PUSH1 0x0 DUP1 REVERT JUMPDEST PUSH1 0x20 DUP4 ADD SWAP3 POP PUSH1 0x1 DUP3 MUL CALLDATASIZE SUB DUP4 SGT ISZERO PUSH2 0x3D0 JUMPI PUSH1 0x0 DUP1 REVERT JUMPDEST POP SWAP3 POP SWAP3 SWAP1 POP JUMP JUMPDEST PUSH1 0x0 DUP3 DUP3 MSTORE PUSH1 0x20 DUP3 ADD SWAP1 POP SWAP3 SWAP2 POP POP JUMP JUMPDEST PUSH1 0x0 DUP2 SWAP1 POP SWAP3 SWAP2 POP POP JUMP JUMPDEST PUSH1 0x0 PUSH2 0x3FF DUP3 PUSH2 0x406 JUMP JUMPDEST SWAP1 POP SWAP2 SWAP1 POP JUMP JUMPDEST PUSH1 0x0 PUSH20 0xFFFFFFFFFFFFFFFFFFFFFFFFFFFFFFFFFFFFFFFF DUP3 AND SWAP1 POP SWAP2 SWAP1 POP JUMP JUMPDEST DUP3 DUP2 DUP4 CALLDATACOPY PUSH1 0x0 DUP4 DUP4 ADD MSTORE POP POP POP JUMP INVALID LOG2 PUSH5 0x6970667358 0x22 SLT KECCAK256 0xE6 0xAE PUSH32 0x597B9EC8D46BC6A607B74FCDA6F11C6250CA581C0109ABACC623781DB164736F PUSH13 0x63430008000033000000000000 "
				},
				"gasEstimates": {
					"creation": {
						"codeDepositCost": "226200",
						"executionCost": "21135",
						"totalCost": "247335"
					},
					"external": {
						"AddBook((string,uint256,bool))": "infinite",
						"BorrowBook()": "188",
						"ReturnBook()": "122",
						"owner()": "1233"
					}
				},
				"methodIdentifiers": {
					"AddBook((string,uint256,bool))": "40012b3c",
					"BorrowBook()": "a8144c89",
					"ReturnBook()": "3a57335f",
					"owner()": "8da5cb5b"
				}
			},
			"userdoc": {
				"kind": "user",
				"methods": {},
				"version": 1
			}
		}
	}
}